{"abi":[{"inputs":[{"internalType":"string","name":"password","type":"string"}],"stateMutability":"nonpayable","type":"constructor"},{"inputs":[{"internalType":"address","name":"adminAddress","type":"address"}],"name":"activateAdmin","outputs":[],"stateMutability":"nonpayable","type":"function"},{"inputs":[{"internalType":"string","name":"firstName","type":"string"},{"internalType":"string","name":"lastName","type":"string"},{"internalType":"string","name":"county","type":"string"},{"internalType":"address","name":"adminAddress","type":"address"}],"name":"addAdmin","outputs":[],"stateMutability":"nonpayable","type":"function"},{"inputs":[{"internalType":"address","name":"","type":"address"}],"name":"admins","outputs":[{"internalType":"string","name":"firstName","type":"string"},{"internalType":"string","name":"lastName","type":"string"},{"internalType":"address","name":"adminAddress","type":"address"},{"internalType":"string","name":"county","type":"string"},{"internalType":"bool","name":"active","type":"bool"}],"stateMutability":"view","type":"function"},{"inputs":[{"internalType":"uint256","name":"","type":"uint256"}],"name":"adminsAdresses","outputs":[{"internalType":"address","name":"","type":"address"}],"stateMutability":"view","type":"function"},{"inputs":[{"internalType":"uint256","name":"","type":"uint256"}],"name":"counties","outputs":[{"internalType":"string","name":"","type":"string"}],"stateMutability":"view","type":"function"},{"inputs":[{"internalType":"address","name":"adminAddress","type":"address"}],"name":"deactivateAdmin","outputs":[],"stateMutability":"nonpayable","type":"function"},{"inputs":[{"internalType":"string","name":"_firstName","type":"string"},{"internalType":"string","name":"_lastName","type":"string"},{"internalType":"string","name":"_county","type":"string"},{"internalType":"address","name":"_adminAddress","type":"address"}],"name":"editAdmin","outputs":[],"stateMutability":"nonpayable","type":"function"},{"inputs":[{"internalType":"address","name":"adminAddress","type":"address"}],"name":"getAdmin","outputs":[{"components":[{"internalType":"string","name":"firstName","type":"string"},{"internalType":"string","name":"lastName","type":"string"},{"internalType":"address","name":"adminAddress","type":"address"},{"internalType":"string","name":"county","type":"string"},{"internalType":"bool","name":"active","type":"bool"}],"internalType":"struct LandRegistration.Admin","name":"","type":"tuple"}],"stateMutability":"view","type":"function"},{"inputs":[],"name":"getAdminAddresses","outputs":[{"internalType":"address[]","name":"","type":"address[]"}],"stateMutability":"view","type":"function"},{"inputs":[],"name":"getLandIds","outputs":[{"internalType":"string[]","name":"","type":"string[]"}],"stateMutability":"view","type":"function"},{"inputs":[],"name":"getSuperAdminPassword","outputs":[{"internalType":"string","name":"","type":"string"}],"stateMutability":"view","type":"function"},{"inputs":[{"internalType":"uint256","name":"","type":"uint256"}],"name":"landIdsArr","outputs":[{"internalType":"string","name":"","type":"string"}],"stateMutability":"view","type":"function"},{"inputs":[{"internalType":"string","name":"","type":"string"}],"name":"landIdsMapping","outputs":[{"internalType":"bool","name":"","type":"bool"}],"stateMutability":"view","type":"function"},{"inputs":[{"internalType":"string","name":"","type":"string"}],"name":"lands","outputs":[{"internalType":"string","name":"county","type":"string"},{"internalType":"string","name":"location","type":"string"},{"internalType":"string","name":"surveyNumber","type":"string"},{"internalType":"address","name":"ownerAddress","type":"address"},{"internalType":"string","name":"marketValue","type":"string"},{"internalType":"bool","name":"availability","type":"bool"},{"internalType":"bool","name":"requestedForSale","type":"bool"},{"internalType":"address","name":"requestedByAddress","type":"address"},{"internalType":"string","name":"landId","type":"string"},{"internalType":"address","name":"adminAddress","type":"address"}],"stateMutability":"view","type":"function"},{"inputs":[],"name":"landsCount","outputs":[{"internalType":"uint256","name":"","type":"uint256"}],"stateMutability":"view","type":"function"},{"inputs":[],"name":"loginAdmin","outputs":[{"internalType":"bool","name":"","type":"bool"}],"stateMutability":"view","type":"function"},{"inputs":[{"internalType":"string","name":"_location","type":"string"},{"internalType":"string","name":"_surveryNumber","type":"string"},{"internalType":"address","name":"_ownerAddress","type":"address"},{"internalType":"string","name":"_marketValue","type":"string"},{"internalType":"address","name":"_adminAddress","type":"address"},{"internalType":"string","name":"_landId","type":"string"}],"name":"registerLand","outputs":[],"stateMutability":"nonpayable","type":"function"},{"inputs":[],"name":"superAdminAddress","outputs":[{"internalType":"address","name":"","type":"address"}],"stateMutability":"view","type":"function"}],"devdoc":{"kind":"dev","methods":{},"version":1},"evm":{"assembly":"    /* \"LandRegistration.sol\":61:4251  contract LandRegistration {... */\n  mstore(0x40, 0x80)\n    /* \"LandRegistration.sol\":944:1090  constructor(string memory password) {... */\n  callvalue\n  dup1\n  iszero\n  tag_1\n  jumpi\n  0x00\n  dup1\n  revert\ntag_1:\n  pop\n  mload(0x40)\n  sub(codesize, bytecodeSize)\n  dup1\n  bytecodeSize\n  dup4\n  codecopy\n  dup2\n  dup2\n  add\n  0x40\n  mstore\n  dup2\n  add\n  swap1\n  tag_2\n  swap2\n  swap1\n  tag_3\n  jump\t// in\ntag_2:\n    /* \"LandRegistration.sol\":1011:1019  password */\n  dup1\n    /* \"LandRegistration.sol\":990:1008  superAdminPassword */\n  0x01\n    /* \"LandRegistration.sol\":990:1019  superAdminPassword = password */\n  swap1\n  dup1\n  mload\n  swap1\n  0x20\n  add\n  swap1\n  tag_6\n  swap3\n  swap2\n  swap1\n  tag_7\n  jump\t// in\ntag_6:\n  pop\n    /* \"LandRegistration.sol\":1049:1059  msg.sender */\n  caller\n    /* \"LandRegistration.sol\":1029:1046  superAdminAddress */\n  0x00\n  dup1\n    /* \"LandRegistration.sol\":1029:1059  superAdminAddress = msg.sender */\n  0x0100\n  exp\n  dup2\n  sload\n  dup2\n  0xffffffffffffffffffffffffffffffffffffffff\n  mul\n  not\n  and\n  swap1\n  dup4\n  0xffffffffffffffffffffffffffffffffffffffff\n  and\n  mul\n  or\n  swap1\n  sstore\n  pop\n    /* \"LandRegistration.sol\":1082:1083  0 */\n  0x00\n    /* \"LandRegistration.sol\":1069:1079  landsCount */\n  0x09\n    /* \"LandRegistration.sol\":1069:1083  landsCount = 0 */\n  dup2\n  swap1\n  sstore\n  pop\n    /* \"LandRegistration.sol\":944:1090  constructor(string memory password) {... */\n  pop\n    /* \"LandRegistration.sol\":61:4251  contract LandRegistration {... */\n  jump(tag_8)\ntag_7:\n  dup3\n  dup1\n  sload\n  tag_9\n  swap1\n  tag_10\n  jump\t// in\ntag_9:\n  swap1\n  0x00\n  mstore\n  keccak256(0x00, 0x20)\n  swap1\n  0x1f\n  add\n  0x20\n  swap1\n  div\n  dup2\n  add\n  swap3\n  dup3\n  tag_12\n  jumpi\n  0x00\n  dup6\n  sstore\n  jump(tag_11)\ntag_12:\n  dup3\n  0x1f\n  lt\n  tag_13\n  jumpi\n  dup1\n  mload\n  not(0xff)\n  and\n  dup4\n  dup1\n  add\n  or\n  dup6\n  sstore\n  jump(tag_11)\ntag_13:\n  dup3\n  dup1\n  add\n  0x01\n  add\n  dup6\n  sstore\n  dup3\n  iszero\n  tag_11\n  jumpi\n  swap2\n  dup3\n  add\ntag_14:\n  dup3\n  dup2\n  gt\n  iszero\n  tag_15\n  jumpi\n  dup3\n  mload\n  dup3\n  sstore\n  swap2\n  0x20\n  add\n  swap2\n  swap1\n  0x01\n  add\n  swap1\n  jump(tag_14)\ntag_15:\ntag_11:\n  pop\n  swap1\n  pop\n  tag_16\n  swap2\n  swap1\n  tag_17\n  jump\t// in\ntag_16:\n  pop\n  swap1\n  jump\t// out\ntag_17:\ntag_18:\n  dup1\n  dup3\n  gt\n  iszero\n  tag_19\n  jumpi\n  0x00\n  dup2\n  0x00\n  swap1\n  sstore\n  pop\n  0x01\n  add\n  jump(tag_18)\ntag_19:\n  pop\n  swap1\n  jump\t// out\n    /* \"#utility.yul\":7:82   */\ntag_20:\n    /* \"#utility.yul\":40:46   */\n  0x00\n    /* \"#utility.yul\":73:75   */\n  0x40\n    /* \"#utility.yul\":67:76   */\n  mload\n    /* \"#utility.yul\":57:76   */\n  swap1\n  pop\n    /* \"#utility.yul\":7:82   */\n  swap1\n  jump\t// out\n    /* \"#utility.yul\":88:205   */\ntag_21:\n    /* \"#utility.yul\":197:198   */\n  0x00\n    /* \"#utility.yul\":194:195   */\n  dup1\n    /* \"#utility.yul\":187:199   */\n  revert\n    /* \"#utility.yul\":211:328   */\ntag_22:\n    /* \"#utility.yul\":320:321   */\n  0x00\n    /* \"#utility.yul\":317:318   */\n  dup1\n    /* \"#utility.yul\":310:322   */\n  revert\n    /* \"#utility.yul\":334:451   */\ntag_23:\n    /* \"#utility.yul\":443:444   */\n  0x00\n    /* \"#utility.yul\":440:441   */\n  dup1\n    /* \"#utility.yul\":433:445   */\n  revert\n    /* \"#utility.yul\":457:574   */\ntag_24:\n    /* \"#utility.yul\":566:567   */\n  0x00\n    /* \"#utility.yul\":563:564   */\n  dup1\n    /* \"#utility.yul\":556:568   */\n  revert\n    /* \"#utility.yul\":580:682   */\ntag_25:\n    /* \"#utility.yul\":621:627   */\n  0x00\n    /* \"#utility.yul\":672:674   */\n  0x1f\n    /* \"#utility.yul\":668:675   */\n  not\n    /* \"#utility.yul\":663:665   */\n  0x1f\n    /* \"#utility.yul\":656:661   */\n  dup4\n    /* \"#utility.yul\":652:666   */\n  add\n    /* \"#utility.yul\":648:676   */\n  and\n    /* \"#utility.yul\":638:676   */\n  swap1\n  pop\n    /* \"#utility.yul\":580:682   */\n  swap2\n  swap1\n  pop\n  jump\t// out\n    /* \"#utility.yul\":688:868   */\ntag_26:\n    /* \"#utility.yul\":736:813   */\n  0x4e487b7100000000000000000000000000000000000000000000000000000000\n    /* \"#utility.yul\":733:734   */\n  0x00\n    /* \"#utility.yul\":726:814   */\n  mstore\n    /* \"#utility.yul\":833:837   */\n  0x41\n    /* \"#utility.yul\":830:831   */\n  0x04\n    /* \"#utility.yul\":823:838   */\n  mstore\n    /* \"#utility.yul\":857:861   */\n  0x24\n    /* \"#utility.yul\":854:855   */\n  0x00\n    /* \"#utility.yul\":847:862   */\n  revert\n    /* \"#utility.yul\":874:1155   */\ntag_27:\n    /* \"#utility.yul\":957:984   */\n  tag_43\n    /* \"#utility.yul\":979:983   */\n  dup3\n    /* \"#utility.yul\":957:984   */\n  tag_25\n  jump\t// in\ntag_43:\n    /* \"#utility.yul\":949:955   */\n  dup2\n    /* \"#utility.yul\":945:985   */\n  add\n    /* \"#utility.yul\":1087:1093   */\n  dup2\n    /* \"#utility.yul\":1075:1085   */\n  dup2\n    /* \"#utility.yul\":1072:1094   */\n  lt\n    /* \"#utility.yul\":1051:1069   */\n  0xffffffffffffffff\n    /* \"#utility.yul\":1039:1049   */\n  dup3\n    /* \"#utility.yul\":1036:1070   */\n  gt\n    /* \"#utility.yul\":1033:1095   */\n  or\n    /* \"#utility.yul\":1030:1118   */\n  iszero\n  tag_44\n  jumpi\n    /* \"#utility.yul\":1098:1116   */\n  tag_45\n  tag_26\n  jump\t// in\ntag_45:\n    /* \"#utility.yul\":1030:1118   */\ntag_44:\n    /* \"#utility.yul\":1138:1148   */\n  dup1\n    /* \"#utility.yul\":1134:1136   */\n  0x40\n    /* \"#utility.yul\":1127:1149   */\n  mstore\n    /* \"#utility.yul\":917:1155   */\n  pop\n    /* \"#utility.yul\":874:1155   */\n  pop\n  pop\n  jump\t// out\n    /* \"#utility.yul\":1161:1290   */\ntag_28:\n    /* \"#utility.yul\":1195:1201   */\n  0x00\n    /* \"#utility.yul\":1222:1242   */\n  tag_47\n  tag_20\n  jump\t// in\ntag_47:\n    /* \"#utility.yul\":1212:1242   */\n  swap1\n  pop\n    /* \"#utility.yul\":1251:1284   */\n  tag_48\n    /* \"#utility.yul\":1279:1283   */\n  dup3\n    /* \"#utility.yul\":1271:1277   */\n  dup3\n    /* \"#utility.yul\":1251:1284   */\n  tag_27\n  jump\t// in\ntag_48:\n    /* \"#utility.yul\":1161:1290   */\n  swap2\n  swap1\n  pop\n  jump\t// out\n    /* \"#utility.yul\":1296:1604   */\ntag_29:\n    /* \"#utility.yul\":1358:1362   */\n  0x00\n    /* \"#utility.yul\":1448:1466   */\n  0xffffffffffffffff\n    /* \"#utility.yul\":1440:1446   */\n  dup3\n    /* \"#utility.yul\":1437:1467   */\n  gt\n    /* \"#utility.yul\":1434:1490   */\n  iszero\n  tag_50\n  jumpi\n    /* \"#utility.yul\":1470:1488   */\n  tag_51\n  tag_26\n  jump\t// in\ntag_51:\n    /* \"#utility.yul\":1434:1490   */\ntag_50:\n    /* \"#utility.yul\":1508:1537   */\n  tag_52\n    /* \"#utility.yul\":1530:1536   */\n  dup3\n    /* \"#utility.yul\":1508:1537   */\n  tag_25\n  jump\t// in\ntag_52:\n    /* \"#utility.yul\":1500:1537   */\n  swap1\n  pop\n    /* \"#utility.yul\":1592:1596   */\n  0x20\n    /* \"#utility.yul\":1586:1590   */\n  dup2\n    /* \"#utility.yul\":1582:1597   */\n  add\n    /* \"#utility.yul\":1574:1597   */\n  swap1\n  pop\n    /* \"#utility.yul\":1296:1604   */\n  swap2\n  swap1\n  pop\n  jump\t// out\n    /* \"#utility.yul\":1610:1917   */\ntag_30:\n    /* \"#utility.yul\":1678:1679   */\n  0x00\n    /* \"#utility.yul\":1688:1801   */\ntag_54:\n    /* \"#utility.yul\":1702:1708   */\n  dup4\n    /* \"#utility.yul\":1699:1700   */\n  dup2\n    /* \"#utility.yul\":1696:1709   */\n  lt\n    /* \"#utility.yul\":1688:1801   */\n  iszero\n  tag_56\n  jumpi\n    /* \"#utility.yul\":1787:1788   */\n  dup1\n    /* \"#utility.yul\":1782:1785   */\n  dup3\n    /* \"#utility.yul\":1778:1789   */\n  add\n    /* \"#utility.yul\":1772:1790   */\n  mload\n    /* \"#utility.yul\":1768:1769   */\n  dup2\n    /* \"#utility.yul\":1763:1766   */\n  dup5\n    /* \"#utility.yul\":1759:1770   */\n  add\n    /* \"#utility.yul\":1752:1791   */\n  mstore\n    /* \"#utility.yul\":1724:1726   */\n  0x20\n    /* \"#utility.yul\":1721:1722   */\n  dup2\n    /* \"#utility.yul\":1717:1727   */\n  add\n    /* \"#utility.yul\":1712:1727   */\n  swap1\n  pop\n    /* \"#utility.yul\":1688:1801   */\n  jump(tag_54)\ntag_56:\n    /* \"#utility.yul\":1819:1825   */\n  dup4\n    /* \"#utility.yul\":1816:1817   */\n  dup2\n    /* \"#utility.yul\":1813:1826   */\n  gt\n    /* \"#utility.yul\":1810:1911   */\n  iszero\n  tag_57\n  jumpi\n    /* \"#utility.yul\":1899:1900   */\n  0x00\n    /* \"#utility.yul\":1890:1896   */\n  dup5\n    /* \"#utility.yul\":1885:1888   */\n  dup5\n    /* \"#utility.yul\":1881:1897   */\n  add\n    /* \"#utility.yul\":1874:1901   */\n  mstore\n    /* \"#utility.yul\":1810:1911   */\ntag_57:\n    /* \"#utility.yul\":1659:1917   */\n  pop\n    /* \"#utility.yul\":1610:1917   */\n  pop\n  pop\n  pop\n  jump\t// out\n    /* \"#utility.yul\":1923:2344   */\ntag_31:\n    /* \"#utility.yul\":2012:2017   */\n  0x00\n    /* \"#utility.yul\":2037:2103   */\n  tag_59\n    /* \"#utility.yul\":2053:2102   */\n  tag_60\n    /* \"#utility.yul\":2095:2101   */\n  dup5\n    /* \"#utility.yul\":2053:2102   */\n  tag_29\n  jump\t// in\ntag_60:\n    /* \"#utility.yul\":2037:2103   */\n  tag_28\n  jump\t// in\ntag_59:\n    /* \"#utility.yul\":2028:2103   */\n  swap1\n  pop\n    /* \"#utility.yul\":2126:2132   */\n  dup3\n    /* \"#utility.yul\":2119:2124   */\n  dup2\n    /* \"#utility.yul\":2112:2133   */\n  mstore\n    /* \"#utility.yul\":2164:2168   */\n  0x20\n    /* \"#utility.yul\":2157:2162   */\n  dup2\n    /* \"#utility.yul\":2153:2169   */\n  add\n    /* \"#utility.yul\":2202:2205   */\n  dup5\n    /* \"#utility.yul\":2193:2199   */\n  dup5\n    /* \"#utility.yul\":2188:2191   */\n  dup5\n    /* \"#utility.yul\":2184:2200   */\n  add\n    /* \"#utility.yul\":2181:2206   */\n  gt\n    /* \"#utility.yul\":2178:2290   */\n  iszero\n  tag_61\n  jumpi\n    /* \"#utility.yul\":2209:2288   */\n  tag_62\n  tag_24\n  jump\t// in\ntag_62:\n    /* \"#utility.yul\":2178:2290   */\ntag_61:\n    /* \"#utility.yul\":2299:2338   */\n  tag_63\n    /* \"#utility.yul\":2331:2337   */\n  dup5\n    /* \"#utility.yul\":2326:2329   */\n  dup3\n    /* \"#utility.yul\":2321:2324   */\n  dup6\n    /* \"#utility.yul\":2299:2338   */\n  tag_30\n  jump\t// in\ntag_63:\n    /* \"#utility.yul\":2018:2344   */\n  pop\n    /* \"#utility.yul\":1923:2344   */\n  swap4\n  swap3\n  pop\n  pop\n  pop\n  jump\t// out\n    /* \"#utility.yul\":2364:2719   */\ntag_32:\n    /* \"#utility.yul\":2431:2436   */\n  0x00\n    /* \"#utility.yul\":2480:2483   */\n  dup3\n    /* \"#utility.yul\":2473:2477   */\n  0x1f\n    /* \"#utility.yul\":2465:2471   */\n  dup4\n    /* \"#utility.yul\":2461:2478   */\n  add\n    /* \"#utility.yul\":2457:2484   */\n  slt\n    /* \"#utility.yul\":2447:2569   */\n  tag_65\n  jumpi\n    /* \"#utility.yul\":2488:2567   */\n  tag_66\n  tag_23\n  jump\t// in\ntag_66:\n    /* \"#utility.yul\":2447:2569   */\ntag_65:\n    /* \"#utility.yul\":2598:2604   */\n  dup2\n    /* \"#utility.yul\":2592:2605   */\n  mload\n    /* \"#utility.yul\":2623:2713   */\n  tag_67\n    /* \"#utility.yul\":2709:2712   */\n  dup5\n    /* \"#utility.yul\":2701:2707   */\n  dup3\n    /* \"#utility.yul\":2694:2698   */\n  0x20\n    /* \"#utility.yul\":2686:2692   */\n  dup7\n    /* \"#utility.yul\":2682:2699   */\n  add\n    /* \"#utility.yul\":2623:2713   */\n  tag_31\n  jump\t// in\ntag_67:\n    /* \"#utility.yul\":2614:2713   */\n  swap2\n  pop\n    /* \"#utility.yul\":2437:2719   */\n  pop\n    /* \"#utility.yul\":2364:2719   */\n  swap3\n  swap2\n  pop\n  pop\n  jump\t// out\n    /* \"#utility.yul\":2725:3249   */\ntag_3:\n    /* \"#utility.yul\":2805:2811   */\n  0x00\n    /* \"#utility.yul\":2854:2856   */\n  0x20\n    /* \"#utility.yul\":2842:2851   */\n  dup3\n    /* \"#utility.yul\":2833:2840   */\n  dup5\n    /* \"#utility.yul\":2829:2852   */\n  sub\n    /* \"#utility.yul\":2825:2857   */\n  slt\n    /* \"#utility.yul\":2822:2941   */\n  iszero\n  tag_69\n  jumpi\n    /* \"#utility.yul\":2860:2939   */\n  tag_70\n  tag_21\n  jump\t// in\ntag_70:\n    /* \"#utility.yul\":2822:2941   */\ntag_69:\n    /* \"#utility.yul\":3001:3002   */\n  0x00\n    /* \"#utility.yul\":2990:2999   */\n  dup3\n    /* \"#utility.yul\":2986:3003   */\n  add\n    /* \"#utility.yul\":2980:3004   */\n  mload\n    /* \"#utility.yul\":3031:3049   */\n  0xffffffffffffffff\n    /* \"#utility.yul\":3023:3029   */\n  dup2\n    /* \"#utility.yul\":3020:3050   */\n  gt\n    /* \"#utility.yul\":3017:3134   */\n  iszero\n  tag_71\n  jumpi\n    /* \"#utility.yul\":3053:3132   */\n  tag_72\n  tag_22\n  jump\t// in\ntag_72:\n    /* \"#utility.yul\":3017:3134   */\ntag_71:\n    /* \"#utility.yul\":3158:3232   */\n  tag_73\n    /* \"#utility.yul\":3224:3231   */\n  dup5\n    /* \"#utility.yul\":3215:3221   */\n  dup3\n    /* \"#utility.yul\":3204:3213   */\n  dup6\n    /* \"#utility.yul\":3200:3222   */\n  add\n    /* \"#utility.yul\":3158:3232   */\n  tag_32\n  jump\t// in\ntag_73:\n    /* \"#utility.yul\":3148:3232   */\n  swap2\n  pop\n    /* \"#utility.yul\":2951:3242   */\n  pop\n    /* \"#utility.yul\":2725:3249   */\n  swap3\n  swap2\n  pop\n  pop\n  jump\t// out\n    /* \"#utility.yul\":3255:3435   */\ntag_33:\n    /* \"#utility.yul\":3303:3380   */\n  0x4e487b7100000000000000000000000000000000000000000000000000000000\n    /* \"#utility.yul\":3300:3301   */\n  0x00\n    /* \"#utility.yul\":3293:3381   */\n  mstore\n    /* \"#utility.yul\":3400:3404   */\n  0x22\n    /* \"#utility.yul\":3397:3398   */\n  0x04\n    /* \"#utility.yul\":3390:3405   */\n  mstore\n    /* \"#utility.yul\":3424:3428   */\n  0x24\n    /* \"#utility.yul\":3421:3422   */\n  0x00\n    /* \"#utility.yul\":3414:3429   */\n  revert\n    /* \"#utility.yul\":3441:3761   */\ntag_10:\n    /* \"#utility.yul\":3485:3491   */\n  0x00\n    /* \"#utility.yul\":3522:3523   */\n  0x02\n    /* \"#utility.yul\":3516:3520   */\n  dup3\n    /* \"#utility.yul\":3512:3524   */\n  div\n    /* \"#utility.yul\":3502:3524   */\n  swap1\n  pop\n    /* \"#utility.yul\":3569:3570   */\n  0x01\n    /* \"#utility.yul\":3563:3567   */\n  dup3\n    /* \"#utility.yul\":3559:3571   */\n  and\n    /* \"#utility.yul\":3590:3608   */\n  dup1\n    /* \"#utility.yul\":3580:3661   */\n  tag_76\n  jumpi\n    /* \"#utility.yul\":3646:3650   */\n  0x7f\n    /* \"#utility.yul\":3638:3644   */\n  dup3\n    /* \"#utility.yul\":3634:3651   */\n  and\n    /* \"#utility.yul\":3624:3651   */\n  swap2\n  pop\n    /* \"#utility.yul\":3580:3661   */\ntag_76:\n    /* \"#utility.yul\":3708:3710   */\n  0x20\n    /* \"#utility.yul\":3700:3706   */\n  dup3\n    /* \"#utility.yul\":3697:3711   */\n  lt\n    /* \"#utility.yul\":3677:3695   */\n  dup2\n    /* \"#utility.yul\":3674:3712   */\n  eq\n    /* \"#utility.yul\":3671:3755   */\n  iszero\n  tag_77\n  jumpi\n    /* \"#utility.yul\":3727:3745   */\n  tag_78\n  tag_33\n  jump\t// in\ntag_78:\n    /* \"#utility.yul\":3671:3755   */\ntag_77:\n    /* \"#utility.yul\":3492:3761   */\n  pop\n    /* \"#utility.yul\":3441:3761   */\n  swap2\n  swap1\n  pop\n  jump\t// out\n    /* \"LandRegistration.sol\":61:4251  contract LandRegistration {... */\ntag_8:\n  dataSize(sub_0)\n  dup1\n  dataOffset(sub_0)\n  0x00\n  codecopy\n  0x00\n  return\nstop\n\nsub_0: assembly {\n        /* \"LandRegistration.sol\":61:4251  contract LandRegistration {... */\n      mstore(0x40, 0x80)\n      callvalue\n      dup1\n      iszero\n      tag_1\n      jumpi\n      0x00\n      dup1\n      revert\n    tag_1:\n      pop\n      jumpi(tag_2, lt(calldatasize, 0x04))\n      shr(0xe0, calldataload(0x00))\n      dup1\n      0x64ddfa29\n      gt\n      tag_21\n      jumpi\n      dup1\n      0xb1c8ad0d\n      gt\n      tag_22\n      jumpi\n      dup1\n      0xb1c8ad0d\n      eq\n      tag_16\n      jumpi\n      dup1\n      0xc4a0086f\n      eq\n      tag_17\n      jumpi\n      dup1\n      0xcbd5121c\n      eq\n      tag_18\n      jumpi\n      dup1\n      0xcddb61b7\n      eq\n      tag_19\n      jumpi\n      dup1\n      0xdf6fa20e\n      eq\n      tag_20\n      jumpi\n      jump(tag_2)\n    tag_22:\n      dup1\n      0x64ddfa29\n      eq\n      tag_12\n      jumpi\n      dup1\n      0x64efb22b\n      eq\n      tag_13\n      jumpi\n      dup1\n      0x8b5c9335\n      eq\n      tag_14\n      jumpi\n      dup1\n      0xade79551\n      eq\n      tag_15\n      jumpi\n      jump(tag_2)\n    tag_21:\n      dup1\n      0x1af1a768\n      gt\n      tag_23\n      jumpi\n      dup1\n      0x1af1a768\n      eq\n      tag_7\n      jumpi\n      dup1\n      0x1c9afd0f\n      eq\n      tag_8\n      jumpi\n      dup1\n      0x2a979f31\n      eq\n      tag_9\n      jumpi\n      dup1\n      0x2de8f46d\n      eq\n      tag_10\n      jumpi\n      dup1\n      0x429b62e5\n      eq\n      tag_11\n      jumpi\n      jump(tag_2)\n    tag_23:\n      dup1\n      0x045b3034\n      eq\n      tag_3\n      jumpi\n      dup1\n      0x13718c97\n      eq\n      tag_4\n      jumpi\n      dup1\n      0x1510f0d5\n      eq\n      tag_5\n      jumpi\n      dup1\n      0x1a994ed8\n      eq\n      tag_6\n      jumpi\n    tag_2:\n      0x00\n      dup1\n      revert\n        /* \"LandRegistration.sol\":555:587  address public superAdminAddress */\n    tag_3:\n      tag_24\n      tag_25\n      jump\t// in\n    tag_24:\n      mload(0x40)\n      tag_26\n      swap2\n      swap1\n      tag_27\n      jump\t// in\n    tag_26:\n      mload(0x40)\n      dup1\n      swap2\n      sub\n      swap1\n      return\n        /* \"LandRegistration.sol\":742:774  address [] public adminsAdresses */\n    tag_4:\n      tag_28\n      0x04\n      dup1\n      calldatasize\n      sub\n      dup2\n      add\n      swap1\n      tag_29\n      swap2\n      swap1\n      tag_30\n      jump\t// in\n    tag_29:\n      tag_31\n      jump\t// in\n    tag_28:\n      mload(0x40)\n      tag_32\n      swap2\n      swap1\n      tag_27\n      jump\t// in\n    tag_32:\n      mload(0x40)\n      dup1\n      swap2\n      sub\n      swap1\n      return\n        /* \"LandRegistration.sol\":2720:3054  function editAdmin(string memory _firstName, string memory _lastName, string memory _county, address _adminAddress) public restrictToSuperAdmin {... */\n    tag_5:\n      tag_33\n      0x04\n      dup1\n      calldatasize\n      sub\n      dup2\n      add\n      swap1\n      tag_34\n      swap2\n      swap1\n      tag_35\n      jump\t// in\n    tag_34:\n      tag_36\n      jump\t// in\n    tag_33:\n      stop\n        /* \"LandRegistration.sol\":3157:3267  function getLandIds() public view restrictToAdmin returns(string [] memory) {... */\n    tag_6:\n      tag_37\n      tag_38\n      jump\t// in\n    tag_37:\n      mload(0x40)\n      tag_39\n      swap2\n      swap1\n      tag_40\n      jump\t// in\n    tag_39:\n      mload(0x40)\n      dup1\n      swap2\n      sub\n      swap1\n      return\n        /* \"LandRegistration.sol\":2457:2581  function activateAdmin(address adminAddress) public restrictToSuperAdmin {... */\n    tag_7:\n      tag_41\n      0x04\n      dup1\n      calldatasize\n      sub\n      dup2\n      add\n      swap1\n      tag_42\n      swap2\n      swap1\n      tag_43\n      jump\t// in\n    tag_42:\n      tag_44\n      jump\t// in\n    tag_41:\n      stop\n        /* \"LandRegistration.sol\":908:933  uint256 public landsCount */\n    tag_8:\n      tag_45\n      tag_46\n      jump\t// in\n    tag_45:\n      mload(0x40)\n      tag_47\n      swap2\n      swap1\n      tag_48\n      jump\t// in\n    tag_47:\n      mload(0x40)\n      dup1\n      swap2\n      sub\n      swap1\n      return\n        /* \"LandRegistration.sol\":711:736  string [] public counties */\n    tag_9:\n      tag_49\n      0x04\n      dup1\n      calldatasize\n      sub\n      dup2\n      add\n      swap1\n      tag_50\n      swap2\n      swap1\n      tag_30\n      jump\t// in\n    tag_50:\n      tag_51\n      jump\t// in\n    tag_49:\n      mload(0x40)\n      tag_52\n      swap2\n      swap1\n      tag_53\n      jump\t// in\n    tag_52:\n      mload(0x40)\n      dup1\n      swap2\n      sub\n      swap1\n      return\n        /* \"LandRegistration.sol\":1441:1572  function getSuperAdminPassword() public view restrictToSuperAdmin returns(string memory) {... */\n    tag_10:\n      tag_54\n      tag_55\n      jump\t// in\n    tag_54:\n      mload(0x40)\n      tag_56\n      swap2\n      swap1\n      tag_53\n      jump\t// in\n    tag_56:\n      mload(0x40)\n      dup1\n      swap2\n      sub\n      swap1\n      return\n        /* \"LandRegistration.sol\":624:664  mapping (address => Admin) public admins */\n    tag_11:\n      tag_57\n      0x04\n      dup1\n      calldatasize\n      sub\n      dup2\n      add\n      swap1\n      tag_58\n      swap2\n      swap1\n      tag_43\n      jump\t// in\n    tag_58:\n      tag_59\n      jump\t// in\n    tag_57:\n      mload(0x40)\n      tag_60\n      swap6\n      swap5\n      swap4\n      swap3\n      swap2\n      swap1\n      tag_61\n      jump\t// in\n    tag_60:\n      mload(0x40)\n      dup1\n      swap2\n      sub\n      swap1\n      return\n        /* \"LandRegistration.sol\":2587:2714  function getAdminAddresses() public view restrictToSuperAdmin returns(address [] memory) {... */\n    tag_12:\n      tag_62\n      tag_63\n      jump\t// in\n    tag_62:\n      mload(0x40)\n      tag_64\n      swap2\n      swap1\n      tag_65\n      jump\t// in\n    tag_64:\n      mload(0x40)\n      dup1\n      swap2\n      sub\n      swap1\n      return\n        /* \"LandRegistration.sol\":2171:2310  function getAdmin(address adminAddress) public view restrictToSuperAdmin returns(Admin memory) {... */\n    tag_13:\n      tag_66\n      0x04\n      dup1\n      calldatasize\n      sub\n      dup2\n      add\n      swap1\n      tag_67\n      swap2\n      swap1\n      tag_43\n      jump\t// in\n    tag_67:\n      tag_68\n      jump\t// in\n    tag_66:\n      mload(0x40)\n      tag_69\n      swap2\n      swap1\n      tag_70\n      jump\t// in\n    tag_69:\n      mload(0x40)\n      dup1\n      swap2\n      sub\n      swap1\n      return\n        /* \"LandRegistration.sol\":3060:3151  function loginAdmin() public view restrictToAdmin returns(bool){... */\n    tag_14:\n      tag_71\n      tag_72\n      jump\t// in\n    tag_71:\n      mload(0x40)\n      tag_73\n      swap2\n      swap1\n      tag_74\n      jump\t// in\n    tag_73:\n      mload(0x40)\n      dup1\n      swap2\n      sub\n      swap1\n      return\n        /* \"LandRegistration.sol\":3273:4249  function registerLand(string memory _location, string memory _surveryNumber, address _ownerAddress, string memory _marketValue, address _adminAddress, string memory _landId) public restrictToAdmin {... */\n    tag_15:\n      tag_75\n      0x04\n      dup1\n      calldatasize\n      sub\n      dup2\n      add\n      swap1\n      tag_76\n      swap2\n      swap1\n      tag_77\n      jump\t// in\n    tag_76:\n      tag_78\n      jump\t// in\n    tag_75:\n      stop\n        /* \"LandRegistration.sol\":865:902  mapping (string => Land) public lands */\n    tag_16:\n      tag_79\n      0x04\n      dup1\n      calldatasize\n      sub\n      dup2\n      add\n      swap1\n      tag_80\n      swap2\n      swap1\n      tag_81\n      jump\t// in\n    tag_80:\n      tag_82\n      jump\t// in\n    tag_79:\n      mload(0x40)\n      tag_83\n      swap11\n      swap10\n      swap9\n      swap8\n      swap7\n      swap6\n      swap5\n      swap4\n      swap3\n      swap2\n      swap1\n      tag_84\n      jump\t// in\n    tag_83:\n      mload(0x40)\n      dup1\n      swap2\n      sub\n      swap1\n      return\n        /* \"LandRegistration.sol\":813:859  mapping (string => bool) public landIdsMapping */\n    tag_17:\n      tag_85\n      0x04\n      dup1\n      calldatasize\n      sub\n      dup2\n      add\n      swap1\n      tag_86\n      swap2\n      swap1\n      tag_81\n      jump\t// in\n    tag_86:\n      tag_87\n      jump\t// in\n    tag_85:\n      mload(0x40)\n      tag_88\n      swap2\n      swap1\n      tag_74\n      jump\t// in\n    tag_88:\n      mload(0x40)\n      dup1\n      swap2\n      sub\n      swap1\n      return\n        /* \"LandRegistration.sol\":780:807  string [] public landIdsArr */\n    tag_18:\n      tag_89\n      0x04\n      dup1\n      calldatasize\n      sub\n      dup2\n      add\n      swap1\n      tag_90\n      swap2\n      swap1\n      tag_30\n      jump\t// in\n    tag_90:\n      tag_91\n      jump\t// in\n    tag_89:\n      mload(0x40)\n      tag_92\n      swap2\n      swap1\n      tag_53\n      jump\t// in\n    tag_92:\n      mload(0x40)\n      dup1\n      swap2\n      sub\n      swap1\n      return\n        /* \"LandRegistration.sol\":1582:2165  function addAdmin(string memory firstName, string memory lastName, string memory county, address adminAddress) public restrictToSuperAdmin {... */\n    tag_19:\n      tag_93\n      0x04\n      dup1\n      calldatasize\n      sub\n      dup2\n      add\n      swap1\n      tag_94\n      swap2\n      swap1\n      tag_35\n      jump\t// in\n    tag_94:\n      tag_95\n      jump\t// in\n    tag_93:\n      stop\n        /* \"LandRegistration.sol\":2320:2447  function deactivateAdmin(address adminAddress) public restrictToSuperAdmin {... */\n    tag_20:\n      tag_96\n      0x04\n      dup1\n      calldatasize\n      sub\n      dup2\n      add\n      swap1\n      tag_97\n      swap2\n      swap1\n      tag_43\n      jump\t// in\n    tag_97:\n      tag_98\n      jump\t// in\n    tag_96:\n      stop\n        /* \"LandRegistration.sol\":555:587  address public superAdminAddress */\n    tag_25:\n      0x00\n      dup1\n      sload\n      swap1\n      0x0100\n      exp\n      swap1\n      div\n      0xffffffffffffffffffffffffffffffffffffffff\n      and\n      dup2\n      jump\t// out\n        /* \"LandRegistration.sol\":742:774  address [] public adminsAdresses */\n    tag_31:\n      0x05\n      dup2\n      dup2\n      sload\n      dup2\n      lt\n      tag_99\n      jumpi\n      0x00\n      dup1\n      revert\n    tag_99:\n      swap1\n      0x00\n      mstore\n      keccak256(0x00, 0x20)\n      add\n      0x00\n      swap2\n      pop\n      sload\n      swap1\n      0x0100\n      exp\n      swap1\n      div\n      0xffffffffffffffffffffffffffffffffffffffff\n      and\n      dup2\n      jump\t// out\n        /* \"LandRegistration.sol\":2720:3054  function editAdmin(string memory _firstName, string memory _lastName, string memory _county, address _adminAddress) public restrictToSuperAdmin {... */\n    tag_36:\n        /* \"LandRegistration.sol\":1310:1327  superAdminAddress */\n      0x00\n      dup1\n      sload\n      swap1\n      0x0100\n      exp\n      swap1\n      div\n      0xffffffffffffffffffffffffffffffffffffffff\n      and\n        /* \"LandRegistration.sol\":1296:1327  msg.sender == superAdminAddress */\n      0xffffffffffffffffffffffffffffffffffffffff\n      and\n        /* \"LandRegistration.sol\":1296:1306  msg.sender */\n      caller\n        /* \"LandRegistration.sol\":1296:1327  msg.sender == superAdminAddress */\n      0xffffffffffffffffffffffffffffffffffffffff\n      and\n      eq\n        /* \"LandRegistration.sol\":1288:1328  require(msg.sender == superAdminAddress) */\n      tag_102\n      jumpi\n      0x00\n      dup1\n      revert\n    tag_102:\n        /* \"LandRegistration.sol\":2874:2899  Admin storage adminToEdit */\n      0x00\n        /* \"LandRegistration.sol\":2902:2908  admins */\n      0x02\n        /* \"LandRegistration.sol\":2902:2923  admins[_adminAddress] */\n      0x00\n        /* \"LandRegistration.sol\":2909:2922  _adminAddress */\n      dup4\n        /* \"LandRegistration.sol\":2902:2923  admins[_adminAddress] */\n      0xffffffffffffffffffffffffffffffffffffffff\n      and\n      0xffffffffffffffffffffffffffffffffffffffff\n      and\n      dup2\n      mstore\n      0x20\n      add\n      swap1\n      dup2\n      mstore\n      0x20\n      add\n      0x00\n      keccak256\n        /* \"LandRegistration.sol\":2874:2923  Admin storage adminToEdit = admins[_adminAddress] */\n      swap1\n      pop\n        /* \"LandRegistration.sol\":2957:2967  _firstName */\n      dup5\n        /* \"LandRegistration.sol\":2933:2944  adminToEdit */\n      dup2\n        /* \"LandRegistration.sol\":2933:2954  adminToEdit.firstName */\n      0x00\n      add\n        /* \"LandRegistration.sol\":2933:2967  adminToEdit.firstName = _firstName */\n      swap1\n      dup1\n      mload\n      swap1\n      0x20\n      add\n      swap1\n      tag_104\n      swap3\n      swap2\n      swap1\n      tag_105\n      jump\t// in\n    tag_104:\n      pop\n        /* \"LandRegistration.sol\":3000:3009  _lastName */\n      dup4\n        /* \"LandRegistration.sol\":2977:2988  adminToEdit */\n      dup2\n        /* \"LandRegistration.sol\":2977:2997  adminToEdit.lastName */\n      0x01\n      add\n        /* \"LandRegistration.sol\":2977:3009  adminToEdit.lastName = _lastName */\n      swap1\n      dup1\n      mload\n      swap1\n      0x20\n      add\n      swap1\n      tag_106\n      swap3\n      swap2\n      swap1\n      tag_105\n      jump\t// in\n    tag_106:\n      pop\n        /* \"LandRegistration.sol\":3040:3047  _county */\n      dup3\n        /* \"LandRegistration.sol\":3019:3030  adminToEdit */\n      dup2\n        /* \"LandRegistration.sol\":3019:3037  adminToEdit.county */\n      0x03\n      add\n        /* \"LandRegistration.sol\":3019:3047  adminToEdit.county = _county */\n      swap1\n      dup1\n      mload\n      swap1\n      0x20\n      add\n      swap1\n      tag_107\n      swap3\n      swap2\n      swap1\n      tag_105\n      jump\t// in\n    tag_107:\n      pop\n        /* \"LandRegistration.sol\":2864:3054  {... */\n      pop\n        /* \"LandRegistration.sol\":2720:3054  function editAdmin(string memory _firstName, string memory _lastName, string memory _county, address _adminAddress) public restrictToSuperAdmin {... */\n      pop\n      pop\n      pop\n      pop\n      jump\t// out\n        /* \"LandRegistration.sol\":3157:3267  function getLandIds() public view restrictToAdmin returns(string [] memory) {... */\n    tag_38:\n        /* \"LandRegistration.sol\":3215:3231  string [] memory */\n      0x60\n        /* \"LandRegistration.sol\":1395:1404  addresses */\n      0x03\n        /* \"LandRegistration.sol\":1395:1416  addresses[msg.sender] */\n      0x00\n        /* \"LandRegistration.sol\":1405:1415  msg.sender */\n      caller\n        /* \"LandRegistration.sol\":1395:1416  addresses[msg.sender] */\n      0xffffffffffffffffffffffffffffffffffffffff\n      and\n      0xffffffffffffffffffffffffffffffffffffffff\n      and\n      dup2\n      mstore\n      0x20\n      add\n      swap1\n      dup2\n      mstore\n      0x20\n      add\n      0x00\n      keccak256\n      0x00\n      swap1\n      sload\n      swap1\n      0x0100\n      exp\n      swap1\n      div\n      0xff\n      and\n        /* \"LandRegistration.sol\":1387:1417  require(addresses[msg.sender]) */\n      tag_109\n      jumpi\n      0x00\n      dup1\n      revert\n    tag_109:\n        /* \"LandRegistration.sol\":3250:3260  landIdsArr */\n      0x06\n        /* \"LandRegistration.sol\":3243:3260  return landIdsArr */\n      dup1\n      sload\n      dup1\n      0x20\n      mul\n      0x20\n      add\n      mload(0x40)\n      swap1\n      dup2\n      add\n      0x40\n      mstore\n      dup1\n      swap3\n      swap2\n      swap1\n      dup2\n      dup2\n      mstore\n      0x20\n      add\n      0x00\n      swap1\n    tag_111:\n      dup3\n      dup3\n      lt\n      iszero\n      tag_112\n      jumpi\n      dup4\n      dup3\n      swap1\n      0x00\n      mstore\n      keccak256(0x00, 0x20)\n      add\n      dup1\n      sload\n      tag_114\n      swap1\n      tag_115\n      jump\t// in\n    tag_114:\n      dup1\n      0x1f\n      add\n      0x20\n      dup1\n      swap2\n      div\n      mul\n      0x20\n      add\n      mload(0x40)\n      swap1\n      dup2\n      add\n      0x40\n      mstore\n      dup1\n      swap3\n      swap2\n      swap1\n      dup2\n      dup2\n      mstore\n      0x20\n      add\n      dup3\n      dup1\n      sload\n      tag_116\n      swap1\n      tag_115\n      jump\t// in\n    tag_116:\n      dup1\n      iszero\n      tag_117\n      jumpi\n      dup1\n      0x1f\n      lt\n      tag_118\n      jumpi\n      0x0100\n      dup1\n      dup4\n      sload\n      div\n      mul\n      dup4\n      mstore\n      swap2\n      0x20\n      add\n      swap2\n      jump(tag_117)\n    tag_118:\n      dup3\n      add\n      swap2\n      swap1\n      0x00\n      mstore\n      keccak256(0x00, 0x20)\n      swap1\n    tag_119:\n      dup2\n      sload\n      dup2\n      mstore\n      swap1\n      0x01\n      add\n      swap1\n      0x20\n      add\n      dup1\n      dup4\n      gt\n      tag_119\n      jumpi\n      dup3\n      swap1\n      sub\n      0x1f\n      and\n      dup3\n      add\n      swap2\n    tag_117:\n      pop\n      pop\n      pop\n      pop\n      pop\n      dup2\n      mstore\n      0x20\n      add\n      swap1\n      0x01\n      add\n      swap1\n      jump(tag_111)\n    tag_112:\n      pop\n      pop\n      pop\n      pop\n      swap1\n      pop\n        /* \"LandRegistration.sol\":3157:3267  function getLandIds() public view restrictToAdmin returns(string [] memory) {... */\n      swap1\n      jump\t// out\n        /* \"LandRegistration.sol\":2457:2581  function activateAdmin(address adminAddress) public restrictToSuperAdmin {... */\n    tag_44:\n        /* \"LandRegistration.sol\":1310:1327  superAdminAddress */\n      0x00\n      dup1\n      sload\n      swap1\n      0x0100\n      exp\n      swap1\n      div\n      0xffffffffffffffffffffffffffffffffffffffff\n      and\n        /* \"LandRegistration.sol\":1296:1327  msg.sender == superAdminAddress */\n      0xffffffffffffffffffffffffffffffffffffffff\n      and\n        /* \"LandRegistration.sol\":1296:1306  msg.sender */\n      caller\n        /* \"LandRegistration.sol\":1296:1327  msg.sender == superAdminAddress */\n      0xffffffffffffffffffffffffffffffffffffffff\n      and\n      eq\n        /* \"LandRegistration.sol\":1288:1328  require(msg.sender == superAdminAddress) */\n      tag_121\n      jumpi\n      0x00\n      dup1\n      revert\n    tag_121:\n        /* \"LandRegistration.sol\":2570:2574  true */\n      0x01\n        /* \"LandRegistration.sol\":2540:2546  admins */\n      0x02\n        /* \"LandRegistration.sol\":2540:2560  admins[adminAddress] */\n      0x00\n        /* \"LandRegistration.sol\":2547:2559  adminAddress */\n      dup4\n        /* \"LandRegistration.sol\":2540:2560  admins[adminAddress] */\n      0xffffffffffffffffffffffffffffffffffffffff\n      and\n      0xffffffffffffffffffffffffffffffffffffffff\n      and\n      dup2\n      mstore\n      0x20\n      add\n      swap1\n      dup2\n      mstore\n      0x20\n      add\n      0x00\n      keccak256\n        /* \"LandRegistration.sol\":2540:2567  admins[adminAddress].active */\n      0x04\n      add\n      0x00\n        /* \"LandRegistration.sol\":2540:2574  admins[adminAddress].active = true */\n      0x0100\n      exp\n      dup2\n      sload\n      dup2\n      0xff\n      mul\n      not\n      and\n      swap1\n      dup4\n      iszero\n      iszero\n      mul\n      or\n      swap1\n      sstore\n      pop\n        /* \"LandRegistration.sol\":2457:2581  function activateAdmin(address adminAddress) public restrictToSuperAdmin {... */\n      pop\n      jump\t// out\n        /* \"LandRegistration.sol\":908:933  uint256 public landsCount */\n    tag_46:\n      sload(0x09)\n      dup2\n      jump\t// out\n        /* \"LandRegistration.sol\":711:736  string [] public counties */\n    tag_51:\n      0x04\n      dup2\n      dup2\n      sload\n      dup2\n      lt\n      tag_123\n      jumpi\n      0x00\n      dup1\n      revert\n    tag_123:\n      swap1\n      0x00\n      mstore\n      keccak256(0x00, 0x20)\n      add\n      0x00\n      swap2\n      pop\n      swap1\n      pop\n      dup1\n      sload\n      tag_125\n      swap1\n      tag_115\n      jump\t// in\n    tag_125:\n      dup1\n      0x1f\n      add\n      0x20\n      dup1\n      swap2\n      div\n      mul\n      0x20\n      add\n      mload(0x40)\n      swap1\n      dup2\n      add\n      0x40\n      mstore\n      dup1\n      swap3\n      swap2\n      swap1\n      dup2\n      dup2\n      mstore\n      0x20\n      add\n      dup3\n      dup1\n      sload\n      tag_126\n      swap1\n      tag_115\n      jump\t// in\n    tag_126:\n      dup1\n      iszero\n      tag_127\n      jumpi\n      dup1\n      0x1f\n      lt\n      tag_128\n      jumpi\n      0x0100\n      dup1\n      dup4\n      sload\n      div\n      mul\n      dup4\n      mstore\n      swap2\n      0x20\n      add\n      swap2\n      jump(tag_127)\n    tag_128:\n      dup3\n      add\n      swap2\n      swap1\n      0x00\n      mstore\n      keccak256(0x00, 0x20)\n      swap1\n    tag_129:\n      dup2\n      sload\n      dup2\n      mstore\n      swap1\n      0x01\n      add\n      swap1\n      0x20\n      add\n      dup1\n      dup4\n      gt\n      tag_129\n      jumpi\n      dup3\n      swap1\n      sub\n      0x1f\n      and\n      dup3\n      add\n      swap2\n    tag_127:\n      pop\n      pop\n      pop\n      pop\n      pop\n      dup2\n      jump\t// out\n        /* \"LandRegistration.sol\":1441:1572  function getSuperAdminPassword() public view restrictToSuperAdmin returns(string memory) {... */\n    tag_55:\n        /* \"LandRegistration.sol\":1515:1528  string memory */\n      0x60\n        /* \"LandRegistration.sol\":1310:1327  superAdminAddress */\n      0x00\n      dup1\n      sload\n      swap1\n      0x0100\n      exp\n      swap1\n      div\n      0xffffffffffffffffffffffffffffffffffffffff\n      and\n        /* \"LandRegistration.sol\":1296:1327  msg.sender == superAdminAddress */\n      0xffffffffffffffffffffffffffffffffffffffff\n      and\n        /* \"LandRegistration.sol\":1296:1306  msg.sender */\n      caller\n        /* \"LandRegistration.sol\":1296:1327  msg.sender == superAdminAddress */\n      0xffffffffffffffffffffffffffffffffffffffff\n      and\n      eq\n        /* \"LandRegistration.sol\":1288:1328  require(msg.sender == superAdminAddress) */\n      tag_131\n      jumpi\n      0x00\n      dup1\n      revert\n    tag_131:\n        /* \"LandRegistration.sol\":1547:1565  superAdminPassword */\n      0x01\n        /* \"LandRegistration.sol\":1540:1565  return superAdminPassword */\n      dup1\n      sload\n      tag_133\n      swap1\n      tag_115\n      jump\t// in\n    tag_133:\n      dup1\n      0x1f\n      add\n      0x20\n      dup1\n      swap2\n      div\n      mul\n      0x20\n      add\n      mload(0x40)\n      swap1\n      dup2\n      add\n      0x40\n      mstore\n      dup1\n      swap3\n      swap2\n      swap1\n      dup2\n      dup2\n      mstore\n      0x20\n      add\n      dup3\n      dup1\n      sload\n      tag_134\n      swap1\n      tag_115\n      jump\t// in\n    tag_134:\n      dup1\n      iszero\n      tag_135\n      jumpi\n      dup1\n      0x1f\n      lt\n      tag_136\n      jumpi\n      0x0100\n      dup1\n      dup4\n      sload\n      div\n      mul\n      dup4\n      mstore\n      swap2\n      0x20\n      add\n      swap2\n      jump(tag_135)\n    tag_136:\n      dup3\n      add\n      swap2\n      swap1\n      0x00\n      mstore\n      keccak256(0x00, 0x20)\n      swap1\n    tag_137:\n      dup2\n      sload\n      dup2\n      mstore\n      swap1\n      0x01\n      add\n      swap1\n      0x20\n      add\n      dup1\n      dup4\n      gt\n      tag_137\n      jumpi\n      dup3\n      swap1\n      sub\n      0x1f\n      and\n      dup3\n      add\n      swap2\n    tag_135:\n      pop\n      pop\n      pop\n      pop\n      pop\n      swap1\n      pop\n        /* \"LandRegistration.sol\":1441:1572  function getSuperAdminPassword() public view restrictToSuperAdmin returns(string memory) {... */\n      swap1\n      jump\t// out\n        /* \"LandRegistration.sol\":624:664  mapping (address => Admin) public admins */\n    tag_59:\n      mstore(0x20, 0x02)\n      dup1\n      0x00\n      mstore\n      keccak256(0x00, 0x40)\n      0x00\n      swap2\n      pop\n      swap1\n      pop\n      dup1\n      0x00\n      add\n      dup1\n      sload\n      tag_138\n      swap1\n      tag_115\n      jump\t// in\n    tag_138:\n      dup1\n      0x1f\n      add\n      0x20\n      dup1\n      swap2\n      div\n      mul\n      0x20\n      add\n      mload(0x40)\n      swap1\n      dup2\n      add\n      0x40\n      mstore\n      dup1\n      swap3\n      swap2\n      swap1\n      dup2\n      dup2\n      mstore\n      0x20\n      add\n      dup3\n      dup1\n      sload\n      tag_139\n      swap1\n      tag_115\n      jump\t// in\n    tag_139:\n      dup1\n      iszero\n      tag_140\n      jumpi\n      dup1\n      0x1f\n      lt\n      tag_141\n      jumpi\n      0x0100\n      dup1\n      dup4\n      sload\n      div\n      mul\n      dup4\n      mstore\n      swap2\n      0x20\n      add\n      swap2\n      jump(tag_140)\n    tag_141:\n      dup3\n      add\n      swap2\n      swap1\n      0x00\n      mstore\n      keccak256(0x00, 0x20)\n      swap1\n    tag_142:\n      dup2\n      sload\n      dup2\n      mstore\n      swap1\n      0x01\n      add\n      swap1\n      0x20\n      add\n      dup1\n      dup4\n      gt\n      tag_142\n      jumpi\n      dup3\n      swap1\n      sub\n      0x1f\n      and\n      dup3\n      add\n      swap2\n    tag_140:\n      pop\n      pop\n      pop\n      pop\n      pop\n      swap1\n      dup1\n      0x01\n      add\n      dup1\n      sload\n      tag_143\n      swap1\n      tag_115\n      jump\t// in\n    tag_143:\n      dup1\n      0x1f\n      add\n      0x20\n      dup1\n      swap2\n      div\n      mul\n      0x20\n      add\n      mload(0x40)\n      swap1\n      dup2\n      add\n      0x40\n      mstore\n      dup1\n      swap3\n      swap2\n      swap1\n      dup2\n      dup2\n      mstore\n      0x20\n      add\n      dup3\n      dup1\n      sload\n      tag_144\n      swap1\n      tag_115\n      jump\t// in\n    tag_144:\n      dup1\n      iszero\n      tag_145\n      jumpi\n      dup1\n      0x1f\n      lt\n      tag_146\n      jumpi\n      0x0100\n      dup1\n      dup4\n      sload\n      div\n      mul\n      dup4\n      mstore\n      swap2\n      0x20\n      add\n      swap2\n      jump(tag_145)\n    tag_146:\n      dup3\n      add\n      swap2\n      swap1\n      0x00\n      mstore\n      keccak256(0x00, 0x20)\n      swap1\n    tag_147:\n      dup2\n      sload\n      dup2\n      mstore\n      swap1\n      0x01\n      add\n      swap1\n      0x20\n      add\n      dup1\n      dup4\n      gt\n      tag_147\n      jumpi\n      dup3\n      swap1\n      sub\n      0x1f\n      and\n      dup3\n      add\n      swap2\n    tag_145:\n      pop\n      pop\n      pop\n      pop\n      pop\n      swap1\n      dup1\n      0x02\n      add\n      0x00\n      swap1\n      sload\n      swap1\n      0x0100\n      exp\n      swap1\n      div\n      0xffffffffffffffffffffffffffffffffffffffff\n      and\n      swap1\n      dup1\n      0x03\n      add\n      dup1\n      sload\n      tag_148\n      swap1\n      tag_115\n      jump\t// in\n    tag_148:\n      dup1\n      0x1f\n      add\n      0x20\n      dup1\n      swap2\n      div\n      mul\n      0x20\n      add\n      mload(0x40)\n      swap1\n      dup2\n      add\n      0x40\n      mstore\n      dup1\n      swap3\n      swap2\n      swap1\n      dup2\n      dup2\n      mstore\n      0x20\n      add\n      dup3\n      dup1\n      sload\n      tag_149\n      swap1\n      tag_115\n      jump\t// in\n    tag_149:\n      dup1\n      iszero\n      tag_150\n      jumpi\n      dup1\n      0x1f\n      lt\n      tag_151\n      jumpi\n      0x0100\n      dup1\n      dup4\n      sload\n      div\n      mul\n      dup4\n      mstore\n      swap2\n      0x20\n      add\n      swap2\n      jump(tag_150)\n    tag_151:\n      dup3\n      add\n      swap2\n      swap1\n      0x00\n      mstore\n      keccak256(0x00, 0x20)\n      swap1\n    tag_152:\n      dup2\n      sload\n      dup2\n      mstore\n      swap1\n      0x01\n      add\n      swap1\n      0x20\n      add\n      dup1\n      dup4\n      gt\n      tag_152\n      jumpi\n      dup3\n      swap1\n      sub\n      0x1f\n      and\n      dup3\n      add\n      swap2\n    tag_150:\n      pop\n      pop\n      pop\n      pop\n      pop\n      swap1\n      dup1\n      0x04\n      add\n      0x00\n      swap1\n      sload\n      swap1\n      0x0100\n      exp\n      swap1\n      div\n      0xff\n      and\n      swap1\n      pop\n      dup6\n      jump\t// out\n        /* \"LandRegistration.sol\":2587:2714  function getAdminAddresses() public view restrictToSuperAdmin returns(address [] memory) {... */\n    tag_63:\n        /* \"LandRegistration.sol\":2657:2674  address [] memory */\n      0x60\n        /* \"LandRegistration.sol\":1310:1327  superAdminAddress */\n      0x00\n      dup1\n      sload\n      swap1\n      0x0100\n      exp\n      swap1\n      div\n      0xffffffffffffffffffffffffffffffffffffffff\n      and\n        /* \"LandRegistration.sol\":1296:1327  msg.sender == superAdminAddress */\n      0xffffffffffffffffffffffffffffffffffffffff\n      and\n        /* \"LandRegistration.sol\":1296:1306  msg.sender */\n      caller\n        /* \"LandRegistration.sol\":1296:1327  msg.sender == superAdminAddress */\n      0xffffffffffffffffffffffffffffffffffffffff\n      and\n      eq\n        /* \"LandRegistration.sol\":1288:1328  require(msg.sender == superAdminAddress) */\n      tag_154\n      jumpi\n      0x00\n      dup1\n      revert\n    tag_154:\n        /* \"LandRegistration.sol\":2693:2707  adminsAdresses */\n      0x05\n        /* \"LandRegistration.sol\":2686:2707  return adminsAdresses */\n      dup1\n      sload\n      dup1\n      0x20\n      mul\n      0x20\n      add\n      mload(0x40)\n      swap1\n      dup2\n      add\n      0x40\n      mstore\n      dup1\n      swap3\n      swap2\n      swap1\n      dup2\n      dup2\n      mstore\n      0x20\n      add\n      dup3\n      dup1\n      sload\n      dup1\n      iszero\n      tag_156\n      jumpi\n      0x20\n      mul\n      dup3\n      add\n      swap2\n      swap1\n      0x00\n      mstore\n      keccak256(0x00, 0x20)\n      swap1\n    tag_157:\n      dup2\n      0x00\n      swap1\n      sload\n      swap1\n      0x0100\n      exp\n      swap1\n      div\n      0xffffffffffffffffffffffffffffffffffffffff\n      and\n      0xffffffffffffffffffffffffffffffffffffffff\n      and\n      dup2\n      mstore\n      0x20\n      add\n      swap1\n      0x01\n      add\n      swap1\n      dup1\n      dup4\n      gt\n      tag_157\n      jumpi\n    tag_156:\n      pop\n      pop\n      pop\n      pop\n      pop\n      swap1\n      pop\n        /* \"LandRegistration.sol\":2587:2714  function getAdminAddresses() public view restrictToSuperAdmin returns(address [] memory) {... */\n      swap1\n      jump\t// out\n        /* \"LandRegistration.sol\":2171:2310  function getAdmin(address adminAddress) public view restrictToSuperAdmin returns(Admin memory) {... */\n    tag_68:\n        /* \"LandRegistration.sol\":2252:2264  Admin memory */\n      tag_158\n      tag_159\n      jump\t// in\n    tag_158:\n        /* \"LandRegistration.sol\":1310:1327  superAdminAddress */\n      0x00\n      dup1\n      sload\n      swap1\n      0x0100\n      exp\n      swap1\n      div\n      0xffffffffffffffffffffffffffffffffffffffff\n      and\n        /* \"LandRegistration.sol\":1296:1327  msg.sender == superAdminAddress */\n      0xffffffffffffffffffffffffffffffffffffffff\n      and\n        /* \"LandRegistration.sol\":1296:1306  msg.sender */\n      caller\n        /* \"LandRegistration.sol\":1296:1327  msg.sender == superAdminAddress */\n      0xffffffffffffffffffffffffffffffffffffffff\n      and\n      eq\n        /* \"LandRegistration.sol\":1288:1328  require(msg.sender == superAdminAddress) */\n      tag_161\n      jumpi\n      0x00\n      dup1\n      revert\n    tag_161:\n        /* \"LandRegistration.sol\":2283:2289  admins */\n      0x02\n        /* \"LandRegistration.sol\":2283:2303  admins[adminAddress] */\n      0x00\n        /* \"LandRegistration.sol\":2290:2302  adminAddress */\n      dup4\n        /* \"LandRegistration.sol\":2283:2303  admins[adminAddress] */\n      0xffffffffffffffffffffffffffffffffffffffff\n      and\n      0xffffffffffffffffffffffffffffffffffffffff\n      and\n      dup2\n      mstore\n      0x20\n      add\n      swap1\n      dup2\n      mstore\n      0x20\n      add\n      0x00\n      keccak256\n        /* \"LandRegistration.sol\":2276:2303  return admins[adminAddress] */\n      mload(0x40)\n      dup1\n      0xa0\n      add\n      0x40\n      mstore\n      swap1\n      dup2\n      0x00\n      dup3\n      add\n      dup1\n      sload\n      tag_163\n      swap1\n      tag_115\n      jump\t// in\n    tag_163:\n      dup1\n      0x1f\n      add\n      0x20\n      dup1\n      swap2\n      div\n      mul\n      0x20\n      add\n      mload(0x40)\n      swap1\n      dup2\n      add\n      0x40\n      mstore\n      dup1\n      swap3\n      swap2\n      swap1\n      dup2\n      dup2\n      mstore\n      0x20\n      add\n      dup3\n      dup1\n      sload\n      tag_164\n      swap1\n      tag_115\n      jump\t// in\n    tag_164:\n      dup1\n      iszero\n      tag_165\n      jumpi\n      dup1\n      0x1f\n      lt\n      tag_166\n      jumpi\n      0x0100\n      dup1\n      dup4\n      sload\n      div\n      mul\n      dup4\n      mstore\n      swap2\n      0x20\n      add\n      swap2\n      jump(tag_165)\n    tag_166:\n      dup3\n      add\n      swap2\n      swap1\n      0x00\n      mstore\n      keccak256(0x00, 0x20)\n      swap1\n    tag_167:\n      dup2\n      sload\n      dup2\n      mstore\n      swap1\n      0x01\n      add\n      swap1\n      0x20\n      add\n      dup1\n      dup4\n      gt\n      tag_167\n      jumpi\n      dup3\n      swap1\n      sub\n      0x1f\n      and\n      dup3\n      add\n      swap2\n    tag_165:\n      pop\n      pop\n      pop\n      pop\n      pop\n      dup2\n      mstore\n      0x20\n      add\n      0x01\n      dup3\n      add\n      dup1\n      sload\n      tag_168\n      swap1\n      tag_115\n      jump\t// in\n    tag_168:\n      dup1\n      0x1f\n      add\n      0x20\n      dup1\n      swap2\n      div\n      mul\n      0x20\n      add\n      mload(0x40)\n      swap1\n      dup2\n      add\n      0x40\n      mstore\n      dup1\n      swap3\n      swap2\n      swap1\n      dup2\n      dup2\n      mstore\n      0x20\n      add\n      dup3\n      dup1\n      sload\n      tag_169\n      swap1\n      tag_115\n      jump\t// in\n    tag_169:\n      dup1\n      iszero\n      tag_170\n      jumpi\n      dup1\n      0x1f\n      lt\n      tag_171\n      jumpi\n      0x0100\n      dup1\n      dup4\n      sload\n      div\n      mul\n      dup4\n      mstore\n      swap2\n      0x20\n      add\n      swap2\n      jump(tag_170)\n    tag_171:\n      dup3\n      add\n      swap2\n      swap1\n      0x00\n      mstore\n      keccak256(0x00, 0x20)\n      swap1\n    tag_172:\n      dup2\n      sload\n      dup2\n      mstore\n      swap1\n      0x01\n      add\n      swap1\n      0x20\n      add\n      dup1\n      dup4\n      gt\n      tag_172\n      jumpi\n      dup3\n      swap1\n      sub\n      0x1f\n      and\n      dup3\n      add\n      swap2\n    tag_170:\n      pop\n      pop\n      pop\n      pop\n      pop\n      dup2\n      mstore\n      0x20\n      add\n      0x02\n      dup3\n      add\n      0x00\n      swap1\n      sload\n      swap1\n      0x0100\n      exp\n      swap1\n      div\n      0xffffffffffffffffffffffffffffffffffffffff\n      and\n      0xffffffffffffffffffffffffffffffffffffffff\n      and\n      0xffffffffffffffffffffffffffffffffffffffff\n      and\n      dup2\n      mstore\n      0x20\n      add\n      0x03\n      dup3\n      add\n      dup1\n      sload\n      tag_173\n      swap1\n      tag_115\n      jump\t// in\n    tag_173:\n      dup1\n      0x1f\n      add\n      0x20\n      dup1\n      swap2\n      div\n      mul\n      0x20\n      add\n      mload(0x40)\n      swap1\n      dup2\n      add\n      0x40\n      mstore\n      dup1\n      swap3\n      swap2\n      swap1\n      dup2\n      dup2\n      mstore\n      0x20\n      add\n      dup3\n      dup1\n      sload\n      tag_174\n      swap1\n      tag_115\n      jump\t// in\n    tag_174:\n      dup1\n      iszero\n      tag_175\n      jumpi\n      dup1\n      0x1f\n      lt\n      tag_176\n      jumpi\n      0x0100\n      dup1\n      dup4\n      sload\n      div\n      mul\n      dup4\n      mstore\n      swap2\n      0x20\n      add\n      swap2\n      jump(tag_175)\n    tag_176:\n      dup3\n      add\n      swap2\n      swap1\n      0x00\n      mstore\n      keccak256(0x00, 0x20)\n      swap1\n    tag_177:\n      dup2\n      sload\n      dup2\n      mstore\n      swap1\n      0x01\n      add\n      swap1\n      0x20\n      add\n      dup1\n      dup4\n      gt\n      tag_177\n      jumpi\n      dup3\n      swap1\n      sub\n      0x1f\n      and\n      dup3\n      add\n      swap2\n    tag_175:\n      pop\n      pop\n      pop\n      pop\n      pop\n      dup2\n      mstore\n      0x20\n      add\n      0x04\n      dup3\n      add\n      0x00\n      swap1\n      sload\n      swap1\n      0x0100\n      exp\n      swap1\n      div\n      0xff\n      and\n      iszero\n      iszero\n      iszero\n      iszero\n      dup2\n      mstore\n      pop\n      pop\n      swap1\n      pop\n        /* \"LandRegistration.sol\":2171:2310  function getAdmin(address adminAddress) public view restrictToSuperAdmin returns(Admin memory) {... */\n      swap2\n      swap1\n      pop\n      jump\t// out\n        /* \"LandRegistration.sol\":3060:3151  function loginAdmin() public view restrictToAdmin returns(bool){... */\n    tag_72:\n        /* \"LandRegistration.sol\":3118:3122  bool */\n      0x00\n        /* \"LandRegistration.sol\":1395:1404  addresses */\n      0x03\n        /* \"LandRegistration.sol\":1395:1416  addresses[msg.sender] */\n      0x00\n        /* \"LandRegistration.sol\":1405:1415  msg.sender */\n      caller\n        /* \"LandRegistration.sol\":1395:1416  addresses[msg.sender] */\n      0xffffffffffffffffffffffffffffffffffffffff\n      and\n      0xffffffffffffffffffffffffffffffffffffffff\n      and\n      dup2\n      mstore\n      0x20\n      add\n      swap1\n      dup2\n      mstore\n      0x20\n      add\n      0x00\n      keccak256\n      0x00\n      swap1\n      sload\n      swap1\n      0x0100\n      exp\n      swap1\n      div\n      0xff\n      and\n        /* \"LandRegistration.sol\":1387:1417  require(addresses[msg.sender]) */\n      tag_179\n      jumpi\n      0x00\n      dup1\n      revert\n    tag_179:\n        /* \"LandRegistration.sol\":3140:3144  true */\n      0x01\n        /* \"LandRegistration.sol\":3133:3144  return true */\n      swap1\n      pop\n        /* \"LandRegistration.sol\":3060:3151  function loginAdmin() public view restrictToAdmin returns(bool){... */\n      swap1\n      jump\t// out\n        /* \"LandRegistration.sol\":3273:4249  function registerLand(string memory _location, string memory _surveryNumber, address _ownerAddress, string memory _marketValue, address _adminAddress, string memory _landId) public restrictToAdmin {... */\n    tag_78:\n        /* \"LandRegistration.sol\":1395:1404  addresses */\n      0x03\n        /* \"LandRegistration.sol\":1395:1416  addresses[msg.sender] */\n      0x00\n        /* \"LandRegistration.sol\":1405:1415  msg.sender */\n      caller\n        /* \"LandRegistration.sol\":1395:1416  addresses[msg.sender] */\n      0xffffffffffffffffffffffffffffffffffffffff\n      and\n      0xffffffffffffffffffffffffffffffffffffffff\n      and\n      dup2\n      mstore\n      0x20\n      add\n      swap1\n      dup2\n      mstore\n      0x20\n      add\n      0x00\n      keccak256\n      0x00\n      swap1\n      sload\n      swap1\n      0x0100\n      exp\n      swap1\n      div\n      0xff\n      and\n        /* \"LandRegistration.sol\":1387:1417  require(addresses[msg.sender]) */\n      tag_182\n      jumpi\n      0x00\n      dup1\n      revert\n    tag_182:\n        /* \"LandRegistration.sol\":3489:3503  landIdsMapping */\n      0x07\n        /* \"LandRegistration.sol\":3504:3511  _landId */\n      dup2\n        /* \"LandRegistration.sol\":3489:3512  landIdsMapping[_landId] */\n      mload(0x40)\n      tag_184\n      swap2\n      swap1\n      tag_185\n      jump\t// in\n    tag_184:\n      swap1\n      dup2\n      mstore\n      0x20\n      add\n      mload(0x40)\n      dup1\n      swap2\n      sub\n      swap1\n      keccak256\n      0x00\n      swap1\n      sload\n      swap1\n      0x0100\n      exp\n      swap1\n      div\n      0xff\n      and\n        /* \"LandRegistration.sol\":3488:3512  !landIdsMapping[_landId] */\n      iszero\n        /* \"LandRegistration.sol\":3480:3513  require(!landIdsMapping[_landId]) */\n      tag_186\n      jumpi\n      0x00\n      dup1\n      revert\n    tag_186:\n        /* \"LandRegistration.sol\":3598:3602  true */\n      0x01\n        /* \"LandRegistration.sol\":3572:3586  landIdsMapping */\n      0x07\n        /* \"LandRegistration.sol\":3587:3594  _landId */\n      dup3\n        /* \"LandRegistration.sol\":3572:3595  landIdsMapping[_landId] */\n      mload(0x40)\n      tag_187\n      swap2\n      swap1\n      tag_185\n      jump\t// in\n    tag_187:\n      swap1\n      dup2\n      mstore\n      0x20\n      add\n      mload(0x40)\n      dup1\n      swap2\n      sub\n      swap1\n      keccak256\n      0x00\n        /* \"LandRegistration.sol\":3572:3602  landIdsMapping[_landId] = true */\n      0x0100\n      exp\n      dup2\n      sload\n      dup2\n      0xff\n      mul\n      not\n      and\n      swap1\n      dup4\n      iszero\n      iszero\n      mul\n      or\n      swap1\n      sstore\n      pop\n        /* \"LandRegistration.sol\":3657:3667  landIdsArr */\n      0x06\n        /* \"LandRegistration.sol\":3673:3680  _landId */\n      dup2\n        /* \"LandRegistration.sol\":3657:3681  landIdsArr.push(_landId) */\n      swap1\n      dup1\n      0x01\n      dup2\n      sload\n      add\n      dup1\n      dup3\n      sstore\n      dup1\n      swap2\n      pop\n      pop\n      0x01\n      swap1\n      sub\n      swap1\n      0x00\n      mstore\n      keccak256(0x00, 0x20)\n      add\n      0x00\n      swap1\n      swap2\n      swap1\n      swap2\n      swap1\n      swap2\n      pop\n      swap1\n      dup1\n      mload\n      swap1\n      0x20\n      add\n      swap1\n      tag_189\n      swap3\n      swap2\n      swap1\n      tag_105\n      jump\t// in\n    tag_189:\n      pop\n        /* \"LandRegistration.sol\":3728:3748  Land storage newLand */\n      0x00\n        /* \"LandRegistration.sol\":3751:3756  lands */\n      0x08\n        /* \"LandRegistration.sol\":3757:3764  _landId */\n      dup3\n        /* \"LandRegistration.sol\":3751:3765  lands[_landId] */\n      mload(0x40)\n      tag_190\n      swap2\n      swap1\n      tag_185\n      jump\t// in\n    tag_190:\n      swap1\n      dup2\n      mstore\n      0x20\n      add\n      mload(0x40)\n      dup1\n      swap2\n      sub\n      swap1\n      keccak256\n        /* \"LandRegistration.sol\":3728:3765  Land storage newLand = lands[_landId] */\n      swap1\n      pop\n        /* \"LandRegistration.sol\":3792:3798  admins */\n      0x02\n        /* \"LandRegistration.sol\":3792:3813  admins[_adminAddress] */\n      0x00\n        /* \"LandRegistration.sol\":3799:3812  _adminAddress */\n      dup5\n        /* \"LandRegistration.sol\":3792:3813  admins[_adminAddress] */\n      0xffffffffffffffffffffffffffffffffffffffff\n      and\n      0xffffffffffffffffffffffffffffffffffffffff\n      and\n      dup2\n      mstore\n      0x20\n      add\n      swap1\n      dup2\n      mstore\n      0x20\n      add\n      0x00\n      keccak256\n        /* \"LandRegistration.sol\":3792:3820  admins[_adminAddress].county */\n      0x03\n      add\n        /* \"LandRegistration.sol\":3775:3782  newLand */\n      dup2\n        /* \"LandRegistration.sol\":3775:3789  newLand.county */\n      0x00\n      add\n        /* \"LandRegistration.sol\":3775:3820  newLand.county = admins[_adminAddress].county */\n      swap1\n      dup1\n      sload\n      tag_191\n      swap1\n      tag_115\n      jump\t// in\n    tag_191:\n      tag_192\n      swap3\n      swap2\n      swap1\n      tag_193\n      jump\t// in\n    tag_192:\n      pop\n        /* \"LandRegistration.sol\":3849:3858  _location */\n      dup7\n        /* \"LandRegistration.sol\":3830:3837  newLand */\n      dup2\n        /* \"LandRegistration.sol\":3830:3846  newLand.location */\n      0x01\n      add\n        /* \"LandRegistration.sol\":3830:3858  newLand.location = _location */\n      swap1\n      dup1\n      mload\n      swap1\n      0x20\n      add\n      swap1\n      tag_194\n      swap3\n      swap2\n      swap1\n      tag_105\n      jump\t// in\n    tag_194:\n      pop\n        /* \"LandRegistration.sol\":3891:3905  _surveryNumber */\n      dup6\n        /* \"LandRegistration.sol\":3868:3875  newLand */\n      dup2\n        /* \"LandRegistration.sol\":3868:3888  newLand.surveyNumber */\n      0x02\n      add\n        /* \"LandRegistration.sol\":3868:3905  newLand.surveyNumber = _surveryNumber */\n      swap1\n      dup1\n      mload\n      swap1\n      0x20\n      add\n      swap1\n      tag_195\n      swap3\n      swap2\n      swap1\n      tag_105\n      jump\t// in\n    tag_195:\n      pop\n        /* \"LandRegistration.sol\":3938:3951  _ownerAddress */\n      dup5\n        /* \"LandRegistration.sol\":3915:3922  newLand */\n      dup2\n        /* \"LandRegistration.sol\":3915:3935  newLand.ownerAddress */\n      0x03\n      add\n      0x00\n        /* \"LandRegistration.sol\":3915:3951  newLand.ownerAddress = _ownerAddress */\n      0x0100\n      exp\n      dup2\n      sload\n      dup2\n      0xffffffffffffffffffffffffffffffffffffffff\n      mul\n      not\n      and\n      swap1\n      dup4\n      0xffffffffffffffffffffffffffffffffffffffff\n      and\n      mul\n      or\n      swap1\n      sstore\n      pop\n        /* \"LandRegistration.sol\":3983:3995  _marketValue */\n      dup4\n        /* \"LandRegistration.sol\":3961:3968  newLand */\n      dup2\n        /* \"LandRegistration.sol\":3961:3980  newLand.marketValue */\n      0x04\n      add\n        /* \"LandRegistration.sol\":3961:3995  newLand.marketValue = _marketValue */\n      swap1\n      dup1\n      mload\n      swap1\n      0x20\n      add\n      swap1\n      tag_196\n      swap3\n      swap2\n      swap1\n      tag_105\n      jump\t// in\n    tag_196:\n      pop\n        /* \"LandRegistration.sol\":4028:4033  false */\n      0x00\n        /* \"LandRegistration.sol\":4005:4012  newLand */\n      dup2\n        /* \"LandRegistration.sol\":4005:4025  newLand.availability */\n      0x05\n      add\n      0x00\n        /* \"LandRegistration.sol\":4005:4033  newLand.availability = false */\n      0x0100\n      exp\n      dup2\n      sload\n      dup2\n      0xff\n      mul\n      not\n      and\n      swap1\n      dup4\n      iszero\n      iszero\n      mul\n      or\n      swap1\n      sstore\n      pop\n        /* \"LandRegistration.sol\":4070:4075  false */\n      0x00\n        /* \"LandRegistration.sol\":4043:4050  newLand */\n      dup2\n        /* \"LandRegistration.sol\":4043:4067  newLand.requestedForSale */\n      0x05\n      add\n      0x01\n        /* \"LandRegistration.sol\":4043:4075  newLand.requestedForSale = false */\n      0x0100\n      exp\n      dup2\n      sload\n      dup2\n      0xff\n      mul\n      not\n      and\n      swap1\n      dup4\n      iszero\n      iszero\n      mul\n      or\n      swap1\n      sstore\n      pop\n        /* \"LandRegistration.sol\":4122:4123  0 */\n      0x00\n        /* \"LandRegistration.sol\":4085:4092  newLand */\n      dup2\n        /* \"LandRegistration.sol\":4085:4111  newLand.requestedByAddress */\n      0x05\n      add\n      0x02\n        /* \"LandRegistration.sol\":4085:4124  newLand.requestedByAddress = address(0) */\n      0x0100\n      exp\n      dup2\n      sload\n      dup2\n      0xffffffffffffffffffffffffffffffffffffffff\n      mul\n      not\n      and\n      swap1\n      dup4\n      0xffffffffffffffffffffffffffffffffffffffff\n      and\n      mul\n      or\n      swap1\n      sstore\n      pop\n        /* \"LandRegistration.sol\":4151:4158  _landId */\n      dup2\n        /* \"LandRegistration.sol\":4134:4141  newLand */\n      dup2\n        /* \"LandRegistration.sol\":4134:4148  newLand.landId */\n      0x06\n      add\n        /* \"LandRegistration.sol\":4134:4158  newLand.landId = _landId */\n      swap1\n      dup1\n      mload\n      swap1\n      0x20\n      add\n      swap1\n      tag_197\n      swap3\n      swap2\n      swap1\n      tag_105\n      jump\t// in\n    tag_197:\n      pop\n        /* \"LandRegistration.sol\":4191:4204  _adminAddress */\n      dup3\n        /* \"LandRegistration.sol\":4168:4175  newLand */\n      dup2\n        /* \"LandRegistration.sol\":4168:4188  newLand.adminAddress */\n      0x07\n      add\n      0x00\n        /* \"LandRegistration.sol\":4168:4204  newLand.adminAddress = _adminAddress */\n      0x0100\n      exp\n      dup2\n      sload\n      dup2\n      0xffffffffffffffffffffffffffffffffffffffff\n      mul\n      not\n      and\n      swap1\n      dup4\n      0xffffffffffffffffffffffffffffffffffffffff\n      and\n      mul\n      or\n      swap1\n      sstore\n      pop\n        /* \"LandRegistration.sol\":4241:4242  1 */\n      0x01\n        /* \"LandRegistration.sol\":4228:4238  landsCount */\n      sload(0x09)\n        /* \"LandRegistration.sol\":4228:4242  landsCount + 1 */\n      tag_198\n      swap2\n      swap1\n      tag_199\n      jump\t// in\n    tag_198:\n        /* \"LandRegistration.sol\":4215:4225  landsCount */\n      0x09\n        /* \"LandRegistration.sol\":4215:4242  landsCount = landsCount + 1 */\n      dup2\n      swap1\n      sstore\n      pop\n        /* \"LandRegistration.sol\":3470:4249  {... */\n      pop\n        /* \"LandRegistration.sol\":3273:4249  function registerLand(string memory _location, string memory _surveryNumber, address _ownerAddress, string memory _marketValue, address _adminAddress, string memory _landId) public restrictToAdmin {... */\n      pop\n      pop\n      pop\n      pop\n      pop\n      pop\n      jump\t// out\n        /* \"LandRegistration.sol\":865:902  mapping (string => Land) public lands */\n    tag_82:\n      0x08\n      dup2\n      dup1\n      mload\n      0x20\n      dup2\n      add\n      dup3\n      add\n      dup1\n      mload\n      dup5\n      dup3\n      mstore\n      0x20\n      dup4\n      add\n      0x20\n      dup6\n      add\n      keccak256\n      dup2\n      dup4\n      mstore\n      dup1\n      swap6\n      pop\n      pop\n      pop\n      pop\n      pop\n      pop\n      0x00\n      swap2\n      pop\n      swap1\n      pop\n      dup1\n      0x00\n      add\n      dup1\n      sload\n      tag_200\n      swap1\n      tag_115\n      jump\t// in\n    tag_200:\n      dup1\n      0x1f\n      add\n      0x20\n      dup1\n      swap2\n      div\n      mul\n      0x20\n      add\n      mload(0x40)\n      swap1\n      dup2\n      add\n      0x40\n      mstore\n      dup1\n      swap3\n      swap2\n      swap1\n      dup2\n      dup2\n      mstore\n      0x20\n      add\n      dup3\n      dup1\n      sload\n      tag_201\n      swap1\n      tag_115\n      jump\t// in\n    tag_201:\n      dup1\n      iszero\n      tag_202\n      jumpi\n      dup1\n      0x1f\n      lt\n      tag_203\n      jumpi\n      0x0100\n      dup1\n      dup4\n      sload\n      div\n      mul\n      dup4\n      mstore\n      swap2\n      0x20\n      add\n      swap2\n      jump(tag_202)\n    tag_203:\n      dup3\n      add\n      swap2\n      swap1\n      0x00\n      mstore\n      keccak256(0x00, 0x20)\n      swap1\n    tag_204:\n      dup2\n      sload\n      dup2\n      mstore\n      swap1\n      0x01\n      add\n      swap1\n      0x20\n      add\n      dup1\n      dup4\n      gt\n      tag_204\n      jumpi\n      dup3\n      swap1\n      sub\n      0x1f\n      and\n      dup3\n      add\n      swap2\n    tag_202:\n      pop\n      pop\n      pop\n      pop\n      pop\n      swap1\n      dup1\n      0x01\n      add\n      dup1\n      sload\n      tag_205\n      swap1\n      tag_115\n      jump\t// in\n    tag_205:\n      dup1\n      0x1f\n      add\n      0x20\n      dup1\n      swap2\n      div\n      mul\n      0x20\n      add\n      mload(0x40)\n      swap1\n      dup2\n      add\n      0x40\n      mstore\n      dup1\n      swap3\n      swap2\n      swap1\n      dup2\n      dup2\n      mstore\n      0x20\n      add\n      dup3\n      dup1\n      sload\n      tag_206\n      swap1\n      tag_115\n      jump\t// in\n    tag_206:\n      dup1\n      iszero\n      tag_207\n      jumpi\n      dup1\n      0x1f\n      lt\n      tag_208\n      jumpi\n      0x0100\n      dup1\n      dup4\n      sload\n      div\n      mul\n      dup4\n      mstore\n      swap2\n      0x20\n      add\n      swap2\n      jump(tag_207)\n    tag_208:\n      dup3\n      add\n      swap2\n      swap1\n      0x00\n      mstore\n      keccak256(0x00, 0x20)\n      swap1\n    tag_209:\n      dup2\n      sload\n      dup2\n      mstore\n      swap1\n      0x01\n      add\n      swap1\n      0x20\n      add\n      dup1\n      dup4\n      gt\n      tag_209\n      jumpi\n      dup3\n      swap1\n      sub\n      0x1f\n      and\n      dup3\n      add\n      swap2\n    tag_207:\n      pop\n      pop\n      pop\n      pop\n      pop\n      swap1\n      dup1\n      0x02\n      add\n      dup1\n      sload\n      tag_210\n      swap1\n      tag_115\n      jump\t// in\n    tag_210:\n      dup1\n      0x1f\n      add\n      0x20\n      dup1\n      swap2\n      div\n      mul\n      0x20\n      add\n      mload(0x40)\n      swap1\n      dup2\n      add\n      0x40\n      mstore\n      dup1\n      swap3\n      swap2\n      swap1\n      dup2\n      dup2\n      mstore\n      0x20\n      add\n      dup3\n      dup1\n      sload\n      tag_211\n      swap1\n      tag_115\n      jump\t// in\n    tag_211:\n      dup1\n      iszero\n      tag_212\n      jumpi\n      dup1\n      0x1f\n      lt\n      tag_213\n      jumpi\n      0x0100\n      dup1\n      dup4\n      sload\n      div\n      mul\n      dup4\n      mstore\n      swap2\n      0x20\n      add\n      swap2\n      jump(tag_212)\n    tag_213:\n      dup3\n      add\n      swap2\n      swap1\n      0x00\n      mstore\n      keccak256(0x00, 0x20)\n      swap1\n    tag_214:\n      dup2\n      sload\n      dup2\n      mstore\n      swap1\n      0x01\n      add\n      swap1\n      0x20\n      add\n      dup1\n      dup4\n      gt\n      tag_214\n      jumpi\n      dup3\n      swap1\n      sub\n      0x1f\n      and\n      dup3\n      add\n      swap2\n    tag_212:\n      pop\n      pop\n      pop\n      pop\n      pop\n      swap1\n      dup1\n      0x03\n      add\n      0x00\n      swap1\n      sload\n      swap1\n      0x0100\n      exp\n      swap1\n      div\n      0xffffffffffffffffffffffffffffffffffffffff\n      and\n      swap1\n      dup1\n      0x04\n      add\n      dup1\n      sload\n      tag_215\n      swap1\n      tag_115\n      jump\t// in\n    tag_215:\n      dup1\n      0x1f\n      add\n      0x20\n      dup1\n      swap2\n      div\n      mul\n      0x20\n      add\n      mload(0x40)\n      swap1\n      dup2\n      add\n      0x40\n      mstore\n      dup1\n      swap3\n      swap2\n      swap1\n      dup2\n      dup2\n      mstore\n      0x20\n      add\n      dup3\n      dup1\n      sload\n      tag_216\n      swap1\n      tag_115\n      jump\t// in\n    tag_216:\n      dup1\n      iszero\n      tag_217\n      jumpi\n      dup1\n      0x1f\n      lt\n      tag_218\n      jumpi\n      0x0100\n      dup1\n      dup4\n      sload\n      div\n      mul\n      dup4\n      mstore\n      swap2\n      0x20\n      add\n      swap2\n      jump(tag_217)\n    tag_218:\n      dup3\n      add\n      swap2\n      swap1\n      0x00\n      mstore\n      keccak256(0x00, 0x20)\n      swap1\n    tag_219:\n      dup2\n      sload\n      dup2\n      mstore\n      swap1\n      0x01\n      add\n      swap1\n      0x20\n      add\n      dup1\n      dup4\n      gt\n      tag_219\n      jumpi\n      dup3\n      swap1\n      sub\n      0x1f\n      and\n      dup3\n      add\n      swap2\n    tag_217:\n      pop\n      pop\n      pop\n      pop\n      pop\n      swap1\n      dup1\n      0x05\n      add\n      0x00\n      swap1\n      sload\n      swap1\n      0x0100\n      exp\n      swap1\n      div\n      0xff\n      and\n      swap1\n      dup1\n      0x05\n      add\n      0x01\n      swap1\n      sload\n      swap1\n      0x0100\n      exp\n      swap1\n      div\n      0xff\n      and\n      swap1\n      dup1\n      0x05\n      add\n      0x02\n      swap1\n      sload\n      swap1\n      0x0100\n      exp\n      swap1\n      div\n      0xffffffffffffffffffffffffffffffffffffffff\n      and\n      swap1\n      dup1\n      0x06\n      add\n      dup1\n      sload\n      tag_220\n      swap1\n      tag_115\n      jump\t// in\n    tag_220:\n      dup1\n      0x1f\n      add\n      0x20\n      dup1\n      swap2\n      div\n      mul\n      0x20\n      add\n      mload(0x40)\n      swap1\n      dup2\n      add\n      0x40\n      mstore\n      dup1\n      swap3\n      swap2\n      swap1\n      dup2\n      dup2\n      mstore\n      0x20\n      add\n      dup3\n      dup1\n      sload\n      tag_221\n      swap1\n      tag_115\n      jump\t// in\n    tag_221:\n      dup1\n      iszero\n      tag_222\n      jumpi\n      dup1\n      0x1f\n      lt\n      tag_223\n      jumpi\n      0x0100\n      dup1\n      dup4\n      sload\n      div\n      mul\n      dup4\n      mstore\n      swap2\n      0x20\n      add\n      swap2\n      jump(tag_222)\n    tag_223:\n      dup3\n      add\n      swap2\n      swap1\n      0x00\n      mstore\n      keccak256(0x00, 0x20)\n      swap1\n    tag_224:\n      dup2\n      sload\n      dup2\n      mstore\n      swap1\n      0x01\n      add\n      swap1\n      0x20\n      add\n      dup1\n      dup4\n      gt\n      tag_224\n      jumpi\n      dup3\n      swap1\n      sub\n      0x1f\n      and\n      dup3\n      add\n      swap2\n    tag_222:\n      pop\n      pop\n      pop\n      pop\n      pop\n      swap1\n      dup1\n      0x07\n      add\n      0x00\n      swap1\n      sload\n      swap1\n      0x0100\n      exp\n      swap1\n      div\n      0xffffffffffffffffffffffffffffffffffffffff\n      and\n      swap1\n      pop\n      dup11\n      jump\t// out\n        /* \"LandRegistration.sol\":813:859  mapping (string => bool) public landIdsMapping */\n    tag_87:\n      0x07\n      dup2\n      dup1\n      mload\n      0x20\n      dup2\n      add\n      dup3\n      add\n      dup1\n      mload\n      dup5\n      dup3\n      mstore\n      0x20\n      dup4\n      add\n      0x20\n      dup6\n      add\n      keccak256\n      dup2\n      dup4\n      mstore\n      dup1\n      swap6\n      pop\n      pop\n      pop\n      pop\n      pop\n      pop\n      0x00\n      swap2\n      pop\n      sload\n      swap1\n      0x0100\n      exp\n      swap1\n      div\n      0xff\n      and\n      dup2\n      jump\t// out\n        /* \"LandRegistration.sol\":780:807  string [] public landIdsArr */\n    tag_91:\n      0x06\n      dup2\n      dup2\n      sload\n      dup2\n      lt\n      tag_225\n      jumpi\n      0x00\n      dup1\n      revert\n    tag_225:\n      swap1\n      0x00\n      mstore\n      keccak256(0x00, 0x20)\n      add\n      0x00\n      swap2\n      pop\n      swap1\n      pop\n      dup1\n      sload\n      tag_227\n      swap1\n      tag_115\n      jump\t// in\n    tag_227:\n      dup1\n      0x1f\n      add\n      0x20\n      dup1\n      swap2\n      div\n      mul\n      0x20\n      add\n      mload(0x40)\n      swap1\n      dup2\n      add\n      0x40\n      mstore\n      dup1\n      swap3\n      swap2\n      swap1\n      dup2\n      dup2\n      mstore\n      0x20\n      add\n      dup3\n      dup1\n      sload\n      tag_228\n      swap1\n      tag_115\n      jump\t// in\n    tag_228:\n      dup1\n      iszero\n      tag_229\n      jumpi\n      dup1\n      0x1f\n      lt\n      tag_230\n      jumpi\n      0x0100\n      dup1\n      dup4\n      sload\n      div\n      mul\n      dup4\n      mstore\n      swap2\n      0x20\n      add\n      swap2\n      jump(tag_229)\n    tag_230:\n      dup3\n      add\n      swap2\n      swap1\n      0x00\n      mstore\n      keccak256(0x00, 0x20)\n      swap1\n    tag_231:\n      dup2\n      sload\n      dup2\n      mstore\n      swap1\n      0x01\n      add\n      swap1\n      0x20\n      add\n      dup1\n      dup4\n      gt\n      tag_231\n      jumpi\n      dup3\n      swap1\n      sub\n      0x1f\n      and\n      dup3\n      add\n      swap2\n    tag_229:\n      pop\n      pop\n      pop\n      pop\n      pop\n      dup2\n      jump\t// out\n        /* \"LandRegistration.sol\":1582:2165  function addAdmin(string memory firstName, string memory lastName, string memory county, address adminAddress) public restrictToSuperAdmin {... */\n    tag_95:\n        /* \"LandRegistration.sol\":1310:1327  superAdminAddress */\n      0x00\n      dup1\n      sload\n      swap1\n      0x0100\n      exp\n      swap1\n      div\n      0xffffffffffffffffffffffffffffffffffffffff\n      and\n        /* \"LandRegistration.sol\":1296:1327  msg.sender == superAdminAddress */\n      0xffffffffffffffffffffffffffffffffffffffff\n      and\n        /* \"LandRegistration.sol\":1296:1306  msg.sender */\n      caller\n        /* \"LandRegistration.sol\":1296:1327  msg.sender == superAdminAddress */\n      0xffffffffffffffffffffffffffffffffffffffff\n      and\n      eq\n        /* \"LandRegistration.sol\":1288:1328  require(msg.sender == superAdminAddress) */\n      tag_233\n      jumpi\n      0x00\n      dup1\n      revert\n    tag_233:\n        /* \"LandRegistration.sol\":1735:1773  equal(admins[adminAddress].county, \"\") */\n      tag_235\n        /* \"LandRegistration.sol\":1741:1747  admins */\n      0x02\n        /* \"LandRegistration.sol\":1741:1761  admins[adminAddress] */\n      0x00\n        /* \"LandRegistration.sol\":1748:1760  adminAddress */\n      dup4\n        /* \"LandRegistration.sol\":1741:1761  admins[adminAddress] */\n      0xffffffffffffffffffffffffffffffffffffffff\n      and\n      0xffffffffffffffffffffffffffffffffffffffff\n      and\n      dup2\n      mstore\n      0x20\n      add\n      swap1\n      dup2\n      mstore\n      0x20\n      add\n      0x00\n      keccak256\n        /* \"LandRegistration.sol\":1741:1768  admins[adminAddress].county */\n      0x03\n      add\n        /* \"LandRegistration.sol\":1735:1773  equal(admins[adminAddress].county, \"\") */\n      dup1\n      sload\n      tag_236\n      swap1\n      tag_115\n      jump\t// in\n    tag_236:\n      dup1\n      0x1f\n      add\n      0x20\n      dup1\n      swap2\n      div\n      mul\n      0x20\n      add\n      mload(0x40)\n      swap1\n      dup2\n      add\n      0x40\n      mstore\n      dup1\n      swap3\n      swap2\n      swap1\n      dup2\n      dup2\n      mstore\n      0x20\n      add\n      dup3\n      dup1\n      sload\n      tag_237\n      swap1\n      tag_115\n      jump\t// in\n    tag_237:\n      dup1\n      iszero\n      tag_238\n      jumpi\n      dup1\n      0x1f\n      lt\n      tag_239\n      jumpi\n      0x0100\n      dup1\n      dup4\n      sload\n      div\n      mul\n      dup4\n      mstore\n      swap2\n      0x20\n      add\n      swap2\n      jump(tag_238)\n    tag_239:\n      dup3\n      add\n      swap2\n      swap1\n      0x00\n      mstore\n      keccak256(0x00, 0x20)\n      swap1\n    tag_240:\n      dup2\n      sload\n      dup2\n      mstore\n      swap1\n      0x01\n      add\n      swap1\n      0x20\n      add\n      dup1\n      dup4\n      gt\n      tag_240\n      jumpi\n      dup3\n      swap1\n      sub\n      0x1f\n      and\n      dup3\n      add\n      swap2\n    tag_238:\n      pop\n      pop\n      pop\n      pop\n      pop\n      mload(0x40)\n      dup1\n      0x20\n      add\n      0x40\n      mstore\n      dup1\n      0x00\n      dup2\n      mstore\n      pop\n        /* \"LandRegistration.sol\":1735:1740  equal */\n      tag_241\n        /* \"LandRegistration.sol\":1735:1773  equal(admins[adminAddress].county, \"\") */\n      jump\t// in\n    tag_235:\n        /* \"LandRegistration.sol\":1731:1821  if (equal(admins[adminAddress].county, \"\")) {... */\n      iszero\n      tag_242\n      jumpi\n        /* \"LandRegistration.sol\":1789:1797  counties */\n      0x04\n        /* \"LandRegistration.sol\":1803:1809  county */\n      dup3\n        /* \"LandRegistration.sol\":1789:1810  counties.push(county) */\n      swap1\n      dup1\n      0x01\n      dup2\n      sload\n      add\n      dup1\n      dup3\n      sstore\n      dup1\n      swap2\n      pop\n      pop\n      0x01\n      swap1\n      sub\n      swap1\n      0x00\n      mstore\n      keccak256(0x00, 0x20)\n      add\n      0x00\n      swap1\n      swap2\n      swap1\n      swap2\n      swap1\n      swap2\n      pop\n      swap1\n      dup1\n      mload\n      swap1\n      0x20\n      add\n      swap1\n      tag_244\n      swap3\n      swap2\n      swap1\n      tag_105\n      jump\t// in\n    tag_244:\n      pop\n        /* \"LandRegistration.sol\":1731:1821  if (equal(admins[adminAddress].county, \"\")) {... */\n    tag_242:\n        /* \"LandRegistration.sol\":1830:1852  Admin storage newAdmin */\n      0x00\n        /* \"LandRegistration.sol\":1855:1861  admins */\n      0x02\n        /* \"LandRegistration.sol\":1855:1875  admins[adminAddress] */\n      0x00\n        /* \"LandRegistration.sol\":1862:1874  adminAddress */\n      dup4\n        /* \"LandRegistration.sol\":1855:1875  admins[adminAddress] */\n      0xffffffffffffffffffffffffffffffffffffffff\n      and\n      0xffffffffffffffffffffffffffffffffffffffff\n      and\n      dup2\n      mstore\n      0x20\n      add\n      swap1\n      dup2\n      mstore\n      0x20\n      add\n      0x00\n      keccak256\n        /* \"LandRegistration.sol\":1830:1875  Admin storage newAdmin = admins[adminAddress] */\n      swap1\n      pop\n        /* \"LandRegistration.sol\":1906:1915  firstName */\n      dup5\n        /* \"LandRegistration.sol\":1885:1893  newAdmin */\n      dup2\n        /* \"LandRegistration.sol\":1885:1903  newAdmin.firstName */\n      0x00\n      add\n        /* \"LandRegistration.sol\":1885:1915  newAdmin.firstName = firstName */\n      swap1\n      dup1\n      mload\n      swap1\n      0x20\n      add\n      swap1\n      tag_245\n      swap3\n      swap2\n      swap1\n      tag_105\n      jump\t// in\n    tag_245:\n      pop\n        /* \"LandRegistration.sol\":1945:1953  lastName */\n      dup4\n        /* \"LandRegistration.sol\":1925:1933  newAdmin */\n      dup2\n        /* \"LandRegistration.sol\":1925:1942  newAdmin.lastName */\n      0x01\n      add\n        /* \"LandRegistration.sol\":1925:1953  newAdmin.lastName = lastName */\n      swap1\n      dup1\n      mload\n      swap1\n      0x20\n      add\n      swap1\n      tag_246\n      swap3\n      swap2\n      swap1\n      tag_105\n      jump\t// in\n    tag_246:\n      pop\n        /* \"LandRegistration.sol\":1987:1999  adminAddress */\n      dup2\n        /* \"LandRegistration.sol\":1963:1971  newAdmin */\n      dup2\n        /* \"LandRegistration.sol\":1963:1984  newAdmin.adminAddress */\n      0x02\n      add\n      0x00\n        /* \"LandRegistration.sol\":1963:1999  newAdmin.adminAddress = adminAddress */\n      0x0100\n      exp\n      dup2\n      sload\n      dup2\n      0xffffffffffffffffffffffffffffffffffffffff\n      mul\n      not\n      and\n      swap1\n      dup4\n      0xffffffffffffffffffffffffffffffffffffffff\n      and\n      mul\n      or\n      swap1\n      sstore\n      pop\n        /* \"LandRegistration.sol\":2027:2033  county */\n      dup3\n        /* \"LandRegistration.sol\":2009:2017  newAdmin */\n      dup2\n        /* \"LandRegistration.sol\":2009:2024  newAdmin.county */\n      0x03\n      add\n        /* \"LandRegistration.sol\":2009:2033  newAdmin.county = county */\n      swap1\n      dup1\n      mload\n      swap1\n      0x20\n      add\n      swap1\n      tag_247\n      swap3\n      swap2\n      swap1\n      tag_105\n      jump\t// in\n    tag_247:\n      pop\n        /* \"LandRegistration.sol\":2061:2065  true */\n      0x01\n        /* \"LandRegistration.sol\":2043:2051  newAdmin */\n      dup2\n        /* \"LandRegistration.sol\":2043:2058  newAdmin.active */\n      0x04\n      add\n      0x00\n        /* \"LandRegistration.sol\":2043:2065  newAdmin.active = true */\n      0x0100\n      exp\n      dup2\n      sload\n      dup2\n      0xff\n      mul\n      not\n      and\n      swap1\n      dup4\n      iszero\n      iszero\n      mul\n      or\n      swap1\n      sstore\n      pop\n        /* \"LandRegistration.sol\":2076:2090  adminsAdresses */\n      0x05\n        /* \"LandRegistration.sol\":2104:2116  adminAddress */\n      dup3\n        /* \"LandRegistration.sol\":2076:2118  adminsAdresses.push(address(adminAddress)) */\n      swap1\n      dup1\n      0x01\n      dup2\n      sload\n      add\n      dup1\n      dup3\n      sstore\n      dup1\n      swap2\n      pop\n      pop\n      0x01\n      swap1\n      sub\n      swap1\n      0x00\n      mstore\n      keccak256(0x00, 0x20)\n      add\n      0x00\n      swap1\n      swap2\n      swap1\n      swap2\n      swap1\n      swap2\n      0x0100\n      exp\n      dup2\n      sload\n      dup2\n      0xffffffffffffffffffffffffffffffffffffffff\n      mul\n      not\n      and\n      swap1\n      dup4\n      0xffffffffffffffffffffffffffffffffffffffff\n      and\n      mul\n      or\n      swap1\n      sstore\n      pop\n        /* \"LandRegistration.sol\":2154:2158  true */\n      0x01\n        /* \"LandRegistration.sol\":2128:2137  addresses */\n      0x03\n        /* \"LandRegistration.sol\":2128:2151  addresses[adminAddress] */\n      0x00\n        /* \"LandRegistration.sol\":2138:2150  adminAddress */\n      dup5\n        /* \"LandRegistration.sol\":2128:2151  addresses[adminAddress] */\n      0xffffffffffffffffffffffffffffffffffffffff\n      and\n      0xffffffffffffffffffffffffffffffffffffffff\n      and\n      dup2\n      mstore\n      0x20\n      add\n      swap1\n      dup2\n      mstore\n      0x20\n      add\n      0x00\n      keccak256\n      0x00\n        /* \"LandRegistration.sol\":2128:2158  addresses[adminAddress] = true */\n      0x0100\n      exp\n      dup2\n      sload\n      dup2\n      0xff\n      mul\n      not\n      and\n      swap1\n      dup4\n      iszero\n      iszero\n      mul\n      or\n      swap1\n      sstore\n      pop\n        /* \"LandRegistration.sol\":1721:2165  {... */\n      pop\n        /* \"LandRegistration.sol\":1582:2165  function addAdmin(string memory firstName, string memory lastName, string memory county, address adminAddress) public restrictToSuperAdmin {... */\n      pop\n      pop\n      pop\n      pop\n      jump\t// out\n        /* \"LandRegistration.sol\":2320:2447  function deactivateAdmin(address adminAddress) public restrictToSuperAdmin {... */\n    tag_98:\n        /* \"LandRegistration.sol\":1310:1327  superAdminAddress */\n      0x00\n      dup1\n      sload\n      swap1\n      0x0100\n      exp\n      swap1\n      div\n      0xffffffffffffffffffffffffffffffffffffffff\n      and\n        /* \"LandRegistration.sol\":1296:1327  msg.sender == superAdminAddress */\n      0xffffffffffffffffffffffffffffffffffffffff\n      and\n        /* \"LandRegistration.sol\":1296:1306  msg.sender */\n      caller\n        /* \"LandRegistration.sol\":1296:1327  msg.sender == superAdminAddress */\n      0xffffffffffffffffffffffffffffffffffffffff\n      and\n      eq\n        /* \"LandRegistration.sol\":1288:1328  require(msg.sender == superAdminAddress) */\n      tag_250\n      jumpi\n      0x00\n      dup1\n      revert\n    tag_250:\n        /* \"LandRegistration.sol\":2435:2440  false */\n      0x00\n        /* \"LandRegistration.sol\":2405:2411  admins */\n      0x02\n        /* \"LandRegistration.sol\":2405:2425  admins[adminAddress] */\n      0x00\n        /* \"LandRegistration.sol\":2412:2424  adminAddress */\n      dup4\n        /* \"LandRegistration.sol\":2405:2425  admins[adminAddress] */\n      0xffffffffffffffffffffffffffffffffffffffff\n      and\n      0xffffffffffffffffffffffffffffffffffffffff\n      and\n      dup2\n      mstore\n      0x20\n      add\n      swap1\n      dup2\n      mstore\n      0x20\n      add\n      0x00\n      keccak256\n        /* \"LandRegistration.sol\":2405:2432  admins[adminAddress].active */\n      0x04\n      add\n      0x00\n        /* \"LandRegistration.sol\":2405:2440  admins[adminAddress].active = false */\n      0x0100\n      exp\n      dup2\n      sload\n      dup2\n      0xff\n      mul\n      not\n      and\n      swap1\n      dup4\n      iszero\n      iszero\n      mul\n      or\n      swap1\n      sstore\n      pop\n        /* \"LandRegistration.sol\":2320:2447  function deactivateAdmin(address adminAddress) public restrictToSuperAdmin {... */\n      pop\n      jump\t// out\n        /* \"LandRegistration.sol\":1096:1238  function equal(string memory a, string memory b) private pure returns(bool) {... */\n    tag_241:\n        /* \"LandRegistration.sol\":1166:1170  bool */\n      0x00\n        /* \"LandRegistration.sol\":1228:1229  b */\n      dup2\n        /* \"LandRegistration.sol\":1212:1231  keccak256(bytes(b)) */\n      dup1\n      mload\n      swap1\n      0x20\n      add\n      keccak256\n        /* \"LandRegistration.sol\":1205:1206  a */\n      dup4\n        /* \"LandRegistration.sol\":1189:1208  keccak256(bytes(a)) */\n      dup1\n      mload\n      swap1\n      0x20\n      add\n      keccak256\n        /* \"LandRegistration.sol\":1189:1231  keccak256(bytes(a)) == keccak256(bytes(b)) */\n      eq\n        /* \"LandRegistration.sol\":1182:1231  return keccak256(bytes(a)) == keccak256(bytes(b)) */\n      swap1\n      pop\n        /* \"LandRegistration.sol\":1096:1238  function equal(string memory a, string memory b) private pure returns(bool) {... */\n      swap3\n      swap2\n      pop\n      pop\n      jump\t// out\n    tag_105:\n      dup3\n      dup1\n      sload\n      tag_253\n      swap1\n      tag_115\n      jump\t// in\n    tag_253:\n      swap1\n      0x00\n      mstore\n      keccak256(0x00, 0x20)\n      swap1\n      0x1f\n      add\n      0x20\n      swap1\n      div\n      dup2\n      add\n      swap3\n      dup3\n      tag_255\n      jumpi\n      0x00\n      dup6\n      sstore\n      jump(tag_254)\n    tag_255:\n      dup3\n      0x1f\n      lt\n      tag_256\n      jumpi\n      dup1\n      mload\n      not(0xff)\n      and\n      dup4\n      dup1\n      add\n      or\n      dup6\n      sstore\n      jump(tag_254)\n    tag_256:\n      dup3\n      dup1\n      add\n      0x01\n      add\n      dup6\n      sstore\n      dup3\n      iszero\n      tag_254\n      jumpi\n      swap2\n      dup3\n      add\n    tag_257:\n      dup3\n      dup2\n      gt\n      iszero\n      tag_258\n      jumpi\n      dup3\n      mload\n      dup3\n      sstore\n      swap2\n      0x20\n      add\n      swap2\n      swap1\n      0x01\n      add\n      swap1\n      jump(tag_257)\n    tag_258:\n    tag_254:\n      pop\n      swap1\n      pop\n      tag_259\n      swap2\n      swap1\n      tag_260\n      jump\t// in\n    tag_259:\n      pop\n      swap1\n      jump\t// out\n    tag_159:\n      mload(0x40)\n      dup1\n      0xa0\n      add\n      0x40\n      mstore\n      dup1\n      0x60\n      dup2\n      mstore\n      0x20\n      add\n      0x60\n      dup2\n      mstore\n      0x20\n      add\n      and(0xffffffffffffffffffffffffffffffffffffffff, 0x00)\n      dup2\n      mstore\n      0x20\n      add\n      0x60\n      dup2\n      mstore\n      0x20\n      add\n      iszero(iszero(0x00))\n      dup2\n      mstore\n      pop\n      swap1\n      jump\t// out\n    tag_193:\n      dup3\n      dup1\n      sload\n      tag_261\n      swap1\n      tag_115\n      jump\t// in\n    tag_261:\n      swap1\n      0x00\n      mstore\n      keccak256(0x00, 0x20)\n      swap1\n      0x1f\n      add\n      0x20\n      swap1\n      div\n      dup2\n      add\n      swap3\n      dup3\n      tag_263\n      jumpi\n      0x00\n      dup6\n      sstore\n      jump(tag_262)\n    tag_263:\n      dup3\n      0x1f\n      lt\n      tag_264\n      jumpi\n      dup1\n      sload\n      dup6\n      sstore\n      jump(tag_262)\n    tag_264:\n      dup3\n      dup1\n      add\n      0x01\n      add\n      dup6\n      sstore\n      dup3\n      iszero\n      tag_262\n      jumpi\n      0x00\n      mstore\n      keccak256(0x00, 0x20)\n      swap2\n      0x1f\n      add\n      0x20\n      swap1\n      div\n      dup3\n      add\n    tag_265:\n      dup3\n      dup2\n      gt\n      iszero\n      tag_266\n      jumpi\n      dup3\n      sload\n      dup3\n      sstore\n      swap2\n      0x01\n      add\n      swap2\n      swap1\n      0x01\n      add\n      swap1\n      jump(tag_265)\n    tag_266:\n    tag_262:\n      pop\n      swap1\n      pop\n      tag_267\n      swap2\n      swap1\n      tag_260\n      jump\t// in\n    tag_267:\n      pop\n      swap1\n      jump\t// out\n    tag_260:\n    tag_268:\n      dup1\n      dup3\n      gt\n      iszero\n      tag_269\n      jumpi\n      0x00\n      dup2\n      0x00\n      swap1\n      sstore\n      pop\n      0x01\n      add\n      jump(tag_268)\n    tag_269:\n      pop\n      swap1\n      jump\t// out\n        /* \"#utility.yul\":7:133   */\n    tag_270:\n        /* \"#utility.yul\":44:51   */\n      0x00\n        /* \"#utility.yul\":84:126   */\n      0xffffffffffffffffffffffffffffffffffffffff\n        /* \"#utility.yul\":77:82   */\n      dup3\n        /* \"#utility.yul\":73:127   */\n      and\n        /* \"#utility.yul\":62:127   */\n      swap1\n      pop\n        /* \"#utility.yul\":7:133   */\n      swap2\n      swap1\n      pop\n      jump\t// out\n        /* \"#utility.yul\":139:235   */\n    tag_271:\n        /* \"#utility.yul\":176:183   */\n      0x00\n        /* \"#utility.yul\":205:229   */\n      tag_322\n        /* \"#utility.yul\":223:228   */\n      dup3\n        /* \"#utility.yul\":205:229   */\n      tag_270\n      jump\t// in\n    tag_322:\n        /* \"#utility.yul\":194:229   */\n      swap1\n      pop\n        /* \"#utility.yul\":139:235   */\n      swap2\n      swap1\n      pop\n      jump\t// out\n        /* \"#utility.yul\":241:359   */\n    tag_272:\n        /* \"#utility.yul\":328:352   */\n      tag_324\n        /* \"#utility.yul\":346:351   */\n      dup2\n        /* \"#utility.yul\":328:352   */\n      tag_271\n      jump\t// in\n    tag_324:\n        /* \"#utility.yul\":323:326   */\n      dup3\n        /* \"#utility.yul\":316:353   */\n      mstore\n        /* \"#utility.yul\":241:359   */\n      pop\n      pop\n      jump\t// out\n        /* \"#utility.yul\":365:587   */\n    tag_27:\n        /* \"#utility.yul\":458:462   */\n      0x00\n        /* \"#utility.yul\":496:498   */\n      0x20\n        /* \"#utility.yul\":485:494   */\n      dup3\n        /* \"#utility.yul\":481:499   */\n      add\n        /* \"#utility.yul\":473:499   */\n      swap1\n      pop\n        /* \"#utility.yul\":509:580   */\n      tag_326\n        /* \"#utility.yul\":577:578   */\n      0x00\n        /* \"#utility.yul\":566:575   */\n      dup4\n        /* \"#utility.yul\":562:579   */\n      add\n        /* \"#utility.yul\":553:559   */\n      dup5\n        /* \"#utility.yul\":509:580   */\n      tag_272\n      jump\t// in\n    tag_326:\n        /* \"#utility.yul\":365:587   */\n      swap3\n      swap2\n      pop\n      pop\n      jump\t// out\n        /* \"#utility.yul\":593:668   */\n    tag_273:\n        /* \"#utility.yul\":626:632   */\n      0x00\n        /* \"#utility.yul\":659:661   */\n      0x40\n        /* \"#utility.yul\":653:662   */\n      mload\n        /* \"#utility.yul\":643:662   */\n      swap1\n      pop\n        /* \"#utility.yul\":593:668   */\n      swap1\n      jump\t// out\n        /* \"#utility.yul\":674:791   */\n    tag_274:\n        /* \"#utility.yul\":783:784   */\n      0x00\n        /* \"#utility.yul\":780:781   */\n      dup1\n        /* \"#utility.yul\":773:785   */\n      revert\n        /* \"#utility.yul\":797:914   */\n    tag_275:\n        /* \"#utility.yul\":906:907   */\n      0x00\n        /* \"#utility.yul\":903:904   */\n      dup1\n        /* \"#utility.yul\":896:908   */\n      revert\n        /* \"#utility.yul\":920:997   */\n    tag_276:\n        /* \"#utility.yul\":957:964   */\n      0x00\n        /* \"#utility.yul\":986:991   */\n      dup2\n        /* \"#utility.yul\":975:991   */\n      swap1\n      pop\n        /* \"#utility.yul\":920:997   */\n      swap2\n      swap1\n      pop\n      jump\t// out\n        /* \"#utility.yul\":1003:1125   */\n    tag_277:\n        /* \"#utility.yul\":1076:1100   */\n      tag_332\n        /* \"#utility.yul\":1094:1099   */\n      dup2\n        /* \"#utility.yul\":1076:1100   */\n      tag_276\n      jump\t// in\n    tag_332:\n        /* \"#utility.yul\":1069:1074   */\n      dup2\n        /* \"#utility.yul\":1066:1101   */\n      eq\n        /* \"#utility.yul\":1056:1119   */\n      tag_333\n      jumpi\n        /* \"#utility.yul\":1115:1116   */\n      0x00\n        /* \"#utility.yul\":1112:1113   */\n      dup1\n        /* \"#utility.yul\":1105:1117   */\n      revert\n        /* \"#utility.yul\":1056:1119   */\n    tag_333:\n        /* \"#utility.yul\":1003:1125   */\n      pop\n      jump\t// out\n        /* \"#utility.yul\":1131:1270   */\n    tag_278:\n        /* \"#utility.yul\":1177:1182   */\n      0x00\n        /* \"#utility.yul\":1215:1221   */\n      dup2\n        /* \"#utility.yul\":1202:1222   */\n      calldataload\n        /* \"#utility.yul\":1193:1222   */\n      swap1\n      pop\n        /* \"#utility.yul\":1231:1264   */\n      tag_335\n        /* \"#utility.yul\":1258:1263   */\n      dup2\n        /* \"#utility.yul\":1231:1264   */\n      tag_277\n      jump\t// in\n    tag_335:\n        /* \"#utility.yul\":1131:1270   */\n      swap3\n      swap2\n      pop\n      pop\n      jump\t// out\n        /* \"#utility.yul\":1276:1605   */\n    tag_30:\n        /* \"#utility.yul\":1335:1341   */\n      0x00\n        /* \"#utility.yul\":1384:1386   */\n      0x20\n        /* \"#utility.yul\":1372:1381   */\n      dup3\n        /* \"#utility.yul\":1363:1370   */\n      dup5\n        /* \"#utility.yul\":1359:1382   */\n      sub\n        /* \"#utility.yul\":1355:1387   */\n      slt\n        /* \"#utility.yul\":1352:1471   */\n      iszero\n      tag_337\n      jumpi\n        /* \"#utility.yul\":1390:1469   */\n      tag_338\n      tag_274\n      jump\t// in\n    tag_338:\n        /* \"#utility.yul\":1352:1471   */\n    tag_337:\n        /* \"#utility.yul\":1510:1511   */\n      0x00\n        /* \"#utility.yul\":1535:1588   */\n      tag_339\n        /* \"#utility.yul\":1580:1587   */\n      dup5\n        /* \"#utility.yul\":1571:1577   */\n      dup3\n        /* \"#utility.yul\":1560:1569   */\n      dup6\n        /* \"#utility.yul\":1556:1578   */\n      add\n        /* \"#utility.yul\":1535:1588   */\n      tag_278\n      jump\t// in\n    tag_339:\n        /* \"#utility.yul\":1525:1588   */\n      swap2\n      pop\n        /* \"#utility.yul\":1481:1598   */\n      pop\n        /* \"#utility.yul\":1276:1605   */\n      swap3\n      swap2\n      pop\n      pop\n      jump\t// out\n        /* \"#utility.yul\":1611:1728   */\n    tag_279:\n        /* \"#utility.yul\":1720:1721   */\n      0x00\n        /* \"#utility.yul\":1717:1718   */\n      dup1\n        /* \"#utility.yul\":1710:1722   */\n      revert\n        /* \"#utility.yul\":1734:1851   */\n    tag_280:\n        /* \"#utility.yul\":1843:1844   */\n      0x00\n        /* \"#utility.yul\":1840:1841   */\n      dup1\n        /* \"#utility.yul\":1833:1845   */\n      revert\n        /* \"#utility.yul\":1857:1959   */\n    tag_281:\n        /* \"#utility.yul\":1898:1904   */\n      0x00\n        /* \"#utility.yul\":1949:1951   */\n      0x1f\n        /* \"#utility.yul\":1945:1952   */\n      not\n        /* \"#utility.yul\":1940:1942   */\n      0x1f\n        /* \"#utility.yul\":1933:1938   */\n      dup4\n        /* \"#utility.yul\":1929:1943   */\n      add\n        /* \"#utility.yul\":1925:1953   */\n      and\n        /* \"#utility.yul\":1915:1953   */\n      swap1\n      pop\n        /* \"#utility.yul\":1857:1959   */\n      swap2\n      swap1\n      pop\n      jump\t// out\n        /* \"#utility.yul\":1965:2145   */\n    tag_282:\n        /* \"#utility.yul\":2013:2090   */\n      0x4e487b7100000000000000000000000000000000000000000000000000000000\n        /* \"#utility.yul\":2010:2011   */\n      0x00\n        /* \"#utility.yul\":2003:2091   */\n      mstore\n        /* \"#utility.yul\":2110:2114   */\n      0x41\n        /* \"#utility.yul\":2107:2108   */\n      0x04\n        /* \"#utility.yul\":2100:2115   */\n      mstore\n        /* \"#utility.yul\":2134:2138   */\n      0x24\n        /* \"#utility.yul\":2131:2132   */\n      0x00\n        /* \"#utility.yul\":2124:2139   */\n      revert\n        /* \"#utility.yul\":2151:2432   */\n    tag_283:\n        /* \"#utility.yul\":2234:2261   */\n      tag_345\n        /* \"#utility.yul\":2256:2260   */\n      dup3\n        /* \"#utility.yul\":2234:2261   */\n      tag_281\n      jump\t// in\n    tag_345:\n        /* \"#utility.yul\":2226:2232   */\n      dup2\n        /* \"#utility.yul\":2222:2262   */\n      add\n        /* \"#utility.yul\":2364:2370   */\n      dup2\n        /* \"#utility.yul\":2352:2362   */\n      dup2\n        /* \"#utility.yul\":2349:2371   */\n      lt\n        /* \"#utility.yul\":2328:2346   */\n      0xffffffffffffffff\n        /* \"#utility.yul\":2316:2326   */\n      dup3\n        /* \"#utility.yul\":2313:2347   */\n      gt\n        /* \"#utility.yul\":2310:2372   */\n      or\n        /* \"#utility.yul\":2307:2395   */\n      iszero\n      tag_346\n      jumpi\n        /* \"#utility.yul\":2375:2393   */\n      tag_347\n      tag_282\n      jump\t// in\n    tag_347:\n        /* \"#utility.yul\":2307:2395   */\n    tag_346:\n        /* \"#utility.yul\":2415:2425   */\n      dup1\n        /* \"#utility.yul\":2411:2413   */\n      0x40\n        /* \"#utility.yul\":2404:2426   */\n      mstore\n        /* \"#utility.yul\":2194:2432   */\n      pop\n        /* \"#utility.yul\":2151:2432   */\n      pop\n      pop\n      jump\t// out\n        /* \"#utility.yul\":2438:2567   */\n    tag_284:\n        /* \"#utility.yul\":2472:2478   */\n      0x00\n        /* \"#utility.yul\":2499:2519   */\n      tag_349\n      tag_273\n      jump\t// in\n    tag_349:\n        /* \"#utility.yul\":2489:2519   */\n      swap1\n      pop\n        /* \"#utility.yul\":2528:2561   */\n      tag_350\n        /* \"#utility.yul\":2556:2560   */\n      dup3\n        /* \"#utility.yul\":2548:2554   */\n      dup3\n        /* \"#utility.yul\":2528:2561   */\n      tag_283\n      jump\t// in\n    tag_350:\n        /* \"#utility.yul\":2438:2567   */\n      swap2\n      swap1\n      pop\n      jump\t// out\n        /* \"#utility.yul\":2573:2881   */\n    tag_285:\n        /* \"#utility.yul\":2635:2639   */\n      0x00\n        /* \"#utility.yul\":2725:2743   */\n      0xffffffffffffffff\n        /* \"#utility.yul\":2717:2723   */\n      dup3\n        /* \"#utility.yul\":2714:2744   */\n      gt\n        /* \"#utility.yul\":2711:2767   */\n      iszero\n      tag_352\n      jumpi\n        /* \"#utility.yul\":2747:2765   */\n      tag_353\n      tag_282\n      jump\t// in\n    tag_353:\n        /* \"#utility.yul\":2711:2767   */\n    tag_352:\n        /* \"#utility.yul\":2785:2814   */\n      tag_354\n        /* \"#utility.yul\":2807:2813   */\n      dup3\n        /* \"#utility.yul\":2785:2814   */\n      tag_281\n      jump\t// in\n    tag_354:\n        /* \"#utility.yul\":2777:2814   */\n      swap1\n      pop\n        /* \"#utility.yul\":2869:2873   */\n      0x20\n        /* \"#utility.yul\":2863:2867   */\n      dup2\n        /* \"#utility.yul\":2859:2874   */\n      add\n        /* \"#utility.yul\":2851:2874   */\n      swap1\n      pop\n        /* \"#utility.yul\":2573:2881   */\n      swap2\n      swap1\n      pop\n      jump\t// out\n        /* \"#utility.yul\":2887:3041   */\n    tag_286:\n        /* \"#utility.yul\":2971:2977   */\n      dup3\n        /* \"#utility.yul\":2966:2969   */\n      dup2\n        /* \"#utility.yul\":2961:2964   */\n      dup4\n        /* \"#utility.yul\":2948:2978   */\n      calldatacopy\n        /* \"#utility.yul\":3033:3034   */\n      0x00\n        /* \"#utility.yul\":3024:3030   */\n      dup4\n        /* \"#utility.yul\":3019:3022   */\n      dup4\n        /* \"#utility.yul\":3015:3031   */\n      add\n        /* \"#utility.yul\":3008:3035   */\n      mstore\n        /* \"#utility.yul\":2887:3041   */\n      pop\n      pop\n      pop\n      jump\t// out\n        /* \"#utility.yul\":3047:3459   */\n    tag_287:\n        /* \"#utility.yul\":3125:3130   */\n      0x00\n        /* \"#utility.yul\":3150:3216   */\n      tag_357\n        /* \"#utility.yul\":3166:3215   */\n      tag_358\n        /* \"#utility.yul\":3208:3214   */\n      dup5\n        /* \"#utility.yul\":3166:3215   */\n      tag_285\n      jump\t// in\n    tag_358:\n        /* \"#utility.yul\":3150:3216   */\n      tag_284\n      jump\t// in\n    tag_357:\n        /* \"#utility.yul\":3141:3216   */\n      swap1\n      pop\n        /* \"#utility.yul\":3239:3245   */\n      dup3\n        /* \"#utility.yul\":3232:3237   */\n      dup2\n        /* \"#utility.yul\":3225:3246   */\n      mstore\n        /* \"#utility.yul\":3277:3281   */\n      0x20\n        /* \"#utility.yul\":3270:3275   */\n      dup2\n        /* \"#utility.yul\":3266:3282   */\n      add\n        /* \"#utility.yul\":3315:3318   */\n      dup5\n        /* \"#utility.yul\":3306:3312   */\n      dup5\n        /* \"#utility.yul\":3301:3304   */\n      dup5\n        /* \"#utility.yul\":3297:3313   */\n      add\n        /* \"#utility.yul\":3294:3319   */\n      gt\n        /* \"#utility.yul\":3291:3403   */\n      iszero\n      tag_359\n      jumpi\n        /* \"#utility.yul\":3322:3401   */\n      tag_360\n      tag_280\n      jump\t// in\n    tag_360:\n        /* \"#utility.yul\":3291:3403   */\n    tag_359:\n        /* \"#utility.yul\":3412:3453   */\n      tag_361\n        /* \"#utility.yul\":3446:3452   */\n      dup5\n        /* \"#utility.yul\":3441:3444   */\n      dup3\n        /* \"#utility.yul\":3436:3439   */\n      dup6\n        /* \"#utility.yul\":3412:3453   */\n      tag_286\n      jump\t// in\n    tag_361:\n        /* \"#utility.yul\":3131:3459   */\n      pop\n        /* \"#utility.yul\":3047:3459   */\n      swap4\n      swap3\n      pop\n      pop\n      pop\n      jump\t// out\n        /* \"#utility.yul\":3479:3819   */\n    tag_288:\n        /* \"#utility.yul\":3535:3540   */\n      0x00\n        /* \"#utility.yul\":3584:3587   */\n      dup3\n        /* \"#utility.yul\":3577:3581   */\n      0x1f\n        /* \"#utility.yul\":3569:3575   */\n      dup4\n        /* \"#utility.yul\":3565:3582   */\n      add\n        /* \"#utility.yul\":3561:3588   */\n      slt\n        /* \"#utility.yul\":3551:3673   */\n      tag_363\n      jumpi\n        /* \"#utility.yul\":3592:3671   */\n      tag_364\n      tag_279\n      jump\t// in\n    tag_364:\n        /* \"#utility.yul\":3551:3673   */\n    tag_363:\n        /* \"#utility.yul\":3709:3715   */\n      dup2\n        /* \"#utility.yul\":3696:3716   */\n      calldataload\n        /* \"#utility.yul\":3734:3813   */\n      tag_365\n        /* \"#utility.yul\":3809:3812   */\n      dup5\n        /* \"#utility.yul\":3801:3807   */\n      dup3\n        /* \"#utility.yul\":3794:3798   */\n      0x20\n        /* \"#utility.yul\":3786:3792   */\n      dup7\n        /* \"#utility.yul\":3782:3799   */\n      add\n        /* \"#utility.yul\":3734:3813   */\n      tag_287\n      jump\t// in\n    tag_365:\n        /* \"#utility.yul\":3725:3813   */\n      swap2\n      pop\n        /* \"#utility.yul\":3541:3819   */\n      pop\n        /* \"#utility.yul\":3479:3819   */\n      swap3\n      swap2\n      pop\n      pop\n      jump\t// out\n        /* \"#utility.yul\":3825:3947   */\n    tag_289:\n        /* \"#utility.yul\":3898:3922   */\n      tag_367\n        /* \"#utility.yul\":3916:3921   */\n      dup2\n        /* \"#utility.yul\":3898:3922   */\n      tag_271\n      jump\t// in\n    tag_367:\n        /* \"#utility.yul\":3891:3896   */\n      dup2\n        /* \"#utility.yul\":3888:3923   */\n      eq\n        /* \"#utility.yul\":3878:3941   */\n      tag_368\n      jumpi\n        /* \"#utility.yul\":3937:3938   */\n      0x00\n        /* \"#utility.yul\":3934:3935   */\n      dup1\n        /* \"#utility.yul\":3927:3939   */\n      revert\n        /* \"#utility.yul\":3878:3941   */\n    tag_368:\n        /* \"#utility.yul\":3825:3947   */\n      pop\n      jump\t// out\n        /* \"#utility.yul\":3953:4092   */\n    tag_290:\n        /* \"#utility.yul\":3999:4004   */\n      0x00\n        /* \"#utility.yul\":4037:4043   */\n      dup2\n        /* \"#utility.yul\":4024:4044   */\n      calldataload\n        /* \"#utility.yul\":4015:4044   */\n      swap1\n      pop\n        /* \"#utility.yul\":4053:4086   */\n      tag_370\n        /* \"#utility.yul\":4080:4085   */\n      dup2\n        /* \"#utility.yul\":4053:4086   */\n      tag_289\n      jump\t// in\n    tag_370:\n        /* \"#utility.yul\":3953:4092   */\n      swap3\n      swap2\n      pop\n      pop\n      jump\t// out\n        /* \"#utility.yul\":4098:5403   */\n    tag_35:\n        /* \"#utility.yul\":4214:4220   */\n      0x00\n        /* \"#utility.yul\":4222:4228   */\n      dup1\n        /* \"#utility.yul\":4230:4236   */\n      0x00\n        /* \"#utility.yul\":4238:4244   */\n      dup1\n        /* \"#utility.yul\":4287:4290   */\n      0x80\n        /* \"#utility.yul\":4275:4284   */\n      dup6\n        /* \"#utility.yul\":4266:4273   */\n      dup8\n        /* \"#utility.yul\":4262:4285   */\n      sub\n        /* \"#utility.yul\":4258:4291   */\n      slt\n        /* \"#utility.yul\":4255:4375   */\n      iszero\n      tag_372\n      jumpi\n        /* \"#utility.yul\":4294:4373   */\n      tag_373\n      tag_274\n      jump\t// in\n    tag_373:\n        /* \"#utility.yul\":4255:4375   */\n    tag_372:\n        /* \"#utility.yul\":4442:4443   */\n      0x00\n        /* \"#utility.yul\":4431:4440   */\n      dup6\n        /* \"#utility.yul\":4427:4444   */\n      add\n        /* \"#utility.yul\":4414:4445   */\n      calldataload\n        /* \"#utility.yul\":4472:4490   */\n      0xffffffffffffffff\n        /* \"#utility.yul\":4464:4470   */\n      dup2\n        /* \"#utility.yul\":4461:4491   */\n      gt\n        /* \"#utility.yul\":4458:4575   */\n      iszero\n      tag_374\n      jumpi\n        /* \"#utility.yul\":4494:4573   */\n      tag_375\n      tag_275\n      jump\t// in\n    tag_375:\n        /* \"#utility.yul\":4458:4575   */\n    tag_374:\n        /* \"#utility.yul\":4599:4662   */\n      tag_376\n        /* \"#utility.yul\":4654:4661   */\n      dup8\n        /* \"#utility.yul\":4645:4651   */\n      dup3\n        /* \"#utility.yul\":4634:4643   */\n      dup9\n        /* \"#utility.yul\":4630:4652   */\n      add\n        /* \"#utility.yul\":4599:4662   */\n      tag_288\n      jump\t// in\n    tag_376:\n        /* \"#utility.yul\":4589:4662   */\n      swap5\n      pop\n        /* \"#utility.yul\":4385:4672   */\n      pop\n        /* \"#utility.yul\":4739:4741   */\n      0x20\n        /* \"#utility.yul\":4728:4737   */\n      dup6\n        /* \"#utility.yul\":4724:4742   */\n      add\n        /* \"#utility.yul\":4711:4743   */\n      calldataload\n        /* \"#utility.yul\":4770:4788   */\n      0xffffffffffffffff\n        /* \"#utility.yul\":4762:4768   */\n      dup2\n        /* \"#utility.yul\":4759:4789   */\n      gt\n        /* \"#utility.yul\":4756:4873   */\n      iszero\n      tag_377\n      jumpi\n        /* \"#utility.yul\":4792:4871   */\n      tag_378\n      tag_275\n      jump\t// in\n    tag_378:\n        /* \"#utility.yul\":4756:4873   */\n    tag_377:\n        /* \"#utility.yul\":4897:4960   */\n      tag_379\n        /* \"#utility.yul\":4952:4959   */\n      dup8\n        /* \"#utility.yul\":4943:4949   */\n      dup3\n        /* \"#utility.yul\":4932:4941   */\n      dup9\n        /* \"#utility.yul\":4928:4950   */\n      add\n        /* \"#utility.yul\":4897:4960   */\n      tag_288\n      jump\t// in\n    tag_379:\n        /* \"#utility.yul\":4887:4960   */\n      swap4\n      pop\n        /* \"#utility.yul\":4682:4970   */\n      pop\n        /* \"#utility.yul\":5037:5039   */\n      0x40\n        /* \"#utility.yul\":5026:5035   */\n      dup6\n        /* \"#utility.yul\":5022:5040   */\n      add\n        /* \"#utility.yul\":5009:5041   */\n      calldataload\n        /* \"#utility.yul\":5068:5086   */\n      0xffffffffffffffff\n        /* \"#utility.yul\":5060:5066   */\n      dup2\n        /* \"#utility.yul\":5057:5087   */\n      gt\n        /* \"#utility.yul\":5054:5171   */\n      iszero\n      tag_380\n      jumpi\n        /* \"#utility.yul\":5090:5169   */\n      tag_381\n      tag_275\n      jump\t// in\n    tag_381:\n        /* \"#utility.yul\":5054:5171   */\n    tag_380:\n        /* \"#utility.yul\":5195:5258   */\n      tag_382\n        /* \"#utility.yul\":5250:5257   */\n      dup8\n        /* \"#utility.yul\":5241:5247   */\n      dup3\n        /* \"#utility.yul\":5230:5239   */\n      dup9\n        /* \"#utility.yul\":5226:5248   */\n      add\n        /* \"#utility.yul\":5195:5258   */\n      tag_288\n      jump\t// in\n    tag_382:\n        /* \"#utility.yul\":5185:5258   */\n      swap3\n      pop\n        /* \"#utility.yul\":4980:5268   */\n      pop\n        /* \"#utility.yul\":5307:5309   */\n      0x60\n        /* \"#utility.yul\":5333:5386   */\n      tag_383\n        /* \"#utility.yul\":5378:5385   */\n      dup8\n        /* \"#utility.yul\":5369:5375   */\n      dup3\n        /* \"#utility.yul\":5358:5367   */\n      dup9\n        /* \"#utility.yul\":5354:5376   */\n      add\n        /* \"#utility.yul\":5333:5386   */\n      tag_290\n      jump\t// in\n    tag_383:\n        /* \"#utility.yul\":5323:5386   */\n      swap2\n      pop\n        /* \"#utility.yul\":5278:5396   */\n      pop\n        /* \"#utility.yul\":4098:5403   */\n      swap3\n      swap6\n      swap2\n      swap5\n      pop\n      swap3\n      pop\n      jump\t// out\n        /* \"#utility.yul\":5409:5533   */\n    tag_291:\n        /* \"#utility.yul\":5486:5492   */\n      0x00\n        /* \"#utility.yul\":5520:5525   */\n      dup2\n        /* \"#utility.yul\":5514:5526   */\n      mload\n        /* \"#utility.yul\":5504:5526   */\n      swap1\n      pop\n        /* \"#utility.yul\":5409:5533   */\n      swap2\n      swap1\n      pop\n      jump\t// out\n        /* \"#utility.yul\":5539:5733   */\n    tag_292:\n        /* \"#utility.yul\":5648:5659   */\n      0x00\n        /* \"#utility.yul\":5682:5688   */\n      dup3\n        /* \"#utility.yul\":5677:5680   */\n      dup3\n        /* \"#utility.yul\":5670:5689   */\n      mstore\n        /* \"#utility.yul\":5722:5726   */\n      0x20\n        /* \"#utility.yul\":5717:5720   */\n      dup3\n        /* \"#utility.yul\":5713:5727   */\n      add\n        /* \"#utility.yul\":5698:5727   */\n      swap1\n      pop\n        /* \"#utility.yul\":5539:5733   */\n      swap3\n      swap2\n      pop\n      pop\n      jump\t// out\n        /* \"#utility.yul\":5739:5881   */\n    tag_293:\n        /* \"#utility.yul\":5816:5820   */\n      0x00\n        /* \"#utility.yul\":5839:5842   */\n      dup2\n        /* \"#utility.yul\":5831:5842   */\n      swap1\n      pop\n        /* \"#utility.yul\":5869:5873   */\n      0x20\n        /* \"#utility.yul\":5864:5867   */\n      dup3\n        /* \"#utility.yul\":5860:5874   */\n      add\n        /* \"#utility.yul\":5852:5874   */\n      swap1\n      pop\n        /* \"#utility.yul\":5739:5881   */\n      swap2\n      swap1\n      pop\n      jump\t// out\n        /* \"#utility.yul\":5887:5986   */\n    tag_294:\n        /* \"#utility.yul\":5939:5945   */\n      0x00\n        /* \"#utility.yul\":5973:5978   */\n      dup2\n        /* \"#utility.yul\":5967:5979   */\n      mload\n        /* \"#utility.yul\":5957:5979   */\n      swap1\n      pop\n        /* \"#utility.yul\":5887:5986   */\n      swap2\n      swap1\n      pop\n      jump\t// out\n        /* \"#utility.yul\":5992:6151   */\n    tag_295:\n        /* \"#utility.yul\":6066:6077   */\n      0x00\n        /* \"#utility.yul\":6100:6106   */\n      dup3\n        /* \"#utility.yul\":6095:6098   */\n      dup3\n        /* \"#utility.yul\":6088:6107   */\n      mstore\n        /* \"#utility.yul\":6140:6144   */\n      0x20\n        /* \"#utility.yul\":6135:6138   */\n      dup3\n        /* \"#utility.yul\":6131:6145   */\n      add\n        /* \"#utility.yul\":6116:6145   */\n      swap1\n      pop\n        /* \"#utility.yul\":5992:6151   */\n      swap3\n      swap2\n      pop\n      pop\n      jump\t// out\n        /* \"#utility.yul\":6157:6464   */\n    tag_296:\n        /* \"#utility.yul\":6225:6226   */\n      0x00\n        /* \"#utility.yul\":6235:6348   */\n    tag_390:\n        /* \"#utility.yul\":6249:6255   */\n      dup4\n        /* \"#utility.yul\":6246:6247   */\n      dup2\n        /* \"#utility.yul\":6243:6256   */\n      lt\n        /* \"#utility.yul\":6235:6348   */\n      iszero\n      tag_392\n      jumpi\n        /* \"#utility.yul\":6334:6335   */\n      dup1\n        /* \"#utility.yul\":6329:6332   */\n      dup3\n        /* \"#utility.yul\":6325:6336   */\n      add\n        /* \"#utility.yul\":6319:6337   */\n      mload\n        /* \"#utility.yul\":6315:6316   */\n      dup2\n        /* \"#utility.yul\":6310:6313   */\n      dup5\n        /* \"#utility.yul\":6306:6317   */\n      add\n        /* \"#utility.yul\":6299:6338   */\n      mstore\n        /* \"#utility.yul\":6271:6273   */\n      0x20\n        /* \"#utility.yul\":6268:6269   */\n      dup2\n        /* \"#utility.yul\":6264:6274   */\n      add\n        /* \"#utility.yul\":6259:6274   */\n      swap1\n      pop\n        /* \"#utility.yul\":6235:6348   */\n      jump(tag_390)\n    tag_392:\n        /* \"#utility.yul\":6366:6372   */\n      dup4\n        /* \"#utility.yul\":6363:6364   */\n      dup2\n        /* \"#utility.yul\":6360:6373   */\n      gt\n        /* \"#utility.yul\":6357:6458   */\n      iszero\n      tag_393\n      jumpi\n        /* \"#utility.yul\":6446:6447   */\n      0x00\n        /* \"#utility.yul\":6437:6443   */\n      dup5\n        /* \"#utility.yul\":6432:6435   */\n      dup5\n        /* \"#utility.yul\":6428:6444   */\n      add\n        /* \"#utility.yul\":6421:6448   */\n      mstore\n        /* \"#utility.yul\":6357:6458   */\n    tag_393:\n        /* \"#utility.yul\":6206:6464   */\n      pop\n        /* \"#utility.yul\":6157:6464   */\n      pop\n      pop\n      pop\n      jump\t// out\n        /* \"#utility.yul\":6470:6814   */\n    tag_297:\n        /* \"#utility.yul\":6548:6551   */\n      0x00\n        /* \"#utility.yul\":6576:6615   */\n      tag_395\n        /* \"#utility.yul\":6609:6614   */\n      dup3\n        /* \"#utility.yul\":6576:6615   */\n      tag_294\n      jump\t// in\n    tag_395:\n        /* \"#utility.yul\":6631:6692   */\n      tag_396\n        /* \"#utility.yul\":6685:6691   */\n      dup2\n        /* \"#utility.yul\":6680:6683   */\n      dup6\n        /* \"#utility.yul\":6631:6692   */\n      tag_295\n      jump\t// in\n    tag_396:\n        /* \"#utility.yul\":6624:6692   */\n      swap4\n      pop\n        /* \"#utility.yul\":6701:6753   */\n      tag_397\n        /* \"#utility.yul\":6746:6752   */\n      dup2\n        /* \"#utility.yul\":6741:6744   */\n      dup6\n        /* \"#utility.yul\":6734:6738   */\n      0x20\n        /* \"#utility.yul\":6727:6732   */\n      dup7\n        /* \"#utility.yul\":6723:6739   */\n      add\n        /* \"#utility.yul\":6701:6753   */\n      tag_296\n      jump\t// in\n    tag_397:\n        /* \"#utility.yul\":6778:6807   */\n      tag_398\n        /* \"#utility.yul\":6800:6806   */\n      dup2\n        /* \"#utility.yul\":6778:6807   */\n      tag_281\n      jump\t// in\n    tag_398:\n        /* \"#utility.yul\":6773:6776   */\n      dup5\n        /* \"#utility.yul\":6769:6808   */\n      add\n        /* \"#utility.yul\":6762:6808   */\n      swap2\n      pop\n        /* \"#utility.yul\":6552:6814   */\n      pop\n        /* \"#utility.yul\":6470:6814   */\n      swap3\n      swap2\n      pop\n      pop\n      jump\t// out\n        /* \"#utility.yul\":6820:7016   */\n    tag_298:\n        /* \"#utility.yul\":6909:6919   */\n      0x00\n        /* \"#utility.yul\":6944:7010   */\n      tag_400\n        /* \"#utility.yul\":7006:7009   */\n      dup4\n        /* \"#utility.yul\":6998:7004   */\n      dup4\n        /* \"#utility.yul\":6944:7010   */\n      tag_297\n      jump\t// in\n    tag_400:\n        /* \"#utility.yul\":6930:7010   */\n      swap1\n      pop\n        /* \"#utility.yul\":6820:7016   */\n      swap3\n      swap2\n      pop\n      pop\n      jump\t// out\n        /* \"#utility.yul\":7022:7145   */\n    tag_299:\n        /* \"#utility.yul\":7102:7106   */\n      0x00\n        /* \"#utility.yul\":7134:7138   */\n      0x20\n        /* \"#utility.yul\":7129:7132   */\n      dup3\n        /* \"#utility.yul\":7125:7139   */\n      add\n        /* \"#utility.yul\":7117:7139   */\n      swap1\n      pop\n        /* \"#utility.yul\":7022:7145   */\n      swap2\n      swap1\n      pop\n      jump\t// out\n        /* \"#utility.yul\":7179:8170   */\n    tag_300:\n        /* \"#utility.yul\":7318:7321   */\n      0x00\n        /* \"#utility.yul\":7347:7411   */\n      tag_403\n        /* \"#utility.yul\":7405:7410   */\n      dup3\n        /* \"#utility.yul\":7347:7411   */\n      tag_291\n      jump\t// in\n    tag_403:\n        /* \"#utility.yul\":7427:7523   */\n      tag_404\n        /* \"#utility.yul\":7516:7522   */\n      dup2\n        /* \"#utility.yul\":7511:7514   */\n      dup6\n        /* \"#utility.yul\":7427:7523   */\n      tag_292\n      jump\t// in\n    tag_404:\n        /* \"#utility.yul\":7420:7523   */\n      swap4\n      pop\n        /* \"#utility.yul\":7549:7552   */\n      dup4\n        /* \"#utility.yul\":7594:7598   */\n      0x20\n        /* \"#utility.yul\":7586:7592   */\n      dup3\n        /* \"#utility.yul\":7582:7599   */\n      mul\n        /* \"#utility.yul\":7577:7580   */\n      dup6\n        /* \"#utility.yul\":7573:7600   */\n      add\n        /* \"#utility.yul\":7624:7690   */\n      tag_405\n        /* \"#utility.yul\":7684:7689   */\n      dup6\n        /* \"#utility.yul\":7624:7690   */\n      tag_293\n      jump\t// in\n    tag_405:\n        /* \"#utility.yul\":7713:7720   */\n      dup1\n        /* \"#utility.yul\":7744:7745   */\n      0x00\n        /* \"#utility.yul\":7729:8125   */\n    tag_406:\n        /* \"#utility.yul\":7754:7760   */\n      dup6\n        /* \"#utility.yul\":7751:7752   */\n      dup2\n        /* \"#utility.yul\":7748:7761   */\n      lt\n        /* \"#utility.yul\":7729:8125   */\n      iszero\n      tag_408\n      jumpi\n        /* \"#utility.yul\":7825:7834   */\n      dup5\n        /* \"#utility.yul\":7819:7823   */\n      dup5\n        /* \"#utility.yul\":7815:7835   */\n      sub\n        /* \"#utility.yul\":7810:7813   */\n      dup10\n        /* \"#utility.yul\":7803:7836   */\n      mstore\n        /* \"#utility.yul\":7876:7882   */\n      dup2\n        /* \"#utility.yul\":7870:7883   */\n      mload\n        /* \"#utility.yul\":7904:7988   */\n      tag_409\n        /* \"#utility.yul\":7983:7987   */\n      dup6\n        /* \"#utility.yul\":7968:7981   */\n      dup3\n        /* \"#utility.yul\":7904:7988   */\n      tag_298\n      jump\t// in\n    tag_409:\n        /* \"#utility.yul\":7896:7988   */\n      swap5\n      pop\n        /* \"#utility.yul\":8011:8081   */\n      tag_410\n        /* \"#utility.yul\":8074:8080   */\n      dup4\n        /* \"#utility.yul\":8011:8081   */\n      tag_299\n      jump\t// in\n    tag_410:\n        /* \"#utility.yul\":8001:8081   */\n      swap3\n      pop\n        /* \"#utility.yul\":8110:8114   */\n      0x20\n        /* \"#utility.yul\":8105:8108   */\n      dup11\n        /* \"#utility.yul\":8101:8115   */\n      add\n        /* \"#utility.yul\":8094:8115   */\n      swap10\n      pop\n        /* \"#utility.yul\":7789:8125   */\n      pop\n        /* \"#utility.yul\":7776:7777   */\n      0x01\n        /* \"#utility.yul\":7773:7774   */\n      dup2\n        /* \"#utility.yul\":7769:7778   */\n      add\n        /* \"#utility.yul\":7764:7778   */\n      swap1\n      pop\n        /* \"#utility.yul\":7729:8125   */\n      jump(tag_406)\n    tag_408:\n        /* \"#utility.yul\":7733:7747   */\n      pop\n        /* \"#utility.yul\":8141:8145   */\n      dup3\n        /* \"#utility.yul\":8134:8145   */\n      swap8\n      pop\n        /* \"#utility.yul\":8161:8164   */\n      dup8\n        /* \"#utility.yul\":8154:8164   */\n      swap6\n      pop\n        /* \"#utility.yul\":7323:8170   */\n      pop\n      pop\n      pop\n      pop\n      pop\n        /* \"#utility.yul\":7179:8170   */\n      swap3\n      swap2\n      pop\n      pop\n      jump\t// out\n        /* \"#utility.yul\":8176:8589   */\n    tag_40:\n        /* \"#utility.yul\":8339:8343   */\n      0x00\n        /* \"#utility.yul\":8377:8379   */\n      0x20\n        /* \"#utility.yul\":8366:8375   */\n      dup3\n        /* \"#utility.yul\":8362:8380   */\n      add\n        /* \"#utility.yul\":8354:8380   */\n      swap1\n      pop\n        /* \"#utility.yul\":8426:8435   */\n      dup2\n        /* \"#utility.yul\":8420:8424   */\n      dup2\n        /* \"#utility.yul\":8416:8436   */\n      sub\n        /* \"#utility.yul\":8412:8413   */\n      0x00\n        /* \"#utility.yul\":8401:8410   */\n      dup4\n        /* \"#utility.yul\":8397:8414   */\n      add\n        /* \"#utility.yul\":8390:8437   */\n      mstore\n        /* \"#utility.yul\":8454:8582   */\n      tag_412\n        /* \"#utility.yul\":8577:8581   */\n      dup2\n        /* \"#utility.yul\":8568:8574   */\n      dup5\n        /* \"#utility.yul\":8454:8582   */\n      tag_300\n      jump\t// in\n    tag_412:\n        /* \"#utility.yul\":8446:8582   */\n      swap1\n      pop\n        /* \"#utility.yul\":8176:8589   */\n      swap3\n      swap2\n      pop\n      pop\n      jump\t// out\n        /* \"#utility.yul\":8595:8924   */\n    tag_43:\n        /* \"#utility.yul\":8654:8660   */\n      0x00\n        /* \"#utility.yul\":8703:8705   */\n      0x20\n        /* \"#utility.yul\":8691:8700   */\n      dup3\n        /* \"#utility.yul\":8682:8689   */\n      dup5\n        /* \"#utility.yul\":8678:8701   */\n      sub\n        /* \"#utility.yul\":8674:8706   */\n      slt\n        /* \"#utility.yul\":8671:8790   */\n      iszero\n      tag_414\n      jumpi\n        /* \"#utility.yul\":8709:8788   */\n      tag_415\n      tag_274\n      jump\t// in\n    tag_415:\n        /* \"#utility.yul\":8671:8790   */\n    tag_414:\n        /* \"#utility.yul\":8829:8830   */\n      0x00\n        /* \"#utility.yul\":8854:8907   */\n      tag_416\n        /* \"#utility.yul\":8899:8906   */\n      dup5\n        /* \"#utility.yul\":8890:8896   */\n      dup3\n        /* \"#utility.yul\":8879:8888   */\n      dup6\n        /* \"#utility.yul\":8875:8897   */\n      add\n        /* \"#utility.yul\":8854:8907   */\n      tag_290\n      jump\t// in\n    tag_416:\n        /* \"#utility.yul\":8844:8907   */\n      swap2\n      pop\n        /* \"#utility.yul\":8800:8917   */\n      pop\n        /* \"#utility.yul\":8595:8924   */\n      swap3\n      swap2\n      pop\n      pop\n      jump\t// out\n        /* \"#utility.yul\":8930:9048   */\n    tag_301:\n        /* \"#utility.yul\":9017:9041   */\n      tag_418\n        /* \"#utility.yul\":9035:9040   */\n      dup2\n        /* \"#utility.yul\":9017:9041   */\n      tag_276\n      jump\t// in\n    tag_418:\n        /* \"#utility.yul\":9012:9015   */\n      dup3\n        /* \"#utility.yul\":9005:9042   */\n      mstore\n        /* \"#utility.yul\":8930:9048   */\n      pop\n      pop\n      jump\t// out\n        /* \"#utility.yul\":9054:9276   */\n    tag_48:\n        /* \"#utility.yul\":9147:9151   */\n      0x00\n        /* \"#utility.yul\":9185:9187   */\n      0x20\n        /* \"#utility.yul\":9174:9183   */\n      dup3\n        /* \"#utility.yul\":9170:9188   */\n      add\n        /* \"#utility.yul\":9162:9188   */\n      swap1\n      pop\n        /* \"#utility.yul\":9198:9269   */\n      tag_420\n        /* \"#utility.yul\":9266:9267   */\n      0x00\n        /* \"#utility.yul\":9255:9264   */\n      dup4\n        /* \"#utility.yul\":9251:9268   */\n      add\n        /* \"#utility.yul\":9242:9248   */\n      dup5\n        /* \"#utility.yul\":9198:9269   */\n      tag_301\n      jump\t// in\n    tag_420:\n        /* \"#utility.yul\":9054:9276   */\n      swap3\n      swap2\n      pop\n      pop\n      jump\t// out\n        /* \"#utility.yul\":9282:9451   */\n    tag_302:\n        /* \"#utility.yul\":9366:9377   */\n      0x00\n        /* \"#utility.yul\":9400:9406   */\n      dup3\n        /* \"#utility.yul\":9395:9398   */\n      dup3\n        /* \"#utility.yul\":9388:9407   */\n      mstore\n        /* \"#utility.yul\":9440:9444   */\n      0x20\n        /* \"#utility.yul\":9435:9438   */\n      dup3\n        /* \"#utility.yul\":9431:9445   */\n      add\n        /* \"#utility.yul\":9416:9445   */\n      swap1\n      pop\n        /* \"#utility.yul\":9282:9451   */\n      swap3\n      swap2\n      pop\n      pop\n      jump\t// out\n        /* \"#utility.yul\":9457:9821   */\n    tag_303:\n        /* \"#utility.yul\":9545:9548   */\n      0x00\n        /* \"#utility.yul\":9573:9612   */\n      tag_423\n        /* \"#utility.yul\":9606:9611   */\n      dup3\n        /* \"#utility.yul\":9573:9612   */\n      tag_294\n      jump\t// in\n    tag_423:\n        /* \"#utility.yul\":9628:9699   */\n      tag_424\n        /* \"#utility.yul\":9692:9698   */\n      dup2\n        /* \"#utility.yul\":9687:9690   */\n      dup6\n        /* \"#utility.yul\":9628:9699   */\n      tag_302\n      jump\t// in\n    tag_424:\n        /* \"#utility.yul\":9621:9699   */\n      swap4\n      pop\n        /* \"#utility.yul\":9708:9760   */\n      tag_425\n        /* \"#utility.yul\":9753:9759   */\n      dup2\n        /* \"#utility.yul\":9748:9751   */\n      dup6\n        /* \"#utility.yul\":9741:9745   */\n      0x20\n        /* \"#utility.yul\":9734:9739   */\n      dup7\n        /* \"#utility.yul\":9730:9746   */\n      add\n        /* \"#utility.yul\":9708:9760   */\n      tag_296\n      jump\t// in\n    tag_425:\n        /* \"#utility.yul\":9785:9814   */\n      tag_426\n        /* \"#utility.yul\":9807:9813   */\n      dup2\n        /* \"#utility.yul\":9785:9814   */\n      tag_281\n      jump\t// in\n    tag_426:\n        /* \"#utility.yul\":9780:9783   */\n      dup5\n        /* \"#utility.yul\":9776:9815   */\n      add\n        /* \"#utility.yul\":9769:9815   */\n      swap2\n      pop\n        /* \"#utility.yul\":9549:9821   */\n      pop\n        /* \"#utility.yul\":9457:9821   */\n      swap3\n      swap2\n      pop\n      pop\n      jump\t// out\n        /* \"#utility.yul\":9827:10140   */\n    tag_53:\n        /* \"#utility.yul\":9940:9944   */\n      0x00\n        /* \"#utility.yul\":9978:9980   */\n      0x20\n        /* \"#utility.yul\":9967:9976   */\n      dup3\n        /* \"#utility.yul\":9963:9981   */\n      add\n        /* \"#utility.yul\":9955:9981   */\n      swap1\n      pop\n        /* \"#utility.yul\":10027:10036   */\n      dup2\n        /* \"#utility.yul\":10021:10025   */\n      dup2\n        /* \"#utility.yul\":10017:10037   */\n      sub\n        /* \"#utility.yul\":10013:10014   */\n      0x00\n        /* \"#utility.yul\":10002:10011   */\n      dup4\n        /* \"#utility.yul\":9998:10015   */\n      add\n        /* \"#utility.yul\":9991:10038   */\n      mstore\n        /* \"#utility.yul\":10055:10133   */\n      tag_428\n        /* \"#utility.yul\":10128:10132   */\n      dup2\n        /* \"#utility.yul\":10119:10125   */\n      dup5\n        /* \"#utility.yul\":10055:10133   */\n      tag_303\n      jump\t// in\n    tag_428:\n        /* \"#utility.yul\":10047:10133   */\n      swap1\n      pop\n        /* \"#utility.yul\":9827:10140   */\n      swap3\n      swap2\n      pop\n      pop\n      jump\t// out\n        /* \"#utility.yul\":10146:10236   */\n    tag_304:\n        /* \"#utility.yul\":10180:10187   */\n      0x00\n        /* \"#utility.yul\":10223:10228   */\n      dup2\n        /* \"#utility.yul\":10216:10229   */\n      iszero\n        /* \"#utility.yul\":10209:10230   */\n      iszero\n        /* \"#utility.yul\":10198:10230   */\n      swap1\n      pop\n        /* \"#utility.yul\":10146:10236   */\n      swap2\n      swap1\n      pop\n      jump\t// out\n        /* \"#utility.yul\":10242:10351   */\n    tag_305:\n        /* \"#utility.yul\":10323:10344   */\n      tag_431\n        /* \"#utility.yul\":10338:10343   */\n      dup2\n        /* \"#utility.yul\":10323:10344   */\n      tag_304\n      jump\t// in\n    tag_431:\n        /* \"#utility.yul\":10318:10321   */\n      dup3\n        /* \"#utility.yul\":10311:10345   */\n      mstore\n        /* \"#utility.yul\":10242:10351   */\n      pop\n      pop\n      jump\t// out\n        /* \"#utility.yul\":10357:11282   */\n    tag_61:\n        /* \"#utility.yul\":10616:10620   */\n      0x00\n        /* \"#utility.yul\":10654:10657   */\n      0xa0\n        /* \"#utility.yul\":10643:10652   */\n      dup3\n        /* \"#utility.yul\":10639:10658   */\n      add\n        /* \"#utility.yul\":10631:10658   */\n      swap1\n      pop\n        /* \"#utility.yul\":10704:10713   */\n      dup2\n        /* \"#utility.yul\":10698:10702   */\n      dup2\n        /* \"#utility.yul\":10694:10714   */\n      sub\n        /* \"#utility.yul\":10690:10691   */\n      0x00\n        /* \"#utility.yul\":10679:10688   */\n      dup4\n        /* \"#utility.yul\":10675:10692   */\n      add\n        /* \"#utility.yul\":10668:10715   */\n      mstore\n        /* \"#utility.yul\":10732:10810   */\n      tag_433\n        /* \"#utility.yul\":10805:10809   */\n      dup2\n        /* \"#utility.yul\":10796:10802   */\n      dup9\n        /* \"#utility.yul\":10732:10810   */\n      tag_303\n      jump\t// in\n    tag_433:\n        /* \"#utility.yul\":10724:10810   */\n      swap1\n      pop\n        /* \"#utility.yul\":10857:10866   */\n      dup2\n        /* \"#utility.yul\":10851:10855   */\n      dup2\n        /* \"#utility.yul\":10847:10867   */\n      sub\n        /* \"#utility.yul\":10842:10844   */\n      0x20\n        /* \"#utility.yul\":10831:10840   */\n      dup4\n        /* \"#utility.yul\":10827:10845   */\n      add\n        /* \"#utility.yul\":10820:10868   */\n      mstore\n        /* \"#utility.yul\":10885:10963   */\n      tag_434\n        /* \"#utility.yul\":10958:10962   */\n      dup2\n        /* \"#utility.yul\":10949:10955   */\n      dup8\n        /* \"#utility.yul\":10885:10963   */\n      tag_303\n      jump\t// in\n    tag_434:\n        /* \"#utility.yul\":10877:10963   */\n      swap1\n      pop\n        /* \"#utility.yul\":10973:11045   */\n      tag_435\n        /* \"#utility.yul\":11041:11043   */\n      0x40\n        /* \"#utility.yul\":11030:11039   */\n      dup4\n        /* \"#utility.yul\":11026:11044   */\n      add\n        /* \"#utility.yul\":11017:11023   */\n      dup7\n        /* \"#utility.yul\":10973:11045   */\n      tag_272\n      jump\t// in\n    tag_435:\n        /* \"#utility.yul\":11092:11101   */\n      dup2\n        /* \"#utility.yul\":11086:11090   */\n      dup2\n        /* \"#utility.yul\":11082:11102   */\n      sub\n        /* \"#utility.yul\":11077:11079   */\n      0x60\n        /* \"#utility.yul\":11066:11075   */\n      dup4\n        /* \"#utility.yul\":11062:11080   */\n      add\n        /* \"#utility.yul\":11055:11103   */\n      mstore\n        /* \"#utility.yul\":11120:11198   */\n      tag_436\n        /* \"#utility.yul\":11193:11197   */\n      dup2\n        /* \"#utility.yul\":11184:11190   */\n      dup6\n        /* \"#utility.yul\":11120:11198   */\n      tag_303\n      jump\t// in\n    tag_436:\n        /* \"#utility.yul\":11112:11198   */\n      swap1\n      pop\n        /* \"#utility.yul\":11208:11275   */\n      tag_437\n        /* \"#utility.yul\":11270:11273   */\n      0x80\n        /* \"#utility.yul\":11259:11268   */\n      dup4\n        /* \"#utility.yul\":11255:11274   */\n      add\n        /* \"#utility.yul\":11246:11252   */\n      dup5\n        /* \"#utility.yul\":11208:11275   */\n      tag_305\n      jump\t// in\n    tag_437:\n        /* \"#utility.yul\":10357:11282   */\n      swap7\n      swap6\n      pop\n      pop\n      pop\n      pop\n      pop\n      pop\n      jump\t// out\n        /* \"#utility.yul\":11288:11402   */\n    tag_306:\n        /* \"#utility.yul\":11355:11361   */\n      0x00\n        /* \"#utility.yul\":11389:11394   */\n      dup2\n        /* \"#utility.yul\":11383:11395   */\n      mload\n        /* \"#utility.yul\":11373:11395   */\n      swap1\n      pop\n        /* \"#utility.yul\":11288:11402   */\n      swap2\n      swap1\n      pop\n      jump\t// out\n        /* \"#utility.yul\":11408:11592   */\n    tag_307:\n        /* \"#utility.yul\":11507:11518   */\n      0x00\n        /* \"#utility.yul\":11541:11547   */\n      dup3\n        /* \"#utility.yul\":11536:11539   */\n      dup3\n        /* \"#utility.yul\":11529:11548   */\n      mstore\n        /* \"#utility.yul\":11581:11585   */\n      0x20\n        /* \"#utility.yul\":11576:11579   */\n      dup3\n        /* \"#utility.yul\":11572:11586   */\n      add\n        /* \"#utility.yul\":11557:11586   */\n      swap1\n      pop\n        /* \"#utility.yul\":11408:11592   */\n      swap3\n      swap2\n      pop\n      pop\n      jump\t// out\n        /* \"#utility.yul\":11598:11730   */\n    tag_308:\n        /* \"#utility.yul\":11665:11669   */\n      0x00\n        /* \"#utility.yul\":11688:11691   */\n      dup2\n        /* \"#utility.yul\":11680:11691   */\n      swap1\n      pop\n        /* \"#utility.yul\":11718:11722   */\n      0x20\n        /* \"#utility.yul\":11713:11716   */\n      dup3\n        /* \"#utility.yul\":11709:11723   */\n      add\n        /* \"#utility.yul\":11701:11723   */\n      swap1\n      pop\n        /* \"#utility.yul\":11598:11730   */\n      swap2\n      swap1\n      pop\n      jump\t// out\n        /* \"#utility.yul\":11736:11844   */\n    tag_309:\n        /* \"#utility.yul\":11813:11837   */\n      tag_442\n        /* \"#utility.yul\":11831:11836   */\n      dup2\n        /* \"#utility.yul\":11813:11837   */\n      tag_271\n      jump\t// in\n    tag_442:\n        /* \"#utility.yul\":11808:11811   */\n      dup3\n        /* \"#utility.yul\":11801:11838   */\n      mstore\n        /* \"#utility.yul\":11736:11844   */\n      pop\n      pop\n      jump\t// out\n        /* \"#utility.yul\":11850:12029   */\n    tag_310:\n        /* \"#utility.yul\":11919:11929   */\n      0x00\n        /* \"#utility.yul\":11940:11986   */\n      tag_444\n        /* \"#utility.yul\":11982:11985   */\n      dup4\n        /* \"#utility.yul\":11974:11980   */\n      dup4\n        /* \"#utility.yul\":11940:11986   */\n      tag_309\n      jump\t// in\n    tag_444:\n        /* \"#utility.yul\":12018:12022   */\n      0x20\n        /* \"#utility.yul\":12013:12016   */\n      dup4\n        /* \"#utility.yul\":12009:12023   */\n      add\n        /* \"#utility.yul\":11995:12023   */\n      swap1\n      pop\n        /* \"#utility.yul\":11850:12029   */\n      swap3\n      swap2\n      pop\n      pop\n      jump\t// out\n        /* \"#utility.yul\":12035:12148   */\n    tag_311:\n        /* \"#utility.yul\":12105:12109   */\n      0x00\n        /* \"#utility.yul\":12137:12141   */\n      0x20\n        /* \"#utility.yul\":12132:12135   */\n      dup3\n        /* \"#utility.yul\":12128:12142   */\n      add\n        /* \"#utility.yul\":12120:12142   */\n      swap1\n      pop\n        /* \"#utility.yul\":12035:12148   */\n      swap2\n      swap1\n      pop\n      jump\t// out\n        /* \"#utility.yul\":12184:12916   */\n    tag_312:\n        /* \"#utility.yul\":12303:12306   */\n      0x00\n        /* \"#utility.yul\":12332:12386   */\n      tag_447\n        /* \"#utility.yul\":12380:12385   */\n      dup3\n        /* \"#utility.yul\":12332:12386   */\n      tag_306\n      jump\t// in\n    tag_447:\n        /* \"#utility.yul\":12402:12488   */\n      tag_448\n        /* \"#utility.yul\":12481:12487   */\n      dup2\n        /* \"#utility.yul\":12476:12479   */\n      dup6\n        /* \"#utility.yul\":12402:12488   */\n      tag_307\n      jump\t// in\n    tag_448:\n        /* \"#utility.yul\":12395:12488   */\n      swap4\n      pop\n        /* \"#utility.yul\":12512:12568   */\n      tag_449\n        /* \"#utility.yul\":12562:12567   */\n      dup4\n        /* \"#utility.yul\":12512:12568   */\n      tag_308\n      jump\t// in\n    tag_449:\n        /* \"#utility.yul\":12591:12598   */\n      dup1\n        /* \"#utility.yul\":12622:12623   */\n      0x00\n        /* \"#utility.yul\":12607:12891   */\n    tag_450:\n        /* \"#utility.yul\":12632:12638   */\n      dup4\n        /* \"#utility.yul\":12629:12630   */\n      dup2\n        /* \"#utility.yul\":12626:12639   */\n      lt\n        /* \"#utility.yul\":12607:12891   */\n      iszero\n      tag_452\n      jumpi\n        /* \"#utility.yul\":12708:12714   */\n      dup2\n        /* \"#utility.yul\":12702:12715   */\n      mload\n        /* \"#utility.yul\":12735:12798   */\n      tag_453\n        /* \"#utility.yul\":12794:12797   */\n      dup9\n        /* \"#utility.yul\":12779:12792   */\n      dup3\n        /* \"#utility.yul\":12735:12798   */\n      tag_310\n      jump\t// in\n    tag_453:\n        /* \"#utility.yul\":12728:12798   */\n      swap8\n      pop\n        /* \"#utility.yul\":12821:12881   */\n      tag_454\n        /* \"#utility.yul\":12874:12880   */\n      dup4\n        /* \"#utility.yul\":12821:12881   */\n      tag_311\n      jump\t// in\n    tag_454:\n        /* \"#utility.yul\":12811:12881   */\n      swap3\n      pop\n        /* \"#utility.yul\":12667:12891   */\n      pop\n        /* \"#utility.yul\":12654:12655   */\n      0x01\n        /* \"#utility.yul\":12651:12652   */\n      dup2\n        /* \"#utility.yul\":12647:12656   */\n      add\n        /* \"#utility.yul\":12642:12656   */\n      swap1\n      pop\n        /* \"#utility.yul\":12607:12891   */\n      jump(tag_450)\n    tag_452:\n        /* \"#utility.yul\":12611:12625   */\n      pop\n        /* \"#utility.yul\":12907:12910   */\n      dup6\n        /* \"#utility.yul\":12900:12910   */\n      swap4\n      pop\n        /* \"#utility.yul\":12308:12916   */\n      pop\n      pop\n      pop\n        /* \"#utility.yul\":12184:12916   */\n      swap3\n      swap2\n      pop\n      pop\n      jump\t// out\n        /* \"#utility.yul\":12922:13295   */\n    tag_65:\n        /* \"#utility.yul\":13065:13069   */\n      0x00\n        /* \"#utility.yul\":13103:13105   */\n      0x20\n        /* \"#utility.yul\":13092:13101   */\n      dup3\n        /* \"#utility.yul\":13088:13106   */\n      add\n        /* \"#utility.yul\":13080:13106   */\n      swap1\n      pop\n        /* \"#utility.yul\":13152:13161   */\n      dup2\n        /* \"#utility.yul\":13146:13150   */\n      dup2\n        /* \"#utility.yul\":13142:13162   */\n      sub\n        /* \"#utility.yul\":13138:13139   */\n      0x00\n        /* \"#utility.yul\":13127:13136   */\n      dup4\n        /* \"#utility.yul\":13123:13140   */\n      add\n        /* \"#utility.yul\":13116:13163   */\n      mstore\n        /* \"#utility.yul\":13180:13288   */\n      tag_456\n        /* \"#utility.yul\":13283:13287   */\n      dup2\n        /* \"#utility.yul\":13274:13280   */\n      dup5\n        /* \"#utility.yul\":13180:13288   */\n      tag_312\n      jump\t// in\n    tag_456:\n        /* \"#utility.yul\":13172:13288   */\n      swap1\n      pop\n        /* \"#utility.yul\":12922:13295   */\n      swap3\n      swap2\n      pop\n      pop\n      jump\t// out\n        /* \"#utility.yul\":13301:13400   */\n    tag_313:\n        /* \"#utility.yul\":13372:13393   */\n      tag_458\n        /* \"#utility.yul\":13387:13392   */\n      dup2\n        /* \"#utility.yul\":13372:13393   */\n      tag_304\n      jump\t// in\n    tag_458:\n        /* \"#utility.yul\":13367:13370   */\n      dup3\n        /* \"#utility.yul\":13360:13394   */\n      mstore\n        /* \"#utility.yul\":13301:13400   */\n      pop\n      pop\n      jump\t// out\n        /* \"#utility.yul\":13476:14753   */\n    tag_314:\n        /* \"#utility.yul\":13587:13590   */\n      0x00\n        /* \"#utility.yul\":13623:13627   */\n      0xa0\n        /* \"#utility.yul\":13618:13621   */\n      dup4\n        /* \"#utility.yul\":13614:13628   */\n      add\n        /* \"#utility.yul\":13715:13719   */\n      0x00\n        /* \"#utility.yul\":13708:13713   */\n      dup4\n        /* \"#utility.yul\":13704:13720   */\n      add\n        /* \"#utility.yul\":13698:13721   */\n      mload\n        /* \"#utility.yul\":13768:13771   */\n      dup5\n        /* \"#utility.yul\":13762:13766   */\n      dup3\n        /* \"#utility.yul\":13758:13772   */\n      sub\n        /* \"#utility.yul\":13751:13755   */\n      0x00\n        /* \"#utility.yul\":13746:13749   */\n      dup7\n        /* \"#utility.yul\":13742:13756   */\n      add\n        /* \"#utility.yul\":13735:13773   */\n      mstore\n        /* \"#utility.yul\":13794:13867   */\n      tag_460\n        /* \"#utility.yul\":13862:13866   */\n      dup3\n        /* \"#utility.yul\":13848:13860   */\n      dup3\n        /* \"#utility.yul\":13794:13867   */\n      tag_297\n      jump\t// in\n    tag_460:\n        /* \"#utility.yul\":13786:13867   */\n      swap2\n      pop\n        /* \"#utility.yul\":13638:13878   */\n      pop\n        /* \"#utility.yul\":13964:13968   */\n      0x20\n        /* \"#utility.yul\":13957:13962   */\n      dup4\n        /* \"#utility.yul\":13953:13969   */\n      add\n        /* \"#utility.yul\":13947:13970   */\n      mload\n        /* \"#utility.yul\":14017:14020   */\n      dup5\n        /* \"#utility.yul\":14011:14015   */\n      dup3\n        /* \"#utility.yul\":14007:14021   */\n      sub\n        /* \"#utility.yul\":14000:14004   */\n      0x20\n        /* \"#utility.yul\":13995:13998   */\n      dup7\n        /* \"#utility.yul\":13991:14005   */\n      add\n        /* \"#utility.yul\":13984:14022   */\n      mstore\n        /* \"#utility.yul\":14043:14116   */\n      tag_461\n        /* \"#utility.yul\":14111:14115   */\n      dup3\n        /* \"#utility.yul\":14097:14109   */\n      dup3\n        /* \"#utility.yul\":14043:14116   */\n      tag_297\n      jump\t// in\n    tag_461:\n        /* \"#utility.yul\":14035:14116   */\n      swap2\n      pop\n        /* \"#utility.yul\":13888:14127   */\n      pop\n        /* \"#utility.yul\":14217:14221   */\n      0x40\n        /* \"#utility.yul\":14210:14215   */\n      dup4\n        /* \"#utility.yul\":14206:14222   */\n      add\n        /* \"#utility.yul\":14200:14223   */\n      mload\n        /* \"#utility.yul\":14236:14299   */\n      tag_462\n        /* \"#utility.yul\":14293:14297   */\n      0x40\n        /* \"#utility.yul\":14288:14291   */\n      dup7\n        /* \"#utility.yul\":14284:14298   */\n      add\n        /* \"#utility.yul\":14270:14282   */\n      dup3\n        /* \"#utility.yul\":14236:14299   */\n      tag_309\n      jump\t// in\n    tag_462:\n        /* \"#utility.yul\":14137:14309   */\n      pop\n        /* \"#utility.yul\":14393:14397   */\n      0x60\n        /* \"#utility.yul\":14386:14391   */\n      dup4\n        /* \"#utility.yul\":14382:14398   */\n      add\n        /* \"#utility.yul\":14376:14399   */\n      mload\n        /* \"#utility.yul\":14446:14449   */\n      dup5\n        /* \"#utility.yul\":14440:14444   */\n      dup3\n        /* \"#utility.yul\":14436:14450   */\n      sub\n        /* \"#utility.yul\":14429:14433   */\n      0x60\n        /* \"#utility.yul\":14424:14427   */\n      dup7\n        /* \"#utility.yul\":14420:14434   */\n      add\n        /* \"#utility.yul\":14413:14451   */\n      mstore\n        /* \"#utility.yul\":14472:14545   */\n      tag_463\n        /* \"#utility.yul\":14540:14544   */\n      dup3\n        /* \"#utility.yul\":14526:14538   */\n      dup3\n        /* \"#utility.yul\":14472:14545   */\n      tag_297\n      jump\t// in\n    tag_463:\n        /* \"#utility.yul\":14464:14545   */\n      swap2\n      pop\n        /* \"#utility.yul\":14319:14556   */\n      pop\n        /* \"#utility.yul\":14640:14644   */\n      0x80\n        /* \"#utility.yul\":14633:14638   */\n      dup4\n        /* \"#utility.yul\":14629:14645   */\n      add\n        /* \"#utility.yul\":14623:14646   */\n      mload\n        /* \"#utility.yul\":14659:14716   */\n      tag_464\n        /* \"#utility.yul\":14710:14714   */\n      0x80\n        /* \"#utility.yul\":14705:14708   */\n      dup7\n        /* \"#utility.yul\":14701:14715   */\n      add\n        /* \"#utility.yul\":14687:14699   */\n      dup3\n        /* \"#utility.yul\":14659:14716   */\n      tag_313\n      jump\t// in\n    tag_464:\n        /* \"#utility.yul\":14566:14726   */\n      pop\n        /* \"#utility.yul\":14743:14747   */\n      dup1\n        /* \"#utility.yul\":14736:14747   */\n      swap2\n      pop\n        /* \"#utility.yul\":13592:14753   */\n      pop\n        /* \"#utility.yul\":13476:14753   */\n      swap3\n      swap2\n      pop\n      pop\n      jump\t// out\n        /* \"#utility.yul\":14759:15116   */\n    tag_70:\n        /* \"#utility.yul\":14894:14898   */\n      0x00\n        /* \"#utility.yul\":14932:14934   */\n      0x20\n        /* \"#utility.yul\":14921:14930   */\n      dup3\n        /* \"#utility.yul\":14917:14935   */\n      add\n        /* \"#utility.yul\":14909:14935   */\n      swap1\n      pop\n        /* \"#utility.yul\":14981:14990   */\n      dup2\n        /* \"#utility.yul\":14975:14979   */\n      dup2\n        /* \"#utility.yul\":14971:14991   */\n      sub\n        /* \"#utility.yul\":14967:14968   */\n      0x00\n        /* \"#utility.yul\":14956:14965   */\n      dup4\n        /* \"#utility.yul\":14952:14969   */\n      add\n        /* \"#utility.yul\":14945:14992   */\n      mstore\n        /* \"#utility.yul\":15009:15109   */\n      tag_466\n        /* \"#utility.yul\":15104:15108   */\n      dup2\n        /* \"#utility.yul\":15095:15101   */\n      dup5\n        /* \"#utility.yul\":15009:15109   */\n      tag_314\n      jump\t// in\n    tag_466:\n        /* \"#utility.yul\":15001:15109   */\n      swap1\n      pop\n        /* \"#utility.yul\":14759:15116   */\n      swap3\n      swap2\n      pop\n      pop\n      jump\t// out\n        /* \"#utility.yul\":15122:15332   */\n    tag_74:\n        /* \"#utility.yul\":15209:15213   */\n      0x00\n        /* \"#utility.yul\":15247:15249   */\n      0x20\n        /* \"#utility.yul\":15236:15245   */\n      dup3\n        /* \"#utility.yul\":15232:15250   */\n      add\n        /* \"#utility.yul\":15224:15250   */\n      swap1\n      pop\n        /* \"#utility.yul\":15260:15325   */\n      tag_468\n        /* \"#utility.yul\":15322:15323   */\n      0x00\n        /* \"#utility.yul\":15311:15320   */\n      dup4\n        /* \"#utility.yul\":15307:15324   */\n      add\n        /* \"#utility.yul\":15298:15304   */\n      dup5\n        /* \"#utility.yul\":15260:15325   */\n      tag_305\n      jump\t// in\n    tag_468:\n        /* \"#utility.yul\":15122:15332   */\n      swap3\n      swap2\n      pop\n      pop\n      jump\t// out\n        /* \"#utility.yul\":15338:17115   */\n    tag_77:\n        /* \"#utility.yul\":15482:15488   */\n      0x00\n        /* \"#utility.yul\":15490:15496   */\n      dup1\n        /* \"#utility.yul\":15498:15504   */\n      0x00\n        /* \"#utility.yul\":15506:15512   */\n      dup1\n        /* \"#utility.yul\":15514:15520   */\n      0x00\n        /* \"#utility.yul\":15522:15528   */\n      dup1\n        /* \"#utility.yul\":15571:15574   */\n      0xc0\n        /* \"#utility.yul\":15559:15568   */\n      dup8\n        /* \"#utility.yul\":15550:15557   */\n      dup10\n        /* \"#utility.yul\":15546:15569   */\n      sub\n        /* \"#utility.yul\":15542:15575   */\n      slt\n        /* \"#utility.yul\":15539:15659   */\n      iszero\n      tag_470\n      jumpi\n        /* \"#utility.yul\":15578:15657   */\n      tag_471\n      tag_274\n      jump\t// in\n    tag_471:\n        /* \"#utility.yul\":15539:15659   */\n    tag_470:\n        /* \"#utility.yul\":15726:15727   */\n      0x00\n        /* \"#utility.yul\":15715:15724   */\n      dup8\n        /* \"#utility.yul\":15711:15728   */\n      add\n        /* \"#utility.yul\":15698:15729   */\n      calldataload\n        /* \"#utility.yul\":15756:15774   */\n      0xffffffffffffffff\n        /* \"#utility.yul\":15748:15754   */\n      dup2\n        /* \"#utility.yul\":15745:15775   */\n      gt\n        /* \"#utility.yul\":15742:15859   */\n      iszero\n      tag_472\n      jumpi\n        /* \"#utility.yul\":15778:15857   */\n      tag_473\n      tag_275\n      jump\t// in\n    tag_473:\n        /* \"#utility.yul\":15742:15859   */\n    tag_472:\n        /* \"#utility.yul\":15883:15946   */\n      tag_474\n        /* \"#utility.yul\":15938:15945   */\n      dup10\n        /* \"#utility.yul\":15929:15935   */\n      dup3\n        /* \"#utility.yul\":15918:15927   */\n      dup11\n        /* \"#utility.yul\":15914:15936   */\n      add\n        /* \"#utility.yul\":15883:15946   */\n      tag_288\n      jump\t// in\n    tag_474:\n        /* \"#utility.yul\":15873:15946   */\n      swap7\n      pop\n        /* \"#utility.yul\":15669:15956   */\n      pop\n        /* \"#utility.yul\":16023:16025   */\n      0x20\n        /* \"#utility.yul\":16012:16021   */\n      dup8\n        /* \"#utility.yul\":16008:16026   */\n      add\n        /* \"#utility.yul\":15995:16027   */\n      calldataload\n        /* \"#utility.yul\":16054:16072   */\n      0xffffffffffffffff\n        /* \"#utility.yul\":16046:16052   */\n      dup2\n        /* \"#utility.yul\":16043:16073   */\n      gt\n        /* \"#utility.yul\":16040:16157   */\n      iszero\n      tag_475\n      jumpi\n        /* \"#utility.yul\":16076:16155   */\n      tag_476\n      tag_275\n      jump\t// in\n    tag_476:\n        /* \"#utility.yul\":16040:16157   */\n    tag_475:\n        /* \"#utility.yul\":16181:16244   */\n      tag_477\n        /* \"#utility.yul\":16236:16243   */\n      dup10\n        /* \"#utility.yul\":16227:16233   */\n      dup3\n        /* \"#utility.yul\":16216:16225   */\n      dup11\n        /* \"#utility.yul\":16212:16234   */\n      add\n        /* \"#utility.yul\":16181:16244   */\n      tag_288\n      jump\t// in\n    tag_477:\n        /* \"#utility.yul\":16171:16244   */\n      swap6\n      pop\n        /* \"#utility.yul\":15966:16254   */\n      pop\n        /* \"#utility.yul\":16293:16295   */\n      0x40\n        /* \"#utility.yul\":16319:16372   */\n      tag_478\n        /* \"#utility.yul\":16364:16371   */\n      dup10\n        /* \"#utility.yul\":16355:16361   */\n      dup3\n        /* \"#utility.yul\":16344:16353   */\n      dup11\n        /* \"#utility.yul\":16340:16362   */\n      add\n        /* \"#utility.yul\":16319:16372   */\n      tag_290\n      jump\t// in\n    tag_478:\n        /* \"#utility.yul\":16309:16372   */\n      swap5\n      pop\n        /* \"#utility.yul\":16264:16382   */\n      pop\n        /* \"#utility.yul\":16449:16451   */\n      0x60\n        /* \"#utility.yul\":16438:16447   */\n      dup8\n        /* \"#utility.yul\":16434:16452   */\n      add\n        /* \"#utility.yul\":16421:16453   */\n      calldataload\n        /* \"#utility.yul\":16480:16498   */\n      0xffffffffffffffff\n        /* \"#utility.yul\":16472:16478   */\n      dup2\n        /* \"#utility.yul\":16469:16499   */\n      gt\n        /* \"#utility.yul\":16466:16583   */\n      iszero\n      tag_479\n      jumpi\n        /* \"#utility.yul\":16502:16581   */\n      tag_480\n      tag_275\n      jump\t// in\n    tag_480:\n        /* \"#utility.yul\":16466:16583   */\n    tag_479:\n        /* \"#utility.yul\":16607:16670   */\n      tag_481\n        /* \"#utility.yul\":16662:16669   */\n      dup10\n        /* \"#utility.yul\":16653:16659   */\n      dup3\n        /* \"#utility.yul\":16642:16651   */\n      dup11\n        /* \"#utility.yul\":16638:16660   */\n      add\n        /* \"#utility.yul\":16607:16670   */\n      tag_288\n      jump\t// in\n    tag_481:\n        /* \"#utility.yul\":16597:16670   */\n      swap4\n      pop\n        /* \"#utility.yul\":16392:16680   */\n      pop\n        /* \"#utility.yul\":16719:16722   */\n      0x80\n        /* \"#utility.yul\":16746:16799   */\n      tag_482\n        /* \"#utility.yul\":16791:16798   */\n      dup10\n        /* \"#utility.yul\":16782:16788   */\n      dup3\n        /* \"#utility.yul\":16771:16780   */\n      dup11\n        /* \"#utility.yul\":16767:16789   */\n      add\n        /* \"#utility.yul\":16746:16799   */\n      tag_290\n      jump\t// in\n    tag_482:\n        /* \"#utility.yul\":16736:16799   */\n      swap3\n      pop\n        /* \"#utility.yul\":16690:16809   */\n      pop\n        /* \"#utility.yul\":16876:16879   */\n      0xa0\n        /* \"#utility.yul\":16865:16874   */\n      dup8\n        /* \"#utility.yul\":16861:16880   */\n      add\n        /* \"#utility.yul\":16848:16881   */\n      calldataload\n        /* \"#utility.yul\":16908:16926   */\n      0xffffffffffffffff\n        /* \"#utility.yul\":16900:16906   */\n      dup2\n        /* \"#utility.yul\":16897:16927   */\n      gt\n        /* \"#utility.yul\":16894:17011   */\n      iszero\n      tag_483\n      jumpi\n        /* \"#utility.yul\":16930:17009   */\n      tag_484\n      tag_275\n      jump\t// in\n    tag_484:\n        /* \"#utility.yul\":16894:17011   */\n    tag_483:\n        /* \"#utility.yul\":17035:17098   */\n      tag_485\n        /* \"#utility.yul\":17090:17097   */\n      dup10\n        /* \"#utility.yul\":17081:17087   */\n      dup3\n        /* \"#utility.yul\":17070:17079   */\n      dup11\n        /* \"#utility.yul\":17066:17088   */\n      add\n        /* \"#utility.yul\":17035:17098   */\n      tag_288\n      jump\t// in\n    tag_485:\n        /* \"#utility.yul\":17025:17098   */\n      swap2\n      pop\n        /* \"#utility.yul\":16819:17108   */\n      pop\n        /* \"#utility.yul\":15338:17115   */\n      swap3\n      swap6\n      pop\n      swap3\n      swap6\n      pop\n      swap3\n      swap6\n      jump\t// out\n        /* \"#utility.yul\":17121:17630   */\n    tag_81:\n        /* \"#utility.yul\":17190:17196   */\n      0x00\n        /* \"#utility.yul\":17239:17241   */\n      0x20\n        /* \"#utility.yul\":17227:17236   */\n      dup3\n        /* \"#utility.yul\":17218:17225   */\n      dup5\n        /* \"#utility.yul\":17214:17237   */\n      sub\n        /* \"#utility.yul\":17210:17242   */\n      slt\n        /* \"#utility.yul\":17207:17326   */\n      iszero\n      tag_487\n      jumpi\n        /* \"#utility.yul\":17245:17324   */\n      tag_488\n      tag_274\n      jump\t// in\n    tag_488:\n        /* \"#utility.yul\":17207:17326   */\n    tag_487:\n        /* \"#utility.yul\":17393:17394   */\n      0x00\n        /* \"#utility.yul\":17382:17391   */\n      dup3\n        /* \"#utility.yul\":17378:17395   */\n      add\n        /* \"#utility.yul\":17365:17396   */\n      calldataload\n        /* \"#utility.yul\":17423:17441   */\n      0xffffffffffffffff\n        /* \"#utility.yul\":17415:17421   */\n      dup2\n        /* \"#utility.yul\":17412:17442   */\n      gt\n        /* \"#utility.yul\":17409:17526   */\n      iszero\n      tag_489\n      jumpi\n        /* \"#utility.yul\":17445:17524   */\n      tag_490\n      tag_275\n      jump\t// in\n    tag_490:\n        /* \"#utility.yul\":17409:17526   */\n    tag_489:\n        /* \"#utility.yul\":17550:17613   */\n      tag_491\n        /* \"#utility.yul\":17605:17612   */\n      dup5\n        /* \"#utility.yul\":17596:17602   */\n      dup3\n        /* \"#utility.yul\":17585:17594   */\n      dup6\n        /* \"#utility.yul\":17581:17603   */\n      add\n        /* \"#utility.yul\":17550:17613   */\n      tag_288\n      jump\t// in\n    tag_491:\n        /* \"#utility.yul\":17540:17613   */\n      swap2\n      pop\n        /* \"#utility.yul\":17336:17623   */\n      pop\n        /* \"#utility.yul\":17121:17630   */\n      swap3\n      swap2\n      pop\n      pop\n      jump\t// out\n        /* \"#utility.yul\":17636:19286   */\n    tag_84:\n        /* \"#utility.yul\":18069:18073   */\n      0x00\n        /* \"#utility.yul\":18107:18110   */\n      0x0140\n        /* \"#utility.yul\":18096:18105   */\n      dup3\n        /* \"#utility.yul\":18092:18111   */\n      add\n        /* \"#utility.yul\":18084:18111   */\n      swap1\n      pop\n        /* \"#utility.yul\":18157:18166   */\n      dup2\n        /* \"#utility.yul\":18151:18155   */\n      dup2\n        /* \"#utility.yul\":18147:18167   */\n      sub\n        /* \"#utility.yul\":18143:18144   */\n      0x00\n        /* \"#utility.yul\":18132:18141   */\n      dup4\n        /* \"#utility.yul\":18128:18145   */\n      add\n        /* \"#utility.yul\":18121:18168   */\n      mstore\n        /* \"#utility.yul\":18185:18263   */\n      tag_493\n        /* \"#utility.yul\":18258:18262   */\n      dup2\n        /* \"#utility.yul\":18249:18255   */\n      dup14\n        /* \"#utility.yul\":18185:18263   */\n      tag_303\n      jump\t// in\n    tag_493:\n        /* \"#utility.yul\":18177:18263   */\n      swap1\n      pop\n        /* \"#utility.yul\":18310:18319   */\n      dup2\n        /* \"#utility.yul\":18304:18308   */\n      dup2\n        /* \"#utility.yul\":18300:18320   */\n      sub\n        /* \"#utility.yul\":18295:18297   */\n      0x20\n        /* \"#utility.yul\":18284:18293   */\n      dup4\n        /* \"#utility.yul\":18280:18298   */\n      add\n        /* \"#utility.yul\":18273:18321   */\n      mstore\n        /* \"#utility.yul\":18338:18416   */\n      tag_494\n        /* \"#utility.yul\":18411:18415   */\n      dup2\n        /* \"#utility.yul\":18402:18408   */\n      dup13\n        /* \"#utility.yul\":18338:18416   */\n      tag_303\n      jump\t// in\n    tag_494:\n        /* \"#utility.yul\":18330:18416   */\n      swap1\n      pop\n        /* \"#utility.yul\":18463:18472   */\n      dup2\n        /* \"#utility.yul\":18457:18461   */\n      dup2\n        /* \"#utility.yul\":18453:18473   */\n      sub\n        /* \"#utility.yul\":18448:18450   */\n      0x40\n        /* \"#utility.yul\":18437:18446   */\n      dup4\n        /* \"#utility.yul\":18433:18451   */\n      add\n        /* \"#utility.yul\":18426:18474   */\n      mstore\n        /* \"#utility.yul\":18491:18569   */\n      tag_495\n        /* \"#utility.yul\":18564:18568   */\n      dup2\n        /* \"#utility.yul\":18555:18561   */\n      dup12\n        /* \"#utility.yul\":18491:18569   */\n      tag_303\n      jump\t// in\n    tag_495:\n        /* \"#utility.yul\":18483:18569   */\n      swap1\n      pop\n        /* \"#utility.yul\":18579:18651   */\n      tag_496\n        /* \"#utility.yul\":18647:18649   */\n      0x60\n        /* \"#utility.yul\":18636:18645   */\n      dup4\n        /* \"#utility.yul\":18632:18650   */\n      add\n        /* \"#utility.yul\":18623:18629   */\n      dup11\n        /* \"#utility.yul\":18579:18651   */\n      tag_272\n      jump\t// in\n    tag_496:\n        /* \"#utility.yul\":18699:18708   */\n      dup2\n        /* \"#utility.yul\":18693:18697   */\n      dup2\n        /* \"#utility.yul\":18689:18709   */\n      sub\n        /* \"#utility.yul\":18683:18686   */\n      0x80\n        /* \"#utility.yul\":18672:18681   */\n      dup4\n        /* \"#utility.yul\":18668:18687   */\n      add\n        /* \"#utility.yul\":18661:18710   */\n      mstore\n        /* \"#utility.yul\":18727:18805   */\n      tag_497\n        /* \"#utility.yul\":18800:18804   */\n      dup2\n        /* \"#utility.yul\":18791:18797   */\n      dup10\n        /* \"#utility.yul\":18727:18805   */\n      tag_303\n      jump\t// in\n    tag_497:\n        /* \"#utility.yul\":18719:18805   */\n      swap1\n      pop\n        /* \"#utility.yul\":18815:18882   */\n      tag_498\n        /* \"#utility.yul\":18877:18880   */\n      0xa0\n        /* \"#utility.yul\":18866:18875   */\n      dup4\n        /* \"#utility.yul\":18862:18881   */\n      add\n        /* \"#utility.yul\":18853:18859   */\n      dup9\n        /* \"#utility.yul\":18815:18882   */\n      tag_305\n      jump\t// in\n    tag_498:\n        /* \"#utility.yul\":18892:18959   */\n      tag_499\n        /* \"#utility.yul\":18954:18957   */\n      0xc0\n        /* \"#utility.yul\":18943:18952   */\n      dup4\n        /* \"#utility.yul\":18939:18958   */\n      add\n        /* \"#utility.yul\":18930:18936   */\n      dup8\n        /* \"#utility.yul\":18892:18959   */\n      tag_305\n      jump\t// in\n    tag_499:\n        /* \"#utility.yul\":18969:19042   */\n      tag_500\n        /* \"#utility.yul\":19037:19040   */\n      0xe0\n        /* \"#utility.yul\":19026:19035   */\n      dup4\n        /* \"#utility.yul\":19022:19041   */\n      add\n        /* \"#utility.yul\":19013:19019   */\n      dup7\n        /* \"#utility.yul\":18969:19042   */\n      tag_272\n      jump\t// in\n    tag_500:\n        /* \"#utility.yul\":19090:19099   */\n      dup2\n        /* \"#utility.yul\":19084:19088   */\n      dup2\n        /* \"#utility.yul\":19080:19100   */\n      sub\n        /* \"#utility.yul\":19074:19077   */\n      0x0100\n        /* \"#utility.yul\":19063:19072   */\n      dup4\n        /* \"#utility.yul\":19059:19078   */\n      add\n        /* \"#utility.yul\":19052:19101   */\n      mstore\n        /* \"#utility.yul\":19118:19196   */\n      tag_501\n        /* \"#utility.yul\":19191:19195   */\n      dup2\n        /* \"#utility.yul\":19182:19188   */\n      dup6\n        /* \"#utility.yul\":19118:19196   */\n      tag_303\n      jump\t// in\n    tag_501:\n        /* \"#utility.yul\":19110:19196   */\n      swap1\n      pop\n        /* \"#utility.yul\":19206:19279   */\n      tag_502\n        /* \"#utility.yul\":19274:19277   */\n      0x0120\n        /* \"#utility.yul\":19263:19272   */\n      dup4\n        /* \"#utility.yul\":19259:19278   */\n      add\n        /* \"#utility.yul\":19250:19256   */\n      dup5\n        /* \"#utility.yul\":19206:19279   */\n      tag_272\n      jump\t// in\n    tag_502:\n        /* \"#utility.yul\":17636:19286   */\n      swap12\n      swap11\n      pop\n      pop\n      pop\n      pop\n      pop\n      pop\n      pop\n      pop\n      pop\n      pop\n      pop\n      jump\t// out\n        /* \"#utility.yul\":19292:19472   */\n    tag_315:\n        /* \"#utility.yul\":19340:19417   */\n      0x4e487b7100000000000000000000000000000000000000000000000000000000\n        /* \"#utility.yul\":19337:19338   */\n      0x00\n        /* \"#utility.yul\":19330:19418   */\n      mstore\n        /* \"#utility.yul\":19437:19441   */\n      0x22\n        /* \"#utility.yul\":19434:19435   */\n      0x04\n        /* \"#utility.yul\":19427:19442   */\n      mstore\n        /* \"#utility.yul\":19461:19465   */\n      0x24\n        /* \"#utility.yul\":19458:19459   */\n      0x00\n        /* \"#utility.yul\":19451:19466   */\n      revert\n        /* \"#utility.yul\":19478:19798   */\n    tag_115:\n        /* \"#utility.yul\":19522:19528   */\n      0x00\n        /* \"#utility.yul\":19559:19560   */\n      0x02\n        /* \"#utility.yul\":19553:19557   */\n      dup3\n        /* \"#utility.yul\":19549:19561   */\n      div\n        /* \"#utility.yul\":19539:19561   */\n      swap1\n      pop\n        /* \"#utility.yul\":19606:19607   */\n      0x01\n        /* \"#utility.yul\":19600:19604   */\n      dup3\n        /* \"#utility.yul\":19596:19608   */\n      and\n        /* \"#utility.yul\":19627:19645   */\n      dup1\n        /* \"#utility.yul\":19617:19698   */\n      tag_505\n      jumpi\n        /* \"#utility.yul\":19683:19687   */\n      0x7f\n        /* \"#utility.yul\":19675:19681   */\n      dup3\n        /* \"#utility.yul\":19671:19688   */\n      and\n        /* \"#utility.yul\":19661:19688   */\n      swap2\n      pop\n        /* \"#utility.yul\":19617:19698   */\n    tag_505:\n        /* \"#utility.yul\":19745:19747   */\n      0x20\n        /* \"#utility.yul\":19737:19743   */\n      dup3\n        /* \"#utility.yul\":19734:19748   */\n      lt\n        /* \"#utility.yul\":19714:19732   */\n      dup2\n        /* \"#utility.yul\":19711:19749   */\n      eq\n        /* \"#utility.yul\":19708:19792   */\n      iszero\n      tag_506\n      jumpi\n        /* \"#utility.yul\":19764:19782   */\n      tag_507\n      tag_315\n      jump\t// in\n    tag_507:\n        /* \"#utility.yul\":19708:19792   */\n    tag_506:\n        /* \"#utility.yul\":19529:19798   */\n      pop\n        /* \"#utility.yul\":19478:19798   */\n      swap2\n      swap1\n      pop\n      jump\t// out\n        /* \"#utility.yul\":19804:19952   */\n    tag_316:\n        /* \"#utility.yul\":19906:19917   */\n      0x00\n        /* \"#utility.yul\":19943:19946   */\n      dup2\n        /* \"#utility.yul\":19928:19946   */\n      swap1\n      pop\n        /* \"#utility.yul\":19804:19952   */\n      swap3\n      swap2\n      pop\n      pop\n      jump\t// out\n        /* \"#utility.yul\":19958:20335   */\n    tag_317:\n        /* \"#utility.yul\":20064:20067   */\n      0x00\n        /* \"#utility.yul\":20092:20131   */\n      tag_510\n        /* \"#utility.yul\":20125:20130   */\n      dup3\n        /* \"#utility.yul\":20092:20131   */\n      tag_294\n      jump\t// in\n    tag_510:\n        /* \"#utility.yul\":20147:20236   */\n      tag_511\n        /* \"#utility.yul\":20229:20235   */\n      dup2\n        /* \"#utility.yul\":20224:20227   */\n      dup6\n        /* \"#utility.yul\":20147:20236   */\n      tag_316\n      jump\t// in\n    tag_511:\n        /* \"#utility.yul\":20140:20236   */\n      swap4\n      pop\n        /* \"#utility.yul\":20245:20297   */\n      tag_512\n        /* \"#utility.yul\":20290:20296   */\n      dup2\n        /* \"#utility.yul\":20285:20288   */\n      dup6\n        /* \"#utility.yul\":20278:20282   */\n      0x20\n        /* \"#utility.yul\":20271:20276   */\n      dup7\n        /* \"#utility.yul\":20267:20283   */\n      add\n        /* \"#utility.yul\":20245:20297   */\n      tag_296\n      jump\t// in\n    tag_512:\n        /* \"#utility.yul\":20322:20328   */\n      dup1\n        /* \"#utility.yul\":20317:20320   */\n      dup5\n        /* \"#utility.yul\":20313:20329   */\n      add\n        /* \"#utility.yul\":20306:20329   */\n      swap2\n      pop\n        /* \"#utility.yul\":20068:20335   */\n      pop\n        /* \"#utility.yul\":19958:20335   */\n      swap3\n      swap2\n      pop\n      pop\n      jump\t// out\n        /* \"#utility.yul\":20341:20616   */\n    tag_185:\n        /* \"#utility.yul\":20473:20476   */\n      0x00\n        /* \"#utility.yul\":20495:20590   */\n      tag_514\n        /* \"#utility.yul\":20586:20589   */\n      dup3\n        /* \"#utility.yul\":20577:20583   */\n      dup5\n        /* \"#utility.yul\":20495:20590   */\n      tag_317\n      jump\t// in\n    tag_514:\n        /* \"#utility.yul\":20488:20590   */\n      swap2\n      pop\n        /* \"#utility.yul\":20607:20610   */\n      dup2\n        /* \"#utility.yul\":20600:20610   */\n      swap1\n      pop\n        /* \"#utility.yul\":20341:20616   */\n      swap3\n      swap2\n      pop\n      pop\n      jump\t// out\n        /* \"#utility.yul\":20622:20802   */\n    tag_318:\n        /* \"#utility.yul\":20670:20747   */\n      0x4e487b7100000000000000000000000000000000000000000000000000000000\n        /* \"#utility.yul\":20667:20668   */\n      0x00\n        /* \"#utility.yul\":20660:20748   */\n      mstore\n        /* \"#utility.yul\":20767:20771   */\n      0x11\n        /* \"#utility.yul\":20764:20765   */\n      0x04\n        /* \"#utility.yul\":20757:20772   */\n      mstore\n        /* \"#utility.yul\":20791:20795   */\n      0x24\n        /* \"#utility.yul\":20788:20789   */\n      0x00\n        /* \"#utility.yul\":20781:20796   */\n      revert\n        /* \"#utility.yul\":20808:21113   */\n    tag_199:\n        /* \"#utility.yul\":20848:20851   */\n      0x00\n        /* \"#utility.yul\":20867:20887   */\n      tag_517\n        /* \"#utility.yul\":20885:20886   */\n      dup3\n        /* \"#utility.yul\":20867:20887   */\n      tag_276\n      jump\t// in\n    tag_517:\n        /* \"#utility.yul\":20862:20887   */\n      swap2\n      pop\n        /* \"#utility.yul\":20901:20921   */\n      tag_518\n        /* \"#utility.yul\":20919:20920   */\n      dup4\n        /* \"#utility.yul\":20901:20921   */\n      tag_276\n      jump\t// in\n    tag_518:\n        /* \"#utility.yul\":20896:20921   */\n      swap3\n      pop\n        /* \"#utility.yul\":21055:21056   */\n      dup3\n        /* \"#utility.yul\":20987:21053   */\n      0xffffffffffffffffffffffffffffffffffffffffffffffffffffffffffffffff\n        /* \"#utility.yul\":20983:21057   */\n      sub\n        /* \"#utility.yul\":20980:20981   */\n      dup3\n        /* \"#utility.yul\":20977:21058   */\n      gt\n        /* \"#utility.yul\":20974:21081   */\n      iszero\n      tag_519\n      jumpi\n        /* \"#utility.yul\":21061:21079   */\n      tag_520\n      tag_318\n      jump\t// in\n    tag_520:\n        /* \"#utility.yul\":20974:21081   */\n    tag_519:\n        /* \"#utility.yul\":21105:21106   */\n      dup3\n        /* \"#utility.yul\":21102:21103   */\n      dup3\n        /* \"#utility.yul\":21098:21107   */\n      add\n        /* \"#utility.yul\":21091:21107   */\n      swap1\n      pop\n        /* \"#utility.yul\":20808:21113   */\n      swap3\n      swap2\n      pop\n      pop\n      jump\t// out\n\n    auxdata: 0xa2646970667358221220889fbda4094e2d81e22a02696ad2641f362e11613b6a1dd1af8b0f47e47f2a8c64736f6c634300080a0033\n}\n","bytecode":{"linkReferences":{},"object":"60806040523480156200001157600080fd5b5060405162002a1138038062002a118339818101604052810190620000379190620002ec565b80600190805190602001906200004f9291906200009f565b50336000806101000a81548173ffffffffffffffffffffffffffffffffffffffff021916908373ffffffffffffffffffffffffffffffffffffffff160217905550600060098190555050620003a2565b828054620000ad906200036c565b90600052602060002090601f016020900481019282620000d157600085556200011d565b82601f10620000ec57805160ff19168380011785556200011d565b828001600101855582156200011d579182015b828111156200011c578251825591602001919060010190620000ff565b5b5090506200012c919062000130565b5090565b5b808211156200014b57600081600090555060010162000131565b5090565b6000604051905090565b600080fd5b600080fd5b600080fd5b600080fd5b6000601f19601f8301169050919050565b7f4e487b7100000000000000000000000000000000000000000000000000000000600052604160045260246000fd5b620001b8826200016d565b810181811067ffffffffffffffff82111715620001da57620001d96200017e565b5b80604052505050565b6000620001ef6200014f565b9050620001fd8282620001ad565b919050565b600067ffffffffffffffff82111562000220576200021f6200017e565b5b6200022b826200016d565b9050602081019050919050565b60005b83811015620002585780820151818401526020810190506200023b565b8381111562000268576000848401525b50505050565b6000620002856200027f8462000202565b620001e3565b905082815260208101848484011115620002a457620002a362000168565b5b620002b184828562000238565b509392505050565b600082601f830112620002d157620002d062000163565b5b8151620002e38482602086016200026e565b91505092915050565b60006020828403121562000305576200030462000159565b5b600082015167ffffffffffffffff8111156200032657620003256200015e565b5b6200033484828501620002b9565b91505092915050565b7f4e487b7100000000000000000000000000000000000000000000000000000000600052602260045260246000fd5b600060028204905060018216806200038557607f821691505b602082108114156200039c576200039b6200033d565b5b50919050565b61265f80620003b26000396000f3fe608060405234801561001057600080fd5b50600436106101165760003560e01c806364ddfa29116100a2578063b1c8ad0d11610071578063b1c8ad0d146102e7578063c4a0086f14610320578063cbd5121c14610350578063cddb61b714610380578063df6fa20e1461039c57610116565b806364ddfa291461025f57806364efb22b1461027d5780638b5c9335146102ad578063ade79551146102cb57610116565b80631af1a768116100e95780631af1a768146101a35780631c9afd0f146101bf5780632a979f31146101dd5780632de8f46d1461020d578063429b62e51461022b57610116565b8063045b30341461011b57806313718c97146101395780631510f0d5146101695780631a994ed814610185575b600080fd5b6101236103b8565b6040516101309190611bca565b60405180910390f35b610153600480360381019061014e9190611c2f565b6103dc565b6040516101609190611bca565b60405180910390f35b610183600480360381019061017e9190611dce565b61041b565b005b61018d610508565b60405161019a9190611fd3565b60405180910390f35b6101bd60048036038101906101b89190611ff5565b610637565b005b6101c76106ed565b6040516101d49190612031565b60405180910390f35b6101f760048036038101906101f29190611c2f565b6106f3565b6040516102049190612096565b60405180910390f35b61021561079f565b6040516102229190612096565b60405180910390f35b61024560048036038101906102409190611ff5565b610889565b6040516102569594939291906120d3565b60405180910390f35b610267610a84565b60405161027491906121f9565b60405180910390f35b61029760048036038101906102929190611ff5565b610b6a565b6040516102a491906122ae565b60405180910390f35b6102b5610e42565b6040516102c291906122d0565b60405180910390f35b6102e560048036038101906102e091906122eb565b610ea1565b005b61030160048036038101906102fc91906123e8565b6111a6565b6040516103179a99989796959493929190612431565b60405180910390f35b61033a600480360381019061033591906123e8565b611532565b60405161034791906122d0565b60405180910390f35b61036a60048036038101906103659190611c2f565b611568565b6040516103779190612096565b60405180910390f35b61039a60048036038101906103959190611dce565b611614565b005b6103b660048036038101906103b19190611ff5565b611941565b005b60008054906101000a900473ffffffffffffffffffffffffffffffffffffffff1681565b600581815481106103ec57600080fd5b906000526020600020016000915054906101000a900473ffffffffffffffffffffffffffffffffffffffff1681565b60008054906101000a900473ffffffffffffffffffffffffffffffffffffffff1673ffffffffffffffffffffffffffffffffffffffff163373ffffffffffffffffffffffffffffffffffffffff161461047357600080fd5b6000600260008373ffffffffffffffffffffffffffffffffffffffff1673ffffffffffffffffffffffffffffffffffffffff1681526020019081526020016000209050848160000190805190602001906104ce929190611a12565b50838160010190805190602001906104e7929190611a12565b5082816003019080519060200190610500929190611a12565b505050505050565b6060600360003373ffffffffffffffffffffffffffffffffffffffff1673ffffffffffffffffffffffffffffffffffffffff16815260200190815260200160002060009054906101000a900460ff1661056057600080fd5b6006805480602002602001604051908101604052809291908181526020016000905b8282101561062e5783829060005260206000200180546105a19061251f565b80601f01602080910402602001604051908101604052809291908181526020018280546105cd9061251f565b801561061a5780601f106105ef5761010080835404028352916020019161061a565b820191906000526020600020905b8154815290600101906020018083116105fd57829003601f168201915b505050505081526020019060010190610582565b50505050905090565b60008054906101000a900473ffffffffffffffffffffffffffffffffffffffff1673ffffffffffffffffffffffffffffffffffffffff163373ffffffffffffffffffffffffffffffffffffffff161461068f57600080fd5b6001600260008373ffffffffffffffffffffffffffffffffffffffff1673ffffffffffffffffffffffffffffffffffffffff16815260200190815260200160002060040160006101000a81548160ff02191690831515021790555050565b60095481565b6004818154811061070357600080fd5b90600052602060002001600091509050805461071e9061251f565b80601f016020809104026020016040519081016040528092919081815260200182805461074a9061251f565b80156107975780601f1061076c57610100808354040283529160200191610797565b820191906000526020600020905b81548152906001019060200180831161077a57829003601f168201915b505050505081565b606060008054906101000a900473ffffffffffffffffffffffffffffffffffffffff1673ffffffffffffffffffffffffffffffffffffffff163373ffffffffffffffffffffffffffffffffffffffff16146107f957600080fd5b600180546108069061251f565b80601f01602080910402602001604051908101604052809291908181526020018280546108329061251f565b801561087f5780601f106108545761010080835404028352916020019161087f565b820191906000526020600020905b81548152906001019060200180831161086257829003601f168201915b5050505050905090565b60026020528060005260406000206000915090508060000180546108ac9061251f565b80601f01602080910402602001604051908101604052809291908181526020018280546108d89061251f565b80156109255780601f106108fa57610100808354040283529160200191610925565b820191906000526020600020905b81548152906001019060200180831161090857829003601f168201915b50505050509080600101805461093a9061251f565b80601f01602080910402602001604051908101604052809291908181526020018280546109669061251f565b80156109b35780601f10610988576101008083540402835291602001916109b3565b820191906000526020600020905b81548152906001019060200180831161099657829003601f168201915b5050505050908060020160009054906101000a900473ffffffffffffffffffffffffffffffffffffffff16908060030180546109ee9061251f565b80601f0160208091040260200160405190810160405280929190818152602001828054610a1a9061251f565b8015610a675780601f10610a3c57610100808354040283529160200191610a67565b820191906000526020600020905b815481529060010190602001808311610a4a57829003601f168201915b5050505050908060040160009054906101000a900460ff16905085565b606060008054906101000a900473ffffffffffffffffffffffffffffffffffffffff1673ffffffffffffffffffffffffffffffffffffffff163373ffffffffffffffffffffffffffffffffffffffff1614610ade57600080fd5b6005805480602002602001604051908101604052809291908181526020018280548015610b6057602002820191906000526020600020905b8160009054906101000a900473ffffffffffffffffffffffffffffffffffffffff1673ffffffffffffffffffffffffffffffffffffffff1681526020019060010190808311610b16575b5050505050905090565b610b72611a98565b60008054906101000a900473ffffffffffffffffffffffffffffffffffffffff1673ffffffffffffffffffffffffffffffffffffffff163373ffffffffffffffffffffffffffffffffffffffff1614610bca57600080fd5b600260008373ffffffffffffffffffffffffffffffffffffffff1673ffffffffffffffffffffffffffffffffffffffff1681526020019081526020016000206040518060a0016040529081600082018054610c249061251f565b80601f0160208091040260200160405190810160405280929190818152602001828054610c509061251f565b8015610c9d5780601f10610c7257610100808354040283529160200191610c9d565b820191906000526020600020905b815481529060010190602001808311610c8057829003601f168201915b50505050508152602001600182018054610cb69061251f565b80601f0160208091040260200160405190810160405280929190818152602001828054610ce29061251f565b8015610d2f5780601f10610d0457610100808354040283529160200191610d2f565b820191906000526020600020905b815481529060010190602001808311610d1257829003601f168201915b505050505081526020016002820160009054906101000a900473ffffffffffffffffffffffffffffffffffffffff1673ffffffffffffffffffffffffffffffffffffffff1673ffffffffffffffffffffffffffffffffffffffff168152602001600382018054610d9e9061251f565b80601f0160208091040260200160405190810160405280929190818152602001828054610dca9061251f565b8015610e175780601f10610dec57610100808354040283529160200191610e17565b820191906000526020600020905b815481529060010190602001808311610dfa57829003601f168201915b505050505081526020016004820160009054906101000a900460ff1615151515815250509050919050565b6000600360003373ffffffffffffffffffffffffffffffffffffffff1673ffffffffffffffffffffffffffffffffffffffff16815260200190815260200160002060009054906101000a900460ff16610e9a57600080fd5b6001905090565b600360003373ffffffffffffffffffffffffffffffffffffffff1673ffffffffffffffffffffffffffffffffffffffff16815260200190815260200160002060009054906101000a900460ff16610ef757600080fd5b600781604051610f07919061258d565b908152602001604051809103902060009054906101000a900460ff1615610f2d57600080fd5b6001600782604051610f3f919061258d565b908152602001604051809103902060006101000a81548160ff021916908315150217905550600681908060018154018082558091505060019003906000526020600020016000909190919091509080519060200190610f9f929190611a12565b506000600882604051610fb2919061258d565b90815260200160405180910390209050600260008473ffffffffffffffffffffffffffffffffffffffff1673ffffffffffffffffffffffffffffffffffffffff168152602001908152602001600020600301816000019080546110149061251f565b61101f929190611adf565b5086816001019080519060200190611038929190611a12565b5085816002019080519060200190611051929190611a12565b50848160030160006101000a81548173ffffffffffffffffffffffffffffffffffffffff021916908373ffffffffffffffffffffffffffffffffffffffff160217905550838160040190805190602001906110ad929190611a12565b5060008160050160006101000a81548160ff02191690831515021790555060008160050160016101000a81548160ff02191690831515021790555060008160050160026101000a81548173ffffffffffffffffffffffffffffffffffffffff021916908373ffffffffffffffffffffffffffffffffffffffff16021790555081816006019080519060200190611144929190611a12565b50828160070160006101000a81548173ffffffffffffffffffffffffffffffffffffffff021916908373ffffffffffffffffffffffffffffffffffffffff160217905550600160095461119791906125d3565b60098190555050505050505050565b6008818051602081018201805184825260208301602085012081835280955050505050506000915090508060000180546111df9061251f565b80601f016020809104026020016040519081016040528092919081815260200182805461120b9061251f565b80156112585780601f1061122d57610100808354040283529160200191611258565b820191906000526020600020905b81548152906001019060200180831161123b57829003601f168201915b50505050509080600101805461126d9061251f565b80601f01602080910402602001604051908101604052809291908181526020018280546112999061251f565b80156112e65780601f106112bb576101008083540402835291602001916112e6565b820191906000526020600020905b8154815290600101906020018083116112c957829003601f168201915b5050505050908060020180546112fb9061251f565b80601f01602080910402602001604051908101604052809291908181526020018280546113279061251f565b80156113745780601f1061134957610100808354040283529160200191611374565b820191906000526020600020905b81548152906001019060200180831161135757829003601f168201915b5050505050908060030160009054906101000a900473ffffffffffffffffffffffffffffffffffffffff16908060040180546113af9061251f565b80601f01602080910402602001604051908101604052809291908181526020018280546113db9061251f565b80156114285780601f106113fd57610100808354040283529160200191611428565b820191906000526020600020905b81548152906001019060200180831161140b57829003601f168201915b5050505050908060050160009054906101000a900460ff16908060050160019054906101000a900460ff16908060050160029054906101000a900473ffffffffffffffffffffffffffffffffffffffff16908060060180546114899061251f565b80601f01602080910402602001604051908101604052809291908181526020018280546114b59061251f565b80156115025780601f106114d757610100808354040283529160200191611502565b820191906000526020600020905b8154815290600101906020018083116114e557829003601f168201915b5050505050908060070160009054906101000a900473ffffffffffffffffffffffffffffffffffffffff1690508a565b6007818051602081018201805184825260208301602085012081835280955050505050506000915054906101000a900460ff1681565b6006818154811061157857600080fd5b9060005260206000200160009150905080546115939061251f565b80601f01602080910402602001604051908101604052809291908181526020018280546115bf9061251f565b801561160c5780601f106115e15761010080835404028352916020019161160c565b820191906000526020600020905b8154815290600101906020018083116115ef57829003601f168201915b505050505081565b60008054906101000a900473ffffffffffffffffffffffffffffffffffffffff1673ffffffffffffffffffffffffffffffffffffffff163373ffffffffffffffffffffffffffffffffffffffff161461166c57600080fd5b61174f600260008373ffffffffffffffffffffffffffffffffffffffff1673ffffffffffffffffffffffffffffffffffffffff16815260200190815260200160002060030180546116bc9061251f565b80601f01602080910402602001604051908101604052809291908181526020018280546116e89061251f565b80156117355780601f1061170a57610100808354040283529160200191611735565b820191906000526020600020905b81548152906001019060200180831161171857829003601f168201915b5050505050604051806020016040528060008152506119f7565b156117915760048290806001815401808255809150506001900390600052602060002001600090919091909150908051906020019061178f929190611a12565b505b6000600260008373ffffffffffffffffffffffffffffffffffffffff1673ffffffffffffffffffffffffffffffffffffffff1681526020019081526020016000209050848160000190805190602001906117ec929190611a12565b5083816001019080519060200190611805929190611a12565b50818160020160006101000a81548173ffffffffffffffffffffffffffffffffffffffff021916908373ffffffffffffffffffffffffffffffffffffffff16021790555082816003019080519060200190611861929190611a12565b5060018160040160006101000a81548160ff0219169083151502179055506005829080600181540180825580915050600190039060005260206000200160009091909190916101000a81548173ffffffffffffffffffffffffffffffffffffffff021916908373ffffffffffffffffffffffffffffffffffffffff1602179055506001600360008473ffffffffffffffffffffffffffffffffffffffff1673ffffffffffffffffffffffffffffffffffffffff16815260200190815260200160002060006101000a81548160ff0219169083151502179055505050505050565b60008054906101000a900473ffffffffffffffffffffffffffffffffffffffff1673ffffffffffffffffffffffffffffffffffffffff163373ffffffffffffffffffffffffffffffffffffffff161461199957600080fd5b6000600260008373ffffffffffffffffffffffffffffffffffffffff1673ffffffffffffffffffffffffffffffffffffffff16815260200190815260200160002060040160006101000a81548160ff02191690831515021790555050565b60008180519060200120838051906020012014905092915050565b828054611a1e9061251f565b90600052602060002090601f016020900481019282611a405760008555611a87565b82601f10611a5957805160ff1916838001178555611a87565b82800160010185558215611a87579182015b82811115611a86578251825591602001919060010190611a6b565b5b509050611a949190611b6c565b5090565b6040518060a001604052806060815260200160608152602001600073ffffffffffffffffffffffffffffffffffffffff168152602001606081526020016000151581525090565b828054611aeb9061251f565b90600052602060002090601f016020900481019282611b0d5760008555611b5b565b82601f10611b1e5780548555611b5b565b82800160010185558215611b5b57600052602060002091601f016020900482015b82811115611b5a578254825591600101919060010190611b3f565b5b509050611b689190611b6c565b5090565b5b80821115611b85576000816000905550600101611b6d565b5090565b600073ffffffffffffffffffffffffffffffffffffffff82169050919050565b6000611bb482611b89565b9050919050565b611bc481611ba9565b82525050565b6000602082019050611bdf6000830184611bbb565b92915050565b6000604051905090565b600080fd5b600080fd5b6000819050919050565b611c0c81611bf9565b8114611c1757600080fd5b50565b600081359050611c2981611c03565b92915050565b600060208284031215611c4557611c44611bef565b5b6000611c5384828501611c1a565b91505092915050565b600080fd5b600080fd5b6000601f19601f8301169050919050565b7f4e487b7100000000000000000000000000000000000000000000000000000000600052604160045260246000fd5b611caf82611c66565b810181811067ffffffffffffffff82111715611cce57611ccd611c77565b5b80604052505050565b6000611ce1611be5565b9050611ced8282611ca6565b919050565b600067ffffffffffffffff821115611d0d57611d0c611c77565b5b611d1682611c66565b9050602081019050919050565b82818337600083830152505050565b6000611d45611d4084611cf2565b611cd7565b905082815260208101848484011115611d6157611d60611c61565b5b611d6c848285611d23565b509392505050565b600082601f830112611d8957611d88611c5c565b5b8135611d99848260208601611d32565b91505092915050565b611dab81611ba9565b8114611db657600080fd5b50565b600081359050611dc881611da2565b92915050565b60008060008060808587031215611de857611de7611bef565b5b600085013567ffffffffffffffff811115611e0657611e05611bf4565b5b611e1287828801611d74565b945050602085013567ffffffffffffffff811115611e3357611e32611bf4565b5b611e3f87828801611d74565b935050604085013567ffffffffffffffff811115611e6057611e5f611bf4565b5b611e6c87828801611d74565b9250506060611e7d87828801611db9565b91505092959194509250565b600081519050919050565b600082825260208201905092915050565b6000819050602082019050919050565b600081519050919050565b600082825260208201905092915050565b60005b83811015611eef578082015181840152602081019050611ed4565b83811115611efe576000848401525b50505050565b6000611f0f82611eb5565b611f198185611ec0565b9350611f29818560208601611ed1565b611f3281611c66565b840191505092915050565b6000611f498383611f04565b905092915050565b6000602082019050919050565b6000611f6982611e89565b611f738185611e94565b935083602082028501611f8585611ea5565b8060005b85811015611fc15784840389528151611fa28582611f3d565b9450611fad83611f51565b925060208a01995050600181019050611f89565b50829750879550505050505092915050565b60006020820190508181036000830152611fed8184611f5e565b905092915050565b60006020828403121561200b5761200a611bef565b5b600061201984828501611db9565b91505092915050565b61202b81611bf9565b82525050565b60006020820190506120466000830184612022565b92915050565b600082825260208201905092915050565b600061206882611eb5565b612072818561204c565b9350612082818560208601611ed1565b61208b81611c66565b840191505092915050565b600060208201905081810360008301526120b0818461205d565b905092915050565b60008115159050919050565b6120cd816120b8565b82525050565b600060a08201905081810360008301526120ed818861205d565b90508181036020830152612101818761205d565b90506121106040830186611bbb565b8181036060830152612122818561205d565b905061213160808301846120c4565b9695505050505050565b600081519050919050565b600082825260208201905092915050565b6000819050602082019050919050565b61217081611ba9565b82525050565b60006121828383612167565b60208301905092915050565b6000602082019050919050565b60006121a68261213b565b6121b08185612146565b93506121bb83612157565b8060005b838110156121ec5781516121d38882612176565b97506121de8361218e565b9250506001810190506121bf565b5085935050505092915050565b60006020820190508181036000830152612213818461219b565b905092915050565b612224816120b8565b82525050565b600060a08301600083015184820360008601526122478282611f04565b915050602083015184820360208601526122618282611f04565b91505060408301516122766040860182612167565b506060830151848203606086015261228e8282611f04565b91505060808301516122a3608086018261221b565b508091505092915050565b600060208201905081810360008301526122c8818461222a565b905092915050565b60006020820190506122e560008301846120c4565b92915050565b60008060008060008060c0878903121561230857612307611bef565b5b600087013567ffffffffffffffff81111561232657612325611bf4565b5b61233289828a01611d74565b965050602087013567ffffffffffffffff81111561235357612352611bf4565b5b61235f89828a01611d74565b955050604061237089828a01611db9565b945050606087013567ffffffffffffffff81111561239157612390611bf4565b5b61239d89828a01611d74565b93505060806123ae89828a01611db9565b92505060a087013567ffffffffffffffff8111156123cf576123ce611bf4565b5b6123db89828a01611d74565b9150509295509295509295565b6000602082840312156123fe576123fd611bef565b5b600082013567ffffffffffffffff81111561241c5761241b611bf4565b5b61242884828501611d74565b91505092915050565b600061014082019050818103600083015261244c818d61205d565b90508181036020830152612460818c61205d565b90508181036040830152612474818b61205d565b9050612483606083018a611bbb565b8181036080830152612495818961205d565b90506124a460a08301886120c4565b6124b160c08301876120c4565b6124be60e0830186611bbb565b8181036101008301526124d1818561205d565b90506124e1610120830184611bbb565b9b9a5050505050505050505050565b7f4e487b7100000000000000000000000000000000000000000000000000000000600052602260045260246000fd5b6000600282049050600182168061253757607f821691505b6020821081141561254b5761254a6124f0565b5b50919050565b600081905092915050565b600061256782611eb5565b6125718185612551565b9350612581818560208601611ed1565b80840191505092915050565b6000612599828461255c565b915081905092915050565b7f4e487b7100000000000000000000000000000000000000000000000000000000600052601160045260246000fd5b60006125de82611bf9565b91506125e983611bf9565b9250827fffffffffffffffffffffffffffffffffffffffffffffffffffffffffffffffff0382111561261e5761261d6125a4565b5b82820190509291505056fea2646970667358221220889fbda4094e2d81e22a02696ad2641f362e11613b6a1dd1af8b0f47e47f2a8c64736f6c634300080a0033","opcodes":"PUSH1 0x80 PUSH1 0x40 MSTORE CALLVALUE DUP1 ISZERO PUSH3 0x11 JUMPI PUSH1 0x0 DUP1 REVERT JUMPDEST POP PUSH1 0x40 MLOAD PUSH3 0x2A11 CODESIZE SUB DUP1 PUSH3 0x2A11 DUP4 CODECOPY DUP2 DUP2 ADD PUSH1 0x40 MSTORE DUP2 ADD SWAP1 PUSH3 0x37 SWAP2 SWAP1 PUSH3 0x2EC JUMP JUMPDEST DUP1 PUSH1 0x1 SWAP1 DUP1 MLOAD SWAP1 PUSH1 0x20 ADD SWAP1 PUSH3 0x4F SWAP3 SWAP2 SWAP1 PUSH3 0x9F JUMP JUMPDEST POP CALLER PUSH1 0x0 DUP1 PUSH2 0x100 EXP DUP2 SLOAD DUP2 PUSH20 0xFFFFFFFFFFFFFFFFFFFFFFFFFFFFFFFFFFFFFFFF MUL NOT AND SWAP1 DUP4 PUSH20 0xFFFFFFFFFFFFFFFFFFFFFFFFFFFFFFFFFFFFFFFF AND MUL OR SWAP1 SSTORE POP PUSH1 0x0 PUSH1 0x9 DUP2 SWAP1 SSTORE POP POP PUSH3 0x3A2 JUMP JUMPDEST DUP3 DUP1 SLOAD PUSH3 0xAD SWAP1 PUSH3 0x36C JUMP JUMPDEST SWAP1 PUSH1 0x0 MSTORE PUSH1 0x20 PUSH1 0x0 KECCAK256 SWAP1 PUSH1 0x1F ADD PUSH1 0x20 SWAP1 DIV DUP2 ADD SWAP3 DUP3 PUSH3 0xD1 JUMPI PUSH1 0x0 DUP6 SSTORE PUSH3 0x11D JUMP JUMPDEST DUP3 PUSH1 0x1F LT PUSH3 0xEC JUMPI DUP1 MLOAD PUSH1 0xFF NOT AND DUP4 DUP1 ADD OR DUP6 SSTORE PUSH3 0x11D JUMP JUMPDEST DUP3 DUP1 ADD PUSH1 0x1 ADD DUP6 SSTORE DUP3 ISZERO PUSH3 0x11D JUMPI SWAP2 DUP3 ADD JUMPDEST DUP3 DUP2 GT ISZERO PUSH3 0x11C JUMPI DUP3 MLOAD DUP3 SSTORE SWAP2 PUSH1 0x20 ADD SWAP2 SWAP1 PUSH1 0x1 ADD SWAP1 PUSH3 0xFF JUMP JUMPDEST JUMPDEST POP SWAP1 POP PUSH3 0x12C SWAP2 SWAP1 PUSH3 0x130 JUMP JUMPDEST POP SWAP1 JUMP JUMPDEST JUMPDEST DUP1 DUP3 GT ISZERO PUSH3 0x14B JUMPI PUSH1 0x0 DUP2 PUSH1 0x0 SWAP1 SSTORE POP PUSH1 0x1 ADD PUSH3 0x131 JUMP JUMPDEST POP SWAP1 JUMP JUMPDEST PUSH1 0x0 PUSH1 0x40 MLOAD SWAP1 POP SWAP1 JUMP JUMPDEST PUSH1 0x0 DUP1 REVERT JUMPDEST PUSH1 0x0 DUP1 REVERT JUMPDEST PUSH1 0x0 DUP1 REVERT JUMPDEST PUSH1 0x0 DUP1 REVERT JUMPDEST PUSH1 0x0 PUSH1 0x1F NOT PUSH1 0x1F DUP4 ADD AND SWAP1 POP SWAP2 SWAP1 POP JUMP JUMPDEST PUSH32 0x4E487B7100000000000000000000000000000000000000000000000000000000 PUSH1 0x0 MSTORE PUSH1 0x41 PUSH1 0x4 MSTORE PUSH1 0x24 PUSH1 0x0 REVERT JUMPDEST PUSH3 0x1B8 DUP3 PUSH3 0x16D JUMP JUMPDEST DUP2 ADD DUP2 DUP2 LT PUSH8 0xFFFFFFFFFFFFFFFF DUP3 GT OR ISZERO PUSH3 0x1DA JUMPI PUSH3 0x1D9 PUSH3 0x17E JUMP JUMPDEST JUMPDEST DUP1 PUSH1 0x40 MSTORE POP POP POP JUMP JUMPDEST PUSH1 0x0 PUSH3 0x1EF PUSH3 0x14F JUMP JUMPDEST SWAP1 POP PUSH3 0x1FD DUP3 DUP3 PUSH3 0x1AD JUMP JUMPDEST SWAP2 SWAP1 POP JUMP JUMPDEST PUSH1 0x0 PUSH8 0xFFFFFFFFFFFFFFFF DUP3 GT ISZERO PUSH3 0x220 JUMPI PUSH3 0x21F PUSH3 0x17E JUMP JUMPDEST JUMPDEST PUSH3 0x22B DUP3 PUSH3 0x16D JUMP JUMPDEST SWAP1 POP PUSH1 0x20 DUP2 ADD SWAP1 POP SWAP2 SWAP1 POP JUMP JUMPDEST PUSH1 0x0 JUMPDEST DUP4 DUP2 LT ISZERO PUSH3 0x258 JUMPI DUP1 DUP3 ADD MLOAD DUP2 DUP5 ADD MSTORE PUSH1 0x20 DUP2 ADD SWAP1 POP PUSH3 0x23B JUMP JUMPDEST DUP4 DUP2 GT ISZERO PUSH3 0x268 JUMPI PUSH1 0x0 DUP5 DUP5 ADD MSTORE JUMPDEST POP POP POP POP JUMP JUMPDEST PUSH1 0x0 PUSH3 0x285 PUSH3 0x27F DUP5 PUSH3 0x202 JUMP JUMPDEST PUSH3 0x1E3 JUMP JUMPDEST SWAP1 POP DUP3 DUP2 MSTORE PUSH1 0x20 DUP2 ADD DUP5 DUP5 DUP5 ADD GT ISZERO PUSH3 0x2A4 JUMPI PUSH3 0x2A3 PUSH3 0x168 JUMP JUMPDEST JUMPDEST PUSH3 0x2B1 DUP5 DUP3 DUP6 PUSH3 0x238 JUMP JUMPDEST POP SWAP4 SWAP3 POP POP POP JUMP JUMPDEST PUSH1 0x0 DUP3 PUSH1 0x1F DUP4 ADD SLT PUSH3 0x2D1 JUMPI PUSH3 0x2D0 PUSH3 0x163 JUMP JUMPDEST JUMPDEST DUP2 MLOAD PUSH3 0x2E3 DUP5 DUP3 PUSH1 0x20 DUP7 ADD PUSH3 0x26E JUMP JUMPDEST SWAP2 POP POP SWAP3 SWAP2 POP POP JUMP JUMPDEST PUSH1 0x0 PUSH1 0x20 DUP3 DUP5 SUB SLT ISZERO PUSH3 0x305 JUMPI PUSH3 0x304 PUSH3 0x159 JUMP JUMPDEST JUMPDEST PUSH1 0x0 DUP3 ADD MLOAD PUSH8 0xFFFFFFFFFFFFFFFF DUP2 GT ISZERO PUSH3 0x326 JUMPI PUSH3 0x325 PUSH3 0x15E JUMP JUMPDEST JUMPDEST PUSH3 0x334 DUP5 DUP3 DUP6 ADD PUSH3 0x2B9 JUMP JUMPDEST SWAP2 POP POP SWAP3 SWAP2 POP POP JUMP JUMPDEST PUSH32 0x4E487B7100000000000000000000000000000000000000000000000000000000 PUSH1 0x0 MSTORE PUSH1 0x22 PUSH1 0x4 MSTORE PUSH1 0x24 PUSH1 0x0 REVERT JUMPDEST PUSH1 0x0 PUSH1 0x2 DUP3 DIV SWAP1 POP PUSH1 0x1 DUP3 AND DUP1 PUSH3 0x385 JUMPI PUSH1 0x7F DUP3 AND SWAP2 POP JUMPDEST PUSH1 0x20 DUP3 LT DUP2 EQ ISZERO PUSH3 0x39C JUMPI PUSH3 0x39B PUSH3 0x33D JUMP JUMPDEST JUMPDEST POP SWAP2 SWAP1 POP JUMP JUMPDEST PUSH2 0x265F DUP1 PUSH3 0x3B2 PUSH1 0x0 CODECOPY PUSH1 0x0 RETURN INVALID PUSH1 0x80 PUSH1 0x40 MSTORE CALLVALUE DUP1 ISZERO PUSH2 0x10 JUMPI PUSH1 0x0 DUP1 REVERT JUMPDEST POP PUSH1 0x4 CALLDATASIZE LT PUSH2 0x116 JUMPI PUSH1 0x0 CALLDATALOAD PUSH1 0xE0 SHR DUP1 PUSH4 0x64DDFA29 GT PUSH2 0xA2 JUMPI DUP1 PUSH4 0xB1C8AD0D GT PUSH2 0x71 JUMPI DUP1 PUSH4 0xB1C8AD0D EQ PUSH2 0x2E7 JUMPI DUP1 PUSH4 0xC4A0086F EQ PUSH2 0x320 JUMPI DUP1 PUSH4 0xCBD5121C EQ PUSH2 0x350 JUMPI DUP1 PUSH4 0xCDDB61B7 EQ PUSH2 0x380 JUMPI DUP1 PUSH4 0xDF6FA20E EQ PUSH2 0x39C JUMPI PUSH2 0x116 JUMP JUMPDEST DUP1 PUSH4 0x64DDFA29 EQ PUSH2 0x25F JUMPI DUP1 PUSH4 0x64EFB22B EQ PUSH2 0x27D JUMPI DUP1 PUSH4 0x8B5C9335 EQ PUSH2 0x2AD JUMPI DUP1 PUSH4 0xADE79551 EQ PUSH2 0x2CB JUMPI PUSH2 0x116 JUMP JUMPDEST DUP1 PUSH4 0x1AF1A768 GT PUSH2 0xE9 JUMPI DUP1 PUSH4 0x1AF1A768 EQ PUSH2 0x1A3 JUMPI DUP1 PUSH4 0x1C9AFD0F EQ PUSH2 0x1BF JUMPI DUP1 PUSH4 0x2A979F31 EQ PUSH2 0x1DD JUMPI DUP1 PUSH4 0x2DE8F46D EQ PUSH2 0x20D JUMPI DUP1 PUSH4 0x429B62E5 EQ PUSH2 0x22B JUMPI PUSH2 0x116 JUMP JUMPDEST DUP1 PUSH4 0x45B3034 EQ PUSH2 0x11B JUMPI DUP1 PUSH4 0x13718C97 EQ PUSH2 0x139 JUMPI DUP1 PUSH4 0x1510F0D5 EQ PUSH2 0x169 JUMPI DUP1 PUSH4 0x1A994ED8 EQ PUSH2 0x185 JUMPI JUMPDEST PUSH1 0x0 DUP1 REVERT JUMPDEST PUSH2 0x123 PUSH2 0x3B8 JUMP JUMPDEST PUSH1 0x40 MLOAD PUSH2 0x130 SWAP2 SWAP1 PUSH2 0x1BCA JUMP JUMPDEST PUSH1 0x40 MLOAD DUP1 SWAP2 SUB SWAP1 RETURN JUMPDEST PUSH2 0x153 PUSH1 0x4 DUP1 CALLDATASIZE SUB DUP2 ADD SWAP1 PUSH2 0x14E SWAP2 SWAP1 PUSH2 0x1C2F JUMP JUMPDEST PUSH2 0x3DC JUMP JUMPDEST PUSH1 0x40 MLOAD PUSH2 0x160 SWAP2 SWAP1 PUSH2 0x1BCA JUMP JUMPDEST PUSH1 0x40 MLOAD DUP1 SWAP2 SUB SWAP1 RETURN JUMPDEST PUSH2 0x183 PUSH1 0x4 DUP1 CALLDATASIZE SUB DUP2 ADD SWAP1 PUSH2 0x17E SWAP2 SWAP1 PUSH2 0x1DCE JUMP JUMPDEST PUSH2 0x41B JUMP JUMPDEST STOP JUMPDEST PUSH2 0x18D PUSH2 0x508 JUMP JUMPDEST PUSH1 0x40 MLOAD PUSH2 0x19A SWAP2 SWAP1 PUSH2 0x1FD3 JUMP JUMPDEST PUSH1 0x40 MLOAD DUP1 SWAP2 SUB SWAP1 RETURN JUMPDEST PUSH2 0x1BD PUSH1 0x4 DUP1 CALLDATASIZE SUB DUP2 ADD SWAP1 PUSH2 0x1B8 SWAP2 SWAP1 PUSH2 0x1FF5 JUMP JUMPDEST PUSH2 0x637 JUMP JUMPDEST STOP JUMPDEST PUSH2 0x1C7 PUSH2 0x6ED JUMP JUMPDEST PUSH1 0x40 MLOAD PUSH2 0x1D4 SWAP2 SWAP1 PUSH2 0x2031 JUMP JUMPDEST PUSH1 0x40 MLOAD DUP1 SWAP2 SUB SWAP1 RETURN JUMPDEST PUSH2 0x1F7 PUSH1 0x4 DUP1 CALLDATASIZE SUB DUP2 ADD SWAP1 PUSH2 0x1F2 SWAP2 SWAP1 PUSH2 0x1C2F JUMP JUMPDEST PUSH2 0x6F3 JUMP JUMPDEST PUSH1 0x40 MLOAD PUSH2 0x204 SWAP2 SWAP1 PUSH2 0x2096 JUMP JUMPDEST PUSH1 0x40 MLOAD DUP1 SWAP2 SUB SWAP1 RETURN JUMPDEST PUSH2 0x215 PUSH2 0x79F JUMP JUMPDEST PUSH1 0x40 MLOAD PUSH2 0x222 SWAP2 SWAP1 PUSH2 0x2096 JUMP JUMPDEST PUSH1 0x40 MLOAD DUP1 SWAP2 SUB SWAP1 RETURN JUMPDEST PUSH2 0x245 PUSH1 0x4 DUP1 CALLDATASIZE SUB DUP2 ADD SWAP1 PUSH2 0x240 SWAP2 SWAP1 PUSH2 0x1FF5 JUMP JUMPDEST PUSH2 0x889 JUMP JUMPDEST PUSH1 0x40 MLOAD PUSH2 0x256 SWAP6 SWAP5 SWAP4 SWAP3 SWAP2 SWAP1 PUSH2 0x20D3 JUMP JUMPDEST PUSH1 0x40 MLOAD DUP1 SWAP2 SUB SWAP1 RETURN JUMPDEST PUSH2 0x267 PUSH2 0xA84 JUMP JUMPDEST PUSH1 0x40 MLOAD PUSH2 0x274 SWAP2 SWAP1 PUSH2 0x21F9 JUMP JUMPDEST PUSH1 0x40 MLOAD DUP1 SWAP2 SUB SWAP1 RETURN JUMPDEST PUSH2 0x297 PUSH1 0x4 DUP1 CALLDATASIZE SUB DUP2 ADD SWAP1 PUSH2 0x292 SWAP2 SWAP1 PUSH2 0x1FF5 JUMP JUMPDEST PUSH2 0xB6A JUMP JUMPDEST PUSH1 0x40 MLOAD PUSH2 0x2A4 SWAP2 SWAP1 PUSH2 0x22AE JUMP JUMPDEST PUSH1 0x40 MLOAD DUP1 SWAP2 SUB SWAP1 RETURN JUMPDEST PUSH2 0x2B5 PUSH2 0xE42 JUMP JUMPDEST PUSH1 0x40 MLOAD PUSH2 0x2C2 SWAP2 SWAP1 PUSH2 0x22D0 JUMP JUMPDEST PUSH1 0x40 MLOAD DUP1 SWAP2 SUB SWAP1 RETURN JUMPDEST PUSH2 0x2E5 PUSH1 0x4 DUP1 CALLDATASIZE SUB DUP2 ADD SWAP1 PUSH2 0x2E0 SWAP2 SWAP1 PUSH2 0x22EB JUMP JUMPDEST PUSH2 0xEA1 JUMP JUMPDEST STOP JUMPDEST PUSH2 0x301 PUSH1 0x4 DUP1 CALLDATASIZE SUB DUP2 ADD SWAP1 PUSH2 0x2FC SWAP2 SWAP1 PUSH2 0x23E8 JUMP JUMPDEST PUSH2 0x11A6 JUMP JUMPDEST PUSH1 0x40 MLOAD PUSH2 0x317 SWAP11 SWAP10 SWAP9 SWAP8 SWAP7 SWAP6 SWAP5 SWAP4 SWAP3 SWAP2 SWAP1 PUSH2 0x2431 JUMP JUMPDEST PUSH1 0x40 MLOAD DUP1 SWAP2 SUB SWAP1 RETURN JUMPDEST PUSH2 0x33A PUSH1 0x4 DUP1 CALLDATASIZE SUB DUP2 ADD SWAP1 PUSH2 0x335 SWAP2 SWAP1 PUSH2 0x23E8 JUMP JUMPDEST PUSH2 0x1532 JUMP JUMPDEST PUSH1 0x40 MLOAD PUSH2 0x347 SWAP2 SWAP1 PUSH2 0x22D0 JUMP JUMPDEST PUSH1 0x40 MLOAD DUP1 SWAP2 SUB SWAP1 RETURN JUMPDEST PUSH2 0x36A PUSH1 0x4 DUP1 CALLDATASIZE SUB DUP2 ADD SWAP1 PUSH2 0x365 SWAP2 SWAP1 PUSH2 0x1C2F JUMP JUMPDEST PUSH2 0x1568 JUMP JUMPDEST PUSH1 0x40 MLOAD PUSH2 0x377 SWAP2 SWAP1 PUSH2 0x2096 JUMP JUMPDEST PUSH1 0x40 MLOAD DUP1 SWAP2 SUB SWAP1 RETURN JUMPDEST PUSH2 0x39A PUSH1 0x4 DUP1 CALLDATASIZE SUB DUP2 ADD SWAP1 PUSH2 0x395 SWAP2 SWAP1 PUSH2 0x1DCE JUMP JUMPDEST PUSH2 0x1614 JUMP JUMPDEST STOP JUMPDEST PUSH2 0x3B6 PUSH1 0x4 DUP1 CALLDATASIZE SUB DUP2 ADD SWAP1 PUSH2 0x3B1 SWAP2 SWAP1 PUSH2 0x1FF5 JUMP JUMPDEST PUSH2 0x1941 JUMP JUMPDEST STOP JUMPDEST PUSH1 0x0 DUP1 SLOAD SWAP1 PUSH2 0x100 EXP SWAP1 DIV PUSH20 0xFFFFFFFFFFFFFFFFFFFFFFFFFFFFFFFFFFFFFFFF AND DUP2 JUMP JUMPDEST PUSH1 0x5 DUP2 DUP2 SLOAD DUP2 LT PUSH2 0x3EC JUMPI PUSH1 0x0 DUP1 REVERT JUMPDEST SWAP1 PUSH1 0x0 MSTORE PUSH1 0x20 PUSH1 0x0 KECCAK256 ADD PUSH1 0x0 SWAP2 POP SLOAD SWAP1 PUSH2 0x100 EXP SWAP1 DIV PUSH20 0xFFFFFFFFFFFFFFFFFFFFFFFFFFFFFFFFFFFFFFFF AND DUP2 JUMP JUMPDEST PUSH1 0x0 DUP1 SLOAD SWAP1 PUSH2 0x100 EXP SWAP1 DIV PUSH20 0xFFFFFFFFFFFFFFFFFFFFFFFFFFFFFFFFFFFFFFFF AND PUSH20 0xFFFFFFFFFFFFFFFFFFFFFFFFFFFFFFFFFFFFFFFF AND CALLER PUSH20 0xFFFFFFFFFFFFFFFFFFFFFFFFFFFFFFFFFFFFFFFF AND EQ PUSH2 0x473 JUMPI PUSH1 0x0 DUP1 REVERT JUMPDEST PUSH1 0x0 PUSH1 0x2 PUSH1 0x0 DUP4 PUSH20 0xFFFFFFFFFFFFFFFFFFFFFFFFFFFFFFFFFFFFFFFF AND PUSH20 0xFFFFFFFFFFFFFFFFFFFFFFFFFFFFFFFFFFFFFFFF AND DUP2 MSTORE PUSH1 0x20 ADD SWAP1 DUP2 MSTORE PUSH1 0x20 ADD PUSH1 0x0 KECCAK256 SWAP1 POP DUP5 DUP2 PUSH1 0x0 ADD SWAP1 DUP1 MLOAD SWAP1 PUSH1 0x20 ADD SWAP1 PUSH2 0x4CE SWAP3 SWAP2 SWAP1 PUSH2 0x1A12 JUMP JUMPDEST POP DUP4 DUP2 PUSH1 0x1 ADD SWAP1 DUP1 MLOAD SWAP1 PUSH1 0x20 ADD SWAP1 PUSH2 0x4E7 SWAP3 SWAP2 SWAP1 PUSH2 0x1A12 JUMP JUMPDEST POP DUP3 DUP2 PUSH1 0x3 ADD SWAP1 DUP1 MLOAD SWAP1 PUSH1 0x20 ADD SWAP1 PUSH2 0x500 SWAP3 SWAP2 SWAP1 PUSH2 0x1A12 JUMP JUMPDEST POP POP POP POP POP POP JUMP JUMPDEST PUSH1 0x60 PUSH1 0x3 PUSH1 0x0 CALLER PUSH20 0xFFFFFFFFFFFFFFFFFFFFFFFFFFFFFFFFFFFFFFFF AND PUSH20 0xFFFFFFFFFFFFFFFFFFFFFFFFFFFFFFFFFFFFFFFF AND DUP2 MSTORE PUSH1 0x20 ADD SWAP1 DUP2 MSTORE PUSH1 0x20 ADD PUSH1 0x0 KECCAK256 PUSH1 0x0 SWAP1 SLOAD SWAP1 PUSH2 0x100 EXP SWAP1 DIV PUSH1 0xFF AND PUSH2 0x560 JUMPI PUSH1 0x0 DUP1 REVERT JUMPDEST PUSH1 0x6 DUP1 SLOAD DUP1 PUSH1 0x20 MUL PUSH1 0x20 ADD PUSH1 0x40 MLOAD SWAP1 DUP2 ADD PUSH1 0x40 MSTORE DUP1 SWAP3 SWAP2 SWAP1 DUP2 DUP2 MSTORE PUSH1 0x20 ADD PUSH1 0x0 SWAP1 JUMPDEST DUP3 DUP3 LT ISZERO PUSH2 0x62E JUMPI DUP4 DUP3 SWAP1 PUSH1 0x0 MSTORE PUSH1 0x20 PUSH1 0x0 KECCAK256 ADD DUP1 SLOAD PUSH2 0x5A1 SWAP1 PUSH2 0x251F JUMP JUMPDEST DUP1 PUSH1 0x1F ADD PUSH1 0x20 DUP1 SWAP2 DIV MUL PUSH1 0x20 ADD PUSH1 0x40 MLOAD SWAP1 DUP2 ADD PUSH1 0x40 MSTORE DUP1 SWAP3 SWAP2 SWAP1 DUP2 DUP2 MSTORE PUSH1 0x20 ADD DUP3 DUP1 SLOAD PUSH2 0x5CD SWAP1 PUSH2 0x251F JUMP JUMPDEST DUP1 ISZERO PUSH2 0x61A JUMPI DUP1 PUSH1 0x1F LT PUSH2 0x5EF JUMPI PUSH2 0x100 DUP1 DUP4 SLOAD DIV MUL DUP4 MSTORE SWAP2 PUSH1 0x20 ADD SWAP2 PUSH2 0x61A JUMP JUMPDEST DUP3 ADD SWAP2 SWAP1 PUSH1 0x0 MSTORE PUSH1 0x20 PUSH1 0x0 KECCAK256 SWAP1 JUMPDEST DUP2 SLOAD DUP2 MSTORE SWAP1 PUSH1 0x1 ADD SWAP1 PUSH1 0x20 ADD DUP1 DUP4 GT PUSH2 0x5FD JUMPI DUP3 SWAP1 SUB PUSH1 0x1F AND DUP3 ADD SWAP2 JUMPDEST POP POP POP POP POP DUP2 MSTORE PUSH1 0x20 ADD SWAP1 PUSH1 0x1 ADD SWAP1 PUSH2 0x582 JUMP JUMPDEST POP POP POP POP SWAP1 POP SWAP1 JUMP JUMPDEST PUSH1 0x0 DUP1 SLOAD SWAP1 PUSH2 0x100 EXP SWAP1 DIV PUSH20 0xFFFFFFFFFFFFFFFFFFFFFFFFFFFFFFFFFFFFFFFF AND PUSH20 0xFFFFFFFFFFFFFFFFFFFFFFFFFFFFFFFFFFFFFFFF AND CALLER PUSH20 0xFFFFFFFFFFFFFFFFFFFFFFFFFFFFFFFFFFFFFFFF AND EQ PUSH2 0x68F JUMPI PUSH1 0x0 DUP1 REVERT JUMPDEST PUSH1 0x1 PUSH1 0x2 PUSH1 0x0 DUP4 PUSH20 0xFFFFFFFFFFFFFFFFFFFFFFFFFFFFFFFFFFFFFFFF AND PUSH20 0xFFFFFFFFFFFFFFFFFFFFFFFFFFFFFFFFFFFFFFFF AND DUP2 MSTORE PUSH1 0x20 ADD SWAP1 DUP2 MSTORE PUSH1 0x20 ADD PUSH1 0x0 KECCAK256 PUSH1 0x4 ADD PUSH1 0x0 PUSH2 0x100 EXP DUP2 SLOAD DUP2 PUSH1 0xFF MUL NOT AND SWAP1 DUP4 ISZERO ISZERO MUL OR SWAP1 SSTORE POP POP JUMP JUMPDEST PUSH1 0x9 SLOAD DUP2 JUMP JUMPDEST PUSH1 0x4 DUP2 DUP2 SLOAD DUP2 LT PUSH2 0x703 JUMPI PUSH1 0x0 DUP1 REVERT JUMPDEST SWAP1 PUSH1 0x0 MSTORE PUSH1 0x20 PUSH1 0x0 KECCAK256 ADD PUSH1 0x0 SWAP2 POP SWAP1 POP DUP1 SLOAD PUSH2 0x71E SWAP1 PUSH2 0x251F JUMP JUMPDEST DUP1 PUSH1 0x1F ADD PUSH1 0x20 DUP1 SWAP2 DIV MUL PUSH1 0x20 ADD PUSH1 0x40 MLOAD SWAP1 DUP2 ADD PUSH1 0x40 MSTORE DUP1 SWAP3 SWAP2 SWAP1 DUP2 DUP2 MSTORE PUSH1 0x20 ADD DUP3 DUP1 SLOAD PUSH2 0x74A SWAP1 PUSH2 0x251F JUMP JUMPDEST DUP1 ISZERO PUSH2 0x797 JUMPI DUP1 PUSH1 0x1F LT PUSH2 0x76C JUMPI PUSH2 0x100 DUP1 DUP4 SLOAD DIV MUL DUP4 MSTORE SWAP2 PUSH1 0x20 ADD SWAP2 PUSH2 0x797 JUMP JUMPDEST DUP3 ADD SWAP2 SWAP1 PUSH1 0x0 MSTORE PUSH1 0x20 PUSH1 0x0 KECCAK256 SWAP1 JUMPDEST DUP2 SLOAD DUP2 MSTORE SWAP1 PUSH1 0x1 ADD SWAP1 PUSH1 0x20 ADD DUP1 DUP4 GT PUSH2 0x77A JUMPI DUP3 SWAP1 SUB PUSH1 0x1F AND DUP3 ADD SWAP2 JUMPDEST POP POP POP POP POP DUP2 JUMP JUMPDEST PUSH1 0x60 PUSH1 0x0 DUP1 SLOAD SWAP1 PUSH2 0x100 EXP SWAP1 DIV PUSH20 0xFFFFFFFFFFFFFFFFFFFFFFFFFFFFFFFFFFFFFFFF AND PUSH20 0xFFFFFFFFFFFFFFFFFFFFFFFFFFFFFFFFFFFFFFFF AND CALLER PUSH20 0xFFFFFFFFFFFFFFFFFFFFFFFFFFFFFFFFFFFFFFFF AND EQ PUSH2 0x7F9 JUMPI PUSH1 0x0 DUP1 REVERT JUMPDEST PUSH1 0x1 DUP1 SLOAD PUSH2 0x806 SWAP1 PUSH2 0x251F JUMP JUMPDEST DUP1 PUSH1 0x1F ADD PUSH1 0x20 DUP1 SWAP2 DIV MUL PUSH1 0x20 ADD PUSH1 0x40 MLOAD SWAP1 DUP2 ADD PUSH1 0x40 MSTORE DUP1 SWAP3 SWAP2 SWAP1 DUP2 DUP2 MSTORE PUSH1 0x20 ADD DUP3 DUP1 SLOAD PUSH2 0x832 SWAP1 PUSH2 0x251F JUMP JUMPDEST DUP1 ISZERO PUSH2 0x87F JUMPI DUP1 PUSH1 0x1F LT PUSH2 0x854 JUMPI PUSH2 0x100 DUP1 DUP4 SLOAD DIV MUL DUP4 MSTORE SWAP2 PUSH1 0x20 ADD SWAP2 PUSH2 0x87F JUMP JUMPDEST DUP3 ADD SWAP2 SWAP1 PUSH1 0x0 MSTORE PUSH1 0x20 PUSH1 0x0 KECCAK256 SWAP1 JUMPDEST DUP2 SLOAD DUP2 MSTORE SWAP1 PUSH1 0x1 ADD SWAP1 PUSH1 0x20 ADD DUP1 DUP4 GT PUSH2 0x862 JUMPI DUP3 SWAP1 SUB PUSH1 0x1F AND DUP3 ADD SWAP2 JUMPDEST POP POP POP POP POP SWAP1 POP SWAP1 JUMP JUMPDEST PUSH1 0x2 PUSH1 0x20 MSTORE DUP1 PUSH1 0x0 MSTORE PUSH1 0x40 PUSH1 0x0 KECCAK256 PUSH1 0x0 SWAP2 POP SWAP1 POP DUP1 PUSH1 0x0 ADD DUP1 SLOAD PUSH2 0x8AC SWAP1 PUSH2 0x251F JUMP JUMPDEST DUP1 PUSH1 0x1F ADD PUSH1 0x20 DUP1 SWAP2 DIV MUL PUSH1 0x20 ADD PUSH1 0x40 MLOAD SWAP1 DUP2 ADD PUSH1 0x40 MSTORE DUP1 SWAP3 SWAP2 SWAP1 DUP2 DUP2 MSTORE PUSH1 0x20 ADD DUP3 DUP1 SLOAD PUSH2 0x8D8 SWAP1 PUSH2 0x251F JUMP JUMPDEST DUP1 ISZERO PUSH2 0x925 JUMPI DUP1 PUSH1 0x1F LT PUSH2 0x8FA JUMPI PUSH2 0x100 DUP1 DUP4 SLOAD DIV MUL DUP4 MSTORE SWAP2 PUSH1 0x20 ADD SWAP2 PUSH2 0x925 JUMP JUMPDEST DUP3 ADD SWAP2 SWAP1 PUSH1 0x0 MSTORE PUSH1 0x20 PUSH1 0x0 KECCAK256 SWAP1 JUMPDEST DUP2 SLOAD DUP2 MSTORE SWAP1 PUSH1 0x1 ADD SWAP1 PUSH1 0x20 ADD DUP1 DUP4 GT PUSH2 0x908 JUMPI DUP3 SWAP1 SUB PUSH1 0x1F AND DUP3 ADD SWAP2 JUMPDEST POP POP POP POP POP SWAP1 DUP1 PUSH1 0x1 ADD DUP1 SLOAD PUSH2 0x93A SWAP1 PUSH2 0x251F JUMP JUMPDEST DUP1 PUSH1 0x1F ADD PUSH1 0x20 DUP1 SWAP2 DIV MUL PUSH1 0x20 ADD PUSH1 0x40 MLOAD SWAP1 DUP2 ADD PUSH1 0x40 MSTORE DUP1 SWAP3 SWAP2 SWAP1 DUP2 DUP2 MSTORE PUSH1 0x20 ADD DUP3 DUP1 SLOAD PUSH2 0x966 SWAP1 PUSH2 0x251F JUMP JUMPDEST DUP1 ISZERO PUSH2 0x9B3 JUMPI DUP1 PUSH1 0x1F LT PUSH2 0x988 JUMPI PUSH2 0x100 DUP1 DUP4 SLOAD DIV MUL DUP4 MSTORE SWAP2 PUSH1 0x20 ADD SWAP2 PUSH2 0x9B3 JUMP JUMPDEST DUP3 ADD SWAP2 SWAP1 PUSH1 0x0 MSTORE PUSH1 0x20 PUSH1 0x0 KECCAK256 SWAP1 JUMPDEST DUP2 SLOAD DUP2 MSTORE SWAP1 PUSH1 0x1 ADD SWAP1 PUSH1 0x20 ADD DUP1 DUP4 GT PUSH2 0x996 JUMPI DUP3 SWAP1 SUB PUSH1 0x1F AND DUP3 ADD SWAP2 JUMPDEST POP POP POP POP POP SWAP1 DUP1 PUSH1 0x2 ADD PUSH1 0x0 SWAP1 SLOAD SWAP1 PUSH2 0x100 EXP SWAP1 DIV PUSH20 0xFFFFFFFFFFFFFFFFFFFFFFFFFFFFFFFFFFFFFFFF AND SWAP1 DUP1 PUSH1 0x3 ADD DUP1 SLOAD PUSH2 0x9EE SWAP1 PUSH2 0x251F JUMP JUMPDEST DUP1 PUSH1 0x1F ADD PUSH1 0x20 DUP1 SWAP2 DIV MUL PUSH1 0x20 ADD PUSH1 0x40 MLOAD SWAP1 DUP2 ADD PUSH1 0x40 MSTORE DUP1 SWAP3 SWAP2 SWAP1 DUP2 DUP2 MSTORE PUSH1 0x20 ADD DUP3 DUP1 SLOAD PUSH2 0xA1A SWAP1 PUSH2 0x251F JUMP JUMPDEST DUP1 ISZERO PUSH2 0xA67 JUMPI DUP1 PUSH1 0x1F LT PUSH2 0xA3C JUMPI PUSH2 0x100 DUP1 DUP4 SLOAD DIV MUL DUP4 MSTORE SWAP2 PUSH1 0x20 ADD SWAP2 PUSH2 0xA67 JUMP JUMPDEST DUP3 ADD SWAP2 SWAP1 PUSH1 0x0 MSTORE PUSH1 0x20 PUSH1 0x0 KECCAK256 SWAP1 JUMPDEST DUP2 SLOAD DUP2 MSTORE SWAP1 PUSH1 0x1 ADD SWAP1 PUSH1 0x20 ADD DUP1 DUP4 GT PUSH2 0xA4A JUMPI DUP3 SWAP1 SUB PUSH1 0x1F AND DUP3 ADD SWAP2 JUMPDEST POP POP POP POP POP SWAP1 DUP1 PUSH1 0x4 ADD PUSH1 0x0 SWAP1 SLOAD SWAP1 PUSH2 0x100 EXP SWAP1 DIV PUSH1 0xFF AND SWAP1 POP DUP6 JUMP JUMPDEST PUSH1 0x60 PUSH1 0x0 DUP1 SLOAD SWAP1 PUSH2 0x100 EXP SWAP1 DIV PUSH20 0xFFFFFFFFFFFFFFFFFFFFFFFFFFFFFFFFFFFFFFFF AND PUSH20 0xFFFFFFFFFFFFFFFFFFFFFFFFFFFFFFFFFFFFFFFF AND CALLER PUSH20 0xFFFFFFFFFFFFFFFFFFFFFFFFFFFFFFFFFFFFFFFF AND EQ PUSH2 0xADE JUMPI PUSH1 0x0 DUP1 REVERT JUMPDEST PUSH1 0x5 DUP1 SLOAD DUP1 PUSH1 0x20 MUL PUSH1 0x20 ADD PUSH1 0x40 MLOAD SWAP1 DUP2 ADD PUSH1 0x40 MSTORE DUP1 SWAP3 SWAP2 SWAP1 DUP2 DUP2 MSTORE PUSH1 0x20 ADD DUP3 DUP1 SLOAD DUP1 ISZERO PUSH2 0xB60 JUMPI PUSH1 0x20 MUL DUP3 ADD SWAP2 SWAP1 PUSH1 0x0 MSTORE PUSH1 0x20 PUSH1 0x0 KECCAK256 SWAP1 JUMPDEST DUP2 PUSH1 0x0 SWAP1 SLOAD SWAP1 PUSH2 0x100 EXP SWAP1 DIV PUSH20 0xFFFFFFFFFFFFFFFFFFFFFFFFFFFFFFFFFFFFFFFF AND PUSH20 0xFFFFFFFFFFFFFFFFFFFFFFFFFFFFFFFFFFFFFFFF AND DUP2 MSTORE PUSH1 0x20 ADD SWAP1 PUSH1 0x1 ADD SWAP1 DUP1 DUP4 GT PUSH2 0xB16 JUMPI JUMPDEST POP POP POP POP POP SWAP1 POP SWAP1 JUMP JUMPDEST PUSH2 0xB72 PUSH2 0x1A98 JUMP JUMPDEST PUSH1 0x0 DUP1 SLOAD SWAP1 PUSH2 0x100 EXP SWAP1 DIV PUSH20 0xFFFFFFFFFFFFFFFFFFFFFFFFFFFFFFFFFFFFFFFF AND PUSH20 0xFFFFFFFFFFFFFFFFFFFFFFFFFFFFFFFFFFFFFFFF AND CALLER PUSH20 0xFFFFFFFFFFFFFFFFFFFFFFFFFFFFFFFFFFFFFFFF AND EQ PUSH2 0xBCA JUMPI PUSH1 0x0 DUP1 REVERT JUMPDEST PUSH1 0x2 PUSH1 0x0 DUP4 PUSH20 0xFFFFFFFFFFFFFFFFFFFFFFFFFFFFFFFFFFFFFFFF AND PUSH20 0xFFFFFFFFFFFFFFFFFFFFFFFFFFFFFFFFFFFFFFFF AND DUP2 MSTORE PUSH1 0x20 ADD SWAP1 DUP2 MSTORE PUSH1 0x20 ADD PUSH1 0x0 KECCAK256 PUSH1 0x40 MLOAD DUP1 PUSH1 0xA0 ADD PUSH1 0x40 MSTORE SWAP1 DUP2 PUSH1 0x0 DUP3 ADD DUP1 SLOAD PUSH2 0xC24 SWAP1 PUSH2 0x251F JUMP JUMPDEST DUP1 PUSH1 0x1F ADD PUSH1 0x20 DUP1 SWAP2 DIV MUL PUSH1 0x20 ADD PUSH1 0x40 MLOAD SWAP1 DUP2 ADD PUSH1 0x40 MSTORE DUP1 SWAP3 SWAP2 SWAP1 DUP2 DUP2 MSTORE PUSH1 0x20 ADD DUP3 DUP1 SLOAD PUSH2 0xC50 SWAP1 PUSH2 0x251F JUMP JUMPDEST DUP1 ISZERO PUSH2 0xC9D JUMPI DUP1 PUSH1 0x1F LT PUSH2 0xC72 JUMPI PUSH2 0x100 DUP1 DUP4 SLOAD DIV MUL DUP4 MSTORE SWAP2 PUSH1 0x20 ADD SWAP2 PUSH2 0xC9D JUMP JUMPDEST DUP3 ADD SWAP2 SWAP1 PUSH1 0x0 MSTORE PUSH1 0x20 PUSH1 0x0 KECCAK256 SWAP1 JUMPDEST DUP2 SLOAD DUP2 MSTORE SWAP1 PUSH1 0x1 ADD SWAP1 PUSH1 0x20 ADD DUP1 DUP4 GT PUSH2 0xC80 JUMPI DUP3 SWAP1 SUB PUSH1 0x1F AND DUP3 ADD SWAP2 JUMPDEST POP POP POP POP POP DUP2 MSTORE PUSH1 0x20 ADD PUSH1 0x1 DUP3 ADD DUP1 SLOAD PUSH2 0xCB6 SWAP1 PUSH2 0x251F JUMP JUMPDEST DUP1 PUSH1 0x1F ADD PUSH1 0x20 DUP1 SWAP2 DIV MUL PUSH1 0x20 ADD PUSH1 0x40 MLOAD SWAP1 DUP2 ADD PUSH1 0x40 MSTORE DUP1 SWAP3 SWAP2 SWAP1 DUP2 DUP2 MSTORE PUSH1 0x20 ADD DUP3 DUP1 SLOAD PUSH2 0xCE2 SWAP1 PUSH2 0x251F JUMP JUMPDEST DUP1 ISZERO PUSH2 0xD2F JUMPI DUP1 PUSH1 0x1F LT PUSH2 0xD04 JUMPI PUSH2 0x100 DUP1 DUP4 SLOAD DIV MUL DUP4 MSTORE SWAP2 PUSH1 0x20 ADD SWAP2 PUSH2 0xD2F JUMP JUMPDEST DUP3 ADD SWAP2 SWAP1 PUSH1 0x0 MSTORE PUSH1 0x20 PUSH1 0x0 KECCAK256 SWAP1 JUMPDEST DUP2 SLOAD DUP2 MSTORE SWAP1 PUSH1 0x1 ADD SWAP1 PUSH1 0x20 ADD DUP1 DUP4 GT PUSH2 0xD12 JUMPI DUP3 SWAP1 SUB PUSH1 0x1F AND DUP3 ADD SWAP2 JUMPDEST POP POP POP POP POP DUP2 MSTORE PUSH1 0x20 ADD PUSH1 0x2 DUP3 ADD PUSH1 0x0 SWAP1 SLOAD SWAP1 PUSH2 0x100 EXP SWAP1 DIV PUSH20 0xFFFFFFFFFFFFFFFFFFFFFFFFFFFFFFFFFFFFFFFF AND PUSH20 0xFFFFFFFFFFFFFFFFFFFFFFFFFFFFFFFFFFFFFFFF AND PUSH20 0xFFFFFFFFFFFFFFFFFFFFFFFFFFFFFFFFFFFFFFFF AND DUP2 MSTORE PUSH1 0x20 ADD PUSH1 0x3 DUP3 ADD DUP1 SLOAD PUSH2 0xD9E SWAP1 PUSH2 0x251F JUMP JUMPDEST DUP1 PUSH1 0x1F ADD PUSH1 0x20 DUP1 SWAP2 DIV MUL PUSH1 0x20 ADD PUSH1 0x40 MLOAD SWAP1 DUP2 ADD PUSH1 0x40 MSTORE DUP1 SWAP3 SWAP2 SWAP1 DUP2 DUP2 MSTORE PUSH1 0x20 ADD DUP3 DUP1 SLOAD PUSH2 0xDCA SWAP1 PUSH2 0x251F JUMP JUMPDEST DUP1 ISZERO PUSH2 0xE17 JUMPI DUP1 PUSH1 0x1F LT PUSH2 0xDEC JUMPI PUSH2 0x100 DUP1 DUP4 SLOAD DIV MUL DUP4 MSTORE SWAP2 PUSH1 0x20 ADD SWAP2 PUSH2 0xE17 JUMP JUMPDEST DUP3 ADD SWAP2 SWAP1 PUSH1 0x0 MSTORE PUSH1 0x20 PUSH1 0x0 KECCAK256 SWAP1 JUMPDEST DUP2 SLOAD DUP2 MSTORE SWAP1 PUSH1 0x1 ADD SWAP1 PUSH1 0x20 ADD DUP1 DUP4 GT PUSH2 0xDFA JUMPI DUP3 SWAP1 SUB PUSH1 0x1F AND DUP3 ADD SWAP2 JUMPDEST POP POP POP POP POP DUP2 MSTORE PUSH1 0x20 ADD PUSH1 0x4 DUP3 ADD PUSH1 0x0 SWAP1 SLOAD SWAP1 PUSH2 0x100 EXP SWAP1 DIV PUSH1 0xFF AND ISZERO ISZERO ISZERO ISZERO DUP2 MSTORE POP POP SWAP1 POP SWAP2 SWAP1 POP JUMP JUMPDEST PUSH1 0x0 PUSH1 0x3 PUSH1 0x0 CALLER PUSH20 0xFFFFFFFFFFFFFFFFFFFFFFFFFFFFFFFFFFFFFFFF AND PUSH20 0xFFFFFFFFFFFFFFFFFFFFFFFFFFFFFFFFFFFFFFFF AND DUP2 MSTORE PUSH1 0x20 ADD SWAP1 DUP2 MSTORE PUSH1 0x20 ADD PUSH1 0x0 KECCAK256 PUSH1 0x0 SWAP1 SLOAD SWAP1 PUSH2 0x100 EXP SWAP1 DIV PUSH1 0xFF AND PUSH2 0xE9A JUMPI PUSH1 0x0 DUP1 REVERT JUMPDEST PUSH1 0x1 SWAP1 POP SWAP1 JUMP JUMPDEST PUSH1 0x3 PUSH1 0x0 CALLER PUSH20 0xFFFFFFFFFFFFFFFFFFFFFFFFFFFFFFFFFFFFFFFF AND PUSH20 0xFFFFFFFFFFFFFFFFFFFFFFFFFFFFFFFFFFFFFFFF AND DUP2 MSTORE PUSH1 0x20 ADD SWAP1 DUP2 MSTORE PUSH1 0x20 ADD PUSH1 0x0 KECCAK256 PUSH1 0x0 SWAP1 SLOAD SWAP1 PUSH2 0x100 EXP SWAP1 DIV PUSH1 0xFF AND PUSH2 0xEF7 JUMPI PUSH1 0x0 DUP1 REVERT JUMPDEST PUSH1 0x7 DUP2 PUSH1 0x40 MLOAD PUSH2 0xF07 SWAP2 SWAP1 PUSH2 0x258D JUMP JUMPDEST SWAP1 DUP2 MSTORE PUSH1 0x20 ADD PUSH1 0x40 MLOAD DUP1 SWAP2 SUB SWAP1 KECCAK256 PUSH1 0x0 SWAP1 SLOAD SWAP1 PUSH2 0x100 EXP SWAP1 DIV PUSH1 0xFF AND ISZERO PUSH2 0xF2D JUMPI PUSH1 0x0 DUP1 REVERT JUMPDEST PUSH1 0x1 PUSH1 0x7 DUP3 PUSH1 0x40 MLOAD PUSH2 0xF3F SWAP2 SWAP1 PUSH2 0x258D JUMP JUMPDEST SWAP1 DUP2 MSTORE PUSH1 0x20 ADD PUSH1 0x40 MLOAD DUP1 SWAP2 SUB SWAP1 KECCAK256 PUSH1 0x0 PUSH2 0x100 EXP DUP2 SLOAD DUP2 PUSH1 0xFF MUL NOT AND SWAP1 DUP4 ISZERO ISZERO MUL OR SWAP1 SSTORE POP PUSH1 0x6 DUP2 SWAP1 DUP1 PUSH1 0x1 DUP2 SLOAD ADD DUP1 DUP3 SSTORE DUP1 SWAP2 POP POP PUSH1 0x1 SWAP1 SUB SWAP1 PUSH1 0x0 MSTORE PUSH1 0x20 PUSH1 0x0 KECCAK256 ADD PUSH1 0x0 SWAP1 SWAP2 SWAP1 SWAP2 SWAP1 SWAP2 POP SWAP1 DUP1 MLOAD SWAP1 PUSH1 0x20 ADD SWAP1 PUSH2 0xF9F SWAP3 SWAP2 SWAP1 PUSH2 0x1A12 JUMP JUMPDEST POP PUSH1 0x0 PUSH1 0x8 DUP3 PUSH1 0x40 MLOAD PUSH2 0xFB2 SWAP2 SWAP1 PUSH2 0x258D JUMP JUMPDEST SWAP1 DUP2 MSTORE PUSH1 0x20 ADD PUSH1 0x40 MLOAD DUP1 SWAP2 SUB SWAP1 KECCAK256 SWAP1 POP PUSH1 0x2 PUSH1 0x0 DUP5 PUSH20 0xFFFFFFFFFFFFFFFFFFFFFFFFFFFFFFFFFFFFFFFF AND PUSH20 0xFFFFFFFFFFFFFFFFFFFFFFFFFFFFFFFFFFFFFFFF AND DUP2 MSTORE PUSH1 0x20 ADD SWAP1 DUP2 MSTORE PUSH1 0x20 ADD PUSH1 0x0 KECCAK256 PUSH1 0x3 ADD DUP2 PUSH1 0x0 ADD SWAP1 DUP1 SLOAD PUSH2 0x1014 SWAP1 PUSH2 0x251F JUMP JUMPDEST PUSH2 0x101F SWAP3 SWAP2 SWAP1 PUSH2 0x1ADF JUMP JUMPDEST POP DUP7 DUP2 PUSH1 0x1 ADD SWAP1 DUP1 MLOAD SWAP1 PUSH1 0x20 ADD SWAP1 PUSH2 0x1038 SWAP3 SWAP2 SWAP1 PUSH2 0x1A12 JUMP JUMPDEST POP DUP6 DUP2 PUSH1 0x2 ADD SWAP1 DUP1 MLOAD SWAP1 PUSH1 0x20 ADD SWAP1 PUSH2 0x1051 SWAP3 SWAP2 SWAP1 PUSH2 0x1A12 JUMP JUMPDEST POP DUP5 DUP2 PUSH1 0x3 ADD PUSH1 0x0 PUSH2 0x100 EXP DUP2 SLOAD DUP2 PUSH20 0xFFFFFFFFFFFFFFFFFFFFFFFFFFFFFFFFFFFFFFFF MUL NOT AND SWAP1 DUP4 PUSH20 0xFFFFFFFFFFFFFFFFFFFFFFFFFFFFFFFFFFFFFFFF AND MUL OR SWAP1 SSTORE POP DUP4 DUP2 PUSH1 0x4 ADD SWAP1 DUP1 MLOAD SWAP1 PUSH1 0x20 ADD SWAP1 PUSH2 0x10AD SWAP3 SWAP2 SWAP1 PUSH2 0x1A12 JUMP JUMPDEST POP PUSH1 0x0 DUP2 PUSH1 0x5 ADD PUSH1 0x0 PUSH2 0x100 EXP DUP2 SLOAD DUP2 PUSH1 0xFF MUL NOT AND SWAP1 DUP4 ISZERO ISZERO MUL OR SWAP1 SSTORE POP PUSH1 0x0 DUP2 PUSH1 0x5 ADD PUSH1 0x1 PUSH2 0x100 EXP DUP2 SLOAD DUP2 PUSH1 0xFF MUL NOT AND SWAP1 DUP4 ISZERO ISZERO MUL OR SWAP1 SSTORE POP PUSH1 0x0 DUP2 PUSH1 0x5 ADD PUSH1 0x2 PUSH2 0x100 EXP DUP2 SLOAD DUP2 PUSH20 0xFFFFFFFFFFFFFFFFFFFFFFFFFFFFFFFFFFFFFFFF MUL NOT AND SWAP1 DUP4 PUSH20 0xFFFFFFFFFFFFFFFFFFFFFFFFFFFFFFFFFFFFFFFF AND MUL OR SWAP1 SSTORE POP DUP2 DUP2 PUSH1 0x6 ADD SWAP1 DUP1 MLOAD SWAP1 PUSH1 0x20 ADD SWAP1 PUSH2 0x1144 SWAP3 SWAP2 SWAP1 PUSH2 0x1A12 JUMP JUMPDEST POP DUP3 DUP2 PUSH1 0x7 ADD PUSH1 0x0 PUSH2 0x100 EXP DUP2 SLOAD DUP2 PUSH20 0xFFFFFFFFFFFFFFFFFFFFFFFFFFFFFFFFFFFFFFFF MUL NOT AND SWAP1 DUP4 PUSH20 0xFFFFFFFFFFFFFFFFFFFFFFFFFFFFFFFFFFFFFFFF AND MUL OR SWAP1 SSTORE POP PUSH1 0x1 PUSH1 0x9 SLOAD PUSH2 0x1197 SWAP2 SWAP1 PUSH2 0x25D3 JUMP JUMPDEST PUSH1 0x9 DUP2 SWAP1 SSTORE POP POP POP POP POP POP POP POP JUMP JUMPDEST PUSH1 0x8 DUP2 DUP1 MLOAD PUSH1 0x20 DUP2 ADD DUP3 ADD DUP1 MLOAD DUP5 DUP3 MSTORE PUSH1 0x20 DUP4 ADD PUSH1 0x20 DUP6 ADD KECCAK256 DUP2 DUP4 MSTORE DUP1 SWAP6 POP POP POP POP POP POP PUSH1 0x0 SWAP2 POP SWAP1 POP DUP1 PUSH1 0x0 ADD DUP1 SLOAD PUSH2 0x11DF SWAP1 PUSH2 0x251F JUMP JUMPDEST DUP1 PUSH1 0x1F ADD PUSH1 0x20 DUP1 SWAP2 DIV MUL PUSH1 0x20 ADD PUSH1 0x40 MLOAD SWAP1 DUP2 ADD PUSH1 0x40 MSTORE DUP1 SWAP3 SWAP2 SWAP1 DUP2 DUP2 MSTORE PUSH1 0x20 ADD DUP3 DUP1 SLOAD PUSH2 0x120B SWAP1 PUSH2 0x251F JUMP JUMPDEST DUP1 ISZERO PUSH2 0x1258 JUMPI DUP1 PUSH1 0x1F LT PUSH2 0x122D JUMPI PUSH2 0x100 DUP1 DUP4 SLOAD DIV MUL DUP4 MSTORE SWAP2 PUSH1 0x20 ADD SWAP2 PUSH2 0x1258 JUMP JUMPDEST DUP3 ADD SWAP2 SWAP1 PUSH1 0x0 MSTORE PUSH1 0x20 PUSH1 0x0 KECCAK256 SWAP1 JUMPDEST DUP2 SLOAD DUP2 MSTORE SWAP1 PUSH1 0x1 ADD SWAP1 PUSH1 0x20 ADD DUP1 DUP4 GT PUSH2 0x123B JUMPI DUP3 SWAP1 SUB PUSH1 0x1F AND DUP3 ADD SWAP2 JUMPDEST POP POP POP POP POP SWAP1 DUP1 PUSH1 0x1 ADD DUP1 SLOAD PUSH2 0x126D SWAP1 PUSH2 0x251F JUMP JUMPDEST DUP1 PUSH1 0x1F ADD PUSH1 0x20 DUP1 SWAP2 DIV MUL PUSH1 0x20 ADD PUSH1 0x40 MLOAD SWAP1 DUP2 ADD PUSH1 0x40 MSTORE DUP1 SWAP3 SWAP2 SWAP1 DUP2 DUP2 MSTORE PUSH1 0x20 ADD DUP3 DUP1 SLOAD PUSH2 0x1299 SWAP1 PUSH2 0x251F JUMP JUMPDEST DUP1 ISZERO PUSH2 0x12E6 JUMPI DUP1 PUSH1 0x1F LT PUSH2 0x12BB JUMPI PUSH2 0x100 DUP1 DUP4 SLOAD DIV MUL DUP4 MSTORE SWAP2 PUSH1 0x20 ADD SWAP2 PUSH2 0x12E6 JUMP JUMPDEST DUP3 ADD SWAP2 SWAP1 PUSH1 0x0 MSTORE PUSH1 0x20 PUSH1 0x0 KECCAK256 SWAP1 JUMPDEST DUP2 SLOAD DUP2 MSTORE SWAP1 PUSH1 0x1 ADD SWAP1 PUSH1 0x20 ADD DUP1 DUP4 GT PUSH2 0x12C9 JUMPI DUP3 SWAP1 SUB PUSH1 0x1F AND DUP3 ADD SWAP2 JUMPDEST POP POP POP POP POP SWAP1 DUP1 PUSH1 0x2 ADD DUP1 SLOAD PUSH2 0x12FB SWAP1 PUSH2 0x251F JUMP JUMPDEST DUP1 PUSH1 0x1F ADD PUSH1 0x20 DUP1 SWAP2 DIV MUL PUSH1 0x20 ADD PUSH1 0x40 MLOAD SWAP1 DUP2 ADD PUSH1 0x40 MSTORE DUP1 SWAP3 SWAP2 SWAP1 DUP2 DUP2 MSTORE PUSH1 0x20 ADD DUP3 DUP1 SLOAD PUSH2 0x1327 SWAP1 PUSH2 0x251F JUMP JUMPDEST DUP1 ISZERO PUSH2 0x1374 JUMPI DUP1 PUSH1 0x1F LT PUSH2 0x1349 JUMPI PUSH2 0x100 DUP1 DUP4 SLOAD DIV MUL DUP4 MSTORE SWAP2 PUSH1 0x20 ADD SWAP2 PUSH2 0x1374 JUMP JUMPDEST DUP3 ADD SWAP2 SWAP1 PUSH1 0x0 MSTORE PUSH1 0x20 PUSH1 0x0 KECCAK256 SWAP1 JUMPDEST DUP2 SLOAD DUP2 MSTORE SWAP1 PUSH1 0x1 ADD SWAP1 PUSH1 0x20 ADD DUP1 DUP4 GT PUSH2 0x1357 JUMPI DUP3 SWAP1 SUB PUSH1 0x1F AND DUP3 ADD SWAP2 JUMPDEST POP POP POP POP POP SWAP1 DUP1 PUSH1 0x3 ADD PUSH1 0x0 SWAP1 SLOAD SWAP1 PUSH2 0x100 EXP SWAP1 DIV PUSH20 0xFFFFFFFFFFFFFFFFFFFFFFFFFFFFFFFFFFFFFFFF AND SWAP1 DUP1 PUSH1 0x4 ADD DUP1 SLOAD PUSH2 0x13AF SWAP1 PUSH2 0x251F JUMP JUMPDEST DUP1 PUSH1 0x1F ADD PUSH1 0x20 DUP1 SWAP2 DIV MUL PUSH1 0x20 ADD PUSH1 0x40 MLOAD SWAP1 DUP2 ADD PUSH1 0x40 MSTORE DUP1 SWAP3 SWAP2 SWAP1 DUP2 DUP2 MSTORE PUSH1 0x20 ADD DUP3 DUP1 SLOAD PUSH2 0x13DB SWAP1 PUSH2 0x251F JUMP JUMPDEST DUP1 ISZERO PUSH2 0x1428 JUMPI DUP1 PUSH1 0x1F LT PUSH2 0x13FD JUMPI PUSH2 0x100 DUP1 DUP4 SLOAD DIV MUL DUP4 MSTORE SWAP2 PUSH1 0x20 ADD SWAP2 PUSH2 0x1428 JUMP JUMPDEST DUP3 ADD SWAP2 SWAP1 PUSH1 0x0 MSTORE PUSH1 0x20 PUSH1 0x0 KECCAK256 SWAP1 JUMPDEST DUP2 SLOAD DUP2 MSTORE SWAP1 PUSH1 0x1 ADD SWAP1 PUSH1 0x20 ADD DUP1 DUP4 GT PUSH2 0x140B JUMPI DUP3 SWAP1 SUB PUSH1 0x1F AND DUP3 ADD SWAP2 JUMPDEST POP POP POP POP POP SWAP1 DUP1 PUSH1 0x5 ADD PUSH1 0x0 SWAP1 SLOAD SWAP1 PUSH2 0x100 EXP SWAP1 DIV PUSH1 0xFF AND SWAP1 DUP1 PUSH1 0x5 ADD PUSH1 0x1 SWAP1 SLOAD SWAP1 PUSH2 0x100 EXP SWAP1 DIV PUSH1 0xFF AND SWAP1 DUP1 PUSH1 0x5 ADD PUSH1 0x2 SWAP1 SLOAD SWAP1 PUSH2 0x100 EXP SWAP1 DIV PUSH20 0xFFFFFFFFFFFFFFFFFFFFFFFFFFFFFFFFFFFFFFFF AND SWAP1 DUP1 PUSH1 0x6 ADD DUP1 SLOAD PUSH2 0x1489 SWAP1 PUSH2 0x251F JUMP JUMPDEST DUP1 PUSH1 0x1F ADD PUSH1 0x20 DUP1 SWAP2 DIV MUL PUSH1 0x20 ADD PUSH1 0x40 MLOAD SWAP1 DUP2 ADD PUSH1 0x40 MSTORE DUP1 SWAP3 SWAP2 SWAP1 DUP2 DUP2 MSTORE PUSH1 0x20 ADD DUP3 DUP1 SLOAD PUSH2 0x14B5 SWAP1 PUSH2 0x251F JUMP JUMPDEST DUP1 ISZERO PUSH2 0x1502 JUMPI DUP1 PUSH1 0x1F LT PUSH2 0x14D7 JUMPI PUSH2 0x100 DUP1 DUP4 SLOAD DIV MUL DUP4 MSTORE SWAP2 PUSH1 0x20 ADD SWAP2 PUSH2 0x1502 JUMP JUMPDEST DUP3 ADD SWAP2 SWAP1 PUSH1 0x0 MSTORE PUSH1 0x20 PUSH1 0x0 KECCAK256 SWAP1 JUMPDEST DUP2 SLOAD DUP2 MSTORE SWAP1 PUSH1 0x1 ADD SWAP1 PUSH1 0x20 ADD DUP1 DUP4 GT PUSH2 0x14E5 JUMPI DUP3 SWAP1 SUB PUSH1 0x1F AND DUP3 ADD SWAP2 JUMPDEST POP POP POP POP POP SWAP1 DUP1 PUSH1 0x7 ADD PUSH1 0x0 SWAP1 SLOAD SWAP1 PUSH2 0x100 EXP SWAP1 DIV PUSH20 0xFFFFFFFFFFFFFFFFFFFFFFFFFFFFFFFFFFFFFFFF AND SWAP1 POP DUP11 JUMP JUMPDEST PUSH1 0x7 DUP2 DUP1 MLOAD PUSH1 0x20 DUP2 ADD DUP3 ADD DUP1 MLOAD DUP5 DUP3 MSTORE PUSH1 0x20 DUP4 ADD PUSH1 0x20 DUP6 ADD KECCAK256 DUP2 DUP4 MSTORE DUP1 SWAP6 POP POP POP POP POP POP PUSH1 0x0 SWAP2 POP SLOAD SWAP1 PUSH2 0x100 EXP SWAP1 DIV PUSH1 0xFF AND DUP2 JUMP JUMPDEST PUSH1 0x6 DUP2 DUP2 SLOAD DUP2 LT PUSH2 0x1578 JUMPI PUSH1 0x0 DUP1 REVERT JUMPDEST SWAP1 PUSH1 0x0 MSTORE PUSH1 0x20 PUSH1 0x0 KECCAK256 ADD PUSH1 0x0 SWAP2 POP SWAP1 POP DUP1 SLOAD PUSH2 0x1593 SWAP1 PUSH2 0x251F JUMP JUMPDEST DUP1 PUSH1 0x1F ADD PUSH1 0x20 DUP1 SWAP2 DIV MUL PUSH1 0x20 ADD PUSH1 0x40 MLOAD SWAP1 DUP2 ADD PUSH1 0x40 MSTORE DUP1 SWAP3 SWAP2 SWAP1 DUP2 DUP2 MSTORE PUSH1 0x20 ADD DUP3 DUP1 SLOAD PUSH2 0x15BF SWAP1 PUSH2 0x251F JUMP JUMPDEST DUP1 ISZERO PUSH2 0x160C JUMPI DUP1 PUSH1 0x1F LT PUSH2 0x15E1 JUMPI PUSH2 0x100 DUP1 DUP4 SLOAD DIV MUL DUP4 MSTORE SWAP2 PUSH1 0x20 ADD SWAP2 PUSH2 0x160C JUMP JUMPDEST DUP3 ADD SWAP2 SWAP1 PUSH1 0x0 MSTORE PUSH1 0x20 PUSH1 0x0 KECCAK256 SWAP1 JUMPDEST DUP2 SLOAD DUP2 MSTORE SWAP1 PUSH1 0x1 ADD SWAP1 PUSH1 0x20 ADD DUP1 DUP4 GT PUSH2 0x15EF JUMPI DUP3 SWAP1 SUB PUSH1 0x1F AND DUP3 ADD SWAP2 JUMPDEST POP POP POP POP POP DUP2 JUMP JUMPDEST PUSH1 0x0 DUP1 SLOAD SWAP1 PUSH2 0x100 EXP SWAP1 DIV PUSH20 0xFFFFFFFFFFFFFFFFFFFFFFFFFFFFFFFFFFFFFFFF AND PUSH20 0xFFFFFFFFFFFFFFFFFFFFFFFFFFFFFFFFFFFFFFFF AND CALLER PUSH20 0xFFFFFFFFFFFFFFFFFFFFFFFFFFFFFFFFFFFFFFFF AND EQ PUSH2 0x166C JUMPI PUSH1 0x0 DUP1 REVERT JUMPDEST PUSH2 0x174F PUSH1 0x2 PUSH1 0x0 DUP4 PUSH20 0xFFFFFFFFFFFFFFFFFFFFFFFFFFFFFFFFFFFFFFFF AND PUSH20 0xFFFFFFFFFFFFFFFFFFFFFFFFFFFFFFFFFFFFFFFF AND DUP2 MSTORE PUSH1 0x20 ADD SWAP1 DUP2 MSTORE PUSH1 0x20 ADD PUSH1 0x0 KECCAK256 PUSH1 0x3 ADD DUP1 SLOAD PUSH2 0x16BC SWAP1 PUSH2 0x251F JUMP JUMPDEST DUP1 PUSH1 0x1F ADD PUSH1 0x20 DUP1 SWAP2 DIV MUL PUSH1 0x20 ADD PUSH1 0x40 MLOAD SWAP1 DUP2 ADD PUSH1 0x40 MSTORE DUP1 SWAP3 SWAP2 SWAP1 DUP2 DUP2 MSTORE PUSH1 0x20 ADD DUP3 DUP1 SLOAD PUSH2 0x16E8 SWAP1 PUSH2 0x251F JUMP JUMPDEST DUP1 ISZERO PUSH2 0x1735 JUMPI DUP1 PUSH1 0x1F LT PUSH2 0x170A JUMPI PUSH2 0x100 DUP1 DUP4 SLOAD DIV MUL DUP4 MSTORE SWAP2 PUSH1 0x20 ADD SWAP2 PUSH2 0x1735 JUMP JUMPDEST DUP3 ADD SWAP2 SWAP1 PUSH1 0x0 MSTORE PUSH1 0x20 PUSH1 0x0 KECCAK256 SWAP1 JUMPDEST DUP2 SLOAD DUP2 MSTORE SWAP1 PUSH1 0x1 ADD SWAP1 PUSH1 0x20 ADD DUP1 DUP4 GT PUSH2 0x1718 JUMPI DUP3 SWAP1 SUB PUSH1 0x1F AND DUP3 ADD SWAP2 JUMPDEST POP POP POP POP POP PUSH1 0x40 MLOAD DUP1 PUSH1 0x20 ADD PUSH1 0x40 MSTORE DUP1 PUSH1 0x0 DUP2 MSTORE POP PUSH2 0x19F7 JUMP JUMPDEST ISZERO PUSH2 0x1791 JUMPI PUSH1 0x4 DUP3 SWAP1 DUP1 PUSH1 0x1 DUP2 SLOAD ADD DUP1 DUP3 SSTORE DUP1 SWAP2 POP POP PUSH1 0x1 SWAP1 SUB SWAP1 PUSH1 0x0 MSTORE PUSH1 0x20 PUSH1 0x0 KECCAK256 ADD PUSH1 0x0 SWAP1 SWAP2 SWAP1 SWAP2 SWAP1 SWAP2 POP SWAP1 DUP1 MLOAD SWAP1 PUSH1 0x20 ADD SWAP1 PUSH2 0x178F SWAP3 SWAP2 SWAP1 PUSH2 0x1A12 JUMP JUMPDEST POP JUMPDEST PUSH1 0x0 PUSH1 0x2 PUSH1 0x0 DUP4 PUSH20 0xFFFFFFFFFFFFFFFFFFFFFFFFFFFFFFFFFFFFFFFF AND PUSH20 0xFFFFFFFFFFFFFFFFFFFFFFFFFFFFFFFFFFFFFFFF AND DUP2 MSTORE PUSH1 0x20 ADD SWAP1 DUP2 MSTORE PUSH1 0x20 ADD PUSH1 0x0 KECCAK256 SWAP1 POP DUP5 DUP2 PUSH1 0x0 ADD SWAP1 DUP1 MLOAD SWAP1 PUSH1 0x20 ADD SWAP1 PUSH2 0x17EC SWAP3 SWAP2 SWAP1 PUSH2 0x1A12 JUMP JUMPDEST POP DUP4 DUP2 PUSH1 0x1 ADD SWAP1 DUP1 MLOAD SWAP1 PUSH1 0x20 ADD SWAP1 PUSH2 0x1805 SWAP3 SWAP2 SWAP1 PUSH2 0x1A12 JUMP JUMPDEST POP DUP2 DUP2 PUSH1 0x2 ADD PUSH1 0x0 PUSH2 0x100 EXP DUP2 SLOAD DUP2 PUSH20 0xFFFFFFFFFFFFFFFFFFFFFFFFFFFFFFFFFFFFFFFF MUL NOT AND SWAP1 DUP4 PUSH20 0xFFFFFFFFFFFFFFFFFFFFFFFFFFFFFFFFFFFFFFFF AND MUL OR SWAP1 SSTORE POP DUP3 DUP2 PUSH1 0x3 ADD SWAP1 DUP1 MLOAD SWAP1 PUSH1 0x20 ADD SWAP1 PUSH2 0x1861 SWAP3 SWAP2 SWAP1 PUSH2 0x1A12 JUMP JUMPDEST POP PUSH1 0x1 DUP2 PUSH1 0x4 ADD PUSH1 0x0 PUSH2 0x100 EXP DUP2 SLOAD DUP2 PUSH1 0xFF MUL NOT AND SWAP1 DUP4 ISZERO ISZERO MUL OR SWAP1 SSTORE POP PUSH1 0x5 DUP3 SWAP1 DUP1 PUSH1 0x1 DUP2 SLOAD ADD DUP1 DUP3 SSTORE DUP1 SWAP2 POP POP PUSH1 0x1 SWAP1 SUB SWAP1 PUSH1 0x0 MSTORE PUSH1 0x20 PUSH1 0x0 KECCAK256 ADD PUSH1 0x0 SWAP1 SWAP2 SWAP1 SWAP2 SWAP1 SWAP2 PUSH2 0x100 EXP DUP2 SLOAD DUP2 PUSH20 0xFFFFFFFFFFFFFFFFFFFFFFFFFFFFFFFFFFFFFFFF MUL NOT AND SWAP1 DUP4 PUSH20 0xFFFFFFFFFFFFFFFFFFFFFFFFFFFFFFFFFFFFFFFF AND MUL OR SWAP1 SSTORE POP PUSH1 0x1 PUSH1 0x3 PUSH1 0x0 DUP5 PUSH20 0xFFFFFFFFFFFFFFFFFFFFFFFFFFFFFFFFFFFFFFFF AND PUSH20 0xFFFFFFFFFFFFFFFFFFFFFFFFFFFFFFFFFFFFFFFF AND DUP2 MSTORE PUSH1 0x20 ADD SWAP1 DUP2 MSTORE PUSH1 0x20 ADD PUSH1 0x0 KECCAK256 PUSH1 0x0 PUSH2 0x100 EXP DUP2 SLOAD DUP2 PUSH1 0xFF MUL NOT AND SWAP1 DUP4 ISZERO ISZERO MUL OR SWAP1 SSTORE POP POP POP POP POP POP JUMP JUMPDEST PUSH1 0x0 DUP1 SLOAD SWAP1 PUSH2 0x100 EXP SWAP1 DIV PUSH20 0xFFFFFFFFFFFFFFFFFFFFFFFFFFFFFFFFFFFFFFFF AND PUSH20 0xFFFFFFFFFFFFFFFFFFFFFFFFFFFFFFFFFFFFFFFF AND CALLER PUSH20 0xFFFFFFFFFFFFFFFFFFFFFFFFFFFFFFFFFFFFFFFF AND EQ PUSH2 0x1999 JUMPI PUSH1 0x0 DUP1 REVERT JUMPDEST PUSH1 0x0 PUSH1 0x2 PUSH1 0x0 DUP4 PUSH20 0xFFFFFFFFFFFFFFFFFFFFFFFFFFFFFFFFFFFFFFFF AND PUSH20 0xFFFFFFFFFFFFFFFFFFFFFFFFFFFFFFFFFFFFFFFF AND DUP2 MSTORE PUSH1 0x20 ADD SWAP1 DUP2 MSTORE PUSH1 0x20 ADD PUSH1 0x0 KECCAK256 PUSH1 0x4 ADD PUSH1 0x0 PUSH2 0x100 EXP DUP2 SLOAD DUP2 PUSH1 0xFF MUL NOT AND SWAP1 DUP4 ISZERO ISZERO MUL OR SWAP1 SSTORE POP POP JUMP JUMPDEST PUSH1 0x0 DUP2 DUP1 MLOAD SWAP1 PUSH1 0x20 ADD KECCAK256 DUP4 DUP1 MLOAD SWAP1 PUSH1 0x20 ADD KECCAK256 EQ SWAP1 POP SWAP3 SWAP2 POP POP JUMP JUMPDEST DUP3 DUP1 SLOAD PUSH2 0x1A1E SWAP1 PUSH2 0x251F JUMP JUMPDEST SWAP1 PUSH1 0x0 MSTORE PUSH1 0x20 PUSH1 0x0 KECCAK256 SWAP1 PUSH1 0x1F ADD PUSH1 0x20 SWAP1 DIV DUP2 ADD SWAP3 DUP3 PUSH2 0x1A40 JUMPI PUSH1 0x0 DUP6 SSTORE PUSH2 0x1A87 JUMP JUMPDEST DUP3 PUSH1 0x1F LT PUSH2 0x1A59 JUMPI DUP1 MLOAD PUSH1 0xFF NOT AND DUP4 DUP1 ADD OR DUP6 SSTORE PUSH2 0x1A87 JUMP JUMPDEST DUP3 DUP1 ADD PUSH1 0x1 ADD DUP6 SSTORE DUP3 ISZERO PUSH2 0x1A87 JUMPI SWAP2 DUP3 ADD JUMPDEST DUP3 DUP2 GT ISZERO PUSH2 0x1A86 JUMPI DUP3 MLOAD DUP3 SSTORE SWAP2 PUSH1 0x20 ADD SWAP2 SWAP1 PUSH1 0x1 ADD SWAP1 PUSH2 0x1A6B JUMP JUMPDEST JUMPDEST POP SWAP1 POP PUSH2 0x1A94 SWAP2 SWAP1 PUSH2 0x1B6C JUMP JUMPDEST POP SWAP1 JUMP JUMPDEST PUSH1 0x40 MLOAD DUP1 PUSH1 0xA0 ADD PUSH1 0x40 MSTORE DUP1 PUSH1 0x60 DUP2 MSTORE PUSH1 0x20 ADD PUSH1 0x60 DUP2 MSTORE PUSH1 0x20 ADD PUSH1 0x0 PUSH20 0xFFFFFFFFFFFFFFFFFFFFFFFFFFFFFFFFFFFFFFFF AND DUP2 MSTORE PUSH1 0x20 ADD PUSH1 0x60 DUP2 MSTORE PUSH1 0x20 ADD PUSH1 0x0 ISZERO ISZERO DUP2 MSTORE POP SWAP1 JUMP JUMPDEST DUP3 DUP1 SLOAD PUSH2 0x1AEB SWAP1 PUSH2 0x251F JUMP JUMPDEST SWAP1 PUSH1 0x0 MSTORE PUSH1 0x20 PUSH1 0x0 KECCAK256 SWAP1 PUSH1 0x1F ADD PUSH1 0x20 SWAP1 DIV DUP2 ADD SWAP3 DUP3 PUSH2 0x1B0D JUMPI PUSH1 0x0 DUP6 SSTORE PUSH2 0x1B5B JUMP JUMPDEST DUP3 PUSH1 0x1F LT PUSH2 0x1B1E JUMPI DUP1 SLOAD DUP6 SSTORE PUSH2 0x1B5B JUMP JUMPDEST DUP3 DUP1 ADD PUSH1 0x1 ADD DUP6 SSTORE DUP3 ISZERO PUSH2 0x1B5B JUMPI PUSH1 0x0 MSTORE PUSH1 0x20 PUSH1 0x0 KECCAK256 SWAP2 PUSH1 0x1F ADD PUSH1 0x20 SWAP1 DIV DUP3 ADD JUMPDEST DUP3 DUP2 GT ISZERO PUSH2 0x1B5A JUMPI DUP3 SLOAD DUP3 SSTORE SWAP2 PUSH1 0x1 ADD SWAP2 SWAP1 PUSH1 0x1 ADD SWAP1 PUSH2 0x1B3F JUMP JUMPDEST JUMPDEST POP SWAP1 POP PUSH2 0x1B68 SWAP2 SWAP1 PUSH2 0x1B6C JUMP JUMPDEST POP SWAP1 JUMP JUMPDEST JUMPDEST DUP1 DUP3 GT ISZERO PUSH2 0x1B85 JUMPI PUSH1 0x0 DUP2 PUSH1 0x0 SWAP1 SSTORE POP PUSH1 0x1 ADD PUSH2 0x1B6D JUMP JUMPDEST POP SWAP1 JUMP JUMPDEST PUSH1 0x0 PUSH20 0xFFFFFFFFFFFFFFFFFFFFFFFFFFFFFFFFFFFFFFFF DUP3 AND SWAP1 POP SWAP2 SWAP1 POP JUMP JUMPDEST PUSH1 0x0 PUSH2 0x1BB4 DUP3 PUSH2 0x1B89 JUMP JUMPDEST SWAP1 POP SWAP2 SWAP1 POP JUMP JUMPDEST PUSH2 0x1BC4 DUP2 PUSH2 0x1BA9 JUMP JUMPDEST DUP3 MSTORE POP POP JUMP JUMPDEST PUSH1 0x0 PUSH1 0x20 DUP3 ADD SWAP1 POP PUSH2 0x1BDF PUSH1 0x0 DUP4 ADD DUP5 PUSH2 0x1BBB JUMP JUMPDEST SWAP3 SWAP2 POP POP JUMP JUMPDEST PUSH1 0x0 PUSH1 0x40 MLOAD SWAP1 POP SWAP1 JUMP JUMPDEST PUSH1 0x0 DUP1 REVERT JUMPDEST PUSH1 0x0 DUP1 REVERT JUMPDEST PUSH1 0x0 DUP2 SWAP1 POP SWAP2 SWAP1 POP JUMP JUMPDEST PUSH2 0x1C0C DUP2 PUSH2 0x1BF9 JUMP JUMPDEST DUP2 EQ PUSH2 0x1C17 JUMPI PUSH1 0x0 DUP1 REVERT JUMPDEST POP JUMP JUMPDEST PUSH1 0x0 DUP2 CALLDATALOAD SWAP1 POP PUSH2 0x1C29 DUP2 PUSH2 0x1C03 JUMP JUMPDEST SWAP3 SWAP2 POP POP JUMP JUMPDEST PUSH1 0x0 PUSH1 0x20 DUP3 DUP5 SUB SLT ISZERO PUSH2 0x1C45 JUMPI PUSH2 0x1C44 PUSH2 0x1BEF JUMP JUMPDEST JUMPDEST PUSH1 0x0 PUSH2 0x1C53 DUP5 DUP3 DUP6 ADD PUSH2 0x1C1A JUMP JUMPDEST SWAP2 POP POP SWAP3 SWAP2 POP POP JUMP JUMPDEST PUSH1 0x0 DUP1 REVERT JUMPDEST PUSH1 0x0 DUP1 REVERT JUMPDEST PUSH1 0x0 PUSH1 0x1F NOT PUSH1 0x1F DUP4 ADD AND SWAP1 POP SWAP2 SWAP1 POP JUMP JUMPDEST PUSH32 0x4E487B7100000000000000000000000000000000000000000000000000000000 PUSH1 0x0 MSTORE PUSH1 0x41 PUSH1 0x4 MSTORE PUSH1 0x24 PUSH1 0x0 REVERT JUMPDEST PUSH2 0x1CAF DUP3 PUSH2 0x1C66 JUMP JUMPDEST DUP2 ADD DUP2 DUP2 LT PUSH8 0xFFFFFFFFFFFFFFFF DUP3 GT OR ISZERO PUSH2 0x1CCE JUMPI PUSH2 0x1CCD PUSH2 0x1C77 JUMP JUMPDEST JUMPDEST DUP1 PUSH1 0x40 MSTORE POP POP POP JUMP JUMPDEST PUSH1 0x0 PUSH2 0x1CE1 PUSH2 0x1BE5 JUMP JUMPDEST SWAP1 POP PUSH2 0x1CED DUP3 DUP3 PUSH2 0x1CA6 JUMP JUMPDEST SWAP2 SWAP1 POP JUMP JUMPDEST PUSH1 0x0 PUSH8 0xFFFFFFFFFFFFFFFF DUP3 GT ISZERO PUSH2 0x1D0D JUMPI PUSH2 0x1D0C PUSH2 0x1C77 JUMP JUMPDEST JUMPDEST PUSH2 0x1D16 DUP3 PUSH2 0x1C66 JUMP JUMPDEST SWAP1 POP PUSH1 0x20 DUP2 ADD SWAP1 POP SWAP2 SWAP1 POP JUMP JUMPDEST DUP3 DUP2 DUP4 CALLDATACOPY PUSH1 0x0 DUP4 DUP4 ADD MSTORE POP POP POP JUMP JUMPDEST PUSH1 0x0 PUSH2 0x1D45 PUSH2 0x1D40 DUP5 PUSH2 0x1CF2 JUMP JUMPDEST PUSH2 0x1CD7 JUMP JUMPDEST SWAP1 POP DUP3 DUP2 MSTORE PUSH1 0x20 DUP2 ADD DUP5 DUP5 DUP5 ADD GT ISZERO PUSH2 0x1D61 JUMPI PUSH2 0x1D60 PUSH2 0x1C61 JUMP JUMPDEST JUMPDEST PUSH2 0x1D6C DUP5 DUP3 DUP6 PUSH2 0x1D23 JUMP JUMPDEST POP SWAP4 SWAP3 POP POP POP JUMP JUMPDEST PUSH1 0x0 DUP3 PUSH1 0x1F DUP4 ADD SLT PUSH2 0x1D89 JUMPI PUSH2 0x1D88 PUSH2 0x1C5C JUMP JUMPDEST JUMPDEST DUP2 CALLDATALOAD PUSH2 0x1D99 DUP5 DUP3 PUSH1 0x20 DUP7 ADD PUSH2 0x1D32 JUMP JUMPDEST SWAP2 POP POP SWAP3 SWAP2 POP POP JUMP JUMPDEST PUSH2 0x1DAB DUP2 PUSH2 0x1BA9 JUMP JUMPDEST DUP2 EQ PUSH2 0x1DB6 JUMPI PUSH1 0x0 DUP1 REVERT JUMPDEST POP JUMP JUMPDEST PUSH1 0x0 DUP2 CALLDATALOAD SWAP1 POP PUSH2 0x1DC8 DUP2 PUSH2 0x1DA2 JUMP JUMPDEST SWAP3 SWAP2 POP POP JUMP JUMPDEST PUSH1 0x0 DUP1 PUSH1 0x0 DUP1 PUSH1 0x80 DUP6 DUP8 SUB SLT ISZERO PUSH2 0x1DE8 JUMPI PUSH2 0x1DE7 PUSH2 0x1BEF JUMP JUMPDEST JUMPDEST PUSH1 0x0 DUP6 ADD CALLDATALOAD PUSH8 0xFFFFFFFFFFFFFFFF DUP2 GT ISZERO PUSH2 0x1E06 JUMPI PUSH2 0x1E05 PUSH2 0x1BF4 JUMP JUMPDEST JUMPDEST PUSH2 0x1E12 DUP8 DUP3 DUP9 ADD PUSH2 0x1D74 JUMP JUMPDEST SWAP5 POP POP PUSH1 0x20 DUP6 ADD CALLDATALOAD PUSH8 0xFFFFFFFFFFFFFFFF DUP2 GT ISZERO PUSH2 0x1E33 JUMPI PUSH2 0x1E32 PUSH2 0x1BF4 JUMP JUMPDEST JUMPDEST PUSH2 0x1E3F DUP8 DUP3 DUP9 ADD PUSH2 0x1D74 JUMP JUMPDEST SWAP4 POP POP PUSH1 0x40 DUP6 ADD CALLDATALOAD PUSH8 0xFFFFFFFFFFFFFFFF DUP2 GT ISZERO PUSH2 0x1E60 JUMPI PUSH2 0x1E5F PUSH2 0x1BF4 JUMP JUMPDEST JUMPDEST PUSH2 0x1E6C DUP8 DUP3 DUP9 ADD PUSH2 0x1D74 JUMP JUMPDEST SWAP3 POP POP PUSH1 0x60 PUSH2 0x1E7D DUP8 DUP3 DUP9 ADD PUSH2 0x1DB9 JUMP JUMPDEST SWAP2 POP POP SWAP3 SWAP6 SWAP2 SWAP5 POP SWAP3 POP JUMP JUMPDEST PUSH1 0x0 DUP2 MLOAD SWAP1 POP SWAP2 SWAP1 POP JUMP JUMPDEST PUSH1 0x0 DUP3 DUP3 MSTORE PUSH1 0x20 DUP3 ADD SWAP1 POP SWAP3 SWAP2 POP POP JUMP JUMPDEST PUSH1 0x0 DUP2 SWAP1 POP PUSH1 0x20 DUP3 ADD SWAP1 POP SWAP2 SWAP1 POP JUMP JUMPDEST PUSH1 0x0 DUP2 MLOAD SWAP1 POP SWAP2 SWAP1 POP JUMP JUMPDEST PUSH1 0x0 DUP3 DUP3 MSTORE PUSH1 0x20 DUP3 ADD SWAP1 POP SWAP3 SWAP2 POP POP JUMP JUMPDEST PUSH1 0x0 JUMPDEST DUP4 DUP2 LT ISZERO PUSH2 0x1EEF JUMPI DUP1 DUP3 ADD MLOAD DUP2 DUP5 ADD MSTORE PUSH1 0x20 DUP2 ADD SWAP1 POP PUSH2 0x1ED4 JUMP JUMPDEST DUP4 DUP2 GT ISZERO PUSH2 0x1EFE JUMPI PUSH1 0x0 DUP5 DUP5 ADD MSTORE JUMPDEST POP POP POP POP JUMP JUMPDEST PUSH1 0x0 PUSH2 0x1F0F DUP3 PUSH2 0x1EB5 JUMP JUMPDEST PUSH2 0x1F19 DUP2 DUP6 PUSH2 0x1EC0 JUMP JUMPDEST SWAP4 POP PUSH2 0x1F29 DUP2 DUP6 PUSH1 0x20 DUP7 ADD PUSH2 0x1ED1 JUMP JUMPDEST PUSH2 0x1F32 DUP2 PUSH2 0x1C66 JUMP JUMPDEST DUP5 ADD SWAP2 POP POP SWAP3 SWAP2 POP POP JUMP JUMPDEST PUSH1 0x0 PUSH2 0x1F49 DUP4 DUP4 PUSH2 0x1F04 JUMP JUMPDEST SWAP1 POP SWAP3 SWAP2 POP POP JUMP JUMPDEST PUSH1 0x0 PUSH1 0x20 DUP3 ADD SWAP1 POP SWAP2 SWAP1 POP JUMP JUMPDEST PUSH1 0x0 PUSH2 0x1F69 DUP3 PUSH2 0x1E89 JUMP JUMPDEST PUSH2 0x1F73 DUP2 DUP6 PUSH2 0x1E94 JUMP JUMPDEST SWAP4 POP DUP4 PUSH1 0x20 DUP3 MUL DUP6 ADD PUSH2 0x1F85 DUP6 PUSH2 0x1EA5 JUMP JUMPDEST DUP1 PUSH1 0x0 JUMPDEST DUP6 DUP2 LT ISZERO PUSH2 0x1FC1 JUMPI DUP5 DUP5 SUB DUP10 MSTORE DUP2 MLOAD PUSH2 0x1FA2 DUP6 DUP3 PUSH2 0x1F3D JUMP JUMPDEST SWAP5 POP PUSH2 0x1FAD DUP4 PUSH2 0x1F51 JUMP JUMPDEST SWAP3 POP PUSH1 0x20 DUP11 ADD SWAP10 POP POP PUSH1 0x1 DUP2 ADD SWAP1 POP PUSH2 0x1F89 JUMP JUMPDEST POP DUP3 SWAP8 POP DUP8 SWAP6 POP POP POP POP POP POP SWAP3 SWAP2 POP POP JUMP JUMPDEST PUSH1 0x0 PUSH1 0x20 DUP3 ADD SWAP1 POP DUP2 DUP2 SUB PUSH1 0x0 DUP4 ADD MSTORE PUSH2 0x1FED DUP2 DUP5 PUSH2 0x1F5E JUMP JUMPDEST SWAP1 POP SWAP3 SWAP2 POP POP JUMP JUMPDEST PUSH1 0x0 PUSH1 0x20 DUP3 DUP5 SUB SLT ISZERO PUSH2 0x200B JUMPI PUSH2 0x200A PUSH2 0x1BEF JUMP JUMPDEST JUMPDEST PUSH1 0x0 PUSH2 0x2019 DUP5 DUP3 DUP6 ADD PUSH2 0x1DB9 JUMP JUMPDEST SWAP2 POP POP SWAP3 SWAP2 POP POP JUMP JUMPDEST PUSH2 0x202B DUP2 PUSH2 0x1BF9 JUMP JUMPDEST DUP3 MSTORE POP POP JUMP JUMPDEST PUSH1 0x0 PUSH1 0x20 DUP3 ADD SWAP1 POP PUSH2 0x2046 PUSH1 0x0 DUP4 ADD DUP5 PUSH2 0x2022 JUMP JUMPDEST SWAP3 SWAP2 POP POP JUMP JUMPDEST PUSH1 0x0 DUP3 DUP3 MSTORE PUSH1 0x20 DUP3 ADD SWAP1 POP SWAP3 SWAP2 POP POP JUMP JUMPDEST PUSH1 0x0 PUSH2 0x2068 DUP3 PUSH2 0x1EB5 JUMP JUMPDEST PUSH2 0x2072 DUP2 DUP6 PUSH2 0x204C JUMP JUMPDEST SWAP4 POP PUSH2 0x2082 DUP2 DUP6 PUSH1 0x20 DUP7 ADD PUSH2 0x1ED1 JUMP JUMPDEST PUSH2 0x208B DUP2 PUSH2 0x1C66 JUMP JUMPDEST DUP5 ADD SWAP2 POP POP SWAP3 SWAP2 POP POP JUMP JUMPDEST PUSH1 0x0 PUSH1 0x20 DUP3 ADD SWAP1 POP DUP2 DUP2 SUB PUSH1 0x0 DUP4 ADD MSTORE PUSH2 0x20B0 DUP2 DUP5 PUSH2 0x205D JUMP JUMPDEST SWAP1 POP SWAP3 SWAP2 POP POP JUMP JUMPDEST PUSH1 0x0 DUP2 ISZERO ISZERO SWAP1 POP SWAP2 SWAP1 POP JUMP JUMPDEST PUSH2 0x20CD DUP2 PUSH2 0x20B8 JUMP JUMPDEST DUP3 MSTORE POP POP JUMP JUMPDEST PUSH1 0x0 PUSH1 0xA0 DUP3 ADD SWAP1 POP DUP2 DUP2 SUB PUSH1 0x0 DUP4 ADD MSTORE PUSH2 0x20ED DUP2 DUP9 PUSH2 0x205D JUMP JUMPDEST SWAP1 POP DUP2 DUP2 SUB PUSH1 0x20 DUP4 ADD MSTORE PUSH2 0x2101 DUP2 DUP8 PUSH2 0x205D JUMP JUMPDEST SWAP1 POP PUSH2 0x2110 PUSH1 0x40 DUP4 ADD DUP7 PUSH2 0x1BBB JUMP JUMPDEST DUP2 DUP2 SUB PUSH1 0x60 DUP4 ADD MSTORE PUSH2 0x2122 DUP2 DUP6 PUSH2 0x205D JUMP JUMPDEST SWAP1 POP PUSH2 0x2131 PUSH1 0x80 DUP4 ADD DUP5 PUSH2 0x20C4 JUMP JUMPDEST SWAP7 SWAP6 POP POP POP POP POP POP JUMP JUMPDEST PUSH1 0x0 DUP2 MLOAD SWAP1 POP SWAP2 SWAP1 POP JUMP JUMPDEST PUSH1 0x0 DUP3 DUP3 MSTORE PUSH1 0x20 DUP3 ADD SWAP1 POP SWAP3 SWAP2 POP POP JUMP JUMPDEST PUSH1 0x0 DUP2 SWAP1 POP PUSH1 0x20 DUP3 ADD SWAP1 POP SWAP2 SWAP1 POP JUMP JUMPDEST PUSH2 0x2170 DUP2 PUSH2 0x1BA9 JUMP JUMPDEST DUP3 MSTORE POP POP JUMP JUMPDEST PUSH1 0x0 PUSH2 0x2182 DUP4 DUP4 PUSH2 0x2167 JUMP JUMPDEST PUSH1 0x20 DUP4 ADD SWAP1 POP SWAP3 SWAP2 POP POP JUMP JUMPDEST PUSH1 0x0 PUSH1 0x20 DUP3 ADD SWAP1 POP SWAP2 SWAP1 POP JUMP JUMPDEST PUSH1 0x0 PUSH2 0x21A6 DUP3 PUSH2 0x213B JUMP JUMPDEST PUSH2 0x21B0 DUP2 DUP6 PUSH2 0x2146 JUMP JUMPDEST SWAP4 POP PUSH2 0x21BB DUP4 PUSH2 0x2157 JUMP JUMPDEST DUP1 PUSH1 0x0 JUMPDEST DUP4 DUP2 LT ISZERO PUSH2 0x21EC JUMPI DUP2 MLOAD PUSH2 0x21D3 DUP9 DUP3 PUSH2 0x2176 JUMP JUMPDEST SWAP8 POP PUSH2 0x21DE DUP4 PUSH2 0x218E JUMP JUMPDEST SWAP3 POP POP PUSH1 0x1 DUP2 ADD SWAP1 POP PUSH2 0x21BF JUMP JUMPDEST POP DUP6 SWAP4 POP POP POP POP SWAP3 SWAP2 POP POP JUMP JUMPDEST PUSH1 0x0 PUSH1 0x20 DUP3 ADD SWAP1 POP DUP2 DUP2 SUB PUSH1 0x0 DUP4 ADD MSTORE PUSH2 0x2213 DUP2 DUP5 PUSH2 0x219B JUMP JUMPDEST SWAP1 POP SWAP3 SWAP2 POP POP JUMP JUMPDEST PUSH2 0x2224 DUP2 PUSH2 0x20B8 JUMP JUMPDEST DUP3 MSTORE POP POP JUMP JUMPDEST PUSH1 0x0 PUSH1 0xA0 DUP4 ADD PUSH1 0x0 DUP4 ADD MLOAD DUP5 DUP3 SUB PUSH1 0x0 DUP7 ADD MSTORE PUSH2 0x2247 DUP3 DUP3 PUSH2 0x1F04 JUMP JUMPDEST SWAP2 POP POP PUSH1 0x20 DUP4 ADD MLOAD DUP5 DUP3 SUB PUSH1 0x20 DUP7 ADD MSTORE PUSH2 0x2261 DUP3 DUP3 PUSH2 0x1F04 JUMP JUMPDEST SWAP2 POP POP PUSH1 0x40 DUP4 ADD MLOAD PUSH2 0x2276 PUSH1 0x40 DUP7 ADD DUP3 PUSH2 0x2167 JUMP JUMPDEST POP PUSH1 0x60 DUP4 ADD MLOAD DUP5 DUP3 SUB PUSH1 0x60 DUP7 ADD MSTORE PUSH2 0x228E DUP3 DUP3 PUSH2 0x1F04 JUMP JUMPDEST SWAP2 POP POP PUSH1 0x80 DUP4 ADD MLOAD PUSH2 0x22A3 PUSH1 0x80 DUP7 ADD DUP3 PUSH2 0x221B JUMP JUMPDEST POP DUP1 SWAP2 POP POP SWAP3 SWAP2 POP POP JUMP JUMPDEST PUSH1 0x0 PUSH1 0x20 DUP3 ADD SWAP1 POP DUP2 DUP2 SUB PUSH1 0x0 DUP4 ADD MSTORE PUSH2 0x22C8 DUP2 DUP5 PUSH2 0x222A JUMP JUMPDEST SWAP1 POP SWAP3 SWAP2 POP POP JUMP JUMPDEST PUSH1 0x0 PUSH1 0x20 DUP3 ADD SWAP1 POP PUSH2 0x22E5 PUSH1 0x0 DUP4 ADD DUP5 PUSH2 0x20C4 JUMP JUMPDEST SWAP3 SWAP2 POP POP JUMP JUMPDEST PUSH1 0x0 DUP1 PUSH1 0x0 DUP1 PUSH1 0x0 DUP1 PUSH1 0xC0 DUP8 DUP10 SUB SLT ISZERO PUSH2 0x2308 JUMPI PUSH2 0x2307 PUSH2 0x1BEF JUMP JUMPDEST JUMPDEST PUSH1 0x0 DUP8 ADD CALLDATALOAD PUSH8 0xFFFFFFFFFFFFFFFF DUP2 GT ISZERO PUSH2 0x2326 JUMPI PUSH2 0x2325 PUSH2 0x1BF4 JUMP JUMPDEST JUMPDEST PUSH2 0x2332 DUP10 DUP3 DUP11 ADD PUSH2 0x1D74 JUMP JUMPDEST SWAP7 POP POP PUSH1 0x20 DUP8 ADD CALLDATALOAD PUSH8 0xFFFFFFFFFFFFFFFF DUP2 GT ISZERO PUSH2 0x2353 JUMPI PUSH2 0x2352 PUSH2 0x1BF4 JUMP JUMPDEST JUMPDEST PUSH2 0x235F DUP10 DUP3 DUP11 ADD PUSH2 0x1D74 JUMP JUMPDEST SWAP6 POP POP PUSH1 0x40 PUSH2 0x2370 DUP10 DUP3 DUP11 ADD PUSH2 0x1DB9 JUMP JUMPDEST SWAP5 POP POP PUSH1 0x60 DUP8 ADD CALLDATALOAD PUSH8 0xFFFFFFFFFFFFFFFF DUP2 GT ISZERO PUSH2 0x2391 JUMPI PUSH2 0x2390 PUSH2 0x1BF4 JUMP JUMPDEST JUMPDEST PUSH2 0x239D DUP10 DUP3 DUP11 ADD PUSH2 0x1D74 JUMP JUMPDEST SWAP4 POP POP PUSH1 0x80 PUSH2 0x23AE DUP10 DUP3 DUP11 ADD PUSH2 0x1DB9 JUMP JUMPDEST SWAP3 POP POP PUSH1 0xA0 DUP8 ADD CALLDATALOAD PUSH8 0xFFFFFFFFFFFFFFFF DUP2 GT ISZERO PUSH2 0x23CF JUMPI PUSH2 0x23CE PUSH2 0x1BF4 JUMP JUMPDEST JUMPDEST PUSH2 0x23DB DUP10 DUP3 DUP11 ADD PUSH2 0x1D74 JUMP JUMPDEST SWAP2 POP POP SWAP3 SWAP6 POP SWAP3 SWAP6 POP SWAP3 SWAP6 JUMP JUMPDEST PUSH1 0x0 PUSH1 0x20 DUP3 DUP5 SUB SLT ISZERO PUSH2 0x23FE JUMPI PUSH2 0x23FD PUSH2 0x1BEF JUMP JUMPDEST JUMPDEST PUSH1 0x0 DUP3 ADD CALLDATALOAD PUSH8 0xFFFFFFFFFFFFFFFF DUP2 GT ISZERO PUSH2 0x241C JUMPI PUSH2 0x241B PUSH2 0x1BF4 JUMP JUMPDEST JUMPDEST PUSH2 0x2428 DUP5 DUP3 DUP6 ADD PUSH2 0x1D74 JUMP JUMPDEST SWAP2 POP POP SWAP3 SWAP2 POP POP JUMP JUMPDEST PUSH1 0x0 PUSH2 0x140 DUP3 ADD SWAP1 POP DUP2 DUP2 SUB PUSH1 0x0 DUP4 ADD MSTORE PUSH2 0x244C DUP2 DUP14 PUSH2 0x205D JUMP JUMPDEST SWAP1 POP DUP2 DUP2 SUB PUSH1 0x20 DUP4 ADD MSTORE PUSH2 0x2460 DUP2 DUP13 PUSH2 0x205D JUMP JUMPDEST SWAP1 POP DUP2 DUP2 SUB PUSH1 0x40 DUP4 ADD MSTORE PUSH2 0x2474 DUP2 DUP12 PUSH2 0x205D JUMP JUMPDEST SWAP1 POP PUSH2 0x2483 PUSH1 0x60 DUP4 ADD DUP11 PUSH2 0x1BBB JUMP JUMPDEST DUP2 DUP2 SUB PUSH1 0x80 DUP4 ADD MSTORE PUSH2 0x2495 DUP2 DUP10 PUSH2 0x205D JUMP JUMPDEST SWAP1 POP PUSH2 0x24A4 PUSH1 0xA0 DUP4 ADD DUP9 PUSH2 0x20C4 JUMP JUMPDEST PUSH2 0x24B1 PUSH1 0xC0 DUP4 ADD DUP8 PUSH2 0x20C4 JUMP JUMPDEST PUSH2 0x24BE PUSH1 0xE0 DUP4 ADD DUP7 PUSH2 0x1BBB JUMP JUMPDEST DUP2 DUP2 SUB PUSH2 0x100 DUP4 ADD MSTORE PUSH2 0x24D1 DUP2 DUP6 PUSH2 0x205D JUMP JUMPDEST SWAP1 POP PUSH2 0x24E1 PUSH2 0x120 DUP4 ADD DUP5 PUSH2 0x1BBB JUMP JUMPDEST SWAP12 SWAP11 POP POP POP POP POP POP POP POP POP POP POP JUMP JUMPDEST PUSH32 0x4E487B7100000000000000000000000000000000000000000000000000000000 PUSH1 0x0 MSTORE PUSH1 0x22 PUSH1 0x4 MSTORE PUSH1 0x24 PUSH1 0x0 REVERT JUMPDEST PUSH1 0x0 PUSH1 0x2 DUP3 DIV SWAP1 POP PUSH1 0x1 DUP3 AND DUP1 PUSH2 0x2537 JUMPI PUSH1 0x7F DUP3 AND SWAP2 POP JUMPDEST PUSH1 0x20 DUP3 LT DUP2 EQ ISZERO PUSH2 0x254B JUMPI PUSH2 0x254A PUSH2 0x24F0 JUMP JUMPDEST JUMPDEST POP SWAP2 SWAP1 POP JUMP JUMPDEST PUSH1 0x0 DUP2 SWAP1 POP SWAP3 SWAP2 POP POP JUMP JUMPDEST PUSH1 0x0 PUSH2 0x2567 DUP3 PUSH2 0x1EB5 JUMP JUMPDEST PUSH2 0x2571 DUP2 DUP6 PUSH2 0x2551 JUMP JUMPDEST SWAP4 POP PUSH2 0x2581 DUP2 DUP6 PUSH1 0x20 DUP7 ADD PUSH2 0x1ED1 JUMP JUMPDEST DUP1 DUP5 ADD SWAP2 POP POP SWAP3 SWAP2 POP POP JUMP JUMPDEST PUSH1 0x0 PUSH2 0x2599 DUP3 DUP5 PUSH2 0x255C JUMP JUMPDEST SWAP2 POP DUP2 SWAP1 POP SWAP3 SWAP2 POP POP JUMP JUMPDEST PUSH32 0x4E487B7100000000000000000000000000000000000000000000000000000000 PUSH1 0x0 MSTORE PUSH1 0x11 PUSH1 0x4 MSTORE PUSH1 0x24 PUSH1 0x0 REVERT JUMPDEST PUSH1 0x0 PUSH2 0x25DE DUP3 PUSH2 0x1BF9 JUMP JUMPDEST SWAP2 POP PUSH2 0x25E9 DUP4 PUSH2 0x1BF9 JUMP JUMPDEST SWAP3 POP DUP3 PUSH32 0xFFFFFFFFFFFFFFFFFFFFFFFFFFFFFFFFFFFFFFFFFFFFFFFFFFFFFFFFFFFFFFFF SUB DUP3 GT ISZERO PUSH2 0x261E JUMPI PUSH2 0x261D PUSH2 0x25A4 JUMP JUMPDEST JUMPDEST DUP3 DUP3 ADD SWAP1 POP SWAP3 SWAP2 POP POP JUMP INVALID LOG2 PUSH5 0x6970667358 0x22 SLT KECCAK256 DUP9 SWAP16 0xBD LOG4 MULMOD 0x4E 0x2D DUP2 0xE2 0x2A MUL PUSH10 0x6AD2641F362E11613B6A SAR 0xD1 0xAF DUP12 0xF SELFBALANCE 0xE4 PUSH32 0x2A8C64736F6C634300080A003300000000000000000000000000000000000000 "},"gasEstimates":{"creation":{"codeDepositCost":"1964600","executionCost":"infinite","totalCost":"infinite"},"external":{"activateAdmin(address)":"27008","addAdmin(string,string,string,address)":"infinite","admins(address)":"infinite","adminsAdresses(uint256)":"5002","counties(uint256)":"infinite","deactivateAdmin(address)":"27095","editAdmin(string,string,string,address)":"infinite","getAdmin(address)":"infinite","getAdminAddresses()":"infinite","getLandIds()":"infinite","getSuperAdminPassword()":"infinite","landIdsArr(uint256)":"infinite","landIdsMapping(string)":"infinite","lands(string)":"infinite","landsCount()":"2474","loginAdmin()":"2652","registerLand(string,string,address,string,address,string)":"infinite","superAdminAddress()":"2535"},"internal":{"equal(string memory,string memory)":"infinite"}},"methodIdentifiers":{"activateAdmin(address)":"1af1a768","addAdmin(string,string,string,address)":"cddb61b7","admins(address)":"429b62e5","adminsAdresses(uint256)":"13718c97","counties(uint256)":"2a979f31","deactivateAdmin(address)":"df6fa20e","editAdmin(string,string,string,address)":"1510f0d5","getAdmin(address)":"64efb22b","getAdminAddresses()":"64ddfa29","getLandIds()":"1a994ed8","getSuperAdminPassword()":"2de8f46d","landIdsArr(uint256)":"cbd5121c","landIdsMapping(string)":"c4a0086f","lands(string)":"b1c8ad0d","landsCount()":"1c9afd0f","loginAdmin()":"8b5c9335","registerLand(string,string,address,string,address,string)":"ade79551","superAdminAddress()":"045b3034"}},"storageLayout":{"storage":[{"astId":35,"contract":"LandRegistration.sol:LandRegistration","label":"superAdminAddress","offset":0,"slot":"0","type":"t_address"},{"astId":37,"contract":"LandRegistration.sol:LandRegistration","label":"superAdminPassword","offset":0,"slot":"1","type":"t_string_storage"},{"astId":42,"contract":"LandRegistration.sol:LandRegistration","label":"admins","offset":0,"slot":"2","type":"t_mapping(t_address,t_struct(Admin)12_storage)"},{"astId":46,"contract":"LandRegistration.sol:LandRegistration","label":"addresses","offset":0,"slot":"3","type":"t_mapping(t_address,t_bool)"},{"astId":49,"contract":"LandRegistration.sol:LandRegistration","label":"counties","offset":0,"slot":"4","type":"t_array(t_string_storage)dyn_storage"},{"astId":52,"contract":"LandRegistration.sol:LandRegistration","label":"adminsAdresses","offset":0,"slot":"5","type":"t_array(t_address)dyn_storage"},{"astId":55,"contract":"LandRegistration.sol:LandRegistration","label":"landIdsArr","offset":0,"slot":"6","type":"t_array(t_string_storage)dyn_storage"},{"astId":59,"contract":"LandRegistration.sol:LandRegistration","label":"landIdsMapping","offset":0,"slot":"7","type":"t_mapping(t_string_memory_ptr,t_bool)"},{"astId":64,"contract":"LandRegistration.sol:LandRegistration","label":"lands","offset":0,"slot":"8","type":"t_mapping(t_string_memory_ptr,t_struct(Land)33_storage)"},{"astId":66,"contract":"LandRegistration.sol:LandRegistration","label":"landsCount","offset":0,"slot":"9","type":"t_uint256"}],"types":{"t_address":{"encoding":"inplace","label":"address","numberOfBytes":"20"},"t_array(t_address)dyn_storage":{"base":"t_address","encoding":"dynamic_array","label":"address[]","numberOfBytes":"32"},"t_array(t_string_storage)dyn_storage":{"base":"t_string_storage","encoding":"dynamic_array","label":"string[]","numberOfBytes":"32"},"t_bool":{"encoding":"inplace","label":"bool","numberOfBytes":"1"},"t_mapping(t_address,t_bool)":{"encoding":"mapping","key":"t_address","label":"mapping(address => bool)","numberOfBytes":"32","value":"t_bool"},"t_mapping(t_address,t_struct(Admin)12_storage)":{"encoding":"mapping","key":"t_address","label":"mapping(address => struct LandRegistration.Admin)","numberOfBytes":"32","value":"t_struct(Admin)12_storage"},"t_mapping(t_string_memory_ptr,t_bool)":{"encoding":"mapping","key":"t_string_memory_ptr","label":"mapping(string => bool)","numberOfBytes":"32","value":"t_bool"},"t_mapping(t_string_memory_ptr,t_struct(Land)33_storage)":{"encoding":"mapping","key":"t_string_memory_ptr","label":"mapping(string => struct LandRegistration.Land)","numberOfBytes":"32","value":"t_struct(Land)33_storage"},"t_string_memory_ptr":{"encoding":"bytes","label":"string","numberOfBytes":"32"},"t_string_storage":{"encoding":"bytes","label":"string","numberOfBytes":"32"},"t_struct(Admin)12_storage":{"encoding":"inplace","label":"struct LandRegistration.Admin","members":[{"astId":3,"contract":"LandRegistration.sol:LandRegistration","label":"firstName","offset":0,"slot":"0","type":"t_string_storage"},{"astId":5,"contract":"LandRegistration.sol:LandRegistration","label":"lastName","offset":0,"slot":"1","type":"t_string_storage"},{"astId":7,"contract":"LandRegistration.sol:LandRegistration","label":"adminAddress","offset":0,"slot":"2","type":"t_address"},{"astId":9,"contract":"LandRegistration.sol:LandRegistration","label":"county","offset":0,"slot":"3","type":"t_string_storage"},{"astId":11,"contract":"LandRegistration.sol:LandRegistration","label":"active","offset":0,"slot":"4","type":"t_bool"}],"numberOfBytes":"160"},"t_struct(Land)33_storage":{"encoding":"inplace","label":"struct LandRegistration.Land","members":[{"astId":14,"contract":"LandRegistration.sol:LandRegistration","label":"county","offset":0,"slot":"0","type":"t_string_storage"},{"astId":16,"contract":"LandRegistration.sol:LandRegistration","label":"location","offset":0,"slot":"1","type":"t_string_storage"},{"astId":18,"contract":"LandRegistration.sol:LandRegistration","label":"surveyNumber","offset":0,"slot":"2","type":"t_string_storage"},{"astId":20,"contract":"LandRegistration.sol:LandRegistration","label":"ownerAddress","offset":0,"slot":"3","type":"t_address"},{"astId":22,"contract":"LandRegistration.sol:LandRegistration","label":"marketValue","offset":0,"slot":"4","type":"t_string_storage"},{"astId":24,"contract":"LandRegistration.sol:LandRegistration","label":"availability","offset":0,"slot":"5","type":"t_bool"},{"astId":26,"contract":"LandRegistration.sol:LandRegistration","label":"requestedForSale","offset":1,"slot":"5","type":"t_bool"},{"astId":28,"contract":"LandRegistration.sol:LandRegistration","label":"requestedByAddress","offset":2,"slot":"5","type":"t_address"},{"astId":30,"contract":"LandRegistration.sol:LandRegistration","label":"landId","offset":0,"slot":"6","type":"t_string_storage"},{"astId":32,"contract":"LandRegistration.sol:LandRegistration","label":"adminAddress","offset":0,"slot":"7","type":"t_address"}],"numberOfBytes":"256"},"t_uint256":{"encoding":"inplace","label":"uint256","numberOfBytes":"32"}}},"userdoc":{"kind":"user","methods":{},"version":1}}