{"abi":[{"inputs":[{"internalType":"string","name":"password","type":"string"}],"stateMutability":"nonpayable","type":"constructor"},{"inputs":[{"internalType":"string","name":"_landId","type":"string"}],"name":"acceptBuyingRequest","outputs":[],"stateMutability":"nonpayable","type":"function"},{"inputs":[{"internalType":"address","name":"adminAddress","type":"address"}],"name":"activateAdmin","outputs":[],"stateMutability":"nonpayable","type":"function"},{"inputs":[{"internalType":"string","name":"firstName","type":"string"},{"internalType":"string","name":"lastName","type":"string"},{"internalType":"string","name":"county","type":"string"},{"internalType":"address","name":"adminAddress","type":"address"}],"name":"addAdmin","outputs":[],"stateMutability":"nonpayable","type":"function"},{"inputs":[{"internalType":"address","name":"","type":"address"}],"name":"admins","outputs":[{"internalType":"string","name":"firstName","type":"string"},{"internalType":"string","name":"lastName","type":"string"},{"internalType":"address","name":"adminAddress","type":"address"},{"internalType":"string","name":"county","type":"string"},{"internalType":"bool","name":"active","type":"bool"}],"stateMutability":"view","type":"function"},{"inputs":[{"internalType":"uint256","name":"","type":"uint256"}],"name":"adminsAdresses","outputs":[{"internalType":"address","name":"","type":"address"}],"stateMutability":"view","type":"function"},{"inputs":[{"internalType":"string","name":"_landId","type":"string"}],"name":"buyLand","outputs":[],"stateMutability":"nonpayable","type":"function"},{"inputs":[{"internalType":"string","name":"_landId","type":"string"}],"name":"cancelBuyinRequest","outputs":[],"stateMutability":"nonpayable","type":"function"},{"inputs":[{"internalType":"uint256","name":"","type":"uint256"}],"name":"counties","outputs":[{"internalType":"string","name":"","type":"string"}],"stateMutability":"view","type":"function"},{"inputs":[{"internalType":"address","name":"adminAddress","type":"address"}],"name":"deactivateAdmin","outputs":[],"stateMutability":"nonpayable","type":"function"},{"inputs":[{"internalType":"string","name":"_landId","type":"string"}],"name":"declineBuyingRequest","outputs":[],"stateMutability":"nonpayable","type":"function"},{"inputs":[{"internalType":"string","name":"_firstName","type":"string"},{"internalType":"string","name":"_lastName","type":"string"},{"internalType":"string","name":"_county","type":"string"},{"internalType":"address","name":"_adminAddress","type":"address"}],"name":"editAdmin","outputs":[],"stateMutability":"nonpayable","type":"function"},{"inputs":[{"internalType":"address","name":"adminAddress","type":"address"}],"name":"getAdmin","outputs":[{"components":[{"internalType":"string","name":"firstName","type":"string"},{"internalType":"string","name":"lastName","type":"string"},{"internalType":"address","name":"adminAddress","type":"address"},{"internalType":"string","name":"county","type":"string"},{"internalType":"bool","name":"active","type":"bool"}],"internalType":"struct LandRegistration.Admin","name":"","type":"tuple"}],"stateMutability":"view","type":"function"},{"inputs":[],"name":"getAdminAddresses","outputs":[{"internalType":"address[]","name":"","type":"address[]"}],"stateMutability":"view","type":"function"},{"inputs":[],"name":"getLandIds","outputs":[{"internalType":"string[]","name":"","type":"string[]"}],"stateMutability":"view","type":"function"},{"inputs":[],"name":"getSuperAdminPassword","outputs":[{"internalType":"string","name":"","type":"string"}],"stateMutability":"view","type":"function"},{"inputs":[{"internalType":"uint256","name":"","type":"uint256"}],"name":"landIdsArr","outputs":[{"internalType":"string","name":"","type":"string"}],"stateMutability":"view","type":"function"},{"inputs":[{"internalType":"string","name":"","type":"string"}],"name":"landIdsMapping","outputs":[{"internalType":"bool","name":"","type":"bool"}],"stateMutability":"view","type":"function"},{"inputs":[{"internalType":"address","name":"","type":"address"}],"name":"landOwners","outputs":[{"internalType":"bool","name":"","type":"bool"}],"stateMutability":"view","type":"function"},{"inputs":[{"internalType":"address","name":"","type":"address"}],"name":"landOwnersDetails","outputs":[{"internalType":"string","name":"firstName","type":"string"},{"internalType":"string","name":"lastName","type":"string"},{"internalType":"string","name":"middleName","type":"string"},{"internalType":"string","name":"gender","type":"string"},{"internalType":"string","name":"email","type":"string"},{"internalType":"string","name":"phoneNumber","type":"string"},{"internalType":"string","name":"poBox","type":"string"},{"internalType":"string","name":"location","type":"string"},{"internalType":"address","name":"landOwnerAddress","type":"address"}],"stateMutability":"view","type":"function"},{"inputs":[{"internalType":"string","name":"","type":"string"}],"name":"lands","outputs":[{"internalType":"string","name":"county","type":"string"},{"internalType":"string","name":"location","type":"string"},{"internalType":"string","name":"surveyNumber","type":"string"},{"internalType":"address","name":"ownerAddress","type":"address"},{"internalType":"string","name":"marketValue","type":"string"},{"internalType":"bool","name":"availability","type":"bool"},{"internalType":"bool","name":"requestedForSale","type":"bool"},{"internalType":"address","name":"requestedByAddress","type":"address"},{"internalType":"string","name":"landId","type":"string"},{"internalType":"address","name":"adminAddress","type":"address"},{"internalType":"bool","name":"allowedToBuy","type":"bool"}],"stateMutability":"view","type":"function"},{"inputs":[],"name":"landsCount","outputs":[{"internalType":"uint256","name":"","type":"uint256"}],"stateMutability":"view","type":"function"},{"inputs":[],"name":"loginAdmin","outputs":[{"internalType":"bool","name":"","type":"bool"}],"stateMutability":"view","type":"function"},{"inputs":[{"internalType":"string","name":"_landId","type":"string"}],"name":"makeLandAvailable","outputs":[],"stateMutability":"nonpayable","type":"function"},{"inputs":[{"internalType":"string","name":"_landId","type":"string"}],"name":"makeLandUnavailable","outputs":[],"stateMutability":"nonpayable","type":"function"},{"inputs":[{"internalType":"string","name":"_landId","type":"string"}],"name":"makeRequestToBuy","outputs":[],"stateMutability":"nonpayable","type":"function"},{"inputs":[{"internalType":"string","name":"_location","type":"string"},{"internalType":"string","name":"_surveryNumber","type":"string"},{"internalType":"address","name":"_ownerAddress","type":"address"},{"internalType":"string","name":"_marketValue","type":"string"},{"internalType":"address","name":"_adminAddress","type":"address"},{"internalType":"string","name":"_landId","type":"string"}],"name":"registerLand","outputs":[],"stateMutability":"nonpayable","type":"function"},{"inputs":[],"name":"registerLandOwner","outputs":[{"internalType":"bool","name":"","type":"bool"}],"stateMutability":"nonpayable","type":"function"},{"inputs":[],"name":"superAdminAddress","outputs":[{"internalType":"address","name":"","type":"address"}],"stateMutability":"view","type":"function"},{"inputs":[{"internalType":"string","name":"_firstName","type":"string"},{"internalType":"string","name":"_lastName","type":"string"},{"internalType":"string","name":"_middleName","type":"string"},{"internalType":"string","name":"_gender","type":"string"},{"internalType":"string","name":"_email","type":"string"},{"internalType":"string","name":"_phoneNumber","type":"string"},{"internalType":"string","name":"_poBox","type":"string"},{"internalType":"string","name":"_location","type":"string"}],"name":"updateLandOwner","outputs":[],"stateMutability":"nonpayable","type":"function"}],"devdoc":{"kind":"dev","methods":{},"version":1},"evm":{"assembly":"    /* \"LandRegistration.sol\":61:7623  contract LandRegistration {... */\n  mstore(0x40, 0x80)\n    /* \"LandRegistration.sol\":1343:1489  constructor(string memory password) {... */\n  callvalue\n  dup1\n  iszero\n  tag_1\n  jumpi\n  0x00\n  dup1\n  revert\ntag_1:\n  pop\n  mload(0x40)\n  sub(codesize, bytecodeSize)\n  dup1\n  bytecodeSize\n  dup4\n  codecopy\n  dup2\n  dup2\n  add\n  0x40\n  mstore\n  dup2\n  add\n  swap1\n  tag_2\n  swap2\n  swap1\n  tag_3\n  jump\t// in\ntag_2:\n    /* \"LandRegistration.sol\":1410:1418  password */\n  dup1\n    /* \"LandRegistration.sol\":1389:1407  superAdminPassword */\n  0x01\n    /* \"LandRegistration.sol\":1389:1418  superAdminPassword = password */\n  swap1\n  dup1\n  mload\n  swap1\n  0x20\n  add\n  swap1\n  tag_6\n  swap3\n  swap2\n  swap1\n  tag_7\n  jump\t// in\ntag_6:\n  pop\n    /* \"LandRegistration.sol\":1448:1458  msg.sender */\n  caller\n    /* \"LandRegistration.sol\":1428:1445  superAdminAddress */\n  0x00\n  dup1\n    /* \"LandRegistration.sol\":1428:1458  superAdminAddress = msg.sender */\n  0x0100\n  exp\n  dup2\n  sload\n  dup2\n  0xffffffffffffffffffffffffffffffffffffffff\n  mul\n  not\n  and\n  swap1\n  dup4\n  0xffffffffffffffffffffffffffffffffffffffff\n  and\n  mul\n  or\n  swap1\n  sstore\n  pop\n    /* \"LandRegistration.sol\":1481:1482  0 */\n  0x00\n    /* \"LandRegistration.sol\":1468:1478  landsCount */\n  0x09\n    /* \"LandRegistration.sol\":1468:1482  landsCount = 0 */\n  dup2\n  swap1\n  sstore\n  pop\n    /* \"LandRegistration.sol\":1343:1489  constructor(string memory password) {... */\n  pop\n    /* \"LandRegistration.sol\":61:7623  contract LandRegistration {... */\n  jump(tag_8)\ntag_7:\n  dup3\n  dup1\n  sload\n  tag_9\n  swap1\n  tag_10\n  jump\t// in\ntag_9:\n  swap1\n  0x00\n  mstore\n  keccak256(0x00, 0x20)\n  swap1\n  0x1f\n  add\n  0x20\n  swap1\n  div\n  dup2\n  add\n  swap3\n  dup3\n  tag_12\n  jumpi\n  0x00\n  dup6\n  sstore\n  jump(tag_11)\ntag_12:\n  dup3\n  0x1f\n  lt\n  tag_13\n  jumpi\n  dup1\n  mload\n  not(0xff)\n  and\n  dup4\n  dup1\n  add\n  or\n  dup6\n  sstore\n  jump(tag_11)\ntag_13:\n  dup3\n  dup1\n  add\n  0x01\n  add\n  dup6\n  sstore\n  dup3\n  iszero\n  tag_11\n  jumpi\n  swap2\n  dup3\n  add\ntag_14:\n  dup3\n  dup2\n  gt\n  iszero\n  tag_15\n  jumpi\n  dup3\n  mload\n  dup3\n  sstore\n  swap2\n  0x20\n  add\n  swap2\n  swap1\n  0x01\n  add\n  swap1\n  jump(tag_14)\ntag_15:\ntag_11:\n  pop\n  swap1\n  pop\n  tag_16\n  swap2\n  swap1\n  tag_17\n  jump\t// in\ntag_16:\n  pop\n  swap1\n  jump\t// out\ntag_17:\ntag_18:\n  dup1\n  dup3\n  gt\n  iszero\n  tag_19\n  jumpi\n  0x00\n  dup2\n  0x00\n  swap1\n  sstore\n  pop\n  0x01\n  add\n  jump(tag_18)\ntag_19:\n  pop\n  swap1\n  jump\t// out\n    /* \"#utility.yul\":7:82   */\ntag_20:\n    /* \"#utility.yul\":40:46   */\n  0x00\n    /* \"#utility.yul\":73:75   */\n  0x40\n    /* \"#utility.yul\":67:76   */\n  mload\n    /* \"#utility.yul\":57:76   */\n  swap1\n  pop\n    /* \"#utility.yul\":7:82   */\n  swap1\n  jump\t// out\n    /* \"#utility.yul\":88:205   */\ntag_21:\n    /* \"#utility.yul\":197:198   */\n  0x00\n    /* \"#utility.yul\":194:195   */\n  dup1\n    /* \"#utility.yul\":187:199   */\n  revert\n    /* \"#utility.yul\":211:328   */\ntag_22:\n    /* \"#utility.yul\":320:321   */\n  0x00\n    /* \"#utility.yul\":317:318   */\n  dup1\n    /* \"#utility.yul\":310:322   */\n  revert\n    /* \"#utility.yul\":334:451   */\ntag_23:\n    /* \"#utility.yul\":443:444   */\n  0x00\n    /* \"#utility.yul\":440:441   */\n  dup1\n    /* \"#utility.yul\":433:445   */\n  revert\n    /* \"#utility.yul\":457:574   */\ntag_24:\n    /* \"#utility.yul\":566:567   */\n  0x00\n    /* \"#utility.yul\":563:564   */\n  dup1\n    /* \"#utility.yul\":556:568   */\n  revert\n    /* \"#utility.yul\":580:682   */\ntag_25:\n    /* \"#utility.yul\":621:627   */\n  0x00\n    /* \"#utility.yul\":672:674   */\n  0x1f\n    /* \"#utility.yul\":668:675   */\n  not\n    /* \"#utility.yul\":663:665   */\n  0x1f\n    /* \"#utility.yul\":656:661   */\n  dup4\n    /* \"#utility.yul\":652:666   */\n  add\n    /* \"#utility.yul\":648:676   */\n  and\n    /* \"#utility.yul\":638:676   */\n  swap1\n  pop\n    /* \"#utility.yul\":580:682   */\n  swap2\n  swap1\n  pop\n  jump\t// out\n    /* \"#utility.yul\":688:868   */\ntag_26:\n    /* \"#utility.yul\":736:813   */\n  0x4e487b7100000000000000000000000000000000000000000000000000000000\n    /* \"#utility.yul\":733:734   */\n  0x00\n    /* \"#utility.yul\":726:814   */\n  mstore\n    /* \"#utility.yul\":833:837   */\n  0x41\n    /* \"#utility.yul\":830:831   */\n  0x04\n    /* \"#utility.yul\":823:838   */\n  mstore\n    /* \"#utility.yul\":857:861   */\n  0x24\n    /* \"#utility.yul\":854:855   */\n  0x00\n    /* \"#utility.yul\":847:862   */\n  revert\n    /* \"#utility.yul\":874:1155   */\ntag_27:\n    /* \"#utility.yul\":957:984   */\n  tag_43\n    /* \"#utility.yul\":979:983   */\n  dup3\n    /* \"#utility.yul\":957:984   */\n  tag_25\n  jump\t// in\ntag_43:\n    /* \"#utility.yul\":949:955   */\n  dup2\n    /* \"#utility.yul\":945:985   */\n  add\n    /* \"#utility.yul\":1087:1093   */\n  dup2\n    /* \"#utility.yul\":1075:1085   */\n  dup2\n    /* \"#utility.yul\":1072:1094   */\n  lt\n    /* \"#utility.yul\":1051:1069   */\n  0xffffffffffffffff\n    /* \"#utility.yul\":1039:1049   */\n  dup3\n    /* \"#utility.yul\":1036:1070   */\n  gt\n    /* \"#utility.yul\":1033:1095   */\n  or\n    /* \"#utility.yul\":1030:1118   */\n  iszero\n  tag_44\n  jumpi\n    /* \"#utility.yul\":1098:1116   */\n  tag_45\n  tag_26\n  jump\t// in\ntag_45:\n    /* \"#utility.yul\":1030:1118   */\ntag_44:\n    /* \"#utility.yul\":1138:1148   */\n  dup1\n    /* \"#utility.yul\":1134:1136   */\n  0x40\n    /* \"#utility.yul\":1127:1149   */\n  mstore\n    /* \"#utility.yul\":917:1155   */\n  pop\n    /* \"#utility.yul\":874:1155   */\n  pop\n  pop\n  jump\t// out\n    /* \"#utility.yul\":1161:1290   */\ntag_28:\n    /* \"#utility.yul\":1195:1201   */\n  0x00\n    /* \"#utility.yul\":1222:1242   */\n  tag_47\n  tag_20\n  jump\t// in\ntag_47:\n    /* \"#utility.yul\":1212:1242   */\n  swap1\n  pop\n    /* \"#utility.yul\":1251:1284   */\n  tag_48\n    /* \"#utility.yul\":1279:1283   */\n  dup3\n    /* \"#utility.yul\":1271:1277   */\n  dup3\n    /* \"#utility.yul\":1251:1284   */\n  tag_27\n  jump\t// in\ntag_48:\n    /* \"#utility.yul\":1161:1290   */\n  swap2\n  swap1\n  pop\n  jump\t// out\n    /* \"#utility.yul\":1296:1604   */\ntag_29:\n    /* \"#utility.yul\":1358:1362   */\n  0x00\n    /* \"#utility.yul\":1448:1466   */\n  0xffffffffffffffff\n    /* \"#utility.yul\":1440:1446   */\n  dup3\n    /* \"#utility.yul\":1437:1467   */\n  gt\n    /* \"#utility.yul\":1434:1490   */\n  iszero\n  tag_50\n  jumpi\n    /* \"#utility.yul\":1470:1488   */\n  tag_51\n  tag_26\n  jump\t// in\ntag_51:\n    /* \"#utility.yul\":1434:1490   */\ntag_50:\n    /* \"#utility.yul\":1508:1537   */\n  tag_52\n    /* \"#utility.yul\":1530:1536   */\n  dup3\n    /* \"#utility.yul\":1508:1537   */\n  tag_25\n  jump\t// in\ntag_52:\n    /* \"#utility.yul\":1500:1537   */\n  swap1\n  pop\n    /* \"#utility.yul\":1592:1596   */\n  0x20\n    /* \"#utility.yul\":1586:1590   */\n  dup2\n    /* \"#utility.yul\":1582:1597   */\n  add\n    /* \"#utility.yul\":1574:1597   */\n  swap1\n  pop\n    /* \"#utility.yul\":1296:1604   */\n  swap2\n  swap1\n  pop\n  jump\t// out\n    /* \"#utility.yul\":1610:1917   */\ntag_30:\n    /* \"#utility.yul\":1678:1679   */\n  0x00\n    /* \"#utility.yul\":1688:1801   */\ntag_54:\n    /* \"#utility.yul\":1702:1708   */\n  dup4\n    /* \"#utility.yul\":1699:1700   */\n  dup2\n    /* \"#utility.yul\":1696:1709   */\n  lt\n    /* \"#utility.yul\":1688:1801   */\n  iszero\n  tag_56\n  jumpi\n    /* \"#utility.yul\":1787:1788   */\n  dup1\n    /* \"#utility.yul\":1782:1785   */\n  dup3\n    /* \"#utility.yul\":1778:1789   */\n  add\n    /* \"#utility.yul\":1772:1790   */\n  mload\n    /* \"#utility.yul\":1768:1769   */\n  dup2\n    /* \"#utility.yul\":1763:1766   */\n  dup5\n    /* \"#utility.yul\":1759:1770   */\n  add\n    /* \"#utility.yul\":1752:1791   */\n  mstore\n    /* \"#utility.yul\":1724:1726   */\n  0x20\n    /* \"#utility.yul\":1721:1722   */\n  dup2\n    /* \"#utility.yul\":1717:1727   */\n  add\n    /* \"#utility.yul\":1712:1727   */\n  swap1\n  pop\n    /* \"#utility.yul\":1688:1801   */\n  jump(tag_54)\ntag_56:\n    /* \"#utility.yul\":1819:1825   */\n  dup4\n    /* \"#utility.yul\":1816:1817   */\n  dup2\n    /* \"#utility.yul\":1813:1826   */\n  gt\n    /* \"#utility.yul\":1810:1911   */\n  iszero\n  tag_57\n  jumpi\n    /* \"#utility.yul\":1899:1900   */\n  0x00\n    /* \"#utility.yul\":1890:1896   */\n  dup5\n    /* \"#utility.yul\":1885:1888   */\n  dup5\n    /* \"#utility.yul\":1881:1897   */\n  add\n    /* \"#utility.yul\":1874:1901   */\n  mstore\n    /* \"#utility.yul\":1810:1911   */\ntag_57:\n    /* \"#utility.yul\":1659:1917   */\n  pop\n    /* \"#utility.yul\":1610:1917   */\n  pop\n  pop\n  pop\n  jump\t// out\n    /* \"#utility.yul\":1923:2344   */\ntag_31:\n    /* \"#utility.yul\":2012:2017   */\n  0x00\n    /* \"#utility.yul\":2037:2103   */\n  tag_59\n    /* \"#utility.yul\":2053:2102   */\n  tag_60\n    /* \"#utility.yul\":2095:2101   */\n  dup5\n    /* \"#utility.yul\":2053:2102   */\n  tag_29\n  jump\t// in\ntag_60:\n    /* \"#utility.yul\":2037:2103   */\n  tag_28\n  jump\t// in\ntag_59:\n    /* \"#utility.yul\":2028:2103   */\n  swap1\n  pop\n    /* \"#utility.yul\":2126:2132   */\n  dup3\n    /* \"#utility.yul\":2119:2124   */\n  dup2\n    /* \"#utility.yul\":2112:2133   */\n  mstore\n    /* \"#utility.yul\":2164:2168   */\n  0x20\n    /* \"#utility.yul\":2157:2162   */\n  dup2\n    /* \"#utility.yul\":2153:2169   */\n  add\n    /* \"#utility.yul\":2202:2205   */\n  dup5\n    /* \"#utility.yul\":2193:2199   */\n  dup5\n    /* \"#utility.yul\":2188:2191   */\n  dup5\n    /* \"#utility.yul\":2184:2200   */\n  add\n    /* \"#utility.yul\":2181:2206   */\n  gt\n    /* \"#utility.yul\":2178:2290   */\n  iszero\n  tag_61\n  jumpi\n    /* \"#utility.yul\":2209:2288   */\n  tag_62\n  tag_24\n  jump\t// in\ntag_62:\n    /* \"#utility.yul\":2178:2290   */\ntag_61:\n    /* \"#utility.yul\":2299:2338   */\n  tag_63\n    /* \"#utility.yul\":2331:2337   */\n  dup5\n    /* \"#utility.yul\":2326:2329   */\n  dup3\n    /* \"#utility.yul\":2321:2324   */\n  dup6\n    /* \"#utility.yul\":2299:2338   */\n  tag_30\n  jump\t// in\ntag_63:\n    /* \"#utility.yul\":2018:2344   */\n  pop\n    /* \"#utility.yul\":1923:2344   */\n  swap4\n  swap3\n  pop\n  pop\n  pop\n  jump\t// out\n    /* \"#utility.yul\":2364:2719   */\ntag_32:\n    /* \"#utility.yul\":2431:2436   */\n  0x00\n    /* \"#utility.yul\":2480:2483   */\n  dup3\n    /* \"#utility.yul\":2473:2477   */\n  0x1f\n    /* \"#utility.yul\":2465:2471   */\n  dup4\n    /* \"#utility.yul\":2461:2478   */\n  add\n    /* \"#utility.yul\":2457:2484   */\n  slt\n    /* \"#utility.yul\":2447:2569   */\n  tag_65\n  jumpi\n    /* \"#utility.yul\":2488:2567   */\n  tag_66\n  tag_23\n  jump\t// in\ntag_66:\n    /* \"#utility.yul\":2447:2569   */\ntag_65:\n    /* \"#utility.yul\":2598:2604   */\n  dup2\n    /* \"#utility.yul\":2592:2605   */\n  mload\n    /* \"#utility.yul\":2623:2713   */\n  tag_67\n    /* \"#utility.yul\":2709:2712   */\n  dup5\n    /* \"#utility.yul\":2701:2707   */\n  dup3\n    /* \"#utility.yul\":2694:2698   */\n  0x20\n    /* \"#utility.yul\":2686:2692   */\n  dup7\n    /* \"#utility.yul\":2682:2699   */\n  add\n    /* \"#utility.yul\":2623:2713   */\n  tag_31\n  jump\t// in\ntag_67:\n    /* \"#utility.yul\":2614:2713   */\n  swap2\n  pop\n    /* \"#utility.yul\":2437:2719   */\n  pop\n    /* \"#utility.yul\":2364:2719   */\n  swap3\n  swap2\n  pop\n  pop\n  jump\t// out\n    /* \"#utility.yul\":2725:3249   */\ntag_3:\n    /* \"#utility.yul\":2805:2811   */\n  0x00\n    /* \"#utility.yul\":2854:2856   */\n  0x20\n    /* \"#utility.yul\":2842:2851   */\n  dup3\n    /* \"#utility.yul\":2833:2840   */\n  dup5\n    /* \"#utility.yul\":2829:2852   */\n  sub\n    /* \"#utility.yul\":2825:2857   */\n  slt\n    /* \"#utility.yul\":2822:2941   */\n  iszero\n  tag_69\n  jumpi\n    /* \"#utility.yul\":2860:2939   */\n  tag_70\n  tag_21\n  jump\t// in\ntag_70:\n    /* \"#utility.yul\":2822:2941   */\ntag_69:\n    /* \"#utility.yul\":3001:3002   */\n  0x00\n    /* \"#utility.yul\":2990:2999   */\n  dup3\n    /* \"#utility.yul\":2986:3003   */\n  add\n    /* \"#utility.yul\":2980:3004   */\n  mload\n    /* \"#utility.yul\":3031:3049   */\n  0xffffffffffffffff\n    /* \"#utility.yul\":3023:3029   */\n  dup2\n    /* \"#utility.yul\":3020:3050   */\n  gt\n    /* \"#utility.yul\":3017:3134   */\n  iszero\n  tag_71\n  jumpi\n    /* \"#utility.yul\":3053:3132   */\n  tag_72\n  tag_22\n  jump\t// in\ntag_72:\n    /* \"#utility.yul\":3017:3134   */\ntag_71:\n    /* \"#utility.yul\":3158:3232   */\n  tag_73\n    /* \"#utility.yul\":3224:3231   */\n  dup5\n    /* \"#utility.yul\":3215:3221   */\n  dup3\n    /* \"#utility.yul\":3204:3213   */\n  dup6\n    /* \"#utility.yul\":3200:3222   */\n  add\n    /* \"#utility.yul\":3158:3232   */\n  tag_32\n  jump\t// in\ntag_73:\n    /* \"#utility.yul\":3148:3232   */\n  swap2\n  pop\n    /* \"#utility.yul\":2951:3242   */\n  pop\n    /* \"#utility.yul\":2725:3249   */\n  swap3\n  swap2\n  pop\n  pop\n  jump\t// out\n    /* \"#utility.yul\":3255:3435   */\ntag_33:\n    /* \"#utility.yul\":3303:3380   */\n  0x4e487b7100000000000000000000000000000000000000000000000000000000\n    /* \"#utility.yul\":3300:3301   */\n  0x00\n    /* \"#utility.yul\":3293:3381   */\n  mstore\n    /* \"#utility.yul\":3400:3404   */\n  0x22\n    /* \"#utility.yul\":3397:3398   */\n  0x04\n    /* \"#utility.yul\":3390:3405   */\n  mstore\n    /* \"#utility.yul\":3424:3428   */\n  0x24\n    /* \"#utility.yul\":3421:3422   */\n  0x00\n    /* \"#utility.yul\":3414:3429   */\n  revert\n    /* \"#utility.yul\":3441:3761   */\ntag_10:\n    /* \"#utility.yul\":3485:3491   */\n  0x00\n    /* \"#utility.yul\":3522:3523   */\n  0x02\n    /* \"#utility.yul\":3516:3520   */\n  dup3\n    /* \"#utility.yul\":3512:3524   */\n  div\n    /* \"#utility.yul\":3502:3524   */\n  swap1\n  pop\n    /* \"#utility.yul\":3569:3570   */\n  0x01\n    /* \"#utility.yul\":3563:3567   */\n  dup3\n    /* \"#utility.yul\":3559:3571   */\n  and\n    /* \"#utility.yul\":3590:3608   */\n  dup1\n    /* \"#utility.yul\":3580:3661   */\n  tag_76\n  jumpi\n    /* \"#utility.yul\":3646:3650   */\n  0x7f\n    /* \"#utility.yul\":3638:3644   */\n  dup3\n    /* \"#utility.yul\":3634:3651   */\n  and\n    /* \"#utility.yul\":3624:3651   */\n  swap2\n  pop\n    /* \"#utility.yul\":3580:3661   */\ntag_76:\n    /* \"#utility.yul\":3708:3710   */\n  0x20\n    /* \"#utility.yul\":3700:3706   */\n  dup3\n    /* \"#utility.yul\":3697:3711   */\n  lt\n    /* \"#utility.yul\":3677:3695   */\n  dup2\n    /* \"#utility.yul\":3674:3712   */\n  eq\n    /* \"#utility.yul\":3671:3755   */\n  iszero\n  tag_77\n  jumpi\n    /* \"#utility.yul\":3727:3745   */\n  tag_78\n  tag_33\n  jump\t// in\ntag_78:\n    /* \"#utility.yul\":3671:3755   */\ntag_77:\n    /* \"#utility.yul\":3492:3761   */\n  pop\n    /* \"#utility.yul\":3441:3761   */\n  swap2\n  swap1\n  pop\n  jump\t// out\n    /* \"LandRegistration.sol\":61:7623  contract LandRegistration {... */\ntag_8:\n  dataSize(sub_0)\n  dup1\n  dataOffset(sub_0)\n  0x00\n  codecopy\n  0x00\n  return\nstop\n\nsub_0: assembly {\n        /* \"LandRegistration.sol\":61:7623  contract LandRegistration {... */\n      mstore(0x40, 0x80)\n      callvalue\n      dup1\n      iszero\n      tag_1\n      jumpi\n      0x00\n      dup1\n      revert\n    tag_1:\n      pop\n      jumpi(tag_2, lt(calldatasize, 0x04))\n      shr(0xe0, calldataload(0x00))\n      dup1\n      0x64efb22b\n      gt\n      tag_32\n      jumpi\n      dup1\n      0xbe87bb8a\n      gt\n      tag_33\n      jumpi\n      dup1\n      0xd896fc96\n      gt\n      tag_34\n      jumpi\n      dup1\n      0xd896fc96\n      eq\n      tag_28\n      jumpi\n      dup1\n      0xdb9573e1\n      eq\n      tag_29\n      jumpi\n      dup1\n      0xdf6fa20e\n      eq\n      tag_30\n      jumpi\n      dup1\n      0xe15c1278\n      eq\n      tag_31\n      jumpi\n      jump(tag_2)\n    tag_34:\n      dup1\n      0xbe87bb8a\n      eq\n      tag_24\n      jumpi\n      dup1\n      0xc4a0086f\n      eq\n      tag_25\n      jumpi\n      dup1\n      0xcbd5121c\n      eq\n      tag_26\n      jumpi\n      dup1\n      0xcddb61b7\n      eq\n      tag_27\n      jumpi\n      jump(tag_2)\n    tag_33:\n      dup1\n      0x935b377b\n      gt\n      tag_35\n      jumpi\n      dup1\n      0x935b377b\n      eq\n      tag_20\n      jumpi\n      dup1\n      0x9a3eb0e2\n      eq\n      tag_21\n      jumpi\n      dup1\n      0xade79551\n      eq\n      tag_22\n      jumpi\n      dup1\n      0xb1c8ad0d\n      eq\n      tag_23\n      jumpi\n      jump(tag_2)\n    tag_35:\n      dup1\n      0x64efb22b\n      eq\n      tag_17\n      jumpi\n      dup1\n      0x67b57142\n      eq\n      tag_18\n      jumpi\n      dup1\n      0x8b5c9335\n      eq\n      tag_19\n      jumpi\n      jump(tag_2)\n    tag_32:\n      dup1\n      0x1d6f67eb\n      gt\n      tag_36\n      jumpi\n      dup1\n      0x2de8f46d\n      gt\n      tag_37\n      jumpi\n      dup1\n      0x2de8f46d\n      eq\n      tag_13\n      jumpi\n      dup1\n      0x429b62e5\n      eq\n      tag_14\n      jumpi\n      dup1\n      0x53beb691\n      eq\n      tag_15\n      jumpi\n      dup1\n      0x64ddfa29\n      eq\n      tag_16\n      jumpi\n      jump(tag_2)\n    tag_37:\n      dup1\n      0x1d6f67eb\n      eq\n      tag_10\n      jumpi\n      dup1\n      0x245351c9\n      eq\n      tag_11\n      jumpi\n      dup1\n      0x2a979f31\n      eq\n      tag_12\n      jumpi\n      jump(tag_2)\n    tag_36:\n      dup1\n      0x1510f0d5\n      gt\n      tag_38\n      jumpi\n      dup1\n      0x1510f0d5\n      eq\n      tag_6\n      jumpi\n      dup1\n      0x1a994ed8\n      eq\n      tag_7\n      jumpi\n      dup1\n      0x1af1a768\n      eq\n      tag_8\n      jumpi\n      dup1\n      0x1c9afd0f\n      eq\n      tag_9\n      jumpi\n      jump(tag_2)\n    tag_38:\n      dup1\n      0x045b3034\n      eq\n      tag_3\n      jumpi\n      dup1\n      0x0e2c6535\n      eq\n      tag_4\n      jumpi\n      dup1\n      0x13718c97\n      eq\n      tag_5\n      jumpi\n    tag_2:\n      0x00\n      dup1\n      revert\n        /* \"LandRegistration.sol\":844:876  address public superAdminAddress */\n    tag_3:\n      tag_39\n      tag_40\n      jump\t// in\n    tag_39:\n      mload(0x40)\n      tag_41\n      swap2\n      swap1\n      tag_42\n      jump\t// in\n    tag_41:\n      mload(0x40)\n      dup1\n      swap2\n      sub\n      swap1\n      return\n        /* \"LandRegistration.sol\":7366:7621  function declineBuyingRequest(string memory _landId) public {... */\n    tag_4:\n      tag_43\n      0x04\n      dup1\n      calldatasize\n      sub\n      dup2\n      add\n      swap1\n      tag_44\n      swap2\n      swap1\n      tag_45\n      jump\t// in\n    tag_44:\n      tag_46\n      jump\t// in\n    tag_43:\n      stop\n        /* \"LandRegistration.sol\":1031:1063  address [] public adminsAdresses */\n    tag_5:\n      tag_47\n      0x04\n      dup1\n      calldatasize\n      sub\n      dup2\n      add\n      swap1\n      tag_48\n      swap2\n      swap1\n      tag_49\n      jump\t// in\n    tag_48:\n      tag_50\n      jump\t// in\n    tag_47:\n      mload(0x40)\n      tag_51\n      swap2\n      swap1\n      tag_42\n      jump\t// in\n    tag_51:\n      mload(0x40)\n      dup1\n      swap2\n      sub\n      swap1\n      return\n        /* \"LandRegistration.sol\":3119:3453  function editAdmin(string memory _firstName, string memory _lastName, string memory _county, address _adminAddress) public restrictToSuperAdmin {... */\n    tag_6:\n      tag_52\n      0x04\n      dup1\n      calldatasize\n      sub\n      dup2\n      add\n      swap1\n      tag_53\n      swap2\n      swap1\n      tag_54\n      jump\t// in\n    tag_53:\n      tag_55\n      jump\t// in\n    tag_52:\n      stop\n        /* \"LandRegistration.sol\":3556:3666  function getLandIds() public view restrictToAdmin returns(string [] memory) {... */\n    tag_7:\n      tag_56\n      tag_57\n      jump\t// in\n    tag_56:\n      mload(0x40)\n      tag_58\n      swap2\n      swap1\n      tag_59\n      jump\t// in\n    tag_58:\n      mload(0x40)\n      dup1\n      swap2\n      sub\n      swap1\n      return\n        /* \"LandRegistration.sol\":2856:2980  function activateAdmin(address adminAddress) public restrictToSuperAdmin {... */\n    tag_8:\n      tag_60\n      0x04\n      dup1\n      calldatasize\n      sub\n      dup2\n      add\n      swap1\n      tag_61\n      swap2\n      swap1\n      tag_62\n      jump\t// in\n    tag_61:\n      tag_63\n      jump\t// in\n    tag_60:\n      stop\n        /* \"LandRegistration.sol\":1197:1222  uint256 public landsCount */\n    tag_9:\n      tag_64\n      tag_65\n      jump\t// in\n    tag_64:\n      mload(0x40)\n      tag_66\n      swap2\n      swap1\n      tag_67\n      jump\t// in\n    tag_66:\n      mload(0x40)\n      dup1\n      swap2\n      sub\n      swap1\n      return\n        /* \"LandRegistration.sol\":7172:7328  function acceptBuyingRequest(string memory _landId) public {... */\n    tag_10:\n      tag_68\n      0x04\n      dup1\n      calldatasize\n      sub\n      dup2\n      add\n      swap1\n      tag_69\n      swap2\n      swap1\n      tag_45\n      jump\t// in\n    tag_69:\n      tag_70\n      jump\t// in\n    tag_68:\n      stop\n        /* \"LandRegistration.sol\":5237:5913  function updateLandOwner(string memory _firstName, string memory _lastName, string memory _middleName, string memory _gender, string memory _email, string memory _phoneNumber, string memory _poBox, string memory _location) public {... */\n    tag_11:\n      tag_71\n      0x04\n      dup1\n      calldatasize\n      sub\n      dup2\n      add\n      swap1\n      tag_72\n      swap2\n      swap1\n      tag_73\n      jump\t// in\n    tag_72:\n      tag_74\n      jump\t// in\n    tag_71:\n      stop\n        /* \"LandRegistration.sol\":1000:1025  string [] public counties */\n    tag_12:\n      tag_75\n      0x04\n      dup1\n      calldatasize\n      sub\n      dup2\n      add\n      swap1\n      tag_76\n      swap2\n      swap1\n      tag_49\n      jump\t// in\n    tag_76:\n      tag_77\n      jump\t// in\n    tag_75:\n      mload(0x40)\n      tag_78\n      swap2\n      swap1\n      tag_79\n      jump\t// in\n    tag_78:\n      mload(0x40)\n      dup1\n      swap2\n      sub\n      swap1\n      return\n        /* \"LandRegistration.sol\":1840:1971  function getSuperAdminPassword() public view restrictToSuperAdmin returns(string memory) {... */\n    tag_13:\n      tag_80\n      tag_81\n      jump\t// in\n    tag_80:\n      mload(0x40)\n      tag_82\n      swap2\n      swap1\n      tag_79\n      jump\t// in\n    tag_82:\n      mload(0x40)\n      dup1\n      swap2\n      sub\n      swap1\n      return\n        /* \"LandRegistration.sol\":913:953  mapping (address => Admin) public admins */\n    tag_14:\n      tag_83\n      0x04\n      dup1\n      calldatasize\n      sub\n      dup2\n      add\n      swap1\n      tag_84\n      swap2\n      swap1\n      tag_62\n      jump\t// in\n    tag_84:\n      tag_85\n      jump\t// in\n    tag_83:\n      mload(0x40)\n      tag_86\n      swap6\n      swap5\n      swap4\n      swap3\n      swap2\n      swap1\n      tag_87\n      jump\t// in\n    tag_86:\n      mload(0x40)\n      dup1\n      swap2\n      sub\n      swap1\n      return\n        /* \"LandRegistration.sol\":6325:6534  function makeRequestToBuy(string memory _landId) public {... */\n    tag_15:\n      tag_88\n      0x04\n      dup1\n      calldatasize\n      sub\n      dup2\n      add\n      swap1\n      tag_89\n      swap2\n      swap1\n      tag_45\n      jump\t// in\n    tag_89:\n      tag_90\n      jump\t// in\n    tag_88:\n      stop\n        /* \"LandRegistration.sol\":2986:3113  function getAdminAddresses() public view restrictToSuperAdmin returns(address [] memory) {... */\n    tag_16:\n      tag_91\n      tag_92\n      jump\t// in\n    tag_91:\n      mload(0x40)\n      tag_93\n      swap2\n      swap1\n      tag_94\n      jump\t// in\n    tag_93:\n      mload(0x40)\n      dup1\n      swap2\n      sub\n      swap1\n      return\n        /* \"LandRegistration.sol\":2570:2709  function getAdmin(address adminAddress) public view restrictToSuperAdmin returns(Admin memory) {... */\n    tag_17:\n      tag_95\n      0x04\n      dup1\n      calldatasize\n      sub\n      dup2\n      add\n      swap1\n      tag_96\n      swap2\n      swap1\n      tag_62\n      jump\t// in\n    tag_96:\n      tag_97\n      jump\t// in\n    tag_95:\n      mload(0x40)\n      tag_98\n      swap2\n      swap1\n      tag_99\n      jump\t// in\n    tag_98:\n      mload(0x40)\n      dup1\n      swap2\n      sub\n      swap1\n      return\n        /* \"LandRegistration.sol\":1228:1271  mapping (address => bool) public landOwners */\n    tag_18:\n      tag_100\n      0x04\n      dup1\n      calldatasize\n      sub\n      dup2\n      add\n      swap1\n      tag_101\n      swap2\n      swap1\n      tag_62\n      jump\t// in\n    tag_101:\n      tag_102\n      jump\t// in\n    tag_100:\n      mload(0x40)\n      tag_103\n      swap2\n      swap1\n      tag_104\n      jump\t// in\n    tag_103:\n      mload(0x40)\n      dup1\n      swap2\n      sub\n      swap1\n      return\n        /* \"LandRegistration.sol\":3459:3550  function loginAdmin() public view restrictToAdmin returns(bool){... */\n    tag_19:\n      tag_105\n      tag_106\n      jump\t// in\n    tag_105:\n      mload(0x40)\n      tag_107\n      swap2\n      swap1\n      tag_104\n      jump\t// in\n    tag_107:\n      mload(0x40)\n      dup1\n      swap2\n      sub\n      swap1\n      return\n        /* \"LandRegistration.sol\":5946:6100  function makeLandAvailable(string memory _landId) public {... */\n    tag_20:\n      tag_108\n      0x04\n      dup1\n      calldatasize\n      sub\n      dup2\n      add\n      swap1\n      tag_109\n      swap2\n      swap1\n      tag_45\n      jump\t// in\n    tag_109:\n      tag_110\n      jump\t// in\n    tag_108:\n      stop\n        /* \"LandRegistration.sol\":6806:7135  function buyLand(string memory _landId) public {... */\n    tag_21:\n      tag_111\n      0x04\n      dup1\n      calldatasize\n      sub\n      dup2\n      add\n      swap1\n      tag_112\n      swap2\n      swap1\n      tag_45\n      jump\t// in\n    tag_112:\n      tag_113\n      jump\t// in\n    tag_111:\n      stop\n        /* \"LandRegistration.sol\":3672:4648  function registerLand(string memory _location, string memory _surveryNumber, address _ownerAddress, string memory _marketValue, address _adminAddress, string memory _landId) public restrictToAdmin {... */\n    tag_22:\n      tag_114\n      0x04\n      dup1\n      calldatasize\n      sub\n      dup2\n      add\n      swap1\n      tag_115\n      swap2\n      swap1\n      tag_116\n      jump\t// in\n    tag_115:\n      tag_117\n      jump\t// in\n    tag_114:\n      stop\n        /* \"LandRegistration.sol\":1154:1191  mapping (string => Land) public lands */\n    tag_23:\n      tag_118\n      0x04\n      dup1\n      calldatasize\n      sub\n      dup2\n      add\n      swap1\n      tag_119\n      swap2\n      swap1\n      tag_45\n      jump\t// in\n    tag_119:\n      tag_120\n      jump\t// in\n    tag_118:\n      mload(0x40)\n      tag_121\n      swap12\n      swap11\n      swap10\n      swap9\n      swap8\n      swap7\n      swap6\n      swap5\n      swap4\n      swap3\n      swap2\n      swap1\n      tag_122\n      jump\t// in\n    tag_121:\n      mload(0x40)\n      dup1\n      swap2\n      sub\n      swap1\n      return\n        /* \"LandRegistration.sol\":1277:1332  mapping (address => LandOwner) public landOwnersDetails */\n    tag_24:\n      tag_123\n      0x04\n      dup1\n      calldatasize\n      sub\n      dup2\n      add\n      swap1\n      tag_124\n      swap2\n      swap1\n      tag_62\n      jump\t// in\n    tag_124:\n      tag_125\n      jump\t// in\n    tag_123:\n      mload(0x40)\n      tag_126\n      swap10\n      swap9\n      swap8\n      swap7\n      swap6\n      swap5\n      swap4\n      swap3\n      swap2\n      swap1\n      tag_127\n      jump\t// in\n    tag_126:\n      mload(0x40)\n      dup1\n      swap2\n      sub\n      swap1\n      return\n        /* \"LandRegistration.sol\":1102:1148  mapping (string => bool) public landIdsMapping */\n    tag_25:\n      tag_128\n      0x04\n      dup1\n      calldatasize\n      sub\n      dup2\n      add\n      swap1\n      tag_129\n      swap2\n      swap1\n      tag_45\n      jump\t// in\n    tag_129:\n      tag_130\n      jump\t// in\n    tag_128:\n      mload(0x40)\n      tag_131\n      swap2\n      swap1\n      tag_104\n      jump\t// in\n    tag_131:\n      mload(0x40)\n      dup1\n      swap2\n      sub\n      swap1\n      return\n        /* \"LandRegistration.sol\":1069:1096  string [] public landIdsArr */\n    tag_26:\n      tag_132\n      0x04\n      dup1\n      calldatasize\n      sub\n      dup2\n      add\n      swap1\n      tag_133\n      swap2\n      swap1\n      tag_49\n      jump\t// in\n    tag_133:\n      tag_134\n      jump\t// in\n    tag_132:\n      mload(0x40)\n      tag_135\n      swap2\n      swap1\n      tag_79\n      jump\t// in\n    tag_135:\n      mload(0x40)\n      dup1\n      swap2\n      sub\n      swap1\n      return\n        /* \"LandRegistration.sol\":1981:2564  function addAdmin(string memory firstName, string memory lastName, string memory county, address adminAddress) public restrictToSuperAdmin {... */\n    tag_27:\n      tag_136\n      0x04\n      dup1\n      calldatasize\n      sub\n      dup2\n      add\n      swap1\n      tag_137\n      swap2\n      swap1\n      tag_54\n      jump\t// in\n    tag_137:\n      tag_138\n      jump\t// in\n    tag_136:\n      stop\n        /* \"LandRegistration.sol\":6135:6292  function makeLandUnavailable(string memory _landId) public {... */\n    tag_28:\n      tag_139\n      0x04\n      dup1\n      calldatasize\n      sub\n      dup2\n      add\n      swap1\n      tag_140\n      swap2\n      swap1\n      tag_45\n      jump\t// in\n    tag_140:\n      tag_141\n      jump\t// in\n    tag_139:\n      stop\n        /* \"LandRegistration.sol\":4654:5231  function registerLandOwner() public returns(bool){... */\n    tag_29:\n      tag_142\n      tag_143\n      jump\t// in\n    tag_142:\n      mload(0x40)\n      tag_144\n      swap2\n      swap1\n      tag_104\n      jump\t// in\n    tag_144:\n      mload(0x40)\n      dup1\n      swap2\n      sub\n      swap1\n      return\n        /* \"LandRegistration.sol\":2719:2846  function deactivateAdmin(address adminAddress) public restrictToSuperAdmin {... */\n    tag_30:\n      tag_145\n      0x04\n      dup1\n      calldatasize\n      sub\n      dup2\n      add\n      swap1\n      tag_146\n      swap2\n      swap1\n      tag_62\n      jump\t// in\n    tag_146:\n      tag_147\n      jump\t// in\n    tag_145:\n      stop\n        /* \"LandRegistration.sol\":6572:6784  function cancelBuyinRequest(string memory _landId) public {... */\n    tag_31:\n      tag_148\n      0x04\n      dup1\n      calldatasize\n      sub\n      dup2\n      add\n      swap1\n      tag_149\n      swap2\n      swap1\n      tag_45\n      jump\t// in\n    tag_149:\n      tag_150\n      jump\t// in\n    tag_148:\n      stop\n        /* \"LandRegistration.sol\":844:876  address public superAdminAddress */\n    tag_40:\n      0x00\n      dup1\n      sload\n      swap1\n      0x0100\n      exp\n      swap1\n      div\n      0xffffffffffffffffffffffffffffffffffffffff\n      and\n      dup2\n      jump\t// out\n        /* \"LandRegistration.sol\":7366:7621  function declineBuyingRequest(string memory _landId) public {... */\n    tag_46:\n        /* \"LandRegistration.sol\":7436:7459  Land storage landToEdit */\n      0x00\n        /* \"LandRegistration.sol\":7462:7467  lands */\n      0x08\n        /* \"LandRegistration.sol\":7468:7475  _landId */\n      dup3\n        /* \"LandRegistration.sol\":7462:7476  lands[_landId] */\n      mload(0x40)\n      tag_152\n      swap2\n      swap1\n      tag_153\n      jump\t// in\n    tag_152:\n      swap1\n      dup2\n      mstore\n      0x20\n      add\n      mload(0x40)\n      dup1\n      swap2\n      sub\n      swap1\n      keccak256\n        /* \"LandRegistration.sol\":7436:7476  Land storage landToEdit = lands[_landId] */\n      swap1\n      pop\n        /* \"LandRegistration.sol\":7512:7517  false */\n      0x00\n        /* \"LandRegistration.sol\":7486:7496  landToEdit */\n      dup2\n        /* \"LandRegistration.sol\":7486:7509  landToEdit.allowedToBuy */\n      0x07\n      add\n      0x14\n        /* \"LandRegistration.sol\":7486:7517  landToEdit.allowedToBuy = false */\n      0x0100\n      exp\n      dup2\n      sload\n      dup2\n      0xff\n      mul\n      not\n      and\n      swap1\n      dup4\n      iszero\n      iszero\n      mul\n      or\n      swap1\n      sstore\n      pop\n        /* \"LandRegistration.sol\":7557:7562  false */\n      0x00\n        /* \"LandRegistration.sol\":7527:7537  landToEdit */\n      dup2\n        /* \"LandRegistration.sol\":7527:7554  landToEdit.requestedForSale */\n      0x05\n      add\n      0x01\n        /* \"LandRegistration.sol\":7527:7562  landToEdit.requestedForSale = false */\n      0x0100\n      exp\n      dup2\n      sload\n      dup2\n      0xff\n      mul\n      not\n      and\n      swap1\n      dup4\n      iszero\n      iszero\n      mul\n      or\n      swap1\n      sstore\n      pop\n        /* \"LandRegistration.sol\":7612:7613  0 */\n      0x00\n        /* \"LandRegistration.sol\":7572:7582  landToEdit */\n      dup2\n        /* \"LandRegistration.sol\":7572:7601  landToEdit.requestedByAddress */\n      0x05\n      add\n      0x02\n        /* \"LandRegistration.sol\":7572:7614  landToEdit.requestedByAddress = address(0) */\n      0x0100\n      exp\n      dup2\n      sload\n      dup2\n      0xffffffffffffffffffffffffffffffffffffffff\n      mul\n      not\n      and\n      swap1\n      dup4\n      0xffffffffffffffffffffffffffffffffffffffff\n      and\n      mul\n      or\n      swap1\n      sstore\n      pop\n        /* \"LandRegistration.sol\":7426:7621  {... */\n      pop\n        /* \"LandRegistration.sol\":7366:7621  function declineBuyingRequest(string memory _landId) public {... */\n      pop\n      jump\t// out\n        /* \"LandRegistration.sol\":1031:1063  address [] public adminsAdresses */\n    tag_50:\n      0x05\n      dup2\n      dup2\n      sload\n      dup2\n      lt\n      tag_154\n      jumpi\n      0x00\n      dup1\n      revert\n    tag_154:\n      swap1\n      0x00\n      mstore\n      keccak256(0x00, 0x20)\n      add\n      0x00\n      swap2\n      pop\n      sload\n      swap1\n      0x0100\n      exp\n      swap1\n      div\n      0xffffffffffffffffffffffffffffffffffffffff\n      and\n      dup2\n      jump\t// out\n        /* \"LandRegistration.sol\":3119:3453  function editAdmin(string memory _firstName, string memory _lastName, string memory _county, address _adminAddress) public restrictToSuperAdmin {... */\n    tag_55:\n        /* \"LandRegistration.sol\":1709:1726  superAdminAddress */\n      0x00\n      dup1\n      sload\n      swap1\n      0x0100\n      exp\n      swap1\n      div\n      0xffffffffffffffffffffffffffffffffffffffff\n      and\n        /* \"LandRegistration.sol\":1695:1726  msg.sender == superAdminAddress */\n      0xffffffffffffffffffffffffffffffffffffffff\n      and\n        /* \"LandRegistration.sol\":1695:1705  msg.sender */\n      caller\n        /* \"LandRegistration.sol\":1695:1726  msg.sender == superAdminAddress */\n      0xffffffffffffffffffffffffffffffffffffffff\n      and\n      eq\n        /* \"LandRegistration.sol\":1687:1727  require(msg.sender == superAdminAddress) */\n      tag_157\n      jumpi\n      0x00\n      dup1\n      revert\n    tag_157:\n        /* \"LandRegistration.sol\":3273:3298  Admin storage adminToEdit */\n      0x00\n        /* \"LandRegistration.sol\":3301:3307  admins */\n      0x02\n        /* \"LandRegistration.sol\":3301:3322  admins[_adminAddress] */\n      0x00\n        /* \"LandRegistration.sol\":3308:3321  _adminAddress */\n      dup4\n        /* \"LandRegistration.sol\":3301:3322  admins[_adminAddress] */\n      0xffffffffffffffffffffffffffffffffffffffff\n      and\n      0xffffffffffffffffffffffffffffffffffffffff\n      and\n      dup2\n      mstore\n      0x20\n      add\n      swap1\n      dup2\n      mstore\n      0x20\n      add\n      0x00\n      keccak256\n        /* \"LandRegistration.sol\":3273:3322  Admin storage adminToEdit = admins[_adminAddress] */\n      swap1\n      pop\n        /* \"LandRegistration.sol\":3356:3366  _firstName */\n      dup5\n        /* \"LandRegistration.sol\":3332:3343  adminToEdit */\n      dup2\n        /* \"LandRegistration.sol\":3332:3353  adminToEdit.firstName */\n      0x00\n      add\n        /* \"LandRegistration.sol\":3332:3366  adminToEdit.firstName = _firstName */\n      swap1\n      dup1\n      mload\n      swap1\n      0x20\n      add\n      swap1\n      tag_159\n      swap3\n      swap2\n      swap1\n      tag_160\n      jump\t// in\n    tag_159:\n      pop\n        /* \"LandRegistration.sol\":3399:3408  _lastName */\n      dup4\n        /* \"LandRegistration.sol\":3376:3387  adminToEdit */\n      dup2\n        /* \"LandRegistration.sol\":3376:3396  adminToEdit.lastName */\n      0x01\n      add\n        /* \"LandRegistration.sol\":3376:3408  adminToEdit.lastName = _lastName */\n      swap1\n      dup1\n      mload\n      swap1\n      0x20\n      add\n      swap1\n      tag_161\n      swap3\n      swap2\n      swap1\n      tag_160\n      jump\t// in\n    tag_161:\n      pop\n        /* \"LandRegistration.sol\":3439:3446  _county */\n      dup3\n        /* \"LandRegistration.sol\":3418:3429  adminToEdit */\n      dup2\n        /* \"LandRegistration.sol\":3418:3436  adminToEdit.county */\n      0x03\n      add\n        /* \"LandRegistration.sol\":3418:3446  adminToEdit.county = _county */\n      swap1\n      dup1\n      mload\n      swap1\n      0x20\n      add\n      swap1\n      tag_162\n      swap3\n      swap2\n      swap1\n      tag_160\n      jump\t// in\n    tag_162:\n      pop\n        /* \"LandRegistration.sol\":3263:3453  {... */\n      pop\n        /* \"LandRegistration.sol\":3119:3453  function editAdmin(string memory _firstName, string memory _lastName, string memory _county, address _adminAddress) public restrictToSuperAdmin {... */\n      pop\n      pop\n      pop\n      pop\n      jump\t// out\n        /* \"LandRegistration.sol\":3556:3666  function getLandIds() public view restrictToAdmin returns(string [] memory) {... */\n    tag_57:\n        /* \"LandRegistration.sol\":3614:3630  string [] memory */\n      0x60\n        /* \"LandRegistration.sol\":1794:1803  addresses */\n      0x03\n        /* \"LandRegistration.sol\":1794:1815  addresses[msg.sender] */\n      0x00\n        /* \"LandRegistration.sol\":1804:1814  msg.sender */\n      caller\n        /* \"LandRegistration.sol\":1794:1815  addresses[msg.sender] */\n      0xffffffffffffffffffffffffffffffffffffffff\n      and\n      0xffffffffffffffffffffffffffffffffffffffff\n      and\n      dup2\n      mstore\n      0x20\n      add\n      swap1\n      dup2\n      mstore\n      0x20\n      add\n      0x00\n      keccak256\n      0x00\n      swap1\n      sload\n      swap1\n      0x0100\n      exp\n      swap1\n      div\n      0xff\n      and\n        /* \"LandRegistration.sol\":1786:1816  require(addresses[msg.sender]) */\n      tag_164\n      jumpi\n      0x00\n      dup1\n      revert\n    tag_164:\n        /* \"LandRegistration.sol\":3649:3659  landIdsArr */\n      0x06\n        /* \"LandRegistration.sol\":3642:3659  return landIdsArr */\n      dup1\n      sload\n      dup1\n      0x20\n      mul\n      0x20\n      add\n      mload(0x40)\n      swap1\n      dup2\n      add\n      0x40\n      mstore\n      dup1\n      swap3\n      swap2\n      swap1\n      dup2\n      dup2\n      mstore\n      0x20\n      add\n      0x00\n      swap1\n    tag_166:\n      dup3\n      dup3\n      lt\n      iszero\n      tag_167\n      jumpi\n      dup4\n      dup3\n      swap1\n      0x00\n      mstore\n      keccak256(0x00, 0x20)\n      add\n      dup1\n      sload\n      tag_169\n      swap1\n      tag_170\n      jump\t// in\n    tag_169:\n      dup1\n      0x1f\n      add\n      0x20\n      dup1\n      swap2\n      div\n      mul\n      0x20\n      add\n      mload(0x40)\n      swap1\n      dup2\n      add\n      0x40\n      mstore\n      dup1\n      swap3\n      swap2\n      swap1\n      dup2\n      dup2\n      mstore\n      0x20\n      add\n      dup3\n      dup1\n      sload\n      tag_171\n      swap1\n      tag_170\n      jump\t// in\n    tag_171:\n      dup1\n      iszero\n      tag_172\n      jumpi\n      dup1\n      0x1f\n      lt\n      tag_173\n      jumpi\n      0x0100\n      dup1\n      dup4\n      sload\n      div\n      mul\n      dup4\n      mstore\n      swap2\n      0x20\n      add\n      swap2\n      jump(tag_172)\n    tag_173:\n      dup3\n      add\n      swap2\n      swap1\n      0x00\n      mstore\n      keccak256(0x00, 0x20)\n      swap1\n    tag_174:\n      dup2\n      sload\n      dup2\n      mstore\n      swap1\n      0x01\n      add\n      swap1\n      0x20\n      add\n      dup1\n      dup4\n      gt\n      tag_174\n      jumpi\n      dup3\n      swap1\n      sub\n      0x1f\n      and\n      dup3\n      add\n      swap2\n    tag_172:\n      pop\n      pop\n      pop\n      pop\n      pop\n      dup2\n      mstore\n      0x20\n      add\n      swap1\n      0x01\n      add\n      swap1\n      jump(tag_166)\n    tag_167:\n      pop\n      pop\n      pop\n      pop\n      swap1\n      pop\n        /* \"LandRegistration.sol\":3556:3666  function getLandIds() public view restrictToAdmin returns(string [] memory) {... */\n      swap1\n      jump\t// out\n        /* \"LandRegistration.sol\":2856:2980  function activateAdmin(address adminAddress) public restrictToSuperAdmin {... */\n    tag_63:\n        /* \"LandRegistration.sol\":1709:1726  superAdminAddress */\n      0x00\n      dup1\n      sload\n      swap1\n      0x0100\n      exp\n      swap1\n      div\n      0xffffffffffffffffffffffffffffffffffffffff\n      and\n        /* \"LandRegistration.sol\":1695:1726  msg.sender == superAdminAddress */\n      0xffffffffffffffffffffffffffffffffffffffff\n      and\n        /* \"LandRegistration.sol\":1695:1705  msg.sender */\n      caller\n        /* \"LandRegistration.sol\":1695:1726  msg.sender == superAdminAddress */\n      0xffffffffffffffffffffffffffffffffffffffff\n      and\n      eq\n        /* \"LandRegistration.sol\":1687:1727  require(msg.sender == superAdminAddress) */\n      tag_176\n      jumpi\n      0x00\n      dup1\n      revert\n    tag_176:\n        /* \"LandRegistration.sol\":2969:2973  true */\n      0x01\n        /* \"LandRegistration.sol\":2939:2945  admins */\n      0x02\n        /* \"LandRegistration.sol\":2939:2959  admins[adminAddress] */\n      0x00\n        /* \"LandRegistration.sol\":2946:2958  adminAddress */\n      dup4\n        /* \"LandRegistration.sol\":2939:2959  admins[adminAddress] */\n      0xffffffffffffffffffffffffffffffffffffffff\n      and\n      0xffffffffffffffffffffffffffffffffffffffff\n      and\n      dup2\n      mstore\n      0x20\n      add\n      swap1\n      dup2\n      mstore\n      0x20\n      add\n      0x00\n      keccak256\n        /* \"LandRegistration.sol\":2939:2966  admins[adminAddress].active */\n      0x04\n      add\n      0x00\n        /* \"LandRegistration.sol\":2939:2973  admins[adminAddress].active = true */\n      0x0100\n      exp\n      dup2\n      sload\n      dup2\n      0xff\n      mul\n      not\n      and\n      swap1\n      dup4\n      iszero\n      iszero\n      mul\n      or\n      swap1\n      sstore\n      pop\n        /* \"LandRegistration.sol\":2856:2980  function activateAdmin(address adminAddress) public restrictToSuperAdmin {... */\n      pop\n      jump\t// out\n        /* \"LandRegistration.sol\":1197:1222  uint256 public landsCount */\n    tag_65:\n      sload(0x09)\n      dup2\n      jump\t// out\n        /* \"LandRegistration.sol\":7172:7328  function acceptBuyingRequest(string memory _landId) public {... */\n    tag_70:\n        /* \"LandRegistration.sol\":7241:7264  Land storage landToEdit */\n      0x00\n        /* \"LandRegistration.sol\":7267:7272  lands */\n      0x08\n        /* \"LandRegistration.sol\":7273:7280  _landId */\n      dup3\n        /* \"LandRegistration.sol\":7267:7281  lands[_landId] */\n      mload(0x40)\n      tag_179\n      swap2\n      swap1\n      tag_153\n      jump\t// in\n    tag_179:\n      swap1\n      dup2\n      mstore\n      0x20\n      add\n      mload(0x40)\n      dup1\n      swap2\n      sub\n      swap1\n      keccak256\n        /* \"LandRegistration.sol\":7241:7281  Land storage landToEdit = lands[_landId] */\n      swap1\n      pop\n        /* \"LandRegistration.sol\":7317:7321  true */\n      0x01\n        /* \"LandRegistration.sol\":7291:7301  landToEdit */\n      dup2\n        /* \"LandRegistration.sol\":7291:7314  landToEdit.allowedToBuy */\n      0x07\n      add\n      0x14\n        /* \"LandRegistration.sol\":7291:7321  landToEdit.allowedToBuy = true */\n      0x0100\n      exp\n      dup2\n      sload\n      dup2\n      0xff\n      mul\n      not\n      and\n      swap1\n      dup4\n      iszero\n      iszero\n      mul\n      or\n      swap1\n      sstore\n      pop\n        /* \"LandRegistration.sol\":7231:7328  {... */\n      pop\n        /* \"LandRegistration.sol\":7172:7328  function acceptBuyingRequest(string memory _landId) public {... */\n      pop\n      jump\t// out\n        /* \"LandRegistration.sol\":5237:5913  function updateLandOwner(string memory _firstName, string memory _lastName, string memory _middleName, string memory _gender, string memory _email, string memory _phoneNumber, string memory _poBox, string memory _location) public {... */\n    tag_74:\n        /* \"LandRegistration.sol\":5477:5510  LandOwner storage landOwnerToEdit */\n      0x00\n        /* \"LandRegistration.sol\":5513:5530  landOwnersDetails */\n      0x0b\n        /* \"LandRegistration.sol\":5513:5542  landOwnersDetails[msg.sender] */\n      0x00\n        /* \"LandRegistration.sol\":5531:5541  msg.sender */\n      caller\n        /* \"LandRegistration.sol\":5513:5542  landOwnersDetails[msg.sender] */\n      0xffffffffffffffffffffffffffffffffffffffff\n      and\n      0xffffffffffffffffffffffffffffffffffffffff\n      and\n      dup2\n      mstore\n      0x20\n      add\n      swap1\n      dup2\n      mstore\n      0x20\n      add\n      0x00\n      keccak256\n        /* \"LandRegistration.sol\":5477:5542  LandOwner storage landOwnerToEdit = landOwnersDetails[msg.sender] */\n      swap1\n      pop\n        /* \"LandRegistration.sol\":5580:5590  _firstName */\n      dup9\n        /* \"LandRegistration.sol\":5552:5567  landOwnerToEdit */\n      dup2\n        /* \"LandRegistration.sol\":5552:5577  landOwnerToEdit.firstName */\n      0x00\n      add\n        /* \"LandRegistration.sol\":5552:5590  landOwnerToEdit.firstName = _firstName */\n      swap1\n      dup1\n      mload\n      swap1\n      0x20\n      add\n      swap1\n      tag_181\n      swap3\n      swap2\n      swap1\n      tag_160\n      jump\t// in\n    tag_181:\n      pop\n        /* \"LandRegistration.sol\":5627:5636  _lastName */\n      dup8\n        /* \"LandRegistration.sol\":5600:5615  landOwnerToEdit */\n      dup2\n        /* \"LandRegistration.sol\":5600:5624  landOwnerToEdit.lastName */\n      0x01\n      add\n        /* \"LandRegistration.sol\":5600:5636  landOwnerToEdit.lastName = _lastName */\n      swap1\n      dup1\n      mload\n      swap1\n      0x20\n      add\n      swap1\n      tag_182\n      swap3\n      swap2\n      swap1\n      tag_160\n      jump\t// in\n    tag_182:\n      pop\n        /* \"LandRegistration.sol\":5675:5686  _middleName */\n      dup7\n        /* \"LandRegistration.sol\":5646:5661  landOwnerToEdit */\n      dup2\n        /* \"LandRegistration.sol\":5646:5672  landOwnerToEdit.middleName */\n      0x02\n      add\n        /* \"LandRegistration.sol\":5646:5686  landOwnerToEdit.middleName = _middleName */\n      swap1\n      dup1\n      mload\n      swap1\n      0x20\n      add\n      swap1\n      tag_183\n      swap3\n      swap2\n      swap1\n      tag_160\n      jump\t// in\n    tag_183:\n      pop\n        /* \"LandRegistration.sol\":5721:5728  _gender */\n      dup6\n        /* \"LandRegistration.sol\":5696:5711  landOwnerToEdit */\n      dup2\n        /* \"LandRegistration.sol\":5696:5718  landOwnerToEdit.gender */\n      0x03\n      add\n        /* \"LandRegistration.sol\":5696:5728  landOwnerToEdit.gender = _gender */\n      swap1\n      dup1\n      mload\n      swap1\n      0x20\n      add\n      swap1\n      tag_184\n      swap3\n      swap2\n      swap1\n      tag_160\n      jump\t// in\n    tag_184:\n      pop\n        /* \"LandRegistration.sol\":5762:5768  _email */\n      dup5\n        /* \"LandRegistration.sol\":5738:5753  landOwnerToEdit */\n      dup2\n        /* \"LandRegistration.sol\":5738:5759  landOwnerToEdit.email */\n      0x04\n      add\n        /* \"LandRegistration.sol\":5738:5768  landOwnerToEdit.email = _email */\n      swap1\n      dup1\n      mload\n      swap1\n      0x20\n      add\n      swap1\n      tag_185\n      swap3\n      swap2\n      swap1\n      tag_160\n      jump\t// in\n    tag_185:\n      pop\n        /* \"LandRegistration.sol\":5808:5820  _phoneNumber */\n      dup4\n        /* \"LandRegistration.sol\":5778:5793  landOwnerToEdit */\n      dup2\n        /* \"LandRegistration.sol\":5778:5805  landOwnerToEdit.phoneNumber */\n      0x05\n      add\n        /* \"LandRegistration.sol\":5778:5820  landOwnerToEdit.phoneNumber = _phoneNumber */\n      swap1\n      dup1\n      mload\n      swap1\n      0x20\n      add\n      swap1\n      tag_186\n      swap3\n      swap2\n      swap1\n      tag_160\n      jump\t// in\n    tag_186:\n      pop\n        /* \"LandRegistration.sol\":5854:5860  _poBox */\n      dup3\n        /* \"LandRegistration.sol\":5830:5845  landOwnerToEdit */\n      dup2\n        /* \"LandRegistration.sol\":5830:5851  landOwnerToEdit.poBox */\n      0x06\n      add\n        /* \"LandRegistration.sol\":5830:5860  landOwnerToEdit.poBox = _poBox */\n      swap1\n      dup1\n      mload\n      swap1\n      0x20\n      add\n      swap1\n      tag_187\n      swap3\n      swap2\n      swap1\n      tag_160\n      jump\t// in\n    tag_187:\n      pop\n        /* \"LandRegistration.sol\":5897:5906  _location */\n      dup2\n        /* \"LandRegistration.sol\":5870:5885  landOwnerToEdit */\n      dup2\n        /* \"LandRegistration.sol\":5870:5894  landOwnerToEdit.location */\n      0x07\n      add\n        /* \"LandRegistration.sol\":5870:5906  landOwnerToEdit.location = _location */\n      swap1\n      dup1\n      mload\n      swap1\n      0x20\n      add\n      swap1\n      tag_188\n      swap3\n      swap2\n      swap1\n      tag_160\n      jump\t// in\n    tag_188:\n      pop\n        /* \"LandRegistration.sol\":5467:5913  {... */\n      pop\n        /* \"LandRegistration.sol\":5237:5913  function updateLandOwner(string memory _firstName, string memory _lastName, string memory _middleName, string memory _gender, string memory _email, string memory _phoneNumber, string memory _poBox, string memory _location) public {... */\n      pop\n      pop\n      pop\n      pop\n      pop\n      pop\n      pop\n      pop\n      jump\t// out\n        /* \"LandRegistration.sol\":1000:1025  string [] public counties */\n    tag_77:\n      0x04\n      dup2\n      dup2\n      sload\n      dup2\n      lt\n      tag_189\n      jumpi\n      0x00\n      dup1\n      revert\n    tag_189:\n      swap1\n      0x00\n      mstore\n      keccak256(0x00, 0x20)\n      add\n      0x00\n      swap2\n      pop\n      swap1\n      pop\n      dup1\n      sload\n      tag_191\n      swap1\n      tag_170\n      jump\t// in\n    tag_191:\n      dup1\n      0x1f\n      add\n      0x20\n      dup1\n      swap2\n      div\n      mul\n      0x20\n      add\n      mload(0x40)\n      swap1\n      dup2\n      add\n      0x40\n      mstore\n      dup1\n      swap3\n      swap2\n      swap1\n      dup2\n      dup2\n      mstore\n      0x20\n      add\n      dup3\n      dup1\n      sload\n      tag_192\n      swap1\n      tag_170\n      jump\t// in\n    tag_192:\n      dup1\n      iszero\n      tag_193\n      jumpi\n      dup1\n      0x1f\n      lt\n      tag_194\n      jumpi\n      0x0100\n      dup1\n      dup4\n      sload\n      div\n      mul\n      dup4\n      mstore\n      swap2\n      0x20\n      add\n      swap2\n      jump(tag_193)\n    tag_194:\n      dup3\n      add\n      swap2\n      swap1\n      0x00\n      mstore\n      keccak256(0x00, 0x20)\n      swap1\n    tag_195:\n      dup2\n      sload\n      dup2\n      mstore\n      swap1\n      0x01\n      add\n      swap1\n      0x20\n      add\n      dup1\n      dup4\n      gt\n      tag_195\n      jumpi\n      dup3\n      swap1\n      sub\n      0x1f\n      and\n      dup3\n      add\n      swap2\n    tag_193:\n      pop\n      pop\n      pop\n      pop\n      pop\n      dup2\n      jump\t// out\n        /* \"LandRegistration.sol\":1840:1971  function getSuperAdminPassword() public view restrictToSuperAdmin returns(string memory) {... */\n    tag_81:\n        /* \"LandRegistration.sol\":1914:1927  string memory */\n      0x60\n        /* \"LandRegistration.sol\":1709:1726  superAdminAddress */\n      0x00\n      dup1\n      sload\n      swap1\n      0x0100\n      exp\n      swap1\n      div\n      0xffffffffffffffffffffffffffffffffffffffff\n      and\n        /* \"LandRegistration.sol\":1695:1726  msg.sender == superAdminAddress */\n      0xffffffffffffffffffffffffffffffffffffffff\n      and\n        /* \"LandRegistration.sol\":1695:1705  msg.sender */\n      caller\n        /* \"LandRegistration.sol\":1695:1726  msg.sender == superAdminAddress */\n      0xffffffffffffffffffffffffffffffffffffffff\n      and\n      eq\n        /* \"LandRegistration.sol\":1687:1727  require(msg.sender == superAdminAddress) */\n      tag_197\n      jumpi\n      0x00\n      dup1\n      revert\n    tag_197:\n        /* \"LandRegistration.sol\":1946:1964  superAdminPassword */\n      0x01\n        /* \"LandRegistration.sol\":1939:1964  return superAdminPassword */\n      dup1\n      sload\n      tag_199\n      swap1\n      tag_170\n      jump\t// in\n    tag_199:\n      dup1\n      0x1f\n      add\n      0x20\n      dup1\n      swap2\n      div\n      mul\n      0x20\n      add\n      mload(0x40)\n      swap1\n      dup2\n      add\n      0x40\n      mstore\n      dup1\n      swap3\n      swap2\n      swap1\n      dup2\n      dup2\n      mstore\n      0x20\n      add\n      dup3\n      dup1\n      sload\n      tag_200\n      swap1\n      tag_170\n      jump\t// in\n    tag_200:\n      dup1\n      iszero\n      tag_201\n      jumpi\n      dup1\n      0x1f\n      lt\n      tag_202\n      jumpi\n      0x0100\n      dup1\n      dup4\n      sload\n      div\n      mul\n      dup4\n      mstore\n      swap2\n      0x20\n      add\n      swap2\n      jump(tag_201)\n    tag_202:\n      dup3\n      add\n      swap2\n      swap1\n      0x00\n      mstore\n      keccak256(0x00, 0x20)\n      swap1\n    tag_203:\n      dup2\n      sload\n      dup2\n      mstore\n      swap1\n      0x01\n      add\n      swap1\n      0x20\n      add\n      dup1\n      dup4\n      gt\n      tag_203\n      jumpi\n      dup3\n      swap1\n      sub\n      0x1f\n      and\n      dup3\n      add\n      swap2\n    tag_201:\n      pop\n      pop\n      pop\n      pop\n      pop\n      swap1\n      pop\n        /* \"LandRegistration.sol\":1840:1971  function getSuperAdminPassword() public view restrictToSuperAdmin returns(string memory) {... */\n      swap1\n      jump\t// out\n        /* \"LandRegistration.sol\":913:953  mapping (address => Admin) public admins */\n    tag_85:\n      mstore(0x20, 0x02)\n      dup1\n      0x00\n      mstore\n      keccak256(0x00, 0x40)\n      0x00\n      swap2\n      pop\n      swap1\n      pop\n      dup1\n      0x00\n      add\n      dup1\n      sload\n      tag_204\n      swap1\n      tag_170\n      jump\t// in\n    tag_204:\n      dup1\n      0x1f\n      add\n      0x20\n      dup1\n      swap2\n      div\n      mul\n      0x20\n      add\n      mload(0x40)\n      swap1\n      dup2\n      add\n      0x40\n      mstore\n      dup1\n      swap3\n      swap2\n      swap1\n      dup2\n      dup2\n      mstore\n      0x20\n      add\n      dup3\n      dup1\n      sload\n      tag_205\n      swap1\n      tag_170\n      jump\t// in\n    tag_205:\n      dup1\n      iszero\n      tag_206\n      jumpi\n      dup1\n      0x1f\n      lt\n      tag_207\n      jumpi\n      0x0100\n      dup1\n      dup4\n      sload\n      div\n      mul\n      dup4\n      mstore\n      swap2\n      0x20\n      add\n      swap2\n      jump(tag_206)\n    tag_207:\n      dup3\n      add\n      swap2\n      swap1\n      0x00\n      mstore\n      keccak256(0x00, 0x20)\n      swap1\n    tag_208:\n      dup2\n      sload\n      dup2\n      mstore\n      swap1\n      0x01\n      add\n      swap1\n      0x20\n      add\n      dup1\n      dup4\n      gt\n      tag_208\n      jumpi\n      dup3\n      swap1\n      sub\n      0x1f\n      and\n      dup3\n      add\n      swap2\n    tag_206:\n      pop\n      pop\n      pop\n      pop\n      pop\n      swap1\n      dup1\n      0x01\n      add\n      dup1\n      sload\n      tag_209\n      swap1\n      tag_170\n      jump\t// in\n    tag_209:\n      dup1\n      0x1f\n      add\n      0x20\n      dup1\n      swap2\n      div\n      mul\n      0x20\n      add\n      mload(0x40)\n      swap1\n      dup2\n      add\n      0x40\n      mstore\n      dup1\n      swap3\n      swap2\n      swap1\n      dup2\n      dup2\n      mstore\n      0x20\n      add\n      dup3\n      dup1\n      sload\n      tag_210\n      swap1\n      tag_170\n      jump\t// in\n    tag_210:\n      dup1\n      iszero\n      tag_211\n      jumpi\n      dup1\n      0x1f\n      lt\n      tag_212\n      jumpi\n      0x0100\n      dup1\n      dup4\n      sload\n      div\n      mul\n      dup4\n      mstore\n      swap2\n      0x20\n      add\n      swap2\n      jump(tag_211)\n    tag_212:\n      dup3\n      add\n      swap2\n      swap1\n      0x00\n      mstore\n      keccak256(0x00, 0x20)\n      swap1\n    tag_213:\n      dup2\n      sload\n      dup2\n      mstore\n      swap1\n      0x01\n      add\n      swap1\n      0x20\n      add\n      dup1\n      dup4\n      gt\n      tag_213\n      jumpi\n      dup3\n      swap1\n      sub\n      0x1f\n      and\n      dup3\n      add\n      swap2\n    tag_211:\n      pop\n      pop\n      pop\n      pop\n      pop\n      swap1\n      dup1\n      0x02\n      add\n      0x00\n      swap1\n      sload\n      swap1\n      0x0100\n      exp\n      swap1\n      div\n      0xffffffffffffffffffffffffffffffffffffffff\n      and\n      swap1\n      dup1\n      0x03\n      add\n      dup1\n      sload\n      tag_214\n      swap1\n      tag_170\n      jump\t// in\n    tag_214:\n      dup1\n      0x1f\n      add\n      0x20\n      dup1\n      swap2\n      div\n      mul\n      0x20\n      add\n      mload(0x40)\n      swap1\n      dup2\n      add\n      0x40\n      mstore\n      dup1\n      swap3\n      swap2\n      swap1\n      dup2\n      dup2\n      mstore\n      0x20\n      add\n      dup3\n      dup1\n      sload\n      tag_215\n      swap1\n      tag_170\n      jump\t// in\n    tag_215:\n      dup1\n      iszero\n      tag_216\n      jumpi\n      dup1\n      0x1f\n      lt\n      tag_217\n      jumpi\n      0x0100\n      dup1\n      dup4\n      sload\n      div\n      mul\n      dup4\n      mstore\n      swap2\n      0x20\n      add\n      swap2\n      jump(tag_216)\n    tag_217:\n      dup3\n      add\n      swap2\n      swap1\n      0x00\n      mstore\n      keccak256(0x00, 0x20)\n      swap1\n    tag_218:\n      dup2\n      sload\n      dup2\n      mstore\n      swap1\n      0x01\n      add\n      swap1\n      0x20\n      add\n      dup1\n      dup4\n      gt\n      tag_218\n      jumpi\n      dup3\n      swap1\n      sub\n      0x1f\n      and\n      dup3\n      add\n      swap2\n    tag_216:\n      pop\n      pop\n      pop\n      pop\n      pop\n      swap1\n      dup1\n      0x04\n      add\n      0x00\n      swap1\n      sload\n      swap1\n      0x0100\n      exp\n      swap1\n      div\n      0xff\n      and\n      swap1\n      pop\n      dup6\n      jump\t// out\n        /* \"LandRegistration.sol\":6325:6534  function makeRequestToBuy(string memory _landId) public {... */\n    tag_90:\n        /* \"LandRegistration.sol\":6391:6414  Land storage landToEdit */\n      0x00\n        /* \"LandRegistration.sol\":6417:6422  lands */\n      0x08\n        /* \"LandRegistration.sol\":6423:6430  _landId */\n      dup3\n        /* \"LandRegistration.sol\":6417:6431  lands[_landId] */\n      mload(0x40)\n      tag_220\n      swap2\n      swap1\n      tag_153\n      jump\t// in\n    tag_220:\n      swap1\n      dup2\n      mstore\n      0x20\n      add\n      mload(0x40)\n      dup1\n      swap2\n      sub\n      swap1\n      keccak256\n        /* \"LandRegistration.sol\":6391:6431  Land storage landToEdit = lands[_landId] */\n      swap1\n      pop\n        /* \"LandRegistration.sol\":6471:6475  true */\n      0x01\n        /* \"LandRegistration.sol\":6441:6451  landToEdit */\n      dup2\n        /* \"LandRegistration.sol\":6441:6468  landToEdit.requestedForSale */\n      0x05\n      add\n      0x01\n        /* \"LandRegistration.sol\":6441:6475  landToEdit.requestedForSale = true */\n      0x0100\n      exp\n      dup2\n      sload\n      dup2\n      0xff\n      mul\n      not\n      and\n      swap1\n      dup4\n      iszero\n      iszero\n      mul\n      or\n      swap1\n      sstore\n      pop\n        /* \"LandRegistration.sol\":6517:6527  msg.sender */\n      caller\n        /* \"LandRegistration.sol\":6485:6495  landToEdit */\n      dup2\n        /* \"LandRegistration.sol\":6485:6514  landToEdit.requestedByAddress */\n      0x05\n      add\n      0x02\n        /* \"LandRegistration.sol\":6485:6527  landToEdit.requestedByAddress = msg.sender */\n      0x0100\n      exp\n      dup2\n      sload\n      dup2\n      0xffffffffffffffffffffffffffffffffffffffff\n      mul\n      not\n      and\n      swap1\n      dup4\n      0xffffffffffffffffffffffffffffffffffffffff\n      and\n      mul\n      or\n      swap1\n      sstore\n      pop\n        /* \"LandRegistration.sol\":6381:6534  {... */\n      pop\n        /* \"LandRegistration.sol\":6325:6534  function makeRequestToBuy(string memory _landId) public {... */\n      pop\n      jump\t// out\n        /* \"LandRegistration.sol\":2986:3113  function getAdminAddresses() public view restrictToSuperAdmin returns(address [] memory) {... */\n    tag_92:\n        /* \"LandRegistration.sol\":3056:3073  address [] memory */\n      0x60\n        /* \"LandRegistration.sol\":1709:1726  superAdminAddress */\n      0x00\n      dup1\n      sload\n      swap1\n      0x0100\n      exp\n      swap1\n      div\n      0xffffffffffffffffffffffffffffffffffffffff\n      and\n        /* \"LandRegistration.sol\":1695:1726  msg.sender == superAdminAddress */\n      0xffffffffffffffffffffffffffffffffffffffff\n      and\n        /* \"LandRegistration.sol\":1695:1705  msg.sender */\n      caller\n        /* \"LandRegistration.sol\":1695:1726  msg.sender == superAdminAddress */\n      0xffffffffffffffffffffffffffffffffffffffff\n      and\n      eq\n        /* \"LandRegistration.sol\":1687:1727  require(msg.sender == superAdminAddress) */\n      tag_222\n      jumpi\n      0x00\n      dup1\n      revert\n    tag_222:\n        /* \"LandRegistration.sol\":3092:3106  adminsAdresses */\n      0x05\n        /* \"LandRegistration.sol\":3085:3106  return adminsAdresses */\n      dup1\n      sload\n      dup1\n      0x20\n      mul\n      0x20\n      add\n      mload(0x40)\n      swap1\n      dup2\n      add\n      0x40\n      mstore\n      dup1\n      swap3\n      swap2\n      swap1\n      dup2\n      dup2\n      mstore\n      0x20\n      add\n      dup3\n      dup1\n      sload\n      dup1\n      iszero\n      tag_224\n      jumpi\n      0x20\n      mul\n      dup3\n      add\n      swap2\n      swap1\n      0x00\n      mstore\n      keccak256(0x00, 0x20)\n      swap1\n    tag_225:\n      dup2\n      0x00\n      swap1\n      sload\n      swap1\n      0x0100\n      exp\n      swap1\n      div\n      0xffffffffffffffffffffffffffffffffffffffff\n      and\n      0xffffffffffffffffffffffffffffffffffffffff\n      and\n      dup2\n      mstore\n      0x20\n      add\n      swap1\n      0x01\n      add\n      swap1\n      dup1\n      dup4\n      gt\n      tag_225\n      jumpi\n    tag_224:\n      pop\n      pop\n      pop\n      pop\n      pop\n      swap1\n      pop\n        /* \"LandRegistration.sol\":2986:3113  function getAdminAddresses() public view restrictToSuperAdmin returns(address [] memory) {... */\n      swap1\n      jump\t// out\n        /* \"LandRegistration.sol\":2570:2709  function getAdmin(address adminAddress) public view restrictToSuperAdmin returns(Admin memory) {... */\n    tag_97:\n        /* \"LandRegistration.sol\":2651:2663  Admin memory */\n      tag_226\n      tag_227\n      jump\t// in\n    tag_226:\n        /* \"LandRegistration.sol\":1709:1726  superAdminAddress */\n      0x00\n      dup1\n      sload\n      swap1\n      0x0100\n      exp\n      swap1\n      div\n      0xffffffffffffffffffffffffffffffffffffffff\n      and\n        /* \"LandRegistration.sol\":1695:1726  msg.sender == superAdminAddress */\n      0xffffffffffffffffffffffffffffffffffffffff\n      and\n        /* \"LandRegistration.sol\":1695:1705  msg.sender */\n      caller\n        /* \"LandRegistration.sol\":1695:1726  msg.sender == superAdminAddress */\n      0xffffffffffffffffffffffffffffffffffffffff\n      and\n      eq\n        /* \"LandRegistration.sol\":1687:1727  require(msg.sender == superAdminAddress) */\n      tag_229\n      jumpi\n      0x00\n      dup1\n      revert\n    tag_229:\n        /* \"LandRegistration.sol\":2682:2688  admins */\n      0x02\n        /* \"LandRegistration.sol\":2682:2702  admins[adminAddress] */\n      0x00\n        /* \"LandRegistration.sol\":2689:2701  adminAddress */\n      dup4\n        /* \"LandRegistration.sol\":2682:2702  admins[adminAddress] */\n      0xffffffffffffffffffffffffffffffffffffffff\n      and\n      0xffffffffffffffffffffffffffffffffffffffff\n      and\n      dup2\n      mstore\n      0x20\n      add\n      swap1\n      dup2\n      mstore\n      0x20\n      add\n      0x00\n      keccak256\n        /* \"LandRegistration.sol\":2675:2702  return admins[adminAddress] */\n      mload(0x40)\n      dup1\n      0xa0\n      add\n      0x40\n      mstore\n      swap1\n      dup2\n      0x00\n      dup3\n      add\n      dup1\n      sload\n      tag_231\n      swap1\n      tag_170\n      jump\t// in\n    tag_231:\n      dup1\n      0x1f\n      add\n      0x20\n      dup1\n      swap2\n      div\n      mul\n      0x20\n      add\n      mload(0x40)\n      swap1\n      dup2\n      add\n      0x40\n      mstore\n      dup1\n      swap3\n      swap2\n      swap1\n      dup2\n      dup2\n      mstore\n      0x20\n      add\n      dup3\n      dup1\n      sload\n      tag_232\n      swap1\n      tag_170\n      jump\t// in\n    tag_232:\n      dup1\n      iszero\n      tag_233\n      jumpi\n      dup1\n      0x1f\n      lt\n      tag_234\n      jumpi\n      0x0100\n      dup1\n      dup4\n      sload\n      div\n      mul\n      dup4\n      mstore\n      swap2\n      0x20\n      add\n      swap2\n      jump(tag_233)\n    tag_234:\n      dup3\n      add\n      swap2\n      swap1\n      0x00\n      mstore\n      keccak256(0x00, 0x20)\n      swap1\n    tag_235:\n      dup2\n      sload\n      dup2\n      mstore\n      swap1\n      0x01\n      add\n      swap1\n      0x20\n      add\n      dup1\n      dup4\n      gt\n      tag_235\n      jumpi\n      dup3\n      swap1\n      sub\n      0x1f\n      and\n      dup3\n      add\n      swap2\n    tag_233:\n      pop\n      pop\n      pop\n      pop\n      pop\n      dup2\n      mstore\n      0x20\n      add\n      0x01\n      dup3\n      add\n      dup1\n      sload\n      tag_236\n      swap1\n      tag_170\n      jump\t// in\n    tag_236:\n      dup1\n      0x1f\n      add\n      0x20\n      dup1\n      swap2\n      div\n      mul\n      0x20\n      add\n      mload(0x40)\n      swap1\n      dup2\n      add\n      0x40\n      mstore\n      dup1\n      swap3\n      swap2\n      swap1\n      dup2\n      dup2\n      mstore\n      0x20\n      add\n      dup3\n      dup1\n      sload\n      tag_237\n      swap1\n      tag_170\n      jump\t// in\n    tag_237:\n      dup1\n      iszero\n      tag_238\n      jumpi\n      dup1\n      0x1f\n      lt\n      tag_239\n      jumpi\n      0x0100\n      dup1\n      dup4\n      sload\n      div\n      mul\n      dup4\n      mstore\n      swap2\n      0x20\n      add\n      swap2\n      jump(tag_238)\n    tag_239:\n      dup3\n      add\n      swap2\n      swap1\n      0x00\n      mstore\n      keccak256(0x00, 0x20)\n      swap1\n    tag_240:\n      dup2\n      sload\n      dup2\n      mstore\n      swap1\n      0x01\n      add\n      swap1\n      0x20\n      add\n      dup1\n      dup4\n      gt\n      tag_240\n      jumpi\n      dup3\n      swap1\n      sub\n      0x1f\n      and\n      dup3\n      add\n      swap2\n    tag_238:\n      pop\n      pop\n      pop\n      pop\n      pop\n      dup2\n      mstore\n      0x20\n      add\n      0x02\n      dup3\n      add\n      0x00\n      swap1\n      sload\n      swap1\n      0x0100\n      exp\n      swap1\n      div\n      0xffffffffffffffffffffffffffffffffffffffff\n      and\n      0xffffffffffffffffffffffffffffffffffffffff\n      and\n      0xffffffffffffffffffffffffffffffffffffffff\n      and\n      dup2\n      mstore\n      0x20\n      add\n      0x03\n      dup3\n      add\n      dup1\n      sload\n      tag_241\n      swap1\n      tag_170\n      jump\t// in\n    tag_241:\n      dup1\n      0x1f\n      add\n      0x20\n      dup1\n      swap2\n      div\n      mul\n      0x20\n      add\n      mload(0x40)\n      swap1\n      dup2\n      add\n      0x40\n      mstore\n      dup1\n      swap3\n      swap2\n      swap1\n      dup2\n      dup2\n      mstore\n      0x20\n      add\n      dup3\n      dup1\n      sload\n      tag_242\n      swap1\n      tag_170\n      jump\t// in\n    tag_242:\n      dup1\n      iszero\n      tag_243\n      jumpi\n      dup1\n      0x1f\n      lt\n      tag_244\n      jumpi\n      0x0100\n      dup1\n      dup4\n      sload\n      div\n      mul\n      dup4\n      mstore\n      swap2\n      0x20\n      add\n      swap2\n      jump(tag_243)\n    tag_244:\n      dup3\n      add\n      swap2\n      swap1\n      0x00\n      mstore\n      keccak256(0x00, 0x20)\n      swap1\n    tag_245:\n      dup2\n      sload\n      dup2\n      mstore\n      swap1\n      0x01\n      add\n      swap1\n      0x20\n      add\n      dup1\n      dup4\n      gt\n      tag_245\n      jumpi\n      dup3\n      swap1\n      sub\n      0x1f\n      and\n      dup3\n      add\n      swap2\n    tag_243:\n      pop\n      pop\n      pop\n      pop\n      pop\n      dup2\n      mstore\n      0x20\n      add\n      0x04\n      dup3\n      add\n      0x00\n      swap1\n      sload\n      swap1\n      0x0100\n      exp\n      swap1\n      div\n      0xff\n      and\n      iszero\n      iszero\n      iszero\n      iszero\n      dup2\n      mstore\n      pop\n      pop\n      swap1\n      pop\n        /* \"LandRegistration.sol\":2570:2709  function getAdmin(address adminAddress) public view restrictToSuperAdmin returns(Admin memory) {... */\n      swap2\n      swap1\n      pop\n      jump\t// out\n        /* \"LandRegistration.sol\":1228:1271  mapping (address => bool) public landOwners */\n    tag_102:\n      mstore(0x20, 0x0a)\n      dup1\n      0x00\n      mstore\n      keccak256(0x00, 0x40)\n      0x00\n      swap2\n      pop\n      sload\n      swap1\n      0x0100\n      exp\n      swap1\n      div\n      0xff\n      and\n      dup2\n      jump\t// out\n        /* \"LandRegistration.sol\":3459:3550  function loginAdmin() public view restrictToAdmin returns(bool){... */\n    tag_106:\n        /* \"LandRegistration.sol\":3517:3521  bool */\n      0x00\n        /* \"LandRegistration.sol\":1794:1803  addresses */\n      0x03\n        /* \"LandRegistration.sol\":1794:1815  addresses[msg.sender] */\n      0x00\n        /* \"LandRegistration.sol\":1804:1814  msg.sender */\n      caller\n        /* \"LandRegistration.sol\":1794:1815  addresses[msg.sender] */\n      0xffffffffffffffffffffffffffffffffffffffff\n      and\n      0xffffffffffffffffffffffffffffffffffffffff\n      and\n      dup2\n      mstore\n      0x20\n      add\n      swap1\n      dup2\n      mstore\n      0x20\n      add\n      0x00\n      keccak256\n      0x00\n      swap1\n      sload\n      swap1\n      0x0100\n      exp\n      swap1\n      div\n      0xff\n      and\n        /* \"LandRegistration.sol\":1786:1816  require(addresses[msg.sender]) */\n      tag_247\n      jumpi\n      0x00\n      dup1\n      revert\n    tag_247:\n        /* \"LandRegistration.sol\":3539:3543  true */\n      0x01\n        /* \"LandRegistration.sol\":3532:3543  return true */\n      swap1\n      pop\n        /* \"LandRegistration.sol\":3459:3550  function loginAdmin() public view restrictToAdmin returns(bool){... */\n      swap1\n      jump\t// out\n        /* \"LandRegistration.sol\":5946:6100  function makeLandAvailable(string memory _landId) public {... */\n    tag_110:\n        /* \"LandRegistration.sol\":6013:6036  Land storage landToEdit */\n      0x00\n        /* \"LandRegistration.sol\":6039:6044  lands */\n      0x08\n        /* \"LandRegistration.sol\":6045:6052  _landId */\n      dup3\n        /* \"LandRegistration.sol\":6039:6053  lands[_landId] */\n      mload(0x40)\n      tag_250\n      swap2\n      swap1\n      tag_153\n      jump\t// in\n    tag_250:\n      swap1\n      dup2\n      mstore\n      0x20\n      add\n      mload(0x40)\n      dup1\n      swap2\n      sub\n      swap1\n      keccak256\n        /* \"LandRegistration.sol\":6013:6053  Land storage landToEdit = lands[_landId] */\n      swap1\n      pop\n        /* \"LandRegistration.sol\":6089:6093  true */\n      0x01\n        /* \"LandRegistration.sol\":6063:6073  landToEdit */\n      dup2\n        /* \"LandRegistration.sol\":6063:6086  landToEdit.availability */\n      0x05\n      add\n      0x00\n        /* \"LandRegistration.sol\":6063:6093  landToEdit.availability = true */\n      0x0100\n      exp\n      dup2\n      sload\n      dup2\n      0xff\n      mul\n      not\n      and\n      swap1\n      dup4\n      iszero\n      iszero\n      mul\n      or\n      swap1\n      sstore\n      pop\n        /* \"LandRegistration.sol\":6003:6100  {... */\n      pop\n        /* \"LandRegistration.sol\":5946:6100  function makeLandAvailable(string memory _landId) public {... */\n      pop\n      jump\t// out\n        /* \"LandRegistration.sol\":6806:7135  function buyLand(string memory _landId) public {... */\n    tag_113:\n        /* \"LandRegistration.sol\":6863:6886  Land storage landToEdit */\n      0x00\n        /* \"LandRegistration.sol\":6889:6894  lands */\n      0x08\n        /* \"LandRegistration.sol\":6895:6902  _landId */\n      dup3\n        /* \"LandRegistration.sol\":6889:6903  lands[_landId] */\n      mload(0x40)\n      tag_252\n      swap2\n      swap1\n      tag_153\n      jump\t// in\n    tag_252:\n      swap1\n      dup2\n      mstore\n      0x20\n      add\n      mload(0x40)\n      dup1\n      swap2\n      sub\n      swap1\n      keccak256\n        /* \"LandRegistration.sol\":6863:6903  Land storage landToEdit = lands[_landId] */\n      swap1\n      pop\n        /* \"LandRegistration.sol\":6939:6949  msg.sender */\n      caller\n        /* \"LandRegistration.sol\":6913:6923  landToEdit */\n      dup2\n        /* \"LandRegistration.sol\":6913:6936  landToEdit.ownerAddress */\n      0x03\n      add\n      0x00\n        /* \"LandRegistration.sol\":6913:6949  landToEdit.ownerAddress = msg.sender */\n      0x0100\n      exp\n      dup2\n      sload\n      dup2\n      0xffffffffffffffffffffffffffffffffffffffff\n      mul\n      not\n      and\n      swap1\n      dup4\n      0xffffffffffffffffffffffffffffffffffffffff\n      and\n      mul\n      or\n      swap1\n      sstore\n      pop\n        /* \"LandRegistration.sol\":6985:6990  false */\n      0x00\n        /* \"LandRegistration.sol\":6959:6969  landToEdit */\n      dup2\n        /* \"LandRegistration.sol\":6959:6982  landToEdit.availability */\n      0x05\n      add\n      0x00\n        /* \"LandRegistration.sol\":6959:6990  landToEdit.availability = false */\n      0x0100\n      exp\n      dup2\n      sload\n      dup2\n      0xff\n      mul\n      not\n      and\n      swap1\n      dup4\n      iszero\n      iszero\n      mul\n      or\n      swap1\n      sstore\n      pop\n        /* \"LandRegistration.sol\":7030:7035  false */\n      0x00\n        /* \"LandRegistration.sol\":7000:7010  landToEdit */\n      dup2\n        /* \"LandRegistration.sol\":7000:7027  landToEdit.requestedForSale */\n      0x05\n      add\n      0x01\n        /* \"LandRegistration.sol\":7000:7035  landToEdit.requestedForSale = false */\n      0x0100\n      exp\n      dup2\n      sload\n      dup2\n      0xff\n      mul\n      not\n      and\n      swap1\n      dup4\n      iszero\n      iszero\n      mul\n      or\n      swap1\n      sstore\n      pop\n        /* \"LandRegistration.sol\":7085:7086  0 */\n      0x00\n        /* \"LandRegistration.sol\":7045:7055  landToEdit */\n      dup2\n        /* \"LandRegistration.sol\":7045:7074  landToEdit.requestedByAddress */\n      0x05\n      add\n      0x02\n        /* \"LandRegistration.sol\":7045:7087  landToEdit.requestedByAddress = address(0) */\n      0x0100\n      exp\n      dup2\n      sload\n      dup2\n      0xffffffffffffffffffffffffffffffffffffffff\n      mul\n      not\n      and\n      swap1\n      dup4\n      0xffffffffffffffffffffffffffffffffffffffff\n      and\n      mul\n      or\n      swap1\n      sstore\n      pop\n        /* \"LandRegistration.sol\":7123:7128  false */\n      0x00\n        /* \"LandRegistration.sol\":7097:7107  landToEdit */\n      dup2\n        /* \"LandRegistration.sol\":7097:7120  landToEdit.allowedToBuy */\n      0x07\n      add\n      0x14\n        /* \"LandRegistration.sol\":7097:7128  landToEdit.allowedToBuy = false */\n      0x0100\n      exp\n      dup2\n      sload\n      dup2\n      0xff\n      mul\n      not\n      and\n      swap1\n      dup4\n      iszero\n      iszero\n      mul\n      or\n      swap1\n      sstore\n      pop\n        /* \"LandRegistration.sol\":6853:7135  {... */\n      pop\n        /* \"LandRegistration.sol\":6806:7135  function buyLand(string memory _landId) public {... */\n      pop\n      jump\t// out\n        /* \"LandRegistration.sol\":3672:4648  function registerLand(string memory _location, string memory _surveryNumber, address _ownerAddress, string memory _marketValue, address _adminAddress, string memory _landId) public restrictToAdmin {... */\n    tag_117:\n        /* \"LandRegistration.sol\":1794:1803  addresses */\n      0x03\n        /* \"LandRegistration.sol\":1794:1815  addresses[msg.sender] */\n      0x00\n        /* \"LandRegistration.sol\":1804:1814  msg.sender */\n      caller\n        /* \"LandRegistration.sol\":1794:1815  addresses[msg.sender] */\n      0xffffffffffffffffffffffffffffffffffffffff\n      and\n      0xffffffffffffffffffffffffffffffffffffffff\n      and\n      dup2\n      mstore\n      0x20\n      add\n      swap1\n      dup2\n      mstore\n      0x20\n      add\n      0x00\n      keccak256\n      0x00\n      swap1\n      sload\n      swap1\n      0x0100\n      exp\n      swap1\n      div\n      0xff\n      and\n        /* \"LandRegistration.sol\":1786:1816  require(addresses[msg.sender]) */\n      tag_254\n      jumpi\n      0x00\n      dup1\n      revert\n    tag_254:\n        /* \"LandRegistration.sol\":3888:3902  landIdsMapping */\n      0x07\n        /* \"LandRegistration.sol\":3903:3910  _landId */\n      dup2\n        /* \"LandRegistration.sol\":3888:3911  landIdsMapping[_landId] */\n      mload(0x40)\n      tag_256\n      swap2\n      swap1\n      tag_153\n      jump\t// in\n    tag_256:\n      swap1\n      dup2\n      mstore\n      0x20\n      add\n      mload(0x40)\n      dup1\n      swap2\n      sub\n      swap1\n      keccak256\n      0x00\n      swap1\n      sload\n      swap1\n      0x0100\n      exp\n      swap1\n      div\n      0xff\n      and\n        /* \"LandRegistration.sol\":3887:3911  !landIdsMapping[_landId] */\n      iszero\n        /* \"LandRegistration.sol\":3879:3912  require(!landIdsMapping[_landId]) */\n      tag_257\n      jumpi\n      0x00\n      dup1\n      revert\n    tag_257:\n        /* \"LandRegistration.sol\":3997:4001  true */\n      0x01\n        /* \"LandRegistration.sol\":3971:3985  landIdsMapping */\n      0x07\n        /* \"LandRegistration.sol\":3986:3993  _landId */\n      dup3\n        /* \"LandRegistration.sol\":3971:3994  landIdsMapping[_landId] */\n      mload(0x40)\n      tag_258\n      swap2\n      swap1\n      tag_153\n      jump\t// in\n    tag_258:\n      swap1\n      dup2\n      mstore\n      0x20\n      add\n      mload(0x40)\n      dup1\n      swap2\n      sub\n      swap1\n      keccak256\n      0x00\n        /* \"LandRegistration.sol\":3971:4001  landIdsMapping[_landId] = true */\n      0x0100\n      exp\n      dup2\n      sload\n      dup2\n      0xff\n      mul\n      not\n      and\n      swap1\n      dup4\n      iszero\n      iszero\n      mul\n      or\n      swap1\n      sstore\n      pop\n        /* \"LandRegistration.sol\":4056:4066  landIdsArr */\n      0x06\n        /* \"LandRegistration.sol\":4072:4079  _landId */\n      dup2\n        /* \"LandRegistration.sol\":4056:4080  landIdsArr.push(_landId) */\n      swap1\n      dup1\n      0x01\n      dup2\n      sload\n      add\n      dup1\n      dup3\n      sstore\n      dup1\n      swap2\n      pop\n      pop\n      0x01\n      swap1\n      sub\n      swap1\n      0x00\n      mstore\n      keccak256(0x00, 0x20)\n      add\n      0x00\n      swap1\n      swap2\n      swap1\n      swap2\n      swap1\n      swap2\n      pop\n      swap1\n      dup1\n      mload\n      swap1\n      0x20\n      add\n      swap1\n      tag_260\n      swap3\n      swap2\n      swap1\n      tag_160\n      jump\t// in\n    tag_260:\n      pop\n        /* \"LandRegistration.sol\":4127:4147  Land storage newLand */\n      0x00\n        /* \"LandRegistration.sol\":4150:4155  lands */\n      0x08\n        /* \"LandRegistration.sol\":4156:4163  _landId */\n      dup3\n        /* \"LandRegistration.sol\":4150:4164  lands[_landId] */\n      mload(0x40)\n      tag_261\n      swap2\n      swap1\n      tag_153\n      jump\t// in\n    tag_261:\n      swap1\n      dup2\n      mstore\n      0x20\n      add\n      mload(0x40)\n      dup1\n      swap2\n      sub\n      swap1\n      keccak256\n        /* \"LandRegistration.sol\":4127:4164  Land storage newLand = lands[_landId] */\n      swap1\n      pop\n        /* \"LandRegistration.sol\":4191:4197  admins */\n      0x02\n        /* \"LandRegistration.sol\":4191:4212  admins[_adminAddress] */\n      0x00\n        /* \"LandRegistration.sol\":4198:4211  _adminAddress */\n      dup5\n        /* \"LandRegistration.sol\":4191:4212  admins[_adminAddress] */\n      0xffffffffffffffffffffffffffffffffffffffff\n      and\n      0xffffffffffffffffffffffffffffffffffffffff\n      and\n      dup2\n      mstore\n      0x20\n      add\n      swap1\n      dup2\n      mstore\n      0x20\n      add\n      0x00\n      keccak256\n        /* \"LandRegistration.sol\":4191:4219  admins[_adminAddress].county */\n      0x03\n      add\n        /* \"LandRegistration.sol\":4174:4181  newLand */\n      dup2\n        /* \"LandRegistration.sol\":4174:4188  newLand.county */\n      0x00\n      add\n        /* \"LandRegistration.sol\":4174:4219  newLand.county = admins[_adminAddress].county */\n      swap1\n      dup1\n      sload\n      tag_262\n      swap1\n      tag_170\n      jump\t// in\n    tag_262:\n      tag_263\n      swap3\n      swap2\n      swap1\n      tag_264\n      jump\t// in\n    tag_263:\n      pop\n        /* \"LandRegistration.sol\":4248:4257  _location */\n      dup7\n        /* \"LandRegistration.sol\":4229:4236  newLand */\n      dup2\n        /* \"LandRegistration.sol\":4229:4245  newLand.location */\n      0x01\n      add\n        /* \"LandRegistration.sol\":4229:4257  newLand.location = _location */\n      swap1\n      dup1\n      mload\n      swap1\n      0x20\n      add\n      swap1\n      tag_265\n      swap3\n      swap2\n      swap1\n      tag_160\n      jump\t// in\n    tag_265:\n      pop\n        /* \"LandRegistration.sol\":4290:4304  _surveryNumber */\n      dup6\n        /* \"LandRegistration.sol\":4267:4274  newLand */\n      dup2\n        /* \"LandRegistration.sol\":4267:4287  newLand.surveyNumber */\n      0x02\n      add\n        /* \"LandRegistration.sol\":4267:4304  newLand.surveyNumber = _surveryNumber */\n      swap1\n      dup1\n      mload\n      swap1\n      0x20\n      add\n      swap1\n      tag_266\n      swap3\n      swap2\n      swap1\n      tag_160\n      jump\t// in\n    tag_266:\n      pop\n        /* \"LandRegistration.sol\":4337:4350  _ownerAddress */\n      dup5\n        /* \"LandRegistration.sol\":4314:4321  newLand */\n      dup2\n        /* \"LandRegistration.sol\":4314:4334  newLand.ownerAddress */\n      0x03\n      add\n      0x00\n        /* \"LandRegistration.sol\":4314:4350  newLand.ownerAddress = _ownerAddress */\n      0x0100\n      exp\n      dup2\n      sload\n      dup2\n      0xffffffffffffffffffffffffffffffffffffffff\n      mul\n      not\n      and\n      swap1\n      dup4\n      0xffffffffffffffffffffffffffffffffffffffff\n      and\n      mul\n      or\n      swap1\n      sstore\n      pop\n        /* \"LandRegistration.sol\":4382:4394  _marketValue */\n      dup4\n        /* \"LandRegistration.sol\":4360:4367  newLand */\n      dup2\n        /* \"LandRegistration.sol\":4360:4379  newLand.marketValue */\n      0x04\n      add\n        /* \"LandRegistration.sol\":4360:4394  newLand.marketValue = _marketValue */\n      swap1\n      dup1\n      mload\n      swap1\n      0x20\n      add\n      swap1\n      tag_267\n      swap3\n      swap2\n      swap1\n      tag_160\n      jump\t// in\n    tag_267:\n      pop\n        /* \"LandRegistration.sol\":4427:4432  false */\n      0x00\n        /* \"LandRegistration.sol\":4404:4411  newLand */\n      dup2\n        /* \"LandRegistration.sol\":4404:4424  newLand.availability */\n      0x05\n      add\n      0x00\n        /* \"LandRegistration.sol\":4404:4432  newLand.availability = false */\n      0x0100\n      exp\n      dup2\n      sload\n      dup2\n      0xff\n      mul\n      not\n      and\n      swap1\n      dup4\n      iszero\n      iszero\n      mul\n      or\n      swap1\n      sstore\n      pop\n        /* \"LandRegistration.sol\":4469:4474  false */\n      0x00\n        /* \"LandRegistration.sol\":4442:4449  newLand */\n      dup2\n        /* \"LandRegistration.sol\":4442:4466  newLand.requestedForSale */\n      0x05\n      add\n      0x01\n        /* \"LandRegistration.sol\":4442:4474  newLand.requestedForSale = false */\n      0x0100\n      exp\n      dup2\n      sload\n      dup2\n      0xff\n      mul\n      not\n      and\n      swap1\n      dup4\n      iszero\n      iszero\n      mul\n      or\n      swap1\n      sstore\n      pop\n        /* \"LandRegistration.sol\":4521:4522  0 */\n      0x00\n        /* \"LandRegistration.sol\":4484:4491  newLand */\n      dup2\n        /* \"LandRegistration.sol\":4484:4510  newLand.requestedByAddress */\n      0x05\n      add\n      0x02\n        /* \"LandRegistration.sol\":4484:4523  newLand.requestedByAddress = address(0) */\n      0x0100\n      exp\n      dup2\n      sload\n      dup2\n      0xffffffffffffffffffffffffffffffffffffffff\n      mul\n      not\n      and\n      swap1\n      dup4\n      0xffffffffffffffffffffffffffffffffffffffff\n      and\n      mul\n      or\n      swap1\n      sstore\n      pop\n        /* \"LandRegistration.sol\":4550:4557  _landId */\n      dup2\n        /* \"LandRegistration.sol\":4533:4540  newLand */\n      dup2\n        /* \"LandRegistration.sol\":4533:4547  newLand.landId */\n      0x06\n      add\n        /* \"LandRegistration.sol\":4533:4557  newLand.landId = _landId */\n      swap1\n      dup1\n      mload\n      swap1\n      0x20\n      add\n      swap1\n      tag_268\n      swap3\n      swap2\n      swap1\n      tag_160\n      jump\t// in\n    tag_268:\n      pop\n        /* \"LandRegistration.sol\":4590:4603  _adminAddress */\n      dup3\n        /* \"LandRegistration.sol\":4567:4574  newLand */\n      dup2\n        /* \"LandRegistration.sol\":4567:4587  newLand.adminAddress */\n      0x07\n      add\n      0x00\n        /* \"LandRegistration.sol\":4567:4603  newLand.adminAddress = _adminAddress */\n      0x0100\n      exp\n      dup2\n      sload\n      dup2\n      0xffffffffffffffffffffffffffffffffffffffff\n      mul\n      not\n      and\n      swap1\n      dup4\n      0xffffffffffffffffffffffffffffffffffffffff\n      and\n      mul\n      or\n      swap1\n      sstore\n      pop\n        /* \"LandRegistration.sol\":4640:4641  1 */\n      0x01\n        /* \"LandRegistration.sol\":4627:4637  landsCount */\n      sload(0x09)\n        /* \"LandRegistration.sol\":4627:4641  landsCount + 1 */\n      tag_269\n      swap2\n      swap1\n      tag_270\n      jump\t// in\n    tag_269:\n        /* \"LandRegistration.sol\":4614:4624  landsCount */\n      0x09\n        /* \"LandRegistration.sol\":4614:4641  landsCount = landsCount + 1 */\n      dup2\n      swap1\n      sstore\n      pop\n        /* \"LandRegistration.sol\":3869:4648  {... */\n      pop\n        /* \"LandRegistration.sol\":3672:4648  function registerLand(string memory _location, string memory _surveryNumber, address _ownerAddress, string memory _marketValue, address _adminAddress, string memory _landId) public restrictToAdmin {... */\n      pop\n      pop\n      pop\n      pop\n      pop\n      pop\n      jump\t// out\n        /* \"LandRegistration.sol\":1154:1191  mapping (string => Land) public lands */\n    tag_120:\n      0x08\n      dup2\n      dup1\n      mload\n      0x20\n      dup2\n      add\n      dup3\n      add\n      dup1\n      mload\n      dup5\n      dup3\n      mstore\n      0x20\n      dup4\n      add\n      0x20\n      dup6\n      add\n      keccak256\n      dup2\n      dup4\n      mstore\n      dup1\n      swap6\n      pop\n      pop\n      pop\n      pop\n      pop\n      pop\n      0x00\n      swap2\n      pop\n      swap1\n      pop\n      dup1\n      0x00\n      add\n      dup1\n      sload\n      tag_271\n      swap1\n      tag_170\n      jump\t// in\n    tag_271:\n      dup1\n      0x1f\n      add\n      0x20\n      dup1\n      swap2\n      div\n      mul\n      0x20\n      add\n      mload(0x40)\n      swap1\n      dup2\n      add\n      0x40\n      mstore\n      dup1\n      swap3\n      swap2\n      swap1\n      dup2\n      dup2\n      mstore\n      0x20\n      add\n      dup3\n      dup1\n      sload\n      tag_272\n      swap1\n      tag_170\n      jump\t// in\n    tag_272:\n      dup1\n      iszero\n      tag_273\n      jumpi\n      dup1\n      0x1f\n      lt\n      tag_274\n      jumpi\n      0x0100\n      dup1\n      dup4\n      sload\n      div\n      mul\n      dup4\n      mstore\n      swap2\n      0x20\n      add\n      swap2\n      jump(tag_273)\n    tag_274:\n      dup3\n      add\n      swap2\n      swap1\n      0x00\n      mstore\n      keccak256(0x00, 0x20)\n      swap1\n    tag_275:\n      dup2\n      sload\n      dup2\n      mstore\n      swap1\n      0x01\n      add\n      swap1\n      0x20\n      add\n      dup1\n      dup4\n      gt\n      tag_275\n      jumpi\n      dup3\n      swap1\n      sub\n      0x1f\n      and\n      dup3\n      add\n      swap2\n    tag_273:\n      pop\n      pop\n      pop\n      pop\n      pop\n      swap1\n      dup1\n      0x01\n      add\n      dup1\n      sload\n      tag_276\n      swap1\n      tag_170\n      jump\t// in\n    tag_276:\n      dup1\n      0x1f\n      add\n      0x20\n      dup1\n      swap2\n      div\n      mul\n      0x20\n      add\n      mload(0x40)\n      swap1\n      dup2\n      add\n      0x40\n      mstore\n      dup1\n      swap3\n      swap2\n      swap1\n      dup2\n      dup2\n      mstore\n      0x20\n      add\n      dup3\n      dup1\n      sload\n      tag_277\n      swap1\n      tag_170\n      jump\t// in\n    tag_277:\n      dup1\n      iszero\n      tag_278\n      jumpi\n      dup1\n      0x1f\n      lt\n      tag_279\n      jumpi\n      0x0100\n      dup1\n      dup4\n      sload\n      div\n      mul\n      dup4\n      mstore\n      swap2\n      0x20\n      add\n      swap2\n      jump(tag_278)\n    tag_279:\n      dup3\n      add\n      swap2\n      swap1\n      0x00\n      mstore\n      keccak256(0x00, 0x20)\n      swap1\n    tag_280:\n      dup2\n      sload\n      dup2\n      mstore\n      swap1\n      0x01\n      add\n      swap1\n      0x20\n      add\n      dup1\n      dup4\n      gt\n      tag_280\n      jumpi\n      dup3\n      swap1\n      sub\n      0x1f\n      and\n      dup3\n      add\n      swap2\n    tag_278:\n      pop\n      pop\n      pop\n      pop\n      pop\n      swap1\n      dup1\n      0x02\n      add\n      dup1\n      sload\n      tag_281\n      swap1\n      tag_170\n      jump\t// in\n    tag_281:\n      dup1\n      0x1f\n      add\n      0x20\n      dup1\n      swap2\n      div\n      mul\n      0x20\n      add\n      mload(0x40)\n      swap1\n      dup2\n      add\n      0x40\n      mstore\n      dup1\n      swap3\n      swap2\n      swap1\n      dup2\n      dup2\n      mstore\n      0x20\n      add\n      dup3\n      dup1\n      sload\n      tag_282\n      swap1\n      tag_170\n      jump\t// in\n    tag_282:\n      dup1\n      iszero\n      tag_283\n      jumpi\n      dup1\n      0x1f\n      lt\n      tag_284\n      jumpi\n      0x0100\n      dup1\n      dup4\n      sload\n      div\n      mul\n      dup4\n      mstore\n      swap2\n      0x20\n      add\n      swap2\n      jump(tag_283)\n    tag_284:\n      dup3\n      add\n      swap2\n      swap1\n      0x00\n      mstore\n      keccak256(0x00, 0x20)\n      swap1\n    tag_285:\n      dup2\n      sload\n      dup2\n      mstore\n      swap1\n      0x01\n      add\n      swap1\n      0x20\n      add\n      dup1\n      dup4\n      gt\n      tag_285\n      jumpi\n      dup3\n      swap1\n      sub\n      0x1f\n      and\n      dup3\n      add\n      swap2\n    tag_283:\n      pop\n      pop\n      pop\n      pop\n      pop\n      swap1\n      dup1\n      0x03\n      add\n      0x00\n      swap1\n      sload\n      swap1\n      0x0100\n      exp\n      swap1\n      div\n      0xffffffffffffffffffffffffffffffffffffffff\n      and\n      swap1\n      dup1\n      0x04\n      add\n      dup1\n      sload\n      tag_286\n      swap1\n      tag_170\n      jump\t// in\n    tag_286:\n      dup1\n      0x1f\n      add\n      0x20\n      dup1\n      swap2\n      div\n      mul\n      0x20\n      add\n      mload(0x40)\n      swap1\n      dup2\n      add\n      0x40\n      mstore\n      dup1\n      swap3\n      swap2\n      swap1\n      dup2\n      dup2\n      mstore\n      0x20\n      add\n      dup3\n      dup1\n      sload\n      tag_287\n      swap1\n      tag_170\n      jump\t// in\n    tag_287:\n      dup1\n      iszero\n      tag_288\n      jumpi\n      dup1\n      0x1f\n      lt\n      tag_289\n      jumpi\n      0x0100\n      dup1\n      dup4\n      sload\n      div\n      mul\n      dup4\n      mstore\n      swap2\n      0x20\n      add\n      swap2\n      jump(tag_288)\n    tag_289:\n      dup3\n      add\n      swap2\n      swap1\n      0x00\n      mstore\n      keccak256(0x00, 0x20)\n      swap1\n    tag_290:\n      dup2\n      sload\n      dup2\n      mstore\n      swap1\n      0x01\n      add\n      swap1\n      0x20\n      add\n      dup1\n      dup4\n      gt\n      tag_290\n      jumpi\n      dup3\n      swap1\n      sub\n      0x1f\n      and\n      dup3\n      add\n      swap2\n    tag_288:\n      pop\n      pop\n      pop\n      pop\n      pop\n      swap1\n      dup1\n      0x05\n      add\n      0x00\n      swap1\n      sload\n      swap1\n      0x0100\n      exp\n      swap1\n      div\n      0xff\n      and\n      swap1\n      dup1\n      0x05\n      add\n      0x01\n      swap1\n      sload\n      swap1\n      0x0100\n      exp\n      swap1\n      div\n      0xff\n      and\n      swap1\n      dup1\n      0x05\n      add\n      0x02\n      swap1\n      sload\n      swap1\n      0x0100\n      exp\n      swap1\n      div\n      0xffffffffffffffffffffffffffffffffffffffff\n      and\n      swap1\n      dup1\n      0x06\n      add\n      dup1\n      sload\n      tag_291\n      swap1\n      tag_170\n      jump\t// in\n    tag_291:\n      dup1\n      0x1f\n      add\n      0x20\n      dup1\n      swap2\n      div\n      mul\n      0x20\n      add\n      mload(0x40)\n      swap1\n      dup2\n      add\n      0x40\n      mstore\n      dup1\n      swap3\n      swap2\n      swap1\n      dup2\n      dup2\n      mstore\n      0x20\n      add\n      dup3\n      dup1\n      sload\n      tag_292\n      swap1\n      tag_170\n      jump\t// in\n    tag_292:\n      dup1\n      iszero\n      tag_293\n      jumpi\n      dup1\n      0x1f\n      lt\n      tag_294\n      jumpi\n      0x0100\n      dup1\n      dup4\n      sload\n      div\n      mul\n      dup4\n      mstore\n      swap2\n      0x20\n      add\n      swap2\n      jump(tag_293)\n    tag_294:\n      dup3\n      add\n      swap2\n      swap1\n      0x00\n      mstore\n      keccak256(0x00, 0x20)\n      swap1\n    tag_295:\n      dup2\n      sload\n      dup2\n      mstore\n      swap1\n      0x01\n      add\n      swap1\n      0x20\n      add\n      dup1\n      dup4\n      gt\n      tag_295\n      jumpi\n      dup3\n      swap1\n      sub\n      0x1f\n      and\n      dup3\n      add\n      swap2\n    tag_293:\n      pop\n      pop\n      pop\n      pop\n      pop\n      swap1\n      dup1\n      0x07\n      add\n      0x00\n      swap1\n      sload\n      swap1\n      0x0100\n      exp\n      swap1\n      div\n      0xffffffffffffffffffffffffffffffffffffffff\n      and\n      swap1\n      dup1\n      0x07\n      add\n      0x14\n      swap1\n      sload\n      swap1\n      0x0100\n      exp\n      swap1\n      div\n      0xff\n      and\n      swap1\n      pop\n      dup12\n      jump\t// out\n        /* \"LandRegistration.sol\":1277:1332  mapping (address => LandOwner) public landOwnersDetails */\n    tag_125:\n      mstore(0x20, 0x0b)\n      dup1\n      0x00\n      mstore\n      keccak256(0x00, 0x40)\n      0x00\n      swap2\n      pop\n      swap1\n      pop\n      dup1\n      0x00\n      add\n      dup1\n      sload\n      tag_296\n      swap1\n      tag_170\n      jump\t// in\n    tag_296:\n      dup1\n      0x1f\n      add\n      0x20\n      dup1\n      swap2\n      div\n      mul\n      0x20\n      add\n      mload(0x40)\n      swap1\n      dup2\n      add\n      0x40\n      mstore\n      dup1\n      swap3\n      swap2\n      swap1\n      dup2\n      dup2\n      mstore\n      0x20\n      add\n      dup3\n      dup1\n      sload\n      tag_297\n      swap1\n      tag_170\n      jump\t// in\n    tag_297:\n      dup1\n      iszero\n      tag_298\n      jumpi\n      dup1\n      0x1f\n      lt\n      tag_299\n      jumpi\n      0x0100\n      dup1\n      dup4\n      sload\n      div\n      mul\n      dup4\n      mstore\n      swap2\n      0x20\n      add\n      swap2\n      jump(tag_298)\n    tag_299:\n      dup3\n      add\n      swap2\n      swap1\n      0x00\n      mstore\n      keccak256(0x00, 0x20)\n      swap1\n    tag_300:\n      dup2\n      sload\n      dup2\n      mstore\n      swap1\n      0x01\n      add\n      swap1\n      0x20\n      add\n      dup1\n      dup4\n      gt\n      tag_300\n      jumpi\n      dup3\n      swap1\n      sub\n      0x1f\n      and\n      dup3\n      add\n      swap2\n    tag_298:\n      pop\n      pop\n      pop\n      pop\n      pop\n      swap1\n      dup1\n      0x01\n      add\n      dup1\n      sload\n      tag_301\n      swap1\n      tag_170\n      jump\t// in\n    tag_301:\n      dup1\n      0x1f\n      add\n      0x20\n      dup1\n      swap2\n      div\n      mul\n      0x20\n      add\n      mload(0x40)\n      swap1\n      dup2\n      add\n      0x40\n      mstore\n      dup1\n      swap3\n      swap2\n      swap1\n      dup2\n      dup2\n      mstore\n      0x20\n      add\n      dup3\n      dup1\n      sload\n      tag_302\n      swap1\n      tag_170\n      jump\t// in\n    tag_302:\n      dup1\n      iszero\n      tag_303\n      jumpi\n      dup1\n      0x1f\n      lt\n      tag_304\n      jumpi\n      0x0100\n      dup1\n      dup4\n      sload\n      div\n      mul\n      dup4\n      mstore\n      swap2\n      0x20\n      add\n      swap2\n      jump(tag_303)\n    tag_304:\n      dup3\n      add\n      swap2\n      swap1\n      0x00\n      mstore\n      keccak256(0x00, 0x20)\n      swap1\n    tag_305:\n      dup2\n      sload\n      dup2\n      mstore\n      swap1\n      0x01\n      add\n      swap1\n      0x20\n      add\n      dup1\n      dup4\n      gt\n      tag_305\n      jumpi\n      dup3\n      swap1\n      sub\n      0x1f\n      and\n      dup3\n      add\n      swap2\n    tag_303:\n      pop\n      pop\n      pop\n      pop\n      pop\n      swap1\n      dup1\n      0x02\n      add\n      dup1\n      sload\n      tag_306\n      swap1\n      tag_170\n      jump\t// in\n    tag_306:\n      dup1\n      0x1f\n      add\n      0x20\n      dup1\n      swap2\n      div\n      mul\n      0x20\n      add\n      mload(0x40)\n      swap1\n      dup2\n      add\n      0x40\n      mstore\n      dup1\n      swap3\n      swap2\n      swap1\n      dup2\n      dup2\n      mstore\n      0x20\n      add\n      dup3\n      dup1\n      sload\n      tag_307\n      swap1\n      tag_170\n      jump\t// in\n    tag_307:\n      dup1\n      iszero\n      tag_308\n      jumpi\n      dup1\n      0x1f\n      lt\n      tag_309\n      jumpi\n      0x0100\n      dup1\n      dup4\n      sload\n      div\n      mul\n      dup4\n      mstore\n      swap2\n      0x20\n      add\n      swap2\n      jump(tag_308)\n    tag_309:\n      dup3\n      add\n      swap2\n      swap1\n      0x00\n      mstore\n      keccak256(0x00, 0x20)\n      swap1\n    tag_310:\n      dup2\n      sload\n      dup2\n      mstore\n      swap1\n      0x01\n      add\n      swap1\n      0x20\n      add\n      dup1\n      dup4\n      gt\n      tag_310\n      jumpi\n      dup3\n      swap1\n      sub\n      0x1f\n      and\n      dup3\n      add\n      swap2\n    tag_308:\n      pop\n      pop\n      pop\n      pop\n      pop\n      swap1\n      dup1\n      0x03\n      add\n      dup1\n      sload\n      tag_311\n      swap1\n      tag_170\n      jump\t// in\n    tag_311:\n      dup1\n      0x1f\n      add\n      0x20\n      dup1\n      swap2\n      div\n      mul\n      0x20\n      add\n      mload(0x40)\n      swap1\n      dup2\n      add\n      0x40\n      mstore\n      dup1\n      swap3\n      swap2\n      swap1\n      dup2\n      dup2\n      mstore\n      0x20\n      add\n      dup3\n      dup1\n      sload\n      tag_312\n      swap1\n      tag_170\n      jump\t// in\n    tag_312:\n      dup1\n      iszero\n      tag_313\n      jumpi\n      dup1\n      0x1f\n      lt\n      tag_314\n      jumpi\n      0x0100\n      dup1\n      dup4\n      sload\n      div\n      mul\n      dup4\n      mstore\n      swap2\n      0x20\n      add\n      swap2\n      jump(tag_313)\n    tag_314:\n      dup3\n      add\n      swap2\n      swap1\n      0x00\n      mstore\n      keccak256(0x00, 0x20)\n      swap1\n    tag_315:\n      dup2\n      sload\n      dup2\n      mstore\n      swap1\n      0x01\n      add\n      swap1\n      0x20\n      add\n      dup1\n      dup4\n      gt\n      tag_315\n      jumpi\n      dup3\n      swap1\n      sub\n      0x1f\n      and\n      dup3\n      add\n      swap2\n    tag_313:\n      pop\n      pop\n      pop\n      pop\n      pop\n      swap1\n      dup1\n      0x04\n      add\n      dup1\n      sload\n      tag_316\n      swap1\n      tag_170\n      jump\t// in\n    tag_316:\n      dup1\n      0x1f\n      add\n      0x20\n      dup1\n      swap2\n      div\n      mul\n      0x20\n      add\n      mload(0x40)\n      swap1\n      dup2\n      add\n      0x40\n      mstore\n      dup1\n      swap3\n      swap2\n      swap1\n      dup2\n      dup2\n      mstore\n      0x20\n      add\n      dup3\n      dup1\n      sload\n      tag_317\n      swap1\n      tag_170\n      jump\t// in\n    tag_317:\n      dup1\n      iszero\n      tag_318\n      jumpi\n      dup1\n      0x1f\n      lt\n      tag_319\n      jumpi\n      0x0100\n      dup1\n      dup4\n      sload\n      div\n      mul\n      dup4\n      mstore\n      swap2\n      0x20\n      add\n      swap2\n      jump(tag_318)\n    tag_319:\n      dup3\n      add\n      swap2\n      swap1\n      0x00\n      mstore\n      keccak256(0x00, 0x20)\n      swap1\n    tag_320:\n      dup2\n      sload\n      dup2\n      mstore\n      swap1\n      0x01\n      add\n      swap1\n      0x20\n      add\n      dup1\n      dup4\n      gt\n      tag_320\n      jumpi\n      dup3\n      swap1\n      sub\n      0x1f\n      and\n      dup3\n      add\n      swap2\n    tag_318:\n      pop\n      pop\n      pop\n      pop\n      pop\n      swap1\n      dup1\n      0x05\n      add\n      dup1\n      sload\n      tag_321\n      swap1\n      tag_170\n      jump\t// in\n    tag_321:\n      dup1\n      0x1f\n      add\n      0x20\n      dup1\n      swap2\n      div\n      mul\n      0x20\n      add\n      mload(0x40)\n      swap1\n      dup2\n      add\n      0x40\n      mstore\n      dup1\n      swap3\n      swap2\n      swap1\n      dup2\n      dup2\n      mstore\n      0x20\n      add\n      dup3\n      dup1\n      sload\n      tag_322\n      swap1\n      tag_170\n      jump\t// in\n    tag_322:\n      dup1\n      iszero\n      tag_323\n      jumpi\n      dup1\n      0x1f\n      lt\n      tag_324\n      jumpi\n      0x0100\n      dup1\n      dup4\n      sload\n      div\n      mul\n      dup4\n      mstore\n      swap2\n      0x20\n      add\n      swap2\n      jump(tag_323)\n    tag_324:\n      dup3\n      add\n      swap2\n      swap1\n      0x00\n      mstore\n      keccak256(0x00, 0x20)\n      swap1\n    tag_325:\n      dup2\n      sload\n      dup2\n      mstore\n      swap1\n      0x01\n      add\n      swap1\n      0x20\n      add\n      dup1\n      dup4\n      gt\n      tag_325\n      jumpi\n      dup3\n      swap1\n      sub\n      0x1f\n      and\n      dup3\n      add\n      swap2\n    tag_323:\n      pop\n      pop\n      pop\n      pop\n      pop\n      swap1\n      dup1\n      0x06\n      add\n      dup1\n      sload\n      tag_326\n      swap1\n      tag_170\n      jump\t// in\n    tag_326:\n      dup1\n      0x1f\n      add\n      0x20\n      dup1\n      swap2\n      div\n      mul\n      0x20\n      add\n      mload(0x40)\n      swap1\n      dup2\n      add\n      0x40\n      mstore\n      dup1\n      swap3\n      swap2\n      swap1\n      dup2\n      dup2\n      mstore\n      0x20\n      add\n      dup3\n      dup1\n      sload\n      tag_327\n      swap1\n      tag_170\n      jump\t// in\n    tag_327:\n      dup1\n      iszero\n      tag_328\n      jumpi\n      dup1\n      0x1f\n      lt\n      tag_329\n      jumpi\n      0x0100\n      dup1\n      dup4\n      sload\n      div\n      mul\n      dup4\n      mstore\n      swap2\n      0x20\n      add\n      swap2\n      jump(tag_328)\n    tag_329:\n      dup3\n      add\n      swap2\n      swap1\n      0x00\n      mstore\n      keccak256(0x00, 0x20)\n      swap1\n    tag_330:\n      dup2\n      sload\n      dup2\n      mstore\n      swap1\n      0x01\n      add\n      swap1\n      0x20\n      add\n      dup1\n      dup4\n      gt\n      tag_330\n      jumpi\n      dup3\n      swap1\n      sub\n      0x1f\n      and\n      dup3\n      add\n      swap2\n    tag_328:\n      pop\n      pop\n      pop\n      pop\n      pop\n      swap1\n      dup1\n      0x07\n      add\n      dup1\n      sload\n      tag_331\n      swap1\n      tag_170\n      jump\t// in\n    tag_331:\n      dup1\n      0x1f\n      add\n      0x20\n      dup1\n      swap2\n      div\n      mul\n      0x20\n      add\n      mload(0x40)\n      swap1\n      dup2\n      add\n      0x40\n      mstore\n      dup1\n      swap3\n      swap2\n      swap1\n      dup2\n      dup2\n      mstore\n      0x20\n      add\n      dup3\n      dup1\n      sload\n      tag_332\n      swap1\n      tag_170\n      jump\t// in\n    tag_332:\n      dup1\n      iszero\n      tag_333\n      jumpi\n      dup1\n      0x1f\n      lt\n      tag_334\n      jumpi\n      0x0100\n      dup1\n      dup4\n      sload\n      div\n      mul\n      dup4\n      mstore\n      swap2\n      0x20\n      add\n      swap2\n      jump(tag_333)\n    tag_334:\n      dup3\n      add\n      swap2\n      swap1\n      0x00\n      mstore\n      keccak256(0x00, 0x20)\n      swap1\n    tag_335:\n      dup2\n      sload\n      dup2\n      mstore\n      swap1\n      0x01\n      add\n      swap1\n      0x20\n      add\n      dup1\n      dup4\n      gt\n      tag_335\n      jumpi\n      dup3\n      swap1\n      sub\n      0x1f\n      and\n      dup3\n      add\n      swap2\n    tag_333:\n      pop\n      pop\n      pop\n      pop\n      pop\n      swap1\n      dup1\n      0x08\n      add\n      0x00\n      swap1\n      sload\n      swap1\n      0x0100\n      exp\n      swap1\n      div\n      0xffffffffffffffffffffffffffffffffffffffff\n      and\n      swap1\n      pop\n      dup10\n      jump\t// out\n        /* \"LandRegistration.sol\":1102:1148  mapping (string => bool) public landIdsMapping */\n    tag_130:\n      0x07\n      dup2\n      dup1\n      mload\n      0x20\n      dup2\n      add\n      dup3\n      add\n      dup1\n      mload\n      dup5\n      dup3\n      mstore\n      0x20\n      dup4\n      add\n      0x20\n      dup6\n      add\n      keccak256\n      dup2\n      dup4\n      mstore\n      dup1\n      swap6\n      pop\n      pop\n      pop\n      pop\n      pop\n      pop\n      0x00\n      swap2\n      pop\n      sload\n      swap1\n      0x0100\n      exp\n      swap1\n      div\n      0xff\n      and\n      dup2\n      jump\t// out\n        /* \"LandRegistration.sol\":1069:1096  string [] public landIdsArr */\n    tag_134:\n      0x06\n      dup2\n      dup2\n      sload\n      dup2\n      lt\n      tag_336\n      jumpi\n      0x00\n      dup1\n      revert\n    tag_336:\n      swap1\n      0x00\n      mstore\n      keccak256(0x00, 0x20)\n      add\n      0x00\n      swap2\n      pop\n      swap1\n      pop\n      dup1\n      sload\n      tag_338\n      swap1\n      tag_170\n      jump\t// in\n    tag_338:\n      dup1\n      0x1f\n      add\n      0x20\n      dup1\n      swap2\n      div\n      mul\n      0x20\n      add\n      mload(0x40)\n      swap1\n      dup2\n      add\n      0x40\n      mstore\n      dup1\n      swap3\n      swap2\n      swap1\n      dup2\n      dup2\n      mstore\n      0x20\n      add\n      dup3\n      dup1\n      sload\n      tag_339\n      swap1\n      tag_170\n      jump\t// in\n    tag_339:\n      dup1\n      iszero\n      tag_340\n      jumpi\n      dup1\n      0x1f\n      lt\n      tag_341\n      jumpi\n      0x0100\n      dup1\n      dup4\n      sload\n      div\n      mul\n      dup4\n      mstore\n      swap2\n      0x20\n      add\n      swap2\n      jump(tag_340)\n    tag_341:\n      dup3\n      add\n      swap2\n      swap1\n      0x00\n      mstore\n      keccak256(0x00, 0x20)\n      swap1\n    tag_342:\n      dup2\n      sload\n      dup2\n      mstore\n      swap1\n      0x01\n      add\n      swap1\n      0x20\n      add\n      dup1\n      dup4\n      gt\n      tag_342\n      jumpi\n      dup3\n      swap1\n      sub\n      0x1f\n      and\n      dup3\n      add\n      swap2\n    tag_340:\n      pop\n      pop\n      pop\n      pop\n      pop\n      dup2\n      jump\t// out\n        /* \"LandRegistration.sol\":1981:2564  function addAdmin(string memory firstName, string memory lastName, string memory county, address adminAddress) public restrictToSuperAdmin {... */\n    tag_138:\n        /* \"LandRegistration.sol\":1709:1726  superAdminAddress */\n      0x00\n      dup1\n      sload\n      swap1\n      0x0100\n      exp\n      swap1\n      div\n      0xffffffffffffffffffffffffffffffffffffffff\n      and\n        /* \"LandRegistration.sol\":1695:1726  msg.sender == superAdminAddress */\n      0xffffffffffffffffffffffffffffffffffffffff\n      and\n        /* \"LandRegistration.sol\":1695:1705  msg.sender */\n      caller\n        /* \"LandRegistration.sol\":1695:1726  msg.sender == superAdminAddress */\n      0xffffffffffffffffffffffffffffffffffffffff\n      and\n      eq\n        /* \"LandRegistration.sol\":1687:1727  require(msg.sender == superAdminAddress) */\n      tag_344\n      jumpi\n      0x00\n      dup1\n      revert\n    tag_344:\n        /* \"LandRegistration.sol\":2134:2172  equal(admins[adminAddress].county, \"\") */\n      tag_346\n        /* \"LandRegistration.sol\":2140:2146  admins */\n      0x02\n        /* \"LandRegistration.sol\":2140:2160  admins[adminAddress] */\n      0x00\n        /* \"LandRegistration.sol\":2147:2159  adminAddress */\n      dup4\n        /* \"LandRegistration.sol\":2140:2160  admins[adminAddress] */\n      0xffffffffffffffffffffffffffffffffffffffff\n      and\n      0xffffffffffffffffffffffffffffffffffffffff\n      and\n      dup2\n      mstore\n      0x20\n      add\n      swap1\n      dup2\n      mstore\n      0x20\n      add\n      0x00\n      keccak256\n        /* \"LandRegistration.sol\":2140:2167  admins[adminAddress].county */\n      0x03\n      add\n        /* \"LandRegistration.sol\":2134:2172  equal(admins[adminAddress].county, \"\") */\n      dup1\n      sload\n      tag_347\n      swap1\n      tag_170\n      jump\t// in\n    tag_347:\n      dup1\n      0x1f\n      add\n      0x20\n      dup1\n      swap2\n      div\n      mul\n      0x20\n      add\n      mload(0x40)\n      swap1\n      dup2\n      add\n      0x40\n      mstore\n      dup1\n      swap3\n      swap2\n      swap1\n      dup2\n      dup2\n      mstore\n      0x20\n      add\n      dup3\n      dup1\n      sload\n      tag_348\n      swap1\n      tag_170\n      jump\t// in\n    tag_348:\n      dup1\n      iszero\n      tag_349\n      jumpi\n      dup1\n      0x1f\n      lt\n      tag_350\n      jumpi\n      0x0100\n      dup1\n      dup4\n      sload\n      div\n      mul\n      dup4\n      mstore\n      swap2\n      0x20\n      add\n      swap2\n      jump(tag_349)\n    tag_350:\n      dup3\n      add\n      swap2\n      swap1\n      0x00\n      mstore\n      keccak256(0x00, 0x20)\n      swap1\n    tag_351:\n      dup2\n      sload\n      dup2\n      mstore\n      swap1\n      0x01\n      add\n      swap1\n      0x20\n      add\n      dup1\n      dup4\n      gt\n      tag_351\n      jumpi\n      dup3\n      swap1\n      sub\n      0x1f\n      and\n      dup3\n      add\n      swap2\n    tag_349:\n      pop\n      pop\n      pop\n      pop\n      pop\n      mload(0x40)\n      dup1\n      0x20\n      add\n      0x40\n      mstore\n      dup1\n      0x00\n      dup2\n      mstore\n      pop\n        /* \"LandRegistration.sol\":2134:2139  equal */\n      tag_352\n        /* \"LandRegistration.sol\":2134:2172  equal(admins[adminAddress].county, \"\") */\n      jump\t// in\n    tag_346:\n        /* \"LandRegistration.sol\":2130:2220  if (equal(admins[adminAddress].county, \"\")) {... */\n      iszero\n      tag_353\n      jumpi\n        /* \"LandRegistration.sol\":2188:2196  counties */\n      0x04\n        /* \"LandRegistration.sol\":2202:2208  county */\n      dup3\n        /* \"LandRegistration.sol\":2188:2209  counties.push(county) */\n      swap1\n      dup1\n      0x01\n      dup2\n      sload\n      add\n      dup1\n      dup3\n      sstore\n      dup1\n      swap2\n      pop\n      pop\n      0x01\n      swap1\n      sub\n      swap1\n      0x00\n      mstore\n      keccak256(0x00, 0x20)\n      add\n      0x00\n      swap1\n      swap2\n      swap1\n      swap2\n      swap1\n      swap2\n      pop\n      swap1\n      dup1\n      mload\n      swap1\n      0x20\n      add\n      swap1\n      tag_355\n      swap3\n      swap2\n      swap1\n      tag_160\n      jump\t// in\n    tag_355:\n      pop\n        /* \"LandRegistration.sol\":2130:2220  if (equal(admins[adminAddress].county, \"\")) {... */\n    tag_353:\n        /* \"LandRegistration.sol\":2229:2251  Admin storage newAdmin */\n      0x00\n        /* \"LandRegistration.sol\":2254:2260  admins */\n      0x02\n        /* \"LandRegistration.sol\":2254:2274  admins[adminAddress] */\n      0x00\n        /* \"LandRegistration.sol\":2261:2273  adminAddress */\n      dup4\n        /* \"LandRegistration.sol\":2254:2274  admins[adminAddress] */\n      0xffffffffffffffffffffffffffffffffffffffff\n      and\n      0xffffffffffffffffffffffffffffffffffffffff\n      and\n      dup2\n      mstore\n      0x20\n      add\n      swap1\n      dup2\n      mstore\n      0x20\n      add\n      0x00\n      keccak256\n        /* \"LandRegistration.sol\":2229:2274  Admin storage newAdmin = admins[adminAddress] */\n      swap1\n      pop\n        /* \"LandRegistration.sol\":2305:2314  firstName */\n      dup5\n        /* \"LandRegistration.sol\":2284:2292  newAdmin */\n      dup2\n        /* \"LandRegistration.sol\":2284:2302  newAdmin.firstName */\n      0x00\n      add\n        /* \"LandRegistration.sol\":2284:2314  newAdmin.firstName = firstName */\n      swap1\n      dup1\n      mload\n      swap1\n      0x20\n      add\n      swap1\n      tag_356\n      swap3\n      swap2\n      swap1\n      tag_160\n      jump\t// in\n    tag_356:\n      pop\n        /* \"LandRegistration.sol\":2344:2352  lastName */\n      dup4\n        /* \"LandRegistration.sol\":2324:2332  newAdmin */\n      dup2\n        /* \"LandRegistration.sol\":2324:2341  newAdmin.lastName */\n      0x01\n      add\n        /* \"LandRegistration.sol\":2324:2352  newAdmin.lastName = lastName */\n      swap1\n      dup1\n      mload\n      swap1\n      0x20\n      add\n      swap1\n      tag_357\n      swap3\n      swap2\n      swap1\n      tag_160\n      jump\t// in\n    tag_357:\n      pop\n        /* \"LandRegistration.sol\":2386:2398  adminAddress */\n      dup2\n        /* \"LandRegistration.sol\":2362:2370  newAdmin */\n      dup2\n        /* \"LandRegistration.sol\":2362:2383  newAdmin.adminAddress */\n      0x02\n      add\n      0x00\n        /* \"LandRegistration.sol\":2362:2398  newAdmin.adminAddress = adminAddress */\n      0x0100\n      exp\n      dup2\n      sload\n      dup2\n      0xffffffffffffffffffffffffffffffffffffffff\n      mul\n      not\n      and\n      swap1\n      dup4\n      0xffffffffffffffffffffffffffffffffffffffff\n      and\n      mul\n      or\n      swap1\n      sstore\n      pop\n        /* \"LandRegistration.sol\":2426:2432  county */\n      dup3\n        /* \"LandRegistration.sol\":2408:2416  newAdmin */\n      dup2\n        /* \"LandRegistration.sol\":2408:2423  newAdmin.county */\n      0x03\n      add\n        /* \"LandRegistration.sol\":2408:2432  newAdmin.county = county */\n      swap1\n      dup1\n      mload\n      swap1\n      0x20\n      add\n      swap1\n      tag_358\n      swap3\n      swap2\n      swap1\n      tag_160\n      jump\t// in\n    tag_358:\n      pop\n        /* \"LandRegistration.sol\":2460:2464  true */\n      0x01\n        /* \"LandRegistration.sol\":2442:2450  newAdmin */\n      dup2\n        /* \"LandRegistration.sol\":2442:2457  newAdmin.active */\n      0x04\n      add\n      0x00\n        /* \"LandRegistration.sol\":2442:2464  newAdmin.active = true */\n      0x0100\n      exp\n      dup2\n      sload\n      dup2\n      0xff\n      mul\n      not\n      and\n      swap1\n      dup4\n      iszero\n      iszero\n      mul\n      or\n      swap1\n      sstore\n      pop\n        /* \"LandRegistration.sol\":2475:2489  adminsAdresses */\n      0x05\n        /* \"LandRegistration.sol\":2503:2515  adminAddress */\n      dup3\n        /* \"LandRegistration.sol\":2475:2517  adminsAdresses.push(address(adminAddress)) */\n      swap1\n      dup1\n      0x01\n      dup2\n      sload\n      add\n      dup1\n      dup3\n      sstore\n      dup1\n      swap2\n      pop\n      pop\n      0x01\n      swap1\n      sub\n      swap1\n      0x00\n      mstore\n      keccak256(0x00, 0x20)\n      add\n      0x00\n      swap1\n      swap2\n      swap1\n      swap2\n      swap1\n      swap2\n      0x0100\n      exp\n      dup2\n      sload\n      dup2\n      0xffffffffffffffffffffffffffffffffffffffff\n      mul\n      not\n      and\n      swap1\n      dup4\n      0xffffffffffffffffffffffffffffffffffffffff\n      and\n      mul\n      or\n      swap1\n      sstore\n      pop\n        /* \"LandRegistration.sol\":2553:2557  true */\n      0x01\n        /* \"LandRegistration.sol\":2527:2536  addresses */\n      0x03\n        /* \"LandRegistration.sol\":2527:2550  addresses[adminAddress] */\n      0x00\n        /* \"LandRegistration.sol\":2537:2549  adminAddress */\n      dup5\n        /* \"LandRegistration.sol\":2527:2550  addresses[adminAddress] */\n      0xffffffffffffffffffffffffffffffffffffffff\n      and\n      0xffffffffffffffffffffffffffffffffffffffff\n      and\n      dup2\n      mstore\n      0x20\n      add\n      swap1\n      dup2\n      mstore\n      0x20\n      add\n      0x00\n      keccak256\n      0x00\n        /* \"LandRegistration.sol\":2527:2557  addresses[adminAddress] = true */\n      0x0100\n      exp\n      dup2\n      sload\n      dup2\n      0xff\n      mul\n      not\n      and\n      swap1\n      dup4\n      iszero\n      iszero\n      mul\n      or\n      swap1\n      sstore\n      pop\n        /* \"LandRegistration.sol\":2120:2564  {... */\n      pop\n        /* \"LandRegistration.sol\":1981:2564  function addAdmin(string memory firstName, string memory lastName, string memory county, address adminAddress) public restrictToSuperAdmin {... */\n      pop\n      pop\n      pop\n      pop\n      jump\t// out\n        /* \"LandRegistration.sol\":6135:6292  function makeLandUnavailable(string memory _landId) public {... */\n    tag_141:\n        /* \"LandRegistration.sol\":6204:6227  Land storage landToEdit */\n      0x00\n        /* \"LandRegistration.sol\":6230:6235  lands */\n      0x08\n        /* \"LandRegistration.sol\":6236:6243  _landId */\n      dup3\n        /* \"LandRegistration.sol\":6230:6244  lands[_landId] */\n      mload(0x40)\n      tag_361\n      swap2\n      swap1\n      tag_153\n      jump\t// in\n    tag_361:\n      swap1\n      dup2\n      mstore\n      0x20\n      add\n      mload(0x40)\n      dup1\n      swap2\n      sub\n      swap1\n      keccak256\n        /* \"LandRegistration.sol\":6204:6244  Land storage landToEdit = lands[_landId] */\n      swap1\n      pop\n        /* \"LandRegistration.sol\":6280:6285  false */\n      0x00\n        /* \"LandRegistration.sol\":6254:6264  landToEdit */\n      dup2\n        /* \"LandRegistration.sol\":6254:6277  landToEdit.availability */\n      0x05\n      add\n      0x00\n        /* \"LandRegistration.sol\":6254:6285  landToEdit.availability = false */\n      0x0100\n      exp\n      dup2\n      sload\n      dup2\n      0xff\n      mul\n      not\n      and\n      swap1\n      dup4\n      iszero\n      iszero\n      mul\n      or\n      swap1\n      sstore\n      pop\n        /* \"LandRegistration.sol\":6194:6292  {... */\n      pop\n        /* \"LandRegistration.sol\":6135:6292  function makeLandUnavailable(string memory _landId) public {... */\n      pop\n      jump\t// out\n        /* \"LandRegistration.sol\":4654:5231  function registerLandOwner() public returns(bool){... */\n    tag_143:\n        /* \"LandRegistration.sol\":4698:4702  bool */\n      0x00\n        /* \"LandRegistration.sol\":4717:4727  landOwners */\n      0x0a\n        /* \"LandRegistration.sol\":4717:4739  landOwners[msg.sender] */\n      0x00\n        /* \"LandRegistration.sol\":4728:4738  msg.sender */\n      caller\n        /* \"LandRegistration.sol\":4717:4739  landOwners[msg.sender] */\n      0xffffffffffffffffffffffffffffffffffffffff\n      and\n      0xffffffffffffffffffffffffffffffffffffffff\n      and\n      dup2\n      mstore\n      0x20\n      add\n      swap1\n      dup2\n      mstore\n      0x20\n      add\n      0x00\n      keccak256\n      0x00\n      swap1\n      sload\n      swap1\n      0x0100\n      exp\n      swap1\n      div\n      0xff\n      and\n        /* \"LandRegistration.sol\":4713:4752  if (landOwners[msg.sender]) return true */\n      iszero\n      tag_363\n      jumpi\n        /* \"LandRegistration.sol\":4748:4752  true */\n      0x01\n        /* \"LandRegistration.sol\":4741:4752  return true */\n      swap1\n      pop\n      jump(tag_362)\n        /* \"LandRegistration.sol\":4713:4752  if (landOwners[msg.sender]) return true */\n    tag_363:\n        /* \"LandRegistration.sol\":4787:4791  true */\n      0x01\n        /* \"LandRegistration.sol\":4762:4772  landOwners */\n      0x0a\n        /* \"LandRegistration.sol\":4762:4784  landOwners[msg.sender] */\n      0x00\n        /* \"LandRegistration.sol\":4773:4783  msg.sender */\n      caller\n        /* \"LandRegistration.sol\":4762:4784  landOwners[msg.sender] */\n      0xffffffffffffffffffffffffffffffffffffffff\n      and\n      0xffffffffffffffffffffffffffffffffffffffff\n      and\n      dup2\n      mstore\n      0x20\n      add\n      swap1\n      dup2\n      mstore\n      0x20\n      add\n      0x00\n      keccak256\n      0x00\n        /* \"LandRegistration.sol\":4762:4791  landOwners[msg.sender] = true */\n      0x0100\n      exp\n      dup2\n      sload\n      dup2\n      0xff\n      mul\n      not\n      and\n      swap1\n      dup4\n      iszero\n      iszero\n      mul\n      or\n      swap1\n      sstore\n      pop\n        /* \"LandRegistration.sol\":4802:4832  LandOwner storage newLandOwner */\n      0x00\n        /* \"LandRegistration.sol\":4835:4852  landOwnersDetails */\n      0x0b\n        /* \"LandRegistration.sol\":4835:4864  landOwnersDetails[msg.sender] */\n      0x00\n        /* \"LandRegistration.sol\":4853:4863  msg.sender */\n      caller\n        /* \"LandRegistration.sol\":4835:4864  landOwnersDetails[msg.sender] */\n      0xffffffffffffffffffffffffffffffffffffffff\n      and\n      0xffffffffffffffffffffffffffffffffffffffff\n      and\n      dup2\n      mstore\n      0x20\n      add\n      swap1\n      dup2\n      mstore\n      0x20\n      add\n      0x00\n      keccak256\n        /* \"LandRegistration.sol\":4802:4864  LandOwner storage newLandOwner = landOwnersDetails[msg.sender] */\n      swap1\n      pop\n        /* \"LandRegistration.sol\":4874:4901  newLandOwner.firstName = \"\" */\n      mload(0x40)\n      dup1\n      0x20\n      add\n      0x40\n      mstore\n      dup1\n      0x00\n      dup2\n      mstore\n      pop\n        /* \"LandRegistration.sol\":4874:4886  newLandOwner */\n      dup2\n        /* \"LandRegistration.sol\":4874:4896  newLandOwner.firstName */\n      0x00\n      add\n        /* \"LandRegistration.sol\":4874:4901  newLandOwner.firstName = \"\" */\n      swap1\n      dup1\n      mload\n      swap1\n      0x20\n      add\n      swap1\n      tag_364\n      swap3\n      swap2\n      swap1\n      tag_160\n      jump\t// in\n    tag_364:\n      pop\n        /* \"LandRegistration.sol\":4911:4937  newLandOwner.lastName = \"\" */\n      mload(0x40)\n      dup1\n      0x20\n      add\n      0x40\n      mstore\n      dup1\n      0x00\n      dup2\n      mstore\n      pop\n        /* \"LandRegistration.sol\":4911:4923  newLandOwner */\n      dup2\n        /* \"LandRegistration.sol\":4911:4932  newLandOwner.lastName */\n      0x01\n      add\n        /* \"LandRegistration.sol\":4911:4937  newLandOwner.lastName = \"\" */\n      swap1\n      dup1\n      mload\n      swap1\n      0x20\n      add\n      swap1\n      tag_365\n      swap3\n      swap2\n      swap1\n      tag_160\n      jump\t// in\n    tag_365:\n      pop\n        /* \"LandRegistration.sol\":4947:4975  newLandOwner.middleName = \"\" */\n      mload(0x40)\n      dup1\n      0x20\n      add\n      0x40\n      mstore\n      dup1\n      0x00\n      dup2\n      mstore\n      pop\n        /* \"LandRegistration.sol\":4947:4959  newLandOwner */\n      dup2\n        /* \"LandRegistration.sol\":4947:4970  newLandOwner.middleName */\n      0x02\n      add\n        /* \"LandRegistration.sol\":4947:4975  newLandOwner.middleName = \"\" */\n      swap1\n      dup1\n      mload\n      swap1\n      0x20\n      add\n      swap1\n      tag_366\n      swap3\n      swap2\n      swap1\n      tag_160\n      jump\t// in\n    tag_366:\n      pop\n        /* \"LandRegistration.sol\":4985:5009  newLandOwner.gender = \"\" */\n      mload(0x40)\n      dup1\n      0x20\n      add\n      0x40\n      mstore\n      dup1\n      0x00\n      dup2\n      mstore\n      pop\n        /* \"LandRegistration.sol\":4985:4997  newLandOwner */\n      dup2\n        /* \"LandRegistration.sol\":4985:5004  newLandOwner.gender */\n      0x03\n      add\n        /* \"LandRegistration.sol\":4985:5009  newLandOwner.gender = \"\" */\n      swap1\n      dup1\n      mload\n      swap1\n      0x20\n      add\n      swap1\n      tag_367\n      swap3\n      swap2\n      swap1\n      tag_160\n      jump\t// in\n    tag_367:\n      pop\n        /* \"LandRegistration.sol\":5019:5042  newLandOwner.email = \"\" */\n      mload(0x40)\n      dup1\n      0x20\n      add\n      0x40\n      mstore\n      dup1\n      0x00\n      dup2\n      mstore\n      pop\n        /* \"LandRegistration.sol\":5019:5031  newLandOwner */\n      dup2\n        /* \"LandRegistration.sol\":5019:5037  newLandOwner.email */\n      0x04\n      add\n        /* \"LandRegistration.sol\":5019:5042  newLandOwner.email = \"\" */\n      swap1\n      dup1\n      mload\n      swap1\n      0x20\n      add\n      swap1\n      tag_368\n      swap3\n      swap2\n      swap1\n      tag_160\n      jump\t// in\n    tag_368:\n      pop\n        /* \"LandRegistration.sol\":5052:5081  newLandOwner.phoneNumber = \"\" */\n      mload(0x40)\n      dup1\n      0x20\n      add\n      0x40\n      mstore\n      dup1\n      0x00\n      dup2\n      mstore\n      pop\n        /* \"LandRegistration.sol\":5052:5064  newLandOwner */\n      dup2\n        /* \"LandRegistration.sol\":5052:5076  newLandOwner.phoneNumber */\n      0x05\n      add\n        /* \"LandRegistration.sol\":5052:5081  newLandOwner.phoneNumber = \"\" */\n      swap1\n      dup1\n      mload\n      swap1\n      0x20\n      add\n      swap1\n      tag_369\n      swap3\n      swap2\n      swap1\n      tag_160\n      jump\t// in\n    tag_369:\n      pop\n        /* \"LandRegistration.sol\":5091:5114  newLandOwner.poBox = \"\" */\n      mload(0x40)\n      dup1\n      0x20\n      add\n      0x40\n      mstore\n      dup1\n      0x00\n      dup2\n      mstore\n      pop\n        /* \"LandRegistration.sol\":5091:5103  newLandOwner */\n      dup2\n        /* \"LandRegistration.sol\":5091:5109  newLandOwner.poBox */\n      0x06\n      add\n        /* \"LandRegistration.sol\":5091:5114  newLandOwner.poBox = \"\" */\n      swap1\n      dup1\n      mload\n      swap1\n      0x20\n      add\n      swap1\n      tag_370\n      swap3\n      swap2\n      swap1\n      tag_160\n      jump\t// in\n    tag_370:\n      pop\n        /* \"LandRegistration.sol\":5124:5150  newLandOwner.location = \"\" */\n      mload(0x40)\n      dup1\n      0x20\n      add\n      0x40\n      mstore\n      dup1\n      0x00\n      dup2\n      mstore\n      pop\n        /* \"LandRegistration.sol\":5124:5136  newLandOwner */\n      dup2\n        /* \"LandRegistration.sol\":5124:5145  newLandOwner.location */\n      0x07\n      add\n        /* \"LandRegistration.sol\":5124:5150  newLandOwner.location = \"\" */\n      swap1\n      dup1\n      mload\n      swap1\n      0x20\n      add\n      swap1\n      tag_371\n      swap3\n      swap2\n      swap1\n      tag_160\n      jump\t// in\n    tag_371:\n      pop\n        /* \"LandRegistration.sol\":5192:5202  msg.sender */\n      caller\n        /* \"LandRegistration.sol\":5160:5172  newLandOwner */\n      dup2\n        /* \"LandRegistration.sol\":5160:5189  newLandOwner.landOwnerAddress */\n      0x08\n      add\n      0x00\n        /* \"LandRegistration.sol\":5160:5202  newLandOwner.landOwnerAddress = msg.sender */\n      0x0100\n      exp\n      dup2\n      sload\n      dup2\n      0xffffffffffffffffffffffffffffffffffffffff\n      mul\n      not\n      and\n      swap1\n      dup4\n      0xffffffffffffffffffffffffffffffffffffffff\n      and\n      mul\n      or\n      swap1\n      sstore\n      pop\n        /* \"LandRegistration.sol\":5220:5224  true */\n      0x01\n        /* \"LandRegistration.sol\":5213:5224  return true */\n      swap2\n      pop\n      pop\n        /* \"LandRegistration.sol\":4654:5231  function registerLandOwner() public returns(bool){... */\n    tag_362:\n      swap1\n      jump\t// out\n        /* \"LandRegistration.sol\":2719:2846  function deactivateAdmin(address adminAddress) public restrictToSuperAdmin {... */\n    tag_147:\n        /* \"LandRegistration.sol\":1709:1726  superAdminAddress */\n      0x00\n      dup1\n      sload\n      swap1\n      0x0100\n      exp\n      swap1\n      div\n      0xffffffffffffffffffffffffffffffffffffffff\n      and\n        /* \"LandRegistration.sol\":1695:1726  msg.sender == superAdminAddress */\n      0xffffffffffffffffffffffffffffffffffffffff\n      and\n        /* \"LandRegistration.sol\":1695:1705  msg.sender */\n      caller\n        /* \"LandRegistration.sol\":1695:1726  msg.sender == superAdminAddress */\n      0xffffffffffffffffffffffffffffffffffffffff\n      and\n      eq\n        /* \"LandRegistration.sol\":1687:1727  require(msg.sender == superAdminAddress) */\n      tag_373\n      jumpi\n      0x00\n      dup1\n      revert\n    tag_373:\n        /* \"LandRegistration.sol\":2834:2839  false */\n      0x00\n        /* \"LandRegistration.sol\":2804:2810  admins */\n      0x02\n        /* \"LandRegistration.sol\":2804:2824  admins[adminAddress] */\n      0x00\n        /* \"LandRegistration.sol\":2811:2823  adminAddress */\n      dup4\n        /* \"LandRegistration.sol\":2804:2824  admins[adminAddress] */\n      0xffffffffffffffffffffffffffffffffffffffff\n      and\n      0xffffffffffffffffffffffffffffffffffffffff\n      and\n      dup2\n      mstore\n      0x20\n      add\n      swap1\n      dup2\n      mstore\n      0x20\n      add\n      0x00\n      keccak256\n        /* \"LandRegistration.sol\":2804:2831  admins[adminAddress].active */\n      0x04\n      add\n      0x00\n        /* \"LandRegistration.sol\":2804:2839  admins[adminAddress].active = false */\n      0x0100\n      exp\n      dup2\n      sload\n      dup2\n      0xff\n      mul\n      not\n      and\n      swap1\n      dup4\n      iszero\n      iszero\n      mul\n      or\n      swap1\n      sstore\n      pop\n        /* \"LandRegistration.sol\":2719:2846  function deactivateAdmin(address adminAddress) public restrictToSuperAdmin {... */\n      pop\n      jump\t// out\n        /* \"LandRegistration.sol\":6572:6784  function cancelBuyinRequest(string memory _landId) public {... */\n    tag_150:\n        /* \"LandRegistration.sol\":6640:6663  Land storage landToEdit */\n      0x00\n        /* \"LandRegistration.sol\":6666:6671  lands */\n      0x08\n        /* \"LandRegistration.sol\":6672:6679  _landId */\n      dup3\n        /* \"LandRegistration.sol\":6666:6680  lands[_landId] */\n      mload(0x40)\n      tag_376\n      swap2\n      swap1\n      tag_153\n      jump\t// in\n    tag_376:\n      swap1\n      dup2\n      mstore\n      0x20\n      add\n      mload(0x40)\n      dup1\n      swap2\n      sub\n      swap1\n      keccak256\n        /* \"LandRegistration.sol\":6640:6680  Land storage landToEdit = lands[_landId] */\n      swap1\n      pop\n        /* \"LandRegistration.sol\":6720:6725  false */\n      0x00\n        /* \"LandRegistration.sol\":6690:6700  landToEdit */\n      dup2\n        /* \"LandRegistration.sol\":6690:6717  landToEdit.requestedForSale */\n      0x05\n      add\n      0x01\n        /* \"LandRegistration.sol\":6690:6725  landToEdit.requestedForSale = false */\n      0x0100\n      exp\n      dup2\n      sload\n      dup2\n      0xff\n      mul\n      not\n      and\n      swap1\n      dup4\n      iszero\n      iszero\n      mul\n      or\n      swap1\n      sstore\n      pop\n        /* \"LandRegistration.sol\":6775:6776  0 */\n      0x00\n        /* \"LandRegistration.sol\":6735:6745  landToEdit */\n      dup2\n        /* \"LandRegistration.sol\":6735:6764  landToEdit.requestedByAddress */\n      0x05\n      add\n      0x02\n        /* \"LandRegistration.sol\":6735:6777  landToEdit.requestedByAddress = address(0) */\n      0x0100\n      exp\n      dup2\n      sload\n      dup2\n      0xffffffffffffffffffffffffffffffffffffffff\n      mul\n      not\n      and\n      swap1\n      dup4\n      0xffffffffffffffffffffffffffffffffffffffff\n      and\n      mul\n      or\n      swap1\n      sstore\n      pop\n        /* \"LandRegistration.sol\":6630:6784  {... */\n      pop\n        /* \"LandRegistration.sol\":6572:6784  function cancelBuyinRequest(string memory _landId) public {... */\n      pop\n      jump\t// out\n        /* \"LandRegistration.sol\":1495:1637  function equal(string memory a, string memory b) private pure returns(bool) {... */\n    tag_352:\n        /* \"LandRegistration.sol\":1565:1569  bool */\n      0x00\n        /* \"LandRegistration.sol\":1627:1628  b */\n      dup2\n        /* \"LandRegistration.sol\":1611:1630  keccak256(bytes(b)) */\n      dup1\n      mload\n      swap1\n      0x20\n      add\n      keccak256\n        /* \"LandRegistration.sol\":1604:1605  a */\n      dup4\n        /* \"LandRegistration.sol\":1588:1607  keccak256(bytes(a)) */\n      dup1\n      mload\n      swap1\n      0x20\n      add\n      keccak256\n        /* \"LandRegistration.sol\":1588:1630  keccak256(bytes(a)) == keccak256(bytes(b)) */\n      eq\n        /* \"LandRegistration.sol\":1581:1630  return keccak256(bytes(a)) == keccak256(bytes(b)) */\n      swap1\n      pop\n        /* \"LandRegistration.sol\":1495:1637  function equal(string memory a, string memory b) private pure returns(bool) {... */\n      swap3\n      swap2\n      pop\n      pop\n      jump\t// out\n    tag_160:\n      dup3\n      dup1\n      sload\n      tag_378\n      swap1\n      tag_170\n      jump\t// in\n    tag_378:\n      swap1\n      0x00\n      mstore\n      keccak256(0x00, 0x20)\n      swap1\n      0x1f\n      add\n      0x20\n      swap1\n      div\n      dup2\n      add\n      swap3\n      dup3\n      tag_380\n      jumpi\n      0x00\n      dup6\n      sstore\n      jump(tag_379)\n    tag_380:\n      dup3\n      0x1f\n      lt\n      tag_381\n      jumpi\n      dup1\n      mload\n      not(0xff)\n      and\n      dup4\n      dup1\n      add\n      or\n      dup6\n      sstore\n      jump(tag_379)\n    tag_381:\n      dup3\n      dup1\n      add\n      0x01\n      add\n      dup6\n      sstore\n      dup3\n      iszero\n      tag_379\n      jumpi\n      swap2\n      dup3\n      add\n    tag_382:\n      dup3\n      dup2\n      gt\n      iszero\n      tag_383\n      jumpi\n      dup3\n      mload\n      dup3\n      sstore\n      swap2\n      0x20\n      add\n      swap2\n      swap1\n      0x01\n      add\n      swap1\n      jump(tag_382)\n    tag_383:\n    tag_379:\n      pop\n      swap1\n      pop\n      tag_384\n      swap2\n      swap1\n      tag_385\n      jump\t// in\n    tag_384:\n      pop\n      swap1\n      jump\t// out\n    tag_227:\n      mload(0x40)\n      dup1\n      0xa0\n      add\n      0x40\n      mstore\n      dup1\n      0x60\n      dup2\n      mstore\n      0x20\n      add\n      0x60\n      dup2\n      mstore\n      0x20\n      add\n      and(0xffffffffffffffffffffffffffffffffffffffff, 0x00)\n      dup2\n      mstore\n      0x20\n      add\n      0x60\n      dup2\n      mstore\n      0x20\n      add\n      iszero(iszero(0x00))\n      dup2\n      mstore\n      pop\n      swap1\n      jump\t// out\n    tag_264:\n      dup3\n      dup1\n      sload\n      tag_386\n      swap1\n      tag_170\n      jump\t// in\n    tag_386:\n      swap1\n      0x00\n      mstore\n      keccak256(0x00, 0x20)\n      swap1\n      0x1f\n      add\n      0x20\n      swap1\n      div\n      dup2\n      add\n      swap3\n      dup3\n      tag_388\n      jumpi\n      0x00\n      dup6\n      sstore\n      jump(tag_387)\n    tag_388:\n      dup3\n      0x1f\n      lt\n      tag_389\n      jumpi\n      dup1\n      sload\n      dup6\n      sstore\n      jump(tag_387)\n    tag_389:\n      dup3\n      dup1\n      add\n      0x01\n      add\n      dup6\n      sstore\n      dup3\n      iszero\n      tag_387\n      jumpi\n      0x00\n      mstore\n      keccak256(0x00, 0x20)\n      swap2\n      0x1f\n      add\n      0x20\n      swap1\n      div\n      dup3\n      add\n    tag_390:\n      dup3\n      dup2\n      gt\n      iszero\n      tag_391\n      jumpi\n      dup3\n      sload\n      dup3\n      sstore\n      swap2\n      0x01\n      add\n      swap2\n      swap1\n      0x01\n      add\n      swap1\n      jump(tag_390)\n    tag_391:\n    tag_387:\n      pop\n      swap1\n      pop\n      tag_392\n      swap2\n      swap1\n      tag_385\n      jump\t// in\n    tag_392:\n      pop\n      swap1\n      jump\t// out\n    tag_385:\n    tag_393:\n      dup1\n      dup3\n      gt\n      iszero\n      tag_394\n      jumpi\n      0x00\n      dup2\n      0x00\n      swap1\n      sstore\n      pop\n      0x01\n      add\n      jump(tag_393)\n    tag_394:\n      pop\n      swap1\n      jump\t// out\n        /* \"#utility.yul\":7:133   */\n    tag_395:\n        /* \"#utility.yul\":44:51   */\n      0x00\n        /* \"#utility.yul\":84:126   */\n      0xffffffffffffffffffffffffffffffffffffffff\n        /* \"#utility.yul\":77:82   */\n      dup3\n        /* \"#utility.yul\":73:127   */\n      and\n        /* \"#utility.yul\":62:127   */\n      swap1\n      pop\n        /* \"#utility.yul\":7:133   */\n      swap2\n      swap1\n      pop\n      jump\t// out\n        /* \"#utility.yul\":139:235   */\n    tag_396:\n        /* \"#utility.yul\":176:183   */\n      0x00\n        /* \"#utility.yul\":205:229   */\n      tag_447\n        /* \"#utility.yul\":223:228   */\n      dup3\n        /* \"#utility.yul\":205:229   */\n      tag_395\n      jump\t// in\n    tag_447:\n        /* \"#utility.yul\":194:229   */\n      swap1\n      pop\n        /* \"#utility.yul\":139:235   */\n      swap2\n      swap1\n      pop\n      jump\t// out\n        /* \"#utility.yul\":241:359   */\n    tag_397:\n        /* \"#utility.yul\":328:352   */\n      tag_449\n        /* \"#utility.yul\":346:351   */\n      dup2\n        /* \"#utility.yul\":328:352   */\n      tag_396\n      jump\t// in\n    tag_449:\n        /* \"#utility.yul\":323:326   */\n      dup3\n        /* \"#utility.yul\":316:353   */\n      mstore\n        /* \"#utility.yul\":241:359   */\n      pop\n      pop\n      jump\t// out\n        /* \"#utility.yul\":365:587   */\n    tag_42:\n        /* \"#utility.yul\":458:462   */\n      0x00\n        /* \"#utility.yul\":496:498   */\n      0x20\n        /* \"#utility.yul\":485:494   */\n      dup3\n        /* \"#utility.yul\":481:499   */\n      add\n        /* \"#utility.yul\":473:499   */\n      swap1\n      pop\n        /* \"#utility.yul\":509:580   */\n      tag_451\n        /* \"#utility.yul\":577:578   */\n      0x00\n        /* \"#utility.yul\":566:575   */\n      dup4\n        /* \"#utility.yul\":562:579   */\n      add\n        /* \"#utility.yul\":553:559   */\n      dup5\n        /* \"#utility.yul\":509:580   */\n      tag_397\n      jump\t// in\n    tag_451:\n        /* \"#utility.yul\":365:587   */\n      swap3\n      swap2\n      pop\n      pop\n      jump\t// out\n        /* \"#utility.yul\":593:668   */\n    tag_398:\n        /* \"#utility.yul\":626:632   */\n      0x00\n        /* \"#utility.yul\":659:661   */\n      0x40\n        /* \"#utility.yul\":653:662   */\n      mload\n        /* \"#utility.yul\":643:662   */\n      swap1\n      pop\n        /* \"#utility.yul\":593:668   */\n      swap1\n      jump\t// out\n        /* \"#utility.yul\":674:791   */\n    tag_399:\n        /* \"#utility.yul\":783:784   */\n      0x00\n        /* \"#utility.yul\":780:781   */\n      dup1\n        /* \"#utility.yul\":773:785   */\n      revert\n        /* \"#utility.yul\":797:914   */\n    tag_400:\n        /* \"#utility.yul\":906:907   */\n      0x00\n        /* \"#utility.yul\":903:904   */\n      dup1\n        /* \"#utility.yul\":896:908   */\n      revert\n        /* \"#utility.yul\":920:1037   */\n    tag_401:\n        /* \"#utility.yul\":1029:1030   */\n      0x00\n        /* \"#utility.yul\":1026:1027   */\n      dup1\n        /* \"#utility.yul\":1019:1031   */\n      revert\n        /* \"#utility.yul\":1043:1160   */\n    tag_402:\n        /* \"#utility.yul\":1152:1153   */\n      0x00\n        /* \"#utility.yul\":1149:1150   */\n      dup1\n        /* \"#utility.yul\":1142:1154   */\n      revert\n        /* \"#utility.yul\":1166:1268   */\n    tag_403:\n        /* \"#utility.yul\":1207:1213   */\n      0x00\n        /* \"#utility.yul\":1258:1260   */\n      0x1f\n        /* \"#utility.yul\":1254:1261   */\n      not\n        /* \"#utility.yul\":1249:1251   */\n      0x1f\n        /* \"#utility.yul\":1242:1247   */\n      dup4\n        /* \"#utility.yul\":1238:1252   */\n      add\n        /* \"#utility.yul\":1234:1262   */\n      and\n        /* \"#utility.yul\":1224:1262   */\n      swap1\n      pop\n        /* \"#utility.yul\":1166:1268   */\n      swap2\n      swap1\n      pop\n      jump\t// out\n        /* \"#utility.yul\":1274:1454   */\n    tag_404:\n        /* \"#utility.yul\":1322:1399   */\n      0x4e487b7100000000000000000000000000000000000000000000000000000000\n        /* \"#utility.yul\":1319:1320   */\n      0x00\n        /* \"#utility.yul\":1312:1400   */\n      mstore\n        /* \"#utility.yul\":1419:1423   */\n      0x41\n        /* \"#utility.yul\":1416:1417   */\n      0x04\n        /* \"#utility.yul\":1409:1424   */\n      mstore\n        /* \"#utility.yul\":1443:1447   */\n      0x24\n        /* \"#utility.yul\":1440:1441   */\n      0x00\n        /* \"#utility.yul\":1433:1448   */\n      revert\n        /* \"#utility.yul\":1460:1741   */\n    tag_405:\n        /* \"#utility.yul\":1543:1570   */\n      tag_460\n        /* \"#utility.yul\":1565:1569   */\n      dup3\n        /* \"#utility.yul\":1543:1570   */\n      tag_403\n      jump\t// in\n    tag_460:\n        /* \"#utility.yul\":1535:1541   */\n      dup2\n        /* \"#utility.yul\":1531:1571   */\n      add\n        /* \"#utility.yul\":1673:1679   */\n      dup2\n        /* \"#utility.yul\":1661:1671   */\n      dup2\n        /* \"#utility.yul\":1658:1680   */\n      lt\n        /* \"#utility.yul\":1637:1655   */\n      0xffffffffffffffff\n        /* \"#utility.yul\":1625:1635   */\n      dup3\n        /* \"#utility.yul\":1622:1656   */\n      gt\n        /* \"#utility.yul\":1619:1681   */\n      or\n        /* \"#utility.yul\":1616:1704   */\n      iszero\n      tag_461\n      jumpi\n        /* \"#utility.yul\":1684:1702   */\n      tag_462\n      tag_404\n      jump\t// in\n    tag_462:\n        /* \"#utility.yul\":1616:1704   */\n    tag_461:\n        /* \"#utility.yul\":1724:1734   */\n      dup1\n        /* \"#utility.yul\":1720:1722   */\n      0x40\n        /* \"#utility.yul\":1713:1735   */\n      mstore\n        /* \"#utility.yul\":1503:1741   */\n      pop\n        /* \"#utility.yul\":1460:1741   */\n      pop\n      pop\n      jump\t// out\n        /* \"#utility.yul\":1747:1876   */\n    tag_406:\n        /* \"#utility.yul\":1781:1787   */\n      0x00\n        /* \"#utility.yul\":1808:1828   */\n      tag_464\n      tag_398\n      jump\t// in\n    tag_464:\n        /* \"#utility.yul\":1798:1828   */\n      swap1\n      pop\n        /* \"#utility.yul\":1837:1870   */\n      tag_465\n        /* \"#utility.yul\":1865:1869   */\n      dup3\n        /* \"#utility.yul\":1857:1863   */\n      dup3\n        /* \"#utility.yul\":1837:1870   */\n      tag_405\n      jump\t// in\n    tag_465:\n        /* \"#utility.yul\":1747:1876   */\n      swap2\n      swap1\n      pop\n      jump\t// out\n        /* \"#utility.yul\":1882:2190   */\n    tag_407:\n        /* \"#utility.yul\":1944:1948   */\n      0x00\n        /* \"#utility.yul\":2034:2052   */\n      0xffffffffffffffff\n        /* \"#utility.yul\":2026:2032   */\n      dup3\n        /* \"#utility.yul\":2023:2053   */\n      gt\n        /* \"#utility.yul\":2020:2076   */\n      iszero\n      tag_467\n      jumpi\n        /* \"#utility.yul\":2056:2074   */\n      tag_468\n      tag_404\n      jump\t// in\n    tag_468:\n        /* \"#utility.yul\":2020:2076   */\n    tag_467:\n        /* \"#utility.yul\":2094:2123   */\n      tag_469\n        /* \"#utility.yul\":2116:2122   */\n      dup3\n        /* \"#utility.yul\":2094:2123   */\n      tag_403\n      jump\t// in\n    tag_469:\n        /* \"#utility.yul\":2086:2123   */\n      swap1\n      pop\n        /* \"#utility.yul\":2178:2182   */\n      0x20\n        /* \"#utility.yul\":2172:2176   */\n      dup2\n        /* \"#utility.yul\":2168:2183   */\n      add\n        /* \"#utility.yul\":2160:2183   */\n      swap1\n      pop\n        /* \"#utility.yul\":1882:2190   */\n      swap2\n      swap1\n      pop\n      jump\t// out\n        /* \"#utility.yul\":2196:2350   */\n    tag_408:\n        /* \"#utility.yul\":2280:2286   */\n      dup3\n        /* \"#utility.yul\":2275:2278   */\n      dup2\n        /* \"#utility.yul\":2270:2273   */\n      dup4\n        /* \"#utility.yul\":2257:2287   */\n      calldatacopy\n        /* \"#utility.yul\":2342:2343   */\n      0x00\n        /* \"#utility.yul\":2333:2339   */\n      dup4\n        /* \"#utility.yul\":2328:2331   */\n      dup4\n        /* \"#utility.yul\":2324:2340   */\n      add\n        /* \"#utility.yul\":2317:2344   */\n      mstore\n        /* \"#utility.yul\":2196:2350   */\n      pop\n      pop\n      pop\n      jump\t// out\n        /* \"#utility.yul\":2356:2768   */\n    tag_409:\n        /* \"#utility.yul\":2434:2439   */\n      0x00\n        /* \"#utility.yul\":2459:2525   */\n      tag_472\n        /* \"#utility.yul\":2475:2524   */\n      tag_473\n        /* \"#utility.yul\":2517:2523   */\n      dup5\n        /* \"#utility.yul\":2475:2524   */\n      tag_407\n      jump\t// in\n    tag_473:\n        /* \"#utility.yul\":2459:2525   */\n      tag_406\n      jump\t// in\n    tag_472:\n        /* \"#utility.yul\":2450:2525   */\n      swap1\n      pop\n        /* \"#utility.yul\":2548:2554   */\n      dup3\n        /* \"#utility.yul\":2541:2546   */\n      dup2\n        /* \"#utility.yul\":2534:2555   */\n      mstore\n        /* \"#utility.yul\":2586:2590   */\n      0x20\n        /* \"#utility.yul\":2579:2584   */\n      dup2\n        /* \"#utility.yul\":2575:2591   */\n      add\n        /* \"#utility.yul\":2624:2627   */\n      dup5\n        /* \"#utility.yul\":2615:2621   */\n      dup5\n        /* \"#utility.yul\":2610:2613   */\n      dup5\n        /* \"#utility.yul\":2606:2622   */\n      add\n        /* \"#utility.yul\":2603:2628   */\n      gt\n        /* \"#utility.yul\":2600:2712   */\n      iszero\n      tag_474\n      jumpi\n        /* \"#utility.yul\":2631:2710   */\n      tag_475\n      tag_402\n      jump\t// in\n    tag_475:\n        /* \"#utility.yul\":2600:2712   */\n    tag_474:\n        /* \"#utility.yul\":2721:2762   */\n      tag_476\n        /* \"#utility.yul\":2755:2761   */\n      dup5\n        /* \"#utility.yul\":2750:2753   */\n      dup3\n        /* \"#utility.yul\":2745:2748   */\n      dup6\n        /* \"#utility.yul\":2721:2762   */\n      tag_408\n      jump\t// in\n    tag_476:\n        /* \"#utility.yul\":2440:2768   */\n      pop\n        /* \"#utility.yul\":2356:2768   */\n      swap4\n      swap3\n      pop\n      pop\n      pop\n      jump\t// out\n        /* \"#utility.yul\":2788:3128   */\n    tag_410:\n        /* \"#utility.yul\":2844:2849   */\n      0x00\n        /* \"#utility.yul\":2893:2896   */\n      dup3\n        /* \"#utility.yul\":2886:2890   */\n      0x1f\n        /* \"#utility.yul\":2878:2884   */\n      dup4\n        /* \"#utility.yul\":2874:2891   */\n      add\n        /* \"#utility.yul\":2870:2897   */\n      slt\n        /* \"#utility.yul\":2860:2982   */\n      tag_478\n      jumpi\n        /* \"#utility.yul\":2901:2980   */\n      tag_479\n      tag_401\n      jump\t// in\n    tag_479:\n        /* \"#utility.yul\":2860:2982   */\n    tag_478:\n        /* \"#utility.yul\":3018:3024   */\n      dup2\n        /* \"#utility.yul\":3005:3025   */\n      calldataload\n        /* \"#utility.yul\":3043:3122   */\n      tag_480\n        /* \"#utility.yul\":3118:3121   */\n      dup5\n        /* \"#utility.yul\":3110:3116   */\n      dup3\n        /* \"#utility.yul\":3103:3107   */\n      0x20\n        /* \"#utility.yul\":3095:3101   */\n      dup7\n        /* \"#utility.yul\":3091:3108   */\n      add\n        /* \"#utility.yul\":3043:3122   */\n      tag_409\n      jump\t// in\n    tag_480:\n        /* \"#utility.yul\":3034:3122   */\n      swap2\n      pop\n        /* \"#utility.yul\":2850:3128   */\n      pop\n        /* \"#utility.yul\":2788:3128   */\n      swap3\n      swap2\n      pop\n      pop\n      jump\t// out\n        /* \"#utility.yul\":3134:3643   */\n    tag_45:\n        /* \"#utility.yul\":3203:3209   */\n      0x00\n        /* \"#utility.yul\":3252:3254   */\n      0x20\n        /* \"#utility.yul\":3240:3249   */\n      dup3\n        /* \"#utility.yul\":3231:3238   */\n      dup5\n        /* \"#utility.yul\":3227:3250   */\n      sub\n        /* \"#utility.yul\":3223:3255   */\n      slt\n        /* \"#utility.yul\":3220:3339   */\n      iszero\n      tag_482\n      jumpi\n        /* \"#utility.yul\":3258:3337   */\n      tag_483\n      tag_399\n      jump\t// in\n    tag_483:\n        /* \"#utility.yul\":3220:3339   */\n    tag_482:\n        /* \"#utility.yul\":3406:3407   */\n      0x00\n        /* \"#utility.yul\":3395:3404   */\n      dup3\n        /* \"#utility.yul\":3391:3408   */\n      add\n        /* \"#utility.yul\":3378:3409   */\n      calldataload\n        /* \"#utility.yul\":3436:3454   */\n      0xffffffffffffffff\n        /* \"#utility.yul\":3428:3434   */\n      dup2\n        /* \"#utility.yul\":3425:3455   */\n      gt\n        /* \"#utility.yul\":3422:3539   */\n      iszero\n      tag_484\n      jumpi\n        /* \"#utility.yul\":3458:3537   */\n      tag_485\n      tag_400\n      jump\t// in\n    tag_485:\n        /* \"#utility.yul\":3422:3539   */\n    tag_484:\n        /* \"#utility.yul\":3563:3626   */\n      tag_486\n        /* \"#utility.yul\":3618:3625   */\n      dup5\n        /* \"#utility.yul\":3609:3615   */\n      dup3\n        /* \"#utility.yul\":3598:3607   */\n      dup6\n        /* \"#utility.yul\":3594:3616   */\n      add\n        /* \"#utility.yul\":3563:3626   */\n      tag_410\n      jump\t// in\n    tag_486:\n        /* \"#utility.yul\":3553:3626   */\n      swap2\n      pop\n        /* \"#utility.yul\":3349:3636   */\n      pop\n        /* \"#utility.yul\":3134:3643   */\n      swap3\n      swap2\n      pop\n      pop\n      jump\t// out\n        /* \"#utility.yul\":3649:3726   */\n    tag_411:\n        /* \"#utility.yul\":3686:3693   */\n      0x00\n        /* \"#utility.yul\":3715:3720   */\n      dup2\n        /* \"#utility.yul\":3704:3720   */\n      swap1\n      pop\n        /* \"#utility.yul\":3649:3726   */\n      swap2\n      swap1\n      pop\n      jump\t// out\n        /* \"#utility.yul\":3732:3854   */\n    tag_412:\n        /* \"#utility.yul\":3805:3829   */\n      tag_489\n        /* \"#utility.yul\":3823:3828   */\n      dup2\n        /* \"#utility.yul\":3805:3829   */\n      tag_411\n      jump\t// in\n    tag_489:\n        /* \"#utility.yul\":3798:3803   */\n      dup2\n        /* \"#utility.yul\":3795:3830   */\n      eq\n        /* \"#utility.yul\":3785:3848   */\n      tag_490\n      jumpi\n        /* \"#utility.yul\":3844:3845   */\n      0x00\n        /* \"#utility.yul\":3841:3842   */\n      dup1\n        /* \"#utility.yul\":3834:3846   */\n      revert\n        /* \"#utility.yul\":3785:3848   */\n    tag_490:\n        /* \"#utility.yul\":3732:3854   */\n      pop\n      jump\t// out\n        /* \"#utility.yul\":3860:3999   */\n    tag_413:\n        /* \"#utility.yul\":3906:3911   */\n      0x00\n        /* \"#utility.yul\":3944:3950   */\n      dup2\n        /* \"#utility.yul\":3931:3951   */\n      calldataload\n        /* \"#utility.yul\":3922:3951   */\n      swap1\n      pop\n        /* \"#utility.yul\":3960:3993   */\n      tag_492\n        /* \"#utility.yul\":3987:3992   */\n      dup2\n        /* \"#utility.yul\":3960:3993   */\n      tag_412\n      jump\t// in\n    tag_492:\n        /* \"#utility.yul\":3860:3999   */\n      swap3\n      swap2\n      pop\n      pop\n      jump\t// out\n        /* \"#utility.yul\":4005:4334   */\n    tag_49:\n        /* \"#utility.yul\":4064:4070   */\n      0x00\n        /* \"#utility.yul\":4113:4115   */\n      0x20\n        /* \"#utility.yul\":4101:4110   */\n      dup3\n        /* \"#utility.yul\":4092:4099   */\n      dup5\n        /* \"#utility.yul\":4088:4111   */\n      sub\n        /* \"#utility.yul\":4084:4116   */\n      slt\n        /* \"#utility.yul\":4081:4200   */\n      iszero\n      tag_494\n      jumpi\n        /* \"#utility.yul\":4119:4198   */\n      tag_495\n      tag_399\n      jump\t// in\n    tag_495:\n        /* \"#utility.yul\":4081:4200   */\n    tag_494:\n        /* \"#utility.yul\":4239:4240   */\n      0x00\n        /* \"#utility.yul\":4264:4317   */\n      tag_496\n        /* \"#utility.yul\":4309:4316   */\n      dup5\n        /* \"#utility.yul\":4300:4306   */\n      dup3\n        /* \"#utility.yul\":4289:4298   */\n      dup6\n        /* \"#utility.yul\":4285:4307   */\n      add\n        /* \"#utility.yul\":4264:4317   */\n      tag_413\n      jump\t// in\n    tag_496:\n        /* \"#utility.yul\":4254:4317   */\n      swap2\n      pop\n        /* \"#utility.yul\":4210:4327   */\n      pop\n        /* \"#utility.yul\":4005:4334   */\n      swap3\n      swap2\n      pop\n      pop\n      jump\t// out\n        /* \"#utility.yul\":4340:4462   */\n    tag_414:\n        /* \"#utility.yul\":4413:4437   */\n      tag_498\n        /* \"#utility.yul\":4431:4436   */\n      dup2\n        /* \"#utility.yul\":4413:4437   */\n      tag_396\n      jump\t// in\n    tag_498:\n        /* \"#utility.yul\":4406:4411   */\n      dup2\n        /* \"#utility.yul\":4403:4438   */\n      eq\n        /* \"#utility.yul\":4393:4456   */\n      tag_499\n      jumpi\n        /* \"#utility.yul\":4452:4453   */\n      0x00\n        /* \"#utility.yul\":4449:4450   */\n      dup1\n        /* \"#utility.yul\":4442:4454   */\n      revert\n        /* \"#utility.yul\":4393:4456   */\n    tag_499:\n        /* \"#utility.yul\":4340:4462   */\n      pop\n      jump\t// out\n        /* \"#utility.yul\":4468:4607   */\n    tag_415:\n        /* \"#utility.yul\":4514:4519   */\n      0x00\n        /* \"#utility.yul\":4552:4558   */\n      dup2\n        /* \"#utility.yul\":4539:4559   */\n      calldataload\n        /* \"#utility.yul\":4530:4559   */\n      swap1\n      pop\n        /* \"#utility.yul\":4568:4601   */\n      tag_501\n        /* \"#utility.yul\":4595:4600   */\n      dup2\n        /* \"#utility.yul\":4568:4601   */\n      tag_414\n      jump\t// in\n    tag_501:\n        /* \"#utility.yul\":4468:4607   */\n      swap3\n      swap2\n      pop\n      pop\n      jump\t// out\n        /* \"#utility.yul\":4613:5918   */\n    tag_54:\n        /* \"#utility.yul\":4729:4735   */\n      0x00\n        /* \"#utility.yul\":4737:4743   */\n      dup1\n        /* \"#utility.yul\":4745:4751   */\n      0x00\n        /* \"#utility.yul\":4753:4759   */\n      dup1\n        /* \"#utility.yul\":4802:4805   */\n      0x80\n        /* \"#utility.yul\":4790:4799   */\n      dup6\n        /* \"#utility.yul\":4781:4788   */\n      dup8\n        /* \"#utility.yul\":4777:4800   */\n      sub\n        /* \"#utility.yul\":4773:4806   */\n      slt\n        /* \"#utility.yul\":4770:4890   */\n      iszero\n      tag_503\n      jumpi\n        /* \"#utility.yul\":4809:4888   */\n      tag_504\n      tag_399\n      jump\t// in\n    tag_504:\n        /* \"#utility.yul\":4770:4890   */\n    tag_503:\n        /* \"#utility.yul\":4957:4958   */\n      0x00\n        /* \"#utility.yul\":4946:4955   */\n      dup6\n        /* \"#utility.yul\":4942:4959   */\n      add\n        /* \"#utility.yul\":4929:4960   */\n      calldataload\n        /* \"#utility.yul\":4987:5005   */\n      0xffffffffffffffff\n        /* \"#utility.yul\":4979:4985   */\n      dup2\n        /* \"#utility.yul\":4976:5006   */\n      gt\n        /* \"#utility.yul\":4973:5090   */\n      iszero\n      tag_505\n      jumpi\n        /* \"#utility.yul\":5009:5088   */\n      tag_506\n      tag_400\n      jump\t// in\n    tag_506:\n        /* \"#utility.yul\":4973:5090   */\n    tag_505:\n        /* \"#utility.yul\":5114:5177   */\n      tag_507\n        /* \"#utility.yul\":5169:5176   */\n      dup8\n        /* \"#utility.yul\":5160:5166   */\n      dup3\n        /* \"#utility.yul\":5149:5158   */\n      dup9\n        /* \"#utility.yul\":5145:5167   */\n      add\n        /* \"#utility.yul\":5114:5177   */\n      tag_410\n      jump\t// in\n    tag_507:\n        /* \"#utility.yul\":5104:5177   */\n      swap5\n      pop\n        /* \"#utility.yul\":4900:5187   */\n      pop\n        /* \"#utility.yul\":5254:5256   */\n      0x20\n        /* \"#utility.yul\":5243:5252   */\n      dup6\n        /* \"#utility.yul\":5239:5257   */\n      add\n        /* \"#utility.yul\":5226:5258   */\n      calldataload\n        /* \"#utility.yul\":5285:5303   */\n      0xffffffffffffffff\n        /* \"#utility.yul\":5277:5283   */\n      dup2\n        /* \"#utility.yul\":5274:5304   */\n      gt\n        /* \"#utility.yul\":5271:5388   */\n      iszero\n      tag_508\n      jumpi\n        /* \"#utility.yul\":5307:5386   */\n      tag_509\n      tag_400\n      jump\t// in\n    tag_509:\n        /* \"#utility.yul\":5271:5388   */\n    tag_508:\n        /* \"#utility.yul\":5412:5475   */\n      tag_510\n        /* \"#utility.yul\":5467:5474   */\n      dup8\n        /* \"#utility.yul\":5458:5464   */\n      dup3\n        /* \"#utility.yul\":5447:5456   */\n      dup9\n        /* \"#utility.yul\":5443:5465   */\n      add\n        /* \"#utility.yul\":5412:5475   */\n      tag_410\n      jump\t// in\n    tag_510:\n        /* \"#utility.yul\":5402:5475   */\n      swap4\n      pop\n        /* \"#utility.yul\":5197:5485   */\n      pop\n        /* \"#utility.yul\":5552:5554   */\n      0x40\n        /* \"#utility.yul\":5541:5550   */\n      dup6\n        /* \"#utility.yul\":5537:5555   */\n      add\n        /* \"#utility.yul\":5524:5556   */\n      calldataload\n        /* \"#utility.yul\":5583:5601   */\n      0xffffffffffffffff\n        /* \"#utility.yul\":5575:5581   */\n      dup2\n        /* \"#utility.yul\":5572:5602   */\n      gt\n        /* \"#utility.yul\":5569:5686   */\n      iszero\n      tag_511\n      jumpi\n        /* \"#utility.yul\":5605:5684   */\n      tag_512\n      tag_400\n      jump\t// in\n    tag_512:\n        /* \"#utility.yul\":5569:5686   */\n    tag_511:\n        /* \"#utility.yul\":5710:5773   */\n      tag_513\n        /* \"#utility.yul\":5765:5772   */\n      dup8\n        /* \"#utility.yul\":5756:5762   */\n      dup3\n        /* \"#utility.yul\":5745:5754   */\n      dup9\n        /* \"#utility.yul\":5741:5763   */\n      add\n        /* \"#utility.yul\":5710:5773   */\n      tag_410\n      jump\t// in\n    tag_513:\n        /* \"#utility.yul\":5700:5773   */\n      swap3\n      pop\n        /* \"#utility.yul\":5495:5783   */\n      pop\n        /* \"#utility.yul\":5822:5824   */\n      0x60\n        /* \"#utility.yul\":5848:5901   */\n      tag_514\n        /* \"#utility.yul\":5893:5900   */\n      dup8\n        /* \"#utility.yul\":5884:5890   */\n      dup3\n        /* \"#utility.yul\":5873:5882   */\n      dup9\n        /* \"#utility.yul\":5869:5891   */\n      add\n        /* \"#utility.yul\":5848:5901   */\n      tag_415\n      jump\t// in\n    tag_514:\n        /* \"#utility.yul\":5838:5901   */\n      swap2\n      pop\n        /* \"#utility.yul\":5793:5911   */\n      pop\n        /* \"#utility.yul\":4613:5918   */\n      swap3\n      swap6\n      swap2\n      swap5\n      pop\n      swap3\n      pop\n      jump\t// out\n        /* \"#utility.yul\":5924:6048   */\n    tag_416:\n        /* \"#utility.yul\":6001:6007   */\n      0x00\n        /* \"#utility.yul\":6035:6040   */\n      dup2\n        /* \"#utility.yul\":6029:6041   */\n      mload\n        /* \"#utility.yul\":6019:6041   */\n      swap1\n      pop\n        /* \"#utility.yul\":5924:6048   */\n      swap2\n      swap1\n      pop\n      jump\t// out\n        /* \"#utility.yul\":6054:6248   */\n    tag_417:\n        /* \"#utility.yul\":6163:6174   */\n      0x00\n        /* \"#utility.yul\":6197:6203   */\n      dup3\n        /* \"#utility.yul\":6192:6195   */\n      dup3\n        /* \"#utility.yul\":6185:6204   */\n      mstore\n        /* \"#utility.yul\":6237:6241   */\n      0x20\n        /* \"#utility.yul\":6232:6235   */\n      dup3\n        /* \"#utility.yul\":6228:6242   */\n      add\n        /* \"#utility.yul\":6213:6242   */\n      swap1\n      pop\n        /* \"#utility.yul\":6054:6248   */\n      swap3\n      swap2\n      pop\n      pop\n      jump\t// out\n        /* \"#utility.yul\":6254:6396   */\n    tag_418:\n        /* \"#utility.yul\":6331:6335   */\n      0x00\n        /* \"#utility.yul\":6354:6357   */\n      dup2\n        /* \"#utility.yul\":6346:6357   */\n      swap1\n      pop\n        /* \"#utility.yul\":6384:6388   */\n      0x20\n        /* \"#utility.yul\":6379:6382   */\n      dup3\n        /* \"#utility.yul\":6375:6389   */\n      add\n        /* \"#utility.yul\":6367:6389   */\n      swap1\n      pop\n        /* \"#utility.yul\":6254:6396   */\n      swap2\n      swap1\n      pop\n      jump\t// out\n        /* \"#utility.yul\":6402:6501   */\n    tag_419:\n        /* \"#utility.yul\":6454:6460   */\n      0x00\n        /* \"#utility.yul\":6488:6493   */\n      dup2\n        /* \"#utility.yul\":6482:6494   */\n      mload\n        /* \"#utility.yul\":6472:6494   */\n      swap1\n      pop\n        /* \"#utility.yul\":6402:6501   */\n      swap2\n      swap1\n      pop\n      jump\t// out\n        /* \"#utility.yul\":6507:6666   */\n    tag_420:\n        /* \"#utility.yul\":6581:6592   */\n      0x00\n        /* \"#utility.yul\":6615:6621   */\n      dup3\n        /* \"#utility.yul\":6610:6613   */\n      dup3\n        /* \"#utility.yul\":6603:6622   */\n      mstore\n        /* \"#utility.yul\":6655:6659   */\n      0x20\n        /* \"#utility.yul\":6650:6653   */\n      dup3\n        /* \"#utility.yul\":6646:6660   */\n      add\n        /* \"#utility.yul\":6631:6660   */\n      swap1\n      pop\n        /* \"#utility.yul\":6507:6666   */\n      swap3\n      swap2\n      pop\n      pop\n      jump\t// out\n        /* \"#utility.yul\":6672:6979   */\n    tag_421:\n        /* \"#utility.yul\":6740:6741   */\n      0x00\n        /* \"#utility.yul\":6750:6863   */\n    tag_521:\n        /* \"#utility.yul\":6764:6770   */\n      dup4\n        /* \"#utility.yul\":6761:6762   */\n      dup2\n        /* \"#utility.yul\":6758:6771   */\n      lt\n        /* \"#utility.yul\":6750:6863   */\n      iszero\n      tag_523\n      jumpi\n        /* \"#utility.yul\":6849:6850   */\n      dup1\n        /* \"#utility.yul\":6844:6847   */\n      dup3\n        /* \"#utility.yul\":6840:6851   */\n      add\n        /* \"#utility.yul\":6834:6852   */\n      mload\n        /* \"#utility.yul\":6830:6831   */\n      dup2\n        /* \"#utility.yul\":6825:6828   */\n      dup5\n        /* \"#utility.yul\":6821:6832   */\n      add\n        /* \"#utility.yul\":6814:6853   */\n      mstore\n        /* \"#utility.yul\":6786:6788   */\n      0x20\n        /* \"#utility.yul\":6783:6784   */\n      dup2\n        /* \"#utility.yul\":6779:6789   */\n      add\n        /* \"#utility.yul\":6774:6789   */\n      swap1\n      pop\n        /* \"#utility.yul\":6750:6863   */\n      jump(tag_521)\n    tag_523:\n        /* \"#utility.yul\":6881:6887   */\n      dup4\n        /* \"#utility.yul\":6878:6879   */\n      dup2\n        /* \"#utility.yul\":6875:6888   */\n      gt\n        /* \"#utility.yul\":6872:6973   */\n      iszero\n      tag_524\n      jumpi\n        /* \"#utility.yul\":6961:6962   */\n      0x00\n        /* \"#utility.yul\":6952:6958   */\n      dup5\n        /* \"#utility.yul\":6947:6950   */\n      dup5\n        /* \"#utility.yul\":6943:6959   */\n      add\n        /* \"#utility.yul\":6936:6963   */\n      mstore\n        /* \"#utility.yul\":6872:6973   */\n    tag_524:\n        /* \"#utility.yul\":6721:6979   */\n      pop\n        /* \"#utility.yul\":6672:6979   */\n      pop\n      pop\n      pop\n      jump\t// out\n        /* \"#utility.yul\":6985:7329   */\n    tag_422:\n        /* \"#utility.yul\":7063:7066   */\n      0x00\n        /* \"#utility.yul\":7091:7130   */\n      tag_526\n        /* \"#utility.yul\":7124:7129   */\n      dup3\n        /* \"#utility.yul\":7091:7130   */\n      tag_419\n      jump\t// in\n    tag_526:\n        /* \"#utility.yul\":7146:7207   */\n      tag_527\n        /* \"#utility.yul\":7200:7206   */\n      dup2\n        /* \"#utility.yul\":7195:7198   */\n      dup6\n        /* \"#utility.yul\":7146:7207   */\n      tag_420\n      jump\t// in\n    tag_527:\n        /* \"#utility.yul\":7139:7207   */\n      swap4\n      pop\n        /* \"#utility.yul\":7216:7268   */\n      tag_528\n        /* \"#utility.yul\":7261:7267   */\n      dup2\n        /* \"#utility.yul\":7256:7259   */\n      dup6\n        /* \"#utility.yul\":7249:7253   */\n      0x20\n        /* \"#utility.yul\":7242:7247   */\n      dup7\n        /* \"#utility.yul\":7238:7254   */\n      add\n        /* \"#utility.yul\":7216:7268   */\n      tag_421\n      jump\t// in\n    tag_528:\n        /* \"#utility.yul\":7293:7322   */\n      tag_529\n        /* \"#utility.yul\":7315:7321   */\n      dup2\n        /* \"#utility.yul\":7293:7322   */\n      tag_403\n      jump\t// in\n    tag_529:\n        /* \"#utility.yul\":7288:7291   */\n      dup5\n        /* \"#utility.yul\":7284:7323   */\n      add\n        /* \"#utility.yul\":7277:7323   */\n      swap2\n      pop\n        /* \"#utility.yul\":7067:7329   */\n      pop\n        /* \"#utility.yul\":6985:7329   */\n      swap3\n      swap2\n      pop\n      pop\n      jump\t// out\n        /* \"#utility.yul\":7335:7531   */\n    tag_423:\n        /* \"#utility.yul\":7424:7434   */\n      0x00\n        /* \"#utility.yul\":7459:7525   */\n      tag_531\n        /* \"#utility.yul\":7521:7524   */\n      dup4\n        /* \"#utility.yul\":7513:7519   */\n      dup4\n        /* \"#utility.yul\":7459:7525   */\n      tag_422\n      jump\t// in\n    tag_531:\n        /* \"#utility.yul\":7445:7525   */\n      swap1\n      pop\n        /* \"#utility.yul\":7335:7531   */\n      swap3\n      swap2\n      pop\n      pop\n      jump\t// out\n        /* \"#utility.yul\":7537:7660   */\n    tag_424:\n        /* \"#utility.yul\":7617:7621   */\n      0x00\n        /* \"#utility.yul\":7649:7653   */\n      0x20\n        /* \"#utility.yul\":7644:7647   */\n      dup3\n        /* \"#utility.yul\":7640:7654   */\n      add\n        /* \"#utility.yul\":7632:7654   */\n      swap1\n      pop\n        /* \"#utility.yul\":7537:7660   */\n      swap2\n      swap1\n      pop\n      jump\t// out\n        /* \"#utility.yul\":7694:8685   */\n    tag_425:\n        /* \"#utility.yul\":7833:7836   */\n      0x00\n        /* \"#utility.yul\":7862:7926   */\n      tag_534\n        /* \"#utility.yul\":7920:7925   */\n      dup3\n        /* \"#utility.yul\":7862:7926   */\n      tag_416\n      jump\t// in\n    tag_534:\n        /* \"#utility.yul\":7942:8038   */\n      tag_535\n        /* \"#utility.yul\":8031:8037   */\n      dup2\n        /* \"#utility.yul\":8026:8029   */\n      dup6\n        /* \"#utility.yul\":7942:8038   */\n      tag_417\n      jump\t// in\n    tag_535:\n        /* \"#utility.yul\":7935:8038   */\n      swap4\n      pop\n        /* \"#utility.yul\":8064:8067   */\n      dup4\n        /* \"#utility.yul\":8109:8113   */\n      0x20\n        /* \"#utility.yul\":8101:8107   */\n      dup3\n        /* \"#utility.yul\":8097:8114   */\n      mul\n        /* \"#utility.yul\":8092:8095   */\n      dup6\n        /* \"#utility.yul\":8088:8115   */\n      add\n        /* \"#utility.yul\":8139:8205   */\n      tag_536\n        /* \"#utility.yul\":8199:8204   */\n      dup6\n        /* \"#utility.yul\":8139:8205   */\n      tag_418\n      jump\t// in\n    tag_536:\n        /* \"#utility.yul\":8228:8235   */\n      dup1\n        /* \"#utility.yul\":8259:8260   */\n      0x00\n        /* \"#utility.yul\":8244:8640   */\n    tag_537:\n        /* \"#utility.yul\":8269:8275   */\n      dup6\n        /* \"#utility.yul\":8266:8267   */\n      dup2\n        /* \"#utility.yul\":8263:8276   */\n      lt\n        /* \"#utility.yul\":8244:8640   */\n      iszero\n      tag_539\n      jumpi\n        /* \"#utility.yul\":8340:8349   */\n      dup5\n        /* \"#utility.yul\":8334:8338   */\n      dup5\n        /* \"#utility.yul\":8330:8350   */\n      sub\n        /* \"#utility.yul\":8325:8328   */\n      dup10\n        /* \"#utility.yul\":8318:8351   */\n      mstore\n        /* \"#utility.yul\":8391:8397   */\n      dup2\n        /* \"#utility.yul\":8385:8398   */\n      mload\n        /* \"#utility.yul\":8419:8503   */\n      tag_540\n        /* \"#utility.yul\":8498:8502   */\n      dup6\n        /* \"#utility.yul\":8483:8496   */\n      dup3\n        /* \"#utility.yul\":8419:8503   */\n      tag_423\n      jump\t// in\n    tag_540:\n        /* \"#utility.yul\":8411:8503   */\n      swap5\n      pop\n        /* \"#utility.yul\":8526:8596   */\n      tag_541\n        /* \"#utility.yul\":8589:8595   */\n      dup4\n        /* \"#utility.yul\":8526:8596   */\n      tag_424\n      jump\t// in\n    tag_541:\n        /* \"#utility.yul\":8516:8596   */\n      swap3\n      pop\n        /* \"#utility.yul\":8625:8629   */\n      0x20\n        /* \"#utility.yul\":8620:8623   */\n      dup11\n        /* \"#utility.yul\":8616:8630   */\n      add\n        /* \"#utility.yul\":8609:8630   */\n      swap10\n      pop\n        /* \"#utility.yul\":8304:8640   */\n      pop\n        /* \"#utility.yul\":8291:8292   */\n      0x01\n        /* \"#utility.yul\":8288:8289   */\n      dup2\n        /* \"#utility.yul\":8284:8293   */\n      add\n        /* \"#utility.yul\":8279:8293   */\n      swap1\n      pop\n        /* \"#utility.yul\":8244:8640   */\n      jump(tag_537)\n    tag_539:\n        /* \"#utility.yul\":8248:8262   */\n      pop\n        /* \"#utility.yul\":8656:8660   */\n      dup3\n        /* \"#utility.yul\":8649:8660   */\n      swap8\n      pop\n        /* \"#utility.yul\":8676:8679   */\n      dup8\n        /* \"#utility.yul\":8669:8679   */\n      swap6\n      pop\n        /* \"#utility.yul\":7838:8685   */\n      pop\n      pop\n      pop\n      pop\n      pop\n        /* \"#utility.yul\":7694:8685   */\n      swap3\n      swap2\n      pop\n      pop\n      jump\t// out\n        /* \"#utility.yul\":8691:9104   */\n    tag_59:\n        /* \"#utility.yul\":8854:8858   */\n      0x00\n        /* \"#utility.yul\":8892:8894   */\n      0x20\n        /* \"#utility.yul\":8881:8890   */\n      dup3\n        /* \"#utility.yul\":8877:8895   */\n      add\n        /* \"#utility.yul\":8869:8895   */\n      swap1\n      pop\n        /* \"#utility.yul\":8941:8950   */\n      dup2\n        /* \"#utility.yul\":8935:8939   */\n      dup2\n        /* \"#utility.yul\":8931:8951   */\n      sub\n        /* \"#utility.yul\":8927:8928   */\n      0x00\n        /* \"#utility.yul\":8916:8925   */\n      dup4\n        /* \"#utility.yul\":8912:8929   */\n      add\n        /* \"#utility.yul\":8905:8952   */\n      mstore\n        /* \"#utility.yul\":8969:9097   */\n      tag_543\n        /* \"#utility.yul\":9092:9096   */\n      dup2\n        /* \"#utility.yul\":9083:9089   */\n      dup5\n        /* \"#utility.yul\":8969:9097   */\n      tag_425\n      jump\t// in\n    tag_543:\n        /* \"#utility.yul\":8961:9097   */\n      swap1\n      pop\n        /* \"#utility.yul\":8691:9104   */\n      swap3\n      swap2\n      pop\n      pop\n      jump\t// out\n        /* \"#utility.yul\":9110:9439   */\n    tag_62:\n        /* \"#utility.yul\":9169:9175   */\n      0x00\n        /* \"#utility.yul\":9218:9220   */\n      0x20\n        /* \"#utility.yul\":9206:9215   */\n      dup3\n        /* \"#utility.yul\":9197:9204   */\n      dup5\n        /* \"#utility.yul\":9193:9216   */\n      sub\n        /* \"#utility.yul\":9189:9221   */\n      slt\n        /* \"#utility.yul\":9186:9305   */\n      iszero\n      tag_545\n      jumpi\n        /* \"#utility.yul\":9224:9303   */\n      tag_546\n      tag_399\n      jump\t// in\n    tag_546:\n        /* \"#utility.yul\":9186:9305   */\n    tag_545:\n        /* \"#utility.yul\":9344:9345   */\n      0x00\n        /* \"#utility.yul\":9369:9422   */\n      tag_547\n        /* \"#utility.yul\":9414:9421   */\n      dup5\n        /* \"#utility.yul\":9405:9411   */\n      dup3\n        /* \"#utility.yul\":9394:9403   */\n      dup6\n        /* \"#utility.yul\":9390:9412   */\n      add\n        /* \"#utility.yul\":9369:9422   */\n      tag_415\n      jump\t// in\n    tag_547:\n        /* \"#utility.yul\":9359:9422   */\n      swap2\n      pop\n        /* \"#utility.yul\":9315:9432   */\n      pop\n        /* \"#utility.yul\":9110:9439   */\n      swap3\n      swap2\n      pop\n      pop\n      jump\t// out\n        /* \"#utility.yul\":9445:9563   */\n    tag_426:\n        /* \"#utility.yul\":9532:9556   */\n      tag_549\n        /* \"#utility.yul\":9550:9555   */\n      dup2\n        /* \"#utility.yul\":9532:9556   */\n      tag_411\n      jump\t// in\n    tag_549:\n        /* \"#utility.yul\":9527:9530   */\n      dup3\n        /* \"#utility.yul\":9520:9557   */\n      mstore\n        /* \"#utility.yul\":9445:9563   */\n      pop\n      pop\n      jump\t// out\n        /* \"#utility.yul\":9569:9791   */\n    tag_67:\n        /* \"#utility.yul\":9662:9666   */\n      0x00\n        /* \"#utility.yul\":9700:9702   */\n      0x20\n        /* \"#utility.yul\":9689:9698   */\n      dup3\n        /* \"#utility.yul\":9685:9703   */\n      add\n        /* \"#utility.yul\":9677:9703   */\n      swap1\n      pop\n        /* \"#utility.yul\":9713:9784   */\n      tag_551\n        /* \"#utility.yul\":9781:9782   */\n      0x00\n        /* \"#utility.yul\":9770:9779   */\n      dup4\n        /* \"#utility.yul\":9766:9783   */\n      add\n        /* \"#utility.yul\":9757:9763   */\n      dup5\n        /* \"#utility.yul\":9713:9784   */\n      tag_426\n      jump\t// in\n    tag_551:\n        /* \"#utility.yul\":9569:9791   */\n      swap3\n      swap2\n      pop\n      pop\n      jump\t// out\n        /* \"#utility.yul\":9797:12586   */\n    tag_73:\n        /* \"#utility.yul\":9999:10005   */\n      0x00\n        /* \"#utility.yul\":10007:10013   */\n      dup1\n        /* \"#utility.yul\":10015:10021   */\n      0x00\n        /* \"#utility.yul\":10023:10029   */\n      dup1\n        /* \"#utility.yul\":10031:10037   */\n      0x00\n        /* \"#utility.yul\":10039:10045   */\n      dup1\n        /* \"#utility.yul\":10047:10053   */\n      0x00\n        /* \"#utility.yul\":10055:10061   */\n      dup1\n        /* \"#utility.yul\":10104:10107   */\n      0x0100\n        /* \"#utility.yul\":10092:10101   */\n      dup10\n        /* \"#utility.yul\":10083:10090   */\n      dup12\n        /* \"#utility.yul\":10079:10102   */\n      sub\n        /* \"#utility.yul\":10075:10108   */\n      slt\n        /* \"#utility.yul\":10072:10192   */\n      iszero\n      tag_553\n      jumpi\n        /* \"#utility.yul\":10111:10190   */\n      tag_554\n      tag_399\n      jump\t// in\n    tag_554:\n        /* \"#utility.yul\":10072:10192   */\n    tag_553:\n        /* \"#utility.yul\":10259:10260   */\n      0x00\n        /* \"#utility.yul\":10248:10257   */\n      dup10\n        /* \"#utility.yul\":10244:10261   */\n      add\n        /* \"#utility.yul\":10231:10262   */\n      calldataload\n        /* \"#utility.yul\":10289:10307   */\n      0xffffffffffffffff\n        /* \"#utility.yul\":10281:10287   */\n      dup2\n        /* \"#utility.yul\":10278:10308   */\n      gt\n        /* \"#utility.yul\":10275:10392   */\n      iszero\n      tag_555\n      jumpi\n        /* \"#utility.yul\":10311:10390   */\n      tag_556\n      tag_400\n      jump\t// in\n    tag_556:\n        /* \"#utility.yul\":10275:10392   */\n    tag_555:\n        /* \"#utility.yul\":10416:10479   */\n      tag_557\n        /* \"#utility.yul\":10471:10478   */\n      dup12\n        /* \"#utility.yul\":10462:10468   */\n      dup3\n        /* \"#utility.yul\":10451:10460   */\n      dup13\n        /* \"#utility.yul\":10447:10469   */\n      add\n        /* \"#utility.yul\":10416:10479   */\n      tag_410\n      jump\t// in\n    tag_557:\n        /* \"#utility.yul\":10406:10479   */\n      swap9\n      pop\n        /* \"#utility.yul\":10202:10489   */\n      pop\n        /* \"#utility.yul\":10556:10558   */\n      0x20\n        /* \"#utility.yul\":10545:10554   */\n      dup10\n        /* \"#utility.yul\":10541:10559   */\n      add\n        /* \"#utility.yul\":10528:10560   */\n      calldataload\n        /* \"#utility.yul\":10587:10605   */\n      0xffffffffffffffff\n        /* \"#utility.yul\":10579:10585   */\n      dup2\n        /* \"#utility.yul\":10576:10606   */\n      gt\n        /* \"#utility.yul\":10573:10690   */\n      iszero\n      tag_558\n      jumpi\n        /* \"#utility.yul\":10609:10688   */\n      tag_559\n      tag_400\n      jump\t// in\n    tag_559:\n        /* \"#utility.yul\":10573:10690   */\n    tag_558:\n        /* \"#utility.yul\":10714:10777   */\n      tag_560\n        /* \"#utility.yul\":10769:10776   */\n      dup12\n        /* \"#utility.yul\":10760:10766   */\n      dup3\n        /* \"#utility.yul\":10749:10758   */\n      dup13\n        /* \"#utility.yul\":10745:10767   */\n      add\n        /* \"#utility.yul\":10714:10777   */\n      tag_410\n      jump\t// in\n    tag_560:\n        /* \"#utility.yul\":10704:10777   */\n      swap8\n      pop\n        /* \"#utility.yul\":10499:10787   */\n      pop\n        /* \"#utility.yul\":10854:10856   */\n      0x40\n        /* \"#utility.yul\":10843:10852   */\n      dup10\n        /* \"#utility.yul\":10839:10857   */\n      add\n        /* \"#utility.yul\":10826:10858   */\n      calldataload\n        /* \"#utility.yul\":10885:10903   */\n      0xffffffffffffffff\n        /* \"#utility.yul\":10877:10883   */\n      dup2\n        /* \"#utility.yul\":10874:10904   */\n      gt\n        /* \"#utility.yul\":10871:10988   */\n      iszero\n      tag_561\n      jumpi\n        /* \"#utility.yul\":10907:10986   */\n      tag_562\n      tag_400\n      jump\t// in\n    tag_562:\n        /* \"#utility.yul\":10871:10988   */\n    tag_561:\n        /* \"#utility.yul\":11012:11075   */\n      tag_563\n        /* \"#utility.yul\":11067:11074   */\n      dup12\n        /* \"#utility.yul\":11058:11064   */\n      dup3\n        /* \"#utility.yul\":11047:11056   */\n      dup13\n        /* \"#utility.yul\":11043:11065   */\n      add\n        /* \"#utility.yul\":11012:11075   */\n      tag_410\n      jump\t// in\n    tag_563:\n        /* \"#utility.yul\":11002:11075   */\n      swap7\n      pop\n        /* \"#utility.yul\":10797:11085   */\n      pop\n        /* \"#utility.yul\":11152:11154   */\n      0x60\n        /* \"#utility.yul\":11141:11150   */\n      dup10\n        /* \"#utility.yul\":11137:11155   */\n      add\n        /* \"#utility.yul\":11124:11156   */\n      calldataload\n        /* \"#utility.yul\":11183:11201   */\n      0xffffffffffffffff\n        /* \"#utility.yul\":11175:11181   */\n      dup2\n        /* \"#utility.yul\":11172:11202   */\n      gt\n        /* \"#utility.yul\":11169:11286   */\n      iszero\n      tag_564\n      jumpi\n        /* \"#utility.yul\":11205:11284   */\n      tag_565\n      tag_400\n      jump\t// in\n    tag_565:\n        /* \"#utility.yul\":11169:11286   */\n    tag_564:\n        /* \"#utility.yul\":11310:11373   */\n      tag_566\n        /* \"#utility.yul\":11365:11372   */\n      dup12\n        /* \"#utility.yul\":11356:11362   */\n      dup3\n        /* \"#utility.yul\":11345:11354   */\n      dup13\n        /* \"#utility.yul\":11341:11363   */\n      add\n        /* \"#utility.yul\":11310:11373   */\n      tag_410\n      jump\t// in\n    tag_566:\n        /* \"#utility.yul\":11300:11373   */\n      swap6\n      pop\n        /* \"#utility.yul\":11095:11383   */\n      pop\n        /* \"#utility.yul\":11450:11453   */\n      0x80\n        /* \"#utility.yul\":11439:11448   */\n      dup10\n        /* \"#utility.yul\":11435:11454   */\n      add\n        /* \"#utility.yul\":11422:11455   */\n      calldataload\n        /* \"#utility.yul\":11482:11500   */\n      0xffffffffffffffff\n        /* \"#utility.yul\":11474:11480   */\n      dup2\n        /* \"#utility.yul\":11471:11501   */\n      gt\n        /* \"#utility.yul\":11468:11585   */\n      iszero\n      tag_567\n      jumpi\n        /* \"#utility.yul\":11504:11583   */\n      tag_568\n      tag_400\n      jump\t// in\n    tag_568:\n        /* \"#utility.yul\":11468:11585   */\n    tag_567:\n        /* \"#utility.yul\":11609:11672   */\n      tag_569\n        /* \"#utility.yul\":11664:11671   */\n      dup12\n        /* \"#utility.yul\":11655:11661   */\n      dup3\n        /* \"#utility.yul\":11644:11653   */\n      dup13\n        /* \"#utility.yul\":11640:11662   */\n      add\n        /* \"#utility.yul\":11609:11672   */\n      tag_410\n      jump\t// in\n    tag_569:\n        /* \"#utility.yul\":11599:11672   */\n      swap5\n      pop\n        /* \"#utility.yul\":11393:11682   */\n      pop\n        /* \"#utility.yul\":11749:11752   */\n      0xa0\n        /* \"#utility.yul\":11738:11747   */\n      dup10\n        /* \"#utility.yul\":11734:11753   */\n      add\n        /* \"#utility.yul\":11721:11754   */\n      calldataload\n        /* \"#utility.yul\":11781:11799   */\n      0xffffffffffffffff\n        /* \"#utility.yul\":11773:11779   */\n      dup2\n        /* \"#utility.yul\":11770:11800   */\n      gt\n        /* \"#utility.yul\":11767:11884   */\n      iszero\n      tag_570\n      jumpi\n        /* \"#utility.yul\":11803:11882   */\n      tag_571\n      tag_400\n      jump\t// in\n    tag_571:\n        /* \"#utility.yul\":11767:11884   */\n    tag_570:\n        /* \"#utility.yul\":11908:11971   */\n      tag_572\n        /* \"#utility.yul\":11963:11970   */\n      dup12\n        /* \"#utility.yul\":11954:11960   */\n      dup3\n        /* \"#utility.yul\":11943:11952   */\n      dup13\n        /* \"#utility.yul\":11939:11961   */\n      add\n        /* \"#utility.yul\":11908:11971   */\n      tag_410\n      jump\t// in\n    tag_572:\n        /* \"#utility.yul\":11898:11971   */\n      swap4\n      pop\n        /* \"#utility.yul\":11692:11981   */\n      pop\n        /* \"#utility.yul\":12048:12051   */\n      0xc0\n        /* \"#utility.yul\":12037:12046   */\n      dup10\n        /* \"#utility.yul\":12033:12052   */\n      add\n        /* \"#utility.yul\":12020:12053   */\n      calldataload\n        /* \"#utility.yul\":12080:12098   */\n      0xffffffffffffffff\n        /* \"#utility.yul\":12072:12078   */\n      dup2\n        /* \"#utility.yul\":12069:12099   */\n      gt\n        /* \"#utility.yul\":12066:12183   */\n      iszero\n      tag_573\n      jumpi\n        /* \"#utility.yul\":12102:12181   */\n      tag_574\n      tag_400\n      jump\t// in\n    tag_574:\n        /* \"#utility.yul\":12066:12183   */\n    tag_573:\n        /* \"#utility.yul\":12207:12270   */\n      tag_575\n        /* \"#utility.yul\":12262:12269   */\n      dup12\n        /* \"#utility.yul\":12253:12259   */\n      dup3\n        /* \"#utility.yul\":12242:12251   */\n      dup13\n        /* \"#utility.yul\":12238:12260   */\n      add\n        /* \"#utility.yul\":12207:12270   */\n      tag_410\n      jump\t// in\n    tag_575:\n        /* \"#utility.yul\":12197:12270   */\n      swap3\n      pop\n        /* \"#utility.yul\":11991:12280   */\n      pop\n        /* \"#utility.yul\":12347:12350   */\n      0xe0\n        /* \"#utility.yul\":12336:12345   */\n      dup10\n        /* \"#utility.yul\":12332:12351   */\n      add\n        /* \"#utility.yul\":12319:12352   */\n      calldataload\n        /* \"#utility.yul\":12379:12397   */\n      0xffffffffffffffff\n        /* \"#utility.yul\":12371:12377   */\n      dup2\n        /* \"#utility.yul\":12368:12398   */\n      gt\n        /* \"#utility.yul\":12365:12482   */\n      iszero\n      tag_576\n      jumpi\n        /* \"#utility.yul\":12401:12480   */\n      tag_577\n      tag_400\n      jump\t// in\n    tag_577:\n        /* \"#utility.yul\":12365:12482   */\n    tag_576:\n        /* \"#utility.yul\":12506:12569   */\n      tag_578\n        /* \"#utility.yul\":12561:12568   */\n      dup12\n        /* \"#utility.yul\":12552:12558   */\n      dup3\n        /* \"#utility.yul\":12541:12550   */\n      dup13\n        /* \"#utility.yul\":12537:12559   */\n      add\n        /* \"#utility.yul\":12506:12569   */\n      tag_410\n      jump\t// in\n    tag_578:\n        /* \"#utility.yul\":12496:12569   */\n      swap2\n      pop\n        /* \"#utility.yul\":12290:12579   */\n      pop\n        /* \"#utility.yul\":9797:12586   */\n      swap3\n      swap6\n      swap9\n      pop\n      swap3\n      swap6\n      swap9\n      swap1\n      swap4\n      swap7\n      pop\n      jump\t// out\n        /* \"#utility.yul\":12592:12761   */\n    tag_427:\n        /* \"#utility.yul\":12676:12687   */\n      0x00\n        /* \"#utility.yul\":12710:12716   */\n      dup3\n        /* \"#utility.yul\":12705:12708   */\n      dup3\n        /* \"#utility.yul\":12698:12717   */\n      mstore\n        /* \"#utility.yul\":12750:12754   */\n      0x20\n        /* \"#utility.yul\":12745:12748   */\n      dup3\n        /* \"#utility.yul\":12741:12755   */\n      add\n        /* \"#utility.yul\":12726:12755   */\n      swap1\n      pop\n        /* \"#utility.yul\":12592:12761   */\n      swap3\n      swap2\n      pop\n      pop\n      jump\t// out\n        /* \"#utility.yul\":12767:13131   */\n    tag_428:\n        /* \"#utility.yul\":12855:12858   */\n      0x00\n        /* \"#utility.yul\":12883:12922   */\n      tag_581\n        /* \"#utility.yul\":12916:12921   */\n      dup3\n        /* \"#utility.yul\":12883:12922   */\n      tag_419\n      jump\t// in\n    tag_581:\n        /* \"#utility.yul\":12938:13009   */\n      tag_582\n        /* \"#utility.yul\":13002:13008   */\n      dup2\n        /* \"#utility.yul\":12997:13000   */\n      dup6\n        /* \"#utility.yul\":12938:13009   */\n      tag_427\n      jump\t// in\n    tag_582:\n        /* \"#utility.yul\":12931:13009   */\n      swap4\n      pop\n        /* \"#utility.yul\":13018:13070   */\n      tag_583\n        /* \"#utility.yul\":13063:13069   */\n      dup2\n        /* \"#utility.yul\":13058:13061   */\n      dup6\n        /* \"#utility.yul\":13051:13055   */\n      0x20\n        /* \"#utility.yul\":13044:13049   */\n      dup7\n        /* \"#utility.yul\":13040:13056   */\n      add\n        /* \"#utility.yul\":13018:13070   */\n      tag_421\n      jump\t// in\n    tag_583:\n        /* \"#utility.yul\":13095:13124   */\n      tag_584\n        /* \"#utility.yul\":13117:13123   */\n      dup2\n        /* \"#utility.yul\":13095:13124   */\n      tag_403\n      jump\t// in\n    tag_584:\n        /* \"#utility.yul\":13090:13093   */\n      dup5\n        /* \"#utility.yul\":13086:13125   */\n      add\n        /* \"#utility.yul\":13079:13125   */\n      swap2\n      pop\n        /* \"#utility.yul\":12859:13131   */\n      pop\n        /* \"#utility.yul\":12767:13131   */\n      swap3\n      swap2\n      pop\n      pop\n      jump\t// out\n        /* \"#utility.yul\":13137:13450   */\n    tag_79:\n        /* \"#utility.yul\":13250:13254   */\n      0x00\n        /* \"#utility.yul\":13288:13290   */\n      0x20\n        /* \"#utility.yul\":13277:13286   */\n      dup3\n        /* \"#utility.yul\":13273:13291   */\n      add\n        /* \"#utility.yul\":13265:13291   */\n      swap1\n      pop\n        /* \"#utility.yul\":13337:13346   */\n      dup2\n        /* \"#utility.yul\":13331:13335   */\n      dup2\n        /* \"#utility.yul\":13327:13347   */\n      sub\n        /* \"#utility.yul\":13323:13324   */\n      0x00\n        /* \"#utility.yul\":13312:13321   */\n      dup4\n        /* \"#utility.yul\":13308:13325   */\n      add\n        /* \"#utility.yul\":13301:13348   */\n      mstore\n        /* \"#utility.yul\":13365:13443   */\n      tag_586\n        /* \"#utility.yul\":13438:13442   */\n      dup2\n        /* \"#utility.yul\":13429:13435   */\n      dup5\n        /* \"#utility.yul\":13365:13443   */\n      tag_428\n      jump\t// in\n    tag_586:\n        /* \"#utility.yul\":13357:13443   */\n      swap1\n      pop\n        /* \"#utility.yul\":13137:13450   */\n      swap3\n      swap2\n      pop\n      pop\n      jump\t// out\n        /* \"#utility.yul\":13456:13546   */\n    tag_429:\n        /* \"#utility.yul\":13490:13497   */\n      0x00\n        /* \"#utility.yul\":13533:13538   */\n      dup2\n        /* \"#utility.yul\":13526:13539   */\n      iszero\n        /* \"#utility.yul\":13519:13540   */\n      iszero\n        /* \"#utility.yul\":13508:13540   */\n      swap1\n      pop\n        /* \"#utility.yul\":13456:13546   */\n      swap2\n      swap1\n      pop\n      jump\t// out\n        /* \"#utility.yul\":13552:13661   */\n    tag_430:\n        /* \"#utility.yul\":13633:13654   */\n      tag_589\n        /* \"#utility.yul\":13648:13653   */\n      dup2\n        /* \"#utility.yul\":13633:13654   */\n      tag_429\n      jump\t// in\n    tag_589:\n        /* \"#utility.yul\":13628:13631   */\n      dup3\n        /* \"#utility.yul\":13621:13655   */\n      mstore\n        /* \"#utility.yul\":13552:13661   */\n      pop\n      pop\n      jump\t// out\n        /* \"#utility.yul\":13667:14592   */\n    tag_87:\n        /* \"#utility.yul\":13926:13930   */\n      0x00\n        /* \"#utility.yul\":13964:13967   */\n      0xa0\n        /* \"#utility.yul\":13953:13962   */\n      dup3\n        /* \"#utility.yul\":13949:13968   */\n      add\n        /* \"#utility.yul\":13941:13968   */\n      swap1\n      pop\n        /* \"#utility.yul\":14014:14023   */\n      dup2\n        /* \"#utility.yul\":14008:14012   */\n      dup2\n        /* \"#utility.yul\":14004:14024   */\n      sub\n        /* \"#utility.yul\":14000:14001   */\n      0x00\n        /* \"#utility.yul\":13989:13998   */\n      dup4\n        /* \"#utility.yul\":13985:14002   */\n      add\n        /* \"#utility.yul\":13978:14025   */\n      mstore\n        /* \"#utility.yul\":14042:14120   */\n      tag_591\n        /* \"#utility.yul\":14115:14119   */\n      dup2\n        /* \"#utility.yul\":14106:14112   */\n      dup9\n        /* \"#utility.yul\":14042:14120   */\n      tag_428\n      jump\t// in\n    tag_591:\n        /* \"#utility.yul\":14034:14120   */\n      swap1\n      pop\n        /* \"#utility.yul\":14167:14176   */\n      dup2\n        /* \"#utility.yul\":14161:14165   */\n      dup2\n        /* \"#utility.yul\":14157:14177   */\n      sub\n        /* \"#utility.yul\":14152:14154   */\n      0x20\n        /* \"#utility.yul\":14141:14150   */\n      dup4\n        /* \"#utility.yul\":14137:14155   */\n      add\n        /* \"#utility.yul\":14130:14178   */\n      mstore\n        /* \"#utility.yul\":14195:14273   */\n      tag_592\n        /* \"#utility.yul\":14268:14272   */\n      dup2\n        /* \"#utility.yul\":14259:14265   */\n      dup8\n        /* \"#utility.yul\":14195:14273   */\n      tag_428\n      jump\t// in\n    tag_592:\n        /* \"#utility.yul\":14187:14273   */\n      swap1\n      pop\n        /* \"#utility.yul\":14283:14355   */\n      tag_593\n        /* \"#utility.yul\":14351:14353   */\n      0x40\n        /* \"#utility.yul\":14340:14349   */\n      dup4\n        /* \"#utility.yul\":14336:14354   */\n      add\n        /* \"#utility.yul\":14327:14333   */\n      dup7\n        /* \"#utility.yul\":14283:14355   */\n      tag_397\n      jump\t// in\n    tag_593:\n        /* \"#utility.yul\":14402:14411   */\n      dup2\n        /* \"#utility.yul\":14396:14400   */\n      dup2\n        /* \"#utility.yul\":14392:14412   */\n      sub\n        /* \"#utility.yul\":14387:14389   */\n      0x60\n        /* \"#utility.yul\":14376:14385   */\n      dup4\n        /* \"#utility.yul\":14372:14390   */\n      add\n        /* \"#utility.yul\":14365:14413   */\n      mstore\n        /* \"#utility.yul\":14430:14508   */\n      tag_594\n        /* \"#utility.yul\":14503:14507   */\n      dup2\n        /* \"#utility.yul\":14494:14500   */\n      dup6\n        /* \"#utility.yul\":14430:14508   */\n      tag_428\n      jump\t// in\n    tag_594:\n        /* \"#utility.yul\":14422:14508   */\n      swap1\n      pop\n        /* \"#utility.yul\":14518:14585   */\n      tag_595\n        /* \"#utility.yul\":14580:14583   */\n      0x80\n        /* \"#utility.yul\":14569:14578   */\n      dup4\n        /* \"#utility.yul\":14565:14584   */\n      add\n        /* \"#utility.yul\":14556:14562   */\n      dup5\n        /* \"#utility.yul\":14518:14585   */\n      tag_430\n      jump\t// in\n    tag_595:\n        /* \"#utility.yul\":13667:14592   */\n      swap7\n      swap6\n      pop\n      pop\n      pop\n      pop\n      pop\n      pop\n      jump\t// out\n        /* \"#utility.yul\":14598:14712   */\n    tag_431:\n        /* \"#utility.yul\":14665:14671   */\n      0x00\n        /* \"#utility.yul\":14699:14704   */\n      dup2\n        /* \"#utility.yul\":14693:14705   */\n      mload\n        /* \"#utility.yul\":14683:14705   */\n      swap1\n      pop\n        /* \"#utility.yul\":14598:14712   */\n      swap2\n      swap1\n      pop\n      jump\t// out\n        /* \"#utility.yul\":14718:14902   */\n    tag_432:\n        /* \"#utility.yul\":14817:14828   */\n      0x00\n        /* \"#utility.yul\":14851:14857   */\n      dup3\n        /* \"#utility.yul\":14846:14849   */\n      dup3\n        /* \"#utility.yul\":14839:14858   */\n      mstore\n        /* \"#utility.yul\":14891:14895   */\n      0x20\n        /* \"#utility.yul\":14886:14889   */\n      dup3\n        /* \"#utility.yul\":14882:14896   */\n      add\n        /* \"#utility.yul\":14867:14896   */\n      swap1\n      pop\n        /* \"#utility.yul\":14718:14902   */\n      swap3\n      swap2\n      pop\n      pop\n      jump\t// out\n        /* \"#utility.yul\":14908:15040   */\n    tag_433:\n        /* \"#utility.yul\":14975:14979   */\n      0x00\n        /* \"#utility.yul\":14998:15001   */\n      dup2\n        /* \"#utility.yul\":14990:15001   */\n      swap1\n      pop\n        /* \"#utility.yul\":15028:15032   */\n      0x20\n        /* \"#utility.yul\":15023:15026   */\n      dup3\n        /* \"#utility.yul\":15019:15033   */\n      add\n        /* \"#utility.yul\":15011:15033   */\n      swap1\n      pop\n        /* \"#utility.yul\":14908:15040   */\n      swap2\n      swap1\n      pop\n      jump\t// out\n        /* \"#utility.yul\":15046:15154   */\n    tag_434:\n        /* \"#utility.yul\":15123:15147   */\n      tag_600\n        /* \"#utility.yul\":15141:15146   */\n      dup2\n        /* \"#utility.yul\":15123:15147   */\n      tag_396\n      jump\t// in\n    tag_600:\n        /* \"#utility.yul\":15118:15121   */\n      dup3\n        /* \"#utility.yul\":15111:15148   */\n      mstore\n        /* \"#utility.yul\":15046:15154   */\n      pop\n      pop\n      jump\t// out\n        /* \"#utility.yul\":15160:15339   */\n    tag_435:\n        /* \"#utility.yul\":15229:15239   */\n      0x00\n        /* \"#utility.yul\":15250:15296   */\n      tag_602\n        /* \"#utility.yul\":15292:15295   */\n      dup4\n        /* \"#utility.yul\":15284:15290   */\n      dup4\n        /* \"#utility.yul\":15250:15296   */\n      tag_434\n      jump\t// in\n    tag_602:\n        /* \"#utility.yul\":15328:15332   */\n      0x20\n        /* \"#utility.yul\":15323:15326   */\n      dup4\n        /* \"#utility.yul\":15319:15333   */\n      add\n        /* \"#utility.yul\":15305:15333   */\n      swap1\n      pop\n        /* \"#utility.yul\":15160:15339   */\n      swap3\n      swap2\n      pop\n      pop\n      jump\t// out\n        /* \"#utility.yul\":15345:15458   */\n    tag_436:\n        /* \"#utility.yul\":15415:15419   */\n      0x00\n        /* \"#utility.yul\":15447:15451   */\n      0x20\n        /* \"#utility.yul\":15442:15445   */\n      dup3\n        /* \"#utility.yul\":15438:15452   */\n      add\n        /* \"#utility.yul\":15430:15452   */\n      swap1\n      pop\n        /* \"#utility.yul\":15345:15458   */\n      swap2\n      swap1\n      pop\n      jump\t// out\n        /* \"#utility.yul\":15494:16226   */\n    tag_437:\n        /* \"#utility.yul\":15613:15616   */\n      0x00\n        /* \"#utility.yul\":15642:15696   */\n      tag_605\n        /* \"#utility.yul\":15690:15695   */\n      dup3\n        /* \"#utility.yul\":15642:15696   */\n      tag_431\n      jump\t// in\n    tag_605:\n        /* \"#utility.yul\":15712:15798   */\n      tag_606\n        /* \"#utility.yul\":15791:15797   */\n      dup2\n        /* \"#utility.yul\":15786:15789   */\n      dup6\n        /* \"#utility.yul\":15712:15798   */\n      tag_432\n      jump\t// in\n    tag_606:\n        /* \"#utility.yul\":15705:15798   */\n      swap4\n      pop\n        /* \"#utility.yul\":15822:15878   */\n      tag_607\n        /* \"#utility.yul\":15872:15877   */\n      dup4\n        /* \"#utility.yul\":15822:15878   */\n      tag_433\n      jump\t// in\n    tag_607:\n        /* \"#utility.yul\":15901:15908   */\n      dup1\n        /* \"#utility.yul\":15932:15933   */\n      0x00\n        /* \"#utility.yul\":15917:16201   */\n    tag_608:\n        /* \"#utility.yul\":15942:15948   */\n      dup4\n        /* \"#utility.yul\":15939:15940   */\n      dup2\n        /* \"#utility.yul\":15936:15949   */\n      lt\n        /* \"#utility.yul\":15917:16201   */\n      iszero\n      tag_610\n      jumpi\n        /* \"#utility.yul\":16018:16024   */\n      dup2\n        /* \"#utility.yul\":16012:16025   */\n      mload\n        /* \"#utility.yul\":16045:16108   */\n      tag_611\n        /* \"#utility.yul\":16104:16107   */\n      dup9\n        /* \"#utility.yul\":16089:16102   */\n      dup3\n        /* \"#utility.yul\":16045:16108   */\n      tag_435\n      jump\t// in\n    tag_611:\n        /* \"#utility.yul\":16038:16108   */\n      swap8\n      pop\n        /* \"#utility.yul\":16131:16191   */\n      tag_612\n        /* \"#utility.yul\":16184:16190   */\n      dup4\n        /* \"#utility.yul\":16131:16191   */\n      tag_436\n      jump\t// in\n    tag_612:\n        /* \"#utility.yul\":16121:16191   */\n      swap3\n      pop\n        /* \"#utility.yul\":15977:16201   */\n      pop\n        /* \"#utility.yul\":15964:15965   */\n      0x01\n        /* \"#utility.yul\":15961:15962   */\n      dup2\n        /* \"#utility.yul\":15957:15966   */\n      add\n        /* \"#utility.yul\":15952:15966   */\n      swap1\n      pop\n        /* \"#utility.yul\":15917:16201   */\n      jump(tag_608)\n    tag_610:\n        /* \"#utility.yul\":15921:15935   */\n      pop\n        /* \"#utility.yul\":16217:16220   */\n      dup6\n        /* \"#utility.yul\":16210:16220   */\n      swap4\n      pop\n        /* \"#utility.yul\":15618:16226   */\n      pop\n      pop\n      pop\n        /* \"#utility.yul\":15494:16226   */\n      swap3\n      swap2\n      pop\n      pop\n      jump\t// out\n        /* \"#utility.yul\":16232:16605   */\n    tag_94:\n        /* \"#utility.yul\":16375:16379   */\n      0x00\n        /* \"#utility.yul\":16413:16415   */\n      0x20\n        /* \"#utility.yul\":16402:16411   */\n      dup3\n        /* \"#utility.yul\":16398:16416   */\n      add\n        /* \"#utility.yul\":16390:16416   */\n      swap1\n      pop\n        /* \"#utility.yul\":16462:16471   */\n      dup2\n        /* \"#utility.yul\":16456:16460   */\n      dup2\n        /* \"#utility.yul\":16452:16472   */\n      sub\n        /* \"#utility.yul\":16448:16449   */\n      0x00\n        /* \"#utility.yul\":16437:16446   */\n      dup4\n        /* \"#utility.yul\":16433:16450   */\n      add\n        /* \"#utility.yul\":16426:16473   */\n      mstore\n        /* \"#utility.yul\":16490:16598   */\n      tag_614\n        /* \"#utility.yul\":16593:16597   */\n      dup2\n        /* \"#utility.yul\":16584:16590   */\n      dup5\n        /* \"#utility.yul\":16490:16598   */\n      tag_437\n      jump\t// in\n    tag_614:\n        /* \"#utility.yul\":16482:16598   */\n      swap1\n      pop\n        /* \"#utility.yul\":16232:16605   */\n      swap3\n      swap2\n      pop\n      pop\n      jump\t// out\n        /* \"#utility.yul\":16611:16710   */\n    tag_438:\n        /* \"#utility.yul\":16682:16703   */\n      tag_616\n        /* \"#utility.yul\":16697:16702   */\n      dup2\n        /* \"#utility.yul\":16682:16703   */\n      tag_429\n      jump\t// in\n    tag_616:\n        /* \"#utility.yul\":16677:16680   */\n      dup3\n        /* \"#utility.yul\":16670:16704   */\n      mstore\n        /* \"#utility.yul\":16611:16710   */\n      pop\n      pop\n      jump\t// out\n        /* \"#utility.yul\":16786:18063   */\n    tag_439:\n        /* \"#utility.yul\":16897:16900   */\n      0x00\n        /* \"#utility.yul\":16933:16937   */\n      0xa0\n        /* \"#utility.yul\":16928:16931   */\n      dup4\n        /* \"#utility.yul\":16924:16938   */\n      add\n        /* \"#utility.yul\":17025:17029   */\n      0x00\n        /* \"#utility.yul\":17018:17023   */\n      dup4\n        /* \"#utility.yul\":17014:17030   */\n      add\n        /* \"#utility.yul\":17008:17031   */\n      mload\n        /* \"#utility.yul\":17078:17081   */\n      dup5\n        /* \"#utility.yul\":17072:17076   */\n      dup3\n        /* \"#utility.yul\":17068:17082   */\n      sub\n        /* \"#utility.yul\":17061:17065   */\n      0x00\n        /* \"#utility.yul\":17056:17059   */\n      dup7\n        /* \"#utility.yul\":17052:17066   */\n      add\n        /* \"#utility.yul\":17045:17083   */\n      mstore\n        /* \"#utility.yul\":17104:17177   */\n      tag_618\n        /* \"#utility.yul\":17172:17176   */\n      dup3\n        /* \"#utility.yul\":17158:17170   */\n      dup3\n        /* \"#utility.yul\":17104:17177   */\n      tag_422\n      jump\t// in\n    tag_618:\n        /* \"#utility.yul\":17096:17177   */\n      swap2\n      pop\n        /* \"#utility.yul\":16948:17188   */\n      pop\n        /* \"#utility.yul\":17274:17278   */\n      0x20\n        /* \"#utility.yul\":17267:17272   */\n      dup4\n        /* \"#utility.yul\":17263:17279   */\n      add\n        /* \"#utility.yul\":17257:17280   */\n      mload\n        /* \"#utility.yul\":17327:17330   */\n      dup5\n        /* \"#utility.yul\":17321:17325   */\n      dup3\n        /* \"#utility.yul\":17317:17331   */\n      sub\n        /* \"#utility.yul\":17310:17314   */\n      0x20\n        /* \"#utility.yul\":17305:17308   */\n      dup7\n        /* \"#utility.yul\":17301:17315   */\n      add\n        /* \"#utility.yul\":17294:17332   */\n      mstore\n        /* \"#utility.yul\":17353:17426   */\n      tag_619\n        /* \"#utility.yul\":17421:17425   */\n      dup3\n        /* \"#utility.yul\":17407:17419   */\n      dup3\n        /* \"#utility.yul\":17353:17426   */\n      tag_422\n      jump\t// in\n    tag_619:\n        /* \"#utility.yul\":17345:17426   */\n      swap2\n      pop\n        /* \"#utility.yul\":17198:17437   */\n      pop\n        /* \"#utility.yul\":17527:17531   */\n      0x40\n        /* \"#utility.yul\":17520:17525   */\n      dup4\n        /* \"#utility.yul\":17516:17532   */\n      add\n        /* \"#utility.yul\":17510:17533   */\n      mload\n        /* \"#utility.yul\":17546:17609   */\n      tag_620\n        /* \"#utility.yul\":17603:17607   */\n      0x40\n        /* \"#utility.yul\":17598:17601   */\n      dup7\n        /* \"#utility.yul\":17594:17608   */\n      add\n        /* \"#utility.yul\":17580:17592   */\n      dup3\n        /* \"#utility.yul\":17546:17609   */\n      tag_434\n      jump\t// in\n    tag_620:\n        /* \"#utility.yul\":17447:17619   */\n      pop\n        /* \"#utility.yul\":17703:17707   */\n      0x60\n        /* \"#utility.yul\":17696:17701   */\n      dup4\n        /* \"#utility.yul\":17692:17708   */\n      add\n        /* \"#utility.yul\":17686:17709   */\n      mload\n        /* \"#utility.yul\":17756:17759   */\n      dup5\n        /* \"#utility.yul\":17750:17754   */\n      dup3\n        /* \"#utility.yul\":17746:17760   */\n      sub\n        /* \"#utility.yul\":17739:17743   */\n      0x60\n        /* \"#utility.yul\":17734:17737   */\n      dup7\n        /* \"#utility.yul\":17730:17744   */\n      add\n        /* \"#utility.yul\":17723:17761   */\n      mstore\n        /* \"#utility.yul\":17782:17855   */\n      tag_621\n        /* \"#utility.yul\":17850:17854   */\n      dup3\n        /* \"#utility.yul\":17836:17848   */\n      dup3\n        /* \"#utility.yul\":17782:17855   */\n      tag_422\n      jump\t// in\n    tag_621:\n        /* \"#utility.yul\":17774:17855   */\n      swap2\n      pop\n        /* \"#utility.yul\":17629:17866   */\n      pop\n        /* \"#utility.yul\":17950:17954   */\n      0x80\n        /* \"#utility.yul\":17943:17948   */\n      dup4\n        /* \"#utility.yul\":17939:17955   */\n      add\n        /* \"#utility.yul\":17933:17956   */\n      mload\n        /* \"#utility.yul\":17969:18026   */\n      tag_622\n        /* \"#utility.yul\":18020:18024   */\n      0x80\n        /* \"#utility.yul\":18015:18018   */\n      dup7\n        /* \"#utility.yul\":18011:18025   */\n      add\n        /* \"#utility.yul\":17997:18009   */\n      dup3\n        /* \"#utility.yul\":17969:18026   */\n      tag_438\n      jump\t// in\n    tag_622:\n        /* \"#utility.yul\":17876:18036   */\n      pop\n        /* \"#utility.yul\":18053:18057   */\n      dup1\n        /* \"#utility.yul\":18046:18057   */\n      swap2\n      pop\n        /* \"#utility.yul\":16902:18063   */\n      pop\n        /* \"#utility.yul\":16786:18063   */\n      swap3\n      swap2\n      pop\n      pop\n      jump\t// out\n        /* \"#utility.yul\":18069:18426   */\n    tag_99:\n        /* \"#utility.yul\":18204:18208   */\n      0x00\n        /* \"#utility.yul\":18242:18244   */\n      0x20\n        /* \"#utility.yul\":18231:18240   */\n      dup3\n        /* \"#utility.yul\":18227:18245   */\n      add\n        /* \"#utility.yul\":18219:18245   */\n      swap1\n      pop\n        /* \"#utility.yul\":18291:18300   */\n      dup2\n        /* \"#utility.yul\":18285:18289   */\n      dup2\n        /* \"#utility.yul\":18281:18301   */\n      sub\n        /* \"#utility.yul\":18277:18278   */\n      0x00\n        /* \"#utility.yul\":18266:18275   */\n      dup4\n        /* \"#utility.yul\":18262:18279   */\n      add\n        /* \"#utility.yul\":18255:18302   */\n      mstore\n        /* \"#utility.yul\":18319:18419   */\n      tag_624\n        /* \"#utility.yul\":18414:18418   */\n      dup2\n        /* \"#utility.yul\":18405:18411   */\n      dup5\n        /* \"#utility.yul\":18319:18419   */\n      tag_439\n      jump\t// in\n    tag_624:\n        /* \"#utility.yul\":18311:18419   */\n      swap1\n      pop\n        /* \"#utility.yul\":18069:18426   */\n      swap3\n      swap2\n      pop\n      pop\n      jump\t// out\n        /* \"#utility.yul\":18432:18642   */\n    tag_104:\n        /* \"#utility.yul\":18519:18523   */\n      0x00\n        /* \"#utility.yul\":18557:18559   */\n      0x20\n        /* \"#utility.yul\":18546:18555   */\n      dup3\n        /* \"#utility.yul\":18542:18560   */\n      add\n        /* \"#utility.yul\":18534:18560   */\n      swap1\n      pop\n        /* \"#utility.yul\":18570:18635   */\n      tag_626\n        /* \"#utility.yul\":18632:18633   */\n      0x00\n        /* \"#utility.yul\":18621:18630   */\n      dup4\n        /* \"#utility.yul\":18617:18634   */\n      add\n        /* \"#utility.yul\":18608:18614   */\n      dup5\n        /* \"#utility.yul\":18570:18635   */\n      tag_430\n      jump\t// in\n    tag_626:\n        /* \"#utility.yul\":18432:18642   */\n      swap3\n      swap2\n      pop\n      pop\n      jump\t// out\n        /* \"#utility.yul\":18648:20425   */\n    tag_116:\n        /* \"#utility.yul\":18792:18798   */\n      0x00\n        /* \"#utility.yul\":18800:18806   */\n      dup1\n        /* \"#utility.yul\":18808:18814   */\n      0x00\n        /* \"#utility.yul\":18816:18822   */\n      dup1\n        /* \"#utility.yul\":18824:18830   */\n      0x00\n        /* \"#utility.yul\":18832:18838   */\n      dup1\n        /* \"#utility.yul\":18881:18884   */\n      0xc0\n        /* \"#utility.yul\":18869:18878   */\n      dup8\n        /* \"#utility.yul\":18860:18867   */\n      dup10\n        /* \"#utility.yul\":18856:18879   */\n      sub\n        /* \"#utility.yul\":18852:18885   */\n      slt\n        /* \"#utility.yul\":18849:18969   */\n      iszero\n      tag_628\n      jumpi\n        /* \"#utility.yul\":18888:18967   */\n      tag_629\n      tag_399\n      jump\t// in\n    tag_629:\n        /* \"#utility.yul\":18849:18969   */\n    tag_628:\n        /* \"#utility.yul\":19036:19037   */\n      0x00\n        /* \"#utility.yul\":19025:19034   */\n      dup8\n        /* \"#utility.yul\":19021:19038   */\n      add\n        /* \"#utility.yul\":19008:19039   */\n      calldataload\n        /* \"#utility.yul\":19066:19084   */\n      0xffffffffffffffff\n        /* \"#utility.yul\":19058:19064   */\n      dup2\n        /* \"#utility.yul\":19055:19085   */\n      gt\n        /* \"#utility.yul\":19052:19169   */\n      iszero\n      tag_630\n      jumpi\n        /* \"#utility.yul\":19088:19167   */\n      tag_631\n      tag_400\n      jump\t// in\n    tag_631:\n        /* \"#utility.yul\":19052:19169   */\n    tag_630:\n        /* \"#utility.yul\":19193:19256   */\n      tag_632\n        /* \"#utility.yul\":19248:19255   */\n      dup10\n        /* \"#utility.yul\":19239:19245   */\n      dup3\n        /* \"#utility.yul\":19228:19237   */\n      dup11\n        /* \"#utility.yul\":19224:19246   */\n      add\n        /* \"#utility.yul\":19193:19256   */\n      tag_410\n      jump\t// in\n    tag_632:\n        /* \"#utility.yul\":19183:19256   */\n      swap7\n      pop\n        /* \"#utility.yul\":18979:19266   */\n      pop\n        /* \"#utility.yul\":19333:19335   */\n      0x20\n        /* \"#utility.yul\":19322:19331   */\n      dup8\n        /* \"#utility.yul\":19318:19336   */\n      add\n        /* \"#utility.yul\":19305:19337   */\n      calldataload\n        /* \"#utility.yul\":19364:19382   */\n      0xffffffffffffffff\n        /* \"#utility.yul\":19356:19362   */\n      dup2\n        /* \"#utility.yul\":19353:19383   */\n      gt\n        /* \"#utility.yul\":19350:19467   */\n      iszero\n      tag_633\n      jumpi\n        /* \"#utility.yul\":19386:19465   */\n      tag_634\n      tag_400\n      jump\t// in\n    tag_634:\n        /* \"#utility.yul\":19350:19467   */\n    tag_633:\n        /* \"#utility.yul\":19491:19554   */\n      tag_635\n        /* \"#utility.yul\":19546:19553   */\n      dup10\n        /* \"#utility.yul\":19537:19543   */\n      dup3\n        /* \"#utility.yul\":19526:19535   */\n      dup11\n        /* \"#utility.yul\":19522:19544   */\n      add\n        /* \"#utility.yul\":19491:19554   */\n      tag_410\n      jump\t// in\n    tag_635:\n        /* \"#utility.yul\":19481:19554   */\n      swap6\n      pop\n        /* \"#utility.yul\":19276:19564   */\n      pop\n        /* \"#utility.yul\":19603:19605   */\n      0x40\n        /* \"#utility.yul\":19629:19682   */\n      tag_636\n        /* \"#utility.yul\":19674:19681   */\n      dup10\n        /* \"#utility.yul\":19665:19671   */\n      dup3\n        /* \"#utility.yul\":19654:19663   */\n      dup11\n        /* \"#utility.yul\":19650:19672   */\n      add\n        /* \"#utility.yul\":19629:19682   */\n      tag_415\n      jump\t// in\n    tag_636:\n        /* \"#utility.yul\":19619:19682   */\n      swap5\n      pop\n        /* \"#utility.yul\":19574:19692   */\n      pop\n        /* \"#utility.yul\":19759:19761   */\n      0x60\n        /* \"#utility.yul\":19748:19757   */\n      dup8\n        /* \"#utility.yul\":19744:19762   */\n      add\n        /* \"#utility.yul\":19731:19763   */\n      calldataload\n        /* \"#utility.yul\":19790:19808   */\n      0xffffffffffffffff\n        /* \"#utility.yul\":19782:19788   */\n      dup2\n        /* \"#utility.yul\":19779:19809   */\n      gt\n        /* \"#utility.yul\":19776:19893   */\n      iszero\n      tag_637\n      jumpi\n        /* \"#utility.yul\":19812:19891   */\n      tag_638\n      tag_400\n      jump\t// in\n    tag_638:\n        /* \"#utility.yul\":19776:19893   */\n    tag_637:\n        /* \"#utility.yul\":19917:19980   */\n      tag_639\n        /* \"#utility.yul\":19972:19979   */\n      dup10\n        /* \"#utility.yul\":19963:19969   */\n      dup3\n        /* \"#utility.yul\":19952:19961   */\n      dup11\n        /* \"#utility.yul\":19948:19970   */\n      add\n        /* \"#utility.yul\":19917:19980   */\n      tag_410\n      jump\t// in\n    tag_639:\n        /* \"#utility.yul\":19907:19980   */\n      swap4\n      pop\n        /* \"#utility.yul\":19702:19990   */\n      pop\n        /* \"#utility.yul\":20029:20032   */\n      0x80\n        /* \"#utility.yul\":20056:20109   */\n      tag_640\n        /* \"#utility.yul\":20101:20108   */\n      dup10\n        /* \"#utility.yul\":20092:20098   */\n      dup3\n        /* \"#utility.yul\":20081:20090   */\n      dup11\n        /* \"#utility.yul\":20077:20099   */\n      add\n        /* \"#utility.yul\":20056:20109   */\n      tag_415\n      jump\t// in\n    tag_640:\n        /* \"#utility.yul\":20046:20109   */\n      swap3\n      pop\n        /* \"#utility.yul\":20000:20119   */\n      pop\n        /* \"#utility.yul\":20186:20189   */\n      0xa0\n        /* \"#utility.yul\":20175:20184   */\n      dup8\n        /* \"#utility.yul\":20171:20190   */\n      add\n        /* \"#utility.yul\":20158:20191   */\n      calldataload\n        /* \"#utility.yul\":20218:20236   */\n      0xffffffffffffffff\n        /* \"#utility.yul\":20210:20216   */\n      dup2\n        /* \"#utility.yul\":20207:20237   */\n      gt\n        /* \"#utility.yul\":20204:20321   */\n      iszero\n      tag_641\n      jumpi\n        /* \"#utility.yul\":20240:20319   */\n      tag_642\n      tag_400\n      jump\t// in\n    tag_642:\n        /* \"#utility.yul\":20204:20321   */\n    tag_641:\n        /* \"#utility.yul\":20345:20408   */\n      tag_643\n        /* \"#utility.yul\":20400:20407   */\n      dup10\n        /* \"#utility.yul\":20391:20397   */\n      dup3\n        /* \"#utility.yul\":20380:20389   */\n      dup11\n        /* \"#utility.yul\":20376:20398   */\n      add\n        /* \"#utility.yul\":20345:20408   */\n      tag_410\n      jump\t// in\n    tag_643:\n        /* \"#utility.yul\":20335:20408   */\n      swap2\n      pop\n        /* \"#utility.yul\":20129:20418   */\n      pop\n        /* \"#utility.yul\":18648:20425   */\n      swap3\n      swap6\n      pop\n      swap3\n      swap6\n      pop\n      swap3\n      swap6\n      jump\t// out\n        /* \"#utility.yul\":20431:22182   */\n    tag_122:\n        /* \"#utility.yul\":20887:20891   */\n      0x00\n        /* \"#utility.yul\":20925:20928   */\n      0x0160\n        /* \"#utility.yul\":20914:20923   */\n      dup3\n        /* \"#utility.yul\":20910:20929   */\n      add\n        /* \"#utility.yul\":20902:20929   */\n      swap1\n      pop\n        /* \"#utility.yul\":20975:20984   */\n      dup2\n        /* \"#utility.yul\":20969:20973   */\n      dup2\n        /* \"#utility.yul\":20965:20985   */\n      sub\n        /* \"#utility.yul\":20961:20962   */\n      0x00\n        /* \"#utility.yul\":20950:20959   */\n      dup4\n        /* \"#utility.yul\":20946:20963   */\n      add\n        /* \"#utility.yul\":20939:20986   */\n      mstore\n        /* \"#utility.yul\":21003:21081   */\n      tag_645\n        /* \"#utility.yul\":21076:21080   */\n      dup2\n        /* \"#utility.yul\":21067:21073   */\n      dup15\n        /* \"#utility.yul\":21003:21081   */\n      tag_428\n      jump\t// in\n    tag_645:\n        /* \"#utility.yul\":20995:21081   */\n      swap1\n      pop\n        /* \"#utility.yul\":21128:21137   */\n      dup2\n        /* \"#utility.yul\":21122:21126   */\n      dup2\n        /* \"#utility.yul\":21118:21138   */\n      sub\n        /* \"#utility.yul\":21113:21115   */\n      0x20\n        /* \"#utility.yul\":21102:21111   */\n      dup4\n        /* \"#utility.yul\":21098:21116   */\n      add\n        /* \"#utility.yul\":21091:21139   */\n      mstore\n        /* \"#utility.yul\":21156:21234   */\n      tag_646\n        /* \"#utility.yul\":21229:21233   */\n      dup2\n        /* \"#utility.yul\":21220:21226   */\n      dup14\n        /* \"#utility.yul\":21156:21234   */\n      tag_428\n      jump\t// in\n    tag_646:\n        /* \"#utility.yul\":21148:21234   */\n      swap1\n      pop\n        /* \"#utility.yul\":21281:21290   */\n      dup2\n        /* \"#utility.yul\":21275:21279   */\n      dup2\n        /* \"#utility.yul\":21271:21291   */\n      sub\n        /* \"#utility.yul\":21266:21268   */\n      0x40\n        /* \"#utility.yul\":21255:21264   */\n      dup4\n        /* \"#utility.yul\":21251:21269   */\n      add\n        /* \"#utility.yul\":21244:21292   */\n      mstore\n        /* \"#utility.yul\":21309:21387   */\n      tag_647\n        /* \"#utility.yul\":21382:21386   */\n      dup2\n        /* \"#utility.yul\":21373:21379   */\n      dup13\n        /* \"#utility.yul\":21309:21387   */\n      tag_428\n      jump\t// in\n    tag_647:\n        /* \"#utility.yul\":21301:21387   */\n      swap1\n      pop\n        /* \"#utility.yul\":21397:21469   */\n      tag_648\n        /* \"#utility.yul\":21465:21467   */\n      0x60\n        /* \"#utility.yul\":21454:21463   */\n      dup4\n        /* \"#utility.yul\":21450:21468   */\n      add\n        /* \"#utility.yul\":21441:21447   */\n      dup12\n        /* \"#utility.yul\":21397:21469   */\n      tag_397\n      jump\t// in\n    tag_648:\n        /* \"#utility.yul\":21517:21526   */\n      dup2\n        /* \"#utility.yul\":21511:21515   */\n      dup2\n        /* \"#utility.yul\":21507:21527   */\n      sub\n        /* \"#utility.yul\":21501:21504   */\n      0x80\n        /* \"#utility.yul\":21490:21499   */\n      dup4\n        /* \"#utility.yul\":21486:21505   */\n      add\n        /* \"#utility.yul\":21479:21528   */\n      mstore\n        /* \"#utility.yul\":21545:21623   */\n      tag_649\n        /* \"#utility.yul\":21618:21622   */\n      dup2\n        /* \"#utility.yul\":21609:21615   */\n      dup11\n        /* \"#utility.yul\":21545:21623   */\n      tag_428\n      jump\t// in\n    tag_649:\n        /* \"#utility.yul\":21537:21623   */\n      swap1\n      pop\n        /* \"#utility.yul\":21633:21700   */\n      tag_650\n        /* \"#utility.yul\":21695:21698   */\n      0xa0\n        /* \"#utility.yul\":21684:21693   */\n      dup4\n        /* \"#utility.yul\":21680:21699   */\n      add\n        /* \"#utility.yul\":21671:21677   */\n      dup10\n        /* \"#utility.yul\":21633:21700   */\n      tag_430\n      jump\t// in\n    tag_650:\n        /* \"#utility.yul\":21710:21777   */\n      tag_651\n        /* \"#utility.yul\":21772:21775   */\n      0xc0\n        /* \"#utility.yul\":21761:21770   */\n      dup4\n        /* \"#utility.yul\":21757:21776   */\n      add\n        /* \"#utility.yul\":21748:21754   */\n      dup9\n        /* \"#utility.yul\":21710:21777   */\n      tag_430\n      jump\t// in\n    tag_651:\n        /* \"#utility.yul\":21787:21860   */\n      tag_652\n        /* \"#utility.yul\":21855:21858   */\n      0xe0\n        /* \"#utility.yul\":21844:21853   */\n      dup4\n        /* \"#utility.yul\":21840:21859   */\n      add\n        /* \"#utility.yul\":21831:21837   */\n      dup8\n        /* \"#utility.yul\":21787:21860   */\n      tag_397\n      jump\t// in\n    tag_652:\n        /* \"#utility.yul\":21908:21917   */\n      dup2\n        /* \"#utility.yul\":21902:21906   */\n      dup2\n        /* \"#utility.yul\":21898:21918   */\n      sub\n        /* \"#utility.yul\":21892:21895   */\n      0x0100\n        /* \"#utility.yul\":21881:21890   */\n      dup4\n        /* \"#utility.yul\":21877:21896   */\n      add\n        /* \"#utility.yul\":21870:21919   */\n      mstore\n        /* \"#utility.yul\":21936:22014   */\n      tag_653\n        /* \"#utility.yul\":22009:22013   */\n      dup2\n        /* \"#utility.yul\":22000:22006   */\n      dup7\n        /* \"#utility.yul\":21936:22014   */\n      tag_428\n      jump\t// in\n    tag_653:\n        /* \"#utility.yul\":21928:22014   */\n      swap1\n      pop\n        /* \"#utility.yul\":22024:22097   */\n      tag_654\n        /* \"#utility.yul\":22092:22095   */\n      0x0120\n        /* \"#utility.yul\":22081:22090   */\n      dup4\n        /* \"#utility.yul\":22077:22096   */\n      add\n        /* \"#utility.yul\":22068:22074   */\n      dup6\n        /* \"#utility.yul\":22024:22097   */\n      tag_397\n      jump\t// in\n    tag_654:\n        /* \"#utility.yul\":22107:22175   */\n      tag_655\n        /* \"#utility.yul\":22170:22173   */\n      0x0140\n        /* \"#utility.yul\":22159:22168   */\n      dup4\n        /* \"#utility.yul\":22155:22174   */\n      add\n        /* \"#utility.yul\":22145:22152   */\n      dup5\n        /* \"#utility.yul\":22107:22175   */\n      tag_430\n      jump\t// in\n    tag_655:\n        /* \"#utility.yul\":20431:22182   */\n      swap13\n      swap12\n      pop\n      pop\n      pop\n      pop\n      pop\n      pop\n      pop\n      pop\n      pop\n      pop\n      pop\n      pop\n      jump\t// out\n        /* \"#utility.yul\":22188:24024   */\n    tag_127:\n        /* \"#utility.yul\":22665:22669   */\n      0x00\n        /* \"#utility.yul\":22703:22706   */\n      0x0120\n        /* \"#utility.yul\":22692:22701   */\n      dup3\n        /* \"#utility.yul\":22688:22707   */\n      add\n        /* \"#utility.yul\":22680:22707   */\n      swap1\n      pop\n        /* \"#utility.yul\":22753:22762   */\n      dup2\n        /* \"#utility.yul\":22747:22751   */\n      dup2\n        /* \"#utility.yul\":22743:22763   */\n      sub\n        /* \"#utility.yul\":22739:22740   */\n      0x00\n        /* \"#utility.yul\":22728:22737   */\n      dup4\n        /* \"#utility.yul\":22724:22741   */\n      add\n        /* \"#utility.yul\":22717:22764   */\n      mstore\n        /* \"#utility.yul\":22781:22859   */\n      tag_657\n        /* \"#utility.yul\":22854:22858   */\n      dup2\n        /* \"#utility.yul\":22845:22851   */\n      dup13\n        /* \"#utility.yul\":22781:22859   */\n      tag_428\n      jump\t// in\n    tag_657:\n        /* \"#utility.yul\":22773:22859   */\n      swap1\n      pop\n        /* \"#utility.yul\":22906:22915   */\n      dup2\n        /* \"#utility.yul\":22900:22904   */\n      dup2\n        /* \"#utility.yul\":22896:22916   */\n      sub\n        /* \"#utility.yul\":22891:22893   */\n      0x20\n        /* \"#utility.yul\":22880:22889   */\n      dup4\n        /* \"#utility.yul\":22876:22894   */\n      add\n        /* \"#utility.yul\":22869:22917   */\n      mstore\n        /* \"#utility.yul\":22934:23012   */\n      tag_658\n        /* \"#utility.yul\":23007:23011   */\n      dup2\n        /* \"#utility.yul\":22998:23004   */\n      dup12\n        /* \"#utility.yul\":22934:23012   */\n      tag_428\n      jump\t// in\n    tag_658:\n        /* \"#utility.yul\":22926:23012   */\n      swap1\n      pop\n        /* \"#utility.yul\":23059:23068   */\n      dup2\n        /* \"#utility.yul\":23053:23057   */\n      dup2\n        /* \"#utility.yul\":23049:23069   */\n      sub\n        /* \"#utility.yul\":23044:23046   */\n      0x40\n        /* \"#utility.yul\":23033:23042   */\n      dup4\n        /* \"#utility.yul\":23029:23047   */\n      add\n        /* \"#utility.yul\":23022:23070   */\n      mstore\n        /* \"#utility.yul\":23087:23165   */\n      tag_659\n        /* \"#utility.yul\":23160:23164   */\n      dup2\n        /* \"#utility.yul\":23151:23157   */\n      dup11\n        /* \"#utility.yul\":23087:23165   */\n      tag_428\n      jump\t// in\n    tag_659:\n        /* \"#utility.yul\":23079:23165   */\n      swap1\n      pop\n        /* \"#utility.yul\":23212:23221   */\n      dup2\n        /* \"#utility.yul\":23206:23210   */\n      dup2\n        /* \"#utility.yul\":23202:23222   */\n      sub\n        /* \"#utility.yul\":23197:23199   */\n      0x60\n        /* \"#utility.yul\":23186:23195   */\n      dup4\n        /* \"#utility.yul\":23182:23200   */\n      add\n        /* \"#utility.yul\":23175:23223   */\n      mstore\n        /* \"#utility.yul\":23240:23318   */\n      tag_660\n        /* \"#utility.yul\":23313:23317   */\n      dup2\n        /* \"#utility.yul\":23304:23310   */\n      dup10\n        /* \"#utility.yul\":23240:23318   */\n      tag_428\n      jump\t// in\n    tag_660:\n        /* \"#utility.yul\":23232:23318   */\n      swap1\n      pop\n        /* \"#utility.yul\":23366:23375   */\n      dup2\n        /* \"#utility.yul\":23360:23364   */\n      dup2\n        /* \"#utility.yul\":23356:23376   */\n      sub\n        /* \"#utility.yul\":23350:23353   */\n      0x80\n        /* \"#utility.yul\":23339:23348   */\n      dup4\n        /* \"#utility.yul\":23335:23354   */\n      add\n        /* \"#utility.yul\":23328:23377   */\n      mstore\n        /* \"#utility.yul\":23394:23472   */\n      tag_661\n        /* \"#utility.yul\":23467:23471   */\n      dup2\n        /* \"#utility.yul\":23458:23464   */\n      dup9\n        /* \"#utility.yul\":23394:23472   */\n      tag_428\n      jump\t// in\n    tag_661:\n        /* \"#utility.yul\":23386:23472   */\n      swap1\n      pop\n        /* \"#utility.yul\":23520:23529   */\n      dup2\n        /* \"#utility.yul\":23514:23518   */\n      dup2\n        /* \"#utility.yul\":23510:23530   */\n      sub\n        /* \"#utility.yul\":23504:23507   */\n      0xa0\n        /* \"#utility.yul\":23493:23502   */\n      dup4\n        /* \"#utility.yul\":23489:23508   */\n      add\n        /* \"#utility.yul\":23482:23531   */\n      mstore\n        /* \"#utility.yul\":23548:23626   */\n      tag_662\n        /* \"#utility.yul\":23621:23625   */\n      dup2\n        /* \"#utility.yul\":23612:23618   */\n      dup8\n        /* \"#utility.yul\":23548:23626   */\n      tag_428\n      jump\t// in\n    tag_662:\n        /* \"#utility.yul\":23540:23626   */\n      swap1\n      pop\n        /* \"#utility.yul\":23674:23683   */\n      dup2\n        /* \"#utility.yul\":23668:23672   */\n      dup2\n        /* \"#utility.yul\":23664:23684   */\n      sub\n        /* \"#utility.yul\":23658:23661   */\n      0xc0\n        /* \"#utility.yul\":23647:23656   */\n      dup4\n        /* \"#utility.yul\":23643:23662   */\n      add\n        /* \"#utility.yul\":23636:23685   */\n      mstore\n        /* \"#utility.yul\":23702:23780   */\n      tag_663\n        /* \"#utility.yul\":23775:23779   */\n      dup2\n        /* \"#utility.yul\":23766:23772   */\n      dup7\n        /* \"#utility.yul\":23702:23780   */\n      tag_428\n      jump\t// in\n    tag_663:\n        /* \"#utility.yul\":23694:23780   */\n      swap1\n      pop\n        /* \"#utility.yul\":23828:23837   */\n      dup2\n        /* \"#utility.yul\":23822:23826   */\n      dup2\n        /* \"#utility.yul\":23818:23838   */\n      sub\n        /* \"#utility.yul\":23812:23815   */\n      0xe0\n        /* \"#utility.yul\":23801:23810   */\n      dup4\n        /* \"#utility.yul\":23797:23816   */\n      add\n        /* \"#utility.yul\":23790:23839   */\n      mstore\n        /* \"#utility.yul\":23856:23934   */\n      tag_664\n        /* \"#utility.yul\":23929:23933   */\n      dup2\n        /* \"#utility.yul\":23920:23926   */\n      dup6\n        /* \"#utility.yul\":23856:23934   */\n      tag_428\n      jump\t// in\n    tag_664:\n        /* \"#utility.yul\":23848:23934   */\n      swap1\n      pop\n        /* \"#utility.yul\":23944:24017   */\n      tag_665\n        /* \"#utility.yul\":24012:24015   */\n      0x0100\n        /* \"#utility.yul\":24001:24010   */\n      dup4\n        /* \"#utility.yul\":23997:24016   */\n      add\n        /* \"#utility.yul\":23988:23994   */\n      dup5\n        /* \"#utility.yul\":23944:24017   */\n      tag_397\n      jump\t// in\n    tag_665:\n        /* \"#utility.yul\":22188:24024   */\n      swap11\n      swap10\n      pop\n      pop\n      pop\n      pop\n      pop\n      pop\n      pop\n      pop\n      pop\n      pop\n      jump\t// out\n        /* \"#utility.yul\":24030:24178   */\n    tag_440:\n        /* \"#utility.yul\":24132:24143   */\n      0x00\n        /* \"#utility.yul\":24169:24172   */\n      dup2\n        /* \"#utility.yul\":24154:24172   */\n      swap1\n      pop\n        /* \"#utility.yul\":24030:24178   */\n      swap3\n      swap2\n      pop\n      pop\n      jump\t// out\n        /* \"#utility.yul\":24184:24561   */\n    tag_441:\n        /* \"#utility.yul\":24290:24293   */\n      0x00\n        /* \"#utility.yul\":24318:24357   */\n      tag_668\n        /* \"#utility.yul\":24351:24356   */\n      dup3\n        /* \"#utility.yul\":24318:24357   */\n      tag_419\n      jump\t// in\n    tag_668:\n        /* \"#utility.yul\":24373:24462   */\n      tag_669\n        /* \"#utility.yul\":24455:24461   */\n      dup2\n        /* \"#utility.yul\":24450:24453   */\n      dup6\n        /* \"#utility.yul\":24373:24462   */\n      tag_440\n      jump\t// in\n    tag_669:\n        /* \"#utility.yul\":24366:24462   */\n      swap4\n      pop\n        /* \"#utility.yul\":24471:24523   */\n      tag_670\n        /* \"#utility.yul\":24516:24522   */\n      dup2\n        /* \"#utility.yul\":24511:24514   */\n      dup6\n        /* \"#utility.yul\":24504:24508   */\n      0x20\n        /* \"#utility.yul\":24497:24502   */\n      dup7\n        /* \"#utility.yul\":24493:24509   */\n      add\n        /* \"#utility.yul\":24471:24523   */\n      tag_421\n      jump\t// in\n    tag_670:\n        /* \"#utility.yul\":24548:24554   */\n      dup1\n        /* \"#utility.yul\":24543:24546   */\n      dup5\n        /* \"#utility.yul\":24539:24555   */\n      add\n        /* \"#utility.yul\":24532:24555   */\n      swap2\n      pop\n        /* \"#utility.yul\":24294:24561   */\n      pop\n        /* \"#utility.yul\":24184:24561   */\n      swap3\n      swap2\n      pop\n      pop\n      jump\t// out\n        /* \"#utility.yul\":24567:24842   */\n    tag_153:\n        /* \"#utility.yul\":24699:24702   */\n      0x00\n        /* \"#utility.yul\":24721:24816   */\n      tag_672\n        /* \"#utility.yul\":24812:24815   */\n      dup3\n        /* \"#utility.yul\":24803:24809   */\n      dup5\n        /* \"#utility.yul\":24721:24816   */\n      tag_441\n      jump\t// in\n    tag_672:\n        /* \"#utility.yul\":24714:24816   */\n      swap2\n      pop\n        /* \"#utility.yul\":24833:24836   */\n      dup2\n        /* \"#utility.yul\":24826:24836   */\n      swap1\n      pop\n        /* \"#utility.yul\":24567:24842   */\n      swap3\n      swap2\n      pop\n      pop\n      jump\t// out\n        /* \"#utility.yul\":24848:25028   */\n    tag_442:\n        /* \"#utility.yul\":24896:24973   */\n      0x4e487b7100000000000000000000000000000000000000000000000000000000\n        /* \"#utility.yul\":24893:24894   */\n      0x00\n        /* \"#utility.yul\":24886:24974   */\n      mstore\n        /* \"#utility.yul\":24993:24997   */\n      0x22\n        /* \"#utility.yul\":24990:24991   */\n      0x04\n        /* \"#utility.yul\":24983:24998   */\n      mstore\n        /* \"#utility.yul\":25017:25021   */\n      0x24\n        /* \"#utility.yul\":25014:25015   */\n      0x00\n        /* \"#utility.yul\":25007:25022   */\n      revert\n        /* \"#utility.yul\":25034:25354   */\n    tag_170:\n        /* \"#utility.yul\":25078:25084   */\n      0x00\n        /* \"#utility.yul\":25115:25116   */\n      0x02\n        /* \"#utility.yul\":25109:25113   */\n      dup3\n        /* \"#utility.yul\":25105:25117   */\n      div\n        /* \"#utility.yul\":25095:25117   */\n      swap1\n      pop\n        /* \"#utility.yul\":25162:25163   */\n      0x01\n        /* \"#utility.yul\":25156:25160   */\n      dup3\n        /* \"#utility.yul\":25152:25164   */\n      and\n        /* \"#utility.yul\":25183:25201   */\n      dup1\n        /* \"#utility.yul\":25173:25254   */\n      tag_675\n      jumpi\n        /* \"#utility.yul\":25239:25243   */\n      0x7f\n        /* \"#utility.yul\":25231:25237   */\n      dup3\n        /* \"#utility.yul\":25227:25244   */\n      and\n        /* \"#utility.yul\":25217:25244   */\n      swap2\n      pop\n        /* \"#utility.yul\":25173:25254   */\n    tag_675:\n        /* \"#utility.yul\":25301:25303   */\n      0x20\n        /* \"#utility.yul\":25293:25299   */\n      dup3\n        /* \"#utility.yul\":25290:25304   */\n      lt\n        /* \"#utility.yul\":25270:25288   */\n      dup2\n        /* \"#utility.yul\":25267:25305   */\n      eq\n        /* \"#utility.yul\":25264:25348   */\n      iszero\n      tag_676\n      jumpi\n        /* \"#utility.yul\":25320:25338   */\n      tag_677\n      tag_442\n      jump\t// in\n    tag_677:\n        /* \"#utility.yul\":25264:25348   */\n    tag_676:\n        /* \"#utility.yul\":25085:25354   */\n      pop\n        /* \"#utility.yul\":25034:25354   */\n      swap2\n      swap1\n      pop\n      jump\t// out\n        /* \"#utility.yul\":25360:25540   */\n    tag_443:\n        /* \"#utility.yul\":25408:25485   */\n      0x4e487b7100000000000000000000000000000000000000000000000000000000\n        /* \"#utility.yul\":25405:25406   */\n      0x00\n        /* \"#utility.yul\":25398:25486   */\n      mstore\n        /* \"#utility.yul\":25505:25509   */\n      0x11\n        /* \"#utility.yul\":25502:25503   */\n      0x04\n        /* \"#utility.yul\":25495:25510   */\n      mstore\n        /* \"#utility.yul\":25529:25533   */\n      0x24\n        /* \"#utility.yul\":25526:25527   */\n      0x00\n        /* \"#utility.yul\":25519:25534   */\n      revert\n        /* \"#utility.yul\":25546:25851   */\n    tag_270:\n        /* \"#utility.yul\":25586:25589   */\n      0x00\n        /* \"#utility.yul\":25605:25625   */\n      tag_680\n        /* \"#utility.yul\":25623:25624   */\n      dup3\n        /* \"#utility.yul\":25605:25625   */\n      tag_411\n      jump\t// in\n    tag_680:\n        /* \"#utility.yul\":25600:25625   */\n      swap2\n      pop\n        /* \"#utility.yul\":25639:25659   */\n      tag_681\n        /* \"#utility.yul\":25657:25658   */\n      dup4\n        /* \"#utility.yul\":25639:25659   */\n      tag_411\n      jump\t// in\n    tag_681:\n        /* \"#utility.yul\":25634:25659   */\n      swap3\n      pop\n        /* \"#utility.yul\":25793:25794   */\n      dup3\n        /* \"#utility.yul\":25725:25791   */\n      0xffffffffffffffffffffffffffffffffffffffffffffffffffffffffffffffff\n        /* \"#utility.yul\":25721:25795   */\n      sub\n        /* \"#utility.yul\":25718:25719   */\n      dup3\n        /* \"#utility.yul\":25715:25796   */\n      gt\n        /* \"#utility.yul\":25712:25819   */\n      iszero\n      tag_682\n      jumpi\n        /* \"#utility.yul\":25799:25817   */\n      tag_683\n      tag_443\n      jump\t// in\n    tag_683:\n        /* \"#utility.yul\":25712:25819   */\n    tag_682:\n        /* \"#utility.yul\":25843:25844   */\n      dup3\n        /* \"#utility.yul\":25840:25841   */\n      dup3\n        /* \"#utility.yul\":25836:25845   */\n      add\n        /* \"#utility.yul\":25829:25845   */\n      swap1\n      pop\n        /* \"#utility.yul\":25546:25851   */\n      swap3\n      swap2\n      pop\n      pop\n      jump\t// out\n\n    auxdata: 0xa2646970667358221220e120f25a767c98d388984dd48e770c34c324b0864c64ef727a72b9bffd6f418264736f6c634300080a0033\n}\n","bytecode":{"linkReferences":{},"object":"60806040523480156200001157600080fd5b5060405162003a9438038062003a948339818101604052810190620000379190620002ec565b80600190805190602001906200004f9291906200009f565b50336000806101000a81548173ffffffffffffffffffffffffffffffffffffffff021916908373ffffffffffffffffffffffffffffffffffffffff160217905550600060098190555050620003a2565b828054620000ad906200036c565b90600052602060002090601f016020900481019282620000d157600085556200011d565b82601f10620000ec57805160ff19168380011785556200011d565b828001600101855582156200011d579182015b828111156200011c578251825591602001919060010190620000ff565b5b5090506200012c919062000130565b5090565b5b808211156200014b57600081600090555060010162000131565b5090565b6000604051905090565b600080fd5b600080fd5b600080fd5b600080fd5b6000601f19601f8301169050919050565b7f4e487b7100000000000000000000000000000000000000000000000000000000600052604160045260246000fd5b620001b8826200016d565b810181811067ffffffffffffffff82111715620001da57620001d96200017e565b5b80604052505050565b6000620001ef6200014f565b9050620001fd8282620001ad565b919050565b600067ffffffffffffffff82111562000220576200021f6200017e565b5b6200022b826200016d565b9050602081019050919050565b60005b83811015620002585780820151818401526020810190506200023b565b8381111562000268576000848401525b50505050565b6000620002856200027f8462000202565b620001e3565b905082815260208101848484011115620002a457620002a362000168565b5b620002b184828562000238565b509392505050565b600082601f830112620002d157620002d062000163565b5b8151620002e38482602086016200026e565b91505092915050565b60006020828403121562000305576200030462000159565b5b600082015167ffffffffffffffff8111156200032657620003256200015e565b5b6200033484828501620002b9565b91505092915050565b7f4e487b7100000000000000000000000000000000000000000000000000000000600052602260045260246000fd5b600060028204905060018216806200038557607f821691505b602082108114156200039c576200039b6200033d565b5b50919050565b6136e280620003b26000396000f3fe608060405234801561001057600080fd5b50600436106101cf5760003560e01c806364efb22b11610104578063be87bb8a116100a2578063d896fc9611610071578063d896fc9614610566578063db9573e114610582578063df6fa20e146105a0578063e15c1278146105bc576101cf565b8063be87bb8a146104b2578063c4a0086f146104ea578063cbd5121c1461051a578063cddb61b71461054a576101cf565b8063935b377b116100de578063935b377b146104245780639a3eb0e214610440578063ade795511461045c578063b1c8ad0d14610478576101cf565b806364efb22b146103a657806367b57142146103d65780638b5c933514610406576101cf565b80631d6f67eb116101715780632de8f46d1161014b5780632de8f46d1461031a578063429b62e51461033857806353beb6911461036c57806364ddfa2914610388576101cf565b80631d6f67eb146102b2578063245351c9146102ce5780632a979f31146102ea576101cf565b80631510f0d5116101ad5780631510f0d51461023e5780631a994ed81461025a5780631af1a768146102785780631c9afd0f14610294576101cf565b8063045b3034146101d45780630e2c6535146101f257806313718c971461020e575b600080fd5b6101dc6105d8565b6040516101e991906129e3565b60405180910390f35b61020c60048036038101906102079190612b58565b6105fc565b005b61022860048036038101906102239190612bd7565b6106a0565b60405161023591906129e3565b60405180910390f35b61025860048036038101906102539190612c30565b6106df565b005b6102626107cc565b60405161026f9190612e35565b60405180910390f35b610292600480360381019061028d9190612e57565b6108fb565b005b61029c6109b1565b6040516102a99190612e93565b60405180910390f35b6102cc60048036038101906102c79190612b58565b6109b7565b005b6102e860048036038101906102e39190612eae565b6109fa565b005b61030460048036038101906102ff9190612bd7565b610b10565b604051610311919061308e565b60405180910390f35b610322610bbc565b60405161032f919061308e565b60405180910390f35b610352600480360381019061034d9190612e57565b610ca6565b6040516103639594939291906130cb565b60405180910390f35b61038660048036038101906103819190612b58565b610ea1565b005b610390610f27565b60405161039d91906131f1565b60405180910390f35b6103c060048036038101906103bb9190612e57565b61100d565b6040516103cd91906132a6565b60405180910390f35b6103f060048036038101906103eb9190612e57565b6112e5565b6040516103fd91906132c8565b60405180910390f35b61040e611305565b60405161041b91906132c8565b60405180910390f35b61043e60048036038101906104399190612b58565b611364565b005b61045a60048036038101906104559190612b58565b6113a7565b005b610476600480360381019061047191906132e3565b6114ab565b005b610492600480360381019061048d9190612b58565b6117b0565b6040516104a99b9a999897969594939291906133e0565b60405180910390f35b6104cc60048036038101906104c79190612e57565b611b4f565b6040516104e1999897969594939291906134ae565b60405180910390f35b61050460048036038101906104ff9190612b58565b611ffd565b60405161051191906132c8565b60405180910390f35b610534600480360381019061052f9190612bd7565b612033565b604051610541919061308e565b60405180910390f35b610564600480360381019061055f9190612c30565b6120df565b005b610580600480360381019061057b9190612b58565b61240c565b005b61058a61244f565b60405161059791906132c8565b60405180910390f35b6105ba60048036038101906105b59190612e57565b6126d3565b005b6105d660048036038101906105d19190612b58565b612789565b005b60008054906101000a900473ffffffffffffffffffffffffffffffffffffffff1681565b600060088260405161060e91906135af565b9081526020016040518091039020905060008160070160146101000a81548160ff02191690831515021790555060008160050160016101000a81548160ff02191690831515021790555060008160050160026101000a81548173ffffffffffffffffffffffffffffffffffffffff021916908373ffffffffffffffffffffffffffffffffffffffff1602179055505050565b600581815481106106b057600080fd5b906000526020600020016000915054906101000a900473ffffffffffffffffffffffffffffffffffffffff1681565b60008054906101000a900473ffffffffffffffffffffffffffffffffffffffff1673ffffffffffffffffffffffffffffffffffffffff163373ffffffffffffffffffffffffffffffffffffffff161461073757600080fd5b6000600260008373ffffffffffffffffffffffffffffffffffffffff1673ffffffffffffffffffffffffffffffffffffffff16815260200190815260200160002090508481600001908051906020019061079292919061282b565b50838160010190805190602001906107ab92919061282b565b50828160030190805190602001906107c492919061282b565b505050505050565b6060600360003373ffffffffffffffffffffffffffffffffffffffff1673ffffffffffffffffffffffffffffffffffffffff16815260200190815260200160002060009054906101000a900460ff1661082457600080fd5b6006805480602002602001604051908101604052809291908181526020016000905b828210156108f2578382906000526020600020018054610865906135f5565b80601f0160208091040260200160405190810160405280929190818152602001828054610891906135f5565b80156108de5780601f106108b3576101008083540402835291602001916108de565b820191906000526020600020905b8154815290600101906020018083116108c157829003601f168201915b505050505081526020019060010190610846565b50505050905090565b60008054906101000a900473ffffffffffffffffffffffffffffffffffffffff1673ffffffffffffffffffffffffffffffffffffffff163373ffffffffffffffffffffffffffffffffffffffff161461095357600080fd5b6001600260008373ffffffffffffffffffffffffffffffffffffffff1673ffffffffffffffffffffffffffffffffffffffff16815260200190815260200160002060040160006101000a81548160ff02191690831515021790555050565b60095481565b60006008826040516109c991906135af565b9081526020016040518091039020905060018160070160146101000a81548160ff0219169083151502179055505050565b6000600b60003373ffffffffffffffffffffffffffffffffffffffff1673ffffffffffffffffffffffffffffffffffffffff168152602001908152602001600020905088816000019080519060200190610a5592919061282b565b5087816001019080519060200190610a6e92919061282b565b5086816002019080519060200190610a8792919061282b565b5085816003019080519060200190610aa092919061282b565b5084816004019080519060200190610ab992919061282b565b5083816005019080519060200190610ad292919061282b565b5082816006019080519060200190610aeb92919061282b565b5081816007019080519060200190610b0492919061282b565b50505050505050505050565b60048181548110610b2057600080fd5b906000526020600020016000915090508054610b3b906135f5565b80601f0160208091040260200160405190810160405280929190818152602001828054610b67906135f5565b8015610bb45780601f10610b8957610100808354040283529160200191610bb4565b820191906000526020600020905b815481529060010190602001808311610b9757829003601f168201915b505050505081565b606060008054906101000a900473ffffffffffffffffffffffffffffffffffffffff1673ffffffffffffffffffffffffffffffffffffffff163373ffffffffffffffffffffffffffffffffffffffff1614610c1657600080fd5b60018054610c23906135f5565b80601f0160208091040260200160405190810160405280929190818152602001828054610c4f906135f5565b8015610c9c5780601f10610c7157610100808354040283529160200191610c9c565b820191906000526020600020905b815481529060010190602001808311610c7f57829003601f168201915b5050505050905090565b6002602052806000526040600020600091509050806000018054610cc9906135f5565b80601f0160208091040260200160405190810160405280929190818152602001828054610cf5906135f5565b8015610d425780601f10610d1757610100808354040283529160200191610d42565b820191906000526020600020905b815481529060010190602001808311610d2557829003601f168201915b505050505090806001018054610d57906135f5565b80601f0160208091040260200160405190810160405280929190818152602001828054610d83906135f5565b8015610dd05780601f10610da557610100808354040283529160200191610dd0565b820191906000526020600020905b815481529060010190602001808311610db357829003601f168201915b5050505050908060020160009054906101000a900473ffffffffffffffffffffffffffffffffffffffff1690806003018054610e0b906135f5565b80601f0160208091040260200160405190810160405280929190818152602001828054610e37906135f5565b8015610e845780601f10610e5957610100808354040283529160200191610e84565b820191906000526020600020905b815481529060010190602001808311610e6757829003601f168201915b5050505050908060040160009054906101000a900460ff16905085565b6000600882604051610eb391906135af565b9081526020016040518091039020905060018160050160016101000a81548160ff021916908315150217905550338160050160026101000a81548173ffffffffffffffffffffffffffffffffffffffff021916908373ffffffffffffffffffffffffffffffffffffffff1602179055505050565b606060008054906101000a900473ffffffffffffffffffffffffffffffffffffffff1673ffffffffffffffffffffffffffffffffffffffff163373ffffffffffffffffffffffffffffffffffffffff1614610f8157600080fd5b600580548060200260200160405190810160405280929190818152602001828054801561100357602002820191906000526020600020905b8160009054906101000a900473ffffffffffffffffffffffffffffffffffffffff1673ffffffffffffffffffffffffffffffffffffffff1681526020019060010190808311610fb9575b5050505050905090565b6110156128b1565b60008054906101000a900473ffffffffffffffffffffffffffffffffffffffff1673ffffffffffffffffffffffffffffffffffffffff163373ffffffffffffffffffffffffffffffffffffffff161461106d57600080fd5b600260008373ffffffffffffffffffffffffffffffffffffffff1673ffffffffffffffffffffffffffffffffffffffff1681526020019081526020016000206040518060a00160405290816000820180546110c7906135f5565b80601f01602080910402602001604051908101604052809291908181526020018280546110f3906135f5565b80156111405780601f1061111557610100808354040283529160200191611140565b820191906000526020600020905b81548152906001019060200180831161112357829003601f168201915b50505050508152602001600182018054611159906135f5565b80601f0160208091040260200160405190810160405280929190818152602001828054611185906135f5565b80156111d25780601f106111a7576101008083540402835291602001916111d2565b820191906000526020600020905b8154815290600101906020018083116111b557829003601f168201915b505050505081526020016002820160009054906101000a900473ffffffffffffffffffffffffffffffffffffffff1673ffffffffffffffffffffffffffffffffffffffff1673ffffffffffffffffffffffffffffffffffffffff168152602001600382018054611241906135f5565b80601f016020809104026020016040519081016040528092919081815260200182805461126d906135f5565b80156112ba5780601f1061128f576101008083540402835291602001916112ba565b820191906000526020600020905b81548152906001019060200180831161129d57829003601f168201915b505050505081526020016004820160009054906101000a900460ff1615151515815250509050919050565b600a6020528060005260406000206000915054906101000a900460ff1681565b6000600360003373ffffffffffffffffffffffffffffffffffffffff1673ffffffffffffffffffffffffffffffffffffffff16815260200190815260200160002060009054906101000a900460ff1661135d57600080fd5b6001905090565b600060088260405161137691906135af565b9081526020016040518091039020905060018160050160006101000a81548160ff0219169083151502179055505050565b60006008826040516113b991906135af565b90815260200160405180910390209050338160030160006101000a81548173ffffffffffffffffffffffffffffffffffffffff021916908373ffffffffffffffffffffffffffffffffffffffff16021790555060008160050160006101000a81548160ff02191690831515021790555060008160050160016101000a81548160ff02191690831515021790555060008160050160026101000a81548173ffffffffffffffffffffffffffffffffffffffff021916908373ffffffffffffffffffffffffffffffffffffffff16021790555060008160070160146101000a81548160ff0219169083151502179055505050565b600360003373ffffffffffffffffffffffffffffffffffffffff1673ffffffffffffffffffffffffffffffffffffffff16815260200190815260200160002060009054906101000a900460ff1661150157600080fd5b60078160405161151191906135af565b908152602001604051809103902060009054906101000a900460ff161561153757600080fd5b600160078260405161154991906135af565b908152602001604051809103902060006101000a81548160ff0219169083151502179055506006819080600181540180825580915050600190039060005260206000200160009091909190915090805190602001906115a992919061282b565b5060006008826040516115bc91906135af565b90815260200160405180910390209050600260008473ffffffffffffffffffffffffffffffffffffffff1673ffffffffffffffffffffffffffffffffffffffff1681526020019081526020016000206003018160000190805461161e906135f5565b6116299291906128f8565b508681600101908051906020019061164292919061282b565b508581600201908051906020019061165b92919061282b565b50848160030160006101000a81548173ffffffffffffffffffffffffffffffffffffffff021916908373ffffffffffffffffffffffffffffffffffffffff160217905550838160040190805190602001906116b792919061282b565b5060008160050160006101000a81548160ff02191690831515021790555060008160050160016101000a81548160ff02191690831515021790555060008160050160026101000a81548173ffffffffffffffffffffffffffffffffffffffff021916908373ffffffffffffffffffffffffffffffffffffffff1602179055508181600601908051906020019061174e92919061282b565b50828160070160006101000a81548173ffffffffffffffffffffffffffffffffffffffff021916908373ffffffffffffffffffffffffffffffffffffffff16021790555060016009546117a19190613656565b60098190555050505050505050565b6008818051602081018201805184825260208301602085012081835280955050505050506000915090508060000180546117e9906135f5565b80601f0160208091040260200160405190810160405280929190818152602001828054611815906135f5565b80156118625780601f1061183757610100808354040283529160200191611862565b820191906000526020600020905b81548152906001019060200180831161184557829003601f168201915b505050505090806001018054611877906135f5565b80601f01602080910402602001604051908101604052809291908181526020018280546118a3906135f5565b80156118f05780601f106118c5576101008083540402835291602001916118f0565b820191906000526020600020905b8154815290600101906020018083116118d357829003601f168201915b505050505090806002018054611905906135f5565b80601f0160208091040260200160405190810160405280929190818152602001828054611931906135f5565b801561197e5780601f106119535761010080835404028352916020019161197e565b820191906000526020600020905b81548152906001019060200180831161196157829003601f168201915b5050505050908060030160009054906101000a900473ffffffffffffffffffffffffffffffffffffffff16908060040180546119b9906135f5565b80601f01602080910402602001604051908101604052809291908181526020018280546119e5906135f5565b8015611a325780601f10611a0757610100808354040283529160200191611a32565b820191906000526020600020905b815481529060010190602001808311611a1557829003601f168201915b5050505050908060050160009054906101000a900460ff16908060050160019054906101000a900460ff16908060050160029054906101000a900473ffffffffffffffffffffffffffffffffffffffff1690806006018054611a93906135f5565b80601f0160208091040260200160405190810160405280929190818152602001828054611abf906135f5565b8015611b0c5780601f10611ae157610100808354040283529160200191611b0c565b820191906000526020600020905b815481529060010190602001808311611aef57829003601f168201915b5050505050908060070160009054906101000a900473ffffffffffffffffffffffffffffffffffffffff16908060070160149054906101000a900460ff1690508b565b600b602052806000526040600020600091509050806000018054611b72906135f5565b80601f0160208091040260200160405190810160405280929190818152602001828054611b9e906135f5565b8015611beb5780601f10611bc057610100808354040283529160200191611beb565b820191906000526020600020905b815481529060010190602001808311611bce57829003601f168201915b505050505090806001018054611c00906135f5565b80601f0160208091040260200160405190810160405280929190818152602001828054611c2c906135f5565b8015611c795780601f10611c4e57610100808354040283529160200191611c79565b820191906000526020600020905b815481529060010190602001808311611c5c57829003601f168201915b505050505090806002018054611c8e906135f5565b80601f0160208091040260200160405190810160405280929190818152602001828054611cba906135f5565b8015611d075780601f10611cdc57610100808354040283529160200191611d07565b820191906000526020600020905b815481529060010190602001808311611cea57829003601f168201915b505050505090806003018054611d1c906135f5565b80601f0160208091040260200160405190810160405280929190818152602001828054611d48906135f5565b8015611d955780601f10611d6a57610100808354040283529160200191611d95565b820191906000526020600020905b815481529060010190602001808311611d7857829003601f168201915b505050505090806004018054611daa906135f5565b80601f0160208091040260200160405190810160405280929190818152602001828054611dd6906135f5565b8015611e235780601f10611df857610100808354040283529160200191611e23565b820191906000526020600020905b815481529060010190602001808311611e0657829003601f168201915b505050505090806005018054611e38906135f5565b80601f0160208091040260200160405190810160405280929190818152602001828054611e64906135f5565b8015611eb15780601f10611e8657610100808354040283529160200191611eb1565b820191906000526020600020905b815481529060010190602001808311611e9457829003601f168201915b505050505090806006018054611ec6906135f5565b80601f0160208091040260200160405190810160405280929190818152602001828054611ef2906135f5565b8015611f3f5780601f10611f1457610100808354040283529160200191611f3f565b820191906000526020600020905b815481529060010190602001808311611f2257829003601f168201915b505050505090806007018054611f54906135f5565b80601f0160208091040260200160405190810160405280929190818152602001828054611f80906135f5565b8015611fcd5780601f10611fa257610100808354040283529160200191611fcd565b820191906000526020600020905b815481529060010190602001808311611fb057829003601f168201915b5050505050908060080160009054906101000a900473ffffffffffffffffffffffffffffffffffffffff16905089565b6007818051602081018201805184825260208301602085012081835280955050505050506000915054906101000a900460ff1681565b6006818154811061204357600080fd5b90600052602060002001600091509050805461205e906135f5565b80601f016020809104026020016040519081016040528092919081815260200182805461208a906135f5565b80156120d75780601f106120ac576101008083540402835291602001916120d7565b820191906000526020600020905b8154815290600101906020018083116120ba57829003601f168201915b505050505081565b60008054906101000a900473ffffffffffffffffffffffffffffffffffffffff1673ffffffffffffffffffffffffffffffffffffffff163373ffffffffffffffffffffffffffffffffffffffff161461213757600080fd5b61221a600260008373ffffffffffffffffffffffffffffffffffffffff1673ffffffffffffffffffffffffffffffffffffffff1681526020019081526020016000206003018054612187906135f5565b80601f01602080910402602001604051908101604052809291908181526020018280546121b3906135f5565b80156122005780601f106121d557610100808354040283529160200191612200565b820191906000526020600020905b8154815290600101906020018083116121e357829003601f168201915b505050505060405180602001604052806000815250612810565b1561225c5760048290806001815401808255809150506001900390600052602060002001600090919091909150908051906020019061225a92919061282b565b505b6000600260008373ffffffffffffffffffffffffffffffffffffffff1673ffffffffffffffffffffffffffffffffffffffff1681526020019081526020016000209050848160000190805190602001906122b792919061282b565b50838160010190805190602001906122d092919061282b565b50818160020160006101000a81548173ffffffffffffffffffffffffffffffffffffffff021916908373ffffffffffffffffffffffffffffffffffffffff1602179055508281600301908051906020019061232c92919061282b565b5060018160040160006101000a81548160ff0219169083151502179055506005829080600181540180825580915050600190039060005260206000200160009091909190916101000a81548173ffffffffffffffffffffffffffffffffffffffff021916908373ffffffffffffffffffffffffffffffffffffffff1602179055506001600360008473ffffffffffffffffffffffffffffffffffffffff1673ffffffffffffffffffffffffffffffffffffffff16815260200190815260200160002060006101000a81548160ff0219169083151502179055505050505050565b600060088260405161241e91906135af565b9081526020016040518091039020905060008160050160006101000a81548160ff0219169083151502179055505050565b6000600a60003373ffffffffffffffffffffffffffffffffffffffff1673ffffffffffffffffffffffffffffffffffffffff16815260200190815260200160002060009054906101000a900460ff16156124ac57600190506126d0565b6001600a60003373ffffffffffffffffffffffffffffffffffffffff1673ffffffffffffffffffffffffffffffffffffffff16815260200190815260200160002060006101000a81548160ff0219169083151502179055506000600b60003373ffffffffffffffffffffffffffffffffffffffff1673ffffffffffffffffffffffffffffffffffffffff16815260200190815260200160002090506040518060200160405280600081525081600001908051906020019061256e92919061282b565b506040518060200160405280600081525081600101908051906020019061259692919061282b565b50604051806020016040528060008152508160020190805190602001906125be92919061282b565b50604051806020016040528060008152508160030190805190602001906125e692919061282b565b506040518060200160405280600081525081600401908051906020019061260e92919061282b565b506040518060200160405280600081525081600501908051906020019061263692919061282b565b506040518060200160405280600081525081600601908051906020019061265e92919061282b565b506040518060200160405280600081525081600701908051906020019061268692919061282b565b50338160080160006101000a81548173ffffffffffffffffffffffffffffffffffffffff021916908373ffffffffffffffffffffffffffffffffffffffff16021790555060019150505b90565b60008054906101000a900473ffffffffffffffffffffffffffffffffffffffff1673ffffffffffffffffffffffffffffffffffffffff163373ffffffffffffffffffffffffffffffffffffffff161461272b57600080fd5b6000600260008373ffffffffffffffffffffffffffffffffffffffff1673ffffffffffffffffffffffffffffffffffffffff16815260200190815260200160002060040160006101000a81548160ff02191690831515021790555050565b600060088260405161279b91906135af565b9081526020016040518091039020905060008160050160016101000a81548160ff02191690831515021790555060008160050160026101000a81548173ffffffffffffffffffffffffffffffffffffffff021916908373ffffffffffffffffffffffffffffffffffffffff1602179055505050565b60008180519060200120838051906020012014905092915050565b828054612837906135f5565b90600052602060002090601f01602090048101928261285957600085556128a0565b82601f1061287257805160ff19168380011785556128a0565b828001600101855582156128a0579182015b8281111561289f578251825591602001919060010190612884565b5b5090506128ad9190612985565b5090565b6040518060a001604052806060815260200160608152602001600073ffffffffffffffffffffffffffffffffffffffff168152602001606081526020016000151581525090565b828054612904906135f5565b90600052602060002090601f0160209004810192826129265760008555612974565b82601f106129375780548555612974565b8280016001018555821561297457600052602060002091601f016020900482015b82811115612973578254825591600101919060010190612958565b5b5090506129819190612985565b5090565b5b8082111561299e576000816000905550600101612986565b5090565b600073ffffffffffffffffffffffffffffffffffffffff82169050919050565b60006129cd826129a2565b9050919050565b6129dd816129c2565b82525050565b60006020820190506129f860008301846129d4565b92915050565b6000604051905090565b600080fd5b600080fd5b600080fd5b600080fd5b6000601f19601f8301169050919050565b7f4e487b7100000000000000000000000000000000000000000000000000000000600052604160045260246000fd5b612a6582612a1c565b810181811067ffffffffffffffff82111715612a8457612a83612a2d565b5b80604052505050565b6000612a976129fe565b9050612aa38282612a5c565b919050565b600067ffffffffffffffff821115612ac357612ac2612a2d565b5b612acc82612a1c565b9050602081019050919050565b82818337600083830152505050565b6000612afb612af684612aa8565b612a8d565b905082815260208101848484011115612b1757612b16612a17565b5b612b22848285612ad9565b509392505050565b600082601f830112612b3f57612b3e612a12565b5b8135612b4f848260208601612ae8565b91505092915050565b600060208284031215612b6e57612b6d612a08565b5b600082013567ffffffffffffffff811115612b8c57612b8b612a0d565b5b612b9884828501612b2a565b91505092915050565b6000819050919050565b612bb481612ba1565b8114612bbf57600080fd5b50565b600081359050612bd181612bab565b92915050565b600060208284031215612bed57612bec612a08565b5b6000612bfb84828501612bc2565b91505092915050565b612c0d816129c2565b8114612c1857600080fd5b50565b600081359050612c2a81612c04565b92915050565b60008060008060808587031215612c4a57612c49612a08565b5b600085013567ffffffffffffffff811115612c6857612c67612a0d565b5b612c7487828801612b2a565b945050602085013567ffffffffffffffff811115612c9557612c94612a0d565b5b612ca187828801612b2a565b935050604085013567ffffffffffffffff811115612cc257612cc1612a0d565b5b612cce87828801612b2a565b9250506060612cdf87828801612c1b565b91505092959194509250565b600081519050919050565b600082825260208201905092915050565b6000819050602082019050919050565b600081519050919050565b600082825260208201905092915050565b60005b83811015612d51578082015181840152602081019050612d36565b83811115612d60576000848401525b50505050565b6000612d7182612d17565b612d7b8185612d22565b9350612d8b818560208601612d33565b612d9481612a1c565b840191505092915050565b6000612dab8383612d66565b905092915050565b6000602082019050919050565b6000612dcb82612ceb565b612dd58185612cf6565b935083602082028501612de785612d07565b8060005b85811015612e235784840389528151612e048582612d9f565b9450612e0f83612db3565b925060208a01995050600181019050612deb565b50829750879550505050505092915050565b60006020820190508181036000830152612e4f8184612dc0565b905092915050565b600060208284031215612e6d57612e6c612a08565b5b6000612e7b84828501612c1b565b91505092915050565b612e8d81612ba1565b82525050565b6000602082019050612ea86000830184612e84565b92915050565b600080600080600080600080610100898b031215612ecf57612ece612a08565b5b600089013567ffffffffffffffff811115612eed57612eec612a0d565b5b612ef98b828c01612b2a565b985050602089013567ffffffffffffffff811115612f1a57612f19612a0d565b5b612f268b828c01612b2a565b975050604089013567ffffffffffffffff811115612f4757612f46612a0d565b5b612f538b828c01612b2a565b965050606089013567ffffffffffffffff811115612f7457612f73612a0d565b5b612f808b828c01612b2a565b955050608089013567ffffffffffffffff811115612fa157612fa0612a0d565b5b612fad8b828c01612b2a565b94505060a089013567ffffffffffffffff811115612fce57612fcd612a0d565b5b612fda8b828c01612b2a565b93505060c089013567ffffffffffffffff811115612ffb57612ffa612a0d565b5b6130078b828c01612b2a565b92505060e089013567ffffffffffffffff81111561302857613027612a0d565b5b6130348b828c01612b2a565b9150509295985092959890939650565b600082825260208201905092915050565b600061306082612d17565b61306a8185613044565b935061307a818560208601612d33565b61308381612a1c565b840191505092915050565b600060208201905081810360008301526130a88184613055565b905092915050565b60008115159050919050565b6130c5816130b0565b82525050565b600060a08201905081810360008301526130e58188613055565b905081810360208301526130f98187613055565b905061310860408301866129d4565b818103606083015261311a8185613055565b905061312960808301846130bc565b9695505050505050565b600081519050919050565b600082825260208201905092915050565b6000819050602082019050919050565b613168816129c2565b82525050565b600061317a838361315f565b60208301905092915050565b6000602082019050919050565b600061319e82613133565b6131a8818561313e565b93506131b38361314f565b8060005b838110156131e45781516131cb888261316e565b97506131d683613186565b9250506001810190506131b7565b5085935050505092915050565b6000602082019050818103600083015261320b8184613193565b905092915050565b61321c816130b0565b82525050565b600060a083016000830151848203600086015261323f8282612d66565b915050602083015184820360208601526132598282612d66565b915050604083015161326e604086018261315f565b50606083015184820360608601526132868282612d66565b915050608083015161329b6080860182613213565b508091505092915050565b600060208201905081810360008301526132c08184613222565b905092915050565b60006020820190506132dd60008301846130bc565b92915050565b60008060008060008060c08789031215613300576132ff612a08565b5b600087013567ffffffffffffffff81111561331e5761331d612a0d565b5b61332a89828a01612b2a565b965050602087013567ffffffffffffffff81111561334b5761334a612a0d565b5b61335789828a01612b2a565b955050604061336889828a01612c1b565b945050606087013567ffffffffffffffff81111561338957613388612a0d565b5b61339589828a01612b2a565b93505060806133a689828a01612c1b565b92505060a087013567ffffffffffffffff8111156133c7576133c6612a0d565b5b6133d389828a01612b2a565b9150509295509295509295565b60006101608201905081810360008301526133fb818e613055565b9050818103602083015261340f818d613055565b90508181036040830152613423818c613055565b9050613432606083018b6129d4565b8181036080830152613444818a613055565b905061345360a08301896130bc565b61346060c08301886130bc565b61346d60e08301876129d4565b8181036101008301526134808186613055565b90506134906101208301856129d4565b61349e6101408301846130bc565b9c9b505050505050505050505050565b60006101208201905081810360008301526134c9818c613055565b905081810360208301526134dd818b613055565b905081810360408301526134f1818a613055565b905081810360608301526135058189613055565b905081810360808301526135198188613055565b905081810360a083015261352d8187613055565b905081810360c08301526135418186613055565b905081810360e08301526135558185613055565b90506135656101008301846129d4565b9a9950505050505050505050565b600081905092915050565b600061358982612d17565b6135938185613573565b93506135a3818560208601612d33565b80840191505092915050565b60006135bb828461357e565b915081905092915050565b7f4e487b7100000000000000000000000000000000000000000000000000000000600052602260045260246000fd5b6000600282049050600182168061360d57607f821691505b60208210811415613621576136206135c6565b5b50919050565b7f4e487b7100000000000000000000000000000000000000000000000000000000600052601160045260246000fd5b600061366182612ba1565b915061366c83612ba1565b9250827fffffffffffffffffffffffffffffffffffffffffffffffffffffffffffffffff038211156136a1576136a0613627565b5b82820190509291505056fea2646970667358221220e120f25a767c98d388984dd48e770c34c324b0864c64ef727a72b9bffd6f418264736f6c634300080a0033","opcodes":"PUSH1 0x80 PUSH1 0x40 MSTORE CALLVALUE DUP1 ISZERO PUSH3 0x11 JUMPI PUSH1 0x0 DUP1 REVERT JUMPDEST POP PUSH1 0x40 MLOAD PUSH3 0x3A94 CODESIZE SUB DUP1 PUSH3 0x3A94 DUP4 CODECOPY DUP2 DUP2 ADD PUSH1 0x40 MSTORE DUP2 ADD SWAP1 PUSH3 0x37 SWAP2 SWAP1 PUSH3 0x2EC JUMP JUMPDEST DUP1 PUSH1 0x1 SWAP1 DUP1 MLOAD SWAP1 PUSH1 0x20 ADD SWAP1 PUSH3 0x4F SWAP3 SWAP2 SWAP1 PUSH3 0x9F JUMP JUMPDEST POP CALLER PUSH1 0x0 DUP1 PUSH2 0x100 EXP DUP2 SLOAD DUP2 PUSH20 0xFFFFFFFFFFFFFFFFFFFFFFFFFFFFFFFFFFFFFFFF MUL NOT AND SWAP1 DUP4 PUSH20 0xFFFFFFFFFFFFFFFFFFFFFFFFFFFFFFFFFFFFFFFF AND MUL OR SWAP1 SSTORE POP PUSH1 0x0 PUSH1 0x9 DUP2 SWAP1 SSTORE POP POP PUSH3 0x3A2 JUMP JUMPDEST DUP3 DUP1 SLOAD PUSH3 0xAD SWAP1 PUSH3 0x36C JUMP JUMPDEST SWAP1 PUSH1 0x0 MSTORE PUSH1 0x20 PUSH1 0x0 KECCAK256 SWAP1 PUSH1 0x1F ADD PUSH1 0x20 SWAP1 DIV DUP2 ADD SWAP3 DUP3 PUSH3 0xD1 JUMPI PUSH1 0x0 DUP6 SSTORE PUSH3 0x11D JUMP JUMPDEST DUP3 PUSH1 0x1F LT PUSH3 0xEC JUMPI DUP1 MLOAD PUSH1 0xFF NOT AND DUP4 DUP1 ADD OR DUP6 SSTORE PUSH3 0x11D JUMP JUMPDEST DUP3 DUP1 ADD PUSH1 0x1 ADD DUP6 SSTORE DUP3 ISZERO PUSH3 0x11D JUMPI SWAP2 DUP3 ADD JUMPDEST DUP3 DUP2 GT ISZERO PUSH3 0x11C JUMPI DUP3 MLOAD DUP3 SSTORE SWAP2 PUSH1 0x20 ADD SWAP2 SWAP1 PUSH1 0x1 ADD SWAP1 PUSH3 0xFF JUMP JUMPDEST JUMPDEST POP SWAP1 POP PUSH3 0x12C SWAP2 SWAP1 PUSH3 0x130 JUMP JUMPDEST POP SWAP1 JUMP JUMPDEST JUMPDEST DUP1 DUP3 GT ISZERO PUSH3 0x14B JUMPI PUSH1 0x0 DUP2 PUSH1 0x0 SWAP1 SSTORE POP PUSH1 0x1 ADD PUSH3 0x131 JUMP JUMPDEST POP SWAP1 JUMP JUMPDEST PUSH1 0x0 PUSH1 0x40 MLOAD SWAP1 POP SWAP1 JUMP JUMPDEST PUSH1 0x0 DUP1 REVERT JUMPDEST PUSH1 0x0 DUP1 REVERT JUMPDEST PUSH1 0x0 DUP1 REVERT JUMPDEST PUSH1 0x0 DUP1 REVERT JUMPDEST PUSH1 0x0 PUSH1 0x1F NOT PUSH1 0x1F DUP4 ADD AND SWAP1 POP SWAP2 SWAP1 POP JUMP JUMPDEST PUSH32 0x4E487B7100000000000000000000000000000000000000000000000000000000 PUSH1 0x0 MSTORE PUSH1 0x41 PUSH1 0x4 MSTORE PUSH1 0x24 PUSH1 0x0 REVERT JUMPDEST PUSH3 0x1B8 DUP3 PUSH3 0x16D JUMP JUMPDEST DUP2 ADD DUP2 DUP2 LT PUSH8 0xFFFFFFFFFFFFFFFF DUP3 GT OR ISZERO PUSH3 0x1DA JUMPI PUSH3 0x1D9 PUSH3 0x17E JUMP JUMPDEST JUMPDEST DUP1 PUSH1 0x40 MSTORE POP POP POP JUMP JUMPDEST PUSH1 0x0 PUSH3 0x1EF PUSH3 0x14F JUMP JUMPDEST SWAP1 POP PUSH3 0x1FD DUP3 DUP3 PUSH3 0x1AD JUMP JUMPDEST SWAP2 SWAP1 POP JUMP JUMPDEST PUSH1 0x0 PUSH8 0xFFFFFFFFFFFFFFFF DUP3 GT ISZERO PUSH3 0x220 JUMPI PUSH3 0x21F PUSH3 0x17E JUMP JUMPDEST JUMPDEST PUSH3 0x22B DUP3 PUSH3 0x16D JUMP JUMPDEST SWAP1 POP PUSH1 0x20 DUP2 ADD SWAP1 POP SWAP2 SWAP1 POP JUMP JUMPDEST PUSH1 0x0 JUMPDEST DUP4 DUP2 LT ISZERO PUSH3 0x258 JUMPI DUP1 DUP3 ADD MLOAD DUP2 DUP5 ADD MSTORE PUSH1 0x20 DUP2 ADD SWAP1 POP PUSH3 0x23B JUMP JUMPDEST DUP4 DUP2 GT ISZERO PUSH3 0x268 JUMPI PUSH1 0x0 DUP5 DUP5 ADD MSTORE JUMPDEST POP POP POP POP JUMP JUMPDEST PUSH1 0x0 PUSH3 0x285 PUSH3 0x27F DUP5 PUSH3 0x202 JUMP JUMPDEST PUSH3 0x1E3 JUMP JUMPDEST SWAP1 POP DUP3 DUP2 MSTORE PUSH1 0x20 DUP2 ADD DUP5 DUP5 DUP5 ADD GT ISZERO PUSH3 0x2A4 JUMPI PUSH3 0x2A3 PUSH3 0x168 JUMP JUMPDEST JUMPDEST PUSH3 0x2B1 DUP5 DUP3 DUP6 PUSH3 0x238 JUMP JUMPDEST POP SWAP4 SWAP3 POP POP POP JUMP JUMPDEST PUSH1 0x0 DUP3 PUSH1 0x1F DUP4 ADD SLT PUSH3 0x2D1 JUMPI PUSH3 0x2D0 PUSH3 0x163 JUMP JUMPDEST JUMPDEST DUP2 MLOAD PUSH3 0x2E3 DUP5 DUP3 PUSH1 0x20 DUP7 ADD PUSH3 0x26E JUMP JUMPDEST SWAP2 POP POP SWAP3 SWAP2 POP POP JUMP JUMPDEST PUSH1 0x0 PUSH1 0x20 DUP3 DUP5 SUB SLT ISZERO PUSH3 0x305 JUMPI PUSH3 0x304 PUSH3 0x159 JUMP JUMPDEST JUMPDEST PUSH1 0x0 DUP3 ADD MLOAD PUSH8 0xFFFFFFFFFFFFFFFF DUP2 GT ISZERO PUSH3 0x326 JUMPI PUSH3 0x325 PUSH3 0x15E JUMP JUMPDEST JUMPDEST PUSH3 0x334 DUP5 DUP3 DUP6 ADD PUSH3 0x2B9 JUMP JUMPDEST SWAP2 POP POP SWAP3 SWAP2 POP POP JUMP JUMPDEST PUSH32 0x4E487B7100000000000000000000000000000000000000000000000000000000 PUSH1 0x0 MSTORE PUSH1 0x22 PUSH1 0x4 MSTORE PUSH1 0x24 PUSH1 0x0 REVERT JUMPDEST PUSH1 0x0 PUSH1 0x2 DUP3 DIV SWAP1 POP PUSH1 0x1 DUP3 AND DUP1 PUSH3 0x385 JUMPI PUSH1 0x7F DUP3 AND SWAP2 POP JUMPDEST PUSH1 0x20 DUP3 LT DUP2 EQ ISZERO PUSH3 0x39C JUMPI PUSH3 0x39B PUSH3 0x33D JUMP JUMPDEST JUMPDEST POP SWAP2 SWAP1 POP JUMP JUMPDEST PUSH2 0x36E2 DUP1 PUSH3 0x3B2 PUSH1 0x0 CODECOPY PUSH1 0x0 RETURN INVALID PUSH1 0x80 PUSH1 0x40 MSTORE CALLVALUE DUP1 ISZERO PUSH2 0x10 JUMPI PUSH1 0x0 DUP1 REVERT JUMPDEST POP PUSH1 0x4 CALLDATASIZE LT PUSH2 0x1CF JUMPI PUSH1 0x0 CALLDATALOAD PUSH1 0xE0 SHR DUP1 PUSH4 0x64EFB22B GT PUSH2 0x104 JUMPI DUP1 PUSH4 0xBE87BB8A GT PUSH2 0xA2 JUMPI DUP1 PUSH4 0xD896FC96 GT PUSH2 0x71 JUMPI DUP1 PUSH4 0xD896FC96 EQ PUSH2 0x566 JUMPI DUP1 PUSH4 0xDB9573E1 EQ PUSH2 0x582 JUMPI DUP1 PUSH4 0xDF6FA20E EQ PUSH2 0x5A0 JUMPI DUP1 PUSH4 0xE15C1278 EQ PUSH2 0x5BC JUMPI PUSH2 0x1CF JUMP JUMPDEST DUP1 PUSH4 0xBE87BB8A EQ PUSH2 0x4B2 JUMPI DUP1 PUSH4 0xC4A0086F EQ PUSH2 0x4EA JUMPI DUP1 PUSH4 0xCBD5121C EQ PUSH2 0x51A JUMPI DUP1 PUSH4 0xCDDB61B7 EQ PUSH2 0x54A JUMPI PUSH2 0x1CF JUMP JUMPDEST DUP1 PUSH4 0x935B377B GT PUSH2 0xDE JUMPI DUP1 PUSH4 0x935B377B EQ PUSH2 0x424 JUMPI DUP1 PUSH4 0x9A3EB0E2 EQ PUSH2 0x440 JUMPI DUP1 PUSH4 0xADE79551 EQ PUSH2 0x45C JUMPI DUP1 PUSH4 0xB1C8AD0D EQ PUSH2 0x478 JUMPI PUSH2 0x1CF JUMP JUMPDEST DUP1 PUSH4 0x64EFB22B EQ PUSH2 0x3A6 JUMPI DUP1 PUSH4 0x67B57142 EQ PUSH2 0x3D6 JUMPI DUP1 PUSH4 0x8B5C9335 EQ PUSH2 0x406 JUMPI PUSH2 0x1CF JUMP JUMPDEST DUP1 PUSH4 0x1D6F67EB GT PUSH2 0x171 JUMPI DUP1 PUSH4 0x2DE8F46D GT PUSH2 0x14B JUMPI DUP1 PUSH4 0x2DE8F46D EQ PUSH2 0x31A JUMPI DUP1 PUSH4 0x429B62E5 EQ PUSH2 0x338 JUMPI DUP1 PUSH4 0x53BEB691 EQ PUSH2 0x36C JUMPI DUP1 PUSH4 0x64DDFA29 EQ PUSH2 0x388 JUMPI PUSH2 0x1CF JUMP JUMPDEST DUP1 PUSH4 0x1D6F67EB EQ PUSH2 0x2B2 JUMPI DUP1 PUSH4 0x245351C9 EQ PUSH2 0x2CE JUMPI DUP1 PUSH4 0x2A979F31 EQ PUSH2 0x2EA JUMPI PUSH2 0x1CF JUMP JUMPDEST DUP1 PUSH4 0x1510F0D5 GT PUSH2 0x1AD JUMPI DUP1 PUSH4 0x1510F0D5 EQ PUSH2 0x23E JUMPI DUP1 PUSH4 0x1A994ED8 EQ PUSH2 0x25A JUMPI DUP1 PUSH4 0x1AF1A768 EQ PUSH2 0x278 JUMPI DUP1 PUSH4 0x1C9AFD0F EQ PUSH2 0x294 JUMPI PUSH2 0x1CF JUMP JUMPDEST DUP1 PUSH4 0x45B3034 EQ PUSH2 0x1D4 JUMPI DUP1 PUSH4 0xE2C6535 EQ PUSH2 0x1F2 JUMPI DUP1 PUSH4 0x13718C97 EQ PUSH2 0x20E JUMPI JUMPDEST PUSH1 0x0 DUP1 REVERT JUMPDEST PUSH2 0x1DC PUSH2 0x5D8 JUMP JUMPDEST PUSH1 0x40 MLOAD PUSH2 0x1E9 SWAP2 SWAP1 PUSH2 0x29E3 JUMP JUMPDEST PUSH1 0x40 MLOAD DUP1 SWAP2 SUB SWAP1 RETURN JUMPDEST PUSH2 0x20C PUSH1 0x4 DUP1 CALLDATASIZE SUB DUP2 ADD SWAP1 PUSH2 0x207 SWAP2 SWAP1 PUSH2 0x2B58 JUMP JUMPDEST PUSH2 0x5FC JUMP JUMPDEST STOP JUMPDEST PUSH2 0x228 PUSH1 0x4 DUP1 CALLDATASIZE SUB DUP2 ADD SWAP1 PUSH2 0x223 SWAP2 SWAP1 PUSH2 0x2BD7 JUMP JUMPDEST PUSH2 0x6A0 JUMP JUMPDEST PUSH1 0x40 MLOAD PUSH2 0x235 SWAP2 SWAP1 PUSH2 0x29E3 JUMP JUMPDEST PUSH1 0x40 MLOAD DUP1 SWAP2 SUB SWAP1 RETURN JUMPDEST PUSH2 0x258 PUSH1 0x4 DUP1 CALLDATASIZE SUB DUP2 ADD SWAP1 PUSH2 0x253 SWAP2 SWAP1 PUSH2 0x2C30 JUMP JUMPDEST PUSH2 0x6DF JUMP JUMPDEST STOP JUMPDEST PUSH2 0x262 PUSH2 0x7CC JUMP JUMPDEST PUSH1 0x40 MLOAD PUSH2 0x26F SWAP2 SWAP1 PUSH2 0x2E35 JUMP JUMPDEST PUSH1 0x40 MLOAD DUP1 SWAP2 SUB SWAP1 RETURN JUMPDEST PUSH2 0x292 PUSH1 0x4 DUP1 CALLDATASIZE SUB DUP2 ADD SWAP1 PUSH2 0x28D SWAP2 SWAP1 PUSH2 0x2E57 JUMP JUMPDEST PUSH2 0x8FB JUMP JUMPDEST STOP JUMPDEST PUSH2 0x29C PUSH2 0x9B1 JUMP JUMPDEST PUSH1 0x40 MLOAD PUSH2 0x2A9 SWAP2 SWAP1 PUSH2 0x2E93 JUMP JUMPDEST PUSH1 0x40 MLOAD DUP1 SWAP2 SUB SWAP1 RETURN JUMPDEST PUSH2 0x2CC PUSH1 0x4 DUP1 CALLDATASIZE SUB DUP2 ADD SWAP1 PUSH2 0x2C7 SWAP2 SWAP1 PUSH2 0x2B58 JUMP JUMPDEST PUSH2 0x9B7 JUMP JUMPDEST STOP JUMPDEST PUSH2 0x2E8 PUSH1 0x4 DUP1 CALLDATASIZE SUB DUP2 ADD SWAP1 PUSH2 0x2E3 SWAP2 SWAP1 PUSH2 0x2EAE JUMP JUMPDEST PUSH2 0x9FA JUMP JUMPDEST STOP JUMPDEST PUSH2 0x304 PUSH1 0x4 DUP1 CALLDATASIZE SUB DUP2 ADD SWAP1 PUSH2 0x2FF SWAP2 SWAP1 PUSH2 0x2BD7 JUMP JUMPDEST PUSH2 0xB10 JUMP JUMPDEST PUSH1 0x40 MLOAD PUSH2 0x311 SWAP2 SWAP1 PUSH2 0x308E JUMP JUMPDEST PUSH1 0x40 MLOAD DUP1 SWAP2 SUB SWAP1 RETURN JUMPDEST PUSH2 0x322 PUSH2 0xBBC JUMP JUMPDEST PUSH1 0x40 MLOAD PUSH2 0x32F SWAP2 SWAP1 PUSH2 0x308E JUMP JUMPDEST PUSH1 0x40 MLOAD DUP1 SWAP2 SUB SWAP1 RETURN JUMPDEST PUSH2 0x352 PUSH1 0x4 DUP1 CALLDATASIZE SUB DUP2 ADD SWAP1 PUSH2 0x34D SWAP2 SWAP1 PUSH2 0x2E57 JUMP JUMPDEST PUSH2 0xCA6 JUMP JUMPDEST PUSH1 0x40 MLOAD PUSH2 0x363 SWAP6 SWAP5 SWAP4 SWAP3 SWAP2 SWAP1 PUSH2 0x30CB JUMP JUMPDEST PUSH1 0x40 MLOAD DUP1 SWAP2 SUB SWAP1 RETURN JUMPDEST PUSH2 0x386 PUSH1 0x4 DUP1 CALLDATASIZE SUB DUP2 ADD SWAP1 PUSH2 0x381 SWAP2 SWAP1 PUSH2 0x2B58 JUMP JUMPDEST PUSH2 0xEA1 JUMP JUMPDEST STOP JUMPDEST PUSH2 0x390 PUSH2 0xF27 JUMP JUMPDEST PUSH1 0x40 MLOAD PUSH2 0x39D SWAP2 SWAP1 PUSH2 0x31F1 JUMP JUMPDEST PUSH1 0x40 MLOAD DUP1 SWAP2 SUB SWAP1 RETURN JUMPDEST PUSH2 0x3C0 PUSH1 0x4 DUP1 CALLDATASIZE SUB DUP2 ADD SWAP1 PUSH2 0x3BB SWAP2 SWAP1 PUSH2 0x2E57 JUMP JUMPDEST PUSH2 0x100D JUMP JUMPDEST PUSH1 0x40 MLOAD PUSH2 0x3CD SWAP2 SWAP1 PUSH2 0x32A6 JUMP JUMPDEST PUSH1 0x40 MLOAD DUP1 SWAP2 SUB SWAP1 RETURN JUMPDEST PUSH2 0x3F0 PUSH1 0x4 DUP1 CALLDATASIZE SUB DUP2 ADD SWAP1 PUSH2 0x3EB SWAP2 SWAP1 PUSH2 0x2E57 JUMP JUMPDEST PUSH2 0x12E5 JUMP JUMPDEST PUSH1 0x40 MLOAD PUSH2 0x3FD SWAP2 SWAP1 PUSH2 0x32C8 JUMP JUMPDEST PUSH1 0x40 MLOAD DUP1 SWAP2 SUB SWAP1 RETURN JUMPDEST PUSH2 0x40E PUSH2 0x1305 JUMP JUMPDEST PUSH1 0x40 MLOAD PUSH2 0x41B SWAP2 SWAP1 PUSH2 0x32C8 JUMP JUMPDEST PUSH1 0x40 MLOAD DUP1 SWAP2 SUB SWAP1 RETURN JUMPDEST PUSH2 0x43E PUSH1 0x4 DUP1 CALLDATASIZE SUB DUP2 ADD SWAP1 PUSH2 0x439 SWAP2 SWAP1 PUSH2 0x2B58 JUMP JUMPDEST PUSH2 0x1364 JUMP JUMPDEST STOP JUMPDEST PUSH2 0x45A PUSH1 0x4 DUP1 CALLDATASIZE SUB DUP2 ADD SWAP1 PUSH2 0x455 SWAP2 SWAP1 PUSH2 0x2B58 JUMP JUMPDEST PUSH2 0x13A7 JUMP JUMPDEST STOP JUMPDEST PUSH2 0x476 PUSH1 0x4 DUP1 CALLDATASIZE SUB DUP2 ADD SWAP1 PUSH2 0x471 SWAP2 SWAP1 PUSH2 0x32E3 JUMP JUMPDEST PUSH2 0x14AB JUMP JUMPDEST STOP JUMPDEST PUSH2 0x492 PUSH1 0x4 DUP1 CALLDATASIZE SUB DUP2 ADD SWAP1 PUSH2 0x48D SWAP2 SWAP1 PUSH2 0x2B58 JUMP JUMPDEST PUSH2 0x17B0 JUMP JUMPDEST PUSH1 0x40 MLOAD PUSH2 0x4A9 SWAP12 SWAP11 SWAP10 SWAP9 SWAP8 SWAP7 SWAP6 SWAP5 SWAP4 SWAP3 SWAP2 SWAP1 PUSH2 0x33E0 JUMP JUMPDEST PUSH1 0x40 MLOAD DUP1 SWAP2 SUB SWAP1 RETURN JUMPDEST PUSH2 0x4CC PUSH1 0x4 DUP1 CALLDATASIZE SUB DUP2 ADD SWAP1 PUSH2 0x4C7 SWAP2 SWAP1 PUSH2 0x2E57 JUMP JUMPDEST PUSH2 0x1B4F JUMP JUMPDEST PUSH1 0x40 MLOAD PUSH2 0x4E1 SWAP10 SWAP9 SWAP8 SWAP7 SWAP6 SWAP5 SWAP4 SWAP3 SWAP2 SWAP1 PUSH2 0x34AE JUMP JUMPDEST PUSH1 0x40 MLOAD DUP1 SWAP2 SUB SWAP1 RETURN JUMPDEST PUSH2 0x504 PUSH1 0x4 DUP1 CALLDATASIZE SUB DUP2 ADD SWAP1 PUSH2 0x4FF SWAP2 SWAP1 PUSH2 0x2B58 JUMP JUMPDEST PUSH2 0x1FFD JUMP JUMPDEST PUSH1 0x40 MLOAD PUSH2 0x511 SWAP2 SWAP1 PUSH2 0x32C8 JUMP JUMPDEST PUSH1 0x40 MLOAD DUP1 SWAP2 SUB SWAP1 RETURN JUMPDEST PUSH2 0x534 PUSH1 0x4 DUP1 CALLDATASIZE SUB DUP2 ADD SWAP1 PUSH2 0x52F SWAP2 SWAP1 PUSH2 0x2BD7 JUMP JUMPDEST PUSH2 0x2033 JUMP JUMPDEST PUSH1 0x40 MLOAD PUSH2 0x541 SWAP2 SWAP1 PUSH2 0x308E JUMP JUMPDEST PUSH1 0x40 MLOAD DUP1 SWAP2 SUB SWAP1 RETURN JUMPDEST PUSH2 0x564 PUSH1 0x4 DUP1 CALLDATASIZE SUB DUP2 ADD SWAP1 PUSH2 0x55F SWAP2 SWAP1 PUSH2 0x2C30 JUMP JUMPDEST PUSH2 0x20DF JUMP JUMPDEST STOP JUMPDEST PUSH2 0x580 PUSH1 0x4 DUP1 CALLDATASIZE SUB DUP2 ADD SWAP1 PUSH2 0x57B SWAP2 SWAP1 PUSH2 0x2B58 JUMP JUMPDEST PUSH2 0x240C JUMP JUMPDEST STOP JUMPDEST PUSH2 0x58A PUSH2 0x244F JUMP JUMPDEST PUSH1 0x40 MLOAD PUSH2 0x597 SWAP2 SWAP1 PUSH2 0x32C8 JUMP JUMPDEST PUSH1 0x40 MLOAD DUP1 SWAP2 SUB SWAP1 RETURN JUMPDEST PUSH2 0x5BA PUSH1 0x4 DUP1 CALLDATASIZE SUB DUP2 ADD SWAP1 PUSH2 0x5B5 SWAP2 SWAP1 PUSH2 0x2E57 JUMP JUMPDEST PUSH2 0x26D3 JUMP JUMPDEST STOP JUMPDEST PUSH2 0x5D6 PUSH1 0x4 DUP1 CALLDATASIZE SUB DUP2 ADD SWAP1 PUSH2 0x5D1 SWAP2 SWAP1 PUSH2 0x2B58 JUMP JUMPDEST PUSH2 0x2789 JUMP JUMPDEST STOP JUMPDEST PUSH1 0x0 DUP1 SLOAD SWAP1 PUSH2 0x100 EXP SWAP1 DIV PUSH20 0xFFFFFFFFFFFFFFFFFFFFFFFFFFFFFFFFFFFFFFFF AND DUP2 JUMP JUMPDEST PUSH1 0x0 PUSH1 0x8 DUP3 PUSH1 0x40 MLOAD PUSH2 0x60E SWAP2 SWAP1 PUSH2 0x35AF JUMP JUMPDEST SWAP1 DUP2 MSTORE PUSH1 0x20 ADD PUSH1 0x40 MLOAD DUP1 SWAP2 SUB SWAP1 KECCAK256 SWAP1 POP PUSH1 0x0 DUP2 PUSH1 0x7 ADD PUSH1 0x14 PUSH2 0x100 EXP DUP2 SLOAD DUP2 PUSH1 0xFF MUL NOT AND SWAP1 DUP4 ISZERO ISZERO MUL OR SWAP1 SSTORE POP PUSH1 0x0 DUP2 PUSH1 0x5 ADD PUSH1 0x1 PUSH2 0x100 EXP DUP2 SLOAD DUP2 PUSH1 0xFF MUL NOT AND SWAP1 DUP4 ISZERO ISZERO MUL OR SWAP1 SSTORE POP PUSH1 0x0 DUP2 PUSH1 0x5 ADD PUSH1 0x2 PUSH2 0x100 EXP DUP2 SLOAD DUP2 PUSH20 0xFFFFFFFFFFFFFFFFFFFFFFFFFFFFFFFFFFFFFFFF MUL NOT AND SWAP1 DUP4 PUSH20 0xFFFFFFFFFFFFFFFFFFFFFFFFFFFFFFFFFFFFFFFF AND MUL OR SWAP1 SSTORE POP POP POP JUMP JUMPDEST PUSH1 0x5 DUP2 DUP2 SLOAD DUP2 LT PUSH2 0x6B0 JUMPI PUSH1 0x0 DUP1 REVERT JUMPDEST SWAP1 PUSH1 0x0 MSTORE PUSH1 0x20 PUSH1 0x0 KECCAK256 ADD PUSH1 0x0 SWAP2 POP SLOAD SWAP1 PUSH2 0x100 EXP SWAP1 DIV PUSH20 0xFFFFFFFFFFFFFFFFFFFFFFFFFFFFFFFFFFFFFFFF AND DUP2 JUMP JUMPDEST PUSH1 0x0 DUP1 SLOAD SWAP1 PUSH2 0x100 EXP SWAP1 DIV PUSH20 0xFFFFFFFFFFFFFFFFFFFFFFFFFFFFFFFFFFFFFFFF AND PUSH20 0xFFFFFFFFFFFFFFFFFFFFFFFFFFFFFFFFFFFFFFFF AND CALLER PUSH20 0xFFFFFFFFFFFFFFFFFFFFFFFFFFFFFFFFFFFFFFFF AND EQ PUSH2 0x737 JUMPI PUSH1 0x0 DUP1 REVERT JUMPDEST PUSH1 0x0 PUSH1 0x2 PUSH1 0x0 DUP4 PUSH20 0xFFFFFFFFFFFFFFFFFFFFFFFFFFFFFFFFFFFFFFFF AND PUSH20 0xFFFFFFFFFFFFFFFFFFFFFFFFFFFFFFFFFFFFFFFF AND DUP2 MSTORE PUSH1 0x20 ADD SWAP1 DUP2 MSTORE PUSH1 0x20 ADD PUSH1 0x0 KECCAK256 SWAP1 POP DUP5 DUP2 PUSH1 0x0 ADD SWAP1 DUP1 MLOAD SWAP1 PUSH1 0x20 ADD SWAP1 PUSH2 0x792 SWAP3 SWAP2 SWAP1 PUSH2 0x282B JUMP JUMPDEST POP DUP4 DUP2 PUSH1 0x1 ADD SWAP1 DUP1 MLOAD SWAP1 PUSH1 0x20 ADD SWAP1 PUSH2 0x7AB SWAP3 SWAP2 SWAP1 PUSH2 0x282B JUMP JUMPDEST POP DUP3 DUP2 PUSH1 0x3 ADD SWAP1 DUP1 MLOAD SWAP1 PUSH1 0x20 ADD SWAP1 PUSH2 0x7C4 SWAP3 SWAP2 SWAP1 PUSH2 0x282B JUMP JUMPDEST POP POP POP POP POP POP JUMP JUMPDEST PUSH1 0x60 PUSH1 0x3 PUSH1 0x0 CALLER PUSH20 0xFFFFFFFFFFFFFFFFFFFFFFFFFFFFFFFFFFFFFFFF AND PUSH20 0xFFFFFFFFFFFFFFFFFFFFFFFFFFFFFFFFFFFFFFFF AND DUP2 MSTORE PUSH1 0x20 ADD SWAP1 DUP2 MSTORE PUSH1 0x20 ADD PUSH1 0x0 KECCAK256 PUSH1 0x0 SWAP1 SLOAD SWAP1 PUSH2 0x100 EXP SWAP1 DIV PUSH1 0xFF AND PUSH2 0x824 JUMPI PUSH1 0x0 DUP1 REVERT JUMPDEST PUSH1 0x6 DUP1 SLOAD DUP1 PUSH1 0x20 MUL PUSH1 0x20 ADD PUSH1 0x40 MLOAD SWAP1 DUP2 ADD PUSH1 0x40 MSTORE DUP1 SWAP3 SWAP2 SWAP1 DUP2 DUP2 MSTORE PUSH1 0x20 ADD PUSH1 0x0 SWAP1 JUMPDEST DUP3 DUP3 LT ISZERO PUSH2 0x8F2 JUMPI DUP4 DUP3 SWAP1 PUSH1 0x0 MSTORE PUSH1 0x20 PUSH1 0x0 KECCAK256 ADD DUP1 SLOAD PUSH2 0x865 SWAP1 PUSH2 0x35F5 JUMP JUMPDEST DUP1 PUSH1 0x1F ADD PUSH1 0x20 DUP1 SWAP2 DIV MUL PUSH1 0x20 ADD PUSH1 0x40 MLOAD SWAP1 DUP2 ADD PUSH1 0x40 MSTORE DUP1 SWAP3 SWAP2 SWAP1 DUP2 DUP2 MSTORE PUSH1 0x20 ADD DUP3 DUP1 SLOAD PUSH2 0x891 SWAP1 PUSH2 0x35F5 JUMP JUMPDEST DUP1 ISZERO PUSH2 0x8DE JUMPI DUP1 PUSH1 0x1F LT PUSH2 0x8B3 JUMPI PUSH2 0x100 DUP1 DUP4 SLOAD DIV MUL DUP4 MSTORE SWAP2 PUSH1 0x20 ADD SWAP2 PUSH2 0x8DE JUMP JUMPDEST DUP3 ADD SWAP2 SWAP1 PUSH1 0x0 MSTORE PUSH1 0x20 PUSH1 0x0 KECCAK256 SWAP1 JUMPDEST DUP2 SLOAD DUP2 MSTORE SWAP1 PUSH1 0x1 ADD SWAP1 PUSH1 0x20 ADD DUP1 DUP4 GT PUSH2 0x8C1 JUMPI DUP3 SWAP1 SUB PUSH1 0x1F AND DUP3 ADD SWAP2 JUMPDEST POP POP POP POP POP DUP2 MSTORE PUSH1 0x20 ADD SWAP1 PUSH1 0x1 ADD SWAP1 PUSH2 0x846 JUMP JUMPDEST POP POP POP POP SWAP1 POP SWAP1 JUMP JUMPDEST PUSH1 0x0 DUP1 SLOAD SWAP1 PUSH2 0x100 EXP SWAP1 DIV PUSH20 0xFFFFFFFFFFFFFFFFFFFFFFFFFFFFFFFFFFFFFFFF AND PUSH20 0xFFFFFFFFFFFFFFFFFFFFFFFFFFFFFFFFFFFFFFFF AND CALLER PUSH20 0xFFFFFFFFFFFFFFFFFFFFFFFFFFFFFFFFFFFFFFFF AND EQ PUSH2 0x953 JUMPI PUSH1 0x0 DUP1 REVERT JUMPDEST PUSH1 0x1 PUSH1 0x2 PUSH1 0x0 DUP4 PUSH20 0xFFFFFFFFFFFFFFFFFFFFFFFFFFFFFFFFFFFFFFFF AND PUSH20 0xFFFFFFFFFFFFFFFFFFFFFFFFFFFFFFFFFFFFFFFF AND DUP2 MSTORE PUSH1 0x20 ADD SWAP1 DUP2 MSTORE PUSH1 0x20 ADD PUSH1 0x0 KECCAK256 PUSH1 0x4 ADD PUSH1 0x0 PUSH2 0x100 EXP DUP2 SLOAD DUP2 PUSH1 0xFF MUL NOT AND SWAP1 DUP4 ISZERO ISZERO MUL OR SWAP1 SSTORE POP POP JUMP JUMPDEST PUSH1 0x9 SLOAD DUP2 JUMP JUMPDEST PUSH1 0x0 PUSH1 0x8 DUP3 PUSH1 0x40 MLOAD PUSH2 0x9C9 SWAP2 SWAP1 PUSH2 0x35AF JUMP JUMPDEST SWAP1 DUP2 MSTORE PUSH1 0x20 ADD PUSH1 0x40 MLOAD DUP1 SWAP2 SUB SWAP1 KECCAK256 SWAP1 POP PUSH1 0x1 DUP2 PUSH1 0x7 ADD PUSH1 0x14 PUSH2 0x100 EXP DUP2 SLOAD DUP2 PUSH1 0xFF MUL NOT AND SWAP1 DUP4 ISZERO ISZERO MUL OR SWAP1 SSTORE POP POP POP JUMP JUMPDEST PUSH1 0x0 PUSH1 0xB PUSH1 0x0 CALLER PUSH20 0xFFFFFFFFFFFFFFFFFFFFFFFFFFFFFFFFFFFFFFFF AND PUSH20 0xFFFFFFFFFFFFFFFFFFFFFFFFFFFFFFFFFFFFFFFF AND DUP2 MSTORE PUSH1 0x20 ADD SWAP1 DUP2 MSTORE PUSH1 0x20 ADD PUSH1 0x0 KECCAK256 SWAP1 POP DUP9 DUP2 PUSH1 0x0 ADD SWAP1 DUP1 MLOAD SWAP1 PUSH1 0x20 ADD SWAP1 PUSH2 0xA55 SWAP3 SWAP2 SWAP1 PUSH2 0x282B JUMP JUMPDEST POP DUP8 DUP2 PUSH1 0x1 ADD SWAP1 DUP1 MLOAD SWAP1 PUSH1 0x20 ADD SWAP1 PUSH2 0xA6E SWAP3 SWAP2 SWAP1 PUSH2 0x282B JUMP JUMPDEST POP DUP7 DUP2 PUSH1 0x2 ADD SWAP1 DUP1 MLOAD SWAP1 PUSH1 0x20 ADD SWAP1 PUSH2 0xA87 SWAP3 SWAP2 SWAP1 PUSH2 0x282B JUMP JUMPDEST POP DUP6 DUP2 PUSH1 0x3 ADD SWAP1 DUP1 MLOAD SWAP1 PUSH1 0x20 ADD SWAP1 PUSH2 0xAA0 SWAP3 SWAP2 SWAP1 PUSH2 0x282B JUMP JUMPDEST POP DUP5 DUP2 PUSH1 0x4 ADD SWAP1 DUP1 MLOAD SWAP1 PUSH1 0x20 ADD SWAP1 PUSH2 0xAB9 SWAP3 SWAP2 SWAP1 PUSH2 0x282B JUMP JUMPDEST POP DUP4 DUP2 PUSH1 0x5 ADD SWAP1 DUP1 MLOAD SWAP1 PUSH1 0x20 ADD SWAP1 PUSH2 0xAD2 SWAP3 SWAP2 SWAP1 PUSH2 0x282B JUMP JUMPDEST POP DUP3 DUP2 PUSH1 0x6 ADD SWAP1 DUP1 MLOAD SWAP1 PUSH1 0x20 ADD SWAP1 PUSH2 0xAEB SWAP3 SWAP2 SWAP1 PUSH2 0x282B JUMP JUMPDEST POP DUP2 DUP2 PUSH1 0x7 ADD SWAP1 DUP1 MLOAD SWAP1 PUSH1 0x20 ADD SWAP1 PUSH2 0xB04 SWAP3 SWAP2 SWAP1 PUSH2 0x282B JUMP JUMPDEST POP POP POP POP POP POP POP POP POP POP JUMP JUMPDEST PUSH1 0x4 DUP2 DUP2 SLOAD DUP2 LT PUSH2 0xB20 JUMPI PUSH1 0x0 DUP1 REVERT JUMPDEST SWAP1 PUSH1 0x0 MSTORE PUSH1 0x20 PUSH1 0x0 KECCAK256 ADD PUSH1 0x0 SWAP2 POP SWAP1 POP DUP1 SLOAD PUSH2 0xB3B SWAP1 PUSH2 0x35F5 JUMP JUMPDEST DUP1 PUSH1 0x1F ADD PUSH1 0x20 DUP1 SWAP2 DIV MUL PUSH1 0x20 ADD PUSH1 0x40 MLOAD SWAP1 DUP2 ADD PUSH1 0x40 MSTORE DUP1 SWAP3 SWAP2 SWAP1 DUP2 DUP2 MSTORE PUSH1 0x20 ADD DUP3 DUP1 SLOAD PUSH2 0xB67 SWAP1 PUSH2 0x35F5 JUMP JUMPDEST DUP1 ISZERO PUSH2 0xBB4 JUMPI DUP1 PUSH1 0x1F LT PUSH2 0xB89 JUMPI PUSH2 0x100 DUP1 DUP4 SLOAD DIV MUL DUP4 MSTORE SWAP2 PUSH1 0x20 ADD SWAP2 PUSH2 0xBB4 JUMP JUMPDEST DUP3 ADD SWAP2 SWAP1 PUSH1 0x0 MSTORE PUSH1 0x20 PUSH1 0x0 KECCAK256 SWAP1 JUMPDEST DUP2 SLOAD DUP2 MSTORE SWAP1 PUSH1 0x1 ADD SWAP1 PUSH1 0x20 ADD DUP1 DUP4 GT PUSH2 0xB97 JUMPI DUP3 SWAP1 SUB PUSH1 0x1F AND DUP3 ADD SWAP2 JUMPDEST POP POP POP POP POP DUP2 JUMP JUMPDEST PUSH1 0x60 PUSH1 0x0 DUP1 SLOAD SWAP1 PUSH2 0x100 EXP SWAP1 DIV PUSH20 0xFFFFFFFFFFFFFFFFFFFFFFFFFFFFFFFFFFFFFFFF AND PUSH20 0xFFFFFFFFFFFFFFFFFFFFFFFFFFFFFFFFFFFFFFFF AND CALLER PUSH20 0xFFFFFFFFFFFFFFFFFFFFFFFFFFFFFFFFFFFFFFFF AND EQ PUSH2 0xC16 JUMPI PUSH1 0x0 DUP1 REVERT JUMPDEST PUSH1 0x1 DUP1 SLOAD PUSH2 0xC23 SWAP1 PUSH2 0x35F5 JUMP JUMPDEST DUP1 PUSH1 0x1F ADD PUSH1 0x20 DUP1 SWAP2 DIV MUL PUSH1 0x20 ADD PUSH1 0x40 MLOAD SWAP1 DUP2 ADD PUSH1 0x40 MSTORE DUP1 SWAP3 SWAP2 SWAP1 DUP2 DUP2 MSTORE PUSH1 0x20 ADD DUP3 DUP1 SLOAD PUSH2 0xC4F SWAP1 PUSH2 0x35F5 JUMP JUMPDEST DUP1 ISZERO PUSH2 0xC9C JUMPI DUP1 PUSH1 0x1F LT PUSH2 0xC71 JUMPI PUSH2 0x100 DUP1 DUP4 SLOAD DIV MUL DUP4 MSTORE SWAP2 PUSH1 0x20 ADD SWAP2 PUSH2 0xC9C JUMP JUMPDEST DUP3 ADD SWAP2 SWAP1 PUSH1 0x0 MSTORE PUSH1 0x20 PUSH1 0x0 KECCAK256 SWAP1 JUMPDEST DUP2 SLOAD DUP2 MSTORE SWAP1 PUSH1 0x1 ADD SWAP1 PUSH1 0x20 ADD DUP1 DUP4 GT PUSH2 0xC7F JUMPI DUP3 SWAP1 SUB PUSH1 0x1F AND DUP3 ADD SWAP2 JUMPDEST POP POP POP POP POP SWAP1 POP SWAP1 JUMP JUMPDEST PUSH1 0x2 PUSH1 0x20 MSTORE DUP1 PUSH1 0x0 MSTORE PUSH1 0x40 PUSH1 0x0 KECCAK256 PUSH1 0x0 SWAP2 POP SWAP1 POP DUP1 PUSH1 0x0 ADD DUP1 SLOAD PUSH2 0xCC9 SWAP1 PUSH2 0x35F5 JUMP JUMPDEST DUP1 PUSH1 0x1F ADD PUSH1 0x20 DUP1 SWAP2 DIV MUL PUSH1 0x20 ADD PUSH1 0x40 MLOAD SWAP1 DUP2 ADD PUSH1 0x40 MSTORE DUP1 SWAP3 SWAP2 SWAP1 DUP2 DUP2 MSTORE PUSH1 0x20 ADD DUP3 DUP1 SLOAD PUSH2 0xCF5 SWAP1 PUSH2 0x35F5 JUMP JUMPDEST DUP1 ISZERO PUSH2 0xD42 JUMPI DUP1 PUSH1 0x1F LT PUSH2 0xD17 JUMPI PUSH2 0x100 DUP1 DUP4 SLOAD DIV MUL DUP4 MSTORE SWAP2 PUSH1 0x20 ADD SWAP2 PUSH2 0xD42 JUMP JUMPDEST DUP3 ADD SWAP2 SWAP1 PUSH1 0x0 MSTORE PUSH1 0x20 PUSH1 0x0 KECCAK256 SWAP1 JUMPDEST DUP2 SLOAD DUP2 MSTORE SWAP1 PUSH1 0x1 ADD SWAP1 PUSH1 0x20 ADD DUP1 DUP4 GT PUSH2 0xD25 JUMPI DUP3 SWAP1 SUB PUSH1 0x1F AND DUP3 ADD SWAP2 JUMPDEST POP POP POP POP POP SWAP1 DUP1 PUSH1 0x1 ADD DUP1 SLOAD PUSH2 0xD57 SWAP1 PUSH2 0x35F5 JUMP JUMPDEST DUP1 PUSH1 0x1F ADD PUSH1 0x20 DUP1 SWAP2 DIV MUL PUSH1 0x20 ADD PUSH1 0x40 MLOAD SWAP1 DUP2 ADD PUSH1 0x40 MSTORE DUP1 SWAP3 SWAP2 SWAP1 DUP2 DUP2 MSTORE PUSH1 0x20 ADD DUP3 DUP1 SLOAD PUSH2 0xD83 SWAP1 PUSH2 0x35F5 JUMP JUMPDEST DUP1 ISZERO PUSH2 0xDD0 JUMPI DUP1 PUSH1 0x1F LT PUSH2 0xDA5 JUMPI PUSH2 0x100 DUP1 DUP4 SLOAD DIV MUL DUP4 MSTORE SWAP2 PUSH1 0x20 ADD SWAP2 PUSH2 0xDD0 JUMP JUMPDEST DUP3 ADD SWAP2 SWAP1 PUSH1 0x0 MSTORE PUSH1 0x20 PUSH1 0x0 KECCAK256 SWAP1 JUMPDEST DUP2 SLOAD DUP2 MSTORE SWAP1 PUSH1 0x1 ADD SWAP1 PUSH1 0x20 ADD DUP1 DUP4 GT PUSH2 0xDB3 JUMPI DUP3 SWAP1 SUB PUSH1 0x1F AND DUP3 ADD SWAP2 JUMPDEST POP POP POP POP POP SWAP1 DUP1 PUSH1 0x2 ADD PUSH1 0x0 SWAP1 SLOAD SWAP1 PUSH2 0x100 EXP SWAP1 DIV PUSH20 0xFFFFFFFFFFFFFFFFFFFFFFFFFFFFFFFFFFFFFFFF AND SWAP1 DUP1 PUSH1 0x3 ADD DUP1 SLOAD PUSH2 0xE0B SWAP1 PUSH2 0x35F5 JUMP JUMPDEST DUP1 PUSH1 0x1F ADD PUSH1 0x20 DUP1 SWAP2 DIV MUL PUSH1 0x20 ADD PUSH1 0x40 MLOAD SWAP1 DUP2 ADD PUSH1 0x40 MSTORE DUP1 SWAP3 SWAP2 SWAP1 DUP2 DUP2 MSTORE PUSH1 0x20 ADD DUP3 DUP1 SLOAD PUSH2 0xE37 SWAP1 PUSH2 0x35F5 JUMP JUMPDEST DUP1 ISZERO PUSH2 0xE84 JUMPI DUP1 PUSH1 0x1F LT PUSH2 0xE59 JUMPI PUSH2 0x100 DUP1 DUP4 SLOAD DIV MUL DUP4 MSTORE SWAP2 PUSH1 0x20 ADD SWAP2 PUSH2 0xE84 JUMP JUMPDEST DUP3 ADD SWAP2 SWAP1 PUSH1 0x0 MSTORE PUSH1 0x20 PUSH1 0x0 KECCAK256 SWAP1 JUMPDEST DUP2 SLOAD DUP2 MSTORE SWAP1 PUSH1 0x1 ADD SWAP1 PUSH1 0x20 ADD DUP1 DUP4 GT PUSH2 0xE67 JUMPI DUP3 SWAP1 SUB PUSH1 0x1F AND DUP3 ADD SWAP2 JUMPDEST POP POP POP POP POP SWAP1 DUP1 PUSH1 0x4 ADD PUSH1 0x0 SWAP1 SLOAD SWAP1 PUSH2 0x100 EXP SWAP1 DIV PUSH1 0xFF AND SWAP1 POP DUP6 JUMP JUMPDEST PUSH1 0x0 PUSH1 0x8 DUP3 PUSH1 0x40 MLOAD PUSH2 0xEB3 SWAP2 SWAP1 PUSH2 0x35AF JUMP JUMPDEST SWAP1 DUP2 MSTORE PUSH1 0x20 ADD PUSH1 0x40 MLOAD DUP1 SWAP2 SUB SWAP1 KECCAK256 SWAP1 POP PUSH1 0x1 DUP2 PUSH1 0x5 ADD PUSH1 0x1 PUSH2 0x100 EXP DUP2 SLOAD DUP2 PUSH1 0xFF MUL NOT AND SWAP1 DUP4 ISZERO ISZERO MUL OR SWAP1 SSTORE POP CALLER DUP2 PUSH1 0x5 ADD PUSH1 0x2 PUSH2 0x100 EXP DUP2 SLOAD DUP2 PUSH20 0xFFFFFFFFFFFFFFFFFFFFFFFFFFFFFFFFFFFFFFFF MUL NOT AND SWAP1 DUP4 PUSH20 0xFFFFFFFFFFFFFFFFFFFFFFFFFFFFFFFFFFFFFFFF AND MUL OR SWAP1 SSTORE POP POP POP JUMP JUMPDEST PUSH1 0x60 PUSH1 0x0 DUP1 SLOAD SWAP1 PUSH2 0x100 EXP SWAP1 DIV PUSH20 0xFFFFFFFFFFFFFFFFFFFFFFFFFFFFFFFFFFFFFFFF AND PUSH20 0xFFFFFFFFFFFFFFFFFFFFFFFFFFFFFFFFFFFFFFFF AND CALLER PUSH20 0xFFFFFFFFFFFFFFFFFFFFFFFFFFFFFFFFFFFFFFFF AND EQ PUSH2 0xF81 JUMPI PUSH1 0x0 DUP1 REVERT JUMPDEST PUSH1 0x5 DUP1 SLOAD DUP1 PUSH1 0x20 MUL PUSH1 0x20 ADD PUSH1 0x40 MLOAD SWAP1 DUP2 ADD PUSH1 0x40 MSTORE DUP1 SWAP3 SWAP2 SWAP1 DUP2 DUP2 MSTORE PUSH1 0x20 ADD DUP3 DUP1 SLOAD DUP1 ISZERO PUSH2 0x1003 JUMPI PUSH1 0x20 MUL DUP3 ADD SWAP2 SWAP1 PUSH1 0x0 MSTORE PUSH1 0x20 PUSH1 0x0 KECCAK256 SWAP1 JUMPDEST DUP2 PUSH1 0x0 SWAP1 SLOAD SWAP1 PUSH2 0x100 EXP SWAP1 DIV PUSH20 0xFFFFFFFFFFFFFFFFFFFFFFFFFFFFFFFFFFFFFFFF AND PUSH20 0xFFFFFFFFFFFFFFFFFFFFFFFFFFFFFFFFFFFFFFFF AND DUP2 MSTORE PUSH1 0x20 ADD SWAP1 PUSH1 0x1 ADD SWAP1 DUP1 DUP4 GT PUSH2 0xFB9 JUMPI JUMPDEST POP POP POP POP POP SWAP1 POP SWAP1 JUMP JUMPDEST PUSH2 0x1015 PUSH2 0x28B1 JUMP JUMPDEST PUSH1 0x0 DUP1 SLOAD SWAP1 PUSH2 0x100 EXP SWAP1 DIV PUSH20 0xFFFFFFFFFFFFFFFFFFFFFFFFFFFFFFFFFFFFFFFF AND PUSH20 0xFFFFFFFFFFFFFFFFFFFFFFFFFFFFFFFFFFFFFFFF AND CALLER PUSH20 0xFFFFFFFFFFFFFFFFFFFFFFFFFFFFFFFFFFFFFFFF AND EQ PUSH2 0x106D JUMPI PUSH1 0x0 DUP1 REVERT JUMPDEST PUSH1 0x2 PUSH1 0x0 DUP4 PUSH20 0xFFFFFFFFFFFFFFFFFFFFFFFFFFFFFFFFFFFFFFFF AND PUSH20 0xFFFFFFFFFFFFFFFFFFFFFFFFFFFFFFFFFFFFFFFF AND DUP2 MSTORE PUSH1 0x20 ADD SWAP1 DUP2 MSTORE PUSH1 0x20 ADD PUSH1 0x0 KECCAK256 PUSH1 0x40 MLOAD DUP1 PUSH1 0xA0 ADD PUSH1 0x40 MSTORE SWAP1 DUP2 PUSH1 0x0 DUP3 ADD DUP1 SLOAD PUSH2 0x10C7 SWAP1 PUSH2 0x35F5 JUMP JUMPDEST DUP1 PUSH1 0x1F ADD PUSH1 0x20 DUP1 SWAP2 DIV MUL PUSH1 0x20 ADD PUSH1 0x40 MLOAD SWAP1 DUP2 ADD PUSH1 0x40 MSTORE DUP1 SWAP3 SWAP2 SWAP1 DUP2 DUP2 MSTORE PUSH1 0x20 ADD DUP3 DUP1 SLOAD PUSH2 0x10F3 SWAP1 PUSH2 0x35F5 JUMP JUMPDEST DUP1 ISZERO PUSH2 0x1140 JUMPI DUP1 PUSH1 0x1F LT PUSH2 0x1115 JUMPI PUSH2 0x100 DUP1 DUP4 SLOAD DIV MUL DUP4 MSTORE SWAP2 PUSH1 0x20 ADD SWAP2 PUSH2 0x1140 JUMP JUMPDEST DUP3 ADD SWAP2 SWAP1 PUSH1 0x0 MSTORE PUSH1 0x20 PUSH1 0x0 KECCAK256 SWAP1 JUMPDEST DUP2 SLOAD DUP2 MSTORE SWAP1 PUSH1 0x1 ADD SWAP1 PUSH1 0x20 ADD DUP1 DUP4 GT PUSH2 0x1123 JUMPI DUP3 SWAP1 SUB PUSH1 0x1F AND DUP3 ADD SWAP2 JUMPDEST POP POP POP POP POP DUP2 MSTORE PUSH1 0x20 ADD PUSH1 0x1 DUP3 ADD DUP1 SLOAD PUSH2 0x1159 SWAP1 PUSH2 0x35F5 JUMP JUMPDEST DUP1 PUSH1 0x1F ADD PUSH1 0x20 DUP1 SWAP2 DIV MUL PUSH1 0x20 ADD PUSH1 0x40 MLOAD SWAP1 DUP2 ADD PUSH1 0x40 MSTORE DUP1 SWAP3 SWAP2 SWAP1 DUP2 DUP2 MSTORE PUSH1 0x20 ADD DUP3 DUP1 SLOAD PUSH2 0x1185 SWAP1 PUSH2 0x35F5 JUMP JUMPDEST DUP1 ISZERO PUSH2 0x11D2 JUMPI DUP1 PUSH1 0x1F LT PUSH2 0x11A7 JUMPI PUSH2 0x100 DUP1 DUP4 SLOAD DIV MUL DUP4 MSTORE SWAP2 PUSH1 0x20 ADD SWAP2 PUSH2 0x11D2 JUMP JUMPDEST DUP3 ADD SWAP2 SWAP1 PUSH1 0x0 MSTORE PUSH1 0x20 PUSH1 0x0 KECCAK256 SWAP1 JUMPDEST DUP2 SLOAD DUP2 MSTORE SWAP1 PUSH1 0x1 ADD SWAP1 PUSH1 0x20 ADD DUP1 DUP4 GT PUSH2 0x11B5 JUMPI DUP3 SWAP1 SUB PUSH1 0x1F AND DUP3 ADD SWAP2 JUMPDEST POP POP POP POP POP DUP2 MSTORE PUSH1 0x20 ADD PUSH1 0x2 DUP3 ADD PUSH1 0x0 SWAP1 SLOAD SWAP1 PUSH2 0x100 EXP SWAP1 DIV PUSH20 0xFFFFFFFFFFFFFFFFFFFFFFFFFFFFFFFFFFFFFFFF AND PUSH20 0xFFFFFFFFFFFFFFFFFFFFFFFFFFFFFFFFFFFFFFFF AND PUSH20 0xFFFFFFFFFFFFFFFFFFFFFFFFFFFFFFFFFFFFFFFF AND DUP2 MSTORE PUSH1 0x20 ADD PUSH1 0x3 DUP3 ADD DUP1 SLOAD PUSH2 0x1241 SWAP1 PUSH2 0x35F5 JUMP JUMPDEST DUP1 PUSH1 0x1F ADD PUSH1 0x20 DUP1 SWAP2 DIV MUL PUSH1 0x20 ADD PUSH1 0x40 MLOAD SWAP1 DUP2 ADD PUSH1 0x40 MSTORE DUP1 SWAP3 SWAP2 SWAP1 DUP2 DUP2 MSTORE PUSH1 0x20 ADD DUP3 DUP1 SLOAD PUSH2 0x126D SWAP1 PUSH2 0x35F5 JUMP JUMPDEST DUP1 ISZERO PUSH2 0x12BA JUMPI DUP1 PUSH1 0x1F LT PUSH2 0x128F JUMPI PUSH2 0x100 DUP1 DUP4 SLOAD DIV MUL DUP4 MSTORE SWAP2 PUSH1 0x20 ADD SWAP2 PUSH2 0x12BA JUMP JUMPDEST DUP3 ADD SWAP2 SWAP1 PUSH1 0x0 MSTORE PUSH1 0x20 PUSH1 0x0 KECCAK256 SWAP1 JUMPDEST DUP2 SLOAD DUP2 MSTORE SWAP1 PUSH1 0x1 ADD SWAP1 PUSH1 0x20 ADD DUP1 DUP4 GT PUSH2 0x129D JUMPI DUP3 SWAP1 SUB PUSH1 0x1F AND DUP3 ADD SWAP2 JUMPDEST POP POP POP POP POP DUP2 MSTORE PUSH1 0x20 ADD PUSH1 0x4 DUP3 ADD PUSH1 0x0 SWAP1 SLOAD SWAP1 PUSH2 0x100 EXP SWAP1 DIV PUSH1 0xFF AND ISZERO ISZERO ISZERO ISZERO DUP2 MSTORE POP POP SWAP1 POP SWAP2 SWAP1 POP JUMP JUMPDEST PUSH1 0xA PUSH1 0x20 MSTORE DUP1 PUSH1 0x0 MSTORE PUSH1 0x40 PUSH1 0x0 KECCAK256 PUSH1 0x0 SWAP2 POP SLOAD SWAP1 PUSH2 0x100 EXP SWAP1 DIV PUSH1 0xFF AND DUP2 JUMP JUMPDEST PUSH1 0x0 PUSH1 0x3 PUSH1 0x0 CALLER PUSH20 0xFFFFFFFFFFFFFFFFFFFFFFFFFFFFFFFFFFFFFFFF AND PUSH20 0xFFFFFFFFFFFFFFFFFFFFFFFFFFFFFFFFFFFFFFFF AND DUP2 MSTORE PUSH1 0x20 ADD SWAP1 DUP2 MSTORE PUSH1 0x20 ADD PUSH1 0x0 KECCAK256 PUSH1 0x0 SWAP1 SLOAD SWAP1 PUSH2 0x100 EXP SWAP1 DIV PUSH1 0xFF AND PUSH2 0x135D JUMPI PUSH1 0x0 DUP1 REVERT JUMPDEST PUSH1 0x1 SWAP1 POP SWAP1 JUMP JUMPDEST PUSH1 0x0 PUSH1 0x8 DUP3 PUSH1 0x40 MLOAD PUSH2 0x1376 SWAP2 SWAP1 PUSH2 0x35AF JUMP JUMPDEST SWAP1 DUP2 MSTORE PUSH1 0x20 ADD PUSH1 0x40 MLOAD DUP1 SWAP2 SUB SWAP1 KECCAK256 SWAP1 POP PUSH1 0x1 DUP2 PUSH1 0x5 ADD PUSH1 0x0 PUSH2 0x100 EXP DUP2 SLOAD DUP2 PUSH1 0xFF MUL NOT AND SWAP1 DUP4 ISZERO ISZERO MUL OR SWAP1 SSTORE POP POP POP JUMP JUMPDEST PUSH1 0x0 PUSH1 0x8 DUP3 PUSH1 0x40 MLOAD PUSH2 0x13B9 SWAP2 SWAP1 PUSH2 0x35AF JUMP JUMPDEST SWAP1 DUP2 MSTORE PUSH1 0x20 ADD PUSH1 0x40 MLOAD DUP1 SWAP2 SUB SWAP1 KECCAK256 SWAP1 POP CALLER DUP2 PUSH1 0x3 ADD PUSH1 0x0 PUSH2 0x100 EXP DUP2 SLOAD DUP2 PUSH20 0xFFFFFFFFFFFFFFFFFFFFFFFFFFFFFFFFFFFFFFFF MUL NOT AND SWAP1 DUP4 PUSH20 0xFFFFFFFFFFFFFFFFFFFFFFFFFFFFFFFFFFFFFFFF AND MUL OR SWAP1 SSTORE POP PUSH1 0x0 DUP2 PUSH1 0x5 ADD PUSH1 0x0 PUSH2 0x100 EXP DUP2 SLOAD DUP2 PUSH1 0xFF MUL NOT AND SWAP1 DUP4 ISZERO ISZERO MUL OR SWAP1 SSTORE POP PUSH1 0x0 DUP2 PUSH1 0x5 ADD PUSH1 0x1 PUSH2 0x100 EXP DUP2 SLOAD DUP2 PUSH1 0xFF MUL NOT AND SWAP1 DUP4 ISZERO ISZERO MUL OR SWAP1 SSTORE POP PUSH1 0x0 DUP2 PUSH1 0x5 ADD PUSH1 0x2 PUSH2 0x100 EXP DUP2 SLOAD DUP2 PUSH20 0xFFFFFFFFFFFFFFFFFFFFFFFFFFFFFFFFFFFFFFFF MUL NOT AND SWAP1 DUP4 PUSH20 0xFFFFFFFFFFFFFFFFFFFFFFFFFFFFFFFFFFFFFFFF AND MUL OR SWAP1 SSTORE POP PUSH1 0x0 DUP2 PUSH1 0x7 ADD PUSH1 0x14 PUSH2 0x100 EXP DUP2 SLOAD DUP2 PUSH1 0xFF MUL NOT AND SWAP1 DUP4 ISZERO ISZERO MUL OR SWAP1 SSTORE POP POP POP JUMP JUMPDEST PUSH1 0x3 PUSH1 0x0 CALLER PUSH20 0xFFFFFFFFFFFFFFFFFFFFFFFFFFFFFFFFFFFFFFFF AND PUSH20 0xFFFFFFFFFFFFFFFFFFFFFFFFFFFFFFFFFFFFFFFF AND DUP2 MSTORE PUSH1 0x20 ADD SWAP1 DUP2 MSTORE PUSH1 0x20 ADD PUSH1 0x0 KECCAK256 PUSH1 0x0 SWAP1 SLOAD SWAP1 PUSH2 0x100 EXP SWAP1 DIV PUSH1 0xFF AND PUSH2 0x1501 JUMPI PUSH1 0x0 DUP1 REVERT JUMPDEST PUSH1 0x7 DUP2 PUSH1 0x40 MLOAD PUSH2 0x1511 SWAP2 SWAP1 PUSH2 0x35AF JUMP JUMPDEST SWAP1 DUP2 MSTORE PUSH1 0x20 ADD PUSH1 0x40 MLOAD DUP1 SWAP2 SUB SWAP1 KECCAK256 PUSH1 0x0 SWAP1 SLOAD SWAP1 PUSH2 0x100 EXP SWAP1 DIV PUSH1 0xFF AND ISZERO PUSH2 0x1537 JUMPI PUSH1 0x0 DUP1 REVERT JUMPDEST PUSH1 0x1 PUSH1 0x7 DUP3 PUSH1 0x40 MLOAD PUSH2 0x1549 SWAP2 SWAP1 PUSH2 0x35AF JUMP JUMPDEST SWAP1 DUP2 MSTORE PUSH1 0x20 ADD PUSH1 0x40 MLOAD DUP1 SWAP2 SUB SWAP1 KECCAK256 PUSH1 0x0 PUSH2 0x100 EXP DUP2 SLOAD DUP2 PUSH1 0xFF MUL NOT AND SWAP1 DUP4 ISZERO ISZERO MUL OR SWAP1 SSTORE POP PUSH1 0x6 DUP2 SWAP1 DUP1 PUSH1 0x1 DUP2 SLOAD ADD DUP1 DUP3 SSTORE DUP1 SWAP2 POP POP PUSH1 0x1 SWAP1 SUB SWAP1 PUSH1 0x0 MSTORE PUSH1 0x20 PUSH1 0x0 KECCAK256 ADD PUSH1 0x0 SWAP1 SWAP2 SWAP1 SWAP2 SWAP1 SWAP2 POP SWAP1 DUP1 MLOAD SWAP1 PUSH1 0x20 ADD SWAP1 PUSH2 0x15A9 SWAP3 SWAP2 SWAP1 PUSH2 0x282B JUMP JUMPDEST POP PUSH1 0x0 PUSH1 0x8 DUP3 PUSH1 0x40 MLOAD PUSH2 0x15BC SWAP2 SWAP1 PUSH2 0x35AF JUMP JUMPDEST SWAP1 DUP2 MSTORE PUSH1 0x20 ADD PUSH1 0x40 MLOAD DUP1 SWAP2 SUB SWAP1 KECCAK256 SWAP1 POP PUSH1 0x2 PUSH1 0x0 DUP5 PUSH20 0xFFFFFFFFFFFFFFFFFFFFFFFFFFFFFFFFFFFFFFFF AND PUSH20 0xFFFFFFFFFFFFFFFFFFFFFFFFFFFFFFFFFFFFFFFF AND DUP2 MSTORE PUSH1 0x20 ADD SWAP1 DUP2 MSTORE PUSH1 0x20 ADD PUSH1 0x0 KECCAK256 PUSH1 0x3 ADD DUP2 PUSH1 0x0 ADD SWAP1 DUP1 SLOAD PUSH2 0x161E SWAP1 PUSH2 0x35F5 JUMP JUMPDEST PUSH2 0x1629 SWAP3 SWAP2 SWAP1 PUSH2 0x28F8 JUMP JUMPDEST POP DUP7 DUP2 PUSH1 0x1 ADD SWAP1 DUP1 MLOAD SWAP1 PUSH1 0x20 ADD SWAP1 PUSH2 0x1642 SWAP3 SWAP2 SWAP1 PUSH2 0x282B JUMP JUMPDEST POP DUP6 DUP2 PUSH1 0x2 ADD SWAP1 DUP1 MLOAD SWAP1 PUSH1 0x20 ADD SWAP1 PUSH2 0x165B SWAP3 SWAP2 SWAP1 PUSH2 0x282B JUMP JUMPDEST POP DUP5 DUP2 PUSH1 0x3 ADD PUSH1 0x0 PUSH2 0x100 EXP DUP2 SLOAD DUP2 PUSH20 0xFFFFFFFFFFFFFFFFFFFFFFFFFFFFFFFFFFFFFFFF MUL NOT AND SWAP1 DUP4 PUSH20 0xFFFFFFFFFFFFFFFFFFFFFFFFFFFFFFFFFFFFFFFF AND MUL OR SWAP1 SSTORE POP DUP4 DUP2 PUSH1 0x4 ADD SWAP1 DUP1 MLOAD SWAP1 PUSH1 0x20 ADD SWAP1 PUSH2 0x16B7 SWAP3 SWAP2 SWAP1 PUSH2 0x282B JUMP JUMPDEST POP PUSH1 0x0 DUP2 PUSH1 0x5 ADD PUSH1 0x0 PUSH2 0x100 EXP DUP2 SLOAD DUP2 PUSH1 0xFF MUL NOT AND SWAP1 DUP4 ISZERO ISZERO MUL OR SWAP1 SSTORE POP PUSH1 0x0 DUP2 PUSH1 0x5 ADD PUSH1 0x1 PUSH2 0x100 EXP DUP2 SLOAD DUP2 PUSH1 0xFF MUL NOT AND SWAP1 DUP4 ISZERO ISZERO MUL OR SWAP1 SSTORE POP PUSH1 0x0 DUP2 PUSH1 0x5 ADD PUSH1 0x2 PUSH2 0x100 EXP DUP2 SLOAD DUP2 PUSH20 0xFFFFFFFFFFFFFFFFFFFFFFFFFFFFFFFFFFFFFFFF MUL NOT AND SWAP1 DUP4 PUSH20 0xFFFFFFFFFFFFFFFFFFFFFFFFFFFFFFFFFFFFFFFF AND MUL OR SWAP1 SSTORE POP DUP2 DUP2 PUSH1 0x6 ADD SWAP1 DUP1 MLOAD SWAP1 PUSH1 0x20 ADD SWAP1 PUSH2 0x174E SWAP3 SWAP2 SWAP1 PUSH2 0x282B JUMP JUMPDEST POP DUP3 DUP2 PUSH1 0x7 ADD PUSH1 0x0 PUSH2 0x100 EXP DUP2 SLOAD DUP2 PUSH20 0xFFFFFFFFFFFFFFFFFFFFFFFFFFFFFFFFFFFFFFFF MUL NOT AND SWAP1 DUP4 PUSH20 0xFFFFFFFFFFFFFFFFFFFFFFFFFFFFFFFFFFFFFFFF AND MUL OR SWAP1 SSTORE POP PUSH1 0x1 PUSH1 0x9 SLOAD PUSH2 0x17A1 SWAP2 SWAP1 PUSH2 0x3656 JUMP JUMPDEST PUSH1 0x9 DUP2 SWAP1 SSTORE POP POP POP POP POP POP POP POP JUMP JUMPDEST PUSH1 0x8 DUP2 DUP1 MLOAD PUSH1 0x20 DUP2 ADD DUP3 ADD DUP1 MLOAD DUP5 DUP3 MSTORE PUSH1 0x20 DUP4 ADD PUSH1 0x20 DUP6 ADD KECCAK256 DUP2 DUP4 MSTORE DUP1 SWAP6 POP POP POP POP POP POP PUSH1 0x0 SWAP2 POP SWAP1 POP DUP1 PUSH1 0x0 ADD DUP1 SLOAD PUSH2 0x17E9 SWAP1 PUSH2 0x35F5 JUMP JUMPDEST DUP1 PUSH1 0x1F ADD PUSH1 0x20 DUP1 SWAP2 DIV MUL PUSH1 0x20 ADD PUSH1 0x40 MLOAD SWAP1 DUP2 ADD PUSH1 0x40 MSTORE DUP1 SWAP3 SWAP2 SWAP1 DUP2 DUP2 MSTORE PUSH1 0x20 ADD DUP3 DUP1 SLOAD PUSH2 0x1815 SWAP1 PUSH2 0x35F5 JUMP JUMPDEST DUP1 ISZERO PUSH2 0x1862 JUMPI DUP1 PUSH1 0x1F LT PUSH2 0x1837 JUMPI PUSH2 0x100 DUP1 DUP4 SLOAD DIV MUL DUP4 MSTORE SWAP2 PUSH1 0x20 ADD SWAP2 PUSH2 0x1862 JUMP JUMPDEST DUP3 ADD SWAP2 SWAP1 PUSH1 0x0 MSTORE PUSH1 0x20 PUSH1 0x0 KECCAK256 SWAP1 JUMPDEST DUP2 SLOAD DUP2 MSTORE SWAP1 PUSH1 0x1 ADD SWAP1 PUSH1 0x20 ADD DUP1 DUP4 GT PUSH2 0x1845 JUMPI DUP3 SWAP1 SUB PUSH1 0x1F AND DUP3 ADD SWAP2 JUMPDEST POP POP POP POP POP SWAP1 DUP1 PUSH1 0x1 ADD DUP1 SLOAD PUSH2 0x1877 SWAP1 PUSH2 0x35F5 JUMP JUMPDEST DUP1 PUSH1 0x1F ADD PUSH1 0x20 DUP1 SWAP2 DIV MUL PUSH1 0x20 ADD PUSH1 0x40 MLOAD SWAP1 DUP2 ADD PUSH1 0x40 MSTORE DUP1 SWAP3 SWAP2 SWAP1 DUP2 DUP2 MSTORE PUSH1 0x20 ADD DUP3 DUP1 SLOAD PUSH2 0x18A3 SWAP1 PUSH2 0x35F5 JUMP JUMPDEST DUP1 ISZERO PUSH2 0x18F0 JUMPI DUP1 PUSH1 0x1F LT PUSH2 0x18C5 JUMPI PUSH2 0x100 DUP1 DUP4 SLOAD DIV MUL DUP4 MSTORE SWAP2 PUSH1 0x20 ADD SWAP2 PUSH2 0x18F0 JUMP JUMPDEST DUP3 ADD SWAP2 SWAP1 PUSH1 0x0 MSTORE PUSH1 0x20 PUSH1 0x0 KECCAK256 SWAP1 JUMPDEST DUP2 SLOAD DUP2 MSTORE SWAP1 PUSH1 0x1 ADD SWAP1 PUSH1 0x20 ADD DUP1 DUP4 GT PUSH2 0x18D3 JUMPI DUP3 SWAP1 SUB PUSH1 0x1F AND DUP3 ADD SWAP2 JUMPDEST POP POP POP POP POP SWAP1 DUP1 PUSH1 0x2 ADD DUP1 SLOAD PUSH2 0x1905 SWAP1 PUSH2 0x35F5 JUMP JUMPDEST DUP1 PUSH1 0x1F ADD PUSH1 0x20 DUP1 SWAP2 DIV MUL PUSH1 0x20 ADD PUSH1 0x40 MLOAD SWAP1 DUP2 ADD PUSH1 0x40 MSTORE DUP1 SWAP3 SWAP2 SWAP1 DUP2 DUP2 MSTORE PUSH1 0x20 ADD DUP3 DUP1 SLOAD PUSH2 0x1931 SWAP1 PUSH2 0x35F5 JUMP JUMPDEST DUP1 ISZERO PUSH2 0x197E JUMPI DUP1 PUSH1 0x1F LT PUSH2 0x1953 JUMPI PUSH2 0x100 DUP1 DUP4 SLOAD DIV MUL DUP4 MSTORE SWAP2 PUSH1 0x20 ADD SWAP2 PUSH2 0x197E JUMP JUMPDEST DUP3 ADD SWAP2 SWAP1 PUSH1 0x0 MSTORE PUSH1 0x20 PUSH1 0x0 KECCAK256 SWAP1 JUMPDEST DUP2 SLOAD DUP2 MSTORE SWAP1 PUSH1 0x1 ADD SWAP1 PUSH1 0x20 ADD DUP1 DUP4 GT PUSH2 0x1961 JUMPI DUP3 SWAP1 SUB PUSH1 0x1F AND DUP3 ADD SWAP2 JUMPDEST POP POP POP POP POP SWAP1 DUP1 PUSH1 0x3 ADD PUSH1 0x0 SWAP1 SLOAD SWAP1 PUSH2 0x100 EXP SWAP1 DIV PUSH20 0xFFFFFFFFFFFFFFFFFFFFFFFFFFFFFFFFFFFFFFFF AND SWAP1 DUP1 PUSH1 0x4 ADD DUP1 SLOAD PUSH2 0x19B9 SWAP1 PUSH2 0x35F5 JUMP JUMPDEST DUP1 PUSH1 0x1F ADD PUSH1 0x20 DUP1 SWAP2 DIV MUL PUSH1 0x20 ADD PUSH1 0x40 MLOAD SWAP1 DUP2 ADD PUSH1 0x40 MSTORE DUP1 SWAP3 SWAP2 SWAP1 DUP2 DUP2 MSTORE PUSH1 0x20 ADD DUP3 DUP1 SLOAD PUSH2 0x19E5 SWAP1 PUSH2 0x35F5 JUMP JUMPDEST DUP1 ISZERO PUSH2 0x1A32 JUMPI DUP1 PUSH1 0x1F LT PUSH2 0x1A07 JUMPI PUSH2 0x100 DUP1 DUP4 SLOAD DIV MUL DUP4 MSTORE SWAP2 PUSH1 0x20 ADD SWAP2 PUSH2 0x1A32 JUMP JUMPDEST DUP3 ADD SWAP2 SWAP1 PUSH1 0x0 MSTORE PUSH1 0x20 PUSH1 0x0 KECCAK256 SWAP1 JUMPDEST DUP2 SLOAD DUP2 MSTORE SWAP1 PUSH1 0x1 ADD SWAP1 PUSH1 0x20 ADD DUP1 DUP4 GT PUSH2 0x1A15 JUMPI DUP3 SWAP1 SUB PUSH1 0x1F AND DUP3 ADD SWAP2 JUMPDEST POP POP POP POP POP SWAP1 DUP1 PUSH1 0x5 ADD PUSH1 0x0 SWAP1 SLOAD SWAP1 PUSH2 0x100 EXP SWAP1 DIV PUSH1 0xFF AND SWAP1 DUP1 PUSH1 0x5 ADD PUSH1 0x1 SWAP1 SLOAD SWAP1 PUSH2 0x100 EXP SWAP1 DIV PUSH1 0xFF AND SWAP1 DUP1 PUSH1 0x5 ADD PUSH1 0x2 SWAP1 SLOAD SWAP1 PUSH2 0x100 EXP SWAP1 DIV PUSH20 0xFFFFFFFFFFFFFFFFFFFFFFFFFFFFFFFFFFFFFFFF AND SWAP1 DUP1 PUSH1 0x6 ADD DUP1 SLOAD PUSH2 0x1A93 SWAP1 PUSH2 0x35F5 JUMP JUMPDEST DUP1 PUSH1 0x1F ADD PUSH1 0x20 DUP1 SWAP2 DIV MUL PUSH1 0x20 ADD PUSH1 0x40 MLOAD SWAP1 DUP2 ADD PUSH1 0x40 MSTORE DUP1 SWAP3 SWAP2 SWAP1 DUP2 DUP2 MSTORE PUSH1 0x20 ADD DUP3 DUP1 SLOAD PUSH2 0x1ABF SWAP1 PUSH2 0x35F5 JUMP JUMPDEST DUP1 ISZERO PUSH2 0x1B0C JUMPI DUP1 PUSH1 0x1F LT PUSH2 0x1AE1 JUMPI PUSH2 0x100 DUP1 DUP4 SLOAD DIV MUL DUP4 MSTORE SWAP2 PUSH1 0x20 ADD SWAP2 PUSH2 0x1B0C JUMP JUMPDEST DUP3 ADD SWAP2 SWAP1 PUSH1 0x0 MSTORE PUSH1 0x20 PUSH1 0x0 KECCAK256 SWAP1 JUMPDEST DUP2 SLOAD DUP2 MSTORE SWAP1 PUSH1 0x1 ADD SWAP1 PUSH1 0x20 ADD DUP1 DUP4 GT PUSH2 0x1AEF JUMPI DUP3 SWAP1 SUB PUSH1 0x1F AND DUP3 ADD SWAP2 JUMPDEST POP POP POP POP POP SWAP1 DUP1 PUSH1 0x7 ADD PUSH1 0x0 SWAP1 SLOAD SWAP1 PUSH2 0x100 EXP SWAP1 DIV PUSH20 0xFFFFFFFFFFFFFFFFFFFFFFFFFFFFFFFFFFFFFFFF AND SWAP1 DUP1 PUSH1 0x7 ADD PUSH1 0x14 SWAP1 SLOAD SWAP1 PUSH2 0x100 EXP SWAP1 DIV PUSH1 0xFF AND SWAP1 POP DUP12 JUMP JUMPDEST PUSH1 0xB PUSH1 0x20 MSTORE DUP1 PUSH1 0x0 MSTORE PUSH1 0x40 PUSH1 0x0 KECCAK256 PUSH1 0x0 SWAP2 POP SWAP1 POP DUP1 PUSH1 0x0 ADD DUP1 SLOAD PUSH2 0x1B72 SWAP1 PUSH2 0x35F5 JUMP JUMPDEST DUP1 PUSH1 0x1F ADD PUSH1 0x20 DUP1 SWAP2 DIV MUL PUSH1 0x20 ADD PUSH1 0x40 MLOAD SWAP1 DUP2 ADD PUSH1 0x40 MSTORE DUP1 SWAP3 SWAP2 SWAP1 DUP2 DUP2 MSTORE PUSH1 0x20 ADD DUP3 DUP1 SLOAD PUSH2 0x1B9E SWAP1 PUSH2 0x35F5 JUMP JUMPDEST DUP1 ISZERO PUSH2 0x1BEB JUMPI DUP1 PUSH1 0x1F LT PUSH2 0x1BC0 JUMPI PUSH2 0x100 DUP1 DUP4 SLOAD DIV MUL DUP4 MSTORE SWAP2 PUSH1 0x20 ADD SWAP2 PUSH2 0x1BEB JUMP JUMPDEST DUP3 ADD SWAP2 SWAP1 PUSH1 0x0 MSTORE PUSH1 0x20 PUSH1 0x0 KECCAK256 SWAP1 JUMPDEST DUP2 SLOAD DUP2 MSTORE SWAP1 PUSH1 0x1 ADD SWAP1 PUSH1 0x20 ADD DUP1 DUP4 GT PUSH2 0x1BCE JUMPI DUP3 SWAP1 SUB PUSH1 0x1F AND DUP3 ADD SWAP2 JUMPDEST POP POP POP POP POP SWAP1 DUP1 PUSH1 0x1 ADD DUP1 SLOAD PUSH2 0x1C00 SWAP1 PUSH2 0x35F5 JUMP JUMPDEST DUP1 PUSH1 0x1F ADD PUSH1 0x20 DUP1 SWAP2 DIV MUL PUSH1 0x20 ADD PUSH1 0x40 MLOAD SWAP1 DUP2 ADD PUSH1 0x40 MSTORE DUP1 SWAP3 SWAP2 SWAP1 DUP2 DUP2 MSTORE PUSH1 0x20 ADD DUP3 DUP1 SLOAD PUSH2 0x1C2C SWAP1 PUSH2 0x35F5 JUMP JUMPDEST DUP1 ISZERO PUSH2 0x1C79 JUMPI DUP1 PUSH1 0x1F LT PUSH2 0x1C4E JUMPI PUSH2 0x100 DUP1 DUP4 SLOAD DIV MUL DUP4 MSTORE SWAP2 PUSH1 0x20 ADD SWAP2 PUSH2 0x1C79 JUMP JUMPDEST DUP3 ADD SWAP2 SWAP1 PUSH1 0x0 MSTORE PUSH1 0x20 PUSH1 0x0 KECCAK256 SWAP1 JUMPDEST DUP2 SLOAD DUP2 MSTORE SWAP1 PUSH1 0x1 ADD SWAP1 PUSH1 0x20 ADD DUP1 DUP4 GT PUSH2 0x1C5C JUMPI DUP3 SWAP1 SUB PUSH1 0x1F AND DUP3 ADD SWAP2 JUMPDEST POP POP POP POP POP SWAP1 DUP1 PUSH1 0x2 ADD DUP1 SLOAD PUSH2 0x1C8E SWAP1 PUSH2 0x35F5 JUMP JUMPDEST DUP1 PUSH1 0x1F ADD PUSH1 0x20 DUP1 SWAP2 DIV MUL PUSH1 0x20 ADD PUSH1 0x40 MLOAD SWAP1 DUP2 ADD PUSH1 0x40 MSTORE DUP1 SWAP3 SWAP2 SWAP1 DUP2 DUP2 MSTORE PUSH1 0x20 ADD DUP3 DUP1 SLOAD PUSH2 0x1CBA SWAP1 PUSH2 0x35F5 JUMP JUMPDEST DUP1 ISZERO PUSH2 0x1D07 JUMPI DUP1 PUSH1 0x1F LT PUSH2 0x1CDC JUMPI PUSH2 0x100 DUP1 DUP4 SLOAD DIV MUL DUP4 MSTORE SWAP2 PUSH1 0x20 ADD SWAP2 PUSH2 0x1D07 JUMP JUMPDEST DUP3 ADD SWAP2 SWAP1 PUSH1 0x0 MSTORE PUSH1 0x20 PUSH1 0x0 KECCAK256 SWAP1 JUMPDEST DUP2 SLOAD DUP2 MSTORE SWAP1 PUSH1 0x1 ADD SWAP1 PUSH1 0x20 ADD DUP1 DUP4 GT PUSH2 0x1CEA JUMPI DUP3 SWAP1 SUB PUSH1 0x1F AND DUP3 ADD SWAP2 JUMPDEST POP POP POP POP POP SWAP1 DUP1 PUSH1 0x3 ADD DUP1 SLOAD PUSH2 0x1D1C SWAP1 PUSH2 0x35F5 JUMP JUMPDEST DUP1 PUSH1 0x1F ADD PUSH1 0x20 DUP1 SWAP2 DIV MUL PUSH1 0x20 ADD PUSH1 0x40 MLOAD SWAP1 DUP2 ADD PUSH1 0x40 MSTORE DUP1 SWAP3 SWAP2 SWAP1 DUP2 DUP2 MSTORE PUSH1 0x20 ADD DUP3 DUP1 SLOAD PUSH2 0x1D48 SWAP1 PUSH2 0x35F5 JUMP JUMPDEST DUP1 ISZERO PUSH2 0x1D95 JUMPI DUP1 PUSH1 0x1F LT PUSH2 0x1D6A JUMPI PUSH2 0x100 DUP1 DUP4 SLOAD DIV MUL DUP4 MSTORE SWAP2 PUSH1 0x20 ADD SWAP2 PUSH2 0x1D95 JUMP JUMPDEST DUP3 ADD SWAP2 SWAP1 PUSH1 0x0 MSTORE PUSH1 0x20 PUSH1 0x0 KECCAK256 SWAP1 JUMPDEST DUP2 SLOAD DUP2 MSTORE SWAP1 PUSH1 0x1 ADD SWAP1 PUSH1 0x20 ADD DUP1 DUP4 GT PUSH2 0x1D78 JUMPI DUP3 SWAP1 SUB PUSH1 0x1F AND DUP3 ADD SWAP2 JUMPDEST POP POP POP POP POP SWAP1 DUP1 PUSH1 0x4 ADD DUP1 SLOAD PUSH2 0x1DAA SWAP1 PUSH2 0x35F5 JUMP JUMPDEST DUP1 PUSH1 0x1F ADD PUSH1 0x20 DUP1 SWAP2 DIV MUL PUSH1 0x20 ADD PUSH1 0x40 MLOAD SWAP1 DUP2 ADD PUSH1 0x40 MSTORE DUP1 SWAP3 SWAP2 SWAP1 DUP2 DUP2 MSTORE PUSH1 0x20 ADD DUP3 DUP1 SLOAD PUSH2 0x1DD6 SWAP1 PUSH2 0x35F5 JUMP JUMPDEST DUP1 ISZERO PUSH2 0x1E23 JUMPI DUP1 PUSH1 0x1F LT PUSH2 0x1DF8 JUMPI PUSH2 0x100 DUP1 DUP4 SLOAD DIV MUL DUP4 MSTORE SWAP2 PUSH1 0x20 ADD SWAP2 PUSH2 0x1E23 JUMP JUMPDEST DUP3 ADD SWAP2 SWAP1 PUSH1 0x0 MSTORE PUSH1 0x20 PUSH1 0x0 KECCAK256 SWAP1 JUMPDEST DUP2 SLOAD DUP2 MSTORE SWAP1 PUSH1 0x1 ADD SWAP1 PUSH1 0x20 ADD DUP1 DUP4 GT PUSH2 0x1E06 JUMPI DUP3 SWAP1 SUB PUSH1 0x1F AND DUP3 ADD SWAP2 JUMPDEST POP POP POP POP POP SWAP1 DUP1 PUSH1 0x5 ADD DUP1 SLOAD PUSH2 0x1E38 SWAP1 PUSH2 0x35F5 JUMP JUMPDEST DUP1 PUSH1 0x1F ADD PUSH1 0x20 DUP1 SWAP2 DIV MUL PUSH1 0x20 ADD PUSH1 0x40 MLOAD SWAP1 DUP2 ADD PUSH1 0x40 MSTORE DUP1 SWAP3 SWAP2 SWAP1 DUP2 DUP2 MSTORE PUSH1 0x20 ADD DUP3 DUP1 SLOAD PUSH2 0x1E64 SWAP1 PUSH2 0x35F5 JUMP JUMPDEST DUP1 ISZERO PUSH2 0x1EB1 JUMPI DUP1 PUSH1 0x1F LT PUSH2 0x1E86 JUMPI PUSH2 0x100 DUP1 DUP4 SLOAD DIV MUL DUP4 MSTORE SWAP2 PUSH1 0x20 ADD SWAP2 PUSH2 0x1EB1 JUMP JUMPDEST DUP3 ADD SWAP2 SWAP1 PUSH1 0x0 MSTORE PUSH1 0x20 PUSH1 0x0 KECCAK256 SWAP1 JUMPDEST DUP2 SLOAD DUP2 MSTORE SWAP1 PUSH1 0x1 ADD SWAP1 PUSH1 0x20 ADD DUP1 DUP4 GT PUSH2 0x1E94 JUMPI DUP3 SWAP1 SUB PUSH1 0x1F AND DUP3 ADD SWAP2 JUMPDEST POP POP POP POP POP SWAP1 DUP1 PUSH1 0x6 ADD DUP1 SLOAD PUSH2 0x1EC6 SWAP1 PUSH2 0x35F5 JUMP JUMPDEST DUP1 PUSH1 0x1F ADD PUSH1 0x20 DUP1 SWAP2 DIV MUL PUSH1 0x20 ADD PUSH1 0x40 MLOAD SWAP1 DUP2 ADD PUSH1 0x40 MSTORE DUP1 SWAP3 SWAP2 SWAP1 DUP2 DUP2 MSTORE PUSH1 0x20 ADD DUP3 DUP1 SLOAD PUSH2 0x1EF2 SWAP1 PUSH2 0x35F5 JUMP JUMPDEST DUP1 ISZERO PUSH2 0x1F3F JUMPI DUP1 PUSH1 0x1F LT PUSH2 0x1F14 JUMPI PUSH2 0x100 DUP1 DUP4 SLOAD DIV MUL DUP4 MSTORE SWAP2 PUSH1 0x20 ADD SWAP2 PUSH2 0x1F3F JUMP JUMPDEST DUP3 ADD SWAP2 SWAP1 PUSH1 0x0 MSTORE PUSH1 0x20 PUSH1 0x0 KECCAK256 SWAP1 JUMPDEST DUP2 SLOAD DUP2 MSTORE SWAP1 PUSH1 0x1 ADD SWAP1 PUSH1 0x20 ADD DUP1 DUP4 GT PUSH2 0x1F22 JUMPI DUP3 SWAP1 SUB PUSH1 0x1F AND DUP3 ADD SWAP2 JUMPDEST POP POP POP POP POP SWAP1 DUP1 PUSH1 0x7 ADD DUP1 SLOAD PUSH2 0x1F54 SWAP1 PUSH2 0x35F5 JUMP JUMPDEST DUP1 PUSH1 0x1F ADD PUSH1 0x20 DUP1 SWAP2 DIV MUL PUSH1 0x20 ADD PUSH1 0x40 MLOAD SWAP1 DUP2 ADD PUSH1 0x40 MSTORE DUP1 SWAP3 SWAP2 SWAP1 DUP2 DUP2 MSTORE PUSH1 0x20 ADD DUP3 DUP1 SLOAD PUSH2 0x1F80 SWAP1 PUSH2 0x35F5 JUMP JUMPDEST DUP1 ISZERO PUSH2 0x1FCD JUMPI DUP1 PUSH1 0x1F LT PUSH2 0x1FA2 JUMPI PUSH2 0x100 DUP1 DUP4 SLOAD DIV MUL DUP4 MSTORE SWAP2 PUSH1 0x20 ADD SWAP2 PUSH2 0x1FCD JUMP JUMPDEST DUP3 ADD SWAP2 SWAP1 PUSH1 0x0 MSTORE PUSH1 0x20 PUSH1 0x0 KECCAK256 SWAP1 JUMPDEST DUP2 SLOAD DUP2 MSTORE SWAP1 PUSH1 0x1 ADD SWAP1 PUSH1 0x20 ADD DUP1 DUP4 GT PUSH2 0x1FB0 JUMPI DUP3 SWAP1 SUB PUSH1 0x1F AND DUP3 ADD SWAP2 JUMPDEST POP POP POP POP POP SWAP1 DUP1 PUSH1 0x8 ADD PUSH1 0x0 SWAP1 SLOAD SWAP1 PUSH2 0x100 EXP SWAP1 DIV PUSH20 0xFFFFFFFFFFFFFFFFFFFFFFFFFFFFFFFFFFFFFFFF AND SWAP1 POP DUP10 JUMP JUMPDEST PUSH1 0x7 DUP2 DUP1 MLOAD PUSH1 0x20 DUP2 ADD DUP3 ADD DUP1 MLOAD DUP5 DUP3 MSTORE PUSH1 0x20 DUP4 ADD PUSH1 0x20 DUP6 ADD KECCAK256 DUP2 DUP4 MSTORE DUP1 SWAP6 POP POP POP POP POP POP PUSH1 0x0 SWAP2 POP SLOAD SWAP1 PUSH2 0x100 EXP SWAP1 DIV PUSH1 0xFF AND DUP2 JUMP JUMPDEST PUSH1 0x6 DUP2 DUP2 SLOAD DUP2 LT PUSH2 0x2043 JUMPI PUSH1 0x0 DUP1 REVERT JUMPDEST SWAP1 PUSH1 0x0 MSTORE PUSH1 0x20 PUSH1 0x0 KECCAK256 ADD PUSH1 0x0 SWAP2 POP SWAP1 POP DUP1 SLOAD PUSH2 0x205E SWAP1 PUSH2 0x35F5 JUMP JUMPDEST DUP1 PUSH1 0x1F ADD PUSH1 0x20 DUP1 SWAP2 DIV MUL PUSH1 0x20 ADD PUSH1 0x40 MLOAD SWAP1 DUP2 ADD PUSH1 0x40 MSTORE DUP1 SWAP3 SWAP2 SWAP1 DUP2 DUP2 MSTORE PUSH1 0x20 ADD DUP3 DUP1 SLOAD PUSH2 0x208A SWAP1 PUSH2 0x35F5 JUMP JUMPDEST DUP1 ISZERO PUSH2 0x20D7 JUMPI DUP1 PUSH1 0x1F LT PUSH2 0x20AC JUMPI PUSH2 0x100 DUP1 DUP4 SLOAD DIV MUL DUP4 MSTORE SWAP2 PUSH1 0x20 ADD SWAP2 PUSH2 0x20D7 JUMP JUMPDEST DUP3 ADD SWAP2 SWAP1 PUSH1 0x0 MSTORE PUSH1 0x20 PUSH1 0x0 KECCAK256 SWAP1 JUMPDEST DUP2 SLOAD DUP2 MSTORE SWAP1 PUSH1 0x1 ADD SWAP1 PUSH1 0x20 ADD DUP1 DUP4 GT PUSH2 0x20BA JUMPI DUP3 SWAP1 SUB PUSH1 0x1F AND DUP3 ADD SWAP2 JUMPDEST POP POP POP POP POP DUP2 JUMP JUMPDEST PUSH1 0x0 DUP1 SLOAD SWAP1 PUSH2 0x100 EXP SWAP1 DIV PUSH20 0xFFFFFFFFFFFFFFFFFFFFFFFFFFFFFFFFFFFFFFFF AND PUSH20 0xFFFFFFFFFFFFFFFFFFFFFFFFFFFFFFFFFFFFFFFF AND CALLER PUSH20 0xFFFFFFFFFFFFFFFFFFFFFFFFFFFFFFFFFFFFFFFF AND EQ PUSH2 0x2137 JUMPI PUSH1 0x0 DUP1 REVERT JUMPDEST PUSH2 0x221A PUSH1 0x2 PUSH1 0x0 DUP4 PUSH20 0xFFFFFFFFFFFFFFFFFFFFFFFFFFFFFFFFFFFFFFFF AND PUSH20 0xFFFFFFFFFFFFFFFFFFFFFFFFFFFFFFFFFFFFFFFF AND DUP2 MSTORE PUSH1 0x20 ADD SWAP1 DUP2 MSTORE PUSH1 0x20 ADD PUSH1 0x0 KECCAK256 PUSH1 0x3 ADD DUP1 SLOAD PUSH2 0x2187 SWAP1 PUSH2 0x35F5 JUMP JUMPDEST DUP1 PUSH1 0x1F ADD PUSH1 0x20 DUP1 SWAP2 DIV MUL PUSH1 0x20 ADD PUSH1 0x40 MLOAD SWAP1 DUP2 ADD PUSH1 0x40 MSTORE DUP1 SWAP3 SWAP2 SWAP1 DUP2 DUP2 MSTORE PUSH1 0x20 ADD DUP3 DUP1 SLOAD PUSH2 0x21B3 SWAP1 PUSH2 0x35F5 JUMP JUMPDEST DUP1 ISZERO PUSH2 0x2200 JUMPI DUP1 PUSH1 0x1F LT PUSH2 0x21D5 JUMPI PUSH2 0x100 DUP1 DUP4 SLOAD DIV MUL DUP4 MSTORE SWAP2 PUSH1 0x20 ADD SWAP2 PUSH2 0x2200 JUMP JUMPDEST DUP3 ADD SWAP2 SWAP1 PUSH1 0x0 MSTORE PUSH1 0x20 PUSH1 0x0 KECCAK256 SWAP1 JUMPDEST DUP2 SLOAD DUP2 MSTORE SWAP1 PUSH1 0x1 ADD SWAP1 PUSH1 0x20 ADD DUP1 DUP4 GT PUSH2 0x21E3 JUMPI DUP3 SWAP1 SUB PUSH1 0x1F AND DUP3 ADD SWAP2 JUMPDEST POP POP POP POP POP PUSH1 0x40 MLOAD DUP1 PUSH1 0x20 ADD PUSH1 0x40 MSTORE DUP1 PUSH1 0x0 DUP2 MSTORE POP PUSH2 0x2810 JUMP JUMPDEST ISZERO PUSH2 0x225C JUMPI PUSH1 0x4 DUP3 SWAP1 DUP1 PUSH1 0x1 DUP2 SLOAD ADD DUP1 DUP3 SSTORE DUP1 SWAP2 POP POP PUSH1 0x1 SWAP1 SUB SWAP1 PUSH1 0x0 MSTORE PUSH1 0x20 PUSH1 0x0 KECCAK256 ADD PUSH1 0x0 SWAP1 SWAP2 SWAP1 SWAP2 SWAP1 SWAP2 POP SWAP1 DUP1 MLOAD SWAP1 PUSH1 0x20 ADD SWAP1 PUSH2 0x225A SWAP3 SWAP2 SWAP1 PUSH2 0x282B JUMP JUMPDEST POP JUMPDEST PUSH1 0x0 PUSH1 0x2 PUSH1 0x0 DUP4 PUSH20 0xFFFFFFFFFFFFFFFFFFFFFFFFFFFFFFFFFFFFFFFF AND PUSH20 0xFFFFFFFFFFFFFFFFFFFFFFFFFFFFFFFFFFFFFFFF AND DUP2 MSTORE PUSH1 0x20 ADD SWAP1 DUP2 MSTORE PUSH1 0x20 ADD PUSH1 0x0 KECCAK256 SWAP1 POP DUP5 DUP2 PUSH1 0x0 ADD SWAP1 DUP1 MLOAD SWAP1 PUSH1 0x20 ADD SWAP1 PUSH2 0x22B7 SWAP3 SWAP2 SWAP1 PUSH2 0x282B JUMP JUMPDEST POP DUP4 DUP2 PUSH1 0x1 ADD SWAP1 DUP1 MLOAD SWAP1 PUSH1 0x20 ADD SWAP1 PUSH2 0x22D0 SWAP3 SWAP2 SWAP1 PUSH2 0x282B JUMP JUMPDEST POP DUP2 DUP2 PUSH1 0x2 ADD PUSH1 0x0 PUSH2 0x100 EXP DUP2 SLOAD DUP2 PUSH20 0xFFFFFFFFFFFFFFFFFFFFFFFFFFFFFFFFFFFFFFFF MUL NOT AND SWAP1 DUP4 PUSH20 0xFFFFFFFFFFFFFFFFFFFFFFFFFFFFFFFFFFFFFFFF AND MUL OR SWAP1 SSTORE POP DUP3 DUP2 PUSH1 0x3 ADD SWAP1 DUP1 MLOAD SWAP1 PUSH1 0x20 ADD SWAP1 PUSH2 0x232C SWAP3 SWAP2 SWAP1 PUSH2 0x282B JUMP JUMPDEST POP PUSH1 0x1 DUP2 PUSH1 0x4 ADD PUSH1 0x0 PUSH2 0x100 EXP DUP2 SLOAD DUP2 PUSH1 0xFF MUL NOT AND SWAP1 DUP4 ISZERO ISZERO MUL OR SWAP1 SSTORE POP PUSH1 0x5 DUP3 SWAP1 DUP1 PUSH1 0x1 DUP2 SLOAD ADD DUP1 DUP3 SSTORE DUP1 SWAP2 POP POP PUSH1 0x1 SWAP1 SUB SWAP1 PUSH1 0x0 MSTORE PUSH1 0x20 PUSH1 0x0 KECCAK256 ADD PUSH1 0x0 SWAP1 SWAP2 SWAP1 SWAP2 SWAP1 SWAP2 PUSH2 0x100 EXP DUP2 SLOAD DUP2 PUSH20 0xFFFFFFFFFFFFFFFFFFFFFFFFFFFFFFFFFFFFFFFF MUL NOT AND SWAP1 DUP4 PUSH20 0xFFFFFFFFFFFFFFFFFFFFFFFFFFFFFFFFFFFFFFFF AND MUL OR SWAP1 SSTORE POP PUSH1 0x1 PUSH1 0x3 PUSH1 0x0 DUP5 PUSH20 0xFFFFFFFFFFFFFFFFFFFFFFFFFFFFFFFFFFFFFFFF AND PUSH20 0xFFFFFFFFFFFFFFFFFFFFFFFFFFFFFFFFFFFFFFFF AND DUP2 MSTORE PUSH1 0x20 ADD SWAP1 DUP2 MSTORE PUSH1 0x20 ADD PUSH1 0x0 KECCAK256 PUSH1 0x0 PUSH2 0x100 EXP DUP2 SLOAD DUP2 PUSH1 0xFF MUL NOT AND SWAP1 DUP4 ISZERO ISZERO MUL OR SWAP1 SSTORE POP POP POP POP POP POP JUMP JUMPDEST PUSH1 0x0 PUSH1 0x8 DUP3 PUSH1 0x40 MLOAD PUSH2 0x241E SWAP2 SWAP1 PUSH2 0x35AF JUMP JUMPDEST SWAP1 DUP2 MSTORE PUSH1 0x20 ADD PUSH1 0x40 MLOAD DUP1 SWAP2 SUB SWAP1 KECCAK256 SWAP1 POP PUSH1 0x0 DUP2 PUSH1 0x5 ADD PUSH1 0x0 PUSH2 0x100 EXP DUP2 SLOAD DUP2 PUSH1 0xFF MUL NOT AND SWAP1 DUP4 ISZERO ISZERO MUL OR SWAP1 SSTORE POP POP POP JUMP JUMPDEST PUSH1 0x0 PUSH1 0xA PUSH1 0x0 CALLER PUSH20 0xFFFFFFFFFFFFFFFFFFFFFFFFFFFFFFFFFFFFFFFF AND PUSH20 0xFFFFFFFFFFFFFFFFFFFFFFFFFFFFFFFFFFFFFFFF AND DUP2 MSTORE PUSH1 0x20 ADD SWAP1 DUP2 MSTORE PUSH1 0x20 ADD PUSH1 0x0 KECCAK256 PUSH1 0x0 SWAP1 SLOAD SWAP1 PUSH2 0x100 EXP SWAP1 DIV PUSH1 0xFF AND ISZERO PUSH2 0x24AC JUMPI PUSH1 0x1 SWAP1 POP PUSH2 0x26D0 JUMP JUMPDEST PUSH1 0x1 PUSH1 0xA PUSH1 0x0 CALLER PUSH20 0xFFFFFFFFFFFFFFFFFFFFFFFFFFFFFFFFFFFFFFFF AND PUSH20 0xFFFFFFFFFFFFFFFFFFFFFFFFFFFFFFFFFFFFFFFF AND DUP2 MSTORE PUSH1 0x20 ADD SWAP1 DUP2 MSTORE PUSH1 0x20 ADD PUSH1 0x0 KECCAK256 PUSH1 0x0 PUSH2 0x100 EXP DUP2 SLOAD DUP2 PUSH1 0xFF MUL NOT AND SWAP1 DUP4 ISZERO ISZERO MUL OR SWAP1 SSTORE POP PUSH1 0x0 PUSH1 0xB PUSH1 0x0 CALLER PUSH20 0xFFFFFFFFFFFFFFFFFFFFFFFFFFFFFFFFFFFFFFFF AND PUSH20 0xFFFFFFFFFFFFFFFFFFFFFFFFFFFFFFFFFFFFFFFF AND DUP2 MSTORE PUSH1 0x20 ADD SWAP1 DUP2 MSTORE PUSH1 0x20 ADD PUSH1 0x0 KECCAK256 SWAP1 POP PUSH1 0x40 MLOAD DUP1 PUSH1 0x20 ADD PUSH1 0x40 MSTORE DUP1 PUSH1 0x0 DUP2 MSTORE POP DUP2 PUSH1 0x0 ADD SWAP1 DUP1 MLOAD SWAP1 PUSH1 0x20 ADD SWAP1 PUSH2 0x256E SWAP3 SWAP2 SWAP1 PUSH2 0x282B JUMP JUMPDEST POP PUSH1 0x40 MLOAD DUP1 PUSH1 0x20 ADD PUSH1 0x40 MSTORE DUP1 PUSH1 0x0 DUP2 MSTORE POP DUP2 PUSH1 0x1 ADD SWAP1 DUP1 MLOAD SWAP1 PUSH1 0x20 ADD SWAP1 PUSH2 0x2596 SWAP3 SWAP2 SWAP1 PUSH2 0x282B JUMP JUMPDEST POP PUSH1 0x40 MLOAD DUP1 PUSH1 0x20 ADD PUSH1 0x40 MSTORE DUP1 PUSH1 0x0 DUP2 MSTORE POP DUP2 PUSH1 0x2 ADD SWAP1 DUP1 MLOAD SWAP1 PUSH1 0x20 ADD SWAP1 PUSH2 0x25BE SWAP3 SWAP2 SWAP1 PUSH2 0x282B JUMP JUMPDEST POP PUSH1 0x40 MLOAD DUP1 PUSH1 0x20 ADD PUSH1 0x40 MSTORE DUP1 PUSH1 0x0 DUP2 MSTORE POP DUP2 PUSH1 0x3 ADD SWAP1 DUP1 MLOAD SWAP1 PUSH1 0x20 ADD SWAP1 PUSH2 0x25E6 SWAP3 SWAP2 SWAP1 PUSH2 0x282B JUMP JUMPDEST POP PUSH1 0x40 MLOAD DUP1 PUSH1 0x20 ADD PUSH1 0x40 MSTORE DUP1 PUSH1 0x0 DUP2 MSTORE POP DUP2 PUSH1 0x4 ADD SWAP1 DUP1 MLOAD SWAP1 PUSH1 0x20 ADD SWAP1 PUSH2 0x260E SWAP3 SWAP2 SWAP1 PUSH2 0x282B JUMP JUMPDEST POP PUSH1 0x40 MLOAD DUP1 PUSH1 0x20 ADD PUSH1 0x40 MSTORE DUP1 PUSH1 0x0 DUP2 MSTORE POP DUP2 PUSH1 0x5 ADD SWAP1 DUP1 MLOAD SWAP1 PUSH1 0x20 ADD SWAP1 PUSH2 0x2636 SWAP3 SWAP2 SWAP1 PUSH2 0x282B JUMP JUMPDEST POP PUSH1 0x40 MLOAD DUP1 PUSH1 0x20 ADD PUSH1 0x40 MSTORE DUP1 PUSH1 0x0 DUP2 MSTORE POP DUP2 PUSH1 0x6 ADD SWAP1 DUP1 MLOAD SWAP1 PUSH1 0x20 ADD SWAP1 PUSH2 0x265E SWAP3 SWAP2 SWAP1 PUSH2 0x282B JUMP JUMPDEST POP PUSH1 0x40 MLOAD DUP1 PUSH1 0x20 ADD PUSH1 0x40 MSTORE DUP1 PUSH1 0x0 DUP2 MSTORE POP DUP2 PUSH1 0x7 ADD SWAP1 DUP1 MLOAD SWAP1 PUSH1 0x20 ADD SWAP1 PUSH2 0x2686 SWAP3 SWAP2 SWAP1 PUSH2 0x282B JUMP JUMPDEST POP CALLER DUP2 PUSH1 0x8 ADD PUSH1 0x0 PUSH2 0x100 EXP DUP2 SLOAD DUP2 PUSH20 0xFFFFFFFFFFFFFFFFFFFFFFFFFFFFFFFFFFFFFFFF MUL NOT AND SWAP1 DUP4 PUSH20 0xFFFFFFFFFFFFFFFFFFFFFFFFFFFFFFFFFFFFFFFF AND MUL OR SWAP1 SSTORE POP PUSH1 0x1 SWAP2 POP POP JUMPDEST SWAP1 JUMP JUMPDEST PUSH1 0x0 DUP1 SLOAD SWAP1 PUSH2 0x100 EXP SWAP1 DIV PUSH20 0xFFFFFFFFFFFFFFFFFFFFFFFFFFFFFFFFFFFFFFFF AND PUSH20 0xFFFFFFFFFFFFFFFFFFFFFFFFFFFFFFFFFFFFFFFF AND CALLER PUSH20 0xFFFFFFFFFFFFFFFFFFFFFFFFFFFFFFFFFFFFFFFF AND EQ PUSH2 0x272B JUMPI PUSH1 0x0 DUP1 REVERT JUMPDEST PUSH1 0x0 PUSH1 0x2 PUSH1 0x0 DUP4 PUSH20 0xFFFFFFFFFFFFFFFFFFFFFFFFFFFFFFFFFFFFFFFF AND PUSH20 0xFFFFFFFFFFFFFFFFFFFFFFFFFFFFFFFFFFFFFFFF AND DUP2 MSTORE PUSH1 0x20 ADD SWAP1 DUP2 MSTORE PUSH1 0x20 ADD PUSH1 0x0 KECCAK256 PUSH1 0x4 ADD PUSH1 0x0 PUSH2 0x100 EXP DUP2 SLOAD DUP2 PUSH1 0xFF MUL NOT AND SWAP1 DUP4 ISZERO ISZERO MUL OR SWAP1 SSTORE POP POP JUMP JUMPDEST PUSH1 0x0 PUSH1 0x8 DUP3 PUSH1 0x40 MLOAD PUSH2 0x279B SWAP2 SWAP1 PUSH2 0x35AF JUMP JUMPDEST SWAP1 DUP2 MSTORE PUSH1 0x20 ADD PUSH1 0x40 MLOAD DUP1 SWAP2 SUB SWAP1 KECCAK256 SWAP1 POP PUSH1 0x0 DUP2 PUSH1 0x5 ADD PUSH1 0x1 PUSH2 0x100 EXP DUP2 SLOAD DUP2 PUSH1 0xFF MUL NOT AND SWAP1 DUP4 ISZERO ISZERO MUL OR SWAP1 SSTORE POP PUSH1 0x0 DUP2 PUSH1 0x5 ADD PUSH1 0x2 PUSH2 0x100 EXP DUP2 SLOAD DUP2 PUSH20 0xFFFFFFFFFFFFFFFFFFFFFFFFFFFFFFFFFFFFFFFF MUL NOT AND SWAP1 DUP4 PUSH20 0xFFFFFFFFFFFFFFFFFFFFFFFFFFFFFFFFFFFFFFFF AND MUL OR SWAP1 SSTORE POP POP POP JUMP JUMPDEST PUSH1 0x0 DUP2 DUP1 MLOAD SWAP1 PUSH1 0x20 ADD KECCAK256 DUP4 DUP1 MLOAD SWAP1 PUSH1 0x20 ADD KECCAK256 EQ SWAP1 POP SWAP3 SWAP2 POP POP JUMP JUMPDEST DUP3 DUP1 SLOAD PUSH2 0x2837 SWAP1 PUSH2 0x35F5 JUMP JUMPDEST SWAP1 PUSH1 0x0 MSTORE PUSH1 0x20 PUSH1 0x0 KECCAK256 SWAP1 PUSH1 0x1F ADD PUSH1 0x20 SWAP1 DIV DUP2 ADD SWAP3 DUP3 PUSH2 0x2859 JUMPI PUSH1 0x0 DUP6 SSTORE PUSH2 0x28A0 JUMP JUMPDEST DUP3 PUSH1 0x1F LT PUSH2 0x2872 JUMPI DUP1 MLOAD PUSH1 0xFF NOT AND DUP4 DUP1 ADD OR DUP6 SSTORE PUSH2 0x28A0 JUMP JUMPDEST DUP3 DUP1 ADD PUSH1 0x1 ADD DUP6 SSTORE DUP3 ISZERO PUSH2 0x28A0 JUMPI SWAP2 DUP3 ADD JUMPDEST DUP3 DUP2 GT ISZERO PUSH2 0x289F JUMPI DUP3 MLOAD DUP3 SSTORE SWAP2 PUSH1 0x20 ADD SWAP2 SWAP1 PUSH1 0x1 ADD SWAP1 PUSH2 0x2884 JUMP JUMPDEST JUMPDEST POP SWAP1 POP PUSH2 0x28AD SWAP2 SWAP1 PUSH2 0x2985 JUMP JUMPDEST POP SWAP1 JUMP JUMPDEST PUSH1 0x40 MLOAD DUP1 PUSH1 0xA0 ADD PUSH1 0x40 MSTORE DUP1 PUSH1 0x60 DUP2 MSTORE PUSH1 0x20 ADD PUSH1 0x60 DUP2 MSTORE PUSH1 0x20 ADD PUSH1 0x0 PUSH20 0xFFFFFFFFFFFFFFFFFFFFFFFFFFFFFFFFFFFFFFFF AND DUP2 MSTORE PUSH1 0x20 ADD PUSH1 0x60 DUP2 MSTORE PUSH1 0x20 ADD PUSH1 0x0 ISZERO ISZERO DUP2 MSTORE POP SWAP1 JUMP JUMPDEST DUP3 DUP1 SLOAD PUSH2 0x2904 SWAP1 PUSH2 0x35F5 JUMP JUMPDEST SWAP1 PUSH1 0x0 MSTORE PUSH1 0x20 PUSH1 0x0 KECCAK256 SWAP1 PUSH1 0x1F ADD PUSH1 0x20 SWAP1 DIV DUP2 ADD SWAP3 DUP3 PUSH2 0x2926 JUMPI PUSH1 0x0 DUP6 SSTORE PUSH2 0x2974 JUMP JUMPDEST DUP3 PUSH1 0x1F LT PUSH2 0x2937 JUMPI DUP1 SLOAD DUP6 SSTORE PUSH2 0x2974 JUMP JUMPDEST DUP3 DUP1 ADD PUSH1 0x1 ADD DUP6 SSTORE DUP3 ISZERO PUSH2 0x2974 JUMPI PUSH1 0x0 MSTORE PUSH1 0x20 PUSH1 0x0 KECCAK256 SWAP2 PUSH1 0x1F ADD PUSH1 0x20 SWAP1 DIV DUP3 ADD JUMPDEST DUP3 DUP2 GT ISZERO PUSH2 0x2973 JUMPI DUP3 SLOAD DUP3 SSTORE SWAP2 PUSH1 0x1 ADD SWAP2 SWAP1 PUSH1 0x1 ADD SWAP1 PUSH2 0x2958 JUMP JUMPDEST JUMPDEST POP SWAP1 POP PUSH2 0x2981 SWAP2 SWAP1 PUSH2 0x2985 JUMP JUMPDEST POP SWAP1 JUMP JUMPDEST JUMPDEST DUP1 DUP3 GT ISZERO PUSH2 0x299E JUMPI PUSH1 0x0 DUP2 PUSH1 0x0 SWAP1 SSTORE POP PUSH1 0x1 ADD PUSH2 0x2986 JUMP JUMPDEST POP SWAP1 JUMP JUMPDEST PUSH1 0x0 PUSH20 0xFFFFFFFFFFFFFFFFFFFFFFFFFFFFFFFFFFFFFFFF DUP3 AND SWAP1 POP SWAP2 SWAP1 POP JUMP JUMPDEST PUSH1 0x0 PUSH2 0x29CD DUP3 PUSH2 0x29A2 JUMP JUMPDEST SWAP1 POP SWAP2 SWAP1 POP JUMP JUMPDEST PUSH2 0x29DD DUP2 PUSH2 0x29C2 JUMP JUMPDEST DUP3 MSTORE POP POP JUMP JUMPDEST PUSH1 0x0 PUSH1 0x20 DUP3 ADD SWAP1 POP PUSH2 0x29F8 PUSH1 0x0 DUP4 ADD DUP5 PUSH2 0x29D4 JUMP JUMPDEST SWAP3 SWAP2 POP POP JUMP JUMPDEST PUSH1 0x0 PUSH1 0x40 MLOAD SWAP1 POP SWAP1 JUMP JUMPDEST PUSH1 0x0 DUP1 REVERT JUMPDEST PUSH1 0x0 DUP1 REVERT JUMPDEST PUSH1 0x0 DUP1 REVERT JUMPDEST PUSH1 0x0 DUP1 REVERT JUMPDEST PUSH1 0x0 PUSH1 0x1F NOT PUSH1 0x1F DUP4 ADD AND SWAP1 POP SWAP2 SWAP1 POP JUMP JUMPDEST PUSH32 0x4E487B7100000000000000000000000000000000000000000000000000000000 PUSH1 0x0 MSTORE PUSH1 0x41 PUSH1 0x4 MSTORE PUSH1 0x24 PUSH1 0x0 REVERT JUMPDEST PUSH2 0x2A65 DUP3 PUSH2 0x2A1C JUMP JUMPDEST DUP2 ADD DUP2 DUP2 LT PUSH8 0xFFFFFFFFFFFFFFFF DUP3 GT OR ISZERO PUSH2 0x2A84 JUMPI PUSH2 0x2A83 PUSH2 0x2A2D JUMP JUMPDEST JUMPDEST DUP1 PUSH1 0x40 MSTORE POP POP POP JUMP JUMPDEST PUSH1 0x0 PUSH2 0x2A97 PUSH2 0x29FE JUMP JUMPDEST SWAP1 POP PUSH2 0x2AA3 DUP3 DUP3 PUSH2 0x2A5C JUMP JUMPDEST SWAP2 SWAP1 POP JUMP JUMPDEST PUSH1 0x0 PUSH8 0xFFFFFFFFFFFFFFFF DUP3 GT ISZERO PUSH2 0x2AC3 JUMPI PUSH2 0x2AC2 PUSH2 0x2A2D JUMP JUMPDEST JUMPDEST PUSH2 0x2ACC DUP3 PUSH2 0x2A1C JUMP JUMPDEST SWAP1 POP PUSH1 0x20 DUP2 ADD SWAP1 POP SWAP2 SWAP1 POP JUMP JUMPDEST DUP3 DUP2 DUP4 CALLDATACOPY PUSH1 0x0 DUP4 DUP4 ADD MSTORE POP POP POP JUMP JUMPDEST PUSH1 0x0 PUSH2 0x2AFB PUSH2 0x2AF6 DUP5 PUSH2 0x2AA8 JUMP JUMPDEST PUSH2 0x2A8D JUMP JUMPDEST SWAP1 POP DUP3 DUP2 MSTORE PUSH1 0x20 DUP2 ADD DUP5 DUP5 DUP5 ADD GT ISZERO PUSH2 0x2B17 JUMPI PUSH2 0x2B16 PUSH2 0x2A17 JUMP JUMPDEST JUMPDEST PUSH2 0x2B22 DUP5 DUP3 DUP6 PUSH2 0x2AD9 JUMP JUMPDEST POP SWAP4 SWAP3 POP POP POP JUMP JUMPDEST PUSH1 0x0 DUP3 PUSH1 0x1F DUP4 ADD SLT PUSH2 0x2B3F JUMPI PUSH2 0x2B3E PUSH2 0x2A12 JUMP JUMPDEST JUMPDEST DUP2 CALLDATALOAD PUSH2 0x2B4F DUP5 DUP3 PUSH1 0x20 DUP7 ADD PUSH2 0x2AE8 JUMP JUMPDEST SWAP2 POP POP SWAP3 SWAP2 POP POP JUMP JUMPDEST PUSH1 0x0 PUSH1 0x20 DUP3 DUP5 SUB SLT ISZERO PUSH2 0x2B6E JUMPI PUSH2 0x2B6D PUSH2 0x2A08 JUMP JUMPDEST JUMPDEST PUSH1 0x0 DUP3 ADD CALLDATALOAD PUSH8 0xFFFFFFFFFFFFFFFF DUP2 GT ISZERO PUSH2 0x2B8C JUMPI PUSH2 0x2B8B PUSH2 0x2A0D JUMP JUMPDEST JUMPDEST PUSH2 0x2B98 DUP5 DUP3 DUP6 ADD PUSH2 0x2B2A JUMP JUMPDEST SWAP2 POP POP SWAP3 SWAP2 POP POP JUMP JUMPDEST PUSH1 0x0 DUP2 SWAP1 POP SWAP2 SWAP1 POP JUMP JUMPDEST PUSH2 0x2BB4 DUP2 PUSH2 0x2BA1 JUMP JUMPDEST DUP2 EQ PUSH2 0x2BBF JUMPI PUSH1 0x0 DUP1 REVERT JUMPDEST POP JUMP JUMPDEST PUSH1 0x0 DUP2 CALLDATALOAD SWAP1 POP PUSH2 0x2BD1 DUP2 PUSH2 0x2BAB JUMP JUMPDEST SWAP3 SWAP2 POP POP JUMP JUMPDEST PUSH1 0x0 PUSH1 0x20 DUP3 DUP5 SUB SLT ISZERO PUSH2 0x2BED JUMPI PUSH2 0x2BEC PUSH2 0x2A08 JUMP JUMPDEST JUMPDEST PUSH1 0x0 PUSH2 0x2BFB DUP5 DUP3 DUP6 ADD PUSH2 0x2BC2 JUMP JUMPDEST SWAP2 POP POP SWAP3 SWAP2 POP POP JUMP JUMPDEST PUSH2 0x2C0D DUP2 PUSH2 0x29C2 JUMP JUMPDEST DUP2 EQ PUSH2 0x2C18 JUMPI PUSH1 0x0 DUP1 REVERT JUMPDEST POP JUMP JUMPDEST PUSH1 0x0 DUP2 CALLDATALOAD SWAP1 POP PUSH2 0x2C2A DUP2 PUSH2 0x2C04 JUMP JUMPDEST SWAP3 SWAP2 POP POP JUMP JUMPDEST PUSH1 0x0 DUP1 PUSH1 0x0 DUP1 PUSH1 0x80 DUP6 DUP8 SUB SLT ISZERO PUSH2 0x2C4A JUMPI PUSH2 0x2C49 PUSH2 0x2A08 JUMP JUMPDEST JUMPDEST PUSH1 0x0 DUP6 ADD CALLDATALOAD PUSH8 0xFFFFFFFFFFFFFFFF DUP2 GT ISZERO PUSH2 0x2C68 JUMPI PUSH2 0x2C67 PUSH2 0x2A0D JUMP JUMPDEST JUMPDEST PUSH2 0x2C74 DUP8 DUP3 DUP9 ADD PUSH2 0x2B2A JUMP JUMPDEST SWAP5 POP POP PUSH1 0x20 DUP6 ADD CALLDATALOAD PUSH8 0xFFFFFFFFFFFFFFFF DUP2 GT ISZERO PUSH2 0x2C95 JUMPI PUSH2 0x2C94 PUSH2 0x2A0D JUMP JUMPDEST JUMPDEST PUSH2 0x2CA1 DUP8 DUP3 DUP9 ADD PUSH2 0x2B2A JUMP JUMPDEST SWAP4 POP POP PUSH1 0x40 DUP6 ADD CALLDATALOAD PUSH8 0xFFFFFFFFFFFFFFFF DUP2 GT ISZERO PUSH2 0x2CC2 JUMPI PUSH2 0x2CC1 PUSH2 0x2A0D JUMP JUMPDEST JUMPDEST PUSH2 0x2CCE DUP8 DUP3 DUP9 ADD PUSH2 0x2B2A JUMP JUMPDEST SWAP3 POP POP PUSH1 0x60 PUSH2 0x2CDF DUP8 DUP3 DUP9 ADD PUSH2 0x2C1B JUMP JUMPDEST SWAP2 POP POP SWAP3 SWAP6 SWAP2 SWAP5 POP SWAP3 POP JUMP JUMPDEST PUSH1 0x0 DUP2 MLOAD SWAP1 POP SWAP2 SWAP1 POP JUMP JUMPDEST PUSH1 0x0 DUP3 DUP3 MSTORE PUSH1 0x20 DUP3 ADD SWAP1 POP SWAP3 SWAP2 POP POP JUMP JUMPDEST PUSH1 0x0 DUP2 SWAP1 POP PUSH1 0x20 DUP3 ADD SWAP1 POP SWAP2 SWAP1 POP JUMP JUMPDEST PUSH1 0x0 DUP2 MLOAD SWAP1 POP SWAP2 SWAP1 POP JUMP JUMPDEST PUSH1 0x0 DUP3 DUP3 MSTORE PUSH1 0x20 DUP3 ADD SWAP1 POP SWAP3 SWAP2 POP POP JUMP JUMPDEST PUSH1 0x0 JUMPDEST DUP4 DUP2 LT ISZERO PUSH2 0x2D51 JUMPI DUP1 DUP3 ADD MLOAD DUP2 DUP5 ADD MSTORE PUSH1 0x20 DUP2 ADD SWAP1 POP PUSH2 0x2D36 JUMP JUMPDEST DUP4 DUP2 GT ISZERO PUSH2 0x2D60 JUMPI PUSH1 0x0 DUP5 DUP5 ADD MSTORE JUMPDEST POP POP POP POP JUMP JUMPDEST PUSH1 0x0 PUSH2 0x2D71 DUP3 PUSH2 0x2D17 JUMP JUMPDEST PUSH2 0x2D7B DUP2 DUP6 PUSH2 0x2D22 JUMP JUMPDEST SWAP4 POP PUSH2 0x2D8B DUP2 DUP6 PUSH1 0x20 DUP7 ADD PUSH2 0x2D33 JUMP JUMPDEST PUSH2 0x2D94 DUP2 PUSH2 0x2A1C JUMP JUMPDEST DUP5 ADD SWAP2 POP POP SWAP3 SWAP2 POP POP JUMP JUMPDEST PUSH1 0x0 PUSH2 0x2DAB DUP4 DUP4 PUSH2 0x2D66 JUMP JUMPDEST SWAP1 POP SWAP3 SWAP2 POP POP JUMP JUMPDEST PUSH1 0x0 PUSH1 0x20 DUP3 ADD SWAP1 POP SWAP2 SWAP1 POP JUMP JUMPDEST PUSH1 0x0 PUSH2 0x2DCB DUP3 PUSH2 0x2CEB JUMP JUMPDEST PUSH2 0x2DD5 DUP2 DUP6 PUSH2 0x2CF6 JUMP JUMPDEST SWAP4 POP DUP4 PUSH1 0x20 DUP3 MUL DUP6 ADD PUSH2 0x2DE7 DUP6 PUSH2 0x2D07 JUMP JUMPDEST DUP1 PUSH1 0x0 JUMPDEST DUP6 DUP2 LT ISZERO PUSH2 0x2E23 JUMPI DUP5 DUP5 SUB DUP10 MSTORE DUP2 MLOAD PUSH2 0x2E04 DUP6 DUP3 PUSH2 0x2D9F JUMP JUMPDEST SWAP5 POP PUSH2 0x2E0F DUP4 PUSH2 0x2DB3 JUMP JUMPDEST SWAP3 POP PUSH1 0x20 DUP11 ADD SWAP10 POP POP PUSH1 0x1 DUP2 ADD SWAP1 POP PUSH2 0x2DEB JUMP JUMPDEST POP DUP3 SWAP8 POP DUP8 SWAP6 POP POP POP POP POP POP SWAP3 SWAP2 POP POP JUMP JUMPDEST PUSH1 0x0 PUSH1 0x20 DUP3 ADD SWAP1 POP DUP2 DUP2 SUB PUSH1 0x0 DUP4 ADD MSTORE PUSH2 0x2E4F DUP2 DUP5 PUSH2 0x2DC0 JUMP JUMPDEST SWAP1 POP SWAP3 SWAP2 POP POP JUMP JUMPDEST PUSH1 0x0 PUSH1 0x20 DUP3 DUP5 SUB SLT ISZERO PUSH2 0x2E6D JUMPI PUSH2 0x2E6C PUSH2 0x2A08 JUMP JUMPDEST JUMPDEST PUSH1 0x0 PUSH2 0x2E7B DUP5 DUP3 DUP6 ADD PUSH2 0x2C1B JUMP JUMPDEST SWAP2 POP POP SWAP3 SWAP2 POP POP JUMP JUMPDEST PUSH2 0x2E8D DUP2 PUSH2 0x2BA1 JUMP JUMPDEST DUP3 MSTORE POP POP JUMP JUMPDEST PUSH1 0x0 PUSH1 0x20 DUP3 ADD SWAP1 POP PUSH2 0x2EA8 PUSH1 0x0 DUP4 ADD DUP5 PUSH2 0x2E84 JUMP JUMPDEST SWAP3 SWAP2 POP POP JUMP JUMPDEST PUSH1 0x0 DUP1 PUSH1 0x0 DUP1 PUSH1 0x0 DUP1 PUSH1 0x0 DUP1 PUSH2 0x100 DUP10 DUP12 SUB SLT ISZERO PUSH2 0x2ECF JUMPI PUSH2 0x2ECE PUSH2 0x2A08 JUMP JUMPDEST JUMPDEST PUSH1 0x0 DUP10 ADD CALLDATALOAD PUSH8 0xFFFFFFFFFFFFFFFF DUP2 GT ISZERO PUSH2 0x2EED JUMPI PUSH2 0x2EEC PUSH2 0x2A0D JUMP JUMPDEST JUMPDEST PUSH2 0x2EF9 DUP12 DUP3 DUP13 ADD PUSH2 0x2B2A JUMP JUMPDEST SWAP9 POP POP PUSH1 0x20 DUP10 ADD CALLDATALOAD PUSH8 0xFFFFFFFFFFFFFFFF DUP2 GT ISZERO PUSH2 0x2F1A JUMPI PUSH2 0x2F19 PUSH2 0x2A0D JUMP JUMPDEST JUMPDEST PUSH2 0x2F26 DUP12 DUP3 DUP13 ADD PUSH2 0x2B2A JUMP JUMPDEST SWAP8 POP POP PUSH1 0x40 DUP10 ADD CALLDATALOAD PUSH8 0xFFFFFFFFFFFFFFFF DUP2 GT ISZERO PUSH2 0x2F47 JUMPI PUSH2 0x2F46 PUSH2 0x2A0D JUMP JUMPDEST JUMPDEST PUSH2 0x2F53 DUP12 DUP3 DUP13 ADD PUSH2 0x2B2A JUMP JUMPDEST SWAP7 POP POP PUSH1 0x60 DUP10 ADD CALLDATALOAD PUSH8 0xFFFFFFFFFFFFFFFF DUP2 GT ISZERO PUSH2 0x2F74 JUMPI PUSH2 0x2F73 PUSH2 0x2A0D JUMP JUMPDEST JUMPDEST PUSH2 0x2F80 DUP12 DUP3 DUP13 ADD PUSH2 0x2B2A JUMP JUMPDEST SWAP6 POP POP PUSH1 0x80 DUP10 ADD CALLDATALOAD PUSH8 0xFFFFFFFFFFFFFFFF DUP2 GT ISZERO PUSH2 0x2FA1 JUMPI PUSH2 0x2FA0 PUSH2 0x2A0D JUMP JUMPDEST JUMPDEST PUSH2 0x2FAD DUP12 DUP3 DUP13 ADD PUSH2 0x2B2A JUMP JUMPDEST SWAP5 POP POP PUSH1 0xA0 DUP10 ADD CALLDATALOAD PUSH8 0xFFFFFFFFFFFFFFFF DUP2 GT ISZERO PUSH2 0x2FCE JUMPI PUSH2 0x2FCD PUSH2 0x2A0D JUMP JUMPDEST JUMPDEST PUSH2 0x2FDA DUP12 DUP3 DUP13 ADD PUSH2 0x2B2A JUMP JUMPDEST SWAP4 POP POP PUSH1 0xC0 DUP10 ADD CALLDATALOAD PUSH8 0xFFFFFFFFFFFFFFFF DUP2 GT ISZERO PUSH2 0x2FFB JUMPI PUSH2 0x2FFA PUSH2 0x2A0D JUMP JUMPDEST JUMPDEST PUSH2 0x3007 DUP12 DUP3 DUP13 ADD PUSH2 0x2B2A JUMP JUMPDEST SWAP3 POP POP PUSH1 0xE0 DUP10 ADD CALLDATALOAD PUSH8 0xFFFFFFFFFFFFFFFF DUP2 GT ISZERO PUSH2 0x3028 JUMPI PUSH2 0x3027 PUSH2 0x2A0D JUMP JUMPDEST JUMPDEST PUSH2 0x3034 DUP12 DUP3 DUP13 ADD PUSH2 0x2B2A JUMP JUMPDEST SWAP2 POP POP SWAP3 SWAP6 SWAP9 POP SWAP3 SWAP6 SWAP9 SWAP1 SWAP4 SWAP7 POP JUMP JUMPDEST PUSH1 0x0 DUP3 DUP3 MSTORE PUSH1 0x20 DUP3 ADD SWAP1 POP SWAP3 SWAP2 POP POP JUMP JUMPDEST PUSH1 0x0 PUSH2 0x3060 DUP3 PUSH2 0x2D17 JUMP JUMPDEST PUSH2 0x306A DUP2 DUP6 PUSH2 0x3044 JUMP JUMPDEST SWAP4 POP PUSH2 0x307A DUP2 DUP6 PUSH1 0x20 DUP7 ADD PUSH2 0x2D33 JUMP JUMPDEST PUSH2 0x3083 DUP2 PUSH2 0x2A1C JUMP JUMPDEST DUP5 ADD SWAP2 POP POP SWAP3 SWAP2 POP POP JUMP JUMPDEST PUSH1 0x0 PUSH1 0x20 DUP3 ADD SWAP1 POP DUP2 DUP2 SUB PUSH1 0x0 DUP4 ADD MSTORE PUSH2 0x30A8 DUP2 DUP5 PUSH2 0x3055 JUMP JUMPDEST SWAP1 POP SWAP3 SWAP2 POP POP JUMP JUMPDEST PUSH1 0x0 DUP2 ISZERO ISZERO SWAP1 POP SWAP2 SWAP1 POP JUMP JUMPDEST PUSH2 0x30C5 DUP2 PUSH2 0x30B0 JUMP JUMPDEST DUP3 MSTORE POP POP JUMP JUMPDEST PUSH1 0x0 PUSH1 0xA0 DUP3 ADD SWAP1 POP DUP2 DUP2 SUB PUSH1 0x0 DUP4 ADD MSTORE PUSH2 0x30E5 DUP2 DUP9 PUSH2 0x3055 JUMP JUMPDEST SWAP1 POP DUP2 DUP2 SUB PUSH1 0x20 DUP4 ADD MSTORE PUSH2 0x30F9 DUP2 DUP8 PUSH2 0x3055 JUMP JUMPDEST SWAP1 POP PUSH2 0x3108 PUSH1 0x40 DUP4 ADD DUP7 PUSH2 0x29D4 JUMP JUMPDEST DUP2 DUP2 SUB PUSH1 0x60 DUP4 ADD MSTORE PUSH2 0x311A DUP2 DUP6 PUSH2 0x3055 JUMP JUMPDEST SWAP1 POP PUSH2 0x3129 PUSH1 0x80 DUP4 ADD DUP5 PUSH2 0x30BC JUMP JUMPDEST SWAP7 SWAP6 POP POP POP POP POP POP JUMP JUMPDEST PUSH1 0x0 DUP2 MLOAD SWAP1 POP SWAP2 SWAP1 POP JUMP JUMPDEST PUSH1 0x0 DUP3 DUP3 MSTORE PUSH1 0x20 DUP3 ADD SWAP1 POP SWAP3 SWAP2 POP POP JUMP JUMPDEST PUSH1 0x0 DUP2 SWAP1 POP PUSH1 0x20 DUP3 ADD SWAP1 POP SWAP2 SWAP1 POP JUMP JUMPDEST PUSH2 0x3168 DUP2 PUSH2 0x29C2 JUMP JUMPDEST DUP3 MSTORE POP POP JUMP JUMPDEST PUSH1 0x0 PUSH2 0x317A DUP4 DUP4 PUSH2 0x315F JUMP JUMPDEST PUSH1 0x20 DUP4 ADD SWAP1 POP SWAP3 SWAP2 POP POP JUMP JUMPDEST PUSH1 0x0 PUSH1 0x20 DUP3 ADD SWAP1 POP SWAP2 SWAP1 POP JUMP JUMPDEST PUSH1 0x0 PUSH2 0x319E DUP3 PUSH2 0x3133 JUMP JUMPDEST PUSH2 0x31A8 DUP2 DUP6 PUSH2 0x313E JUMP JUMPDEST SWAP4 POP PUSH2 0x31B3 DUP4 PUSH2 0x314F JUMP JUMPDEST DUP1 PUSH1 0x0 JUMPDEST DUP4 DUP2 LT ISZERO PUSH2 0x31E4 JUMPI DUP2 MLOAD PUSH2 0x31CB DUP9 DUP3 PUSH2 0x316E JUMP JUMPDEST SWAP8 POP PUSH2 0x31D6 DUP4 PUSH2 0x3186 JUMP JUMPDEST SWAP3 POP POP PUSH1 0x1 DUP2 ADD SWAP1 POP PUSH2 0x31B7 JUMP JUMPDEST POP DUP6 SWAP4 POP POP POP POP SWAP3 SWAP2 POP POP JUMP JUMPDEST PUSH1 0x0 PUSH1 0x20 DUP3 ADD SWAP1 POP DUP2 DUP2 SUB PUSH1 0x0 DUP4 ADD MSTORE PUSH2 0x320B DUP2 DUP5 PUSH2 0x3193 JUMP JUMPDEST SWAP1 POP SWAP3 SWAP2 POP POP JUMP JUMPDEST PUSH2 0x321C DUP2 PUSH2 0x30B0 JUMP JUMPDEST DUP3 MSTORE POP POP JUMP JUMPDEST PUSH1 0x0 PUSH1 0xA0 DUP4 ADD PUSH1 0x0 DUP4 ADD MLOAD DUP5 DUP3 SUB PUSH1 0x0 DUP7 ADD MSTORE PUSH2 0x323F DUP3 DUP3 PUSH2 0x2D66 JUMP JUMPDEST SWAP2 POP POP PUSH1 0x20 DUP4 ADD MLOAD DUP5 DUP3 SUB PUSH1 0x20 DUP7 ADD MSTORE PUSH2 0x3259 DUP3 DUP3 PUSH2 0x2D66 JUMP JUMPDEST SWAP2 POP POP PUSH1 0x40 DUP4 ADD MLOAD PUSH2 0x326E PUSH1 0x40 DUP7 ADD DUP3 PUSH2 0x315F JUMP JUMPDEST POP PUSH1 0x60 DUP4 ADD MLOAD DUP5 DUP3 SUB PUSH1 0x60 DUP7 ADD MSTORE PUSH2 0x3286 DUP3 DUP3 PUSH2 0x2D66 JUMP JUMPDEST SWAP2 POP POP PUSH1 0x80 DUP4 ADD MLOAD PUSH2 0x329B PUSH1 0x80 DUP7 ADD DUP3 PUSH2 0x3213 JUMP JUMPDEST POP DUP1 SWAP2 POP POP SWAP3 SWAP2 POP POP JUMP JUMPDEST PUSH1 0x0 PUSH1 0x20 DUP3 ADD SWAP1 POP DUP2 DUP2 SUB PUSH1 0x0 DUP4 ADD MSTORE PUSH2 0x32C0 DUP2 DUP5 PUSH2 0x3222 JUMP JUMPDEST SWAP1 POP SWAP3 SWAP2 POP POP JUMP JUMPDEST PUSH1 0x0 PUSH1 0x20 DUP3 ADD SWAP1 POP PUSH2 0x32DD PUSH1 0x0 DUP4 ADD DUP5 PUSH2 0x30BC JUMP JUMPDEST SWAP3 SWAP2 POP POP JUMP JUMPDEST PUSH1 0x0 DUP1 PUSH1 0x0 DUP1 PUSH1 0x0 DUP1 PUSH1 0xC0 DUP8 DUP10 SUB SLT ISZERO PUSH2 0x3300 JUMPI PUSH2 0x32FF PUSH2 0x2A08 JUMP JUMPDEST JUMPDEST PUSH1 0x0 DUP8 ADD CALLDATALOAD PUSH8 0xFFFFFFFFFFFFFFFF DUP2 GT ISZERO PUSH2 0x331E JUMPI PUSH2 0x331D PUSH2 0x2A0D JUMP JUMPDEST JUMPDEST PUSH2 0x332A DUP10 DUP3 DUP11 ADD PUSH2 0x2B2A JUMP JUMPDEST SWAP7 POP POP PUSH1 0x20 DUP8 ADD CALLDATALOAD PUSH8 0xFFFFFFFFFFFFFFFF DUP2 GT ISZERO PUSH2 0x334B JUMPI PUSH2 0x334A PUSH2 0x2A0D JUMP JUMPDEST JUMPDEST PUSH2 0x3357 DUP10 DUP3 DUP11 ADD PUSH2 0x2B2A JUMP JUMPDEST SWAP6 POP POP PUSH1 0x40 PUSH2 0x3368 DUP10 DUP3 DUP11 ADD PUSH2 0x2C1B JUMP JUMPDEST SWAP5 POP POP PUSH1 0x60 DUP8 ADD CALLDATALOAD PUSH8 0xFFFFFFFFFFFFFFFF DUP2 GT ISZERO PUSH2 0x3389 JUMPI PUSH2 0x3388 PUSH2 0x2A0D JUMP JUMPDEST JUMPDEST PUSH2 0x3395 DUP10 DUP3 DUP11 ADD PUSH2 0x2B2A JUMP JUMPDEST SWAP4 POP POP PUSH1 0x80 PUSH2 0x33A6 DUP10 DUP3 DUP11 ADD PUSH2 0x2C1B JUMP JUMPDEST SWAP3 POP POP PUSH1 0xA0 DUP8 ADD CALLDATALOAD PUSH8 0xFFFFFFFFFFFFFFFF DUP2 GT ISZERO PUSH2 0x33C7 JUMPI PUSH2 0x33C6 PUSH2 0x2A0D JUMP JUMPDEST JUMPDEST PUSH2 0x33D3 DUP10 DUP3 DUP11 ADD PUSH2 0x2B2A JUMP JUMPDEST SWAP2 POP POP SWAP3 SWAP6 POP SWAP3 SWAP6 POP SWAP3 SWAP6 JUMP JUMPDEST PUSH1 0x0 PUSH2 0x160 DUP3 ADD SWAP1 POP DUP2 DUP2 SUB PUSH1 0x0 DUP4 ADD MSTORE PUSH2 0x33FB DUP2 DUP15 PUSH2 0x3055 JUMP JUMPDEST SWAP1 POP DUP2 DUP2 SUB PUSH1 0x20 DUP4 ADD MSTORE PUSH2 0x340F DUP2 DUP14 PUSH2 0x3055 JUMP JUMPDEST SWAP1 POP DUP2 DUP2 SUB PUSH1 0x40 DUP4 ADD MSTORE PUSH2 0x3423 DUP2 DUP13 PUSH2 0x3055 JUMP JUMPDEST SWAP1 POP PUSH2 0x3432 PUSH1 0x60 DUP4 ADD DUP12 PUSH2 0x29D4 JUMP JUMPDEST DUP2 DUP2 SUB PUSH1 0x80 DUP4 ADD MSTORE PUSH2 0x3444 DUP2 DUP11 PUSH2 0x3055 JUMP JUMPDEST SWAP1 POP PUSH2 0x3453 PUSH1 0xA0 DUP4 ADD DUP10 PUSH2 0x30BC JUMP JUMPDEST PUSH2 0x3460 PUSH1 0xC0 DUP4 ADD DUP9 PUSH2 0x30BC JUMP JUMPDEST PUSH2 0x346D PUSH1 0xE0 DUP4 ADD DUP8 PUSH2 0x29D4 JUMP JUMPDEST DUP2 DUP2 SUB PUSH2 0x100 DUP4 ADD MSTORE PUSH2 0x3480 DUP2 DUP7 PUSH2 0x3055 JUMP JUMPDEST SWAP1 POP PUSH2 0x3490 PUSH2 0x120 DUP4 ADD DUP6 PUSH2 0x29D4 JUMP JUMPDEST PUSH2 0x349E PUSH2 0x140 DUP4 ADD DUP5 PUSH2 0x30BC JUMP JUMPDEST SWAP13 SWAP12 POP POP POP POP POP POP POP POP POP POP POP POP JUMP JUMPDEST PUSH1 0x0 PUSH2 0x120 DUP3 ADD SWAP1 POP DUP2 DUP2 SUB PUSH1 0x0 DUP4 ADD MSTORE PUSH2 0x34C9 DUP2 DUP13 PUSH2 0x3055 JUMP JUMPDEST SWAP1 POP DUP2 DUP2 SUB PUSH1 0x20 DUP4 ADD MSTORE PUSH2 0x34DD DUP2 DUP12 PUSH2 0x3055 JUMP JUMPDEST SWAP1 POP DUP2 DUP2 SUB PUSH1 0x40 DUP4 ADD MSTORE PUSH2 0x34F1 DUP2 DUP11 PUSH2 0x3055 JUMP JUMPDEST SWAP1 POP DUP2 DUP2 SUB PUSH1 0x60 DUP4 ADD MSTORE PUSH2 0x3505 DUP2 DUP10 PUSH2 0x3055 JUMP JUMPDEST SWAP1 POP DUP2 DUP2 SUB PUSH1 0x80 DUP4 ADD MSTORE PUSH2 0x3519 DUP2 DUP9 PUSH2 0x3055 JUMP JUMPDEST SWAP1 POP DUP2 DUP2 SUB PUSH1 0xA0 DUP4 ADD MSTORE PUSH2 0x352D DUP2 DUP8 PUSH2 0x3055 JUMP JUMPDEST SWAP1 POP DUP2 DUP2 SUB PUSH1 0xC0 DUP4 ADD MSTORE PUSH2 0x3541 DUP2 DUP7 PUSH2 0x3055 JUMP JUMPDEST SWAP1 POP DUP2 DUP2 SUB PUSH1 0xE0 DUP4 ADD MSTORE PUSH2 0x3555 DUP2 DUP6 PUSH2 0x3055 JUMP JUMPDEST SWAP1 POP PUSH2 0x3565 PUSH2 0x100 DUP4 ADD DUP5 PUSH2 0x29D4 JUMP JUMPDEST SWAP11 SWAP10 POP POP POP POP POP POP POP POP POP POP JUMP JUMPDEST PUSH1 0x0 DUP2 SWAP1 POP SWAP3 SWAP2 POP POP JUMP JUMPDEST PUSH1 0x0 PUSH2 0x3589 DUP3 PUSH2 0x2D17 JUMP JUMPDEST PUSH2 0x3593 DUP2 DUP6 PUSH2 0x3573 JUMP JUMPDEST SWAP4 POP PUSH2 0x35A3 DUP2 DUP6 PUSH1 0x20 DUP7 ADD PUSH2 0x2D33 JUMP JUMPDEST DUP1 DUP5 ADD SWAP2 POP POP SWAP3 SWAP2 POP POP JUMP JUMPDEST PUSH1 0x0 PUSH2 0x35BB DUP3 DUP5 PUSH2 0x357E JUMP JUMPDEST SWAP2 POP DUP2 SWAP1 POP SWAP3 SWAP2 POP POP JUMP JUMPDEST PUSH32 0x4E487B7100000000000000000000000000000000000000000000000000000000 PUSH1 0x0 MSTORE PUSH1 0x22 PUSH1 0x4 MSTORE PUSH1 0x24 PUSH1 0x0 REVERT JUMPDEST PUSH1 0x0 PUSH1 0x2 DUP3 DIV SWAP1 POP PUSH1 0x1 DUP3 AND DUP1 PUSH2 0x360D JUMPI PUSH1 0x7F DUP3 AND SWAP2 POP JUMPDEST PUSH1 0x20 DUP3 LT DUP2 EQ ISZERO PUSH2 0x3621 JUMPI PUSH2 0x3620 PUSH2 0x35C6 JUMP JUMPDEST JUMPDEST POP SWAP2 SWAP1 POP JUMP JUMPDEST PUSH32 0x4E487B7100000000000000000000000000000000000000000000000000000000 PUSH1 0x0 MSTORE PUSH1 0x11 PUSH1 0x4 MSTORE PUSH1 0x24 PUSH1 0x0 REVERT JUMPDEST PUSH1 0x0 PUSH2 0x3661 DUP3 PUSH2 0x2BA1 JUMP JUMPDEST SWAP2 POP PUSH2 0x366C DUP4 PUSH2 0x2BA1 JUMP JUMPDEST SWAP3 POP DUP3 PUSH32 0xFFFFFFFFFFFFFFFFFFFFFFFFFFFFFFFFFFFFFFFFFFFFFFFFFFFFFFFFFFFFFFFF SUB DUP3 GT ISZERO PUSH2 0x36A1 JUMPI PUSH2 0x36A0 PUSH2 0x3627 JUMP JUMPDEST JUMPDEST DUP3 DUP3 ADD SWAP1 POP SWAP3 SWAP2 POP POP JUMP INVALID LOG2 PUSH5 0x6970667358 0x22 SLT KECCAK256 0xE1 KECCAK256 CALLCODE GAS PUSH23 0x7C98D388984DD48E770C34C324B0864C64EF727A72B9BF REVERT PUSH16 0x418264736F6C634300080A0033000000 "},"gasEstimates":{"creation":{"codeDepositCost":"2810000","executionCost":"infinite","totalCost":"infinite"},"external":{"acceptBuyingRequest(string)":"infinite","activateAdmin(address)":"27075","addAdmin(string,string,string,address)":"infinite","admins(address)":"infinite","adminsAdresses(uint256)":"5047","buyLand(string)":"infinite","cancelBuyinRequest(string)":"infinite","counties(uint256)":"infinite","deactivateAdmin(address)":"27073","declineBuyingRequest(string)":"infinite","editAdmin(string,string,string,address)":"infinite","getAdmin(address)":"infinite","getAdminAddresses()":"infinite","getLandIds()":"infinite","getSuperAdminPassword()":"infinite","landIdsArr(uint256)":"infinite","landIdsMapping(string)":"infinite","landOwners(address)":"2913","landOwnersDetails(address)":"infinite","lands(string)":"infinite","landsCount()":"2541","loginAdmin()":"2675","makeLandAvailable(string)":"infinite","makeLandUnavailable(string)":"infinite","makeRequestToBuy(string)":"infinite","registerLand(string,string,address,string,address,string)":"infinite","registerLandOwner()":"infinite","superAdminAddress()":"2558","updateLandOwner(string,string,string,string,string,string,string,string)":"infinite"},"internal":{"equal(string memory,string memory)":"infinite"}},"methodIdentifiers":{"acceptBuyingRequest(string)":"1d6f67eb","activateAdmin(address)":"1af1a768","addAdmin(string,string,string,address)":"cddb61b7","admins(address)":"429b62e5","adminsAdresses(uint256)":"13718c97","buyLand(string)":"9a3eb0e2","cancelBuyinRequest(string)":"e15c1278","counties(uint256)":"2a979f31","deactivateAdmin(address)":"df6fa20e","declineBuyingRequest(string)":"0e2c6535","editAdmin(string,string,string,address)":"1510f0d5","getAdmin(address)":"64efb22b","getAdminAddresses()":"64ddfa29","getLandIds()":"1a994ed8","getSuperAdminPassword()":"2de8f46d","landIdsArr(uint256)":"cbd5121c","landIdsMapping(string)":"c4a0086f","landOwners(address)":"67b57142","landOwnersDetails(address)":"be87bb8a","lands(string)":"b1c8ad0d","landsCount()":"1c9afd0f","loginAdmin()":"8b5c9335","makeLandAvailable(string)":"935b377b","makeLandUnavailable(string)":"d896fc96","makeRequestToBuy(string)":"53beb691","registerLand(string,string,address,string,address,string)":"ade79551","registerLandOwner()":"db9573e1","superAdminAddress()":"045b3034","updateLandOwner(string,string,string,string,string,string,string,string)":"245351c9"}},"storageLayout":{"storage":[{"astId":56,"contract":"LandRegistration.sol:LandRegistration","label":"superAdminAddress","offset":0,"slot":"0","type":"t_address"},{"astId":58,"contract":"LandRegistration.sol:LandRegistration","label":"superAdminPassword","offset":0,"slot":"1","type":"t_string_storage"},{"astId":63,"contract":"LandRegistration.sol:LandRegistration","label":"admins","offset":0,"slot":"2","type":"t_mapping(t_address,t_struct(Admin)12_storage)"},{"astId":67,"contract":"LandRegistration.sol:LandRegistration","label":"addresses","offset":0,"slot":"3","type":"t_mapping(t_address,t_bool)"},{"astId":70,"contract":"LandRegistration.sol:LandRegistration","label":"counties","offset":0,"slot":"4","type":"t_array(t_string_storage)dyn_storage"},{"astId":73,"contract":"LandRegistration.sol:LandRegistration","label":"adminsAdresses","offset":0,"slot":"5","type":"t_array(t_address)dyn_storage"},{"astId":76,"contract":"LandRegistration.sol:LandRegistration","label":"landIdsArr","offset":0,"slot":"6","type":"t_array(t_string_storage)dyn_storage"},{"astId":80,"contract":"LandRegistration.sol:LandRegistration","label":"landIdsMapping","offset":0,"slot":"7","type":"t_mapping(t_string_memory_ptr,t_bool)"},{"astId":85,"contract":"LandRegistration.sol:LandRegistration","label":"lands","offset":0,"slot":"8","type":"t_mapping(t_string_memory_ptr,t_struct(Land)35_storage)"},{"astId":87,"contract":"LandRegistration.sol:LandRegistration","label":"landsCount","offset":0,"slot":"9","type":"t_uint256"},{"astId":91,"contract":"LandRegistration.sol:LandRegistration","label":"landOwners","offset":0,"slot":"10","type":"t_mapping(t_address,t_bool)"},{"astId":96,"contract":"LandRegistration.sol:LandRegistration","label":"landOwnersDetails","offset":0,"slot":"11","type":"t_mapping(t_address,t_struct(LandOwner)54_storage)"}],"types":{"t_address":{"encoding":"inplace","label":"address","numberOfBytes":"20"},"t_array(t_address)dyn_storage":{"base":"t_address","encoding":"dynamic_array","label":"address[]","numberOfBytes":"32"},"t_array(t_string_storage)dyn_storage":{"base":"t_string_storage","encoding":"dynamic_array","label":"string[]","numberOfBytes":"32"},"t_bool":{"encoding":"inplace","label":"bool","numberOfBytes":"1"},"t_mapping(t_address,t_bool)":{"encoding":"mapping","key":"t_address","label":"mapping(address => bool)","numberOfBytes":"32","value":"t_bool"},"t_mapping(t_address,t_struct(Admin)12_storage)":{"encoding":"mapping","key":"t_address","label":"mapping(address => struct LandRegistration.Admin)","numberOfBytes":"32","value":"t_struct(Admin)12_storage"},"t_mapping(t_address,t_struct(LandOwner)54_storage)":{"encoding":"mapping","key":"t_address","label":"mapping(address => struct LandRegistration.LandOwner)","numberOfBytes":"32","value":"t_struct(LandOwner)54_storage"},"t_mapping(t_string_memory_ptr,t_bool)":{"encoding":"mapping","key":"t_string_memory_ptr","label":"mapping(string => bool)","numberOfBytes":"32","value":"t_bool"},"t_mapping(t_string_memory_ptr,t_struct(Land)35_storage)":{"encoding":"mapping","key":"t_string_memory_ptr","label":"mapping(string => struct LandRegistration.Land)","numberOfBytes":"32","value":"t_struct(Land)35_storage"},"t_string_memory_ptr":{"encoding":"bytes","label":"string","numberOfBytes":"32"},"t_string_storage":{"encoding":"bytes","label":"string","numberOfBytes":"32"},"t_struct(Admin)12_storage":{"encoding":"inplace","label":"struct LandRegistration.Admin","members":[{"astId":3,"contract":"LandRegistration.sol:LandRegistration","label":"firstName","offset":0,"slot":"0","type":"t_string_storage"},{"astId":5,"contract":"LandRegistration.sol:LandRegistration","label":"lastName","offset":0,"slot":"1","type":"t_string_storage"},{"astId":7,"contract":"LandRegistration.sol:LandRegistration","label":"adminAddress","offset":0,"slot":"2","type":"t_address"},{"astId":9,"contract":"LandRegistration.sol:LandRegistration","label":"county","offset":0,"slot":"3","type":"t_string_storage"},{"astId":11,"contract":"LandRegistration.sol:LandRegistration","label":"active","offset":0,"slot":"4","type":"t_bool"}],"numberOfBytes":"160"},"t_struct(Land)35_storage":{"encoding":"inplace","label":"struct LandRegistration.Land","members":[{"astId":14,"contract":"LandRegistration.sol:LandRegistration","label":"county","offset":0,"slot":"0","type":"t_string_storage"},{"astId":16,"contract":"LandRegistration.sol:LandRegistration","label":"location","offset":0,"slot":"1","type":"t_string_storage"},{"astId":18,"contract":"LandRegistration.sol:LandRegistration","label":"surveyNumber","offset":0,"slot":"2","type":"t_string_storage"},{"astId":20,"contract":"LandRegistration.sol:LandRegistration","label":"ownerAddress","offset":0,"slot":"3","type":"t_address"},{"astId":22,"contract":"LandRegistration.sol:LandRegistration","label":"marketValue","offset":0,"slot":"4","type":"t_string_storage"},{"astId":24,"contract":"LandRegistration.sol:LandRegistration","label":"availability","offset":0,"slot":"5","type":"t_bool"},{"astId":26,"contract":"LandRegistration.sol:LandRegistration","label":"requestedForSale","offset":1,"slot":"5","type":"t_bool"},{"astId":28,"contract":"LandRegistration.sol:LandRegistration","label":"requestedByAddress","offset":2,"slot":"5","type":"t_address"},{"astId":30,"contract":"LandRegistration.sol:LandRegistration","label":"landId","offset":0,"slot":"6","type":"t_string_storage"},{"astId":32,"contract":"LandRegistration.sol:LandRegistration","label":"adminAddress","offset":0,"slot":"7","type":"t_address"},{"astId":34,"contract":"LandRegistration.sol:LandRegistration","label":"allowedToBuy","offset":20,"slot":"7","type":"t_bool"}],"numberOfBytes":"256"},"t_struct(LandOwner)54_storage":{"encoding":"inplace","label":"struct LandRegistration.LandOwner","members":[{"astId":37,"contract":"LandRegistration.sol:LandRegistration","label":"firstName","offset":0,"slot":"0","type":"t_string_storage"},{"astId":39,"contract":"LandRegistration.sol:LandRegistration","label":"lastName","offset":0,"slot":"1","type":"t_string_storage"},{"astId":41,"contract":"LandRegistration.sol:LandRegistration","label":"middleName","offset":0,"slot":"2","type":"t_string_storage"},{"astId":43,"contract":"LandRegistration.sol:LandRegistration","label":"gender","offset":0,"slot":"3","type":"t_string_storage"},{"astId":45,"contract":"LandRegistration.sol:LandRegistration","label":"email","offset":0,"slot":"4","type":"t_string_storage"},{"astId":47,"contract":"LandRegistration.sol:LandRegistration","label":"phoneNumber","offset":0,"slot":"5","type":"t_string_storage"},{"astId":49,"contract":"LandRegistration.sol:LandRegistration","label":"poBox","offset":0,"slot":"6","type":"t_string_storage"},{"astId":51,"contract":"LandRegistration.sol:LandRegistration","label":"location","offset":0,"slot":"7","type":"t_string_storage"},{"astId":53,"contract":"LandRegistration.sol:LandRegistration","label":"landOwnerAddress","offset":0,"slot":"8","type":"t_address"}],"numberOfBytes":"288"},"t_uint256":{"encoding":"inplace","label":"uint256","numberOfBytes":"32"}}},"userdoc":{"kind":"user","methods":{},"version":1}}