{"abi":[{"inputs":[{"internalType":"string","name":"password","type":"string"}],"stateMutability":"nonpayable","type":"constructor"},{"inputs":[{"internalType":"address","name":"adminAddress","type":"address"}],"name":"activateAdmin","outputs":[],"stateMutability":"nonpayable","type":"function"},{"inputs":[{"internalType":"string","name":"firstName","type":"string"},{"internalType":"string","name":"lastName","type":"string"},{"internalType":"string","name":"county","type":"string"},{"internalType":"address","name":"adminAddress","type":"address"}],"name":"addAdmin","outputs":[],"stateMutability":"nonpayable","type":"function"},{"inputs":[{"internalType":"address","name":"","type":"address"}],"name":"admins","outputs":[{"internalType":"string","name":"firstName","type":"string"},{"internalType":"string","name":"lastName","type":"string"},{"internalType":"address","name":"adminAddress","type":"address"},{"internalType":"string","name":"county","type":"string"},{"internalType":"bool","name":"active","type":"bool"}],"stateMutability":"view","type":"function"},{"inputs":[{"internalType":"uint256","name":"","type":"uint256"}],"name":"adminsAdresses","outputs":[{"internalType":"address","name":"","type":"address"}],"stateMutability":"view","type":"function"},{"inputs":[{"internalType":"uint256","name":"","type":"uint256"}],"name":"counties","outputs":[{"internalType":"string","name":"","type":"string"}],"stateMutability":"view","type":"function"},{"inputs":[{"internalType":"address","name":"adminAddress","type":"address"}],"name":"deactivateAdmin","outputs":[],"stateMutability":"nonpayable","type":"function"},{"inputs":[{"internalType":"string","name":"_firstName","type":"string"},{"internalType":"string","name":"_lastName","type":"string"},{"internalType":"string","name":"_county","type":"string"},{"internalType":"address","name":"_adminAddress","type":"address"}],"name":"editAdmin","outputs":[],"stateMutability":"nonpayable","type":"function"},{"inputs":[{"internalType":"address","name":"adminAddress","type":"address"}],"name":"getAdmin","outputs":[{"components":[{"internalType":"string","name":"firstName","type":"string"},{"internalType":"string","name":"lastName","type":"string"},{"internalType":"address","name":"adminAddress","type":"address"},{"internalType":"string","name":"county","type":"string"},{"internalType":"bool","name":"active","type":"bool"}],"internalType":"struct LandRegistration.Admin","name":"","type":"tuple"}],"stateMutability":"view","type":"function"},{"inputs":[],"name":"getAdminAddresses","outputs":[{"internalType":"address[]","name":"","type":"address[]"}],"stateMutability":"view","type":"function"},{"inputs":[],"name":"getLandIds","outputs":[{"internalType":"string[]","name":"","type":"string[]"}],"stateMutability":"view","type":"function"},{"inputs":[],"name":"getSuperAdminPassword","outputs":[{"internalType":"string","name":"","type":"string"}],"stateMutability":"view","type":"function"},{"inputs":[{"internalType":"uint256","name":"","type":"uint256"}],"name":"landIdsArr","outputs":[{"internalType":"string","name":"","type":"string"}],"stateMutability":"view","type":"function"},{"inputs":[{"internalType":"string","name":"","type":"string"}],"name":"landIdsMapping","outputs":[{"internalType":"bool","name":"","type":"bool"}],"stateMutability":"view","type":"function"},{"inputs":[{"internalType":"address","name":"","type":"address"}],"name":"landOwners","outputs":[{"internalType":"bool","name":"","type":"bool"}],"stateMutability":"view","type":"function"},{"inputs":[{"internalType":"address","name":"","type":"address"}],"name":"landOwnersDetails","outputs":[{"internalType":"string","name":"firstName","type":"string"},{"internalType":"string","name":"lastName","type":"string"},{"internalType":"string","name":"middleName","type":"string"},{"internalType":"string","name":"gender","type":"string"},{"internalType":"string","name":"email","type":"string"},{"internalType":"string","name":"phoneNumber","type":"string"},{"internalType":"string","name":"poBox","type":"string"},{"internalType":"string","name":"location","type":"string"},{"internalType":"address","name":"landOwnerAddress","type":"address"}],"stateMutability":"view","type":"function"},{"inputs":[{"internalType":"string","name":"","type":"string"}],"name":"lands","outputs":[{"internalType":"string","name":"county","type":"string"},{"internalType":"string","name":"location","type":"string"},{"internalType":"string","name":"surveyNumber","type":"string"},{"internalType":"address","name":"ownerAddress","type":"address"},{"internalType":"string","name":"marketValue","type":"string"},{"internalType":"bool","name":"availability","type":"bool"},{"internalType":"bool","name":"requestedForSale","type":"bool"},{"internalType":"address","name":"requestedByAddress","type":"address"},{"internalType":"string","name":"landId","type":"string"},{"internalType":"address","name":"adminAddress","type":"address"}],"stateMutability":"view","type":"function"},{"inputs":[],"name":"landsCount","outputs":[{"internalType":"uint256","name":"","type":"uint256"}],"stateMutability":"view","type":"function"},{"inputs":[],"name":"loginAdmin","outputs":[{"internalType":"bool","name":"","type":"bool"}],"stateMutability":"view","type":"function"},{"inputs":[{"internalType":"string","name":"_location","type":"string"},{"internalType":"string","name":"_surveryNumber","type":"string"},{"internalType":"address","name":"_ownerAddress","type":"address"},{"internalType":"string","name":"_marketValue","type":"string"},{"internalType":"address","name":"_adminAddress","type":"address"},{"internalType":"string","name":"_landId","type":"string"}],"name":"registerLand","outputs":[],"stateMutability":"nonpayable","type":"function"},{"inputs":[],"name":"registerLandOwner","outputs":[{"internalType":"bool","name":"","type":"bool"}],"stateMutability":"nonpayable","type":"function"},{"inputs":[],"name":"superAdminAddress","outputs":[{"internalType":"address","name":"","type":"address"}],"stateMutability":"view","type":"function"},{"inputs":[{"internalType":"string","name":"_firstName","type":"string"},{"internalType":"string","name":"_lastName","type":"string"},{"internalType":"string","name":"_middleName","type":"string"},{"internalType":"string","name":"_gender","type":"string"},{"internalType":"string","name":"_email","type":"string"},{"internalType":"string","name":"_phoneNumber","type":"string"},{"internalType":"string","name":"_poBox","type":"string"},{"internalType":"string","name":"_location","type":"string"}],"name":"updateLandOwner","outputs":[],"stateMutability":"nonpayable","type":"function"}],"devdoc":{"kind":"dev","methods":{},"version":1},"evm":{"assembly":"    /* \"LandRegistration.sol\":61:5888  contract LandRegistration {... */\n  mstore(0x40, 0x80)\n    /* \"LandRegistration.sol\":1316:1462  constructor(string memory password) {... */\n  callvalue\n  dup1\n  iszero\n  tag_1\n  jumpi\n  0x00\n  dup1\n  revert\ntag_1:\n  pop\n  mload(0x40)\n  sub(codesize, bytecodeSize)\n  dup1\n  bytecodeSize\n  dup4\n  codecopy\n  dup2\n  dup2\n  add\n  0x40\n  mstore\n  dup2\n  add\n  swap1\n  tag_2\n  swap2\n  swap1\n  tag_3\n  jump\t// in\ntag_2:\n    /* \"LandRegistration.sol\":1383:1391  password */\n  dup1\n    /* \"LandRegistration.sol\":1362:1380  superAdminPassword */\n  0x01\n    /* \"LandRegistration.sol\":1362:1391  superAdminPassword = password */\n  swap1\n  dup1\n  mload\n  swap1\n  0x20\n  add\n  swap1\n  tag_6\n  swap3\n  swap2\n  swap1\n  tag_7\n  jump\t// in\ntag_6:\n  pop\n    /* \"LandRegistration.sol\":1421:1431  msg.sender */\n  caller\n    /* \"LandRegistration.sol\":1401:1418  superAdminAddress */\n  0x00\n  dup1\n    /* \"LandRegistration.sol\":1401:1431  superAdminAddress = msg.sender */\n  0x0100\n  exp\n  dup2\n  sload\n  dup2\n  0xffffffffffffffffffffffffffffffffffffffff\n  mul\n  not\n  and\n  swap1\n  dup4\n  0xffffffffffffffffffffffffffffffffffffffff\n  and\n  mul\n  or\n  swap1\n  sstore\n  pop\n    /* \"LandRegistration.sol\":1454:1455  0 */\n  0x00\n    /* \"LandRegistration.sol\":1441:1451  landsCount */\n  0x09\n    /* \"LandRegistration.sol\":1441:1455  landsCount = 0 */\n  dup2\n  swap1\n  sstore\n  pop\n    /* \"LandRegistration.sol\":1316:1462  constructor(string memory password) {... */\n  pop\n    /* \"LandRegistration.sol\":61:5888  contract LandRegistration {... */\n  jump(tag_8)\ntag_7:\n  dup3\n  dup1\n  sload\n  tag_9\n  swap1\n  tag_10\n  jump\t// in\ntag_9:\n  swap1\n  0x00\n  mstore\n  keccak256(0x00, 0x20)\n  swap1\n  0x1f\n  add\n  0x20\n  swap1\n  div\n  dup2\n  add\n  swap3\n  dup3\n  tag_12\n  jumpi\n  0x00\n  dup6\n  sstore\n  jump(tag_11)\ntag_12:\n  dup3\n  0x1f\n  lt\n  tag_13\n  jumpi\n  dup1\n  mload\n  not(0xff)\n  and\n  dup4\n  dup1\n  add\n  or\n  dup6\n  sstore\n  jump(tag_11)\ntag_13:\n  dup3\n  dup1\n  add\n  0x01\n  add\n  dup6\n  sstore\n  dup3\n  iszero\n  tag_11\n  jumpi\n  swap2\n  dup3\n  add\ntag_14:\n  dup3\n  dup2\n  gt\n  iszero\n  tag_15\n  jumpi\n  dup3\n  mload\n  dup3\n  sstore\n  swap2\n  0x20\n  add\n  swap2\n  swap1\n  0x01\n  add\n  swap1\n  jump(tag_14)\ntag_15:\ntag_11:\n  pop\n  swap1\n  pop\n  tag_16\n  swap2\n  swap1\n  tag_17\n  jump\t// in\ntag_16:\n  pop\n  swap1\n  jump\t// out\ntag_17:\ntag_18:\n  dup1\n  dup3\n  gt\n  iszero\n  tag_19\n  jumpi\n  0x00\n  dup2\n  0x00\n  swap1\n  sstore\n  pop\n  0x01\n  add\n  jump(tag_18)\ntag_19:\n  pop\n  swap1\n  jump\t// out\n    /* \"#utility.yul\":7:82   */\ntag_20:\n    /* \"#utility.yul\":40:46   */\n  0x00\n    /* \"#utility.yul\":73:75   */\n  0x40\n    /* \"#utility.yul\":67:76   */\n  mload\n    /* \"#utility.yul\":57:76   */\n  swap1\n  pop\n    /* \"#utility.yul\":7:82   */\n  swap1\n  jump\t// out\n    /* \"#utility.yul\":88:205   */\ntag_21:\n    /* \"#utility.yul\":197:198   */\n  0x00\n    /* \"#utility.yul\":194:195   */\n  dup1\n    /* \"#utility.yul\":187:199   */\n  revert\n    /* \"#utility.yul\":211:328   */\ntag_22:\n    /* \"#utility.yul\":320:321   */\n  0x00\n    /* \"#utility.yul\":317:318   */\n  dup1\n    /* \"#utility.yul\":310:322   */\n  revert\n    /* \"#utility.yul\":334:451   */\ntag_23:\n    /* \"#utility.yul\":443:444   */\n  0x00\n    /* \"#utility.yul\":440:441   */\n  dup1\n    /* \"#utility.yul\":433:445   */\n  revert\n    /* \"#utility.yul\":457:574   */\ntag_24:\n    /* \"#utility.yul\":566:567   */\n  0x00\n    /* \"#utility.yul\":563:564   */\n  dup1\n    /* \"#utility.yul\":556:568   */\n  revert\n    /* \"#utility.yul\":580:682   */\ntag_25:\n    /* \"#utility.yul\":621:627   */\n  0x00\n    /* \"#utility.yul\":672:674   */\n  0x1f\n    /* \"#utility.yul\":668:675   */\n  not\n    /* \"#utility.yul\":663:665   */\n  0x1f\n    /* \"#utility.yul\":656:661   */\n  dup4\n    /* \"#utility.yul\":652:666   */\n  add\n    /* \"#utility.yul\":648:676   */\n  and\n    /* \"#utility.yul\":638:676   */\n  swap1\n  pop\n    /* \"#utility.yul\":580:682   */\n  swap2\n  swap1\n  pop\n  jump\t// out\n    /* \"#utility.yul\":688:868   */\ntag_26:\n    /* \"#utility.yul\":736:813   */\n  0x4e487b7100000000000000000000000000000000000000000000000000000000\n    /* \"#utility.yul\":733:734   */\n  0x00\n    /* \"#utility.yul\":726:814   */\n  mstore\n    /* \"#utility.yul\":833:837   */\n  0x41\n    /* \"#utility.yul\":830:831   */\n  0x04\n    /* \"#utility.yul\":823:838   */\n  mstore\n    /* \"#utility.yul\":857:861   */\n  0x24\n    /* \"#utility.yul\":854:855   */\n  0x00\n    /* \"#utility.yul\":847:862   */\n  revert\n    /* \"#utility.yul\":874:1155   */\ntag_27:\n    /* \"#utility.yul\":957:984   */\n  tag_43\n    /* \"#utility.yul\":979:983   */\n  dup3\n    /* \"#utility.yul\":957:984   */\n  tag_25\n  jump\t// in\ntag_43:\n    /* \"#utility.yul\":949:955   */\n  dup2\n    /* \"#utility.yul\":945:985   */\n  add\n    /* \"#utility.yul\":1087:1093   */\n  dup2\n    /* \"#utility.yul\":1075:1085   */\n  dup2\n    /* \"#utility.yul\":1072:1094   */\n  lt\n    /* \"#utility.yul\":1051:1069   */\n  0xffffffffffffffff\n    /* \"#utility.yul\":1039:1049   */\n  dup3\n    /* \"#utility.yul\":1036:1070   */\n  gt\n    /* \"#utility.yul\":1033:1095   */\n  or\n    /* \"#utility.yul\":1030:1118   */\n  iszero\n  tag_44\n  jumpi\n    /* \"#utility.yul\":1098:1116   */\n  tag_45\n  tag_26\n  jump\t// in\ntag_45:\n    /* \"#utility.yul\":1030:1118   */\ntag_44:\n    /* \"#utility.yul\":1138:1148   */\n  dup1\n    /* \"#utility.yul\":1134:1136   */\n  0x40\n    /* \"#utility.yul\":1127:1149   */\n  mstore\n    /* \"#utility.yul\":917:1155   */\n  pop\n    /* \"#utility.yul\":874:1155   */\n  pop\n  pop\n  jump\t// out\n    /* \"#utility.yul\":1161:1290   */\ntag_28:\n    /* \"#utility.yul\":1195:1201   */\n  0x00\n    /* \"#utility.yul\":1222:1242   */\n  tag_47\n  tag_20\n  jump\t// in\ntag_47:\n    /* \"#utility.yul\":1212:1242   */\n  swap1\n  pop\n    /* \"#utility.yul\":1251:1284   */\n  tag_48\n    /* \"#utility.yul\":1279:1283   */\n  dup3\n    /* \"#utility.yul\":1271:1277   */\n  dup3\n    /* \"#utility.yul\":1251:1284   */\n  tag_27\n  jump\t// in\ntag_48:\n    /* \"#utility.yul\":1161:1290   */\n  swap2\n  swap1\n  pop\n  jump\t// out\n    /* \"#utility.yul\":1296:1604   */\ntag_29:\n    /* \"#utility.yul\":1358:1362   */\n  0x00\n    /* \"#utility.yul\":1448:1466   */\n  0xffffffffffffffff\n    /* \"#utility.yul\":1440:1446   */\n  dup3\n    /* \"#utility.yul\":1437:1467   */\n  gt\n    /* \"#utility.yul\":1434:1490   */\n  iszero\n  tag_50\n  jumpi\n    /* \"#utility.yul\":1470:1488   */\n  tag_51\n  tag_26\n  jump\t// in\ntag_51:\n    /* \"#utility.yul\":1434:1490   */\ntag_50:\n    /* \"#utility.yul\":1508:1537   */\n  tag_52\n    /* \"#utility.yul\":1530:1536   */\n  dup3\n    /* \"#utility.yul\":1508:1537   */\n  tag_25\n  jump\t// in\ntag_52:\n    /* \"#utility.yul\":1500:1537   */\n  swap1\n  pop\n    /* \"#utility.yul\":1592:1596   */\n  0x20\n    /* \"#utility.yul\":1586:1590   */\n  dup2\n    /* \"#utility.yul\":1582:1597   */\n  add\n    /* \"#utility.yul\":1574:1597   */\n  swap1\n  pop\n    /* \"#utility.yul\":1296:1604   */\n  swap2\n  swap1\n  pop\n  jump\t// out\n    /* \"#utility.yul\":1610:1917   */\ntag_30:\n    /* \"#utility.yul\":1678:1679   */\n  0x00\n    /* \"#utility.yul\":1688:1801   */\ntag_54:\n    /* \"#utility.yul\":1702:1708   */\n  dup4\n    /* \"#utility.yul\":1699:1700   */\n  dup2\n    /* \"#utility.yul\":1696:1709   */\n  lt\n    /* \"#utility.yul\":1688:1801   */\n  iszero\n  tag_56\n  jumpi\n    /* \"#utility.yul\":1787:1788   */\n  dup1\n    /* \"#utility.yul\":1782:1785   */\n  dup3\n    /* \"#utility.yul\":1778:1789   */\n  add\n    /* \"#utility.yul\":1772:1790   */\n  mload\n    /* \"#utility.yul\":1768:1769   */\n  dup2\n    /* \"#utility.yul\":1763:1766   */\n  dup5\n    /* \"#utility.yul\":1759:1770   */\n  add\n    /* \"#utility.yul\":1752:1791   */\n  mstore\n    /* \"#utility.yul\":1724:1726   */\n  0x20\n    /* \"#utility.yul\":1721:1722   */\n  dup2\n    /* \"#utility.yul\":1717:1727   */\n  add\n    /* \"#utility.yul\":1712:1727   */\n  swap1\n  pop\n    /* \"#utility.yul\":1688:1801   */\n  jump(tag_54)\ntag_56:\n    /* \"#utility.yul\":1819:1825   */\n  dup4\n    /* \"#utility.yul\":1816:1817   */\n  dup2\n    /* \"#utility.yul\":1813:1826   */\n  gt\n    /* \"#utility.yul\":1810:1911   */\n  iszero\n  tag_57\n  jumpi\n    /* \"#utility.yul\":1899:1900   */\n  0x00\n    /* \"#utility.yul\":1890:1896   */\n  dup5\n    /* \"#utility.yul\":1885:1888   */\n  dup5\n    /* \"#utility.yul\":1881:1897   */\n  add\n    /* \"#utility.yul\":1874:1901   */\n  mstore\n    /* \"#utility.yul\":1810:1911   */\ntag_57:\n    /* \"#utility.yul\":1659:1917   */\n  pop\n    /* \"#utility.yul\":1610:1917   */\n  pop\n  pop\n  pop\n  jump\t// out\n    /* \"#utility.yul\":1923:2344   */\ntag_31:\n    /* \"#utility.yul\":2012:2017   */\n  0x00\n    /* \"#utility.yul\":2037:2103   */\n  tag_59\n    /* \"#utility.yul\":2053:2102   */\n  tag_60\n    /* \"#utility.yul\":2095:2101   */\n  dup5\n    /* \"#utility.yul\":2053:2102   */\n  tag_29\n  jump\t// in\ntag_60:\n    /* \"#utility.yul\":2037:2103   */\n  tag_28\n  jump\t// in\ntag_59:\n    /* \"#utility.yul\":2028:2103   */\n  swap1\n  pop\n    /* \"#utility.yul\":2126:2132   */\n  dup3\n    /* \"#utility.yul\":2119:2124   */\n  dup2\n    /* \"#utility.yul\":2112:2133   */\n  mstore\n    /* \"#utility.yul\":2164:2168   */\n  0x20\n    /* \"#utility.yul\":2157:2162   */\n  dup2\n    /* \"#utility.yul\":2153:2169   */\n  add\n    /* \"#utility.yul\":2202:2205   */\n  dup5\n    /* \"#utility.yul\":2193:2199   */\n  dup5\n    /* \"#utility.yul\":2188:2191   */\n  dup5\n    /* \"#utility.yul\":2184:2200   */\n  add\n    /* \"#utility.yul\":2181:2206   */\n  gt\n    /* \"#utility.yul\":2178:2290   */\n  iszero\n  tag_61\n  jumpi\n    /* \"#utility.yul\":2209:2288   */\n  tag_62\n  tag_24\n  jump\t// in\ntag_62:\n    /* \"#utility.yul\":2178:2290   */\ntag_61:\n    /* \"#utility.yul\":2299:2338   */\n  tag_63\n    /* \"#utility.yul\":2331:2337   */\n  dup5\n    /* \"#utility.yul\":2326:2329   */\n  dup3\n    /* \"#utility.yul\":2321:2324   */\n  dup6\n    /* \"#utility.yul\":2299:2338   */\n  tag_30\n  jump\t// in\ntag_63:\n    /* \"#utility.yul\":2018:2344   */\n  pop\n    /* \"#utility.yul\":1923:2344   */\n  swap4\n  swap3\n  pop\n  pop\n  pop\n  jump\t// out\n    /* \"#utility.yul\":2364:2719   */\ntag_32:\n    /* \"#utility.yul\":2431:2436   */\n  0x00\n    /* \"#utility.yul\":2480:2483   */\n  dup3\n    /* \"#utility.yul\":2473:2477   */\n  0x1f\n    /* \"#utility.yul\":2465:2471   */\n  dup4\n    /* \"#utility.yul\":2461:2478   */\n  add\n    /* \"#utility.yul\":2457:2484   */\n  slt\n    /* \"#utility.yul\":2447:2569   */\n  tag_65\n  jumpi\n    /* \"#utility.yul\":2488:2567   */\n  tag_66\n  tag_23\n  jump\t// in\ntag_66:\n    /* \"#utility.yul\":2447:2569   */\ntag_65:\n    /* \"#utility.yul\":2598:2604   */\n  dup2\n    /* \"#utility.yul\":2592:2605   */\n  mload\n    /* \"#utility.yul\":2623:2713   */\n  tag_67\n    /* \"#utility.yul\":2709:2712   */\n  dup5\n    /* \"#utility.yul\":2701:2707   */\n  dup3\n    /* \"#utility.yul\":2694:2698   */\n  0x20\n    /* \"#utility.yul\":2686:2692   */\n  dup7\n    /* \"#utility.yul\":2682:2699   */\n  add\n    /* \"#utility.yul\":2623:2713   */\n  tag_31\n  jump\t// in\ntag_67:\n    /* \"#utility.yul\":2614:2713   */\n  swap2\n  pop\n    /* \"#utility.yul\":2437:2719   */\n  pop\n    /* \"#utility.yul\":2364:2719   */\n  swap3\n  swap2\n  pop\n  pop\n  jump\t// out\n    /* \"#utility.yul\":2725:3249   */\ntag_3:\n    /* \"#utility.yul\":2805:2811   */\n  0x00\n    /* \"#utility.yul\":2854:2856   */\n  0x20\n    /* \"#utility.yul\":2842:2851   */\n  dup3\n    /* \"#utility.yul\":2833:2840   */\n  dup5\n    /* \"#utility.yul\":2829:2852   */\n  sub\n    /* \"#utility.yul\":2825:2857   */\n  slt\n    /* \"#utility.yul\":2822:2941   */\n  iszero\n  tag_69\n  jumpi\n    /* \"#utility.yul\":2860:2939   */\n  tag_70\n  tag_21\n  jump\t// in\ntag_70:\n    /* \"#utility.yul\":2822:2941   */\ntag_69:\n    /* \"#utility.yul\":3001:3002   */\n  0x00\n    /* \"#utility.yul\":2990:2999   */\n  dup3\n    /* \"#utility.yul\":2986:3003   */\n  add\n    /* \"#utility.yul\":2980:3004   */\n  mload\n    /* \"#utility.yul\":3031:3049   */\n  0xffffffffffffffff\n    /* \"#utility.yul\":3023:3029   */\n  dup2\n    /* \"#utility.yul\":3020:3050   */\n  gt\n    /* \"#utility.yul\":3017:3134   */\n  iszero\n  tag_71\n  jumpi\n    /* \"#utility.yul\":3053:3132   */\n  tag_72\n  tag_22\n  jump\t// in\ntag_72:\n    /* \"#utility.yul\":3017:3134   */\ntag_71:\n    /* \"#utility.yul\":3158:3232   */\n  tag_73\n    /* \"#utility.yul\":3224:3231   */\n  dup5\n    /* \"#utility.yul\":3215:3221   */\n  dup3\n    /* \"#utility.yul\":3204:3213   */\n  dup6\n    /* \"#utility.yul\":3200:3222   */\n  add\n    /* \"#utility.yul\":3158:3232   */\n  tag_32\n  jump\t// in\ntag_73:\n    /* \"#utility.yul\":3148:3232   */\n  swap2\n  pop\n    /* \"#utility.yul\":2951:3242   */\n  pop\n    /* \"#utility.yul\":2725:3249   */\n  swap3\n  swap2\n  pop\n  pop\n  jump\t// out\n    /* \"#utility.yul\":3255:3435   */\ntag_33:\n    /* \"#utility.yul\":3303:3380   */\n  0x4e487b7100000000000000000000000000000000000000000000000000000000\n    /* \"#utility.yul\":3300:3301   */\n  0x00\n    /* \"#utility.yul\":3293:3381   */\n  mstore\n    /* \"#utility.yul\":3400:3404   */\n  0x22\n    /* \"#utility.yul\":3397:3398   */\n  0x04\n    /* \"#utility.yul\":3390:3405   */\n  mstore\n    /* \"#utility.yul\":3424:3428   */\n  0x24\n    /* \"#utility.yul\":3421:3422   */\n  0x00\n    /* \"#utility.yul\":3414:3429   */\n  revert\n    /* \"#utility.yul\":3441:3761   */\ntag_10:\n    /* \"#utility.yul\":3485:3491   */\n  0x00\n    /* \"#utility.yul\":3522:3523   */\n  0x02\n    /* \"#utility.yul\":3516:3520   */\n  dup3\n    /* \"#utility.yul\":3512:3524   */\n  div\n    /* \"#utility.yul\":3502:3524   */\n  swap1\n  pop\n    /* \"#utility.yul\":3569:3570   */\n  0x01\n    /* \"#utility.yul\":3563:3567   */\n  dup3\n    /* \"#utility.yul\":3559:3571   */\n  and\n    /* \"#utility.yul\":3590:3608   */\n  dup1\n    /* \"#utility.yul\":3580:3661   */\n  tag_76\n  jumpi\n    /* \"#utility.yul\":3646:3650   */\n  0x7f\n    /* \"#utility.yul\":3638:3644   */\n  dup3\n    /* \"#utility.yul\":3634:3651   */\n  and\n    /* \"#utility.yul\":3624:3651   */\n  swap2\n  pop\n    /* \"#utility.yul\":3580:3661   */\ntag_76:\n    /* \"#utility.yul\":3708:3710   */\n  0x20\n    /* \"#utility.yul\":3700:3706   */\n  dup3\n    /* \"#utility.yul\":3697:3711   */\n  lt\n    /* \"#utility.yul\":3677:3695   */\n  dup2\n    /* \"#utility.yul\":3674:3712   */\n  eq\n    /* \"#utility.yul\":3671:3755   */\n  iszero\n  tag_77\n  jumpi\n    /* \"#utility.yul\":3727:3745   */\n  tag_78\n  tag_33\n  jump\t// in\ntag_78:\n    /* \"#utility.yul\":3671:3755   */\ntag_77:\n    /* \"#utility.yul\":3492:3761   */\n  pop\n    /* \"#utility.yul\":3441:3761   */\n  swap2\n  swap1\n  pop\n  jump\t// out\n    /* \"LandRegistration.sol\":61:5888  contract LandRegistration {... */\ntag_8:\n  dataSize(sub_0)\n  dup1\n  dataOffset(sub_0)\n  0x00\n  codecopy\n  0x00\n  return\nstop\n\nsub_0: assembly {\n        /* \"LandRegistration.sol\":61:5888  contract LandRegistration {... */\n      mstore(0x40, 0x80)\n      callvalue\n      dup1\n      iszero\n      tag_1\n      jumpi\n      0x00\n      dup1\n      revert\n    tag_1:\n      pop\n      jumpi(tag_2, lt(calldatasize, 0x04))\n      shr(0xe0, calldataload(0x00))\n      dup1\n      0x64efb22b\n      gt\n      tag_25\n      jumpi\n      dup1\n      0xbe87bb8a\n      gt\n      tag_26\n      jumpi\n      dup1\n      0xbe87bb8a\n      eq\n      tag_19\n      jumpi\n      dup1\n      0xc4a0086f\n      eq\n      tag_20\n      jumpi\n      dup1\n      0xcbd5121c\n      eq\n      tag_21\n      jumpi\n      dup1\n      0xcddb61b7\n      eq\n      tag_22\n      jumpi\n      dup1\n      0xdb9573e1\n      eq\n      tag_23\n      jumpi\n      dup1\n      0xdf6fa20e\n      eq\n      tag_24\n      jumpi\n      jump(tag_2)\n    tag_26:\n      dup1\n      0x64efb22b\n      eq\n      tag_14\n      jumpi\n      dup1\n      0x67b57142\n      eq\n      tag_15\n      jumpi\n      dup1\n      0x8b5c9335\n      eq\n      tag_16\n      jumpi\n      dup1\n      0xade79551\n      eq\n      tag_17\n      jumpi\n      dup1\n      0xb1c8ad0d\n      eq\n      tag_18\n      jumpi\n      jump(tag_2)\n    tag_25:\n      dup1\n      0x1c9afd0f\n      gt\n      tag_27\n      jumpi\n      dup1\n      0x1c9afd0f\n      eq\n      tag_8\n      jumpi\n      dup1\n      0x245351c9\n      eq\n      tag_9\n      jumpi\n      dup1\n      0x2a979f31\n      eq\n      tag_10\n      jumpi\n      dup1\n      0x2de8f46d\n      eq\n      tag_11\n      jumpi\n      dup1\n      0x429b62e5\n      eq\n      tag_12\n      jumpi\n      dup1\n      0x64ddfa29\n      eq\n      tag_13\n      jumpi\n      jump(tag_2)\n    tag_27:\n      dup1\n      0x045b3034\n      eq\n      tag_3\n      jumpi\n      dup1\n      0x13718c97\n      eq\n      tag_4\n      jumpi\n      dup1\n      0x1510f0d5\n      eq\n      tag_5\n      jumpi\n      dup1\n      0x1a994ed8\n      eq\n      tag_6\n      jumpi\n      dup1\n      0x1af1a768\n      eq\n      tag_7\n      jumpi\n    tag_2:\n      0x00\n      dup1\n      revert\n        /* \"LandRegistration.sol\":817:849  address public superAdminAddress */\n    tag_3:\n      tag_28\n      tag_29\n      jump\t// in\n    tag_28:\n      mload(0x40)\n      tag_30\n      swap2\n      swap1\n      tag_31\n      jump\t// in\n    tag_30:\n      mload(0x40)\n      dup1\n      swap2\n      sub\n      swap1\n      return\n        /* \"LandRegistration.sol\":1004:1036  address [] public adminsAdresses */\n    tag_4:\n      tag_32\n      0x04\n      dup1\n      calldatasize\n      sub\n      dup2\n      add\n      swap1\n      tag_33\n      swap2\n      swap1\n      tag_34\n      jump\t// in\n    tag_33:\n      tag_35\n      jump\t// in\n    tag_32:\n      mload(0x40)\n      tag_36\n      swap2\n      swap1\n      tag_31\n      jump\t// in\n    tag_36:\n      mload(0x40)\n      dup1\n      swap2\n      sub\n      swap1\n      return\n        /* \"LandRegistration.sol\":3092:3426  function editAdmin(string memory _firstName, string memory _lastName, string memory _county, address _adminAddress) public restrictToSuperAdmin {... */\n    tag_5:\n      tag_37\n      0x04\n      dup1\n      calldatasize\n      sub\n      dup2\n      add\n      swap1\n      tag_38\n      swap2\n      swap1\n      tag_39\n      jump\t// in\n    tag_38:\n      tag_40\n      jump\t// in\n    tag_37:\n      stop\n        /* \"LandRegistration.sol\":3529:3639  function getLandIds() public view restrictToAdmin returns(string [] memory) {... */\n    tag_6:\n      tag_41\n      tag_42\n      jump\t// in\n    tag_41:\n      mload(0x40)\n      tag_43\n      swap2\n      swap1\n      tag_44\n      jump\t// in\n    tag_43:\n      mload(0x40)\n      dup1\n      swap2\n      sub\n      swap1\n      return\n        /* \"LandRegistration.sol\":2829:2953  function activateAdmin(address adminAddress) public restrictToSuperAdmin {... */\n    tag_7:\n      tag_45\n      0x04\n      dup1\n      calldatasize\n      sub\n      dup2\n      add\n      swap1\n      tag_46\n      swap2\n      swap1\n      tag_47\n      jump\t// in\n    tag_46:\n      tag_48\n      jump\t// in\n    tag_45:\n      stop\n        /* \"LandRegistration.sol\":1170:1195  uint256 public landsCount */\n    tag_8:\n      tag_49\n      tag_50\n      jump\t// in\n    tag_49:\n      mload(0x40)\n      tag_51\n      swap2\n      swap1\n      tag_52\n      jump\t// in\n    tag_51:\n      mload(0x40)\n      dup1\n      swap2\n      sub\n      swap1\n      return\n        /* \"LandRegistration.sol\":5210:5886  function updateLandOwner(string memory _firstName, string memory _lastName, string memory _middleName, string memory _gender, string memory _email, string memory _phoneNumber, string memory _poBox, string memory _location) public {... */\n    tag_9:\n      tag_53\n      0x04\n      dup1\n      calldatasize\n      sub\n      dup2\n      add\n      swap1\n      tag_54\n      swap2\n      swap1\n      tag_55\n      jump\t// in\n    tag_54:\n      tag_56\n      jump\t// in\n    tag_53:\n      stop\n        /* \"LandRegistration.sol\":973:998  string [] public counties */\n    tag_10:\n      tag_57\n      0x04\n      dup1\n      calldatasize\n      sub\n      dup2\n      add\n      swap1\n      tag_58\n      swap2\n      swap1\n      tag_34\n      jump\t// in\n    tag_58:\n      tag_59\n      jump\t// in\n    tag_57:\n      mload(0x40)\n      tag_60\n      swap2\n      swap1\n      tag_61\n      jump\t// in\n    tag_60:\n      mload(0x40)\n      dup1\n      swap2\n      sub\n      swap1\n      return\n        /* \"LandRegistration.sol\":1813:1944  function getSuperAdminPassword() public view restrictToSuperAdmin returns(string memory) {... */\n    tag_11:\n      tag_62\n      tag_63\n      jump\t// in\n    tag_62:\n      mload(0x40)\n      tag_64\n      swap2\n      swap1\n      tag_61\n      jump\t// in\n    tag_64:\n      mload(0x40)\n      dup1\n      swap2\n      sub\n      swap1\n      return\n        /* \"LandRegistration.sol\":886:926  mapping (address => Admin) public admins */\n    tag_12:\n      tag_65\n      0x04\n      dup1\n      calldatasize\n      sub\n      dup2\n      add\n      swap1\n      tag_66\n      swap2\n      swap1\n      tag_47\n      jump\t// in\n    tag_66:\n      tag_67\n      jump\t// in\n    tag_65:\n      mload(0x40)\n      tag_68\n      swap6\n      swap5\n      swap4\n      swap3\n      swap2\n      swap1\n      tag_69\n      jump\t// in\n    tag_68:\n      mload(0x40)\n      dup1\n      swap2\n      sub\n      swap1\n      return\n        /* \"LandRegistration.sol\":2959:3086  function getAdminAddresses() public view restrictToSuperAdmin returns(address [] memory) {... */\n    tag_13:\n      tag_70\n      tag_71\n      jump\t// in\n    tag_70:\n      mload(0x40)\n      tag_72\n      swap2\n      swap1\n      tag_73\n      jump\t// in\n    tag_72:\n      mload(0x40)\n      dup1\n      swap2\n      sub\n      swap1\n      return\n        /* \"LandRegistration.sol\":2543:2682  function getAdmin(address adminAddress) public view restrictToSuperAdmin returns(Admin memory) {... */\n    tag_14:\n      tag_74\n      0x04\n      dup1\n      calldatasize\n      sub\n      dup2\n      add\n      swap1\n      tag_75\n      swap2\n      swap1\n      tag_47\n      jump\t// in\n    tag_75:\n      tag_76\n      jump\t// in\n    tag_74:\n      mload(0x40)\n      tag_77\n      swap2\n      swap1\n      tag_78\n      jump\t// in\n    tag_77:\n      mload(0x40)\n      dup1\n      swap2\n      sub\n      swap1\n      return\n        /* \"LandRegistration.sol\":1201:1244  mapping (address => bool) public landOwners */\n    tag_15:\n      tag_79\n      0x04\n      dup1\n      calldatasize\n      sub\n      dup2\n      add\n      swap1\n      tag_80\n      swap2\n      swap1\n      tag_47\n      jump\t// in\n    tag_80:\n      tag_81\n      jump\t// in\n    tag_79:\n      mload(0x40)\n      tag_82\n      swap2\n      swap1\n      tag_83\n      jump\t// in\n    tag_82:\n      mload(0x40)\n      dup1\n      swap2\n      sub\n      swap1\n      return\n        /* \"LandRegistration.sol\":3432:3523  function loginAdmin() public view restrictToAdmin returns(bool){... */\n    tag_16:\n      tag_84\n      tag_85\n      jump\t// in\n    tag_84:\n      mload(0x40)\n      tag_86\n      swap2\n      swap1\n      tag_83\n      jump\t// in\n    tag_86:\n      mload(0x40)\n      dup1\n      swap2\n      sub\n      swap1\n      return\n        /* \"LandRegistration.sol\":3645:4621  function registerLand(string memory _location, string memory _surveryNumber, address _ownerAddress, string memory _marketValue, address _adminAddress, string memory _landId) public restrictToAdmin {... */\n    tag_17:\n      tag_87\n      0x04\n      dup1\n      calldatasize\n      sub\n      dup2\n      add\n      swap1\n      tag_88\n      swap2\n      swap1\n      tag_89\n      jump\t// in\n    tag_88:\n      tag_90\n      jump\t// in\n    tag_87:\n      stop\n        /* \"LandRegistration.sol\":1127:1164  mapping (string => Land) public lands */\n    tag_18:\n      tag_91\n      0x04\n      dup1\n      calldatasize\n      sub\n      dup2\n      add\n      swap1\n      tag_92\n      swap2\n      swap1\n      tag_93\n      jump\t// in\n    tag_92:\n      tag_94\n      jump\t// in\n    tag_91:\n      mload(0x40)\n      tag_95\n      swap11\n      swap10\n      swap9\n      swap8\n      swap7\n      swap6\n      swap5\n      swap4\n      swap3\n      swap2\n      swap1\n      tag_96\n      jump\t// in\n    tag_95:\n      mload(0x40)\n      dup1\n      swap2\n      sub\n      swap1\n      return\n        /* \"LandRegistration.sol\":1250:1305  mapping (address => LandOwner) public landOwnersDetails */\n    tag_19:\n      tag_97\n      0x04\n      dup1\n      calldatasize\n      sub\n      dup2\n      add\n      swap1\n      tag_98\n      swap2\n      swap1\n      tag_47\n      jump\t// in\n    tag_98:\n      tag_99\n      jump\t// in\n    tag_97:\n      mload(0x40)\n      tag_100\n      swap10\n      swap9\n      swap8\n      swap7\n      swap6\n      swap5\n      swap4\n      swap3\n      swap2\n      swap1\n      tag_101\n      jump\t// in\n    tag_100:\n      mload(0x40)\n      dup1\n      swap2\n      sub\n      swap1\n      return\n        /* \"LandRegistration.sol\":1075:1121  mapping (string => bool) public landIdsMapping */\n    tag_20:\n      tag_102\n      0x04\n      dup1\n      calldatasize\n      sub\n      dup2\n      add\n      swap1\n      tag_103\n      swap2\n      swap1\n      tag_93\n      jump\t// in\n    tag_103:\n      tag_104\n      jump\t// in\n    tag_102:\n      mload(0x40)\n      tag_105\n      swap2\n      swap1\n      tag_83\n      jump\t// in\n    tag_105:\n      mload(0x40)\n      dup1\n      swap2\n      sub\n      swap1\n      return\n        /* \"LandRegistration.sol\":1042:1069  string [] public landIdsArr */\n    tag_21:\n      tag_106\n      0x04\n      dup1\n      calldatasize\n      sub\n      dup2\n      add\n      swap1\n      tag_107\n      swap2\n      swap1\n      tag_34\n      jump\t// in\n    tag_107:\n      tag_108\n      jump\t// in\n    tag_106:\n      mload(0x40)\n      tag_109\n      swap2\n      swap1\n      tag_61\n      jump\t// in\n    tag_109:\n      mload(0x40)\n      dup1\n      swap2\n      sub\n      swap1\n      return\n        /* \"LandRegistration.sol\":1954:2537  function addAdmin(string memory firstName, string memory lastName, string memory county, address adminAddress) public restrictToSuperAdmin {... */\n    tag_22:\n      tag_110\n      0x04\n      dup1\n      calldatasize\n      sub\n      dup2\n      add\n      swap1\n      tag_111\n      swap2\n      swap1\n      tag_39\n      jump\t// in\n    tag_111:\n      tag_112\n      jump\t// in\n    tag_110:\n      stop\n        /* \"LandRegistration.sol\":4627:5204  function registerLandOwner() public returns(bool){... */\n    tag_23:\n      tag_113\n      tag_114\n      jump\t// in\n    tag_113:\n      mload(0x40)\n      tag_115\n      swap2\n      swap1\n      tag_83\n      jump\t// in\n    tag_115:\n      mload(0x40)\n      dup1\n      swap2\n      sub\n      swap1\n      return\n        /* \"LandRegistration.sol\":2692:2819  function deactivateAdmin(address adminAddress) public restrictToSuperAdmin {... */\n    tag_24:\n      tag_116\n      0x04\n      dup1\n      calldatasize\n      sub\n      dup2\n      add\n      swap1\n      tag_117\n      swap2\n      swap1\n      tag_47\n      jump\t// in\n    tag_117:\n      tag_118\n      jump\t// in\n    tag_116:\n      stop\n        /* \"LandRegistration.sol\":817:849  address public superAdminAddress */\n    tag_29:\n      0x00\n      dup1\n      sload\n      swap1\n      0x0100\n      exp\n      swap1\n      div\n      0xffffffffffffffffffffffffffffffffffffffff\n      and\n      dup2\n      jump\t// out\n        /* \"LandRegistration.sol\":1004:1036  address [] public adminsAdresses */\n    tag_35:\n      0x05\n      dup2\n      dup2\n      sload\n      dup2\n      lt\n      tag_119\n      jumpi\n      0x00\n      dup1\n      revert\n    tag_119:\n      swap1\n      0x00\n      mstore\n      keccak256(0x00, 0x20)\n      add\n      0x00\n      swap2\n      pop\n      sload\n      swap1\n      0x0100\n      exp\n      swap1\n      div\n      0xffffffffffffffffffffffffffffffffffffffff\n      and\n      dup2\n      jump\t// out\n        /* \"LandRegistration.sol\":3092:3426  function editAdmin(string memory _firstName, string memory _lastName, string memory _county, address _adminAddress) public restrictToSuperAdmin {... */\n    tag_40:\n        /* \"LandRegistration.sol\":1682:1699  superAdminAddress */\n      0x00\n      dup1\n      sload\n      swap1\n      0x0100\n      exp\n      swap1\n      div\n      0xffffffffffffffffffffffffffffffffffffffff\n      and\n        /* \"LandRegistration.sol\":1668:1699  msg.sender == superAdminAddress */\n      0xffffffffffffffffffffffffffffffffffffffff\n      and\n        /* \"LandRegistration.sol\":1668:1678  msg.sender */\n      caller\n        /* \"LandRegistration.sol\":1668:1699  msg.sender == superAdminAddress */\n      0xffffffffffffffffffffffffffffffffffffffff\n      and\n      eq\n        /* \"LandRegistration.sol\":1660:1700  require(msg.sender == superAdminAddress) */\n      tag_122\n      jumpi\n      0x00\n      dup1\n      revert\n    tag_122:\n        /* \"LandRegistration.sol\":3246:3271  Admin storage adminToEdit */\n      0x00\n        /* \"LandRegistration.sol\":3274:3280  admins */\n      0x02\n        /* \"LandRegistration.sol\":3274:3295  admins[_adminAddress] */\n      0x00\n        /* \"LandRegistration.sol\":3281:3294  _adminAddress */\n      dup4\n        /* \"LandRegistration.sol\":3274:3295  admins[_adminAddress] */\n      0xffffffffffffffffffffffffffffffffffffffff\n      and\n      0xffffffffffffffffffffffffffffffffffffffff\n      and\n      dup2\n      mstore\n      0x20\n      add\n      swap1\n      dup2\n      mstore\n      0x20\n      add\n      0x00\n      keccak256\n        /* \"LandRegistration.sol\":3246:3295  Admin storage adminToEdit = admins[_adminAddress] */\n      swap1\n      pop\n        /* \"LandRegistration.sol\":3329:3339  _firstName */\n      dup5\n        /* \"LandRegistration.sol\":3305:3316  adminToEdit */\n      dup2\n        /* \"LandRegistration.sol\":3305:3326  adminToEdit.firstName */\n      0x00\n      add\n        /* \"LandRegistration.sol\":3305:3339  adminToEdit.firstName = _firstName */\n      swap1\n      dup1\n      mload\n      swap1\n      0x20\n      add\n      swap1\n      tag_124\n      swap3\n      swap2\n      swap1\n      tag_125\n      jump\t// in\n    tag_124:\n      pop\n        /* \"LandRegistration.sol\":3372:3381  _lastName */\n      dup4\n        /* \"LandRegistration.sol\":3349:3360  adminToEdit */\n      dup2\n        /* \"LandRegistration.sol\":3349:3369  adminToEdit.lastName */\n      0x01\n      add\n        /* \"LandRegistration.sol\":3349:3381  adminToEdit.lastName = _lastName */\n      swap1\n      dup1\n      mload\n      swap1\n      0x20\n      add\n      swap1\n      tag_126\n      swap3\n      swap2\n      swap1\n      tag_125\n      jump\t// in\n    tag_126:\n      pop\n        /* \"LandRegistration.sol\":3412:3419  _county */\n      dup3\n        /* \"LandRegistration.sol\":3391:3402  adminToEdit */\n      dup2\n        /* \"LandRegistration.sol\":3391:3409  adminToEdit.county */\n      0x03\n      add\n        /* \"LandRegistration.sol\":3391:3419  adminToEdit.county = _county */\n      swap1\n      dup1\n      mload\n      swap1\n      0x20\n      add\n      swap1\n      tag_127\n      swap3\n      swap2\n      swap1\n      tag_125\n      jump\t// in\n    tag_127:\n      pop\n        /* \"LandRegistration.sol\":3236:3426  {... */\n      pop\n        /* \"LandRegistration.sol\":3092:3426  function editAdmin(string memory _firstName, string memory _lastName, string memory _county, address _adminAddress) public restrictToSuperAdmin {... */\n      pop\n      pop\n      pop\n      pop\n      jump\t// out\n        /* \"LandRegistration.sol\":3529:3639  function getLandIds() public view restrictToAdmin returns(string [] memory) {... */\n    tag_42:\n        /* \"LandRegistration.sol\":3587:3603  string [] memory */\n      0x60\n        /* \"LandRegistration.sol\":1767:1776  addresses */\n      0x03\n        /* \"LandRegistration.sol\":1767:1788  addresses[msg.sender] */\n      0x00\n        /* \"LandRegistration.sol\":1777:1787  msg.sender */\n      caller\n        /* \"LandRegistration.sol\":1767:1788  addresses[msg.sender] */\n      0xffffffffffffffffffffffffffffffffffffffff\n      and\n      0xffffffffffffffffffffffffffffffffffffffff\n      and\n      dup2\n      mstore\n      0x20\n      add\n      swap1\n      dup2\n      mstore\n      0x20\n      add\n      0x00\n      keccak256\n      0x00\n      swap1\n      sload\n      swap1\n      0x0100\n      exp\n      swap1\n      div\n      0xff\n      and\n        /* \"LandRegistration.sol\":1759:1789  require(addresses[msg.sender]) */\n      tag_129\n      jumpi\n      0x00\n      dup1\n      revert\n    tag_129:\n        /* \"LandRegistration.sol\":3622:3632  landIdsArr */\n      0x06\n        /* \"LandRegistration.sol\":3615:3632  return landIdsArr */\n      dup1\n      sload\n      dup1\n      0x20\n      mul\n      0x20\n      add\n      mload(0x40)\n      swap1\n      dup2\n      add\n      0x40\n      mstore\n      dup1\n      swap3\n      swap2\n      swap1\n      dup2\n      dup2\n      mstore\n      0x20\n      add\n      0x00\n      swap1\n    tag_131:\n      dup3\n      dup3\n      lt\n      iszero\n      tag_132\n      jumpi\n      dup4\n      dup3\n      swap1\n      0x00\n      mstore\n      keccak256(0x00, 0x20)\n      add\n      dup1\n      sload\n      tag_134\n      swap1\n      tag_135\n      jump\t// in\n    tag_134:\n      dup1\n      0x1f\n      add\n      0x20\n      dup1\n      swap2\n      div\n      mul\n      0x20\n      add\n      mload(0x40)\n      swap1\n      dup2\n      add\n      0x40\n      mstore\n      dup1\n      swap3\n      swap2\n      swap1\n      dup2\n      dup2\n      mstore\n      0x20\n      add\n      dup3\n      dup1\n      sload\n      tag_136\n      swap1\n      tag_135\n      jump\t// in\n    tag_136:\n      dup1\n      iszero\n      tag_137\n      jumpi\n      dup1\n      0x1f\n      lt\n      tag_138\n      jumpi\n      0x0100\n      dup1\n      dup4\n      sload\n      div\n      mul\n      dup4\n      mstore\n      swap2\n      0x20\n      add\n      swap2\n      jump(tag_137)\n    tag_138:\n      dup3\n      add\n      swap2\n      swap1\n      0x00\n      mstore\n      keccak256(0x00, 0x20)\n      swap1\n    tag_139:\n      dup2\n      sload\n      dup2\n      mstore\n      swap1\n      0x01\n      add\n      swap1\n      0x20\n      add\n      dup1\n      dup4\n      gt\n      tag_139\n      jumpi\n      dup3\n      swap1\n      sub\n      0x1f\n      and\n      dup3\n      add\n      swap2\n    tag_137:\n      pop\n      pop\n      pop\n      pop\n      pop\n      dup2\n      mstore\n      0x20\n      add\n      swap1\n      0x01\n      add\n      swap1\n      jump(tag_131)\n    tag_132:\n      pop\n      pop\n      pop\n      pop\n      swap1\n      pop\n        /* \"LandRegistration.sol\":3529:3639  function getLandIds() public view restrictToAdmin returns(string [] memory) {... */\n      swap1\n      jump\t// out\n        /* \"LandRegistration.sol\":2829:2953  function activateAdmin(address adminAddress) public restrictToSuperAdmin {... */\n    tag_48:\n        /* \"LandRegistration.sol\":1682:1699  superAdminAddress */\n      0x00\n      dup1\n      sload\n      swap1\n      0x0100\n      exp\n      swap1\n      div\n      0xffffffffffffffffffffffffffffffffffffffff\n      and\n        /* \"LandRegistration.sol\":1668:1699  msg.sender == superAdminAddress */\n      0xffffffffffffffffffffffffffffffffffffffff\n      and\n        /* \"LandRegistration.sol\":1668:1678  msg.sender */\n      caller\n        /* \"LandRegistration.sol\":1668:1699  msg.sender == superAdminAddress */\n      0xffffffffffffffffffffffffffffffffffffffff\n      and\n      eq\n        /* \"LandRegistration.sol\":1660:1700  require(msg.sender == superAdminAddress) */\n      tag_141\n      jumpi\n      0x00\n      dup1\n      revert\n    tag_141:\n        /* \"LandRegistration.sol\":2942:2946  true */\n      0x01\n        /* \"LandRegistration.sol\":2912:2918  admins */\n      0x02\n        /* \"LandRegistration.sol\":2912:2932  admins[adminAddress] */\n      0x00\n        /* \"LandRegistration.sol\":2919:2931  adminAddress */\n      dup4\n        /* \"LandRegistration.sol\":2912:2932  admins[adminAddress] */\n      0xffffffffffffffffffffffffffffffffffffffff\n      and\n      0xffffffffffffffffffffffffffffffffffffffff\n      and\n      dup2\n      mstore\n      0x20\n      add\n      swap1\n      dup2\n      mstore\n      0x20\n      add\n      0x00\n      keccak256\n        /* \"LandRegistration.sol\":2912:2939  admins[adminAddress].active */\n      0x04\n      add\n      0x00\n        /* \"LandRegistration.sol\":2912:2946  admins[adminAddress].active = true */\n      0x0100\n      exp\n      dup2\n      sload\n      dup2\n      0xff\n      mul\n      not\n      and\n      swap1\n      dup4\n      iszero\n      iszero\n      mul\n      or\n      swap1\n      sstore\n      pop\n        /* \"LandRegistration.sol\":2829:2953  function activateAdmin(address adminAddress) public restrictToSuperAdmin {... */\n      pop\n      jump\t// out\n        /* \"LandRegistration.sol\":1170:1195  uint256 public landsCount */\n    tag_50:\n      sload(0x09)\n      dup2\n      jump\t// out\n        /* \"LandRegistration.sol\":5210:5886  function updateLandOwner(string memory _firstName, string memory _lastName, string memory _middleName, string memory _gender, string memory _email, string memory _phoneNumber, string memory _poBox, string memory _location) public {... */\n    tag_56:\n        /* \"LandRegistration.sol\":5450:5483  LandOwner storage landOwnerToEdit */\n      0x00\n        /* \"LandRegistration.sol\":5486:5503  landOwnersDetails */\n      0x0b\n        /* \"LandRegistration.sol\":5486:5515  landOwnersDetails[msg.sender] */\n      0x00\n        /* \"LandRegistration.sol\":5504:5514  msg.sender */\n      caller\n        /* \"LandRegistration.sol\":5486:5515  landOwnersDetails[msg.sender] */\n      0xffffffffffffffffffffffffffffffffffffffff\n      and\n      0xffffffffffffffffffffffffffffffffffffffff\n      and\n      dup2\n      mstore\n      0x20\n      add\n      swap1\n      dup2\n      mstore\n      0x20\n      add\n      0x00\n      keccak256\n        /* \"LandRegistration.sol\":5450:5515  LandOwner storage landOwnerToEdit = landOwnersDetails[msg.sender] */\n      swap1\n      pop\n        /* \"LandRegistration.sol\":5553:5563  _firstName */\n      dup9\n        /* \"LandRegistration.sol\":5525:5540  landOwnerToEdit */\n      dup2\n        /* \"LandRegistration.sol\":5525:5550  landOwnerToEdit.firstName */\n      0x00\n      add\n        /* \"LandRegistration.sol\":5525:5563  landOwnerToEdit.firstName = _firstName */\n      swap1\n      dup1\n      mload\n      swap1\n      0x20\n      add\n      swap1\n      tag_144\n      swap3\n      swap2\n      swap1\n      tag_125\n      jump\t// in\n    tag_144:\n      pop\n        /* \"LandRegistration.sol\":5600:5609  _lastName */\n      dup8\n        /* \"LandRegistration.sol\":5573:5588  landOwnerToEdit */\n      dup2\n        /* \"LandRegistration.sol\":5573:5597  landOwnerToEdit.lastName */\n      0x01\n      add\n        /* \"LandRegistration.sol\":5573:5609  landOwnerToEdit.lastName = _lastName */\n      swap1\n      dup1\n      mload\n      swap1\n      0x20\n      add\n      swap1\n      tag_145\n      swap3\n      swap2\n      swap1\n      tag_125\n      jump\t// in\n    tag_145:\n      pop\n        /* \"LandRegistration.sol\":5648:5659  _middleName */\n      dup7\n        /* \"LandRegistration.sol\":5619:5634  landOwnerToEdit */\n      dup2\n        /* \"LandRegistration.sol\":5619:5645  landOwnerToEdit.middleName */\n      0x02\n      add\n        /* \"LandRegistration.sol\":5619:5659  landOwnerToEdit.middleName = _middleName */\n      swap1\n      dup1\n      mload\n      swap1\n      0x20\n      add\n      swap1\n      tag_146\n      swap3\n      swap2\n      swap1\n      tag_125\n      jump\t// in\n    tag_146:\n      pop\n        /* \"LandRegistration.sol\":5694:5701  _gender */\n      dup6\n        /* \"LandRegistration.sol\":5669:5684  landOwnerToEdit */\n      dup2\n        /* \"LandRegistration.sol\":5669:5691  landOwnerToEdit.gender */\n      0x03\n      add\n        /* \"LandRegistration.sol\":5669:5701  landOwnerToEdit.gender = _gender */\n      swap1\n      dup1\n      mload\n      swap1\n      0x20\n      add\n      swap1\n      tag_147\n      swap3\n      swap2\n      swap1\n      tag_125\n      jump\t// in\n    tag_147:\n      pop\n        /* \"LandRegistration.sol\":5735:5741  _email */\n      dup5\n        /* \"LandRegistration.sol\":5711:5726  landOwnerToEdit */\n      dup2\n        /* \"LandRegistration.sol\":5711:5732  landOwnerToEdit.email */\n      0x04\n      add\n        /* \"LandRegistration.sol\":5711:5741  landOwnerToEdit.email = _email */\n      swap1\n      dup1\n      mload\n      swap1\n      0x20\n      add\n      swap1\n      tag_148\n      swap3\n      swap2\n      swap1\n      tag_125\n      jump\t// in\n    tag_148:\n      pop\n        /* \"LandRegistration.sol\":5781:5793  _phoneNumber */\n      dup4\n        /* \"LandRegistration.sol\":5751:5766  landOwnerToEdit */\n      dup2\n        /* \"LandRegistration.sol\":5751:5778  landOwnerToEdit.phoneNumber */\n      0x05\n      add\n        /* \"LandRegistration.sol\":5751:5793  landOwnerToEdit.phoneNumber = _phoneNumber */\n      swap1\n      dup1\n      mload\n      swap1\n      0x20\n      add\n      swap1\n      tag_149\n      swap3\n      swap2\n      swap1\n      tag_125\n      jump\t// in\n    tag_149:\n      pop\n        /* \"LandRegistration.sol\":5827:5833  _poBox */\n      dup3\n        /* \"LandRegistration.sol\":5803:5818  landOwnerToEdit */\n      dup2\n        /* \"LandRegistration.sol\":5803:5824  landOwnerToEdit.poBox */\n      0x06\n      add\n        /* \"LandRegistration.sol\":5803:5833  landOwnerToEdit.poBox = _poBox */\n      swap1\n      dup1\n      mload\n      swap1\n      0x20\n      add\n      swap1\n      tag_150\n      swap3\n      swap2\n      swap1\n      tag_125\n      jump\t// in\n    tag_150:\n      pop\n        /* \"LandRegistration.sol\":5870:5879  _location */\n      dup2\n        /* \"LandRegistration.sol\":5843:5858  landOwnerToEdit */\n      dup2\n        /* \"LandRegistration.sol\":5843:5867  landOwnerToEdit.location */\n      0x07\n      add\n        /* \"LandRegistration.sol\":5843:5879  landOwnerToEdit.location = _location */\n      swap1\n      dup1\n      mload\n      swap1\n      0x20\n      add\n      swap1\n      tag_151\n      swap3\n      swap2\n      swap1\n      tag_125\n      jump\t// in\n    tag_151:\n      pop\n        /* \"LandRegistration.sol\":5440:5886  {... */\n      pop\n        /* \"LandRegistration.sol\":5210:5886  function updateLandOwner(string memory _firstName, string memory _lastName, string memory _middleName, string memory _gender, string memory _email, string memory _phoneNumber, string memory _poBox, string memory _location) public {... */\n      pop\n      pop\n      pop\n      pop\n      pop\n      pop\n      pop\n      pop\n      jump\t// out\n        /* \"LandRegistration.sol\":973:998  string [] public counties */\n    tag_59:\n      0x04\n      dup2\n      dup2\n      sload\n      dup2\n      lt\n      tag_152\n      jumpi\n      0x00\n      dup1\n      revert\n    tag_152:\n      swap1\n      0x00\n      mstore\n      keccak256(0x00, 0x20)\n      add\n      0x00\n      swap2\n      pop\n      swap1\n      pop\n      dup1\n      sload\n      tag_154\n      swap1\n      tag_135\n      jump\t// in\n    tag_154:\n      dup1\n      0x1f\n      add\n      0x20\n      dup1\n      swap2\n      div\n      mul\n      0x20\n      add\n      mload(0x40)\n      swap1\n      dup2\n      add\n      0x40\n      mstore\n      dup1\n      swap3\n      swap2\n      swap1\n      dup2\n      dup2\n      mstore\n      0x20\n      add\n      dup3\n      dup1\n      sload\n      tag_155\n      swap1\n      tag_135\n      jump\t// in\n    tag_155:\n      dup1\n      iszero\n      tag_156\n      jumpi\n      dup1\n      0x1f\n      lt\n      tag_157\n      jumpi\n      0x0100\n      dup1\n      dup4\n      sload\n      div\n      mul\n      dup4\n      mstore\n      swap2\n      0x20\n      add\n      swap2\n      jump(tag_156)\n    tag_157:\n      dup3\n      add\n      swap2\n      swap1\n      0x00\n      mstore\n      keccak256(0x00, 0x20)\n      swap1\n    tag_158:\n      dup2\n      sload\n      dup2\n      mstore\n      swap1\n      0x01\n      add\n      swap1\n      0x20\n      add\n      dup1\n      dup4\n      gt\n      tag_158\n      jumpi\n      dup3\n      swap1\n      sub\n      0x1f\n      and\n      dup3\n      add\n      swap2\n    tag_156:\n      pop\n      pop\n      pop\n      pop\n      pop\n      dup2\n      jump\t// out\n        /* \"LandRegistration.sol\":1813:1944  function getSuperAdminPassword() public view restrictToSuperAdmin returns(string memory) {... */\n    tag_63:\n        /* \"LandRegistration.sol\":1887:1900  string memory */\n      0x60\n        /* \"LandRegistration.sol\":1682:1699  superAdminAddress */\n      0x00\n      dup1\n      sload\n      swap1\n      0x0100\n      exp\n      swap1\n      div\n      0xffffffffffffffffffffffffffffffffffffffff\n      and\n        /* \"LandRegistration.sol\":1668:1699  msg.sender == superAdminAddress */\n      0xffffffffffffffffffffffffffffffffffffffff\n      and\n        /* \"LandRegistration.sol\":1668:1678  msg.sender */\n      caller\n        /* \"LandRegistration.sol\":1668:1699  msg.sender == superAdminAddress */\n      0xffffffffffffffffffffffffffffffffffffffff\n      and\n      eq\n        /* \"LandRegistration.sol\":1660:1700  require(msg.sender == superAdminAddress) */\n      tag_160\n      jumpi\n      0x00\n      dup1\n      revert\n    tag_160:\n        /* \"LandRegistration.sol\":1919:1937  superAdminPassword */\n      0x01\n        /* \"LandRegistration.sol\":1912:1937  return superAdminPassword */\n      dup1\n      sload\n      tag_162\n      swap1\n      tag_135\n      jump\t// in\n    tag_162:\n      dup1\n      0x1f\n      add\n      0x20\n      dup1\n      swap2\n      div\n      mul\n      0x20\n      add\n      mload(0x40)\n      swap1\n      dup2\n      add\n      0x40\n      mstore\n      dup1\n      swap3\n      swap2\n      swap1\n      dup2\n      dup2\n      mstore\n      0x20\n      add\n      dup3\n      dup1\n      sload\n      tag_163\n      swap1\n      tag_135\n      jump\t// in\n    tag_163:\n      dup1\n      iszero\n      tag_164\n      jumpi\n      dup1\n      0x1f\n      lt\n      tag_165\n      jumpi\n      0x0100\n      dup1\n      dup4\n      sload\n      div\n      mul\n      dup4\n      mstore\n      swap2\n      0x20\n      add\n      swap2\n      jump(tag_164)\n    tag_165:\n      dup3\n      add\n      swap2\n      swap1\n      0x00\n      mstore\n      keccak256(0x00, 0x20)\n      swap1\n    tag_166:\n      dup2\n      sload\n      dup2\n      mstore\n      swap1\n      0x01\n      add\n      swap1\n      0x20\n      add\n      dup1\n      dup4\n      gt\n      tag_166\n      jumpi\n      dup3\n      swap1\n      sub\n      0x1f\n      and\n      dup3\n      add\n      swap2\n    tag_164:\n      pop\n      pop\n      pop\n      pop\n      pop\n      swap1\n      pop\n        /* \"LandRegistration.sol\":1813:1944  function getSuperAdminPassword() public view restrictToSuperAdmin returns(string memory) {... */\n      swap1\n      jump\t// out\n        /* \"LandRegistration.sol\":886:926  mapping (address => Admin) public admins */\n    tag_67:\n      mstore(0x20, 0x02)\n      dup1\n      0x00\n      mstore\n      keccak256(0x00, 0x40)\n      0x00\n      swap2\n      pop\n      swap1\n      pop\n      dup1\n      0x00\n      add\n      dup1\n      sload\n      tag_167\n      swap1\n      tag_135\n      jump\t// in\n    tag_167:\n      dup1\n      0x1f\n      add\n      0x20\n      dup1\n      swap2\n      div\n      mul\n      0x20\n      add\n      mload(0x40)\n      swap1\n      dup2\n      add\n      0x40\n      mstore\n      dup1\n      swap3\n      swap2\n      swap1\n      dup2\n      dup2\n      mstore\n      0x20\n      add\n      dup3\n      dup1\n      sload\n      tag_168\n      swap1\n      tag_135\n      jump\t// in\n    tag_168:\n      dup1\n      iszero\n      tag_169\n      jumpi\n      dup1\n      0x1f\n      lt\n      tag_170\n      jumpi\n      0x0100\n      dup1\n      dup4\n      sload\n      div\n      mul\n      dup4\n      mstore\n      swap2\n      0x20\n      add\n      swap2\n      jump(tag_169)\n    tag_170:\n      dup3\n      add\n      swap2\n      swap1\n      0x00\n      mstore\n      keccak256(0x00, 0x20)\n      swap1\n    tag_171:\n      dup2\n      sload\n      dup2\n      mstore\n      swap1\n      0x01\n      add\n      swap1\n      0x20\n      add\n      dup1\n      dup4\n      gt\n      tag_171\n      jumpi\n      dup3\n      swap1\n      sub\n      0x1f\n      and\n      dup3\n      add\n      swap2\n    tag_169:\n      pop\n      pop\n      pop\n      pop\n      pop\n      swap1\n      dup1\n      0x01\n      add\n      dup1\n      sload\n      tag_172\n      swap1\n      tag_135\n      jump\t// in\n    tag_172:\n      dup1\n      0x1f\n      add\n      0x20\n      dup1\n      swap2\n      div\n      mul\n      0x20\n      add\n      mload(0x40)\n      swap1\n      dup2\n      add\n      0x40\n      mstore\n      dup1\n      swap3\n      swap2\n      swap1\n      dup2\n      dup2\n      mstore\n      0x20\n      add\n      dup3\n      dup1\n      sload\n      tag_173\n      swap1\n      tag_135\n      jump\t// in\n    tag_173:\n      dup1\n      iszero\n      tag_174\n      jumpi\n      dup1\n      0x1f\n      lt\n      tag_175\n      jumpi\n      0x0100\n      dup1\n      dup4\n      sload\n      div\n      mul\n      dup4\n      mstore\n      swap2\n      0x20\n      add\n      swap2\n      jump(tag_174)\n    tag_175:\n      dup3\n      add\n      swap2\n      swap1\n      0x00\n      mstore\n      keccak256(0x00, 0x20)\n      swap1\n    tag_176:\n      dup2\n      sload\n      dup2\n      mstore\n      swap1\n      0x01\n      add\n      swap1\n      0x20\n      add\n      dup1\n      dup4\n      gt\n      tag_176\n      jumpi\n      dup3\n      swap1\n      sub\n      0x1f\n      and\n      dup3\n      add\n      swap2\n    tag_174:\n      pop\n      pop\n      pop\n      pop\n      pop\n      swap1\n      dup1\n      0x02\n      add\n      0x00\n      swap1\n      sload\n      swap1\n      0x0100\n      exp\n      swap1\n      div\n      0xffffffffffffffffffffffffffffffffffffffff\n      and\n      swap1\n      dup1\n      0x03\n      add\n      dup1\n      sload\n      tag_177\n      swap1\n      tag_135\n      jump\t// in\n    tag_177:\n      dup1\n      0x1f\n      add\n      0x20\n      dup1\n      swap2\n      div\n      mul\n      0x20\n      add\n      mload(0x40)\n      swap1\n      dup2\n      add\n      0x40\n      mstore\n      dup1\n      swap3\n      swap2\n      swap1\n      dup2\n      dup2\n      mstore\n      0x20\n      add\n      dup3\n      dup1\n      sload\n      tag_178\n      swap1\n      tag_135\n      jump\t// in\n    tag_178:\n      dup1\n      iszero\n      tag_179\n      jumpi\n      dup1\n      0x1f\n      lt\n      tag_180\n      jumpi\n      0x0100\n      dup1\n      dup4\n      sload\n      div\n      mul\n      dup4\n      mstore\n      swap2\n      0x20\n      add\n      swap2\n      jump(tag_179)\n    tag_180:\n      dup3\n      add\n      swap2\n      swap1\n      0x00\n      mstore\n      keccak256(0x00, 0x20)\n      swap1\n    tag_181:\n      dup2\n      sload\n      dup2\n      mstore\n      swap1\n      0x01\n      add\n      swap1\n      0x20\n      add\n      dup1\n      dup4\n      gt\n      tag_181\n      jumpi\n      dup3\n      swap1\n      sub\n      0x1f\n      and\n      dup3\n      add\n      swap2\n    tag_179:\n      pop\n      pop\n      pop\n      pop\n      pop\n      swap1\n      dup1\n      0x04\n      add\n      0x00\n      swap1\n      sload\n      swap1\n      0x0100\n      exp\n      swap1\n      div\n      0xff\n      and\n      swap1\n      pop\n      dup6\n      jump\t// out\n        /* \"LandRegistration.sol\":2959:3086  function getAdminAddresses() public view restrictToSuperAdmin returns(address [] memory) {... */\n    tag_71:\n        /* \"LandRegistration.sol\":3029:3046  address [] memory */\n      0x60\n        /* \"LandRegistration.sol\":1682:1699  superAdminAddress */\n      0x00\n      dup1\n      sload\n      swap1\n      0x0100\n      exp\n      swap1\n      div\n      0xffffffffffffffffffffffffffffffffffffffff\n      and\n        /* \"LandRegistration.sol\":1668:1699  msg.sender == superAdminAddress */\n      0xffffffffffffffffffffffffffffffffffffffff\n      and\n        /* \"LandRegistration.sol\":1668:1678  msg.sender */\n      caller\n        /* \"LandRegistration.sol\":1668:1699  msg.sender == superAdminAddress */\n      0xffffffffffffffffffffffffffffffffffffffff\n      and\n      eq\n        /* \"LandRegistration.sol\":1660:1700  require(msg.sender == superAdminAddress) */\n      tag_183\n      jumpi\n      0x00\n      dup1\n      revert\n    tag_183:\n        /* \"LandRegistration.sol\":3065:3079  adminsAdresses */\n      0x05\n        /* \"LandRegistration.sol\":3058:3079  return adminsAdresses */\n      dup1\n      sload\n      dup1\n      0x20\n      mul\n      0x20\n      add\n      mload(0x40)\n      swap1\n      dup2\n      add\n      0x40\n      mstore\n      dup1\n      swap3\n      swap2\n      swap1\n      dup2\n      dup2\n      mstore\n      0x20\n      add\n      dup3\n      dup1\n      sload\n      dup1\n      iszero\n      tag_185\n      jumpi\n      0x20\n      mul\n      dup3\n      add\n      swap2\n      swap1\n      0x00\n      mstore\n      keccak256(0x00, 0x20)\n      swap1\n    tag_186:\n      dup2\n      0x00\n      swap1\n      sload\n      swap1\n      0x0100\n      exp\n      swap1\n      div\n      0xffffffffffffffffffffffffffffffffffffffff\n      and\n      0xffffffffffffffffffffffffffffffffffffffff\n      and\n      dup2\n      mstore\n      0x20\n      add\n      swap1\n      0x01\n      add\n      swap1\n      dup1\n      dup4\n      gt\n      tag_186\n      jumpi\n    tag_185:\n      pop\n      pop\n      pop\n      pop\n      pop\n      swap1\n      pop\n        /* \"LandRegistration.sol\":2959:3086  function getAdminAddresses() public view restrictToSuperAdmin returns(address [] memory) {... */\n      swap1\n      jump\t// out\n        /* \"LandRegistration.sol\":2543:2682  function getAdmin(address adminAddress) public view restrictToSuperAdmin returns(Admin memory) {... */\n    tag_76:\n        /* \"LandRegistration.sol\":2624:2636  Admin memory */\n      tag_187\n      tag_188\n      jump\t// in\n    tag_187:\n        /* \"LandRegistration.sol\":1682:1699  superAdminAddress */\n      0x00\n      dup1\n      sload\n      swap1\n      0x0100\n      exp\n      swap1\n      div\n      0xffffffffffffffffffffffffffffffffffffffff\n      and\n        /* \"LandRegistration.sol\":1668:1699  msg.sender == superAdminAddress */\n      0xffffffffffffffffffffffffffffffffffffffff\n      and\n        /* \"LandRegistration.sol\":1668:1678  msg.sender */\n      caller\n        /* \"LandRegistration.sol\":1668:1699  msg.sender == superAdminAddress */\n      0xffffffffffffffffffffffffffffffffffffffff\n      and\n      eq\n        /* \"LandRegistration.sol\":1660:1700  require(msg.sender == superAdminAddress) */\n      tag_190\n      jumpi\n      0x00\n      dup1\n      revert\n    tag_190:\n        /* \"LandRegistration.sol\":2655:2661  admins */\n      0x02\n        /* \"LandRegistration.sol\":2655:2675  admins[adminAddress] */\n      0x00\n        /* \"LandRegistration.sol\":2662:2674  adminAddress */\n      dup4\n        /* \"LandRegistration.sol\":2655:2675  admins[adminAddress] */\n      0xffffffffffffffffffffffffffffffffffffffff\n      and\n      0xffffffffffffffffffffffffffffffffffffffff\n      and\n      dup2\n      mstore\n      0x20\n      add\n      swap1\n      dup2\n      mstore\n      0x20\n      add\n      0x00\n      keccak256\n        /* \"LandRegistration.sol\":2648:2675  return admins[adminAddress] */\n      mload(0x40)\n      dup1\n      0xa0\n      add\n      0x40\n      mstore\n      swap1\n      dup2\n      0x00\n      dup3\n      add\n      dup1\n      sload\n      tag_192\n      swap1\n      tag_135\n      jump\t// in\n    tag_192:\n      dup1\n      0x1f\n      add\n      0x20\n      dup1\n      swap2\n      div\n      mul\n      0x20\n      add\n      mload(0x40)\n      swap1\n      dup2\n      add\n      0x40\n      mstore\n      dup1\n      swap3\n      swap2\n      swap1\n      dup2\n      dup2\n      mstore\n      0x20\n      add\n      dup3\n      dup1\n      sload\n      tag_193\n      swap1\n      tag_135\n      jump\t// in\n    tag_193:\n      dup1\n      iszero\n      tag_194\n      jumpi\n      dup1\n      0x1f\n      lt\n      tag_195\n      jumpi\n      0x0100\n      dup1\n      dup4\n      sload\n      div\n      mul\n      dup4\n      mstore\n      swap2\n      0x20\n      add\n      swap2\n      jump(tag_194)\n    tag_195:\n      dup3\n      add\n      swap2\n      swap1\n      0x00\n      mstore\n      keccak256(0x00, 0x20)\n      swap1\n    tag_196:\n      dup2\n      sload\n      dup2\n      mstore\n      swap1\n      0x01\n      add\n      swap1\n      0x20\n      add\n      dup1\n      dup4\n      gt\n      tag_196\n      jumpi\n      dup3\n      swap1\n      sub\n      0x1f\n      and\n      dup3\n      add\n      swap2\n    tag_194:\n      pop\n      pop\n      pop\n      pop\n      pop\n      dup2\n      mstore\n      0x20\n      add\n      0x01\n      dup3\n      add\n      dup1\n      sload\n      tag_197\n      swap1\n      tag_135\n      jump\t// in\n    tag_197:\n      dup1\n      0x1f\n      add\n      0x20\n      dup1\n      swap2\n      div\n      mul\n      0x20\n      add\n      mload(0x40)\n      swap1\n      dup2\n      add\n      0x40\n      mstore\n      dup1\n      swap3\n      swap2\n      swap1\n      dup2\n      dup2\n      mstore\n      0x20\n      add\n      dup3\n      dup1\n      sload\n      tag_198\n      swap1\n      tag_135\n      jump\t// in\n    tag_198:\n      dup1\n      iszero\n      tag_199\n      jumpi\n      dup1\n      0x1f\n      lt\n      tag_200\n      jumpi\n      0x0100\n      dup1\n      dup4\n      sload\n      div\n      mul\n      dup4\n      mstore\n      swap2\n      0x20\n      add\n      swap2\n      jump(tag_199)\n    tag_200:\n      dup3\n      add\n      swap2\n      swap1\n      0x00\n      mstore\n      keccak256(0x00, 0x20)\n      swap1\n    tag_201:\n      dup2\n      sload\n      dup2\n      mstore\n      swap1\n      0x01\n      add\n      swap1\n      0x20\n      add\n      dup1\n      dup4\n      gt\n      tag_201\n      jumpi\n      dup3\n      swap1\n      sub\n      0x1f\n      and\n      dup3\n      add\n      swap2\n    tag_199:\n      pop\n      pop\n      pop\n      pop\n      pop\n      dup2\n      mstore\n      0x20\n      add\n      0x02\n      dup3\n      add\n      0x00\n      swap1\n      sload\n      swap1\n      0x0100\n      exp\n      swap1\n      div\n      0xffffffffffffffffffffffffffffffffffffffff\n      and\n      0xffffffffffffffffffffffffffffffffffffffff\n      and\n      0xffffffffffffffffffffffffffffffffffffffff\n      and\n      dup2\n      mstore\n      0x20\n      add\n      0x03\n      dup3\n      add\n      dup1\n      sload\n      tag_202\n      swap1\n      tag_135\n      jump\t// in\n    tag_202:\n      dup1\n      0x1f\n      add\n      0x20\n      dup1\n      swap2\n      div\n      mul\n      0x20\n      add\n      mload(0x40)\n      swap1\n      dup2\n      add\n      0x40\n      mstore\n      dup1\n      swap3\n      swap2\n      swap1\n      dup2\n      dup2\n      mstore\n      0x20\n      add\n      dup3\n      dup1\n      sload\n      tag_203\n      swap1\n      tag_135\n      jump\t// in\n    tag_203:\n      dup1\n      iszero\n      tag_204\n      jumpi\n      dup1\n      0x1f\n      lt\n      tag_205\n      jumpi\n      0x0100\n      dup1\n      dup4\n      sload\n      div\n      mul\n      dup4\n      mstore\n      swap2\n      0x20\n      add\n      swap2\n      jump(tag_204)\n    tag_205:\n      dup3\n      add\n      swap2\n      swap1\n      0x00\n      mstore\n      keccak256(0x00, 0x20)\n      swap1\n    tag_206:\n      dup2\n      sload\n      dup2\n      mstore\n      swap1\n      0x01\n      add\n      swap1\n      0x20\n      add\n      dup1\n      dup4\n      gt\n      tag_206\n      jumpi\n      dup3\n      swap1\n      sub\n      0x1f\n      and\n      dup3\n      add\n      swap2\n    tag_204:\n      pop\n      pop\n      pop\n      pop\n      pop\n      dup2\n      mstore\n      0x20\n      add\n      0x04\n      dup3\n      add\n      0x00\n      swap1\n      sload\n      swap1\n      0x0100\n      exp\n      swap1\n      div\n      0xff\n      and\n      iszero\n      iszero\n      iszero\n      iszero\n      dup2\n      mstore\n      pop\n      pop\n      swap1\n      pop\n        /* \"LandRegistration.sol\":2543:2682  function getAdmin(address adminAddress) public view restrictToSuperAdmin returns(Admin memory) {... */\n      swap2\n      swap1\n      pop\n      jump\t// out\n        /* \"LandRegistration.sol\":1201:1244  mapping (address => bool) public landOwners */\n    tag_81:\n      mstore(0x20, 0x0a)\n      dup1\n      0x00\n      mstore\n      keccak256(0x00, 0x40)\n      0x00\n      swap2\n      pop\n      sload\n      swap1\n      0x0100\n      exp\n      swap1\n      div\n      0xff\n      and\n      dup2\n      jump\t// out\n        /* \"LandRegistration.sol\":3432:3523  function loginAdmin() public view restrictToAdmin returns(bool){... */\n    tag_85:\n        /* \"LandRegistration.sol\":3490:3494  bool */\n      0x00\n        /* \"LandRegistration.sol\":1767:1776  addresses */\n      0x03\n        /* \"LandRegistration.sol\":1767:1788  addresses[msg.sender] */\n      0x00\n        /* \"LandRegistration.sol\":1777:1787  msg.sender */\n      caller\n        /* \"LandRegistration.sol\":1767:1788  addresses[msg.sender] */\n      0xffffffffffffffffffffffffffffffffffffffff\n      and\n      0xffffffffffffffffffffffffffffffffffffffff\n      and\n      dup2\n      mstore\n      0x20\n      add\n      swap1\n      dup2\n      mstore\n      0x20\n      add\n      0x00\n      keccak256\n      0x00\n      swap1\n      sload\n      swap1\n      0x0100\n      exp\n      swap1\n      div\n      0xff\n      and\n        /* \"LandRegistration.sol\":1759:1789  require(addresses[msg.sender]) */\n      tag_208\n      jumpi\n      0x00\n      dup1\n      revert\n    tag_208:\n        /* \"LandRegistration.sol\":3512:3516  true */\n      0x01\n        /* \"LandRegistration.sol\":3505:3516  return true */\n      swap1\n      pop\n        /* \"LandRegistration.sol\":3432:3523  function loginAdmin() public view restrictToAdmin returns(bool){... */\n      swap1\n      jump\t// out\n        /* \"LandRegistration.sol\":3645:4621  function registerLand(string memory _location, string memory _surveryNumber, address _ownerAddress, string memory _marketValue, address _adminAddress, string memory _landId) public restrictToAdmin {... */\n    tag_90:\n        /* \"LandRegistration.sol\":1767:1776  addresses */\n      0x03\n        /* \"LandRegistration.sol\":1767:1788  addresses[msg.sender] */\n      0x00\n        /* \"LandRegistration.sol\":1777:1787  msg.sender */\n      caller\n        /* \"LandRegistration.sol\":1767:1788  addresses[msg.sender] */\n      0xffffffffffffffffffffffffffffffffffffffff\n      and\n      0xffffffffffffffffffffffffffffffffffffffff\n      and\n      dup2\n      mstore\n      0x20\n      add\n      swap1\n      dup2\n      mstore\n      0x20\n      add\n      0x00\n      keccak256\n      0x00\n      swap1\n      sload\n      swap1\n      0x0100\n      exp\n      swap1\n      div\n      0xff\n      and\n        /* \"LandRegistration.sol\":1759:1789  require(addresses[msg.sender]) */\n      tag_211\n      jumpi\n      0x00\n      dup1\n      revert\n    tag_211:\n        /* \"LandRegistration.sol\":3861:3875  landIdsMapping */\n      0x07\n        /* \"LandRegistration.sol\":3876:3883  _landId */\n      dup2\n        /* \"LandRegistration.sol\":3861:3884  landIdsMapping[_landId] */\n      mload(0x40)\n      tag_213\n      swap2\n      swap1\n      tag_214\n      jump\t// in\n    tag_213:\n      swap1\n      dup2\n      mstore\n      0x20\n      add\n      mload(0x40)\n      dup1\n      swap2\n      sub\n      swap1\n      keccak256\n      0x00\n      swap1\n      sload\n      swap1\n      0x0100\n      exp\n      swap1\n      div\n      0xff\n      and\n        /* \"LandRegistration.sol\":3860:3884  !landIdsMapping[_landId] */\n      iszero\n        /* \"LandRegistration.sol\":3852:3885  require(!landIdsMapping[_landId]) */\n      tag_215\n      jumpi\n      0x00\n      dup1\n      revert\n    tag_215:\n        /* \"LandRegistration.sol\":3970:3974  true */\n      0x01\n        /* \"LandRegistration.sol\":3944:3958  landIdsMapping */\n      0x07\n        /* \"LandRegistration.sol\":3959:3966  _landId */\n      dup3\n        /* \"LandRegistration.sol\":3944:3967  landIdsMapping[_landId] */\n      mload(0x40)\n      tag_216\n      swap2\n      swap1\n      tag_214\n      jump\t// in\n    tag_216:\n      swap1\n      dup2\n      mstore\n      0x20\n      add\n      mload(0x40)\n      dup1\n      swap2\n      sub\n      swap1\n      keccak256\n      0x00\n        /* \"LandRegistration.sol\":3944:3974  landIdsMapping[_landId] = true */\n      0x0100\n      exp\n      dup2\n      sload\n      dup2\n      0xff\n      mul\n      not\n      and\n      swap1\n      dup4\n      iszero\n      iszero\n      mul\n      or\n      swap1\n      sstore\n      pop\n        /* \"LandRegistration.sol\":4029:4039  landIdsArr */\n      0x06\n        /* \"LandRegistration.sol\":4045:4052  _landId */\n      dup2\n        /* \"LandRegistration.sol\":4029:4053  landIdsArr.push(_landId) */\n      swap1\n      dup1\n      0x01\n      dup2\n      sload\n      add\n      dup1\n      dup3\n      sstore\n      dup1\n      swap2\n      pop\n      pop\n      0x01\n      swap1\n      sub\n      swap1\n      0x00\n      mstore\n      keccak256(0x00, 0x20)\n      add\n      0x00\n      swap1\n      swap2\n      swap1\n      swap2\n      swap1\n      swap2\n      pop\n      swap1\n      dup1\n      mload\n      swap1\n      0x20\n      add\n      swap1\n      tag_218\n      swap3\n      swap2\n      swap1\n      tag_125\n      jump\t// in\n    tag_218:\n      pop\n        /* \"LandRegistration.sol\":4100:4120  Land storage newLand */\n      0x00\n        /* \"LandRegistration.sol\":4123:4128  lands */\n      0x08\n        /* \"LandRegistration.sol\":4129:4136  _landId */\n      dup3\n        /* \"LandRegistration.sol\":4123:4137  lands[_landId] */\n      mload(0x40)\n      tag_219\n      swap2\n      swap1\n      tag_214\n      jump\t// in\n    tag_219:\n      swap1\n      dup2\n      mstore\n      0x20\n      add\n      mload(0x40)\n      dup1\n      swap2\n      sub\n      swap1\n      keccak256\n        /* \"LandRegistration.sol\":4100:4137  Land storage newLand = lands[_landId] */\n      swap1\n      pop\n        /* \"LandRegistration.sol\":4164:4170  admins */\n      0x02\n        /* \"LandRegistration.sol\":4164:4185  admins[_adminAddress] */\n      0x00\n        /* \"LandRegistration.sol\":4171:4184  _adminAddress */\n      dup5\n        /* \"LandRegistration.sol\":4164:4185  admins[_adminAddress] */\n      0xffffffffffffffffffffffffffffffffffffffff\n      and\n      0xffffffffffffffffffffffffffffffffffffffff\n      and\n      dup2\n      mstore\n      0x20\n      add\n      swap1\n      dup2\n      mstore\n      0x20\n      add\n      0x00\n      keccak256\n        /* \"LandRegistration.sol\":4164:4192  admins[_adminAddress].county */\n      0x03\n      add\n        /* \"LandRegistration.sol\":4147:4154  newLand */\n      dup2\n        /* \"LandRegistration.sol\":4147:4161  newLand.county */\n      0x00\n      add\n        /* \"LandRegistration.sol\":4147:4192  newLand.county = admins[_adminAddress].county */\n      swap1\n      dup1\n      sload\n      tag_220\n      swap1\n      tag_135\n      jump\t// in\n    tag_220:\n      tag_221\n      swap3\n      swap2\n      swap1\n      tag_222\n      jump\t// in\n    tag_221:\n      pop\n        /* \"LandRegistration.sol\":4221:4230  _location */\n      dup7\n        /* \"LandRegistration.sol\":4202:4209  newLand */\n      dup2\n        /* \"LandRegistration.sol\":4202:4218  newLand.location */\n      0x01\n      add\n        /* \"LandRegistration.sol\":4202:4230  newLand.location = _location */\n      swap1\n      dup1\n      mload\n      swap1\n      0x20\n      add\n      swap1\n      tag_223\n      swap3\n      swap2\n      swap1\n      tag_125\n      jump\t// in\n    tag_223:\n      pop\n        /* \"LandRegistration.sol\":4263:4277  _surveryNumber */\n      dup6\n        /* \"LandRegistration.sol\":4240:4247  newLand */\n      dup2\n        /* \"LandRegistration.sol\":4240:4260  newLand.surveyNumber */\n      0x02\n      add\n        /* \"LandRegistration.sol\":4240:4277  newLand.surveyNumber = _surveryNumber */\n      swap1\n      dup1\n      mload\n      swap1\n      0x20\n      add\n      swap1\n      tag_224\n      swap3\n      swap2\n      swap1\n      tag_125\n      jump\t// in\n    tag_224:\n      pop\n        /* \"LandRegistration.sol\":4310:4323  _ownerAddress */\n      dup5\n        /* \"LandRegistration.sol\":4287:4294  newLand */\n      dup2\n        /* \"LandRegistration.sol\":4287:4307  newLand.ownerAddress */\n      0x03\n      add\n      0x00\n        /* \"LandRegistration.sol\":4287:4323  newLand.ownerAddress = _ownerAddress */\n      0x0100\n      exp\n      dup2\n      sload\n      dup2\n      0xffffffffffffffffffffffffffffffffffffffff\n      mul\n      not\n      and\n      swap1\n      dup4\n      0xffffffffffffffffffffffffffffffffffffffff\n      and\n      mul\n      or\n      swap1\n      sstore\n      pop\n        /* \"LandRegistration.sol\":4355:4367  _marketValue */\n      dup4\n        /* \"LandRegistration.sol\":4333:4340  newLand */\n      dup2\n        /* \"LandRegistration.sol\":4333:4352  newLand.marketValue */\n      0x04\n      add\n        /* \"LandRegistration.sol\":4333:4367  newLand.marketValue = _marketValue */\n      swap1\n      dup1\n      mload\n      swap1\n      0x20\n      add\n      swap1\n      tag_225\n      swap3\n      swap2\n      swap1\n      tag_125\n      jump\t// in\n    tag_225:\n      pop\n        /* \"LandRegistration.sol\":4400:4405  false */\n      0x00\n        /* \"LandRegistration.sol\":4377:4384  newLand */\n      dup2\n        /* \"LandRegistration.sol\":4377:4397  newLand.availability */\n      0x05\n      add\n      0x00\n        /* \"LandRegistration.sol\":4377:4405  newLand.availability = false */\n      0x0100\n      exp\n      dup2\n      sload\n      dup2\n      0xff\n      mul\n      not\n      and\n      swap1\n      dup4\n      iszero\n      iszero\n      mul\n      or\n      swap1\n      sstore\n      pop\n        /* \"LandRegistration.sol\":4442:4447  false */\n      0x00\n        /* \"LandRegistration.sol\":4415:4422  newLand */\n      dup2\n        /* \"LandRegistration.sol\":4415:4439  newLand.requestedForSale */\n      0x05\n      add\n      0x01\n        /* \"LandRegistration.sol\":4415:4447  newLand.requestedForSale = false */\n      0x0100\n      exp\n      dup2\n      sload\n      dup2\n      0xff\n      mul\n      not\n      and\n      swap1\n      dup4\n      iszero\n      iszero\n      mul\n      or\n      swap1\n      sstore\n      pop\n        /* \"LandRegistration.sol\":4494:4495  0 */\n      0x00\n        /* \"LandRegistration.sol\":4457:4464  newLand */\n      dup2\n        /* \"LandRegistration.sol\":4457:4483  newLand.requestedByAddress */\n      0x05\n      add\n      0x02\n        /* \"LandRegistration.sol\":4457:4496  newLand.requestedByAddress = address(0) */\n      0x0100\n      exp\n      dup2\n      sload\n      dup2\n      0xffffffffffffffffffffffffffffffffffffffff\n      mul\n      not\n      and\n      swap1\n      dup4\n      0xffffffffffffffffffffffffffffffffffffffff\n      and\n      mul\n      or\n      swap1\n      sstore\n      pop\n        /* \"LandRegistration.sol\":4523:4530  _landId */\n      dup2\n        /* \"LandRegistration.sol\":4506:4513  newLand */\n      dup2\n        /* \"LandRegistration.sol\":4506:4520  newLand.landId */\n      0x06\n      add\n        /* \"LandRegistration.sol\":4506:4530  newLand.landId = _landId */\n      swap1\n      dup1\n      mload\n      swap1\n      0x20\n      add\n      swap1\n      tag_226\n      swap3\n      swap2\n      swap1\n      tag_125\n      jump\t// in\n    tag_226:\n      pop\n        /* \"LandRegistration.sol\":4563:4576  _adminAddress */\n      dup3\n        /* \"LandRegistration.sol\":4540:4547  newLand */\n      dup2\n        /* \"LandRegistration.sol\":4540:4560  newLand.adminAddress */\n      0x07\n      add\n      0x00\n        /* \"LandRegistration.sol\":4540:4576  newLand.adminAddress = _adminAddress */\n      0x0100\n      exp\n      dup2\n      sload\n      dup2\n      0xffffffffffffffffffffffffffffffffffffffff\n      mul\n      not\n      and\n      swap1\n      dup4\n      0xffffffffffffffffffffffffffffffffffffffff\n      and\n      mul\n      or\n      swap1\n      sstore\n      pop\n        /* \"LandRegistration.sol\":4613:4614  1 */\n      0x01\n        /* \"LandRegistration.sol\":4600:4610  landsCount */\n      sload(0x09)\n        /* \"LandRegistration.sol\":4600:4614  landsCount + 1 */\n      tag_227\n      swap2\n      swap1\n      tag_228\n      jump\t// in\n    tag_227:\n        /* \"LandRegistration.sol\":4587:4597  landsCount */\n      0x09\n        /* \"LandRegistration.sol\":4587:4614  landsCount = landsCount + 1 */\n      dup2\n      swap1\n      sstore\n      pop\n        /* \"LandRegistration.sol\":3842:4621  {... */\n      pop\n        /* \"LandRegistration.sol\":3645:4621  function registerLand(string memory _location, string memory _surveryNumber, address _ownerAddress, string memory _marketValue, address _adminAddress, string memory _landId) public restrictToAdmin {... */\n      pop\n      pop\n      pop\n      pop\n      pop\n      pop\n      jump\t// out\n        /* \"LandRegistration.sol\":1127:1164  mapping (string => Land) public lands */\n    tag_94:\n      0x08\n      dup2\n      dup1\n      mload\n      0x20\n      dup2\n      add\n      dup3\n      add\n      dup1\n      mload\n      dup5\n      dup3\n      mstore\n      0x20\n      dup4\n      add\n      0x20\n      dup6\n      add\n      keccak256\n      dup2\n      dup4\n      mstore\n      dup1\n      swap6\n      pop\n      pop\n      pop\n      pop\n      pop\n      pop\n      0x00\n      swap2\n      pop\n      swap1\n      pop\n      dup1\n      0x00\n      add\n      dup1\n      sload\n      tag_229\n      swap1\n      tag_135\n      jump\t// in\n    tag_229:\n      dup1\n      0x1f\n      add\n      0x20\n      dup1\n      swap2\n      div\n      mul\n      0x20\n      add\n      mload(0x40)\n      swap1\n      dup2\n      add\n      0x40\n      mstore\n      dup1\n      swap3\n      swap2\n      swap1\n      dup2\n      dup2\n      mstore\n      0x20\n      add\n      dup3\n      dup1\n      sload\n      tag_230\n      swap1\n      tag_135\n      jump\t// in\n    tag_230:\n      dup1\n      iszero\n      tag_231\n      jumpi\n      dup1\n      0x1f\n      lt\n      tag_232\n      jumpi\n      0x0100\n      dup1\n      dup4\n      sload\n      div\n      mul\n      dup4\n      mstore\n      swap2\n      0x20\n      add\n      swap2\n      jump(tag_231)\n    tag_232:\n      dup3\n      add\n      swap2\n      swap1\n      0x00\n      mstore\n      keccak256(0x00, 0x20)\n      swap1\n    tag_233:\n      dup2\n      sload\n      dup2\n      mstore\n      swap1\n      0x01\n      add\n      swap1\n      0x20\n      add\n      dup1\n      dup4\n      gt\n      tag_233\n      jumpi\n      dup3\n      swap1\n      sub\n      0x1f\n      and\n      dup3\n      add\n      swap2\n    tag_231:\n      pop\n      pop\n      pop\n      pop\n      pop\n      swap1\n      dup1\n      0x01\n      add\n      dup1\n      sload\n      tag_234\n      swap1\n      tag_135\n      jump\t// in\n    tag_234:\n      dup1\n      0x1f\n      add\n      0x20\n      dup1\n      swap2\n      div\n      mul\n      0x20\n      add\n      mload(0x40)\n      swap1\n      dup2\n      add\n      0x40\n      mstore\n      dup1\n      swap3\n      swap2\n      swap1\n      dup2\n      dup2\n      mstore\n      0x20\n      add\n      dup3\n      dup1\n      sload\n      tag_235\n      swap1\n      tag_135\n      jump\t// in\n    tag_235:\n      dup1\n      iszero\n      tag_236\n      jumpi\n      dup1\n      0x1f\n      lt\n      tag_237\n      jumpi\n      0x0100\n      dup1\n      dup4\n      sload\n      div\n      mul\n      dup4\n      mstore\n      swap2\n      0x20\n      add\n      swap2\n      jump(tag_236)\n    tag_237:\n      dup3\n      add\n      swap2\n      swap1\n      0x00\n      mstore\n      keccak256(0x00, 0x20)\n      swap1\n    tag_238:\n      dup2\n      sload\n      dup2\n      mstore\n      swap1\n      0x01\n      add\n      swap1\n      0x20\n      add\n      dup1\n      dup4\n      gt\n      tag_238\n      jumpi\n      dup3\n      swap1\n      sub\n      0x1f\n      and\n      dup3\n      add\n      swap2\n    tag_236:\n      pop\n      pop\n      pop\n      pop\n      pop\n      swap1\n      dup1\n      0x02\n      add\n      dup1\n      sload\n      tag_239\n      swap1\n      tag_135\n      jump\t// in\n    tag_239:\n      dup1\n      0x1f\n      add\n      0x20\n      dup1\n      swap2\n      div\n      mul\n      0x20\n      add\n      mload(0x40)\n      swap1\n      dup2\n      add\n      0x40\n      mstore\n      dup1\n      swap3\n      swap2\n      swap1\n      dup2\n      dup2\n      mstore\n      0x20\n      add\n      dup3\n      dup1\n      sload\n      tag_240\n      swap1\n      tag_135\n      jump\t// in\n    tag_240:\n      dup1\n      iszero\n      tag_241\n      jumpi\n      dup1\n      0x1f\n      lt\n      tag_242\n      jumpi\n      0x0100\n      dup1\n      dup4\n      sload\n      div\n      mul\n      dup4\n      mstore\n      swap2\n      0x20\n      add\n      swap2\n      jump(tag_241)\n    tag_242:\n      dup3\n      add\n      swap2\n      swap1\n      0x00\n      mstore\n      keccak256(0x00, 0x20)\n      swap1\n    tag_243:\n      dup2\n      sload\n      dup2\n      mstore\n      swap1\n      0x01\n      add\n      swap1\n      0x20\n      add\n      dup1\n      dup4\n      gt\n      tag_243\n      jumpi\n      dup3\n      swap1\n      sub\n      0x1f\n      and\n      dup3\n      add\n      swap2\n    tag_241:\n      pop\n      pop\n      pop\n      pop\n      pop\n      swap1\n      dup1\n      0x03\n      add\n      0x00\n      swap1\n      sload\n      swap1\n      0x0100\n      exp\n      swap1\n      div\n      0xffffffffffffffffffffffffffffffffffffffff\n      and\n      swap1\n      dup1\n      0x04\n      add\n      dup1\n      sload\n      tag_244\n      swap1\n      tag_135\n      jump\t// in\n    tag_244:\n      dup1\n      0x1f\n      add\n      0x20\n      dup1\n      swap2\n      div\n      mul\n      0x20\n      add\n      mload(0x40)\n      swap1\n      dup2\n      add\n      0x40\n      mstore\n      dup1\n      swap3\n      swap2\n      swap1\n      dup2\n      dup2\n      mstore\n      0x20\n      add\n      dup3\n      dup1\n      sload\n      tag_245\n      swap1\n      tag_135\n      jump\t// in\n    tag_245:\n      dup1\n      iszero\n      tag_246\n      jumpi\n      dup1\n      0x1f\n      lt\n      tag_247\n      jumpi\n      0x0100\n      dup1\n      dup4\n      sload\n      div\n      mul\n      dup4\n      mstore\n      swap2\n      0x20\n      add\n      swap2\n      jump(tag_246)\n    tag_247:\n      dup3\n      add\n      swap2\n      swap1\n      0x00\n      mstore\n      keccak256(0x00, 0x20)\n      swap1\n    tag_248:\n      dup2\n      sload\n      dup2\n      mstore\n      swap1\n      0x01\n      add\n      swap1\n      0x20\n      add\n      dup1\n      dup4\n      gt\n      tag_248\n      jumpi\n      dup3\n      swap1\n      sub\n      0x1f\n      and\n      dup3\n      add\n      swap2\n    tag_246:\n      pop\n      pop\n      pop\n      pop\n      pop\n      swap1\n      dup1\n      0x05\n      add\n      0x00\n      swap1\n      sload\n      swap1\n      0x0100\n      exp\n      swap1\n      div\n      0xff\n      and\n      swap1\n      dup1\n      0x05\n      add\n      0x01\n      swap1\n      sload\n      swap1\n      0x0100\n      exp\n      swap1\n      div\n      0xff\n      and\n      swap1\n      dup1\n      0x05\n      add\n      0x02\n      swap1\n      sload\n      swap1\n      0x0100\n      exp\n      swap1\n      div\n      0xffffffffffffffffffffffffffffffffffffffff\n      and\n      swap1\n      dup1\n      0x06\n      add\n      dup1\n      sload\n      tag_249\n      swap1\n      tag_135\n      jump\t// in\n    tag_249:\n      dup1\n      0x1f\n      add\n      0x20\n      dup1\n      swap2\n      div\n      mul\n      0x20\n      add\n      mload(0x40)\n      swap1\n      dup2\n      add\n      0x40\n      mstore\n      dup1\n      swap3\n      swap2\n      swap1\n      dup2\n      dup2\n      mstore\n      0x20\n      add\n      dup3\n      dup1\n      sload\n      tag_250\n      swap1\n      tag_135\n      jump\t// in\n    tag_250:\n      dup1\n      iszero\n      tag_251\n      jumpi\n      dup1\n      0x1f\n      lt\n      tag_252\n      jumpi\n      0x0100\n      dup1\n      dup4\n      sload\n      div\n      mul\n      dup4\n      mstore\n      swap2\n      0x20\n      add\n      swap2\n      jump(tag_251)\n    tag_252:\n      dup3\n      add\n      swap2\n      swap1\n      0x00\n      mstore\n      keccak256(0x00, 0x20)\n      swap1\n    tag_253:\n      dup2\n      sload\n      dup2\n      mstore\n      swap1\n      0x01\n      add\n      swap1\n      0x20\n      add\n      dup1\n      dup4\n      gt\n      tag_253\n      jumpi\n      dup3\n      swap1\n      sub\n      0x1f\n      and\n      dup3\n      add\n      swap2\n    tag_251:\n      pop\n      pop\n      pop\n      pop\n      pop\n      swap1\n      dup1\n      0x07\n      add\n      0x00\n      swap1\n      sload\n      swap1\n      0x0100\n      exp\n      swap1\n      div\n      0xffffffffffffffffffffffffffffffffffffffff\n      and\n      swap1\n      pop\n      dup11\n      jump\t// out\n        /* \"LandRegistration.sol\":1250:1305  mapping (address => LandOwner) public landOwnersDetails */\n    tag_99:\n      mstore(0x20, 0x0b)\n      dup1\n      0x00\n      mstore\n      keccak256(0x00, 0x40)\n      0x00\n      swap2\n      pop\n      swap1\n      pop\n      dup1\n      0x00\n      add\n      dup1\n      sload\n      tag_254\n      swap1\n      tag_135\n      jump\t// in\n    tag_254:\n      dup1\n      0x1f\n      add\n      0x20\n      dup1\n      swap2\n      div\n      mul\n      0x20\n      add\n      mload(0x40)\n      swap1\n      dup2\n      add\n      0x40\n      mstore\n      dup1\n      swap3\n      swap2\n      swap1\n      dup2\n      dup2\n      mstore\n      0x20\n      add\n      dup3\n      dup1\n      sload\n      tag_255\n      swap1\n      tag_135\n      jump\t// in\n    tag_255:\n      dup1\n      iszero\n      tag_256\n      jumpi\n      dup1\n      0x1f\n      lt\n      tag_257\n      jumpi\n      0x0100\n      dup1\n      dup4\n      sload\n      div\n      mul\n      dup4\n      mstore\n      swap2\n      0x20\n      add\n      swap2\n      jump(tag_256)\n    tag_257:\n      dup3\n      add\n      swap2\n      swap1\n      0x00\n      mstore\n      keccak256(0x00, 0x20)\n      swap1\n    tag_258:\n      dup2\n      sload\n      dup2\n      mstore\n      swap1\n      0x01\n      add\n      swap1\n      0x20\n      add\n      dup1\n      dup4\n      gt\n      tag_258\n      jumpi\n      dup3\n      swap1\n      sub\n      0x1f\n      and\n      dup3\n      add\n      swap2\n    tag_256:\n      pop\n      pop\n      pop\n      pop\n      pop\n      swap1\n      dup1\n      0x01\n      add\n      dup1\n      sload\n      tag_259\n      swap1\n      tag_135\n      jump\t// in\n    tag_259:\n      dup1\n      0x1f\n      add\n      0x20\n      dup1\n      swap2\n      div\n      mul\n      0x20\n      add\n      mload(0x40)\n      swap1\n      dup2\n      add\n      0x40\n      mstore\n      dup1\n      swap3\n      swap2\n      swap1\n      dup2\n      dup2\n      mstore\n      0x20\n      add\n      dup3\n      dup1\n      sload\n      tag_260\n      swap1\n      tag_135\n      jump\t// in\n    tag_260:\n      dup1\n      iszero\n      tag_261\n      jumpi\n      dup1\n      0x1f\n      lt\n      tag_262\n      jumpi\n      0x0100\n      dup1\n      dup4\n      sload\n      div\n      mul\n      dup4\n      mstore\n      swap2\n      0x20\n      add\n      swap2\n      jump(tag_261)\n    tag_262:\n      dup3\n      add\n      swap2\n      swap1\n      0x00\n      mstore\n      keccak256(0x00, 0x20)\n      swap1\n    tag_263:\n      dup2\n      sload\n      dup2\n      mstore\n      swap1\n      0x01\n      add\n      swap1\n      0x20\n      add\n      dup1\n      dup4\n      gt\n      tag_263\n      jumpi\n      dup3\n      swap1\n      sub\n      0x1f\n      and\n      dup3\n      add\n      swap2\n    tag_261:\n      pop\n      pop\n      pop\n      pop\n      pop\n      swap1\n      dup1\n      0x02\n      add\n      dup1\n      sload\n      tag_264\n      swap1\n      tag_135\n      jump\t// in\n    tag_264:\n      dup1\n      0x1f\n      add\n      0x20\n      dup1\n      swap2\n      div\n      mul\n      0x20\n      add\n      mload(0x40)\n      swap1\n      dup2\n      add\n      0x40\n      mstore\n      dup1\n      swap3\n      swap2\n      swap1\n      dup2\n      dup2\n      mstore\n      0x20\n      add\n      dup3\n      dup1\n      sload\n      tag_265\n      swap1\n      tag_135\n      jump\t// in\n    tag_265:\n      dup1\n      iszero\n      tag_266\n      jumpi\n      dup1\n      0x1f\n      lt\n      tag_267\n      jumpi\n      0x0100\n      dup1\n      dup4\n      sload\n      div\n      mul\n      dup4\n      mstore\n      swap2\n      0x20\n      add\n      swap2\n      jump(tag_266)\n    tag_267:\n      dup3\n      add\n      swap2\n      swap1\n      0x00\n      mstore\n      keccak256(0x00, 0x20)\n      swap1\n    tag_268:\n      dup2\n      sload\n      dup2\n      mstore\n      swap1\n      0x01\n      add\n      swap1\n      0x20\n      add\n      dup1\n      dup4\n      gt\n      tag_268\n      jumpi\n      dup3\n      swap1\n      sub\n      0x1f\n      and\n      dup3\n      add\n      swap2\n    tag_266:\n      pop\n      pop\n      pop\n      pop\n      pop\n      swap1\n      dup1\n      0x03\n      add\n      dup1\n      sload\n      tag_269\n      swap1\n      tag_135\n      jump\t// in\n    tag_269:\n      dup1\n      0x1f\n      add\n      0x20\n      dup1\n      swap2\n      div\n      mul\n      0x20\n      add\n      mload(0x40)\n      swap1\n      dup2\n      add\n      0x40\n      mstore\n      dup1\n      swap3\n      swap2\n      swap1\n      dup2\n      dup2\n      mstore\n      0x20\n      add\n      dup3\n      dup1\n      sload\n      tag_270\n      swap1\n      tag_135\n      jump\t// in\n    tag_270:\n      dup1\n      iszero\n      tag_271\n      jumpi\n      dup1\n      0x1f\n      lt\n      tag_272\n      jumpi\n      0x0100\n      dup1\n      dup4\n      sload\n      div\n      mul\n      dup4\n      mstore\n      swap2\n      0x20\n      add\n      swap2\n      jump(tag_271)\n    tag_272:\n      dup3\n      add\n      swap2\n      swap1\n      0x00\n      mstore\n      keccak256(0x00, 0x20)\n      swap1\n    tag_273:\n      dup2\n      sload\n      dup2\n      mstore\n      swap1\n      0x01\n      add\n      swap1\n      0x20\n      add\n      dup1\n      dup4\n      gt\n      tag_273\n      jumpi\n      dup3\n      swap1\n      sub\n      0x1f\n      and\n      dup3\n      add\n      swap2\n    tag_271:\n      pop\n      pop\n      pop\n      pop\n      pop\n      swap1\n      dup1\n      0x04\n      add\n      dup1\n      sload\n      tag_274\n      swap1\n      tag_135\n      jump\t// in\n    tag_274:\n      dup1\n      0x1f\n      add\n      0x20\n      dup1\n      swap2\n      div\n      mul\n      0x20\n      add\n      mload(0x40)\n      swap1\n      dup2\n      add\n      0x40\n      mstore\n      dup1\n      swap3\n      swap2\n      swap1\n      dup2\n      dup2\n      mstore\n      0x20\n      add\n      dup3\n      dup1\n      sload\n      tag_275\n      swap1\n      tag_135\n      jump\t// in\n    tag_275:\n      dup1\n      iszero\n      tag_276\n      jumpi\n      dup1\n      0x1f\n      lt\n      tag_277\n      jumpi\n      0x0100\n      dup1\n      dup4\n      sload\n      div\n      mul\n      dup4\n      mstore\n      swap2\n      0x20\n      add\n      swap2\n      jump(tag_276)\n    tag_277:\n      dup3\n      add\n      swap2\n      swap1\n      0x00\n      mstore\n      keccak256(0x00, 0x20)\n      swap1\n    tag_278:\n      dup2\n      sload\n      dup2\n      mstore\n      swap1\n      0x01\n      add\n      swap1\n      0x20\n      add\n      dup1\n      dup4\n      gt\n      tag_278\n      jumpi\n      dup3\n      swap1\n      sub\n      0x1f\n      and\n      dup3\n      add\n      swap2\n    tag_276:\n      pop\n      pop\n      pop\n      pop\n      pop\n      swap1\n      dup1\n      0x05\n      add\n      dup1\n      sload\n      tag_279\n      swap1\n      tag_135\n      jump\t// in\n    tag_279:\n      dup1\n      0x1f\n      add\n      0x20\n      dup1\n      swap2\n      div\n      mul\n      0x20\n      add\n      mload(0x40)\n      swap1\n      dup2\n      add\n      0x40\n      mstore\n      dup1\n      swap3\n      swap2\n      swap1\n      dup2\n      dup2\n      mstore\n      0x20\n      add\n      dup3\n      dup1\n      sload\n      tag_280\n      swap1\n      tag_135\n      jump\t// in\n    tag_280:\n      dup1\n      iszero\n      tag_281\n      jumpi\n      dup1\n      0x1f\n      lt\n      tag_282\n      jumpi\n      0x0100\n      dup1\n      dup4\n      sload\n      div\n      mul\n      dup4\n      mstore\n      swap2\n      0x20\n      add\n      swap2\n      jump(tag_281)\n    tag_282:\n      dup3\n      add\n      swap2\n      swap1\n      0x00\n      mstore\n      keccak256(0x00, 0x20)\n      swap1\n    tag_283:\n      dup2\n      sload\n      dup2\n      mstore\n      swap1\n      0x01\n      add\n      swap1\n      0x20\n      add\n      dup1\n      dup4\n      gt\n      tag_283\n      jumpi\n      dup3\n      swap1\n      sub\n      0x1f\n      and\n      dup3\n      add\n      swap2\n    tag_281:\n      pop\n      pop\n      pop\n      pop\n      pop\n      swap1\n      dup1\n      0x06\n      add\n      dup1\n      sload\n      tag_284\n      swap1\n      tag_135\n      jump\t// in\n    tag_284:\n      dup1\n      0x1f\n      add\n      0x20\n      dup1\n      swap2\n      div\n      mul\n      0x20\n      add\n      mload(0x40)\n      swap1\n      dup2\n      add\n      0x40\n      mstore\n      dup1\n      swap3\n      swap2\n      swap1\n      dup2\n      dup2\n      mstore\n      0x20\n      add\n      dup3\n      dup1\n      sload\n      tag_285\n      swap1\n      tag_135\n      jump\t// in\n    tag_285:\n      dup1\n      iszero\n      tag_286\n      jumpi\n      dup1\n      0x1f\n      lt\n      tag_287\n      jumpi\n      0x0100\n      dup1\n      dup4\n      sload\n      div\n      mul\n      dup4\n      mstore\n      swap2\n      0x20\n      add\n      swap2\n      jump(tag_286)\n    tag_287:\n      dup3\n      add\n      swap2\n      swap1\n      0x00\n      mstore\n      keccak256(0x00, 0x20)\n      swap1\n    tag_288:\n      dup2\n      sload\n      dup2\n      mstore\n      swap1\n      0x01\n      add\n      swap1\n      0x20\n      add\n      dup1\n      dup4\n      gt\n      tag_288\n      jumpi\n      dup3\n      swap1\n      sub\n      0x1f\n      and\n      dup3\n      add\n      swap2\n    tag_286:\n      pop\n      pop\n      pop\n      pop\n      pop\n      swap1\n      dup1\n      0x07\n      add\n      dup1\n      sload\n      tag_289\n      swap1\n      tag_135\n      jump\t// in\n    tag_289:\n      dup1\n      0x1f\n      add\n      0x20\n      dup1\n      swap2\n      div\n      mul\n      0x20\n      add\n      mload(0x40)\n      swap1\n      dup2\n      add\n      0x40\n      mstore\n      dup1\n      swap3\n      swap2\n      swap1\n      dup2\n      dup2\n      mstore\n      0x20\n      add\n      dup3\n      dup1\n      sload\n      tag_290\n      swap1\n      tag_135\n      jump\t// in\n    tag_290:\n      dup1\n      iszero\n      tag_291\n      jumpi\n      dup1\n      0x1f\n      lt\n      tag_292\n      jumpi\n      0x0100\n      dup1\n      dup4\n      sload\n      div\n      mul\n      dup4\n      mstore\n      swap2\n      0x20\n      add\n      swap2\n      jump(tag_291)\n    tag_292:\n      dup3\n      add\n      swap2\n      swap1\n      0x00\n      mstore\n      keccak256(0x00, 0x20)\n      swap1\n    tag_293:\n      dup2\n      sload\n      dup2\n      mstore\n      swap1\n      0x01\n      add\n      swap1\n      0x20\n      add\n      dup1\n      dup4\n      gt\n      tag_293\n      jumpi\n      dup3\n      swap1\n      sub\n      0x1f\n      and\n      dup3\n      add\n      swap2\n    tag_291:\n      pop\n      pop\n      pop\n      pop\n      pop\n      swap1\n      dup1\n      0x08\n      add\n      0x00\n      swap1\n      sload\n      swap1\n      0x0100\n      exp\n      swap1\n      div\n      0xffffffffffffffffffffffffffffffffffffffff\n      and\n      swap1\n      pop\n      dup10\n      jump\t// out\n        /* \"LandRegistration.sol\":1075:1121  mapping (string => bool) public landIdsMapping */\n    tag_104:\n      0x07\n      dup2\n      dup1\n      mload\n      0x20\n      dup2\n      add\n      dup3\n      add\n      dup1\n      mload\n      dup5\n      dup3\n      mstore\n      0x20\n      dup4\n      add\n      0x20\n      dup6\n      add\n      keccak256\n      dup2\n      dup4\n      mstore\n      dup1\n      swap6\n      pop\n      pop\n      pop\n      pop\n      pop\n      pop\n      0x00\n      swap2\n      pop\n      sload\n      swap1\n      0x0100\n      exp\n      swap1\n      div\n      0xff\n      and\n      dup2\n      jump\t// out\n        /* \"LandRegistration.sol\":1042:1069  string [] public landIdsArr */\n    tag_108:\n      0x06\n      dup2\n      dup2\n      sload\n      dup2\n      lt\n      tag_294\n      jumpi\n      0x00\n      dup1\n      revert\n    tag_294:\n      swap1\n      0x00\n      mstore\n      keccak256(0x00, 0x20)\n      add\n      0x00\n      swap2\n      pop\n      swap1\n      pop\n      dup1\n      sload\n      tag_296\n      swap1\n      tag_135\n      jump\t// in\n    tag_296:\n      dup1\n      0x1f\n      add\n      0x20\n      dup1\n      swap2\n      div\n      mul\n      0x20\n      add\n      mload(0x40)\n      swap1\n      dup2\n      add\n      0x40\n      mstore\n      dup1\n      swap3\n      swap2\n      swap1\n      dup2\n      dup2\n      mstore\n      0x20\n      add\n      dup3\n      dup1\n      sload\n      tag_297\n      swap1\n      tag_135\n      jump\t// in\n    tag_297:\n      dup1\n      iszero\n      tag_298\n      jumpi\n      dup1\n      0x1f\n      lt\n      tag_299\n      jumpi\n      0x0100\n      dup1\n      dup4\n      sload\n      div\n      mul\n      dup4\n      mstore\n      swap2\n      0x20\n      add\n      swap2\n      jump(tag_298)\n    tag_299:\n      dup3\n      add\n      swap2\n      swap1\n      0x00\n      mstore\n      keccak256(0x00, 0x20)\n      swap1\n    tag_300:\n      dup2\n      sload\n      dup2\n      mstore\n      swap1\n      0x01\n      add\n      swap1\n      0x20\n      add\n      dup1\n      dup4\n      gt\n      tag_300\n      jumpi\n      dup3\n      swap1\n      sub\n      0x1f\n      and\n      dup3\n      add\n      swap2\n    tag_298:\n      pop\n      pop\n      pop\n      pop\n      pop\n      dup2\n      jump\t// out\n        /* \"LandRegistration.sol\":1954:2537  function addAdmin(string memory firstName, string memory lastName, string memory county, address adminAddress) public restrictToSuperAdmin {... */\n    tag_112:\n        /* \"LandRegistration.sol\":1682:1699  superAdminAddress */\n      0x00\n      dup1\n      sload\n      swap1\n      0x0100\n      exp\n      swap1\n      div\n      0xffffffffffffffffffffffffffffffffffffffff\n      and\n        /* \"LandRegistration.sol\":1668:1699  msg.sender == superAdminAddress */\n      0xffffffffffffffffffffffffffffffffffffffff\n      and\n        /* \"LandRegistration.sol\":1668:1678  msg.sender */\n      caller\n        /* \"LandRegistration.sol\":1668:1699  msg.sender == superAdminAddress */\n      0xffffffffffffffffffffffffffffffffffffffff\n      and\n      eq\n        /* \"LandRegistration.sol\":1660:1700  require(msg.sender == superAdminAddress) */\n      tag_302\n      jumpi\n      0x00\n      dup1\n      revert\n    tag_302:\n        /* \"LandRegistration.sol\":2107:2145  equal(admins[adminAddress].county, \"\") */\n      tag_304\n        /* \"LandRegistration.sol\":2113:2119  admins */\n      0x02\n        /* \"LandRegistration.sol\":2113:2133  admins[adminAddress] */\n      0x00\n        /* \"LandRegistration.sol\":2120:2132  adminAddress */\n      dup4\n        /* \"LandRegistration.sol\":2113:2133  admins[adminAddress] */\n      0xffffffffffffffffffffffffffffffffffffffff\n      and\n      0xffffffffffffffffffffffffffffffffffffffff\n      and\n      dup2\n      mstore\n      0x20\n      add\n      swap1\n      dup2\n      mstore\n      0x20\n      add\n      0x00\n      keccak256\n        /* \"LandRegistration.sol\":2113:2140  admins[adminAddress].county */\n      0x03\n      add\n        /* \"LandRegistration.sol\":2107:2145  equal(admins[adminAddress].county, \"\") */\n      dup1\n      sload\n      tag_305\n      swap1\n      tag_135\n      jump\t// in\n    tag_305:\n      dup1\n      0x1f\n      add\n      0x20\n      dup1\n      swap2\n      div\n      mul\n      0x20\n      add\n      mload(0x40)\n      swap1\n      dup2\n      add\n      0x40\n      mstore\n      dup1\n      swap3\n      swap2\n      swap1\n      dup2\n      dup2\n      mstore\n      0x20\n      add\n      dup3\n      dup1\n      sload\n      tag_306\n      swap1\n      tag_135\n      jump\t// in\n    tag_306:\n      dup1\n      iszero\n      tag_307\n      jumpi\n      dup1\n      0x1f\n      lt\n      tag_308\n      jumpi\n      0x0100\n      dup1\n      dup4\n      sload\n      div\n      mul\n      dup4\n      mstore\n      swap2\n      0x20\n      add\n      swap2\n      jump(tag_307)\n    tag_308:\n      dup3\n      add\n      swap2\n      swap1\n      0x00\n      mstore\n      keccak256(0x00, 0x20)\n      swap1\n    tag_309:\n      dup2\n      sload\n      dup2\n      mstore\n      swap1\n      0x01\n      add\n      swap1\n      0x20\n      add\n      dup1\n      dup4\n      gt\n      tag_309\n      jumpi\n      dup3\n      swap1\n      sub\n      0x1f\n      and\n      dup3\n      add\n      swap2\n    tag_307:\n      pop\n      pop\n      pop\n      pop\n      pop\n      mload(0x40)\n      dup1\n      0x20\n      add\n      0x40\n      mstore\n      dup1\n      0x00\n      dup2\n      mstore\n      pop\n        /* \"LandRegistration.sol\":2107:2112  equal */\n      tag_310\n        /* \"LandRegistration.sol\":2107:2145  equal(admins[adminAddress].county, \"\") */\n      jump\t// in\n    tag_304:\n        /* \"LandRegistration.sol\":2103:2193  if (equal(admins[adminAddress].county, \"\")) {... */\n      iszero\n      tag_311\n      jumpi\n        /* \"LandRegistration.sol\":2161:2169  counties */\n      0x04\n        /* \"LandRegistration.sol\":2175:2181  county */\n      dup3\n        /* \"LandRegistration.sol\":2161:2182  counties.push(county) */\n      swap1\n      dup1\n      0x01\n      dup2\n      sload\n      add\n      dup1\n      dup3\n      sstore\n      dup1\n      swap2\n      pop\n      pop\n      0x01\n      swap1\n      sub\n      swap1\n      0x00\n      mstore\n      keccak256(0x00, 0x20)\n      add\n      0x00\n      swap1\n      swap2\n      swap1\n      swap2\n      swap1\n      swap2\n      pop\n      swap1\n      dup1\n      mload\n      swap1\n      0x20\n      add\n      swap1\n      tag_313\n      swap3\n      swap2\n      swap1\n      tag_125\n      jump\t// in\n    tag_313:\n      pop\n        /* \"LandRegistration.sol\":2103:2193  if (equal(admins[adminAddress].county, \"\")) {... */\n    tag_311:\n        /* \"LandRegistration.sol\":2202:2224  Admin storage newAdmin */\n      0x00\n        /* \"LandRegistration.sol\":2227:2233  admins */\n      0x02\n        /* \"LandRegistration.sol\":2227:2247  admins[adminAddress] */\n      0x00\n        /* \"LandRegistration.sol\":2234:2246  adminAddress */\n      dup4\n        /* \"LandRegistration.sol\":2227:2247  admins[adminAddress] */\n      0xffffffffffffffffffffffffffffffffffffffff\n      and\n      0xffffffffffffffffffffffffffffffffffffffff\n      and\n      dup2\n      mstore\n      0x20\n      add\n      swap1\n      dup2\n      mstore\n      0x20\n      add\n      0x00\n      keccak256\n        /* \"LandRegistration.sol\":2202:2247  Admin storage newAdmin = admins[adminAddress] */\n      swap1\n      pop\n        /* \"LandRegistration.sol\":2278:2287  firstName */\n      dup5\n        /* \"LandRegistration.sol\":2257:2265  newAdmin */\n      dup2\n        /* \"LandRegistration.sol\":2257:2275  newAdmin.firstName */\n      0x00\n      add\n        /* \"LandRegistration.sol\":2257:2287  newAdmin.firstName = firstName */\n      swap1\n      dup1\n      mload\n      swap1\n      0x20\n      add\n      swap1\n      tag_314\n      swap3\n      swap2\n      swap1\n      tag_125\n      jump\t// in\n    tag_314:\n      pop\n        /* \"LandRegistration.sol\":2317:2325  lastName */\n      dup4\n        /* \"LandRegistration.sol\":2297:2305  newAdmin */\n      dup2\n        /* \"LandRegistration.sol\":2297:2314  newAdmin.lastName */\n      0x01\n      add\n        /* \"LandRegistration.sol\":2297:2325  newAdmin.lastName = lastName */\n      swap1\n      dup1\n      mload\n      swap1\n      0x20\n      add\n      swap1\n      tag_315\n      swap3\n      swap2\n      swap1\n      tag_125\n      jump\t// in\n    tag_315:\n      pop\n        /* \"LandRegistration.sol\":2359:2371  adminAddress */\n      dup2\n        /* \"LandRegistration.sol\":2335:2343  newAdmin */\n      dup2\n        /* \"LandRegistration.sol\":2335:2356  newAdmin.adminAddress */\n      0x02\n      add\n      0x00\n        /* \"LandRegistration.sol\":2335:2371  newAdmin.adminAddress = adminAddress */\n      0x0100\n      exp\n      dup2\n      sload\n      dup2\n      0xffffffffffffffffffffffffffffffffffffffff\n      mul\n      not\n      and\n      swap1\n      dup4\n      0xffffffffffffffffffffffffffffffffffffffff\n      and\n      mul\n      or\n      swap1\n      sstore\n      pop\n        /* \"LandRegistration.sol\":2399:2405  county */\n      dup3\n        /* \"LandRegistration.sol\":2381:2389  newAdmin */\n      dup2\n        /* \"LandRegistration.sol\":2381:2396  newAdmin.county */\n      0x03\n      add\n        /* \"LandRegistration.sol\":2381:2405  newAdmin.county = county */\n      swap1\n      dup1\n      mload\n      swap1\n      0x20\n      add\n      swap1\n      tag_316\n      swap3\n      swap2\n      swap1\n      tag_125\n      jump\t// in\n    tag_316:\n      pop\n        /* \"LandRegistration.sol\":2433:2437  true */\n      0x01\n        /* \"LandRegistration.sol\":2415:2423  newAdmin */\n      dup2\n        /* \"LandRegistration.sol\":2415:2430  newAdmin.active */\n      0x04\n      add\n      0x00\n        /* \"LandRegistration.sol\":2415:2437  newAdmin.active = true */\n      0x0100\n      exp\n      dup2\n      sload\n      dup2\n      0xff\n      mul\n      not\n      and\n      swap1\n      dup4\n      iszero\n      iszero\n      mul\n      or\n      swap1\n      sstore\n      pop\n        /* \"LandRegistration.sol\":2448:2462  adminsAdresses */\n      0x05\n        /* \"LandRegistration.sol\":2476:2488  adminAddress */\n      dup3\n        /* \"LandRegistration.sol\":2448:2490  adminsAdresses.push(address(adminAddress)) */\n      swap1\n      dup1\n      0x01\n      dup2\n      sload\n      add\n      dup1\n      dup3\n      sstore\n      dup1\n      swap2\n      pop\n      pop\n      0x01\n      swap1\n      sub\n      swap1\n      0x00\n      mstore\n      keccak256(0x00, 0x20)\n      add\n      0x00\n      swap1\n      swap2\n      swap1\n      swap2\n      swap1\n      swap2\n      0x0100\n      exp\n      dup2\n      sload\n      dup2\n      0xffffffffffffffffffffffffffffffffffffffff\n      mul\n      not\n      and\n      swap1\n      dup4\n      0xffffffffffffffffffffffffffffffffffffffff\n      and\n      mul\n      or\n      swap1\n      sstore\n      pop\n        /* \"LandRegistration.sol\":2526:2530  true */\n      0x01\n        /* \"LandRegistration.sol\":2500:2509  addresses */\n      0x03\n        /* \"LandRegistration.sol\":2500:2523  addresses[adminAddress] */\n      0x00\n        /* \"LandRegistration.sol\":2510:2522  adminAddress */\n      dup5\n        /* \"LandRegistration.sol\":2500:2523  addresses[adminAddress] */\n      0xffffffffffffffffffffffffffffffffffffffff\n      and\n      0xffffffffffffffffffffffffffffffffffffffff\n      and\n      dup2\n      mstore\n      0x20\n      add\n      swap1\n      dup2\n      mstore\n      0x20\n      add\n      0x00\n      keccak256\n      0x00\n        /* \"LandRegistration.sol\":2500:2530  addresses[adminAddress] = true */\n      0x0100\n      exp\n      dup2\n      sload\n      dup2\n      0xff\n      mul\n      not\n      and\n      swap1\n      dup4\n      iszero\n      iszero\n      mul\n      or\n      swap1\n      sstore\n      pop\n        /* \"LandRegistration.sol\":2093:2537  {... */\n      pop\n        /* \"LandRegistration.sol\":1954:2537  function addAdmin(string memory firstName, string memory lastName, string memory county, address adminAddress) public restrictToSuperAdmin {... */\n      pop\n      pop\n      pop\n      pop\n      jump\t// out\n        /* \"LandRegistration.sol\":4627:5204  function registerLandOwner() public returns(bool){... */\n    tag_114:\n        /* \"LandRegistration.sol\":4671:4675  bool */\n      0x00\n        /* \"LandRegistration.sol\":4690:4700  landOwners */\n      0x0a\n        /* \"LandRegistration.sol\":4690:4712  landOwners[msg.sender] */\n      0x00\n        /* \"LandRegistration.sol\":4701:4711  msg.sender */\n      caller\n        /* \"LandRegistration.sol\":4690:4712  landOwners[msg.sender] */\n      0xffffffffffffffffffffffffffffffffffffffff\n      and\n      0xffffffffffffffffffffffffffffffffffffffff\n      and\n      dup2\n      mstore\n      0x20\n      add\n      swap1\n      dup2\n      mstore\n      0x20\n      add\n      0x00\n      keccak256\n      0x00\n      swap1\n      sload\n      swap1\n      0x0100\n      exp\n      swap1\n      div\n      0xff\n      and\n        /* \"LandRegistration.sol\":4686:4725  if (landOwners[msg.sender]) return true */\n      iszero\n      tag_319\n      jumpi\n        /* \"LandRegistration.sol\":4721:4725  true */\n      0x01\n        /* \"LandRegistration.sol\":4714:4725  return true */\n      swap1\n      pop\n      jump(tag_318)\n        /* \"LandRegistration.sol\":4686:4725  if (landOwners[msg.sender]) return true */\n    tag_319:\n        /* \"LandRegistration.sol\":4760:4764  true */\n      0x01\n        /* \"LandRegistration.sol\":4735:4745  landOwners */\n      0x0a\n        /* \"LandRegistration.sol\":4735:4757  landOwners[msg.sender] */\n      0x00\n        /* \"LandRegistration.sol\":4746:4756  msg.sender */\n      caller\n        /* \"LandRegistration.sol\":4735:4757  landOwners[msg.sender] */\n      0xffffffffffffffffffffffffffffffffffffffff\n      and\n      0xffffffffffffffffffffffffffffffffffffffff\n      and\n      dup2\n      mstore\n      0x20\n      add\n      swap1\n      dup2\n      mstore\n      0x20\n      add\n      0x00\n      keccak256\n      0x00\n        /* \"LandRegistration.sol\":4735:4764  landOwners[msg.sender] = true */\n      0x0100\n      exp\n      dup2\n      sload\n      dup2\n      0xff\n      mul\n      not\n      and\n      swap1\n      dup4\n      iszero\n      iszero\n      mul\n      or\n      swap1\n      sstore\n      pop\n        /* \"LandRegistration.sol\":4775:4805  LandOwner storage newLandOwner */\n      0x00\n        /* \"LandRegistration.sol\":4808:4825  landOwnersDetails */\n      0x0b\n        /* \"LandRegistration.sol\":4808:4837  landOwnersDetails[msg.sender] */\n      0x00\n        /* \"LandRegistration.sol\":4826:4836  msg.sender */\n      caller\n        /* \"LandRegistration.sol\":4808:4837  landOwnersDetails[msg.sender] */\n      0xffffffffffffffffffffffffffffffffffffffff\n      and\n      0xffffffffffffffffffffffffffffffffffffffff\n      and\n      dup2\n      mstore\n      0x20\n      add\n      swap1\n      dup2\n      mstore\n      0x20\n      add\n      0x00\n      keccak256\n        /* \"LandRegistration.sol\":4775:4837  LandOwner storage newLandOwner = landOwnersDetails[msg.sender] */\n      swap1\n      pop\n        /* \"LandRegistration.sol\":4847:4874  newLandOwner.firstName = \"\" */\n      mload(0x40)\n      dup1\n      0x20\n      add\n      0x40\n      mstore\n      dup1\n      0x00\n      dup2\n      mstore\n      pop\n        /* \"LandRegistration.sol\":4847:4859  newLandOwner */\n      dup2\n        /* \"LandRegistration.sol\":4847:4869  newLandOwner.firstName */\n      0x00\n      add\n        /* \"LandRegistration.sol\":4847:4874  newLandOwner.firstName = \"\" */\n      swap1\n      dup1\n      mload\n      swap1\n      0x20\n      add\n      swap1\n      tag_320\n      swap3\n      swap2\n      swap1\n      tag_125\n      jump\t// in\n    tag_320:\n      pop\n        /* \"LandRegistration.sol\":4884:4910  newLandOwner.lastName = \"\" */\n      mload(0x40)\n      dup1\n      0x20\n      add\n      0x40\n      mstore\n      dup1\n      0x00\n      dup2\n      mstore\n      pop\n        /* \"LandRegistration.sol\":4884:4896  newLandOwner */\n      dup2\n        /* \"LandRegistration.sol\":4884:4905  newLandOwner.lastName */\n      0x01\n      add\n        /* \"LandRegistration.sol\":4884:4910  newLandOwner.lastName = \"\" */\n      swap1\n      dup1\n      mload\n      swap1\n      0x20\n      add\n      swap1\n      tag_321\n      swap3\n      swap2\n      swap1\n      tag_125\n      jump\t// in\n    tag_321:\n      pop\n        /* \"LandRegistration.sol\":4920:4948  newLandOwner.middleName = \"\" */\n      mload(0x40)\n      dup1\n      0x20\n      add\n      0x40\n      mstore\n      dup1\n      0x00\n      dup2\n      mstore\n      pop\n        /* \"LandRegistration.sol\":4920:4932  newLandOwner */\n      dup2\n        /* \"LandRegistration.sol\":4920:4943  newLandOwner.middleName */\n      0x02\n      add\n        /* \"LandRegistration.sol\":4920:4948  newLandOwner.middleName = \"\" */\n      swap1\n      dup1\n      mload\n      swap1\n      0x20\n      add\n      swap1\n      tag_322\n      swap3\n      swap2\n      swap1\n      tag_125\n      jump\t// in\n    tag_322:\n      pop\n        /* \"LandRegistration.sol\":4958:4982  newLandOwner.gender = \"\" */\n      mload(0x40)\n      dup1\n      0x20\n      add\n      0x40\n      mstore\n      dup1\n      0x00\n      dup2\n      mstore\n      pop\n        /* \"LandRegistration.sol\":4958:4970  newLandOwner */\n      dup2\n        /* \"LandRegistration.sol\":4958:4977  newLandOwner.gender */\n      0x03\n      add\n        /* \"LandRegistration.sol\":4958:4982  newLandOwner.gender = \"\" */\n      swap1\n      dup1\n      mload\n      swap1\n      0x20\n      add\n      swap1\n      tag_323\n      swap3\n      swap2\n      swap1\n      tag_125\n      jump\t// in\n    tag_323:\n      pop\n        /* \"LandRegistration.sol\":4992:5015  newLandOwner.email = \"\" */\n      mload(0x40)\n      dup1\n      0x20\n      add\n      0x40\n      mstore\n      dup1\n      0x00\n      dup2\n      mstore\n      pop\n        /* \"LandRegistration.sol\":4992:5004  newLandOwner */\n      dup2\n        /* \"LandRegistration.sol\":4992:5010  newLandOwner.email */\n      0x04\n      add\n        /* \"LandRegistration.sol\":4992:5015  newLandOwner.email = \"\" */\n      swap1\n      dup1\n      mload\n      swap1\n      0x20\n      add\n      swap1\n      tag_324\n      swap3\n      swap2\n      swap1\n      tag_125\n      jump\t// in\n    tag_324:\n      pop\n        /* \"LandRegistration.sol\":5025:5054  newLandOwner.phoneNumber = \"\" */\n      mload(0x40)\n      dup1\n      0x20\n      add\n      0x40\n      mstore\n      dup1\n      0x00\n      dup2\n      mstore\n      pop\n        /* \"LandRegistration.sol\":5025:5037  newLandOwner */\n      dup2\n        /* \"LandRegistration.sol\":5025:5049  newLandOwner.phoneNumber */\n      0x05\n      add\n        /* \"LandRegistration.sol\":5025:5054  newLandOwner.phoneNumber = \"\" */\n      swap1\n      dup1\n      mload\n      swap1\n      0x20\n      add\n      swap1\n      tag_325\n      swap3\n      swap2\n      swap1\n      tag_125\n      jump\t// in\n    tag_325:\n      pop\n        /* \"LandRegistration.sol\":5064:5087  newLandOwner.poBox = \"\" */\n      mload(0x40)\n      dup1\n      0x20\n      add\n      0x40\n      mstore\n      dup1\n      0x00\n      dup2\n      mstore\n      pop\n        /* \"LandRegistration.sol\":5064:5076  newLandOwner */\n      dup2\n        /* \"LandRegistration.sol\":5064:5082  newLandOwner.poBox */\n      0x06\n      add\n        /* \"LandRegistration.sol\":5064:5087  newLandOwner.poBox = \"\" */\n      swap1\n      dup1\n      mload\n      swap1\n      0x20\n      add\n      swap1\n      tag_326\n      swap3\n      swap2\n      swap1\n      tag_125\n      jump\t// in\n    tag_326:\n      pop\n        /* \"LandRegistration.sol\":5097:5123  newLandOwner.location = \"\" */\n      mload(0x40)\n      dup1\n      0x20\n      add\n      0x40\n      mstore\n      dup1\n      0x00\n      dup2\n      mstore\n      pop\n        /* \"LandRegistration.sol\":5097:5109  newLandOwner */\n      dup2\n        /* \"LandRegistration.sol\":5097:5118  newLandOwner.location */\n      0x07\n      add\n        /* \"LandRegistration.sol\":5097:5123  newLandOwner.location = \"\" */\n      swap1\n      dup1\n      mload\n      swap1\n      0x20\n      add\n      swap1\n      tag_327\n      swap3\n      swap2\n      swap1\n      tag_125\n      jump\t// in\n    tag_327:\n      pop\n        /* \"LandRegistration.sol\":5165:5175  msg.sender */\n      caller\n        /* \"LandRegistration.sol\":5133:5145  newLandOwner */\n      dup2\n        /* \"LandRegistration.sol\":5133:5162  newLandOwner.landOwnerAddress */\n      0x08\n      add\n      0x00\n        /* \"LandRegistration.sol\":5133:5175  newLandOwner.landOwnerAddress = msg.sender */\n      0x0100\n      exp\n      dup2\n      sload\n      dup2\n      0xffffffffffffffffffffffffffffffffffffffff\n      mul\n      not\n      and\n      swap1\n      dup4\n      0xffffffffffffffffffffffffffffffffffffffff\n      and\n      mul\n      or\n      swap1\n      sstore\n      pop\n        /* \"LandRegistration.sol\":5193:5197  true */\n      0x01\n        /* \"LandRegistration.sol\":5186:5197  return true */\n      swap2\n      pop\n      pop\n        /* \"LandRegistration.sol\":4627:5204  function registerLandOwner() public returns(bool){... */\n    tag_318:\n      swap1\n      jump\t// out\n        /* \"LandRegistration.sol\":2692:2819  function deactivateAdmin(address adminAddress) public restrictToSuperAdmin {... */\n    tag_118:\n        /* \"LandRegistration.sol\":1682:1699  superAdminAddress */\n      0x00\n      dup1\n      sload\n      swap1\n      0x0100\n      exp\n      swap1\n      div\n      0xffffffffffffffffffffffffffffffffffffffff\n      and\n        /* \"LandRegistration.sol\":1668:1699  msg.sender == superAdminAddress */\n      0xffffffffffffffffffffffffffffffffffffffff\n      and\n        /* \"LandRegistration.sol\":1668:1678  msg.sender */\n      caller\n        /* \"LandRegistration.sol\":1668:1699  msg.sender == superAdminAddress */\n      0xffffffffffffffffffffffffffffffffffffffff\n      and\n      eq\n        /* \"LandRegistration.sol\":1660:1700  require(msg.sender == superAdminAddress) */\n      tag_329\n      jumpi\n      0x00\n      dup1\n      revert\n    tag_329:\n        /* \"LandRegistration.sol\":2807:2812  false */\n      0x00\n        /* \"LandRegistration.sol\":2777:2783  admins */\n      0x02\n        /* \"LandRegistration.sol\":2777:2797  admins[adminAddress] */\n      0x00\n        /* \"LandRegistration.sol\":2784:2796  adminAddress */\n      dup4\n        /* \"LandRegistration.sol\":2777:2797  admins[adminAddress] */\n      0xffffffffffffffffffffffffffffffffffffffff\n      and\n      0xffffffffffffffffffffffffffffffffffffffff\n      and\n      dup2\n      mstore\n      0x20\n      add\n      swap1\n      dup2\n      mstore\n      0x20\n      add\n      0x00\n      keccak256\n        /* \"LandRegistration.sol\":2777:2804  admins[adminAddress].active */\n      0x04\n      add\n      0x00\n        /* \"LandRegistration.sol\":2777:2812  admins[adminAddress].active = false */\n      0x0100\n      exp\n      dup2\n      sload\n      dup2\n      0xff\n      mul\n      not\n      and\n      swap1\n      dup4\n      iszero\n      iszero\n      mul\n      or\n      swap1\n      sstore\n      pop\n        /* \"LandRegistration.sol\":2692:2819  function deactivateAdmin(address adminAddress) public restrictToSuperAdmin {... */\n      pop\n      jump\t// out\n        /* \"LandRegistration.sol\":1468:1610  function equal(string memory a, string memory b) private pure returns(bool) {... */\n    tag_310:\n        /* \"LandRegistration.sol\":1538:1542  bool */\n      0x00\n        /* \"LandRegistration.sol\":1600:1601  b */\n      dup2\n        /* \"LandRegistration.sol\":1584:1603  keccak256(bytes(b)) */\n      dup1\n      mload\n      swap1\n      0x20\n      add\n      keccak256\n        /* \"LandRegistration.sol\":1577:1578  a */\n      dup4\n        /* \"LandRegistration.sol\":1561:1580  keccak256(bytes(a)) */\n      dup1\n      mload\n      swap1\n      0x20\n      add\n      keccak256\n        /* \"LandRegistration.sol\":1561:1603  keccak256(bytes(a)) == keccak256(bytes(b)) */\n      eq\n        /* \"LandRegistration.sol\":1554:1603  return keccak256(bytes(a)) == keccak256(bytes(b)) */\n      swap1\n      pop\n        /* \"LandRegistration.sol\":1468:1610  function equal(string memory a, string memory b) private pure returns(bool) {... */\n      swap3\n      swap2\n      pop\n      pop\n      jump\t// out\n    tag_125:\n      dup3\n      dup1\n      sload\n      tag_332\n      swap1\n      tag_135\n      jump\t// in\n    tag_332:\n      swap1\n      0x00\n      mstore\n      keccak256(0x00, 0x20)\n      swap1\n      0x1f\n      add\n      0x20\n      swap1\n      div\n      dup2\n      add\n      swap3\n      dup3\n      tag_334\n      jumpi\n      0x00\n      dup6\n      sstore\n      jump(tag_333)\n    tag_334:\n      dup3\n      0x1f\n      lt\n      tag_335\n      jumpi\n      dup1\n      mload\n      not(0xff)\n      and\n      dup4\n      dup1\n      add\n      or\n      dup6\n      sstore\n      jump(tag_333)\n    tag_335:\n      dup3\n      dup1\n      add\n      0x01\n      add\n      dup6\n      sstore\n      dup3\n      iszero\n      tag_333\n      jumpi\n      swap2\n      dup3\n      add\n    tag_336:\n      dup3\n      dup2\n      gt\n      iszero\n      tag_337\n      jumpi\n      dup3\n      mload\n      dup3\n      sstore\n      swap2\n      0x20\n      add\n      swap2\n      swap1\n      0x01\n      add\n      swap1\n      jump(tag_336)\n    tag_337:\n    tag_333:\n      pop\n      swap1\n      pop\n      tag_338\n      swap2\n      swap1\n      tag_339\n      jump\t// in\n    tag_338:\n      pop\n      swap1\n      jump\t// out\n    tag_188:\n      mload(0x40)\n      dup1\n      0xa0\n      add\n      0x40\n      mstore\n      dup1\n      0x60\n      dup2\n      mstore\n      0x20\n      add\n      0x60\n      dup2\n      mstore\n      0x20\n      add\n      and(0xffffffffffffffffffffffffffffffffffffffff, 0x00)\n      dup2\n      mstore\n      0x20\n      add\n      0x60\n      dup2\n      mstore\n      0x20\n      add\n      iszero(iszero(0x00))\n      dup2\n      mstore\n      pop\n      swap1\n      jump\t// out\n    tag_222:\n      dup3\n      dup1\n      sload\n      tag_340\n      swap1\n      tag_135\n      jump\t// in\n    tag_340:\n      swap1\n      0x00\n      mstore\n      keccak256(0x00, 0x20)\n      swap1\n      0x1f\n      add\n      0x20\n      swap1\n      div\n      dup2\n      add\n      swap3\n      dup3\n      tag_342\n      jumpi\n      0x00\n      dup6\n      sstore\n      jump(tag_341)\n    tag_342:\n      dup3\n      0x1f\n      lt\n      tag_343\n      jumpi\n      dup1\n      sload\n      dup6\n      sstore\n      jump(tag_341)\n    tag_343:\n      dup3\n      dup1\n      add\n      0x01\n      add\n      dup6\n      sstore\n      dup3\n      iszero\n      tag_341\n      jumpi\n      0x00\n      mstore\n      keccak256(0x00, 0x20)\n      swap2\n      0x1f\n      add\n      0x20\n      swap1\n      div\n      dup3\n      add\n    tag_344:\n      dup3\n      dup2\n      gt\n      iszero\n      tag_345\n      jumpi\n      dup3\n      sload\n      dup3\n      sstore\n      swap2\n      0x01\n      add\n      swap2\n      swap1\n      0x01\n      add\n      swap1\n      jump(tag_344)\n    tag_345:\n    tag_341:\n      pop\n      swap1\n      pop\n      tag_346\n      swap2\n      swap1\n      tag_339\n      jump\t// in\n    tag_346:\n      pop\n      swap1\n      jump\t// out\n    tag_339:\n    tag_347:\n      dup1\n      dup3\n      gt\n      iszero\n      tag_348\n      jumpi\n      0x00\n      dup2\n      0x00\n      swap1\n      sstore\n      pop\n      0x01\n      add\n      jump(tag_347)\n    tag_348:\n      pop\n      swap1\n      jump\t// out\n        /* \"#utility.yul\":7:133   */\n    tag_349:\n        /* \"#utility.yul\":44:51   */\n      0x00\n        /* \"#utility.yul\":84:126   */\n      0xffffffffffffffffffffffffffffffffffffffff\n        /* \"#utility.yul\":77:82   */\n      dup3\n        /* \"#utility.yul\":73:127   */\n      and\n        /* \"#utility.yul\":62:127   */\n      swap1\n      pop\n        /* \"#utility.yul\":7:133   */\n      swap2\n      swap1\n      pop\n      jump\t// out\n        /* \"#utility.yul\":139:235   */\n    tag_350:\n        /* \"#utility.yul\":176:183   */\n      0x00\n        /* \"#utility.yul\":205:229   */\n      tag_401\n        /* \"#utility.yul\":223:228   */\n      dup3\n        /* \"#utility.yul\":205:229   */\n      tag_349\n      jump\t// in\n    tag_401:\n        /* \"#utility.yul\":194:229   */\n      swap1\n      pop\n        /* \"#utility.yul\":139:235   */\n      swap2\n      swap1\n      pop\n      jump\t// out\n        /* \"#utility.yul\":241:359   */\n    tag_351:\n        /* \"#utility.yul\":328:352   */\n      tag_403\n        /* \"#utility.yul\":346:351   */\n      dup2\n        /* \"#utility.yul\":328:352   */\n      tag_350\n      jump\t// in\n    tag_403:\n        /* \"#utility.yul\":323:326   */\n      dup3\n        /* \"#utility.yul\":316:353   */\n      mstore\n        /* \"#utility.yul\":241:359   */\n      pop\n      pop\n      jump\t// out\n        /* \"#utility.yul\":365:587   */\n    tag_31:\n        /* \"#utility.yul\":458:462   */\n      0x00\n        /* \"#utility.yul\":496:498   */\n      0x20\n        /* \"#utility.yul\":485:494   */\n      dup3\n        /* \"#utility.yul\":481:499   */\n      add\n        /* \"#utility.yul\":473:499   */\n      swap1\n      pop\n        /* \"#utility.yul\":509:580   */\n      tag_405\n        /* \"#utility.yul\":577:578   */\n      0x00\n        /* \"#utility.yul\":566:575   */\n      dup4\n        /* \"#utility.yul\":562:579   */\n      add\n        /* \"#utility.yul\":553:559   */\n      dup5\n        /* \"#utility.yul\":509:580   */\n      tag_351\n      jump\t// in\n    tag_405:\n        /* \"#utility.yul\":365:587   */\n      swap3\n      swap2\n      pop\n      pop\n      jump\t// out\n        /* \"#utility.yul\":593:668   */\n    tag_352:\n        /* \"#utility.yul\":626:632   */\n      0x00\n        /* \"#utility.yul\":659:661   */\n      0x40\n        /* \"#utility.yul\":653:662   */\n      mload\n        /* \"#utility.yul\":643:662   */\n      swap1\n      pop\n        /* \"#utility.yul\":593:668   */\n      swap1\n      jump\t// out\n        /* \"#utility.yul\":674:791   */\n    tag_353:\n        /* \"#utility.yul\":783:784   */\n      0x00\n        /* \"#utility.yul\":780:781   */\n      dup1\n        /* \"#utility.yul\":773:785   */\n      revert\n        /* \"#utility.yul\":797:914   */\n    tag_354:\n        /* \"#utility.yul\":906:907   */\n      0x00\n        /* \"#utility.yul\":903:904   */\n      dup1\n        /* \"#utility.yul\":896:908   */\n      revert\n        /* \"#utility.yul\":920:997   */\n    tag_355:\n        /* \"#utility.yul\":957:964   */\n      0x00\n        /* \"#utility.yul\":986:991   */\n      dup2\n        /* \"#utility.yul\":975:991   */\n      swap1\n      pop\n        /* \"#utility.yul\":920:997   */\n      swap2\n      swap1\n      pop\n      jump\t// out\n        /* \"#utility.yul\":1003:1125   */\n    tag_356:\n        /* \"#utility.yul\":1076:1100   */\n      tag_411\n        /* \"#utility.yul\":1094:1099   */\n      dup2\n        /* \"#utility.yul\":1076:1100   */\n      tag_355\n      jump\t// in\n    tag_411:\n        /* \"#utility.yul\":1069:1074   */\n      dup2\n        /* \"#utility.yul\":1066:1101   */\n      eq\n        /* \"#utility.yul\":1056:1119   */\n      tag_412\n      jumpi\n        /* \"#utility.yul\":1115:1116   */\n      0x00\n        /* \"#utility.yul\":1112:1113   */\n      dup1\n        /* \"#utility.yul\":1105:1117   */\n      revert\n        /* \"#utility.yul\":1056:1119   */\n    tag_412:\n        /* \"#utility.yul\":1003:1125   */\n      pop\n      jump\t// out\n        /* \"#utility.yul\":1131:1270   */\n    tag_357:\n        /* \"#utility.yul\":1177:1182   */\n      0x00\n        /* \"#utility.yul\":1215:1221   */\n      dup2\n        /* \"#utility.yul\":1202:1222   */\n      calldataload\n        /* \"#utility.yul\":1193:1222   */\n      swap1\n      pop\n        /* \"#utility.yul\":1231:1264   */\n      tag_414\n        /* \"#utility.yul\":1258:1263   */\n      dup2\n        /* \"#utility.yul\":1231:1264   */\n      tag_356\n      jump\t// in\n    tag_414:\n        /* \"#utility.yul\":1131:1270   */\n      swap3\n      swap2\n      pop\n      pop\n      jump\t// out\n        /* \"#utility.yul\":1276:1605   */\n    tag_34:\n        /* \"#utility.yul\":1335:1341   */\n      0x00\n        /* \"#utility.yul\":1384:1386   */\n      0x20\n        /* \"#utility.yul\":1372:1381   */\n      dup3\n        /* \"#utility.yul\":1363:1370   */\n      dup5\n        /* \"#utility.yul\":1359:1382   */\n      sub\n        /* \"#utility.yul\":1355:1387   */\n      slt\n        /* \"#utility.yul\":1352:1471   */\n      iszero\n      tag_416\n      jumpi\n        /* \"#utility.yul\":1390:1469   */\n      tag_417\n      tag_353\n      jump\t// in\n    tag_417:\n        /* \"#utility.yul\":1352:1471   */\n    tag_416:\n        /* \"#utility.yul\":1510:1511   */\n      0x00\n        /* \"#utility.yul\":1535:1588   */\n      tag_418\n        /* \"#utility.yul\":1580:1587   */\n      dup5\n        /* \"#utility.yul\":1571:1577   */\n      dup3\n        /* \"#utility.yul\":1560:1569   */\n      dup6\n        /* \"#utility.yul\":1556:1578   */\n      add\n        /* \"#utility.yul\":1535:1588   */\n      tag_357\n      jump\t// in\n    tag_418:\n        /* \"#utility.yul\":1525:1588   */\n      swap2\n      pop\n        /* \"#utility.yul\":1481:1598   */\n      pop\n        /* \"#utility.yul\":1276:1605   */\n      swap3\n      swap2\n      pop\n      pop\n      jump\t// out\n        /* \"#utility.yul\":1611:1728   */\n    tag_358:\n        /* \"#utility.yul\":1720:1721   */\n      0x00\n        /* \"#utility.yul\":1717:1718   */\n      dup1\n        /* \"#utility.yul\":1710:1722   */\n      revert\n        /* \"#utility.yul\":1734:1851   */\n    tag_359:\n        /* \"#utility.yul\":1843:1844   */\n      0x00\n        /* \"#utility.yul\":1840:1841   */\n      dup1\n        /* \"#utility.yul\":1833:1845   */\n      revert\n        /* \"#utility.yul\":1857:1959   */\n    tag_360:\n        /* \"#utility.yul\":1898:1904   */\n      0x00\n        /* \"#utility.yul\":1949:1951   */\n      0x1f\n        /* \"#utility.yul\":1945:1952   */\n      not\n        /* \"#utility.yul\":1940:1942   */\n      0x1f\n        /* \"#utility.yul\":1933:1938   */\n      dup4\n        /* \"#utility.yul\":1929:1943   */\n      add\n        /* \"#utility.yul\":1925:1953   */\n      and\n        /* \"#utility.yul\":1915:1953   */\n      swap1\n      pop\n        /* \"#utility.yul\":1857:1959   */\n      swap2\n      swap1\n      pop\n      jump\t// out\n        /* \"#utility.yul\":1965:2145   */\n    tag_361:\n        /* \"#utility.yul\":2013:2090   */\n      0x4e487b7100000000000000000000000000000000000000000000000000000000\n        /* \"#utility.yul\":2010:2011   */\n      0x00\n        /* \"#utility.yul\":2003:2091   */\n      mstore\n        /* \"#utility.yul\":2110:2114   */\n      0x41\n        /* \"#utility.yul\":2107:2108   */\n      0x04\n        /* \"#utility.yul\":2100:2115   */\n      mstore\n        /* \"#utility.yul\":2134:2138   */\n      0x24\n        /* \"#utility.yul\":2131:2132   */\n      0x00\n        /* \"#utility.yul\":2124:2139   */\n      revert\n        /* \"#utility.yul\":2151:2432   */\n    tag_362:\n        /* \"#utility.yul\":2234:2261   */\n      tag_424\n        /* \"#utility.yul\":2256:2260   */\n      dup3\n        /* \"#utility.yul\":2234:2261   */\n      tag_360\n      jump\t// in\n    tag_424:\n        /* \"#utility.yul\":2226:2232   */\n      dup2\n        /* \"#utility.yul\":2222:2262   */\n      add\n        /* \"#utility.yul\":2364:2370   */\n      dup2\n        /* \"#utility.yul\":2352:2362   */\n      dup2\n        /* \"#utility.yul\":2349:2371   */\n      lt\n        /* \"#utility.yul\":2328:2346   */\n      0xffffffffffffffff\n        /* \"#utility.yul\":2316:2326   */\n      dup3\n        /* \"#utility.yul\":2313:2347   */\n      gt\n        /* \"#utility.yul\":2310:2372   */\n      or\n        /* \"#utility.yul\":2307:2395   */\n      iszero\n      tag_425\n      jumpi\n        /* \"#utility.yul\":2375:2393   */\n      tag_426\n      tag_361\n      jump\t// in\n    tag_426:\n        /* \"#utility.yul\":2307:2395   */\n    tag_425:\n        /* \"#utility.yul\":2415:2425   */\n      dup1\n        /* \"#utility.yul\":2411:2413   */\n      0x40\n        /* \"#utility.yul\":2404:2426   */\n      mstore\n        /* \"#utility.yul\":2194:2432   */\n      pop\n        /* \"#utility.yul\":2151:2432   */\n      pop\n      pop\n      jump\t// out\n        /* \"#utility.yul\":2438:2567   */\n    tag_363:\n        /* \"#utility.yul\":2472:2478   */\n      0x00\n        /* \"#utility.yul\":2499:2519   */\n      tag_428\n      tag_352\n      jump\t// in\n    tag_428:\n        /* \"#utility.yul\":2489:2519   */\n      swap1\n      pop\n        /* \"#utility.yul\":2528:2561   */\n      tag_429\n        /* \"#utility.yul\":2556:2560   */\n      dup3\n        /* \"#utility.yul\":2548:2554   */\n      dup3\n        /* \"#utility.yul\":2528:2561   */\n      tag_362\n      jump\t// in\n    tag_429:\n        /* \"#utility.yul\":2438:2567   */\n      swap2\n      swap1\n      pop\n      jump\t// out\n        /* \"#utility.yul\":2573:2881   */\n    tag_364:\n        /* \"#utility.yul\":2635:2639   */\n      0x00\n        /* \"#utility.yul\":2725:2743   */\n      0xffffffffffffffff\n        /* \"#utility.yul\":2717:2723   */\n      dup3\n        /* \"#utility.yul\":2714:2744   */\n      gt\n        /* \"#utility.yul\":2711:2767   */\n      iszero\n      tag_431\n      jumpi\n        /* \"#utility.yul\":2747:2765   */\n      tag_432\n      tag_361\n      jump\t// in\n    tag_432:\n        /* \"#utility.yul\":2711:2767   */\n    tag_431:\n        /* \"#utility.yul\":2785:2814   */\n      tag_433\n        /* \"#utility.yul\":2807:2813   */\n      dup3\n        /* \"#utility.yul\":2785:2814   */\n      tag_360\n      jump\t// in\n    tag_433:\n        /* \"#utility.yul\":2777:2814   */\n      swap1\n      pop\n        /* \"#utility.yul\":2869:2873   */\n      0x20\n        /* \"#utility.yul\":2863:2867   */\n      dup2\n        /* \"#utility.yul\":2859:2874   */\n      add\n        /* \"#utility.yul\":2851:2874   */\n      swap1\n      pop\n        /* \"#utility.yul\":2573:2881   */\n      swap2\n      swap1\n      pop\n      jump\t// out\n        /* \"#utility.yul\":2887:3041   */\n    tag_365:\n        /* \"#utility.yul\":2971:2977   */\n      dup3\n        /* \"#utility.yul\":2966:2969   */\n      dup2\n        /* \"#utility.yul\":2961:2964   */\n      dup4\n        /* \"#utility.yul\":2948:2978   */\n      calldatacopy\n        /* \"#utility.yul\":3033:3034   */\n      0x00\n        /* \"#utility.yul\":3024:3030   */\n      dup4\n        /* \"#utility.yul\":3019:3022   */\n      dup4\n        /* \"#utility.yul\":3015:3031   */\n      add\n        /* \"#utility.yul\":3008:3035   */\n      mstore\n        /* \"#utility.yul\":2887:3041   */\n      pop\n      pop\n      pop\n      jump\t// out\n        /* \"#utility.yul\":3047:3459   */\n    tag_366:\n        /* \"#utility.yul\":3125:3130   */\n      0x00\n        /* \"#utility.yul\":3150:3216   */\n      tag_436\n        /* \"#utility.yul\":3166:3215   */\n      tag_437\n        /* \"#utility.yul\":3208:3214   */\n      dup5\n        /* \"#utility.yul\":3166:3215   */\n      tag_364\n      jump\t// in\n    tag_437:\n        /* \"#utility.yul\":3150:3216   */\n      tag_363\n      jump\t// in\n    tag_436:\n        /* \"#utility.yul\":3141:3216   */\n      swap1\n      pop\n        /* \"#utility.yul\":3239:3245   */\n      dup3\n        /* \"#utility.yul\":3232:3237   */\n      dup2\n        /* \"#utility.yul\":3225:3246   */\n      mstore\n        /* \"#utility.yul\":3277:3281   */\n      0x20\n        /* \"#utility.yul\":3270:3275   */\n      dup2\n        /* \"#utility.yul\":3266:3282   */\n      add\n        /* \"#utility.yul\":3315:3318   */\n      dup5\n        /* \"#utility.yul\":3306:3312   */\n      dup5\n        /* \"#utility.yul\":3301:3304   */\n      dup5\n        /* \"#utility.yul\":3297:3313   */\n      add\n        /* \"#utility.yul\":3294:3319   */\n      gt\n        /* \"#utility.yul\":3291:3403   */\n      iszero\n      tag_438\n      jumpi\n        /* \"#utility.yul\":3322:3401   */\n      tag_439\n      tag_359\n      jump\t// in\n    tag_439:\n        /* \"#utility.yul\":3291:3403   */\n    tag_438:\n        /* \"#utility.yul\":3412:3453   */\n      tag_440\n        /* \"#utility.yul\":3446:3452   */\n      dup5\n        /* \"#utility.yul\":3441:3444   */\n      dup3\n        /* \"#utility.yul\":3436:3439   */\n      dup6\n        /* \"#utility.yul\":3412:3453   */\n      tag_365\n      jump\t// in\n    tag_440:\n        /* \"#utility.yul\":3131:3459   */\n      pop\n        /* \"#utility.yul\":3047:3459   */\n      swap4\n      swap3\n      pop\n      pop\n      pop\n      jump\t// out\n        /* \"#utility.yul\":3479:3819   */\n    tag_367:\n        /* \"#utility.yul\":3535:3540   */\n      0x00\n        /* \"#utility.yul\":3584:3587   */\n      dup3\n        /* \"#utility.yul\":3577:3581   */\n      0x1f\n        /* \"#utility.yul\":3569:3575   */\n      dup4\n        /* \"#utility.yul\":3565:3582   */\n      add\n        /* \"#utility.yul\":3561:3588   */\n      slt\n        /* \"#utility.yul\":3551:3673   */\n      tag_442\n      jumpi\n        /* \"#utility.yul\":3592:3671   */\n      tag_443\n      tag_358\n      jump\t// in\n    tag_443:\n        /* \"#utility.yul\":3551:3673   */\n    tag_442:\n        /* \"#utility.yul\":3709:3715   */\n      dup2\n        /* \"#utility.yul\":3696:3716   */\n      calldataload\n        /* \"#utility.yul\":3734:3813   */\n      tag_444\n        /* \"#utility.yul\":3809:3812   */\n      dup5\n        /* \"#utility.yul\":3801:3807   */\n      dup3\n        /* \"#utility.yul\":3794:3798   */\n      0x20\n        /* \"#utility.yul\":3786:3792   */\n      dup7\n        /* \"#utility.yul\":3782:3799   */\n      add\n        /* \"#utility.yul\":3734:3813   */\n      tag_366\n      jump\t// in\n    tag_444:\n        /* \"#utility.yul\":3725:3813   */\n      swap2\n      pop\n        /* \"#utility.yul\":3541:3819   */\n      pop\n        /* \"#utility.yul\":3479:3819   */\n      swap3\n      swap2\n      pop\n      pop\n      jump\t// out\n        /* \"#utility.yul\":3825:3947   */\n    tag_368:\n        /* \"#utility.yul\":3898:3922   */\n      tag_446\n        /* \"#utility.yul\":3916:3921   */\n      dup2\n        /* \"#utility.yul\":3898:3922   */\n      tag_350\n      jump\t// in\n    tag_446:\n        /* \"#utility.yul\":3891:3896   */\n      dup2\n        /* \"#utility.yul\":3888:3923   */\n      eq\n        /* \"#utility.yul\":3878:3941   */\n      tag_447\n      jumpi\n        /* \"#utility.yul\":3937:3938   */\n      0x00\n        /* \"#utility.yul\":3934:3935   */\n      dup1\n        /* \"#utility.yul\":3927:3939   */\n      revert\n        /* \"#utility.yul\":3878:3941   */\n    tag_447:\n        /* \"#utility.yul\":3825:3947   */\n      pop\n      jump\t// out\n        /* \"#utility.yul\":3953:4092   */\n    tag_369:\n        /* \"#utility.yul\":3999:4004   */\n      0x00\n        /* \"#utility.yul\":4037:4043   */\n      dup2\n        /* \"#utility.yul\":4024:4044   */\n      calldataload\n        /* \"#utility.yul\":4015:4044   */\n      swap1\n      pop\n        /* \"#utility.yul\":4053:4086   */\n      tag_449\n        /* \"#utility.yul\":4080:4085   */\n      dup2\n        /* \"#utility.yul\":4053:4086   */\n      tag_368\n      jump\t// in\n    tag_449:\n        /* \"#utility.yul\":3953:4092   */\n      swap3\n      swap2\n      pop\n      pop\n      jump\t// out\n        /* \"#utility.yul\":4098:5403   */\n    tag_39:\n        /* \"#utility.yul\":4214:4220   */\n      0x00\n        /* \"#utility.yul\":4222:4228   */\n      dup1\n        /* \"#utility.yul\":4230:4236   */\n      0x00\n        /* \"#utility.yul\":4238:4244   */\n      dup1\n        /* \"#utility.yul\":4287:4290   */\n      0x80\n        /* \"#utility.yul\":4275:4284   */\n      dup6\n        /* \"#utility.yul\":4266:4273   */\n      dup8\n        /* \"#utility.yul\":4262:4285   */\n      sub\n        /* \"#utility.yul\":4258:4291   */\n      slt\n        /* \"#utility.yul\":4255:4375   */\n      iszero\n      tag_451\n      jumpi\n        /* \"#utility.yul\":4294:4373   */\n      tag_452\n      tag_353\n      jump\t// in\n    tag_452:\n        /* \"#utility.yul\":4255:4375   */\n    tag_451:\n        /* \"#utility.yul\":4442:4443   */\n      0x00\n        /* \"#utility.yul\":4431:4440   */\n      dup6\n        /* \"#utility.yul\":4427:4444   */\n      add\n        /* \"#utility.yul\":4414:4445   */\n      calldataload\n        /* \"#utility.yul\":4472:4490   */\n      0xffffffffffffffff\n        /* \"#utility.yul\":4464:4470   */\n      dup2\n        /* \"#utility.yul\":4461:4491   */\n      gt\n        /* \"#utility.yul\":4458:4575   */\n      iszero\n      tag_453\n      jumpi\n        /* \"#utility.yul\":4494:4573   */\n      tag_454\n      tag_354\n      jump\t// in\n    tag_454:\n        /* \"#utility.yul\":4458:4575   */\n    tag_453:\n        /* \"#utility.yul\":4599:4662   */\n      tag_455\n        /* \"#utility.yul\":4654:4661   */\n      dup8\n        /* \"#utility.yul\":4645:4651   */\n      dup3\n        /* \"#utility.yul\":4634:4643   */\n      dup9\n        /* \"#utility.yul\":4630:4652   */\n      add\n        /* \"#utility.yul\":4599:4662   */\n      tag_367\n      jump\t// in\n    tag_455:\n        /* \"#utility.yul\":4589:4662   */\n      swap5\n      pop\n        /* \"#utility.yul\":4385:4672   */\n      pop\n        /* \"#utility.yul\":4739:4741   */\n      0x20\n        /* \"#utility.yul\":4728:4737   */\n      dup6\n        /* \"#utility.yul\":4724:4742   */\n      add\n        /* \"#utility.yul\":4711:4743   */\n      calldataload\n        /* \"#utility.yul\":4770:4788   */\n      0xffffffffffffffff\n        /* \"#utility.yul\":4762:4768   */\n      dup2\n        /* \"#utility.yul\":4759:4789   */\n      gt\n        /* \"#utility.yul\":4756:4873   */\n      iszero\n      tag_456\n      jumpi\n        /* \"#utility.yul\":4792:4871   */\n      tag_457\n      tag_354\n      jump\t// in\n    tag_457:\n        /* \"#utility.yul\":4756:4873   */\n    tag_456:\n        /* \"#utility.yul\":4897:4960   */\n      tag_458\n        /* \"#utility.yul\":4952:4959   */\n      dup8\n        /* \"#utility.yul\":4943:4949   */\n      dup3\n        /* \"#utility.yul\":4932:4941   */\n      dup9\n        /* \"#utility.yul\":4928:4950   */\n      add\n        /* \"#utility.yul\":4897:4960   */\n      tag_367\n      jump\t// in\n    tag_458:\n        /* \"#utility.yul\":4887:4960   */\n      swap4\n      pop\n        /* \"#utility.yul\":4682:4970   */\n      pop\n        /* \"#utility.yul\":5037:5039   */\n      0x40\n        /* \"#utility.yul\":5026:5035   */\n      dup6\n        /* \"#utility.yul\":5022:5040   */\n      add\n        /* \"#utility.yul\":5009:5041   */\n      calldataload\n        /* \"#utility.yul\":5068:5086   */\n      0xffffffffffffffff\n        /* \"#utility.yul\":5060:5066   */\n      dup2\n        /* \"#utility.yul\":5057:5087   */\n      gt\n        /* \"#utility.yul\":5054:5171   */\n      iszero\n      tag_459\n      jumpi\n        /* \"#utility.yul\":5090:5169   */\n      tag_460\n      tag_354\n      jump\t// in\n    tag_460:\n        /* \"#utility.yul\":5054:5171   */\n    tag_459:\n        /* \"#utility.yul\":5195:5258   */\n      tag_461\n        /* \"#utility.yul\":5250:5257   */\n      dup8\n        /* \"#utility.yul\":5241:5247   */\n      dup3\n        /* \"#utility.yul\":5230:5239   */\n      dup9\n        /* \"#utility.yul\":5226:5248   */\n      add\n        /* \"#utility.yul\":5195:5258   */\n      tag_367\n      jump\t// in\n    tag_461:\n        /* \"#utility.yul\":5185:5258   */\n      swap3\n      pop\n        /* \"#utility.yul\":4980:5268   */\n      pop\n        /* \"#utility.yul\":5307:5309   */\n      0x60\n        /* \"#utility.yul\":5333:5386   */\n      tag_462\n        /* \"#utility.yul\":5378:5385   */\n      dup8\n        /* \"#utility.yul\":5369:5375   */\n      dup3\n        /* \"#utility.yul\":5358:5367   */\n      dup9\n        /* \"#utility.yul\":5354:5376   */\n      add\n        /* \"#utility.yul\":5333:5386   */\n      tag_369\n      jump\t// in\n    tag_462:\n        /* \"#utility.yul\":5323:5386   */\n      swap2\n      pop\n        /* \"#utility.yul\":5278:5396   */\n      pop\n        /* \"#utility.yul\":4098:5403   */\n      swap3\n      swap6\n      swap2\n      swap5\n      pop\n      swap3\n      pop\n      jump\t// out\n        /* \"#utility.yul\":5409:5533   */\n    tag_370:\n        /* \"#utility.yul\":5486:5492   */\n      0x00\n        /* \"#utility.yul\":5520:5525   */\n      dup2\n        /* \"#utility.yul\":5514:5526   */\n      mload\n        /* \"#utility.yul\":5504:5526   */\n      swap1\n      pop\n        /* \"#utility.yul\":5409:5533   */\n      swap2\n      swap1\n      pop\n      jump\t// out\n        /* \"#utility.yul\":5539:5733   */\n    tag_371:\n        /* \"#utility.yul\":5648:5659   */\n      0x00\n        /* \"#utility.yul\":5682:5688   */\n      dup3\n        /* \"#utility.yul\":5677:5680   */\n      dup3\n        /* \"#utility.yul\":5670:5689   */\n      mstore\n        /* \"#utility.yul\":5722:5726   */\n      0x20\n        /* \"#utility.yul\":5717:5720   */\n      dup3\n        /* \"#utility.yul\":5713:5727   */\n      add\n        /* \"#utility.yul\":5698:5727   */\n      swap1\n      pop\n        /* \"#utility.yul\":5539:5733   */\n      swap3\n      swap2\n      pop\n      pop\n      jump\t// out\n        /* \"#utility.yul\":5739:5881   */\n    tag_372:\n        /* \"#utility.yul\":5816:5820   */\n      0x00\n        /* \"#utility.yul\":5839:5842   */\n      dup2\n        /* \"#utility.yul\":5831:5842   */\n      swap1\n      pop\n        /* \"#utility.yul\":5869:5873   */\n      0x20\n        /* \"#utility.yul\":5864:5867   */\n      dup3\n        /* \"#utility.yul\":5860:5874   */\n      add\n        /* \"#utility.yul\":5852:5874   */\n      swap1\n      pop\n        /* \"#utility.yul\":5739:5881   */\n      swap2\n      swap1\n      pop\n      jump\t// out\n        /* \"#utility.yul\":5887:5986   */\n    tag_373:\n        /* \"#utility.yul\":5939:5945   */\n      0x00\n        /* \"#utility.yul\":5973:5978   */\n      dup2\n        /* \"#utility.yul\":5967:5979   */\n      mload\n        /* \"#utility.yul\":5957:5979   */\n      swap1\n      pop\n        /* \"#utility.yul\":5887:5986   */\n      swap2\n      swap1\n      pop\n      jump\t// out\n        /* \"#utility.yul\":5992:6151   */\n    tag_374:\n        /* \"#utility.yul\":6066:6077   */\n      0x00\n        /* \"#utility.yul\":6100:6106   */\n      dup3\n        /* \"#utility.yul\":6095:6098   */\n      dup3\n        /* \"#utility.yul\":6088:6107   */\n      mstore\n        /* \"#utility.yul\":6140:6144   */\n      0x20\n        /* \"#utility.yul\":6135:6138   */\n      dup3\n        /* \"#utility.yul\":6131:6145   */\n      add\n        /* \"#utility.yul\":6116:6145   */\n      swap1\n      pop\n        /* \"#utility.yul\":5992:6151   */\n      swap3\n      swap2\n      pop\n      pop\n      jump\t// out\n        /* \"#utility.yul\":6157:6464   */\n    tag_375:\n        /* \"#utility.yul\":6225:6226   */\n      0x00\n        /* \"#utility.yul\":6235:6348   */\n    tag_469:\n        /* \"#utility.yul\":6249:6255   */\n      dup4\n        /* \"#utility.yul\":6246:6247   */\n      dup2\n        /* \"#utility.yul\":6243:6256   */\n      lt\n        /* \"#utility.yul\":6235:6348   */\n      iszero\n      tag_471\n      jumpi\n        /* \"#utility.yul\":6334:6335   */\n      dup1\n        /* \"#utility.yul\":6329:6332   */\n      dup3\n        /* \"#utility.yul\":6325:6336   */\n      add\n        /* \"#utility.yul\":6319:6337   */\n      mload\n        /* \"#utility.yul\":6315:6316   */\n      dup2\n        /* \"#utility.yul\":6310:6313   */\n      dup5\n        /* \"#utility.yul\":6306:6317   */\n      add\n        /* \"#utility.yul\":6299:6338   */\n      mstore\n        /* \"#utility.yul\":6271:6273   */\n      0x20\n        /* \"#utility.yul\":6268:6269   */\n      dup2\n        /* \"#utility.yul\":6264:6274   */\n      add\n        /* \"#utility.yul\":6259:6274   */\n      swap1\n      pop\n        /* \"#utility.yul\":6235:6348   */\n      jump(tag_469)\n    tag_471:\n        /* \"#utility.yul\":6366:6372   */\n      dup4\n        /* \"#utility.yul\":6363:6364   */\n      dup2\n        /* \"#utility.yul\":6360:6373   */\n      gt\n        /* \"#utility.yul\":6357:6458   */\n      iszero\n      tag_472\n      jumpi\n        /* \"#utility.yul\":6446:6447   */\n      0x00\n        /* \"#utility.yul\":6437:6443   */\n      dup5\n        /* \"#utility.yul\":6432:6435   */\n      dup5\n        /* \"#utility.yul\":6428:6444   */\n      add\n        /* \"#utility.yul\":6421:6448   */\n      mstore\n        /* \"#utility.yul\":6357:6458   */\n    tag_472:\n        /* \"#utility.yul\":6206:6464   */\n      pop\n        /* \"#utility.yul\":6157:6464   */\n      pop\n      pop\n      pop\n      jump\t// out\n        /* \"#utility.yul\":6470:6814   */\n    tag_376:\n        /* \"#utility.yul\":6548:6551   */\n      0x00\n        /* \"#utility.yul\":6576:6615   */\n      tag_474\n        /* \"#utility.yul\":6609:6614   */\n      dup3\n        /* \"#utility.yul\":6576:6615   */\n      tag_373\n      jump\t// in\n    tag_474:\n        /* \"#utility.yul\":6631:6692   */\n      tag_475\n        /* \"#utility.yul\":6685:6691   */\n      dup2\n        /* \"#utility.yul\":6680:6683   */\n      dup6\n        /* \"#utility.yul\":6631:6692   */\n      tag_374\n      jump\t// in\n    tag_475:\n        /* \"#utility.yul\":6624:6692   */\n      swap4\n      pop\n        /* \"#utility.yul\":6701:6753   */\n      tag_476\n        /* \"#utility.yul\":6746:6752   */\n      dup2\n        /* \"#utility.yul\":6741:6744   */\n      dup6\n        /* \"#utility.yul\":6734:6738   */\n      0x20\n        /* \"#utility.yul\":6727:6732   */\n      dup7\n        /* \"#utility.yul\":6723:6739   */\n      add\n        /* \"#utility.yul\":6701:6753   */\n      tag_375\n      jump\t// in\n    tag_476:\n        /* \"#utility.yul\":6778:6807   */\n      tag_477\n        /* \"#utility.yul\":6800:6806   */\n      dup2\n        /* \"#utility.yul\":6778:6807   */\n      tag_360\n      jump\t// in\n    tag_477:\n        /* \"#utility.yul\":6773:6776   */\n      dup5\n        /* \"#utility.yul\":6769:6808   */\n      add\n        /* \"#utility.yul\":6762:6808   */\n      swap2\n      pop\n        /* \"#utility.yul\":6552:6814   */\n      pop\n        /* \"#utility.yul\":6470:6814   */\n      swap3\n      swap2\n      pop\n      pop\n      jump\t// out\n        /* \"#utility.yul\":6820:7016   */\n    tag_377:\n        /* \"#utility.yul\":6909:6919   */\n      0x00\n        /* \"#utility.yul\":6944:7010   */\n      tag_479\n        /* \"#utility.yul\":7006:7009   */\n      dup4\n        /* \"#utility.yul\":6998:7004   */\n      dup4\n        /* \"#utility.yul\":6944:7010   */\n      tag_376\n      jump\t// in\n    tag_479:\n        /* \"#utility.yul\":6930:7010   */\n      swap1\n      pop\n        /* \"#utility.yul\":6820:7016   */\n      swap3\n      swap2\n      pop\n      pop\n      jump\t// out\n        /* \"#utility.yul\":7022:7145   */\n    tag_378:\n        /* \"#utility.yul\":7102:7106   */\n      0x00\n        /* \"#utility.yul\":7134:7138   */\n      0x20\n        /* \"#utility.yul\":7129:7132   */\n      dup3\n        /* \"#utility.yul\":7125:7139   */\n      add\n        /* \"#utility.yul\":7117:7139   */\n      swap1\n      pop\n        /* \"#utility.yul\":7022:7145   */\n      swap2\n      swap1\n      pop\n      jump\t// out\n        /* \"#utility.yul\":7179:8170   */\n    tag_379:\n        /* \"#utility.yul\":7318:7321   */\n      0x00\n        /* \"#utility.yul\":7347:7411   */\n      tag_482\n        /* \"#utility.yul\":7405:7410   */\n      dup3\n        /* \"#utility.yul\":7347:7411   */\n      tag_370\n      jump\t// in\n    tag_482:\n        /* \"#utility.yul\":7427:7523   */\n      tag_483\n        /* \"#utility.yul\":7516:7522   */\n      dup2\n        /* \"#utility.yul\":7511:7514   */\n      dup6\n        /* \"#utility.yul\":7427:7523   */\n      tag_371\n      jump\t// in\n    tag_483:\n        /* \"#utility.yul\":7420:7523   */\n      swap4\n      pop\n        /* \"#utility.yul\":7549:7552   */\n      dup4\n        /* \"#utility.yul\":7594:7598   */\n      0x20\n        /* \"#utility.yul\":7586:7592   */\n      dup3\n        /* \"#utility.yul\":7582:7599   */\n      mul\n        /* \"#utility.yul\":7577:7580   */\n      dup6\n        /* \"#utility.yul\":7573:7600   */\n      add\n        /* \"#utility.yul\":7624:7690   */\n      tag_484\n        /* \"#utility.yul\":7684:7689   */\n      dup6\n        /* \"#utility.yul\":7624:7690   */\n      tag_372\n      jump\t// in\n    tag_484:\n        /* \"#utility.yul\":7713:7720   */\n      dup1\n        /* \"#utility.yul\":7744:7745   */\n      0x00\n        /* \"#utility.yul\":7729:8125   */\n    tag_485:\n        /* \"#utility.yul\":7754:7760   */\n      dup6\n        /* \"#utility.yul\":7751:7752   */\n      dup2\n        /* \"#utility.yul\":7748:7761   */\n      lt\n        /* \"#utility.yul\":7729:8125   */\n      iszero\n      tag_487\n      jumpi\n        /* \"#utility.yul\":7825:7834   */\n      dup5\n        /* \"#utility.yul\":7819:7823   */\n      dup5\n        /* \"#utility.yul\":7815:7835   */\n      sub\n        /* \"#utility.yul\":7810:7813   */\n      dup10\n        /* \"#utility.yul\":7803:7836   */\n      mstore\n        /* \"#utility.yul\":7876:7882   */\n      dup2\n        /* \"#utility.yul\":7870:7883   */\n      mload\n        /* \"#utility.yul\":7904:7988   */\n      tag_488\n        /* \"#utility.yul\":7983:7987   */\n      dup6\n        /* \"#utility.yul\":7968:7981   */\n      dup3\n        /* \"#utility.yul\":7904:7988   */\n      tag_377\n      jump\t// in\n    tag_488:\n        /* \"#utility.yul\":7896:7988   */\n      swap5\n      pop\n        /* \"#utility.yul\":8011:8081   */\n      tag_489\n        /* \"#utility.yul\":8074:8080   */\n      dup4\n        /* \"#utility.yul\":8011:8081   */\n      tag_378\n      jump\t// in\n    tag_489:\n        /* \"#utility.yul\":8001:8081   */\n      swap3\n      pop\n        /* \"#utility.yul\":8110:8114   */\n      0x20\n        /* \"#utility.yul\":8105:8108   */\n      dup11\n        /* \"#utility.yul\":8101:8115   */\n      add\n        /* \"#utility.yul\":8094:8115   */\n      swap10\n      pop\n        /* \"#utility.yul\":7789:8125   */\n      pop\n        /* \"#utility.yul\":7776:7777   */\n      0x01\n        /* \"#utility.yul\":7773:7774   */\n      dup2\n        /* \"#utility.yul\":7769:7778   */\n      add\n        /* \"#utility.yul\":7764:7778   */\n      swap1\n      pop\n        /* \"#utility.yul\":7729:8125   */\n      jump(tag_485)\n    tag_487:\n        /* \"#utility.yul\":7733:7747   */\n      pop\n        /* \"#utility.yul\":8141:8145   */\n      dup3\n        /* \"#utility.yul\":8134:8145   */\n      swap8\n      pop\n        /* \"#utility.yul\":8161:8164   */\n      dup8\n        /* \"#utility.yul\":8154:8164   */\n      swap6\n      pop\n        /* \"#utility.yul\":7323:8170   */\n      pop\n      pop\n      pop\n      pop\n      pop\n        /* \"#utility.yul\":7179:8170   */\n      swap3\n      swap2\n      pop\n      pop\n      jump\t// out\n        /* \"#utility.yul\":8176:8589   */\n    tag_44:\n        /* \"#utility.yul\":8339:8343   */\n      0x00\n        /* \"#utility.yul\":8377:8379   */\n      0x20\n        /* \"#utility.yul\":8366:8375   */\n      dup3\n        /* \"#utility.yul\":8362:8380   */\n      add\n        /* \"#utility.yul\":8354:8380   */\n      swap1\n      pop\n        /* \"#utility.yul\":8426:8435   */\n      dup2\n        /* \"#utility.yul\":8420:8424   */\n      dup2\n        /* \"#utility.yul\":8416:8436   */\n      sub\n        /* \"#utility.yul\":8412:8413   */\n      0x00\n        /* \"#utility.yul\":8401:8410   */\n      dup4\n        /* \"#utility.yul\":8397:8414   */\n      add\n        /* \"#utility.yul\":8390:8437   */\n      mstore\n        /* \"#utility.yul\":8454:8582   */\n      tag_491\n        /* \"#utility.yul\":8577:8581   */\n      dup2\n        /* \"#utility.yul\":8568:8574   */\n      dup5\n        /* \"#utility.yul\":8454:8582   */\n      tag_379\n      jump\t// in\n    tag_491:\n        /* \"#utility.yul\":8446:8582   */\n      swap1\n      pop\n        /* \"#utility.yul\":8176:8589   */\n      swap3\n      swap2\n      pop\n      pop\n      jump\t// out\n        /* \"#utility.yul\":8595:8924   */\n    tag_47:\n        /* \"#utility.yul\":8654:8660   */\n      0x00\n        /* \"#utility.yul\":8703:8705   */\n      0x20\n        /* \"#utility.yul\":8691:8700   */\n      dup3\n        /* \"#utility.yul\":8682:8689   */\n      dup5\n        /* \"#utility.yul\":8678:8701   */\n      sub\n        /* \"#utility.yul\":8674:8706   */\n      slt\n        /* \"#utility.yul\":8671:8790   */\n      iszero\n      tag_493\n      jumpi\n        /* \"#utility.yul\":8709:8788   */\n      tag_494\n      tag_353\n      jump\t// in\n    tag_494:\n        /* \"#utility.yul\":8671:8790   */\n    tag_493:\n        /* \"#utility.yul\":8829:8830   */\n      0x00\n        /* \"#utility.yul\":8854:8907   */\n      tag_495\n        /* \"#utility.yul\":8899:8906   */\n      dup5\n        /* \"#utility.yul\":8890:8896   */\n      dup3\n        /* \"#utility.yul\":8879:8888   */\n      dup6\n        /* \"#utility.yul\":8875:8897   */\n      add\n        /* \"#utility.yul\":8854:8907   */\n      tag_369\n      jump\t// in\n    tag_495:\n        /* \"#utility.yul\":8844:8907   */\n      swap2\n      pop\n        /* \"#utility.yul\":8800:8917   */\n      pop\n        /* \"#utility.yul\":8595:8924   */\n      swap3\n      swap2\n      pop\n      pop\n      jump\t// out\n        /* \"#utility.yul\":8930:9048   */\n    tag_380:\n        /* \"#utility.yul\":9017:9041   */\n      tag_497\n        /* \"#utility.yul\":9035:9040   */\n      dup2\n        /* \"#utility.yul\":9017:9041   */\n      tag_355\n      jump\t// in\n    tag_497:\n        /* \"#utility.yul\":9012:9015   */\n      dup3\n        /* \"#utility.yul\":9005:9042   */\n      mstore\n        /* \"#utility.yul\":8930:9048   */\n      pop\n      pop\n      jump\t// out\n        /* \"#utility.yul\":9054:9276   */\n    tag_52:\n        /* \"#utility.yul\":9147:9151   */\n      0x00\n        /* \"#utility.yul\":9185:9187   */\n      0x20\n        /* \"#utility.yul\":9174:9183   */\n      dup3\n        /* \"#utility.yul\":9170:9188   */\n      add\n        /* \"#utility.yul\":9162:9188   */\n      swap1\n      pop\n        /* \"#utility.yul\":9198:9269   */\n      tag_499\n        /* \"#utility.yul\":9266:9267   */\n      0x00\n        /* \"#utility.yul\":9255:9264   */\n      dup4\n        /* \"#utility.yul\":9251:9268   */\n      add\n        /* \"#utility.yul\":9242:9248   */\n      dup5\n        /* \"#utility.yul\":9198:9269   */\n      tag_380\n      jump\t// in\n    tag_499:\n        /* \"#utility.yul\":9054:9276   */\n      swap3\n      swap2\n      pop\n      pop\n      jump\t// out\n        /* \"#utility.yul\":9282:12071   */\n    tag_55:\n        /* \"#utility.yul\":9484:9490   */\n      0x00\n        /* \"#utility.yul\":9492:9498   */\n      dup1\n        /* \"#utility.yul\":9500:9506   */\n      0x00\n        /* \"#utility.yul\":9508:9514   */\n      dup1\n        /* \"#utility.yul\":9516:9522   */\n      0x00\n        /* \"#utility.yul\":9524:9530   */\n      dup1\n        /* \"#utility.yul\":9532:9538   */\n      0x00\n        /* \"#utility.yul\":9540:9546   */\n      dup1\n        /* \"#utility.yul\":9589:9592   */\n      0x0100\n        /* \"#utility.yul\":9577:9586   */\n      dup10\n        /* \"#utility.yul\":9568:9575   */\n      dup12\n        /* \"#utility.yul\":9564:9587   */\n      sub\n        /* \"#utility.yul\":9560:9593   */\n      slt\n        /* \"#utility.yul\":9557:9677   */\n      iszero\n      tag_501\n      jumpi\n        /* \"#utility.yul\":9596:9675   */\n      tag_502\n      tag_353\n      jump\t// in\n    tag_502:\n        /* \"#utility.yul\":9557:9677   */\n    tag_501:\n        /* \"#utility.yul\":9744:9745   */\n      0x00\n        /* \"#utility.yul\":9733:9742   */\n      dup10\n        /* \"#utility.yul\":9729:9746   */\n      add\n        /* \"#utility.yul\":9716:9747   */\n      calldataload\n        /* \"#utility.yul\":9774:9792   */\n      0xffffffffffffffff\n        /* \"#utility.yul\":9766:9772   */\n      dup2\n        /* \"#utility.yul\":9763:9793   */\n      gt\n        /* \"#utility.yul\":9760:9877   */\n      iszero\n      tag_503\n      jumpi\n        /* \"#utility.yul\":9796:9875   */\n      tag_504\n      tag_354\n      jump\t// in\n    tag_504:\n        /* \"#utility.yul\":9760:9877   */\n    tag_503:\n        /* \"#utility.yul\":9901:9964   */\n      tag_505\n        /* \"#utility.yul\":9956:9963   */\n      dup12\n        /* \"#utility.yul\":9947:9953   */\n      dup3\n        /* \"#utility.yul\":9936:9945   */\n      dup13\n        /* \"#utility.yul\":9932:9954   */\n      add\n        /* \"#utility.yul\":9901:9964   */\n      tag_367\n      jump\t// in\n    tag_505:\n        /* \"#utility.yul\":9891:9964   */\n      swap9\n      pop\n        /* \"#utility.yul\":9687:9974   */\n      pop\n        /* \"#utility.yul\":10041:10043   */\n      0x20\n        /* \"#utility.yul\":10030:10039   */\n      dup10\n        /* \"#utility.yul\":10026:10044   */\n      add\n        /* \"#utility.yul\":10013:10045   */\n      calldataload\n        /* \"#utility.yul\":10072:10090   */\n      0xffffffffffffffff\n        /* \"#utility.yul\":10064:10070   */\n      dup2\n        /* \"#utility.yul\":10061:10091   */\n      gt\n        /* \"#utility.yul\":10058:10175   */\n      iszero\n      tag_506\n      jumpi\n        /* \"#utility.yul\":10094:10173   */\n      tag_507\n      tag_354\n      jump\t// in\n    tag_507:\n        /* \"#utility.yul\":10058:10175   */\n    tag_506:\n        /* \"#utility.yul\":10199:10262   */\n      tag_508\n        /* \"#utility.yul\":10254:10261   */\n      dup12\n        /* \"#utility.yul\":10245:10251   */\n      dup3\n        /* \"#utility.yul\":10234:10243   */\n      dup13\n        /* \"#utility.yul\":10230:10252   */\n      add\n        /* \"#utility.yul\":10199:10262   */\n      tag_367\n      jump\t// in\n    tag_508:\n        /* \"#utility.yul\":10189:10262   */\n      swap8\n      pop\n        /* \"#utility.yul\":9984:10272   */\n      pop\n        /* \"#utility.yul\":10339:10341   */\n      0x40\n        /* \"#utility.yul\":10328:10337   */\n      dup10\n        /* \"#utility.yul\":10324:10342   */\n      add\n        /* \"#utility.yul\":10311:10343   */\n      calldataload\n        /* \"#utility.yul\":10370:10388   */\n      0xffffffffffffffff\n        /* \"#utility.yul\":10362:10368   */\n      dup2\n        /* \"#utility.yul\":10359:10389   */\n      gt\n        /* \"#utility.yul\":10356:10473   */\n      iszero\n      tag_509\n      jumpi\n        /* \"#utility.yul\":10392:10471   */\n      tag_510\n      tag_354\n      jump\t// in\n    tag_510:\n        /* \"#utility.yul\":10356:10473   */\n    tag_509:\n        /* \"#utility.yul\":10497:10560   */\n      tag_511\n        /* \"#utility.yul\":10552:10559   */\n      dup12\n        /* \"#utility.yul\":10543:10549   */\n      dup3\n        /* \"#utility.yul\":10532:10541   */\n      dup13\n        /* \"#utility.yul\":10528:10550   */\n      add\n        /* \"#utility.yul\":10497:10560   */\n      tag_367\n      jump\t// in\n    tag_511:\n        /* \"#utility.yul\":10487:10560   */\n      swap7\n      pop\n        /* \"#utility.yul\":10282:10570   */\n      pop\n        /* \"#utility.yul\":10637:10639   */\n      0x60\n        /* \"#utility.yul\":10626:10635   */\n      dup10\n        /* \"#utility.yul\":10622:10640   */\n      add\n        /* \"#utility.yul\":10609:10641   */\n      calldataload\n        /* \"#utility.yul\":10668:10686   */\n      0xffffffffffffffff\n        /* \"#utility.yul\":10660:10666   */\n      dup2\n        /* \"#utility.yul\":10657:10687   */\n      gt\n        /* \"#utility.yul\":10654:10771   */\n      iszero\n      tag_512\n      jumpi\n        /* \"#utility.yul\":10690:10769   */\n      tag_513\n      tag_354\n      jump\t// in\n    tag_513:\n        /* \"#utility.yul\":10654:10771   */\n    tag_512:\n        /* \"#utility.yul\":10795:10858   */\n      tag_514\n        /* \"#utility.yul\":10850:10857   */\n      dup12\n        /* \"#utility.yul\":10841:10847   */\n      dup3\n        /* \"#utility.yul\":10830:10839   */\n      dup13\n        /* \"#utility.yul\":10826:10848   */\n      add\n        /* \"#utility.yul\":10795:10858   */\n      tag_367\n      jump\t// in\n    tag_514:\n        /* \"#utility.yul\":10785:10858   */\n      swap6\n      pop\n        /* \"#utility.yul\":10580:10868   */\n      pop\n        /* \"#utility.yul\":10935:10938   */\n      0x80\n        /* \"#utility.yul\":10924:10933   */\n      dup10\n        /* \"#utility.yul\":10920:10939   */\n      add\n        /* \"#utility.yul\":10907:10940   */\n      calldataload\n        /* \"#utility.yul\":10967:10985   */\n      0xffffffffffffffff\n        /* \"#utility.yul\":10959:10965   */\n      dup2\n        /* \"#utility.yul\":10956:10986   */\n      gt\n        /* \"#utility.yul\":10953:11070   */\n      iszero\n      tag_515\n      jumpi\n        /* \"#utility.yul\":10989:11068   */\n      tag_516\n      tag_354\n      jump\t// in\n    tag_516:\n        /* \"#utility.yul\":10953:11070   */\n    tag_515:\n        /* \"#utility.yul\":11094:11157   */\n      tag_517\n        /* \"#utility.yul\":11149:11156   */\n      dup12\n        /* \"#utility.yul\":11140:11146   */\n      dup3\n        /* \"#utility.yul\":11129:11138   */\n      dup13\n        /* \"#utility.yul\":11125:11147   */\n      add\n        /* \"#utility.yul\":11094:11157   */\n      tag_367\n      jump\t// in\n    tag_517:\n        /* \"#utility.yul\":11084:11157   */\n      swap5\n      pop\n        /* \"#utility.yul\":10878:11167   */\n      pop\n        /* \"#utility.yul\":11234:11237   */\n      0xa0\n        /* \"#utility.yul\":11223:11232   */\n      dup10\n        /* \"#utility.yul\":11219:11238   */\n      add\n        /* \"#utility.yul\":11206:11239   */\n      calldataload\n        /* \"#utility.yul\":11266:11284   */\n      0xffffffffffffffff\n        /* \"#utility.yul\":11258:11264   */\n      dup2\n        /* \"#utility.yul\":11255:11285   */\n      gt\n        /* \"#utility.yul\":11252:11369   */\n      iszero\n      tag_518\n      jumpi\n        /* \"#utility.yul\":11288:11367   */\n      tag_519\n      tag_354\n      jump\t// in\n    tag_519:\n        /* \"#utility.yul\":11252:11369   */\n    tag_518:\n        /* \"#utility.yul\":11393:11456   */\n      tag_520\n        /* \"#utility.yul\":11448:11455   */\n      dup12\n        /* \"#utility.yul\":11439:11445   */\n      dup3\n        /* \"#utility.yul\":11428:11437   */\n      dup13\n        /* \"#utility.yul\":11424:11446   */\n      add\n        /* \"#utility.yul\":11393:11456   */\n      tag_367\n      jump\t// in\n    tag_520:\n        /* \"#utility.yul\":11383:11456   */\n      swap4\n      pop\n        /* \"#utility.yul\":11177:11466   */\n      pop\n        /* \"#utility.yul\":11533:11536   */\n      0xc0\n        /* \"#utility.yul\":11522:11531   */\n      dup10\n        /* \"#utility.yul\":11518:11537   */\n      add\n        /* \"#utility.yul\":11505:11538   */\n      calldataload\n        /* \"#utility.yul\":11565:11583   */\n      0xffffffffffffffff\n        /* \"#utility.yul\":11557:11563   */\n      dup2\n        /* \"#utility.yul\":11554:11584   */\n      gt\n        /* \"#utility.yul\":11551:11668   */\n      iszero\n      tag_521\n      jumpi\n        /* \"#utility.yul\":11587:11666   */\n      tag_522\n      tag_354\n      jump\t// in\n    tag_522:\n        /* \"#utility.yul\":11551:11668   */\n    tag_521:\n        /* \"#utility.yul\":11692:11755   */\n      tag_523\n        /* \"#utility.yul\":11747:11754   */\n      dup12\n        /* \"#utility.yul\":11738:11744   */\n      dup3\n        /* \"#utility.yul\":11727:11736   */\n      dup13\n        /* \"#utility.yul\":11723:11745   */\n      add\n        /* \"#utility.yul\":11692:11755   */\n      tag_367\n      jump\t// in\n    tag_523:\n        /* \"#utility.yul\":11682:11755   */\n      swap3\n      pop\n        /* \"#utility.yul\":11476:11765   */\n      pop\n        /* \"#utility.yul\":11832:11835   */\n      0xe0\n        /* \"#utility.yul\":11821:11830   */\n      dup10\n        /* \"#utility.yul\":11817:11836   */\n      add\n        /* \"#utility.yul\":11804:11837   */\n      calldataload\n        /* \"#utility.yul\":11864:11882   */\n      0xffffffffffffffff\n        /* \"#utility.yul\":11856:11862   */\n      dup2\n        /* \"#utility.yul\":11853:11883   */\n      gt\n        /* \"#utility.yul\":11850:11967   */\n      iszero\n      tag_524\n      jumpi\n        /* \"#utility.yul\":11886:11965   */\n      tag_525\n      tag_354\n      jump\t// in\n    tag_525:\n        /* \"#utility.yul\":11850:11967   */\n    tag_524:\n        /* \"#utility.yul\":11991:12054   */\n      tag_526\n        /* \"#utility.yul\":12046:12053   */\n      dup12\n        /* \"#utility.yul\":12037:12043   */\n      dup3\n        /* \"#utility.yul\":12026:12035   */\n      dup13\n        /* \"#utility.yul\":12022:12044   */\n      add\n        /* \"#utility.yul\":11991:12054   */\n      tag_367\n      jump\t// in\n    tag_526:\n        /* \"#utility.yul\":11981:12054   */\n      swap2\n      pop\n        /* \"#utility.yul\":11775:12064   */\n      pop\n        /* \"#utility.yul\":9282:12071   */\n      swap3\n      swap6\n      swap9\n      pop\n      swap3\n      swap6\n      swap9\n      swap1\n      swap4\n      swap7\n      pop\n      jump\t// out\n        /* \"#utility.yul\":12077:12246   */\n    tag_381:\n        /* \"#utility.yul\":12161:12172   */\n      0x00\n        /* \"#utility.yul\":12195:12201   */\n      dup3\n        /* \"#utility.yul\":12190:12193   */\n      dup3\n        /* \"#utility.yul\":12183:12202   */\n      mstore\n        /* \"#utility.yul\":12235:12239   */\n      0x20\n        /* \"#utility.yul\":12230:12233   */\n      dup3\n        /* \"#utility.yul\":12226:12240   */\n      add\n        /* \"#utility.yul\":12211:12240   */\n      swap1\n      pop\n        /* \"#utility.yul\":12077:12246   */\n      swap3\n      swap2\n      pop\n      pop\n      jump\t// out\n        /* \"#utility.yul\":12252:12616   */\n    tag_382:\n        /* \"#utility.yul\":12340:12343   */\n      0x00\n        /* \"#utility.yul\":12368:12407   */\n      tag_529\n        /* \"#utility.yul\":12401:12406   */\n      dup3\n        /* \"#utility.yul\":12368:12407   */\n      tag_373\n      jump\t// in\n    tag_529:\n        /* \"#utility.yul\":12423:12494   */\n      tag_530\n        /* \"#utility.yul\":12487:12493   */\n      dup2\n        /* \"#utility.yul\":12482:12485   */\n      dup6\n        /* \"#utility.yul\":12423:12494   */\n      tag_381\n      jump\t// in\n    tag_530:\n        /* \"#utility.yul\":12416:12494   */\n      swap4\n      pop\n        /* \"#utility.yul\":12503:12555   */\n      tag_531\n        /* \"#utility.yul\":12548:12554   */\n      dup2\n        /* \"#utility.yul\":12543:12546   */\n      dup6\n        /* \"#utility.yul\":12536:12540   */\n      0x20\n        /* \"#utility.yul\":12529:12534   */\n      dup7\n        /* \"#utility.yul\":12525:12541   */\n      add\n        /* \"#utility.yul\":12503:12555   */\n      tag_375\n      jump\t// in\n    tag_531:\n        /* \"#utility.yul\":12580:12609   */\n      tag_532\n        /* \"#utility.yul\":12602:12608   */\n      dup2\n        /* \"#utility.yul\":12580:12609   */\n      tag_360\n      jump\t// in\n    tag_532:\n        /* \"#utility.yul\":12575:12578   */\n      dup5\n        /* \"#utility.yul\":12571:12610   */\n      add\n        /* \"#utility.yul\":12564:12610   */\n      swap2\n      pop\n        /* \"#utility.yul\":12344:12616   */\n      pop\n        /* \"#utility.yul\":12252:12616   */\n      swap3\n      swap2\n      pop\n      pop\n      jump\t// out\n        /* \"#utility.yul\":12622:12935   */\n    tag_61:\n        /* \"#utility.yul\":12735:12739   */\n      0x00\n        /* \"#utility.yul\":12773:12775   */\n      0x20\n        /* \"#utility.yul\":12762:12771   */\n      dup3\n        /* \"#utility.yul\":12758:12776   */\n      add\n        /* \"#utility.yul\":12750:12776   */\n      swap1\n      pop\n        /* \"#utility.yul\":12822:12831   */\n      dup2\n        /* \"#utility.yul\":12816:12820   */\n      dup2\n        /* \"#utility.yul\":12812:12832   */\n      sub\n        /* \"#utility.yul\":12808:12809   */\n      0x00\n        /* \"#utility.yul\":12797:12806   */\n      dup4\n        /* \"#utility.yul\":12793:12810   */\n      add\n        /* \"#utility.yul\":12786:12833   */\n      mstore\n        /* \"#utility.yul\":12850:12928   */\n      tag_534\n        /* \"#utility.yul\":12923:12927   */\n      dup2\n        /* \"#utility.yul\":12914:12920   */\n      dup5\n        /* \"#utility.yul\":12850:12928   */\n      tag_382\n      jump\t// in\n    tag_534:\n        /* \"#utility.yul\":12842:12928   */\n      swap1\n      pop\n        /* \"#utility.yul\":12622:12935   */\n      swap3\n      swap2\n      pop\n      pop\n      jump\t// out\n        /* \"#utility.yul\":12941:13031   */\n    tag_383:\n        /* \"#utility.yul\":12975:12982   */\n      0x00\n        /* \"#utility.yul\":13018:13023   */\n      dup2\n        /* \"#utility.yul\":13011:13024   */\n      iszero\n        /* \"#utility.yul\":13004:13025   */\n      iszero\n        /* \"#utility.yul\":12993:13025   */\n      swap1\n      pop\n        /* \"#utility.yul\":12941:13031   */\n      swap2\n      swap1\n      pop\n      jump\t// out\n        /* \"#utility.yul\":13037:13146   */\n    tag_384:\n        /* \"#utility.yul\":13118:13139   */\n      tag_537\n        /* \"#utility.yul\":13133:13138   */\n      dup2\n        /* \"#utility.yul\":13118:13139   */\n      tag_383\n      jump\t// in\n    tag_537:\n        /* \"#utility.yul\":13113:13116   */\n      dup3\n        /* \"#utility.yul\":13106:13140   */\n      mstore\n        /* \"#utility.yul\":13037:13146   */\n      pop\n      pop\n      jump\t// out\n        /* \"#utility.yul\":13152:14077   */\n    tag_69:\n        /* \"#utility.yul\":13411:13415   */\n      0x00\n        /* \"#utility.yul\":13449:13452   */\n      0xa0\n        /* \"#utility.yul\":13438:13447   */\n      dup3\n        /* \"#utility.yul\":13434:13453   */\n      add\n        /* \"#utility.yul\":13426:13453   */\n      swap1\n      pop\n        /* \"#utility.yul\":13499:13508   */\n      dup2\n        /* \"#utility.yul\":13493:13497   */\n      dup2\n        /* \"#utility.yul\":13489:13509   */\n      sub\n        /* \"#utility.yul\":13485:13486   */\n      0x00\n        /* \"#utility.yul\":13474:13483   */\n      dup4\n        /* \"#utility.yul\":13470:13487   */\n      add\n        /* \"#utility.yul\":13463:13510   */\n      mstore\n        /* \"#utility.yul\":13527:13605   */\n      tag_539\n        /* \"#utility.yul\":13600:13604   */\n      dup2\n        /* \"#utility.yul\":13591:13597   */\n      dup9\n        /* \"#utility.yul\":13527:13605   */\n      tag_382\n      jump\t// in\n    tag_539:\n        /* \"#utility.yul\":13519:13605   */\n      swap1\n      pop\n        /* \"#utility.yul\":13652:13661   */\n      dup2\n        /* \"#utility.yul\":13646:13650   */\n      dup2\n        /* \"#utility.yul\":13642:13662   */\n      sub\n        /* \"#utility.yul\":13637:13639   */\n      0x20\n        /* \"#utility.yul\":13626:13635   */\n      dup4\n        /* \"#utility.yul\":13622:13640   */\n      add\n        /* \"#utility.yul\":13615:13663   */\n      mstore\n        /* \"#utility.yul\":13680:13758   */\n      tag_540\n        /* \"#utility.yul\":13753:13757   */\n      dup2\n        /* \"#utility.yul\":13744:13750   */\n      dup8\n        /* \"#utility.yul\":13680:13758   */\n      tag_382\n      jump\t// in\n    tag_540:\n        /* \"#utility.yul\":13672:13758   */\n      swap1\n      pop\n        /* \"#utility.yul\":13768:13840   */\n      tag_541\n        /* \"#utility.yul\":13836:13838   */\n      0x40\n        /* \"#utility.yul\":13825:13834   */\n      dup4\n        /* \"#utility.yul\":13821:13839   */\n      add\n        /* \"#utility.yul\":13812:13818   */\n      dup7\n        /* \"#utility.yul\":13768:13840   */\n      tag_351\n      jump\t// in\n    tag_541:\n        /* \"#utility.yul\":13887:13896   */\n      dup2\n        /* \"#utility.yul\":13881:13885   */\n      dup2\n        /* \"#utility.yul\":13877:13897   */\n      sub\n        /* \"#utility.yul\":13872:13874   */\n      0x60\n        /* \"#utility.yul\":13861:13870   */\n      dup4\n        /* \"#utility.yul\":13857:13875   */\n      add\n        /* \"#utility.yul\":13850:13898   */\n      mstore\n        /* \"#utility.yul\":13915:13993   */\n      tag_542\n        /* \"#utility.yul\":13988:13992   */\n      dup2\n        /* \"#utility.yul\":13979:13985   */\n      dup6\n        /* \"#utility.yul\":13915:13993   */\n      tag_382\n      jump\t// in\n    tag_542:\n        /* \"#utility.yul\":13907:13993   */\n      swap1\n      pop\n        /* \"#utility.yul\":14003:14070   */\n      tag_543\n        /* \"#utility.yul\":14065:14068   */\n      0x80\n        /* \"#utility.yul\":14054:14063   */\n      dup4\n        /* \"#utility.yul\":14050:14069   */\n      add\n        /* \"#utility.yul\":14041:14047   */\n      dup5\n        /* \"#utility.yul\":14003:14070   */\n      tag_384\n      jump\t// in\n    tag_543:\n        /* \"#utility.yul\":13152:14077   */\n      swap7\n      swap6\n      pop\n      pop\n      pop\n      pop\n      pop\n      pop\n      jump\t// out\n        /* \"#utility.yul\":14083:14197   */\n    tag_385:\n        /* \"#utility.yul\":14150:14156   */\n      0x00\n        /* \"#utility.yul\":14184:14189   */\n      dup2\n        /* \"#utility.yul\":14178:14190   */\n      mload\n        /* \"#utility.yul\":14168:14190   */\n      swap1\n      pop\n        /* \"#utility.yul\":14083:14197   */\n      swap2\n      swap1\n      pop\n      jump\t// out\n        /* \"#utility.yul\":14203:14387   */\n    tag_386:\n        /* \"#utility.yul\":14302:14313   */\n      0x00\n        /* \"#utility.yul\":14336:14342   */\n      dup3\n        /* \"#utility.yul\":14331:14334   */\n      dup3\n        /* \"#utility.yul\":14324:14343   */\n      mstore\n        /* \"#utility.yul\":14376:14380   */\n      0x20\n        /* \"#utility.yul\":14371:14374   */\n      dup3\n        /* \"#utility.yul\":14367:14381   */\n      add\n        /* \"#utility.yul\":14352:14381   */\n      swap1\n      pop\n        /* \"#utility.yul\":14203:14387   */\n      swap3\n      swap2\n      pop\n      pop\n      jump\t// out\n        /* \"#utility.yul\":14393:14525   */\n    tag_387:\n        /* \"#utility.yul\":14460:14464   */\n      0x00\n        /* \"#utility.yul\":14483:14486   */\n      dup2\n        /* \"#utility.yul\":14475:14486   */\n      swap1\n      pop\n        /* \"#utility.yul\":14513:14517   */\n      0x20\n        /* \"#utility.yul\":14508:14511   */\n      dup3\n        /* \"#utility.yul\":14504:14518   */\n      add\n        /* \"#utility.yul\":14496:14518   */\n      swap1\n      pop\n        /* \"#utility.yul\":14393:14525   */\n      swap2\n      swap1\n      pop\n      jump\t// out\n        /* \"#utility.yul\":14531:14639   */\n    tag_388:\n        /* \"#utility.yul\":14608:14632   */\n      tag_548\n        /* \"#utility.yul\":14626:14631   */\n      dup2\n        /* \"#utility.yul\":14608:14632   */\n      tag_350\n      jump\t// in\n    tag_548:\n        /* \"#utility.yul\":14603:14606   */\n      dup3\n        /* \"#utility.yul\":14596:14633   */\n      mstore\n        /* \"#utility.yul\":14531:14639   */\n      pop\n      pop\n      jump\t// out\n        /* \"#utility.yul\":14645:14824   */\n    tag_389:\n        /* \"#utility.yul\":14714:14724   */\n      0x00\n        /* \"#utility.yul\":14735:14781   */\n      tag_550\n        /* \"#utility.yul\":14777:14780   */\n      dup4\n        /* \"#utility.yul\":14769:14775   */\n      dup4\n        /* \"#utility.yul\":14735:14781   */\n      tag_388\n      jump\t// in\n    tag_550:\n        /* \"#utility.yul\":14813:14817   */\n      0x20\n        /* \"#utility.yul\":14808:14811   */\n      dup4\n        /* \"#utility.yul\":14804:14818   */\n      add\n        /* \"#utility.yul\":14790:14818   */\n      swap1\n      pop\n        /* \"#utility.yul\":14645:14824   */\n      swap3\n      swap2\n      pop\n      pop\n      jump\t// out\n        /* \"#utility.yul\":14830:14943   */\n    tag_390:\n        /* \"#utility.yul\":14900:14904   */\n      0x00\n        /* \"#utility.yul\":14932:14936   */\n      0x20\n        /* \"#utility.yul\":14927:14930   */\n      dup3\n        /* \"#utility.yul\":14923:14937   */\n      add\n        /* \"#utility.yul\":14915:14937   */\n      swap1\n      pop\n        /* \"#utility.yul\":14830:14943   */\n      swap2\n      swap1\n      pop\n      jump\t// out\n        /* \"#utility.yul\":14979:15711   */\n    tag_391:\n        /* \"#utility.yul\":15098:15101   */\n      0x00\n        /* \"#utility.yul\":15127:15181   */\n      tag_553\n        /* \"#utility.yul\":15175:15180   */\n      dup3\n        /* \"#utility.yul\":15127:15181   */\n      tag_385\n      jump\t// in\n    tag_553:\n        /* \"#utility.yul\":15197:15283   */\n      tag_554\n        /* \"#utility.yul\":15276:15282   */\n      dup2\n        /* \"#utility.yul\":15271:15274   */\n      dup6\n        /* \"#utility.yul\":15197:15283   */\n      tag_386\n      jump\t// in\n    tag_554:\n        /* \"#utility.yul\":15190:15283   */\n      swap4\n      pop\n        /* \"#utility.yul\":15307:15363   */\n      tag_555\n        /* \"#utility.yul\":15357:15362   */\n      dup4\n        /* \"#utility.yul\":15307:15363   */\n      tag_387\n      jump\t// in\n    tag_555:\n        /* \"#utility.yul\":15386:15393   */\n      dup1\n        /* \"#utility.yul\":15417:15418   */\n      0x00\n        /* \"#utility.yul\":15402:15686   */\n    tag_556:\n        /* \"#utility.yul\":15427:15433   */\n      dup4\n        /* \"#utility.yul\":15424:15425   */\n      dup2\n        /* \"#utility.yul\":15421:15434   */\n      lt\n        /* \"#utility.yul\":15402:15686   */\n      iszero\n      tag_558\n      jumpi\n        /* \"#utility.yul\":15503:15509   */\n      dup2\n        /* \"#utility.yul\":15497:15510   */\n      mload\n        /* \"#utility.yul\":15530:15593   */\n      tag_559\n        /* \"#utility.yul\":15589:15592   */\n      dup9\n        /* \"#utility.yul\":15574:15587   */\n      dup3\n        /* \"#utility.yul\":15530:15593   */\n      tag_389\n      jump\t// in\n    tag_559:\n        /* \"#utility.yul\":15523:15593   */\n      swap8\n      pop\n        /* \"#utility.yul\":15616:15676   */\n      tag_560\n        /* \"#utility.yul\":15669:15675   */\n      dup4\n        /* \"#utility.yul\":15616:15676   */\n      tag_390\n      jump\t// in\n    tag_560:\n        /* \"#utility.yul\":15606:15676   */\n      swap3\n      pop\n        /* \"#utility.yul\":15462:15686   */\n      pop\n        /* \"#utility.yul\":15449:15450   */\n      0x01\n        /* \"#utility.yul\":15446:15447   */\n      dup2\n        /* \"#utility.yul\":15442:15451   */\n      add\n        /* \"#utility.yul\":15437:15451   */\n      swap1\n      pop\n        /* \"#utility.yul\":15402:15686   */\n      jump(tag_556)\n    tag_558:\n        /* \"#utility.yul\":15406:15420   */\n      pop\n        /* \"#utility.yul\":15702:15705   */\n      dup6\n        /* \"#utility.yul\":15695:15705   */\n      swap4\n      pop\n        /* \"#utility.yul\":15103:15711   */\n      pop\n      pop\n      pop\n        /* \"#utility.yul\":14979:15711   */\n      swap3\n      swap2\n      pop\n      pop\n      jump\t// out\n        /* \"#utility.yul\":15717:16090   */\n    tag_73:\n        /* \"#utility.yul\":15860:15864   */\n      0x00\n        /* \"#utility.yul\":15898:15900   */\n      0x20\n        /* \"#utility.yul\":15887:15896   */\n      dup3\n        /* \"#utility.yul\":15883:15901   */\n      add\n        /* \"#utility.yul\":15875:15901   */\n      swap1\n      pop\n        /* \"#utility.yul\":15947:15956   */\n      dup2\n        /* \"#utility.yul\":15941:15945   */\n      dup2\n        /* \"#utility.yul\":15937:15957   */\n      sub\n        /* \"#utility.yul\":15933:15934   */\n      0x00\n        /* \"#utility.yul\":15922:15931   */\n      dup4\n        /* \"#utility.yul\":15918:15935   */\n      add\n        /* \"#utility.yul\":15911:15958   */\n      mstore\n        /* \"#utility.yul\":15975:16083   */\n      tag_562\n        /* \"#utility.yul\":16078:16082   */\n      dup2\n        /* \"#utility.yul\":16069:16075   */\n      dup5\n        /* \"#utility.yul\":15975:16083   */\n      tag_391\n      jump\t// in\n    tag_562:\n        /* \"#utility.yul\":15967:16083   */\n      swap1\n      pop\n        /* \"#utility.yul\":15717:16090   */\n      swap3\n      swap2\n      pop\n      pop\n      jump\t// out\n        /* \"#utility.yul\":16096:16195   */\n    tag_392:\n        /* \"#utility.yul\":16167:16188   */\n      tag_564\n        /* \"#utility.yul\":16182:16187   */\n      dup2\n        /* \"#utility.yul\":16167:16188   */\n      tag_383\n      jump\t// in\n    tag_564:\n        /* \"#utility.yul\":16162:16165   */\n      dup3\n        /* \"#utility.yul\":16155:16189   */\n      mstore\n        /* \"#utility.yul\":16096:16195   */\n      pop\n      pop\n      jump\t// out\n        /* \"#utility.yul\":16271:17548   */\n    tag_393:\n        /* \"#utility.yul\":16382:16385   */\n      0x00\n        /* \"#utility.yul\":16418:16422   */\n      0xa0\n        /* \"#utility.yul\":16413:16416   */\n      dup4\n        /* \"#utility.yul\":16409:16423   */\n      add\n        /* \"#utility.yul\":16510:16514   */\n      0x00\n        /* \"#utility.yul\":16503:16508   */\n      dup4\n        /* \"#utility.yul\":16499:16515   */\n      add\n        /* \"#utility.yul\":16493:16516   */\n      mload\n        /* \"#utility.yul\":16563:16566   */\n      dup5\n        /* \"#utility.yul\":16557:16561   */\n      dup3\n        /* \"#utility.yul\":16553:16567   */\n      sub\n        /* \"#utility.yul\":16546:16550   */\n      0x00\n        /* \"#utility.yul\":16541:16544   */\n      dup7\n        /* \"#utility.yul\":16537:16551   */\n      add\n        /* \"#utility.yul\":16530:16568   */\n      mstore\n        /* \"#utility.yul\":16589:16662   */\n      tag_566\n        /* \"#utility.yul\":16657:16661   */\n      dup3\n        /* \"#utility.yul\":16643:16655   */\n      dup3\n        /* \"#utility.yul\":16589:16662   */\n      tag_376\n      jump\t// in\n    tag_566:\n        /* \"#utility.yul\":16581:16662   */\n      swap2\n      pop\n        /* \"#utility.yul\":16433:16673   */\n      pop\n        /* \"#utility.yul\":16759:16763   */\n      0x20\n        /* \"#utility.yul\":16752:16757   */\n      dup4\n        /* \"#utility.yul\":16748:16764   */\n      add\n        /* \"#utility.yul\":16742:16765   */\n      mload\n        /* \"#utility.yul\":16812:16815   */\n      dup5\n        /* \"#utility.yul\":16806:16810   */\n      dup3\n        /* \"#utility.yul\":16802:16816   */\n      sub\n        /* \"#utility.yul\":16795:16799   */\n      0x20\n        /* \"#utility.yul\":16790:16793   */\n      dup7\n        /* \"#utility.yul\":16786:16800   */\n      add\n        /* \"#utility.yul\":16779:16817   */\n      mstore\n        /* \"#utility.yul\":16838:16911   */\n      tag_567\n        /* \"#utility.yul\":16906:16910   */\n      dup3\n        /* \"#utility.yul\":16892:16904   */\n      dup3\n        /* \"#utility.yul\":16838:16911   */\n      tag_376\n      jump\t// in\n    tag_567:\n        /* \"#utility.yul\":16830:16911   */\n      swap2\n      pop\n        /* \"#utility.yul\":16683:16922   */\n      pop\n        /* \"#utility.yul\":17012:17016   */\n      0x40\n        /* \"#utility.yul\":17005:17010   */\n      dup4\n        /* \"#utility.yul\":17001:17017   */\n      add\n        /* \"#utility.yul\":16995:17018   */\n      mload\n        /* \"#utility.yul\":17031:17094   */\n      tag_568\n        /* \"#utility.yul\":17088:17092   */\n      0x40\n        /* \"#utility.yul\":17083:17086   */\n      dup7\n        /* \"#utility.yul\":17079:17093   */\n      add\n        /* \"#utility.yul\":17065:17077   */\n      dup3\n        /* \"#utility.yul\":17031:17094   */\n      tag_388\n      jump\t// in\n    tag_568:\n        /* \"#utility.yul\":16932:17104   */\n      pop\n        /* \"#utility.yul\":17188:17192   */\n      0x60\n        /* \"#utility.yul\":17181:17186   */\n      dup4\n        /* \"#utility.yul\":17177:17193   */\n      add\n        /* \"#utility.yul\":17171:17194   */\n      mload\n        /* \"#utility.yul\":17241:17244   */\n      dup5\n        /* \"#utility.yul\":17235:17239   */\n      dup3\n        /* \"#utility.yul\":17231:17245   */\n      sub\n        /* \"#utility.yul\":17224:17228   */\n      0x60\n        /* \"#utility.yul\":17219:17222   */\n      dup7\n        /* \"#utility.yul\":17215:17229   */\n      add\n        /* \"#utility.yul\":17208:17246   */\n      mstore\n        /* \"#utility.yul\":17267:17340   */\n      tag_569\n        /* \"#utility.yul\":17335:17339   */\n      dup3\n        /* \"#utility.yul\":17321:17333   */\n      dup3\n        /* \"#utility.yul\":17267:17340   */\n      tag_376\n      jump\t// in\n    tag_569:\n        /* \"#utility.yul\":17259:17340   */\n      swap2\n      pop\n        /* \"#utility.yul\":17114:17351   */\n      pop\n        /* \"#utility.yul\":17435:17439   */\n      0x80\n        /* \"#utility.yul\":17428:17433   */\n      dup4\n        /* \"#utility.yul\":17424:17440   */\n      add\n        /* \"#utility.yul\":17418:17441   */\n      mload\n        /* \"#utility.yul\":17454:17511   */\n      tag_570\n        /* \"#utility.yul\":17505:17509   */\n      0x80\n        /* \"#utility.yul\":17500:17503   */\n      dup7\n        /* \"#utility.yul\":17496:17510   */\n      add\n        /* \"#utility.yul\":17482:17494   */\n      dup3\n        /* \"#utility.yul\":17454:17511   */\n      tag_392\n      jump\t// in\n    tag_570:\n        /* \"#utility.yul\":17361:17521   */\n      pop\n        /* \"#utility.yul\":17538:17542   */\n      dup1\n        /* \"#utility.yul\":17531:17542   */\n      swap2\n      pop\n        /* \"#utility.yul\":16387:17548   */\n      pop\n        /* \"#utility.yul\":16271:17548   */\n      swap3\n      swap2\n      pop\n      pop\n      jump\t// out\n        /* \"#utility.yul\":17554:17911   */\n    tag_78:\n        /* \"#utility.yul\":17689:17693   */\n      0x00\n        /* \"#utility.yul\":17727:17729   */\n      0x20\n        /* \"#utility.yul\":17716:17725   */\n      dup3\n        /* \"#utility.yul\":17712:17730   */\n      add\n        /* \"#utility.yul\":17704:17730   */\n      swap1\n      pop\n        /* \"#utility.yul\":17776:17785   */\n      dup2\n        /* \"#utility.yul\":17770:17774   */\n      dup2\n        /* \"#utility.yul\":17766:17786   */\n      sub\n        /* \"#utility.yul\":17762:17763   */\n      0x00\n        /* \"#utility.yul\":17751:17760   */\n      dup4\n        /* \"#utility.yul\":17747:17764   */\n      add\n        /* \"#utility.yul\":17740:17787   */\n      mstore\n        /* \"#utility.yul\":17804:17904   */\n      tag_572\n        /* \"#utility.yul\":17899:17903   */\n      dup2\n        /* \"#utility.yul\":17890:17896   */\n      dup5\n        /* \"#utility.yul\":17804:17904   */\n      tag_393\n      jump\t// in\n    tag_572:\n        /* \"#utility.yul\":17796:17904   */\n      swap1\n      pop\n        /* \"#utility.yul\":17554:17911   */\n      swap3\n      swap2\n      pop\n      pop\n      jump\t// out\n        /* \"#utility.yul\":17917:18127   */\n    tag_83:\n        /* \"#utility.yul\":18004:18008   */\n      0x00\n        /* \"#utility.yul\":18042:18044   */\n      0x20\n        /* \"#utility.yul\":18031:18040   */\n      dup3\n        /* \"#utility.yul\":18027:18045   */\n      add\n        /* \"#utility.yul\":18019:18045   */\n      swap1\n      pop\n        /* \"#utility.yul\":18055:18120   */\n      tag_574\n        /* \"#utility.yul\":18117:18118   */\n      0x00\n        /* \"#utility.yul\":18106:18115   */\n      dup4\n        /* \"#utility.yul\":18102:18119   */\n      add\n        /* \"#utility.yul\":18093:18099   */\n      dup5\n        /* \"#utility.yul\":18055:18120   */\n      tag_384\n      jump\t// in\n    tag_574:\n        /* \"#utility.yul\":17917:18127   */\n      swap3\n      swap2\n      pop\n      pop\n      jump\t// out\n        /* \"#utility.yul\":18133:19910   */\n    tag_89:\n        /* \"#utility.yul\":18277:18283   */\n      0x00\n        /* \"#utility.yul\":18285:18291   */\n      dup1\n        /* \"#utility.yul\":18293:18299   */\n      0x00\n        /* \"#utility.yul\":18301:18307   */\n      dup1\n        /* \"#utility.yul\":18309:18315   */\n      0x00\n        /* \"#utility.yul\":18317:18323   */\n      dup1\n        /* \"#utility.yul\":18366:18369   */\n      0xc0\n        /* \"#utility.yul\":18354:18363   */\n      dup8\n        /* \"#utility.yul\":18345:18352   */\n      dup10\n        /* \"#utility.yul\":18341:18364   */\n      sub\n        /* \"#utility.yul\":18337:18370   */\n      slt\n        /* \"#utility.yul\":18334:18454   */\n      iszero\n      tag_576\n      jumpi\n        /* \"#utility.yul\":18373:18452   */\n      tag_577\n      tag_353\n      jump\t// in\n    tag_577:\n        /* \"#utility.yul\":18334:18454   */\n    tag_576:\n        /* \"#utility.yul\":18521:18522   */\n      0x00\n        /* \"#utility.yul\":18510:18519   */\n      dup8\n        /* \"#utility.yul\":18506:18523   */\n      add\n        /* \"#utility.yul\":18493:18524   */\n      calldataload\n        /* \"#utility.yul\":18551:18569   */\n      0xffffffffffffffff\n        /* \"#utility.yul\":18543:18549   */\n      dup2\n        /* \"#utility.yul\":18540:18570   */\n      gt\n        /* \"#utility.yul\":18537:18654   */\n      iszero\n      tag_578\n      jumpi\n        /* \"#utility.yul\":18573:18652   */\n      tag_579\n      tag_354\n      jump\t// in\n    tag_579:\n        /* \"#utility.yul\":18537:18654   */\n    tag_578:\n        /* \"#utility.yul\":18678:18741   */\n      tag_580\n        /* \"#utility.yul\":18733:18740   */\n      dup10\n        /* \"#utility.yul\":18724:18730   */\n      dup3\n        /* \"#utility.yul\":18713:18722   */\n      dup11\n        /* \"#utility.yul\":18709:18731   */\n      add\n        /* \"#utility.yul\":18678:18741   */\n      tag_367\n      jump\t// in\n    tag_580:\n        /* \"#utility.yul\":18668:18741   */\n      swap7\n      pop\n        /* \"#utility.yul\":18464:18751   */\n      pop\n        /* \"#utility.yul\":18818:18820   */\n      0x20\n        /* \"#utility.yul\":18807:18816   */\n      dup8\n        /* \"#utility.yul\":18803:18821   */\n      add\n        /* \"#utility.yul\":18790:18822   */\n      calldataload\n        /* \"#utility.yul\":18849:18867   */\n      0xffffffffffffffff\n        /* \"#utility.yul\":18841:18847   */\n      dup2\n        /* \"#utility.yul\":18838:18868   */\n      gt\n        /* \"#utility.yul\":18835:18952   */\n      iszero\n      tag_581\n      jumpi\n        /* \"#utility.yul\":18871:18950   */\n      tag_582\n      tag_354\n      jump\t// in\n    tag_582:\n        /* \"#utility.yul\":18835:18952   */\n    tag_581:\n        /* \"#utility.yul\":18976:19039   */\n      tag_583\n        /* \"#utility.yul\":19031:19038   */\n      dup10\n        /* \"#utility.yul\":19022:19028   */\n      dup3\n        /* \"#utility.yul\":19011:19020   */\n      dup11\n        /* \"#utility.yul\":19007:19029   */\n      add\n        /* \"#utility.yul\":18976:19039   */\n      tag_367\n      jump\t// in\n    tag_583:\n        /* \"#utility.yul\":18966:19039   */\n      swap6\n      pop\n        /* \"#utility.yul\":18761:19049   */\n      pop\n        /* \"#utility.yul\":19088:19090   */\n      0x40\n        /* \"#utility.yul\":19114:19167   */\n      tag_584\n        /* \"#utility.yul\":19159:19166   */\n      dup10\n        /* \"#utility.yul\":19150:19156   */\n      dup3\n        /* \"#utility.yul\":19139:19148   */\n      dup11\n        /* \"#utility.yul\":19135:19157   */\n      add\n        /* \"#utility.yul\":19114:19167   */\n      tag_369\n      jump\t// in\n    tag_584:\n        /* \"#utility.yul\":19104:19167   */\n      swap5\n      pop\n        /* \"#utility.yul\":19059:19177   */\n      pop\n        /* \"#utility.yul\":19244:19246   */\n      0x60\n        /* \"#utility.yul\":19233:19242   */\n      dup8\n        /* \"#utility.yul\":19229:19247   */\n      add\n        /* \"#utility.yul\":19216:19248   */\n      calldataload\n        /* \"#utility.yul\":19275:19293   */\n      0xffffffffffffffff\n        /* \"#utility.yul\":19267:19273   */\n      dup2\n        /* \"#utility.yul\":19264:19294   */\n      gt\n        /* \"#utility.yul\":19261:19378   */\n      iszero\n      tag_585\n      jumpi\n        /* \"#utility.yul\":19297:19376   */\n      tag_586\n      tag_354\n      jump\t// in\n    tag_586:\n        /* \"#utility.yul\":19261:19378   */\n    tag_585:\n        /* \"#utility.yul\":19402:19465   */\n      tag_587\n        /* \"#utility.yul\":19457:19464   */\n      dup10\n        /* \"#utility.yul\":19448:19454   */\n      dup3\n        /* \"#utility.yul\":19437:19446   */\n      dup11\n        /* \"#utility.yul\":19433:19455   */\n      add\n        /* \"#utility.yul\":19402:19465   */\n      tag_367\n      jump\t// in\n    tag_587:\n        /* \"#utility.yul\":19392:19465   */\n      swap4\n      pop\n        /* \"#utility.yul\":19187:19475   */\n      pop\n        /* \"#utility.yul\":19514:19517   */\n      0x80\n        /* \"#utility.yul\":19541:19594   */\n      tag_588\n        /* \"#utility.yul\":19586:19593   */\n      dup10\n        /* \"#utility.yul\":19577:19583   */\n      dup3\n        /* \"#utility.yul\":19566:19575   */\n      dup11\n        /* \"#utility.yul\":19562:19584   */\n      add\n        /* \"#utility.yul\":19541:19594   */\n      tag_369\n      jump\t// in\n    tag_588:\n        /* \"#utility.yul\":19531:19594   */\n      swap3\n      pop\n        /* \"#utility.yul\":19485:19604   */\n      pop\n        /* \"#utility.yul\":19671:19674   */\n      0xa0\n        /* \"#utility.yul\":19660:19669   */\n      dup8\n        /* \"#utility.yul\":19656:19675   */\n      add\n        /* \"#utility.yul\":19643:19676   */\n      calldataload\n        /* \"#utility.yul\":19703:19721   */\n      0xffffffffffffffff\n        /* \"#utility.yul\":19695:19701   */\n      dup2\n        /* \"#utility.yul\":19692:19722   */\n      gt\n        /* \"#utility.yul\":19689:19806   */\n      iszero\n      tag_589\n      jumpi\n        /* \"#utility.yul\":19725:19804   */\n      tag_590\n      tag_354\n      jump\t// in\n    tag_590:\n        /* \"#utility.yul\":19689:19806   */\n    tag_589:\n        /* \"#utility.yul\":19830:19893   */\n      tag_591\n        /* \"#utility.yul\":19885:19892   */\n      dup10\n        /* \"#utility.yul\":19876:19882   */\n      dup3\n        /* \"#utility.yul\":19865:19874   */\n      dup11\n        /* \"#utility.yul\":19861:19883   */\n      add\n        /* \"#utility.yul\":19830:19893   */\n      tag_367\n      jump\t// in\n    tag_591:\n        /* \"#utility.yul\":19820:19893   */\n      swap2\n      pop\n        /* \"#utility.yul\":19614:19903   */\n      pop\n        /* \"#utility.yul\":18133:19910   */\n      swap3\n      swap6\n      pop\n      swap3\n      swap6\n      pop\n      swap3\n      swap6\n      jump\t// out\n        /* \"#utility.yul\":19916:20425   */\n    tag_93:\n        /* \"#utility.yul\":19985:19991   */\n      0x00\n        /* \"#utility.yul\":20034:20036   */\n      0x20\n        /* \"#utility.yul\":20022:20031   */\n      dup3\n        /* \"#utility.yul\":20013:20020   */\n      dup5\n        /* \"#utility.yul\":20009:20032   */\n      sub\n        /* \"#utility.yul\":20005:20037   */\n      slt\n        /* \"#utility.yul\":20002:20121   */\n      iszero\n      tag_593\n      jumpi\n        /* \"#utility.yul\":20040:20119   */\n      tag_594\n      tag_353\n      jump\t// in\n    tag_594:\n        /* \"#utility.yul\":20002:20121   */\n    tag_593:\n        /* \"#utility.yul\":20188:20189   */\n      0x00\n        /* \"#utility.yul\":20177:20186   */\n      dup3\n        /* \"#utility.yul\":20173:20190   */\n      add\n        /* \"#utility.yul\":20160:20191   */\n      calldataload\n        /* \"#utility.yul\":20218:20236   */\n      0xffffffffffffffff\n        /* \"#utility.yul\":20210:20216   */\n      dup2\n        /* \"#utility.yul\":20207:20237   */\n      gt\n        /* \"#utility.yul\":20204:20321   */\n      iszero\n      tag_595\n      jumpi\n        /* \"#utility.yul\":20240:20319   */\n      tag_596\n      tag_354\n      jump\t// in\n    tag_596:\n        /* \"#utility.yul\":20204:20321   */\n    tag_595:\n        /* \"#utility.yul\":20345:20408   */\n      tag_597\n        /* \"#utility.yul\":20400:20407   */\n      dup5\n        /* \"#utility.yul\":20391:20397   */\n      dup3\n        /* \"#utility.yul\":20380:20389   */\n      dup6\n        /* \"#utility.yul\":20376:20398   */\n      add\n        /* \"#utility.yul\":20345:20408   */\n      tag_367\n      jump\t// in\n    tag_597:\n        /* \"#utility.yul\":20335:20408   */\n      swap2\n      pop\n        /* \"#utility.yul\":20131:20418   */\n      pop\n        /* \"#utility.yul\":19916:20425   */\n      swap3\n      swap2\n      pop\n      pop\n      jump\t// out\n        /* \"#utility.yul\":20431:22081   */\n    tag_96:\n        /* \"#utility.yul\":20864:20868   */\n      0x00\n        /* \"#utility.yul\":20902:20905   */\n      0x0140\n        /* \"#utility.yul\":20891:20900   */\n      dup3\n        /* \"#utility.yul\":20887:20906   */\n      add\n        /* \"#utility.yul\":20879:20906   */\n      swap1\n      pop\n        /* \"#utility.yul\":20952:20961   */\n      dup2\n        /* \"#utility.yul\":20946:20950   */\n      dup2\n        /* \"#utility.yul\":20942:20962   */\n      sub\n        /* \"#utility.yul\":20938:20939   */\n      0x00\n        /* \"#utility.yul\":20927:20936   */\n      dup4\n        /* \"#utility.yul\":20923:20940   */\n      add\n        /* \"#utility.yul\":20916:20963   */\n      mstore\n        /* \"#utility.yul\":20980:21058   */\n      tag_599\n        /* \"#utility.yul\":21053:21057   */\n      dup2\n        /* \"#utility.yul\":21044:21050   */\n      dup14\n        /* \"#utility.yul\":20980:21058   */\n      tag_382\n      jump\t// in\n    tag_599:\n        /* \"#utility.yul\":20972:21058   */\n      swap1\n      pop\n        /* \"#utility.yul\":21105:21114   */\n      dup2\n        /* \"#utility.yul\":21099:21103   */\n      dup2\n        /* \"#utility.yul\":21095:21115   */\n      sub\n        /* \"#utility.yul\":21090:21092   */\n      0x20\n        /* \"#utility.yul\":21079:21088   */\n      dup4\n        /* \"#utility.yul\":21075:21093   */\n      add\n        /* \"#utility.yul\":21068:21116   */\n      mstore\n        /* \"#utility.yul\":21133:21211   */\n      tag_600\n        /* \"#utility.yul\":21206:21210   */\n      dup2\n        /* \"#utility.yul\":21197:21203   */\n      dup13\n        /* \"#utility.yul\":21133:21211   */\n      tag_382\n      jump\t// in\n    tag_600:\n        /* \"#utility.yul\":21125:21211   */\n      swap1\n      pop\n        /* \"#utility.yul\":21258:21267   */\n      dup2\n        /* \"#utility.yul\":21252:21256   */\n      dup2\n        /* \"#utility.yul\":21248:21268   */\n      sub\n        /* \"#utility.yul\":21243:21245   */\n      0x40\n        /* \"#utility.yul\":21232:21241   */\n      dup4\n        /* \"#utility.yul\":21228:21246   */\n      add\n        /* \"#utility.yul\":21221:21269   */\n      mstore\n        /* \"#utility.yul\":21286:21364   */\n      tag_601\n        /* \"#utility.yul\":21359:21363   */\n      dup2\n        /* \"#utility.yul\":21350:21356   */\n      dup12\n        /* \"#utility.yul\":21286:21364   */\n      tag_382\n      jump\t// in\n    tag_601:\n        /* \"#utility.yul\":21278:21364   */\n      swap1\n      pop\n        /* \"#utility.yul\":21374:21446   */\n      tag_602\n        /* \"#utility.yul\":21442:21444   */\n      0x60\n        /* \"#utility.yul\":21431:21440   */\n      dup4\n        /* \"#utility.yul\":21427:21445   */\n      add\n        /* \"#utility.yul\":21418:21424   */\n      dup11\n        /* \"#utility.yul\":21374:21446   */\n      tag_351\n      jump\t// in\n    tag_602:\n        /* \"#utility.yul\":21494:21503   */\n      dup2\n        /* \"#utility.yul\":21488:21492   */\n      dup2\n        /* \"#utility.yul\":21484:21504   */\n      sub\n        /* \"#utility.yul\":21478:21481   */\n      0x80\n        /* \"#utility.yul\":21467:21476   */\n      dup4\n        /* \"#utility.yul\":21463:21482   */\n      add\n        /* \"#utility.yul\":21456:21505   */\n      mstore\n        /* \"#utility.yul\":21522:21600   */\n      tag_603\n        /* \"#utility.yul\":21595:21599   */\n      dup2\n        /* \"#utility.yul\":21586:21592   */\n      dup10\n        /* \"#utility.yul\":21522:21600   */\n      tag_382\n      jump\t// in\n    tag_603:\n        /* \"#utility.yul\":21514:21600   */\n      swap1\n      pop\n        /* \"#utility.yul\":21610:21677   */\n      tag_604\n        /* \"#utility.yul\":21672:21675   */\n      0xa0\n        /* \"#utility.yul\":21661:21670   */\n      dup4\n        /* \"#utility.yul\":21657:21676   */\n      add\n        /* \"#utility.yul\":21648:21654   */\n      dup9\n        /* \"#utility.yul\":21610:21677   */\n      tag_384\n      jump\t// in\n    tag_604:\n        /* \"#utility.yul\":21687:21754   */\n      tag_605\n        /* \"#utility.yul\":21749:21752   */\n      0xc0\n        /* \"#utility.yul\":21738:21747   */\n      dup4\n        /* \"#utility.yul\":21734:21753   */\n      add\n        /* \"#utility.yul\":21725:21731   */\n      dup8\n        /* \"#utility.yul\":21687:21754   */\n      tag_384\n      jump\t// in\n    tag_605:\n        /* \"#utility.yul\":21764:21837   */\n      tag_606\n        /* \"#utility.yul\":21832:21835   */\n      0xe0\n        /* \"#utility.yul\":21821:21830   */\n      dup4\n        /* \"#utility.yul\":21817:21836   */\n      add\n        /* \"#utility.yul\":21808:21814   */\n      dup7\n        /* \"#utility.yul\":21764:21837   */\n      tag_351\n      jump\t// in\n    tag_606:\n        /* \"#utility.yul\":21885:21894   */\n      dup2\n        /* \"#utility.yul\":21879:21883   */\n      dup2\n        /* \"#utility.yul\":21875:21895   */\n      sub\n        /* \"#utility.yul\":21869:21872   */\n      0x0100\n        /* \"#utility.yul\":21858:21867   */\n      dup4\n        /* \"#utility.yul\":21854:21873   */\n      add\n        /* \"#utility.yul\":21847:21896   */\n      mstore\n        /* \"#utility.yul\":21913:21991   */\n      tag_607\n        /* \"#utility.yul\":21986:21990   */\n      dup2\n        /* \"#utility.yul\":21977:21983   */\n      dup6\n        /* \"#utility.yul\":21913:21991   */\n      tag_382\n      jump\t// in\n    tag_607:\n        /* \"#utility.yul\":21905:21991   */\n      swap1\n      pop\n        /* \"#utility.yul\":22001:22074   */\n      tag_608\n        /* \"#utility.yul\":22069:22072   */\n      0x0120\n        /* \"#utility.yul\":22058:22067   */\n      dup4\n        /* \"#utility.yul\":22054:22073   */\n      add\n        /* \"#utility.yul\":22045:22051   */\n      dup5\n        /* \"#utility.yul\":22001:22074   */\n      tag_351\n      jump\t// in\n    tag_608:\n        /* \"#utility.yul\":20431:22081   */\n      swap12\n      swap11\n      pop\n      pop\n      pop\n      pop\n      pop\n      pop\n      pop\n      pop\n      pop\n      pop\n      pop\n      jump\t// out\n        /* \"#utility.yul\":22087:23923   */\n    tag_101:\n        /* \"#utility.yul\":22564:22568   */\n      0x00\n        /* \"#utility.yul\":22602:22605   */\n      0x0120\n        /* \"#utility.yul\":22591:22600   */\n      dup3\n        /* \"#utility.yul\":22587:22606   */\n      add\n        /* \"#utility.yul\":22579:22606   */\n      swap1\n      pop\n        /* \"#utility.yul\":22652:22661   */\n      dup2\n        /* \"#utility.yul\":22646:22650   */\n      dup2\n        /* \"#utility.yul\":22642:22662   */\n      sub\n        /* \"#utility.yul\":22638:22639   */\n      0x00\n        /* \"#utility.yul\":22627:22636   */\n      dup4\n        /* \"#utility.yul\":22623:22640   */\n      add\n        /* \"#utility.yul\":22616:22663   */\n      mstore\n        /* \"#utility.yul\":22680:22758   */\n      tag_610\n        /* \"#utility.yul\":22753:22757   */\n      dup2\n        /* \"#utility.yul\":22744:22750   */\n      dup13\n        /* \"#utility.yul\":22680:22758   */\n      tag_382\n      jump\t// in\n    tag_610:\n        /* \"#utility.yul\":22672:22758   */\n      swap1\n      pop\n        /* \"#utility.yul\":22805:22814   */\n      dup2\n        /* \"#utility.yul\":22799:22803   */\n      dup2\n        /* \"#utility.yul\":22795:22815   */\n      sub\n        /* \"#utility.yul\":22790:22792   */\n      0x20\n        /* \"#utility.yul\":22779:22788   */\n      dup4\n        /* \"#utility.yul\":22775:22793   */\n      add\n        /* \"#utility.yul\":22768:22816   */\n      mstore\n        /* \"#utility.yul\":22833:22911   */\n      tag_611\n        /* \"#utility.yul\":22906:22910   */\n      dup2\n        /* \"#utility.yul\":22897:22903   */\n      dup12\n        /* \"#utility.yul\":22833:22911   */\n      tag_382\n      jump\t// in\n    tag_611:\n        /* \"#utility.yul\":22825:22911   */\n      swap1\n      pop\n        /* \"#utility.yul\":22958:22967   */\n      dup2\n        /* \"#utility.yul\":22952:22956   */\n      dup2\n        /* \"#utility.yul\":22948:22968   */\n      sub\n        /* \"#utility.yul\":22943:22945   */\n      0x40\n        /* \"#utility.yul\":22932:22941   */\n      dup4\n        /* \"#utility.yul\":22928:22946   */\n      add\n        /* \"#utility.yul\":22921:22969   */\n      mstore\n        /* \"#utility.yul\":22986:23064   */\n      tag_612\n        /* \"#utility.yul\":23059:23063   */\n      dup2\n        /* \"#utility.yul\":23050:23056   */\n      dup11\n        /* \"#utility.yul\":22986:23064   */\n      tag_382\n      jump\t// in\n    tag_612:\n        /* \"#utility.yul\":22978:23064   */\n      swap1\n      pop\n        /* \"#utility.yul\":23111:23120   */\n      dup2\n        /* \"#utility.yul\":23105:23109   */\n      dup2\n        /* \"#utility.yul\":23101:23121   */\n      sub\n        /* \"#utility.yul\":23096:23098   */\n      0x60\n        /* \"#utility.yul\":23085:23094   */\n      dup4\n        /* \"#utility.yul\":23081:23099   */\n      add\n        /* \"#utility.yul\":23074:23122   */\n      mstore\n        /* \"#utility.yul\":23139:23217   */\n      tag_613\n        /* \"#utility.yul\":23212:23216   */\n      dup2\n        /* \"#utility.yul\":23203:23209   */\n      dup10\n        /* \"#utility.yul\":23139:23217   */\n      tag_382\n      jump\t// in\n    tag_613:\n        /* \"#utility.yul\":23131:23217   */\n      swap1\n      pop\n        /* \"#utility.yul\":23265:23274   */\n      dup2\n        /* \"#utility.yul\":23259:23263   */\n      dup2\n        /* \"#utility.yul\":23255:23275   */\n      sub\n        /* \"#utility.yul\":23249:23252   */\n      0x80\n        /* \"#utility.yul\":23238:23247   */\n      dup4\n        /* \"#utility.yul\":23234:23253   */\n      add\n        /* \"#utility.yul\":23227:23276   */\n      mstore\n        /* \"#utility.yul\":23293:23371   */\n      tag_614\n        /* \"#utility.yul\":23366:23370   */\n      dup2\n        /* \"#utility.yul\":23357:23363   */\n      dup9\n        /* \"#utility.yul\":23293:23371   */\n      tag_382\n      jump\t// in\n    tag_614:\n        /* \"#utility.yul\":23285:23371   */\n      swap1\n      pop\n        /* \"#utility.yul\":23419:23428   */\n      dup2\n        /* \"#utility.yul\":23413:23417   */\n      dup2\n        /* \"#utility.yul\":23409:23429   */\n      sub\n        /* \"#utility.yul\":23403:23406   */\n      0xa0\n        /* \"#utility.yul\":23392:23401   */\n      dup4\n        /* \"#utility.yul\":23388:23407   */\n      add\n        /* \"#utility.yul\":23381:23430   */\n      mstore\n        /* \"#utility.yul\":23447:23525   */\n      tag_615\n        /* \"#utility.yul\":23520:23524   */\n      dup2\n        /* \"#utility.yul\":23511:23517   */\n      dup8\n        /* \"#utility.yul\":23447:23525   */\n      tag_382\n      jump\t// in\n    tag_615:\n        /* \"#utility.yul\":23439:23525   */\n      swap1\n      pop\n        /* \"#utility.yul\":23573:23582   */\n      dup2\n        /* \"#utility.yul\":23567:23571   */\n      dup2\n        /* \"#utility.yul\":23563:23583   */\n      sub\n        /* \"#utility.yul\":23557:23560   */\n      0xc0\n        /* \"#utility.yul\":23546:23555   */\n      dup4\n        /* \"#utility.yul\":23542:23561   */\n      add\n        /* \"#utility.yul\":23535:23584   */\n      mstore\n        /* \"#utility.yul\":23601:23679   */\n      tag_616\n        /* \"#utility.yul\":23674:23678   */\n      dup2\n        /* \"#utility.yul\":23665:23671   */\n      dup7\n        /* \"#utility.yul\":23601:23679   */\n      tag_382\n      jump\t// in\n    tag_616:\n        /* \"#utility.yul\":23593:23679   */\n      swap1\n      pop\n        /* \"#utility.yul\":23727:23736   */\n      dup2\n        /* \"#utility.yul\":23721:23725   */\n      dup2\n        /* \"#utility.yul\":23717:23737   */\n      sub\n        /* \"#utility.yul\":23711:23714   */\n      0xe0\n        /* \"#utility.yul\":23700:23709   */\n      dup4\n        /* \"#utility.yul\":23696:23715   */\n      add\n        /* \"#utility.yul\":23689:23738   */\n      mstore\n        /* \"#utility.yul\":23755:23833   */\n      tag_617\n        /* \"#utility.yul\":23828:23832   */\n      dup2\n        /* \"#utility.yul\":23819:23825   */\n      dup6\n        /* \"#utility.yul\":23755:23833   */\n      tag_382\n      jump\t// in\n    tag_617:\n        /* \"#utility.yul\":23747:23833   */\n      swap1\n      pop\n        /* \"#utility.yul\":23843:23916   */\n      tag_618\n        /* \"#utility.yul\":23911:23914   */\n      0x0100\n        /* \"#utility.yul\":23900:23909   */\n      dup4\n        /* \"#utility.yul\":23896:23915   */\n      add\n        /* \"#utility.yul\":23887:23893   */\n      dup5\n        /* \"#utility.yul\":23843:23916   */\n      tag_351\n      jump\t// in\n    tag_618:\n        /* \"#utility.yul\":22087:23923   */\n      swap11\n      swap10\n      pop\n      pop\n      pop\n      pop\n      pop\n      pop\n      pop\n      pop\n      pop\n      pop\n      jump\t// out\n        /* \"#utility.yul\":23929:24109   */\n    tag_394:\n        /* \"#utility.yul\":23977:24054   */\n      0x4e487b7100000000000000000000000000000000000000000000000000000000\n        /* \"#utility.yul\":23974:23975   */\n      0x00\n        /* \"#utility.yul\":23967:24055   */\n      mstore\n        /* \"#utility.yul\":24074:24078   */\n      0x22\n        /* \"#utility.yul\":24071:24072   */\n      0x04\n        /* \"#utility.yul\":24064:24079   */\n      mstore\n        /* \"#utility.yul\":24098:24102   */\n      0x24\n        /* \"#utility.yul\":24095:24096   */\n      0x00\n        /* \"#utility.yul\":24088:24103   */\n      revert\n        /* \"#utility.yul\":24115:24435   */\n    tag_135:\n        /* \"#utility.yul\":24159:24165   */\n      0x00\n        /* \"#utility.yul\":24196:24197   */\n      0x02\n        /* \"#utility.yul\":24190:24194   */\n      dup3\n        /* \"#utility.yul\":24186:24198   */\n      div\n        /* \"#utility.yul\":24176:24198   */\n      swap1\n      pop\n        /* \"#utility.yul\":24243:24244   */\n      0x01\n        /* \"#utility.yul\":24237:24241   */\n      dup3\n        /* \"#utility.yul\":24233:24245   */\n      and\n        /* \"#utility.yul\":24264:24282   */\n      dup1\n        /* \"#utility.yul\":24254:24335   */\n      tag_621\n      jumpi\n        /* \"#utility.yul\":24320:24324   */\n      0x7f\n        /* \"#utility.yul\":24312:24318   */\n      dup3\n        /* \"#utility.yul\":24308:24325   */\n      and\n        /* \"#utility.yul\":24298:24325   */\n      swap2\n      pop\n        /* \"#utility.yul\":24254:24335   */\n    tag_621:\n        /* \"#utility.yul\":24382:24384   */\n      0x20\n        /* \"#utility.yul\":24374:24380   */\n      dup3\n        /* \"#utility.yul\":24371:24385   */\n      lt\n        /* \"#utility.yul\":24351:24369   */\n      dup2\n        /* \"#utility.yul\":24348:24386   */\n      eq\n        /* \"#utility.yul\":24345:24429   */\n      iszero\n      tag_622\n      jumpi\n        /* \"#utility.yul\":24401:24419   */\n      tag_623\n      tag_394\n      jump\t// in\n    tag_623:\n        /* \"#utility.yul\":24345:24429   */\n    tag_622:\n        /* \"#utility.yul\":24166:24435   */\n      pop\n        /* \"#utility.yul\":24115:24435   */\n      swap2\n      swap1\n      pop\n      jump\t// out\n        /* \"#utility.yul\":24441:24589   */\n    tag_395:\n        /* \"#utility.yul\":24543:24554   */\n      0x00\n        /* \"#utility.yul\":24580:24583   */\n      dup2\n        /* \"#utility.yul\":24565:24583   */\n      swap1\n      pop\n        /* \"#utility.yul\":24441:24589   */\n      swap3\n      swap2\n      pop\n      pop\n      jump\t// out\n        /* \"#utility.yul\":24595:24972   */\n    tag_396:\n        /* \"#utility.yul\":24701:24704   */\n      0x00\n        /* \"#utility.yul\":24729:24768   */\n      tag_626\n        /* \"#utility.yul\":24762:24767   */\n      dup3\n        /* \"#utility.yul\":24729:24768   */\n      tag_373\n      jump\t// in\n    tag_626:\n        /* \"#utility.yul\":24784:24873   */\n      tag_627\n        /* \"#utility.yul\":24866:24872   */\n      dup2\n        /* \"#utility.yul\":24861:24864   */\n      dup6\n        /* \"#utility.yul\":24784:24873   */\n      tag_395\n      jump\t// in\n    tag_627:\n        /* \"#utility.yul\":24777:24873   */\n      swap4\n      pop\n        /* \"#utility.yul\":24882:24934   */\n      tag_628\n        /* \"#utility.yul\":24927:24933   */\n      dup2\n        /* \"#utility.yul\":24922:24925   */\n      dup6\n        /* \"#utility.yul\":24915:24919   */\n      0x20\n        /* \"#utility.yul\":24908:24913   */\n      dup7\n        /* \"#utility.yul\":24904:24920   */\n      add\n        /* \"#utility.yul\":24882:24934   */\n      tag_375\n      jump\t// in\n    tag_628:\n        /* \"#utility.yul\":24959:24965   */\n      dup1\n        /* \"#utility.yul\":24954:24957   */\n      dup5\n        /* \"#utility.yul\":24950:24966   */\n      add\n        /* \"#utility.yul\":24943:24966   */\n      swap2\n      pop\n        /* \"#utility.yul\":24705:24972   */\n      pop\n        /* \"#utility.yul\":24595:24972   */\n      swap3\n      swap2\n      pop\n      pop\n      jump\t// out\n        /* \"#utility.yul\":24978:25253   */\n    tag_214:\n        /* \"#utility.yul\":25110:25113   */\n      0x00\n        /* \"#utility.yul\":25132:25227   */\n      tag_630\n        /* \"#utility.yul\":25223:25226   */\n      dup3\n        /* \"#utility.yul\":25214:25220   */\n      dup5\n        /* \"#utility.yul\":25132:25227   */\n      tag_396\n      jump\t// in\n    tag_630:\n        /* \"#utility.yul\":25125:25227   */\n      swap2\n      pop\n        /* \"#utility.yul\":25244:25247   */\n      dup2\n        /* \"#utility.yul\":25237:25247   */\n      swap1\n      pop\n        /* \"#utility.yul\":24978:25253   */\n      swap3\n      swap2\n      pop\n      pop\n      jump\t// out\n        /* \"#utility.yul\":25259:25439   */\n    tag_397:\n        /* \"#utility.yul\":25307:25384   */\n      0x4e487b7100000000000000000000000000000000000000000000000000000000\n        /* \"#utility.yul\":25304:25305   */\n      0x00\n        /* \"#utility.yul\":25297:25385   */\n      mstore\n        /* \"#utility.yul\":25404:25408   */\n      0x11\n        /* \"#utility.yul\":25401:25402   */\n      0x04\n        /* \"#utility.yul\":25394:25409   */\n      mstore\n        /* \"#utility.yul\":25428:25432   */\n      0x24\n        /* \"#utility.yul\":25425:25426   */\n      0x00\n        /* \"#utility.yul\":25418:25433   */\n      revert\n        /* \"#utility.yul\":25445:25750   */\n    tag_228:\n        /* \"#utility.yul\":25485:25488   */\n      0x00\n        /* \"#utility.yul\":25504:25524   */\n      tag_633\n        /* \"#utility.yul\":25522:25523   */\n      dup3\n        /* \"#utility.yul\":25504:25524   */\n      tag_355\n      jump\t// in\n    tag_633:\n        /* \"#utility.yul\":25499:25524   */\n      swap2\n      pop\n        /* \"#utility.yul\":25538:25558   */\n      tag_634\n        /* \"#utility.yul\":25556:25557   */\n      dup4\n        /* \"#utility.yul\":25538:25558   */\n      tag_355\n      jump\t// in\n    tag_634:\n        /* \"#utility.yul\":25533:25558   */\n      swap3\n      pop\n        /* \"#utility.yul\":25692:25693   */\n      dup3\n        /* \"#utility.yul\":25624:25690   */\n      0xffffffffffffffffffffffffffffffffffffffffffffffffffffffffffffffff\n        /* \"#utility.yul\":25620:25694   */\n      sub\n        /* \"#utility.yul\":25617:25618   */\n      dup3\n        /* \"#utility.yul\":25614:25695   */\n      gt\n        /* \"#utility.yul\":25611:25718   */\n      iszero\n      tag_635\n      jumpi\n        /* \"#utility.yul\":25698:25716   */\n      tag_636\n      tag_397\n      jump\t// in\n    tag_636:\n        /* \"#utility.yul\":25611:25718   */\n    tag_635:\n        /* \"#utility.yul\":25742:25743   */\n      dup3\n        /* \"#utility.yul\":25739:25740   */\n      dup3\n        /* \"#utility.yul\":25735:25744   */\n      add\n        /* \"#utility.yul\":25728:25744   */\n      swap1\n      pop\n        /* \"#utility.yul\":25445:25750   */\n      swap3\n      swap2\n      pop\n      pop\n      jump\t// out\n\n    auxdata: 0xa26469706673582212205a5c0441d0fb8b7c44740405588f199839a07e57c1b281dbaddbdf1a1c4d936464736f6c634300080a0033\n}\n","bytecode":{"linkReferences":{},"object":"60806040523480156200001157600080fd5b50604051620035a2380380620035a28339818101604052810190620000379190620002ec565b80600190805190602001906200004f9291906200009f565b50336000806101000a81548173ffffffffffffffffffffffffffffffffffffffff021916908373ffffffffffffffffffffffffffffffffffffffff160217905550600060098190555050620003a2565b828054620000ad906200036c565b90600052602060002090601f016020900481019282620000d157600085556200011d565b82601f10620000ec57805160ff19168380011785556200011d565b828001600101855582156200011d579182015b828111156200011c578251825591602001919060010190620000ff565b5b5090506200012c919062000130565b5090565b5b808211156200014b57600081600090555060010162000131565b5090565b6000604051905090565b600080fd5b600080fd5b600080fd5b600080fd5b6000601f19601f8301169050919050565b7f4e487b7100000000000000000000000000000000000000000000000000000000600052604160045260246000fd5b620001b8826200016d565b810181811067ffffffffffffffff82111715620001da57620001d96200017e565b5b80604052505050565b6000620001ef6200014f565b9050620001fd8282620001ad565b919050565b600067ffffffffffffffff82111562000220576200021f6200017e565b5b6200022b826200016d565b9050602081019050919050565b60005b83811015620002585780820151818401526020810190506200023b565b8381111562000268576000848401525b50505050565b6000620002856200027f8462000202565b620001e3565b905082815260208101848484011115620002a457620002a362000168565b5b620002b184828562000238565b509392505050565b600082601f830112620002d157620002d062000163565b5b8151620002e38482602086016200026e565b91505092915050565b60006020828403121562000305576200030462000159565b5b600082015167ffffffffffffffff8111156200032657620003256200015e565b5b6200033484828501620002b9565b91505092915050565b7f4e487b7100000000000000000000000000000000000000000000000000000000600052602260045260246000fd5b600060028204905060018216806200038557607f821691505b602082108114156200039c576200039b6200033d565b5b50919050565b6131f080620003b26000396000f3fe608060405234801561001057600080fd5b50600436106101425760003560e01c806364efb22b116100b8578063be87bb8a1161007c578063be87bb8a14610398578063c4a0086f146103d0578063cbd5121c14610400578063cddb61b714610430578063db9573e11461044c578063df6fa20e1461046a57610142565b806364efb22b146102c557806367b57142146102f55780638b5c933514610325578063ade7955114610343578063b1c8ad0d1461035f57610142565b80631c9afd0f1161010a5780631c9afd0f146101eb578063245351c9146102095780632a979f31146102255780632de8f46d14610255578063429b62e51461027357806364ddfa29146102a757610142565b8063045b30341461014757806313718c97146101655780631510f0d5146101955780631a994ed8146101b15780631af1a768146101cf575b600080fd5b61014f610486565b60405161015c9190612500565b60405180910390f35b61017f600480360381019061017a9190612565565b6104aa565b60405161018c9190612500565b60405180910390f35b6101af60048036038101906101aa9190612704565b6104e9565b005b6101b96105d6565b6040516101c69190612909565b60405180910390f35b6101e960048036038101906101e4919061292b565b610705565b005b6101f36107bb565b6040516102009190612967565b60405180910390f35b610223600480360381019061021e9190612982565b6107c1565b005b61023f600480360381019061023a9190612565565b6108d7565b60405161024c9190612b62565b60405180910390f35b61025d610983565b60405161026a9190612b62565b60405180910390f35b61028d6004803603810190610288919061292b565b610a6d565b60405161029e959493929190612b9f565b60405180910390f35b6102af610c68565b6040516102bc9190612cc5565b60405180910390f35b6102df60048036038101906102da919061292b565b610d4e565b6040516102ec9190612d7a565b60405180910390f35b61030f600480360381019061030a919061292b565b611026565b60405161031c9190612d9c565b60405180910390f35b61032d611046565b60405161033a9190612d9c565b60405180910390f35b61035d60048036038101906103589190612db7565b6110a5565b005b61037960048036038101906103749190612eb4565b6113aa565b60405161038f9a99989796959493929190612efd565b60405180910390f35b6103b260048036038101906103ad919061292b565b611736565b6040516103c799989796959493929190612fbc565b60405180910390f35b6103ea60048036038101906103e59190612eb4565b611be4565b6040516103f79190612d9c565b60405180910390f35b61041a60048036038101906104159190612565565b611c1a565b6040516104279190612b62565b60405180910390f35b61044a60048036038101906104459190612704565b611cc6565b005b610454611ff3565b6040516104619190612d9c565b60405180910390f35b610484600480360381019061047f919061292b565b612277565b005b60008054906101000a900473ffffffffffffffffffffffffffffffffffffffff1681565b600581815481106104ba57600080fd5b906000526020600020016000915054906101000a900473ffffffffffffffffffffffffffffffffffffffff1681565b60008054906101000a900473ffffffffffffffffffffffffffffffffffffffff1673ffffffffffffffffffffffffffffffffffffffff163373ffffffffffffffffffffffffffffffffffffffff161461054157600080fd5b6000600260008373ffffffffffffffffffffffffffffffffffffffff1673ffffffffffffffffffffffffffffffffffffffff16815260200190815260200160002090508481600001908051906020019061059c929190612348565b50838160010190805190602001906105b5929190612348565b50828160030190805190602001906105ce929190612348565b505050505050565b6060600360003373ffffffffffffffffffffffffffffffffffffffff1673ffffffffffffffffffffffffffffffffffffffff16815260200190815260200160002060009054906101000a900460ff1661062e57600080fd5b6006805480602002602001604051908101604052809291908181526020016000905b828210156106fc57838290600052602060002001805461066f906130b0565b80601f016020809104026020016040519081016040528092919081815260200182805461069b906130b0565b80156106e85780601f106106bd576101008083540402835291602001916106e8565b820191906000526020600020905b8154815290600101906020018083116106cb57829003601f168201915b505050505081526020019060010190610650565b50505050905090565b60008054906101000a900473ffffffffffffffffffffffffffffffffffffffff1673ffffffffffffffffffffffffffffffffffffffff163373ffffffffffffffffffffffffffffffffffffffff161461075d57600080fd5b6001600260008373ffffffffffffffffffffffffffffffffffffffff1673ffffffffffffffffffffffffffffffffffffffff16815260200190815260200160002060040160006101000a81548160ff02191690831515021790555050565b60095481565b6000600b60003373ffffffffffffffffffffffffffffffffffffffff1673ffffffffffffffffffffffffffffffffffffffff16815260200190815260200160002090508881600001908051906020019061081c929190612348565b5087816001019080519060200190610835929190612348565b508681600201908051906020019061084e929190612348565b5085816003019080519060200190610867929190612348565b5084816004019080519060200190610880929190612348565b5083816005019080519060200190610899929190612348565b50828160060190805190602001906108b2929190612348565b50818160070190805190602001906108cb929190612348565b50505050505050505050565b600481815481106108e757600080fd5b906000526020600020016000915090508054610902906130b0565b80601f016020809104026020016040519081016040528092919081815260200182805461092e906130b0565b801561097b5780601f106109505761010080835404028352916020019161097b565b820191906000526020600020905b81548152906001019060200180831161095e57829003601f168201915b505050505081565b606060008054906101000a900473ffffffffffffffffffffffffffffffffffffffff1673ffffffffffffffffffffffffffffffffffffffff163373ffffffffffffffffffffffffffffffffffffffff16146109dd57600080fd5b600180546109ea906130b0565b80601f0160208091040260200160405190810160405280929190818152602001828054610a16906130b0565b8015610a635780601f10610a3857610100808354040283529160200191610a63565b820191906000526020600020905b815481529060010190602001808311610a4657829003601f168201915b5050505050905090565b6002602052806000526040600020600091509050806000018054610a90906130b0565b80601f0160208091040260200160405190810160405280929190818152602001828054610abc906130b0565b8015610b095780601f10610ade57610100808354040283529160200191610b09565b820191906000526020600020905b815481529060010190602001808311610aec57829003601f168201915b505050505090806001018054610b1e906130b0565b80601f0160208091040260200160405190810160405280929190818152602001828054610b4a906130b0565b8015610b975780601f10610b6c57610100808354040283529160200191610b97565b820191906000526020600020905b815481529060010190602001808311610b7a57829003601f168201915b5050505050908060020160009054906101000a900473ffffffffffffffffffffffffffffffffffffffff1690806003018054610bd2906130b0565b80601f0160208091040260200160405190810160405280929190818152602001828054610bfe906130b0565b8015610c4b5780601f10610c2057610100808354040283529160200191610c4b565b820191906000526020600020905b815481529060010190602001808311610c2e57829003601f168201915b5050505050908060040160009054906101000a900460ff16905085565b606060008054906101000a900473ffffffffffffffffffffffffffffffffffffffff1673ffffffffffffffffffffffffffffffffffffffff163373ffffffffffffffffffffffffffffffffffffffff1614610cc257600080fd5b6005805480602002602001604051908101604052809291908181526020018280548015610d4457602002820191906000526020600020905b8160009054906101000a900473ffffffffffffffffffffffffffffffffffffffff1673ffffffffffffffffffffffffffffffffffffffff1681526020019060010190808311610cfa575b5050505050905090565b610d566123ce565b60008054906101000a900473ffffffffffffffffffffffffffffffffffffffff1673ffffffffffffffffffffffffffffffffffffffff163373ffffffffffffffffffffffffffffffffffffffff1614610dae57600080fd5b600260008373ffffffffffffffffffffffffffffffffffffffff1673ffffffffffffffffffffffffffffffffffffffff1681526020019081526020016000206040518060a0016040529081600082018054610e08906130b0565b80601f0160208091040260200160405190810160405280929190818152602001828054610e34906130b0565b8015610e815780601f10610e5657610100808354040283529160200191610e81565b820191906000526020600020905b815481529060010190602001808311610e6457829003601f168201915b50505050508152602001600182018054610e9a906130b0565b80601f0160208091040260200160405190810160405280929190818152602001828054610ec6906130b0565b8015610f135780601f10610ee857610100808354040283529160200191610f13565b820191906000526020600020905b815481529060010190602001808311610ef657829003601f168201915b505050505081526020016002820160009054906101000a900473ffffffffffffffffffffffffffffffffffffffff1673ffffffffffffffffffffffffffffffffffffffff1673ffffffffffffffffffffffffffffffffffffffff168152602001600382018054610f82906130b0565b80601f0160208091040260200160405190810160405280929190818152602001828054610fae906130b0565b8015610ffb5780601f10610fd057610100808354040283529160200191610ffb565b820191906000526020600020905b815481529060010190602001808311610fde57829003601f168201915b505050505081526020016004820160009054906101000a900460ff1615151515815250509050919050565b600a6020528060005260406000206000915054906101000a900460ff1681565b6000600360003373ffffffffffffffffffffffffffffffffffffffff1673ffffffffffffffffffffffffffffffffffffffff16815260200190815260200160002060009054906101000a900460ff1661109e57600080fd5b6001905090565b600360003373ffffffffffffffffffffffffffffffffffffffff1673ffffffffffffffffffffffffffffffffffffffff16815260200190815260200160002060009054906101000a900460ff166110fb57600080fd5b60078160405161110b919061311e565b908152602001604051809103902060009054906101000a900460ff161561113157600080fd5b6001600782604051611143919061311e565b908152602001604051809103902060006101000a81548160ff0219169083151502179055506006819080600181540180825580915050600190039060005260206000200160009091909190915090805190602001906111a3929190612348565b5060006008826040516111b6919061311e565b90815260200160405180910390209050600260008473ffffffffffffffffffffffffffffffffffffffff1673ffffffffffffffffffffffffffffffffffffffff16815260200190815260200160002060030181600001908054611218906130b0565b611223929190612415565b508681600101908051906020019061123c929190612348565b5085816002019080519060200190611255929190612348565b50848160030160006101000a81548173ffffffffffffffffffffffffffffffffffffffff021916908373ffffffffffffffffffffffffffffffffffffffff160217905550838160040190805190602001906112b1929190612348565b5060008160050160006101000a81548160ff02191690831515021790555060008160050160016101000a81548160ff02191690831515021790555060008160050160026101000a81548173ffffffffffffffffffffffffffffffffffffffff021916908373ffffffffffffffffffffffffffffffffffffffff16021790555081816006019080519060200190611348929190612348565b50828160070160006101000a81548173ffffffffffffffffffffffffffffffffffffffff021916908373ffffffffffffffffffffffffffffffffffffffff160217905550600160095461139b9190613164565b60098190555050505050505050565b6008818051602081018201805184825260208301602085012081835280955050505050506000915090508060000180546113e3906130b0565b80601f016020809104026020016040519081016040528092919081815260200182805461140f906130b0565b801561145c5780601f106114315761010080835404028352916020019161145c565b820191906000526020600020905b81548152906001019060200180831161143f57829003601f168201915b505050505090806001018054611471906130b0565b80601f016020809104026020016040519081016040528092919081815260200182805461149d906130b0565b80156114ea5780601f106114bf576101008083540402835291602001916114ea565b820191906000526020600020905b8154815290600101906020018083116114cd57829003601f168201915b5050505050908060020180546114ff906130b0565b80601f016020809104026020016040519081016040528092919081815260200182805461152b906130b0565b80156115785780601f1061154d57610100808354040283529160200191611578565b820191906000526020600020905b81548152906001019060200180831161155b57829003601f168201915b5050505050908060030160009054906101000a900473ffffffffffffffffffffffffffffffffffffffff16908060040180546115b3906130b0565b80601f01602080910402602001604051908101604052809291908181526020018280546115df906130b0565b801561162c5780601f106116015761010080835404028352916020019161162c565b820191906000526020600020905b81548152906001019060200180831161160f57829003601f168201915b5050505050908060050160009054906101000a900460ff16908060050160019054906101000a900460ff16908060050160029054906101000a900473ffffffffffffffffffffffffffffffffffffffff169080600601805461168d906130b0565b80601f01602080910402602001604051908101604052809291908181526020018280546116b9906130b0565b80156117065780601f106116db57610100808354040283529160200191611706565b820191906000526020600020905b8154815290600101906020018083116116e957829003601f168201915b5050505050908060070160009054906101000a900473ffffffffffffffffffffffffffffffffffffffff1690508a565b600b602052806000526040600020600091509050806000018054611759906130b0565b80601f0160208091040260200160405190810160405280929190818152602001828054611785906130b0565b80156117d25780601f106117a7576101008083540402835291602001916117d2565b820191906000526020600020905b8154815290600101906020018083116117b557829003601f168201915b5050505050908060010180546117e7906130b0565b80601f0160208091040260200160405190810160405280929190818152602001828054611813906130b0565b80156118605780601f1061183557610100808354040283529160200191611860565b820191906000526020600020905b81548152906001019060200180831161184357829003601f168201915b505050505090806002018054611875906130b0565b80601f01602080910402602001604051908101604052809291908181526020018280546118a1906130b0565b80156118ee5780601f106118c3576101008083540402835291602001916118ee565b820191906000526020600020905b8154815290600101906020018083116118d157829003601f168201915b505050505090806003018054611903906130b0565b80601f016020809104026020016040519081016040528092919081815260200182805461192f906130b0565b801561197c5780601f106119515761010080835404028352916020019161197c565b820191906000526020600020905b81548152906001019060200180831161195f57829003601f168201915b505050505090806004018054611991906130b0565b80601f01602080910402602001604051908101604052809291908181526020018280546119bd906130b0565b8015611a0a5780601f106119df57610100808354040283529160200191611a0a565b820191906000526020600020905b8154815290600101906020018083116119ed57829003601f168201915b505050505090806005018054611a1f906130b0565b80601f0160208091040260200160405190810160405280929190818152602001828054611a4b906130b0565b8015611a985780601f10611a6d57610100808354040283529160200191611a98565b820191906000526020600020905b815481529060010190602001808311611a7b57829003601f168201915b505050505090806006018054611aad906130b0565b80601f0160208091040260200160405190810160405280929190818152602001828054611ad9906130b0565b8015611b265780601f10611afb57610100808354040283529160200191611b26565b820191906000526020600020905b815481529060010190602001808311611b0957829003601f168201915b505050505090806007018054611b3b906130b0565b80601f0160208091040260200160405190810160405280929190818152602001828054611b67906130b0565b8015611bb45780601f10611b8957610100808354040283529160200191611bb4565b820191906000526020600020905b815481529060010190602001808311611b9757829003601f168201915b5050505050908060080160009054906101000a900473ffffffffffffffffffffffffffffffffffffffff16905089565b6007818051602081018201805184825260208301602085012081835280955050505050506000915054906101000a900460ff1681565b60068181548110611c2a57600080fd5b906000526020600020016000915090508054611c45906130b0565b80601f0160208091040260200160405190810160405280929190818152602001828054611c71906130b0565b8015611cbe5780601f10611c9357610100808354040283529160200191611cbe565b820191906000526020600020905b815481529060010190602001808311611ca157829003601f168201915b505050505081565b60008054906101000a900473ffffffffffffffffffffffffffffffffffffffff1673ffffffffffffffffffffffffffffffffffffffff163373ffffffffffffffffffffffffffffffffffffffff1614611d1e57600080fd5b611e01600260008373ffffffffffffffffffffffffffffffffffffffff1673ffffffffffffffffffffffffffffffffffffffff1681526020019081526020016000206003018054611d6e906130b0565b80601f0160208091040260200160405190810160405280929190818152602001828054611d9a906130b0565b8015611de75780601f10611dbc57610100808354040283529160200191611de7565b820191906000526020600020905b815481529060010190602001808311611dca57829003601f168201915b50505050506040518060200160405280600081525061232d565b15611e4357600482908060018154018082558091505060019003906000526020600020016000909190919091509080519060200190611e41929190612348565b505b6000600260008373ffffffffffffffffffffffffffffffffffffffff1673ffffffffffffffffffffffffffffffffffffffff168152602001908152602001600020905084816000019080519060200190611e9e929190612348565b5083816001019080519060200190611eb7929190612348565b50818160020160006101000a81548173ffffffffffffffffffffffffffffffffffffffff021916908373ffffffffffffffffffffffffffffffffffffffff16021790555082816003019080519060200190611f13929190612348565b5060018160040160006101000a81548160ff0219169083151502179055506005829080600181540180825580915050600190039060005260206000200160009091909190916101000a81548173ffffffffffffffffffffffffffffffffffffffff021916908373ffffffffffffffffffffffffffffffffffffffff1602179055506001600360008473ffffffffffffffffffffffffffffffffffffffff1673ffffffffffffffffffffffffffffffffffffffff16815260200190815260200160002060006101000a81548160ff0219169083151502179055505050505050565b6000600a60003373ffffffffffffffffffffffffffffffffffffffff1673ffffffffffffffffffffffffffffffffffffffff16815260200190815260200160002060009054906101000a900460ff16156120505760019050612274565b6001600a60003373ffffffffffffffffffffffffffffffffffffffff1673ffffffffffffffffffffffffffffffffffffffff16815260200190815260200160002060006101000a81548160ff0219169083151502179055506000600b60003373ffffffffffffffffffffffffffffffffffffffff1673ffffffffffffffffffffffffffffffffffffffff168152602001908152602001600020905060405180602001604052806000815250816000019080519060200190612112929190612348565b506040518060200160405280600081525081600101908051906020019061213a929190612348565b5060405180602001604052806000815250816002019080519060200190612162929190612348565b506040518060200160405280600081525081600301908051906020019061218a929190612348565b50604051806020016040528060008152508160040190805190602001906121b2929190612348565b50604051806020016040528060008152508160050190805190602001906121da929190612348565b5060405180602001604052806000815250816006019080519060200190612202929190612348565b506040518060200160405280600081525081600701908051906020019061222a929190612348565b50338160080160006101000a81548173ffffffffffffffffffffffffffffffffffffffff021916908373ffffffffffffffffffffffffffffffffffffffff16021790555060019150505b90565b60008054906101000a900473ffffffffffffffffffffffffffffffffffffffff1673ffffffffffffffffffffffffffffffffffffffff163373ffffffffffffffffffffffffffffffffffffffff16146122cf57600080fd5b6000600260008373ffffffffffffffffffffffffffffffffffffffff1673ffffffffffffffffffffffffffffffffffffffff16815260200190815260200160002060040160006101000a81548160ff02191690831515021790555050565b60008180519060200120838051906020012014905092915050565b828054612354906130b0565b90600052602060002090601f01602090048101928261237657600085556123bd565b82601f1061238f57805160ff19168380011785556123bd565b828001600101855582156123bd579182015b828111156123bc5782518255916020019190600101906123a1565b5b5090506123ca91906124a2565b5090565b6040518060a001604052806060815260200160608152602001600073ffffffffffffffffffffffffffffffffffffffff168152602001606081526020016000151581525090565b828054612421906130b0565b90600052602060002090601f0160209004810192826124435760008555612491565b82601f106124545780548555612491565b8280016001018555821561249157600052602060002091601f016020900482015b82811115612490578254825591600101919060010190612475565b5b50905061249e91906124a2565b5090565b5b808211156124bb5760008160009055506001016124a3565b5090565b600073ffffffffffffffffffffffffffffffffffffffff82169050919050565b60006124ea826124bf565b9050919050565b6124fa816124df565b82525050565b600060208201905061251560008301846124f1565b92915050565b6000604051905090565b600080fd5b600080fd5b6000819050919050565b6125428161252f565b811461254d57600080fd5b50565b60008135905061255f81612539565b92915050565b60006020828403121561257b5761257a612525565b5b600061258984828501612550565b91505092915050565b600080fd5b600080fd5b6000601f19601f8301169050919050565b7f4e487b7100000000000000000000000000000000000000000000000000000000600052604160045260246000fd5b6125e58261259c565b810181811067ffffffffffffffff82111715612604576126036125ad565b5b80604052505050565b600061261761251b565b905061262382826125dc565b919050565b600067ffffffffffffffff821115612643576126426125ad565b5b61264c8261259c565b9050602081019050919050565b82818337600083830152505050565b600061267b61267684612628565b61260d565b90508281526020810184848401111561269757612696612597565b5b6126a2848285612659565b509392505050565b600082601f8301126126bf576126be612592565b5b81356126cf848260208601612668565b91505092915050565b6126e1816124df565b81146126ec57600080fd5b50565b6000813590506126fe816126d8565b92915050565b6000806000806080858703121561271e5761271d612525565b5b600085013567ffffffffffffffff81111561273c5761273b61252a565b5b612748878288016126aa565b945050602085013567ffffffffffffffff8111156127695761276861252a565b5b612775878288016126aa565b935050604085013567ffffffffffffffff8111156127965761279561252a565b5b6127a2878288016126aa565b92505060606127b3878288016126ef565b91505092959194509250565b600081519050919050565b600082825260208201905092915050565b6000819050602082019050919050565b600081519050919050565b600082825260208201905092915050565b60005b8381101561282557808201518184015260208101905061280a565b83811115612834576000848401525b50505050565b6000612845826127eb565b61284f81856127f6565b935061285f818560208601612807565b6128688161259c565b840191505092915050565b600061287f838361283a565b905092915050565b6000602082019050919050565b600061289f826127bf565b6128a981856127ca565b9350836020820285016128bb856127db565b8060005b858110156128f757848403895281516128d88582612873565b94506128e383612887565b925060208a019950506001810190506128bf565b50829750879550505050505092915050565b600060208201905081810360008301526129238184612894565b905092915050565b60006020828403121561294157612940612525565b5b600061294f848285016126ef565b91505092915050565b6129618161252f565b82525050565b600060208201905061297c6000830184612958565b92915050565b600080600080600080600080610100898b0312156129a3576129a2612525565b5b600089013567ffffffffffffffff8111156129c1576129c061252a565b5b6129cd8b828c016126aa565b985050602089013567ffffffffffffffff8111156129ee576129ed61252a565b5b6129fa8b828c016126aa565b975050604089013567ffffffffffffffff811115612a1b57612a1a61252a565b5b612a278b828c016126aa565b965050606089013567ffffffffffffffff811115612a4857612a4761252a565b5b612a548b828c016126aa565b955050608089013567ffffffffffffffff811115612a7557612a7461252a565b5b612a818b828c016126aa565b94505060a089013567ffffffffffffffff811115612aa257612aa161252a565b5b612aae8b828c016126aa565b93505060c089013567ffffffffffffffff811115612acf57612ace61252a565b5b612adb8b828c016126aa565b92505060e089013567ffffffffffffffff811115612afc57612afb61252a565b5b612b088b828c016126aa565b9150509295985092959890939650565b600082825260208201905092915050565b6000612b34826127eb565b612b3e8185612b18565b9350612b4e818560208601612807565b612b578161259c565b840191505092915050565b60006020820190508181036000830152612b7c8184612b29565b905092915050565b60008115159050919050565b612b9981612b84565b82525050565b600060a0820190508181036000830152612bb98188612b29565b90508181036020830152612bcd8187612b29565b9050612bdc60408301866124f1565b8181036060830152612bee8185612b29565b9050612bfd6080830184612b90565b9695505050505050565b600081519050919050565b600082825260208201905092915050565b6000819050602082019050919050565b612c3c816124df565b82525050565b6000612c4e8383612c33565b60208301905092915050565b6000602082019050919050565b6000612c7282612c07565b612c7c8185612c12565b9350612c8783612c23565b8060005b83811015612cb8578151612c9f8882612c42565b9750612caa83612c5a565b925050600181019050612c8b565b5085935050505092915050565b60006020820190508181036000830152612cdf8184612c67565b905092915050565b612cf081612b84565b82525050565b600060a0830160008301518482036000860152612d13828261283a565b91505060208301518482036020860152612d2d828261283a565b9150506040830151612d426040860182612c33565b5060608301518482036060860152612d5a828261283a565b9150506080830151612d6f6080860182612ce7565b508091505092915050565b60006020820190508181036000830152612d948184612cf6565b905092915050565b6000602082019050612db16000830184612b90565b92915050565b60008060008060008060c08789031215612dd457612dd3612525565b5b600087013567ffffffffffffffff811115612df257612df161252a565b5b612dfe89828a016126aa565b965050602087013567ffffffffffffffff811115612e1f57612e1e61252a565b5b612e2b89828a016126aa565b9550506040612e3c89828a016126ef565b945050606087013567ffffffffffffffff811115612e5d57612e5c61252a565b5b612e6989828a016126aa565b9350506080612e7a89828a016126ef565b92505060a087013567ffffffffffffffff811115612e9b57612e9a61252a565b5b612ea789828a016126aa565b9150509295509295509295565b600060208284031215612eca57612ec9612525565b5b600082013567ffffffffffffffff811115612ee857612ee761252a565b5b612ef4848285016126aa565b91505092915050565b6000610140820190508181036000830152612f18818d612b29565b90508181036020830152612f2c818c612b29565b90508181036040830152612f40818b612b29565b9050612f4f606083018a6124f1565b8181036080830152612f618189612b29565b9050612f7060a0830188612b90565b612f7d60c0830187612b90565b612f8a60e08301866124f1565b818103610100830152612f9d8185612b29565b9050612fad6101208301846124f1565b9b9a5050505050505050505050565b6000610120820190508181036000830152612fd7818c612b29565b90508181036020830152612feb818b612b29565b90508181036040830152612fff818a612b29565b905081810360608301526130138189612b29565b905081810360808301526130278188612b29565b905081810360a083015261303b8187612b29565b905081810360c083015261304f8186612b29565b905081810360e08301526130638185612b29565b90506130736101008301846124f1565b9a9950505050505050505050565b7f4e487b7100000000000000000000000000000000000000000000000000000000600052602260045260246000fd5b600060028204905060018216806130c857607f821691505b602082108114156130dc576130db613081565b5b50919050565b600081905092915050565b60006130f8826127eb565b61310281856130e2565b9350613112818560208601612807565b80840191505092915050565b600061312a82846130ed565b915081905092915050565b7f4e487b7100000000000000000000000000000000000000000000000000000000600052601160045260246000fd5b600061316f8261252f565b915061317a8361252f565b9250827fffffffffffffffffffffffffffffffffffffffffffffffffffffffffffffffff038211156131af576131ae613135565b5b82820190509291505056fea26469706673582212205a5c0441d0fb8b7c44740405588f199839a07e57c1b281dbaddbdf1a1c4d936464736f6c634300080a0033","opcodes":"PUSH1 0x80 PUSH1 0x40 MSTORE CALLVALUE DUP1 ISZERO PUSH3 0x11 JUMPI PUSH1 0x0 DUP1 REVERT JUMPDEST POP PUSH1 0x40 MLOAD PUSH3 0x35A2 CODESIZE SUB DUP1 PUSH3 0x35A2 DUP4 CODECOPY DUP2 DUP2 ADD PUSH1 0x40 MSTORE DUP2 ADD SWAP1 PUSH3 0x37 SWAP2 SWAP1 PUSH3 0x2EC JUMP JUMPDEST DUP1 PUSH1 0x1 SWAP1 DUP1 MLOAD SWAP1 PUSH1 0x20 ADD SWAP1 PUSH3 0x4F SWAP3 SWAP2 SWAP1 PUSH3 0x9F JUMP JUMPDEST POP CALLER PUSH1 0x0 DUP1 PUSH2 0x100 EXP DUP2 SLOAD DUP2 PUSH20 0xFFFFFFFFFFFFFFFFFFFFFFFFFFFFFFFFFFFFFFFF MUL NOT AND SWAP1 DUP4 PUSH20 0xFFFFFFFFFFFFFFFFFFFFFFFFFFFFFFFFFFFFFFFF AND MUL OR SWAP1 SSTORE POP PUSH1 0x0 PUSH1 0x9 DUP2 SWAP1 SSTORE POP POP PUSH3 0x3A2 JUMP JUMPDEST DUP3 DUP1 SLOAD PUSH3 0xAD SWAP1 PUSH3 0x36C JUMP JUMPDEST SWAP1 PUSH1 0x0 MSTORE PUSH1 0x20 PUSH1 0x0 KECCAK256 SWAP1 PUSH1 0x1F ADD PUSH1 0x20 SWAP1 DIV DUP2 ADD SWAP3 DUP3 PUSH3 0xD1 JUMPI PUSH1 0x0 DUP6 SSTORE PUSH3 0x11D JUMP JUMPDEST DUP3 PUSH1 0x1F LT PUSH3 0xEC JUMPI DUP1 MLOAD PUSH1 0xFF NOT AND DUP4 DUP1 ADD OR DUP6 SSTORE PUSH3 0x11D JUMP JUMPDEST DUP3 DUP1 ADD PUSH1 0x1 ADD DUP6 SSTORE DUP3 ISZERO PUSH3 0x11D JUMPI SWAP2 DUP3 ADD JUMPDEST DUP3 DUP2 GT ISZERO PUSH3 0x11C JUMPI DUP3 MLOAD DUP3 SSTORE SWAP2 PUSH1 0x20 ADD SWAP2 SWAP1 PUSH1 0x1 ADD SWAP1 PUSH3 0xFF JUMP JUMPDEST JUMPDEST POP SWAP1 POP PUSH3 0x12C SWAP2 SWAP1 PUSH3 0x130 JUMP JUMPDEST POP SWAP1 JUMP JUMPDEST JUMPDEST DUP1 DUP3 GT ISZERO PUSH3 0x14B JUMPI PUSH1 0x0 DUP2 PUSH1 0x0 SWAP1 SSTORE POP PUSH1 0x1 ADD PUSH3 0x131 JUMP JUMPDEST POP SWAP1 JUMP JUMPDEST PUSH1 0x0 PUSH1 0x40 MLOAD SWAP1 POP SWAP1 JUMP JUMPDEST PUSH1 0x0 DUP1 REVERT JUMPDEST PUSH1 0x0 DUP1 REVERT JUMPDEST PUSH1 0x0 DUP1 REVERT JUMPDEST PUSH1 0x0 DUP1 REVERT JUMPDEST PUSH1 0x0 PUSH1 0x1F NOT PUSH1 0x1F DUP4 ADD AND SWAP1 POP SWAP2 SWAP1 POP JUMP JUMPDEST PUSH32 0x4E487B7100000000000000000000000000000000000000000000000000000000 PUSH1 0x0 MSTORE PUSH1 0x41 PUSH1 0x4 MSTORE PUSH1 0x24 PUSH1 0x0 REVERT JUMPDEST PUSH3 0x1B8 DUP3 PUSH3 0x16D JUMP JUMPDEST DUP2 ADD DUP2 DUP2 LT PUSH8 0xFFFFFFFFFFFFFFFF DUP3 GT OR ISZERO PUSH3 0x1DA JUMPI PUSH3 0x1D9 PUSH3 0x17E JUMP JUMPDEST JUMPDEST DUP1 PUSH1 0x40 MSTORE POP POP POP JUMP JUMPDEST PUSH1 0x0 PUSH3 0x1EF PUSH3 0x14F JUMP JUMPDEST SWAP1 POP PUSH3 0x1FD DUP3 DUP3 PUSH3 0x1AD JUMP JUMPDEST SWAP2 SWAP1 POP JUMP JUMPDEST PUSH1 0x0 PUSH8 0xFFFFFFFFFFFFFFFF DUP3 GT ISZERO PUSH3 0x220 JUMPI PUSH3 0x21F PUSH3 0x17E JUMP JUMPDEST JUMPDEST PUSH3 0x22B DUP3 PUSH3 0x16D JUMP JUMPDEST SWAP1 POP PUSH1 0x20 DUP2 ADD SWAP1 POP SWAP2 SWAP1 POP JUMP JUMPDEST PUSH1 0x0 JUMPDEST DUP4 DUP2 LT ISZERO PUSH3 0x258 JUMPI DUP1 DUP3 ADD MLOAD DUP2 DUP5 ADD MSTORE PUSH1 0x20 DUP2 ADD SWAP1 POP PUSH3 0x23B JUMP JUMPDEST DUP4 DUP2 GT ISZERO PUSH3 0x268 JUMPI PUSH1 0x0 DUP5 DUP5 ADD MSTORE JUMPDEST POP POP POP POP JUMP JUMPDEST PUSH1 0x0 PUSH3 0x285 PUSH3 0x27F DUP5 PUSH3 0x202 JUMP JUMPDEST PUSH3 0x1E3 JUMP JUMPDEST SWAP1 POP DUP3 DUP2 MSTORE PUSH1 0x20 DUP2 ADD DUP5 DUP5 DUP5 ADD GT ISZERO PUSH3 0x2A4 JUMPI PUSH3 0x2A3 PUSH3 0x168 JUMP JUMPDEST JUMPDEST PUSH3 0x2B1 DUP5 DUP3 DUP6 PUSH3 0x238 JUMP JUMPDEST POP SWAP4 SWAP3 POP POP POP JUMP JUMPDEST PUSH1 0x0 DUP3 PUSH1 0x1F DUP4 ADD SLT PUSH3 0x2D1 JUMPI PUSH3 0x2D0 PUSH3 0x163 JUMP JUMPDEST JUMPDEST DUP2 MLOAD PUSH3 0x2E3 DUP5 DUP3 PUSH1 0x20 DUP7 ADD PUSH3 0x26E JUMP JUMPDEST SWAP2 POP POP SWAP3 SWAP2 POP POP JUMP JUMPDEST PUSH1 0x0 PUSH1 0x20 DUP3 DUP5 SUB SLT ISZERO PUSH3 0x305 JUMPI PUSH3 0x304 PUSH3 0x159 JUMP JUMPDEST JUMPDEST PUSH1 0x0 DUP3 ADD MLOAD PUSH8 0xFFFFFFFFFFFFFFFF DUP2 GT ISZERO PUSH3 0x326 JUMPI PUSH3 0x325 PUSH3 0x15E JUMP JUMPDEST JUMPDEST PUSH3 0x334 DUP5 DUP3 DUP6 ADD PUSH3 0x2B9 JUMP JUMPDEST SWAP2 POP POP SWAP3 SWAP2 POP POP JUMP JUMPDEST PUSH32 0x4E487B7100000000000000000000000000000000000000000000000000000000 PUSH1 0x0 MSTORE PUSH1 0x22 PUSH1 0x4 MSTORE PUSH1 0x24 PUSH1 0x0 REVERT JUMPDEST PUSH1 0x0 PUSH1 0x2 DUP3 DIV SWAP1 POP PUSH1 0x1 DUP3 AND DUP1 PUSH3 0x385 JUMPI PUSH1 0x7F DUP3 AND SWAP2 POP JUMPDEST PUSH1 0x20 DUP3 LT DUP2 EQ ISZERO PUSH3 0x39C JUMPI PUSH3 0x39B PUSH3 0x33D JUMP JUMPDEST JUMPDEST POP SWAP2 SWAP1 POP JUMP JUMPDEST PUSH2 0x31F0 DUP1 PUSH3 0x3B2 PUSH1 0x0 CODECOPY PUSH1 0x0 RETURN INVALID PUSH1 0x80 PUSH1 0x40 MSTORE CALLVALUE DUP1 ISZERO PUSH2 0x10 JUMPI PUSH1 0x0 DUP1 REVERT JUMPDEST POP PUSH1 0x4 CALLDATASIZE LT PUSH2 0x142 JUMPI PUSH1 0x0 CALLDATALOAD PUSH1 0xE0 SHR DUP1 PUSH4 0x64EFB22B GT PUSH2 0xB8 JUMPI DUP1 PUSH4 0xBE87BB8A GT PUSH2 0x7C JUMPI DUP1 PUSH4 0xBE87BB8A EQ PUSH2 0x398 JUMPI DUP1 PUSH4 0xC4A0086F EQ PUSH2 0x3D0 JUMPI DUP1 PUSH4 0xCBD5121C EQ PUSH2 0x400 JUMPI DUP1 PUSH4 0xCDDB61B7 EQ PUSH2 0x430 JUMPI DUP1 PUSH4 0xDB9573E1 EQ PUSH2 0x44C JUMPI DUP1 PUSH4 0xDF6FA20E EQ PUSH2 0x46A JUMPI PUSH2 0x142 JUMP JUMPDEST DUP1 PUSH4 0x64EFB22B EQ PUSH2 0x2C5 JUMPI DUP1 PUSH4 0x67B57142 EQ PUSH2 0x2F5 JUMPI DUP1 PUSH4 0x8B5C9335 EQ PUSH2 0x325 JUMPI DUP1 PUSH4 0xADE79551 EQ PUSH2 0x343 JUMPI DUP1 PUSH4 0xB1C8AD0D EQ PUSH2 0x35F JUMPI PUSH2 0x142 JUMP JUMPDEST DUP1 PUSH4 0x1C9AFD0F GT PUSH2 0x10A JUMPI DUP1 PUSH4 0x1C9AFD0F EQ PUSH2 0x1EB JUMPI DUP1 PUSH4 0x245351C9 EQ PUSH2 0x209 JUMPI DUP1 PUSH4 0x2A979F31 EQ PUSH2 0x225 JUMPI DUP1 PUSH4 0x2DE8F46D EQ PUSH2 0x255 JUMPI DUP1 PUSH4 0x429B62E5 EQ PUSH2 0x273 JUMPI DUP1 PUSH4 0x64DDFA29 EQ PUSH2 0x2A7 JUMPI PUSH2 0x142 JUMP JUMPDEST DUP1 PUSH4 0x45B3034 EQ PUSH2 0x147 JUMPI DUP1 PUSH4 0x13718C97 EQ PUSH2 0x165 JUMPI DUP1 PUSH4 0x1510F0D5 EQ PUSH2 0x195 JUMPI DUP1 PUSH4 0x1A994ED8 EQ PUSH2 0x1B1 JUMPI DUP1 PUSH4 0x1AF1A768 EQ PUSH2 0x1CF JUMPI JUMPDEST PUSH1 0x0 DUP1 REVERT JUMPDEST PUSH2 0x14F PUSH2 0x486 JUMP JUMPDEST PUSH1 0x40 MLOAD PUSH2 0x15C SWAP2 SWAP1 PUSH2 0x2500 JUMP JUMPDEST PUSH1 0x40 MLOAD DUP1 SWAP2 SUB SWAP1 RETURN JUMPDEST PUSH2 0x17F PUSH1 0x4 DUP1 CALLDATASIZE SUB DUP2 ADD SWAP1 PUSH2 0x17A SWAP2 SWAP1 PUSH2 0x2565 JUMP JUMPDEST PUSH2 0x4AA JUMP JUMPDEST PUSH1 0x40 MLOAD PUSH2 0x18C SWAP2 SWAP1 PUSH2 0x2500 JUMP JUMPDEST PUSH1 0x40 MLOAD DUP1 SWAP2 SUB SWAP1 RETURN JUMPDEST PUSH2 0x1AF PUSH1 0x4 DUP1 CALLDATASIZE SUB DUP2 ADD SWAP1 PUSH2 0x1AA SWAP2 SWAP1 PUSH2 0x2704 JUMP JUMPDEST PUSH2 0x4E9 JUMP JUMPDEST STOP JUMPDEST PUSH2 0x1B9 PUSH2 0x5D6 JUMP JUMPDEST PUSH1 0x40 MLOAD PUSH2 0x1C6 SWAP2 SWAP1 PUSH2 0x2909 JUMP JUMPDEST PUSH1 0x40 MLOAD DUP1 SWAP2 SUB SWAP1 RETURN JUMPDEST PUSH2 0x1E9 PUSH1 0x4 DUP1 CALLDATASIZE SUB DUP2 ADD SWAP1 PUSH2 0x1E4 SWAP2 SWAP1 PUSH2 0x292B JUMP JUMPDEST PUSH2 0x705 JUMP JUMPDEST STOP JUMPDEST PUSH2 0x1F3 PUSH2 0x7BB JUMP JUMPDEST PUSH1 0x40 MLOAD PUSH2 0x200 SWAP2 SWAP1 PUSH2 0x2967 JUMP JUMPDEST PUSH1 0x40 MLOAD DUP1 SWAP2 SUB SWAP1 RETURN JUMPDEST PUSH2 0x223 PUSH1 0x4 DUP1 CALLDATASIZE SUB DUP2 ADD SWAP1 PUSH2 0x21E SWAP2 SWAP1 PUSH2 0x2982 JUMP JUMPDEST PUSH2 0x7C1 JUMP JUMPDEST STOP JUMPDEST PUSH2 0x23F PUSH1 0x4 DUP1 CALLDATASIZE SUB DUP2 ADD SWAP1 PUSH2 0x23A SWAP2 SWAP1 PUSH2 0x2565 JUMP JUMPDEST PUSH2 0x8D7 JUMP JUMPDEST PUSH1 0x40 MLOAD PUSH2 0x24C SWAP2 SWAP1 PUSH2 0x2B62 JUMP JUMPDEST PUSH1 0x40 MLOAD DUP1 SWAP2 SUB SWAP1 RETURN JUMPDEST PUSH2 0x25D PUSH2 0x983 JUMP JUMPDEST PUSH1 0x40 MLOAD PUSH2 0x26A SWAP2 SWAP1 PUSH2 0x2B62 JUMP JUMPDEST PUSH1 0x40 MLOAD DUP1 SWAP2 SUB SWAP1 RETURN JUMPDEST PUSH2 0x28D PUSH1 0x4 DUP1 CALLDATASIZE SUB DUP2 ADD SWAP1 PUSH2 0x288 SWAP2 SWAP1 PUSH2 0x292B JUMP JUMPDEST PUSH2 0xA6D JUMP JUMPDEST PUSH1 0x40 MLOAD PUSH2 0x29E SWAP6 SWAP5 SWAP4 SWAP3 SWAP2 SWAP1 PUSH2 0x2B9F JUMP JUMPDEST PUSH1 0x40 MLOAD DUP1 SWAP2 SUB SWAP1 RETURN JUMPDEST PUSH2 0x2AF PUSH2 0xC68 JUMP JUMPDEST PUSH1 0x40 MLOAD PUSH2 0x2BC SWAP2 SWAP1 PUSH2 0x2CC5 JUMP JUMPDEST PUSH1 0x40 MLOAD DUP1 SWAP2 SUB SWAP1 RETURN JUMPDEST PUSH2 0x2DF PUSH1 0x4 DUP1 CALLDATASIZE SUB DUP2 ADD SWAP1 PUSH2 0x2DA SWAP2 SWAP1 PUSH2 0x292B JUMP JUMPDEST PUSH2 0xD4E JUMP JUMPDEST PUSH1 0x40 MLOAD PUSH2 0x2EC SWAP2 SWAP1 PUSH2 0x2D7A JUMP JUMPDEST PUSH1 0x40 MLOAD DUP1 SWAP2 SUB SWAP1 RETURN JUMPDEST PUSH2 0x30F PUSH1 0x4 DUP1 CALLDATASIZE SUB DUP2 ADD SWAP1 PUSH2 0x30A SWAP2 SWAP1 PUSH2 0x292B JUMP JUMPDEST PUSH2 0x1026 JUMP JUMPDEST PUSH1 0x40 MLOAD PUSH2 0x31C SWAP2 SWAP1 PUSH2 0x2D9C JUMP JUMPDEST PUSH1 0x40 MLOAD DUP1 SWAP2 SUB SWAP1 RETURN JUMPDEST PUSH2 0x32D PUSH2 0x1046 JUMP JUMPDEST PUSH1 0x40 MLOAD PUSH2 0x33A SWAP2 SWAP1 PUSH2 0x2D9C JUMP JUMPDEST PUSH1 0x40 MLOAD DUP1 SWAP2 SUB SWAP1 RETURN JUMPDEST PUSH2 0x35D PUSH1 0x4 DUP1 CALLDATASIZE SUB DUP2 ADD SWAP1 PUSH2 0x358 SWAP2 SWAP1 PUSH2 0x2DB7 JUMP JUMPDEST PUSH2 0x10A5 JUMP JUMPDEST STOP JUMPDEST PUSH2 0x379 PUSH1 0x4 DUP1 CALLDATASIZE SUB DUP2 ADD SWAP1 PUSH2 0x374 SWAP2 SWAP1 PUSH2 0x2EB4 JUMP JUMPDEST PUSH2 0x13AA JUMP JUMPDEST PUSH1 0x40 MLOAD PUSH2 0x38F SWAP11 SWAP10 SWAP9 SWAP8 SWAP7 SWAP6 SWAP5 SWAP4 SWAP3 SWAP2 SWAP1 PUSH2 0x2EFD JUMP JUMPDEST PUSH1 0x40 MLOAD DUP1 SWAP2 SUB SWAP1 RETURN JUMPDEST PUSH2 0x3B2 PUSH1 0x4 DUP1 CALLDATASIZE SUB DUP2 ADD SWAP1 PUSH2 0x3AD SWAP2 SWAP1 PUSH2 0x292B JUMP JUMPDEST PUSH2 0x1736 JUMP JUMPDEST PUSH1 0x40 MLOAD PUSH2 0x3C7 SWAP10 SWAP9 SWAP8 SWAP7 SWAP6 SWAP5 SWAP4 SWAP3 SWAP2 SWAP1 PUSH2 0x2FBC JUMP JUMPDEST PUSH1 0x40 MLOAD DUP1 SWAP2 SUB SWAP1 RETURN JUMPDEST PUSH2 0x3EA PUSH1 0x4 DUP1 CALLDATASIZE SUB DUP2 ADD SWAP1 PUSH2 0x3E5 SWAP2 SWAP1 PUSH2 0x2EB4 JUMP JUMPDEST PUSH2 0x1BE4 JUMP JUMPDEST PUSH1 0x40 MLOAD PUSH2 0x3F7 SWAP2 SWAP1 PUSH2 0x2D9C JUMP JUMPDEST PUSH1 0x40 MLOAD DUP1 SWAP2 SUB SWAP1 RETURN JUMPDEST PUSH2 0x41A PUSH1 0x4 DUP1 CALLDATASIZE SUB DUP2 ADD SWAP1 PUSH2 0x415 SWAP2 SWAP1 PUSH2 0x2565 JUMP JUMPDEST PUSH2 0x1C1A JUMP JUMPDEST PUSH1 0x40 MLOAD PUSH2 0x427 SWAP2 SWAP1 PUSH2 0x2B62 JUMP JUMPDEST PUSH1 0x40 MLOAD DUP1 SWAP2 SUB SWAP1 RETURN JUMPDEST PUSH2 0x44A PUSH1 0x4 DUP1 CALLDATASIZE SUB DUP2 ADD SWAP1 PUSH2 0x445 SWAP2 SWAP1 PUSH2 0x2704 JUMP JUMPDEST PUSH2 0x1CC6 JUMP JUMPDEST STOP JUMPDEST PUSH2 0x454 PUSH2 0x1FF3 JUMP JUMPDEST PUSH1 0x40 MLOAD PUSH2 0x461 SWAP2 SWAP1 PUSH2 0x2D9C JUMP JUMPDEST PUSH1 0x40 MLOAD DUP1 SWAP2 SUB SWAP1 RETURN JUMPDEST PUSH2 0x484 PUSH1 0x4 DUP1 CALLDATASIZE SUB DUP2 ADD SWAP1 PUSH2 0x47F SWAP2 SWAP1 PUSH2 0x292B JUMP JUMPDEST PUSH2 0x2277 JUMP JUMPDEST STOP JUMPDEST PUSH1 0x0 DUP1 SLOAD SWAP1 PUSH2 0x100 EXP SWAP1 DIV PUSH20 0xFFFFFFFFFFFFFFFFFFFFFFFFFFFFFFFFFFFFFFFF AND DUP2 JUMP JUMPDEST PUSH1 0x5 DUP2 DUP2 SLOAD DUP2 LT PUSH2 0x4BA JUMPI PUSH1 0x0 DUP1 REVERT JUMPDEST SWAP1 PUSH1 0x0 MSTORE PUSH1 0x20 PUSH1 0x0 KECCAK256 ADD PUSH1 0x0 SWAP2 POP SLOAD SWAP1 PUSH2 0x100 EXP SWAP1 DIV PUSH20 0xFFFFFFFFFFFFFFFFFFFFFFFFFFFFFFFFFFFFFFFF AND DUP2 JUMP JUMPDEST PUSH1 0x0 DUP1 SLOAD SWAP1 PUSH2 0x100 EXP SWAP1 DIV PUSH20 0xFFFFFFFFFFFFFFFFFFFFFFFFFFFFFFFFFFFFFFFF AND PUSH20 0xFFFFFFFFFFFFFFFFFFFFFFFFFFFFFFFFFFFFFFFF AND CALLER PUSH20 0xFFFFFFFFFFFFFFFFFFFFFFFFFFFFFFFFFFFFFFFF AND EQ PUSH2 0x541 JUMPI PUSH1 0x0 DUP1 REVERT JUMPDEST PUSH1 0x0 PUSH1 0x2 PUSH1 0x0 DUP4 PUSH20 0xFFFFFFFFFFFFFFFFFFFFFFFFFFFFFFFFFFFFFFFF AND PUSH20 0xFFFFFFFFFFFFFFFFFFFFFFFFFFFFFFFFFFFFFFFF AND DUP2 MSTORE PUSH1 0x20 ADD SWAP1 DUP2 MSTORE PUSH1 0x20 ADD PUSH1 0x0 KECCAK256 SWAP1 POP DUP5 DUP2 PUSH1 0x0 ADD SWAP1 DUP1 MLOAD SWAP1 PUSH1 0x20 ADD SWAP1 PUSH2 0x59C SWAP3 SWAP2 SWAP1 PUSH2 0x2348 JUMP JUMPDEST POP DUP4 DUP2 PUSH1 0x1 ADD SWAP1 DUP1 MLOAD SWAP1 PUSH1 0x20 ADD SWAP1 PUSH2 0x5B5 SWAP3 SWAP2 SWAP1 PUSH2 0x2348 JUMP JUMPDEST POP DUP3 DUP2 PUSH1 0x3 ADD SWAP1 DUP1 MLOAD SWAP1 PUSH1 0x20 ADD SWAP1 PUSH2 0x5CE SWAP3 SWAP2 SWAP1 PUSH2 0x2348 JUMP JUMPDEST POP POP POP POP POP POP JUMP JUMPDEST PUSH1 0x60 PUSH1 0x3 PUSH1 0x0 CALLER PUSH20 0xFFFFFFFFFFFFFFFFFFFFFFFFFFFFFFFFFFFFFFFF AND PUSH20 0xFFFFFFFFFFFFFFFFFFFFFFFFFFFFFFFFFFFFFFFF AND DUP2 MSTORE PUSH1 0x20 ADD SWAP1 DUP2 MSTORE PUSH1 0x20 ADD PUSH1 0x0 KECCAK256 PUSH1 0x0 SWAP1 SLOAD SWAP1 PUSH2 0x100 EXP SWAP1 DIV PUSH1 0xFF AND PUSH2 0x62E JUMPI PUSH1 0x0 DUP1 REVERT JUMPDEST PUSH1 0x6 DUP1 SLOAD DUP1 PUSH1 0x20 MUL PUSH1 0x20 ADD PUSH1 0x40 MLOAD SWAP1 DUP2 ADD PUSH1 0x40 MSTORE DUP1 SWAP3 SWAP2 SWAP1 DUP2 DUP2 MSTORE PUSH1 0x20 ADD PUSH1 0x0 SWAP1 JUMPDEST DUP3 DUP3 LT ISZERO PUSH2 0x6FC JUMPI DUP4 DUP3 SWAP1 PUSH1 0x0 MSTORE PUSH1 0x20 PUSH1 0x0 KECCAK256 ADD DUP1 SLOAD PUSH2 0x66F SWAP1 PUSH2 0x30B0 JUMP JUMPDEST DUP1 PUSH1 0x1F ADD PUSH1 0x20 DUP1 SWAP2 DIV MUL PUSH1 0x20 ADD PUSH1 0x40 MLOAD SWAP1 DUP2 ADD PUSH1 0x40 MSTORE DUP1 SWAP3 SWAP2 SWAP1 DUP2 DUP2 MSTORE PUSH1 0x20 ADD DUP3 DUP1 SLOAD PUSH2 0x69B SWAP1 PUSH2 0x30B0 JUMP JUMPDEST DUP1 ISZERO PUSH2 0x6E8 JUMPI DUP1 PUSH1 0x1F LT PUSH2 0x6BD JUMPI PUSH2 0x100 DUP1 DUP4 SLOAD DIV MUL DUP4 MSTORE SWAP2 PUSH1 0x20 ADD SWAP2 PUSH2 0x6E8 JUMP JUMPDEST DUP3 ADD SWAP2 SWAP1 PUSH1 0x0 MSTORE PUSH1 0x20 PUSH1 0x0 KECCAK256 SWAP1 JUMPDEST DUP2 SLOAD DUP2 MSTORE SWAP1 PUSH1 0x1 ADD SWAP1 PUSH1 0x20 ADD DUP1 DUP4 GT PUSH2 0x6CB JUMPI DUP3 SWAP1 SUB PUSH1 0x1F AND DUP3 ADD SWAP2 JUMPDEST POP POP POP POP POP DUP2 MSTORE PUSH1 0x20 ADD SWAP1 PUSH1 0x1 ADD SWAP1 PUSH2 0x650 JUMP JUMPDEST POP POP POP POP SWAP1 POP SWAP1 JUMP JUMPDEST PUSH1 0x0 DUP1 SLOAD SWAP1 PUSH2 0x100 EXP SWAP1 DIV PUSH20 0xFFFFFFFFFFFFFFFFFFFFFFFFFFFFFFFFFFFFFFFF AND PUSH20 0xFFFFFFFFFFFFFFFFFFFFFFFFFFFFFFFFFFFFFFFF AND CALLER PUSH20 0xFFFFFFFFFFFFFFFFFFFFFFFFFFFFFFFFFFFFFFFF AND EQ PUSH2 0x75D JUMPI PUSH1 0x0 DUP1 REVERT JUMPDEST PUSH1 0x1 PUSH1 0x2 PUSH1 0x0 DUP4 PUSH20 0xFFFFFFFFFFFFFFFFFFFFFFFFFFFFFFFFFFFFFFFF AND PUSH20 0xFFFFFFFFFFFFFFFFFFFFFFFFFFFFFFFFFFFFFFFF AND DUP2 MSTORE PUSH1 0x20 ADD SWAP1 DUP2 MSTORE PUSH1 0x20 ADD PUSH1 0x0 KECCAK256 PUSH1 0x4 ADD PUSH1 0x0 PUSH2 0x100 EXP DUP2 SLOAD DUP2 PUSH1 0xFF MUL NOT AND SWAP1 DUP4 ISZERO ISZERO MUL OR SWAP1 SSTORE POP POP JUMP JUMPDEST PUSH1 0x9 SLOAD DUP2 JUMP JUMPDEST PUSH1 0x0 PUSH1 0xB PUSH1 0x0 CALLER PUSH20 0xFFFFFFFFFFFFFFFFFFFFFFFFFFFFFFFFFFFFFFFF AND PUSH20 0xFFFFFFFFFFFFFFFFFFFFFFFFFFFFFFFFFFFFFFFF AND DUP2 MSTORE PUSH1 0x20 ADD SWAP1 DUP2 MSTORE PUSH1 0x20 ADD PUSH1 0x0 KECCAK256 SWAP1 POP DUP9 DUP2 PUSH1 0x0 ADD SWAP1 DUP1 MLOAD SWAP1 PUSH1 0x20 ADD SWAP1 PUSH2 0x81C SWAP3 SWAP2 SWAP1 PUSH2 0x2348 JUMP JUMPDEST POP DUP8 DUP2 PUSH1 0x1 ADD SWAP1 DUP1 MLOAD SWAP1 PUSH1 0x20 ADD SWAP1 PUSH2 0x835 SWAP3 SWAP2 SWAP1 PUSH2 0x2348 JUMP JUMPDEST POP DUP7 DUP2 PUSH1 0x2 ADD SWAP1 DUP1 MLOAD SWAP1 PUSH1 0x20 ADD SWAP1 PUSH2 0x84E SWAP3 SWAP2 SWAP1 PUSH2 0x2348 JUMP JUMPDEST POP DUP6 DUP2 PUSH1 0x3 ADD SWAP1 DUP1 MLOAD SWAP1 PUSH1 0x20 ADD SWAP1 PUSH2 0x867 SWAP3 SWAP2 SWAP1 PUSH2 0x2348 JUMP JUMPDEST POP DUP5 DUP2 PUSH1 0x4 ADD SWAP1 DUP1 MLOAD SWAP1 PUSH1 0x20 ADD SWAP1 PUSH2 0x880 SWAP3 SWAP2 SWAP1 PUSH2 0x2348 JUMP JUMPDEST POP DUP4 DUP2 PUSH1 0x5 ADD SWAP1 DUP1 MLOAD SWAP1 PUSH1 0x20 ADD SWAP1 PUSH2 0x899 SWAP3 SWAP2 SWAP1 PUSH2 0x2348 JUMP JUMPDEST POP DUP3 DUP2 PUSH1 0x6 ADD SWAP1 DUP1 MLOAD SWAP1 PUSH1 0x20 ADD SWAP1 PUSH2 0x8B2 SWAP3 SWAP2 SWAP1 PUSH2 0x2348 JUMP JUMPDEST POP DUP2 DUP2 PUSH1 0x7 ADD SWAP1 DUP1 MLOAD SWAP1 PUSH1 0x20 ADD SWAP1 PUSH2 0x8CB SWAP3 SWAP2 SWAP1 PUSH2 0x2348 JUMP JUMPDEST POP POP POP POP POP POP POP POP POP POP JUMP JUMPDEST PUSH1 0x4 DUP2 DUP2 SLOAD DUP2 LT PUSH2 0x8E7 JUMPI PUSH1 0x0 DUP1 REVERT JUMPDEST SWAP1 PUSH1 0x0 MSTORE PUSH1 0x20 PUSH1 0x0 KECCAK256 ADD PUSH1 0x0 SWAP2 POP SWAP1 POP DUP1 SLOAD PUSH2 0x902 SWAP1 PUSH2 0x30B0 JUMP JUMPDEST DUP1 PUSH1 0x1F ADD PUSH1 0x20 DUP1 SWAP2 DIV MUL PUSH1 0x20 ADD PUSH1 0x40 MLOAD SWAP1 DUP2 ADD PUSH1 0x40 MSTORE DUP1 SWAP3 SWAP2 SWAP1 DUP2 DUP2 MSTORE PUSH1 0x20 ADD DUP3 DUP1 SLOAD PUSH2 0x92E SWAP1 PUSH2 0x30B0 JUMP JUMPDEST DUP1 ISZERO PUSH2 0x97B JUMPI DUP1 PUSH1 0x1F LT PUSH2 0x950 JUMPI PUSH2 0x100 DUP1 DUP4 SLOAD DIV MUL DUP4 MSTORE SWAP2 PUSH1 0x20 ADD SWAP2 PUSH2 0x97B JUMP JUMPDEST DUP3 ADD SWAP2 SWAP1 PUSH1 0x0 MSTORE PUSH1 0x20 PUSH1 0x0 KECCAK256 SWAP1 JUMPDEST DUP2 SLOAD DUP2 MSTORE SWAP1 PUSH1 0x1 ADD SWAP1 PUSH1 0x20 ADD DUP1 DUP4 GT PUSH2 0x95E JUMPI DUP3 SWAP1 SUB PUSH1 0x1F AND DUP3 ADD SWAP2 JUMPDEST POP POP POP POP POP DUP2 JUMP JUMPDEST PUSH1 0x60 PUSH1 0x0 DUP1 SLOAD SWAP1 PUSH2 0x100 EXP SWAP1 DIV PUSH20 0xFFFFFFFFFFFFFFFFFFFFFFFFFFFFFFFFFFFFFFFF AND PUSH20 0xFFFFFFFFFFFFFFFFFFFFFFFFFFFFFFFFFFFFFFFF AND CALLER PUSH20 0xFFFFFFFFFFFFFFFFFFFFFFFFFFFFFFFFFFFFFFFF AND EQ PUSH2 0x9DD JUMPI PUSH1 0x0 DUP1 REVERT JUMPDEST PUSH1 0x1 DUP1 SLOAD PUSH2 0x9EA SWAP1 PUSH2 0x30B0 JUMP JUMPDEST DUP1 PUSH1 0x1F ADD PUSH1 0x20 DUP1 SWAP2 DIV MUL PUSH1 0x20 ADD PUSH1 0x40 MLOAD SWAP1 DUP2 ADD PUSH1 0x40 MSTORE DUP1 SWAP3 SWAP2 SWAP1 DUP2 DUP2 MSTORE PUSH1 0x20 ADD DUP3 DUP1 SLOAD PUSH2 0xA16 SWAP1 PUSH2 0x30B0 JUMP JUMPDEST DUP1 ISZERO PUSH2 0xA63 JUMPI DUP1 PUSH1 0x1F LT PUSH2 0xA38 JUMPI PUSH2 0x100 DUP1 DUP4 SLOAD DIV MUL DUP4 MSTORE SWAP2 PUSH1 0x20 ADD SWAP2 PUSH2 0xA63 JUMP JUMPDEST DUP3 ADD SWAP2 SWAP1 PUSH1 0x0 MSTORE PUSH1 0x20 PUSH1 0x0 KECCAK256 SWAP1 JUMPDEST DUP2 SLOAD DUP2 MSTORE SWAP1 PUSH1 0x1 ADD SWAP1 PUSH1 0x20 ADD DUP1 DUP4 GT PUSH2 0xA46 JUMPI DUP3 SWAP1 SUB PUSH1 0x1F AND DUP3 ADD SWAP2 JUMPDEST POP POP POP POP POP SWAP1 POP SWAP1 JUMP JUMPDEST PUSH1 0x2 PUSH1 0x20 MSTORE DUP1 PUSH1 0x0 MSTORE PUSH1 0x40 PUSH1 0x0 KECCAK256 PUSH1 0x0 SWAP2 POP SWAP1 POP DUP1 PUSH1 0x0 ADD DUP1 SLOAD PUSH2 0xA90 SWAP1 PUSH2 0x30B0 JUMP JUMPDEST DUP1 PUSH1 0x1F ADD PUSH1 0x20 DUP1 SWAP2 DIV MUL PUSH1 0x20 ADD PUSH1 0x40 MLOAD SWAP1 DUP2 ADD PUSH1 0x40 MSTORE DUP1 SWAP3 SWAP2 SWAP1 DUP2 DUP2 MSTORE PUSH1 0x20 ADD DUP3 DUP1 SLOAD PUSH2 0xABC SWAP1 PUSH2 0x30B0 JUMP JUMPDEST DUP1 ISZERO PUSH2 0xB09 JUMPI DUP1 PUSH1 0x1F LT PUSH2 0xADE JUMPI PUSH2 0x100 DUP1 DUP4 SLOAD DIV MUL DUP4 MSTORE SWAP2 PUSH1 0x20 ADD SWAP2 PUSH2 0xB09 JUMP JUMPDEST DUP3 ADD SWAP2 SWAP1 PUSH1 0x0 MSTORE PUSH1 0x20 PUSH1 0x0 KECCAK256 SWAP1 JUMPDEST DUP2 SLOAD DUP2 MSTORE SWAP1 PUSH1 0x1 ADD SWAP1 PUSH1 0x20 ADD DUP1 DUP4 GT PUSH2 0xAEC JUMPI DUP3 SWAP1 SUB PUSH1 0x1F AND DUP3 ADD SWAP2 JUMPDEST POP POP POP POP POP SWAP1 DUP1 PUSH1 0x1 ADD DUP1 SLOAD PUSH2 0xB1E SWAP1 PUSH2 0x30B0 JUMP JUMPDEST DUP1 PUSH1 0x1F ADD PUSH1 0x20 DUP1 SWAP2 DIV MUL PUSH1 0x20 ADD PUSH1 0x40 MLOAD SWAP1 DUP2 ADD PUSH1 0x40 MSTORE DUP1 SWAP3 SWAP2 SWAP1 DUP2 DUP2 MSTORE PUSH1 0x20 ADD DUP3 DUP1 SLOAD PUSH2 0xB4A SWAP1 PUSH2 0x30B0 JUMP JUMPDEST DUP1 ISZERO PUSH2 0xB97 JUMPI DUP1 PUSH1 0x1F LT PUSH2 0xB6C JUMPI PUSH2 0x100 DUP1 DUP4 SLOAD DIV MUL DUP4 MSTORE SWAP2 PUSH1 0x20 ADD SWAP2 PUSH2 0xB97 JUMP JUMPDEST DUP3 ADD SWAP2 SWAP1 PUSH1 0x0 MSTORE PUSH1 0x20 PUSH1 0x0 KECCAK256 SWAP1 JUMPDEST DUP2 SLOAD DUP2 MSTORE SWAP1 PUSH1 0x1 ADD SWAP1 PUSH1 0x20 ADD DUP1 DUP4 GT PUSH2 0xB7A JUMPI DUP3 SWAP1 SUB PUSH1 0x1F AND DUP3 ADD SWAP2 JUMPDEST POP POP POP POP POP SWAP1 DUP1 PUSH1 0x2 ADD PUSH1 0x0 SWAP1 SLOAD SWAP1 PUSH2 0x100 EXP SWAP1 DIV PUSH20 0xFFFFFFFFFFFFFFFFFFFFFFFFFFFFFFFFFFFFFFFF AND SWAP1 DUP1 PUSH1 0x3 ADD DUP1 SLOAD PUSH2 0xBD2 SWAP1 PUSH2 0x30B0 JUMP JUMPDEST DUP1 PUSH1 0x1F ADD PUSH1 0x20 DUP1 SWAP2 DIV MUL PUSH1 0x20 ADD PUSH1 0x40 MLOAD SWAP1 DUP2 ADD PUSH1 0x40 MSTORE DUP1 SWAP3 SWAP2 SWAP1 DUP2 DUP2 MSTORE PUSH1 0x20 ADD DUP3 DUP1 SLOAD PUSH2 0xBFE SWAP1 PUSH2 0x30B0 JUMP JUMPDEST DUP1 ISZERO PUSH2 0xC4B JUMPI DUP1 PUSH1 0x1F LT PUSH2 0xC20 JUMPI PUSH2 0x100 DUP1 DUP4 SLOAD DIV MUL DUP4 MSTORE SWAP2 PUSH1 0x20 ADD SWAP2 PUSH2 0xC4B JUMP JUMPDEST DUP3 ADD SWAP2 SWAP1 PUSH1 0x0 MSTORE PUSH1 0x20 PUSH1 0x0 KECCAK256 SWAP1 JUMPDEST DUP2 SLOAD DUP2 MSTORE SWAP1 PUSH1 0x1 ADD SWAP1 PUSH1 0x20 ADD DUP1 DUP4 GT PUSH2 0xC2E JUMPI DUP3 SWAP1 SUB PUSH1 0x1F AND DUP3 ADD SWAP2 JUMPDEST POP POP POP POP POP SWAP1 DUP1 PUSH1 0x4 ADD PUSH1 0x0 SWAP1 SLOAD SWAP1 PUSH2 0x100 EXP SWAP1 DIV PUSH1 0xFF AND SWAP1 POP DUP6 JUMP JUMPDEST PUSH1 0x60 PUSH1 0x0 DUP1 SLOAD SWAP1 PUSH2 0x100 EXP SWAP1 DIV PUSH20 0xFFFFFFFFFFFFFFFFFFFFFFFFFFFFFFFFFFFFFFFF AND PUSH20 0xFFFFFFFFFFFFFFFFFFFFFFFFFFFFFFFFFFFFFFFF AND CALLER PUSH20 0xFFFFFFFFFFFFFFFFFFFFFFFFFFFFFFFFFFFFFFFF AND EQ PUSH2 0xCC2 JUMPI PUSH1 0x0 DUP1 REVERT JUMPDEST PUSH1 0x5 DUP1 SLOAD DUP1 PUSH1 0x20 MUL PUSH1 0x20 ADD PUSH1 0x40 MLOAD SWAP1 DUP2 ADD PUSH1 0x40 MSTORE DUP1 SWAP3 SWAP2 SWAP1 DUP2 DUP2 MSTORE PUSH1 0x20 ADD DUP3 DUP1 SLOAD DUP1 ISZERO PUSH2 0xD44 JUMPI PUSH1 0x20 MUL DUP3 ADD SWAP2 SWAP1 PUSH1 0x0 MSTORE PUSH1 0x20 PUSH1 0x0 KECCAK256 SWAP1 JUMPDEST DUP2 PUSH1 0x0 SWAP1 SLOAD SWAP1 PUSH2 0x100 EXP SWAP1 DIV PUSH20 0xFFFFFFFFFFFFFFFFFFFFFFFFFFFFFFFFFFFFFFFF AND PUSH20 0xFFFFFFFFFFFFFFFFFFFFFFFFFFFFFFFFFFFFFFFF AND DUP2 MSTORE PUSH1 0x20 ADD SWAP1 PUSH1 0x1 ADD SWAP1 DUP1 DUP4 GT PUSH2 0xCFA JUMPI JUMPDEST POP POP POP POP POP SWAP1 POP SWAP1 JUMP JUMPDEST PUSH2 0xD56 PUSH2 0x23CE JUMP JUMPDEST PUSH1 0x0 DUP1 SLOAD SWAP1 PUSH2 0x100 EXP SWAP1 DIV PUSH20 0xFFFFFFFFFFFFFFFFFFFFFFFFFFFFFFFFFFFFFFFF AND PUSH20 0xFFFFFFFFFFFFFFFFFFFFFFFFFFFFFFFFFFFFFFFF AND CALLER PUSH20 0xFFFFFFFFFFFFFFFFFFFFFFFFFFFFFFFFFFFFFFFF AND EQ PUSH2 0xDAE JUMPI PUSH1 0x0 DUP1 REVERT JUMPDEST PUSH1 0x2 PUSH1 0x0 DUP4 PUSH20 0xFFFFFFFFFFFFFFFFFFFFFFFFFFFFFFFFFFFFFFFF AND PUSH20 0xFFFFFFFFFFFFFFFFFFFFFFFFFFFFFFFFFFFFFFFF AND DUP2 MSTORE PUSH1 0x20 ADD SWAP1 DUP2 MSTORE PUSH1 0x20 ADD PUSH1 0x0 KECCAK256 PUSH1 0x40 MLOAD DUP1 PUSH1 0xA0 ADD PUSH1 0x40 MSTORE SWAP1 DUP2 PUSH1 0x0 DUP3 ADD DUP1 SLOAD PUSH2 0xE08 SWAP1 PUSH2 0x30B0 JUMP JUMPDEST DUP1 PUSH1 0x1F ADD PUSH1 0x20 DUP1 SWAP2 DIV MUL PUSH1 0x20 ADD PUSH1 0x40 MLOAD SWAP1 DUP2 ADD PUSH1 0x40 MSTORE DUP1 SWAP3 SWAP2 SWAP1 DUP2 DUP2 MSTORE PUSH1 0x20 ADD DUP3 DUP1 SLOAD PUSH2 0xE34 SWAP1 PUSH2 0x30B0 JUMP JUMPDEST DUP1 ISZERO PUSH2 0xE81 JUMPI DUP1 PUSH1 0x1F LT PUSH2 0xE56 JUMPI PUSH2 0x100 DUP1 DUP4 SLOAD DIV MUL DUP4 MSTORE SWAP2 PUSH1 0x20 ADD SWAP2 PUSH2 0xE81 JUMP JUMPDEST DUP3 ADD SWAP2 SWAP1 PUSH1 0x0 MSTORE PUSH1 0x20 PUSH1 0x0 KECCAK256 SWAP1 JUMPDEST DUP2 SLOAD DUP2 MSTORE SWAP1 PUSH1 0x1 ADD SWAP1 PUSH1 0x20 ADD DUP1 DUP4 GT PUSH2 0xE64 JUMPI DUP3 SWAP1 SUB PUSH1 0x1F AND DUP3 ADD SWAP2 JUMPDEST POP POP POP POP POP DUP2 MSTORE PUSH1 0x20 ADD PUSH1 0x1 DUP3 ADD DUP1 SLOAD PUSH2 0xE9A SWAP1 PUSH2 0x30B0 JUMP JUMPDEST DUP1 PUSH1 0x1F ADD PUSH1 0x20 DUP1 SWAP2 DIV MUL PUSH1 0x20 ADD PUSH1 0x40 MLOAD SWAP1 DUP2 ADD PUSH1 0x40 MSTORE DUP1 SWAP3 SWAP2 SWAP1 DUP2 DUP2 MSTORE PUSH1 0x20 ADD DUP3 DUP1 SLOAD PUSH2 0xEC6 SWAP1 PUSH2 0x30B0 JUMP JUMPDEST DUP1 ISZERO PUSH2 0xF13 JUMPI DUP1 PUSH1 0x1F LT PUSH2 0xEE8 JUMPI PUSH2 0x100 DUP1 DUP4 SLOAD DIV MUL DUP4 MSTORE SWAP2 PUSH1 0x20 ADD SWAP2 PUSH2 0xF13 JUMP JUMPDEST DUP3 ADD SWAP2 SWAP1 PUSH1 0x0 MSTORE PUSH1 0x20 PUSH1 0x0 KECCAK256 SWAP1 JUMPDEST DUP2 SLOAD DUP2 MSTORE SWAP1 PUSH1 0x1 ADD SWAP1 PUSH1 0x20 ADD DUP1 DUP4 GT PUSH2 0xEF6 JUMPI DUP3 SWAP1 SUB PUSH1 0x1F AND DUP3 ADD SWAP2 JUMPDEST POP POP POP POP POP DUP2 MSTORE PUSH1 0x20 ADD PUSH1 0x2 DUP3 ADD PUSH1 0x0 SWAP1 SLOAD SWAP1 PUSH2 0x100 EXP SWAP1 DIV PUSH20 0xFFFFFFFFFFFFFFFFFFFFFFFFFFFFFFFFFFFFFFFF AND PUSH20 0xFFFFFFFFFFFFFFFFFFFFFFFFFFFFFFFFFFFFFFFF AND PUSH20 0xFFFFFFFFFFFFFFFFFFFFFFFFFFFFFFFFFFFFFFFF AND DUP2 MSTORE PUSH1 0x20 ADD PUSH1 0x3 DUP3 ADD DUP1 SLOAD PUSH2 0xF82 SWAP1 PUSH2 0x30B0 JUMP JUMPDEST DUP1 PUSH1 0x1F ADD PUSH1 0x20 DUP1 SWAP2 DIV MUL PUSH1 0x20 ADD PUSH1 0x40 MLOAD SWAP1 DUP2 ADD PUSH1 0x40 MSTORE DUP1 SWAP3 SWAP2 SWAP1 DUP2 DUP2 MSTORE PUSH1 0x20 ADD DUP3 DUP1 SLOAD PUSH2 0xFAE SWAP1 PUSH2 0x30B0 JUMP JUMPDEST DUP1 ISZERO PUSH2 0xFFB JUMPI DUP1 PUSH1 0x1F LT PUSH2 0xFD0 JUMPI PUSH2 0x100 DUP1 DUP4 SLOAD DIV MUL DUP4 MSTORE SWAP2 PUSH1 0x20 ADD SWAP2 PUSH2 0xFFB JUMP JUMPDEST DUP3 ADD SWAP2 SWAP1 PUSH1 0x0 MSTORE PUSH1 0x20 PUSH1 0x0 KECCAK256 SWAP1 JUMPDEST DUP2 SLOAD DUP2 MSTORE SWAP1 PUSH1 0x1 ADD SWAP1 PUSH1 0x20 ADD DUP1 DUP4 GT PUSH2 0xFDE JUMPI DUP3 SWAP1 SUB PUSH1 0x1F AND DUP3 ADD SWAP2 JUMPDEST POP POP POP POP POP DUP2 MSTORE PUSH1 0x20 ADD PUSH1 0x4 DUP3 ADD PUSH1 0x0 SWAP1 SLOAD SWAP1 PUSH2 0x100 EXP SWAP1 DIV PUSH1 0xFF AND ISZERO ISZERO ISZERO ISZERO DUP2 MSTORE POP POP SWAP1 POP SWAP2 SWAP1 POP JUMP JUMPDEST PUSH1 0xA PUSH1 0x20 MSTORE DUP1 PUSH1 0x0 MSTORE PUSH1 0x40 PUSH1 0x0 KECCAK256 PUSH1 0x0 SWAP2 POP SLOAD SWAP1 PUSH2 0x100 EXP SWAP1 DIV PUSH1 0xFF AND DUP2 JUMP JUMPDEST PUSH1 0x0 PUSH1 0x3 PUSH1 0x0 CALLER PUSH20 0xFFFFFFFFFFFFFFFFFFFFFFFFFFFFFFFFFFFFFFFF AND PUSH20 0xFFFFFFFFFFFFFFFFFFFFFFFFFFFFFFFFFFFFFFFF AND DUP2 MSTORE PUSH1 0x20 ADD SWAP1 DUP2 MSTORE PUSH1 0x20 ADD PUSH1 0x0 KECCAK256 PUSH1 0x0 SWAP1 SLOAD SWAP1 PUSH2 0x100 EXP SWAP1 DIV PUSH1 0xFF AND PUSH2 0x109E JUMPI PUSH1 0x0 DUP1 REVERT JUMPDEST PUSH1 0x1 SWAP1 POP SWAP1 JUMP JUMPDEST PUSH1 0x3 PUSH1 0x0 CALLER PUSH20 0xFFFFFFFFFFFFFFFFFFFFFFFFFFFFFFFFFFFFFFFF AND PUSH20 0xFFFFFFFFFFFFFFFFFFFFFFFFFFFFFFFFFFFFFFFF AND DUP2 MSTORE PUSH1 0x20 ADD SWAP1 DUP2 MSTORE PUSH1 0x20 ADD PUSH1 0x0 KECCAK256 PUSH1 0x0 SWAP1 SLOAD SWAP1 PUSH2 0x100 EXP SWAP1 DIV PUSH1 0xFF AND PUSH2 0x10FB JUMPI PUSH1 0x0 DUP1 REVERT JUMPDEST PUSH1 0x7 DUP2 PUSH1 0x40 MLOAD PUSH2 0x110B SWAP2 SWAP1 PUSH2 0x311E JUMP JUMPDEST SWAP1 DUP2 MSTORE PUSH1 0x20 ADD PUSH1 0x40 MLOAD DUP1 SWAP2 SUB SWAP1 KECCAK256 PUSH1 0x0 SWAP1 SLOAD SWAP1 PUSH2 0x100 EXP SWAP1 DIV PUSH1 0xFF AND ISZERO PUSH2 0x1131 JUMPI PUSH1 0x0 DUP1 REVERT JUMPDEST PUSH1 0x1 PUSH1 0x7 DUP3 PUSH1 0x40 MLOAD PUSH2 0x1143 SWAP2 SWAP1 PUSH2 0x311E JUMP JUMPDEST SWAP1 DUP2 MSTORE PUSH1 0x20 ADD PUSH1 0x40 MLOAD DUP1 SWAP2 SUB SWAP1 KECCAK256 PUSH1 0x0 PUSH2 0x100 EXP DUP2 SLOAD DUP2 PUSH1 0xFF MUL NOT AND SWAP1 DUP4 ISZERO ISZERO MUL OR SWAP1 SSTORE POP PUSH1 0x6 DUP2 SWAP1 DUP1 PUSH1 0x1 DUP2 SLOAD ADD DUP1 DUP3 SSTORE DUP1 SWAP2 POP POP PUSH1 0x1 SWAP1 SUB SWAP1 PUSH1 0x0 MSTORE PUSH1 0x20 PUSH1 0x0 KECCAK256 ADD PUSH1 0x0 SWAP1 SWAP2 SWAP1 SWAP2 SWAP1 SWAP2 POP SWAP1 DUP1 MLOAD SWAP1 PUSH1 0x20 ADD SWAP1 PUSH2 0x11A3 SWAP3 SWAP2 SWAP1 PUSH2 0x2348 JUMP JUMPDEST POP PUSH1 0x0 PUSH1 0x8 DUP3 PUSH1 0x40 MLOAD PUSH2 0x11B6 SWAP2 SWAP1 PUSH2 0x311E JUMP JUMPDEST SWAP1 DUP2 MSTORE PUSH1 0x20 ADD PUSH1 0x40 MLOAD DUP1 SWAP2 SUB SWAP1 KECCAK256 SWAP1 POP PUSH1 0x2 PUSH1 0x0 DUP5 PUSH20 0xFFFFFFFFFFFFFFFFFFFFFFFFFFFFFFFFFFFFFFFF AND PUSH20 0xFFFFFFFFFFFFFFFFFFFFFFFFFFFFFFFFFFFFFFFF AND DUP2 MSTORE PUSH1 0x20 ADD SWAP1 DUP2 MSTORE PUSH1 0x20 ADD PUSH1 0x0 KECCAK256 PUSH1 0x3 ADD DUP2 PUSH1 0x0 ADD SWAP1 DUP1 SLOAD PUSH2 0x1218 SWAP1 PUSH2 0x30B0 JUMP JUMPDEST PUSH2 0x1223 SWAP3 SWAP2 SWAP1 PUSH2 0x2415 JUMP JUMPDEST POP DUP7 DUP2 PUSH1 0x1 ADD SWAP1 DUP1 MLOAD SWAP1 PUSH1 0x20 ADD SWAP1 PUSH2 0x123C SWAP3 SWAP2 SWAP1 PUSH2 0x2348 JUMP JUMPDEST POP DUP6 DUP2 PUSH1 0x2 ADD SWAP1 DUP1 MLOAD SWAP1 PUSH1 0x20 ADD SWAP1 PUSH2 0x1255 SWAP3 SWAP2 SWAP1 PUSH2 0x2348 JUMP JUMPDEST POP DUP5 DUP2 PUSH1 0x3 ADD PUSH1 0x0 PUSH2 0x100 EXP DUP2 SLOAD DUP2 PUSH20 0xFFFFFFFFFFFFFFFFFFFFFFFFFFFFFFFFFFFFFFFF MUL NOT AND SWAP1 DUP4 PUSH20 0xFFFFFFFFFFFFFFFFFFFFFFFFFFFFFFFFFFFFFFFF AND MUL OR SWAP1 SSTORE POP DUP4 DUP2 PUSH1 0x4 ADD SWAP1 DUP1 MLOAD SWAP1 PUSH1 0x20 ADD SWAP1 PUSH2 0x12B1 SWAP3 SWAP2 SWAP1 PUSH2 0x2348 JUMP JUMPDEST POP PUSH1 0x0 DUP2 PUSH1 0x5 ADD PUSH1 0x0 PUSH2 0x100 EXP DUP2 SLOAD DUP2 PUSH1 0xFF MUL NOT AND SWAP1 DUP4 ISZERO ISZERO MUL OR SWAP1 SSTORE POP PUSH1 0x0 DUP2 PUSH1 0x5 ADD PUSH1 0x1 PUSH2 0x100 EXP DUP2 SLOAD DUP2 PUSH1 0xFF MUL NOT AND SWAP1 DUP4 ISZERO ISZERO MUL OR SWAP1 SSTORE POP PUSH1 0x0 DUP2 PUSH1 0x5 ADD PUSH1 0x2 PUSH2 0x100 EXP DUP2 SLOAD DUP2 PUSH20 0xFFFFFFFFFFFFFFFFFFFFFFFFFFFFFFFFFFFFFFFF MUL NOT AND SWAP1 DUP4 PUSH20 0xFFFFFFFFFFFFFFFFFFFFFFFFFFFFFFFFFFFFFFFF AND MUL OR SWAP1 SSTORE POP DUP2 DUP2 PUSH1 0x6 ADD SWAP1 DUP1 MLOAD SWAP1 PUSH1 0x20 ADD SWAP1 PUSH2 0x1348 SWAP3 SWAP2 SWAP1 PUSH2 0x2348 JUMP JUMPDEST POP DUP3 DUP2 PUSH1 0x7 ADD PUSH1 0x0 PUSH2 0x100 EXP DUP2 SLOAD DUP2 PUSH20 0xFFFFFFFFFFFFFFFFFFFFFFFFFFFFFFFFFFFFFFFF MUL NOT AND SWAP1 DUP4 PUSH20 0xFFFFFFFFFFFFFFFFFFFFFFFFFFFFFFFFFFFFFFFF AND MUL OR SWAP1 SSTORE POP PUSH1 0x1 PUSH1 0x9 SLOAD PUSH2 0x139B SWAP2 SWAP1 PUSH2 0x3164 JUMP JUMPDEST PUSH1 0x9 DUP2 SWAP1 SSTORE POP POP POP POP POP POP POP POP JUMP JUMPDEST PUSH1 0x8 DUP2 DUP1 MLOAD PUSH1 0x20 DUP2 ADD DUP3 ADD DUP1 MLOAD DUP5 DUP3 MSTORE PUSH1 0x20 DUP4 ADD PUSH1 0x20 DUP6 ADD KECCAK256 DUP2 DUP4 MSTORE DUP1 SWAP6 POP POP POP POP POP POP PUSH1 0x0 SWAP2 POP SWAP1 POP DUP1 PUSH1 0x0 ADD DUP1 SLOAD PUSH2 0x13E3 SWAP1 PUSH2 0x30B0 JUMP JUMPDEST DUP1 PUSH1 0x1F ADD PUSH1 0x20 DUP1 SWAP2 DIV MUL PUSH1 0x20 ADD PUSH1 0x40 MLOAD SWAP1 DUP2 ADD PUSH1 0x40 MSTORE DUP1 SWAP3 SWAP2 SWAP1 DUP2 DUP2 MSTORE PUSH1 0x20 ADD DUP3 DUP1 SLOAD PUSH2 0x140F SWAP1 PUSH2 0x30B0 JUMP JUMPDEST DUP1 ISZERO PUSH2 0x145C JUMPI DUP1 PUSH1 0x1F LT PUSH2 0x1431 JUMPI PUSH2 0x100 DUP1 DUP4 SLOAD DIV MUL DUP4 MSTORE SWAP2 PUSH1 0x20 ADD SWAP2 PUSH2 0x145C JUMP JUMPDEST DUP3 ADD SWAP2 SWAP1 PUSH1 0x0 MSTORE PUSH1 0x20 PUSH1 0x0 KECCAK256 SWAP1 JUMPDEST DUP2 SLOAD DUP2 MSTORE SWAP1 PUSH1 0x1 ADD SWAP1 PUSH1 0x20 ADD DUP1 DUP4 GT PUSH2 0x143F JUMPI DUP3 SWAP1 SUB PUSH1 0x1F AND DUP3 ADD SWAP2 JUMPDEST POP POP POP POP POP SWAP1 DUP1 PUSH1 0x1 ADD DUP1 SLOAD PUSH2 0x1471 SWAP1 PUSH2 0x30B0 JUMP JUMPDEST DUP1 PUSH1 0x1F ADD PUSH1 0x20 DUP1 SWAP2 DIV MUL PUSH1 0x20 ADD PUSH1 0x40 MLOAD SWAP1 DUP2 ADD PUSH1 0x40 MSTORE DUP1 SWAP3 SWAP2 SWAP1 DUP2 DUP2 MSTORE PUSH1 0x20 ADD DUP3 DUP1 SLOAD PUSH2 0x149D SWAP1 PUSH2 0x30B0 JUMP JUMPDEST DUP1 ISZERO PUSH2 0x14EA JUMPI DUP1 PUSH1 0x1F LT PUSH2 0x14BF JUMPI PUSH2 0x100 DUP1 DUP4 SLOAD DIV MUL DUP4 MSTORE SWAP2 PUSH1 0x20 ADD SWAP2 PUSH2 0x14EA JUMP JUMPDEST DUP3 ADD SWAP2 SWAP1 PUSH1 0x0 MSTORE PUSH1 0x20 PUSH1 0x0 KECCAK256 SWAP1 JUMPDEST DUP2 SLOAD DUP2 MSTORE SWAP1 PUSH1 0x1 ADD SWAP1 PUSH1 0x20 ADD DUP1 DUP4 GT PUSH2 0x14CD JUMPI DUP3 SWAP1 SUB PUSH1 0x1F AND DUP3 ADD SWAP2 JUMPDEST POP POP POP POP POP SWAP1 DUP1 PUSH1 0x2 ADD DUP1 SLOAD PUSH2 0x14FF SWAP1 PUSH2 0x30B0 JUMP JUMPDEST DUP1 PUSH1 0x1F ADD PUSH1 0x20 DUP1 SWAP2 DIV MUL PUSH1 0x20 ADD PUSH1 0x40 MLOAD SWAP1 DUP2 ADD PUSH1 0x40 MSTORE DUP1 SWAP3 SWAP2 SWAP1 DUP2 DUP2 MSTORE PUSH1 0x20 ADD DUP3 DUP1 SLOAD PUSH2 0x152B SWAP1 PUSH2 0x30B0 JUMP JUMPDEST DUP1 ISZERO PUSH2 0x1578 JUMPI DUP1 PUSH1 0x1F LT PUSH2 0x154D JUMPI PUSH2 0x100 DUP1 DUP4 SLOAD DIV MUL DUP4 MSTORE SWAP2 PUSH1 0x20 ADD SWAP2 PUSH2 0x1578 JUMP JUMPDEST DUP3 ADD SWAP2 SWAP1 PUSH1 0x0 MSTORE PUSH1 0x20 PUSH1 0x0 KECCAK256 SWAP1 JUMPDEST DUP2 SLOAD DUP2 MSTORE SWAP1 PUSH1 0x1 ADD SWAP1 PUSH1 0x20 ADD DUP1 DUP4 GT PUSH2 0x155B JUMPI DUP3 SWAP1 SUB PUSH1 0x1F AND DUP3 ADD SWAP2 JUMPDEST POP POP POP POP POP SWAP1 DUP1 PUSH1 0x3 ADD PUSH1 0x0 SWAP1 SLOAD SWAP1 PUSH2 0x100 EXP SWAP1 DIV PUSH20 0xFFFFFFFFFFFFFFFFFFFFFFFFFFFFFFFFFFFFFFFF AND SWAP1 DUP1 PUSH1 0x4 ADD DUP1 SLOAD PUSH2 0x15B3 SWAP1 PUSH2 0x30B0 JUMP JUMPDEST DUP1 PUSH1 0x1F ADD PUSH1 0x20 DUP1 SWAP2 DIV MUL PUSH1 0x20 ADD PUSH1 0x40 MLOAD SWAP1 DUP2 ADD PUSH1 0x40 MSTORE DUP1 SWAP3 SWAP2 SWAP1 DUP2 DUP2 MSTORE PUSH1 0x20 ADD DUP3 DUP1 SLOAD PUSH2 0x15DF SWAP1 PUSH2 0x30B0 JUMP JUMPDEST DUP1 ISZERO PUSH2 0x162C JUMPI DUP1 PUSH1 0x1F LT PUSH2 0x1601 JUMPI PUSH2 0x100 DUP1 DUP4 SLOAD DIV MUL DUP4 MSTORE SWAP2 PUSH1 0x20 ADD SWAP2 PUSH2 0x162C JUMP JUMPDEST DUP3 ADD SWAP2 SWAP1 PUSH1 0x0 MSTORE PUSH1 0x20 PUSH1 0x0 KECCAK256 SWAP1 JUMPDEST DUP2 SLOAD DUP2 MSTORE SWAP1 PUSH1 0x1 ADD SWAP1 PUSH1 0x20 ADD DUP1 DUP4 GT PUSH2 0x160F JUMPI DUP3 SWAP1 SUB PUSH1 0x1F AND DUP3 ADD SWAP2 JUMPDEST POP POP POP POP POP SWAP1 DUP1 PUSH1 0x5 ADD PUSH1 0x0 SWAP1 SLOAD SWAP1 PUSH2 0x100 EXP SWAP1 DIV PUSH1 0xFF AND SWAP1 DUP1 PUSH1 0x5 ADD PUSH1 0x1 SWAP1 SLOAD SWAP1 PUSH2 0x100 EXP SWAP1 DIV PUSH1 0xFF AND SWAP1 DUP1 PUSH1 0x5 ADD PUSH1 0x2 SWAP1 SLOAD SWAP1 PUSH2 0x100 EXP SWAP1 DIV PUSH20 0xFFFFFFFFFFFFFFFFFFFFFFFFFFFFFFFFFFFFFFFF AND SWAP1 DUP1 PUSH1 0x6 ADD DUP1 SLOAD PUSH2 0x168D SWAP1 PUSH2 0x30B0 JUMP JUMPDEST DUP1 PUSH1 0x1F ADD PUSH1 0x20 DUP1 SWAP2 DIV MUL PUSH1 0x20 ADD PUSH1 0x40 MLOAD SWAP1 DUP2 ADD PUSH1 0x40 MSTORE DUP1 SWAP3 SWAP2 SWAP1 DUP2 DUP2 MSTORE PUSH1 0x20 ADD DUP3 DUP1 SLOAD PUSH2 0x16B9 SWAP1 PUSH2 0x30B0 JUMP JUMPDEST DUP1 ISZERO PUSH2 0x1706 JUMPI DUP1 PUSH1 0x1F LT PUSH2 0x16DB JUMPI PUSH2 0x100 DUP1 DUP4 SLOAD DIV MUL DUP4 MSTORE SWAP2 PUSH1 0x20 ADD SWAP2 PUSH2 0x1706 JUMP JUMPDEST DUP3 ADD SWAP2 SWAP1 PUSH1 0x0 MSTORE PUSH1 0x20 PUSH1 0x0 KECCAK256 SWAP1 JUMPDEST DUP2 SLOAD DUP2 MSTORE SWAP1 PUSH1 0x1 ADD SWAP1 PUSH1 0x20 ADD DUP1 DUP4 GT PUSH2 0x16E9 JUMPI DUP3 SWAP1 SUB PUSH1 0x1F AND DUP3 ADD SWAP2 JUMPDEST POP POP POP POP POP SWAP1 DUP1 PUSH1 0x7 ADD PUSH1 0x0 SWAP1 SLOAD SWAP1 PUSH2 0x100 EXP SWAP1 DIV PUSH20 0xFFFFFFFFFFFFFFFFFFFFFFFFFFFFFFFFFFFFFFFF AND SWAP1 POP DUP11 JUMP JUMPDEST PUSH1 0xB PUSH1 0x20 MSTORE DUP1 PUSH1 0x0 MSTORE PUSH1 0x40 PUSH1 0x0 KECCAK256 PUSH1 0x0 SWAP2 POP SWAP1 POP DUP1 PUSH1 0x0 ADD DUP1 SLOAD PUSH2 0x1759 SWAP1 PUSH2 0x30B0 JUMP JUMPDEST DUP1 PUSH1 0x1F ADD PUSH1 0x20 DUP1 SWAP2 DIV MUL PUSH1 0x20 ADD PUSH1 0x40 MLOAD SWAP1 DUP2 ADD PUSH1 0x40 MSTORE DUP1 SWAP3 SWAP2 SWAP1 DUP2 DUP2 MSTORE PUSH1 0x20 ADD DUP3 DUP1 SLOAD PUSH2 0x1785 SWAP1 PUSH2 0x30B0 JUMP JUMPDEST DUP1 ISZERO PUSH2 0x17D2 JUMPI DUP1 PUSH1 0x1F LT PUSH2 0x17A7 JUMPI PUSH2 0x100 DUP1 DUP4 SLOAD DIV MUL DUP4 MSTORE SWAP2 PUSH1 0x20 ADD SWAP2 PUSH2 0x17D2 JUMP JUMPDEST DUP3 ADD SWAP2 SWAP1 PUSH1 0x0 MSTORE PUSH1 0x20 PUSH1 0x0 KECCAK256 SWAP1 JUMPDEST DUP2 SLOAD DUP2 MSTORE SWAP1 PUSH1 0x1 ADD SWAP1 PUSH1 0x20 ADD DUP1 DUP4 GT PUSH2 0x17B5 JUMPI DUP3 SWAP1 SUB PUSH1 0x1F AND DUP3 ADD SWAP2 JUMPDEST POP POP POP POP POP SWAP1 DUP1 PUSH1 0x1 ADD DUP1 SLOAD PUSH2 0x17E7 SWAP1 PUSH2 0x30B0 JUMP JUMPDEST DUP1 PUSH1 0x1F ADD PUSH1 0x20 DUP1 SWAP2 DIV MUL PUSH1 0x20 ADD PUSH1 0x40 MLOAD SWAP1 DUP2 ADD PUSH1 0x40 MSTORE DUP1 SWAP3 SWAP2 SWAP1 DUP2 DUP2 MSTORE PUSH1 0x20 ADD DUP3 DUP1 SLOAD PUSH2 0x1813 SWAP1 PUSH2 0x30B0 JUMP JUMPDEST DUP1 ISZERO PUSH2 0x1860 JUMPI DUP1 PUSH1 0x1F LT PUSH2 0x1835 JUMPI PUSH2 0x100 DUP1 DUP4 SLOAD DIV MUL DUP4 MSTORE SWAP2 PUSH1 0x20 ADD SWAP2 PUSH2 0x1860 JUMP JUMPDEST DUP3 ADD SWAP2 SWAP1 PUSH1 0x0 MSTORE PUSH1 0x20 PUSH1 0x0 KECCAK256 SWAP1 JUMPDEST DUP2 SLOAD DUP2 MSTORE SWAP1 PUSH1 0x1 ADD SWAP1 PUSH1 0x20 ADD DUP1 DUP4 GT PUSH2 0x1843 JUMPI DUP3 SWAP1 SUB PUSH1 0x1F AND DUP3 ADD SWAP2 JUMPDEST POP POP POP POP POP SWAP1 DUP1 PUSH1 0x2 ADD DUP1 SLOAD PUSH2 0x1875 SWAP1 PUSH2 0x30B0 JUMP JUMPDEST DUP1 PUSH1 0x1F ADD PUSH1 0x20 DUP1 SWAP2 DIV MUL PUSH1 0x20 ADD PUSH1 0x40 MLOAD SWAP1 DUP2 ADD PUSH1 0x40 MSTORE DUP1 SWAP3 SWAP2 SWAP1 DUP2 DUP2 MSTORE PUSH1 0x20 ADD DUP3 DUP1 SLOAD PUSH2 0x18A1 SWAP1 PUSH2 0x30B0 JUMP JUMPDEST DUP1 ISZERO PUSH2 0x18EE JUMPI DUP1 PUSH1 0x1F LT PUSH2 0x18C3 JUMPI PUSH2 0x100 DUP1 DUP4 SLOAD DIV MUL DUP4 MSTORE SWAP2 PUSH1 0x20 ADD SWAP2 PUSH2 0x18EE JUMP JUMPDEST DUP3 ADD SWAP2 SWAP1 PUSH1 0x0 MSTORE PUSH1 0x20 PUSH1 0x0 KECCAK256 SWAP1 JUMPDEST DUP2 SLOAD DUP2 MSTORE SWAP1 PUSH1 0x1 ADD SWAP1 PUSH1 0x20 ADD DUP1 DUP4 GT PUSH2 0x18D1 JUMPI DUP3 SWAP1 SUB PUSH1 0x1F AND DUP3 ADD SWAP2 JUMPDEST POP POP POP POP POP SWAP1 DUP1 PUSH1 0x3 ADD DUP1 SLOAD PUSH2 0x1903 SWAP1 PUSH2 0x30B0 JUMP JUMPDEST DUP1 PUSH1 0x1F ADD PUSH1 0x20 DUP1 SWAP2 DIV MUL PUSH1 0x20 ADD PUSH1 0x40 MLOAD SWAP1 DUP2 ADD PUSH1 0x40 MSTORE DUP1 SWAP3 SWAP2 SWAP1 DUP2 DUP2 MSTORE PUSH1 0x20 ADD DUP3 DUP1 SLOAD PUSH2 0x192F SWAP1 PUSH2 0x30B0 JUMP JUMPDEST DUP1 ISZERO PUSH2 0x197C JUMPI DUP1 PUSH1 0x1F LT PUSH2 0x1951 JUMPI PUSH2 0x100 DUP1 DUP4 SLOAD DIV MUL DUP4 MSTORE SWAP2 PUSH1 0x20 ADD SWAP2 PUSH2 0x197C JUMP JUMPDEST DUP3 ADD SWAP2 SWAP1 PUSH1 0x0 MSTORE PUSH1 0x20 PUSH1 0x0 KECCAK256 SWAP1 JUMPDEST DUP2 SLOAD DUP2 MSTORE SWAP1 PUSH1 0x1 ADD SWAP1 PUSH1 0x20 ADD DUP1 DUP4 GT PUSH2 0x195F JUMPI DUP3 SWAP1 SUB PUSH1 0x1F AND DUP3 ADD SWAP2 JUMPDEST POP POP POP POP POP SWAP1 DUP1 PUSH1 0x4 ADD DUP1 SLOAD PUSH2 0x1991 SWAP1 PUSH2 0x30B0 JUMP JUMPDEST DUP1 PUSH1 0x1F ADD PUSH1 0x20 DUP1 SWAP2 DIV MUL PUSH1 0x20 ADD PUSH1 0x40 MLOAD SWAP1 DUP2 ADD PUSH1 0x40 MSTORE DUP1 SWAP3 SWAP2 SWAP1 DUP2 DUP2 MSTORE PUSH1 0x20 ADD DUP3 DUP1 SLOAD PUSH2 0x19BD SWAP1 PUSH2 0x30B0 JUMP JUMPDEST DUP1 ISZERO PUSH2 0x1A0A JUMPI DUP1 PUSH1 0x1F LT PUSH2 0x19DF JUMPI PUSH2 0x100 DUP1 DUP4 SLOAD DIV MUL DUP4 MSTORE SWAP2 PUSH1 0x20 ADD SWAP2 PUSH2 0x1A0A JUMP JUMPDEST DUP3 ADD SWAP2 SWAP1 PUSH1 0x0 MSTORE PUSH1 0x20 PUSH1 0x0 KECCAK256 SWAP1 JUMPDEST DUP2 SLOAD DUP2 MSTORE SWAP1 PUSH1 0x1 ADD SWAP1 PUSH1 0x20 ADD DUP1 DUP4 GT PUSH2 0x19ED JUMPI DUP3 SWAP1 SUB PUSH1 0x1F AND DUP3 ADD SWAP2 JUMPDEST POP POP POP POP POP SWAP1 DUP1 PUSH1 0x5 ADD DUP1 SLOAD PUSH2 0x1A1F SWAP1 PUSH2 0x30B0 JUMP JUMPDEST DUP1 PUSH1 0x1F ADD PUSH1 0x20 DUP1 SWAP2 DIV MUL PUSH1 0x20 ADD PUSH1 0x40 MLOAD SWAP1 DUP2 ADD PUSH1 0x40 MSTORE DUP1 SWAP3 SWAP2 SWAP1 DUP2 DUP2 MSTORE PUSH1 0x20 ADD DUP3 DUP1 SLOAD PUSH2 0x1A4B SWAP1 PUSH2 0x30B0 JUMP JUMPDEST DUP1 ISZERO PUSH2 0x1A98 JUMPI DUP1 PUSH1 0x1F LT PUSH2 0x1A6D JUMPI PUSH2 0x100 DUP1 DUP4 SLOAD DIV MUL DUP4 MSTORE SWAP2 PUSH1 0x20 ADD SWAP2 PUSH2 0x1A98 JUMP JUMPDEST DUP3 ADD SWAP2 SWAP1 PUSH1 0x0 MSTORE PUSH1 0x20 PUSH1 0x0 KECCAK256 SWAP1 JUMPDEST DUP2 SLOAD DUP2 MSTORE SWAP1 PUSH1 0x1 ADD SWAP1 PUSH1 0x20 ADD DUP1 DUP4 GT PUSH2 0x1A7B JUMPI DUP3 SWAP1 SUB PUSH1 0x1F AND DUP3 ADD SWAP2 JUMPDEST POP POP POP POP POP SWAP1 DUP1 PUSH1 0x6 ADD DUP1 SLOAD PUSH2 0x1AAD SWAP1 PUSH2 0x30B0 JUMP JUMPDEST DUP1 PUSH1 0x1F ADD PUSH1 0x20 DUP1 SWAP2 DIV MUL PUSH1 0x20 ADD PUSH1 0x40 MLOAD SWAP1 DUP2 ADD PUSH1 0x40 MSTORE DUP1 SWAP3 SWAP2 SWAP1 DUP2 DUP2 MSTORE PUSH1 0x20 ADD DUP3 DUP1 SLOAD PUSH2 0x1AD9 SWAP1 PUSH2 0x30B0 JUMP JUMPDEST DUP1 ISZERO PUSH2 0x1B26 JUMPI DUP1 PUSH1 0x1F LT PUSH2 0x1AFB JUMPI PUSH2 0x100 DUP1 DUP4 SLOAD DIV MUL DUP4 MSTORE SWAP2 PUSH1 0x20 ADD SWAP2 PUSH2 0x1B26 JUMP JUMPDEST DUP3 ADD SWAP2 SWAP1 PUSH1 0x0 MSTORE PUSH1 0x20 PUSH1 0x0 KECCAK256 SWAP1 JUMPDEST DUP2 SLOAD DUP2 MSTORE SWAP1 PUSH1 0x1 ADD SWAP1 PUSH1 0x20 ADD DUP1 DUP4 GT PUSH2 0x1B09 JUMPI DUP3 SWAP1 SUB PUSH1 0x1F AND DUP3 ADD SWAP2 JUMPDEST POP POP POP POP POP SWAP1 DUP1 PUSH1 0x7 ADD DUP1 SLOAD PUSH2 0x1B3B SWAP1 PUSH2 0x30B0 JUMP JUMPDEST DUP1 PUSH1 0x1F ADD PUSH1 0x20 DUP1 SWAP2 DIV MUL PUSH1 0x20 ADD PUSH1 0x40 MLOAD SWAP1 DUP2 ADD PUSH1 0x40 MSTORE DUP1 SWAP3 SWAP2 SWAP1 DUP2 DUP2 MSTORE PUSH1 0x20 ADD DUP3 DUP1 SLOAD PUSH2 0x1B67 SWAP1 PUSH2 0x30B0 JUMP JUMPDEST DUP1 ISZERO PUSH2 0x1BB4 JUMPI DUP1 PUSH1 0x1F LT PUSH2 0x1B89 JUMPI PUSH2 0x100 DUP1 DUP4 SLOAD DIV MUL DUP4 MSTORE SWAP2 PUSH1 0x20 ADD SWAP2 PUSH2 0x1BB4 JUMP JUMPDEST DUP3 ADD SWAP2 SWAP1 PUSH1 0x0 MSTORE PUSH1 0x20 PUSH1 0x0 KECCAK256 SWAP1 JUMPDEST DUP2 SLOAD DUP2 MSTORE SWAP1 PUSH1 0x1 ADD SWAP1 PUSH1 0x20 ADD DUP1 DUP4 GT PUSH2 0x1B97 JUMPI DUP3 SWAP1 SUB PUSH1 0x1F AND DUP3 ADD SWAP2 JUMPDEST POP POP POP POP POP SWAP1 DUP1 PUSH1 0x8 ADD PUSH1 0x0 SWAP1 SLOAD SWAP1 PUSH2 0x100 EXP SWAP1 DIV PUSH20 0xFFFFFFFFFFFFFFFFFFFFFFFFFFFFFFFFFFFFFFFF AND SWAP1 POP DUP10 JUMP JUMPDEST PUSH1 0x7 DUP2 DUP1 MLOAD PUSH1 0x20 DUP2 ADD DUP3 ADD DUP1 MLOAD DUP5 DUP3 MSTORE PUSH1 0x20 DUP4 ADD PUSH1 0x20 DUP6 ADD KECCAK256 DUP2 DUP4 MSTORE DUP1 SWAP6 POP POP POP POP POP POP PUSH1 0x0 SWAP2 POP SLOAD SWAP1 PUSH2 0x100 EXP SWAP1 DIV PUSH1 0xFF AND DUP2 JUMP JUMPDEST PUSH1 0x6 DUP2 DUP2 SLOAD DUP2 LT PUSH2 0x1C2A JUMPI PUSH1 0x0 DUP1 REVERT JUMPDEST SWAP1 PUSH1 0x0 MSTORE PUSH1 0x20 PUSH1 0x0 KECCAK256 ADD PUSH1 0x0 SWAP2 POP SWAP1 POP DUP1 SLOAD PUSH2 0x1C45 SWAP1 PUSH2 0x30B0 JUMP JUMPDEST DUP1 PUSH1 0x1F ADD PUSH1 0x20 DUP1 SWAP2 DIV MUL PUSH1 0x20 ADD PUSH1 0x40 MLOAD SWAP1 DUP2 ADD PUSH1 0x40 MSTORE DUP1 SWAP3 SWAP2 SWAP1 DUP2 DUP2 MSTORE PUSH1 0x20 ADD DUP3 DUP1 SLOAD PUSH2 0x1C71 SWAP1 PUSH2 0x30B0 JUMP JUMPDEST DUP1 ISZERO PUSH2 0x1CBE JUMPI DUP1 PUSH1 0x1F LT PUSH2 0x1C93 JUMPI PUSH2 0x100 DUP1 DUP4 SLOAD DIV MUL DUP4 MSTORE SWAP2 PUSH1 0x20 ADD SWAP2 PUSH2 0x1CBE JUMP JUMPDEST DUP3 ADD SWAP2 SWAP1 PUSH1 0x0 MSTORE PUSH1 0x20 PUSH1 0x0 KECCAK256 SWAP1 JUMPDEST DUP2 SLOAD DUP2 MSTORE SWAP1 PUSH1 0x1 ADD SWAP1 PUSH1 0x20 ADD DUP1 DUP4 GT PUSH2 0x1CA1 JUMPI DUP3 SWAP1 SUB PUSH1 0x1F AND DUP3 ADD SWAP2 JUMPDEST POP POP POP POP POP DUP2 JUMP JUMPDEST PUSH1 0x0 DUP1 SLOAD SWAP1 PUSH2 0x100 EXP SWAP1 DIV PUSH20 0xFFFFFFFFFFFFFFFFFFFFFFFFFFFFFFFFFFFFFFFF AND PUSH20 0xFFFFFFFFFFFFFFFFFFFFFFFFFFFFFFFFFFFFFFFF AND CALLER PUSH20 0xFFFFFFFFFFFFFFFFFFFFFFFFFFFFFFFFFFFFFFFF AND EQ PUSH2 0x1D1E JUMPI PUSH1 0x0 DUP1 REVERT JUMPDEST PUSH2 0x1E01 PUSH1 0x2 PUSH1 0x0 DUP4 PUSH20 0xFFFFFFFFFFFFFFFFFFFFFFFFFFFFFFFFFFFFFFFF AND PUSH20 0xFFFFFFFFFFFFFFFFFFFFFFFFFFFFFFFFFFFFFFFF AND DUP2 MSTORE PUSH1 0x20 ADD SWAP1 DUP2 MSTORE PUSH1 0x20 ADD PUSH1 0x0 KECCAK256 PUSH1 0x3 ADD DUP1 SLOAD PUSH2 0x1D6E SWAP1 PUSH2 0x30B0 JUMP JUMPDEST DUP1 PUSH1 0x1F ADD PUSH1 0x20 DUP1 SWAP2 DIV MUL PUSH1 0x20 ADD PUSH1 0x40 MLOAD SWAP1 DUP2 ADD PUSH1 0x40 MSTORE DUP1 SWAP3 SWAP2 SWAP1 DUP2 DUP2 MSTORE PUSH1 0x20 ADD DUP3 DUP1 SLOAD PUSH2 0x1D9A SWAP1 PUSH2 0x30B0 JUMP JUMPDEST DUP1 ISZERO PUSH2 0x1DE7 JUMPI DUP1 PUSH1 0x1F LT PUSH2 0x1DBC JUMPI PUSH2 0x100 DUP1 DUP4 SLOAD DIV MUL DUP4 MSTORE SWAP2 PUSH1 0x20 ADD SWAP2 PUSH2 0x1DE7 JUMP JUMPDEST DUP3 ADD SWAP2 SWAP1 PUSH1 0x0 MSTORE PUSH1 0x20 PUSH1 0x0 KECCAK256 SWAP1 JUMPDEST DUP2 SLOAD DUP2 MSTORE SWAP1 PUSH1 0x1 ADD SWAP1 PUSH1 0x20 ADD DUP1 DUP4 GT PUSH2 0x1DCA JUMPI DUP3 SWAP1 SUB PUSH1 0x1F AND DUP3 ADD SWAP2 JUMPDEST POP POP POP POP POP PUSH1 0x40 MLOAD DUP1 PUSH1 0x20 ADD PUSH1 0x40 MSTORE DUP1 PUSH1 0x0 DUP2 MSTORE POP PUSH2 0x232D JUMP JUMPDEST ISZERO PUSH2 0x1E43 JUMPI PUSH1 0x4 DUP3 SWAP1 DUP1 PUSH1 0x1 DUP2 SLOAD ADD DUP1 DUP3 SSTORE DUP1 SWAP2 POP POP PUSH1 0x1 SWAP1 SUB SWAP1 PUSH1 0x0 MSTORE PUSH1 0x20 PUSH1 0x0 KECCAK256 ADD PUSH1 0x0 SWAP1 SWAP2 SWAP1 SWAP2 SWAP1 SWAP2 POP SWAP1 DUP1 MLOAD SWAP1 PUSH1 0x20 ADD SWAP1 PUSH2 0x1E41 SWAP3 SWAP2 SWAP1 PUSH2 0x2348 JUMP JUMPDEST POP JUMPDEST PUSH1 0x0 PUSH1 0x2 PUSH1 0x0 DUP4 PUSH20 0xFFFFFFFFFFFFFFFFFFFFFFFFFFFFFFFFFFFFFFFF AND PUSH20 0xFFFFFFFFFFFFFFFFFFFFFFFFFFFFFFFFFFFFFFFF AND DUP2 MSTORE PUSH1 0x20 ADD SWAP1 DUP2 MSTORE PUSH1 0x20 ADD PUSH1 0x0 KECCAK256 SWAP1 POP DUP5 DUP2 PUSH1 0x0 ADD SWAP1 DUP1 MLOAD SWAP1 PUSH1 0x20 ADD SWAP1 PUSH2 0x1E9E SWAP3 SWAP2 SWAP1 PUSH2 0x2348 JUMP JUMPDEST POP DUP4 DUP2 PUSH1 0x1 ADD SWAP1 DUP1 MLOAD SWAP1 PUSH1 0x20 ADD SWAP1 PUSH2 0x1EB7 SWAP3 SWAP2 SWAP1 PUSH2 0x2348 JUMP JUMPDEST POP DUP2 DUP2 PUSH1 0x2 ADD PUSH1 0x0 PUSH2 0x100 EXP DUP2 SLOAD DUP2 PUSH20 0xFFFFFFFFFFFFFFFFFFFFFFFFFFFFFFFFFFFFFFFF MUL NOT AND SWAP1 DUP4 PUSH20 0xFFFFFFFFFFFFFFFFFFFFFFFFFFFFFFFFFFFFFFFF AND MUL OR SWAP1 SSTORE POP DUP3 DUP2 PUSH1 0x3 ADD SWAP1 DUP1 MLOAD SWAP1 PUSH1 0x20 ADD SWAP1 PUSH2 0x1F13 SWAP3 SWAP2 SWAP1 PUSH2 0x2348 JUMP JUMPDEST POP PUSH1 0x1 DUP2 PUSH1 0x4 ADD PUSH1 0x0 PUSH2 0x100 EXP DUP2 SLOAD DUP2 PUSH1 0xFF MUL NOT AND SWAP1 DUP4 ISZERO ISZERO MUL OR SWAP1 SSTORE POP PUSH1 0x5 DUP3 SWAP1 DUP1 PUSH1 0x1 DUP2 SLOAD ADD DUP1 DUP3 SSTORE DUP1 SWAP2 POP POP PUSH1 0x1 SWAP1 SUB SWAP1 PUSH1 0x0 MSTORE PUSH1 0x20 PUSH1 0x0 KECCAK256 ADD PUSH1 0x0 SWAP1 SWAP2 SWAP1 SWAP2 SWAP1 SWAP2 PUSH2 0x100 EXP DUP2 SLOAD DUP2 PUSH20 0xFFFFFFFFFFFFFFFFFFFFFFFFFFFFFFFFFFFFFFFF MUL NOT AND SWAP1 DUP4 PUSH20 0xFFFFFFFFFFFFFFFFFFFFFFFFFFFFFFFFFFFFFFFF AND MUL OR SWAP1 SSTORE POP PUSH1 0x1 PUSH1 0x3 PUSH1 0x0 DUP5 PUSH20 0xFFFFFFFFFFFFFFFFFFFFFFFFFFFFFFFFFFFFFFFF AND PUSH20 0xFFFFFFFFFFFFFFFFFFFFFFFFFFFFFFFFFFFFFFFF AND DUP2 MSTORE PUSH1 0x20 ADD SWAP1 DUP2 MSTORE PUSH1 0x20 ADD PUSH1 0x0 KECCAK256 PUSH1 0x0 PUSH2 0x100 EXP DUP2 SLOAD DUP2 PUSH1 0xFF MUL NOT AND SWAP1 DUP4 ISZERO ISZERO MUL OR SWAP1 SSTORE POP POP POP POP POP POP JUMP JUMPDEST PUSH1 0x0 PUSH1 0xA PUSH1 0x0 CALLER PUSH20 0xFFFFFFFFFFFFFFFFFFFFFFFFFFFFFFFFFFFFFFFF AND PUSH20 0xFFFFFFFFFFFFFFFFFFFFFFFFFFFFFFFFFFFFFFFF AND DUP2 MSTORE PUSH1 0x20 ADD SWAP1 DUP2 MSTORE PUSH1 0x20 ADD PUSH1 0x0 KECCAK256 PUSH1 0x0 SWAP1 SLOAD SWAP1 PUSH2 0x100 EXP SWAP1 DIV PUSH1 0xFF AND ISZERO PUSH2 0x2050 JUMPI PUSH1 0x1 SWAP1 POP PUSH2 0x2274 JUMP JUMPDEST PUSH1 0x1 PUSH1 0xA PUSH1 0x0 CALLER PUSH20 0xFFFFFFFFFFFFFFFFFFFFFFFFFFFFFFFFFFFFFFFF AND PUSH20 0xFFFFFFFFFFFFFFFFFFFFFFFFFFFFFFFFFFFFFFFF AND DUP2 MSTORE PUSH1 0x20 ADD SWAP1 DUP2 MSTORE PUSH1 0x20 ADD PUSH1 0x0 KECCAK256 PUSH1 0x0 PUSH2 0x100 EXP DUP2 SLOAD DUP2 PUSH1 0xFF MUL NOT AND SWAP1 DUP4 ISZERO ISZERO MUL OR SWAP1 SSTORE POP PUSH1 0x0 PUSH1 0xB PUSH1 0x0 CALLER PUSH20 0xFFFFFFFFFFFFFFFFFFFFFFFFFFFFFFFFFFFFFFFF AND PUSH20 0xFFFFFFFFFFFFFFFFFFFFFFFFFFFFFFFFFFFFFFFF AND DUP2 MSTORE PUSH1 0x20 ADD SWAP1 DUP2 MSTORE PUSH1 0x20 ADD PUSH1 0x0 KECCAK256 SWAP1 POP PUSH1 0x40 MLOAD DUP1 PUSH1 0x20 ADD PUSH1 0x40 MSTORE DUP1 PUSH1 0x0 DUP2 MSTORE POP DUP2 PUSH1 0x0 ADD SWAP1 DUP1 MLOAD SWAP1 PUSH1 0x20 ADD SWAP1 PUSH2 0x2112 SWAP3 SWAP2 SWAP1 PUSH2 0x2348 JUMP JUMPDEST POP PUSH1 0x40 MLOAD DUP1 PUSH1 0x20 ADD PUSH1 0x40 MSTORE DUP1 PUSH1 0x0 DUP2 MSTORE POP DUP2 PUSH1 0x1 ADD SWAP1 DUP1 MLOAD SWAP1 PUSH1 0x20 ADD SWAP1 PUSH2 0x213A SWAP3 SWAP2 SWAP1 PUSH2 0x2348 JUMP JUMPDEST POP PUSH1 0x40 MLOAD DUP1 PUSH1 0x20 ADD PUSH1 0x40 MSTORE DUP1 PUSH1 0x0 DUP2 MSTORE POP DUP2 PUSH1 0x2 ADD SWAP1 DUP1 MLOAD SWAP1 PUSH1 0x20 ADD SWAP1 PUSH2 0x2162 SWAP3 SWAP2 SWAP1 PUSH2 0x2348 JUMP JUMPDEST POP PUSH1 0x40 MLOAD DUP1 PUSH1 0x20 ADD PUSH1 0x40 MSTORE DUP1 PUSH1 0x0 DUP2 MSTORE POP DUP2 PUSH1 0x3 ADD SWAP1 DUP1 MLOAD SWAP1 PUSH1 0x20 ADD SWAP1 PUSH2 0x218A SWAP3 SWAP2 SWAP1 PUSH2 0x2348 JUMP JUMPDEST POP PUSH1 0x40 MLOAD DUP1 PUSH1 0x20 ADD PUSH1 0x40 MSTORE DUP1 PUSH1 0x0 DUP2 MSTORE POP DUP2 PUSH1 0x4 ADD SWAP1 DUP1 MLOAD SWAP1 PUSH1 0x20 ADD SWAP1 PUSH2 0x21B2 SWAP3 SWAP2 SWAP1 PUSH2 0x2348 JUMP JUMPDEST POP PUSH1 0x40 MLOAD DUP1 PUSH1 0x20 ADD PUSH1 0x40 MSTORE DUP1 PUSH1 0x0 DUP2 MSTORE POP DUP2 PUSH1 0x5 ADD SWAP1 DUP1 MLOAD SWAP1 PUSH1 0x20 ADD SWAP1 PUSH2 0x21DA SWAP3 SWAP2 SWAP1 PUSH2 0x2348 JUMP JUMPDEST POP PUSH1 0x40 MLOAD DUP1 PUSH1 0x20 ADD PUSH1 0x40 MSTORE DUP1 PUSH1 0x0 DUP2 MSTORE POP DUP2 PUSH1 0x6 ADD SWAP1 DUP1 MLOAD SWAP1 PUSH1 0x20 ADD SWAP1 PUSH2 0x2202 SWAP3 SWAP2 SWAP1 PUSH2 0x2348 JUMP JUMPDEST POP PUSH1 0x40 MLOAD DUP1 PUSH1 0x20 ADD PUSH1 0x40 MSTORE DUP1 PUSH1 0x0 DUP2 MSTORE POP DUP2 PUSH1 0x7 ADD SWAP1 DUP1 MLOAD SWAP1 PUSH1 0x20 ADD SWAP1 PUSH2 0x222A SWAP3 SWAP2 SWAP1 PUSH2 0x2348 JUMP JUMPDEST POP CALLER DUP2 PUSH1 0x8 ADD PUSH1 0x0 PUSH2 0x100 EXP DUP2 SLOAD DUP2 PUSH20 0xFFFFFFFFFFFFFFFFFFFFFFFFFFFFFFFFFFFFFFFF MUL NOT AND SWAP1 DUP4 PUSH20 0xFFFFFFFFFFFFFFFFFFFFFFFFFFFFFFFFFFFFFFFF AND MUL OR SWAP1 SSTORE POP PUSH1 0x1 SWAP2 POP POP JUMPDEST SWAP1 JUMP JUMPDEST PUSH1 0x0 DUP1 SLOAD SWAP1 PUSH2 0x100 EXP SWAP1 DIV PUSH20 0xFFFFFFFFFFFFFFFFFFFFFFFFFFFFFFFFFFFFFFFF AND PUSH20 0xFFFFFFFFFFFFFFFFFFFFFFFFFFFFFFFFFFFFFFFF AND CALLER PUSH20 0xFFFFFFFFFFFFFFFFFFFFFFFFFFFFFFFFFFFFFFFF AND EQ PUSH2 0x22CF JUMPI PUSH1 0x0 DUP1 REVERT JUMPDEST PUSH1 0x0 PUSH1 0x2 PUSH1 0x0 DUP4 PUSH20 0xFFFFFFFFFFFFFFFFFFFFFFFFFFFFFFFFFFFFFFFF AND PUSH20 0xFFFFFFFFFFFFFFFFFFFFFFFFFFFFFFFFFFFFFFFF AND DUP2 MSTORE PUSH1 0x20 ADD SWAP1 DUP2 MSTORE PUSH1 0x20 ADD PUSH1 0x0 KECCAK256 PUSH1 0x4 ADD PUSH1 0x0 PUSH2 0x100 EXP DUP2 SLOAD DUP2 PUSH1 0xFF MUL NOT AND SWAP1 DUP4 ISZERO ISZERO MUL OR SWAP1 SSTORE POP POP JUMP JUMPDEST PUSH1 0x0 DUP2 DUP1 MLOAD SWAP1 PUSH1 0x20 ADD KECCAK256 DUP4 DUP1 MLOAD SWAP1 PUSH1 0x20 ADD KECCAK256 EQ SWAP1 POP SWAP3 SWAP2 POP POP JUMP JUMPDEST DUP3 DUP1 SLOAD PUSH2 0x2354 SWAP1 PUSH2 0x30B0 JUMP JUMPDEST SWAP1 PUSH1 0x0 MSTORE PUSH1 0x20 PUSH1 0x0 KECCAK256 SWAP1 PUSH1 0x1F ADD PUSH1 0x20 SWAP1 DIV DUP2 ADD SWAP3 DUP3 PUSH2 0x2376 JUMPI PUSH1 0x0 DUP6 SSTORE PUSH2 0x23BD JUMP JUMPDEST DUP3 PUSH1 0x1F LT PUSH2 0x238F JUMPI DUP1 MLOAD PUSH1 0xFF NOT AND DUP4 DUP1 ADD OR DUP6 SSTORE PUSH2 0x23BD JUMP JUMPDEST DUP3 DUP1 ADD PUSH1 0x1 ADD DUP6 SSTORE DUP3 ISZERO PUSH2 0x23BD JUMPI SWAP2 DUP3 ADD JUMPDEST DUP3 DUP2 GT ISZERO PUSH2 0x23BC JUMPI DUP3 MLOAD DUP3 SSTORE SWAP2 PUSH1 0x20 ADD SWAP2 SWAP1 PUSH1 0x1 ADD SWAP1 PUSH2 0x23A1 JUMP JUMPDEST JUMPDEST POP SWAP1 POP PUSH2 0x23CA SWAP2 SWAP1 PUSH2 0x24A2 JUMP JUMPDEST POP SWAP1 JUMP JUMPDEST PUSH1 0x40 MLOAD DUP1 PUSH1 0xA0 ADD PUSH1 0x40 MSTORE DUP1 PUSH1 0x60 DUP2 MSTORE PUSH1 0x20 ADD PUSH1 0x60 DUP2 MSTORE PUSH1 0x20 ADD PUSH1 0x0 PUSH20 0xFFFFFFFFFFFFFFFFFFFFFFFFFFFFFFFFFFFFFFFF AND DUP2 MSTORE PUSH1 0x20 ADD PUSH1 0x60 DUP2 MSTORE PUSH1 0x20 ADD PUSH1 0x0 ISZERO ISZERO DUP2 MSTORE POP SWAP1 JUMP JUMPDEST DUP3 DUP1 SLOAD PUSH2 0x2421 SWAP1 PUSH2 0x30B0 JUMP JUMPDEST SWAP1 PUSH1 0x0 MSTORE PUSH1 0x20 PUSH1 0x0 KECCAK256 SWAP1 PUSH1 0x1F ADD PUSH1 0x20 SWAP1 DIV DUP2 ADD SWAP3 DUP3 PUSH2 0x2443 JUMPI PUSH1 0x0 DUP6 SSTORE PUSH2 0x2491 JUMP JUMPDEST DUP3 PUSH1 0x1F LT PUSH2 0x2454 JUMPI DUP1 SLOAD DUP6 SSTORE PUSH2 0x2491 JUMP JUMPDEST DUP3 DUP1 ADD PUSH1 0x1 ADD DUP6 SSTORE DUP3 ISZERO PUSH2 0x2491 JUMPI PUSH1 0x0 MSTORE PUSH1 0x20 PUSH1 0x0 KECCAK256 SWAP2 PUSH1 0x1F ADD PUSH1 0x20 SWAP1 DIV DUP3 ADD JUMPDEST DUP3 DUP2 GT ISZERO PUSH2 0x2490 JUMPI DUP3 SLOAD DUP3 SSTORE SWAP2 PUSH1 0x1 ADD SWAP2 SWAP1 PUSH1 0x1 ADD SWAP1 PUSH2 0x2475 JUMP JUMPDEST JUMPDEST POP SWAP1 POP PUSH2 0x249E SWAP2 SWAP1 PUSH2 0x24A2 JUMP JUMPDEST POP SWAP1 JUMP JUMPDEST JUMPDEST DUP1 DUP3 GT ISZERO PUSH2 0x24BB JUMPI PUSH1 0x0 DUP2 PUSH1 0x0 SWAP1 SSTORE POP PUSH1 0x1 ADD PUSH2 0x24A3 JUMP JUMPDEST POP SWAP1 JUMP JUMPDEST PUSH1 0x0 PUSH20 0xFFFFFFFFFFFFFFFFFFFFFFFFFFFFFFFFFFFFFFFF DUP3 AND SWAP1 POP SWAP2 SWAP1 POP JUMP JUMPDEST PUSH1 0x0 PUSH2 0x24EA DUP3 PUSH2 0x24BF JUMP JUMPDEST SWAP1 POP SWAP2 SWAP1 POP JUMP JUMPDEST PUSH2 0x24FA DUP2 PUSH2 0x24DF JUMP JUMPDEST DUP3 MSTORE POP POP JUMP JUMPDEST PUSH1 0x0 PUSH1 0x20 DUP3 ADD SWAP1 POP PUSH2 0x2515 PUSH1 0x0 DUP4 ADD DUP5 PUSH2 0x24F1 JUMP JUMPDEST SWAP3 SWAP2 POP POP JUMP JUMPDEST PUSH1 0x0 PUSH1 0x40 MLOAD SWAP1 POP SWAP1 JUMP JUMPDEST PUSH1 0x0 DUP1 REVERT JUMPDEST PUSH1 0x0 DUP1 REVERT JUMPDEST PUSH1 0x0 DUP2 SWAP1 POP SWAP2 SWAP1 POP JUMP JUMPDEST PUSH2 0x2542 DUP2 PUSH2 0x252F JUMP JUMPDEST DUP2 EQ PUSH2 0x254D JUMPI PUSH1 0x0 DUP1 REVERT JUMPDEST POP JUMP JUMPDEST PUSH1 0x0 DUP2 CALLDATALOAD SWAP1 POP PUSH2 0x255F DUP2 PUSH2 0x2539 JUMP JUMPDEST SWAP3 SWAP2 POP POP JUMP JUMPDEST PUSH1 0x0 PUSH1 0x20 DUP3 DUP5 SUB SLT ISZERO PUSH2 0x257B JUMPI PUSH2 0x257A PUSH2 0x2525 JUMP JUMPDEST JUMPDEST PUSH1 0x0 PUSH2 0x2589 DUP5 DUP3 DUP6 ADD PUSH2 0x2550 JUMP JUMPDEST SWAP2 POP POP SWAP3 SWAP2 POP POP JUMP JUMPDEST PUSH1 0x0 DUP1 REVERT JUMPDEST PUSH1 0x0 DUP1 REVERT JUMPDEST PUSH1 0x0 PUSH1 0x1F NOT PUSH1 0x1F DUP4 ADD AND SWAP1 POP SWAP2 SWAP1 POP JUMP JUMPDEST PUSH32 0x4E487B7100000000000000000000000000000000000000000000000000000000 PUSH1 0x0 MSTORE PUSH1 0x41 PUSH1 0x4 MSTORE PUSH1 0x24 PUSH1 0x0 REVERT JUMPDEST PUSH2 0x25E5 DUP3 PUSH2 0x259C JUMP JUMPDEST DUP2 ADD DUP2 DUP2 LT PUSH8 0xFFFFFFFFFFFFFFFF DUP3 GT OR ISZERO PUSH2 0x2604 JUMPI PUSH2 0x2603 PUSH2 0x25AD JUMP JUMPDEST JUMPDEST DUP1 PUSH1 0x40 MSTORE POP POP POP JUMP JUMPDEST PUSH1 0x0 PUSH2 0x2617 PUSH2 0x251B JUMP JUMPDEST SWAP1 POP PUSH2 0x2623 DUP3 DUP3 PUSH2 0x25DC JUMP JUMPDEST SWAP2 SWAP1 POP JUMP JUMPDEST PUSH1 0x0 PUSH8 0xFFFFFFFFFFFFFFFF DUP3 GT ISZERO PUSH2 0x2643 JUMPI PUSH2 0x2642 PUSH2 0x25AD JUMP JUMPDEST JUMPDEST PUSH2 0x264C DUP3 PUSH2 0x259C JUMP JUMPDEST SWAP1 POP PUSH1 0x20 DUP2 ADD SWAP1 POP SWAP2 SWAP1 POP JUMP JUMPDEST DUP3 DUP2 DUP4 CALLDATACOPY PUSH1 0x0 DUP4 DUP4 ADD MSTORE POP POP POP JUMP JUMPDEST PUSH1 0x0 PUSH2 0x267B PUSH2 0x2676 DUP5 PUSH2 0x2628 JUMP JUMPDEST PUSH2 0x260D JUMP JUMPDEST SWAP1 POP DUP3 DUP2 MSTORE PUSH1 0x20 DUP2 ADD DUP5 DUP5 DUP5 ADD GT ISZERO PUSH2 0x2697 JUMPI PUSH2 0x2696 PUSH2 0x2597 JUMP JUMPDEST JUMPDEST PUSH2 0x26A2 DUP5 DUP3 DUP6 PUSH2 0x2659 JUMP JUMPDEST POP SWAP4 SWAP3 POP POP POP JUMP JUMPDEST PUSH1 0x0 DUP3 PUSH1 0x1F DUP4 ADD SLT PUSH2 0x26BF JUMPI PUSH2 0x26BE PUSH2 0x2592 JUMP JUMPDEST JUMPDEST DUP2 CALLDATALOAD PUSH2 0x26CF DUP5 DUP3 PUSH1 0x20 DUP7 ADD PUSH2 0x2668 JUMP JUMPDEST SWAP2 POP POP SWAP3 SWAP2 POP POP JUMP JUMPDEST PUSH2 0x26E1 DUP2 PUSH2 0x24DF JUMP JUMPDEST DUP2 EQ PUSH2 0x26EC JUMPI PUSH1 0x0 DUP1 REVERT JUMPDEST POP JUMP JUMPDEST PUSH1 0x0 DUP2 CALLDATALOAD SWAP1 POP PUSH2 0x26FE DUP2 PUSH2 0x26D8 JUMP JUMPDEST SWAP3 SWAP2 POP POP JUMP JUMPDEST PUSH1 0x0 DUP1 PUSH1 0x0 DUP1 PUSH1 0x80 DUP6 DUP8 SUB SLT ISZERO PUSH2 0x271E JUMPI PUSH2 0x271D PUSH2 0x2525 JUMP JUMPDEST JUMPDEST PUSH1 0x0 DUP6 ADD CALLDATALOAD PUSH8 0xFFFFFFFFFFFFFFFF DUP2 GT ISZERO PUSH2 0x273C JUMPI PUSH2 0x273B PUSH2 0x252A JUMP JUMPDEST JUMPDEST PUSH2 0x2748 DUP8 DUP3 DUP9 ADD PUSH2 0x26AA JUMP JUMPDEST SWAP5 POP POP PUSH1 0x20 DUP6 ADD CALLDATALOAD PUSH8 0xFFFFFFFFFFFFFFFF DUP2 GT ISZERO PUSH2 0x2769 JUMPI PUSH2 0x2768 PUSH2 0x252A JUMP JUMPDEST JUMPDEST PUSH2 0x2775 DUP8 DUP3 DUP9 ADD PUSH2 0x26AA JUMP JUMPDEST SWAP4 POP POP PUSH1 0x40 DUP6 ADD CALLDATALOAD PUSH8 0xFFFFFFFFFFFFFFFF DUP2 GT ISZERO PUSH2 0x2796 JUMPI PUSH2 0x2795 PUSH2 0x252A JUMP JUMPDEST JUMPDEST PUSH2 0x27A2 DUP8 DUP3 DUP9 ADD PUSH2 0x26AA JUMP JUMPDEST SWAP3 POP POP PUSH1 0x60 PUSH2 0x27B3 DUP8 DUP3 DUP9 ADD PUSH2 0x26EF JUMP JUMPDEST SWAP2 POP POP SWAP3 SWAP6 SWAP2 SWAP5 POP SWAP3 POP JUMP JUMPDEST PUSH1 0x0 DUP2 MLOAD SWAP1 POP SWAP2 SWAP1 POP JUMP JUMPDEST PUSH1 0x0 DUP3 DUP3 MSTORE PUSH1 0x20 DUP3 ADD SWAP1 POP SWAP3 SWAP2 POP POP JUMP JUMPDEST PUSH1 0x0 DUP2 SWAP1 POP PUSH1 0x20 DUP3 ADD SWAP1 POP SWAP2 SWAP1 POP JUMP JUMPDEST PUSH1 0x0 DUP2 MLOAD SWAP1 POP SWAP2 SWAP1 POP JUMP JUMPDEST PUSH1 0x0 DUP3 DUP3 MSTORE PUSH1 0x20 DUP3 ADD SWAP1 POP SWAP3 SWAP2 POP POP JUMP JUMPDEST PUSH1 0x0 JUMPDEST DUP4 DUP2 LT ISZERO PUSH2 0x2825 JUMPI DUP1 DUP3 ADD MLOAD DUP2 DUP5 ADD MSTORE PUSH1 0x20 DUP2 ADD SWAP1 POP PUSH2 0x280A JUMP JUMPDEST DUP4 DUP2 GT ISZERO PUSH2 0x2834 JUMPI PUSH1 0x0 DUP5 DUP5 ADD MSTORE JUMPDEST POP POP POP POP JUMP JUMPDEST PUSH1 0x0 PUSH2 0x2845 DUP3 PUSH2 0x27EB JUMP JUMPDEST PUSH2 0x284F DUP2 DUP6 PUSH2 0x27F6 JUMP JUMPDEST SWAP4 POP PUSH2 0x285F DUP2 DUP6 PUSH1 0x20 DUP7 ADD PUSH2 0x2807 JUMP JUMPDEST PUSH2 0x2868 DUP2 PUSH2 0x259C JUMP JUMPDEST DUP5 ADD SWAP2 POP POP SWAP3 SWAP2 POP POP JUMP JUMPDEST PUSH1 0x0 PUSH2 0x287F DUP4 DUP4 PUSH2 0x283A JUMP JUMPDEST SWAP1 POP SWAP3 SWAP2 POP POP JUMP JUMPDEST PUSH1 0x0 PUSH1 0x20 DUP3 ADD SWAP1 POP SWAP2 SWAP1 POP JUMP JUMPDEST PUSH1 0x0 PUSH2 0x289F DUP3 PUSH2 0x27BF JUMP JUMPDEST PUSH2 0x28A9 DUP2 DUP6 PUSH2 0x27CA JUMP JUMPDEST SWAP4 POP DUP4 PUSH1 0x20 DUP3 MUL DUP6 ADD PUSH2 0x28BB DUP6 PUSH2 0x27DB JUMP JUMPDEST DUP1 PUSH1 0x0 JUMPDEST DUP6 DUP2 LT ISZERO PUSH2 0x28F7 JUMPI DUP5 DUP5 SUB DUP10 MSTORE DUP2 MLOAD PUSH2 0x28D8 DUP6 DUP3 PUSH2 0x2873 JUMP JUMPDEST SWAP5 POP PUSH2 0x28E3 DUP4 PUSH2 0x2887 JUMP JUMPDEST SWAP3 POP PUSH1 0x20 DUP11 ADD SWAP10 POP POP PUSH1 0x1 DUP2 ADD SWAP1 POP PUSH2 0x28BF JUMP JUMPDEST POP DUP3 SWAP8 POP DUP8 SWAP6 POP POP POP POP POP POP SWAP3 SWAP2 POP POP JUMP JUMPDEST PUSH1 0x0 PUSH1 0x20 DUP3 ADD SWAP1 POP DUP2 DUP2 SUB PUSH1 0x0 DUP4 ADD MSTORE PUSH2 0x2923 DUP2 DUP5 PUSH2 0x2894 JUMP JUMPDEST SWAP1 POP SWAP3 SWAP2 POP POP JUMP JUMPDEST PUSH1 0x0 PUSH1 0x20 DUP3 DUP5 SUB SLT ISZERO PUSH2 0x2941 JUMPI PUSH2 0x2940 PUSH2 0x2525 JUMP JUMPDEST JUMPDEST PUSH1 0x0 PUSH2 0x294F DUP5 DUP3 DUP6 ADD PUSH2 0x26EF JUMP JUMPDEST SWAP2 POP POP SWAP3 SWAP2 POP POP JUMP JUMPDEST PUSH2 0x2961 DUP2 PUSH2 0x252F JUMP JUMPDEST DUP3 MSTORE POP POP JUMP JUMPDEST PUSH1 0x0 PUSH1 0x20 DUP3 ADD SWAP1 POP PUSH2 0x297C PUSH1 0x0 DUP4 ADD DUP5 PUSH2 0x2958 JUMP JUMPDEST SWAP3 SWAP2 POP POP JUMP JUMPDEST PUSH1 0x0 DUP1 PUSH1 0x0 DUP1 PUSH1 0x0 DUP1 PUSH1 0x0 DUP1 PUSH2 0x100 DUP10 DUP12 SUB SLT ISZERO PUSH2 0x29A3 JUMPI PUSH2 0x29A2 PUSH2 0x2525 JUMP JUMPDEST JUMPDEST PUSH1 0x0 DUP10 ADD CALLDATALOAD PUSH8 0xFFFFFFFFFFFFFFFF DUP2 GT ISZERO PUSH2 0x29C1 JUMPI PUSH2 0x29C0 PUSH2 0x252A JUMP JUMPDEST JUMPDEST PUSH2 0x29CD DUP12 DUP3 DUP13 ADD PUSH2 0x26AA JUMP JUMPDEST SWAP9 POP POP PUSH1 0x20 DUP10 ADD CALLDATALOAD PUSH8 0xFFFFFFFFFFFFFFFF DUP2 GT ISZERO PUSH2 0x29EE JUMPI PUSH2 0x29ED PUSH2 0x252A JUMP JUMPDEST JUMPDEST PUSH2 0x29FA DUP12 DUP3 DUP13 ADD PUSH2 0x26AA JUMP JUMPDEST SWAP8 POP POP PUSH1 0x40 DUP10 ADD CALLDATALOAD PUSH8 0xFFFFFFFFFFFFFFFF DUP2 GT ISZERO PUSH2 0x2A1B JUMPI PUSH2 0x2A1A PUSH2 0x252A JUMP JUMPDEST JUMPDEST PUSH2 0x2A27 DUP12 DUP3 DUP13 ADD PUSH2 0x26AA JUMP JUMPDEST SWAP7 POP POP PUSH1 0x60 DUP10 ADD CALLDATALOAD PUSH8 0xFFFFFFFFFFFFFFFF DUP2 GT ISZERO PUSH2 0x2A48 JUMPI PUSH2 0x2A47 PUSH2 0x252A JUMP JUMPDEST JUMPDEST PUSH2 0x2A54 DUP12 DUP3 DUP13 ADD PUSH2 0x26AA JUMP JUMPDEST SWAP6 POP POP PUSH1 0x80 DUP10 ADD CALLDATALOAD PUSH8 0xFFFFFFFFFFFFFFFF DUP2 GT ISZERO PUSH2 0x2A75 JUMPI PUSH2 0x2A74 PUSH2 0x252A JUMP JUMPDEST JUMPDEST PUSH2 0x2A81 DUP12 DUP3 DUP13 ADD PUSH2 0x26AA JUMP JUMPDEST SWAP5 POP POP PUSH1 0xA0 DUP10 ADD CALLDATALOAD PUSH8 0xFFFFFFFFFFFFFFFF DUP2 GT ISZERO PUSH2 0x2AA2 JUMPI PUSH2 0x2AA1 PUSH2 0x252A JUMP JUMPDEST JUMPDEST PUSH2 0x2AAE DUP12 DUP3 DUP13 ADD PUSH2 0x26AA JUMP JUMPDEST SWAP4 POP POP PUSH1 0xC0 DUP10 ADD CALLDATALOAD PUSH8 0xFFFFFFFFFFFFFFFF DUP2 GT ISZERO PUSH2 0x2ACF JUMPI PUSH2 0x2ACE PUSH2 0x252A JUMP JUMPDEST JUMPDEST PUSH2 0x2ADB DUP12 DUP3 DUP13 ADD PUSH2 0x26AA JUMP JUMPDEST SWAP3 POP POP PUSH1 0xE0 DUP10 ADD CALLDATALOAD PUSH8 0xFFFFFFFFFFFFFFFF DUP2 GT ISZERO PUSH2 0x2AFC JUMPI PUSH2 0x2AFB PUSH2 0x252A JUMP JUMPDEST JUMPDEST PUSH2 0x2B08 DUP12 DUP3 DUP13 ADD PUSH2 0x26AA JUMP JUMPDEST SWAP2 POP POP SWAP3 SWAP6 SWAP9 POP SWAP3 SWAP6 SWAP9 SWAP1 SWAP4 SWAP7 POP JUMP JUMPDEST PUSH1 0x0 DUP3 DUP3 MSTORE PUSH1 0x20 DUP3 ADD SWAP1 POP SWAP3 SWAP2 POP POP JUMP JUMPDEST PUSH1 0x0 PUSH2 0x2B34 DUP3 PUSH2 0x27EB JUMP JUMPDEST PUSH2 0x2B3E DUP2 DUP6 PUSH2 0x2B18 JUMP JUMPDEST SWAP4 POP PUSH2 0x2B4E DUP2 DUP6 PUSH1 0x20 DUP7 ADD PUSH2 0x2807 JUMP JUMPDEST PUSH2 0x2B57 DUP2 PUSH2 0x259C JUMP JUMPDEST DUP5 ADD SWAP2 POP POP SWAP3 SWAP2 POP POP JUMP JUMPDEST PUSH1 0x0 PUSH1 0x20 DUP3 ADD SWAP1 POP DUP2 DUP2 SUB PUSH1 0x0 DUP4 ADD MSTORE PUSH2 0x2B7C DUP2 DUP5 PUSH2 0x2B29 JUMP JUMPDEST SWAP1 POP SWAP3 SWAP2 POP POP JUMP JUMPDEST PUSH1 0x0 DUP2 ISZERO ISZERO SWAP1 POP SWAP2 SWAP1 POP JUMP JUMPDEST PUSH2 0x2B99 DUP2 PUSH2 0x2B84 JUMP JUMPDEST DUP3 MSTORE POP POP JUMP JUMPDEST PUSH1 0x0 PUSH1 0xA0 DUP3 ADD SWAP1 POP DUP2 DUP2 SUB PUSH1 0x0 DUP4 ADD MSTORE PUSH2 0x2BB9 DUP2 DUP9 PUSH2 0x2B29 JUMP JUMPDEST SWAP1 POP DUP2 DUP2 SUB PUSH1 0x20 DUP4 ADD MSTORE PUSH2 0x2BCD DUP2 DUP8 PUSH2 0x2B29 JUMP JUMPDEST SWAP1 POP PUSH2 0x2BDC PUSH1 0x40 DUP4 ADD DUP7 PUSH2 0x24F1 JUMP JUMPDEST DUP2 DUP2 SUB PUSH1 0x60 DUP4 ADD MSTORE PUSH2 0x2BEE DUP2 DUP6 PUSH2 0x2B29 JUMP JUMPDEST SWAP1 POP PUSH2 0x2BFD PUSH1 0x80 DUP4 ADD DUP5 PUSH2 0x2B90 JUMP JUMPDEST SWAP7 SWAP6 POP POP POP POP POP POP JUMP JUMPDEST PUSH1 0x0 DUP2 MLOAD SWAP1 POP SWAP2 SWAP1 POP JUMP JUMPDEST PUSH1 0x0 DUP3 DUP3 MSTORE PUSH1 0x20 DUP3 ADD SWAP1 POP SWAP3 SWAP2 POP POP JUMP JUMPDEST PUSH1 0x0 DUP2 SWAP1 POP PUSH1 0x20 DUP3 ADD SWAP1 POP SWAP2 SWAP1 POP JUMP JUMPDEST PUSH2 0x2C3C DUP2 PUSH2 0x24DF JUMP JUMPDEST DUP3 MSTORE POP POP JUMP JUMPDEST PUSH1 0x0 PUSH2 0x2C4E DUP4 DUP4 PUSH2 0x2C33 JUMP JUMPDEST PUSH1 0x20 DUP4 ADD SWAP1 POP SWAP3 SWAP2 POP POP JUMP JUMPDEST PUSH1 0x0 PUSH1 0x20 DUP3 ADD SWAP1 POP SWAP2 SWAP1 POP JUMP JUMPDEST PUSH1 0x0 PUSH2 0x2C72 DUP3 PUSH2 0x2C07 JUMP JUMPDEST PUSH2 0x2C7C DUP2 DUP6 PUSH2 0x2C12 JUMP JUMPDEST SWAP4 POP PUSH2 0x2C87 DUP4 PUSH2 0x2C23 JUMP JUMPDEST DUP1 PUSH1 0x0 JUMPDEST DUP4 DUP2 LT ISZERO PUSH2 0x2CB8 JUMPI DUP2 MLOAD PUSH2 0x2C9F DUP9 DUP3 PUSH2 0x2C42 JUMP JUMPDEST SWAP8 POP PUSH2 0x2CAA DUP4 PUSH2 0x2C5A JUMP JUMPDEST SWAP3 POP POP PUSH1 0x1 DUP2 ADD SWAP1 POP PUSH2 0x2C8B JUMP JUMPDEST POP DUP6 SWAP4 POP POP POP POP SWAP3 SWAP2 POP POP JUMP JUMPDEST PUSH1 0x0 PUSH1 0x20 DUP3 ADD SWAP1 POP DUP2 DUP2 SUB PUSH1 0x0 DUP4 ADD MSTORE PUSH2 0x2CDF DUP2 DUP5 PUSH2 0x2C67 JUMP JUMPDEST SWAP1 POP SWAP3 SWAP2 POP POP JUMP JUMPDEST PUSH2 0x2CF0 DUP2 PUSH2 0x2B84 JUMP JUMPDEST DUP3 MSTORE POP POP JUMP JUMPDEST PUSH1 0x0 PUSH1 0xA0 DUP4 ADD PUSH1 0x0 DUP4 ADD MLOAD DUP5 DUP3 SUB PUSH1 0x0 DUP7 ADD MSTORE PUSH2 0x2D13 DUP3 DUP3 PUSH2 0x283A JUMP JUMPDEST SWAP2 POP POP PUSH1 0x20 DUP4 ADD MLOAD DUP5 DUP3 SUB PUSH1 0x20 DUP7 ADD MSTORE PUSH2 0x2D2D DUP3 DUP3 PUSH2 0x283A JUMP JUMPDEST SWAP2 POP POP PUSH1 0x40 DUP4 ADD MLOAD PUSH2 0x2D42 PUSH1 0x40 DUP7 ADD DUP3 PUSH2 0x2C33 JUMP JUMPDEST POP PUSH1 0x60 DUP4 ADD MLOAD DUP5 DUP3 SUB PUSH1 0x60 DUP7 ADD MSTORE PUSH2 0x2D5A DUP3 DUP3 PUSH2 0x283A JUMP JUMPDEST SWAP2 POP POP PUSH1 0x80 DUP4 ADD MLOAD PUSH2 0x2D6F PUSH1 0x80 DUP7 ADD DUP3 PUSH2 0x2CE7 JUMP JUMPDEST POP DUP1 SWAP2 POP POP SWAP3 SWAP2 POP POP JUMP JUMPDEST PUSH1 0x0 PUSH1 0x20 DUP3 ADD SWAP1 POP DUP2 DUP2 SUB PUSH1 0x0 DUP4 ADD MSTORE PUSH2 0x2D94 DUP2 DUP5 PUSH2 0x2CF6 JUMP JUMPDEST SWAP1 POP SWAP3 SWAP2 POP POP JUMP JUMPDEST PUSH1 0x0 PUSH1 0x20 DUP3 ADD SWAP1 POP PUSH2 0x2DB1 PUSH1 0x0 DUP4 ADD DUP5 PUSH2 0x2B90 JUMP JUMPDEST SWAP3 SWAP2 POP POP JUMP JUMPDEST PUSH1 0x0 DUP1 PUSH1 0x0 DUP1 PUSH1 0x0 DUP1 PUSH1 0xC0 DUP8 DUP10 SUB SLT ISZERO PUSH2 0x2DD4 JUMPI PUSH2 0x2DD3 PUSH2 0x2525 JUMP JUMPDEST JUMPDEST PUSH1 0x0 DUP8 ADD CALLDATALOAD PUSH8 0xFFFFFFFFFFFFFFFF DUP2 GT ISZERO PUSH2 0x2DF2 JUMPI PUSH2 0x2DF1 PUSH2 0x252A JUMP JUMPDEST JUMPDEST PUSH2 0x2DFE DUP10 DUP3 DUP11 ADD PUSH2 0x26AA JUMP JUMPDEST SWAP7 POP POP PUSH1 0x20 DUP8 ADD CALLDATALOAD PUSH8 0xFFFFFFFFFFFFFFFF DUP2 GT ISZERO PUSH2 0x2E1F JUMPI PUSH2 0x2E1E PUSH2 0x252A JUMP JUMPDEST JUMPDEST PUSH2 0x2E2B DUP10 DUP3 DUP11 ADD PUSH2 0x26AA JUMP JUMPDEST SWAP6 POP POP PUSH1 0x40 PUSH2 0x2E3C DUP10 DUP3 DUP11 ADD PUSH2 0x26EF JUMP JUMPDEST SWAP5 POP POP PUSH1 0x60 DUP8 ADD CALLDATALOAD PUSH8 0xFFFFFFFFFFFFFFFF DUP2 GT ISZERO PUSH2 0x2E5D JUMPI PUSH2 0x2E5C PUSH2 0x252A JUMP JUMPDEST JUMPDEST PUSH2 0x2E69 DUP10 DUP3 DUP11 ADD PUSH2 0x26AA JUMP JUMPDEST SWAP4 POP POP PUSH1 0x80 PUSH2 0x2E7A DUP10 DUP3 DUP11 ADD PUSH2 0x26EF JUMP JUMPDEST SWAP3 POP POP PUSH1 0xA0 DUP8 ADD CALLDATALOAD PUSH8 0xFFFFFFFFFFFFFFFF DUP2 GT ISZERO PUSH2 0x2E9B JUMPI PUSH2 0x2E9A PUSH2 0x252A JUMP JUMPDEST JUMPDEST PUSH2 0x2EA7 DUP10 DUP3 DUP11 ADD PUSH2 0x26AA JUMP JUMPDEST SWAP2 POP POP SWAP3 SWAP6 POP SWAP3 SWAP6 POP SWAP3 SWAP6 JUMP JUMPDEST PUSH1 0x0 PUSH1 0x20 DUP3 DUP5 SUB SLT ISZERO PUSH2 0x2ECA JUMPI PUSH2 0x2EC9 PUSH2 0x2525 JUMP JUMPDEST JUMPDEST PUSH1 0x0 DUP3 ADD CALLDATALOAD PUSH8 0xFFFFFFFFFFFFFFFF DUP2 GT ISZERO PUSH2 0x2EE8 JUMPI PUSH2 0x2EE7 PUSH2 0x252A JUMP JUMPDEST JUMPDEST PUSH2 0x2EF4 DUP5 DUP3 DUP6 ADD PUSH2 0x26AA JUMP JUMPDEST SWAP2 POP POP SWAP3 SWAP2 POP POP JUMP JUMPDEST PUSH1 0x0 PUSH2 0x140 DUP3 ADD SWAP1 POP DUP2 DUP2 SUB PUSH1 0x0 DUP4 ADD MSTORE PUSH2 0x2F18 DUP2 DUP14 PUSH2 0x2B29 JUMP JUMPDEST SWAP1 POP DUP2 DUP2 SUB PUSH1 0x20 DUP4 ADD MSTORE PUSH2 0x2F2C DUP2 DUP13 PUSH2 0x2B29 JUMP JUMPDEST SWAP1 POP DUP2 DUP2 SUB PUSH1 0x40 DUP4 ADD MSTORE PUSH2 0x2F40 DUP2 DUP12 PUSH2 0x2B29 JUMP JUMPDEST SWAP1 POP PUSH2 0x2F4F PUSH1 0x60 DUP4 ADD DUP11 PUSH2 0x24F1 JUMP JUMPDEST DUP2 DUP2 SUB PUSH1 0x80 DUP4 ADD MSTORE PUSH2 0x2F61 DUP2 DUP10 PUSH2 0x2B29 JUMP JUMPDEST SWAP1 POP PUSH2 0x2F70 PUSH1 0xA0 DUP4 ADD DUP9 PUSH2 0x2B90 JUMP JUMPDEST PUSH2 0x2F7D PUSH1 0xC0 DUP4 ADD DUP8 PUSH2 0x2B90 JUMP JUMPDEST PUSH2 0x2F8A PUSH1 0xE0 DUP4 ADD DUP7 PUSH2 0x24F1 JUMP JUMPDEST DUP2 DUP2 SUB PUSH2 0x100 DUP4 ADD MSTORE PUSH2 0x2F9D DUP2 DUP6 PUSH2 0x2B29 JUMP JUMPDEST SWAP1 POP PUSH2 0x2FAD PUSH2 0x120 DUP4 ADD DUP5 PUSH2 0x24F1 JUMP JUMPDEST SWAP12 SWAP11 POP POP POP POP POP POP POP POP POP POP POP JUMP JUMPDEST PUSH1 0x0 PUSH2 0x120 DUP3 ADD SWAP1 POP DUP2 DUP2 SUB PUSH1 0x0 DUP4 ADD MSTORE PUSH2 0x2FD7 DUP2 DUP13 PUSH2 0x2B29 JUMP JUMPDEST SWAP1 POP DUP2 DUP2 SUB PUSH1 0x20 DUP4 ADD MSTORE PUSH2 0x2FEB DUP2 DUP12 PUSH2 0x2B29 JUMP JUMPDEST SWAP1 POP DUP2 DUP2 SUB PUSH1 0x40 DUP4 ADD MSTORE PUSH2 0x2FFF DUP2 DUP11 PUSH2 0x2B29 JUMP JUMPDEST SWAP1 POP DUP2 DUP2 SUB PUSH1 0x60 DUP4 ADD MSTORE PUSH2 0x3013 DUP2 DUP10 PUSH2 0x2B29 JUMP JUMPDEST SWAP1 POP DUP2 DUP2 SUB PUSH1 0x80 DUP4 ADD MSTORE PUSH2 0x3027 DUP2 DUP9 PUSH2 0x2B29 JUMP JUMPDEST SWAP1 POP DUP2 DUP2 SUB PUSH1 0xA0 DUP4 ADD MSTORE PUSH2 0x303B DUP2 DUP8 PUSH2 0x2B29 JUMP JUMPDEST SWAP1 POP DUP2 DUP2 SUB PUSH1 0xC0 DUP4 ADD MSTORE PUSH2 0x304F DUP2 DUP7 PUSH2 0x2B29 JUMP JUMPDEST SWAP1 POP DUP2 DUP2 SUB PUSH1 0xE0 DUP4 ADD MSTORE PUSH2 0x3063 DUP2 DUP6 PUSH2 0x2B29 JUMP JUMPDEST SWAP1 POP PUSH2 0x3073 PUSH2 0x100 DUP4 ADD DUP5 PUSH2 0x24F1 JUMP JUMPDEST SWAP11 SWAP10 POP POP POP POP POP POP POP POP POP POP JUMP JUMPDEST PUSH32 0x4E487B7100000000000000000000000000000000000000000000000000000000 PUSH1 0x0 MSTORE PUSH1 0x22 PUSH1 0x4 MSTORE PUSH1 0x24 PUSH1 0x0 REVERT JUMPDEST PUSH1 0x0 PUSH1 0x2 DUP3 DIV SWAP1 POP PUSH1 0x1 DUP3 AND DUP1 PUSH2 0x30C8 JUMPI PUSH1 0x7F DUP3 AND SWAP2 POP JUMPDEST PUSH1 0x20 DUP3 LT DUP2 EQ ISZERO PUSH2 0x30DC JUMPI PUSH2 0x30DB PUSH2 0x3081 JUMP JUMPDEST JUMPDEST POP SWAP2 SWAP1 POP JUMP JUMPDEST PUSH1 0x0 DUP2 SWAP1 POP SWAP3 SWAP2 POP POP JUMP JUMPDEST PUSH1 0x0 PUSH2 0x30F8 DUP3 PUSH2 0x27EB JUMP JUMPDEST PUSH2 0x3102 DUP2 DUP6 PUSH2 0x30E2 JUMP JUMPDEST SWAP4 POP PUSH2 0x3112 DUP2 DUP6 PUSH1 0x20 DUP7 ADD PUSH2 0x2807 JUMP JUMPDEST DUP1 DUP5 ADD SWAP2 POP POP SWAP3 SWAP2 POP POP JUMP JUMPDEST PUSH1 0x0 PUSH2 0x312A DUP3 DUP5 PUSH2 0x30ED JUMP JUMPDEST SWAP2 POP DUP2 SWAP1 POP SWAP3 SWAP2 POP POP JUMP JUMPDEST PUSH32 0x4E487B7100000000000000000000000000000000000000000000000000000000 PUSH1 0x0 MSTORE PUSH1 0x11 PUSH1 0x4 MSTORE PUSH1 0x24 PUSH1 0x0 REVERT JUMPDEST PUSH1 0x0 PUSH2 0x316F DUP3 PUSH2 0x252F JUMP JUMPDEST SWAP2 POP PUSH2 0x317A DUP4 PUSH2 0x252F JUMP JUMPDEST SWAP3 POP DUP3 PUSH32 0xFFFFFFFFFFFFFFFFFFFFFFFFFFFFFFFFFFFFFFFFFFFFFFFFFFFFFFFFFFFFFFFF SUB DUP3 GT ISZERO PUSH2 0x31AF JUMPI PUSH2 0x31AE PUSH2 0x3135 JUMP JUMPDEST JUMPDEST DUP3 DUP3 ADD SWAP1 POP SWAP3 SWAP2 POP POP JUMP INVALID LOG2 PUSH5 0x6970667358 0x22 SLT KECCAK256 GAS 0x5C DIV COINBASE 0xD0 0xFB DUP12 PUSH29 0x44740405588F199839A07E57C1B281DBADDBDF1A1C4D936464736F6C63 NUMBER STOP ADDMOD EXP STOP CALLER "},"gasEstimates":{"creation":{"codeDepositCost":"2556800","executionCost":"infinite","totalCost":"infinite"},"external":{"activateAdmin(address)":"27097","addAdmin(string,string,string,address)":"infinite","admins(address)":"infinite","adminsAdresses(uint256)":"5002","counties(uint256)":"infinite","deactivateAdmin(address)":"27117","editAdmin(string,string,string,address)":"infinite","getAdmin(address)":"infinite","getAdminAddresses()":"infinite","getLandIds()":"infinite","getSuperAdminPassword()":"infinite","landIdsArr(uint256)":"infinite","landIdsMapping(string)":"infinite","landOwners(address)":"2890","landOwnersDetails(address)":"infinite","lands(string)":"infinite","landsCount()":"2452","loginAdmin()":"2652","registerLand(string,string,address,string,address,string)":"infinite","registerLandOwner()":"infinite","superAdminAddress()":"2535","updateLandOwner(string,string,string,string,string,string,string,string)":"infinite"},"internal":{"equal(string memory,string memory)":"infinite"}},"methodIdentifiers":{"activateAdmin(address)":"1af1a768","addAdmin(string,string,string,address)":"cddb61b7","admins(address)":"429b62e5","adminsAdresses(uint256)":"13718c97","counties(uint256)":"2a979f31","deactivateAdmin(address)":"df6fa20e","editAdmin(string,string,string,address)":"1510f0d5","getAdmin(address)":"64efb22b","getAdminAddresses()":"64ddfa29","getLandIds()":"1a994ed8","getSuperAdminPassword()":"2de8f46d","landIdsArr(uint256)":"cbd5121c","landIdsMapping(string)":"c4a0086f","landOwners(address)":"67b57142","landOwnersDetails(address)":"be87bb8a","lands(string)":"b1c8ad0d","landsCount()":"1c9afd0f","loginAdmin()":"8b5c9335","registerLand(string,string,address,string,address,string)":"ade79551","registerLandOwner()":"db9573e1","superAdminAddress()":"045b3034","updateLandOwner(string,string,string,string,string,string,string,string)":"245351c9"}},"storageLayout":{"storage":[{"astId":54,"contract":"LandRegistration.sol:LandRegistration","label":"superAdminAddress","offset":0,"slot":"0","type":"t_address"},{"astId":56,"contract":"LandRegistration.sol:LandRegistration","label":"superAdminPassword","offset":0,"slot":"1","type":"t_string_storage"},{"astId":61,"contract":"LandRegistration.sol:LandRegistration","label":"admins","offset":0,"slot":"2","type":"t_mapping(t_address,t_struct(Admin)12_storage)"},{"astId":65,"contract":"LandRegistration.sol:LandRegistration","label":"addresses","offset":0,"slot":"3","type":"t_mapping(t_address,t_bool)"},{"astId":68,"contract":"LandRegistration.sol:LandRegistration","label":"counties","offset":0,"slot":"4","type":"t_array(t_string_storage)dyn_storage"},{"astId":71,"contract":"LandRegistration.sol:LandRegistration","label":"adminsAdresses","offset":0,"slot":"5","type":"t_array(t_address)dyn_storage"},{"astId":74,"contract":"LandRegistration.sol:LandRegistration","label":"landIdsArr","offset":0,"slot":"6","type":"t_array(t_string_storage)dyn_storage"},{"astId":78,"contract":"LandRegistration.sol:LandRegistration","label":"landIdsMapping","offset":0,"slot":"7","type":"t_mapping(t_string_memory_ptr,t_bool)"},{"astId":83,"contract":"LandRegistration.sol:LandRegistration","label":"lands","offset":0,"slot":"8","type":"t_mapping(t_string_memory_ptr,t_struct(Land)33_storage)"},{"astId":85,"contract":"LandRegistration.sol:LandRegistration","label":"landsCount","offset":0,"slot":"9","type":"t_uint256"},{"astId":89,"contract":"LandRegistration.sol:LandRegistration","label":"landOwners","offset":0,"slot":"10","type":"t_mapping(t_address,t_bool)"},{"astId":94,"contract":"LandRegistration.sol:LandRegistration","label":"landOwnersDetails","offset":0,"slot":"11","type":"t_mapping(t_address,t_struct(LandOwner)52_storage)"}],"types":{"t_address":{"encoding":"inplace","label":"address","numberOfBytes":"20"},"t_array(t_address)dyn_storage":{"base":"t_address","encoding":"dynamic_array","label":"address[]","numberOfBytes":"32"},"t_array(t_string_storage)dyn_storage":{"base":"t_string_storage","encoding":"dynamic_array","label":"string[]","numberOfBytes":"32"},"t_bool":{"encoding":"inplace","label":"bool","numberOfBytes":"1"},"t_mapping(t_address,t_bool)":{"encoding":"mapping","key":"t_address","label":"mapping(address => bool)","numberOfBytes":"32","value":"t_bool"},"t_mapping(t_address,t_struct(Admin)12_storage)":{"encoding":"mapping","key":"t_address","label":"mapping(address => struct LandRegistration.Admin)","numberOfBytes":"32","value":"t_struct(Admin)12_storage"},"t_mapping(t_address,t_struct(LandOwner)52_storage)":{"encoding":"mapping","key":"t_address","label":"mapping(address => struct LandRegistration.LandOwner)","numberOfBytes":"32","value":"t_struct(LandOwner)52_storage"},"t_mapping(t_string_memory_ptr,t_bool)":{"encoding":"mapping","key":"t_string_memory_ptr","label":"mapping(string => bool)","numberOfBytes":"32","value":"t_bool"},"t_mapping(t_string_memory_ptr,t_struct(Land)33_storage)":{"encoding":"mapping","key":"t_string_memory_ptr","label":"mapping(string => struct LandRegistration.Land)","numberOfBytes":"32","value":"t_struct(Land)33_storage"},"t_string_memory_ptr":{"encoding":"bytes","label":"string","numberOfBytes":"32"},"t_string_storage":{"encoding":"bytes","label":"string","numberOfBytes":"32"},"t_struct(Admin)12_storage":{"encoding":"inplace","label":"struct LandRegistration.Admin","members":[{"astId":3,"contract":"LandRegistration.sol:LandRegistration","label":"firstName","offset":0,"slot":"0","type":"t_string_storage"},{"astId":5,"contract":"LandRegistration.sol:LandRegistration","label":"lastName","offset":0,"slot":"1","type":"t_string_storage"},{"astId":7,"contract":"LandRegistration.sol:LandRegistration","label":"adminAddress","offset":0,"slot":"2","type":"t_address"},{"astId":9,"contract":"LandRegistration.sol:LandRegistration","label":"county","offset":0,"slot":"3","type":"t_string_storage"},{"astId":11,"contract":"LandRegistration.sol:LandRegistration","label":"active","offset":0,"slot":"4","type":"t_bool"}],"numberOfBytes":"160"},"t_struct(Land)33_storage":{"encoding":"inplace","label":"struct LandRegistration.Land","members":[{"astId":14,"contract":"LandRegistration.sol:LandRegistration","label":"county","offset":0,"slot":"0","type":"t_string_storage"},{"astId":16,"contract":"LandRegistration.sol:LandRegistration","label":"location","offset":0,"slot":"1","type":"t_string_storage"},{"astId":18,"contract":"LandRegistration.sol:LandRegistration","label":"surveyNumber","offset":0,"slot":"2","type":"t_string_storage"},{"astId":20,"contract":"LandRegistration.sol:LandRegistration","label":"ownerAddress","offset":0,"slot":"3","type":"t_address"},{"astId":22,"contract":"LandRegistration.sol:LandRegistration","label":"marketValue","offset":0,"slot":"4","type":"t_string_storage"},{"astId":24,"contract":"LandRegistration.sol:LandRegistration","label":"availability","offset":0,"slot":"5","type":"t_bool"},{"astId":26,"contract":"LandRegistration.sol:LandRegistration","label":"requestedForSale","offset":1,"slot":"5","type":"t_bool"},{"astId":28,"contract":"LandRegistration.sol:LandRegistration","label":"requestedByAddress","offset":2,"slot":"5","type":"t_address"},{"astId":30,"contract":"LandRegistration.sol:LandRegistration","label":"landId","offset":0,"slot":"6","type":"t_string_storage"},{"astId":32,"contract":"LandRegistration.sol:LandRegistration","label":"adminAddress","offset":0,"slot":"7","type":"t_address"}],"numberOfBytes":"256"},"t_struct(LandOwner)52_storage":{"encoding":"inplace","label":"struct LandRegistration.LandOwner","members":[{"astId":35,"contract":"LandRegistration.sol:LandRegistration","label":"firstName","offset":0,"slot":"0","type":"t_string_storage"},{"astId":37,"contract":"LandRegistration.sol:LandRegistration","label":"lastName","offset":0,"slot":"1","type":"t_string_storage"},{"astId":39,"contract":"LandRegistration.sol:LandRegistration","label":"middleName","offset":0,"slot":"2","type":"t_string_storage"},{"astId":41,"contract":"LandRegistration.sol:LandRegistration","label":"gender","offset":0,"slot":"3","type":"t_string_storage"},{"astId":43,"contract":"LandRegistration.sol:LandRegistration","label":"email","offset":0,"slot":"4","type":"t_string_storage"},{"astId":45,"contract":"LandRegistration.sol:LandRegistration","label":"phoneNumber","offset":0,"slot":"5","type":"t_string_storage"},{"astId":47,"contract":"LandRegistration.sol:LandRegistration","label":"poBox","offset":0,"slot":"6","type":"t_string_storage"},{"astId":49,"contract":"LandRegistration.sol:LandRegistration","label":"location","offset":0,"slot":"7","type":"t_string_storage"},{"astId":51,"contract":"LandRegistration.sol:LandRegistration","label":"landOwnerAddress","offset":0,"slot":"8","type":"t_address"}],"numberOfBytes":"288"},"t_uint256":{"encoding":"inplace","label":"uint256","numberOfBytes":"32"}}},"userdoc":{"kind":"user","methods":{},"version":1}}