{"abi":[{"inputs":[{"internalType":"string","name":"password","type":"string"}],"stateMutability":"nonpayable","type":"constructor"},{"inputs":[{"internalType":"address","name":"adminAddress","type":"address"}],"name":"activateAdmin","outputs":[],"stateMutability":"nonpayable","type":"function"},{"inputs":[{"internalType":"string","name":"firstName","type":"string"},{"internalType":"string","name":"lastName","type":"string"},{"internalType":"string","name":"county","type":"string"},{"internalType":"address","name":"adminAddress","type":"address"}],"name":"addAdmin","outputs":[],"stateMutability":"nonpayable","type":"function"},{"inputs":[{"internalType":"address","name":"","type":"address"}],"name":"admins","outputs":[{"internalType":"string","name":"firstName","type":"string"},{"internalType":"string","name":"lastName","type":"string"},{"internalType":"address","name":"adminAddress","type":"address"},{"internalType":"string","name":"county","type":"string"},{"internalType":"bool","name":"active","type":"bool"}],"stateMutability":"view","type":"function"},{"inputs":[{"internalType":"uint256","name":"","type":"uint256"}],"name":"adminsAdresses","outputs":[{"internalType":"address","name":"","type":"address"}],"stateMutability":"view","type":"function"},{"inputs":[{"internalType":"uint256","name":"","type":"uint256"}],"name":"counties","outputs":[{"internalType":"string","name":"","type":"string"}],"stateMutability":"view","type":"function"},{"inputs":[{"internalType":"address","name":"adminAddress","type":"address"}],"name":"deactivateAdmin","outputs":[],"stateMutability":"nonpayable","type":"function"},{"inputs":[{"internalType":"string","name":"_firstName","type":"string"},{"internalType":"string","name":"_lastName","type":"string"},{"internalType":"string","name":"_county","type":"string"},{"internalType":"address","name":"_adminAddress","type":"address"}],"name":"editAdmin","outputs":[],"stateMutability":"nonpayable","type":"function"},{"inputs":[{"internalType":"address","name":"adminAddress","type":"address"}],"name":"getAdmin","outputs":[{"components":[{"internalType":"string","name":"firstName","type":"string"},{"internalType":"string","name":"lastName","type":"string"},{"internalType":"address","name":"adminAddress","type":"address"},{"internalType":"string","name":"county","type":"string"},{"internalType":"bool","name":"active","type":"bool"}],"internalType":"struct LandRegistration.Admin","name":"","type":"tuple"}],"stateMutability":"view","type":"function"},{"inputs":[],"name":"getAdminAddresses","outputs":[{"internalType":"address[]","name":"","type":"address[]"}],"stateMutability":"view","type":"function"},{"inputs":[],"name":"getLandIds","outputs":[{"internalType":"string[]","name":"","type":"string[]"}],"stateMutability":"view","type":"function"},{"inputs":[],"name":"getSuperAdminPassword","outputs":[{"internalType":"string","name":"","type":"string"}],"stateMutability":"view","type":"function"},{"inputs":[{"internalType":"uint256","name":"","type":"uint256"}],"name":"landIdsArr","outputs":[{"internalType":"string","name":"","type":"string"}],"stateMutability":"view","type":"function"},{"inputs":[{"internalType":"string","name":"","type":"string"}],"name":"landIdsMapping","outputs":[{"internalType":"bool","name":"","type":"bool"}],"stateMutability":"view","type":"function"},{"inputs":[{"internalType":"address","name":"","type":"address"}],"name":"landOwners","outputs":[{"internalType":"bool","name":"","type":"bool"}],"stateMutability":"view","type":"function"},{"inputs":[{"internalType":"address","name":"","type":"address"}],"name":"landOwnersDetails","outputs":[{"internalType":"string","name":"firstName","type":"string"},{"internalType":"string","name":"lastName","type":"string"},{"internalType":"string","name":"middleName","type":"string"},{"internalType":"string","name":"gender","type":"string"},{"internalType":"string","name":"email","type":"string"},{"internalType":"string","name":"phoneNumber","type":"string"},{"internalType":"string","name":"poBox","type":"string"},{"internalType":"string","name":"location","type":"string"},{"internalType":"address","name":"landOwnerAddress","type":"address"}],"stateMutability":"view","type":"function"},{"inputs":[{"internalType":"string","name":"","type":"string"}],"name":"lands","outputs":[{"internalType":"string","name":"county","type":"string"},{"internalType":"string","name":"location","type":"string"},{"internalType":"string","name":"surveyNumber","type":"string"},{"internalType":"address","name":"ownerAddress","type":"address"},{"internalType":"string","name":"marketValue","type":"string"},{"internalType":"bool","name":"availability","type":"bool"},{"internalType":"bool","name":"requestedForSale","type":"bool"},{"internalType":"address","name":"requestedByAddress","type":"address"},{"internalType":"string","name":"landId","type":"string"},{"internalType":"address","name":"adminAddress","type":"address"}],"stateMutability":"view","type":"function"},{"inputs":[],"name":"landsCount","outputs":[{"internalType":"uint256","name":"","type":"uint256"}],"stateMutability":"view","type":"function"},{"inputs":[],"name":"loginAdmin","outputs":[{"internalType":"bool","name":"","type":"bool"}],"stateMutability":"view","type":"function"},{"inputs":[{"internalType":"string","name":"_landId","type":"string"}],"name":"makeLandAvailable","outputs":[],"stateMutability":"nonpayable","type":"function"},{"inputs":[{"internalType":"string","name":"_landId","type":"string"}],"name":"makeLandUnavailable","outputs":[],"stateMutability":"nonpayable","type":"function"},{"inputs":[{"internalType":"string","name":"_landId","type":"string"}],"name":"makeRequestToBuy","outputs":[],"stateMutability":"nonpayable","type":"function"},{"inputs":[{"internalType":"string","name":"_location","type":"string"},{"internalType":"string","name":"_surveryNumber","type":"string"},{"internalType":"address","name":"_ownerAddress","type":"address"},{"internalType":"string","name":"_marketValue","type":"string"},{"internalType":"address","name":"_adminAddress","type":"address"},{"internalType":"string","name":"_landId","type":"string"}],"name":"registerLand","outputs":[],"stateMutability":"nonpayable","type":"function"},{"inputs":[],"name":"registerLandOwner","outputs":[{"internalType":"bool","name":"","type":"bool"}],"stateMutability":"nonpayable","type":"function"},{"inputs":[],"name":"superAdminAddress","outputs":[{"internalType":"address","name":"","type":"address"}],"stateMutability":"view","type":"function"},{"inputs":[{"internalType":"string","name":"_firstName","type":"string"},{"internalType":"string","name":"_lastName","type":"string"},{"internalType":"string","name":"_middleName","type":"string"},{"internalType":"string","name":"_gender","type":"string"},{"internalType":"string","name":"_email","type":"string"},{"internalType":"string","name":"_phoneNumber","type":"string"},{"internalType":"string","name":"_poBox","type":"string"},{"internalType":"string","name":"_location","type":"string"}],"name":"updateLandOwner","outputs":[],"stateMutability":"nonpayable","type":"function"}],"devdoc":{"kind":"dev","methods":{},"version":1},"evm":{"assembly":"    /* \"LandRegistration.sol\":61:6509  contract LandRegistration {... */\n  mstore(0x40, 0x80)\n    /* \"LandRegistration.sol\":1316:1462  constructor(string memory password) {... */\n  callvalue\n  dup1\n  iszero\n  tag_1\n  jumpi\n  0x00\n  dup1\n  revert\ntag_1:\n  pop\n  mload(0x40)\n  sub(codesize, bytecodeSize)\n  dup1\n  bytecodeSize\n  dup4\n  codecopy\n  dup2\n  dup2\n  add\n  0x40\n  mstore\n  dup2\n  add\n  swap1\n  tag_2\n  swap2\n  swap1\n  tag_3\n  jump\t// in\ntag_2:\n    /* \"LandRegistration.sol\":1383:1391  password */\n  dup1\n    /* \"LandRegistration.sol\":1362:1380  superAdminPassword */\n  0x01\n    /* \"LandRegistration.sol\":1362:1391  superAdminPassword = password */\n  swap1\n  dup1\n  mload\n  swap1\n  0x20\n  add\n  swap1\n  tag_6\n  swap3\n  swap2\n  swap1\n  tag_7\n  jump\t// in\ntag_6:\n  pop\n    /* \"LandRegistration.sol\":1421:1431  msg.sender */\n  caller\n    /* \"LandRegistration.sol\":1401:1418  superAdminAddress */\n  0x00\n  dup1\n    /* \"LandRegistration.sol\":1401:1431  superAdminAddress = msg.sender */\n  0x0100\n  exp\n  dup2\n  sload\n  dup2\n  0xffffffffffffffffffffffffffffffffffffffff\n  mul\n  not\n  and\n  swap1\n  dup4\n  0xffffffffffffffffffffffffffffffffffffffff\n  and\n  mul\n  or\n  swap1\n  sstore\n  pop\n    /* \"LandRegistration.sol\":1454:1455  0 */\n  0x00\n    /* \"LandRegistration.sol\":1441:1451  landsCount */\n  0x09\n    /* \"LandRegistration.sol\":1441:1455  landsCount = 0 */\n  dup2\n  swap1\n  sstore\n  pop\n    /* \"LandRegistration.sol\":1316:1462  constructor(string memory password) {... */\n  pop\n    /* \"LandRegistration.sol\":61:6509  contract LandRegistration {... */\n  jump(tag_8)\ntag_7:\n  dup3\n  dup1\n  sload\n  tag_9\n  swap1\n  tag_10\n  jump\t// in\ntag_9:\n  swap1\n  0x00\n  mstore\n  keccak256(0x00, 0x20)\n  swap1\n  0x1f\n  add\n  0x20\n  swap1\n  div\n  dup2\n  add\n  swap3\n  dup3\n  tag_12\n  jumpi\n  0x00\n  dup6\n  sstore\n  jump(tag_11)\ntag_12:\n  dup3\n  0x1f\n  lt\n  tag_13\n  jumpi\n  dup1\n  mload\n  not(0xff)\n  and\n  dup4\n  dup1\n  add\n  or\n  dup6\n  sstore\n  jump(tag_11)\ntag_13:\n  dup3\n  dup1\n  add\n  0x01\n  add\n  dup6\n  sstore\n  dup3\n  iszero\n  tag_11\n  jumpi\n  swap2\n  dup3\n  add\ntag_14:\n  dup3\n  dup2\n  gt\n  iszero\n  tag_15\n  jumpi\n  dup3\n  mload\n  dup3\n  sstore\n  swap2\n  0x20\n  add\n  swap2\n  swap1\n  0x01\n  add\n  swap1\n  jump(tag_14)\ntag_15:\ntag_11:\n  pop\n  swap1\n  pop\n  tag_16\n  swap2\n  swap1\n  tag_17\n  jump\t// in\ntag_16:\n  pop\n  swap1\n  jump\t// out\ntag_17:\ntag_18:\n  dup1\n  dup3\n  gt\n  iszero\n  tag_19\n  jumpi\n  0x00\n  dup2\n  0x00\n  swap1\n  sstore\n  pop\n  0x01\n  add\n  jump(tag_18)\ntag_19:\n  pop\n  swap1\n  jump\t// out\n    /* \"#utility.yul\":7:82   */\ntag_20:\n    /* \"#utility.yul\":40:46   */\n  0x00\n    /* \"#utility.yul\":73:75   */\n  0x40\n    /* \"#utility.yul\":67:76   */\n  mload\n    /* \"#utility.yul\":57:76   */\n  swap1\n  pop\n    /* \"#utility.yul\":7:82   */\n  swap1\n  jump\t// out\n    /* \"#utility.yul\":88:205   */\ntag_21:\n    /* \"#utility.yul\":197:198   */\n  0x00\n    /* \"#utility.yul\":194:195   */\n  dup1\n    /* \"#utility.yul\":187:199   */\n  revert\n    /* \"#utility.yul\":211:328   */\ntag_22:\n    /* \"#utility.yul\":320:321   */\n  0x00\n    /* \"#utility.yul\":317:318   */\n  dup1\n    /* \"#utility.yul\":310:322   */\n  revert\n    /* \"#utility.yul\":334:451   */\ntag_23:\n    /* \"#utility.yul\":443:444   */\n  0x00\n    /* \"#utility.yul\":440:441   */\n  dup1\n    /* \"#utility.yul\":433:445   */\n  revert\n    /* \"#utility.yul\":457:574   */\ntag_24:\n    /* \"#utility.yul\":566:567   */\n  0x00\n    /* \"#utility.yul\":563:564   */\n  dup1\n    /* \"#utility.yul\":556:568   */\n  revert\n    /* \"#utility.yul\":580:682   */\ntag_25:\n    /* \"#utility.yul\":621:627   */\n  0x00\n    /* \"#utility.yul\":672:674   */\n  0x1f\n    /* \"#utility.yul\":668:675   */\n  not\n    /* \"#utility.yul\":663:665   */\n  0x1f\n    /* \"#utility.yul\":656:661   */\n  dup4\n    /* \"#utility.yul\":652:666   */\n  add\n    /* \"#utility.yul\":648:676   */\n  and\n    /* \"#utility.yul\":638:676   */\n  swap1\n  pop\n    /* \"#utility.yul\":580:682   */\n  swap2\n  swap1\n  pop\n  jump\t// out\n    /* \"#utility.yul\":688:868   */\ntag_26:\n    /* \"#utility.yul\":736:813   */\n  0x4e487b7100000000000000000000000000000000000000000000000000000000\n    /* \"#utility.yul\":733:734   */\n  0x00\n    /* \"#utility.yul\":726:814   */\n  mstore\n    /* \"#utility.yul\":833:837   */\n  0x41\n    /* \"#utility.yul\":830:831   */\n  0x04\n    /* \"#utility.yul\":823:838   */\n  mstore\n    /* \"#utility.yul\":857:861   */\n  0x24\n    /* \"#utility.yul\":854:855   */\n  0x00\n    /* \"#utility.yul\":847:862   */\n  revert\n    /* \"#utility.yul\":874:1155   */\ntag_27:\n    /* \"#utility.yul\":957:984   */\n  tag_43\n    /* \"#utility.yul\":979:983   */\n  dup3\n    /* \"#utility.yul\":957:984   */\n  tag_25\n  jump\t// in\ntag_43:\n    /* \"#utility.yul\":949:955   */\n  dup2\n    /* \"#utility.yul\":945:985   */\n  add\n    /* \"#utility.yul\":1087:1093   */\n  dup2\n    /* \"#utility.yul\":1075:1085   */\n  dup2\n    /* \"#utility.yul\":1072:1094   */\n  lt\n    /* \"#utility.yul\":1051:1069   */\n  0xffffffffffffffff\n    /* \"#utility.yul\":1039:1049   */\n  dup3\n    /* \"#utility.yul\":1036:1070   */\n  gt\n    /* \"#utility.yul\":1033:1095   */\n  or\n    /* \"#utility.yul\":1030:1118   */\n  iszero\n  tag_44\n  jumpi\n    /* \"#utility.yul\":1098:1116   */\n  tag_45\n  tag_26\n  jump\t// in\ntag_45:\n    /* \"#utility.yul\":1030:1118   */\ntag_44:\n    /* \"#utility.yul\":1138:1148   */\n  dup1\n    /* \"#utility.yul\":1134:1136   */\n  0x40\n    /* \"#utility.yul\":1127:1149   */\n  mstore\n    /* \"#utility.yul\":917:1155   */\n  pop\n    /* \"#utility.yul\":874:1155   */\n  pop\n  pop\n  jump\t// out\n    /* \"#utility.yul\":1161:1290   */\ntag_28:\n    /* \"#utility.yul\":1195:1201   */\n  0x00\n    /* \"#utility.yul\":1222:1242   */\n  tag_47\n  tag_20\n  jump\t// in\ntag_47:\n    /* \"#utility.yul\":1212:1242   */\n  swap1\n  pop\n    /* \"#utility.yul\":1251:1284   */\n  tag_48\n    /* \"#utility.yul\":1279:1283   */\n  dup3\n    /* \"#utility.yul\":1271:1277   */\n  dup3\n    /* \"#utility.yul\":1251:1284   */\n  tag_27\n  jump\t// in\ntag_48:\n    /* \"#utility.yul\":1161:1290   */\n  swap2\n  swap1\n  pop\n  jump\t// out\n    /* \"#utility.yul\":1296:1604   */\ntag_29:\n    /* \"#utility.yul\":1358:1362   */\n  0x00\n    /* \"#utility.yul\":1448:1466   */\n  0xffffffffffffffff\n    /* \"#utility.yul\":1440:1446   */\n  dup3\n    /* \"#utility.yul\":1437:1467   */\n  gt\n    /* \"#utility.yul\":1434:1490   */\n  iszero\n  tag_50\n  jumpi\n    /* \"#utility.yul\":1470:1488   */\n  tag_51\n  tag_26\n  jump\t// in\ntag_51:\n    /* \"#utility.yul\":1434:1490   */\ntag_50:\n    /* \"#utility.yul\":1508:1537   */\n  tag_52\n    /* \"#utility.yul\":1530:1536   */\n  dup3\n    /* \"#utility.yul\":1508:1537   */\n  tag_25\n  jump\t// in\ntag_52:\n    /* \"#utility.yul\":1500:1537   */\n  swap1\n  pop\n    /* \"#utility.yul\":1592:1596   */\n  0x20\n    /* \"#utility.yul\":1586:1590   */\n  dup2\n    /* \"#utility.yul\":1582:1597   */\n  add\n    /* \"#utility.yul\":1574:1597   */\n  swap1\n  pop\n    /* \"#utility.yul\":1296:1604   */\n  swap2\n  swap1\n  pop\n  jump\t// out\n    /* \"#utility.yul\":1610:1917   */\ntag_30:\n    /* \"#utility.yul\":1678:1679   */\n  0x00\n    /* \"#utility.yul\":1688:1801   */\ntag_54:\n    /* \"#utility.yul\":1702:1708   */\n  dup4\n    /* \"#utility.yul\":1699:1700   */\n  dup2\n    /* \"#utility.yul\":1696:1709   */\n  lt\n    /* \"#utility.yul\":1688:1801   */\n  iszero\n  tag_56\n  jumpi\n    /* \"#utility.yul\":1787:1788   */\n  dup1\n    /* \"#utility.yul\":1782:1785   */\n  dup3\n    /* \"#utility.yul\":1778:1789   */\n  add\n    /* \"#utility.yul\":1772:1790   */\n  mload\n    /* \"#utility.yul\":1768:1769   */\n  dup2\n    /* \"#utility.yul\":1763:1766   */\n  dup5\n    /* \"#utility.yul\":1759:1770   */\n  add\n    /* \"#utility.yul\":1752:1791   */\n  mstore\n    /* \"#utility.yul\":1724:1726   */\n  0x20\n    /* \"#utility.yul\":1721:1722   */\n  dup2\n    /* \"#utility.yul\":1717:1727   */\n  add\n    /* \"#utility.yul\":1712:1727   */\n  swap1\n  pop\n    /* \"#utility.yul\":1688:1801   */\n  jump(tag_54)\ntag_56:\n    /* \"#utility.yul\":1819:1825   */\n  dup4\n    /* \"#utility.yul\":1816:1817   */\n  dup2\n    /* \"#utility.yul\":1813:1826   */\n  gt\n    /* \"#utility.yul\":1810:1911   */\n  iszero\n  tag_57\n  jumpi\n    /* \"#utility.yul\":1899:1900   */\n  0x00\n    /* \"#utility.yul\":1890:1896   */\n  dup5\n    /* \"#utility.yul\":1885:1888   */\n  dup5\n    /* \"#utility.yul\":1881:1897   */\n  add\n    /* \"#utility.yul\":1874:1901   */\n  mstore\n    /* \"#utility.yul\":1810:1911   */\ntag_57:\n    /* \"#utility.yul\":1659:1917   */\n  pop\n    /* \"#utility.yul\":1610:1917   */\n  pop\n  pop\n  pop\n  jump\t// out\n    /* \"#utility.yul\":1923:2344   */\ntag_31:\n    /* \"#utility.yul\":2012:2017   */\n  0x00\n    /* \"#utility.yul\":2037:2103   */\n  tag_59\n    /* \"#utility.yul\":2053:2102   */\n  tag_60\n    /* \"#utility.yul\":2095:2101   */\n  dup5\n    /* \"#utility.yul\":2053:2102   */\n  tag_29\n  jump\t// in\ntag_60:\n    /* \"#utility.yul\":2037:2103   */\n  tag_28\n  jump\t// in\ntag_59:\n    /* \"#utility.yul\":2028:2103   */\n  swap1\n  pop\n    /* \"#utility.yul\":2126:2132   */\n  dup3\n    /* \"#utility.yul\":2119:2124   */\n  dup2\n    /* \"#utility.yul\":2112:2133   */\n  mstore\n    /* \"#utility.yul\":2164:2168   */\n  0x20\n    /* \"#utility.yul\":2157:2162   */\n  dup2\n    /* \"#utility.yul\":2153:2169   */\n  add\n    /* \"#utility.yul\":2202:2205   */\n  dup5\n    /* \"#utility.yul\":2193:2199   */\n  dup5\n    /* \"#utility.yul\":2188:2191   */\n  dup5\n    /* \"#utility.yul\":2184:2200   */\n  add\n    /* \"#utility.yul\":2181:2206   */\n  gt\n    /* \"#utility.yul\":2178:2290   */\n  iszero\n  tag_61\n  jumpi\n    /* \"#utility.yul\":2209:2288   */\n  tag_62\n  tag_24\n  jump\t// in\ntag_62:\n    /* \"#utility.yul\":2178:2290   */\ntag_61:\n    /* \"#utility.yul\":2299:2338   */\n  tag_63\n    /* \"#utility.yul\":2331:2337   */\n  dup5\n    /* \"#utility.yul\":2326:2329   */\n  dup3\n    /* \"#utility.yul\":2321:2324   */\n  dup6\n    /* \"#utility.yul\":2299:2338   */\n  tag_30\n  jump\t// in\ntag_63:\n    /* \"#utility.yul\":2018:2344   */\n  pop\n    /* \"#utility.yul\":1923:2344   */\n  swap4\n  swap3\n  pop\n  pop\n  pop\n  jump\t// out\n    /* \"#utility.yul\":2364:2719   */\ntag_32:\n    /* \"#utility.yul\":2431:2436   */\n  0x00\n    /* \"#utility.yul\":2480:2483   */\n  dup3\n    /* \"#utility.yul\":2473:2477   */\n  0x1f\n    /* \"#utility.yul\":2465:2471   */\n  dup4\n    /* \"#utility.yul\":2461:2478   */\n  add\n    /* \"#utility.yul\":2457:2484   */\n  slt\n    /* \"#utility.yul\":2447:2569   */\n  tag_65\n  jumpi\n    /* \"#utility.yul\":2488:2567   */\n  tag_66\n  tag_23\n  jump\t// in\ntag_66:\n    /* \"#utility.yul\":2447:2569   */\ntag_65:\n    /* \"#utility.yul\":2598:2604   */\n  dup2\n    /* \"#utility.yul\":2592:2605   */\n  mload\n    /* \"#utility.yul\":2623:2713   */\n  tag_67\n    /* \"#utility.yul\":2709:2712   */\n  dup5\n    /* \"#utility.yul\":2701:2707   */\n  dup3\n    /* \"#utility.yul\":2694:2698   */\n  0x20\n    /* \"#utility.yul\":2686:2692   */\n  dup7\n    /* \"#utility.yul\":2682:2699   */\n  add\n    /* \"#utility.yul\":2623:2713   */\n  tag_31\n  jump\t// in\ntag_67:\n    /* \"#utility.yul\":2614:2713   */\n  swap2\n  pop\n    /* \"#utility.yul\":2437:2719   */\n  pop\n    /* \"#utility.yul\":2364:2719   */\n  swap3\n  swap2\n  pop\n  pop\n  jump\t// out\n    /* \"#utility.yul\":2725:3249   */\ntag_3:\n    /* \"#utility.yul\":2805:2811   */\n  0x00\n    /* \"#utility.yul\":2854:2856   */\n  0x20\n    /* \"#utility.yul\":2842:2851   */\n  dup3\n    /* \"#utility.yul\":2833:2840   */\n  dup5\n    /* \"#utility.yul\":2829:2852   */\n  sub\n    /* \"#utility.yul\":2825:2857   */\n  slt\n    /* \"#utility.yul\":2822:2941   */\n  iszero\n  tag_69\n  jumpi\n    /* \"#utility.yul\":2860:2939   */\n  tag_70\n  tag_21\n  jump\t// in\ntag_70:\n    /* \"#utility.yul\":2822:2941   */\ntag_69:\n    /* \"#utility.yul\":3001:3002   */\n  0x00\n    /* \"#utility.yul\":2990:2999   */\n  dup3\n    /* \"#utility.yul\":2986:3003   */\n  add\n    /* \"#utility.yul\":2980:3004   */\n  mload\n    /* \"#utility.yul\":3031:3049   */\n  0xffffffffffffffff\n    /* \"#utility.yul\":3023:3029   */\n  dup2\n    /* \"#utility.yul\":3020:3050   */\n  gt\n    /* \"#utility.yul\":3017:3134   */\n  iszero\n  tag_71\n  jumpi\n    /* \"#utility.yul\":3053:3132   */\n  tag_72\n  tag_22\n  jump\t// in\ntag_72:\n    /* \"#utility.yul\":3017:3134   */\ntag_71:\n    /* \"#utility.yul\":3158:3232   */\n  tag_73\n    /* \"#utility.yul\":3224:3231   */\n  dup5\n    /* \"#utility.yul\":3215:3221   */\n  dup3\n    /* \"#utility.yul\":3204:3213   */\n  dup6\n    /* \"#utility.yul\":3200:3222   */\n  add\n    /* \"#utility.yul\":3158:3232   */\n  tag_32\n  jump\t// in\ntag_73:\n    /* \"#utility.yul\":3148:3232   */\n  swap2\n  pop\n    /* \"#utility.yul\":2951:3242   */\n  pop\n    /* \"#utility.yul\":2725:3249   */\n  swap3\n  swap2\n  pop\n  pop\n  jump\t// out\n    /* \"#utility.yul\":3255:3435   */\ntag_33:\n    /* \"#utility.yul\":3303:3380   */\n  0x4e487b7100000000000000000000000000000000000000000000000000000000\n    /* \"#utility.yul\":3300:3301   */\n  0x00\n    /* \"#utility.yul\":3293:3381   */\n  mstore\n    /* \"#utility.yul\":3400:3404   */\n  0x22\n    /* \"#utility.yul\":3397:3398   */\n  0x04\n    /* \"#utility.yul\":3390:3405   */\n  mstore\n    /* \"#utility.yul\":3424:3428   */\n  0x24\n    /* \"#utility.yul\":3421:3422   */\n  0x00\n    /* \"#utility.yul\":3414:3429   */\n  revert\n    /* \"#utility.yul\":3441:3761   */\ntag_10:\n    /* \"#utility.yul\":3485:3491   */\n  0x00\n    /* \"#utility.yul\":3522:3523   */\n  0x02\n    /* \"#utility.yul\":3516:3520   */\n  dup3\n    /* \"#utility.yul\":3512:3524   */\n  div\n    /* \"#utility.yul\":3502:3524   */\n  swap1\n  pop\n    /* \"#utility.yul\":3569:3570   */\n  0x01\n    /* \"#utility.yul\":3563:3567   */\n  dup3\n    /* \"#utility.yul\":3559:3571   */\n  and\n    /* \"#utility.yul\":3590:3608   */\n  dup1\n    /* \"#utility.yul\":3580:3661   */\n  tag_76\n  jumpi\n    /* \"#utility.yul\":3646:3650   */\n  0x7f\n    /* \"#utility.yul\":3638:3644   */\n  dup3\n    /* \"#utility.yul\":3634:3651   */\n  and\n    /* \"#utility.yul\":3624:3651   */\n  swap2\n  pop\n    /* \"#utility.yul\":3580:3661   */\ntag_76:\n    /* \"#utility.yul\":3708:3710   */\n  0x20\n    /* \"#utility.yul\":3700:3706   */\n  dup3\n    /* \"#utility.yul\":3697:3711   */\n  lt\n    /* \"#utility.yul\":3677:3695   */\n  dup2\n    /* \"#utility.yul\":3674:3712   */\n  eq\n    /* \"#utility.yul\":3671:3755   */\n  iszero\n  tag_77\n  jumpi\n    /* \"#utility.yul\":3727:3745   */\n  tag_78\n  tag_33\n  jump\t// in\ntag_78:\n    /* \"#utility.yul\":3671:3755   */\ntag_77:\n    /* \"#utility.yul\":3492:3761   */\n  pop\n    /* \"#utility.yul\":3441:3761   */\n  swap2\n  swap1\n  pop\n  jump\t// out\n    /* \"LandRegistration.sol\":61:6509  contract LandRegistration {... */\ntag_8:\n  dataSize(sub_0)\n  dup1\n  dataOffset(sub_0)\n  0x00\n  codecopy\n  0x00\n  return\nstop\n\nsub_0: assembly {\n        /* \"LandRegistration.sol\":61:6509  contract LandRegistration {... */\n      mstore(0x40, 0x80)\n      callvalue\n      dup1\n      iszero\n      tag_1\n      jumpi\n      0x00\n      dup1\n      revert\n    tag_1:\n      pop\n      jumpi(tag_2, lt(calldatasize, 0x04))\n      shr(0xe0, calldataload(0x00))\n      dup1\n      0x64efb22b\n      gt\n      tag_28\n      jumpi\n      dup1\n      0xbe87bb8a\n      gt\n      tag_29\n      jumpi\n      dup1\n      0xcddb61b7\n      gt\n      tag_30\n      jumpi\n      dup1\n      0xcddb61b7\n      eq\n      tag_24\n      jumpi\n      dup1\n      0xd896fc96\n      eq\n      tag_25\n      jumpi\n      dup1\n      0xdb9573e1\n      eq\n      tag_26\n      jumpi\n      dup1\n      0xdf6fa20e\n      eq\n      tag_27\n      jumpi\n      jump(tag_2)\n    tag_30:\n      dup1\n      0xbe87bb8a\n      eq\n      tag_21\n      jumpi\n      dup1\n      0xc4a0086f\n      eq\n      tag_22\n      jumpi\n      dup1\n      0xcbd5121c\n      eq\n      tag_23\n      jumpi\n      jump(tag_2)\n    tag_29:\n      dup1\n      0x64efb22b\n      eq\n      tag_15\n      jumpi\n      dup1\n      0x67b57142\n      eq\n      tag_16\n      jumpi\n      dup1\n      0x8b5c9335\n      eq\n      tag_17\n      jumpi\n      dup1\n      0x935b377b\n      eq\n      tag_18\n      jumpi\n      dup1\n      0xade79551\n      eq\n      tag_19\n      jumpi\n      dup1\n      0xb1c8ad0d\n      eq\n      tag_20\n      jumpi\n      jump(tag_2)\n    tag_28:\n      dup1\n      0x245351c9\n      gt\n      tag_31\n      jumpi\n      dup1\n      0x245351c9\n      eq\n      tag_9\n      jumpi\n      dup1\n      0x2a979f31\n      eq\n      tag_10\n      jumpi\n      dup1\n      0x2de8f46d\n      eq\n      tag_11\n      jumpi\n      dup1\n      0x429b62e5\n      eq\n      tag_12\n      jumpi\n      dup1\n      0x53beb691\n      eq\n      tag_13\n      jumpi\n      dup1\n      0x64ddfa29\n      eq\n      tag_14\n      jumpi\n      jump(tag_2)\n    tag_31:\n      dup1\n      0x045b3034\n      eq\n      tag_3\n      jumpi\n      dup1\n      0x13718c97\n      eq\n      tag_4\n      jumpi\n      dup1\n      0x1510f0d5\n      eq\n      tag_5\n      jumpi\n      dup1\n      0x1a994ed8\n      eq\n      tag_6\n      jumpi\n      dup1\n      0x1af1a768\n      eq\n      tag_7\n      jumpi\n      dup1\n      0x1c9afd0f\n      eq\n      tag_8\n      jumpi\n    tag_2:\n      0x00\n      dup1\n      revert\n        /* \"LandRegistration.sol\":817:849  address public superAdminAddress */\n    tag_3:\n      tag_32\n      tag_33\n      jump\t// in\n    tag_32:\n      mload(0x40)\n      tag_34\n      swap2\n      swap1\n      tag_35\n      jump\t// in\n    tag_34:\n      mload(0x40)\n      dup1\n      swap2\n      sub\n      swap1\n      return\n        /* \"LandRegistration.sol\":1004:1036  address [] public adminsAdresses */\n    tag_4:\n      tag_36\n      0x04\n      dup1\n      calldatasize\n      sub\n      dup2\n      add\n      swap1\n      tag_37\n      swap2\n      swap1\n      tag_38\n      jump\t// in\n    tag_37:\n      tag_39\n      jump\t// in\n    tag_36:\n      mload(0x40)\n      tag_40\n      swap2\n      swap1\n      tag_35\n      jump\t// in\n    tag_40:\n      mload(0x40)\n      dup1\n      swap2\n      sub\n      swap1\n      return\n        /* \"LandRegistration.sol\":3092:3426  function editAdmin(string memory _firstName, string memory _lastName, string memory _county, address _adminAddress) public restrictToSuperAdmin {... */\n    tag_5:\n      tag_41\n      0x04\n      dup1\n      calldatasize\n      sub\n      dup2\n      add\n      swap1\n      tag_42\n      swap2\n      swap1\n      tag_43\n      jump\t// in\n    tag_42:\n      tag_44\n      jump\t// in\n    tag_41:\n      stop\n        /* \"LandRegistration.sol\":3529:3639  function getLandIds() public view restrictToAdmin returns(string [] memory) {... */\n    tag_6:\n      tag_45\n      tag_46\n      jump\t// in\n    tag_45:\n      mload(0x40)\n      tag_47\n      swap2\n      swap1\n      tag_48\n      jump\t// in\n    tag_47:\n      mload(0x40)\n      dup1\n      swap2\n      sub\n      swap1\n      return\n        /* \"LandRegistration.sol\":2829:2953  function activateAdmin(address adminAddress) public restrictToSuperAdmin {... */\n    tag_7:\n      tag_49\n      0x04\n      dup1\n      calldatasize\n      sub\n      dup2\n      add\n      swap1\n      tag_50\n      swap2\n      swap1\n      tag_51\n      jump\t// in\n    tag_50:\n      tag_52\n      jump\t// in\n    tag_49:\n      stop\n        /* \"LandRegistration.sol\":1170:1195  uint256 public landsCount */\n    tag_8:\n      tag_53\n      tag_54\n      jump\t// in\n    tag_53:\n      mload(0x40)\n      tag_55\n      swap2\n      swap1\n      tag_56\n      jump\t// in\n    tag_55:\n      mload(0x40)\n      dup1\n      swap2\n      sub\n      swap1\n      return\n        /* \"LandRegistration.sol\":5210:5886  function updateLandOwner(string memory _firstName, string memory _lastName, string memory _middleName, string memory _gender, string memory _email, string memory _phoneNumber, string memory _poBox, string memory _location) public {... */\n    tag_9:\n      tag_57\n      0x04\n      dup1\n      calldatasize\n      sub\n      dup2\n      add\n      swap1\n      tag_58\n      swap2\n      swap1\n      tag_59\n      jump\t// in\n    tag_58:\n      tag_60\n      jump\t// in\n    tag_57:\n      stop\n        /* \"LandRegistration.sol\":973:998  string [] public counties */\n    tag_10:\n      tag_61\n      0x04\n      dup1\n      calldatasize\n      sub\n      dup2\n      add\n      swap1\n      tag_62\n      swap2\n      swap1\n      tag_38\n      jump\t// in\n    tag_62:\n      tag_63\n      jump\t// in\n    tag_61:\n      mload(0x40)\n      tag_64\n      swap2\n      swap1\n      tag_65\n      jump\t// in\n    tag_64:\n      mload(0x40)\n      dup1\n      swap2\n      sub\n      swap1\n      return\n        /* \"LandRegistration.sol\":1813:1944  function getSuperAdminPassword() public view restrictToSuperAdmin returns(string memory) {... */\n    tag_11:\n      tag_66\n      tag_67\n      jump\t// in\n    tag_66:\n      mload(0x40)\n      tag_68\n      swap2\n      swap1\n      tag_65\n      jump\t// in\n    tag_68:\n      mload(0x40)\n      dup1\n      swap2\n      sub\n      swap1\n      return\n        /* \"LandRegistration.sol\":886:926  mapping (address => Admin) public admins */\n    tag_12:\n      tag_69\n      0x04\n      dup1\n      calldatasize\n      sub\n      dup2\n      add\n      swap1\n      tag_70\n      swap2\n      swap1\n      tag_51\n      jump\t// in\n    tag_70:\n      tag_71\n      jump\t// in\n    tag_69:\n      mload(0x40)\n      tag_72\n      swap6\n      swap5\n      swap4\n      swap3\n      swap2\n      swap1\n      tag_73\n      jump\t// in\n    tag_72:\n      mload(0x40)\n      dup1\n      swap2\n      sub\n      swap1\n      return\n        /* \"LandRegistration.sol\":6298:6507  function makeRequestToBuy(string memory _landId) public {... */\n    tag_13:\n      tag_74\n      0x04\n      dup1\n      calldatasize\n      sub\n      dup2\n      add\n      swap1\n      tag_75\n      swap2\n      swap1\n      tag_76\n      jump\t// in\n    tag_75:\n      tag_77\n      jump\t// in\n    tag_74:\n      stop\n        /* \"LandRegistration.sol\":2959:3086  function getAdminAddresses() public view restrictToSuperAdmin returns(address [] memory) {... */\n    tag_14:\n      tag_78\n      tag_79\n      jump\t// in\n    tag_78:\n      mload(0x40)\n      tag_80\n      swap2\n      swap1\n      tag_81\n      jump\t// in\n    tag_80:\n      mload(0x40)\n      dup1\n      swap2\n      sub\n      swap1\n      return\n        /* \"LandRegistration.sol\":2543:2682  function getAdmin(address adminAddress) public view restrictToSuperAdmin returns(Admin memory) {... */\n    tag_15:\n      tag_82\n      0x04\n      dup1\n      calldatasize\n      sub\n      dup2\n      add\n      swap1\n      tag_83\n      swap2\n      swap1\n      tag_51\n      jump\t// in\n    tag_83:\n      tag_84\n      jump\t// in\n    tag_82:\n      mload(0x40)\n      tag_85\n      swap2\n      swap1\n      tag_86\n      jump\t// in\n    tag_85:\n      mload(0x40)\n      dup1\n      swap2\n      sub\n      swap1\n      return\n        /* \"LandRegistration.sol\":1201:1244  mapping (address => bool) public landOwners */\n    tag_16:\n      tag_87\n      0x04\n      dup1\n      calldatasize\n      sub\n      dup2\n      add\n      swap1\n      tag_88\n      swap2\n      swap1\n      tag_51\n      jump\t// in\n    tag_88:\n      tag_89\n      jump\t// in\n    tag_87:\n      mload(0x40)\n      tag_90\n      swap2\n      swap1\n      tag_91\n      jump\t// in\n    tag_90:\n      mload(0x40)\n      dup1\n      swap2\n      sub\n      swap1\n      return\n        /* \"LandRegistration.sol\":3432:3523  function loginAdmin() public view restrictToAdmin returns(bool){... */\n    tag_17:\n      tag_92\n      tag_93\n      jump\t// in\n    tag_92:\n      mload(0x40)\n      tag_94\n      swap2\n      swap1\n      tag_91\n      jump\t// in\n    tag_94:\n      mload(0x40)\n      dup1\n      swap2\n      sub\n      swap1\n      return\n        /* \"LandRegistration.sol\":5919:6073  function makeLandAvailable(string memory _landId) public {... */\n    tag_18:\n      tag_95\n      0x04\n      dup1\n      calldatasize\n      sub\n      dup2\n      add\n      swap1\n      tag_96\n      swap2\n      swap1\n      tag_76\n      jump\t// in\n    tag_96:\n      tag_97\n      jump\t// in\n    tag_95:\n      stop\n        /* \"LandRegistration.sol\":3645:4621  function registerLand(string memory _location, string memory _surveryNumber, address _ownerAddress, string memory _marketValue, address _adminAddress, string memory _landId) public restrictToAdmin {... */\n    tag_19:\n      tag_98\n      0x04\n      dup1\n      calldatasize\n      sub\n      dup2\n      add\n      swap1\n      tag_99\n      swap2\n      swap1\n      tag_100\n      jump\t// in\n    tag_99:\n      tag_101\n      jump\t// in\n    tag_98:\n      stop\n        /* \"LandRegistration.sol\":1127:1164  mapping (string => Land) public lands */\n    tag_20:\n      tag_102\n      0x04\n      dup1\n      calldatasize\n      sub\n      dup2\n      add\n      swap1\n      tag_103\n      swap2\n      swap1\n      tag_76\n      jump\t// in\n    tag_103:\n      tag_104\n      jump\t// in\n    tag_102:\n      mload(0x40)\n      tag_105\n      swap11\n      swap10\n      swap9\n      swap8\n      swap7\n      swap6\n      swap5\n      swap4\n      swap3\n      swap2\n      swap1\n      tag_106\n      jump\t// in\n    tag_105:\n      mload(0x40)\n      dup1\n      swap2\n      sub\n      swap1\n      return\n        /* \"LandRegistration.sol\":1250:1305  mapping (address => LandOwner) public landOwnersDetails */\n    tag_21:\n      tag_107\n      0x04\n      dup1\n      calldatasize\n      sub\n      dup2\n      add\n      swap1\n      tag_108\n      swap2\n      swap1\n      tag_51\n      jump\t// in\n    tag_108:\n      tag_109\n      jump\t// in\n    tag_107:\n      mload(0x40)\n      tag_110\n      swap10\n      swap9\n      swap8\n      swap7\n      swap6\n      swap5\n      swap4\n      swap3\n      swap2\n      swap1\n      tag_111\n      jump\t// in\n    tag_110:\n      mload(0x40)\n      dup1\n      swap2\n      sub\n      swap1\n      return\n        /* \"LandRegistration.sol\":1075:1121  mapping (string => bool) public landIdsMapping */\n    tag_22:\n      tag_112\n      0x04\n      dup1\n      calldatasize\n      sub\n      dup2\n      add\n      swap1\n      tag_113\n      swap2\n      swap1\n      tag_76\n      jump\t// in\n    tag_113:\n      tag_114\n      jump\t// in\n    tag_112:\n      mload(0x40)\n      tag_115\n      swap2\n      swap1\n      tag_91\n      jump\t// in\n    tag_115:\n      mload(0x40)\n      dup1\n      swap2\n      sub\n      swap1\n      return\n        /* \"LandRegistration.sol\":1042:1069  string [] public landIdsArr */\n    tag_23:\n      tag_116\n      0x04\n      dup1\n      calldatasize\n      sub\n      dup2\n      add\n      swap1\n      tag_117\n      swap2\n      swap1\n      tag_38\n      jump\t// in\n    tag_117:\n      tag_118\n      jump\t// in\n    tag_116:\n      mload(0x40)\n      tag_119\n      swap2\n      swap1\n      tag_65\n      jump\t// in\n    tag_119:\n      mload(0x40)\n      dup1\n      swap2\n      sub\n      swap1\n      return\n        /* \"LandRegistration.sol\":1954:2537  function addAdmin(string memory firstName, string memory lastName, string memory county, address adminAddress) public restrictToSuperAdmin {... */\n    tag_24:\n      tag_120\n      0x04\n      dup1\n      calldatasize\n      sub\n      dup2\n      add\n      swap1\n      tag_121\n      swap2\n      swap1\n      tag_43\n      jump\t// in\n    tag_121:\n      tag_122\n      jump\t// in\n    tag_120:\n      stop\n        /* \"LandRegistration.sol\":6108:6265  function makeLandUnavailable(string memory _landId) public {... */\n    tag_25:\n      tag_123\n      0x04\n      dup1\n      calldatasize\n      sub\n      dup2\n      add\n      swap1\n      tag_124\n      swap2\n      swap1\n      tag_76\n      jump\t// in\n    tag_124:\n      tag_125\n      jump\t// in\n    tag_123:\n      stop\n        /* \"LandRegistration.sol\":4627:5204  function registerLandOwner() public returns(bool){... */\n    tag_26:\n      tag_126\n      tag_127\n      jump\t// in\n    tag_126:\n      mload(0x40)\n      tag_128\n      swap2\n      swap1\n      tag_91\n      jump\t// in\n    tag_128:\n      mload(0x40)\n      dup1\n      swap2\n      sub\n      swap1\n      return\n        /* \"LandRegistration.sol\":2692:2819  function deactivateAdmin(address adminAddress) public restrictToSuperAdmin {... */\n    tag_27:\n      tag_129\n      0x04\n      dup1\n      calldatasize\n      sub\n      dup2\n      add\n      swap1\n      tag_130\n      swap2\n      swap1\n      tag_51\n      jump\t// in\n    tag_130:\n      tag_131\n      jump\t// in\n    tag_129:\n      stop\n        /* \"LandRegistration.sol\":817:849  address public superAdminAddress */\n    tag_33:\n      0x00\n      dup1\n      sload\n      swap1\n      0x0100\n      exp\n      swap1\n      div\n      0xffffffffffffffffffffffffffffffffffffffff\n      and\n      dup2\n      jump\t// out\n        /* \"LandRegistration.sol\":1004:1036  address [] public adminsAdresses */\n    tag_39:\n      0x05\n      dup2\n      dup2\n      sload\n      dup2\n      lt\n      tag_132\n      jumpi\n      0x00\n      dup1\n      revert\n    tag_132:\n      swap1\n      0x00\n      mstore\n      keccak256(0x00, 0x20)\n      add\n      0x00\n      swap2\n      pop\n      sload\n      swap1\n      0x0100\n      exp\n      swap1\n      div\n      0xffffffffffffffffffffffffffffffffffffffff\n      and\n      dup2\n      jump\t// out\n        /* \"LandRegistration.sol\":3092:3426  function editAdmin(string memory _firstName, string memory _lastName, string memory _county, address _adminAddress) public restrictToSuperAdmin {... */\n    tag_44:\n        /* \"LandRegistration.sol\":1682:1699  superAdminAddress */\n      0x00\n      dup1\n      sload\n      swap1\n      0x0100\n      exp\n      swap1\n      div\n      0xffffffffffffffffffffffffffffffffffffffff\n      and\n        /* \"LandRegistration.sol\":1668:1699  msg.sender == superAdminAddress */\n      0xffffffffffffffffffffffffffffffffffffffff\n      and\n        /* \"LandRegistration.sol\":1668:1678  msg.sender */\n      caller\n        /* \"LandRegistration.sol\":1668:1699  msg.sender == superAdminAddress */\n      0xffffffffffffffffffffffffffffffffffffffff\n      and\n      eq\n        /* \"LandRegistration.sol\":1660:1700  require(msg.sender == superAdminAddress) */\n      tag_135\n      jumpi\n      0x00\n      dup1\n      revert\n    tag_135:\n        /* \"LandRegistration.sol\":3246:3271  Admin storage adminToEdit */\n      0x00\n        /* \"LandRegistration.sol\":3274:3280  admins */\n      0x02\n        /* \"LandRegistration.sol\":3274:3295  admins[_adminAddress] */\n      0x00\n        /* \"LandRegistration.sol\":3281:3294  _adminAddress */\n      dup4\n        /* \"LandRegistration.sol\":3274:3295  admins[_adminAddress] */\n      0xffffffffffffffffffffffffffffffffffffffff\n      and\n      0xffffffffffffffffffffffffffffffffffffffff\n      and\n      dup2\n      mstore\n      0x20\n      add\n      swap1\n      dup2\n      mstore\n      0x20\n      add\n      0x00\n      keccak256\n        /* \"LandRegistration.sol\":3246:3295  Admin storage adminToEdit = admins[_adminAddress] */\n      swap1\n      pop\n        /* \"LandRegistration.sol\":3329:3339  _firstName */\n      dup5\n        /* \"LandRegistration.sol\":3305:3316  adminToEdit */\n      dup2\n        /* \"LandRegistration.sol\":3305:3326  adminToEdit.firstName */\n      0x00\n      add\n        /* \"LandRegistration.sol\":3305:3339  adminToEdit.firstName = _firstName */\n      swap1\n      dup1\n      mload\n      swap1\n      0x20\n      add\n      swap1\n      tag_137\n      swap3\n      swap2\n      swap1\n      tag_138\n      jump\t// in\n    tag_137:\n      pop\n        /* \"LandRegistration.sol\":3372:3381  _lastName */\n      dup4\n        /* \"LandRegistration.sol\":3349:3360  adminToEdit */\n      dup2\n        /* \"LandRegistration.sol\":3349:3369  adminToEdit.lastName */\n      0x01\n      add\n        /* \"LandRegistration.sol\":3349:3381  adminToEdit.lastName = _lastName */\n      swap1\n      dup1\n      mload\n      swap1\n      0x20\n      add\n      swap1\n      tag_139\n      swap3\n      swap2\n      swap1\n      tag_138\n      jump\t// in\n    tag_139:\n      pop\n        /* \"LandRegistration.sol\":3412:3419  _county */\n      dup3\n        /* \"LandRegistration.sol\":3391:3402  adminToEdit */\n      dup2\n        /* \"LandRegistration.sol\":3391:3409  adminToEdit.county */\n      0x03\n      add\n        /* \"LandRegistration.sol\":3391:3419  adminToEdit.county = _county */\n      swap1\n      dup1\n      mload\n      swap1\n      0x20\n      add\n      swap1\n      tag_140\n      swap3\n      swap2\n      swap1\n      tag_138\n      jump\t// in\n    tag_140:\n      pop\n        /* \"LandRegistration.sol\":3236:3426  {... */\n      pop\n        /* \"LandRegistration.sol\":3092:3426  function editAdmin(string memory _firstName, string memory _lastName, string memory _county, address _adminAddress) public restrictToSuperAdmin {... */\n      pop\n      pop\n      pop\n      pop\n      jump\t// out\n        /* \"LandRegistration.sol\":3529:3639  function getLandIds() public view restrictToAdmin returns(string [] memory) {... */\n    tag_46:\n        /* \"LandRegistration.sol\":3587:3603  string [] memory */\n      0x60\n        /* \"LandRegistration.sol\":1767:1776  addresses */\n      0x03\n        /* \"LandRegistration.sol\":1767:1788  addresses[msg.sender] */\n      0x00\n        /* \"LandRegistration.sol\":1777:1787  msg.sender */\n      caller\n        /* \"LandRegistration.sol\":1767:1788  addresses[msg.sender] */\n      0xffffffffffffffffffffffffffffffffffffffff\n      and\n      0xffffffffffffffffffffffffffffffffffffffff\n      and\n      dup2\n      mstore\n      0x20\n      add\n      swap1\n      dup2\n      mstore\n      0x20\n      add\n      0x00\n      keccak256\n      0x00\n      swap1\n      sload\n      swap1\n      0x0100\n      exp\n      swap1\n      div\n      0xff\n      and\n        /* \"LandRegistration.sol\":1759:1789  require(addresses[msg.sender]) */\n      tag_142\n      jumpi\n      0x00\n      dup1\n      revert\n    tag_142:\n        /* \"LandRegistration.sol\":3622:3632  landIdsArr */\n      0x06\n        /* \"LandRegistration.sol\":3615:3632  return landIdsArr */\n      dup1\n      sload\n      dup1\n      0x20\n      mul\n      0x20\n      add\n      mload(0x40)\n      swap1\n      dup2\n      add\n      0x40\n      mstore\n      dup1\n      swap3\n      swap2\n      swap1\n      dup2\n      dup2\n      mstore\n      0x20\n      add\n      0x00\n      swap1\n    tag_144:\n      dup3\n      dup3\n      lt\n      iszero\n      tag_145\n      jumpi\n      dup4\n      dup3\n      swap1\n      0x00\n      mstore\n      keccak256(0x00, 0x20)\n      add\n      dup1\n      sload\n      tag_147\n      swap1\n      tag_148\n      jump\t// in\n    tag_147:\n      dup1\n      0x1f\n      add\n      0x20\n      dup1\n      swap2\n      div\n      mul\n      0x20\n      add\n      mload(0x40)\n      swap1\n      dup2\n      add\n      0x40\n      mstore\n      dup1\n      swap3\n      swap2\n      swap1\n      dup2\n      dup2\n      mstore\n      0x20\n      add\n      dup3\n      dup1\n      sload\n      tag_149\n      swap1\n      tag_148\n      jump\t// in\n    tag_149:\n      dup1\n      iszero\n      tag_150\n      jumpi\n      dup1\n      0x1f\n      lt\n      tag_151\n      jumpi\n      0x0100\n      dup1\n      dup4\n      sload\n      div\n      mul\n      dup4\n      mstore\n      swap2\n      0x20\n      add\n      swap2\n      jump(tag_150)\n    tag_151:\n      dup3\n      add\n      swap2\n      swap1\n      0x00\n      mstore\n      keccak256(0x00, 0x20)\n      swap1\n    tag_152:\n      dup2\n      sload\n      dup2\n      mstore\n      swap1\n      0x01\n      add\n      swap1\n      0x20\n      add\n      dup1\n      dup4\n      gt\n      tag_152\n      jumpi\n      dup3\n      swap1\n      sub\n      0x1f\n      and\n      dup3\n      add\n      swap2\n    tag_150:\n      pop\n      pop\n      pop\n      pop\n      pop\n      dup2\n      mstore\n      0x20\n      add\n      swap1\n      0x01\n      add\n      swap1\n      jump(tag_144)\n    tag_145:\n      pop\n      pop\n      pop\n      pop\n      swap1\n      pop\n        /* \"LandRegistration.sol\":3529:3639  function getLandIds() public view restrictToAdmin returns(string [] memory) {... */\n      swap1\n      jump\t// out\n        /* \"LandRegistration.sol\":2829:2953  function activateAdmin(address adminAddress) public restrictToSuperAdmin {... */\n    tag_52:\n        /* \"LandRegistration.sol\":1682:1699  superAdminAddress */\n      0x00\n      dup1\n      sload\n      swap1\n      0x0100\n      exp\n      swap1\n      div\n      0xffffffffffffffffffffffffffffffffffffffff\n      and\n        /* \"LandRegistration.sol\":1668:1699  msg.sender == superAdminAddress */\n      0xffffffffffffffffffffffffffffffffffffffff\n      and\n        /* \"LandRegistration.sol\":1668:1678  msg.sender */\n      caller\n        /* \"LandRegistration.sol\":1668:1699  msg.sender == superAdminAddress */\n      0xffffffffffffffffffffffffffffffffffffffff\n      and\n      eq\n        /* \"LandRegistration.sol\":1660:1700  require(msg.sender == superAdminAddress) */\n      tag_154\n      jumpi\n      0x00\n      dup1\n      revert\n    tag_154:\n        /* \"LandRegistration.sol\":2942:2946  true */\n      0x01\n        /* \"LandRegistration.sol\":2912:2918  admins */\n      0x02\n        /* \"LandRegistration.sol\":2912:2932  admins[adminAddress] */\n      0x00\n        /* \"LandRegistration.sol\":2919:2931  adminAddress */\n      dup4\n        /* \"LandRegistration.sol\":2912:2932  admins[adminAddress] */\n      0xffffffffffffffffffffffffffffffffffffffff\n      and\n      0xffffffffffffffffffffffffffffffffffffffff\n      and\n      dup2\n      mstore\n      0x20\n      add\n      swap1\n      dup2\n      mstore\n      0x20\n      add\n      0x00\n      keccak256\n        /* \"LandRegistration.sol\":2912:2939  admins[adminAddress].active */\n      0x04\n      add\n      0x00\n        /* \"LandRegistration.sol\":2912:2946  admins[adminAddress].active = true */\n      0x0100\n      exp\n      dup2\n      sload\n      dup2\n      0xff\n      mul\n      not\n      and\n      swap1\n      dup4\n      iszero\n      iszero\n      mul\n      or\n      swap1\n      sstore\n      pop\n        /* \"LandRegistration.sol\":2829:2953  function activateAdmin(address adminAddress) public restrictToSuperAdmin {... */\n      pop\n      jump\t// out\n        /* \"LandRegistration.sol\":1170:1195  uint256 public landsCount */\n    tag_54:\n      sload(0x09)\n      dup2\n      jump\t// out\n        /* \"LandRegistration.sol\":5210:5886  function updateLandOwner(string memory _firstName, string memory _lastName, string memory _middleName, string memory _gender, string memory _email, string memory _phoneNumber, string memory _poBox, string memory _location) public {... */\n    tag_60:\n        /* \"LandRegistration.sol\":5450:5483  LandOwner storage landOwnerToEdit */\n      0x00\n        /* \"LandRegistration.sol\":5486:5503  landOwnersDetails */\n      0x0b\n        /* \"LandRegistration.sol\":5486:5515  landOwnersDetails[msg.sender] */\n      0x00\n        /* \"LandRegistration.sol\":5504:5514  msg.sender */\n      caller\n        /* \"LandRegistration.sol\":5486:5515  landOwnersDetails[msg.sender] */\n      0xffffffffffffffffffffffffffffffffffffffff\n      and\n      0xffffffffffffffffffffffffffffffffffffffff\n      and\n      dup2\n      mstore\n      0x20\n      add\n      swap1\n      dup2\n      mstore\n      0x20\n      add\n      0x00\n      keccak256\n        /* \"LandRegistration.sol\":5450:5515  LandOwner storage landOwnerToEdit = landOwnersDetails[msg.sender] */\n      swap1\n      pop\n        /* \"LandRegistration.sol\":5553:5563  _firstName */\n      dup9\n        /* \"LandRegistration.sol\":5525:5540  landOwnerToEdit */\n      dup2\n        /* \"LandRegistration.sol\":5525:5550  landOwnerToEdit.firstName */\n      0x00\n      add\n        /* \"LandRegistration.sol\":5525:5563  landOwnerToEdit.firstName = _firstName */\n      swap1\n      dup1\n      mload\n      swap1\n      0x20\n      add\n      swap1\n      tag_157\n      swap3\n      swap2\n      swap1\n      tag_138\n      jump\t// in\n    tag_157:\n      pop\n        /* \"LandRegistration.sol\":5600:5609  _lastName */\n      dup8\n        /* \"LandRegistration.sol\":5573:5588  landOwnerToEdit */\n      dup2\n        /* \"LandRegistration.sol\":5573:5597  landOwnerToEdit.lastName */\n      0x01\n      add\n        /* \"LandRegistration.sol\":5573:5609  landOwnerToEdit.lastName = _lastName */\n      swap1\n      dup1\n      mload\n      swap1\n      0x20\n      add\n      swap1\n      tag_158\n      swap3\n      swap2\n      swap1\n      tag_138\n      jump\t// in\n    tag_158:\n      pop\n        /* \"LandRegistration.sol\":5648:5659  _middleName */\n      dup7\n        /* \"LandRegistration.sol\":5619:5634  landOwnerToEdit */\n      dup2\n        /* \"LandRegistration.sol\":5619:5645  landOwnerToEdit.middleName */\n      0x02\n      add\n        /* \"LandRegistration.sol\":5619:5659  landOwnerToEdit.middleName = _middleName */\n      swap1\n      dup1\n      mload\n      swap1\n      0x20\n      add\n      swap1\n      tag_159\n      swap3\n      swap2\n      swap1\n      tag_138\n      jump\t// in\n    tag_159:\n      pop\n        /* \"LandRegistration.sol\":5694:5701  _gender */\n      dup6\n        /* \"LandRegistration.sol\":5669:5684  landOwnerToEdit */\n      dup2\n        /* \"LandRegistration.sol\":5669:5691  landOwnerToEdit.gender */\n      0x03\n      add\n        /* \"LandRegistration.sol\":5669:5701  landOwnerToEdit.gender = _gender */\n      swap1\n      dup1\n      mload\n      swap1\n      0x20\n      add\n      swap1\n      tag_160\n      swap3\n      swap2\n      swap1\n      tag_138\n      jump\t// in\n    tag_160:\n      pop\n        /* \"LandRegistration.sol\":5735:5741  _email */\n      dup5\n        /* \"LandRegistration.sol\":5711:5726  landOwnerToEdit */\n      dup2\n        /* \"LandRegistration.sol\":5711:5732  landOwnerToEdit.email */\n      0x04\n      add\n        /* \"LandRegistration.sol\":5711:5741  landOwnerToEdit.email = _email */\n      swap1\n      dup1\n      mload\n      swap1\n      0x20\n      add\n      swap1\n      tag_161\n      swap3\n      swap2\n      swap1\n      tag_138\n      jump\t// in\n    tag_161:\n      pop\n        /* \"LandRegistration.sol\":5781:5793  _phoneNumber */\n      dup4\n        /* \"LandRegistration.sol\":5751:5766  landOwnerToEdit */\n      dup2\n        /* \"LandRegistration.sol\":5751:5778  landOwnerToEdit.phoneNumber */\n      0x05\n      add\n        /* \"LandRegistration.sol\":5751:5793  landOwnerToEdit.phoneNumber = _phoneNumber */\n      swap1\n      dup1\n      mload\n      swap1\n      0x20\n      add\n      swap1\n      tag_162\n      swap3\n      swap2\n      swap1\n      tag_138\n      jump\t// in\n    tag_162:\n      pop\n        /* \"LandRegistration.sol\":5827:5833  _poBox */\n      dup3\n        /* \"LandRegistration.sol\":5803:5818  landOwnerToEdit */\n      dup2\n        /* \"LandRegistration.sol\":5803:5824  landOwnerToEdit.poBox */\n      0x06\n      add\n        /* \"LandRegistration.sol\":5803:5833  landOwnerToEdit.poBox = _poBox */\n      swap1\n      dup1\n      mload\n      swap1\n      0x20\n      add\n      swap1\n      tag_163\n      swap3\n      swap2\n      swap1\n      tag_138\n      jump\t// in\n    tag_163:\n      pop\n        /* \"LandRegistration.sol\":5870:5879  _location */\n      dup2\n        /* \"LandRegistration.sol\":5843:5858  landOwnerToEdit */\n      dup2\n        /* \"LandRegistration.sol\":5843:5867  landOwnerToEdit.location */\n      0x07\n      add\n        /* \"LandRegistration.sol\":5843:5879  landOwnerToEdit.location = _location */\n      swap1\n      dup1\n      mload\n      swap1\n      0x20\n      add\n      swap1\n      tag_164\n      swap3\n      swap2\n      swap1\n      tag_138\n      jump\t// in\n    tag_164:\n      pop\n        /* \"LandRegistration.sol\":5440:5886  {... */\n      pop\n        /* \"LandRegistration.sol\":5210:5886  function updateLandOwner(string memory _firstName, string memory _lastName, string memory _middleName, string memory _gender, string memory _email, string memory _phoneNumber, string memory _poBox, string memory _location) public {... */\n      pop\n      pop\n      pop\n      pop\n      pop\n      pop\n      pop\n      pop\n      jump\t// out\n        /* \"LandRegistration.sol\":973:998  string [] public counties */\n    tag_63:\n      0x04\n      dup2\n      dup2\n      sload\n      dup2\n      lt\n      tag_165\n      jumpi\n      0x00\n      dup1\n      revert\n    tag_165:\n      swap1\n      0x00\n      mstore\n      keccak256(0x00, 0x20)\n      add\n      0x00\n      swap2\n      pop\n      swap1\n      pop\n      dup1\n      sload\n      tag_167\n      swap1\n      tag_148\n      jump\t// in\n    tag_167:\n      dup1\n      0x1f\n      add\n      0x20\n      dup1\n      swap2\n      div\n      mul\n      0x20\n      add\n      mload(0x40)\n      swap1\n      dup2\n      add\n      0x40\n      mstore\n      dup1\n      swap3\n      swap2\n      swap1\n      dup2\n      dup2\n      mstore\n      0x20\n      add\n      dup3\n      dup1\n      sload\n      tag_168\n      swap1\n      tag_148\n      jump\t// in\n    tag_168:\n      dup1\n      iszero\n      tag_169\n      jumpi\n      dup1\n      0x1f\n      lt\n      tag_170\n      jumpi\n      0x0100\n      dup1\n      dup4\n      sload\n      div\n      mul\n      dup4\n      mstore\n      swap2\n      0x20\n      add\n      swap2\n      jump(tag_169)\n    tag_170:\n      dup3\n      add\n      swap2\n      swap1\n      0x00\n      mstore\n      keccak256(0x00, 0x20)\n      swap1\n    tag_171:\n      dup2\n      sload\n      dup2\n      mstore\n      swap1\n      0x01\n      add\n      swap1\n      0x20\n      add\n      dup1\n      dup4\n      gt\n      tag_171\n      jumpi\n      dup3\n      swap1\n      sub\n      0x1f\n      and\n      dup3\n      add\n      swap2\n    tag_169:\n      pop\n      pop\n      pop\n      pop\n      pop\n      dup2\n      jump\t// out\n        /* \"LandRegistration.sol\":1813:1944  function getSuperAdminPassword() public view restrictToSuperAdmin returns(string memory) {... */\n    tag_67:\n        /* \"LandRegistration.sol\":1887:1900  string memory */\n      0x60\n        /* \"LandRegistration.sol\":1682:1699  superAdminAddress */\n      0x00\n      dup1\n      sload\n      swap1\n      0x0100\n      exp\n      swap1\n      div\n      0xffffffffffffffffffffffffffffffffffffffff\n      and\n        /* \"LandRegistration.sol\":1668:1699  msg.sender == superAdminAddress */\n      0xffffffffffffffffffffffffffffffffffffffff\n      and\n        /* \"LandRegistration.sol\":1668:1678  msg.sender */\n      caller\n        /* \"LandRegistration.sol\":1668:1699  msg.sender == superAdminAddress */\n      0xffffffffffffffffffffffffffffffffffffffff\n      and\n      eq\n        /* \"LandRegistration.sol\":1660:1700  require(msg.sender == superAdminAddress) */\n      tag_173\n      jumpi\n      0x00\n      dup1\n      revert\n    tag_173:\n        /* \"LandRegistration.sol\":1919:1937  superAdminPassword */\n      0x01\n        /* \"LandRegistration.sol\":1912:1937  return superAdminPassword */\n      dup1\n      sload\n      tag_175\n      swap1\n      tag_148\n      jump\t// in\n    tag_175:\n      dup1\n      0x1f\n      add\n      0x20\n      dup1\n      swap2\n      div\n      mul\n      0x20\n      add\n      mload(0x40)\n      swap1\n      dup2\n      add\n      0x40\n      mstore\n      dup1\n      swap3\n      swap2\n      swap1\n      dup2\n      dup2\n      mstore\n      0x20\n      add\n      dup3\n      dup1\n      sload\n      tag_176\n      swap1\n      tag_148\n      jump\t// in\n    tag_176:\n      dup1\n      iszero\n      tag_177\n      jumpi\n      dup1\n      0x1f\n      lt\n      tag_178\n      jumpi\n      0x0100\n      dup1\n      dup4\n      sload\n      div\n      mul\n      dup4\n      mstore\n      swap2\n      0x20\n      add\n      swap2\n      jump(tag_177)\n    tag_178:\n      dup3\n      add\n      swap2\n      swap1\n      0x00\n      mstore\n      keccak256(0x00, 0x20)\n      swap1\n    tag_179:\n      dup2\n      sload\n      dup2\n      mstore\n      swap1\n      0x01\n      add\n      swap1\n      0x20\n      add\n      dup1\n      dup4\n      gt\n      tag_179\n      jumpi\n      dup3\n      swap1\n      sub\n      0x1f\n      and\n      dup3\n      add\n      swap2\n    tag_177:\n      pop\n      pop\n      pop\n      pop\n      pop\n      swap1\n      pop\n        /* \"LandRegistration.sol\":1813:1944  function getSuperAdminPassword() public view restrictToSuperAdmin returns(string memory) {... */\n      swap1\n      jump\t// out\n        /* \"LandRegistration.sol\":886:926  mapping (address => Admin) public admins */\n    tag_71:\n      mstore(0x20, 0x02)\n      dup1\n      0x00\n      mstore\n      keccak256(0x00, 0x40)\n      0x00\n      swap2\n      pop\n      swap1\n      pop\n      dup1\n      0x00\n      add\n      dup1\n      sload\n      tag_180\n      swap1\n      tag_148\n      jump\t// in\n    tag_180:\n      dup1\n      0x1f\n      add\n      0x20\n      dup1\n      swap2\n      div\n      mul\n      0x20\n      add\n      mload(0x40)\n      swap1\n      dup2\n      add\n      0x40\n      mstore\n      dup1\n      swap3\n      swap2\n      swap1\n      dup2\n      dup2\n      mstore\n      0x20\n      add\n      dup3\n      dup1\n      sload\n      tag_181\n      swap1\n      tag_148\n      jump\t// in\n    tag_181:\n      dup1\n      iszero\n      tag_182\n      jumpi\n      dup1\n      0x1f\n      lt\n      tag_183\n      jumpi\n      0x0100\n      dup1\n      dup4\n      sload\n      div\n      mul\n      dup4\n      mstore\n      swap2\n      0x20\n      add\n      swap2\n      jump(tag_182)\n    tag_183:\n      dup3\n      add\n      swap2\n      swap1\n      0x00\n      mstore\n      keccak256(0x00, 0x20)\n      swap1\n    tag_184:\n      dup2\n      sload\n      dup2\n      mstore\n      swap1\n      0x01\n      add\n      swap1\n      0x20\n      add\n      dup1\n      dup4\n      gt\n      tag_184\n      jumpi\n      dup3\n      swap1\n      sub\n      0x1f\n      and\n      dup3\n      add\n      swap2\n    tag_182:\n      pop\n      pop\n      pop\n      pop\n      pop\n      swap1\n      dup1\n      0x01\n      add\n      dup1\n      sload\n      tag_185\n      swap1\n      tag_148\n      jump\t// in\n    tag_185:\n      dup1\n      0x1f\n      add\n      0x20\n      dup1\n      swap2\n      div\n      mul\n      0x20\n      add\n      mload(0x40)\n      swap1\n      dup2\n      add\n      0x40\n      mstore\n      dup1\n      swap3\n      swap2\n      swap1\n      dup2\n      dup2\n      mstore\n      0x20\n      add\n      dup3\n      dup1\n      sload\n      tag_186\n      swap1\n      tag_148\n      jump\t// in\n    tag_186:\n      dup1\n      iszero\n      tag_187\n      jumpi\n      dup1\n      0x1f\n      lt\n      tag_188\n      jumpi\n      0x0100\n      dup1\n      dup4\n      sload\n      div\n      mul\n      dup4\n      mstore\n      swap2\n      0x20\n      add\n      swap2\n      jump(tag_187)\n    tag_188:\n      dup3\n      add\n      swap2\n      swap1\n      0x00\n      mstore\n      keccak256(0x00, 0x20)\n      swap1\n    tag_189:\n      dup2\n      sload\n      dup2\n      mstore\n      swap1\n      0x01\n      add\n      swap1\n      0x20\n      add\n      dup1\n      dup4\n      gt\n      tag_189\n      jumpi\n      dup3\n      swap1\n      sub\n      0x1f\n      and\n      dup3\n      add\n      swap2\n    tag_187:\n      pop\n      pop\n      pop\n      pop\n      pop\n      swap1\n      dup1\n      0x02\n      add\n      0x00\n      swap1\n      sload\n      swap1\n      0x0100\n      exp\n      swap1\n      div\n      0xffffffffffffffffffffffffffffffffffffffff\n      and\n      swap1\n      dup1\n      0x03\n      add\n      dup1\n      sload\n      tag_190\n      swap1\n      tag_148\n      jump\t// in\n    tag_190:\n      dup1\n      0x1f\n      add\n      0x20\n      dup1\n      swap2\n      div\n      mul\n      0x20\n      add\n      mload(0x40)\n      swap1\n      dup2\n      add\n      0x40\n      mstore\n      dup1\n      swap3\n      swap2\n      swap1\n      dup2\n      dup2\n      mstore\n      0x20\n      add\n      dup3\n      dup1\n      sload\n      tag_191\n      swap1\n      tag_148\n      jump\t// in\n    tag_191:\n      dup1\n      iszero\n      tag_192\n      jumpi\n      dup1\n      0x1f\n      lt\n      tag_193\n      jumpi\n      0x0100\n      dup1\n      dup4\n      sload\n      div\n      mul\n      dup4\n      mstore\n      swap2\n      0x20\n      add\n      swap2\n      jump(tag_192)\n    tag_193:\n      dup3\n      add\n      swap2\n      swap1\n      0x00\n      mstore\n      keccak256(0x00, 0x20)\n      swap1\n    tag_194:\n      dup2\n      sload\n      dup2\n      mstore\n      swap1\n      0x01\n      add\n      swap1\n      0x20\n      add\n      dup1\n      dup4\n      gt\n      tag_194\n      jumpi\n      dup3\n      swap1\n      sub\n      0x1f\n      and\n      dup3\n      add\n      swap2\n    tag_192:\n      pop\n      pop\n      pop\n      pop\n      pop\n      swap1\n      dup1\n      0x04\n      add\n      0x00\n      swap1\n      sload\n      swap1\n      0x0100\n      exp\n      swap1\n      div\n      0xff\n      and\n      swap1\n      pop\n      dup6\n      jump\t// out\n        /* \"LandRegistration.sol\":6298:6507  function makeRequestToBuy(string memory _landId) public {... */\n    tag_77:\n        /* \"LandRegistration.sol\":6364:6387  Land storage landToEdit */\n      0x00\n        /* \"LandRegistration.sol\":6390:6395  lands */\n      0x08\n        /* \"LandRegistration.sol\":6396:6403  _landId */\n      dup3\n        /* \"LandRegistration.sol\":6390:6404  lands[_landId] */\n      mload(0x40)\n      tag_196\n      swap2\n      swap1\n      tag_197\n      jump\t// in\n    tag_196:\n      swap1\n      dup2\n      mstore\n      0x20\n      add\n      mload(0x40)\n      dup1\n      swap2\n      sub\n      swap1\n      keccak256\n        /* \"LandRegistration.sol\":6364:6404  Land storage landToEdit = lands[_landId] */\n      swap1\n      pop\n        /* \"LandRegistration.sol\":6444:6448  true */\n      0x01\n        /* \"LandRegistration.sol\":6414:6424  landToEdit */\n      dup2\n        /* \"LandRegistration.sol\":6414:6441  landToEdit.requestedForSale */\n      0x05\n      add\n      0x01\n        /* \"LandRegistration.sol\":6414:6448  landToEdit.requestedForSale = true */\n      0x0100\n      exp\n      dup2\n      sload\n      dup2\n      0xff\n      mul\n      not\n      and\n      swap1\n      dup4\n      iszero\n      iszero\n      mul\n      or\n      swap1\n      sstore\n      pop\n        /* \"LandRegistration.sol\":6490:6500  msg.sender */\n      caller\n        /* \"LandRegistration.sol\":6458:6468  landToEdit */\n      dup2\n        /* \"LandRegistration.sol\":6458:6487  landToEdit.requestedByAddress */\n      0x05\n      add\n      0x02\n        /* \"LandRegistration.sol\":6458:6500  landToEdit.requestedByAddress = msg.sender */\n      0x0100\n      exp\n      dup2\n      sload\n      dup2\n      0xffffffffffffffffffffffffffffffffffffffff\n      mul\n      not\n      and\n      swap1\n      dup4\n      0xffffffffffffffffffffffffffffffffffffffff\n      and\n      mul\n      or\n      swap1\n      sstore\n      pop\n        /* \"LandRegistration.sol\":6354:6507  {... */\n      pop\n        /* \"LandRegistration.sol\":6298:6507  function makeRequestToBuy(string memory _landId) public {... */\n      pop\n      jump\t// out\n        /* \"LandRegistration.sol\":2959:3086  function getAdminAddresses() public view restrictToSuperAdmin returns(address [] memory) {... */\n    tag_79:\n        /* \"LandRegistration.sol\":3029:3046  address [] memory */\n      0x60\n        /* \"LandRegistration.sol\":1682:1699  superAdminAddress */\n      0x00\n      dup1\n      sload\n      swap1\n      0x0100\n      exp\n      swap1\n      div\n      0xffffffffffffffffffffffffffffffffffffffff\n      and\n        /* \"LandRegistration.sol\":1668:1699  msg.sender == superAdminAddress */\n      0xffffffffffffffffffffffffffffffffffffffff\n      and\n        /* \"LandRegistration.sol\":1668:1678  msg.sender */\n      caller\n        /* \"LandRegistration.sol\":1668:1699  msg.sender == superAdminAddress */\n      0xffffffffffffffffffffffffffffffffffffffff\n      and\n      eq\n        /* \"LandRegistration.sol\":1660:1700  require(msg.sender == superAdminAddress) */\n      tag_199\n      jumpi\n      0x00\n      dup1\n      revert\n    tag_199:\n        /* \"LandRegistration.sol\":3065:3079  adminsAdresses */\n      0x05\n        /* \"LandRegistration.sol\":3058:3079  return adminsAdresses */\n      dup1\n      sload\n      dup1\n      0x20\n      mul\n      0x20\n      add\n      mload(0x40)\n      swap1\n      dup2\n      add\n      0x40\n      mstore\n      dup1\n      swap3\n      swap2\n      swap1\n      dup2\n      dup2\n      mstore\n      0x20\n      add\n      dup3\n      dup1\n      sload\n      dup1\n      iszero\n      tag_201\n      jumpi\n      0x20\n      mul\n      dup3\n      add\n      swap2\n      swap1\n      0x00\n      mstore\n      keccak256(0x00, 0x20)\n      swap1\n    tag_202:\n      dup2\n      0x00\n      swap1\n      sload\n      swap1\n      0x0100\n      exp\n      swap1\n      div\n      0xffffffffffffffffffffffffffffffffffffffff\n      and\n      0xffffffffffffffffffffffffffffffffffffffff\n      and\n      dup2\n      mstore\n      0x20\n      add\n      swap1\n      0x01\n      add\n      swap1\n      dup1\n      dup4\n      gt\n      tag_202\n      jumpi\n    tag_201:\n      pop\n      pop\n      pop\n      pop\n      pop\n      swap1\n      pop\n        /* \"LandRegistration.sol\":2959:3086  function getAdminAddresses() public view restrictToSuperAdmin returns(address [] memory) {... */\n      swap1\n      jump\t// out\n        /* \"LandRegistration.sol\":2543:2682  function getAdmin(address adminAddress) public view restrictToSuperAdmin returns(Admin memory) {... */\n    tag_84:\n        /* \"LandRegistration.sol\":2624:2636  Admin memory */\n      tag_203\n      tag_204\n      jump\t// in\n    tag_203:\n        /* \"LandRegistration.sol\":1682:1699  superAdminAddress */\n      0x00\n      dup1\n      sload\n      swap1\n      0x0100\n      exp\n      swap1\n      div\n      0xffffffffffffffffffffffffffffffffffffffff\n      and\n        /* \"LandRegistration.sol\":1668:1699  msg.sender == superAdminAddress */\n      0xffffffffffffffffffffffffffffffffffffffff\n      and\n        /* \"LandRegistration.sol\":1668:1678  msg.sender */\n      caller\n        /* \"LandRegistration.sol\":1668:1699  msg.sender == superAdminAddress */\n      0xffffffffffffffffffffffffffffffffffffffff\n      and\n      eq\n        /* \"LandRegistration.sol\":1660:1700  require(msg.sender == superAdminAddress) */\n      tag_206\n      jumpi\n      0x00\n      dup1\n      revert\n    tag_206:\n        /* \"LandRegistration.sol\":2655:2661  admins */\n      0x02\n        /* \"LandRegistration.sol\":2655:2675  admins[adminAddress] */\n      0x00\n        /* \"LandRegistration.sol\":2662:2674  adminAddress */\n      dup4\n        /* \"LandRegistration.sol\":2655:2675  admins[adminAddress] */\n      0xffffffffffffffffffffffffffffffffffffffff\n      and\n      0xffffffffffffffffffffffffffffffffffffffff\n      and\n      dup2\n      mstore\n      0x20\n      add\n      swap1\n      dup2\n      mstore\n      0x20\n      add\n      0x00\n      keccak256\n        /* \"LandRegistration.sol\":2648:2675  return admins[adminAddress] */\n      mload(0x40)\n      dup1\n      0xa0\n      add\n      0x40\n      mstore\n      swap1\n      dup2\n      0x00\n      dup3\n      add\n      dup1\n      sload\n      tag_208\n      swap1\n      tag_148\n      jump\t// in\n    tag_208:\n      dup1\n      0x1f\n      add\n      0x20\n      dup1\n      swap2\n      div\n      mul\n      0x20\n      add\n      mload(0x40)\n      swap1\n      dup2\n      add\n      0x40\n      mstore\n      dup1\n      swap3\n      swap2\n      swap1\n      dup2\n      dup2\n      mstore\n      0x20\n      add\n      dup3\n      dup1\n      sload\n      tag_209\n      swap1\n      tag_148\n      jump\t// in\n    tag_209:\n      dup1\n      iszero\n      tag_210\n      jumpi\n      dup1\n      0x1f\n      lt\n      tag_211\n      jumpi\n      0x0100\n      dup1\n      dup4\n      sload\n      div\n      mul\n      dup4\n      mstore\n      swap2\n      0x20\n      add\n      swap2\n      jump(tag_210)\n    tag_211:\n      dup3\n      add\n      swap2\n      swap1\n      0x00\n      mstore\n      keccak256(0x00, 0x20)\n      swap1\n    tag_212:\n      dup2\n      sload\n      dup2\n      mstore\n      swap1\n      0x01\n      add\n      swap1\n      0x20\n      add\n      dup1\n      dup4\n      gt\n      tag_212\n      jumpi\n      dup3\n      swap1\n      sub\n      0x1f\n      and\n      dup3\n      add\n      swap2\n    tag_210:\n      pop\n      pop\n      pop\n      pop\n      pop\n      dup2\n      mstore\n      0x20\n      add\n      0x01\n      dup3\n      add\n      dup1\n      sload\n      tag_213\n      swap1\n      tag_148\n      jump\t// in\n    tag_213:\n      dup1\n      0x1f\n      add\n      0x20\n      dup1\n      swap2\n      div\n      mul\n      0x20\n      add\n      mload(0x40)\n      swap1\n      dup2\n      add\n      0x40\n      mstore\n      dup1\n      swap3\n      swap2\n      swap1\n      dup2\n      dup2\n      mstore\n      0x20\n      add\n      dup3\n      dup1\n      sload\n      tag_214\n      swap1\n      tag_148\n      jump\t// in\n    tag_214:\n      dup1\n      iszero\n      tag_215\n      jumpi\n      dup1\n      0x1f\n      lt\n      tag_216\n      jumpi\n      0x0100\n      dup1\n      dup4\n      sload\n      div\n      mul\n      dup4\n      mstore\n      swap2\n      0x20\n      add\n      swap2\n      jump(tag_215)\n    tag_216:\n      dup3\n      add\n      swap2\n      swap1\n      0x00\n      mstore\n      keccak256(0x00, 0x20)\n      swap1\n    tag_217:\n      dup2\n      sload\n      dup2\n      mstore\n      swap1\n      0x01\n      add\n      swap1\n      0x20\n      add\n      dup1\n      dup4\n      gt\n      tag_217\n      jumpi\n      dup3\n      swap1\n      sub\n      0x1f\n      and\n      dup3\n      add\n      swap2\n    tag_215:\n      pop\n      pop\n      pop\n      pop\n      pop\n      dup2\n      mstore\n      0x20\n      add\n      0x02\n      dup3\n      add\n      0x00\n      swap1\n      sload\n      swap1\n      0x0100\n      exp\n      swap1\n      div\n      0xffffffffffffffffffffffffffffffffffffffff\n      and\n      0xffffffffffffffffffffffffffffffffffffffff\n      and\n      0xffffffffffffffffffffffffffffffffffffffff\n      and\n      dup2\n      mstore\n      0x20\n      add\n      0x03\n      dup3\n      add\n      dup1\n      sload\n      tag_218\n      swap1\n      tag_148\n      jump\t// in\n    tag_218:\n      dup1\n      0x1f\n      add\n      0x20\n      dup1\n      swap2\n      div\n      mul\n      0x20\n      add\n      mload(0x40)\n      swap1\n      dup2\n      add\n      0x40\n      mstore\n      dup1\n      swap3\n      swap2\n      swap1\n      dup2\n      dup2\n      mstore\n      0x20\n      add\n      dup3\n      dup1\n      sload\n      tag_219\n      swap1\n      tag_148\n      jump\t// in\n    tag_219:\n      dup1\n      iszero\n      tag_220\n      jumpi\n      dup1\n      0x1f\n      lt\n      tag_221\n      jumpi\n      0x0100\n      dup1\n      dup4\n      sload\n      div\n      mul\n      dup4\n      mstore\n      swap2\n      0x20\n      add\n      swap2\n      jump(tag_220)\n    tag_221:\n      dup3\n      add\n      swap2\n      swap1\n      0x00\n      mstore\n      keccak256(0x00, 0x20)\n      swap1\n    tag_222:\n      dup2\n      sload\n      dup2\n      mstore\n      swap1\n      0x01\n      add\n      swap1\n      0x20\n      add\n      dup1\n      dup4\n      gt\n      tag_222\n      jumpi\n      dup3\n      swap1\n      sub\n      0x1f\n      and\n      dup3\n      add\n      swap2\n    tag_220:\n      pop\n      pop\n      pop\n      pop\n      pop\n      dup2\n      mstore\n      0x20\n      add\n      0x04\n      dup3\n      add\n      0x00\n      swap1\n      sload\n      swap1\n      0x0100\n      exp\n      swap1\n      div\n      0xff\n      and\n      iszero\n      iszero\n      iszero\n      iszero\n      dup2\n      mstore\n      pop\n      pop\n      swap1\n      pop\n        /* \"LandRegistration.sol\":2543:2682  function getAdmin(address adminAddress) public view restrictToSuperAdmin returns(Admin memory) {... */\n      swap2\n      swap1\n      pop\n      jump\t// out\n        /* \"LandRegistration.sol\":1201:1244  mapping (address => bool) public landOwners */\n    tag_89:\n      mstore(0x20, 0x0a)\n      dup1\n      0x00\n      mstore\n      keccak256(0x00, 0x40)\n      0x00\n      swap2\n      pop\n      sload\n      swap1\n      0x0100\n      exp\n      swap1\n      div\n      0xff\n      and\n      dup2\n      jump\t// out\n        /* \"LandRegistration.sol\":3432:3523  function loginAdmin() public view restrictToAdmin returns(bool){... */\n    tag_93:\n        /* \"LandRegistration.sol\":3490:3494  bool */\n      0x00\n        /* \"LandRegistration.sol\":1767:1776  addresses */\n      0x03\n        /* \"LandRegistration.sol\":1767:1788  addresses[msg.sender] */\n      0x00\n        /* \"LandRegistration.sol\":1777:1787  msg.sender */\n      caller\n        /* \"LandRegistration.sol\":1767:1788  addresses[msg.sender] */\n      0xffffffffffffffffffffffffffffffffffffffff\n      and\n      0xffffffffffffffffffffffffffffffffffffffff\n      and\n      dup2\n      mstore\n      0x20\n      add\n      swap1\n      dup2\n      mstore\n      0x20\n      add\n      0x00\n      keccak256\n      0x00\n      swap1\n      sload\n      swap1\n      0x0100\n      exp\n      swap1\n      div\n      0xff\n      and\n        /* \"LandRegistration.sol\":1759:1789  require(addresses[msg.sender]) */\n      tag_224\n      jumpi\n      0x00\n      dup1\n      revert\n    tag_224:\n        /* \"LandRegistration.sol\":3512:3516  true */\n      0x01\n        /* \"LandRegistration.sol\":3505:3516  return true */\n      swap1\n      pop\n        /* \"LandRegistration.sol\":3432:3523  function loginAdmin() public view restrictToAdmin returns(bool){... */\n      swap1\n      jump\t// out\n        /* \"LandRegistration.sol\":5919:6073  function makeLandAvailable(string memory _landId) public {... */\n    tag_97:\n        /* \"LandRegistration.sol\":5986:6009  Land storage landToEdit */\n      0x00\n        /* \"LandRegistration.sol\":6012:6017  lands */\n      0x08\n        /* \"LandRegistration.sol\":6018:6025  _landId */\n      dup3\n        /* \"LandRegistration.sol\":6012:6026  lands[_landId] */\n      mload(0x40)\n      tag_227\n      swap2\n      swap1\n      tag_197\n      jump\t// in\n    tag_227:\n      swap1\n      dup2\n      mstore\n      0x20\n      add\n      mload(0x40)\n      dup1\n      swap2\n      sub\n      swap1\n      keccak256\n        /* \"LandRegistration.sol\":5986:6026  Land storage landToEdit = lands[_landId] */\n      swap1\n      pop\n        /* \"LandRegistration.sol\":6062:6066  true */\n      0x01\n        /* \"LandRegistration.sol\":6036:6046  landToEdit */\n      dup2\n        /* \"LandRegistration.sol\":6036:6059  landToEdit.availability */\n      0x05\n      add\n      0x00\n        /* \"LandRegistration.sol\":6036:6066  landToEdit.availability = true */\n      0x0100\n      exp\n      dup2\n      sload\n      dup2\n      0xff\n      mul\n      not\n      and\n      swap1\n      dup4\n      iszero\n      iszero\n      mul\n      or\n      swap1\n      sstore\n      pop\n        /* \"LandRegistration.sol\":5976:6073  {... */\n      pop\n        /* \"LandRegistration.sol\":5919:6073  function makeLandAvailable(string memory _landId) public {... */\n      pop\n      jump\t// out\n        /* \"LandRegistration.sol\":3645:4621  function registerLand(string memory _location, string memory _surveryNumber, address _ownerAddress, string memory _marketValue, address _adminAddress, string memory _landId) public restrictToAdmin {... */\n    tag_101:\n        /* \"LandRegistration.sol\":1767:1776  addresses */\n      0x03\n        /* \"LandRegistration.sol\":1767:1788  addresses[msg.sender] */\n      0x00\n        /* \"LandRegistration.sol\":1777:1787  msg.sender */\n      caller\n        /* \"LandRegistration.sol\":1767:1788  addresses[msg.sender] */\n      0xffffffffffffffffffffffffffffffffffffffff\n      and\n      0xffffffffffffffffffffffffffffffffffffffff\n      and\n      dup2\n      mstore\n      0x20\n      add\n      swap1\n      dup2\n      mstore\n      0x20\n      add\n      0x00\n      keccak256\n      0x00\n      swap1\n      sload\n      swap1\n      0x0100\n      exp\n      swap1\n      div\n      0xff\n      and\n        /* \"LandRegistration.sol\":1759:1789  require(addresses[msg.sender]) */\n      tag_229\n      jumpi\n      0x00\n      dup1\n      revert\n    tag_229:\n        /* \"LandRegistration.sol\":3861:3875  landIdsMapping */\n      0x07\n        /* \"LandRegistration.sol\":3876:3883  _landId */\n      dup2\n        /* \"LandRegistration.sol\":3861:3884  landIdsMapping[_landId] */\n      mload(0x40)\n      tag_231\n      swap2\n      swap1\n      tag_197\n      jump\t// in\n    tag_231:\n      swap1\n      dup2\n      mstore\n      0x20\n      add\n      mload(0x40)\n      dup1\n      swap2\n      sub\n      swap1\n      keccak256\n      0x00\n      swap1\n      sload\n      swap1\n      0x0100\n      exp\n      swap1\n      div\n      0xff\n      and\n        /* \"LandRegistration.sol\":3860:3884  !landIdsMapping[_landId] */\n      iszero\n        /* \"LandRegistration.sol\":3852:3885  require(!landIdsMapping[_landId]) */\n      tag_232\n      jumpi\n      0x00\n      dup1\n      revert\n    tag_232:\n        /* \"LandRegistration.sol\":3970:3974  true */\n      0x01\n        /* \"LandRegistration.sol\":3944:3958  landIdsMapping */\n      0x07\n        /* \"LandRegistration.sol\":3959:3966  _landId */\n      dup3\n        /* \"LandRegistration.sol\":3944:3967  landIdsMapping[_landId] */\n      mload(0x40)\n      tag_233\n      swap2\n      swap1\n      tag_197\n      jump\t// in\n    tag_233:\n      swap1\n      dup2\n      mstore\n      0x20\n      add\n      mload(0x40)\n      dup1\n      swap2\n      sub\n      swap1\n      keccak256\n      0x00\n        /* \"LandRegistration.sol\":3944:3974  landIdsMapping[_landId] = true */\n      0x0100\n      exp\n      dup2\n      sload\n      dup2\n      0xff\n      mul\n      not\n      and\n      swap1\n      dup4\n      iszero\n      iszero\n      mul\n      or\n      swap1\n      sstore\n      pop\n        /* \"LandRegistration.sol\":4029:4039  landIdsArr */\n      0x06\n        /* \"LandRegistration.sol\":4045:4052  _landId */\n      dup2\n        /* \"LandRegistration.sol\":4029:4053  landIdsArr.push(_landId) */\n      swap1\n      dup1\n      0x01\n      dup2\n      sload\n      add\n      dup1\n      dup3\n      sstore\n      dup1\n      swap2\n      pop\n      pop\n      0x01\n      swap1\n      sub\n      swap1\n      0x00\n      mstore\n      keccak256(0x00, 0x20)\n      add\n      0x00\n      swap1\n      swap2\n      swap1\n      swap2\n      swap1\n      swap2\n      pop\n      swap1\n      dup1\n      mload\n      swap1\n      0x20\n      add\n      swap1\n      tag_235\n      swap3\n      swap2\n      swap1\n      tag_138\n      jump\t// in\n    tag_235:\n      pop\n        /* \"LandRegistration.sol\":4100:4120  Land storage newLand */\n      0x00\n        /* \"LandRegistration.sol\":4123:4128  lands */\n      0x08\n        /* \"LandRegistration.sol\":4129:4136  _landId */\n      dup3\n        /* \"LandRegistration.sol\":4123:4137  lands[_landId] */\n      mload(0x40)\n      tag_236\n      swap2\n      swap1\n      tag_197\n      jump\t// in\n    tag_236:\n      swap1\n      dup2\n      mstore\n      0x20\n      add\n      mload(0x40)\n      dup1\n      swap2\n      sub\n      swap1\n      keccak256\n        /* \"LandRegistration.sol\":4100:4137  Land storage newLand = lands[_landId] */\n      swap1\n      pop\n        /* \"LandRegistration.sol\":4164:4170  admins */\n      0x02\n        /* \"LandRegistration.sol\":4164:4185  admins[_adminAddress] */\n      0x00\n        /* \"LandRegistration.sol\":4171:4184  _adminAddress */\n      dup5\n        /* \"LandRegistration.sol\":4164:4185  admins[_adminAddress] */\n      0xffffffffffffffffffffffffffffffffffffffff\n      and\n      0xffffffffffffffffffffffffffffffffffffffff\n      and\n      dup2\n      mstore\n      0x20\n      add\n      swap1\n      dup2\n      mstore\n      0x20\n      add\n      0x00\n      keccak256\n        /* \"LandRegistration.sol\":4164:4192  admins[_adminAddress].county */\n      0x03\n      add\n        /* \"LandRegistration.sol\":4147:4154  newLand */\n      dup2\n        /* \"LandRegistration.sol\":4147:4161  newLand.county */\n      0x00\n      add\n        /* \"LandRegistration.sol\":4147:4192  newLand.county = admins[_adminAddress].county */\n      swap1\n      dup1\n      sload\n      tag_237\n      swap1\n      tag_148\n      jump\t// in\n    tag_237:\n      tag_238\n      swap3\n      swap2\n      swap1\n      tag_239\n      jump\t// in\n    tag_238:\n      pop\n        /* \"LandRegistration.sol\":4221:4230  _location */\n      dup7\n        /* \"LandRegistration.sol\":4202:4209  newLand */\n      dup2\n        /* \"LandRegistration.sol\":4202:4218  newLand.location */\n      0x01\n      add\n        /* \"LandRegistration.sol\":4202:4230  newLand.location = _location */\n      swap1\n      dup1\n      mload\n      swap1\n      0x20\n      add\n      swap1\n      tag_240\n      swap3\n      swap2\n      swap1\n      tag_138\n      jump\t// in\n    tag_240:\n      pop\n        /* \"LandRegistration.sol\":4263:4277  _surveryNumber */\n      dup6\n        /* \"LandRegistration.sol\":4240:4247  newLand */\n      dup2\n        /* \"LandRegistration.sol\":4240:4260  newLand.surveyNumber */\n      0x02\n      add\n        /* \"LandRegistration.sol\":4240:4277  newLand.surveyNumber = _surveryNumber */\n      swap1\n      dup1\n      mload\n      swap1\n      0x20\n      add\n      swap1\n      tag_241\n      swap3\n      swap2\n      swap1\n      tag_138\n      jump\t// in\n    tag_241:\n      pop\n        /* \"LandRegistration.sol\":4310:4323  _ownerAddress */\n      dup5\n        /* \"LandRegistration.sol\":4287:4294  newLand */\n      dup2\n        /* \"LandRegistration.sol\":4287:4307  newLand.ownerAddress */\n      0x03\n      add\n      0x00\n        /* \"LandRegistration.sol\":4287:4323  newLand.ownerAddress = _ownerAddress */\n      0x0100\n      exp\n      dup2\n      sload\n      dup2\n      0xffffffffffffffffffffffffffffffffffffffff\n      mul\n      not\n      and\n      swap1\n      dup4\n      0xffffffffffffffffffffffffffffffffffffffff\n      and\n      mul\n      or\n      swap1\n      sstore\n      pop\n        /* \"LandRegistration.sol\":4355:4367  _marketValue */\n      dup4\n        /* \"LandRegistration.sol\":4333:4340  newLand */\n      dup2\n        /* \"LandRegistration.sol\":4333:4352  newLand.marketValue */\n      0x04\n      add\n        /* \"LandRegistration.sol\":4333:4367  newLand.marketValue = _marketValue */\n      swap1\n      dup1\n      mload\n      swap1\n      0x20\n      add\n      swap1\n      tag_242\n      swap3\n      swap2\n      swap1\n      tag_138\n      jump\t// in\n    tag_242:\n      pop\n        /* \"LandRegistration.sol\":4400:4405  false */\n      0x00\n        /* \"LandRegistration.sol\":4377:4384  newLand */\n      dup2\n        /* \"LandRegistration.sol\":4377:4397  newLand.availability */\n      0x05\n      add\n      0x00\n        /* \"LandRegistration.sol\":4377:4405  newLand.availability = false */\n      0x0100\n      exp\n      dup2\n      sload\n      dup2\n      0xff\n      mul\n      not\n      and\n      swap1\n      dup4\n      iszero\n      iszero\n      mul\n      or\n      swap1\n      sstore\n      pop\n        /* \"LandRegistration.sol\":4442:4447  false */\n      0x00\n        /* \"LandRegistration.sol\":4415:4422  newLand */\n      dup2\n        /* \"LandRegistration.sol\":4415:4439  newLand.requestedForSale */\n      0x05\n      add\n      0x01\n        /* \"LandRegistration.sol\":4415:4447  newLand.requestedForSale = false */\n      0x0100\n      exp\n      dup2\n      sload\n      dup2\n      0xff\n      mul\n      not\n      and\n      swap1\n      dup4\n      iszero\n      iszero\n      mul\n      or\n      swap1\n      sstore\n      pop\n        /* \"LandRegistration.sol\":4494:4495  0 */\n      0x00\n        /* \"LandRegistration.sol\":4457:4464  newLand */\n      dup2\n        /* \"LandRegistration.sol\":4457:4483  newLand.requestedByAddress */\n      0x05\n      add\n      0x02\n        /* \"LandRegistration.sol\":4457:4496  newLand.requestedByAddress = address(0) */\n      0x0100\n      exp\n      dup2\n      sload\n      dup2\n      0xffffffffffffffffffffffffffffffffffffffff\n      mul\n      not\n      and\n      swap1\n      dup4\n      0xffffffffffffffffffffffffffffffffffffffff\n      and\n      mul\n      or\n      swap1\n      sstore\n      pop\n        /* \"LandRegistration.sol\":4523:4530  _landId */\n      dup2\n        /* \"LandRegistration.sol\":4506:4513  newLand */\n      dup2\n        /* \"LandRegistration.sol\":4506:4520  newLand.landId */\n      0x06\n      add\n        /* \"LandRegistration.sol\":4506:4530  newLand.landId = _landId */\n      swap1\n      dup1\n      mload\n      swap1\n      0x20\n      add\n      swap1\n      tag_243\n      swap3\n      swap2\n      swap1\n      tag_138\n      jump\t// in\n    tag_243:\n      pop\n        /* \"LandRegistration.sol\":4563:4576  _adminAddress */\n      dup3\n        /* \"LandRegistration.sol\":4540:4547  newLand */\n      dup2\n        /* \"LandRegistration.sol\":4540:4560  newLand.adminAddress */\n      0x07\n      add\n      0x00\n        /* \"LandRegistration.sol\":4540:4576  newLand.adminAddress = _adminAddress */\n      0x0100\n      exp\n      dup2\n      sload\n      dup2\n      0xffffffffffffffffffffffffffffffffffffffff\n      mul\n      not\n      and\n      swap1\n      dup4\n      0xffffffffffffffffffffffffffffffffffffffff\n      and\n      mul\n      or\n      swap1\n      sstore\n      pop\n        /* \"LandRegistration.sol\":4613:4614  1 */\n      0x01\n        /* \"LandRegistration.sol\":4600:4610  landsCount */\n      sload(0x09)\n        /* \"LandRegistration.sol\":4600:4614  landsCount + 1 */\n      tag_244\n      swap2\n      swap1\n      tag_245\n      jump\t// in\n    tag_244:\n        /* \"LandRegistration.sol\":4587:4597  landsCount */\n      0x09\n        /* \"LandRegistration.sol\":4587:4614  landsCount = landsCount + 1 */\n      dup2\n      swap1\n      sstore\n      pop\n        /* \"LandRegistration.sol\":3842:4621  {... */\n      pop\n        /* \"LandRegistration.sol\":3645:4621  function registerLand(string memory _location, string memory _surveryNumber, address _ownerAddress, string memory _marketValue, address _adminAddress, string memory _landId) public restrictToAdmin {... */\n      pop\n      pop\n      pop\n      pop\n      pop\n      pop\n      jump\t// out\n        /* \"LandRegistration.sol\":1127:1164  mapping (string => Land) public lands */\n    tag_104:\n      0x08\n      dup2\n      dup1\n      mload\n      0x20\n      dup2\n      add\n      dup3\n      add\n      dup1\n      mload\n      dup5\n      dup3\n      mstore\n      0x20\n      dup4\n      add\n      0x20\n      dup6\n      add\n      keccak256\n      dup2\n      dup4\n      mstore\n      dup1\n      swap6\n      pop\n      pop\n      pop\n      pop\n      pop\n      pop\n      0x00\n      swap2\n      pop\n      swap1\n      pop\n      dup1\n      0x00\n      add\n      dup1\n      sload\n      tag_246\n      swap1\n      tag_148\n      jump\t// in\n    tag_246:\n      dup1\n      0x1f\n      add\n      0x20\n      dup1\n      swap2\n      div\n      mul\n      0x20\n      add\n      mload(0x40)\n      swap1\n      dup2\n      add\n      0x40\n      mstore\n      dup1\n      swap3\n      swap2\n      swap1\n      dup2\n      dup2\n      mstore\n      0x20\n      add\n      dup3\n      dup1\n      sload\n      tag_247\n      swap1\n      tag_148\n      jump\t// in\n    tag_247:\n      dup1\n      iszero\n      tag_248\n      jumpi\n      dup1\n      0x1f\n      lt\n      tag_249\n      jumpi\n      0x0100\n      dup1\n      dup4\n      sload\n      div\n      mul\n      dup4\n      mstore\n      swap2\n      0x20\n      add\n      swap2\n      jump(tag_248)\n    tag_249:\n      dup3\n      add\n      swap2\n      swap1\n      0x00\n      mstore\n      keccak256(0x00, 0x20)\n      swap1\n    tag_250:\n      dup2\n      sload\n      dup2\n      mstore\n      swap1\n      0x01\n      add\n      swap1\n      0x20\n      add\n      dup1\n      dup4\n      gt\n      tag_250\n      jumpi\n      dup3\n      swap1\n      sub\n      0x1f\n      and\n      dup3\n      add\n      swap2\n    tag_248:\n      pop\n      pop\n      pop\n      pop\n      pop\n      swap1\n      dup1\n      0x01\n      add\n      dup1\n      sload\n      tag_251\n      swap1\n      tag_148\n      jump\t// in\n    tag_251:\n      dup1\n      0x1f\n      add\n      0x20\n      dup1\n      swap2\n      div\n      mul\n      0x20\n      add\n      mload(0x40)\n      swap1\n      dup2\n      add\n      0x40\n      mstore\n      dup1\n      swap3\n      swap2\n      swap1\n      dup2\n      dup2\n      mstore\n      0x20\n      add\n      dup3\n      dup1\n      sload\n      tag_252\n      swap1\n      tag_148\n      jump\t// in\n    tag_252:\n      dup1\n      iszero\n      tag_253\n      jumpi\n      dup1\n      0x1f\n      lt\n      tag_254\n      jumpi\n      0x0100\n      dup1\n      dup4\n      sload\n      div\n      mul\n      dup4\n      mstore\n      swap2\n      0x20\n      add\n      swap2\n      jump(tag_253)\n    tag_254:\n      dup3\n      add\n      swap2\n      swap1\n      0x00\n      mstore\n      keccak256(0x00, 0x20)\n      swap1\n    tag_255:\n      dup2\n      sload\n      dup2\n      mstore\n      swap1\n      0x01\n      add\n      swap1\n      0x20\n      add\n      dup1\n      dup4\n      gt\n      tag_255\n      jumpi\n      dup3\n      swap1\n      sub\n      0x1f\n      and\n      dup3\n      add\n      swap2\n    tag_253:\n      pop\n      pop\n      pop\n      pop\n      pop\n      swap1\n      dup1\n      0x02\n      add\n      dup1\n      sload\n      tag_256\n      swap1\n      tag_148\n      jump\t// in\n    tag_256:\n      dup1\n      0x1f\n      add\n      0x20\n      dup1\n      swap2\n      div\n      mul\n      0x20\n      add\n      mload(0x40)\n      swap1\n      dup2\n      add\n      0x40\n      mstore\n      dup1\n      swap3\n      swap2\n      swap1\n      dup2\n      dup2\n      mstore\n      0x20\n      add\n      dup3\n      dup1\n      sload\n      tag_257\n      swap1\n      tag_148\n      jump\t// in\n    tag_257:\n      dup1\n      iszero\n      tag_258\n      jumpi\n      dup1\n      0x1f\n      lt\n      tag_259\n      jumpi\n      0x0100\n      dup1\n      dup4\n      sload\n      div\n      mul\n      dup4\n      mstore\n      swap2\n      0x20\n      add\n      swap2\n      jump(tag_258)\n    tag_259:\n      dup3\n      add\n      swap2\n      swap1\n      0x00\n      mstore\n      keccak256(0x00, 0x20)\n      swap1\n    tag_260:\n      dup2\n      sload\n      dup2\n      mstore\n      swap1\n      0x01\n      add\n      swap1\n      0x20\n      add\n      dup1\n      dup4\n      gt\n      tag_260\n      jumpi\n      dup3\n      swap1\n      sub\n      0x1f\n      and\n      dup3\n      add\n      swap2\n    tag_258:\n      pop\n      pop\n      pop\n      pop\n      pop\n      swap1\n      dup1\n      0x03\n      add\n      0x00\n      swap1\n      sload\n      swap1\n      0x0100\n      exp\n      swap1\n      div\n      0xffffffffffffffffffffffffffffffffffffffff\n      and\n      swap1\n      dup1\n      0x04\n      add\n      dup1\n      sload\n      tag_261\n      swap1\n      tag_148\n      jump\t// in\n    tag_261:\n      dup1\n      0x1f\n      add\n      0x20\n      dup1\n      swap2\n      div\n      mul\n      0x20\n      add\n      mload(0x40)\n      swap1\n      dup2\n      add\n      0x40\n      mstore\n      dup1\n      swap3\n      swap2\n      swap1\n      dup2\n      dup2\n      mstore\n      0x20\n      add\n      dup3\n      dup1\n      sload\n      tag_262\n      swap1\n      tag_148\n      jump\t// in\n    tag_262:\n      dup1\n      iszero\n      tag_263\n      jumpi\n      dup1\n      0x1f\n      lt\n      tag_264\n      jumpi\n      0x0100\n      dup1\n      dup4\n      sload\n      div\n      mul\n      dup4\n      mstore\n      swap2\n      0x20\n      add\n      swap2\n      jump(tag_263)\n    tag_264:\n      dup3\n      add\n      swap2\n      swap1\n      0x00\n      mstore\n      keccak256(0x00, 0x20)\n      swap1\n    tag_265:\n      dup2\n      sload\n      dup2\n      mstore\n      swap1\n      0x01\n      add\n      swap1\n      0x20\n      add\n      dup1\n      dup4\n      gt\n      tag_265\n      jumpi\n      dup3\n      swap1\n      sub\n      0x1f\n      and\n      dup3\n      add\n      swap2\n    tag_263:\n      pop\n      pop\n      pop\n      pop\n      pop\n      swap1\n      dup1\n      0x05\n      add\n      0x00\n      swap1\n      sload\n      swap1\n      0x0100\n      exp\n      swap1\n      div\n      0xff\n      and\n      swap1\n      dup1\n      0x05\n      add\n      0x01\n      swap1\n      sload\n      swap1\n      0x0100\n      exp\n      swap1\n      div\n      0xff\n      and\n      swap1\n      dup1\n      0x05\n      add\n      0x02\n      swap1\n      sload\n      swap1\n      0x0100\n      exp\n      swap1\n      div\n      0xffffffffffffffffffffffffffffffffffffffff\n      and\n      swap1\n      dup1\n      0x06\n      add\n      dup1\n      sload\n      tag_266\n      swap1\n      tag_148\n      jump\t// in\n    tag_266:\n      dup1\n      0x1f\n      add\n      0x20\n      dup1\n      swap2\n      div\n      mul\n      0x20\n      add\n      mload(0x40)\n      swap1\n      dup2\n      add\n      0x40\n      mstore\n      dup1\n      swap3\n      swap2\n      swap1\n      dup2\n      dup2\n      mstore\n      0x20\n      add\n      dup3\n      dup1\n      sload\n      tag_267\n      swap1\n      tag_148\n      jump\t// in\n    tag_267:\n      dup1\n      iszero\n      tag_268\n      jumpi\n      dup1\n      0x1f\n      lt\n      tag_269\n      jumpi\n      0x0100\n      dup1\n      dup4\n      sload\n      div\n      mul\n      dup4\n      mstore\n      swap2\n      0x20\n      add\n      swap2\n      jump(tag_268)\n    tag_269:\n      dup3\n      add\n      swap2\n      swap1\n      0x00\n      mstore\n      keccak256(0x00, 0x20)\n      swap1\n    tag_270:\n      dup2\n      sload\n      dup2\n      mstore\n      swap1\n      0x01\n      add\n      swap1\n      0x20\n      add\n      dup1\n      dup4\n      gt\n      tag_270\n      jumpi\n      dup3\n      swap1\n      sub\n      0x1f\n      and\n      dup3\n      add\n      swap2\n    tag_268:\n      pop\n      pop\n      pop\n      pop\n      pop\n      swap1\n      dup1\n      0x07\n      add\n      0x00\n      swap1\n      sload\n      swap1\n      0x0100\n      exp\n      swap1\n      div\n      0xffffffffffffffffffffffffffffffffffffffff\n      and\n      swap1\n      pop\n      dup11\n      jump\t// out\n        /* \"LandRegistration.sol\":1250:1305  mapping (address => LandOwner) public landOwnersDetails */\n    tag_109:\n      mstore(0x20, 0x0b)\n      dup1\n      0x00\n      mstore\n      keccak256(0x00, 0x40)\n      0x00\n      swap2\n      pop\n      swap1\n      pop\n      dup1\n      0x00\n      add\n      dup1\n      sload\n      tag_271\n      swap1\n      tag_148\n      jump\t// in\n    tag_271:\n      dup1\n      0x1f\n      add\n      0x20\n      dup1\n      swap2\n      div\n      mul\n      0x20\n      add\n      mload(0x40)\n      swap1\n      dup2\n      add\n      0x40\n      mstore\n      dup1\n      swap3\n      swap2\n      swap1\n      dup2\n      dup2\n      mstore\n      0x20\n      add\n      dup3\n      dup1\n      sload\n      tag_272\n      swap1\n      tag_148\n      jump\t// in\n    tag_272:\n      dup1\n      iszero\n      tag_273\n      jumpi\n      dup1\n      0x1f\n      lt\n      tag_274\n      jumpi\n      0x0100\n      dup1\n      dup4\n      sload\n      div\n      mul\n      dup4\n      mstore\n      swap2\n      0x20\n      add\n      swap2\n      jump(tag_273)\n    tag_274:\n      dup3\n      add\n      swap2\n      swap1\n      0x00\n      mstore\n      keccak256(0x00, 0x20)\n      swap1\n    tag_275:\n      dup2\n      sload\n      dup2\n      mstore\n      swap1\n      0x01\n      add\n      swap1\n      0x20\n      add\n      dup1\n      dup4\n      gt\n      tag_275\n      jumpi\n      dup3\n      swap1\n      sub\n      0x1f\n      and\n      dup3\n      add\n      swap2\n    tag_273:\n      pop\n      pop\n      pop\n      pop\n      pop\n      swap1\n      dup1\n      0x01\n      add\n      dup1\n      sload\n      tag_276\n      swap1\n      tag_148\n      jump\t// in\n    tag_276:\n      dup1\n      0x1f\n      add\n      0x20\n      dup1\n      swap2\n      div\n      mul\n      0x20\n      add\n      mload(0x40)\n      swap1\n      dup2\n      add\n      0x40\n      mstore\n      dup1\n      swap3\n      swap2\n      swap1\n      dup2\n      dup2\n      mstore\n      0x20\n      add\n      dup3\n      dup1\n      sload\n      tag_277\n      swap1\n      tag_148\n      jump\t// in\n    tag_277:\n      dup1\n      iszero\n      tag_278\n      jumpi\n      dup1\n      0x1f\n      lt\n      tag_279\n      jumpi\n      0x0100\n      dup1\n      dup4\n      sload\n      div\n      mul\n      dup4\n      mstore\n      swap2\n      0x20\n      add\n      swap2\n      jump(tag_278)\n    tag_279:\n      dup3\n      add\n      swap2\n      swap1\n      0x00\n      mstore\n      keccak256(0x00, 0x20)\n      swap1\n    tag_280:\n      dup2\n      sload\n      dup2\n      mstore\n      swap1\n      0x01\n      add\n      swap1\n      0x20\n      add\n      dup1\n      dup4\n      gt\n      tag_280\n      jumpi\n      dup3\n      swap1\n      sub\n      0x1f\n      and\n      dup3\n      add\n      swap2\n    tag_278:\n      pop\n      pop\n      pop\n      pop\n      pop\n      swap1\n      dup1\n      0x02\n      add\n      dup1\n      sload\n      tag_281\n      swap1\n      tag_148\n      jump\t// in\n    tag_281:\n      dup1\n      0x1f\n      add\n      0x20\n      dup1\n      swap2\n      div\n      mul\n      0x20\n      add\n      mload(0x40)\n      swap1\n      dup2\n      add\n      0x40\n      mstore\n      dup1\n      swap3\n      swap2\n      swap1\n      dup2\n      dup2\n      mstore\n      0x20\n      add\n      dup3\n      dup1\n      sload\n      tag_282\n      swap1\n      tag_148\n      jump\t// in\n    tag_282:\n      dup1\n      iszero\n      tag_283\n      jumpi\n      dup1\n      0x1f\n      lt\n      tag_284\n      jumpi\n      0x0100\n      dup1\n      dup4\n      sload\n      div\n      mul\n      dup4\n      mstore\n      swap2\n      0x20\n      add\n      swap2\n      jump(tag_283)\n    tag_284:\n      dup3\n      add\n      swap2\n      swap1\n      0x00\n      mstore\n      keccak256(0x00, 0x20)\n      swap1\n    tag_285:\n      dup2\n      sload\n      dup2\n      mstore\n      swap1\n      0x01\n      add\n      swap1\n      0x20\n      add\n      dup1\n      dup4\n      gt\n      tag_285\n      jumpi\n      dup3\n      swap1\n      sub\n      0x1f\n      and\n      dup3\n      add\n      swap2\n    tag_283:\n      pop\n      pop\n      pop\n      pop\n      pop\n      swap1\n      dup1\n      0x03\n      add\n      dup1\n      sload\n      tag_286\n      swap1\n      tag_148\n      jump\t// in\n    tag_286:\n      dup1\n      0x1f\n      add\n      0x20\n      dup1\n      swap2\n      div\n      mul\n      0x20\n      add\n      mload(0x40)\n      swap1\n      dup2\n      add\n      0x40\n      mstore\n      dup1\n      swap3\n      swap2\n      swap1\n      dup2\n      dup2\n      mstore\n      0x20\n      add\n      dup3\n      dup1\n      sload\n      tag_287\n      swap1\n      tag_148\n      jump\t// in\n    tag_287:\n      dup1\n      iszero\n      tag_288\n      jumpi\n      dup1\n      0x1f\n      lt\n      tag_289\n      jumpi\n      0x0100\n      dup1\n      dup4\n      sload\n      div\n      mul\n      dup4\n      mstore\n      swap2\n      0x20\n      add\n      swap2\n      jump(tag_288)\n    tag_289:\n      dup3\n      add\n      swap2\n      swap1\n      0x00\n      mstore\n      keccak256(0x00, 0x20)\n      swap1\n    tag_290:\n      dup2\n      sload\n      dup2\n      mstore\n      swap1\n      0x01\n      add\n      swap1\n      0x20\n      add\n      dup1\n      dup4\n      gt\n      tag_290\n      jumpi\n      dup3\n      swap1\n      sub\n      0x1f\n      and\n      dup3\n      add\n      swap2\n    tag_288:\n      pop\n      pop\n      pop\n      pop\n      pop\n      swap1\n      dup1\n      0x04\n      add\n      dup1\n      sload\n      tag_291\n      swap1\n      tag_148\n      jump\t// in\n    tag_291:\n      dup1\n      0x1f\n      add\n      0x20\n      dup1\n      swap2\n      div\n      mul\n      0x20\n      add\n      mload(0x40)\n      swap1\n      dup2\n      add\n      0x40\n      mstore\n      dup1\n      swap3\n      swap2\n      swap1\n      dup2\n      dup2\n      mstore\n      0x20\n      add\n      dup3\n      dup1\n      sload\n      tag_292\n      swap1\n      tag_148\n      jump\t// in\n    tag_292:\n      dup1\n      iszero\n      tag_293\n      jumpi\n      dup1\n      0x1f\n      lt\n      tag_294\n      jumpi\n      0x0100\n      dup1\n      dup4\n      sload\n      div\n      mul\n      dup4\n      mstore\n      swap2\n      0x20\n      add\n      swap2\n      jump(tag_293)\n    tag_294:\n      dup3\n      add\n      swap2\n      swap1\n      0x00\n      mstore\n      keccak256(0x00, 0x20)\n      swap1\n    tag_295:\n      dup2\n      sload\n      dup2\n      mstore\n      swap1\n      0x01\n      add\n      swap1\n      0x20\n      add\n      dup1\n      dup4\n      gt\n      tag_295\n      jumpi\n      dup3\n      swap1\n      sub\n      0x1f\n      and\n      dup3\n      add\n      swap2\n    tag_293:\n      pop\n      pop\n      pop\n      pop\n      pop\n      swap1\n      dup1\n      0x05\n      add\n      dup1\n      sload\n      tag_296\n      swap1\n      tag_148\n      jump\t// in\n    tag_296:\n      dup1\n      0x1f\n      add\n      0x20\n      dup1\n      swap2\n      div\n      mul\n      0x20\n      add\n      mload(0x40)\n      swap1\n      dup2\n      add\n      0x40\n      mstore\n      dup1\n      swap3\n      swap2\n      swap1\n      dup2\n      dup2\n      mstore\n      0x20\n      add\n      dup3\n      dup1\n      sload\n      tag_297\n      swap1\n      tag_148\n      jump\t// in\n    tag_297:\n      dup1\n      iszero\n      tag_298\n      jumpi\n      dup1\n      0x1f\n      lt\n      tag_299\n      jumpi\n      0x0100\n      dup1\n      dup4\n      sload\n      div\n      mul\n      dup4\n      mstore\n      swap2\n      0x20\n      add\n      swap2\n      jump(tag_298)\n    tag_299:\n      dup3\n      add\n      swap2\n      swap1\n      0x00\n      mstore\n      keccak256(0x00, 0x20)\n      swap1\n    tag_300:\n      dup2\n      sload\n      dup2\n      mstore\n      swap1\n      0x01\n      add\n      swap1\n      0x20\n      add\n      dup1\n      dup4\n      gt\n      tag_300\n      jumpi\n      dup3\n      swap1\n      sub\n      0x1f\n      and\n      dup3\n      add\n      swap2\n    tag_298:\n      pop\n      pop\n      pop\n      pop\n      pop\n      swap1\n      dup1\n      0x06\n      add\n      dup1\n      sload\n      tag_301\n      swap1\n      tag_148\n      jump\t// in\n    tag_301:\n      dup1\n      0x1f\n      add\n      0x20\n      dup1\n      swap2\n      div\n      mul\n      0x20\n      add\n      mload(0x40)\n      swap1\n      dup2\n      add\n      0x40\n      mstore\n      dup1\n      swap3\n      swap2\n      swap1\n      dup2\n      dup2\n      mstore\n      0x20\n      add\n      dup3\n      dup1\n      sload\n      tag_302\n      swap1\n      tag_148\n      jump\t// in\n    tag_302:\n      dup1\n      iszero\n      tag_303\n      jumpi\n      dup1\n      0x1f\n      lt\n      tag_304\n      jumpi\n      0x0100\n      dup1\n      dup4\n      sload\n      div\n      mul\n      dup4\n      mstore\n      swap2\n      0x20\n      add\n      swap2\n      jump(tag_303)\n    tag_304:\n      dup3\n      add\n      swap2\n      swap1\n      0x00\n      mstore\n      keccak256(0x00, 0x20)\n      swap1\n    tag_305:\n      dup2\n      sload\n      dup2\n      mstore\n      swap1\n      0x01\n      add\n      swap1\n      0x20\n      add\n      dup1\n      dup4\n      gt\n      tag_305\n      jumpi\n      dup3\n      swap1\n      sub\n      0x1f\n      and\n      dup3\n      add\n      swap2\n    tag_303:\n      pop\n      pop\n      pop\n      pop\n      pop\n      swap1\n      dup1\n      0x07\n      add\n      dup1\n      sload\n      tag_306\n      swap1\n      tag_148\n      jump\t// in\n    tag_306:\n      dup1\n      0x1f\n      add\n      0x20\n      dup1\n      swap2\n      div\n      mul\n      0x20\n      add\n      mload(0x40)\n      swap1\n      dup2\n      add\n      0x40\n      mstore\n      dup1\n      swap3\n      swap2\n      swap1\n      dup2\n      dup2\n      mstore\n      0x20\n      add\n      dup3\n      dup1\n      sload\n      tag_307\n      swap1\n      tag_148\n      jump\t// in\n    tag_307:\n      dup1\n      iszero\n      tag_308\n      jumpi\n      dup1\n      0x1f\n      lt\n      tag_309\n      jumpi\n      0x0100\n      dup1\n      dup4\n      sload\n      div\n      mul\n      dup4\n      mstore\n      swap2\n      0x20\n      add\n      swap2\n      jump(tag_308)\n    tag_309:\n      dup3\n      add\n      swap2\n      swap1\n      0x00\n      mstore\n      keccak256(0x00, 0x20)\n      swap1\n    tag_310:\n      dup2\n      sload\n      dup2\n      mstore\n      swap1\n      0x01\n      add\n      swap1\n      0x20\n      add\n      dup1\n      dup4\n      gt\n      tag_310\n      jumpi\n      dup3\n      swap1\n      sub\n      0x1f\n      and\n      dup3\n      add\n      swap2\n    tag_308:\n      pop\n      pop\n      pop\n      pop\n      pop\n      swap1\n      dup1\n      0x08\n      add\n      0x00\n      swap1\n      sload\n      swap1\n      0x0100\n      exp\n      swap1\n      div\n      0xffffffffffffffffffffffffffffffffffffffff\n      and\n      swap1\n      pop\n      dup10\n      jump\t// out\n        /* \"LandRegistration.sol\":1075:1121  mapping (string => bool) public landIdsMapping */\n    tag_114:\n      0x07\n      dup2\n      dup1\n      mload\n      0x20\n      dup2\n      add\n      dup3\n      add\n      dup1\n      mload\n      dup5\n      dup3\n      mstore\n      0x20\n      dup4\n      add\n      0x20\n      dup6\n      add\n      keccak256\n      dup2\n      dup4\n      mstore\n      dup1\n      swap6\n      pop\n      pop\n      pop\n      pop\n      pop\n      pop\n      0x00\n      swap2\n      pop\n      sload\n      swap1\n      0x0100\n      exp\n      swap1\n      div\n      0xff\n      and\n      dup2\n      jump\t// out\n        /* \"LandRegistration.sol\":1042:1069  string [] public landIdsArr */\n    tag_118:\n      0x06\n      dup2\n      dup2\n      sload\n      dup2\n      lt\n      tag_311\n      jumpi\n      0x00\n      dup1\n      revert\n    tag_311:\n      swap1\n      0x00\n      mstore\n      keccak256(0x00, 0x20)\n      add\n      0x00\n      swap2\n      pop\n      swap1\n      pop\n      dup1\n      sload\n      tag_313\n      swap1\n      tag_148\n      jump\t// in\n    tag_313:\n      dup1\n      0x1f\n      add\n      0x20\n      dup1\n      swap2\n      div\n      mul\n      0x20\n      add\n      mload(0x40)\n      swap1\n      dup2\n      add\n      0x40\n      mstore\n      dup1\n      swap3\n      swap2\n      swap1\n      dup2\n      dup2\n      mstore\n      0x20\n      add\n      dup3\n      dup1\n      sload\n      tag_314\n      swap1\n      tag_148\n      jump\t// in\n    tag_314:\n      dup1\n      iszero\n      tag_315\n      jumpi\n      dup1\n      0x1f\n      lt\n      tag_316\n      jumpi\n      0x0100\n      dup1\n      dup4\n      sload\n      div\n      mul\n      dup4\n      mstore\n      swap2\n      0x20\n      add\n      swap2\n      jump(tag_315)\n    tag_316:\n      dup3\n      add\n      swap2\n      swap1\n      0x00\n      mstore\n      keccak256(0x00, 0x20)\n      swap1\n    tag_317:\n      dup2\n      sload\n      dup2\n      mstore\n      swap1\n      0x01\n      add\n      swap1\n      0x20\n      add\n      dup1\n      dup4\n      gt\n      tag_317\n      jumpi\n      dup3\n      swap1\n      sub\n      0x1f\n      and\n      dup3\n      add\n      swap2\n    tag_315:\n      pop\n      pop\n      pop\n      pop\n      pop\n      dup2\n      jump\t// out\n        /* \"LandRegistration.sol\":1954:2537  function addAdmin(string memory firstName, string memory lastName, string memory county, address adminAddress) public restrictToSuperAdmin {... */\n    tag_122:\n        /* \"LandRegistration.sol\":1682:1699  superAdminAddress */\n      0x00\n      dup1\n      sload\n      swap1\n      0x0100\n      exp\n      swap1\n      div\n      0xffffffffffffffffffffffffffffffffffffffff\n      and\n        /* \"LandRegistration.sol\":1668:1699  msg.sender == superAdminAddress */\n      0xffffffffffffffffffffffffffffffffffffffff\n      and\n        /* \"LandRegistration.sol\":1668:1678  msg.sender */\n      caller\n        /* \"LandRegistration.sol\":1668:1699  msg.sender == superAdminAddress */\n      0xffffffffffffffffffffffffffffffffffffffff\n      and\n      eq\n        /* \"LandRegistration.sol\":1660:1700  require(msg.sender == superAdminAddress) */\n      tag_319\n      jumpi\n      0x00\n      dup1\n      revert\n    tag_319:\n        /* \"LandRegistration.sol\":2107:2145  equal(admins[adminAddress].county, \"\") */\n      tag_321\n        /* \"LandRegistration.sol\":2113:2119  admins */\n      0x02\n        /* \"LandRegistration.sol\":2113:2133  admins[adminAddress] */\n      0x00\n        /* \"LandRegistration.sol\":2120:2132  adminAddress */\n      dup4\n        /* \"LandRegistration.sol\":2113:2133  admins[adminAddress] */\n      0xffffffffffffffffffffffffffffffffffffffff\n      and\n      0xffffffffffffffffffffffffffffffffffffffff\n      and\n      dup2\n      mstore\n      0x20\n      add\n      swap1\n      dup2\n      mstore\n      0x20\n      add\n      0x00\n      keccak256\n        /* \"LandRegistration.sol\":2113:2140  admins[adminAddress].county */\n      0x03\n      add\n        /* \"LandRegistration.sol\":2107:2145  equal(admins[adminAddress].county, \"\") */\n      dup1\n      sload\n      tag_322\n      swap1\n      tag_148\n      jump\t// in\n    tag_322:\n      dup1\n      0x1f\n      add\n      0x20\n      dup1\n      swap2\n      div\n      mul\n      0x20\n      add\n      mload(0x40)\n      swap1\n      dup2\n      add\n      0x40\n      mstore\n      dup1\n      swap3\n      swap2\n      swap1\n      dup2\n      dup2\n      mstore\n      0x20\n      add\n      dup3\n      dup1\n      sload\n      tag_323\n      swap1\n      tag_148\n      jump\t// in\n    tag_323:\n      dup1\n      iszero\n      tag_324\n      jumpi\n      dup1\n      0x1f\n      lt\n      tag_325\n      jumpi\n      0x0100\n      dup1\n      dup4\n      sload\n      div\n      mul\n      dup4\n      mstore\n      swap2\n      0x20\n      add\n      swap2\n      jump(tag_324)\n    tag_325:\n      dup3\n      add\n      swap2\n      swap1\n      0x00\n      mstore\n      keccak256(0x00, 0x20)\n      swap1\n    tag_326:\n      dup2\n      sload\n      dup2\n      mstore\n      swap1\n      0x01\n      add\n      swap1\n      0x20\n      add\n      dup1\n      dup4\n      gt\n      tag_326\n      jumpi\n      dup3\n      swap1\n      sub\n      0x1f\n      and\n      dup3\n      add\n      swap2\n    tag_324:\n      pop\n      pop\n      pop\n      pop\n      pop\n      mload(0x40)\n      dup1\n      0x20\n      add\n      0x40\n      mstore\n      dup1\n      0x00\n      dup2\n      mstore\n      pop\n        /* \"LandRegistration.sol\":2107:2112  equal */\n      tag_327\n        /* \"LandRegistration.sol\":2107:2145  equal(admins[adminAddress].county, \"\") */\n      jump\t// in\n    tag_321:\n        /* \"LandRegistration.sol\":2103:2193  if (equal(admins[adminAddress].county, \"\")) {... */\n      iszero\n      tag_328\n      jumpi\n        /* \"LandRegistration.sol\":2161:2169  counties */\n      0x04\n        /* \"LandRegistration.sol\":2175:2181  county */\n      dup3\n        /* \"LandRegistration.sol\":2161:2182  counties.push(county) */\n      swap1\n      dup1\n      0x01\n      dup2\n      sload\n      add\n      dup1\n      dup3\n      sstore\n      dup1\n      swap2\n      pop\n      pop\n      0x01\n      swap1\n      sub\n      swap1\n      0x00\n      mstore\n      keccak256(0x00, 0x20)\n      add\n      0x00\n      swap1\n      swap2\n      swap1\n      swap2\n      swap1\n      swap2\n      pop\n      swap1\n      dup1\n      mload\n      swap1\n      0x20\n      add\n      swap1\n      tag_330\n      swap3\n      swap2\n      swap1\n      tag_138\n      jump\t// in\n    tag_330:\n      pop\n        /* \"LandRegistration.sol\":2103:2193  if (equal(admins[adminAddress].county, \"\")) {... */\n    tag_328:\n        /* \"LandRegistration.sol\":2202:2224  Admin storage newAdmin */\n      0x00\n        /* \"LandRegistration.sol\":2227:2233  admins */\n      0x02\n        /* \"LandRegistration.sol\":2227:2247  admins[adminAddress] */\n      0x00\n        /* \"LandRegistration.sol\":2234:2246  adminAddress */\n      dup4\n        /* \"LandRegistration.sol\":2227:2247  admins[adminAddress] */\n      0xffffffffffffffffffffffffffffffffffffffff\n      and\n      0xffffffffffffffffffffffffffffffffffffffff\n      and\n      dup2\n      mstore\n      0x20\n      add\n      swap1\n      dup2\n      mstore\n      0x20\n      add\n      0x00\n      keccak256\n        /* \"LandRegistration.sol\":2202:2247  Admin storage newAdmin = admins[adminAddress] */\n      swap1\n      pop\n        /* \"LandRegistration.sol\":2278:2287  firstName */\n      dup5\n        /* \"LandRegistration.sol\":2257:2265  newAdmin */\n      dup2\n        /* \"LandRegistration.sol\":2257:2275  newAdmin.firstName */\n      0x00\n      add\n        /* \"LandRegistration.sol\":2257:2287  newAdmin.firstName = firstName */\n      swap1\n      dup1\n      mload\n      swap1\n      0x20\n      add\n      swap1\n      tag_331\n      swap3\n      swap2\n      swap1\n      tag_138\n      jump\t// in\n    tag_331:\n      pop\n        /* \"LandRegistration.sol\":2317:2325  lastName */\n      dup4\n        /* \"LandRegistration.sol\":2297:2305  newAdmin */\n      dup2\n        /* \"LandRegistration.sol\":2297:2314  newAdmin.lastName */\n      0x01\n      add\n        /* \"LandRegistration.sol\":2297:2325  newAdmin.lastName = lastName */\n      swap1\n      dup1\n      mload\n      swap1\n      0x20\n      add\n      swap1\n      tag_332\n      swap3\n      swap2\n      swap1\n      tag_138\n      jump\t// in\n    tag_332:\n      pop\n        /* \"LandRegistration.sol\":2359:2371  adminAddress */\n      dup2\n        /* \"LandRegistration.sol\":2335:2343  newAdmin */\n      dup2\n        /* \"LandRegistration.sol\":2335:2356  newAdmin.adminAddress */\n      0x02\n      add\n      0x00\n        /* \"LandRegistration.sol\":2335:2371  newAdmin.adminAddress = adminAddress */\n      0x0100\n      exp\n      dup2\n      sload\n      dup2\n      0xffffffffffffffffffffffffffffffffffffffff\n      mul\n      not\n      and\n      swap1\n      dup4\n      0xffffffffffffffffffffffffffffffffffffffff\n      and\n      mul\n      or\n      swap1\n      sstore\n      pop\n        /* \"LandRegistration.sol\":2399:2405  county */\n      dup3\n        /* \"LandRegistration.sol\":2381:2389  newAdmin */\n      dup2\n        /* \"LandRegistration.sol\":2381:2396  newAdmin.county */\n      0x03\n      add\n        /* \"LandRegistration.sol\":2381:2405  newAdmin.county = county */\n      swap1\n      dup1\n      mload\n      swap1\n      0x20\n      add\n      swap1\n      tag_333\n      swap3\n      swap2\n      swap1\n      tag_138\n      jump\t// in\n    tag_333:\n      pop\n        /* \"LandRegistration.sol\":2433:2437  true */\n      0x01\n        /* \"LandRegistration.sol\":2415:2423  newAdmin */\n      dup2\n        /* \"LandRegistration.sol\":2415:2430  newAdmin.active */\n      0x04\n      add\n      0x00\n        /* \"LandRegistration.sol\":2415:2437  newAdmin.active = true */\n      0x0100\n      exp\n      dup2\n      sload\n      dup2\n      0xff\n      mul\n      not\n      and\n      swap1\n      dup4\n      iszero\n      iszero\n      mul\n      or\n      swap1\n      sstore\n      pop\n        /* \"LandRegistration.sol\":2448:2462  adminsAdresses */\n      0x05\n        /* \"LandRegistration.sol\":2476:2488  adminAddress */\n      dup3\n        /* \"LandRegistration.sol\":2448:2490  adminsAdresses.push(address(adminAddress)) */\n      swap1\n      dup1\n      0x01\n      dup2\n      sload\n      add\n      dup1\n      dup3\n      sstore\n      dup1\n      swap2\n      pop\n      pop\n      0x01\n      swap1\n      sub\n      swap1\n      0x00\n      mstore\n      keccak256(0x00, 0x20)\n      add\n      0x00\n      swap1\n      swap2\n      swap1\n      swap2\n      swap1\n      swap2\n      0x0100\n      exp\n      dup2\n      sload\n      dup2\n      0xffffffffffffffffffffffffffffffffffffffff\n      mul\n      not\n      and\n      swap1\n      dup4\n      0xffffffffffffffffffffffffffffffffffffffff\n      and\n      mul\n      or\n      swap1\n      sstore\n      pop\n        /* \"LandRegistration.sol\":2526:2530  true */\n      0x01\n        /* \"LandRegistration.sol\":2500:2509  addresses */\n      0x03\n        /* \"LandRegistration.sol\":2500:2523  addresses[adminAddress] */\n      0x00\n        /* \"LandRegistration.sol\":2510:2522  adminAddress */\n      dup5\n        /* \"LandRegistration.sol\":2500:2523  addresses[adminAddress] */\n      0xffffffffffffffffffffffffffffffffffffffff\n      and\n      0xffffffffffffffffffffffffffffffffffffffff\n      and\n      dup2\n      mstore\n      0x20\n      add\n      swap1\n      dup2\n      mstore\n      0x20\n      add\n      0x00\n      keccak256\n      0x00\n        /* \"LandRegistration.sol\":2500:2530  addresses[adminAddress] = true */\n      0x0100\n      exp\n      dup2\n      sload\n      dup2\n      0xff\n      mul\n      not\n      and\n      swap1\n      dup4\n      iszero\n      iszero\n      mul\n      or\n      swap1\n      sstore\n      pop\n        /* \"LandRegistration.sol\":2093:2537  {... */\n      pop\n        /* \"LandRegistration.sol\":1954:2537  function addAdmin(string memory firstName, string memory lastName, string memory county, address adminAddress) public restrictToSuperAdmin {... */\n      pop\n      pop\n      pop\n      pop\n      jump\t// out\n        /* \"LandRegistration.sol\":6108:6265  function makeLandUnavailable(string memory _landId) public {... */\n    tag_125:\n        /* \"LandRegistration.sol\":6177:6200  Land storage landToEdit */\n      0x00\n        /* \"LandRegistration.sol\":6203:6208  lands */\n      0x08\n        /* \"LandRegistration.sol\":6209:6216  _landId */\n      dup3\n        /* \"LandRegistration.sol\":6203:6217  lands[_landId] */\n      mload(0x40)\n      tag_336\n      swap2\n      swap1\n      tag_197\n      jump\t// in\n    tag_336:\n      swap1\n      dup2\n      mstore\n      0x20\n      add\n      mload(0x40)\n      dup1\n      swap2\n      sub\n      swap1\n      keccak256\n        /* \"LandRegistration.sol\":6177:6217  Land storage landToEdit = lands[_landId] */\n      swap1\n      pop\n        /* \"LandRegistration.sol\":6253:6258  false */\n      0x00\n        /* \"LandRegistration.sol\":6227:6237  landToEdit */\n      dup2\n        /* \"LandRegistration.sol\":6227:6250  landToEdit.availability */\n      0x05\n      add\n      0x00\n        /* \"LandRegistration.sol\":6227:6258  landToEdit.availability = false */\n      0x0100\n      exp\n      dup2\n      sload\n      dup2\n      0xff\n      mul\n      not\n      and\n      swap1\n      dup4\n      iszero\n      iszero\n      mul\n      or\n      swap1\n      sstore\n      pop\n        /* \"LandRegistration.sol\":6167:6265  {... */\n      pop\n        /* \"LandRegistration.sol\":6108:6265  function makeLandUnavailable(string memory _landId) public {... */\n      pop\n      jump\t// out\n        /* \"LandRegistration.sol\":4627:5204  function registerLandOwner() public returns(bool){... */\n    tag_127:\n        /* \"LandRegistration.sol\":4671:4675  bool */\n      0x00\n        /* \"LandRegistration.sol\":4690:4700  landOwners */\n      0x0a\n        /* \"LandRegistration.sol\":4690:4712  landOwners[msg.sender] */\n      0x00\n        /* \"LandRegistration.sol\":4701:4711  msg.sender */\n      caller\n        /* \"LandRegistration.sol\":4690:4712  landOwners[msg.sender] */\n      0xffffffffffffffffffffffffffffffffffffffff\n      and\n      0xffffffffffffffffffffffffffffffffffffffff\n      and\n      dup2\n      mstore\n      0x20\n      add\n      swap1\n      dup2\n      mstore\n      0x20\n      add\n      0x00\n      keccak256\n      0x00\n      swap1\n      sload\n      swap1\n      0x0100\n      exp\n      swap1\n      div\n      0xff\n      and\n        /* \"LandRegistration.sol\":4686:4725  if (landOwners[msg.sender]) return true */\n      iszero\n      tag_338\n      jumpi\n        /* \"LandRegistration.sol\":4721:4725  true */\n      0x01\n        /* \"LandRegistration.sol\":4714:4725  return true */\n      swap1\n      pop\n      jump(tag_337)\n        /* \"LandRegistration.sol\":4686:4725  if (landOwners[msg.sender]) return true */\n    tag_338:\n        /* \"LandRegistration.sol\":4760:4764  true */\n      0x01\n        /* \"LandRegistration.sol\":4735:4745  landOwners */\n      0x0a\n        /* \"LandRegistration.sol\":4735:4757  landOwners[msg.sender] */\n      0x00\n        /* \"LandRegistration.sol\":4746:4756  msg.sender */\n      caller\n        /* \"LandRegistration.sol\":4735:4757  landOwners[msg.sender] */\n      0xffffffffffffffffffffffffffffffffffffffff\n      and\n      0xffffffffffffffffffffffffffffffffffffffff\n      and\n      dup2\n      mstore\n      0x20\n      add\n      swap1\n      dup2\n      mstore\n      0x20\n      add\n      0x00\n      keccak256\n      0x00\n        /* \"LandRegistration.sol\":4735:4764  landOwners[msg.sender] = true */\n      0x0100\n      exp\n      dup2\n      sload\n      dup2\n      0xff\n      mul\n      not\n      and\n      swap1\n      dup4\n      iszero\n      iszero\n      mul\n      or\n      swap1\n      sstore\n      pop\n        /* \"LandRegistration.sol\":4775:4805  LandOwner storage newLandOwner */\n      0x00\n        /* \"LandRegistration.sol\":4808:4825  landOwnersDetails */\n      0x0b\n        /* \"LandRegistration.sol\":4808:4837  landOwnersDetails[msg.sender] */\n      0x00\n        /* \"LandRegistration.sol\":4826:4836  msg.sender */\n      caller\n        /* \"LandRegistration.sol\":4808:4837  landOwnersDetails[msg.sender] */\n      0xffffffffffffffffffffffffffffffffffffffff\n      and\n      0xffffffffffffffffffffffffffffffffffffffff\n      and\n      dup2\n      mstore\n      0x20\n      add\n      swap1\n      dup2\n      mstore\n      0x20\n      add\n      0x00\n      keccak256\n        /* \"LandRegistration.sol\":4775:4837  LandOwner storage newLandOwner = landOwnersDetails[msg.sender] */\n      swap1\n      pop\n        /* \"LandRegistration.sol\":4847:4874  newLandOwner.firstName = \"\" */\n      mload(0x40)\n      dup1\n      0x20\n      add\n      0x40\n      mstore\n      dup1\n      0x00\n      dup2\n      mstore\n      pop\n        /* \"LandRegistration.sol\":4847:4859  newLandOwner */\n      dup2\n        /* \"LandRegistration.sol\":4847:4869  newLandOwner.firstName */\n      0x00\n      add\n        /* \"LandRegistration.sol\":4847:4874  newLandOwner.firstName = \"\" */\n      swap1\n      dup1\n      mload\n      swap1\n      0x20\n      add\n      swap1\n      tag_339\n      swap3\n      swap2\n      swap1\n      tag_138\n      jump\t// in\n    tag_339:\n      pop\n        /* \"LandRegistration.sol\":4884:4910  newLandOwner.lastName = \"\" */\n      mload(0x40)\n      dup1\n      0x20\n      add\n      0x40\n      mstore\n      dup1\n      0x00\n      dup2\n      mstore\n      pop\n        /* \"LandRegistration.sol\":4884:4896  newLandOwner */\n      dup2\n        /* \"LandRegistration.sol\":4884:4905  newLandOwner.lastName */\n      0x01\n      add\n        /* \"LandRegistration.sol\":4884:4910  newLandOwner.lastName = \"\" */\n      swap1\n      dup1\n      mload\n      swap1\n      0x20\n      add\n      swap1\n      tag_340\n      swap3\n      swap2\n      swap1\n      tag_138\n      jump\t// in\n    tag_340:\n      pop\n        /* \"LandRegistration.sol\":4920:4948  newLandOwner.middleName = \"\" */\n      mload(0x40)\n      dup1\n      0x20\n      add\n      0x40\n      mstore\n      dup1\n      0x00\n      dup2\n      mstore\n      pop\n        /* \"LandRegistration.sol\":4920:4932  newLandOwner */\n      dup2\n        /* \"LandRegistration.sol\":4920:4943  newLandOwner.middleName */\n      0x02\n      add\n        /* \"LandRegistration.sol\":4920:4948  newLandOwner.middleName = \"\" */\n      swap1\n      dup1\n      mload\n      swap1\n      0x20\n      add\n      swap1\n      tag_341\n      swap3\n      swap2\n      swap1\n      tag_138\n      jump\t// in\n    tag_341:\n      pop\n        /* \"LandRegistration.sol\":4958:4982  newLandOwner.gender = \"\" */\n      mload(0x40)\n      dup1\n      0x20\n      add\n      0x40\n      mstore\n      dup1\n      0x00\n      dup2\n      mstore\n      pop\n        /* \"LandRegistration.sol\":4958:4970  newLandOwner */\n      dup2\n        /* \"LandRegistration.sol\":4958:4977  newLandOwner.gender */\n      0x03\n      add\n        /* \"LandRegistration.sol\":4958:4982  newLandOwner.gender = \"\" */\n      swap1\n      dup1\n      mload\n      swap1\n      0x20\n      add\n      swap1\n      tag_342\n      swap3\n      swap2\n      swap1\n      tag_138\n      jump\t// in\n    tag_342:\n      pop\n        /* \"LandRegistration.sol\":4992:5015  newLandOwner.email = \"\" */\n      mload(0x40)\n      dup1\n      0x20\n      add\n      0x40\n      mstore\n      dup1\n      0x00\n      dup2\n      mstore\n      pop\n        /* \"LandRegistration.sol\":4992:5004  newLandOwner */\n      dup2\n        /* \"LandRegistration.sol\":4992:5010  newLandOwner.email */\n      0x04\n      add\n        /* \"LandRegistration.sol\":4992:5015  newLandOwner.email = \"\" */\n      swap1\n      dup1\n      mload\n      swap1\n      0x20\n      add\n      swap1\n      tag_343\n      swap3\n      swap2\n      swap1\n      tag_138\n      jump\t// in\n    tag_343:\n      pop\n        /* \"LandRegistration.sol\":5025:5054  newLandOwner.phoneNumber = \"\" */\n      mload(0x40)\n      dup1\n      0x20\n      add\n      0x40\n      mstore\n      dup1\n      0x00\n      dup2\n      mstore\n      pop\n        /* \"LandRegistration.sol\":5025:5037  newLandOwner */\n      dup2\n        /* \"LandRegistration.sol\":5025:5049  newLandOwner.phoneNumber */\n      0x05\n      add\n        /* \"LandRegistration.sol\":5025:5054  newLandOwner.phoneNumber = \"\" */\n      swap1\n      dup1\n      mload\n      swap1\n      0x20\n      add\n      swap1\n      tag_344\n      swap3\n      swap2\n      swap1\n      tag_138\n      jump\t// in\n    tag_344:\n      pop\n        /* \"LandRegistration.sol\":5064:5087  newLandOwner.poBox = \"\" */\n      mload(0x40)\n      dup1\n      0x20\n      add\n      0x40\n      mstore\n      dup1\n      0x00\n      dup2\n      mstore\n      pop\n        /* \"LandRegistration.sol\":5064:5076  newLandOwner */\n      dup2\n        /* \"LandRegistration.sol\":5064:5082  newLandOwner.poBox */\n      0x06\n      add\n        /* \"LandRegistration.sol\":5064:5087  newLandOwner.poBox = \"\" */\n      swap1\n      dup1\n      mload\n      swap1\n      0x20\n      add\n      swap1\n      tag_345\n      swap3\n      swap2\n      swap1\n      tag_138\n      jump\t// in\n    tag_345:\n      pop\n        /* \"LandRegistration.sol\":5097:5123  newLandOwner.location = \"\" */\n      mload(0x40)\n      dup1\n      0x20\n      add\n      0x40\n      mstore\n      dup1\n      0x00\n      dup2\n      mstore\n      pop\n        /* \"LandRegistration.sol\":5097:5109  newLandOwner */\n      dup2\n        /* \"LandRegistration.sol\":5097:5118  newLandOwner.location */\n      0x07\n      add\n        /* \"LandRegistration.sol\":5097:5123  newLandOwner.location = \"\" */\n      swap1\n      dup1\n      mload\n      swap1\n      0x20\n      add\n      swap1\n      tag_346\n      swap3\n      swap2\n      swap1\n      tag_138\n      jump\t// in\n    tag_346:\n      pop\n        /* \"LandRegistration.sol\":5165:5175  msg.sender */\n      caller\n        /* \"LandRegistration.sol\":5133:5145  newLandOwner */\n      dup2\n        /* \"LandRegistration.sol\":5133:5162  newLandOwner.landOwnerAddress */\n      0x08\n      add\n      0x00\n        /* \"LandRegistration.sol\":5133:5175  newLandOwner.landOwnerAddress = msg.sender */\n      0x0100\n      exp\n      dup2\n      sload\n      dup2\n      0xffffffffffffffffffffffffffffffffffffffff\n      mul\n      not\n      and\n      swap1\n      dup4\n      0xffffffffffffffffffffffffffffffffffffffff\n      and\n      mul\n      or\n      swap1\n      sstore\n      pop\n        /* \"LandRegistration.sol\":5193:5197  true */\n      0x01\n        /* \"LandRegistration.sol\":5186:5197  return true */\n      swap2\n      pop\n      pop\n        /* \"LandRegistration.sol\":4627:5204  function registerLandOwner() public returns(bool){... */\n    tag_337:\n      swap1\n      jump\t// out\n        /* \"LandRegistration.sol\":2692:2819  function deactivateAdmin(address adminAddress) public restrictToSuperAdmin {... */\n    tag_131:\n        /* \"LandRegistration.sol\":1682:1699  superAdminAddress */\n      0x00\n      dup1\n      sload\n      swap1\n      0x0100\n      exp\n      swap1\n      div\n      0xffffffffffffffffffffffffffffffffffffffff\n      and\n        /* \"LandRegistration.sol\":1668:1699  msg.sender == superAdminAddress */\n      0xffffffffffffffffffffffffffffffffffffffff\n      and\n        /* \"LandRegistration.sol\":1668:1678  msg.sender */\n      caller\n        /* \"LandRegistration.sol\":1668:1699  msg.sender == superAdminAddress */\n      0xffffffffffffffffffffffffffffffffffffffff\n      and\n      eq\n        /* \"LandRegistration.sol\":1660:1700  require(msg.sender == superAdminAddress) */\n      tag_348\n      jumpi\n      0x00\n      dup1\n      revert\n    tag_348:\n        /* \"LandRegistration.sol\":2807:2812  false */\n      0x00\n        /* \"LandRegistration.sol\":2777:2783  admins */\n      0x02\n        /* \"LandRegistration.sol\":2777:2797  admins[adminAddress] */\n      0x00\n        /* \"LandRegistration.sol\":2784:2796  adminAddress */\n      dup4\n        /* \"LandRegistration.sol\":2777:2797  admins[adminAddress] */\n      0xffffffffffffffffffffffffffffffffffffffff\n      and\n      0xffffffffffffffffffffffffffffffffffffffff\n      and\n      dup2\n      mstore\n      0x20\n      add\n      swap1\n      dup2\n      mstore\n      0x20\n      add\n      0x00\n      keccak256\n        /* \"LandRegistration.sol\":2777:2804  admins[adminAddress].active */\n      0x04\n      add\n      0x00\n        /* \"LandRegistration.sol\":2777:2812  admins[adminAddress].active = false */\n      0x0100\n      exp\n      dup2\n      sload\n      dup2\n      0xff\n      mul\n      not\n      and\n      swap1\n      dup4\n      iszero\n      iszero\n      mul\n      or\n      swap1\n      sstore\n      pop\n        /* \"LandRegistration.sol\":2692:2819  function deactivateAdmin(address adminAddress) public restrictToSuperAdmin {... */\n      pop\n      jump\t// out\n        /* \"LandRegistration.sol\":1468:1610  function equal(string memory a, string memory b) private pure returns(bool) {... */\n    tag_327:\n        /* \"LandRegistration.sol\":1538:1542  bool */\n      0x00\n        /* \"LandRegistration.sol\":1600:1601  b */\n      dup2\n        /* \"LandRegistration.sol\":1584:1603  keccak256(bytes(b)) */\n      dup1\n      mload\n      swap1\n      0x20\n      add\n      keccak256\n        /* \"LandRegistration.sol\":1577:1578  a */\n      dup4\n        /* \"LandRegistration.sol\":1561:1580  keccak256(bytes(a)) */\n      dup1\n      mload\n      swap1\n      0x20\n      add\n      keccak256\n        /* \"LandRegistration.sol\":1561:1603  keccak256(bytes(a)) == keccak256(bytes(b)) */\n      eq\n        /* \"LandRegistration.sol\":1554:1603  return keccak256(bytes(a)) == keccak256(bytes(b)) */\n      swap1\n      pop\n        /* \"LandRegistration.sol\":1468:1610  function equal(string memory a, string memory b) private pure returns(bool) {... */\n      swap3\n      swap2\n      pop\n      pop\n      jump\t// out\n    tag_138:\n      dup3\n      dup1\n      sload\n      tag_351\n      swap1\n      tag_148\n      jump\t// in\n    tag_351:\n      swap1\n      0x00\n      mstore\n      keccak256(0x00, 0x20)\n      swap1\n      0x1f\n      add\n      0x20\n      swap1\n      div\n      dup2\n      add\n      swap3\n      dup3\n      tag_353\n      jumpi\n      0x00\n      dup6\n      sstore\n      jump(tag_352)\n    tag_353:\n      dup3\n      0x1f\n      lt\n      tag_354\n      jumpi\n      dup1\n      mload\n      not(0xff)\n      and\n      dup4\n      dup1\n      add\n      or\n      dup6\n      sstore\n      jump(tag_352)\n    tag_354:\n      dup3\n      dup1\n      add\n      0x01\n      add\n      dup6\n      sstore\n      dup3\n      iszero\n      tag_352\n      jumpi\n      swap2\n      dup3\n      add\n    tag_355:\n      dup3\n      dup2\n      gt\n      iszero\n      tag_356\n      jumpi\n      dup3\n      mload\n      dup3\n      sstore\n      swap2\n      0x20\n      add\n      swap2\n      swap1\n      0x01\n      add\n      swap1\n      jump(tag_355)\n    tag_356:\n    tag_352:\n      pop\n      swap1\n      pop\n      tag_357\n      swap2\n      swap1\n      tag_358\n      jump\t// in\n    tag_357:\n      pop\n      swap1\n      jump\t// out\n    tag_204:\n      mload(0x40)\n      dup1\n      0xa0\n      add\n      0x40\n      mstore\n      dup1\n      0x60\n      dup2\n      mstore\n      0x20\n      add\n      0x60\n      dup2\n      mstore\n      0x20\n      add\n      and(0xffffffffffffffffffffffffffffffffffffffff, 0x00)\n      dup2\n      mstore\n      0x20\n      add\n      0x60\n      dup2\n      mstore\n      0x20\n      add\n      iszero(iszero(0x00))\n      dup2\n      mstore\n      pop\n      swap1\n      jump\t// out\n    tag_239:\n      dup3\n      dup1\n      sload\n      tag_359\n      swap1\n      tag_148\n      jump\t// in\n    tag_359:\n      swap1\n      0x00\n      mstore\n      keccak256(0x00, 0x20)\n      swap1\n      0x1f\n      add\n      0x20\n      swap1\n      div\n      dup2\n      add\n      swap3\n      dup3\n      tag_361\n      jumpi\n      0x00\n      dup6\n      sstore\n      jump(tag_360)\n    tag_361:\n      dup3\n      0x1f\n      lt\n      tag_362\n      jumpi\n      dup1\n      sload\n      dup6\n      sstore\n      jump(tag_360)\n    tag_362:\n      dup3\n      dup1\n      add\n      0x01\n      add\n      dup6\n      sstore\n      dup3\n      iszero\n      tag_360\n      jumpi\n      0x00\n      mstore\n      keccak256(0x00, 0x20)\n      swap2\n      0x1f\n      add\n      0x20\n      swap1\n      div\n      dup3\n      add\n    tag_363:\n      dup3\n      dup2\n      gt\n      iszero\n      tag_364\n      jumpi\n      dup3\n      sload\n      dup3\n      sstore\n      swap2\n      0x01\n      add\n      swap2\n      swap1\n      0x01\n      add\n      swap1\n      jump(tag_363)\n    tag_364:\n    tag_360:\n      pop\n      swap1\n      pop\n      tag_365\n      swap2\n      swap1\n      tag_358\n      jump\t// in\n    tag_365:\n      pop\n      swap1\n      jump\t// out\n    tag_358:\n    tag_366:\n      dup1\n      dup3\n      gt\n      iszero\n      tag_367\n      jumpi\n      0x00\n      dup2\n      0x00\n      swap1\n      sstore\n      pop\n      0x01\n      add\n      jump(tag_366)\n    tag_367:\n      pop\n      swap1\n      jump\t// out\n        /* \"#utility.yul\":7:133   */\n    tag_368:\n        /* \"#utility.yul\":44:51   */\n      0x00\n        /* \"#utility.yul\":84:126   */\n      0xffffffffffffffffffffffffffffffffffffffff\n        /* \"#utility.yul\":77:82   */\n      dup3\n        /* \"#utility.yul\":73:127   */\n      and\n        /* \"#utility.yul\":62:127   */\n      swap1\n      pop\n        /* \"#utility.yul\":7:133   */\n      swap2\n      swap1\n      pop\n      jump\t// out\n        /* \"#utility.yul\":139:235   */\n    tag_369:\n        /* \"#utility.yul\":176:183   */\n      0x00\n        /* \"#utility.yul\":205:229   */\n      tag_420\n        /* \"#utility.yul\":223:228   */\n      dup3\n        /* \"#utility.yul\":205:229   */\n      tag_368\n      jump\t// in\n    tag_420:\n        /* \"#utility.yul\":194:229   */\n      swap1\n      pop\n        /* \"#utility.yul\":139:235   */\n      swap2\n      swap1\n      pop\n      jump\t// out\n        /* \"#utility.yul\":241:359   */\n    tag_370:\n        /* \"#utility.yul\":328:352   */\n      tag_422\n        /* \"#utility.yul\":346:351   */\n      dup2\n        /* \"#utility.yul\":328:352   */\n      tag_369\n      jump\t// in\n    tag_422:\n        /* \"#utility.yul\":323:326   */\n      dup3\n        /* \"#utility.yul\":316:353   */\n      mstore\n        /* \"#utility.yul\":241:359   */\n      pop\n      pop\n      jump\t// out\n        /* \"#utility.yul\":365:587   */\n    tag_35:\n        /* \"#utility.yul\":458:462   */\n      0x00\n        /* \"#utility.yul\":496:498   */\n      0x20\n        /* \"#utility.yul\":485:494   */\n      dup3\n        /* \"#utility.yul\":481:499   */\n      add\n        /* \"#utility.yul\":473:499   */\n      swap1\n      pop\n        /* \"#utility.yul\":509:580   */\n      tag_424\n        /* \"#utility.yul\":577:578   */\n      0x00\n        /* \"#utility.yul\":566:575   */\n      dup4\n        /* \"#utility.yul\":562:579   */\n      add\n        /* \"#utility.yul\":553:559   */\n      dup5\n        /* \"#utility.yul\":509:580   */\n      tag_370\n      jump\t// in\n    tag_424:\n        /* \"#utility.yul\":365:587   */\n      swap3\n      swap2\n      pop\n      pop\n      jump\t// out\n        /* \"#utility.yul\":593:668   */\n    tag_371:\n        /* \"#utility.yul\":626:632   */\n      0x00\n        /* \"#utility.yul\":659:661   */\n      0x40\n        /* \"#utility.yul\":653:662   */\n      mload\n        /* \"#utility.yul\":643:662   */\n      swap1\n      pop\n        /* \"#utility.yul\":593:668   */\n      swap1\n      jump\t// out\n        /* \"#utility.yul\":674:791   */\n    tag_372:\n        /* \"#utility.yul\":783:784   */\n      0x00\n        /* \"#utility.yul\":780:781   */\n      dup1\n        /* \"#utility.yul\":773:785   */\n      revert\n        /* \"#utility.yul\":797:914   */\n    tag_373:\n        /* \"#utility.yul\":906:907   */\n      0x00\n        /* \"#utility.yul\":903:904   */\n      dup1\n        /* \"#utility.yul\":896:908   */\n      revert\n        /* \"#utility.yul\":920:997   */\n    tag_374:\n        /* \"#utility.yul\":957:964   */\n      0x00\n        /* \"#utility.yul\":986:991   */\n      dup2\n        /* \"#utility.yul\":975:991   */\n      swap1\n      pop\n        /* \"#utility.yul\":920:997   */\n      swap2\n      swap1\n      pop\n      jump\t// out\n        /* \"#utility.yul\":1003:1125   */\n    tag_375:\n        /* \"#utility.yul\":1076:1100   */\n      tag_430\n        /* \"#utility.yul\":1094:1099   */\n      dup2\n        /* \"#utility.yul\":1076:1100   */\n      tag_374\n      jump\t// in\n    tag_430:\n        /* \"#utility.yul\":1069:1074   */\n      dup2\n        /* \"#utility.yul\":1066:1101   */\n      eq\n        /* \"#utility.yul\":1056:1119   */\n      tag_431\n      jumpi\n        /* \"#utility.yul\":1115:1116   */\n      0x00\n        /* \"#utility.yul\":1112:1113   */\n      dup1\n        /* \"#utility.yul\":1105:1117   */\n      revert\n        /* \"#utility.yul\":1056:1119   */\n    tag_431:\n        /* \"#utility.yul\":1003:1125   */\n      pop\n      jump\t// out\n        /* \"#utility.yul\":1131:1270   */\n    tag_376:\n        /* \"#utility.yul\":1177:1182   */\n      0x00\n        /* \"#utility.yul\":1215:1221   */\n      dup2\n        /* \"#utility.yul\":1202:1222   */\n      calldataload\n        /* \"#utility.yul\":1193:1222   */\n      swap1\n      pop\n        /* \"#utility.yul\":1231:1264   */\n      tag_433\n        /* \"#utility.yul\":1258:1263   */\n      dup2\n        /* \"#utility.yul\":1231:1264   */\n      tag_375\n      jump\t// in\n    tag_433:\n        /* \"#utility.yul\":1131:1270   */\n      swap3\n      swap2\n      pop\n      pop\n      jump\t// out\n        /* \"#utility.yul\":1276:1605   */\n    tag_38:\n        /* \"#utility.yul\":1335:1341   */\n      0x00\n        /* \"#utility.yul\":1384:1386   */\n      0x20\n        /* \"#utility.yul\":1372:1381   */\n      dup3\n        /* \"#utility.yul\":1363:1370   */\n      dup5\n        /* \"#utility.yul\":1359:1382   */\n      sub\n        /* \"#utility.yul\":1355:1387   */\n      slt\n        /* \"#utility.yul\":1352:1471   */\n      iszero\n      tag_435\n      jumpi\n        /* \"#utility.yul\":1390:1469   */\n      tag_436\n      tag_372\n      jump\t// in\n    tag_436:\n        /* \"#utility.yul\":1352:1471   */\n    tag_435:\n        /* \"#utility.yul\":1510:1511   */\n      0x00\n        /* \"#utility.yul\":1535:1588   */\n      tag_437\n        /* \"#utility.yul\":1580:1587   */\n      dup5\n        /* \"#utility.yul\":1571:1577   */\n      dup3\n        /* \"#utility.yul\":1560:1569   */\n      dup6\n        /* \"#utility.yul\":1556:1578   */\n      add\n        /* \"#utility.yul\":1535:1588   */\n      tag_376\n      jump\t// in\n    tag_437:\n        /* \"#utility.yul\":1525:1588   */\n      swap2\n      pop\n        /* \"#utility.yul\":1481:1598   */\n      pop\n        /* \"#utility.yul\":1276:1605   */\n      swap3\n      swap2\n      pop\n      pop\n      jump\t// out\n        /* \"#utility.yul\":1611:1728   */\n    tag_377:\n        /* \"#utility.yul\":1720:1721   */\n      0x00\n        /* \"#utility.yul\":1717:1718   */\n      dup1\n        /* \"#utility.yul\":1710:1722   */\n      revert\n        /* \"#utility.yul\":1734:1851   */\n    tag_378:\n        /* \"#utility.yul\":1843:1844   */\n      0x00\n        /* \"#utility.yul\":1840:1841   */\n      dup1\n        /* \"#utility.yul\":1833:1845   */\n      revert\n        /* \"#utility.yul\":1857:1959   */\n    tag_379:\n        /* \"#utility.yul\":1898:1904   */\n      0x00\n        /* \"#utility.yul\":1949:1951   */\n      0x1f\n        /* \"#utility.yul\":1945:1952   */\n      not\n        /* \"#utility.yul\":1940:1942   */\n      0x1f\n        /* \"#utility.yul\":1933:1938   */\n      dup4\n        /* \"#utility.yul\":1929:1943   */\n      add\n        /* \"#utility.yul\":1925:1953   */\n      and\n        /* \"#utility.yul\":1915:1953   */\n      swap1\n      pop\n        /* \"#utility.yul\":1857:1959   */\n      swap2\n      swap1\n      pop\n      jump\t// out\n        /* \"#utility.yul\":1965:2145   */\n    tag_380:\n        /* \"#utility.yul\":2013:2090   */\n      0x4e487b7100000000000000000000000000000000000000000000000000000000\n        /* \"#utility.yul\":2010:2011   */\n      0x00\n        /* \"#utility.yul\":2003:2091   */\n      mstore\n        /* \"#utility.yul\":2110:2114   */\n      0x41\n        /* \"#utility.yul\":2107:2108   */\n      0x04\n        /* \"#utility.yul\":2100:2115   */\n      mstore\n        /* \"#utility.yul\":2134:2138   */\n      0x24\n        /* \"#utility.yul\":2131:2132   */\n      0x00\n        /* \"#utility.yul\":2124:2139   */\n      revert\n        /* \"#utility.yul\":2151:2432   */\n    tag_381:\n        /* \"#utility.yul\":2234:2261   */\n      tag_443\n        /* \"#utility.yul\":2256:2260   */\n      dup3\n        /* \"#utility.yul\":2234:2261   */\n      tag_379\n      jump\t// in\n    tag_443:\n        /* \"#utility.yul\":2226:2232   */\n      dup2\n        /* \"#utility.yul\":2222:2262   */\n      add\n        /* \"#utility.yul\":2364:2370   */\n      dup2\n        /* \"#utility.yul\":2352:2362   */\n      dup2\n        /* \"#utility.yul\":2349:2371   */\n      lt\n        /* \"#utility.yul\":2328:2346   */\n      0xffffffffffffffff\n        /* \"#utility.yul\":2316:2326   */\n      dup3\n        /* \"#utility.yul\":2313:2347   */\n      gt\n        /* \"#utility.yul\":2310:2372   */\n      or\n        /* \"#utility.yul\":2307:2395   */\n      iszero\n      tag_444\n      jumpi\n        /* \"#utility.yul\":2375:2393   */\n      tag_445\n      tag_380\n      jump\t// in\n    tag_445:\n        /* \"#utility.yul\":2307:2395   */\n    tag_444:\n        /* \"#utility.yul\":2415:2425   */\n      dup1\n        /* \"#utility.yul\":2411:2413   */\n      0x40\n        /* \"#utility.yul\":2404:2426   */\n      mstore\n        /* \"#utility.yul\":2194:2432   */\n      pop\n        /* \"#utility.yul\":2151:2432   */\n      pop\n      pop\n      jump\t// out\n        /* \"#utility.yul\":2438:2567   */\n    tag_382:\n        /* \"#utility.yul\":2472:2478   */\n      0x00\n        /* \"#utility.yul\":2499:2519   */\n      tag_447\n      tag_371\n      jump\t// in\n    tag_447:\n        /* \"#utility.yul\":2489:2519   */\n      swap1\n      pop\n        /* \"#utility.yul\":2528:2561   */\n      tag_448\n        /* \"#utility.yul\":2556:2560   */\n      dup3\n        /* \"#utility.yul\":2548:2554   */\n      dup3\n        /* \"#utility.yul\":2528:2561   */\n      tag_381\n      jump\t// in\n    tag_448:\n        /* \"#utility.yul\":2438:2567   */\n      swap2\n      swap1\n      pop\n      jump\t// out\n        /* \"#utility.yul\":2573:2881   */\n    tag_383:\n        /* \"#utility.yul\":2635:2639   */\n      0x00\n        /* \"#utility.yul\":2725:2743   */\n      0xffffffffffffffff\n        /* \"#utility.yul\":2717:2723   */\n      dup3\n        /* \"#utility.yul\":2714:2744   */\n      gt\n        /* \"#utility.yul\":2711:2767   */\n      iszero\n      tag_450\n      jumpi\n        /* \"#utility.yul\":2747:2765   */\n      tag_451\n      tag_380\n      jump\t// in\n    tag_451:\n        /* \"#utility.yul\":2711:2767   */\n    tag_450:\n        /* \"#utility.yul\":2785:2814   */\n      tag_452\n        /* \"#utility.yul\":2807:2813   */\n      dup3\n        /* \"#utility.yul\":2785:2814   */\n      tag_379\n      jump\t// in\n    tag_452:\n        /* \"#utility.yul\":2777:2814   */\n      swap1\n      pop\n        /* \"#utility.yul\":2869:2873   */\n      0x20\n        /* \"#utility.yul\":2863:2867   */\n      dup2\n        /* \"#utility.yul\":2859:2874   */\n      add\n        /* \"#utility.yul\":2851:2874   */\n      swap1\n      pop\n        /* \"#utility.yul\":2573:2881   */\n      swap2\n      swap1\n      pop\n      jump\t// out\n        /* \"#utility.yul\":2887:3041   */\n    tag_384:\n        /* \"#utility.yul\":2971:2977   */\n      dup3\n        /* \"#utility.yul\":2966:2969   */\n      dup2\n        /* \"#utility.yul\":2961:2964   */\n      dup4\n        /* \"#utility.yul\":2948:2978   */\n      calldatacopy\n        /* \"#utility.yul\":3033:3034   */\n      0x00\n        /* \"#utility.yul\":3024:3030   */\n      dup4\n        /* \"#utility.yul\":3019:3022   */\n      dup4\n        /* \"#utility.yul\":3015:3031   */\n      add\n        /* \"#utility.yul\":3008:3035   */\n      mstore\n        /* \"#utility.yul\":2887:3041   */\n      pop\n      pop\n      pop\n      jump\t// out\n        /* \"#utility.yul\":3047:3459   */\n    tag_385:\n        /* \"#utility.yul\":3125:3130   */\n      0x00\n        /* \"#utility.yul\":3150:3216   */\n      tag_455\n        /* \"#utility.yul\":3166:3215   */\n      tag_456\n        /* \"#utility.yul\":3208:3214   */\n      dup5\n        /* \"#utility.yul\":3166:3215   */\n      tag_383\n      jump\t// in\n    tag_456:\n        /* \"#utility.yul\":3150:3216   */\n      tag_382\n      jump\t// in\n    tag_455:\n        /* \"#utility.yul\":3141:3216   */\n      swap1\n      pop\n        /* \"#utility.yul\":3239:3245   */\n      dup3\n        /* \"#utility.yul\":3232:3237   */\n      dup2\n        /* \"#utility.yul\":3225:3246   */\n      mstore\n        /* \"#utility.yul\":3277:3281   */\n      0x20\n        /* \"#utility.yul\":3270:3275   */\n      dup2\n        /* \"#utility.yul\":3266:3282   */\n      add\n        /* \"#utility.yul\":3315:3318   */\n      dup5\n        /* \"#utility.yul\":3306:3312   */\n      dup5\n        /* \"#utility.yul\":3301:3304   */\n      dup5\n        /* \"#utility.yul\":3297:3313   */\n      add\n        /* \"#utility.yul\":3294:3319   */\n      gt\n        /* \"#utility.yul\":3291:3403   */\n      iszero\n      tag_457\n      jumpi\n        /* \"#utility.yul\":3322:3401   */\n      tag_458\n      tag_378\n      jump\t// in\n    tag_458:\n        /* \"#utility.yul\":3291:3403   */\n    tag_457:\n        /* \"#utility.yul\":3412:3453   */\n      tag_459\n        /* \"#utility.yul\":3446:3452   */\n      dup5\n        /* \"#utility.yul\":3441:3444   */\n      dup3\n        /* \"#utility.yul\":3436:3439   */\n      dup6\n        /* \"#utility.yul\":3412:3453   */\n      tag_384\n      jump\t// in\n    tag_459:\n        /* \"#utility.yul\":3131:3459   */\n      pop\n        /* \"#utility.yul\":3047:3459   */\n      swap4\n      swap3\n      pop\n      pop\n      pop\n      jump\t// out\n        /* \"#utility.yul\":3479:3819   */\n    tag_386:\n        /* \"#utility.yul\":3535:3540   */\n      0x00\n        /* \"#utility.yul\":3584:3587   */\n      dup3\n        /* \"#utility.yul\":3577:3581   */\n      0x1f\n        /* \"#utility.yul\":3569:3575   */\n      dup4\n        /* \"#utility.yul\":3565:3582   */\n      add\n        /* \"#utility.yul\":3561:3588   */\n      slt\n        /* \"#utility.yul\":3551:3673   */\n      tag_461\n      jumpi\n        /* \"#utility.yul\":3592:3671   */\n      tag_462\n      tag_377\n      jump\t// in\n    tag_462:\n        /* \"#utility.yul\":3551:3673   */\n    tag_461:\n        /* \"#utility.yul\":3709:3715   */\n      dup2\n        /* \"#utility.yul\":3696:3716   */\n      calldataload\n        /* \"#utility.yul\":3734:3813   */\n      tag_463\n        /* \"#utility.yul\":3809:3812   */\n      dup5\n        /* \"#utility.yul\":3801:3807   */\n      dup3\n        /* \"#utility.yul\":3794:3798   */\n      0x20\n        /* \"#utility.yul\":3786:3792   */\n      dup7\n        /* \"#utility.yul\":3782:3799   */\n      add\n        /* \"#utility.yul\":3734:3813   */\n      tag_385\n      jump\t// in\n    tag_463:\n        /* \"#utility.yul\":3725:3813   */\n      swap2\n      pop\n        /* \"#utility.yul\":3541:3819   */\n      pop\n        /* \"#utility.yul\":3479:3819   */\n      swap3\n      swap2\n      pop\n      pop\n      jump\t// out\n        /* \"#utility.yul\":3825:3947   */\n    tag_387:\n        /* \"#utility.yul\":3898:3922   */\n      tag_465\n        /* \"#utility.yul\":3916:3921   */\n      dup2\n        /* \"#utility.yul\":3898:3922   */\n      tag_369\n      jump\t// in\n    tag_465:\n        /* \"#utility.yul\":3891:3896   */\n      dup2\n        /* \"#utility.yul\":3888:3923   */\n      eq\n        /* \"#utility.yul\":3878:3941   */\n      tag_466\n      jumpi\n        /* \"#utility.yul\":3937:3938   */\n      0x00\n        /* \"#utility.yul\":3934:3935   */\n      dup1\n        /* \"#utility.yul\":3927:3939   */\n      revert\n        /* \"#utility.yul\":3878:3941   */\n    tag_466:\n        /* \"#utility.yul\":3825:3947   */\n      pop\n      jump\t// out\n        /* \"#utility.yul\":3953:4092   */\n    tag_388:\n        /* \"#utility.yul\":3999:4004   */\n      0x00\n        /* \"#utility.yul\":4037:4043   */\n      dup2\n        /* \"#utility.yul\":4024:4044   */\n      calldataload\n        /* \"#utility.yul\":4015:4044   */\n      swap1\n      pop\n        /* \"#utility.yul\":4053:4086   */\n      tag_468\n        /* \"#utility.yul\":4080:4085   */\n      dup2\n        /* \"#utility.yul\":4053:4086   */\n      tag_387\n      jump\t// in\n    tag_468:\n        /* \"#utility.yul\":3953:4092   */\n      swap3\n      swap2\n      pop\n      pop\n      jump\t// out\n        /* \"#utility.yul\":4098:5403   */\n    tag_43:\n        /* \"#utility.yul\":4214:4220   */\n      0x00\n        /* \"#utility.yul\":4222:4228   */\n      dup1\n        /* \"#utility.yul\":4230:4236   */\n      0x00\n        /* \"#utility.yul\":4238:4244   */\n      dup1\n        /* \"#utility.yul\":4287:4290   */\n      0x80\n        /* \"#utility.yul\":4275:4284   */\n      dup6\n        /* \"#utility.yul\":4266:4273   */\n      dup8\n        /* \"#utility.yul\":4262:4285   */\n      sub\n        /* \"#utility.yul\":4258:4291   */\n      slt\n        /* \"#utility.yul\":4255:4375   */\n      iszero\n      tag_470\n      jumpi\n        /* \"#utility.yul\":4294:4373   */\n      tag_471\n      tag_372\n      jump\t// in\n    tag_471:\n        /* \"#utility.yul\":4255:4375   */\n    tag_470:\n        /* \"#utility.yul\":4442:4443   */\n      0x00\n        /* \"#utility.yul\":4431:4440   */\n      dup6\n        /* \"#utility.yul\":4427:4444   */\n      add\n        /* \"#utility.yul\":4414:4445   */\n      calldataload\n        /* \"#utility.yul\":4472:4490   */\n      0xffffffffffffffff\n        /* \"#utility.yul\":4464:4470   */\n      dup2\n        /* \"#utility.yul\":4461:4491   */\n      gt\n        /* \"#utility.yul\":4458:4575   */\n      iszero\n      tag_472\n      jumpi\n        /* \"#utility.yul\":4494:4573   */\n      tag_473\n      tag_373\n      jump\t// in\n    tag_473:\n        /* \"#utility.yul\":4458:4575   */\n    tag_472:\n        /* \"#utility.yul\":4599:4662   */\n      tag_474\n        /* \"#utility.yul\":4654:4661   */\n      dup8\n        /* \"#utility.yul\":4645:4651   */\n      dup3\n        /* \"#utility.yul\":4634:4643   */\n      dup9\n        /* \"#utility.yul\":4630:4652   */\n      add\n        /* \"#utility.yul\":4599:4662   */\n      tag_386\n      jump\t// in\n    tag_474:\n        /* \"#utility.yul\":4589:4662   */\n      swap5\n      pop\n        /* \"#utility.yul\":4385:4672   */\n      pop\n        /* \"#utility.yul\":4739:4741   */\n      0x20\n        /* \"#utility.yul\":4728:4737   */\n      dup6\n        /* \"#utility.yul\":4724:4742   */\n      add\n        /* \"#utility.yul\":4711:4743   */\n      calldataload\n        /* \"#utility.yul\":4770:4788   */\n      0xffffffffffffffff\n        /* \"#utility.yul\":4762:4768   */\n      dup2\n        /* \"#utility.yul\":4759:4789   */\n      gt\n        /* \"#utility.yul\":4756:4873   */\n      iszero\n      tag_475\n      jumpi\n        /* \"#utility.yul\":4792:4871   */\n      tag_476\n      tag_373\n      jump\t// in\n    tag_476:\n        /* \"#utility.yul\":4756:4873   */\n    tag_475:\n        /* \"#utility.yul\":4897:4960   */\n      tag_477\n        /* \"#utility.yul\":4952:4959   */\n      dup8\n        /* \"#utility.yul\":4943:4949   */\n      dup3\n        /* \"#utility.yul\":4932:4941   */\n      dup9\n        /* \"#utility.yul\":4928:4950   */\n      add\n        /* \"#utility.yul\":4897:4960   */\n      tag_386\n      jump\t// in\n    tag_477:\n        /* \"#utility.yul\":4887:4960   */\n      swap4\n      pop\n        /* \"#utility.yul\":4682:4970   */\n      pop\n        /* \"#utility.yul\":5037:5039   */\n      0x40\n        /* \"#utility.yul\":5026:5035   */\n      dup6\n        /* \"#utility.yul\":5022:5040   */\n      add\n        /* \"#utility.yul\":5009:5041   */\n      calldataload\n        /* \"#utility.yul\":5068:5086   */\n      0xffffffffffffffff\n        /* \"#utility.yul\":5060:5066   */\n      dup2\n        /* \"#utility.yul\":5057:5087   */\n      gt\n        /* \"#utility.yul\":5054:5171   */\n      iszero\n      tag_478\n      jumpi\n        /* \"#utility.yul\":5090:5169   */\n      tag_479\n      tag_373\n      jump\t// in\n    tag_479:\n        /* \"#utility.yul\":5054:5171   */\n    tag_478:\n        /* \"#utility.yul\":5195:5258   */\n      tag_480\n        /* \"#utility.yul\":5250:5257   */\n      dup8\n        /* \"#utility.yul\":5241:5247   */\n      dup3\n        /* \"#utility.yul\":5230:5239   */\n      dup9\n        /* \"#utility.yul\":5226:5248   */\n      add\n        /* \"#utility.yul\":5195:5258   */\n      tag_386\n      jump\t// in\n    tag_480:\n        /* \"#utility.yul\":5185:5258   */\n      swap3\n      pop\n        /* \"#utility.yul\":4980:5268   */\n      pop\n        /* \"#utility.yul\":5307:5309   */\n      0x60\n        /* \"#utility.yul\":5333:5386   */\n      tag_481\n        /* \"#utility.yul\":5378:5385   */\n      dup8\n        /* \"#utility.yul\":5369:5375   */\n      dup3\n        /* \"#utility.yul\":5358:5367   */\n      dup9\n        /* \"#utility.yul\":5354:5376   */\n      add\n        /* \"#utility.yul\":5333:5386   */\n      tag_388\n      jump\t// in\n    tag_481:\n        /* \"#utility.yul\":5323:5386   */\n      swap2\n      pop\n        /* \"#utility.yul\":5278:5396   */\n      pop\n        /* \"#utility.yul\":4098:5403   */\n      swap3\n      swap6\n      swap2\n      swap5\n      pop\n      swap3\n      pop\n      jump\t// out\n        /* \"#utility.yul\":5409:5533   */\n    tag_389:\n        /* \"#utility.yul\":5486:5492   */\n      0x00\n        /* \"#utility.yul\":5520:5525   */\n      dup2\n        /* \"#utility.yul\":5514:5526   */\n      mload\n        /* \"#utility.yul\":5504:5526   */\n      swap1\n      pop\n        /* \"#utility.yul\":5409:5533   */\n      swap2\n      swap1\n      pop\n      jump\t// out\n        /* \"#utility.yul\":5539:5733   */\n    tag_390:\n        /* \"#utility.yul\":5648:5659   */\n      0x00\n        /* \"#utility.yul\":5682:5688   */\n      dup3\n        /* \"#utility.yul\":5677:5680   */\n      dup3\n        /* \"#utility.yul\":5670:5689   */\n      mstore\n        /* \"#utility.yul\":5722:5726   */\n      0x20\n        /* \"#utility.yul\":5717:5720   */\n      dup3\n        /* \"#utility.yul\":5713:5727   */\n      add\n        /* \"#utility.yul\":5698:5727   */\n      swap1\n      pop\n        /* \"#utility.yul\":5539:5733   */\n      swap3\n      swap2\n      pop\n      pop\n      jump\t// out\n        /* \"#utility.yul\":5739:5881   */\n    tag_391:\n        /* \"#utility.yul\":5816:5820   */\n      0x00\n        /* \"#utility.yul\":5839:5842   */\n      dup2\n        /* \"#utility.yul\":5831:5842   */\n      swap1\n      pop\n        /* \"#utility.yul\":5869:5873   */\n      0x20\n        /* \"#utility.yul\":5864:5867   */\n      dup3\n        /* \"#utility.yul\":5860:5874   */\n      add\n        /* \"#utility.yul\":5852:5874   */\n      swap1\n      pop\n        /* \"#utility.yul\":5739:5881   */\n      swap2\n      swap1\n      pop\n      jump\t// out\n        /* \"#utility.yul\":5887:5986   */\n    tag_392:\n        /* \"#utility.yul\":5939:5945   */\n      0x00\n        /* \"#utility.yul\":5973:5978   */\n      dup2\n        /* \"#utility.yul\":5967:5979   */\n      mload\n        /* \"#utility.yul\":5957:5979   */\n      swap1\n      pop\n        /* \"#utility.yul\":5887:5986   */\n      swap2\n      swap1\n      pop\n      jump\t// out\n        /* \"#utility.yul\":5992:6151   */\n    tag_393:\n        /* \"#utility.yul\":6066:6077   */\n      0x00\n        /* \"#utility.yul\":6100:6106   */\n      dup3\n        /* \"#utility.yul\":6095:6098   */\n      dup3\n        /* \"#utility.yul\":6088:6107   */\n      mstore\n        /* \"#utility.yul\":6140:6144   */\n      0x20\n        /* \"#utility.yul\":6135:6138   */\n      dup3\n        /* \"#utility.yul\":6131:6145   */\n      add\n        /* \"#utility.yul\":6116:6145   */\n      swap1\n      pop\n        /* \"#utility.yul\":5992:6151   */\n      swap3\n      swap2\n      pop\n      pop\n      jump\t// out\n        /* \"#utility.yul\":6157:6464   */\n    tag_394:\n        /* \"#utility.yul\":6225:6226   */\n      0x00\n        /* \"#utility.yul\":6235:6348   */\n    tag_488:\n        /* \"#utility.yul\":6249:6255   */\n      dup4\n        /* \"#utility.yul\":6246:6247   */\n      dup2\n        /* \"#utility.yul\":6243:6256   */\n      lt\n        /* \"#utility.yul\":6235:6348   */\n      iszero\n      tag_490\n      jumpi\n        /* \"#utility.yul\":6334:6335   */\n      dup1\n        /* \"#utility.yul\":6329:6332   */\n      dup3\n        /* \"#utility.yul\":6325:6336   */\n      add\n        /* \"#utility.yul\":6319:6337   */\n      mload\n        /* \"#utility.yul\":6315:6316   */\n      dup2\n        /* \"#utility.yul\":6310:6313   */\n      dup5\n        /* \"#utility.yul\":6306:6317   */\n      add\n        /* \"#utility.yul\":6299:6338   */\n      mstore\n        /* \"#utility.yul\":6271:6273   */\n      0x20\n        /* \"#utility.yul\":6268:6269   */\n      dup2\n        /* \"#utility.yul\":6264:6274   */\n      add\n        /* \"#utility.yul\":6259:6274   */\n      swap1\n      pop\n        /* \"#utility.yul\":6235:6348   */\n      jump(tag_488)\n    tag_490:\n        /* \"#utility.yul\":6366:6372   */\n      dup4\n        /* \"#utility.yul\":6363:6364   */\n      dup2\n        /* \"#utility.yul\":6360:6373   */\n      gt\n        /* \"#utility.yul\":6357:6458   */\n      iszero\n      tag_491\n      jumpi\n        /* \"#utility.yul\":6446:6447   */\n      0x00\n        /* \"#utility.yul\":6437:6443   */\n      dup5\n        /* \"#utility.yul\":6432:6435   */\n      dup5\n        /* \"#utility.yul\":6428:6444   */\n      add\n        /* \"#utility.yul\":6421:6448   */\n      mstore\n        /* \"#utility.yul\":6357:6458   */\n    tag_491:\n        /* \"#utility.yul\":6206:6464   */\n      pop\n        /* \"#utility.yul\":6157:6464   */\n      pop\n      pop\n      pop\n      jump\t// out\n        /* \"#utility.yul\":6470:6814   */\n    tag_395:\n        /* \"#utility.yul\":6548:6551   */\n      0x00\n        /* \"#utility.yul\":6576:6615   */\n      tag_493\n        /* \"#utility.yul\":6609:6614   */\n      dup3\n        /* \"#utility.yul\":6576:6615   */\n      tag_392\n      jump\t// in\n    tag_493:\n        /* \"#utility.yul\":6631:6692   */\n      tag_494\n        /* \"#utility.yul\":6685:6691   */\n      dup2\n        /* \"#utility.yul\":6680:6683   */\n      dup6\n        /* \"#utility.yul\":6631:6692   */\n      tag_393\n      jump\t// in\n    tag_494:\n        /* \"#utility.yul\":6624:6692   */\n      swap4\n      pop\n        /* \"#utility.yul\":6701:6753   */\n      tag_495\n        /* \"#utility.yul\":6746:6752   */\n      dup2\n        /* \"#utility.yul\":6741:6744   */\n      dup6\n        /* \"#utility.yul\":6734:6738   */\n      0x20\n        /* \"#utility.yul\":6727:6732   */\n      dup7\n        /* \"#utility.yul\":6723:6739   */\n      add\n        /* \"#utility.yul\":6701:6753   */\n      tag_394\n      jump\t// in\n    tag_495:\n        /* \"#utility.yul\":6778:6807   */\n      tag_496\n        /* \"#utility.yul\":6800:6806   */\n      dup2\n        /* \"#utility.yul\":6778:6807   */\n      tag_379\n      jump\t// in\n    tag_496:\n        /* \"#utility.yul\":6773:6776   */\n      dup5\n        /* \"#utility.yul\":6769:6808   */\n      add\n        /* \"#utility.yul\":6762:6808   */\n      swap2\n      pop\n        /* \"#utility.yul\":6552:6814   */\n      pop\n        /* \"#utility.yul\":6470:6814   */\n      swap3\n      swap2\n      pop\n      pop\n      jump\t// out\n        /* \"#utility.yul\":6820:7016   */\n    tag_396:\n        /* \"#utility.yul\":6909:6919   */\n      0x00\n        /* \"#utility.yul\":6944:7010   */\n      tag_498\n        /* \"#utility.yul\":7006:7009   */\n      dup4\n        /* \"#utility.yul\":6998:7004   */\n      dup4\n        /* \"#utility.yul\":6944:7010   */\n      tag_395\n      jump\t// in\n    tag_498:\n        /* \"#utility.yul\":6930:7010   */\n      swap1\n      pop\n        /* \"#utility.yul\":6820:7016   */\n      swap3\n      swap2\n      pop\n      pop\n      jump\t// out\n        /* \"#utility.yul\":7022:7145   */\n    tag_397:\n        /* \"#utility.yul\":7102:7106   */\n      0x00\n        /* \"#utility.yul\":7134:7138   */\n      0x20\n        /* \"#utility.yul\":7129:7132   */\n      dup3\n        /* \"#utility.yul\":7125:7139   */\n      add\n        /* \"#utility.yul\":7117:7139   */\n      swap1\n      pop\n        /* \"#utility.yul\":7022:7145   */\n      swap2\n      swap1\n      pop\n      jump\t// out\n        /* \"#utility.yul\":7179:8170   */\n    tag_398:\n        /* \"#utility.yul\":7318:7321   */\n      0x00\n        /* \"#utility.yul\":7347:7411   */\n      tag_501\n        /* \"#utility.yul\":7405:7410   */\n      dup3\n        /* \"#utility.yul\":7347:7411   */\n      tag_389\n      jump\t// in\n    tag_501:\n        /* \"#utility.yul\":7427:7523   */\n      tag_502\n        /* \"#utility.yul\":7516:7522   */\n      dup2\n        /* \"#utility.yul\":7511:7514   */\n      dup6\n        /* \"#utility.yul\":7427:7523   */\n      tag_390\n      jump\t// in\n    tag_502:\n        /* \"#utility.yul\":7420:7523   */\n      swap4\n      pop\n        /* \"#utility.yul\":7549:7552   */\n      dup4\n        /* \"#utility.yul\":7594:7598   */\n      0x20\n        /* \"#utility.yul\":7586:7592   */\n      dup3\n        /* \"#utility.yul\":7582:7599   */\n      mul\n        /* \"#utility.yul\":7577:7580   */\n      dup6\n        /* \"#utility.yul\":7573:7600   */\n      add\n        /* \"#utility.yul\":7624:7690   */\n      tag_503\n        /* \"#utility.yul\":7684:7689   */\n      dup6\n        /* \"#utility.yul\":7624:7690   */\n      tag_391\n      jump\t// in\n    tag_503:\n        /* \"#utility.yul\":7713:7720   */\n      dup1\n        /* \"#utility.yul\":7744:7745   */\n      0x00\n        /* \"#utility.yul\":7729:8125   */\n    tag_504:\n        /* \"#utility.yul\":7754:7760   */\n      dup6\n        /* \"#utility.yul\":7751:7752   */\n      dup2\n        /* \"#utility.yul\":7748:7761   */\n      lt\n        /* \"#utility.yul\":7729:8125   */\n      iszero\n      tag_506\n      jumpi\n        /* \"#utility.yul\":7825:7834   */\n      dup5\n        /* \"#utility.yul\":7819:7823   */\n      dup5\n        /* \"#utility.yul\":7815:7835   */\n      sub\n        /* \"#utility.yul\":7810:7813   */\n      dup10\n        /* \"#utility.yul\":7803:7836   */\n      mstore\n        /* \"#utility.yul\":7876:7882   */\n      dup2\n        /* \"#utility.yul\":7870:7883   */\n      mload\n        /* \"#utility.yul\":7904:7988   */\n      tag_507\n        /* \"#utility.yul\":7983:7987   */\n      dup6\n        /* \"#utility.yul\":7968:7981   */\n      dup3\n        /* \"#utility.yul\":7904:7988   */\n      tag_396\n      jump\t// in\n    tag_507:\n        /* \"#utility.yul\":7896:7988   */\n      swap5\n      pop\n        /* \"#utility.yul\":8011:8081   */\n      tag_508\n        /* \"#utility.yul\":8074:8080   */\n      dup4\n        /* \"#utility.yul\":8011:8081   */\n      tag_397\n      jump\t// in\n    tag_508:\n        /* \"#utility.yul\":8001:8081   */\n      swap3\n      pop\n        /* \"#utility.yul\":8110:8114   */\n      0x20\n        /* \"#utility.yul\":8105:8108   */\n      dup11\n        /* \"#utility.yul\":8101:8115   */\n      add\n        /* \"#utility.yul\":8094:8115   */\n      swap10\n      pop\n        /* \"#utility.yul\":7789:8125   */\n      pop\n        /* \"#utility.yul\":7776:7777   */\n      0x01\n        /* \"#utility.yul\":7773:7774   */\n      dup2\n        /* \"#utility.yul\":7769:7778   */\n      add\n        /* \"#utility.yul\":7764:7778   */\n      swap1\n      pop\n        /* \"#utility.yul\":7729:8125   */\n      jump(tag_504)\n    tag_506:\n        /* \"#utility.yul\":7733:7747   */\n      pop\n        /* \"#utility.yul\":8141:8145   */\n      dup3\n        /* \"#utility.yul\":8134:8145   */\n      swap8\n      pop\n        /* \"#utility.yul\":8161:8164   */\n      dup8\n        /* \"#utility.yul\":8154:8164   */\n      swap6\n      pop\n        /* \"#utility.yul\":7323:8170   */\n      pop\n      pop\n      pop\n      pop\n      pop\n        /* \"#utility.yul\":7179:8170   */\n      swap3\n      swap2\n      pop\n      pop\n      jump\t// out\n        /* \"#utility.yul\":8176:8589   */\n    tag_48:\n        /* \"#utility.yul\":8339:8343   */\n      0x00\n        /* \"#utility.yul\":8377:8379   */\n      0x20\n        /* \"#utility.yul\":8366:8375   */\n      dup3\n        /* \"#utility.yul\":8362:8380   */\n      add\n        /* \"#utility.yul\":8354:8380   */\n      swap1\n      pop\n        /* \"#utility.yul\":8426:8435   */\n      dup2\n        /* \"#utility.yul\":8420:8424   */\n      dup2\n        /* \"#utility.yul\":8416:8436   */\n      sub\n        /* \"#utility.yul\":8412:8413   */\n      0x00\n        /* \"#utility.yul\":8401:8410   */\n      dup4\n        /* \"#utility.yul\":8397:8414   */\n      add\n        /* \"#utility.yul\":8390:8437   */\n      mstore\n        /* \"#utility.yul\":8454:8582   */\n      tag_510\n        /* \"#utility.yul\":8577:8581   */\n      dup2\n        /* \"#utility.yul\":8568:8574   */\n      dup5\n        /* \"#utility.yul\":8454:8582   */\n      tag_398\n      jump\t// in\n    tag_510:\n        /* \"#utility.yul\":8446:8582   */\n      swap1\n      pop\n        /* \"#utility.yul\":8176:8589   */\n      swap3\n      swap2\n      pop\n      pop\n      jump\t// out\n        /* \"#utility.yul\":8595:8924   */\n    tag_51:\n        /* \"#utility.yul\":8654:8660   */\n      0x00\n        /* \"#utility.yul\":8703:8705   */\n      0x20\n        /* \"#utility.yul\":8691:8700   */\n      dup3\n        /* \"#utility.yul\":8682:8689   */\n      dup5\n        /* \"#utility.yul\":8678:8701   */\n      sub\n        /* \"#utility.yul\":8674:8706   */\n      slt\n        /* \"#utility.yul\":8671:8790   */\n      iszero\n      tag_512\n      jumpi\n        /* \"#utility.yul\":8709:8788   */\n      tag_513\n      tag_372\n      jump\t// in\n    tag_513:\n        /* \"#utility.yul\":8671:8790   */\n    tag_512:\n        /* \"#utility.yul\":8829:8830   */\n      0x00\n        /* \"#utility.yul\":8854:8907   */\n      tag_514\n        /* \"#utility.yul\":8899:8906   */\n      dup5\n        /* \"#utility.yul\":8890:8896   */\n      dup3\n        /* \"#utility.yul\":8879:8888   */\n      dup6\n        /* \"#utility.yul\":8875:8897   */\n      add\n        /* \"#utility.yul\":8854:8907   */\n      tag_388\n      jump\t// in\n    tag_514:\n        /* \"#utility.yul\":8844:8907   */\n      swap2\n      pop\n        /* \"#utility.yul\":8800:8917   */\n      pop\n        /* \"#utility.yul\":8595:8924   */\n      swap3\n      swap2\n      pop\n      pop\n      jump\t// out\n        /* \"#utility.yul\":8930:9048   */\n    tag_399:\n        /* \"#utility.yul\":9017:9041   */\n      tag_516\n        /* \"#utility.yul\":9035:9040   */\n      dup2\n        /* \"#utility.yul\":9017:9041   */\n      tag_374\n      jump\t// in\n    tag_516:\n        /* \"#utility.yul\":9012:9015   */\n      dup3\n        /* \"#utility.yul\":9005:9042   */\n      mstore\n        /* \"#utility.yul\":8930:9048   */\n      pop\n      pop\n      jump\t// out\n        /* \"#utility.yul\":9054:9276   */\n    tag_56:\n        /* \"#utility.yul\":9147:9151   */\n      0x00\n        /* \"#utility.yul\":9185:9187   */\n      0x20\n        /* \"#utility.yul\":9174:9183   */\n      dup3\n        /* \"#utility.yul\":9170:9188   */\n      add\n        /* \"#utility.yul\":9162:9188   */\n      swap1\n      pop\n        /* \"#utility.yul\":9198:9269   */\n      tag_518\n        /* \"#utility.yul\":9266:9267   */\n      0x00\n        /* \"#utility.yul\":9255:9264   */\n      dup4\n        /* \"#utility.yul\":9251:9268   */\n      add\n        /* \"#utility.yul\":9242:9248   */\n      dup5\n        /* \"#utility.yul\":9198:9269   */\n      tag_399\n      jump\t// in\n    tag_518:\n        /* \"#utility.yul\":9054:9276   */\n      swap3\n      swap2\n      pop\n      pop\n      jump\t// out\n        /* \"#utility.yul\":9282:12071   */\n    tag_59:\n        /* \"#utility.yul\":9484:9490   */\n      0x00\n        /* \"#utility.yul\":9492:9498   */\n      dup1\n        /* \"#utility.yul\":9500:9506   */\n      0x00\n        /* \"#utility.yul\":9508:9514   */\n      dup1\n        /* \"#utility.yul\":9516:9522   */\n      0x00\n        /* \"#utility.yul\":9524:9530   */\n      dup1\n        /* \"#utility.yul\":9532:9538   */\n      0x00\n        /* \"#utility.yul\":9540:9546   */\n      dup1\n        /* \"#utility.yul\":9589:9592   */\n      0x0100\n        /* \"#utility.yul\":9577:9586   */\n      dup10\n        /* \"#utility.yul\":9568:9575   */\n      dup12\n        /* \"#utility.yul\":9564:9587   */\n      sub\n        /* \"#utility.yul\":9560:9593   */\n      slt\n        /* \"#utility.yul\":9557:9677   */\n      iszero\n      tag_520\n      jumpi\n        /* \"#utility.yul\":9596:9675   */\n      tag_521\n      tag_372\n      jump\t// in\n    tag_521:\n        /* \"#utility.yul\":9557:9677   */\n    tag_520:\n        /* \"#utility.yul\":9744:9745   */\n      0x00\n        /* \"#utility.yul\":9733:9742   */\n      dup10\n        /* \"#utility.yul\":9729:9746   */\n      add\n        /* \"#utility.yul\":9716:9747   */\n      calldataload\n        /* \"#utility.yul\":9774:9792   */\n      0xffffffffffffffff\n        /* \"#utility.yul\":9766:9772   */\n      dup2\n        /* \"#utility.yul\":9763:9793   */\n      gt\n        /* \"#utility.yul\":9760:9877   */\n      iszero\n      tag_522\n      jumpi\n        /* \"#utility.yul\":9796:9875   */\n      tag_523\n      tag_373\n      jump\t// in\n    tag_523:\n        /* \"#utility.yul\":9760:9877   */\n    tag_522:\n        /* \"#utility.yul\":9901:9964   */\n      tag_524\n        /* \"#utility.yul\":9956:9963   */\n      dup12\n        /* \"#utility.yul\":9947:9953   */\n      dup3\n        /* \"#utility.yul\":9936:9945   */\n      dup13\n        /* \"#utility.yul\":9932:9954   */\n      add\n        /* \"#utility.yul\":9901:9964   */\n      tag_386\n      jump\t// in\n    tag_524:\n        /* \"#utility.yul\":9891:9964   */\n      swap9\n      pop\n        /* \"#utility.yul\":9687:9974   */\n      pop\n        /* \"#utility.yul\":10041:10043   */\n      0x20\n        /* \"#utility.yul\":10030:10039   */\n      dup10\n        /* \"#utility.yul\":10026:10044   */\n      add\n        /* \"#utility.yul\":10013:10045   */\n      calldataload\n        /* \"#utility.yul\":10072:10090   */\n      0xffffffffffffffff\n        /* \"#utility.yul\":10064:10070   */\n      dup2\n        /* \"#utility.yul\":10061:10091   */\n      gt\n        /* \"#utility.yul\":10058:10175   */\n      iszero\n      tag_525\n      jumpi\n        /* \"#utility.yul\":10094:10173   */\n      tag_526\n      tag_373\n      jump\t// in\n    tag_526:\n        /* \"#utility.yul\":10058:10175   */\n    tag_525:\n        /* \"#utility.yul\":10199:10262   */\n      tag_527\n        /* \"#utility.yul\":10254:10261   */\n      dup12\n        /* \"#utility.yul\":10245:10251   */\n      dup3\n        /* \"#utility.yul\":10234:10243   */\n      dup13\n        /* \"#utility.yul\":10230:10252   */\n      add\n        /* \"#utility.yul\":10199:10262   */\n      tag_386\n      jump\t// in\n    tag_527:\n        /* \"#utility.yul\":10189:10262   */\n      swap8\n      pop\n        /* \"#utility.yul\":9984:10272   */\n      pop\n        /* \"#utility.yul\":10339:10341   */\n      0x40\n        /* \"#utility.yul\":10328:10337   */\n      dup10\n        /* \"#utility.yul\":10324:10342   */\n      add\n        /* \"#utility.yul\":10311:10343   */\n      calldataload\n        /* \"#utility.yul\":10370:10388   */\n      0xffffffffffffffff\n        /* \"#utility.yul\":10362:10368   */\n      dup2\n        /* \"#utility.yul\":10359:10389   */\n      gt\n        /* \"#utility.yul\":10356:10473   */\n      iszero\n      tag_528\n      jumpi\n        /* \"#utility.yul\":10392:10471   */\n      tag_529\n      tag_373\n      jump\t// in\n    tag_529:\n        /* \"#utility.yul\":10356:10473   */\n    tag_528:\n        /* \"#utility.yul\":10497:10560   */\n      tag_530\n        /* \"#utility.yul\":10552:10559   */\n      dup12\n        /* \"#utility.yul\":10543:10549   */\n      dup3\n        /* \"#utility.yul\":10532:10541   */\n      dup13\n        /* \"#utility.yul\":10528:10550   */\n      add\n        /* \"#utility.yul\":10497:10560   */\n      tag_386\n      jump\t// in\n    tag_530:\n        /* \"#utility.yul\":10487:10560   */\n      swap7\n      pop\n        /* \"#utility.yul\":10282:10570   */\n      pop\n        /* \"#utility.yul\":10637:10639   */\n      0x60\n        /* \"#utility.yul\":10626:10635   */\n      dup10\n        /* \"#utility.yul\":10622:10640   */\n      add\n        /* \"#utility.yul\":10609:10641   */\n      calldataload\n        /* \"#utility.yul\":10668:10686   */\n      0xffffffffffffffff\n        /* \"#utility.yul\":10660:10666   */\n      dup2\n        /* \"#utility.yul\":10657:10687   */\n      gt\n        /* \"#utility.yul\":10654:10771   */\n      iszero\n      tag_531\n      jumpi\n        /* \"#utility.yul\":10690:10769   */\n      tag_532\n      tag_373\n      jump\t// in\n    tag_532:\n        /* \"#utility.yul\":10654:10771   */\n    tag_531:\n        /* \"#utility.yul\":10795:10858   */\n      tag_533\n        /* \"#utility.yul\":10850:10857   */\n      dup12\n        /* \"#utility.yul\":10841:10847   */\n      dup3\n        /* \"#utility.yul\":10830:10839   */\n      dup13\n        /* \"#utility.yul\":10826:10848   */\n      add\n        /* \"#utility.yul\":10795:10858   */\n      tag_386\n      jump\t// in\n    tag_533:\n        /* \"#utility.yul\":10785:10858   */\n      swap6\n      pop\n        /* \"#utility.yul\":10580:10868   */\n      pop\n        /* \"#utility.yul\":10935:10938   */\n      0x80\n        /* \"#utility.yul\":10924:10933   */\n      dup10\n        /* \"#utility.yul\":10920:10939   */\n      add\n        /* \"#utility.yul\":10907:10940   */\n      calldataload\n        /* \"#utility.yul\":10967:10985   */\n      0xffffffffffffffff\n        /* \"#utility.yul\":10959:10965   */\n      dup2\n        /* \"#utility.yul\":10956:10986   */\n      gt\n        /* \"#utility.yul\":10953:11070   */\n      iszero\n      tag_534\n      jumpi\n        /* \"#utility.yul\":10989:11068   */\n      tag_535\n      tag_373\n      jump\t// in\n    tag_535:\n        /* \"#utility.yul\":10953:11070   */\n    tag_534:\n        /* \"#utility.yul\":11094:11157   */\n      tag_536\n        /* \"#utility.yul\":11149:11156   */\n      dup12\n        /* \"#utility.yul\":11140:11146   */\n      dup3\n        /* \"#utility.yul\":11129:11138   */\n      dup13\n        /* \"#utility.yul\":11125:11147   */\n      add\n        /* \"#utility.yul\":11094:11157   */\n      tag_386\n      jump\t// in\n    tag_536:\n        /* \"#utility.yul\":11084:11157   */\n      swap5\n      pop\n        /* \"#utility.yul\":10878:11167   */\n      pop\n        /* \"#utility.yul\":11234:11237   */\n      0xa0\n        /* \"#utility.yul\":11223:11232   */\n      dup10\n        /* \"#utility.yul\":11219:11238   */\n      add\n        /* \"#utility.yul\":11206:11239   */\n      calldataload\n        /* \"#utility.yul\":11266:11284   */\n      0xffffffffffffffff\n        /* \"#utility.yul\":11258:11264   */\n      dup2\n        /* \"#utility.yul\":11255:11285   */\n      gt\n        /* \"#utility.yul\":11252:11369   */\n      iszero\n      tag_537\n      jumpi\n        /* \"#utility.yul\":11288:11367   */\n      tag_538\n      tag_373\n      jump\t// in\n    tag_538:\n        /* \"#utility.yul\":11252:11369   */\n    tag_537:\n        /* \"#utility.yul\":11393:11456   */\n      tag_539\n        /* \"#utility.yul\":11448:11455   */\n      dup12\n        /* \"#utility.yul\":11439:11445   */\n      dup3\n        /* \"#utility.yul\":11428:11437   */\n      dup13\n        /* \"#utility.yul\":11424:11446   */\n      add\n        /* \"#utility.yul\":11393:11456   */\n      tag_386\n      jump\t// in\n    tag_539:\n        /* \"#utility.yul\":11383:11456   */\n      swap4\n      pop\n        /* \"#utility.yul\":11177:11466   */\n      pop\n        /* \"#utility.yul\":11533:11536   */\n      0xc0\n        /* \"#utility.yul\":11522:11531   */\n      dup10\n        /* \"#utility.yul\":11518:11537   */\n      add\n        /* \"#utility.yul\":11505:11538   */\n      calldataload\n        /* \"#utility.yul\":11565:11583   */\n      0xffffffffffffffff\n        /* \"#utility.yul\":11557:11563   */\n      dup2\n        /* \"#utility.yul\":11554:11584   */\n      gt\n        /* \"#utility.yul\":11551:11668   */\n      iszero\n      tag_540\n      jumpi\n        /* \"#utility.yul\":11587:11666   */\n      tag_541\n      tag_373\n      jump\t// in\n    tag_541:\n        /* \"#utility.yul\":11551:11668   */\n    tag_540:\n        /* \"#utility.yul\":11692:11755   */\n      tag_542\n        /* \"#utility.yul\":11747:11754   */\n      dup12\n        /* \"#utility.yul\":11738:11744   */\n      dup3\n        /* \"#utility.yul\":11727:11736   */\n      dup13\n        /* \"#utility.yul\":11723:11745   */\n      add\n        /* \"#utility.yul\":11692:11755   */\n      tag_386\n      jump\t// in\n    tag_542:\n        /* \"#utility.yul\":11682:11755   */\n      swap3\n      pop\n        /* \"#utility.yul\":11476:11765   */\n      pop\n        /* \"#utility.yul\":11832:11835   */\n      0xe0\n        /* \"#utility.yul\":11821:11830   */\n      dup10\n        /* \"#utility.yul\":11817:11836   */\n      add\n        /* \"#utility.yul\":11804:11837   */\n      calldataload\n        /* \"#utility.yul\":11864:11882   */\n      0xffffffffffffffff\n        /* \"#utility.yul\":11856:11862   */\n      dup2\n        /* \"#utility.yul\":11853:11883   */\n      gt\n        /* \"#utility.yul\":11850:11967   */\n      iszero\n      tag_543\n      jumpi\n        /* \"#utility.yul\":11886:11965   */\n      tag_544\n      tag_373\n      jump\t// in\n    tag_544:\n        /* \"#utility.yul\":11850:11967   */\n    tag_543:\n        /* \"#utility.yul\":11991:12054   */\n      tag_545\n        /* \"#utility.yul\":12046:12053   */\n      dup12\n        /* \"#utility.yul\":12037:12043   */\n      dup3\n        /* \"#utility.yul\":12026:12035   */\n      dup13\n        /* \"#utility.yul\":12022:12044   */\n      add\n        /* \"#utility.yul\":11991:12054   */\n      tag_386\n      jump\t// in\n    tag_545:\n        /* \"#utility.yul\":11981:12054   */\n      swap2\n      pop\n        /* \"#utility.yul\":11775:12064   */\n      pop\n        /* \"#utility.yul\":9282:12071   */\n      swap3\n      swap6\n      swap9\n      pop\n      swap3\n      swap6\n      swap9\n      swap1\n      swap4\n      swap7\n      pop\n      jump\t// out\n        /* \"#utility.yul\":12077:12246   */\n    tag_400:\n        /* \"#utility.yul\":12161:12172   */\n      0x00\n        /* \"#utility.yul\":12195:12201   */\n      dup3\n        /* \"#utility.yul\":12190:12193   */\n      dup3\n        /* \"#utility.yul\":12183:12202   */\n      mstore\n        /* \"#utility.yul\":12235:12239   */\n      0x20\n        /* \"#utility.yul\":12230:12233   */\n      dup3\n        /* \"#utility.yul\":12226:12240   */\n      add\n        /* \"#utility.yul\":12211:12240   */\n      swap1\n      pop\n        /* \"#utility.yul\":12077:12246   */\n      swap3\n      swap2\n      pop\n      pop\n      jump\t// out\n        /* \"#utility.yul\":12252:12616   */\n    tag_401:\n        /* \"#utility.yul\":12340:12343   */\n      0x00\n        /* \"#utility.yul\":12368:12407   */\n      tag_548\n        /* \"#utility.yul\":12401:12406   */\n      dup3\n        /* \"#utility.yul\":12368:12407   */\n      tag_392\n      jump\t// in\n    tag_548:\n        /* \"#utility.yul\":12423:12494   */\n      tag_549\n        /* \"#utility.yul\":12487:12493   */\n      dup2\n        /* \"#utility.yul\":12482:12485   */\n      dup6\n        /* \"#utility.yul\":12423:12494   */\n      tag_400\n      jump\t// in\n    tag_549:\n        /* \"#utility.yul\":12416:12494   */\n      swap4\n      pop\n        /* \"#utility.yul\":12503:12555   */\n      tag_550\n        /* \"#utility.yul\":12548:12554   */\n      dup2\n        /* \"#utility.yul\":12543:12546   */\n      dup6\n        /* \"#utility.yul\":12536:12540   */\n      0x20\n        /* \"#utility.yul\":12529:12534   */\n      dup7\n        /* \"#utility.yul\":12525:12541   */\n      add\n        /* \"#utility.yul\":12503:12555   */\n      tag_394\n      jump\t// in\n    tag_550:\n        /* \"#utility.yul\":12580:12609   */\n      tag_551\n        /* \"#utility.yul\":12602:12608   */\n      dup2\n        /* \"#utility.yul\":12580:12609   */\n      tag_379\n      jump\t// in\n    tag_551:\n        /* \"#utility.yul\":12575:12578   */\n      dup5\n        /* \"#utility.yul\":12571:12610   */\n      add\n        /* \"#utility.yul\":12564:12610   */\n      swap2\n      pop\n        /* \"#utility.yul\":12344:12616   */\n      pop\n        /* \"#utility.yul\":12252:12616   */\n      swap3\n      swap2\n      pop\n      pop\n      jump\t// out\n        /* \"#utility.yul\":12622:12935   */\n    tag_65:\n        /* \"#utility.yul\":12735:12739   */\n      0x00\n        /* \"#utility.yul\":12773:12775   */\n      0x20\n        /* \"#utility.yul\":12762:12771   */\n      dup3\n        /* \"#utility.yul\":12758:12776   */\n      add\n        /* \"#utility.yul\":12750:12776   */\n      swap1\n      pop\n        /* \"#utility.yul\":12822:12831   */\n      dup2\n        /* \"#utility.yul\":12816:12820   */\n      dup2\n        /* \"#utility.yul\":12812:12832   */\n      sub\n        /* \"#utility.yul\":12808:12809   */\n      0x00\n        /* \"#utility.yul\":12797:12806   */\n      dup4\n        /* \"#utility.yul\":12793:12810   */\n      add\n        /* \"#utility.yul\":12786:12833   */\n      mstore\n        /* \"#utility.yul\":12850:12928   */\n      tag_553\n        /* \"#utility.yul\":12923:12927   */\n      dup2\n        /* \"#utility.yul\":12914:12920   */\n      dup5\n        /* \"#utility.yul\":12850:12928   */\n      tag_401\n      jump\t// in\n    tag_553:\n        /* \"#utility.yul\":12842:12928   */\n      swap1\n      pop\n        /* \"#utility.yul\":12622:12935   */\n      swap3\n      swap2\n      pop\n      pop\n      jump\t// out\n        /* \"#utility.yul\":12941:13031   */\n    tag_402:\n        /* \"#utility.yul\":12975:12982   */\n      0x00\n        /* \"#utility.yul\":13018:13023   */\n      dup2\n        /* \"#utility.yul\":13011:13024   */\n      iszero\n        /* \"#utility.yul\":13004:13025   */\n      iszero\n        /* \"#utility.yul\":12993:13025   */\n      swap1\n      pop\n        /* \"#utility.yul\":12941:13031   */\n      swap2\n      swap1\n      pop\n      jump\t// out\n        /* \"#utility.yul\":13037:13146   */\n    tag_403:\n        /* \"#utility.yul\":13118:13139   */\n      tag_556\n        /* \"#utility.yul\":13133:13138   */\n      dup2\n        /* \"#utility.yul\":13118:13139   */\n      tag_402\n      jump\t// in\n    tag_556:\n        /* \"#utility.yul\":13113:13116   */\n      dup3\n        /* \"#utility.yul\":13106:13140   */\n      mstore\n        /* \"#utility.yul\":13037:13146   */\n      pop\n      pop\n      jump\t// out\n        /* \"#utility.yul\":13152:14077   */\n    tag_73:\n        /* \"#utility.yul\":13411:13415   */\n      0x00\n        /* \"#utility.yul\":13449:13452   */\n      0xa0\n        /* \"#utility.yul\":13438:13447   */\n      dup3\n        /* \"#utility.yul\":13434:13453   */\n      add\n        /* \"#utility.yul\":13426:13453   */\n      swap1\n      pop\n        /* \"#utility.yul\":13499:13508   */\n      dup2\n        /* \"#utility.yul\":13493:13497   */\n      dup2\n        /* \"#utility.yul\":13489:13509   */\n      sub\n        /* \"#utility.yul\":13485:13486   */\n      0x00\n        /* \"#utility.yul\":13474:13483   */\n      dup4\n        /* \"#utility.yul\":13470:13487   */\n      add\n        /* \"#utility.yul\":13463:13510   */\n      mstore\n        /* \"#utility.yul\":13527:13605   */\n      tag_558\n        /* \"#utility.yul\":13600:13604   */\n      dup2\n        /* \"#utility.yul\":13591:13597   */\n      dup9\n        /* \"#utility.yul\":13527:13605   */\n      tag_401\n      jump\t// in\n    tag_558:\n        /* \"#utility.yul\":13519:13605   */\n      swap1\n      pop\n        /* \"#utility.yul\":13652:13661   */\n      dup2\n        /* \"#utility.yul\":13646:13650   */\n      dup2\n        /* \"#utility.yul\":13642:13662   */\n      sub\n        /* \"#utility.yul\":13637:13639   */\n      0x20\n        /* \"#utility.yul\":13626:13635   */\n      dup4\n        /* \"#utility.yul\":13622:13640   */\n      add\n        /* \"#utility.yul\":13615:13663   */\n      mstore\n        /* \"#utility.yul\":13680:13758   */\n      tag_559\n        /* \"#utility.yul\":13753:13757   */\n      dup2\n        /* \"#utility.yul\":13744:13750   */\n      dup8\n        /* \"#utility.yul\":13680:13758   */\n      tag_401\n      jump\t// in\n    tag_559:\n        /* \"#utility.yul\":13672:13758   */\n      swap1\n      pop\n        /* \"#utility.yul\":13768:13840   */\n      tag_560\n        /* \"#utility.yul\":13836:13838   */\n      0x40\n        /* \"#utility.yul\":13825:13834   */\n      dup4\n        /* \"#utility.yul\":13821:13839   */\n      add\n        /* \"#utility.yul\":13812:13818   */\n      dup7\n        /* \"#utility.yul\":13768:13840   */\n      tag_370\n      jump\t// in\n    tag_560:\n        /* \"#utility.yul\":13887:13896   */\n      dup2\n        /* \"#utility.yul\":13881:13885   */\n      dup2\n        /* \"#utility.yul\":13877:13897   */\n      sub\n        /* \"#utility.yul\":13872:13874   */\n      0x60\n        /* \"#utility.yul\":13861:13870   */\n      dup4\n        /* \"#utility.yul\":13857:13875   */\n      add\n        /* \"#utility.yul\":13850:13898   */\n      mstore\n        /* \"#utility.yul\":13915:13993   */\n      tag_561\n        /* \"#utility.yul\":13988:13992   */\n      dup2\n        /* \"#utility.yul\":13979:13985   */\n      dup6\n        /* \"#utility.yul\":13915:13993   */\n      tag_401\n      jump\t// in\n    tag_561:\n        /* \"#utility.yul\":13907:13993   */\n      swap1\n      pop\n        /* \"#utility.yul\":14003:14070   */\n      tag_562\n        /* \"#utility.yul\":14065:14068   */\n      0x80\n        /* \"#utility.yul\":14054:14063   */\n      dup4\n        /* \"#utility.yul\":14050:14069   */\n      add\n        /* \"#utility.yul\":14041:14047   */\n      dup5\n        /* \"#utility.yul\":14003:14070   */\n      tag_403\n      jump\t// in\n    tag_562:\n        /* \"#utility.yul\":13152:14077   */\n      swap7\n      swap6\n      pop\n      pop\n      pop\n      pop\n      pop\n      pop\n      jump\t// out\n        /* \"#utility.yul\":14083:14592   */\n    tag_76:\n        /* \"#utility.yul\":14152:14158   */\n      0x00\n        /* \"#utility.yul\":14201:14203   */\n      0x20\n        /* \"#utility.yul\":14189:14198   */\n      dup3\n        /* \"#utility.yul\":14180:14187   */\n      dup5\n        /* \"#utility.yul\":14176:14199   */\n      sub\n        /* \"#utility.yul\":14172:14204   */\n      slt\n        /* \"#utility.yul\":14169:14288   */\n      iszero\n      tag_564\n      jumpi\n        /* \"#utility.yul\":14207:14286   */\n      tag_565\n      tag_372\n      jump\t// in\n    tag_565:\n        /* \"#utility.yul\":14169:14288   */\n    tag_564:\n        /* \"#utility.yul\":14355:14356   */\n      0x00\n        /* \"#utility.yul\":14344:14353   */\n      dup3\n        /* \"#utility.yul\":14340:14357   */\n      add\n        /* \"#utility.yul\":14327:14358   */\n      calldataload\n        /* \"#utility.yul\":14385:14403   */\n      0xffffffffffffffff\n        /* \"#utility.yul\":14377:14383   */\n      dup2\n        /* \"#utility.yul\":14374:14404   */\n      gt\n        /* \"#utility.yul\":14371:14488   */\n      iszero\n      tag_566\n      jumpi\n        /* \"#utility.yul\":14407:14486   */\n      tag_567\n      tag_373\n      jump\t// in\n    tag_567:\n        /* \"#utility.yul\":14371:14488   */\n    tag_566:\n        /* \"#utility.yul\":14512:14575   */\n      tag_568\n        /* \"#utility.yul\":14567:14574   */\n      dup5\n        /* \"#utility.yul\":14558:14564   */\n      dup3\n        /* \"#utility.yul\":14547:14556   */\n      dup6\n        /* \"#utility.yul\":14543:14565   */\n      add\n        /* \"#utility.yul\":14512:14575   */\n      tag_386\n      jump\t// in\n    tag_568:\n        /* \"#utility.yul\":14502:14575   */\n      swap2\n      pop\n        /* \"#utility.yul\":14298:14585   */\n      pop\n        /* \"#utility.yul\":14083:14592   */\n      swap3\n      swap2\n      pop\n      pop\n      jump\t// out\n        /* \"#utility.yul\":14598:14712   */\n    tag_404:\n        /* \"#utility.yul\":14665:14671   */\n      0x00\n        /* \"#utility.yul\":14699:14704   */\n      dup2\n        /* \"#utility.yul\":14693:14705   */\n      mload\n        /* \"#utility.yul\":14683:14705   */\n      swap1\n      pop\n        /* \"#utility.yul\":14598:14712   */\n      swap2\n      swap1\n      pop\n      jump\t// out\n        /* \"#utility.yul\":14718:14902   */\n    tag_405:\n        /* \"#utility.yul\":14817:14828   */\n      0x00\n        /* \"#utility.yul\":14851:14857   */\n      dup3\n        /* \"#utility.yul\":14846:14849   */\n      dup3\n        /* \"#utility.yul\":14839:14858   */\n      mstore\n        /* \"#utility.yul\":14891:14895   */\n      0x20\n        /* \"#utility.yul\":14886:14889   */\n      dup3\n        /* \"#utility.yul\":14882:14896   */\n      add\n        /* \"#utility.yul\":14867:14896   */\n      swap1\n      pop\n        /* \"#utility.yul\":14718:14902   */\n      swap3\n      swap2\n      pop\n      pop\n      jump\t// out\n        /* \"#utility.yul\":14908:15040   */\n    tag_406:\n        /* \"#utility.yul\":14975:14979   */\n      0x00\n        /* \"#utility.yul\":14998:15001   */\n      dup2\n        /* \"#utility.yul\":14990:15001   */\n      swap1\n      pop\n        /* \"#utility.yul\":15028:15032   */\n      0x20\n        /* \"#utility.yul\":15023:15026   */\n      dup3\n        /* \"#utility.yul\":15019:15033   */\n      add\n        /* \"#utility.yul\":15011:15033   */\n      swap1\n      pop\n        /* \"#utility.yul\":14908:15040   */\n      swap2\n      swap1\n      pop\n      jump\t// out\n        /* \"#utility.yul\":15046:15154   */\n    tag_407:\n        /* \"#utility.yul\":15123:15147   */\n      tag_573\n        /* \"#utility.yul\":15141:15146   */\n      dup2\n        /* \"#utility.yul\":15123:15147   */\n      tag_369\n      jump\t// in\n    tag_573:\n        /* \"#utility.yul\":15118:15121   */\n      dup3\n        /* \"#utility.yul\":15111:15148   */\n      mstore\n        /* \"#utility.yul\":15046:15154   */\n      pop\n      pop\n      jump\t// out\n        /* \"#utility.yul\":15160:15339   */\n    tag_408:\n        /* \"#utility.yul\":15229:15239   */\n      0x00\n        /* \"#utility.yul\":15250:15296   */\n      tag_575\n        /* \"#utility.yul\":15292:15295   */\n      dup4\n        /* \"#utility.yul\":15284:15290   */\n      dup4\n        /* \"#utility.yul\":15250:15296   */\n      tag_407\n      jump\t// in\n    tag_575:\n        /* \"#utility.yul\":15328:15332   */\n      0x20\n        /* \"#utility.yul\":15323:15326   */\n      dup4\n        /* \"#utility.yul\":15319:15333   */\n      add\n        /* \"#utility.yul\":15305:15333   */\n      swap1\n      pop\n        /* \"#utility.yul\":15160:15339   */\n      swap3\n      swap2\n      pop\n      pop\n      jump\t// out\n        /* \"#utility.yul\":15345:15458   */\n    tag_409:\n        /* \"#utility.yul\":15415:15419   */\n      0x00\n        /* \"#utility.yul\":15447:15451   */\n      0x20\n        /* \"#utility.yul\":15442:15445   */\n      dup3\n        /* \"#utility.yul\":15438:15452   */\n      add\n        /* \"#utility.yul\":15430:15452   */\n      swap1\n      pop\n        /* \"#utility.yul\":15345:15458   */\n      swap2\n      swap1\n      pop\n      jump\t// out\n        /* \"#utility.yul\":15494:16226   */\n    tag_410:\n        /* \"#utility.yul\":15613:15616   */\n      0x00\n        /* \"#utility.yul\":15642:15696   */\n      tag_578\n        /* \"#utility.yul\":15690:15695   */\n      dup3\n        /* \"#utility.yul\":15642:15696   */\n      tag_404\n      jump\t// in\n    tag_578:\n        /* \"#utility.yul\":15712:15798   */\n      tag_579\n        /* \"#utility.yul\":15791:15797   */\n      dup2\n        /* \"#utility.yul\":15786:15789   */\n      dup6\n        /* \"#utility.yul\":15712:15798   */\n      tag_405\n      jump\t// in\n    tag_579:\n        /* \"#utility.yul\":15705:15798   */\n      swap4\n      pop\n        /* \"#utility.yul\":15822:15878   */\n      tag_580\n        /* \"#utility.yul\":15872:15877   */\n      dup4\n        /* \"#utility.yul\":15822:15878   */\n      tag_406\n      jump\t// in\n    tag_580:\n        /* \"#utility.yul\":15901:15908   */\n      dup1\n        /* \"#utility.yul\":15932:15933   */\n      0x00\n        /* \"#utility.yul\":15917:16201   */\n    tag_581:\n        /* \"#utility.yul\":15942:15948   */\n      dup4\n        /* \"#utility.yul\":15939:15940   */\n      dup2\n        /* \"#utility.yul\":15936:15949   */\n      lt\n        /* \"#utility.yul\":15917:16201   */\n      iszero\n      tag_583\n      jumpi\n        /* \"#utility.yul\":16018:16024   */\n      dup2\n        /* \"#utility.yul\":16012:16025   */\n      mload\n        /* \"#utility.yul\":16045:16108   */\n      tag_584\n        /* \"#utility.yul\":16104:16107   */\n      dup9\n        /* \"#utility.yul\":16089:16102   */\n      dup3\n        /* \"#utility.yul\":16045:16108   */\n      tag_408\n      jump\t// in\n    tag_584:\n        /* \"#utility.yul\":16038:16108   */\n      swap8\n      pop\n        /* \"#utility.yul\":16131:16191   */\n      tag_585\n        /* \"#utility.yul\":16184:16190   */\n      dup4\n        /* \"#utility.yul\":16131:16191   */\n      tag_409\n      jump\t// in\n    tag_585:\n        /* \"#utility.yul\":16121:16191   */\n      swap3\n      pop\n        /* \"#utility.yul\":15977:16201   */\n      pop\n        /* \"#utility.yul\":15964:15965   */\n      0x01\n        /* \"#utility.yul\":15961:15962   */\n      dup2\n        /* \"#utility.yul\":15957:15966   */\n      add\n        /* \"#utility.yul\":15952:15966   */\n      swap1\n      pop\n        /* \"#utility.yul\":15917:16201   */\n      jump(tag_581)\n    tag_583:\n        /* \"#utility.yul\":15921:15935   */\n      pop\n        /* \"#utility.yul\":16217:16220   */\n      dup6\n        /* \"#utility.yul\":16210:16220   */\n      swap4\n      pop\n        /* \"#utility.yul\":15618:16226   */\n      pop\n      pop\n      pop\n        /* \"#utility.yul\":15494:16226   */\n      swap3\n      swap2\n      pop\n      pop\n      jump\t// out\n        /* \"#utility.yul\":16232:16605   */\n    tag_81:\n        /* \"#utility.yul\":16375:16379   */\n      0x00\n        /* \"#utility.yul\":16413:16415   */\n      0x20\n        /* \"#utility.yul\":16402:16411   */\n      dup3\n        /* \"#utility.yul\":16398:16416   */\n      add\n        /* \"#utility.yul\":16390:16416   */\n      swap1\n      pop\n        /* \"#utility.yul\":16462:16471   */\n      dup2\n        /* \"#utility.yul\":16456:16460   */\n      dup2\n        /* \"#utility.yul\":16452:16472   */\n      sub\n        /* \"#utility.yul\":16448:16449   */\n      0x00\n        /* \"#utility.yul\":16437:16446   */\n      dup4\n        /* \"#utility.yul\":16433:16450   */\n      add\n        /* \"#utility.yul\":16426:16473   */\n      mstore\n        /* \"#utility.yul\":16490:16598   */\n      tag_587\n        /* \"#utility.yul\":16593:16597   */\n      dup2\n        /* \"#utility.yul\":16584:16590   */\n      dup5\n        /* \"#utility.yul\":16490:16598   */\n      tag_410\n      jump\t// in\n    tag_587:\n        /* \"#utility.yul\":16482:16598   */\n      swap1\n      pop\n        /* \"#utility.yul\":16232:16605   */\n      swap3\n      swap2\n      pop\n      pop\n      jump\t// out\n        /* \"#utility.yul\":16611:16710   */\n    tag_411:\n        /* \"#utility.yul\":16682:16703   */\n      tag_589\n        /* \"#utility.yul\":16697:16702   */\n      dup2\n        /* \"#utility.yul\":16682:16703   */\n      tag_402\n      jump\t// in\n    tag_589:\n        /* \"#utility.yul\":16677:16680   */\n      dup3\n        /* \"#utility.yul\":16670:16704   */\n      mstore\n        /* \"#utility.yul\":16611:16710   */\n      pop\n      pop\n      jump\t// out\n        /* \"#utility.yul\":16786:18063   */\n    tag_412:\n        /* \"#utility.yul\":16897:16900   */\n      0x00\n        /* \"#utility.yul\":16933:16937   */\n      0xa0\n        /* \"#utility.yul\":16928:16931   */\n      dup4\n        /* \"#utility.yul\":16924:16938   */\n      add\n        /* \"#utility.yul\":17025:17029   */\n      0x00\n        /* \"#utility.yul\":17018:17023   */\n      dup4\n        /* \"#utility.yul\":17014:17030   */\n      add\n        /* \"#utility.yul\":17008:17031   */\n      mload\n        /* \"#utility.yul\":17078:17081   */\n      dup5\n        /* \"#utility.yul\":17072:17076   */\n      dup3\n        /* \"#utility.yul\":17068:17082   */\n      sub\n        /* \"#utility.yul\":17061:17065   */\n      0x00\n        /* \"#utility.yul\":17056:17059   */\n      dup7\n        /* \"#utility.yul\":17052:17066   */\n      add\n        /* \"#utility.yul\":17045:17083   */\n      mstore\n        /* \"#utility.yul\":17104:17177   */\n      tag_591\n        /* \"#utility.yul\":17172:17176   */\n      dup3\n        /* \"#utility.yul\":17158:17170   */\n      dup3\n        /* \"#utility.yul\":17104:17177   */\n      tag_395\n      jump\t// in\n    tag_591:\n        /* \"#utility.yul\":17096:17177   */\n      swap2\n      pop\n        /* \"#utility.yul\":16948:17188   */\n      pop\n        /* \"#utility.yul\":17274:17278   */\n      0x20\n        /* \"#utility.yul\":17267:17272   */\n      dup4\n        /* \"#utility.yul\":17263:17279   */\n      add\n        /* \"#utility.yul\":17257:17280   */\n      mload\n        /* \"#utility.yul\":17327:17330   */\n      dup5\n        /* \"#utility.yul\":17321:17325   */\n      dup3\n        /* \"#utility.yul\":17317:17331   */\n      sub\n        /* \"#utility.yul\":17310:17314   */\n      0x20\n        /* \"#utility.yul\":17305:17308   */\n      dup7\n        /* \"#utility.yul\":17301:17315   */\n      add\n        /* \"#utility.yul\":17294:17332   */\n      mstore\n        /* \"#utility.yul\":17353:17426   */\n      tag_592\n        /* \"#utility.yul\":17421:17425   */\n      dup3\n        /* \"#utility.yul\":17407:17419   */\n      dup3\n        /* \"#utility.yul\":17353:17426   */\n      tag_395\n      jump\t// in\n    tag_592:\n        /* \"#utility.yul\":17345:17426   */\n      swap2\n      pop\n        /* \"#utility.yul\":17198:17437   */\n      pop\n        /* \"#utility.yul\":17527:17531   */\n      0x40\n        /* \"#utility.yul\":17520:17525   */\n      dup4\n        /* \"#utility.yul\":17516:17532   */\n      add\n        /* \"#utility.yul\":17510:17533   */\n      mload\n        /* \"#utility.yul\":17546:17609   */\n      tag_593\n        /* \"#utility.yul\":17603:17607   */\n      0x40\n        /* \"#utility.yul\":17598:17601   */\n      dup7\n        /* \"#utility.yul\":17594:17608   */\n      add\n        /* \"#utility.yul\":17580:17592   */\n      dup3\n        /* \"#utility.yul\":17546:17609   */\n      tag_407\n      jump\t// in\n    tag_593:\n        /* \"#utility.yul\":17447:17619   */\n      pop\n        /* \"#utility.yul\":17703:17707   */\n      0x60\n        /* \"#utility.yul\":17696:17701   */\n      dup4\n        /* \"#utility.yul\":17692:17708   */\n      add\n        /* \"#utility.yul\":17686:17709   */\n      mload\n        /* \"#utility.yul\":17756:17759   */\n      dup5\n        /* \"#utility.yul\":17750:17754   */\n      dup3\n        /* \"#utility.yul\":17746:17760   */\n      sub\n        /* \"#utility.yul\":17739:17743   */\n      0x60\n        /* \"#utility.yul\":17734:17737   */\n      dup7\n        /* \"#utility.yul\":17730:17744   */\n      add\n        /* \"#utility.yul\":17723:17761   */\n      mstore\n        /* \"#utility.yul\":17782:17855   */\n      tag_594\n        /* \"#utility.yul\":17850:17854   */\n      dup3\n        /* \"#utility.yul\":17836:17848   */\n      dup3\n        /* \"#utility.yul\":17782:17855   */\n      tag_395\n      jump\t// in\n    tag_594:\n        /* \"#utility.yul\":17774:17855   */\n      swap2\n      pop\n        /* \"#utility.yul\":17629:17866   */\n      pop\n        /* \"#utility.yul\":17950:17954   */\n      0x80\n        /* \"#utility.yul\":17943:17948   */\n      dup4\n        /* \"#utility.yul\":17939:17955   */\n      add\n        /* \"#utility.yul\":17933:17956   */\n      mload\n        /* \"#utility.yul\":17969:18026   */\n      tag_595\n        /* \"#utility.yul\":18020:18024   */\n      0x80\n        /* \"#utility.yul\":18015:18018   */\n      dup7\n        /* \"#utility.yul\":18011:18025   */\n      add\n        /* \"#utility.yul\":17997:18009   */\n      dup3\n        /* \"#utility.yul\":17969:18026   */\n      tag_411\n      jump\t// in\n    tag_595:\n        /* \"#utility.yul\":17876:18036   */\n      pop\n        /* \"#utility.yul\":18053:18057   */\n      dup1\n        /* \"#utility.yul\":18046:18057   */\n      swap2\n      pop\n        /* \"#utility.yul\":16902:18063   */\n      pop\n        /* \"#utility.yul\":16786:18063   */\n      swap3\n      swap2\n      pop\n      pop\n      jump\t// out\n        /* \"#utility.yul\":18069:18426   */\n    tag_86:\n        /* \"#utility.yul\":18204:18208   */\n      0x00\n        /* \"#utility.yul\":18242:18244   */\n      0x20\n        /* \"#utility.yul\":18231:18240   */\n      dup3\n        /* \"#utility.yul\":18227:18245   */\n      add\n        /* \"#utility.yul\":18219:18245   */\n      swap1\n      pop\n        /* \"#utility.yul\":18291:18300   */\n      dup2\n        /* \"#utility.yul\":18285:18289   */\n      dup2\n        /* \"#utility.yul\":18281:18301   */\n      sub\n        /* \"#utility.yul\":18277:18278   */\n      0x00\n        /* \"#utility.yul\":18266:18275   */\n      dup4\n        /* \"#utility.yul\":18262:18279   */\n      add\n        /* \"#utility.yul\":18255:18302   */\n      mstore\n        /* \"#utility.yul\":18319:18419   */\n      tag_597\n        /* \"#utility.yul\":18414:18418   */\n      dup2\n        /* \"#utility.yul\":18405:18411   */\n      dup5\n        /* \"#utility.yul\":18319:18419   */\n      tag_412\n      jump\t// in\n    tag_597:\n        /* \"#utility.yul\":18311:18419   */\n      swap1\n      pop\n        /* \"#utility.yul\":18069:18426   */\n      swap3\n      swap2\n      pop\n      pop\n      jump\t// out\n        /* \"#utility.yul\":18432:18642   */\n    tag_91:\n        /* \"#utility.yul\":18519:18523   */\n      0x00\n        /* \"#utility.yul\":18557:18559   */\n      0x20\n        /* \"#utility.yul\":18546:18555   */\n      dup3\n        /* \"#utility.yul\":18542:18560   */\n      add\n        /* \"#utility.yul\":18534:18560   */\n      swap1\n      pop\n        /* \"#utility.yul\":18570:18635   */\n      tag_599\n        /* \"#utility.yul\":18632:18633   */\n      0x00\n        /* \"#utility.yul\":18621:18630   */\n      dup4\n        /* \"#utility.yul\":18617:18634   */\n      add\n        /* \"#utility.yul\":18608:18614   */\n      dup5\n        /* \"#utility.yul\":18570:18635   */\n      tag_403\n      jump\t// in\n    tag_599:\n        /* \"#utility.yul\":18432:18642   */\n      swap3\n      swap2\n      pop\n      pop\n      jump\t// out\n        /* \"#utility.yul\":18648:20425   */\n    tag_100:\n        /* \"#utility.yul\":18792:18798   */\n      0x00\n        /* \"#utility.yul\":18800:18806   */\n      dup1\n        /* \"#utility.yul\":18808:18814   */\n      0x00\n        /* \"#utility.yul\":18816:18822   */\n      dup1\n        /* \"#utility.yul\":18824:18830   */\n      0x00\n        /* \"#utility.yul\":18832:18838   */\n      dup1\n        /* \"#utility.yul\":18881:18884   */\n      0xc0\n        /* \"#utility.yul\":18869:18878   */\n      dup8\n        /* \"#utility.yul\":18860:18867   */\n      dup10\n        /* \"#utility.yul\":18856:18879   */\n      sub\n        /* \"#utility.yul\":18852:18885   */\n      slt\n        /* \"#utility.yul\":18849:18969   */\n      iszero\n      tag_601\n      jumpi\n        /* \"#utility.yul\":18888:18967   */\n      tag_602\n      tag_372\n      jump\t// in\n    tag_602:\n        /* \"#utility.yul\":18849:18969   */\n    tag_601:\n        /* \"#utility.yul\":19036:19037   */\n      0x00\n        /* \"#utility.yul\":19025:19034   */\n      dup8\n        /* \"#utility.yul\":19021:19038   */\n      add\n        /* \"#utility.yul\":19008:19039   */\n      calldataload\n        /* \"#utility.yul\":19066:19084   */\n      0xffffffffffffffff\n        /* \"#utility.yul\":19058:19064   */\n      dup2\n        /* \"#utility.yul\":19055:19085   */\n      gt\n        /* \"#utility.yul\":19052:19169   */\n      iszero\n      tag_603\n      jumpi\n        /* \"#utility.yul\":19088:19167   */\n      tag_604\n      tag_373\n      jump\t// in\n    tag_604:\n        /* \"#utility.yul\":19052:19169   */\n    tag_603:\n        /* \"#utility.yul\":19193:19256   */\n      tag_605\n        /* \"#utility.yul\":19248:19255   */\n      dup10\n        /* \"#utility.yul\":19239:19245   */\n      dup3\n        /* \"#utility.yul\":19228:19237   */\n      dup11\n        /* \"#utility.yul\":19224:19246   */\n      add\n        /* \"#utility.yul\":19193:19256   */\n      tag_386\n      jump\t// in\n    tag_605:\n        /* \"#utility.yul\":19183:19256   */\n      swap7\n      pop\n        /* \"#utility.yul\":18979:19266   */\n      pop\n        /* \"#utility.yul\":19333:19335   */\n      0x20\n        /* \"#utility.yul\":19322:19331   */\n      dup8\n        /* \"#utility.yul\":19318:19336   */\n      add\n        /* \"#utility.yul\":19305:19337   */\n      calldataload\n        /* \"#utility.yul\":19364:19382   */\n      0xffffffffffffffff\n        /* \"#utility.yul\":19356:19362   */\n      dup2\n        /* \"#utility.yul\":19353:19383   */\n      gt\n        /* \"#utility.yul\":19350:19467   */\n      iszero\n      tag_606\n      jumpi\n        /* \"#utility.yul\":19386:19465   */\n      tag_607\n      tag_373\n      jump\t// in\n    tag_607:\n        /* \"#utility.yul\":19350:19467   */\n    tag_606:\n        /* \"#utility.yul\":19491:19554   */\n      tag_608\n        /* \"#utility.yul\":19546:19553   */\n      dup10\n        /* \"#utility.yul\":19537:19543   */\n      dup3\n        /* \"#utility.yul\":19526:19535   */\n      dup11\n        /* \"#utility.yul\":19522:19544   */\n      add\n        /* \"#utility.yul\":19491:19554   */\n      tag_386\n      jump\t// in\n    tag_608:\n        /* \"#utility.yul\":19481:19554   */\n      swap6\n      pop\n        /* \"#utility.yul\":19276:19564   */\n      pop\n        /* \"#utility.yul\":19603:19605   */\n      0x40\n        /* \"#utility.yul\":19629:19682   */\n      tag_609\n        /* \"#utility.yul\":19674:19681   */\n      dup10\n        /* \"#utility.yul\":19665:19671   */\n      dup3\n        /* \"#utility.yul\":19654:19663   */\n      dup11\n        /* \"#utility.yul\":19650:19672   */\n      add\n        /* \"#utility.yul\":19629:19682   */\n      tag_388\n      jump\t// in\n    tag_609:\n        /* \"#utility.yul\":19619:19682   */\n      swap5\n      pop\n        /* \"#utility.yul\":19574:19692   */\n      pop\n        /* \"#utility.yul\":19759:19761   */\n      0x60\n        /* \"#utility.yul\":19748:19757   */\n      dup8\n        /* \"#utility.yul\":19744:19762   */\n      add\n        /* \"#utility.yul\":19731:19763   */\n      calldataload\n        /* \"#utility.yul\":19790:19808   */\n      0xffffffffffffffff\n        /* \"#utility.yul\":19782:19788   */\n      dup2\n        /* \"#utility.yul\":19779:19809   */\n      gt\n        /* \"#utility.yul\":19776:19893   */\n      iszero\n      tag_610\n      jumpi\n        /* \"#utility.yul\":19812:19891   */\n      tag_611\n      tag_373\n      jump\t// in\n    tag_611:\n        /* \"#utility.yul\":19776:19893   */\n    tag_610:\n        /* \"#utility.yul\":19917:19980   */\n      tag_612\n        /* \"#utility.yul\":19972:19979   */\n      dup10\n        /* \"#utility.yul\":19963:19969   */\n      dup3\n        /* \"#utility.yul\":19952:19961   */\n      dup11\n        /* \"#utility.yul\":19948:19970   */\n      add\n        /* \"#utility.yul\":19917:19980   */\n      tag_386\n      jump\t// in\n    tag_612:\n        /* \"#utility.yul\":19907:19980   */\n      swap4\n      pop\n        /* \"#utility.yul\":19702:19990   */\n      pop\n        /* \"#utility.yul\":20029:20032   */\n      0x80\n        /* \"#utility.yul\":20056:20109   */\n      tag_613\n        /* \"#utility.yul\":20101:20108   */\n      dup10\n        /* \"#utility.yul\":20092:20098   */\n      dup3\n        /* \"#utility.yul\":20081:20090   */\n      dup11\n        /* \"#utility.yul\":20077:20099   */\n      add\n        /* \"#utility.yul\":20056:20109   */\n      tag_388\n      jump\t// in\n    tag_613:\n        /* \"#utility.yul\":20046:20109   */\n      swap3\n      pop\n        /* \"#utility.yul\":20000:20119   */\n      pop\n        /* \"#utility.yul\":20186:20189   */\n      0xa0\n        /* \"#utility.yul\":20175:20184   */\n      dup8\n        /* \"#utility.yul\":20171:20190   */\n      add\n        /* \"#utility.yul\":20158:20191   */\n      calldataload\n        /* \"#utility.yul\":20218:20236   */\n      0xffffffffffffffff\n        /* \"#utility.yul\":20210:20216   */\n      dup2\n        /* \"#utility.yul\":20207:20237   */\n      gt\n        /* \"#utility.yul\":20204:20321   */\n      iszero\n      tag_614\n      jumpi\n        /* \"#utility.yul\":20240:20319   */\n      tag_615\n      tag_373\n      jump\t// in\n    tag_615:\n        /* \"#utility.yul\":20204:20321   */\n    tag_614:\n        /* \"#utility.yul\":20345:20408   */\n      tag_616\n        /* \"#utility.yul\":20400:20407   */\n      dup10\n        /* \"#utility.yul\":20391:20397   */\n      dup3\n        /* \"#utility.yul\":20380:20389   */\n      dup11\n        /* \"#utility.yul\":20376:20398   */\n      add\n        /* \"#utility.yul\":20345:20408   */\n      tag_386\n      jump\t// in\n    tag_616:\n        /* \"#utility.yul\":20335:20408   */\n      swap2\n      pop\n        /* \"#utility.yul\":20129:20418   */\n      pop\n        /* \"#utility.yul\":18648:20425   */\n      swap3\n      swap6\n      pop\n      swap3\n      swap6\n      pop\n      swap3\n      swap6\n      jump\t// out\n        /* \"#utility.yul\":20431:22081   */\n    tag_106:\n        /* \"#utility.yul\":20864:20868   */\n      0x00\n        /* \"#utility.yul\":20902:20905   */\n      0x0140\n        /* \"#utility.yul\":20891:20900   */\n      dup3\n        /* \"#utility.yul\":20887:20906   */\n      add\n        /* \"#utility.yul\":20879:20906   */\n      swap1\n      pop\n        /* \"#utility.yul\":20952:20961   */\n      dup2\n        /* \"#utility.yul\":20946:20950   */\n      dup2\n        /* \"#utility.yul\":20942:20962   */\n      sub\n        /* \"#utility.yul\":20938:20939   */\n      0x00\n        /* \"#utility.yul\":20927:20936   */\n      dup4\n        /* \"#utility.yul\":20923:20940   */\n      add\n        /* \"#utility.yul\":20916:20963   */\n      mstore\n        /* \"#utility.yul\":20980:21058   */\n      tag_618\n        /* \"#utility.yul\":21053:21057   */\n      dup2\n        /* \"#utility.yul\":21044:21050   */\n      dup14\n        /* \"#utility.yul\":20980:21058   */\n      tag_401\n      jump\t// in\n    tag_618:\n        /* \"#utility.yul\":20972:21058   */\n      swap1\n      pop\n        /* \"#utility.yul\":21105:21114   */\n      dup2\n        /* \"#utility.yul\":21099:21103   */\n      dup2\n        /* \"#utility.yul\":21095:21115   */\n      sub\n        /* \"#utility.yul\":21090:21092   */\n      0x20\n        /* \"#utility.yul\":21079:21088   */\n      dup4\n        /* \"#utility.yul\":21075:21093   */\n      add\n        /* \"#utility.yul\":21068:21116   */\n      mstore\n        /* \"#utility.yul\":21133:21211   */\n      tag_619\n        /* \"#utility.yul\":21206:21210   */\n      dup2\n        /* \"#utility.yul\":21197:21203   */\n      dup13\n        /* \"#utility.yul\":21133:21211   */\n      tag_401\n      jump\t// in\n    tag_619:\n        /* \"#utility.yul\":21125:21211   */\n      swap1\n      pop\n        /* \"#utility.yul\":21258:21267   */\n      dup2\n        /* \"#utility.yul\":21252:21256   */\n      dup2\n        /* \"#utility.yul\":21248:21268   */\n      sub\n        /* \"#utility.yul\":21243:21245   */\n      0x40\n        /* \"#utility.yul\":21232:21241   */\n      dup4\n        /* \"#utility.yul\":21228:21246   */\n      add\n        /* \"#utility.yul\":21221:21269   */\n      mstore\n        /* \"#utility.yul\":21286:21364   */\n      tag_620\n        /* \"#utility.yul\":21359:21363   */\n      dup2\n        /* \"#utility.yul\":21350:21356   */\n      dup12\n        /* \"#utility.yul\":21286:21364   */\n      tag_401\n      jump\t// in\n    tag_620:\n        /* \"#utility.yul\":21278:21364   */\n      swap1\n      pop\n        /* \"#utility.yul\":21374:21446   */\n      tag_621\n        /* \"#utility.yul\":21442:21444   */\n      0x60\n        /* \"#utility.yul\":21431:21440   */\n      dup4\n        /* \"#utility.yul\":21427:21445   */\n      add\n        /* \"#utility.yul\":21418:21424   */\n      dup11\n        /* \"#utility.yul\":21374:21446   */\n      tag_370\n      jump\t// in\n    tag_621:\n        /* \"#utility.yul\":21494:21503   */\n      dup2\n        /* \"#utility.yul\":21488:21492   */\n      dup2\n        /* \"#utility.yul\":21484:21504   */\n      sub\n        /* \"#utility.yul\":21478:21481   */\n      0x80\n        /* \"#utility.yul\":21467:21476   */\n      dup4\n        /* \"#utility.yul\":21463:21482   */\n      add\n        /* \"#utility.yul\":21456:21505   */\n      mstore\n        /* \"#utility.yul\":21522:21600   */\n      tag_622\n        /* \"#utility.yul\":21595:21599   */\n      dup2\n        /* \"#utility.yul\":21586:21592   */\n      dup10\n        /* \"#utility.yul\":21522:21600   */\n      tag_401\n      jump\t// in\n    tag_622:\n        /* \"#utility.yul\":21514:21600   */\n      swap1\n      pop\n        /* \"#utility.yul\":21610:21677   */\n      tag_623\n        /* \"#utility.yul\":21672:21675   */\n      0xa0\n        /* \"#utility.yul\":21661:21670   */\n      dup4\n        /* \"#utility.yul\":21657:21676   */\n      add\n        /* \"#utility.yul\":21648:21654   */\n      dup9\n        /* \"#utility.yul\":21610:21677   */\n      tag_403\n      jump\t// in\n    tag_623:\n        /* \"#utility.yul\":21687:21754   */\n      tag_624\n        /* \"#utility.yul\":21749:21752   */\n      0xc0\n        /* \"#utility.yul\":21738:21747   */\n      dup4\n        /* \"#utility.yul\":21734:21753   */\n      add\n        /* \"#utility.yul\":21725:21731   */\n      dup8\n        /* \"#utility.yul\":21687:21754   */\n      tag_403\n      jump\t// in\n    tag_624:\n        /* \"#utility.yul\":21764:21837   */\n      tag_625\n        /* \"#utility.yul\":21832:21835   */\n      0xe0\n        /* \"#utility.yul\":21821:21830   */\n      dup4\n        /* \"#utility.yul\":21817:21836   */\n      add\n        /* \"#utility.yul\":21808:21814   */\n      dup7\n        /* \"#utility.yul\":21764:21837   */\n      tag_370\n      jump\t// in\n    tag_625:\n        /* \"#utility.yul\":21885:21894   */\n      dup2\n        /* \"#utility.yul\":21879:21883   */\n      dup2\n        /* \"#utility.yul\":21875:21895   */\n      sub\n        /* \"#utility.yul\":21869:21872   */\n      0x0100\n        /* \"#utility.yul\":21858:21867   */\n      dup4\n        /* \"#utility.yul\":21854:21873   */\n      add\n        /* \"#utility.yul\":21847:21896   */\n      mstore\n        /* \"#utility.yul\":21913:21991   */\n      tag_626\n        /* \"#utility.yul\":21986:21990   */\n      dup2\n        /* \"#utility.yul\":21977:21983   */\n      dup6\n        /* \"#utility.yul\":21913:21991   */\n      tag_401\n      jump\t// in\n    tag_626:\n        /* \"#utility.yul\":21905:21991   */\n      swap1\n      pop\n        /* \"#utility.yul\":22001:22074   */\n      tag_627\n        /* \"#utility.yul\":22069:22072   */\n      0x0120\n        /* \"#utility.yul\":22058:22067   */\n      dup4\n        /* \"#utility.yul\":22054:22073   */\n      add\n        /* \"#utility.yul\":22045:22051   */\n      dup5\n        /* \"#utility.yul\":22001:22074   */\n      tag_370\n      jump\t// in\n    tag_627:\n        /* \"#utility.yul\":20431:22081   */\n      swap12\n      swap11\n      pop\n      pop\n      pop\n      pop\n      pop\n      pop\n      pop\n      pop\n      pop\n      pop\n      pop\n      jump\t// out\n        /* \"#utility.yul\":22087:23923   */\n    tag_111:\n        /* \"#utility.yul\":22564:22568   */\n      0x00\n        /* \"#utility.yul\":22602:22605   */\n      0x0120\n        /* \"#utility.yul\":22591:22600   */\n      dup3\n        /* \"#utility.yul\":22587:22606   */\n      add\n        /* \"#utility.yul\":22579:22606   */\n      swap1\n      pop\n        /* \"#utility.yul\":22652:22661   */\n      dup2\n        /* \"#utility.yul\":22646:22650   */\n      dup2\n        /* \"#utility.yul\":22642:22662   */\n      sub\n        /* \"#utility.yul\":22638:22639   */\n      0x00\n        /* \"#utility.yul\":22627:22636   */\n      dup4\n        /* \"#utility.yul\":22623:22640   */\n      add\n        /* \"#utility.yul\":22616:22663   */\n      mstore\n        /* \"#utility.yul\":22680:22758   */\n      tag_629\n        /* \"#utility.yul\":22753:22757   */\n      dup2\n        /* \"#utility.yul\":22744:22750   */\n      dup13\n        /* \"#utility.yul\":22680:22758   */\n      tag_401\n      jump\t// in\n    tag_629:\n        /* \"#utility.yul\":22672:22758   */\n      swap1\n      pop\n        /* \"#utility.yul\":22805:22814   */\n      dup2\n        /* \"#utility.yul\":22799:22803   */\n      dup2\n        /* \"#utility.yul\":22795:22815   */\n      sub\n        /* \"#utility.yul\":22790:22792   */\n      0x20\n        /* \"#utility.yul\":22779:22788   */\n      dup4\n        /* \"#utility.yul\":22775:22793   */\n      add\n        /* \"#utility.yul\":22768:22816   */\n      mstore\n        /* \"#utility.yul\":22833:22911   */\n      tag_630\n        /* \"#utility.yul\":22906:22910   */\n      dup2\n        /* \"#utility.yul\":22897:22903   */\n      dup12\n        /* \"#utility.yul\":22833:22911   */\n      tag_401\n      jump\t// in\n    tag_630:\n        /* \"#utility.yul\":22825:22911   */\n      swap1\n      pop\n        /* \"#utility.yul\":22958:22967   */\n      dup2\n        /* \"#utility.yul\":22952:22956   */\n      dup2\n        /* \"#utility.yul\":22948:22968   */\n      sub\n        /* \"#utility.yul\":22943:22945   */\n      0x40\n        /* \"#utility.yul\":22932:22941   */\n      dup4\n        /* \"#utility.yul\":22928:22946   */\n      add\n        /* \"#utility.yul\":22921:22969   */\n      mstore\n        /* \"#utility.yul\":22986:23064   */\n      tag_631\n        /* \"#utility.yul\":23059:23063   */\n      dup2\n        /* \"#utility.yul\":23050:23056   */\n      dup11\n        /* \"#utility.yul\":22986:23064   */\n      tag_401\n      jump\t// in\n    tag_631:\n        /* \"#utility.yul\":22978:23064   */\n      swap1\n      pop\n        /* \"#utility.yul\":23111:23120   */\n      dup2\n        /* \"#utility.yul\":23105:23109   */\n      dup2\n        /* \"#utility.yul\":23101:23121   */\n      sub\n        /* \"#utility.yul\":23096:23098   */\n      0x60\n        /* \"#utility.yul\":23085:23094   */\n      dup4\n        /* \"#utility.yul\":23081:23099   */\n      add\n        /* \"#utility.yul\":23074:23122   */\n      mstore\n        /* \"#utility.yul\":23139:23217   */\n      tag_632\n        /* \"#utility.yul\":23212:23216   */\n      dup2\n        /* \"#utility.yul\":23203:23209   */\n      dup10\n        /* \"#utility.yul\":23139:23217   */\n      tag_401\n      jump\t// in\n    tag_632:\n        /* \"#utility.yul\":23131:23217   */\n      swap1\n      pop\n        /* \"#utility.yul\":23265:23274   */\n      dup2\n        /* \"#utility.yul\":23259:23263   */\n      dup2\n        /* \"#utility.yul\":23255:23275   */\n      sub\n        /* \"#utility.yul\":23249:23252   */\n      0x80\n        /* \"#utility.yul\":23238:23247   */\n      dup4\n        /* \"#utility.yul\":23234:23253   */\n      add\n        /* \"#utility.yul\":23227:23276   */\n      mstore\n        /* \"#utility.yul\":23293:23371   */\n      tag_633\n        /* \"#utility.yul\":23366:23370   */\n      dup2\n        /* \"#utility.yul\":23357:23363   */\n      dup9\n        /* \"#utility.yul\":23293:23371   */\n      tag_401\n      jump\t// in\n    tag_633:\n        /* \"#utility.yul\":23285:23371   */\n      swap1\n      pop\n        /* \"#utility.yul\":23419:23428   */\n      dup2\n        /* \"#utility.yul\":23413:23417   */\n      dup2\n        /* \"#utility.yul\":23409:23429   */\n      sub\n        /* \"#utility.yul\":23403:23406   */\n      0xa0\n        /* \"#utility.yul\":23392:23401   */\n      dup4\n        /* \"#utility.yul\":23388:23407   */\n      add\n        /* \"#utility.yul\":23381:23430   */\n      mstore\n        /* \"#utility.yul\":23447:23525   */\n      tag_634\n        /* \"#utility.yul\":23520:23524   */\n      dup2\n        /* \"#utility.yul\":23511:23517   */\n      dup8\n        /* \"#utility.yul\":23447:23525   */\n      tag_401\n      jump\t// in\n    tag_634:\n        /* \"#utility.yul\":23439:23525   */\n      swap1\n      pop\n        /* \"#utility.yul\":23573:23582   */\n      dup2\n        /* \"#utility.yul\":23567:23571   */\n      dup2\n        /* \"#utility.yul\":23563:23583   */\n      sub\n        /* \"#utility.yul\":23557:23560   */\n      0xc0\n        /* \"#utility.yul\":23546:23555   */\n      dup4\n        /* \"#utility.yul\":23542:23561   */\n      add\n        /* \"#utility.yul\":23535:23584   */\n      mstore\n        /* \"#utility.yul\":23601:23679   */\n      tag_635\n        /* \"#utility.yul\":23674:23678   */\n      dup2\n        /* \"#utility.yul\":23665:23671   */\n      dup7\n        /* \"#utility.yul\":23601:23679   */\n      tag_401\n      jump\t// in\n    tag_635:\n        /* \"#utility.yul\":23593:23679   */\n      swap1\n      pop\n        /* \"#utility.yul\":23727:23736   */\n      dup2\n        /* \"#utility.yul\":23721:23725   */\n      dup2\n        /* \"#utility.yul\":23717:23737   */\n      sub\n        /* \"#utility.yul\":23711:23714   */\n      0xe0\n        /* \"#utility.yul\":23700:23709   */\n      dup4\n        /* \"#utility.yul\":23696:23715   */\n      add\n        /* \"#utility.yul\":23689:23738   */\n      mstore\n        /* \"#utility.yul\":23755:23833   */\n      tag_636\n        /* \"#utility.yul\":23828:23832   */\n      dup2\n        /* \"#utility.yul\":23819:23825   */\n      dup6\n        /* \"#utility.yul\":23755:23833   */\n      tag_401\n      jump\t// in\n    tag_636:\n        /* \"#utility.yul\":23747:23833   */\n      swap1\n      pop\n        /* \"#utility.yul\":23843:23916   */\n      tag_637\n        /* \"#utility.yul\":23911:23914   */\n      0x0100\n        /* \"#utility.yul\":23900:23909   */\n      dup4\n        /* \"#utility.yul\":23896:23915   */\n      add\n        /* \"#utility.yul\":23887:23893   */\n      dup5\n        /* \"#utility.yul\":23843:23916   */\n      tag_370\n      jump\t// in\n    tag_637:\n        /* \"#utility.yul\":22087:23923   */\n      swap11\n      swap10\n      pop\n      pop\n      pop\n      pop\n      pop\n      pop\n      pop\n      pop\n      pop\n      pop\n      jump\t// out\n        /* \"#utility.yul\":23929:24109   */\n    tag_413:\n        /* \"#utility.yul\":23977:24054   */\n      0x4e487b7100000000000000000000000000000000000000000000000000000000\n        /* \"#utility.yul\":23974:23975   */\n      0x00\n        /* \"#utility.yul\":23967:24055   */\n      mstore\n        /* \"#utility.yul\":24074:24078   */\n      0x22\n        /* \"#utility.yul\":24071:24072   */\n      0x04\n        /* \"#utility.yul\":24064:24079   */\n      mstore\n        /* \"#utility.yul\":24098:24102   */\n      0x24\n        /* \"#utility.yul\":24095:24096   */\n      0x00\n        /* \"#utility.yul\":24088:24103   */\n      revert\n        /* \"#utility.yul\":24115:24435   */\n    tag_148:\n        /* \"#utility.yul\":24159:24165   */\n      0x00\n        /* \"#utility.yul\":24196:24197   */\n      0x02\n        /* \"#utility.yul\":24190:24194   */\n      dup3\n        /* \"#utility.yul\":24186:24198   */\n      div\n        /* \"#utility.yul\":24176:24198   */\n      swap1\n      pop\n        /* \"#utility.yul\":24243:24244   */\n      0x01\n        /* \"#utility.yul\":24237:24241   */\n      dup3\n        /* \"#utility.yul\":24233:24245   */\n      and\n        /* \"#utility.yul\":24264:24282   */\n      dup1\n        /* \"#utility.yul\":24254:24335   */\n      tag_640\n      jumpi\n        /* \"#utility.yul\":24320:24324   */\n      0x7f\n        /* \"#utility.yul\":24312:24318   */\n      dup3\n        /* \"#utility.yul\":24308:24325   */\n      and\n        /* \"#utility.yul\":24298:24325   */\n      swap2\n      pop\n        /* \"#utility.yul\":24254:24335   */\n    tag_640:\n        /* \"#utility.yul\":24382:24384   */\n      0x20\n        /* \"#utility.yul\":24374:24380   */\n      dup3\n        /* \"#utility.yul\":24371:24385   */\n      lt\n        /* \"#utility.yul\":24351:24369   */\n      dup2\n        /* \"#utility.yul\":24348:24386   */\n      eq\n        /* \"#utility.yul\":24345:24429   */\n      iszero\n      tag_641\n      jumpi\n        /* \"#utility.yul\":24401:24419   */\n      tag_642\n      tag_413\n      jump\t// in\n    tag_642:\n        /* \"#utility.yul\":24345:24429   */\n    tag_641:\n        /* \"#utility.yul\":24166:24435   */\n      pop\n        /* \"#utility.yul\":24115:24435   */\n      swap2\n      swap1\n      pop\n      jump\t// out\n        /* \"#utility.yul\":24441:24589   */\n    tag_414:\n        /* \"#utility.yul\":24543:24554   */\n      0x00\n        /* \"#utility.yul\":24580:24583   */\n      dup2\n        /* \"#utility.yul\":24565:24583   */\n      swap1\n      pop\n        /* \"#utility.yul\":24441:24589   */\n      swap3\n      swap2\n      pop\n      pop\n      jump\t// out\n        /* \"#utility.yul\":24595:24972   */\n    tag_415:\n        /* \"#utility.yul\":24701:24704   */\n      0x00\n        /* \"#utility.yul\":24729:24768   */\n      tag_645\n        /* \"#utility.yul\":24762:24767   */\n      dup3\n        /* \"#utility.yul\":24729:24768   */\n      tag_392\n      jump\t// in\n    tag_645:\n        /* \"#utility.yul\":24784:24873   */\n      tag_646\n        /* \"#utility.yul\":24866:24872   */\n      dup2\n        /* \"#utility.yul\":24861:24864   */\n      dup6\n        /* \"#utility.yul\":24784:24873   */\n      tag_414\n      jump\t// in\n    tag_646:\n        /* \"#utility.yul\":24777:24873   */\n      swap4\n      pop\n        /* \"#utility.yul\":24882:24934   */\n      tag_647\n        /* \"#utility.yul\":24927:24933   */\n      dup2\n        /* \"#utility.yul\":24922:24925   */\n      dup6\n        /* \"#utility.yul\":24915:24919   */\n      0x20\n        /* \"#utility.yul\":24908:24913   */\n      dup7\n        /* \"#utility.yul\":24904:24920   */\n      add\n        /* \"#utility.yul\":24882:24934   */\n      tag_394\n      jump\t// in\n    tag_647:\n        /* \"#utility.yul\":24959:24965   */\n      dup1\n        /* \"#utility.yul\":24954:24957   */\n      dup5\n        /* \"#utility.yul\":24950:24966   */\n      add\n        /* \"#utility.yul\":24943:24966   */\n      swap2\n      pop\n        /* \"#utility.yul\":24705:24972   */\n      pop\n        /* \"#utility.yul\":24595:24972   */\n      swap3\n      swap2\n      pop\n      pop\n      jump\t// out\n        /* \"#utility.yul\":24978:25253   */\n    tag_197:\n        /* \"#utility.yul\":25110:25113   */\n      0x00\n        /* \"#utility.yul\":25132:25227   */\n      tag_649\n        /* \"#utility.yul\":25223:25226   */\n      dup3\n        /* \"#utility.yul\":25214:25220   */\n      dup5\n        /* \"#utility.yul\":25132:25227   */\n      tag_415\n      jump\t// in\n    tag_649:\n        /* \"#utility.yul\":25125:25227   */\n      swap2\n      pop\n        /* \"#utility.yul\":25244:25247   */\n      dup2\n        /* \"#utility.yul\":25237:25247   */\n      swap1\n      pop\n        /* \"#utility.yul\":24978:25253   */\n      swap3\n      swap2\n      pop\n      pop\n      jump\t// out\n        /* \"#utility.yul\":25259:25439   */\n    tag_416:\n        /* \"#utility.yul\":25307:25384   */\n      0x4e487b7100000000000000000000000000000000000000000000000000000000\n        /* \"#utility.yul\":25304:25305   */\n      0x00\n        /* \"#utility.yul\":25297:25385   */\n      mstore\n        /* \"#utility.yul\":25404:25408   */\n      0x11\n        /* \"#utility.yul\":25401:25402   */\n      0x04\n        /* \"#utility.yul\":25394:25409   */\n      mstore\n        /* \"#utility.yul\":25428:25432   */\n      0x24\n        /* \"#utility.yul\":25425:25426   */\n      0x00\n        /* \"#utility.yul\":25418:25433   */\n      revert\n        /* \"#utility.yul\":25445:25750   */\n    tag_245:\n        /* \"#utility.yul\":25485:25488   */\n      0x00\n        /* \"#utility.yul\":25504:25524   */\n      tag_652\n        /* \"#utility.yul\":25522:25523   */\n      dup3\n        /* \"#utility.yul\":25504:25524   */\n      tag_374\n      jump\t// in\n    tag_652:\n        /* \"#utility.yul\":25499:25524   */\n      swap2\n      pop\n        /* \"#utility.yul\":25538:25558   */\n      tag_653\n        /* \"#utility.yul\":25556:25557   */\n      dup4\n        /* \"#utility.yul\":25538:25558   */\n      tag_374\n      jump\t// in\n    tag_653:\n        /* \"#utility.yul\":25533:25558   */\n      swap3\n      pop\n        /* \"#utility.yul\":25692:25693   */\n      dup3\n        /* \"#utility.yul\":25624:25690   */\n      0xffffffffffffffffffffffffffffffffffffffffffffffffffffffffffffffff\n        /* \"#utility.yul\":25620:25694   */\n      sub\n        /* \"#utility.yul\":25617:25618   */\n      dup3\n        /* \"#utility.yul\":25614:25695   */\n      gt\n        /* \"#utility.yul\":25611:25718   */\n      iszero\n      tag_654\n      jumpi\n        /* \"#utility.yul\":25698:25716   */\n      tag_655\n      tag_416\n      jump\t// in\n    tag_655:\n        /* \"#utility.yul\":25611:25718   */\n    tag_654:\n        /* \"#utility.yul\":25742:25743   */\n      dup3\n        /* \"#utility.yul\":25739:25740   */\n      dup3\n        /* \"#utility.yul\":25735:25744   */\n      add\n        /* \"#utility.yul\":25728:25744   */\n      swap1\n      pop\n        /* \"#utility.yul\":25445:25750   */\n      swap3\n      swap2\n      pop\n      pop\n      jump\t// out\n\n    auxdata: 0xa2646970667358221220e45fdc0bc647873dd9cc85aa3f060bb5736e2356ed1ce0b95aef2d1b4b997d3e64736f6c634300080a0033\n}\n","bytecode":{"linkReferences":{},"object":"60806040523480156200001157600080fd5b5060405162003733380380620037338339818101604052810190620000379190620002ec565b80600190805190602001906200004f9291906200009f565b50336000806101000a81548173ffffffffffffffffffffffffffffffffffffffff021916908373ffffffffffffffffffffffffffffffffffffffff160217905550600060098190555050620003a2565b828054620000ad906200036c565b90600052602060002090601f016020900481019282620000d157600085556200011d565b82601f10620000ec57805160ff19168380011785556200011d565b828001600101855582156200011d579182015b828111156200011c578251825591602001919060010190620000ff565b5b5090506200012c919062000130565b5090565b5b808211156200014b57600081600090555060010162000131565b5090565b6000604051905090565b600080fd5b600080fd5b600080fd5b600080fd5b6000601f19601f8301169050919050565b7f4e487b7100000000000000000000000000000000000000000000000000000000600052604160045260246000fd5b620001b8826200016d565b810181811067ffffffffffffffff82111715620001da57620001d96200017e565b5b80604052505050565b6000620001ef6200014f565b9050620001fd8282620001ad565b919050565b600067ffffffffffffffff82111562000220576200021f6200017e565b5b6200022b826200016d565b9050602081019050919050565b60005b83811015620002585780820151818401526020810190506200023b565b8381111562000268576000848401525b50505050565b6000620002856200027f8462000202565b620001e3565b905082815260208101848484011115620002a457620002a362000168565b5b620002b184828562000238565b509392505050565b600082601f830112620002d157620002d062000163565b5b8151620002e38482602086016200026e565b91505092915050565b60006020828403121562000305576200030462000159565b5b600082015167ffffffffffffffff8111156200032657620003256200015e565b5b6200033484828501620002b9565b91505092915050565b7f4e487b7100000000000000000000000000000000000000000000000000000000600052602260045260246000fd5b600060028204905060018216806200038557607f821691505b602082108114156200039c576200039b6200033d565b5b50919050565b61338180620003b26000396000f3fe608060405234801561001057600080fd5b50600436106101735760003560e01c806364efb22b116100de578063be87bb8a11610097578063cddb61b711610071578063cddb61b714610499578063d896fc96146104b5578063db9573e1146104d1578063df6fa20e146104ef57610173565b8063be87bb8a14610401578063c4a0086f14610439578063cbd5121c1461046957610173565b806364efb22b1461031257806367b57142146103425780638b5c933514610372578063935b377b14610390578063ade79551146103ac578063b1c8ad0d146103c857610173565b8063245351c911610130578063245351c91461023a5780632a979f31146102565780632de8f46d14610286578063429b62e5146102a457806353beb691146102d857806364ddfa29146102f457610173565b8063045b30341461017857806313718c97146101965780631510f0d5146101c65780631a994ed8146101e25780631af1a768146102005780631c9afd0f1461021c575b600080fd5b61018061050b565b60405161018d9190612691565b60405180910390f35b6101b060048036038101906101ab91906126f6565b61052f565b6040516101bd9190612691565b60405180910390f35b6101e060048036038101906101db9190612895565b61056e565b005b6101ea61065b565b6040516101f79190612a9a565b60405180910390f35b61021a60048036038101906102159190612abc565b61078a565b005b610224610840565b6040516102319190612af8565b60405180910390f35b610254600480360381019061024f9190612b13565b610846565b005b610270600480360381019061026b91906126f6565b61095c565b60405161027d9190612cf3565b60405180910390f35b61028e610a08565b60405161029b9190612cf3565b60405180910390f35b6102be60048036038101906102b99190612abc565b610af2565b6040516102cf959493929190612d30565b60405180910390f35b6102f260048036038101906102ed9190612d98565b610ced565b005b6102fc610d73565b6040516103099190612e9f565b60405180910390f35b61032c60048036038101906103279190612abc565b610e59565b6040516103399190612f54565b60405180910390f35b61035c60048036038101906103579190612abc565b611131565b6040516103699190612f76565b60405180910390f35b61037a611151565b6040516103879190612f76565b60405180910390f35b6103aa60048036038101906103a59190612d98565b6111b0565b005b6103c660048036038101906103c19190612f91565b6111f3565b005b6103e260048036038101906103dd9190612d98565b6114f8565b6040516103f89a9998979695949392919061308e565b60405180910390f35b61041b60048036038101906104169190612abc565b611884565b6040516104309998979695949392919061314d565b60405180910390f35b610453600480360381019061044e9190612d98565b611d32565b6040516104609190612f76565b60405180910390f35b610483600480360381019061047e91906126f6565b611d68565b6040516104909190612cf3565b60405180910390f35b6104b360048036038101906104ae9190612895565b611e14565b005b6104cf60048036038101906104ca9190612d98565b612141565b005b6104d9612184565b6040516104e69190612f76565b60405180910390f35b61050960048036038101906105049190612abc565b612408565b005b60008054906101000a900473ffffffffffffffffffffffffffffffffffffffff1681565b6005818154811061053f57600080fd5b906000526020600020016000915054906101000a900473ffffffffffffffffffffffffffffffffffffffff1681565b60008054906101000a900473ffffffffffffffffffffffffffffffffffffffff1673ffffffffffffffffffffffffffffffffffffffff163373ffffffffffffffffffffffffffffffffffffffff16146105c657600080fd5b6000600260008373ffffffffffffffffffffffffffffffffffffffff1673ffffffffffffffffffffffffffffffffffffffff1681526020019081526020016000209050848160000190805190602001906106219291906124d9565b508381600101908051906020019061063a9291906124d9565b50828160030190805190602001906106539291906124d9565b505050505050565b6060600360003373ffffffffffffffffffffffffffffffffffffffff1673ffffffffffffffffffffffffffffffffffffffff16815260200190815260200160002060009054906101000a900460ff166106b357600080fd5b6006805480602002602001604051908101604052809291908181526020016000905b828210156107815783829060005260206000200180546106f490613241565b80601f016020809104026020016040519081016040528092919081815260200182805461072090613241565b801561076d5780601f106107425761010080835404028352916020019161076d565b820191906000526020600020905b81548152906001019060200180831161075057829003601f168201915b5050505050815260200190600101906106d5565b50505050905090565b60008054906101000a900473ffffffffffffffffffffffffffffffffffffffff1673ffffffffffffffffffffffffffffffffffffffff163373ffffffffffffffffffffffffffffffffffffffff16146107e257600080fd5b6001600260008373ffffffffffffffffffffffffffffffffffffffff1673ffffffffffffffffffffffffffffffffffffffff16815260200190815260200160002060040160006101000a81548160ff02191690831515021790555050565b60095481565b6000600b60003373ffffffffffffffffffffffffffffffffffffffff1673ffffffffffffffffffffffffffffffffffffffff1681526020019081526020016000209050888160000190805190602001906108a19291906124d9565b50878160010190805190602001906108ba9291906124d9565b50868160020190805190602001906108d39291906124d9565b50858160030190805190602001906108ec9291906124d9565b50848160040190805190602001906109059291906124d9565b508381600501908051906020019061091e9291906124d9565b50828160060190805190602001906109379291906124d9565b50818160070190805190602001906109509291906124d9565b50505050505050505050565b6004818154811061096c57600080fd5b90600052602060002001600091509050805461098790613241565b80601f01602080910402602001604051908101604052809291908181526020018280546109b390613241565b8015610a005780601f106109d557610100808354040283529160200191610a00565b820191906000526020600020905b8154815290600101906020018083116109e357829003601f168201915b505050505081565b606060008054906101000a900473ffffffffffffffffffffffffffffffffffffffff1673ffffffffffffffffffffffffffffffffffffffff163373ffffffffffffffffffffffffffffffffffffffff1614610a6257600080fd5b60018054610a6f90613241565b80601f0160208091040260200160405190810160405280929190818152602001828054610a9b90613241565b8015610ae85780601f10610abd57610100808354040283529160200191610ae8565b820191906000526020600020905b815481529060010190602001808311610acb57829003601f168201915b5050505050905090565b6002602052806000526040600020600091509050806000018054610b1590613241565b80601f0160208091040260200160405190810160405280929190818152602001828054610b4190613241565b8015610b8e5780601f10610b6357610100808354040283529160200191610b8e565b820191906000526020600020905b815481529060010190602001808311610b7157829003601f168201915b505050505090806001018054610ba390613241565b80601f0160208091040260200160405190810160405280929190818152602001828054610bcf90613241565b8015610c1c5780601f10610bf157610100808354040283529160200191610c1c565b820191906000526020600020905b815481529060010190602001808311610bff57829003601f168201915b5050505050908060020160009054906101000a900473ffffffffffffffffffffffffffffffffffffffff1690806003018054610c5790613241565b80601f0160208091040260200160405190810160405280929190818152602001828054610c8390613241565b8015610cd05780601f10610ca557610100808354040283529160200191610cd0565b820191906000526020600020905b815481529060010190602001808311610cb357829003601f168201915b5050505050908060040160009054906101000a900460ff16905085565b6000600882604051610cff91906132af565b9081526020016040518091039020905060018160050160016101000a81548160ff021916908315150217905550338160050160026101000a81548173ffffffffffffffffffffffffffffffffffffffff021916908373ffffffffffffffffffffffffffffffffffffffff1602179055505050565b606060008054906101000a900473ffffffffffffffffffffffffffffffffffffffff1673ffffffffffffffffffffffffffffffffffffffff163373ffffffffffffffffffffffffffffffffffffffff1614610dcd57600080fd5b6005805480602002602001604051908101604052809291908181526020018280548015610e4f57602002820191906000526020600020905b8160009054906101000a900473ffffffffffffffffffffffffffffffffffffffff1673ffffffffffffffffffffffffffffffffffffffff1681526020019060010190808311610e05575b5050505050905090565b610e6161255f565b60008054906101000a900473ffffffffffffffffffffffffffffffffffffffff1673ffffffffffffffffffffffffffffffffffffffff163373ffffffffffffffffffffffffffffffffffffffff1614610eb957600080fd5b600260008373ffffffffffffffffffffffffffffffffffffffff1673ffffffffffffffffffffffffffffffffffffffff1681526020019081526020016000206040518060a0016040529081600082018054610f1390613241565b80601f0160208091040260200160405190810160405280929190818152602001828054610f3f90613241565b8015610f8c5780601f10610f6157610100808354040283529160200191610f8c565b820191906000526020600020905b815481529060010190602001808311610f6f57829003601f168201915b50505050508152602001600182018054610fa590613241565b80601f0160208091040260200160405190810160405280929190818152602001828054610fd190613241565b801561101e5780601f10610ff35761010080835404028352916020019161101e565b820191906000526020600020905b81548152906001019060200180831161100157829003601f168201915b505050505081526020016002820160009054906101000a900473ffffffffffffffffffffffffffffffffffffffff1673ffffffffffffffffffffffffffffffffffffffff1673ffffffffffffffffffffffffffffffffffffffff16815260200160038201805461108d90613241565b80601f01602080910402602001604051908101604052809291908181526020018280546110b990613241565b80156111065780601f106110db57610100808354040283529160200191611106565b820191906000526020600020905b8154815290600101906020018083116110e957829003601f168201915b505050505081526020016004820160009054906101000a900460ff1615151515815250509050919050565b600a6020528060005260406000206000915054906101000a900460ff1681565b6000600360003373ffffffffffffffffffffffffffffffffffffffff1673ffffffffffffffffffffffffffffffffffffffff16815260200190815260200160002060009054906101000a900460ff166111a957600080fd5b6001905090565b60006008826040516111c291906132af565b9081526020016040518091039020905060018160050160006101000a81548160ff0219169083151502179055505050565b600360003373ffffffffffffffffffffffffffffffffffffffff1673ffffffffffffffffffffffffffffffffffffffff16815260200190815260200160002060009054906101000a900460ff1661124957600080fd5b60078160405161125991906132af565b908152602001604051809103902060009054906101000a900460ff161561127f57600080fd5b600160078260405161129191906132af565b908152602001604051809103902060006101000a81548160ff0219169083151502179055506006819080600181540180825580915050600190039060005260206000200160009091909190915090805190602001906112f19291906124d9565b50600060088260405161130491906132af565b90815260200160405180910390209050600260008473ffffffffffffffffffffffffffffffffffffffff1673ffffffffffffffffffffffffffffffffffffffff1681526020019081526020016000206003018160000190805461136690613241565b6113719291906125a6565b508681600101908051906020019061138a9291906124d9565b50858160020190805190602001906113a39291906124d9565b50848160030160006101000a81548173ffffffffffffffffffffffffffffffffffffffff021916908373ffffffffffffffffffffffffffffffffffffffff160217905550838160040190805190602001906113ff9291906124d9565b5060008160050160006101000a81548160ff02191690831515021790555060008160050160016101000a81548160ff02191690831515021790555060008160050160026101000a81548173ffffffffffffffffffffffffffffffffffffffff021916908373ffffffffffffffffffffffffffffffffffffffff160217905550818160060190805190602001906114969291906124d9565b50828160070160006101000a81548173ffffffffffffffffffffffffffffffffffffffff021916908373ffffffffffffffffffffffffffffffffffffffff16021790555060016009546114e991906132f5565b60098190555050505050505050565b60088180516020810182018051848252602083016020850120818352809550505050505060009150905080600001805461153190613241565b80601f016020809104026020016040519081016040528092919081815260200182805461155d90613241565b80156115aa5780601f1061157f576101008083540402835291602001916115aa565b820191906000526020600020905b81548152906001019060200180831161158d57829003601f168201915b5050505050908060010180546115bf90613241565b80601f01602080910402602001604051908101604052809291908181526020018280546115eb90613241565b80156116385780601f1061160d57610100808354040283529160200191611638565b820191906000526020600020905b81548152906001019060200180831161161b57829003601f168201915b50505050509080600201805461164d90613241565b80601f016020809104026020016040519081016040528092919081815260200182805461167990613241565b80156116c65780601f1061169b576101008083540402835291602001916116c6565b820191906000526020600020905b8154815290600101906020018083116116a957829003601f168201915b5050505050908060030160009054906101000a900473ffffffffffffffffffffffffffffffffffffffff169080600401805461170190613241565b80601f016020809104026020016040519081016040528092919081815260200182805461172d90613241565b801561177a5780601f1061174f5761010080835404028352916020019161177a565b820191906000526020600020905b81548152906001019060200180831161175d57829003601f168201915b5050505050908060050160009054906101000a900460ff16908060050160019054906101000a900460ff16908060050160029054906101000a900473ffffffffffffffffffffffffffffffffffffffff16908060060180546117db90613241565b80601f016020809104026020016040519081016040528092919081815260200182805461180790613241565b80156118545780601f1061182957610100808354040283529160200191611854565b820191906000526020600020905b81548152906001019060200180831161183757829003601f168201915b5050505050908060070160009054906101000a900473ffffffffffffffffffffffffffffffffffffffff1690508a565b600b6020528060005260406000206000915090508060000180546118a790613241565b80601f01602080910402602001604051908101604052809291908181526020018280546118d390613241565b80156119205780601f106118f557610100808354040283529160200191611920565b820191906000526020600020905b81548152906001019060200180831161190357829003601f168201915b50505050509080600101805461193590613241565b80601f016020809104026020016040519081016040528092919081815260200182805461196190613241565b80156119ae5780601f10611983576101008083540402835291602001916119ae565b820191906000526020600020905b81548152906001019060200180831161199157829003601f168201915b5050505050908060020180546119c390613241565b80601f01602080910402602001604051908101604052809291908181526020018280546119ef90613241565b8015611a3c5780601f10611a1157610100808354040283529160200191611a3c565b820191906000526020600020905b815481529060010190602001808311611a1f57829003601f168201915b505050505090806003018054611a5190613241565b80601f0160208091040260200160405190810160405280929190818152602001828054611a7d90613241565b8015611aca5780601f10611a9f57610100808354040283529160200191611aca565b820191906000526020600020905b815481529060010190602001808311611aad57829003601f168201915b505050505090806004018054611adf90613241565b80601f0160208091040260200160405190810160405280929190818152602001828054611b0b90613241565b8015611b585780601f10611b2d57610100808354040283529160200191611b58565b820191906000526020600020905b815481529060010190602001808311611b3b57829003601f168201915b505050505090806005018054611b6d90613241565b80601f0160208091040260200160405190810160405280929190818152602001828054611b9990613241565b8015611be65780601f10611bbb57610100808354040283529160200191611be6565b820191906000526020600020905b815481529060010190602001808311611bc957829003601f168201915b505050505090806006018054611bfb90613241565b80601f0160208091040260200160405190810160405280929190818152602001828054611c2790613241565b8015611c745780601f10611c4957610100808354040283529160200191611c74565b820191906000526020600020905b815481529060010190602001808311611c5757829003601f168201915b505050505090806007018054611c8990613241565b80601f0160208091040260200160405190810160405280929190818152602001828054611cb590613241565b8015611d025780601f10611cd757610100808354040283529160200191611d02565b820191906000526020600020905b815481529060010190602001808311611ce557829003601f168201915b5050505050908060080160009054906101000a900473ffffffffffffffffffffffffffffffffffffffff16905089565b6007818051602081018201805184825260208301602085012081835280955050505050506000915054906101000a900460ff1681565b60068181548110611d7857600080fd5b906000526020600020016000915090508054611d9390613241565b80601f0160208091040260200160405190810160405280929190818152602001828054611dbf90613241565b8015611e0c5780601f10611de157610100808354040283529160200191611e0c565b820191906000526020600020905b815481529060010190602001808311611def57829003601f168201915b505050505081565b60008054906101000a900473ffffffffffffffffffffffffffffffffffffffff1673ffffffffffffffffffffffffffffffffffffffff163373ffffffffffffffffffffffffffffffffffffffff1614611e6c57600080fd5b611f4f600260008373ffffffffffffffffffffffffffffffffffffffff1673ffffffffffffffffffffffffffffffffffffffff1681526020019081526020016000206003018054611ebc90613241565b80601f0160208091040260200160405190810160405280929190818152602001828054611ee890613241565b8015611f355780601f10611f0a57610100808354040283529160200191611f35565b820191906000526020600020905b815481529060010190602001808311611f1857829003601f168201915b5050505050604051806020016040528060008152506124be565b15611f9157600482908060018154018082558091505060019003906000526020600020016000909190919091509080519060200190611f8f9291906124d9565b505b6000600260008373ffffffffffffffffffffffffffffffffffffffff1673ffffffffffffffffffffffffffffffffffffffff168152602001908152602001600020905084816000019080519060200190611fec9291906124d9565b50838160010190805190602001906120059291906124d9565b50818160020160006101000a81548173ffffffffffffffffffffffffffffffffffffffff021916908373ffffffffffffffffffffffffffffffffffffffff160217905550828160030190805190602001906120619291906124d9565b5060018160040160006101000a81548160ff0219169083151502179055506005829080600181540180825580915050600190039060005260206000200160009091909190916101000a81548173ffffffffffffffffffffffffffffffffffffffff021916908373ffffffffffffffffffffffffffffffffffffffff1602179055506001600360008473ffffffffffffffffffffffffffffffffffffffff1673ffffffffffffffffffffffffffffffffffffffff16815260200190815260200160002060006101000a81548160ff0219169083151502179055505050505050565b600060088260405161215391906132af565b9081526020016040518091039020905060008160050160006101000a81548160ff0219169083151502179055505050565b6000600a60003373ffffffffffffffffffffffffffffffffffffffff1673ffffffffffffffffffffffffffffffffffffffff16815260200190815260200160002060009054906101000a900460ff16156121e15760019050612405565b6001600a60003373ffffffffffffffffffffffffffffffffffffffff1673ffffffffffffffffffffffffffffffffffffffff16815260200190815260200160002060006101000a81548160ff0219169083151502179055506000600b60003373ffffffffffffffffffffffffffffffffffffffff1673ffffffffffffffffffffffffffffffffffffffff1681526020019081526020016000209050604051806020016040528060008152508160000190805190602001906122a39291906124d9565b50604051806020016040528060008152508160010190805190602001906122cb9291906124d9565b50604051806020016040528060008152508160020190805190602001906122f39291906124d9565b506040518060200160405280600081525081600301908051906020019061231b9291906124d9565b50604051806020016040528060008152508160040190805190602001906123439291906124d9565b506040518060200160405280600081525081600501908051906020019061236b9291906124d9565b50604051806020016040528060008152508160060190805190602001906123939291906124d9565b50604051806020016040528060008152508160070190805190602001906123bb9291906124d9565b50338160080160006101000a81548173ffffffffffffffffffffffffffffffffffffffff021916908373ffffffffffffffffffffffffffffffffffffffff16021790555060019150505b90565b60008054906101000a900473ffffffffffffffffffffffffffffffffffffffff1673ffffffffffffffffffffffffffffffffffffffff163373ffffffffffffffffffffffffffffffffffffffff161461246057600080fd5b6000600260008373ffffffffffffffffffffffffffffffffffffffff1673ffffffffffffffffffffffffffffffffffffffff16815260200190815260200160002060040160006101000a81548160ff02191690831515021790555050565b60008180519060200120838051906020012014905092915050565b8280546124e590613241565b90600052602060002090601f016020900481019282612507576000855561254e565b82601f1061252057805160ff191683800117855561254e565b8280016001018555821561254e579182015b8281111561254d578251825591602001919060010190612532565b5b50905061255b9190612633565b5090565b6040518060a001604052806060815260200160608152602001600073ffffffffffffffffffffffffffffffffffffffff168152602001606081526020016000151581525090565b8280546125b290613241565b90600052602060002090601f0160209004810192826125d45760008555612622565b82601f106125e55780548555612622565b8280016001018555821561262257600052602060002091601f016020900482015b82811115612621578254825591600101919060010190612606565b5b50905061262f9190612633565b5090565b5b8082111561264c576000816000905550600101612634565b5090565b600073ffffffffffffffffffffffffffffffffffffffff82169050919050565b600061267b82612650565b9050919050565b61268b81612670565b82525050565b60006020820190506126a66000830184612682565b92915050565b6000604051905090565b600080fd5b600080fd5b6000819050919050565b6126d3816126c0565b81146126de57600080fd5b50565b6000813590506126f0816126ca565b92915050565b60006020828403121561270c5761270b6126b6565b5b600061271a848285016126e1565b91505092915050565b600080fd5b600080fd5b6000601f19601f8301169050919050565b7f4e487b7100000000000000000000000000000000000000000000000000000000600052604160045260246000fd5b6127768261272d565b810181811067ffffffffffffffff821117156127955761279461273e565b5b80604052505050565b60006127a86126ac565b90506127b4828261276d565b919050565b600067ffffffffffffffff8211156127d4576127d361273e565b5b6127dd8261272d565b9050602081019050919050565b82818337600083830152505050565b600061280c612807846127b9565b61279e565b90508281526020810184848401111561282857612827612728565b5b6128338482856127ea565b509392505050565b600082601f8301126128505761284f612723565b5b81356128608482602086016127f9565b91505092915050565b61287281612670565b811461287d57600080fd5b50565b60008135905061288f81612869565b92915050565b600080600080608085870312156128af576128ae6126b6565b5b600085013567ffffffffffffffff8111156128cd576128cc6126bb565b5b6128d98782880161283b565b945050602085013567ffffffffffffffff8111156128fa576128f96126bb565b5b6129068782880161283b565b935050604085013567ffffffffffffffff811115612927576129266126bb565b5b6129338782880161283b565b925050606061294487828801612880565b91505092959194509250565b600081519050919050565b600082825260208201905092915050565b6000819050602082019050919050565b600081519050919050565b600082825260208201905092915050565b60005b838110156129b657808201518184015260208101905061299b565b838111156129c5576000848401525b50505050565b60006129d68261297c565b6129e08185612987565b93506129f0818560208601612998565b6129f98161272d565b840191505092915050565b6000612a1083836129cb565b905092915050565b6000602082019050919050565b6000612a3082612950565b612a3a818561295b565b935083602082028501612a4c8561296c565b8060005b85811015612a885784840389528151612a698582612a04565b9450612a7483612a18565b925060208a01995050600181019050612a50565b50829750879550505050505092915050565b60006020820190508181036000830152612ab48184612a25565b905092915050565b600060208284031215612ad257612ad16126b6565b5b6000612ae084828501612880565b91505092915050565b612af2816126c0565b82525050565b6000602082019050612b0d6000830184612ae9565b92915050565b600080600080600080600080610100898b031215612b3457612b336126b6565b5b600089013567ffffffffffffffff811115612b5257612b516126bb565b5b612b5e8b828c0161283b565b985050602089013567ffffffffffffffff811115612b7f57612b7e6126bb565b5b612b8b8b828c0161283b565b975050604089013567ffffffffffffffff811115612bac57612bab6126bb565b5b612bb88b828c0161283b565b965050606089013567ffffffffffffffff811115612bd957612bd86126bb565b5b612be58b828c0161283b565b955050608089013567ffffffffffffffff811115612c0657612c056126bb565b5b612c128b828c0161283b565b94505060a089013567ffffffffffffffff811115612c3357612c326126bb565b5b612c3f8b828c0161283b565b93505060c089013567ffffffffffffffff811115612c6057612c5f6126bb565b5b612c6c8b828c0161283b565b92505060e089013567ffffffffffffffff811115612c8d57612c8c6126bb565b5b612c998b828c0161283b565b9150509295985092959890939650565b600082825260208201905092915050565b6000612cc58261297c565b612ccf8185612ca9565b9350612cdf818560208601612998565b612ce88161272d565b840191505092915050565b60006020820190508181036000830152612d0d8184612cba565b905092915050565b60008115159050919050565b612d2a81612d15565b82525050565b600060a0820190508181036000830152612d4a8188612cba565b90508181036020830152612d5e8187612cba565b9050612d6d6040830186612682565b8181036060830152612d7f8185612cba565b9050612d8e6080830184612d21565b9695505050505050565b600060208284031215612dae57612dad6126b6565b5b600082013567ffffffffffffffff811115612dcc57612dcb6126bb565b5b612dd88482850161283b565b91505092915050565b600081519050919050565b600082825260208201905092915050565b6000819050602082019050919050565b612e1681612670565b82525050565b6000612e288383612e0d565b60208301905092915050565b6000602082019050919050565b6000612e4c82612de1565b612e568185612dec565b9350612e6183612dfd565b8060005b83811015612e92578151612e798882612e1c565b9750612e8483612e34565b925050600181019050612e65565b5085935050505092915050565b60006020820190508181036000830152612eb98184612e41565b905092915050565b612eca81612d15565b82525050565b600060a0830160008301518482036000860152612eed82826129cb565b91505060208301518482036020860152612f0782826129cb565b9150506040830151612f1c6040860182612e0d565b5060608301518482036060860152612f3482826129cb565b9150506080830151612f496080860182612ec1565b508091505092915050565b60006020820190508181036000830152612f6e8184612ed0565b905092915050565b6000602082019050612f8b6000830184612d21565b92915050565b60008060008060008060c08789031215612fae57612fad6126b6565b5b600087013567ffffffffffffffff811115612fcc57612fcb6126bb565b5b612fd889828a0161283b565b965050602087013567ffffffffffffffff811115612ff957612ff86126bb565b5b61300589828a0161283b565b955050604061301689828a01612880565b945050606087013567ffffffffffffffff811115613037576130366126bb565b5b61304389828a0161283b565b935050608061305489828a01612880565b92505060a087013567ffffffffffffffff811115613075576130746126bb565b5b61308189828a0161283b565b9150509295509295509295565b60006101408201905081810360008301526130a9818d612cba565b905081810360208301526130bd818c612cba565b905081810360408301526130d1818b612cba565b90506130e0606083018a612682565b81810360808301526130f28189612cba565b905061310160a0830188612d21565b61310e60c0830187612d21565b61311b60e0830186612682565b81810361010083015261312e8185612cba565b905061313e610120830184612682565b9b9a5050505050505050505050565b6000610120820190508181036000830152613168818c612cba565b9050818103602083015261317c818b612cba565b90508181036040830152613190818a612cba565b905081810360608301526131a48189612cba565b905081810360808301526131b88188612cba565b905081810360a08301526131cc8187612cba565b905081810360c08301526131e08186612cba565b905081810360e08301526131f48185612cba565b9050613204610100830184612682565b9a9950505050505050505050565b7f4e487b7100000000000000000000000000000000000000000000000000000000600052602260045260246000fd5b6000600282049050600182168061325957607f821691505b6020821081141561326d5761326c613212565b5b50919050565b600081905092915050565b60006132898261297c565b6132938185613273565b93506132a3818560208601612998565b80840191505092915050565b60006132bb828461327e565b915081905092915050565b7f4e487b7100000000000000000000000000000000000000000000000000000000600052601160045260246000fd5b6000613300826126c0565b915061330b836126c0565b9250827fffffffffffffffffffffffffffffffffffffffffffffffffffffffffffffffff038211156133405761333f6132c6565b5b82820190509291505056fea2646970667358221220e45fdc0bc647873dd9cc85aa3f060bb5736e2356ed1ce0b95aef2d1b4b997d3e64736f6c634300080a0033","opcodes":"PUSH1 0x80 PUSH1 0x40 MSTORE CALLVALUE DUP1 ISZERO PUSH3 0x11 JUMPI PUSH1 0x0 DUP1 REVERT JUMPDEST POP PUSH1 0x40 MLOAD PUSH3 0x3733 CODESIZE SUB DUP1 PUSH3 0x3733 DUP4 CODECOPY DUP2 DUP2 ADD PUSH1 0x40 MSTORE DUP2 ADD SWAP1 PUSH3 0x37 SWAP2 SWAP1 PUSH3 0x2EC JUMP JUMPDEST DUP1 PUSH1 0x1 SWAP1 DUP1 MLOAD SWAP1 PUSH1 0x20 ADD SWAP1 PUSH3 0x4F SWAP3 SWAP2 SWAP1 PUSH3 0x9F JUMP JUMPDEST POP CALLER PUSH1 0x0 DUP1 PUSH2 0x100 EXP DUP2 SLOAD DUP2 PUSH20 0xFFFFFFFFFFFFFFFFFFFFFFFFFFFFFFFFFFFFFFFF MUL NOT AND SWAP1 DUP4 PUSH20 0xFFFFFFFFFFFFFFFFFFFFFFFFFFFFFFFFFFFFFFFF AND MUL OR SWAP1 SSTORE POP PUSH1 0x0 PUSH1 0x9 DUP2 SWAP1 SSTORE POP POP PUSH3 0x3A2 JUMP JUMPDEST DUP3 DUP1 SLOAD PUSH3 0xAD SWAP1 PUSH3 0x36C JUMP JUMPDEST SWAP1 PUSH1 0x0 MSTORE PUSH1 0x20 PUSH1 0x0 KECCAK256 SWAP1 PUSH1 0x1F ADD PUSH1 0x20 SWAP1 DIV DUP2 ADD SWAP3 DUP3 PUSH3 0xD1 JUMPI PUSH1 0x0 DUP6 SSTORE PUSH3 0x11D JUMP JUMPDEST DUP3 PUSH1 0x1F LT PUSH3 0xEC JUMPI DUP1 MLOAD PUSH1 0xFF NOT AND DUP4 DUP1 ADD OR DUP6 SSTORE PUSH3 0x11D JUMP JUMPDEST DUP3 DUP1 ADD PUSH1 0x1 ADD DUP6 SSTORE DUP3 ISZERO PUSH3 0x11D JUMPI SWAP2 DUP3 ADD JUMPDEST DUP3 DUP2 GT ISZERO PUSH3 0x11C JUMPI DUP3 MLOAD DUP3 SSTORE SWAP2 PUSH1 0x20 ADD SWAP2 SWAP1 PUSH1 0x1 ADD SWAP1 PUSH3 0xFF JUMP JUMPDEST JUMPDEST POP SWAP1 POP PUSH3 0x12C SWAP2 SWAP1 PUSH3 0x130 JUMP JUMPDEST POP SWAP1 JUMP JUMPDEST JUMPDEST DUP1 DUP3 GT ISZERO PUSH3 0x14B JUMPI PUSH1 0x0 DUP2 PUSH1 0x0 SWAP1 SSTORE POP PUSH1 0x1 ADD PUSH3 0x131 JUMP JUMPDEST POP SWAP1 JUMP JUMPDEST PUSH1 0x0 PUSH1 0x40 MLOAD SWAP1 POP SWAP1 JUMP JUMPDEST PUSH1 0x0 DUP1 REVERT JUMPDEST PUSH1 0x0 DUP1 REVERT JUMPDEST PUSH1 0x0 DUP1 REVERT JUMPDEST PUSH1 0x0 DUP1 REVERT JUMPDEST PUSH1 0x0 PUSH1 0x1F NOT PUSH1 0x1F DUP4 ADD AND SWAP1 POP SWAP2 SWAP1 POP JUMP JUMPDEST PUSH32 0x4E487B7100000000000000000000000000000000000000000000000000000000 PUSH1 0x0 MSTORE PUSH1 0x41 PUSH1 0x4 MSTORE PUSH1 0x24 PUSH1 0x0 REVERT JUMPDEST PUSH3 0x1B8 DUP3 PUSH3 0x16D JUMP JUMPDEST DUP2 ADD DUP2 DUP2 LT PUSH8 0xFFFFFFFFFFFFFFFF DUP3 GT OR ISZERO PUSH3 0x1DA JUMPI PUSH3 0x1D9 PUSH3 0x17E JUMP JUMPDEST JUMPDEST DUP1 PUSH1 0x40 MSTORE POP POP POP JUMP JUMPDEST PUSH1 0x0 PUSH3 0x1EF PUSH3 0x14F JUMP JUMPDEST SWAP1 POP PUSH3 0x1FD DUP3 DUP3 PUSH3 0x1AD JUMP JUMPDEST SWAP2 SWAP1 POP JUMP JUMPDEST PUSH1 0x0 PUSH8 0xFFFFFFFFFFFFFFFF DUP3 GT ISZERO PUSH3 0x220 JUMPI PUSH3 0x21F PUSH3 0x17E JUMP JUMPDEST JUMPDEST PUSH3 0x22B DUP3 PUSH3 0x16D JUMP JUMPDEST SWAP1 POP PUSH1 0x20 DUP2 ADD SWAP1 POP SWAP2 SWAP1 POP JUMP JUMPDEST PUSH1 0x0 JUMPDEST DUP4 DUP2 LT ISZERO PUSH3 0x258 JUMPI DUP1 DUP3 ADD MLOAD DUP2 DUP5 ADD MSTORE PUSH1 0x20 DUP2 ADD SWAP1 POP PUSH3 0x23B JUMP JUMPDEST DUP4 DUP2 GT ISZERO PUSH3 0x268 JUMPI PUSH1 0x0 DUP5 DUP5 ADD MSTORE JUMPDEST POP POP POP POP JUMP JUMPDEST PUSH1 0x0 PUSH3 0x285 PUSH3 0x27F DUP5 PUSH3 0x202 JUMP JUMPDEST PUSH3 0x1E3 JUMP JUMPDEST SWAP1 POP DUP3 DUP2 MSTORE PUSH1 0x20 DUP2 ADD DUP5 DUP5 DUP5 ADD GT ISZERO PUSH3 0x2A4 JUMPI PUSH3 0x2A3 PUSH3 0x168 JUMP JUMPDEST JUMPDEST PUSH3 0x2B1 DUP5 DUP3 DUP6 PUSH3 0x238 JUMP JUMPDEST POP SWAP4 SWAP3 POP POP POP JUMP JUMPDEST PUSH1 0x0 DUP3 PUSH1 0x1F DUP4 ADD SLT PUSH3 0x2D1 JUMPI PUSH3 0x2D0 PUSH3 0x163 JUMP JUMPDEST JUMPDEST DUP2 MLOAD PUSH3 0x2E3 DUP5 DUP3 PUSH1 0x20 DUP7 ADD PUSH3 0x26E JUMP JUMPDEST SWAP2 POP POP SWAP3 SWAP2 POP POP JUMP JUMPDEST PUSH1 0x0 PUSH1 0x20 DUP3 DUP5 SUB SLT ISZERO PUSH3 0x305 JUMPI PUSH3 0x304 PUSH3 0x159 JUMP JUMPDEST JUMPDEST PUSH1 0x0 DUP3 ADD MLOAD PUSH8 0xFFFFFFFFFFFFFFFF DUP2 GT ISZERO PUSH3 0x326 JUMPI PUSH3 0x325 PUSH3 0x15E JUMP JUMPDEST JUMPDEST PUSH3 0x334 DUP5 DUP3 DUP6 ADD PUSH3 0x2B9 JUMP JUMPDEST SWAP2 POP POP SWAP3 SWAP2 POP POP JUMP JUMPDEST PUSH32 0x4E487B7100000000000000000000000000000000000000000000000000000000 PUSH1 0x0 MSTORE PUSH1 0x22 PUSH1 0x4 MSTORE PUSH1 0x24 PUSH1 0x0 REVERT JUMPDEST PUSH1 0x0 PUSH1 0x2 DUP3 DIV SWAP1 POP PUSH1 0x1 DUP3 AND DUP1 PUSH3 0x385 JUMPI PUSH1 0x7F DUP3 AND SWAP2 POP JUMPDEST PUSH1 0x20 DUP3 LT DUP2 EQ ISZERO PUSH3 0x39C JUMPI PUSH3 0x39B PUSH3 0x33D JUMP JUMPDEST JUMPDEST POP SWAP2 SWAP1 POP JUMP JUMPDEST PUSH2 0x3381 DUP1 PUSH3 0x3B2 PUSH1 0x0 CODECOPY PUSH1 0x0 RETURN INVALID PUSH1 0x80 PUSH1 0x40 MSTORE CALLVALUE DUP1 ISZERO PUSH2 0x10 JUMPI PUSH1 0x0 DUP1 REVERT JUMPDEST POP PUSH1 0x4 CALLDATASIZE LT PUSH2 0x173 JUMPI PUSH1 0x0 CALLDATALOAD PUSH1 0xE0 SHR DUP1 PUSH4 0x64EFB22B GT PUSH2 0xDE JUMPI DUP1 PUSH4 0xBE87BB8A GT PUSH2 0x97 JUMPI DUP1 PUSH4 0xCDDB61B7 GT PUSH2 0x71 JUMPI DUP1 PUSH4 0xCDDB61B7 EQ PUSH2 0x499 JUMPI DUP1 PUSH4 0xD896FC96 EQ PUSH2 0x4B5 JUMPI DUP1 PUSH4 0xDB9573E1 EQ PUSH2 0x4D1 JUMPI DUP1 PUSH4 0xDF6FA20E EQ PUSH2 0x4EF JUMPI PUSH2 0x173 JUMP JUMPDEST DUP1 PUSH4 0xBE87BB8A EQ PUSH2 0x401 JUMPI DUP1 PUSH4 0xC4A0086F EQ PUSH2 0x439 JUMPI DUP1 PUSH4 0xCBD5121C EQ PUSH2 0x469 JUMPI PUSH2 0x173 JUMP JUMPDEST DUP1 PUSH4 0x64EFB22B EQ PUSH2 0x312 JUMPI DUP1 PUSH4 0x67B57142 EQ PUSH2 0x342 JUMPI DUP1 PUSH4 0x8B5C9335 EQ PUSH2 0x372 JUMPI DUP1 PUSH4 0x935B377B EQ PUSH2 0x390 JUMPI DUP1 PUSH4 0xADE79551 EQ PUSH2 0x3AC JUMPI DUP1 PUSH4 0xB1C8AD0D EQ PUSH2 0x3C8 JUMPI PUSH2 0x173 JUMP JUMPDEST DUP1 PUSH4 0x245351C9 GT PUSH2 0x130 JUMPI DUP1 PUSH4 0x245351C9 EQ PUSH2 0x23A JUMPI DUP1 PUSH4 0x2A979F31 EQ PUSH2 0x256 JUMPI DUP1 PUSH4 0x2DE8F46D EQ PUSH2 0x286 JUMPI DUP1 PUSH4 0x429B62E5 EQ PUSH2 0x2A4 JUMPI DUP1 PUSH4 0x53BEB691 EQ PUSH2 0x2D8 JUMPI DUP1 PUSH4 0x64DDFA29 EQ PUSH2 0x2F4 JUMPI PUSH2 0x173 JUMP JUMPDEST DUP1 PUSH4 0x45B3034 EQ PUSH2 0x178 JUMPI DUP1 PUSH4 0x13718C97 EQ PUSH2 0x196 JUMPI DUP1 PUSH4 0x1510F0D5 EQ PUSH2 0x1C6 JUMPI DUP1 PUSH4 0x1A994ED8 EQ PUSH2 0x1E2 JUMPI DUP1 PUSH4 0x1AF1A768 EQ PUSH2 0x200 JUMPI DUP1 PUSH4 0x1C9AFD0F EQ PUSH2 0x21C JUMPI JUMPDEST PUSH1 0x0 DUP1 REVERT JUMPDEST PUSH2 0x180 PUSH2 0x50B JUMP JUMPDEST PUSH1 0x40 MLOAD PUSH2 0x18D SWAP2 SWAP1 PUSH2 0x2691 JUMP JUMPDEST PUSH1 0x40 MLOAD DUP1 SWAP2 SUB SWAP1 RETURN JUMPDEST PUSH2 0x1B0 PUSH1 0x4 DUP1 CALLDATASIZE SUB DUP2 ADD SWAP1 PUSH2 0x1AB SWAP2 SWAP1 PUSH2 0x26F6 JUMP JUMPDEST PUSH2 0x52F JUMP JUMPDEST PUSH1 0x40 MLOAD PUSH2 0x1BD SWAP2 SWAP1 PUSH2 0x2691 JUMP JUMPDEST PUSH1 0x40 MLOAD DUP1 SWAP2 SUB SWAP1 RETURN JUMPDEST PUSH2 0x1E0 PUSH1 0x4 DUP1 CALLDATASIZE SUB DUP2 ADD SWAP1 PUSH2 0x1DB SWAP2 SWAP1 PUSH2 0x2895 JUMP JUMPDEST PUSH2 0x56E JUMP JUMPDEST STOP JUMPDEST PUSH2 0x1EA PUSH2 0x65B JUMP JUMPDEST PUSH1 0x40 MLOAD PUSH2 0x1F7 SWAP2 SWAP1 PUSH2 0x2A9A JUMP JUMPDEST PUSH1 0x40 MLOAD DUP1 SWAP2 SUB SWAP1 RETURN JUMPDEST PUSH2 0x21A PUSH1 0x4 DUP1 CALLDATASIZE SUB DUP2 ADD SWAP1 PUSH2 0x215 SWAP2 SWAP1 PUSH2 0x2ABC JUMP JUMPDEST PUSH2 0x78A JUMP JUMPDEST STOP JUMPDEST PUSH2 0x224 PUSH2 0x840 JUMP JUMPDEST PUSH1 0x40 MLOAD PUSH2 0x231 SWAP2 SWAP1 PUSH2 0x2AF8 JUMP JUMPDEST PUSH1 0x40 MLOAD DUP1 SWAP2 SUB SWAP1 RETURN JUMPDEST PUSH2 0x254 PUSH1 0x4 DUP1 CALLDATASIZE SUB DUP2 ADD SWAP1 PUSH2 0x24F SWAP2 SWAP1 PUSH2 0x2B13 JUMP JUMPDEST PUSH2 0x846 JUMP JUMPDEST STOP JUMPDEST PUSH2 0x270 PUSH1 0x4 DUP1 CALLDATASIZE SUB DUP2 ADD SWAP1 PUSH2 0x26B SWAP2 SWAP1 PUSH2 0x26F6 JUMP JUMPDEST PUSH2 0x95C JUMP JUMPDEST PUSH1 0x40 MLOAD PUSH2 0x27D SWAP2 SWAP1 PUSH2 0x2CF3 JUMP JUMPDEST PUSH1 0x40 MLOAD DUP1 SWAP2 SUB SWAP1 RETURN JUMPDEST PUSH2 0x28E PUSH2 0xA08 JUMP JUMPDEST PUSH1 0x40 MLOAD PUSH2 0x29B SWAP2 SWAP1 PUSH2 0x2CF3 JUMP JUMPDEST PUSH1 0x40 MLOAD DUP1 SWAP2 SUB SWAP1 RETURN JUMPDEST PUSH2 0x2BE PUSH1 0x4 DUP1 CALLDATASIZE SUB DUP2 ADD SWAP1 PUSH2 0x2B9 SWAP2 SWAP1 PUSH2 0x2ABC JUMP JUMPDEST PUSH2 0xAF2 JUMP JUMPDEST PUSH1 0x40 MLOAD PUSH2 0x2CF SWAP6 SWAP5 SWAP4 SWAP3 SWAP2 SWAP1 PUSH2 0x2D30 JUMP JUMPDEST PUSH1 0x40 MLOAD DUP1 SWAP2 SUB SWAP1 RETURN JUMPDEST PUSH2 0x2F2 PUSH1 0x4 DUP1 CALLDATASIZE SUB DUP2 ADD SWAP1 PUSH2 0x2ED SWAP2 SWAP1 PUSH2 0x2D98 JUMP JUMPDEST PUSH2 0xCED JUMP JUMPDEST STOP JUMPDEST PUSH2 0x2FC PUSH2 0xD73 JUMP JUMPDEST PUSH1 0x40 MLOAD PUSH2 0x309 SWAP2 SWAP1 PUSH2 0x2E9F JUMP JUMPDEST PUSH1 0x40 MLOAD DUP1 SWAP2 SUB SWAP1 RETURN JUMPDEST PUSH2 0x32C PUSH1 0x4 DUP1 CALLDATASIZE SUB DUP2 ADD SWAP1 PUSH2 0x327 SWAP2 SWAP1 PUSH2 0x2ABC JUMP JUMPDEST PUSH2 0xE59 JUMP JUMPDEST PUSH1 0x40 MLOAD PUSH2 0x339 SWAP2 SWAP1 PUSH2 0x2F54 JUMP JUMPDEST PUSH1 0x40 MLOAD DUP1 SWAP2 SUB SWAP1 RETURN JUMPDEST PUSH2 0x35C PUSH1 0x4 DUP1 CALLDATASIZE SUB DUP2 ADD SWAP1 PUSH2 0x357 SWAP2 SWAP1 PUSH2 0x2ABC JUMP JUMPDEST PUSH2 0x1131 JUMP JUMPDEST PUSH1 0x40 MLOAD PUSH2 0x369 SWAP2 SWAP1 PUSH2 0x2F76 JUMP JUMPDEST PUSH1 0x40 MLOAD DUP1 SWAP2 SUB SWAP1 RETURN JUMPDEST PUSH2 0x37A PUSH2 0x1151 JUMP JUMPDEST PUSH1 0x40 MLOAD PUSH2 0x387 SWAP2 SWAP1 PUSH2 0x2F76 JUMP JUMPDEST PUSH1 0x40 MLOAD DUP1 SWAP2 SUB SWAP1 RETURN JUMPDEST PUSH2 0x3AA PUSH1 0x4 DUP1 CALLDATASIZE SUB DUP2 ADD SWAP1 PUSH2 0x3A5 SWAP2 SWAP1 PUSH2 0x2D98 JUMP JUMPDEST PUSH2 0x11B0 JUMP JUMPDEST STOP JUMPDEST PUSH2 0x3C6 PUSH1 0x4 DUP1 CALLDATASIZE SUB DUP2 ADD SWAP1 PUSH2 0x3C1 SWAP2 SWAP1 PUSH2 0x2F91 JUMP JUMPDEST PUSH2 0x11F3 JUMP JUMPDEST STOP JUMPDEST PUSH2 0x3E2 PUSH1 0x4 DUP1 CALLDATASIZE SUB DUP2 ADD SWAP1 PUSH2 0x3DD SWAP2 SWAP1 PUSH2 0x2D98 JUMP JUMPDEST PUSH2 0x14F8 JUMP JUMPDEST PUSH1 0x40 MLOAD PUSH2 0x3F8 SWAP11 SWAP10 SWAP9 SWAP8 SWAP7 SWAP6 SWAP5 SWAP4 SWAP3 SWAP2 SWAP1 PUSH2 0x308E JUMP JUMPDEST PUSH1 0x40 MLOAD DUP1 SWAP2 SUB SWAP1 RETURN JUMPDEST PUSH2 0x41B PUSH1 0x4 DUP1 CALLDATASIZE SUB DUP2 ADD SWAP1 PUSH2 0x416 SWAP2 SWAP1 PUSH2 0x2ABC JUMP JUMPDEST PUSH2 0x1884 JUMP JUMPDEST PUSH1 0x40 MLOAD PUSH2 0x430 SWAP10 SWAP9 SWAP8 SWAP7 SWAP6 SWAP5 SWAP4 SWAP3 SWAP2 SWAP1 PUSH2 0x314D JUMP JUMPDEST PUSH1 0x40 MLOAD DUP1 SWAP2 SUB SWAP1 RETURN JUMPDEST PUSH2 0x453 PUSH1 0x4 DUP1 CALLDATASIZE SUB DUP2 ADD SWAP1 PUSH2 0x44E SWAP2 SWAP1 PUSH2 0x2D98 JUMP JUMPDEST PUSH2 0x1D32 JUMP JUMPDEST PUSH1 0x40 MLOAD PUSH2 0x460 SWAP2 SWAP1 PUSH2 0x2F76 JUMP JUMPDEST PUSH1 0x40 MLOAD DUP1 SWAP2 SUB SWAP1 RETURN JUMPDEST PUSH2 0x483 PUSH1 0x4 DUP1 CALLDATASIZE SUB DUP2 ADD SWAP1 PUSH2 0x47E SWAP2 SWAP1 PUSH2 0x26F6 JUMP JUMPDEST PUSH2 0x1D68 JUMP JUMPDEST PUSH1 0x40 MLOAD PUSH2 0x490 SWAP2 SWAP1 PUSH2 0x2CF3 JUMP JUMPDEST PUSH1 0x40 MLOAD DUP1 SWAP2 SUB SWAP1 RETURN JUMPDEST PUSH2 0x4B3 PUSH1 0x4 DUP1 CALLDATASIZE SUB DUP2 ADD SWAP1 PUSH2 0x4AE SWAP2 SWAP1 PUSH2 0x2895 JUMP JUMPDEST PUSH2 0x1E14 JUMP JUMPDEST STOP JUMPDEST PUSH2 0x4CF PUSH1 0x4 DUP1 CALLDATASIZE SUB DUP2 ADD SWAP1 PUSH2 0x4CA SWAP2 SWAP1 PUSH2 0x2D98 JUMP JUMPDEST PUSH2 0x2141 JUMP JUMPDEST STOP JUMPDEST PUSH2 0x4D9 PUSH2 0x2184 JUMP JUMPDEST PUSH1 0x40 MLOAD PUSH2 0x4E6 SWAP2 SWAP1 PUSH2 0x2F76 JUMP JUMPDEST PUSH1 0x40 MLOAD DUP1 SWAP2 SUB SWAP1 RETURN JUMPDEST PUSH2 0x509 PUSH1 0x4 DUP1 CALLDATASIZE SUB DUP2 ADD SWAP1 PUSH2 0x504 SWAP2 SWAP1 PUSH2 0x2ABC JUMP JUMPDEST PUSH2 0x2408 JUMP JUMPDEST STOP JUMPDEST PUSH1 0x0 DUP1 SLOAD SWAP1 PUSH2 0x100 EXP SWAP1 DIV PUSH20 0xFFFFFFFFFFFFFFFFFFFFFFFFFFFFFFFFFFFFFFFF AND DUP2 JUMP JUMPDEST PUSH1 0x5 DUP2 DUP2 SLOAD DUP2 LT PUSH2 0x53F JUMPI PUSH1 0x0 DUP1 REVERT JUMPDEST SWAP1 PUSH1 0x0 MSTORE PUSH1 0x20 PUSH1 0x0 KECCAK256 ADD PUSH1 0x0 SWAP2 POP SLOAD SWAP1 PUSH2 0x100 EXP SWAP1 DIV PUSH20 0xFFFFFFFFFFFFFFFFFFFFFFFFFFFFFFFFFFFFFFFF AND DUP2 JUMP JUMPDEST PUSH1 0x0 DUP1 SLOAD SWAP1 PUSH2 0x100 EXP SWAP1 DIV PUSH20 0xFFFFFFFFFFFFFFFFFFFFFFFFFFFFFFFFFFFFFFFF AND PUSH20 0xFFFFFFFFFFFFFFFFFFFFFFFFFFFFFFFFFFFFFFFF AND CALLER PUSH20 0xFFFFFFFFFFFFFFFFFFFFFFFFFFFFFFFFFFFFFFFF AND EQ PUSH2 0x5C6 JUMPI PUSH1 0x0 DUP1 REVERT JUMPDEST PUSH1 0x0 PUSH1 0x2 PUSH1 0x0 DUP4 PUSH20 0xFFFFFFFFFFFFFFFFFFFFFFFFFFFFFFFFFFFFFFFF AND PUSH20 0xFFFFFFFFFFFFFFFFFFFFFFFFFFFFFFFFFFFFFFFF AND DUP2 MSTORE PUSH1 0x20 ADD SWAP1 DUP2 MSTORE PUSH1 0x20 ADD PUSH1 0x0 KECCAK256 SWAP1 POP DUP5 DUP2 PUSH1 0x0 ADD SWAP1 DUP1 MLOAD SWAP1 PUSH1 0x20 ADD SWAP1 PUSH2 0x621 SWAP3 SWAP2 SWAP1 PUSH2 0x24D9 JUMP JUMPDEST POP DUP4 DUP2 PUSH1 0x1 ADD SWAP1 DUP1 MLOAD SWAP1 PUSH1 0x20 ADD SWAP1 PUSH2 0x63A SWAP3 SWAP2 SWAP1 PUSH2 0x24D9 JUMP JUMPDEST POP DUP3 DUP2 PUSH1 0x3 ADD SWAP1 DUP1 MLOAD SWAP1 PUSH1 0x20 ADD SWAP1 PUSH2 0x653 SWAP3 SWAP2 SWAP1 PUSH2 0x24D9 JUMP JUMPDEST POP POP POP POP POP POP JUMP JUMPDEST PUSH1 0x60 PUSH1 0x3 PUSH1 0x0 CALLER PUSH20 0xFFFFFFFFFFFFFFFFFFFFFFFFFFFFFFFFFFFFFFFF AND PUSH20 0xFFFFFFFFFFFFFFFFFFFFFFFFFFFFFFFFFFFFFFFF AND DUP2 MSTORE PUSH1 0x20 ADD SWAP1 DUP2 MSTORE PUSH1 0x20 ADD PUSH1 0x0 KECCAK256 PUSH1 0x0 SWAP1 SLOAD SWAP1 PUSH2 0x100 EXP SWAP1 DIV PUSH1 0xFF AND PUSH2 0x6B3 JUMPI PUSH1 0x0 DUP1 REVERT JUMPDEST PUSH1 0x6 DUP1 SLOAD DUP1 PUSH1 0x20 MUL PUSH1 0x20 ADD PUSH1 0x40 MLOAD SWAP1 DUP2 ADD PUSH1 0x40 MSTORE DUP1 SWAP3 SWAP2 SWAP1 DUP2 DUP2 MSTORE PUSH1 0x20 ADD PUSH1 0x0 SWAP1 JUMPDEST DUP3 DUP3 LT ISZERO PUSH2 0x781 JUMPI DUP4 DUP3 SWAP1 PUSH1 0x0 MSTORE PUSH1 0x20 PUSH1 0x0 KECCAK256 ADD DUP1 SLOAD PUSH2 0x6F4 SWAP1 PUSH2 0x3241 JUMP JUMPDEST DUP1 PUSH1 0x1F ADD PUSH1 0x20 DUP1 SWAP2 DIV MUL PUSH1 0x20 ADD PUSH1 0x40 MLOAD SWAP1 DUP2 ADD PUSH1 0x40 MSTORE DUP1 SWAP3 SWAP2 SWAP1 DUP2 DUP2 MSTORE PUSH1 0x20 ADD DUP3 DUP1 SLOAD PUSH2 0x720 SWAP1 PUSH2 0x3241 JUMP JUMPDEST DUP1 ISZERO PUSH2 0x76D JUMPI DUP1 PUSH1 0x1F LT PUSH2 0x742 JUMPI PUSH2 0x100 DUP1 DUP4 SLOAD DIV MUL DUP4 MSTORE SWAP2 PUSH1 0x20 ADD SWAP2 PUSH2 0x76D JUMP JUMPDEST DUP3 ADD SWAP2 SWAP1 PUSH1 0x0 MSTORE PUSH1 0x20 PUSH1 0x0 KECCAK256 SWAP1 JUMPDEST DUP2 SLOAD DUP2 MSTORE SWAP1 PUSH1 0x1 ADD SWAP1 PUSH1 0x20 ADD DUP1 DUP4 GT PUSH2 0x750 JUMPI DUP3 SWAP1 SUB PUSH1 0x1F AND DUP3 ADD SWAP2 JUMPDEST POP POP POP POP POP DUP2 MSTORE PUSH1 0x20 ADD SWAP1 PUSH1 0x1 ADD SWAP1 PUSH2 0x6D5 JUMP JUMPDEST POP POP POP POP SWAP1 POP SWAP1 JUMP JUMPDEST PUSH1 0x0 DUP1 SLOAD SWAP1 PUSH2 0x100 EXP SWAP1 DIV PUSH20 0xFFFFFFFFFFFFFFFFFFFFFFFFFFFFFFFFFFFFFFFF AND PUSH20 0xFFFFFFFFFFFFFFFFFFFFFFFFFFFFFFFFFFFFFFFF AND CALLER PUSH20 0xFFFFFFFFFFFFFFFFFFFFFFFFFFFFFFFFFFFFFFFF AND EQ PUSH2 0x7E2 JUMPI PUSH1 0x0 DUP1 REVERT JUMPDEST PUSH1 0x1 PUSH1 0x2 PUSH1 0x0 DUP4 PUSH20 0xFFFFFFFFFFFFFFFFFFFFFFFFFFFFFFFFFFFFFFFF AND PUSH20 0xFFFFFFFFFFFFFFFFFFFFFFFFFFFFFFFFFFFFFFFF AND DUP2 MSTORE PUSH1 0x20 ADD SWAP1 DUP2 MSTORE PUSH1 0x20 ADD PUSH1 0x0 KECCAK256 PUSH1 0x4 ADD PUSH1 0x0 PUSH2 0x100 EXP DUP2 SLOAD DUP2 PUSH1 0xFF MUL NOT AND SWAP1 DUP4 ISZERO ISZERO MUL OR SWAP1 SSTORE POP POP JUMP JUMPDEST PUSH1 0x9 SLOAD DUP2 JUMP JUMPDEST PUSH1 0x0 PUSH1 0xB PUSH1 0x0 CALLER PUSH20 0xFFFFFFFFFFFFFFFFFFFFFFFFFFFFFFFFFFFFFFFF AND PUSH20 0xFFFFFFFFFFFFFFFFFFFFFFFFFFFFFFFFFFFFFFFF AND DUP2 MSTORE PUSH1 0x20 ADD SWAP1 DUP2 MSTORE PUSH1 0x20 ADD PUSH1 0x0 KECCAK256 SWAP1 POP DUP9 DUP2 PUSH1 0x0 ADD SWAP1 DUP1 MLOAD SWAP1 PUSH1 0x20 ADD SWAP1 PUSH2 0x8A1 SWAP3 SWAP2 SWAP1 PUSH2 0x24D9 JUMP JUMPDEST POP DUP8 DUP2 PUSH1 0x1 ADD SWAP1 DUP1 MLOAD SWAP1 PUSH1 0x20 ADD SWAP1 PUSH2 0x8BA SWAP3 SWAP2 SWAP1 PUSH2 0x24D9 JUMP JUMPDEST POP DUP7 DUP2 PUSH1 0x2 ADD SWAP1 DUP1 MLOAD SWAP1 PUSH1 0x20 ADD SWAP1 PUSH2 0x8D3 SWAP3 SWAP2 SWAP1 PUSH2 0x24D9 JUMP JUMPDEST POP DUP6 DUP2 PUSH1 0x3 ADD SWAP1 DUP1 MLOAD SWAP1 PUSH1 0x20 ADD SWAP1 PUSH2 0x8EC SWAP3 SWAP2 SWAP1 PUSH2 0x24D9 JUMP JUMPDEST POP DUP5 DUP2 PUSH1 0x4 ADD SWAP1 DUP1 MLOAD SWAP1 PUSH1 0x20 ADD SWAP1 PUSH2 0x905 SWAP3 SWAP2 SWAP1 PUSH2 0x24D9 JUMP JUMPDEST POP DUP4 DUP2 PUSH1 0x5 ADD SWAP1 DUP1 MLOAD SWAP1 PUSH1 0x20 ADD SWAP1 PUSH2 0x91E SWAP3 SWAP2 SWAP1 PUSH2 0x24D9 JUMP JUMPDEST POP DUP3 DUP2 PUSH1 0x6 ADD SWAP1 DUP1 MLOAD SWAP1 PUSH1 0x20 ADD SWAP1 PUSH2 0x937 SWAP3 SWAP2 SWAP1 PUSH2 0x24D9 JUMP JUMPDEST POP DUP2 DUP2 PUSH1 0x7 ADD SWAP1 DUP1 MLOAD SWAP1 PUSH1 0x20 ADD SWAP1 PUSH2 0x950 SWAP3 SWAP2 SWAP1 PUSH2 0x24D9 JUMP JUMPDEST POP POP POP POP POP POP POP POP POP POP JUMP JUMPDEST PUSH1 0x4 DUP2 DUP2 SLOAD DUP2 LT PUSH2 0x96C JUMPI PUSH1 0x0 DUP1 REVERT JUMPDEST SWAP1 PUSH1 0x0 MSTORE PUSH1 0x20 PUSH1 0x0 KECCAK256 ADD PUSH1 0x0 SWAP2 POP SWAP1 POP DUP1 SLOAD PUSH2 0x987 SWAP1 PUSH2 0x3241 JUMP JUMPDEST DUP1 PUSH1 0x1F ADD PUSH1 0x20 DUP1 SWAP2 DIV MUL PUSH1 0x20 ADD PUSH1 0x40 MLOAD SWAP1 DUP2 ADD PUSH1 0x40 MSTORE DUP1 SWAP3 SWAP2 SWAP1 DUP2 DUP2 MSTORE PUSH1 0x20 ADD DUP3 DUP1 SLOAD PUSH2 0x9B3 SWAP1 PUSH2 0x3241 JUMP JUMPDEST DUP1 ISZERO PUSH2 0xA00 JUMPI DUP1 PUSH1 0x1F LT PUSH2 0x9D5 JUMPI PUSH2 0x100 DUP1 DUP4 SLOAD DIV MUL DUP4 MSTORE SWAP2 PUSH1 0x20 ADD SWAP2 PUSH2 0xA00 JUMP JUMPDEST DUP3 ADD SWAP2 SWAP1 PUSH1 0x0 MSTORE PUSH1 0x20 PUSH1 0x0 KECCAK256 SWAP1 JUMPDEST DUP2 SLOAD DUP2 MSTORE SWAP1 PUSH1 0x1 ADD SWAP1 PUSH1 0x20 ADD DUP1 DUP4 GT PUSH2 0x9E3 JUMPI DUP3 SWAP1 SUB PUSH1 0x1F AND DUP3 ADD SWAP2 JUMPDEST POP POP POP POP POP DUP2 JUMP JUMPDEST PUSH1 0x60 PUSH1 0x0 DUP1 SLOAD SWAP1 PUSH2 0x100 EXP SWAP1 DIV PUSH20 0xFFFFFFFFFFFFFFFFFFFFFFFFFFFFFFFFFFFFFFFF AND PUSH20 0xFFFFFFFFFFFFFFFFFFFFFFFFFFFFFFFFFFFFFFFF AND CALLER PUSH20 0xFFFFFFFFFFFFFFFFFFFFFFFFFFFFFFFFFFFFFFFF AND EQ PUSH2 0xA62 JUMPI PUSH1 0x0 DUP1 REVERT JUMPDEST PUSH1 0x1 DUP1 SLOAD PUSH2 0xA6F SWAP1 PUSH2 0x3241 JUMP JUMPDEST DUP1 PUSH1 0x1F ADD PUSH1 0x20 DUP1 SWAP2 DIV MUL PUSH1 0x20 ADD PUSH1 0x40 MLOAD SWAP1 DUP2 ADD PUSH1 0x40 MSTORE DUP1 SWAP3 SWAP2 SWAP1 DUP2 DUP2 MSTORE PUSH1 0x20 ADD DUP3 DUP1 SLOAD PUSH2 0xA9B SWAP1 PUSH2 0x3241 JUMP JUMPDEST DUP1 ISZERO PUSH2 0xAE8 JUMPI DUP1 PUSH1 0x1F LT PUSH2 0xABD JUMPI PUSH2 0x100 DUP1 DUP4 SLOAD DIV MUL DUP4 MSTORE SWAP2 PUSH1 0x20 ADD SWAP2 PUSH2 0xAE8 JUMP JUMPDEST DUP3 ADD SWAP2 SWAP1 PUSH1 0x0 MSTORE PUSH1 0x20 PUSH1 0x0 KECCAK256 SWAP1 JUMPDEST DUP2 SLOAD DUP2 MSTORE SWAP1 PUSH1 0x1 ADD SWAP1 PUSH1 0x20 ADD DUP1 DUP4 GT PUSH2 0xACB JUMPI DUP3 SWAP1 SUB PUSH1 0x1F AND DUP3 ADD SWAP2 JUMPDEST POP POP POP POP POP SWAP1 POP SWAP1 JUMP JUMPDEST PUSH1 0x2 PUSH1 0x20 MSTORE DUP1 PUSH1 0x0 MSTORE PUSH1 0x40 PUSH1 0x0 KECCAK256 PUSH1 0x0 SWAP2 POP SWAP1 POP DUP1 PUSH1 0x0 ADD DUP1 SLOAD PUSH2 0xB15 SWAP1 PUSH2 0x3241 JUMP JUMPDEST DUP1 PUSH1 0x1F ADD PUSH1 0x20 DUP1 SWAP2 DIV MUL PUSH1 0x20 ADD PUSH1 0x40 MLOAD SWAP1 DUP2 ADD PUSH1 0x40 MSTORE DUP1 SWAP3 SWAP2 SWAP1 DUP2 DUP2 MSTORE PUSH1 0x20 ADD DUP3 DUP1 SLOAD PUSH2 0xB41 SWAP1 PUSH2 0x3241 JUMP JUMPDEST DUP1 ISZERO PUSH2 0xB8E JUMPI DUP1 PUSH1 0x1F LT PUSH2 0xB63 JUMPI PUSH2 0x100 DUP1 DUP4 SLOAD DIV MUL DUP4 MSTORE SWAP2 PUSH1 0x20 ADD SWAP2 PUSH2 0xB8E JUMP JUMPDEST DUP3 ADD SWAP2 SWAP1 PUSH1 0x0 MSTORE PUSH1 0x20 PUSH1 0x0 KECCAK256 SWAP1 JUMPDEST DUP2 SLOAD DUP2 MSTORE SWAP1 PUSH1 0x1 ADD SWAP1 PUSH1 0x20 ADD DUP1 DUP4 GT PUSH2 0xB71 JUMPI DUP3 SWAP1 SUB PUSH1 0x1F AND DUP3 ADD SWAP2 JUMPDEST POP POP POP POP POP SWAP1 DUP1 PUSH1 0x1 ADD DUP1 SLOAD PUSH2 0xBA3 SWAP1 PUSH2 0x3241 JUMP JUMPDEST DUP1 PUSH1 0x1F ADD PUSH1 0x20 DUP1 SWAP2 DIV MUL PUSH1 0x20 ADD PUSH1 0x40 MLOAD SWAP1 DUP2 ADD PUSH1 0x40 MSTORE DUP1 SWAP3 SWAP2 SWAP1 DUP2 DUP2 MSTORE PUSH1 0x20 ADD DUP3 DUP1 SLOAD PUSH2 0xBCF SWAP1 PUSH2 0x3241 JUMP JUMPDEST DUP1 ISZERO PUSH2 0xC1C JUMPI DUP1 PUSH1 0x1F LT PUSH2 0xBF1 JUMPI PUSH2 0x100 DUP1 DUP4 SLOAD DIV MUL DUP4 MSTORE SWAP2 PUSH1 0x20 ADD SWAP2 PUSH2 0xC1C JUMP JUMPDEST DUP3 ADD SWAP2 SWAP1 PUSH1 0x0 MSTORE PUSH1 0x20 PUSH1 0x0 KECCAK256 SWAP1 JUMPDEST DUP2 SLOAD DUP2 MSTORE SWAP1 PUSH1 0x1 ADD SWAP1 PUSH1 0x20 ADD DUP1 DUP4 GT PUSH2 0xBFF JUMPI DUP3 SWAP1 SUB PUSH1 0x1F AND DUP3 ADD SWAP2 JUMPDEST POP POP POP POP POP SWAP1 DUP1 PUSH1 0x2 ADD PUSH1 0x0 SWAP1 SLOAD SWAP1 PUSH2 0x100 EXP SWAP1 DIV PUSH20 0xFFFFFFFFFFFFFFFFFFFFFFFFFFFFFFFFFFFFFFFF AND SWAP1 DUP1 PUSH1 0x3 ADD DUP1 SLOAD PUSH2 0xC57 SWAP1 PUSH2 0x3241 JUMP JUMPDEST DUP1 PUSH1 0x1F ADD PUSH1 0x20 DUP1 SWAP2 DIV MUL PUSH1 0x20 ADD PUSH1 0x40 MLOAD SWAP1 DUP2 ADD PUSH1 0x40 MSTORE DUP1 SWAP3 SWAP2 SWAP1 DUP2 DUP2 MSTORE PUSH1 0x20 ADD DUP3 DUP1 SLOAD PUSH2 0xC83 SWAP1 PUSH2 0x3241 JUMP JUMPDEST DUP1 ISZERO PUSH2 0xCD0 JUMPI DUP1 PUSH1 0x1F LT PUSH2 0xCA5 JUMPI PUSH2 0x100 DUP1 DUP4 SLOAD DIV MUL DUP4 MSTORE SWAP2 PUSH1 0x20 ADD SWAP2 PUSH2 0xCD0 JUMP JUMPDEST DUP3 ADD SWAP2 SWAP1 PUSH1 0x0 MSTORE PUSH1 0x20 PUSH1 0x0 KECCAK256 SWAP1 JUMPDEST DUP2 SLOAD DUP2 MSTORE SWAP1 PUSH1 0x1 ADD SWAP1 PUSH1 0x20 ADD DUP1 DUP4 GT PUSH2 0xCB3 JUMPI DUP3 SWAP1 SUB PUSH1 0x1F AND DUP3 ADD SWAP2 JUMPDEST POP POP POP POP POP SWAP1 DUP1 PUSH1 0x4 ADD PUSH1 0x0 SWAP1 SLOAD SWAP1 PUSH2 0x100 EXP SWAP1 DIV PUSH1 0xFF AND SWAP1 POP DUP6 JUMP JUMPDEST PUSH1 0x0 PUSH1 0x8 DUP3 PUSH1 0x40 MLOAD PUSH2 0xCFF SWAP2 SWAP1 PUSH2 0x32AF JUMP JUMPDEST SWAP1 DUP2 MSTORE PUSH1 0x20 ADD PUSH1 0x40 MLOAD DUP1 SWAP2 SUB SWAP1 KECCAK256 SWAP1 POP PUSH1 0x1 DUP2 PUSH1 0x5 ADD PUSH1 0x1 PUSH2 0x100 EXP DUP2 SLOAD DUP2 PUSH1 0xFF MUL NOT AND SWAP1 DUP4 ISZERO ISZERO MUL OR SWAP1 SSTORE POP CALLER DUP2 PUSH1 0x5 ADD PUSH1 0x2 PUSH2 0x100 EXP DUP2 SLOAD DUP2 PUSH20 0xFFFFFFFFFFFFFFFFFFFFFFFFFFFFFFFFFFFFFFFF MUL NOT AND SWAP1 DUP4 PUSH20 0xFFFFFFFFFFFFFFFFFFFFFFFFFFFFFFFFFFFFFFFF AND MUL OR SWAP1 SSTORE POP POP POP JUMP JUMPDEST PUSH1 0x60 PUSH1 0x0 DUP1 SLOAD SWAP1 PUSH2 0x100 EXP SWAP1 DIV PUSH20 0xFFFFFFFFFFFFFFFFFFFFFFFFFFFFFFFFFFFFFFFF AND PUSH20 0xFFFFFFFFFFFFFFFFFFFFFFFFFFFFFFFFFFFFFFFF AND CALLER PUSH20 0xFFFFFFFFFFFFFFFFFFFFFFFFFFFFFFFFFFFFFFFF AND EQ PUSH2 0xDCD JUMPI PUSH1 0x0 DUP1 REVERT JUMPDEST PUSH1 0x5 DUP1 SLOAD DUP1 PUSH1 0x20 MUL PUSH1 0x20 ADD PUSH1 0x40 MLOAD SWAP1 DUP2 ADD PUSH1 0x40 MSTORE DUP1 SWAP3 SWAP2 SWAP1 DUP2 DUP2 MSTORE PUSH1 0x20 ADD DUP3 DUP1 SLOAD DUP1 ISZERO PUSH2 0xE4F JUMPI PUSH1 0x20 MUL DUP3 ADD SWAP2 SWAP1 PUSH1 0x0 MSTORE PUSH1 0x20 PUSH1 0x0 KECCAK256 SWAP1 JUMPDEST DUP2 PUSH1 0x0 SWAP1 SLOAD SWAP1 PUSH2 0x100 EXP SWAP1 DIV PUSH20 0xFFFFFFFFFFFFFFFFFFFFFFFFFFFFFFFFFFFFFFFF AND PUSH20 0xFFFFFFFFFFFFFFFFFFFFFFFFFFFFFFFFFFFFFFFF AND DUP2 MSTORE PUSH1 0x20 ADD SWAP1 PUSH1 0x1 ADD SWAP1 DUP1 DUP4 GT PUSH2 0xE05 JUMPI JUMPDEST POP POP POP POP POP SWAP1 POP SWAP1 JUMP JUMPDEST PUSH2 0xE61 PUSH2 0x255F JUMP JUMPDEST PUSH1 0x0 DUP1 SLOAD SWAP1 PUSH2 0x100 EXP SWAP1 DIV PUSH20 0xFFFFFFFFFFFFFFFFFFFFFFFFFFFFFFFFFFFFFFFF AND PUSH20 0xFFFFFFFFFFFFFFFFFFFFFFFFFFFFFFFFFFFFFFFF AND CALLER PUSH20 0xFFFFFFFFFFFFFFFFFFFFFFFFFFFFFFFFFFFFFFFF AND EQ PUSH2 0xEB9 JUMPI PUSH1 0x0 DUP1 REVERT JUMPDEST PUSH1 0x2 PUSH1 0x0 DUP4 PUSH20 0xFFFFFFFFFFFFFFFFFFFFFFFFFFFFFFFFFFFFFFFF AND PUSH20 0xFFFFFFFFFFFFFFFFFFFFFFFFFFFFFFFFFFFFFFFF AND DUP2 MSTORE PUSH1 0x20 ADD SWAP1 DUP2 MSTORE PUSH1 0x20 ADD PUSH1 0x0 KECCAK256 PUSH1 0x40 MLOAD DUP1 PUSH1 0xA0 ADD PUSH1 0x40 MSTORE SWAP1 DUP2 PUSH1 0x0 DUP3 ADD DUP1 SLOAD PUSH2 0xF13 SWAP1 PUSH2 0x3241 JUMP JUMPDEST DUP1 PUSH1 0x1F ADD PUSH1 0x20 DUP1 SWAP2 DIV MUL PUSH1 0x20 ADD PUSH1 0x40 MLOAD SWAP1 DUP2 ADD PUSH1 0x40 MSTORE DUP1 SWAP3 SWAP2 SWAP1 DUP2 DUP2 MSTORE PUSH1 0x20 ADD DUP3 DUP1 SLOAD PUSH2 0xF3F SWAP1 PUSH2 0x3241 JUMP JUMPDEST DUP1 ISZERO PUSH2 0xF8C JUMPI DUP1 PUSH1 0x1F LT PUSH2 0xF61 JUMPI PUSH2 0x100 DUP1 DUP4 SLOAD DIV MUL DUP4 MSTORE SWAP2 PUSH1 0x20 ADD SWAP2 PUSH2 0xF8C JUMP JUMPDEST DUP3 ADD SWAP2 SWAP1 PUSH1 0x0 MSTORE PUSH1 0x20 PUSH1 0x0 KECCAK256 SWAP1 JUMPDEST DUP2 SLOAD DUP2 MSTORE SWAP1 PUSH1 0x1 ADD SWAP1 PUSH1 0x20 ADD DUP1 DUP4 GT PUSH2 0xF6F JUMPI DUP3 SWAP1 SUB PUSH1 0x1F AND DUP3 ADD SWAP2 JUMPDEST POP POP POP POP POP DUP2 MSTORE PUSH1 0x20 ADD PUSH1 0x1 DUP3 ADD DUP1 SLOAD PUSH2 0xFA5 SWAP1 PUSH2 0x3241 JUMP JUMPDEST DUP1 PUSH1 0x1F ADD PUSH1 0x20 DUP1 SWAP2 DIV MUL PUSH1 0x20 ADD PUSH1 0x40 MLOAD SWAP1 DUP2 ADD PUSH1 0x40 MSTORE DUP1 SWAP3 SWAP2 SWAP1 DUP2 DUP2 MSTORE PUSH1 0x20 ADD DUP3 DUP1 SLOAD PUSH2 0xFD1 SWAP1 PUSH2 0x3241 JUMP JUMPDEST DUP1 ISZERO PUSH2 0x101E JUMPI DUP1 PUSH1 0x1F LT PUSH2 0xFF3 JUMPI PUSH2 0x100 DUP1 DUP4 SLOAD DIV MUL DUP4 MSTORE SWAP2 PUSH1 0x20 ADD SWAP2 PUSH2 0x101E JUMP JUMPDEST DUP3 ADD SWAP2 SWAP1 PUSH1 0x0 MSTORE PUSH1 0x20 PUSH1 0x0 KECCAK256 SWAP1 JUMPDEST DUP2 SLOAD DUP2 MSTORE SWAP1 PUSH1 0x1 ADD SWAP1 PUSH1 0x20 ADD DUP1 DUP4 GT PUSH2 0x1001 JUMPI DUP3 SWAP1 SUB PUSH1 0x1F AND DUP3 ADD SWAP2 JUMPDEST POP POP POP POP POP DUP2 MSTORE PUSH1 0x20 ADD PUSH1 0x2 DUP3 ADD PUSH1 0x0 SWAP1 SLOAD SWAP1 PUSH2 0x100 EXP SWAP1 DIV PUSH20 0xFFFFFFFFFFFFFFFFFFFFFFFFFFFFFFFFFFFFFFFF AND PUSH20 0xFFFFFFFFFFFFFFFFFFFFFFFFFFFFFFFFFFFFFFFF AND PUSH20 0xFFFFFFFFFFFFFFFFFFFFFFFFFFFFFFFFFFFFFFFF AND DUP2 MSTORE PUSH1 0x20 ADD PUSH1 0x3 DUP3 ADD DUP1 SLOAD PUSH2 0x108D SWAP1 PUSH2 0x3241 JUMP JUMPDEST DUP1 PUSH1 0x1F ADD PUSH1 0x20 DUP1 SWAP2 DIV MUL PUSH1 0x20 ADD PUSH1 0x40 MLOAD SWAP1 DUP2 ADD PUSH1 0x40 MSTORE DUP1 SWAP3 SWAP2 SWAP1 DUP2 DUP2 MSTORE PUSH1 0x20 ADD DUP3 DUP1 SLOAD PUSH2 0x10B9 SWAP1 PUSH2 0x3241 JUMP JUMPDEST DUP1 ISZERO PUSH2 0x1106 JUMPI DUP1 PUSH1 0x1F LT PUSH2 0x10DB JUMPI PUSH2 0x100 DUP1 DUP4 SLOAD DIV MUL DUP4 MSTORE SWAP2 PUSH1 0x20 ADD SWAP2 PUSH2 0x1106 JUMP JUMPDEST DUP3 ADD SWAP2 SWAP1 PUSH1 0x0 MSTORE PUSH1 0x20 PUSH1 0x0 KECCAK256 SWAP1 JUMPDEST DUP2 SLOAD DUP2 MSTORE SWAP1 PUSH1 0x1 ADD SWAP1 PUSH1 0x20 ADD DUP1 DUP4 GT PUSH2 0x10E9 JUMPI DUP3 SWAP1 SUB PUSH1 0x1F AND DUP3 ADD SWAP2 JUMPDEST POP POP POP POP POP DUP2 MSTORE PUSH1 0x20 ADD PUSH1 0x4 DUP3 ADD PUSH1 0x0 SWAP1 SLOAD SWAP1 PUSH2 0x100 EXP SWAP1 DIV PUSH1 0xFF AND ISZERO ISZERO ISZERO ISZERO DUP2 MSTORE POP POP SWAP1 POP SWAP2 SWAP1 POP JUMP JUMPDEST PUSH1 0xA PUSH1 0x20 MSTORE DUP1 PUSH1 0x0 MSTORE PUSH1 0x40 PUSH1 0x0 KECCAK256 PUSH1 0x0 SWAP2 POP SLOAD SWAP1 PUSH2 0x100 EXP SWAP1 DIV PUSH1 0xFF AND DUP2 JUMP JUMPDEST PUSH1 0x0 PUSH1 0x3 PUSH1 0x0 CALLER PUSH20 0xFFFFFFFFFFFFFFFFFFFFFFFFFFFFFFFFFFFFFFFF AND PUSH20 0xFFFFFFFFFFFFFFFFFFFFFFFFFFFFFFFFFFFFFFFF AND DUP2 MSTORE PUSH1 0x20 ADD SWAP1 DUP2 MSTORE PUSH1 0x20 ADD PUSH1 0x0 KECCAK256 PUSH1 0x0 SWAP1 SLOAD SWAP1 PUSH2 0x100 EXP SWAP1 DIV PUSH1 0xFF AND PUSH2 0x11A9 JUMPI PUSH1 0x0 DUP1 REVERT JUMPDEST PUSH1 0x1 SWAP1 POP SWAP1 JUMP JUMPDEST PUSH1 0x0 PUSH1 0x8 DUP3 PUSH1 0x40 MLOAD PUSH2 0x11C2 SWAP2 SWAP1 PUSH2 0x32AF JUMP JUMPDEST SWAP1 DUP2 MSTORE PUSH1 0x20 ADD PUSH1 0x40 MLOAD DUP1 SWAP2 SUB SWAP1 KECCAK256 SWAP1 POP PUSH1 0x1 DUP2 PUSH1 0x5 ADD PUSH1 0x0 PUSH2 0x100 EXP DUP2 SLOAD DUP2 PUSH1 0xFF MUL NOT AND SWAP1 DUP4 ISZERO ISZERO MUL OR SWAP1 SSTORE POP POP POP JUMP JUMPDEST PUSH1 0x3 PUSH1 0x0 CALLER PUSH20 0xFFFFFFFFFFFFFFFFFFFFFFFFFFFFFFFFFFFFFFFF AND PUSH20 0xFFFFFFFFFFFFFFFFFFFFFFFFFFFFFFFFFFFFFFFF AND DUP2 MSTORE PUSH1 0x20 ADD SWAP1 DUP2 MSTORE PUSH1 0x20 ADD PUSH1 0x0 KECCAK256 PUSH1 0x0 SWAP1 SLOAD SWAP1 PUSH2 0x100 EXP SWAP1 DIV PUSH1 0xFF AND PUSH2 0x1249 JUMPI PUSH1 0x0 DUP1 REVERT JUMPDEST PUSH1 0x7 DUP2 PUSH1 0x40 MLOAD PUSH2 0x1259 SWAP2 SWAP1 PUSH2 0x32AF JUMP JUMPDEST SWAP1 DUP2 MSTORE PUSH1 0x20 ADD PUSH1 0x40 MLOAD DUP1 SWAP2 SUB SWAP1 KECCAK256 PUSH1 0x0 SWAP1 SLOAD SWAP1 PUSH2 0x100 EXP SWAP1 DIV PUSH1 0xFF AND ISZERO PUSH2 0x127F JUMPI PUSH1 0x0 DUP1 REVERT JUMPDEST PUSH1 0x1 PUSH1 0x7 DUP3 PUSH1 0x40 MLOAD PUSH2 0x1291 SWAP2 SWAP1 PUSH2 0x32AF JUMP JUMPDEST SWAP1 DUP2 MSTORE PUSH1 0x20 ADD PUSH1 0x40 MLOAD DUP1 SWAP2 SUB SWAP1 KECCAK256 PUSH1 0x0 PUSH2 0x100 EXP DUP2 SLOAD DUP2 PUSH1 0xFF MUL NOT AND SWAP1 DUP4 ISZERO ISZERO MUL OR SWAP1 SSTORE POP PUSH1 0x6 DUP2 SWAP1 DUP1 PUSH1 0x1 DUP2 SLOAD ADD DUP1 DUP3 SSTORE DUP1 SWAP2 POP POP PUSH1 0x1 SWAP1 SUB SWAP1 PUSH1 0x0 MSTORE PUSH1 0x20 PUSH1 0x0 KECCAK256 ADD PUSH1 0x0 SWAP1 SWAP2 SWAP1 SWAP2 SWAP1 SWAP2 POP SWAP1 DUP1 MLOAD SWAP1 PUSH1 0x20 ADD SWAP1 PUSH2 0x12F1 SWAP3 SWAP2 SWAP1 PUSH2 0x24D9 JUMP JUMPDEST POP PUSH1 0x0 PUSH1 0x8 DUP3 PUSH1 0x40 MLOAD PUSH2 0x1304 SWAP2 SWAP1 PUSH2 0x32AF JUMP JUMPDEST SWAP1 DUP2 MSTORE PUSH1 0x20 ADD PUSH1 0x40 MLOAD DUP1 SWAP2 SUB SWAP1 KECCAK256 SWAP1 POP PUSH1 0x2 PUSH1 0x0 DUP5 PUSH20 0xFFFFFFFFFFFFFFFFFFFFFFFFFFFFFFFFFFFFFFFF AND PUSH20 0xFFFFFFFFFFFFFFFFFFFFFFFFFFFFFFFFFFFFFFFF AND DUP2 MSTORE PUSH1 0x20 ADD SWAP1 DUP2 MSTORE PUSH1 0x20 ADD PUSH1 0x0 KECCAK256 PUSH1 0x3 ADD DUP2 PUSH1 0x0 ADD SWAP1 DUP1 SLOAD PUSH2 0x1366 SWAP1 PUSH2 0x3241 JUMP JUMPDEST PUSH2 0x1371 SWAP3 SWAP2 SWAP1 PUSH2 0x25A6 JUMP JUMPDEST POP DUP7 DUP2 PUSH1 0x1 ADD SWAP1 DUP1 MLOAD SWAP1 PUSH1 0x20 ADD SWAP1 PUSH2 0x138A SWAP3 SWAP2 SWAP1 PUSH2 0x24D9 JUMP JUMPDEST POP DUP6 DUP2 PUSH1 0x2 ADD SWAP1 DUP1 MLOAD SWAP1 PUSH1 0x20 ADD SWAP1 PUSH2 0x13A3 SWAP3 SWAP2 SWAP1 PUSH2 0x24D9 JUMP JUMPDEST POP DUP5 DUP2 PUSH1 0x3 ADD PUSH1 0x0 PUSH2 0x100 EXP DUP2 SLOAD DUP2 PUSH20 0xFFFFFFFFFFFFFFFFFFFFFFFFFFFFFFFFFFFFFFFF MUL NOT AND SWAP1 DUP4 PUSH20 0xFFFFFFFFFFFFFFFFFFFFFFFFFFFFFFFFFFFFFFFF AND MUL OR SWAP1 SSTORE POP DUP4 DUP2 PUSH1 0x4 ADD SWAP1 DUP1 MLOAD SWAP1 PUSH1 0x20 ADD SWAP1 PUSH2 0x13FF SWAP3 SWAP2 SWAP1 PUSH2 0x24D9 JUMP JUMPDEST POP PUSH1 0x0 DUP2 PUSH1 0x5 ADD PUSH1 0x0 PUSH2 0x100 EXP DUP2 SLOAD DUP2 PUSH1 0xFF MUL NOT AND SWAP1 DUP4 ISZERO ISZERO MUL OR SWAP1 SSTORE POP PUSH1 0x0 DUP2 PUSH1 0x5 ADD PUSH1 0x1 PUSH2 0x100 EXP DUP2 SLOAD DUP2 PUSH1 0xFF MUL NOT AND SWAP1 DUP4 ISZERO ISZERO MUL OR SWAP1 SSTORE POP PUSH1 0x0 DUP2 PUSH1 0x5 ADD PUSH1 0x2 PUSH2 0x100 EXP DUP2 SLOAD DUP2 PUSH20 0xFFFFFFFFFFFFFFFFFFFFFFFFFFFFFFFFFFFFFFFF MUL NOT AND SWAP1 DUP4 PUSH20 0xFFFFFFFFFFFFFFFFFFFFFFFFFFFFFFFFFFFFFFFF AND MUL OR SWAP1 SSTORE POP DUP2 DUP2 PUSH1 0x6 ADD SWAP1 DUP1 MLOAD SWAP1 PUSH1 0x20 ADD SWAP1 PUSH2 0x1496 SWAP3 SWAP2 SWAP1 PUSH2 0x24D9 JUMP JUMPDEST POP DUP3 DUP2 PUSH1 0x7 ADD PUSH1 0x0 PUSH2 0x100 EXP DUP2 SLOAD DUP2 PUSH20 0xFFFFFFFFFFFFFFFFFFFFFFFFFFFFFFFFFFFFFFFF MUL NOT AND SWAP1 DUP4 PUSH20 0xFFFFFFFFFFFFFFFFFFFFFFFFFFFFFFFFFFFFFFFF AND MUL OR SWAP1 SSTORE POP PUSH1 0x1 PUSH1 0x9 SLOAD PUSH2 0x14E9 SWAP2 SWAP1 PUSH2 0x32F5 JUMP JUMPDEST PUSH1 0x9 DUP2 SWAP1 SSTORE POP POP POP POP POP POP POP POP JUMP JUMPDEST PUSH1 0x8 DUP2 DUP1 MLOAD PUSH1 0x20 DUP2 ADD DUP3 ADD DUP1 MLOAD DUP5 DUP3 MSTORE PUSH1 0x20 DUP4 ADD PUSH1 0x20 DUP6 ADD KECCAK256 DUP2 DUP4 MSTORE DUP1 SWAP6 POP POP POP POP POP POP PUSH1 0x0 SWAP2 POP SWAP1 POP DUP1 PUSH1 0x0 ADD DUP1 SLOAD PUSH2 0x1531 SWAP1 PUSH2 0x3241 JUMP JUMPDEST DUP1 PUSH1 0x1F ADD PUSH1 0x20 DUP1 SWAP2 DIV MUL PUSH1 0x20 ADD PUSH1 0x40 MLOAD SWAP1 DUP2 ADD PUSH1 0x40 MSTORE DUP1 SWAP3 SWAP2 SWAP1 DUP2 DUP2 MSTORE PUSH1 0x20 ADD DUP3 DUP1 SLOAD PUSH2 0x155D SWAP1 PUSH2 0x3241 JUMP JUMPDEST DUP1 ISZERO PUSH2 0x15AA JUMPI DUP1 PUSH1 0x1F LT PUSH2 0x157F JUMPI PUSH2 0x100 DUP1 DUP4 SLOAD DIV MUL DUP4 MSTORE SWAP2 PUSH1 0x20 ADD SWAP2 PUSH2 0x15AA JUMP JUMPDEST DUP3 ADD SWAP2 SWAP1 PUSH1 0x0 MSTORE PUSH1 0x20 PUSH1 0x0 KECCAK256 SWAP1 JUMPDEST DUP2 SLOAD DUP2 MSTORE SWAP1 PUSH1 0x1 ADD SWAP1 PUSH1 0x20 ADD DUP1 DUP4 GT PUSH2 0x158D JUMPI DUP3 SWAP1 SUB PUSH1 0x1F AND DUP3 ADD SWAP2 JUMPDEST POP POP POP POP POP SWAP1 DUP1 PUSH1 0x1 ADD DUP1 SLOAD PUSH2 0x15BF SWAP1 PUSH2 0x3241 JUMP JUMPDEST DUP1 PUSH1 0x1F ADD PUSH1 0x20 DUP1 SWAP2 DIV MUL PUSH1 0x20 ADD PUSH1 0x40 MLOAD SWAP1 DUP2 ADD PUSH1 0x40 MSTORE DUP1 SWAP3 SWAP2 SWAP1 DUP2 DUP2 MSTORE PUSH1 0x20 ADD DUP3 DUP1 SLOAD PUSH2 0x15EB SWAP1 PUSH2 0x3241 JUMP JUMPDEST DUP1 ISZERO PUSH2 0x1638 JUMPI DUP1 PUSH1 0x1F LT PUSH2 0x160D JUMPI PUSH2 0x100 DUP1 DUP4 SLOAD DIV MUL DUP4 MSTORE SWAP2 PUSH1 0x20 ADD SWAP2 PUSH2 0x1638 JUMP JUMPDEST DUP3 ADD SWAP2 SWAP1 PUSH1 0x0 MSTORE PUSH1 0x20 PUSH1 0x0 KECCAK256 SWAP1 JUMPDEST DUP2 SLOAD DUP2 MSTORE SWAP1 PUSH1 0x1 ADD SWAP1 PUSH1 0x20 ADD DUP1 DUP4 GT PUSH2 0x161B JUMPI DUP3 SWAP1 SUB PUSH1 0x1F AND DUP3 ADD SWAP2 JUMPDEST POP POP POP POP POP SWAP1 DUP1 PUSH1 0x2 ADD DUP1 SLOAD PUSH2 0x164D SWAP1 PUSH2 0x3241 JUMP JUMPDEST DUP1 PUSH1 0x1F ADD PUSH1 0x20 DUP1 SWAP2 DIV MUL PUSH1 0x20 ADD PUSH1 0x40 MLOAD SWAP1 DUP2 ADD PUSH1 0x40 MSTORE DUP1 SWAP3 SWAP2 SWAP1 DUP2 DUP2 MSTORE PUSH1 0x20 ADD DUP3 DUP1 SLOAD PUSH2 0x1679 SWAP1 PUSH2 0x3241 JUMP JUMPDEST DUP1 ISZERO PUSH2 0x16C6 JUMPI DUP1 PUSH1 0x1F LT PUSH2 0x169B JUMPI PUSH2 0x100 DUP1 DUP4 SLOAD DIV MUL DUP4 MSTORE SWAP2 PUSH1 0x20 ADD SWAP2 PUSH2 0x16C6 JUMP JUMPDEST DUP3 ADD SWAP2 SWAP1 PUSH1 0x0 MSTORE PUSH1 0x20 PUSH1 0x0 KECCAK256 SWAP1 JUMPDEST DUP2 SLOAD DUP2 MSTORE SWAP1 PUSH1 0x1 ADD SWAP1 PUSH1 0x20 ADD DUP1 DUP4 GT PUSH2 0x16A9 JUMPI DUP3 SWAP1 SUB PUSH1 0x1F AND DUP3 ADD SWAP2 JUMPDEST POP POP POP POP POP SWAP1 DUP1 PUSH1 0x3 ADD PUSH1 0x0 SWAP1 SLOAD SWAP1 PUSH2 0x100 EXP SWAP1 DIV PUSH20 0xFFFFFFFFFFFFFFFFFFFFFFFFFFFFFFFFFFFFFFFF AND SWAP1 DUP1 PUSH1 0x4 ADD DUP1 SLOAD PUSH2 0x1701 SWAP1 PUSH2 0x3241 JUMP JUMPDEST DUP1 PUSH1 0x1F ADD PUSH1 0x20 DUP1 SWAP2 DIV MUL PUSH1 0x20 ADD PUSH1 0x40 MLOAD SWAP1 DUP2 ADD PUSH1 0x40 MSTORE DUP1 SWAP3 SWAP2 SWAP1 DUP2 DUP2 MSTORE PUSH1 0x20 ADD DUP3 DUP1 SLOAD PUSH2 0x172D SWAP1 PUSH2 0x3241 JUMP JUMPDEST DUP1 ISZERO PUSH2 0x177A JUMPI DUP1 PUSH1 0x1F LT PUSH2 0x174F JUMPI PUSH2 0x100 DUP1 DUP4 SLOAD DIV MUL DUP4 MSTORE SWAP2 PUSH1 0x20 ADD SWAP2 PUSH2 0x177A JUMP JUMPDEST DUP3 ADD SWAP2 SWAP1 PUSH1 0x0 MSTORE PUSH1 0x20 PUSH1 0x0 KECCAK256 SWAP1 JUMPDEST DUP2 SLOAD DUP2 MSTORE SWAP1 PUSH1 0x1 ADD SWAP1 PUSH1 0x20 ADD DUP1 DUP4 GT PUSH2 0x175D JUMPI DUP3 SWAP1 SUB PUSH1 0x1F AND DUP3 ADD SWAP2 JUMPDEST POP POP POP POP POP SWAP1 DUP1 PUSH1 0x5 ADD PUSH1 0x0 SWAP1 SLOAD SWAP1 PUSH2 0x100 EXP SWAP1 DIV PUSH1 0xFF AND SWAP1 DUP1 PUSH1 0x5 ADD PUSH1 0x1 SWAP1 SLOAD SWAP1 PUSH2 0x100 EXP SWAP1 DIV PUSH1 0xFF AND SWAP1 DUP1 PUSH1 0x5 ADD PUSH1 0x2 SWAP1 SLOAD SWAP1 PUSH2 0x100 EXP SWAP1 DIV PUSH20 0xFFFFFFFFFFFFFFFFFFFFFFFFFFFFFFFFFFFFFFFF AND SWAP1 DUP1 PUSH1 0x6 ADD DUP1 SLOAD PUSH2 0x17DB SWAP1 PUSH2 0x3241 JUMP JUMPDEST DUP1 PUSH1 0x1F ADD PUSH1 0x20 DUP1 SWAP2 DIV MUL PUSH1 0x20 ADD PUSH1 0x40 MLOAD SWAP1 DUP2 ADD PUSH1 0x40 MSTORE DUP1 SWAP3 SWAP2 SWAP1 DUP2 DUP2 MSTORE PUSH1 0x20 ADD DUP3 DUP1 SLOAD PUSH2 0x1807 SWAP1 PUSH2 0x3241 JUMP JUMPDEST DUP1 ISZERO PUSH2 0x1854 JUMPI DUP1 PUSH1 0x1F LT PUSH2 0x1829 JUMPI PUSH2 0x100 DUP1 DUP4 SLOAD DIV MUL DUP4 MSTORE SWAP2 PUSH1 0x20 ADD SWAP2 PUSH2 0x1854 JUMP JUMPDEST DUP3 ADD SWAP2 SWAP1 PUSH1 0x0 MSTORE PUSH1 0x20 PUSH1 0x0 KECCAK256 SWAP1 JUMPDEST DUP2 SLOAD DUP2 MSTORE SWAP1 PUSH1 0x1 ADD SWAP1 PUSH1 0x20 ADD DUP1 DUP4 GT PUSH2 0x1837 JUMPI DUP3 SWAP1 SUB PUSH1 0x1F AND DUP3 ADD SWAP2 JUMPDEST POP POP POP POP POP SWAP1 DUP1 PUSH1 0x7 ADD PUSH1 0x0 SWAP1 SLOAD SWAP1 PUSH2 0x100 EXP SWAP1 DIV PUSH20 0xFFFFFFFFFFFFFFFFFFFFFFFFFFFFFFFFFFFFFFFF AND SWAP1 POP DUP11 JUMP JUMPDEST PUSH1 0xB PUSH1 0x20 MSTORE DUP1 PUSH1 0x0 MSTORE PUSH1 0x40 PUSH1 0x0 KECCAK256 PUSH1 0x0 SWAP2 POP SWAP1 POP DUP1 PUSH1 0x0 ADD DUP1 SLOAD PUSH2 0x18A7 SWAP1 PUSH2 0x3241 JUMP JUMPDEST DUP1 PUSH1 0x1F ADD PUSH1 0x20 DUP1 SWAP2 DIV MUL PUSH1 0x20 ADD PUSH1 0x40 MLOAD SWAP1 DUP2 ADD PUSH1 0x40 MSTORE DUP1 SWAP3 SWAP2 SWAP1 DUP2 DUP2 MSTORE PUSH1 0x20 ADD DUP3 DUP1 SLOAD PUSH2 0x18D3 SWAP1 PUSH2 0x3241 JUMP JUMPDEST DUP1 ISZERO PUSH2 0x1920 JUMPI DUP1 PUSH1 0x1F LT PUSH2 0x18F5 JUMPI PUSH2 0x100 DUP1 DUP4 SLOAD DIV MUL DUP4 MSTORE SWAP2 PUSH1 0x20 ADD SWAP2 PUSH2 0x1920 JUMP JUMPDEST DUP3 ADD SWAP2 SWAP1 PUSH1 0x0 MSTORE PUSH1 0x20 PUSH1 0x0 KECCAK256 SWAP1 JUMPDEST DUP2 SLOAD DUP2 MSTORE SWAP1 PUSH1 0x1 ADD SWAP1 PUSH1 0x20 ADD DUP1 DUP4 GT PUSH2 0x1903 JUMPI DUP3 SWAP1 SUB PUSH1 0x1F AND DUP3 ADD SWAP2 JUMPDEST POP POP POP POP POP SWAP1 DUP1 PUSH1 0x1 ADD DUP1 SLOAD PUSH2 0x1935 SWAP1 PUSH2 0x3241 JUMP JUMPDEST DUP1 PUSH1 0x1F ADD PUSH1 0x20 DUP1 SWAP2 DIV MUL PUSH1 0x20 ADD PUSH1 0x40 MLOAD SWAP1 DUP2 ADD PUSH1 0x40 MSTORE DUP1 SWAP3 SWAP2 SWAP1 DUP2 DUP2 MSTORE PUSH1 0x20 ADD DUP3 DUP1 SLOAD PUSH2 0x1961 SWAP1 PUSH2 0x3241 JUMP JUMPDEST DUP1 ISZERO PUSH2 0x19AE JUMPI DUP1 PUSH1 0x1F LT PUSH2 0x1983 JUMPI PUSH2 0x100 DUP1 DUP4 SLOAD DIV MUL DUP4 MSTORE SWAP2 PUSH1 0x20 ADD SWAP2 PUSH2 0x19AE JUMP JUMPDEST DUP3 ADD SWAP2 SWAP1 PUSH1 0x0 MSTORE PUSH1 0x20 PUSH1 0x0 KECCAK256 SWAP1 JUMPDEST DUP2 SLOAD DUP2 MSTORE SWAP1 PUSH1 0x1 ADD SWAP1 PUSH1 0x20 ADD DUP1 DUP4 GT PUSH2 0x1991 JUMPI DUP3 SWAP1 SUB PUSH1 0x1F AND DUP3 ADD SWAP2 JUMPDEST POP POP POP POP POP SWAP1 DUP1 PUSH1 0x2 ADD DUP1 SLOAD PUSH2 0x19C3 SWAP1 PUSH2 0x3241 JUMP JUMPDEST DUP1 PUSH1 0x1F ADD PUSH1 0x20 DUP1 SWAP2 DIV MUL PUSH1 0x20 ADD PUSH1 0x40 MLOAD SWAP1 DUP2 ADD PUSH1 0x40 MSTORE DUP1 SWAP3 SWAP2 SWAP1 DUP2 DUP2 MSTORE PUSH1 0x20 ADD DUP3 DUP1 SLOAD PUSH2 0x19EF SWAP1 PUSH2 0x3241 JUMP JUMPDEST DUP1 ISZERO PUSH2 0x1A3C JUMPI DUP1 PUSH1 0x1F LT PUSH2 0x1A11 JUMPI PUSH2 0x100 DUP1 DUP4 SLOAD DIV MUL DUP4 MSTORE SWAP2 PUSH1 0x20 ADD SWAP2 PUSH2 0x1A3C JUMP JUMPDEST DUP3 ADD SWAP2 SWAP1 PUSH1 0x0 MSTORE PUSH1 0x20 PUSH1 0x0 KECCAK256 SWAP1 JUMPDEST DUP2 SLOAD DUP2 MSTORE SWAP1 PUSH1 0x1 ADD SWAP1 PUSH1 0x20 ADD DUP1 DUP4 GT PUSH2 0x1A1F JUMPI DUP3 SWAP1 SUB PUSH1 0x1F AND DUP3 ADD SWAP2 JUMPDEST POP POP POP POP POP SWAP1 DUP1 PUSH1 0x3 ADD DUP1 SLOAD PUSH2 0x1A51 SWAP1 PUSH2 0x3241 JUMP JUMPDEST DUP1 PUSH1 0x1F ADD PUSH1 0x20 DUP1 SWAP2 DIV MUL PUSH1 0x20 ADD PUSH1 0x40 MLOAD SWAP1 DUP2 ADD PUSH1 0x40 MSTORE DUP1 SWAP3 SWAP2 SWAP1 DUP2 DUP2 MSTORE PUSH1 0x20 ADD DUP3 DUP1 SLOAD PUSH2 0x1A7D SWAP1 PUSH2 0x3241 JUMP JUMPDEST DUP1 ISZERO PUSH2 0x1ACA JUMPI DUP1 PUSH1 0x1F LT PUSH2 0x1A9F JUMPI PUSH2 0x100 DUP1 DUP4 SLOAD DIV MUL DUP4 MSTORE SWAP2 PUSH1 0x20 ADD SWAP2 PUSH2 0x1ACA JUMP JUMPDEST DUP3 ADD SWAP2 SWAP1 PUSH1 0x0 MSTORE PUSH1 0x20 PUSH1 0x0 KECCAK256 SWAP1 JUMPDEST DUP2 SLOAD DUP2 MSTORE SWAP1 PUSH1 0x1 ADD SWAP1 PUSH1 0x20 ADD DUP1 DUP4 GT PUSH2 0x1AAD JUMPI DUP3 SWAP1 SUB PUSH1 0x1F AND DUP3 ADD SWAP2 JUMPDEST POP POP POP POP POP SWAP1 DUP1 PUSH1 0x4 ADD DUP1 SLOAD PUSH2 0x1ADF SWAP1 PUSH2 0x3241 JUMP JUMPDEST DUP1 PUSH1 0x1F ADD PUSH1 0x20 DUP1 SWAP2 DIV MUL PUSH1 0x20 ADD PUSH1 0x40 MLOAD SWAP1 DUP2 ADD PUSH1 0x40 MSTORE DUP1 SWAP3 SWAP2 SWAP1 DUP2 DUP2 MSTORE PUSH1 0x20 ADD DUP3 DUP1 SLOAD PUSH2 0x1B0B SWAP1 PUSH2 0x3241 JUMP JUMPDEST DUP1 ISZERO PUSH2 0x1B58 JUMPI DUP1 PUSH1 0x1F LT PUSH2 0x1B2D JUMPI PUSH2 0x100 DUP1 DUP4 SLOAD DIV MUL DUP4 MSTORE SWAP2 PUSH1 0x20 ADD SWAP2 PUSH2 0x1B58 JUMP JUMPDEST DUP3 ADD SWAP2 SWAP1 PUSH1 0x0 MSTORE PUSH1 0x20 PUSH1 0x0 KECCAK256 SWAP1 JUMPDEST DUP2 SLOAD DUP2 MSTORE SWAP1 PUSH1 0x1 ADD SWAP1 PUSH1 0x20 ADD DUP1 DUP4 GT PUSH2 0x1B3B JUMPI DUP3 SWAP1 SUB PUSH1 0x1F AND DUP3 ADD SWAP2 JUMPDEST POP POP POP POP POP SWAP1 DUP1 PUSH1 0x5 ADD DUP1 SLOAD PUSH2 0x1B6D SWAP1 PUSH2 0x3241 JUMP JUMPDEST DUP1 PUSH1 0x1F ADD PUSH1 0x20 DUP1 SWAP2 DIV MUL PUSH1 0x20 ADD PUSH1 0x40 MLOAD SWAP1 DUP2 ADD PUSH1 0x40 MSTORE DUP1 SWAP3 SWAP2 SWAP1 DUP2 DUP2 MSTORE PUSH1 0x20 ADD DUP3 DUP1 SLOAD PUSH2 0x1B99 SWAP1 PUSH2 0x3241 JUMP JUMPDEST DUP1 ISZERO PUSH2 0x1BE6 JUMPI DUP1 PUSH1 0x1F LT PUSH2 0x1BBB JUMPI PUSH2 0x100 DUP1 DUP4 SLOAD DIV MUL DUP4 MSTORE SWAP2 PUSH1 0x20 ADD SWAP2 PUSH2 0x1BE6 JUMP JUMPDEST DUP3 ADD SWAP2 SWAP1 PUSH1 0x0 MSTORE PUSH1 0x20 PUSH1 0x0 KECCAK256 SWAP1 JUMPDEST DUP2 SLOAD DUP2 MSTORE SWAP1 PUSH1 0x1 ADD SWAP1 PUSH1 0x20 ADD DUP1 DUP4 GT PUSH2 0x1BC9 JUMPI DUP3 SWAP1 SUB PUSH1 0x1F AND DUP3 ADD SWAP2 JUMPDEST POP POP POP POP POP SWAP1 DUP1 PUSH1 0x6 ADD DUP1 SLOAD PUSH2 0x1BFB SWAP1 PUSH2 0x3241 JUMP JUMPDEST DUP1 PUSH1 0x1F ADD PUSH1 0x20 DUP1 SWAP2 DIV MUL PUSH1 0x20 ADD PUSH1 0x40 MLOAD SWAP1 DUP2 ADD PUSH1 0x40 MSTORE DUP1 SWAP3 SWAP2 SWAP1 DUP2 DUP2 MSTORE PUSH1 0x20 ADD DUP3 DUP1 SLOAD PUSH2 0x1C27 SWAP1 PUSH2 0x3241 JUMP JUMPDEST DUP1 ISZERO PUSH2 0x1C74 JUMPI DUP1 PUSH1 0x1F LT PUSH2 0x1C49 JUMPI PUSH2 0x100 DUP1 DUP4 SLOAD DIV MUL DUP4 MSTORE SWAP2 PUSH1 0x20 ADD SWAP2 PUSH2 0x1C74 JUMP JUMPDEST DUP3 ADD SWAP2 SWAP1 PUSH1 0x0 MSTORE PUSH1 0x20 PUSH1 0x0 KECCAK256 SWAP1 JUMPDEST DUP2 SLOAD DUP2 MSTORE SWAP1 PUSH1 0x1 ADD SWAP1 PUSH1 0x20 ADD DUP1 DUP4 GT PUSH2 0x1C57 JUMPI DUP3 SWAP1 SUB PUSH1 0x1F AND DUP3 ADD SWAP2 JUMPDEST POP POP POP POP POP SWAP1 DUP1 PUSH1 0x7 ADD DUP1 SLOAD PUSH2 0x1C89 SWAP1 PUSH2 0x3241 JUMP JUMPDEST DUP1 PUSH1 0x1F ADD PUSH1 0x20 DUP1 SWAP2 DIV MUL PUSH1 0x20 ADD PUSH1 0x40 MLOAD SWAP1 DUP2 ADD PUSH1 0x40 MSTORE DUP1 SWAP3 SWAP2 SWAP1 DUP2 DUP2 MSTORE PUSH1 0x20 ADD DUP3 DUP1 SLOAD PUSH2 0x1CB5 SWAP1 PUSH2 0x3241 JUMP JUMPDEST DUP1 ISZERO PUSH2 0x1D02 JUMPI DUP1 PUSH1 0x1F LT PUSH2 0x1CD7 JUMPI PUSH2 0x100 DUP1 DUP4 SLOAD DIV MUL DUP4 MSTORE SWAP2 PUSH1 0x20 ADD SWAP2 PUSH2 0x1D02 JUMP JUMPDEST DUP3 ADD SWAP2 SWAP1 PUSH1 0x0 MSTORE PUSH1 0x20 PUSH1 0x0 KECCAK256 SWAP1 JUMPDEST DUP2 SLOAD DUP2 MSTORE SWAP1 PUSH1 0x1 ADD SWAP1 PUSH1 0x20 ADD DUP1 DUP4 GT PUSH2 0x1CE5 JUMPI DUP3 SWAP1 SUB PUSH1 0x1F AND DUP3 ADD SWAP2 JUMPDEST POP POP POP POP POP SWAP1 DUP1 PUSH1 0x8 ADD PUSH1 0x0 SWAP1 SLOAD SWAP1 PUSH2 0x100 EXP SWAP1 DIV PUSH20 0xFFFFFFFFFFFFFFFFFFFFFFFFFFFFFFFFFFFFFFFF AND SWAP1 POP DUP10 JUMP JUMPDEST PUSH1 0x7 DUP2 DUP1 MLOAD PUSH1 0x20 DUP2 ADD DUP3 ADD DUP1 MLOAD DUP5 DUP3 MSTORE PUSH1 0x20 DUP4 ADD PUSH1 0x20 DUP6 ADD KECCAK256 DUP2 DUP4 MSTORE DUP1 SWAP6 POP POP POP POP POP POP PUSH1 0x0 SWAP2 POP SLOAD SWAP1 PUSH2 0x100 EXP SWAP1 DIV PUSH1 0xFF AND DUP2 JUMP JUMPDEST PUSH1 0x6 DUP2 DUP2 SLOAD DUP2 LT PUSH2 0x1D78 JUMPI PUSH1 0x0 DUP1 REVERT JUMPDEST SWAP1 PUSH1 0x0 MSTORE PUSH1 0x20 PUSH1 0x0 KECCAK256 ADD PUSH1 0x0 SWAP2 POP SWAP1 POP DUP1 SLOAD PUSH2 0x1D93 SWAP1 PUSH2 0x3241 JUMP JUMPDEST DUP1 PUSH1 0x1F ADD PUSH1 0x20 DUP1 SWAP2 DIV MUL PUSH1 0x20 ADD PUSH1 0x40 MLOAD SWAP1 DUP2 ADD PUSH1 0x40 MSTORE DUP1 SWAP3 SWAP2 SWAP1 DUP2 DUP2 MSTORE PUSH1 0x20 ADD DUP3 DUP1 SLOAD PUSH2 0x1DBF SWAP1 PUSH2 0x3241 JUMP JUMPDEST DUP1 ISZERO PUSH2 0x1E0C JUMPI DUP1 PUSH1 0x1F LT PUSH2 0x1DE1 JUMPI PUSH2 0x100 DUP1 DUP4 SLOAD DIV MUL DUP4 MSTORE SWAP2 PUSH1 0x20 ADD SWAP2 PUSH2 0x1E0C JUMP JUMPDEST DUP3 ADD SWAP2 SWAP1 PUSH1 0x0 MSTORE PUSH1 0x20 PUSH1 0x0 KECCAK256 SWAP1 JUMPDEST DUP2 SLOAD DUP2 MSTORE SWAP1 PUSH1 0x1 ADD SWAP1 PUSH1 0x20 ADD DUP1 DUP4 GT PUSH2 0x1DEF JUMPI DUP3 SWAP1 SUB PUSH1 0x1F AND DUP3 ADD SWAP2 JUMPDEST POP POP POP POP POP DUP2 JUMP JUMPDEST PUSH1 0x0 DUP1 SLOAD SWAP1 PUSH2 0x100 EXP SWAP1 DIV PUSH20 0xFFFFFFFFFFFFFFFFFFFFFFFFFFFFFFFFFFFFFFFF AND PUSH20 0xFFFFFFFFFFFFFFFFFFFFFFFFFFFFFFFFFFFFFFFF AND CALLER PUSH20 0xFFFFFFFFFFFFFFFFFFFFFFFFFFFFFFFFFFFFFFFF AND EQ PUSH2 0x1E6C JUMPI PUSH1 0x0 DUP1 REVERT JUMPDEST PUSH2 0x1F4F PUSH1 0x2 PUSH1 0x0 DUP4 PUSH20 0xFFFFFFFFFFFFFFFFFFFFFFFFFFFFFFFFFFFFFFFF AND PUSH20 0xFFFFFFFFFFFFFFFFFFFFFFFFFFFFFFFFFFFFFFFF AND DUP2 MSTORE PUSH1 0x20 ADD SWAP1 DUP2 MSTORE PUSH1 0x20 ADD PUSH1 0x0 KECCAK256 PUSH1 0x3 ADD DUP1 SLOAD PUSH2 0x1EBC SWAP1 PUSH2 0x3241 JUMP JUMPDEST DUP1 PUSH1 0x1F ADD PUSH1 0x20 DUP1 SWAP2 DIV MUL PUSH1 0x20 ADD PUSH1 0x40 MLOAD SWAP1 DUP2 ADD PUSH1 0x40 MSTORE DUP1 SWAP3 SWAP2 SWAP1 DUP2 DUP2 MSTORE PUSH1 0x20 ADD DUP3 DUP1 SLOAD PUSH2 0x1EE8 SWAP1 PUSH2 0x3241 JUMP JUMPDEST DUP1 ISZERO PUSH2 0x1F35 JUMPI DUP1 PUSH1 0x1F LT PUSH2 0x1F0A JUMPI PUSH2 0x100 DUP1 DUP4 SLOAD DIV MUL DUP4 MSTORE SWAP2 PUSH1 0x20 ADD SWAP2 PUSH2 0x1F35 JUMP JUMPDEST DUP3 ADD SWAP2 SWAP1 PUSH1 0x0 MSTORE PUSH1 0x20 PUSH1 0x0 KECCAK256 SWAP1 JUMPDEST DUP2 SLOAD DUP2 MSTORE SWAP1 PUSH1 0x1 ADD SWAP1 PUSH1 0x20 ADD DUP1 DUP4 GT PUSH2 0x1F18 JUMPI DUP3 SWAP1 SUB PUSH1 0x1F AND DUP3 ADD SWAP2 JUMPDEST POP POP POP POP POP PUSH1 0x40 MLOAD DUP1 PUSH1 0x20 ADD PUSH1 0x40 MSTORE DUP1 PUSH1 0x0 DUP2 MSTORE POP PUSH2 0x24BE JUMP JUMPDEST ISZERO PUSH2 0x1F91 JUMPI PUSH1 0x4 DUP3 SWAP1 DUP1 PUSH1 0x1 DUP2 SLOAD ADD DUP1 DUP3 SSTORE DUP1 SWAP2 POP POP PUSH1 0x1 SWAP1 SUB SWAP1 PUSH1 0x0 MSTORE PUSH1 0x20 PUSH1 0x0 KECCAK256 ADD PUSH1 0x0 SWAP1 SWAP2 SWAP1 SWAP2 SWAP1 SWAP2 POP SWAP1 DUP1 MLOAD SWAP1 PUSH1 0x20 ADD SWAP1 PUSH2 0x1F8F SWAP3 SWAP2 SWAP1 PUSH2 0x24D9 JUMP JUMPDEST POP JUMPDEST PUSH1 0x0 PUSH1 0x2 PUSH1 0x0 DUP4 PUSH20 0xFFFFFFFFFFFFFFFFFFFFFFFFFFFFFFFFFFFFFFFF AND PUSH20 0xFFFFFFFFFFFFFFFFFFFFFFFFFFFFFFFFFFFFFFFF AND DUP2 MSTORE PUSH1 0x20 ADD SWAP1 DUP2 MSTORE PUSH1 0x20 ADD PUSH1 0x0 KECCAK256 SWAP1 POP DUP5 DUP2 PUSH1 0x0 ADD SWAP1 DUP1 MLOAD SWAP1 PUSH1 0x20 ADD SWAP1 PUSH2 0x1FEC SWAP3 SWAP2 SWAP1 PUSH2 0x24D9 JUMP JUMPDEST POP DUP4 DUP2 PUSH1 0x1 ADD SWAP1 DUP1 MLOAD SWAP1 PUSH1 0x20 ADD SWAP1 PUSH2 0x2005 SWAP3 SWAP2 SWAP1 PUSH2 0x24D9 JUMP JUMPDEST POP DUP2 DUP2 PUSH1 0x2 ADD PUSH1 0x0 PUSH2 0x100 EXP DUP2 SLOAD DUP2 PUSH20 0xFFFFFFFFFFFFFFFFFFFFFFFFFFFFFFFFFFFFFFFF MUL NOT AND SWAP1 DUP4 PUSH20 0xFFFFFFFFFFFFFFFFFFFFFFFFFFFFFFFFFFFFFFFF AND MUL OR SWAP1 SSTORE POP DUP3 DUP2 PUSH1 0x3 ADD SWAP1 DUP1 MLOAD SWAP1 PUSH1 0x20 ADD SWAP1 PUSH2 0x2061 SWAP3 SWAP2 SWAP1 PUSH2 0x24D9 JUMP JUMPDEST POP PUSH1 0x1 DUP2 PUSH1 0x4 ADD PUSH1 0x0 PUSH2 0x100 EXP DUP2 SLOAD DUP2 PUSH1 0xFF MUL NOT AND SWAP1 DUP4 ISZERO ISZERO MUL OR SWAP1 SSTORE POP PUSH1 0x5 DUP3 SWAP1 DUP1 PUSH1 0x1 DUP2 SLOAD ADD DUP1 DUP3 SSTORE DUP1 SWAP2 POP POP PUSH1 0x1 SWAP1 SUB SWAP1 PUSH1 0x0 MSTORE PUSH1 0x20 PUSH1 0x0 KECCAK256 ADD PUSH1 0x0 SWAP1 SWAP2 SWAP1 SWAP2 SWAP1 SWAP2 PUSH2 0x100 EXP DUP2 SLOAD DUP2 PUSH20 0xFFFFFFFFFFFFFFFFFFFFFFFFFFFFFFFFFFFFFFFF MUL NOT AND SWAP1 DUP4 PUSH20 0xFFFFFFFFFFFFFFFFFFFFFFFFFFFFFFFFFFFFFFFF AND MUL OR SWAP1 SSTORE POP PUSH1 0x1 PUSH1 0x3 PUSH1 0x0 DUP5 PUSH20 0xFFFFFFFFFFFFFFFFFFFFFFFFFFFFFFFFFFFFFFFF AND PUSH20 0xFFFFFFFFFFFFFFFFFFFFFFFFFFFFFFFFFFFFFFFF AND DUP2 MSTORE PUSH1 0x20 ADD SWAP1 DUP2 MSTORE PUSH1 0x20 ADD PUSH1 0x0 KECCAK256 PUSH1 0x0 PUSH2 0x100 EXP DUP2 SLOAD DUP2 PUSH1 0xFF MUL NOT AND SWAP1 DUP4 ISZERO ISZERO MUL OR SWAP1 SSTORE POP POP POP POP POP POP JUMP JUMPDEST PUSH1 0x0 PUSH1 0x8 DUP3 PUSH1 0x40 MLOAD PUSH2 0x2153 SWAP2 SWAP1 PUSH2 0x32AF JUMP JUMPDEST SWAP1 DUP2 MSTORE PUSH1 0x20 ADD PUSH1 0x40 MLOAD DUP1 SWAP2 SUB SWAP1 KECCAK256 SWAP1 POP PUSH1 0x0 DUP2 PUSH1 0x5 ADD PUSH1 0x0 PUSH2 0x100 EXP DUP2 SLOAD DUP2 PUSH1 0xFF MUL NOT AND SWAP1 DUP4 ISZERO ISZERO MUL OR SWAP1 SSTORE POP POP POP JUMP JUMPDEST PUSH1 0x0 PUSH1 0xA PUSH1 0x0 CALLER PUSH20 0xFFFFFFFFFFFFFFFFFFFFFFFFFFFFFFFFFFFFFFFF AND PUSH20 0xFFFFFFFFFFFFFFFFFFFFFFFFFFFFFFFFFFFFFFFF AND DUP2 MSTORE PUSH1 0x20 ADD SWAP1 DUP2 MSTORE PUSH1 0x20 ADD PUSH1 0x0 KECCAK256 PUSH1 0x0 SWAP1 SLOAD SWAP1 PUSH2 0x100 EXP SWAP1 DIV PUSH1 0xFF AND ISZERO PUSH2 0x21E1 JUMPI PUSH1 0x1 SWAP1 POP PUSH2 0x2405 JUMP JUMPDEST PUSH1 0x1 PUSH1 0xA PUSH1 0x0 CALLER PUSH20 0xFFFFFFFFFFFFFFFFFFFFFFFFFFFFFFFFFFFFFFFF AND PUSH20 0xFFFFFFFFFFFFFFFFFFFFFFFFFFFFFFFFFFFFFFFF AND DUP2 MSTORE PUSH1 0x20 ADD SWAP1 DUP2 MSTORE PUSH1 0x20 ADD PUSH1 0x0 KECCAK256 PUSH1 0x0 PUSH2 0x100 EXP DUP2 SLOAD DUP2 PUSH1 0xFF MUL NOT AND SWAP1 DUP4 ISZERO ISZERO MUL OR SWAP1 SSTORE POP PUSH1 0x0 PUSH1 0xB PUSH1 0x0 CALLER PUSH20 0xFFFFFFFFFFFFFFFFFFFFFFFFFFFFFFFFFFFFFFFF AND PUSH20 0xFFFFFFFFFFFFFFFFFFFFFFFFFFFFFFFFFFFFFFFF AND DUP2 MSTORE PUSH1 0x20 ADD SWAP1 DUP2 MSTORE PUSH1 0x20 ADD PUSH1 0x0 KECCAK256 SWAP1 POP PUSH1 0x40 MLOAD DUP1 PUSH1 0x20 ADD PUSH1 0x40 MSTORE DUP1 PUSH1 0x0 DUP2 MSTORE POP DUP2 PUSH1 0x0 ADD SWAP1 DUP1 MLOAD SWAP1 PUSH1 0x20 ADD SWAP1 PUSH2 0x22A3 SWAP3 SWAP2 SWAP1 PUSH2 0x24D9 JUMP JUMPDEST POP PUSH1 0x40 MLOAD DUP1 PUSH1 0x20 ADD PUSH1 0x40 MSTORE DUP1 PUSH1 0x0 DUP2 MSTORE POP DUP2 PUSH1 0x1 ADD SWAP1 DUP1 MLOAD SWAP1 PUSH1 0x20 ADD SWAP1 PUSH2 0x22CB SWAP3 SWAP2 SWAP1 PUSH2 0x24D9 JUMP JUMPDEST POP PUSH1 0x40 MLOAD DUP1 PUSH1 0x20 ADD PUSH1 0x40 MSTORE DUP1 PUSH1 0x0 DUP2 MSTORE POP DUP2 PUSH1 0x2 ADD SWAP1 DUP1 MLOAD SWAP1 PUSH1 0x20 ADD SWAP1 PUSH2 0x22F3 SWAP3 SWAP2 SWAP1 PUSH2 0x24D9 JUMP JUMPDEST POP PUSH1 0x40 MLOAD DUP1 PUSH1 0x20 ADD PUSH1 0x40 MSTORE DUP1 PUSH1 0x0 DUP2 MSTORE POP DUP2 PUSH1 0x3 ADD SWAP1 DUP1 MLOAD SWAP1 PUSH1 0x20 ADD SWAP1 PUSH2 0x231B SWAP3 SWAP2 SWAP1 PUSH2 0x24D9 JUMP JUMPDEST POP PUSH1 0x40 MLOAD DUP1 PUSH1 0x20 ADD PUSH1 0x40 MSTORE DUP1 PUSH1 0x0 DUP2 MSTORE POP DUP2 PUSH1 0x4 ADD SWAP1 DUP1 MLOAD SWAP1 PUSH1 0x20 ADD SWAP1 PUSH2 0x2343 SWAP3 SWAP2 SWAP1 PUSH2 0x24D9 JUMP JUMPDEST POP PUSH1 0x40 MLOAD DUP1 PUSH1 0x20 ADD PUSH1 0x40 MSTORE DUP1 PUSH1 0x0 DUP2 MSTORE POP DUP2 PUSH1 0x5 ADD SWAP1 DUP1 MLOAD SWAP1 PUSH1 0x20 ADD SWAP1 PUSH2 0x236B SWAP3 SWAP2 SWAP1 PUSH2 0x24D9 JUMP JUMPDEST POP PUSH1 0x40 MLOAD DUP1 PUSH1 0x20 ADD PUSH1 0x40 MSTORE DUP1 PUSH1 0x0 DUP2 MSTORE POP DUP2 PUSH1 0x6 ADD SWAP1 DUP1 MLOAD SWAP1 PUSH1 0x20 ADD SWAP1 PUSH2 0x2393 SWAP3 SWAP2 SWAP1 PUSH2 0x24D9 JUMP JUMPDEST POP PUSH1 0x40 MLOAD DUP1 PUSH1 0x20 ADD PUSH1 0x40 MSTORE DUP1 PUSH1 0x0 DUP2 MSTORE POP DUP2 PUSH1 0x7 ADD SWAP1 DUP1 MLOAD SWAP1 PUSH1 0x20 ADD SWAP1 PUSH2 0x23BB SWAP3 SWAP2 SWAP1 PUSH2 0x24D9 JUMP JUMPDEST POP CALLER DUP2 PUSH1 0x8 ADD PUSH1 0x0 PUSH2 0x100 EXP DUP2 SLOAD DUP2 PUSH20 0xFFFFFFFFFFFFFFFFFFFFFFFFFFFFFFFFFFFFFFFF MUL NOT AND SWAP1 DUP4 PUSH20 0xFFFFFFFFFFFFFFFFFFFFFFFFFFFFFFFFFFFFFFFF AND MUL OR SWAP1 SSTORE POP PUSH1 0x1 SWAP2 POP POP JUMPDEST SWAP1 JUMP JUMPDEST PUSH1 0x0 DUP1 SLOAD SWAP1 PUSH2 0x100 EXP SWAP1 DIV PUSH20 0xFFFFFFFFFFFFFFFFFFFFFFFFFFFFFFFFFFFFFFFF AND PUSH20 0xFFFFFFFFFFFFFFFFFFFFFFFFFFFFFFFFFFFFFFFF AND CALLER PUSH20 0xFFFFFFFFFFFFFFFFFFFFFFFFFFFFFFFFFFFFFFFF AND EQ PUSH2 0x2460 JUMPI PUSH1 0x0 DUP1 REVERT JUMPDEST PUSH1 0x0 PUSH1 0x2 PUSH1 0x0 DUP4 PUSH20 0xFFFFFFFFFFFFFFFFFFFFFFFFFFFFFFFFFFFFFFFF AND PUSH20 0xFFFFFFFFFFFFFFFFFFFFFFFFFFFFFFFFFFFFFFFF AND DUP2 MSTORE PUSH1 0x20 ADD SWAP1 DUP2 MSTORE PUSH1 0x20 ADD PUSH1 0x0 KECCAK256 PUSH1 0x4 ADD PUSH1 0x0 PUSH2 0x100 EXP DUP2 SLOAD DUP2 PUSH1 0xFF MUL NOT AND SWAP1 DUP4 ISZERO ISZERO MUL OR SWAP1 SSTORE POP POP JUMP JUMPDEST PUSH1 0x0 DUP2 DUP1 MLOAD SWAP1 PUSH1 0x20 ADD KECCAK256 DUP4 DUP1 MLOAD SWAP1 PUSH1 0x20 ADD KECCAK256 EQ SWAP1 POP SWAP3 SWAP2 POP POP JUMP JUMPDEST DUP3 DUP1 SLOAD PUSH2 0x24E5 SWAP1 PUSH2 0x3241 JUMP JUMPDEST SWAP1 PUSH1 0x0 MSTORE PUSH1 0x20 PUSH1 0x0 KECCAK256 SWAP1 PUSH1 0x1F ADD PUSH1 0x20 SWAP1 DIV DUP2 ADD SWAP3 DUP3 PUSH2 0x2507 JUMPI PUSH1 0x0 DUP6 SSTORE PUSH2 0x254E JUMP JUMPDEST DUP3 PUSH1 0x1F LT PUSH2 0x2520 JUMPI DUP1 MLOAD PUSH1 0xFF NOT AND DUP4 DUP1 ADD OR DUP6 SSTORE PUSH2 0x254E JUMP JUMPDEST DUP3 DUP1 ADD PUSH1 0x1 ADD DUP6 SSTORE DUP3 ISZERO PUSH2 0x254E JUMPI SWAP2 DUP3 ADD JUMPDEST DUP3 DUP2 GT ISZERO PUSH2 0x254D JUMPI DUP3 MLOAD DUP3 SSTORE SWAP2 PUSH1 0x20 ADD SWAP2 SWAP1 PUSH1 0x1 ADD SWAP1 PUSH2 0x2532 JUMP JUMPDEST JUMPDEST POP SWAP1 POP PUSH2 0x255B SWAP2 SWAP1 PUSH2 0x2633 JUMP JUMPDEST POP SWAP1 JUMP JUMPDEST PUSH1 0x40 MLOAD DUP1 PUSH1 0xA0 ADD PUSH1 0x40 MSTORE DUP1 PUSH1 0x60 DUP2 MSTORE PUSH1 0x20 ADD PUSH1 0x60 DUP2 MSTORE PUSH1 0x20 ADD PUSH1 0x0 PUSH20 0xFFFFFFFFFFFFFFFFFFFFFFFFFFFFFFFFFFFFFFFF AND DUP2 MSTORE PUSH1 0x20 ADD PUSH1 0x60 DUP2 MSTORE PUSH1 0x20 ADD PUSH1 0x0 ISZERO ISZERO DUP2 MSTORE POP SWAP1 JUMP JUMPDEST DUP3 DUP1 SLOAD PUSH2 0x25B2 SWAP1 PUSH2 0x3241 JUMP JUMPDEST SWAP1 PUSH1 0x0 MSTORE PUSH1 0x20 PUSH1 0x0 KECCAK256 SWAP1 PUSH1 0x1F ADD PUSH1 0x20 SWAP1 DIV DUP2 ADD SWAP3 DUP3 PUSH2 0x25D4 JUMPI PUSH1 0x0 DUP6 SSTORE PUSH2 0x2622 JUMP JUMPDEST DUP3 PUSH1 0x1F LT PUSH2 0x25E5 JUMPI DUP1 SLOAD DUP6 SSTORE PUSH2 0x2622 JUMP JUMPDEST DUP3 DUP1 ADD PUSH1 0x1 ADD DUP6 SSTORE DUP3 ISZERO PUSH2 0x2622 JUMPI PUSH1 0x0 MSTORE PUSH1 0x20 PUSH1 0x0 KECCAK256 SWAP2 PUSH1 0x1F ADD PUSH1 0x20 SWAP1 DIV DUP3 ADD JUMPDEST DUP3 DUP2 GT ISZERO PUSH2 0x2621 JUMPI DUP3 SLOAD DUP3 SSTORE SWAP2 PUSH1 0x1 ADD SWAP2 SWAP1 PUSH1 0x1 ADD SWAP1 PUSH2 0x2606 JUMP JUMPDEST JUMPDEST POP SWAP1 POP PUSH2 0x262F SWAP2 SWAP1 PUSH2 0x2633 JUMP JUMPDEST POP SWAP1 JUMP JUMPDEST JUMPDEST DUP1 DUP3 GT ISZERO PUSH2 0x264C JUMPI PUSH1 0x0 DUP2 PUSH1 0x0 SWAP1 SSTORE POP PUSH1 0x1 ADD PUSH2 0x2634 JUMP JUMPDEST POP SWAP1 JUMP JUMPDEST PUSH1 0x0 PUSH20 0xFFFFFFFFFFFFFFFFFFFFFFFFFFFFFFFFFFFFFFFF DUP3 AND SWAP1 POP SWAP2 SWAP1 POP JUMP JUMPDEST PUSH1 0x0 PUSH2 0x267B DUP3 PUSH2 0x2650 JUMP JUMPDEST SWAP1 POP SWAP2 SWAP1 POP JUMP JUMPDEST PUSH2 0x268B DUP2 PUSH2 0x2670 JUMP JUMPDEST DUP3 MSTORE POP POP JUMP JUMPDEST PUSH1 0x0 PUSH1 0x20 DUP3 ADD SWAP1 POP PUSH2 0x26A6 PUSH1 0x0 DUP4 ADD DUP5 PUSH2 0x2682 JUMP JUMPDEST SWAP3 SWAP2 POP POP JUMP JUMPDEST PUSH1 0x0 PUSH1 0x40 MLOAD SWAP1 POP SWAP1 JUMP JUMPDEST PUSH1 0x0 DUP1 REVERT JUMPDEST PUSH1 0x0 DUP1 REVERT JUMPDEST PUSH1 0x0 DUP2 SWAP1 POP SWAP2 SWAP1 POP JUMP JUMPDEST PUSH2 0x26D3 DUP2 PUSH2 0x26C0 JUMP JUMPDEST DUP2 EQ PUSH2 0x26DE JUMPI PUSH1 0x0 DUP1 REVERT JUMPDEST POP JUMP JUMPDEST PUSH1 0x0 DUP2 CALLDATALOAD SWAP1 POP PUSH2 0x26F0 DUP2 PUSH2 0x26CA JUMP JUMPDEST SWAP3 SWAP2 POP POP JUMP JUMPDEST PUSH1 0x0 PUSH1 0x20 DUP3 DUP5 SUB SLT ISZERO PUSH2 0x270C JUMPI PUSH2 0x270B PUSH2 0x26B6 JUMP JUMPDEST JUMPDEST PUSH1 0x0 PUSH2 0x271A DUP5 DUP3 DUP6 ADD PUSH2 0x26E1 JUMP JUMPDEST SWAP2 POP POP SWAP3 SWAP2 POP POP JUMP JUMPDEST PUSH1 0x0 DUP1 REVERT JUMPDEST PUSH1 0x0 DUP1 REVERT JUMPDEST PUSH1 0x0 PUSH1 0x1F NOT PUSH1 0x1F DUP4 ADD AND SWAP1 POP SWAP2 SWAP1 POP JUMP JUMPDEST PUSH32 0x4E487B7100000000000000000000000000000000000000000000000000000000 PUSH1 0x0 MSTORE PUSH1 0x41 PUSH1 0x4 MSTORE PUSH1 0x24 PUSH1 0x0 REVERT JUMPDEST PUSH2 0x2776 DUP3 PUSH2 0x272D JUMP JUMPDEST DUP2 ADD DUP2 DUP2 LT PUSH8 0xFFFFFFFFFFFFFFFF DUP3 GT OR ISZERO PUSH2 0x2795 JUMPI PUSH2 0x2794 PUSH2 0x273E JUMP JUMPDEST JUMPDEST DUP1 PUSH1 0x40 MSTORE POP POP POP JUMP JUMPDEST PUSH1 0x0 PUSH2 0x27A8 PUSH2 0x26AC JUMP JUMPDEST SWAP1 POP PUSH2 0x27B4 DUP3 DUP3 PUSH2 0x276D JUMP JUMPDEST SWAP2 SWAP1 POP JUMP JUMPDEST PUSH1 0x0 PUSH8 0xFFFFFFFFFFFFFFFF DUP3 GT ISZERO PUSH2 0x27D4 JUMPI PUSH2 0x27D3 PUSH2 0x273E JUMP JUMPDEST JUMPDEST PUSH2 0x27DD DUP3 PUSH2 0x272D JUMP JUMPDEST SWAP1 POP PUSH1 0x20 DUP2 ADD SWAP1 POP SWAP2 SWAP1 POP JUMP JUMPDEST DUP3 DUP2 DUP4 CALLDATACOPY PUSH1 0x0 DUP4 DUP4 ADD MSTORE POP POP POP JUMP JUMPDEST PUSH1 0x0 PUSH2 0x280C PUSH2 0x2807 DUP5 PUSH2 0x27B9 JUMP JUMPDEST PUSH2 0x279E JUMP JUMPDEST SWAP1 POP DUP3 DUP2 MSTORE PUSH1 0x20 DUP2 ADD DUP5 DUP5 DUP5 ADD GT ISZERO PUSH2 0x2828 JUMPI PUSH2 0x2827 PUSH2 0x2728 JUMP JUMPDEST JUMPDEST PUSH2 0x2833 DUP5 DUP3 DUP6 PUSH2 0x27EA JUMP JUMPDEST POP SWAP4 SWAP3 POP POP POP JUMP JUMPDEST PUSH1 0x0 DUP3 PUSH1 0x1F DUP4 ADD SLT PUSH2 0x2850 JUMPI PUSH2 0x284F PUSH2 0x2723 JUMP JUMPDEST JUMPDEST DUP2 CALLDATALOAD PUSH2 0x2860 DUP5 DUP3 PUSH1 0x20 DUP7 ADD PUSH2 0x27F9 JUMP JUMPDEST SWAP2 POP POP SWAP3 SWAP2 POP POP JUMP JUMPDEST PUSH2 0x2872 DUP2 PUSH2 0x2670 JUMP JUMPDEST DUP2 EQ PUSH2 0x287D JUMPI PUSH1 0x0 DUP1 REVERT JUMPDEST POP JUMP JUMPDEST PUSH1 0x0 DUP2 CALLDATALOAD SWAP1 POP PUSH2 0x288F DUP2 PUSH2 0x2869 JUMP JUMPDEST SWAP3 SWAP2 POP POP JUMP JUMPDEST PUSH1 0x0 DUP1 PUSH1 0x0 DUP1 PUSH1 0x80 DUP6 DUP8 SUB SLT ISZERO PUSH2 0x28AF JUMPI PUSH2 0x28AE PUSH2 0x26B6 JUMP JUMPDEST JUMPDEST PUSH1 0x0 DUP6 ADD CALLDATALOAD PUSH8 0xFFFFFFFFFFFFFFFF DUP2 GT ISZERO PUSH2 0x28CD JUMPI PUSH2 0x28CC PUSH2 0x26BB JUMP JUMPDEST JUMPDEST PUSH2 0x28D9 DUP8 DUP3 DUP9 ADD PUSH2 0x283B JUMP JUMPDEST SWAP5 POP POP PUSH1 0x20 DUP6 ADD CALLDATALOAD PUSH8 0xFFFFFFFFFFFFFFFF DUP2 GT ISZERO PUSH2 0x28FA JUMPI PUSH2 0x28F9 PUSH2 0x26BB JUMP JUMPDEST JUMPDEST PUSH2 0x2906 DUP8 DUP3 DUP9 ADD PUSH2 0x283B JUMP JUMPDEST SWAP4 POP POP PUSH1 0x40 DUP6 ADD CALLDATALOAD PUSH8 0xFFFFFFFFFFFFFFFF DUP2 GT ISZERO PUSH2 0x2927 JUMPI PUSH2 0x2926 PUSH2 0x26BB JUMP JUMPDEST JUMPDEST PUSH2 0x2933 DUP8 DUP3 DUP9 ADD PUSH2 0x283B JUMP JUMPDEST SWAP3 POP POP PUSH1 0x60 PUSH2 0x2944 DUP8 DUP3 DUP9 ADD PUSH2 0x2880 JUMP JUMPDEST SWAP2 POP POP SWAP3 SWAP6 SWAP2 SWAP5 POP SWAP3 POP JUMP JUMPDEST PUSH1 0x0 DUP2 MLOAD SWAP1 POP SWAP2 SWAP1 POP JUMP JUMPDEST PUSH1 0x0 DUP3 DUP3 MSTORE PUSH1 0x20 DUP3 ADD SWAP1 POP SWAP3 SWAP2 POP POP JUMP JUMPDEST PUSH1 0x0 DUP2 SWAP1 POP PUSH1 0x20 DUP3 ADD SWAP1 POP SWAP2 SWAP1 POP JUMP JUMPDEST PUSH1 0x0 DUP2 MLOAD SWAP1 POP SWAP2 SWAP1 POP JUMP JUMPDEST PUSH1 0x0 DUP3 DUP3 MSTORE PUSH1 0x20 DUP3 ADD SWAP1 POP SWAP3 SWAP2 POP POP JUMP JUMPDEST PUSH1 0x0 JUMPDEST DUP4 DUP2 LT ISZERO PUSH2 0x29B6 JUMPI DUP1 DUP3 ADD MLOAD DUP2 DUP5 ADD MSTORE PUSH1 0x20 DUP2 ADD SWAP1 POP PUSH2 0x299B JUMP JUMPDEST DUP4 DUP2 GT ISZERO PUSH2 0x29C5 JUMPI PUSH1 0x0 DUP5 DUP5 ADD MSTORE JUMPDEST POP POP POP POP JUMP JUMPDEST PUSH1 0x0 PUSH2 0x29D6 DUP3 PUSH2 0x297C JUMP JUMPDEST PUSH2 0x29E0 DUP2 DUP6 PUSH2 0x2987 JUMP JUMPDEST SWAP4 POP PUSH2 0x29F0 DUP2 DUP6 PUSH1 0x20 DUP7 ADD PUSH2 0x2998 JUMP JUMPDEST PUSH2 0x29F9 DUP2 PUSH2 0x272D JUMP JUMPDEST DUP5 ADD SWAP2 POP POP SWAP3 SWAP2 POP POP JUMP JUMPDEST PUSH1 0x0 PUSH2 0x2A10 DUP4 DUP4 PUSH2 0x29CB JUMP JUMPDEST SWAP1 POP SWAP3 SWAP2 POP POP JUMP JUMPDEST PUSH1 0x0 PUSH1 0x20 DUP3 ADD SWAP1 POP SWAP2 SWAP1 POP JUMP JUMPDEST PUSH1 0x0 PUSH2 0x2A30 DUP3 PUSH2 0x2950 JUMP JUMPDEST PUSH2 0x2A3A DUP2 DUP6 PUSH2 0x295B JUMP JUMPDEST SWAP4 POP DUP4 PUSH1 0x20 DUP3 MUL DUP6 ADD PUSH2 0x2A4C DUP6 PUSH2 0x296C JUMP JUMPDEST DUP1 PUSH1 0x0 JUMPDEST DUP6 DUP2 LT ISZERO PUSH2 0x2A88 JUMPI DUP5 DUP5 SUB DUP10 MSTORE DUP2 MLOAD PUSH2 0x2A69 DUP6 DUP3 PUSH2 0x2A04 JUMP JUMPDEST SWAP5 POP PUSH2 0x2A74 DUP4 PUSH2 0x2A18 JUMP JUMPDEST SWAP3 POP PUSH1 0x20 DUP11 ADD SWAP10 POP POP PUSH1 0x1 DUP2 ADD SWAP1 POP PUSH2 0x2A50 JUMP JUMPDEST POP DUP3 SWAP8 POP DUP8 SWAP6 POP POP POP POP POP POP SWAP3 SWAP2 POP POP JUMP JUMPDEST PUSH1 0x0 PUSH1 0x20 DUP3 ADD SWAP1 POP DUP2 DUP2 SUB PUSH1 0x0 DUP4 ADD MSTORE PUSH2 0x2AB4 DUP2 DUP5 PUSH2 0x2A25 JUMP JUMPDEST SWAP1 POP SWAP3 SWAP2 POP POP JUMP JUMPDEST PUSH1 0x0 PUSH1 0x20 DUP3 DUP5 SUB SLT ISZERO PUSH2 0x2AD2 JUMPI PUSH2 0x2AD1 PUSH2 0x26B6 JUMP JUMPDEST JUMPDEST PUSH1 0x0 PUSH2 0x2AE0 DUP5 DUP3 DUP6 ADD PUSH2 0x2880 JUMP JUMPDEST SWAP2 POP POP SWAP3 SWAP2 POP POP JUMP JUMPDEST PUSH2 0x2AF2 DUP2 PUSH2 0x26C0 JUMP JUMPDEST DUP3 MSTORE POP POP JUMP JUMPDEST PUSH1 0x0 PUSH1 0x20 DUP3 ADD SWAP1 POP PUSH2 0x2B0D PUSH1 0x0 DUP4 ADD DUP5 PUSH2 0x2AE9 JUMP JUMPDEST SWAP3 SWAP2 POP POP JUMP JUMPDEST PUSH1 0x0 DUP1 PUSH1 0x0 DUP1 PUSH1 0x0 DUP1 PUSH1 0x0 DUP1 PUSH2 0x100 DUP10 DUP12 SUB SLT ISZERO PUSH2 0x2B34 JUMPI PUSH2 0x2B33 PUSH2 0x26B6 JUMP JUMPDEST JUMPDEST PUSH1 0x0 DUP10 ADD CALLDATALOAD PUSH8 0xFFFFFFFFFFFFFFFF DUP2 GT ISZERO PUSH2 0x2B52 JUMPI PUSH2 0x2B51 PUSH2 0x26BB JUMP JUMPDEST JUMPDEST PUSH2 0x2B5E DUP12 DUP3 DUP13 ADD PUSH2 0x283B JUMP JUMPDEST SWAP9 POP POP PUSH1 0x20 DUP10 ADD CALLDATALOAD PUSH8 0xFFFFFFFFFFFFFFFF DUP2 GT ISZERO PUSH2 0x2B7F JUMPI PUSH2 0x2B7E PUSH2 0x26BB JUMP JUMPDEST JUMPDEST PUSH2 0x2B8B DUP12 DUP3 DUP13 ADD PUSH2 0x283B JUMP JUMPDEST SWAP8 POP POP PUSH1 0x40 DUP10 ADD CALLDATALOAD PUSH8 0xFFFFFFFFFFFFFFFF DUP2 GT ISZERO PUSH2 0x2BAC JUMPI PUSH2 0x2BAB PUSH2 0x26BB JUMP JUMPDEST JUMPDEST PUSH2 0x2BB8 DUP12 DUP3 DUP13 ADD PUSH2 0x283B JUMP JUMPDEST SWAP7 POP POP PUSH1 0x60 DUP10 ADD CALLDATALOAD PUSH8 0xFFFFFFFFFFFFFFFF DUP2 GT ISZERO PUSH2 0x2BD9 JUMPI PUSH2 0x2BD8 PUSH2 0x26BB JUMP JUMPDEST JUMPDEST PUSH2 0x2BE5 DUP12 DUP3 DUP13 ADD PUSH2 0x283B JUMP JUMPDEST SWAP6 POP POP PUSH1 0x80 DUP10 ADD CALLDATALOAD PUSH8 0xFFFFFFFFFFFFFFFF DUP2 GT ISZERO PUSH2 0x2C06 JUMPI PUSH2 0x2C05 PUSH2 0x26BB JUMP JUMPDEST JUMPDEST PUSH2 0x2C12 DUP12 DUP3 DUP13 ADD PUSH2 0x283B JUMP JUMPDEST SWAP5 POP POP PUSH1 0xA0 DUP10 ADD CALLDATALOAD PUSH8 0xFFFFFFFFFFFFFFFF DUP2 GT ISZERO PUSH2 0x2C33 JUMPI PUSH2 0x2C32 PUSH2 0x26BB JUMP JUMPDEST JUMPDEST PUSH2 0x2C3F DUP12 DUP3 DUP13 ADD PUSH2 0x283B JUMP JUMPDEST SWAP4 POP POP PUSH1 0xC0 DUP10 ADD CALLDATALOAD PUSH8 0xFFFFFFFFFFFFFFFF DUP2 GT ISZERO PUSH2 0x2C60 JUMPI PUSH2 0x2C5F PUSH2 0x26BB JUMP JUMPDEST JUMPDEST PUSH2 0x2C6C DUP12 DUP3 DUP13 ADD PUSH2 0x283B JUMP JUMPDEST SWAP3 POP POP PUSH1 0xE0 DUP10 ADD CALLDATALOAD PUSH8 0xFFFFFFFFFFFFFFFF DUP2 GT ISZERO PUSH2 0x2C8D JUMPI PUSH2 0x2C8C PUSH2 0x26BB JUMP JUMPDEST JUMPDEST PUSH2 0x2C99 DUP12 DUP3 DUP13 ADD PUSH2 0x283B JUMP JUMPDEST SWAP2 POP POP SWAP3 SWAP6 SWAP9 POP SWAP3 SWAP6 SWAP9 SWAP1 SWAP4 SWAP7 POP JUMP JUMPDEST PUSH1 0x0 DUP3 DUP3 MSTORE PUSH1 0x20 DUP3 ADD SWAP1 POP SWAP3 SWAP2 POP POP JUMP JUMPDEST PUSH1 0x0 PUSH2 0x2CC5 DUP3 PUSH2 0x297C JUMP JUMPDEST PUSH2 0x2CCF DUP2 DUP6 PUSH2 0x2CA9 JUMP JUMPDEST SWAP4 POP PUSH2 0x2CDF DUP2 DUP6 PUSH1 0x20 DUP7 ADD PUSH2 0x2998 JUMP JUMPDEST PUSH2 0x2CE8 DUP2 PUSH2 0x272D JUMP JUMPDEST DUP5 ADD SWAP2 POP POP SWAP3 SWAP2 POP POP JUMP JUMPDEST PUSH1 0x0 PUSH1 0x20 DUP3 ADD SWAP1 POP DUP2 DUP2 SUB PUSH1 0x0 DUP4 ADD MSTORE PUSH2 0x2D0D DUP2 DUP5 PUSH2 0x2CBA JUMP JUMPDEST SWAP1 POP SWAP3 SWAP2 POP POP JUMP JUMPDEST PUSH1 0x0 DUP2 ISZERO ISZERO SWAP1 POP SWAP2 SWAP1 POP JUMP JUMPDEST PUSH2 0x2D2A DUP2 PUSH2 0x2D15 JUMP JUMPDEST DUP3 MSTORE POP POP JUMP JUMPDEST PUSH1 0x0 PUSH1 0xA0 DUP3 ADD SWAP1 POP DUP2 DUP2 SUB PUSH1 0x0 DUP4 ADD MSTORE PUSH2 0x2D4A DUP2 DUP9 PUSH2 0x2CBA JUMP JUMPDEST SWAP1 POP DUP2 DUP2 SUB PUSH1 0x20 DUP4 ADD MSTORE PUSH2 0x2D5E DUP2 DUP8 PUSH2 0x2CBA JUMP JUMPDEST SWAP1 POP PUSH2 0x2D6D PUSH1 0x40 DUP4 ADD DUP7 PUSH2 0x2682 JUMP JUMPDEST DUP2 DUP2 SUB PUSH1 0x60 DUP4 ADD MSTORE PUSH2 0x2D7F DUP2 DUP6 PUSH2 0x2CBA JUMP JUMPDEST SWAP1 POP PUSH2 0x2D8E PUSH1 0x80 DUP4 ADD DUP5 PUSH2 0x2D21 JUMP JUMPDEST SWAP7 SWAP6 POP POP POP POP POP POP JUMP JUMPDEST PUSH1 0x0 PUSH1 0x20 DUP3 DUP5 SUB SLT ISZERO PUSH2 0x2DAE JUMPI PUSH2 0x2DAD PUSH2 0x26B6 JUMP JUMPDEST JUMPDEST PUSH1 0x0 DUP3 ADD CALLDATALOAD PUSH8 0xFFFFFFFFFFFFFFFF DUP2 GT ISZERO PUSH2 0x2DCC JUMPI PUSH2 0x2DCB PUSH2 0x26BB JUMP JUMPDEST JUMPDEST PUSH2 0x2DD8 DUP5 DUP3 DUP6 ADD PUSH2 0x283B JUMP JUMPDEST SWAP2 POP POP SWAP3 SWAP2 POP POP JUMP JUMPDEST PUSH1 0x0 DUP2 MLOAD SWAP1 POP SWAP2 SWAP1 POP JUMP JUMPDEST PUSH1 0x0 DUP3 DUP3 MSTORE PUSH1 0x20 DUP3 ADD SWAP1 POP SWAP3 SWAP2 POP POP JUMP JUMPDEST PUSH1 0x0 DUP2 SWAP1 POP PUSH1 0x20 DUP3 ADD SWAP1 POP SWAP2 SWAP1 POP JUMP JUMPDEST PUSH2 0x2E16 DUP2 PUSH2 0x2670 JUMP JUMPDEST DUP3 MSTORE POP POP JUMP JUMPDEST PUSH1 0x0 PUSH2 0x2E28 DUP4 DUP4 PUSH2 0x2E0D JUMP JUMPDEST PUSH1 0x20 DUP4 ADD SWAP1 POP SWAP3 SWAP2 POP POP JUMP JUMPDEST PUSH1 0x0 PUSH1 0x20 DUP3 ADD SWAP1 POP SWAP2 SWAP1 POP JUMP JUMPDEST PUSH1 0x0 PUSH2 0x2E4C DUP3 PUSH2 0x2DE1 JUMP JUMPDEST PUSH2 0x2E56 DUP2 DUP6 PUSH2 0x2DEC JUMP JUMPDEST SWAP4 POP PUSH2 0x2E61 DUP4 PUSH2 0x2DFD JUMP JUMPDEST DUP1 PUSH1 0x0 JUMPDEST DUP4 DUP2 LT ISZERO PUSH2 0x2E92 JUMPI DUP2 MLOAD PUSH2 0x2E79 DUP9 DUP3 PUSH2 0x2E1C JUMP JUMPDEST SWAP8 POP PUSH2 0x2E84 DUP4 PUSH2 0x2E34 JUMP JUMPDEST SWAP3 POP POP PUSH1 0x1 DUP2 ADD SWAP1 POP PUSH2 0x2E65 JUMP JUMPDEST POP DUP6 SWAP4 POP POP POP POP SWAP3 SWAP2 POP POP JUMP JUMPDEST PUSH1 0x0 PUSH1 0x20 DUP3 ADD SWAP1 POP DUP2 DUP2 SUB PUSH1 0x0 DUP4 ADD MSTORE PUSH2 0x2EB9 DUP2 DUP5 PUSH2 0x2E41 JUMP JUMPDEST SWAP1 POP SWAP3 SWAP2 POP POP JUMP JUMPDEST PUSH2 0x2ECA DUP2 PUSH2 0x2D15 JUMP JUMPDEST DUP3 MSTORE POP POP JUMP JUMPDEST PUSH1 0x0 PUSH1 0xA0 DUP4 ADD PUSH1 0x0 DUP4 ADD MLOAD DUP5 DUP3 SUB PUSH1 0x0 DUP7 ADD MSTORE PUSH2 0x2EED DUP3 DUP3 PUSH2 0x29CB JUMP JUMPDEST SWAP2 POP POP PUSH1 0x20 DUP4 ADD MLOAD DUP5 DUP3 SUB PUSH1 0x20 DUP7 ADD MSTORE PUSH2 0x2F07 DUP3 DUP3 PUSH2 0x29CB JUMP JUMPDEST SWAP2 POP POP PUSH1 0x40 DUP4 ADD MLOAD PUSH2 0x2F1C PUSH1 0x40 DUP7 ADD DUP3 PUSH2 0x2E0D JUMP JUMPDEST POP PUSH1 0x60 DUP4 ADD MLOAD DUP5 DUP3 SUB PUSH1 0x60 DUP7 ADD MSTORE PUSH2 0x2F34 DUP3 DUP3 PUSH2 0x29CB JUMP JUMPDEST SWAP2 POP POP PUSH1 0x80 DUP4 ADD MLOAD PUSH2 0x2F49 PUSH1 0x80 DUP7 ADD DUP3 PUSH2 0x2EC1 JUMP JUMPDEST POP DUP1 SWAP2 POP POP SWAP3 SWAP2 POP POP JUMP JUMPDEST PUSH1 0x0 PUSH1 0x20 DUP3 ADD SWAP1 POP DUP2 DUP2 SUB PUSH1 0x0 DUP4 ADD MSTORE PUSH2 0x2F6E DUP2 DUP5 PUSH2 0x2ED0 JUMP JUMPDEST SWAP1 POP SWAP3 SWAP2 POP POP JUMP JUMPDEST PUSH1 0x0 PUSH1 0x20 DUP3 ADD SWAP1 POP PUSH2 0x2F8B PUSH1 0x0 DUP4 ADD DUP5 PUSH2 0x2D21 JUMP JUMPDEST SWAP3 SWAP2 POP POP JUMP JUMPDEST PUSH1 0x0 DUP1 PUSH1 0x0 DUP1 PUSH1 0x0 DUP1 PUSH1 0xC0 DUP8 DUP10 SUB SLT ISZERO PUSH2 0x2FAE JUMPI PUSH2 0x2FAD PUSH2 0x26B6 JUMP JUMPDEST JUMPDEST PUSH1 0x0 DUP8 ADD CALLDATALOAD PUSH8 0xFFFFFFFFFFFFFFFF DUP2 GT ISZERO PUSH2 0x2FCC JUMPI PUSH2 0x2FCB PUSH2 0x26BB JUMP JUMPDEST JUMPDEST PUSH2 0x2FD8 DUP10 DUP3 DUP11 ADD PUSH2 0x283B JUMP JUMPDEST SWAP7 POP POP PUSH1 0x20 DUP8 ADD CALLDATALOAD PUSH8 0xFFFFFFFFFFFFFFFF DUP2 GT ISZERO PUSH2 0x2FF9 JUMPI PUSH2 0x2FF8 PUSH2 0x26BB JUMP JUMPDEST JUMPDEST PUSH2 0x3005 DUP10 DUP3 DUP11 ADD PUSH2 0x283B JUMP JUMPDEST SWAP6 POP POP PUSH1 0x40 PUSH2 0x3016 DUP10 DUP3 DUP11 ADD PUSH2 0x2880 JUMP JUMPDEST SWAP5 POP POP PUSH1 0x60 DUP8 ADD CALLDATALOAD PUSH8 0xFFFFFFFFFFFFFFFF DUP2 GT ISZERO PUSH2 0x3037 JUMPI PUSH2 0x3036 PUSH2 0x26BB JUMP JUMPDEST JUMPDEST PUSH2 0x3043 DUP10 DUP3 DUP11 ADD PUSH2 0x283B JUMP JUMPDEST SWAP4 POP POP PUSH1 0x80 PUSH2 0x3054 DUP10 DUP3 DUP11 ADD PUSH2 0x2880 JUMP JUMPDEST SWAP3 POP POP PUSH1 0xA0 DUP8 ADD CALLDATALOAD PUSH8 0xFFFFFFFFFFFFFFFF DUP2 GT ISZERO PUSH2 0x3075 JUMPI PUSH2 0x3074 PUSH2 0x26BB JUMP JUMPDEST JUMPDEST PUSH2 0x3081 DUP10 DUP3 DUP11 ADD PUSH2 0x283B JUMP JUMPDEST SWAP2 POP POP SWAP3 SWAP6 POP SWAP3 SWAP6 POP SWAP3 SWAP6 JUMP JUMPDEST PUSH1 0x0 PUSH2 0x140 DUP3 ADD SWAP1 POP DUP2 DUP2 SUB PUSH1 0x0 DUP4 ADD MSTORE PUSH2 0x30A9 DUP2 DUP14 PUSH2 0x2CBA JUMP JUMPDEST SWAP1 POP DUP2 DUP2 SUB PUSH1 0x20 DUP4 ADD MSTORE PUSH2 0x30BD DUP2 DUP13 PUSH2 0x2CBA JUMP JUMPDEST SWAP1 POP DUP2 DUP2 SUB PUSH1 0x40 DUP4 ADD MSTORE PUSH2 0x30D1 DUP2 DUP12 PUSH2 0x2CBA JUMP JUMPDEST SWAP1 POP PUSH2 0x30E0 PUSH1 0x60 DUP4 ADD DUP11 PUSH2 0x2682 JUMP JUMPDEST DUP2 DUP2 SUB PUSH1 0x80 DUP4 ADD MSTORE PUSH2 0x30F2 DUP2 DUP10 PUSH2 0x2CBA JUMP JUMPDEST SWAP1 POP PUSH2 0x3101 PUSH1 0xA0 DUP4 ADD DUP9 PUSH2 0x2D21 JUMP JUMPDEST PUSH2 0x310E PUSH1 0xC0 DUP4 ADD DUP8 PUSH2 0x2D21 JUMP JUMPDEST PUSH2 0x311B PUSH1 0xE0 DUP4 ADD DUP7 PUSH2 0x2682 JUMP JUMPDEST DUP2 DUP2 SUB PUSH2 0x100 DUP4 ADD MSTORE PUSH2 0x312E DUP2 DUP6 PUSH2 0x2CBA JUMP JUMPDEST SWAP1 POP PUSH2 0x313E PUSH2 0x120 DUP4 ADD DUP5 PUSH2 0x2682 JUMP JUMPDEST SWAP12 SWAP11 POP POP POP POP POP POP POP POP POP POP POP JUMP JUMPDEST PUSH1 0x0 PUSH2 0x120 DUP3 ADD SWAP1 POP DUP2 DUP2 SUB PUSH1 0x0 DUP4 ADD MSTORE PUSH2 0x3168 DUP2 DUP13 PUSH2 0x2CBA JUMP JUMPDEST SWAP1 POP DUP2 DUP2 SUB PUSH1 0x20 DUP4 ADD MSTORE PUSH2 0x317C DUP2 DUP12 PUSH2 0x2CBA JUMP JUMPDEST SWAP1 POP DUP2 DUP2 SUB PUSH1 0x40 DUP4 ADD MSTORE PUSH2 0x3190 DUP2 DUP11 PUSH2 0x2CBA JUMP JUMPDEST SWAP1 POP DUP2 DUP2 SUB PUSH1 0x60 DUP4 ADD MSTORE PUSH2 0x31A4 DUP2 DUP10 PUSH2 0x2CBA JUMP JUMPDEST SWAP1 POP DUP2 DUP2 SUB PUSH1 0x80 DUP4 ADD MSTORE PUSH2 0x31B8 DUP2 DUP9 PUSH2 0x2CBA JUMP JUMPDEST SWAP1 POP DUP2 DUP2 SUB PUSH1 0xA0 DUP4 ADD MSTORE PUSH2 0x31CC DUP2 DUP8 PUSH2 0x2CBA JUMP JUMPDEST SWAP1 POP DUP2 DUP2 SUB PUSH1 0xC0 DUP4 ADD MSTORE PUSH2 0x31E0 DUP2 DUP7 PUSH2 0x2CBA JUMP JUMPDEST SWAP1 POP DUP2 DUP2 SUB PUSH1 0xE0 DUP4 ADD MSTORE PUSH2 0x31F4 DUP2 DUP6 PUSH2 0x2CBA JUMP JUMPDEST SWAP1 POP PUSH2 0x3204 PUSH2 0x100 DUP4 ADD DUP5 PUSH2 0x2682 JUMP JUMPDEST SWAP11 SWAP10 POP POP POP POP POP POP POP POP POP POP JUMP JUMPDEST PUSH32 0x4E487B7100000000000000000000000000000000000000000000000000000000 PUSH1 0x0 MSTORE PUSH1 0x22 PUSH1 0x4 MSTORE PUSH1 0x24 PUSH1 0x0 REVERT JUMPDEST PUSH1 0x0 PUSH1 0x2 DUP3 DIV SWAP1 POP PUSH1 0x1 DUP3 AND DUP1 PUSH2 0x3259 JUMPI PUSH1 0x7F DUP3 AND SWAP2 POP JUMPDEST PUSH1 0x20 DUP3 LT DUP2 EQ ISZERO PUSH2 0x326D JUMPI PUSH2 0x326C PUSH2 0x3212 JUMP JUMPDEST JUMPDEST POP SWAP2 SWAP1 POP JUMP JUMPDEST PUSH1 0x0 DUP2 SWAP1 POP SWAP3 SWAP2 POP POP JUMP JUMPDEST PUSH1 0x0 PUSH2 0x3289 DUP3 PUSH2 0x297C JUMP JUMPDEST PUSH2 0x3293 DUP2 DUP6 PUSH2 0x3273 JUMP JUMPDEST SWAP4 POP PUSH2 0x32A3 DUP2 DUP6 PUSH1 0x20 DUP7 ADD PUSH2 0x2998 JUMP JUMPDEST DUP1 DUP5 ADD SWAP2 POP POP SWAP3 SWAP2 POP POP JUMP JUMPDEST PUSH1 0x0 PUSH2 0x32BB DUP3 DUP5 PUSH2 0x327E JUMP JUMPDEST SWAP2 POP DUP2 SWAP1 POP SWAP3 SWAP2 POP POP JUMP JUMPDEST PUSH32 0x4E487B7100000000000000000000000000000000000000000000000000000000 PUSH1 0x0 MSTORE PUSH1 0x11 PUSH1 0x4 MSTORE PUSH1 0x24 PUSH1 0x0 REVERT JUMPDEST PUSH1 0x0 PUSH2 0x3300 DUP3 PUSH2 0x26C0 JUMP JUMPDEST SWAP2 POP PUSH2 0x330B DUP4 PUSH2 0x26C0 JUMP JUMPDEST SWAP3 POP DUP3 PUSH32 0xFFFFFFFFFFFFFFFFFFFFFFFFFFFFFFFFFFFFFFFFFFFFFFFFFFFFFFFFFFFFFFFF SUB DUP3 GT ISZERO PUSH2 0x3340 JUMPI PUSH2 0x333F PUSH2 0x32C6 JUMP JUMPDEST JUMPDEST DUP3 DUP3 ADD SWAP1 POP SWAP3 SWAP2 POP POP JUMP INVALID LOG2 PUSH5 0x6970667358 0x22 SLT KECCAK256 0xE4 0x5F 0xDC SIGNEXTEND 0xC6 SELFBALANCE DUP8 RETURNDATASIZE 0xD9 0xCC DUP6 0xAA EXTCODEHASH MOD SIGNEXTEND 0xB5 PUSH20 0x6E2356ED1CE0B95AEF2D1B4B997D3E64736F6C63 NUMBER STOP ADDMOD EXP STOP CALLER "},"gasEstimates":{"creation":{"codeDepositCost":"2637000","executionCost":"infinite","totalCost":"infinite"},"external":{"activateAdmin(address)":"27097","addAdmin(string,string,string,address)":"infinite","admins(address)":"infinite","adminsAdresses(uint256)":"5002","counties(uint256)":"infinite","deactivateAdmin(address)":"27095","editAdmin(string,string,string,address)":"infinite","getAdmin(address)":"infinite","getAdminAddresses()":"infinite","getLandIds()":"infinite","getSuperAdminPassword()":"infinite","landIdsArr(uint256)":"infinite","landIdsMapping(string)":"infinite","landOwners(address)":"2890","landOwnersDetails(address)":"infinite","lands(string)":"infinite","landsCount()":"2563","loginAdmin()":"2652","makeLandAvailable(string)":"infinite","makeLandUnavailable(string)":"infinite","makeRequestToBuy(string)":"infinite","registerLand(string,string,address,string,address,string)":"infinite","registerLandOwner()":"infinite","superAdminAddress()":"2535","updateLandOwner(string,string,string,string,string,string,string,string)":"infinite"},"internal":{"equal(string memory,string memory)":"infinite"}},"methodIdentifiers":{"activateAdmin(address)":"1af1a768","addAdmin(string,string,string,address)":"cddb61b7","admins(address)":"429b62e5","adminsAdresses(uint256)":"13718c97","counties(uint256)":"2a979f31","deactivateAdmin(address)":"df6fa20e","editAdmin(string,string,string,address)":"1510f0d5","getAdmin(address)":"64efb22b","getAdminAddresses()":"64ddfa29","getLandIds()":"1a994ed8","getSuperAdminPassword()":"2de8f46d","landIdsArr(uint256)":"cbd5121c","landIdsMapping(string)":"c4a0086f","landOwners(address)":"67b57142","landOwnersDetails(address)":"be87bb8a","lands(string)":"b1c8ad0d","landsCount()":"1c9afd0f","loginAdmin()":"8b5c9335","makeLandAvailable(string)":"935b377b","makeLandUnavailable(string)":"d896fc96","makeRequestToBuy(string)":"53beb691","registerLand(string,string,address,string,address,string)":"ade79551","registerLandOwner()":"db9573e1","superAdminAddress()":"045b3034","updateLandOwner(string,string,string,string,string,string,string,string)":"245351c9"}},"storageLayout":{"storage":[{"astId":54,"contract":"LandRegistration.sol:LandRegistration","label":"superAdminAddress","offset":0,"slot":"0","type":"t_address"},{"astId":56,"contract":"LandRegistration.sol:LandRegistration","label":"superAdminPassword","offset":0,"slot":"1","type":"t_string_storage"},{"astId":61,"contract":"LandRegistration.sol:LandRegistration","label":"admins","offset":0,"slot":"2","type":"t_mapping(t_address,t_struct(Admin)12_storage)"},{"astId":65,"contract":"LandRegistration.sol:LandRegistration","label":"addresses","offset":0,"slot":"3","type":"t_mapping(t_address,t_bool)"},{"astId":68,"contract":"LandRegistration.sol:LandRegistration","label":"counties","offset":0,"slot":"4","type":"t_array(t_string_storage)dyn_storage"},{"astId":71,"contract":"LandRegistration.sol:LandRegistration","label":"adminsAdresses","offset":0,"slot":"5","type":"t_array(t_address)dyn_storage"},{"astId":74,"contract":"LandRegistration.sol:LandRegistration","label":"landIdsArr","offset":0,"slot":"6","type":"t_array(t_string_storage)dyn_storage"},{"astId":78,"contract":"LandRegistration.sol:LandRegistration","label":"landIdsMapping","offset":0,"slot":"7","type":"t_mapping(t_string_memory_ptr,t_bool)"},{"astId":83,"contract":"LandRegistration.sol:LandRegistration","label":"lands","offset":0,"slot":"8","type":"t_mapping(t_string_memory_ptr,t_struct(Land)33_storage)"},{"astId":85,"contract":"LandRegistration.sol:LandRegistration","label":"landsCount","offset":0,"slot":"9","type":"t_uint256"},{"astId":89,"contract":"LandRegistration.sol:LandRegistration","label":"landOwners","offset":0,"slot":"10","type":"t_mapping(t_address,t_bool)"},{"astId":94,"contract":"LandRegistration.sol:LandRegistration","label":"landOwnersDetails","offset":0,"slot":"11","type":"t_mapping(t_address,t_struct(LandOwner)52_storage)"}],"types":{"t_address":{"encoding":"inplace","label":"address","numberOfBytes":"20"},"t_array(t_address)dyn_storage":{"base":"t_address","encoding":"dynamic_array","label":"address[]","numberOfBytes":"32"},"t_array(t_string_storage)dyn_storage":{"base":"t_string_storage","encoding":"dynamic_array","label":"string[]","numberOfBytes":"32"},"t_bool":{"encoding":"inplace","label":"bool","numberOfBytes":"1"},"t_mapping(t_address,t_bool)":{"encoding":"mapping","key":"t_address","label":"mapping(address => bool)","numberOfBytes":"32","value":"t_bool"},"t_mapping(t_address,t_struct(Admin)12_storage)":{"encoding":"mapping","key":"t_address","label":"mapping(address => struct LandRegistration.Admin)","numberOfBytes":"32","value":"t_struct(Admin)12_storage"},"t_mapping(t_address,t_struct(LandOwner)52_storage)":{"encoding":"mapping","key":"t_address","label":"mapping(address => struct LandRegistration.LandOwner)","numberOfBytes":"32","value":"t_struct(LandOwner)52_storage"},"t_mapping(t_string_memory_ptr,t_bool)":{"encoding":"mapping","key":"t_string_memory_ptr","label":"mapping(string => bool)","numberOfBytes":"32","value":"t_bool"},"t_mapping(t_string_memory_ptr,t_struct(Land)33_storage)":{"encoding":"mapping","key":"t_string_memory_ptr","label":"mapping(string => struct LandRegistration.Land)","numberOfBytes":"32","value":"t_struct(Land)33_storage"},"t_string_memory_ptr":{"encoding":"bytes","label":"string","numberOfBytes":"32"},"t_string_storage":{"encoding":"bytes","label":"string","numberOfBytes":"32"},"t_struct(Admin)12_storage":{"encoding":"inplace","label":"struct LandRegistration.Admin","members":[{"astId":3,"contract":"LandRegistration.sol:LandRegistration","label":"firstName","offset":0,"slot":"0","type":"t_string_storage"},{"astId":5,"contract":"LandRegistration.sol:LandRegistration","label":"lastName","offset":0,"slot":"1","type":"t_string_storage"},{"astId":7,"contract":"LandRegistration.sol:LandRegistration","label":"adminAddress","offset":0,"slot":"2","type":"t_address"},{"astId":9,"contract":"LandRegistration.sol:LandRegistration","label":"county","offset":0,"slot":"3","type":"t_string_storage"},{"astId":11,"contract":"LandRegistration.sol:LandRegistration","label":"active","offset":0,"slot":"4","type":"t_bool"}],"numberOfBytes":"160"},"t_struct(Land)33_storage":{"encoding":"inplace","label":"struct LandRegistration.Land","members":[{"astId":14,"contract":"LandRegistration.sol:LandRegistration","label":"county","offset":0,"slot":"0","type":"t_string_storage"},{"astId":16,"contract":"LandRegistration.sol:LandRegistration","label":"location","offset":0,"slot":"1","type":"t_string_storage"},{"astId":18,"contract":"LandRegistration.sol:LandRegistration","label":"surveyNumber","offset":0,"slot":"2","type":"t_string_storage"},{"astId":20,"contract":"LandRegistration.sol:LandRegistration","label":"ownerAddress","offset":0,"slot":"3","type":"t_address"},{"astId":22,"contract":"LandRegistration.sol:LandRegistration","label":"marketValue","offset":0,"slot":"4","type":"t_string_storage"},{"astId":24,"contract":"LandRegistration.sol:LandRegistration","label":"availability","offset":0,"slot":"5","type":"t_bool"},{"astId":26,"contract":"LandRegistration.sol:LandRegistration","label":"requestedForSale","offset":1,"slot":"5","type":"t_bool"},{"astId":28,"contract":"LandRegistration.sol:LandRegistration","label":"requestedByAddress","offset":2,"slot":"5","type":"t_address"},{"astId":30,"contract":"LandRegistration.sol:LandRegistration","label":"landId","offset":0,"slot":"6","type":"t_string_storage"},{"astId":32,"contract":"LandRegistration.sol:LandRegistration","label":"adminAddress","offset":0,"slot":"7","type":"t_address"}],"numberOfBytes":"256"},"t_struct(LandOwner)52_storage":{"encoding":"inplace","label":"struct LandRegistration.LandOwner","members":[{"astId":35,"contract":"LandRegistration.sol:LandRegistration","label":"firstName","offset":0,"slot":"0","type":"t_string_storage"},{"astId":37,"contract":"LandRegistration.sol:LandRegistration","label":"lastName","offset":0,"slot":"1","type":"t_string_storage"},{"astId":39,"contract":"LandRegistration.sol:LandRegistration","label":"middleName","offset":0,"slot":"2","type":"t_string_storage"},{"astId":41,"contract":"LandRegistration.sol:LandRegistration","label":"gender","offset":0,"slot":"3","type":"t_string_storage"},{"astId":43,"contract":"LandRegistration.sol:LandRegistration","label":"email","offset":0,"slot":"4","type":"t_string_storage"},{"astId":45,"contract":"LandRegistration.sol:LandRegistration","label":"phoneNumber","offset":0,"slot":"5","type":"t_string_storage"},{"astId":47,"contract":"LandRegistration.sol:LandRegistration","label":"poBox","offset":0,"slot":"6","type":"t_string_storage"},{"astId":49,"contract":"LandRegistration.sol:LandRegistration","label":"location","offset":0,"slot":"7","type":"t_string_storage"},{"astId":51,"contract":"LandRegistration.sol:LandRegistration","label":"landOwnerAddress","offset":0,"slot":"8","type":"t_address"}],"numberOfBytes":"288"},"t_uint256":{"encoding":"inplace","label":"uint256","numberOfBytes":"32"}}},"userdoc":{"kind":"user","methods":{},"version":1}}