{"abi":[{"inputs":[{"internalType":"string","name":"password","type":"string"}],"stateMutability":"nonpayable","type":"constructor"},{"inputs":[{"internalType":"address","name":"adminAddress","type":"address"}],"name":"activateAdmin","outputs":[],"stateMutability":"nonpayable","type":"function"},{"inputs":[{"internalType":"string","name":"firstName","type":"string"},{"internalType":"string","name":"lastName","type":"string"},{"internalType":"string","name":"county","type":"string"},{"internalType":"address","name":"adminAddress","type":"address"}],"name":"addAdmin","outputs":[],"stateMutability":"nonpayable","type":"function"},{"inputs":[{"internalType":"uint256","name":"","type":"uint256"}],"name":"adminsAdresses","outputs":[{"internalType":"address","name":"","type":"address"}],"stateMutability":"view","type":"function"},{"inputs":[{"internalType":"uint256","name":"","type":"uint256"}],"name":"counties","outputs":[{"internalType":"string","name":"","type":"string"}],"stateMutability":"view","type":"function"},{"inputs":[{"internalType":"address","name":"adminAddress","type":"address"}],"name":"deactivateAdmin","outputs":[],"stateMutability":"nonpayable","type":"function"},{"inputs":[{"internalType":"string","name":"_firstName","type":"string"},{"internalType":"string","name":"_lastName","type":"string"},{"internalType":"string","name":"_county","type":"string"},{"internalType":"address","name":"_adminAddress","type":"address"}],"name":"editAdmin","outputs":[],"stateMutability":"nonpayable","type":"function"},{"inputs":[{"internalType":"address","name":"adminAddress","type":"address"}],"name":"getAdmin","outputs":[{"components":[{"internalType":"string","name":"firstName","type":"string"},{"internalType":"string","name":"lastName","type":"string"},{"internalType":"address","name":"adminAddress","type":"address"},{"internalType":"string","name":"county","type":"string"},{"internalType":"bool","name":"active","type":"bool"}],"internalType":"struct LandRegistration.Admin","name":"","type":"tuple"}],"stateMutability":"view","type":"function"},{"inputs":[],"name":"getAdminAddresses","outputs":[{"internalType":"address[]","name":"","type":"address[]"}],"stateMutability":"view","type":"function"},{"inputs":[],"name":"getSuperAdminPassword","outputs":[{"internalType":"string","name":"","type":"string"}],"stateMutability":"view","type":"function"},{"inputs":[],"name":"superAdminAddress","outputs":[{"internalType":"address","name":"","type":"address"}],"stateMutability":"view","type":"function"}],"devdoc":{"kind":"dev","methods":{},"version":1},"evm":{"assembly":"    /* \"LandRegistration.sol\":61:2389  contract LandRegistration {... */\n  mstore(0x40, 0x80)\n    /* \"LandRegistration.sol\":430:552  constructor(string memory password) {... */\n  callvalue\n  dup1\n  iszero\n  tag_1\n  jumpi\n  0x00\n  dup1\n  revert\ntag_1:\n  pop\n  mload(0x40)\n  sub(codesize, bytecodeSize)\n  dup1\n  bytecodeSize\n  dup4\n  codecopy\n  dup2\n  dup2\n  add\n  0x40\n  mstore\n  dup2\n  add\n  swap1\n  tag_2\n  swap2\n  swap1\n  tag_3\n  jump\t// in\ntag_2:\n    /* \"LandRegistration.sol\":497:505  password */\n  dup1\n    /* \"LandRegistration.sol\":476:494  superAdminPassword */\n  0x01\n    /* \"LandRegistration.sol\":476:505  superAdminPassword = password */\n  swap1\n  dup1\n  mload\n  swap1\n  0x20\n  add\n  swap1\n  tag_6\n  swap3\n  swap2\n  swap1\n  tag_7\n  jump\t// in\ntag_6:\n  pop\n    /* \"LandRegistration.sol\":535:545  msg.sender */\n  caller\n    /* \"LandRegistration.sol\":515:532  superAdminAddress */\n  0x00\n  dup1\n    /* \"LandRegistration.sol\":515:545  superAdminAddress = msg.sender */\n  0x0100\n  exp\n  dup2\n  sload\n  dup2\n  0xffffffffffffffffffffffffffffffffffffffff\n  mul\n  not\n  and\n  swap1\n  dup4\n  0xffffffffffffffffffffffffffffffffffffffff\n  and\n  mul\n  or\n  swap1\n  sstore\n  pop\n    /* \"LandRegistration.sol\":430:552  constructor(string memory password) {... */\n  pop\n    /* \"LandRegistration.sol\":61:2389  contract LandRegistration {... */\n  jump(tag_8)\ntag_7:\n  dup3\n  dup1\n  sload\n  tag_9\n  swap1\n  tag_10\n  jump\t// in\ntag_9:\n  swap1\n  0x00\n  mstore\n  keccak256(0x00, 0x20)\n  swap1\n  0x1f\n  add\n  0x20\n  swap1\n  div\n  dup2\n  add\n  swap3\n  dup3\n  tag_12\n  jumpi\n  0x00\n  dup6\n  sstore\n  jump(tag_11)\ntag_12:\n  dup3\n  0x1f\n  lt\n  tag_13\n  jumpi\n  dup1\n  mload\n  not(0xff)\n  and\n  dup4\n  dup1\n  add\n  or\n  dup6\n  sstore\n  jump(tag_11)\ntag_13:\n  dup3\n  dup1\n  add\n  0x01\n  add\n  dup6\n  sstore\n  dup3\n  iszero\n  tag_11\n  jumpi\n  swap2\n  dup3\n  add\ntag_14:\n  dup3\n  dup2\n  gt\n  iszero\n  tag_15\n  jumpi\n  dup3\n  mload\n  dup3\n  sstore\n  swap2\n  0x20\n  add\n  swap2\n  swap1\n  0x01\n  add\n  swap1\n  jump(tag_14)\ntag_15:\ntag_11:\n  pop\n  swap1\n  pop\n  tag_16\n  swap2\n  swap1\n  tag_17\n  jump\t// in\ntag_16:\n  pop\n  swap1\n  jump\t// out\ntag_17:\ntag_18:\n  dup1\n  dup3\n  gt\n  iszero\n  tag_19\n  jumpi\n  0x00\n  dup2\n  0x00\n  swap1\n  sstore\n  pop\n  0x01\n  add\n  jump(tag_18)\ntag_19:\n  pop\n  swap1\n  jump\t// out\n    /* \"#utility.yul\":7:82   */\ntag_20:\n    /* \"#utility.yul\":40:46   */\n  0x00\n    /* \"#utility.yul\":73:75   */\n  0x40\n    /* \"#utility.yul\":67:76   */\n  mload\n    /* \"#utility.yul\":57:76   */\n  swap1\n  pop\n    /* \"#utility.yul\":7:82   */\n  swap1\n  jump\t// out\n    /* \"#utility.yul\":88:205   */\ntag_21:\n    /* \"#utility.yul\":197:198   */\n  0x00\n    /* \"#utility.yul\":194:195   */\n  dup1\n    /* \"#utility.yul\":187:199   */\n  revert\n    /* \"#utility.yul\":211:328   */\ntag_22:\n    /* \"#utility.yul\":320:321   */\n  0x00\n    /* \"#utility.yul\":317:318   */\n  dup1\n    /* \"#utility.yul\":310:322   */\n  revert\n    /* \"#utility.yul\":334:451   */\ntag_23:\n    /* \"#utility.yul\":443:444   */\n  0x00\n    /* \"#utility.yul\":440:441   */\n  dup1\n    /* \"#utility.yul\":433:445   */\n  revert\n    /* \"#utility.yul\":457:574   */\ntag_24:\n    /* \"#utility.yul\":566:567   */\n  0x00\n    /* \"#utility.yul\":563:564   */\n  dup1\n    /* \"#utility.yul\":556:568   */\n  revert\n    /* \"#utility.yul\":580:682   */\ntag_25:\n    /* \"#utility.yul\":621:627   */\n  0x00\n    /* \"#utility.yul\":672:674   */\n  0x1f\n    /* \"#utility.yul\":668:675   */\n  not\n    /* \"#utility.yul\":663:665   */\n  0x1f\n    /* \"#utility.yul\":656:661   */\n  dup4\n    /* \"#utility.yul\":652:666   */\n  add\n    /* \"#utility.yul\":648:676   */\n  and\n    /* \"#utility.yul\":638:676   */\n  swap1\n  pop\n    /* \"#utility.yul\":580:682   */\n  swap2\n  swap1\n  pop\n  jump\t// out\n    /* \"#utility.yul\":688:868   */\ntag_26:\n    /* \"#utility.yul\":736:813   */\n  0x4e487b7100000000000000000000000000000000000000000000000000000000\n    /* \"#utility.yul\":733:734   */\n  0x00\n    /* \"#utility.yul\":726:814   */\n  mstore\n    /* \"#utility.yul\":833:837   */\n  0x41\n    /* \"#utility.yul\":830:831   */\n  0x04\n    /* \"#utility.yul\":823:838   */\n  mstore\n    /* \"#utility.yul\":857:861   */\n  0x24\n    /* \"#utility.yul\":854:855   */\n  0x00\n    /* \"#utility.yul\":847:862   */\n  revert\n    /* \"#utility.yul\":874:1155   */\ntag_27:\n    /* \"#utility.yul\":957:984   */\n  tag_43\n    /* \"#utility.yul\":979:983   */\n  dup3\n    /* \"#utility.yul\":957:984   */\n  tag_25\n  jump\t// in\ntag_43:\n    /* \"#utility.yul\":949:955   */\n  dup2\n    /* \"#utility.yul\":945:985   */\n  add\n    /* \"#utility.yul\":1087:1093   */\n  dup2\n    /* \"#utility.yul\":1075:1085   */\n  dup2\n    /* \"#utility.yul\":1072:1094   */\n  lt\n    /* \"#utility.yul\":1051:1069   */\n  0xffffffffffffffff\n    /* \"#utility.yul\":1039:1049   */\n  dup3\n    /* \"#utility.yul\":1036:1070   */\n  gt\n    /* \"#utility.yul\":1033:1095   */\n  or\n    /* \"#utility.yul\":1030:1118   */\n  iszero\n  tag_44\n  jumpi\n    /* \"#utility.yul\":1098:1116   */\n  tag_45\n  tag_26\n  jump\t// in\ntag_45:\n    /* \"#utility.yul\":1030:1118   */\ntag_44:\n    /* \"#utility.yul\":1138:1148   */\n  dup1\n    /* \"#utility.yul\":1134:1136   */\n  0x40\n    /* \"#utility.yul\":1127:1149   */\n  mstore\n    /* \"#utility.yul\":917:1155   */\n  pop\n    /* \"#utility.yul\":874:1155   */\n  pop\n  pop\n  jump\t// out\n    /* \"#utility.yul\":1161:1290   */\ntag_28:\n    /* \"#utility.yul\":1195:1201   */\n  0x00\n    /* \"#utility.yul\":1222:1242   */\n  tag_47\n  tag_20\n  jump\t// in\ntag_47:\n    /* \"#utility.yul\":1212:1242   */\n  swap1\n  pop\n    /* \"#utility.yul\":1251:1284   */\n  tag_48\n    /* \"#utility.yul\":1279:1283   */\n  dup3\n    /* \"#utility.yul\":1271:1277   */\n  dup3\n    /* \"#utility.yul\":1251:1284   */\n  tag_27\n  jump\t// in\ntag_48:\n    /* \"#utility.yul\":1161:1290   */\n  swap2\n  swap1\n  pop\n  jump\t// out\n    /* \"#utility.yul\":1296:1604   */\ntag_29:\n    /* \"#utility.yul\":1358:1362   */\n  0x00\n    /* \"#utility.yul\":1448:1466   */\n  0xffffffffffffffff\n    /* \"#utility.yul\":1440:1446   */\n  dup3\n    /* \"#utility.yul\":1437:1467   */\n  gt\n    /* \"#utility.yul\":1434:1490   */\n  iszero\n  tag_50\n  jumpi\n    /* \"#utility.yul\":1470:1488   */\n  tag_51\n  tag_26\n  jump\t// in\ntag_51:\n    /* \"#utility.yul\":1434:1490   */\ntag_50:\n    /* \"#utility.yul\":1508:1537   */\n  tag_52\n    /* \"#utility.yul\":1530:1536   */\n  dup3\n    /* \"#utility.yul\":1508:1537   */\n  tag_25\n  jump\t// in\ntag_52:\n    /* \"#utility.yul\":1500:1537   */\n  swap1\n  pop\n    /* \"#utility.yul\":1592:1596   */\n  0x20\n    /* \"#utility.yul\":1586:1590   */\n  dup2\n    /* \"#utility.yul\":1582:1597   */\n  add\n    /* \"#utility.yul\":1574:1597   */\n  swap1\n  pop\n    /* \"#utility.yul\":1296:1604   */\n  swap2\n  swap1\n  pop\n  jump\t// out\n    /* \"#utility.yul\":1610:1917   */\ntag_30:\n    /* \"#utility.yul\":1678:1679   */\n  0x00\n    /* \"#utility.yul\":1688:1801   */\ntag_54:\n    /* \"#utility.yul\":1702:1708   */\n  dup4\n    /* \"#utility.yul\":1699:1700   */\n  dup2\n    /* \"#utility.yul\":1696:1709   */\n  lt\n    /* \"#utility.yul\":1688:1801   */\n  iszero\n  tag_56\n  jumpi\n    /* \"#utility.yul\":1787:1788   */\n  dup1\n    /* \"#utility.yul\":1782:1785   */\n  dup3\n    /* \"#utility.yul\":1778:1789   */\n  add\n    /* \"#utility.yul\":1772:1790   */\n  mload\n    /* \"#utility.yul\":1768:1769   */\n  dup2\n    /* \"#utility.yul\":1763:1766   */\n  dup5\n    /* \"#utility.yul\":1759:1770   */\n  add\n    /* \"#utility.yul\":1752:1791   */\n  mstore\n    /* \"#utility.yul\":1724:1726   */\n  0x20\n    /* \"#utility.yul\":1721:1722   */\n  dup2\n    /* \"#utility.yul\":1717:1727   */\n  add\n    /* \"#utility.yul\":1712:1727   */\n  swap1\n  pop\n    /* \"#utility.yul\":1688:1801   */\n  jump(tag_54)\ntag_56:\n    /* \"#utility.yul\":1819:1825   */\n  dup4\n    /* \"#utility.yul\":1816:1817   */\n  dup2\n    /* \"#utility.yul\":1813:1826   */\n  gt\n    /* \"#utility.yul\":1810:1911   */\n  iszero\n  tag_57\n  jumpi\n    /* \"#utility.yul\":1899:1900   */\n  0x00\n    /* \"#utility.yul\":1890:1896   */\n  dup5\n    /* \"#utility.yul\":1885:1888   */\n  dup5\n    /* \"#utility.yul\":1881:1897   */\n  add\n    /* \"#utility.yul\":1874:1901   */\n  mstore\n    /* \"#utility.yul\":1810:1911   */\ntag_57:\n    /* \"#utility.yul\":1659:1917   */\n  pop\n    /* \"#utility.yul\":1610:1917   */\n  pop\n  pop\n  pop\n  jump\t// out\n    /* \"#utility.yul\":1923:2344   */\ntag_31:\n    /* \"#utility.yul\":2012:2017   */\n  0x00\n    /* \"#utility.yul\":2037:2103   */\n  tag_59\n    /* \"#utility.yul\":2053:2102   */\n  tag_60\n    /* \"#utility.yul\":2095:2101   */\n  dup5\n    /* \"#utility.yul\":2053:2102   */\n  tag_29\n  jump\t// in\ntag_60:\n    /* \"#utility.yul\":2037:2103   */\n  tag_28\n  jump\t// in\ntag_59:\n    /* \"#utility.yul\":2028:2103   */\n  swap1\n  pop\n    /* \"#utility.yul\":2126:2132   */\n  dup3\n    /* \"#utility.yul\":2119:2124   */\n  dup2\n    /* \"#utility.yul\":2112:2133   */\n  mstore\n    /* \"#utility.yul\":2164:2168   */\n  0x20\n    /* \"#utility.yul\":2157:2162   */\n  dup2\n    /* \"#utility.yul\":2153:2169   */\n  add\n    /* \"#utility.yul\":2202:2205   */\n  dup5\n    /* \"#utility.yul\":2193:2199   */\n  dup5\n    /* \"#utility.yul\":2188:2191   */\n  dup5\n    /* \"#utility.yul\":2184:2200   */\n  add\n    /* \"#utility.yul\":2181:2206   */\n  gt\n    /* \"#utility.yul\":2178:2290   */\n  iszero\n  tag_61\n  jumpi\n    /* \"#utility.yul\":2209:2288   */\n  tag_62\n  tag_24\n  jump\t// in\ntag_62:\n    /* \"#utility.yul\":2178:2290   */\ntag_61:\n    /* \"#utility.yul\":2299:2338   */\n  tag_63\n    /* \"#utility.yul\":2331:2337   */\n  dup5\n    /* \"#utility.yul\":2326:2329   */\n  dup3\n    /* \"#utility.yul\":2321:2324   */\n  dup6\n    /* \"#utility.yul\":2299:2338   */\n  tag_30\n  jump\t// in\ntag_63:\n    /* \"#utility.yul\":2018:2344   */\n  pop\n    /* \"#utility.yul\":1923:2344   */\n  swap4\n  swap3\n  pop\n  pop\n  pop\n  jump\t// out\n    /* \"#utility.yul\":2364:2719   */\ntag_32:\n    /* \"#utility.yul\":2431:2436   */\n  0x00\n    /* \"#utility.yul\":2480:2483   */\n  dup3\n    /* \"#utility.yul\":2473:2477   */\n  0x1f\n    /* \"#utility.yul\":2465:2471   */\n  dup4\n    /* \"#utility.yul\":2461:2478   */\n  add\n    /* \"#utility.yul\":2457:2484   */\n  slt\n    /* \"#utility.yul\":2447:2569   */\n  tag_65\n  jumpi\n    /* \"#utility.yul\":2488:2567   */\n  tag_66\n  tag_23\n  jump\t// in\ntag_66:\n    /* \"#utility.yul\":2447:2569   */\ntag_65:\n    /* \"#utility.yul\":2598:2604   */\n  dup2\n    /* \"#utility.yul\":2592:2605   */\n  mload\n    /* \"#utility.yul\":2623:2713   */\n  tag_67\n    /* \"#utility.yul\":2709:2712   */\n  dup5\n    /* \"#utility.yul\":2701:2707   */\n  dup3\n    /* \"#utility.yul\":2694:2698   */\n  0x20\n    /* \"#utility.yul\":2686:2692   */\n  dup7\n    /* \"#utility.yul\":2682:2699   */\n  add\n    /* \"#utility.yul\":2623:2713   */\n  tag_31\n  jump\t// in\ntag_67:\n    /* \"#utility.yul\":2614:2713   */\n  swap2\n  pop\n    /* \"#utility.yul\":2437:2719   */\n  pop\n    /* \"#utility.yul\":2364:2719   */\n  swap3\n  swap2\n  pop\n  pop\n  jump\t// out\n    /* \"#utility.yul\":2725:3249   */\ntag_3:\n    /* \"#utility.yul\":2805:2811   */\n  0x00\n    /* \"#utility.yul\":2854:2856   */\n  0x20\n    /* \"#utility.yul\":2842:2851   */\n  dup3\n    /* \"#utility.yul\":2833:2840   */\n  dup5\n    /* \"#utility.yul\":2829:2852   */\n  sub\n    /* \"#utility.yul\":2825:2857   */\n  slt\n    /* \"#utility.yul\":2822:2941   */\n  iszero\n  tag_69\n  jumpi\n    /* \"#utility.yul\":2860:2939   */\n  tag_70\n  tag_21\n  jump\t// in\ntag_70:\n    /* \"#utility.yul\":2822:2941   */\ntag_69:\n    /* \"#utility.yul\":3001:3002   */\n  0x00\n    /* \"#utility.yul\":2990:2999   */\n  dup3\n    /* \"#utility.yul\":2986:3003   */\n  add\n    /* \"#utility.yul\":2980:3004   */\n  mload\n    /* \"#utility.yul\":3031:3049   */\n  0xffffffffffffffff\n    /* \"#utility.yul\":3023:3029   */\n  dup2\n    /* \"#utility.yul\":3020:3050   */\n  gt\n    /* \"#utility.yul\":3017:3134   */\n  iszero\n  tag_71\n  jumpi\n    /* \"#utility.yul\":3053:3132   */\n  tag_72\n  tag_22\n  jump\t// in\ntag_72:\n    /* \"#utility.yul\":3017:3134   */\ntag_71:\n    /* \"#utility.yul\":3158:3232   */\n  tag_73\n    /* \"#utility.yul\":3224:3231   */\n  dup5\n    /* \"#utility.yul\":3215:3221   */\n  dup3\n    /* \"#utility.yul\":3204:3213   */\n  dup6\n    /* \"#utility.yul\":3200:3222   */\n  add\n    /* \"#utility.yul\":3158:3232   */\n  tag_32\n  jump\t// in\ntag_73:\n    /* \"#utility.yul\":3148:3232   */\n  swap2\n  pop\n    /* \"#utility.yul\":2951:3242   */\n  pop\n    /* \"#utility.yul\":2725:3249   */\n  swap3\n  swap2\n  pop\n  pop\n  jump\t// out\n    /* \"#utility.yul\":3255:3435   */\ntag_33:\n    /* \"#utility.yul\":3303:3380   */\n  0x4e487b7100000000000000000000000000000000000000000000000000000000\n    /* \"#utility.yul\":3300:3301   */\n  0x00\n    /* \"#utility.yul\":3293:3381   */\n  mstore\n    /* \"#utility.yul\":3400:3404   */\n  0x22\n    /* \"#utility.yul\":3397:3398   */\n  0x04\n    /* \"#utility.yul\":3390:3405   */\n  mstore\n    /* \"#utility.yul\":3424:3428   */\n  0x24\n    /* \"#utility.yul\":3421:3422   */\n  0x00\n    /* \"#utility.yul\":3414:3429   */\n  revert\n    /* \"#utility.yul\":3441:3761   */\ntag_10:\n    /* \"#utility.yul\":3485:3491   */\n  0x00\n    /* \"#utility.yul\":3522:3523   */\n  0x02\n    /* \"#utility.yul\":3516:3520   */\n  dup3\n    /* \"#utility.yul\":3512:3524   */\n  div\n    /* \"#utility.yul\":3502:3524   */\n  swap1\n  pop\n    /* \"#utility.yul\":3569:3570   */\n  0x01\n    /* \"#utility.yul\":3563:3567   */\n  dup3\n    /* \"#utility.yul\":3559:3571   */\n  and\n    /* \"#utility.yul\":3590:3608   */\n  dup1\n    /* \"#utility.yul\":3580:3661   */\n  tag_76\n  jumpi\n    /* \"#utility.yul\":3646:3650   */\n  0x7f\n    /* \"#utility.yul\":3638:3644   */\n  dup3\n    /* \"#utility.yul\":3634:3651   */\n  and\n    /* \"#utility.yul\":3624:3651   */\n  swap2\n  pop\n    /* \"#utility.yul\":3580:3661   */\ntag_76:\n    /* \"#utility.yul\":3708:3710   */\n  0x20\n    /* \"#utility.yul\":3700:3706   */\n  dup3\n    /* \"#utility.yul\":3697:3711   */\n  lt\n    /* \"#utility.yul\":3677:3695   */\n  dup2\n    /* \"#utility.yul\":3674:3712   */\n  eq\n    /* \"#utility.yul\":3671:3755   */\n  iszero\n  tag_77\n  jumpi\n    /* \"#utility.yul\":3727:3745   */\n  tag_78\n  tag_33\n  jump\t// in\ntag_78:\n    /* \"#utility.yul\":3671:3755   */\ntag_77:\n    /* \"#utility.yul\":3492:3761   */\n  pop\n    /* \"#utility.yul\":3441:3761   */\n  swap2\n  swap1\n  pop\n  jump\t// out\n    /* \"LandRegistration.sol\":61:2389  contract LandRegistration {... */\ntag_8:\n  dataSize(sub_0)\n  dup1\n  dataOffset(sub_0)\n  0x00\n  codecopy\n  0x00\n  return\nstop\n\nsub_0: assembly {\n        /* \"LandRegistration.sol\":61:2389  contract LandRegistration {... */\n      mstore(0x40, 0x80)\n      callvalue\n      dup1\n      iszero\n      tag_1\n      jumpi\n      0x00\n      dup1\n      revert\n    tag_1:\n      pop\n      jumpi(tag_2, lt(calldatasize, 0x04))\n      shr(0xe0, calldataload(0x00))\n      dup1\n      0x2de8f46d\n      gt\n      tag_13\n      jumpi\n      dup1\n      0x2de8f46d\n      eq\n      tag_8\n      jumpi\n      dup1\n      0x64ddfa29\n      eq\n      tag_9\n      jumpi\n      dup1\n      0x64efb22b\n      eq\n      tag_10\n      jumpi\n      dup1\n      0xcddb61b7\n      eq\n      tag_11\n      jumpi\n      dup1\n      0xdf6fa20e\n      eq\n      tag_12\n      jumpi\n      jump(tag_2)\n    tag_13:\n      dup1\n      0x045b3034\n      eq\n      tag_3\n      jumpi\n      dup1\n      0x13718c97\n      eq\n      tag_4\n      jumpi\n      dup1\n      0x1510f0d5\n      eq\n      tag_5\n      jumpi\n      dup1\n      0x1af1a768\n      eq\n      tag_6\n      jumpi\n      dup1\n      0x2a979f31\n      eq\n      tag_7\n      jumpi\n    tag_2:\n      0x00\n      dup1\n      revert\n        /* \"LandRegistration.sol\":248:280  address public superAdminAddress */\n    tag_3:\n      tag_14\n      tag_15\n      jump\t// in\n    tag_14:\n      mload(0x40)\n      tag_16\n      swap2\n      swap1\n      tag_17\n      jump\t// in\n    tag_16:\n      mload(0x40)\n      dup1\n      swap2\n      sub\n      swap1\n      return\n        /* \"LandRegistration.sol\":387:419  address [] public adminsAdresses */\n    tag_4:\n      tag_18\n      0x04\n      dup1\n      calldatasize\n      sub\n      dup2\n      add\n      swap1\n      tag_19\n      swap2\n      swap1\n      tag_20\n      jump\t// in\n    tag_19:\n      tag_21\n      jump\t// in\n    tag_18:\n      mload(0x40)\n      tag_22\n      swap2\n      swap1\n      tag_17\n      jump\t// in\n    tag_22:\n      mload(0x40)\n      dup1\n      swap2\n      sub\n      swap1\n      return\n        /* \"LandRegistration.sol\":2053:2387  function editAdmin(string memory _firstName, string memory _lastName, string memory _county, address _adminAddress) public restrictToSuperAdmin {... */\n    tag_5:\n      tag_23\n      0x04\n      dup1\n      calldatasize\n      sub\n      dup2\n      add\n      swap1\n      tag_24\n      swap2\n      swap1\n      tag_25\n      jump\t// in\n    tag_24:\n      tag_26\n      jump\t// in\n    tag_23:\n      stop\n        /* \"LandRegistration.sol\":1790:1914  function activateAdmin(address adminAddress) public restrictToSuperAdmin {... */\n    tag_6:\n      tag_27\n      0x04\n      dup1\n      calldatasize\n      sub\n      dup2\n      add\n      swap1\n      tag_28\n      swap2\n      swap1\n      tag_29\n      jump\t// in\n    tag_28:\n      tag_30\n      jump\t// in\n    tag_27:\n      stop\n        /* \"LandRegistration.sol\":356:381  string [] public counties */\n    tag_7:\n      tag_31\n      0x04\n      dup1\n      calldatasize\n      sub\n      dup2\n      add\n      swap1\n      tag_32\n      swap2\n      swap1\n      tag_20\n      jump\t// in\n    tag_32:\n      tag_33\n      jump\t// in\n    tag_31:\n      mload(0x40)\n      tag_34\n      swap2\n      swap1\n      tag_35\n      jump\t// in\n    tag_34:\n      mload(0x40)\n      dup1\n      swap2\n      sub\n      swap1\n      return\n        /* \"LandRegistration.sol\":814:945  function getSuperAdminPassword() public view restrictToSuperAdmin returns(string memory) {... */\n    tag_8:\n      tag_36\n      tag_37\n      jump\t// in\n    tag_36:\n      mload(0x40)\n      tag_38\n      swap2\n      swap1\n      tag_35\n      jump\t// in\n    tag_38:\n      mload(0x40)\n      dup1\n      swap2\n      sub\n      swap1\n      return\n        /* \"LandRegistration.sol\":1920:2047  function getAdminAddresses() public view restrictToSuperAdmin returns(address [] memory) {... */\n    tag_9:\n      tag_39\n      tag_40\n      jump\t// in\n    tag_39:\n      mload(0x40)\n      tag_41\n      swap2\n      swap1\n      tag_42\n      jump\t// in\n    tag_41:\n      mload(0x40)\n      dup1\n      swap2\n      sub\n      swap1\n      return\n        /* \"LandRegistration.sol\":1504:1643  function getAdmin(address adminAddress) public view restrictToSuperAdmin returns(Admin memory) {... */\n    tag_10:\n      tag_43\n      0x04\n      dup1\n      calldatasize\n      sub\n      dup2\n      add\n      swap1\n      tag_44\n      swap2\n      swap1\n      tag_29\n      jump\t// in\n    tag_44:\n      tag_45\n      jump\t// in\n    tag_43:\n      mload(0x40)\n      tag_46\n      swap2\n      swap1\n      tag_47\n      jump\t// in\n    tag_46:\n      mload(0x40)\n      dup1\n      swap2\n      sub\n      swap1\n      return\n        /* \"LandRegistration.sol\":955:1498  function addAdmin(string memory firstName, string memory lastName, string memory county, address adminAddress) public restrictToSuperAdmin {... */\n    tag_11:\n      tag_48\n      0x04\n      dup1\n      calldatasize\n      sub\n      dup2\n      add\n      swap1\n      tag_49\n      swap2\n      swap1\n      tag_25\n      jump\t// in\n    tag_49:\n      tag_50\n      jump\t// in\n    tag_48:\n      stop\n        /* \"LandRegistration.sol\":1653:1780  function deactivateAdmin(address adminAddress) public restrictToSuperAdmin {... */\n    tag_12:\n      tag_51\n      0x04\n      dup1\n      calldatasize\n      sub\n      dup2\n      add\n      swap1\n      tag_52\n      swap2\n      swap1\n      tag_29\n      jump\t// in\n    tag_52:\n      tag_53\n      jump\t// in\n    tag_51:\n      stop\n        /* \"LandRegistration.sol\":248:280  address public superAdminAddress */\n    tag_15:\n      0x00\n      dup1\n      sload\n      swap1\n      0x0100\n      exp\n      swap1\n      div\n      0xffffffffffffffffffffffffffffffffffffffff\n      and\n      dup2\n      jump\t// out\n        /* \"LandRegistration.sol\":387:419  address [] public adminsAdresses */\n    tag_21:\n      0x04\n      dup2\n      dup2\n      sload\n      dup2\n      lt\n      tag_54\n      jumpi\n      0x00\n      dup1\n      revert\n    tag_54:\n      swap1\n      0x00\n      mstore\n      keccak256(0x00, 0x20)\n      add\n      0x00\n      swap2\n      pop\n      sload\n      swap1\n      0x0100\n      exp\n      swap1\n      div\n      0xffffffffffffffffffffffffffffffffffffffff\n      and\n      dup2\n      jump\t// out\n        /* \"LandRegistration.sol\":2053:2387  function editAdmin(string memory _firstName, string memory _lastName, string memory _county, address _adminAddress) public restrictToSuperAdmin {... */\n    tag_26:\n        /* \"LandRegistration.sol\":772:789  superAdminAddress */\n      0x00\n      dup1\n      sload\n      swap1\n      0x0100\n      exp\n      swap1\n      div\n      0xffffffffffffffffffffffffffffffffffffffff\n      and\n        /* \"LandRegistration.sol\":758:789  msg.sender == superAdminAddress */\n      0xffffffffffffffffffffffffffffffffffffffff\n      and\n        /* \"LandRegistration.sol\":758:768  msg.sender */\n      caller\n        /* \"LandRegistration.sol\":758:789  msg.sender == superAdminAddress */\n      0xffffffffffffffffffffffffffffffffffffffff\n      and\n      eq\n        /* \"LandRegistration.sol\":750:790  require(msg.sender == superAdminAddress) */\n      tag_57\n      jumpi\n      0x00\n      dup1\n      revert\n    tag_57:\n        /* \"LandRegistration.sol\":2207:2232  Admin storage adminToEdit */\n      0x00\n        /* \"LandRegistration.sol\":2235:2241  admins */\n      0x02\n        /* \"LandRegistration.sol\":2235:2256  admins[_adminAddress] */\n      0x00\n        /* \"LandRegistration.sol\":2242:2255  _adminAddress */\n      dup4\n        /* \"LandRegistration.sol\":2235:2256  admins[_adminAddress] */\n      0xffffffffffffffffffffffffffffffffffffffff\n      and\n      0xffffffffffffffffffffffffffffffffffffffff\n      and\n      dup2\n      mstore\n      0x20\n      add\n      swap1\n      dup2\n      mstore\n      0x20\n      add\n      0x00\n      keccak256\n        /* \"LandRegistration.sol\":2207:2256  Admin storage adminToEdit = admins[_adminAddress] */\n      swap1\n      pop\n        /* \"LandRegistration.sol\":2290:2300  _firstName */\n      dup5\n        /* \"LandRegistration.sol\":2266:2277  adminToEdit */\n      dup2\n        /* \"LandRegistration.sol\":2266:2287  adminToEdit.firstName */\n      0x00\n      add\n        /* \"LandRegistration.sol\":2266:2300  adminToEdit.firstName = _firstName */\n      swap1\n      dup1\n      mload\n      swap1\n      0x20\n      add\n      swap1\n      tag_59\n      swap3\n      swap2\n      swap1\n      tag_60\n      jump\t// in\n    tag_59:\n      pop\n        /* \"LandRegistration.sol\":2333:2342  _lastName */\n      dup4\n        /* \"LandRegistration.sol\":2310:2321  adminToEdit */\n      dup2\n        /* \"LandRegistration.sol\":2310:2330  adminToEdit.lastName */\n      0x01\n      add\n        /* \"LandRegistration.sol\":2310:2342  adminToEdit.lastName = _lastName */\n      swap1\n      dup1\n      mload\n      swap1\n      0x20\n      add\n      swap1\n      tag_61\n      swap3\n      swap2\n      swap1\n      tag_60\n      jump\t// in\n    tag_61:\n      pop\n        /* \"LandRegistration.sol\":2373:2380  _county */\n      dup3\n        /* \"LandRegistration.sol\":2352:2363  adminToEdit */\n      dup2\n        /* \"LandRegistration.sol\":2352:2370  adminToEdit.county */\n      0x03\n      add\n        /* \"LandRegistration.sol\":2352:2380  adminToEdit.county = _county */\n      swap1\n      dup1\n      mload\n      swap1\n      0x20\n      add\n      swap1\n      tag_62\n      swap3\n      swap2\n      swap1\n      tag_60\n      jump\t// in\n    tag_62:\n      pop\n        /* \"LandRegistration.sol\":2197:2387  {... */\n      pop\n        /* \"LandRegistration.sol\":2053:2387  function editAdmin(string memory _firstName, string memory _lastName, string memory _county, address _adminAddress) public restrictToSuperAdmin {... */\n      pop\n      pop\n      pop\n      pop\n      jump\t// out\n        /* \"LandRegistration.sol\":1790:1914  function activateAdmin(address adminAddress) public restrictToSuperAdmin {... */\n    tag_30:\n        /* \"LandRegistration.sol\":772:789  superAdminAddress */\n      0x00\n      dup1\n      sload\n      swap1\n      0x0100\n      exp\n      swap1\n      div\n      0xffffffffffffffffffffffffffffffffffffffff\n      and\n        /* \"LandRegistration.sol\":758:789  msg.sender == superAdminAddress */\n      0xffffffffffffffffffffffffffffffffffffffff\n      and\n        /* \"LandRegistration.sol\":758:768  msg.sender */\n      caller\n        /* \"LandRegistration.sol\":758:789  msg.sender == superAdminAddress */\n      0xffffffffffffffffffffffffffffffffffffffff\n      and\n      eq\n        /* \"LandRegistration.sol\":750:790  require(msg.sender == superAdminAddress) */\n      tag_64\n      jumpi\n      0x00\n      dup1\n      revert\n    tag_64:\n        /* \"LandRegistration.sol\":1903:1907  true */\n      0x01\n        /* \"LandRegistration.sol\":1873:1879  admins */\n      0x02\n        /* \"LandRegistration.sol\":1873:1893  admins[adminAddress] */\n      0x00\n        /* \"LandRegistration.sol\":1880:1892  adminAddress */\n      dup4\n        /* \"LandRegistration.sol\":1873:1893  admins[adminAddress] */\n      0xffffffffffffffffffffffffffffffffffffffff\n      and\n      0xffffffffffffffffffffffffffffffffffffffff\n      and\n      dup2\n      mstore\n      0x20\n      add\n      swap1\n      dup2\n      mstore\n      0x20\n      add\n      0x00\n      keccak256\n        /* \"LandRegistration.sol\":1873:1900  admins[adminAddress].active */\n      0x04\n      add\n      0x00\n        /* \"LandRegistration.sol\":1873:1907  admins[adminAddress].active = true */\n      0x0100\n      exp\n      dup2\n      sload\n      dup2\n      0xff\n      mul\n      not\n      and\n      swap1\n      dup4\n      iszero\n      iszero\n      mul\n      or\n      swap1\n      sstore\n      pop\n        /* \"LandRegistration.sol\":1790:1914  function activateAdmin(address adminAddress) public restrictToSuperAdmin {... */\n      pop\n      jump\t// out\n        /* \"LandRegistration.sol\":356:381  string [] public counties */\n    tag_33:\n      0x03\n      dup2\n      dup2\n      sload\n      dup2\n      lt\n      tag_66\n      jumpi\n      0x00\n      dup1\n      revert\n    tag_66:\n      swap1\n      0x00\n      mstore\n      keccak256(0x00, 0x20)\n      add\n      0x00\n      swap2\n      pop\n      swap1\n      pop\n      dup1\n      sload\n      tag_68\n      swap1\n      tag_69\n      jump\t// in\n    tag_68:\n      dup1\n      0x1f\n      add\n      0x20\n      dup1\n      swap2\n      div\n      mul\n      0x20\n      add\n      mload(0x40)\n      swap1\n      dup2\n      add\n      0x40\n      mstore\n      dup1\n      swap3\n      swap2\n      swap1\n      dup2\n      dup2\n      mstore\n      0x20\n      add\n      dup3\n      dup1\n      sload\n      tag_70\n      swap1\n      tag_69\n      jump\t// in\n    tag_70:\n      dup1\n      iszero\n      tag_71\n      jumpi\n      dup1\n      0x1f\n      lt\n      tag_72\n      jumpi\n      0x0100\n      dup1\n      dup4\n      sload\n      div\n      mul\n      dup4\n      mstore\n      swap2\n      0x20\n      add\n      swap2\n      jump(tag_71)\n    tag_72:\n      dup3\n      add\n      swap2\n      swap1\n      0x00\n      mstore\n      keccak256(0x00, 0x20)\n      swap1\n    tag_73:\n      dup2\n      sload\n      dup2\n      mstore\n      swap1\n      0x01\n      add\n      swap1\n      0x20\n      add\n      dup1\n      dup4\n      gt\n      tag_73\n      jumpi\n      dup3\n      swap1\n      sub\n      0x1f\n      and\n      dup3\n      add\n      swap2\n    tag_71:\n      pop\n      pop\n      pop\n      pop\n      pop\n      dup2\n      jump\t// out\n        /* \"LandRegistration.sol\":814:945  function getSuperAdminPassword() public view restrictToSuperAdmin returns(string memory) {... */\n    tag_37:\n        /* \"LandRegistration.sol\":888:901  string memory */\n      0x60\n        /* \"LandRegistration.sol\":772:789  superAdminAddress */\n      0x00\n      dup1\n      sload\n      swap1\n      0x0100\n      exp\n      swap1\n      div\n      0xffffffffffffffffffffffffffffffffffffffff\n      and\n        /* \"LandRegistration.sol\":758:789  msg.sender == superAdminAddress */\n      0xffffffffffffffffffffffffffffffffffffffff\n      and\n        /* \"LandRegistration.sol\":758:768  msg.sender */\n      caller\n        /* \"LandRegistration.sol\":758:789  msg.sender == superAdminAddress */\n      0xffffffffffffffffffffffffffffffffffffffff\n      and\n      eq\n        /* \"LandRegistration.sol\":750:790  require(msg.sender == superAdminAddress) */\n      tag_75\n      jumpi\n      0x00\n      dup1\n      revert\n    tag_75:\n        /* \"LandRegistration.sol\":920:938  superAdminPassword */\n      0x01\n        /* \"LandRegistration.sol\":913:938  return superAdminPassword */\n      dup1\n      sload\n      tag_77\n      swap1\n      tag_69\n      jump\t// in\n    tag_77:\n      dup1\n      0x1f\n      add\n      0x20\n      dup1\n      swap2\n      div\n      mul\n      0x20\n      add\n      mload(0x40)\n      swap1\n      dup2\n      add\n      0x40\n      mstore\n      dup1\n      swap3\n      swap2\n      swap1\n      dup2\n      dup2\n      mstore\n      0x20\n      add\n      dup3\n      dup1\n      sload\n      tag_78\n      swap1\n      tag_69\n      jump\t// in\n    tag_78:\n      dup1\n      iszero\n      tag_79\n      jumpi\n      dup1\n      0x1f\n      lt\n      tag_80\n      jumpi\n      0x0100\n      dup1\n      dup4\n      sload\n      div\n      mul\n      dup4\n      mstore\n      swap2\n      0x20\n      add\n      swap2\n      jump(tag_79)\n    tag_80:\n      dup3\n      add\n      swap2\n      swap1\n      0x00\n      mstore\n      keccak256(0x00, 0x20)\n      swap1\n    tag_81:\n      dup2\n      sload\n      dup2\n      mstore\n      swap1\n      0x01\n      add\n      swap1\n      0x20\n      add\n      dup1\n      dup4\n      gt\n      tag_81\n      jumpi\n      dup3\n      swap1\n      sub\n      0x1f\n      and\n      dup3\n      add\n      swap2\n    tag_79:\n      pop\n      pop\n      pop\n      pop\n      pop\n      swap1\n      pop\n        /* \"LandRegistration.sol\":814:945  function getSuperAdminPassword() public view restrictToSuperAdmin returns(string memory) {... */\n      swap1\n      jump\t// out\n        /* \"LandRegistration.sol\":1920:2047  function getAdminAddresses() public view restrictToSuperAdmin returns(address [] memory) {... */\n    tag_40:\n        /* \"LandRegistration.sol\":1990:2007  address [] memory */\n      0x60\n        /* \"LandRegistration.sol\":772:789  superAdminAddress */\n      0x00\n      dup1\n      sload\n      swap1\n      0x0100\n      exp\n      swap1\n      div\n      0xffffffffffffffffffffffffffffffffffffffff\n      and\n        /* \"LandRegistration.sol\":758:789  msg.sender == superAdminAddress */\n      0xffffffffffffffffffffffffffffffffffffffff\n      and\n        /* \"LandRegistration.sol\":758:768  msg.sender */\n      caller\n        /* \"LandRegistration.sol\":758:789  msg.sender == superAdminAddress */\n      0xffffffffffffffffffffffffffffffffffffffff\n      and\n      eq\n        /* \"LandRegistration.sol\":750:790  require(msg.sender == superAdminAddress) */\n      tag_83\n      jumpi\n      0x00\n      dup1\n      revert\n    tag_83:\n        /* \"LandRegistration.sol\":2026:2040  adminsAdresses */\n      0x04\n        /* \"LandRegistration.sol\":2019:2040  return adminsAdresses */\n      dup1\n      sload\n      dup1\n      0x20\n      mul\n      0x20\n      add\n      mload(0x40)\n      swap1\n      dup2\n      add\n      0x40\n      mstore\n      dup1\n      swap3\n      swap2\n      swap1\n      dup2\n      dup2\n      mstore\n      0x20\n      add\n      dup3\n      dup1\n      sload\n      dup1\n      iszero\n      tag_85\n      jumpi\n      0x20\n      mul\n      dup3\n      add\n      swap2\n      swap1\n      0x00\n      mstore\n      keccak256(0x00, 0x20)\n      swap1\n    tag_86:\n      dup2\n      0x00\n      swap1\n      sload\n      swap1\n      0x0100\n      exp\n      swap1\n      div\n      0xffffffffffffffffffffffffffffffffffffffff\n      and\n      0xffffffffffffffffffffffffffffffffffffffff\n      and\n      dup2\n      mstore\n      0x20\n      add\n      swap1\n      0x01\n      add\n      swap1\n      dup1\n      dup4\n      gt\n      tag_86\n      jumpi\n    tag_85:\n      pop\n      pop\n      pop\n      pop\n      pop\n      swap1\n      pop\n        /* \"LandRegistration.sol\":1920:2047  function getAdminAddresses() public view restrictToSuperAdmin returns(address [] memory) {... */\n      swap1\n      jump\t// out\n        /* \"LandRegistration.sol\":1504:1643  function getAdmin(address adminAddress) public view restrictToSuperAdmin returns(Admin memory) {... */\n    tag_45:\n        /* \"LandRegistration.sol\":1585:1597  Admin memory */\n      tag_87\n      tag_88\n      jump\t// in\n    tag_87:\n        /* \"LandRegistration.sol\":772:789  superAdminAddress */\n      0x00\n      dup1\n      sload\n      swap1\n      0x0100\n      exp\n      swap1\n      div\n      0xffffffffffffffffffffffffffffffffffffffff\n      and\n        /* \"LandRegistration.sol\":758:789  msg.sender == superAdminAddress */\n      0xffffffffffffffffffffffffffffffffffffffff\n      and\n        /* \"LandRegistration.sol\":758:768  msg.sender */\n      caller\n        /* \"LandRegistration.sol\":758:789  msg.sender == superAdminAddress */\n      0xffffffffffffffffffffffffffffffffffffffff\n      and\n      eq\n        /* \"LandRegistration.sol\":750:790  require(msg.sender == superAdminAddress) */\n      tag_90\n      jumpi\n      0x00\n      dup1\n      revert\n    tag_90:\n        /* \"LandRegistration.sol\":1616:1622  admins */\n      0x02\n        /* \"LandRegistration.sol\":1616:1636  admins[adminAddress] */\n      0x00\n        /* \"LandRegistration.sol\":1623:1635  adminAddress */\n      dup4\n        /* \"LandRegistration.sol\":1616:1636  admins[adminAddress] */\n      0xffffffffffffffffffffffffffffffffffffffff\n      and\n      0xffffffffffffffffffffffffffffffffffffffff\n      and\n      dup2\n      mstore\n      0x20\n      add\n      swap1\n      dup2\n      mstore\n      0x20\n      add\n      0x00\n      keccak256\n        /* \"LandRegistration.sol\":1609:1636  return admins[adminAddress] */\n      mload(0x40)\n      dup1\n      0xa0\n      add\n      0x40\n      mstore\n      swap1\n      dup2\n      0x00\n      dup3\n      add\n      dup1\n      sload\n      tag_92\n      swap1\n      tag_69\n      jump\t// in\n    tag_92:\n      dup1\n      0x1f\n      add\n      0x20\n      dup1\n      swap2\n      div\n      mul\n      0x20\n      add\n      mload(0x40)\n      swap1\n      dup2\n      add\n      0x40\n      mstore\n      dup1\n      swap3\n      swap2\n      swap1\n      dup2\n      dup2\n      mstore\n      0x20\n      add\n      dup3\n      dup1\n      sload\n      tag_93\n      swap1\n      tag_69\n      jump\t// in\n    tag_93:\n      dup1\n      iszero\n      tag_94\n      jumpi\n      dup1\n      0x1f\n      lt\n      tag_95\n      jumpi\n      0x0100\n      dup1\n      dup4\n      sload\n      div\n      mul\n      dup4\n      mstore\n      swap2\n      0x20\n      add\n      swap2\n      jump(tag_94)\n    tag_95:\n      dup3\n      add\n      swap2\n      swap1\n      0x00\n      mstore\n      keccak256(0x00, 0x20)\n      swap1\n    tag_96:\n      dup2\n      sload\n      dup2\n      mstore\n      swap1\n      0x01\n      add\n      swap1\n      0x20\n      add\n      dup1\n      dup4\n      gt\n      tag_96\n      jumpi\n      dup3\n      swap1\n      sub\n      0x1f\n      and\n      dup3\n      add\n      swap2\n    tag_94:\n      pop\n      pop\n      pop\n      pop\n      pop\n      dup2\n      mstore\n      0x20\n      add\n      0x01\n      dup3\n      add\n      dup1\n      sload\n      tag_97\n      swap1\n      tag_69\n      jump\t// in\n    tag_97:\n      dup1\n      0x1f\n      add\n      0x20\n      dup1\n      swap2\n      div\n      mul\n      0x20\n      add\n      mload(0x40)\n      swap1\n      dup2\n      add\n      0x40\n      mstore\n      dup1\n      swap3\n      swap2\n      swap1\n      dup2\n      dup2\n      mstore\n      0x20\n      add\n      dup3\n      dup1\n      sload\n      tag_98\n      swap1\n      tag_69\n      jump\t// in\n    tag_98:\n      dup1\n      iszero\n      tag_99\n      jumpi\n      dup1\n      0x1f\n      lt\n      tag_100\n      jumpi\n      0x0100\n      dup1\n      dup4\n      sload\n      div\n      mul\n      dup4\n      mstore\n      swap2\n      0x20\n      add\n      swap2\n      jump(tag_99)\n    tag_100:\n      dup3\n      add\n      swap2\n      swap1\n      0x00\n      mstore\n      keccak256(0x00, 0x20)\n      swap1\n    tag_101:\n      dup2\n      sload\n      dup2\n      mstore\n      swap1\n      0x01\n      add\n      swap1\n      0x20\n      add\n      dup1\n      dup4\n      gt\n      tag_101\n      jumpi\n      dup3\n      swap1\n      sub\n      0x1f\n      and\n      dup3\n      add\n      swap2\n    tag_99:\n      pop\n      pop\n      pop\n      pop\n      pop\n      dup2\n      mstore\n      0x20\n      add\n      0x02\n      dup3\n      add\n      0x00\n      swap1\n      sload\n      swap1\n      0x0100\n      exp\n      swap1\n      div\n      0xffffffffffffffffffffffffffffffffffffffff\n      and\n      0xffffffffffffffffffffffffffffffffffffffff\n      and\n      0xffffffffffffffffffffffffffffffffffffffff\n      and\n      dup2\n      mstore\n      0x20\n      add\n      0x03\n      dup3\n      add\n      dup1\n      sload\n      tag_102\n      swap1\n      tag_69\n      jump\t// in\n    tag_102:\n      dup1\n      0x1f\n      add\n      0x20\n      dup1\n      swap2\n      div\n      mul\n      0x20\n      add\n      mload(0x40)\n      swap1\n      dup2\n      add\n      0x40\n      mstore\n      dup1\n      swap3\n      swap2\n      swap1\n      dup2\n      dup2\n      mstore\n      0x20\n      add\n      dup3\n      dup1\n      sload\n      tag_103\n      swap1\n      tag_69\n      jump\t// in\n    tag_103:\n      dup1\n      iszero\n      tag_104\n      jumpi\n      dup1\n      0x1f\n      lt\n      tag_105\n      jumpi\n      0x0100\n      dup1\n      dup4\n      sload\n      div\n      mul\n      dup4\n      mstore\n      swap2\n      0x20\n      add\n      swap2\n      jump(tag_104)\n    tag_105:\n      dup3\n      add\n      swap2\n      swap1\n      0x00\n      mstore\n      keccak256(0x00, 0x20)\n      swap1\n    tag_106:\n      dup2\n      sload\n      dup2\n      mstore\n      swap1\n      0x01\n      add\n      swap1\n      0x20\n      add\n      dup1\n      dup4\n      gt\n      tag_106\n      jumpi\n      dup3\n      swap1\n      sub\n      0x1f\n      and\n      dup3\n      add\n      swap2\n    tag_104:\n      pop\n      pop\n      pop\n      pop\n      pop\n      dup2\n      mstore\n      0x20\n      add\n      0x04\n      dup3\n      add\n      0x00\n      swap1\n      sload\n      swap1\n      0x0100\n      exp\n      swap1\n      div\n      0xff\n      and\n      iszero\n      iszero\n      iszero\n      iszero\n      dup2\n      mstore\n      pop\n      pop\n      swap1\n      pop\n        /* \"LandRegistration.sol\":1504:1643  function getAdmin(address adminAddress) public view restrictToSuperAdmin returns(Admin memory) {... */\n      swap2\n      swap1\n      pop\n      jump\t// out\n        /* \"LandRegistration.sol\":955:1498  function addAdmin(string memory firstName, string memory lastName, string memory county, address adminAddress) public restrictToSuperAdmin {... */\n    tag_50:\n        /* \"LandRegistration.sol\":772:789  superAdminAddress */\n      0x00\n      dup1\n      sload\n      swap1\n      0x0100\n      exp\n      swap1\n      div\n      0xffffffffffffffffffffffffffffffffffffffff\n      and\n        /* \"LandRegistration.sol\":758:789  msg.sender == superAdminAddress */\n      0xffffffffffffffffffffffffffffffffffffffff\n      and\n        /* \"LandRegistration.sol\":758:768  msg.sender */\n      caller\n        /* \"LandRegistration.sol\":758:789  msg.sender == superAdminAddress */\n      0xffffffffffffffffffffffffffffffffffffffff\n      and\n      eq\n        /* \"LandRegistration.sol\":750:790  require(msg.sender == superAdminAddress) */\n      tag_108\n      jumpi\n      0x00\n      dup1\n      revert\n    tag_108:\n        /* \"LandRegistration.sol\":1108:1146  equal(admins[adminAddress].county, \"\") */\n      tag_110\n        /* \"LandRegistration.sol\":1114:1120  admins */\n      0x02\n        /* \"LandRegistration.sol\":1114:1134  admins[adminAddress] */\n      0x00\n        /* \"LandRegistration.sol\":1121:1133  adminAddress */\n      dup4\n        /* \"LandRegistration.sol\":1114:1134  admins[adminAddress] */\n      0xffffffffffffffffffffffffffffffffffffffff\n      and\n      0xffffffffffffffffffffffffffffffffffffffff\n      and\n      dup2\n      mstore\n      0x20\n      add\n      swap1\n      dup2\n      mstore\n      0x20\n      add\n      0x00\n      keccak256\n        /* \"LandRegistration.sol\":1114:1141  admins[adminAddress].county */\n      0x03\n      add\n        /* \"LandRegistration.sol\":1108:1146  equal(admins[adminAddress].county, \"\") */\n      dup1\n      sload\n      tag_111\n      swap1\n      tag_69\n      jump\t// in\n    tag_111:\n      dup1\n      0x1f\n      add\n      0x20\n      dup1\n      swap2\n      div\n      mul\n      0x20\n      add\n      mload(0x40)\n      swap1\n      dup2\n      add\n      0x40\n      mstore\n      dup1\n      swap3\n      swap2\n      swap1\n      dup2\n      dup2\n      mstore\n      0x20\n      add\n      dup3\n      dup1\n      sload\n      tag_112\n      swap1\n      tag_69\n      jump\t// in\n    tag_112:\n      dup1\n      iszero\n      tag_113\n      jumpi\n      dup1\n      0x1f\n      lt\n      tag_114\n      jumpi\n      0x0100\n      dup1\n      dup4\n      sload\n      div\n      mul\n      dup4\n      mstore\n      swap2\n      0x20\n      add\n      swap2\n      jump(tag_113)\n    tag_114:\n      dup3\n      add\n      swap2\n      swap1\n      0x00\n      mstore\n      keccak256(0x00, 0x20)\n      swap1\n    tag_115:\n      dup2\n      sload\n      dup2\n      mstore\n      swap1\n      0x01\n      add\n      swap1\n      0x20\n      add\n      dup1\n      dup4\n      gt\n      tag_115\n      jumpi\n      dup3\n      swap1\n      sub\n      0x1f\n      and\n      dup3\n      add\n      swap2\n    tag_113:\n      pop\n      pop\n      pop\n      pop\n      pop\n      mload(0x40)\n      dup1\n      0x20\n      add\n      0x40\n      mstore\n      dup1\n      0x00\n      dup2\n      mstore\n      pop\n        /* \"LandRegistration.sol\":1108:1113  equal */\n      tag_116\n        /* \"LandRegistration.sol\":1108:1146  equal(admins[adminAddress].county, \"\") */\n      jump\t// in\n    tag_110:\n        /* \"LandRegistration.sol\":1104:1194  if (equal(admins[adminAddress].county, \"\")) {... */\n      iszero\n      tag_117\n      jumpi\n        /* \"LandRegistration.sol\":1162:1170  counties */\n      0x03\n        /* \"LandRegistration.sol\":1176:1182  county */\n      dup3\n        /* \"LandRegistration.sol\":1162:1183  counties.push(county) */\n      swap1\n      dup1\n      0x01\n      dup2\n      sload\n      add\n      dup1\n      dup3\n      sstore\n      dup1\n      swap2\n      pop\n      pop\n      0x01\n      swap1\n      sub\n      swap1\n      0x00\n      mstore\n      keccak256(0x00, 0x20)\n      add\n      0x00\n      swap1\n      swap2\n      swap1\n      swap2\n      swap1\n      swap2\n      pop\n      swap1\n      dup1\n      mload\n      swap1\n      0x20\n      add\n      swap1\n      tag_119\n      swap3\n      swap2\n      swap1\n      tag_60\n      jump\t// in\n    tag_119:\n      pop\n        /* \"LandRegistration.sol\":1104:1194  if (equal(admins[adminAddress].county, \"\")) {... */\n    tag_117:\n        /* \"LandRegistration.sol\":1203:1225  Admin storage newAdmin */\n      0x00\n        /* \"LandRegistration.sol\":1228:1234  admins */\n      0x02\n        /* \"LandRegistration.sol\":1228:1248  admins[adminAddress] */\n      0x00\n        /* \"LandRegistration.sol\":1235:1247  adminAddress */\n      dup4\n        /* \"LandRegistration.sol\":1228:1248  admins[adminAddress] */\n      0xffffffffffffffffffffffffffffffffffffffff\n      and\n      0xffffffffffffffffffffffffffffffffffffffff\n      and\n      dup2\n      mstore\n      0x20\n      add\n      swap1\n      dup2\n      mstore\n      0x20\n      add\n      0x00\n      keccak256\n        /* \"LandRegistration.sol\":1203:1248  Admin storage newAdmin = admins[adminAddress] */\n      swap1\n      pop\n        /* \"LandRegistration.sol\":1279:1288  firstName */\n      dup5\n        /* \"LandRegistration.sol\":1258:1266  newAdmin */\n      dup2\n        /* \"LandRegistration.sol\":1258:1276  newAdmin.firstName */\n      0x00\n      add\n        /* \"LandRegistration.sol\":1258:1288  newAdmin.firstName = firstName */\n      swap1\n      dup1\n      mload\n      swap1\n      0x20\n      add\n      swap1\n      tag_120\n      swap3\n      swap2\n      swap1\n      tag_60\n      jump\t// in\n    tag_120:\n      pop\n        /* \"LandRegistration.sol\":1318:1326  lastName */\n      dup4\n        /* \"LandRegistration.sol\":1298:1306  newAdmin */\n      dup2\n        /* \"LandRegistration.sol\":1298:1315  newAdmin.lastName */\n      0x01\n      add\n        /* \"LandRegistration.sol\":1298:1326  newAdmin.lastName = lastName */\n      swap1\n      dup1\n      mload\n      swap1\n      0x20\n      add\n      swap1\n      tag_121\n      swap3\n      swap2\n      swap1\n      tag_60\n      jump\t// in\n    tag_121:\n      pop\n        /* \"LandRegistration.sol\":1360:1372  adminAddress */\n      dup2\n        /* \"LandRegistration.sol\":1336:1344  newAdmin */\n      dup2\n        /* \"LandRegistration.sol\":1336:1357  newAdmin.adminAddress */\n      0x02\n      add\n      0x00\n        /* \"LandRegistration.sol\":1336:1372  newAdmin.adminAddress = adminAddress */\n      0x0100\n      exp\n      dup2\n      sload\n      dup2\n      0xffffffffffffffffffffffffffffffffffffffff\n      mul\n      not\n      and\n      swap1\n      dup4\n      0xffffffffffffffffffffffffffffffffffffffff\n      and\n      mul\n      or\n      swap1\n      sstore\n      pop\n        /* \"LandRegistration.sol\":1400:1406  county */\n      dup3\n        /* \"LandRegistration.sol\":1382:1390  newAdmin */\n      dup2\n        /* \"LandRegistration.sol\":1382:1397  newAdmin.county */\n      0x03\n      add\n        /* \"LandRegistration.sol\":1382:1406  newAdmin.county = county */\n      swap1\n      dup1\n      mload\n      swap1\n      0x20\n      add\n      swap1\n      tag_122\n      swap3\n      swap2\n      swap1\n      tag_60\n      jump\t// in\n    tag_122:\n      pop\n        /* \"LandRegistration.sol\":1434:1438  true */\n      0x01\n        /* \"LandRegistration.sol\":1416:1424  newAdmin */\n      dup2\n        /* \"LandRegistration.sol\":1416:1431  newAdmin.active */\n      0x04\n      add\n      0x00\n        /* \"LandRegistration.sol\":1416:1438  newAdmin.active = true */\n      0x0100\n      exp\n      dup2\n      sload\n      dup2\n      0xff\n      mul\n      not\n      and\n      swap1\n      dup4\n      iszero\n      iszero\n      mul\n      or\n      swap1\n      sstore\n      pop\n        /* \"LandRegistration.sol\":1449:1463  adminsAdresses */\n      0x04\n        /* \"LandRegistration.sol\":1477:1489  adminAddress */\n      dup3\n        /* \"LandRegistration.sol\":1449:1491  adminsAdresses.push(address(adminAddress)) */\n      swap1\n      dup1\n      0x01\n      dup2\n      sload\n      add\n      dup1\n      dup3\n      sstore\n      dup1\n      swap2\n      pop\n      pop\n      0x01\n      swap1\n      sub\n      swap1\n      0x00\n      mstore\n      keccak256(0x00, 0x20)\n      add\n      0x00\n      swap1\n      swap2\n      swap1\n      swap2\n      swap1\n      swap2\n      0x0100\n      exp\n      dup2\n      sload\n      dup2\n      0xffffffffffffffffffffffffffffffffffffffff\n      mul\n      not\n      and\n      swap1\n      dup4\n      0xffffffffffffffffffffffffffffffffffffffff\n      and\n      mul\n      or\n      swap1\n      sstore\n      pop\n        /* \"LandRegistration.sol\":1094:1498  {... */\n      pop\n        /* \"LandRegistration.sol\":955:1498  function addAdmin(string memory firstName, string memory lastName, string memory county, address adminAddress) public restrictToSuperAdmin {... */\n      pop\n      pop\n      pop\n      pop\n      jump\t// out\n        /* \"LandRegistration.sol\":1653:1780  function deactivateAdmin(address adminAddress) public restrictToSuperAdmin {... */\n    tag_53:\n        /* \"LandRegistration.sol\":772:789  superAdminAddress */\n      0x00\n      dup1\n      sload\n      swap1\n      0x0100\n      exp\n      swap1\n      div\n      0xffffffffffffffffffffffffffffffffffffffff\n      and\n        /* \"LandRegistration.sol\":758:789  msg.sender == superAdminAddress */\n      0xffffffffffffffffffffffffffffffffffffffff\n      and\n        /* \"LandRegistration.sol\":758:768  msg.sender */\n      caller\n        /* \"LandRegistration.sol\":758:789  msg.sender == superAdminAddress */\n      0xffffffffffffffffffffffffffffffffffffffff\n      and\n      eq\n        /* \"LandRegistration.sol\":750:790  require(msg.sender == superAdminAddress) */\n      tag_125\n      jumpi\n      0x00\n      dup1\n      revert\n    tag_125:\n        /* \"LandRegistration.sol\":1768:1773  false */\n      0x00\n        /* \"LandRegistration.sol\":1738:1744  admins */\n      0x02\n        /* \"LandRegistration.sol\":1738:1758  admins[adminAddress] */\n      0x00\n        /* \"LandRegistration.sol\":1745:1757  adminAddress */\n      dup4\n        /* \"LandRegistration.sol\":1738:1758  admins[adminAddress] */\n      0xffffffffffffffffffffffffffffffffffffffff\n      and\n      0xffffffffffffffffffffffffffffffffffffffff\n      and\n      dup2\n      mstore\n      0x20\n      add\n      swap1\n      dup2\n      mstore\n      0x20\n      add\n      0x00\n      keccak256\n        /* \"LandRegistration.sol\":1738:1765  admins[adminAddress].active */\n      0x04\n      add\n      0x00\n        /* \"LandRegistration.sol\":1738:1773  admins[adminAddress].active = false */\n      0x0100\n      exp\n      dup2\n      sload\n      dup2\n      0xff\n      mul\n      not\n      and\n      swap1\n      dup4\n      iszero\n      iszero\n      mul\n      or\n      swap1\n      sstore\n      pop\n        /* \"LandRegistration.sol\":1653:1780  function deactivateAdmin(address adminAddress) public restrictToSuperAdmin {... */\n      pop\n      jump\t// out\n        /* \"LandRegistration.sol\":558:700  function equal(string memory a, string memory b) private pure returns(bool) {... */\n    tag_116:\n        /* \"LandRegistration.sol\":628:632  bool */\n      0x00\n        /* \"LandRegistration.sol\":690:691  b */\n      dup2\n        /* \"LandRegistration.sol\":674:693  keccak256(bytes(b)) */\n      dup1\n      mload\n      swap1\n      0x20\n      add\n      keccak256\n        /* \"LandRegistration.sol\":667:668  a */\n      dup4\n        /* \"LandRegistration.sol\":651:670  keccak256(bytes(a)) */\n      dup1\n      mload\n      swap1\n      0x20\n      add\n      keccak256\n        /* \"LandRegistration.sol\":651:693  keccak256(bytes(a)) == keccak256(bytes(b)) */\n      eq\n        /* \"LandRegistration.sol\":644:693  return keccak256(bytes(a)) == keccak256(bytes(b)) */\n      swap1\n      pop\n        /* \"LandRegistration.sol\":558:700  function equal(string memory a, string memory b) private pure returns(bool) {... */\n      swap3\n      swap2\n      pop\n      pop\n      jump\t// out\n    tag_60:\n      dup3\n      dup1\n      sload\n      tag_128\n      swap1\n      tag_69\n      jump\t// in\n    tag_128:\n      swap1\n      0x00\n      mstore\n      keccak256(0x00, 0x20)\n      swap1\n      0x1f\n      add\n      0x20\n      swap1\n      div\n      dup2\n      add\n      swap3\n      dup3\n      tag_130\n      jumpi\n      0x00\n      dup6\n      sstore\n      jump(tag_129)\n    tag_130:\n      dup3\n      0x1f\n      lt\n      tag_131\n      jumpi\n      dup1\n      mload\n      not(0xff)\n      and\n      dup4\n      dup1\n      add\n      or\n      dup6\n      sstore\n      jump(tag_129)\n    tag_131:\n      dup3\n      dup1\n      add\n      0x01\n      add\n      dup6\n      sstore\n      dup3\n      iszero\n      tag_129\n      jumpi\n      swap2\n      dup3\n      add\n    tag_132:\n      dup3\n      dup2\n      gt\n      iszero\n      tag_133\n      jumpi\n      dup3\n      mload\n      dup3\n      sstore\n      swap2\n      0x20\n      add\n      swap2\n      swap1\n      0x01\n      add\n      swap1\n      jump(tag_132)\n    tag_133:\n    tag_129:\n      pop\n      swap1\n      pop\n      tag_134\n      swap2\n      swap1\n      tag_135\n      jump\t// in\n    tag_134:\n      pop\n      swap1\n      jump\t// out\n    tag_88:\n      mload(0x40)\n      dup1\n      0xa0\n      add\n      0x40\n      mstore\n      dup1\n      0x60\n      dup2\n      mstore\n      0x20\n      add\n      0x60\n      dup2\n      mstore\n      0x20\n      add\n      and(0xffffffffffffffffffffffffffffffffffffffff, 0x00)\n      dup2\n      mstore\n      0x20\n      add\n      0x60\n      dup2\n      mstore\n      0x20\n      add\n      iszero(iszero(0x00))\n      dup2\n      mstore\n      pop\n      swap1\n      jump\t// out\n    tag_135:\n    tag_136:\n      dup1\n      dup3\n      gt\n      iszero\n      tag_137\n      jumpi\n      0x00\n      dup2\n      0x00\n      swap1\n      sstore\n      pop\n      0x01\n      add\n      jump(tag_136)\n    tag_137:\n      pop\n      swap1\n      jump\t// out\n        /* \"#utility.yul\":7:133   */\n    tag_138:\n        /* \"#utility.yul\":44:51   */\n      0x00\n        /* \"#utility.yul\":84:126   */\n      0xffffffffffffffffffffffffffffffffffffffff\n        /* \"#utility.yul\":77:82   */\n      dup3\n        /* \"#utility.yul\":73:127   */\n      and\n        /* \"#utility.yul\":62:127   */\n      swap1\n      pop\n        /* \"#utility.yul\":7:133   */\n      swap2\n      swap1\n      pop\n      jump\t// out\n        /* \"#utility.yul\":139:235   */\n    tag_139:\n        /* \"#utility.yul\":176:183   */\n      0x00\n        /* \"#utility.yul\":205:229   */\n      tag_179\n        /* \"#utility.yul\":223:228   */\n      dup3\n        /* \"#utility.yul\":205:229   */\n      tag_138\n      jump\t// in\n    tag_179:\n        /* \"#utility.yul\":194:229   */\n      swap1\n      pop\n        /* \"#utility.yul\":139:235   */\n      swap2\n      swap1\n      pop\n      jump\t// out\n        /* \"#utility.yul\":241:359   */\n    tag_140:\n        /* \"#utility.yul\":328:352   */\n      tag_181\n        /* \"#utility.yul\":346:351   */\n      dup2\n        /* \"#utility.yul\":328:352   */\n      tag_139\n      jump\t// in\n    tag_181:\n        /* \"#utility.yul\":323:326   */\n      dup3\n        /* \"#utility.yul\":316:353   */\n      mstore\n        /* \"#utility.yul\":241:359   */\n      pop\n      pop\n      jump\t// out\n        /* \"#utility.yul\":365:587   */\n    tag_17:\n        /* \"#utility.yul\":458:462   */\n      0x00\n        /* \"#utility.yul\":496:498   */\n      0x20\n        /* \"#utility.yul\":485:494   */\n      dup3\n        /* \"#utility.yul\":481:499   */\n      add\n        /* \"#utility.yul\":473:499   */\n      swap1\n      pop\n        /* \"#utility.yul\":509:580   */\n      tag_183\n        /* \"#utility.yul\":577:578   */\n      0x00\n        /* \"#utility.yul\":566:575   */\n      dup4\n        /* \"#utility.yul\":562:579   */\n      add\n        /* \"#utility.yul\":553:559   */\n      dup5\n        /* \"#utility.yul\":509:580   */\n      tag_140\n      jump\t// in\n    tag_183:\n        /* \"#utility.yul\":365:587   */\n      swap3\n      swap2\n      pop\n      pop\n      jump\t// out\n        /* \"#utility.yul\":593:668   */\n    tag_141:\n        /* \"#utility.yul\":626:632   */\n      0x00\n        /* \"#utility.yul\":659:661   */\n      0x40\n        /* \"#utility.yul\":653:662   */\n      mload\n        /* \"#utility.yul\":643:662   */\n      swap1\n      pop\n        /* \"#utility.yul\":593:668   */\n      swap1\n      jump\t// out\n        /* \"#utility.yul\":674:791   */\n    tag_142:\n        /* \"#utility.yul\":783:784   */\n      0x00\n        /* \"#utility.yul\":780:781   */\n      dup1\n        /* \"#utility.yul\":773:785   */\n      revert\n        /* \"#utility.yul\":797:914   */\n    tag_143:\n        /* \"#utility.yul\":906:907   */\n      0x00\n        /* \"#utility.yul\":903:904   */\n      dup1\n        /* \"#utility.yul\":896:908   */\n      revert\n        /* \"#utility.yul\":920:997   */\n    tag_144:\n        /* \"#utility.yul\":957:964   */\n      0x00\n        /* \"#utility.yul\":986:991   */\n      dup2\n        /* \"#utility.yul\":975:991   */\n      swap1\n      pop\n        /* \"#utility.yul\":920:997   */\n      swap2\n      swap1\n      pop\n      jump\t// out\n        /* \"#utility.yul\":1003:1125   */\n    tag_145:\n        /* \"#utility.yul\":1076:1100   */\n      tag_189\n        /* \"#utility.yul\":1094:1099   */\n      dup2\n        /* \"#utility.yul\":1076:1100   */\n      tag_144\n      jump\t// in\n    tag_189:\n        /* \"#utility.yul\":1069:1074   */\n      dup2\n        /* \"#utility.yul\":1066:1101   */\n      eq\n        /* \"#utility.yul\":1056:1119   */\n      tag_190\n      jumpi\n        /* \"#utility.yul\":1115:1116   */\n      0x00\n        /* \"#utility.yul\":1112:1113   */\n      dup1\n        /* \"#utility.yul\":1105:1117   */\n      revert\n        /* \"#utility.yul\":1056:1119   */\n    tag_190:\n        /* \"#utility.yul\":1003:1125   */\n      pop\n      jump\t// out\n        /* \"#utility.yul\":1131:1270   */\n    tag_146:\n        /* \"#utility.yul\":1177:1182   */\n      0x00\n        /* \"#utility.yul\":1215:1221   */\n      dup2\n        /* \"#utility.yul\":1202:1222   */\n      calldataload\n        /* \"#utility.yul\":1193:1222   */\n      swap1\n      pop\n        /* \"#utility.yul\":1231:1264   */\n      tag_192\n        /* \"#utility.yul\":1258:1263   */\n      dup2\n        /* \"#utility.yul\":1231:1264   */\n      tag_145\n      jump\t// in\n    tag_192:\n        /* \"#utility.yul\":1131:1270   */\n      swap3\n      swap2\n      pop\n      pop\n      jump\t// out\n        /* \"#utility.yul\":1276:1605   */\n    tag_20:\n        /* \"#utility.yul\":1335:1341   */\n      0x00\n        /* \"#utility.yul\":1384:1386   */\n      0x20\n        /* \"#utility.yul\":1372:1381   */\n      dup3\n        /* \"#utility.yul\":1363:1370   */\n      dup5\n        /* \"#utility.yul\":1359:1382   */\n      sub\n        /* \"#utility.yul\":1355:1387   */\n      slt\n        /* \"#utility.yul\":1352:1471   */\n      iszero\n      tag_194\n      jumpi\n        /* \"#utility.yul\":1390:1469   */\n      tag_195\n      tag_142\n      jump\t// in\n    tag_195:\n        /* \"#utility.yul\":1352:1471   */\n    tag_194:\n        /* \"#utility.yul\":1510:1511   */\n      0x00\n        /* \"#utility.yul\":1535:1588   */\n      tag_196\n        /* \"#utility.yul\":1580:1587   */\n      dup5\n        /* \"#utility.yul\":1571:1577   */\n      dup3\n        /* \"#utility.yul\":1560:1569   */\n      dup6\n        /* \"#utility.yul\":1556:1578   */\n      add\n        /* \"#utility.yul\":1535:1588   */\n      tag_146\n      jump\t// in\n    tag_196:\n        /* \"#utility.yul\":1525:1588   */\n      swap2\n      pop\n        /* \"#utility.yul\":1481:1598   */\n      pop\n        /* \"#utility.yul\":1276:1605   */\n      swap3\n      swap2\n      pop\n      pop\n      jump\t// out\n        /* \"#utility.yul\":1611:1728   */\n    tag_147:\n        /* \"#utility.yul\":1720:1721   */\n      0x00\n        /* \"#utility.yul\":1717:1718   */\n      dup1\n        /* \"#utility.yul\":1710:1722   */\n      revert\n        /* \"#utility.yul\":1734:1851   */\n    tag_148:\n        /* \"#utility.yul\":1843:1844   */\n      0x00\n        /* \"#utility.yul\":1840:1841   */\n      dup1\n        /* \"#utility.yul\":1833:1845   */\n      revert\n        /* \"#utility.yul\":1857:1959   */\n    tag_149:\n        /* \"#utility.yul\":1898:1904   */\n      0x00\n        /* \"#utility.yul\":1949:1951   */\n      0x1f\n        /* \"#utility.yul\":1945:1952   */\n      not\n        /* \"#utility.yul\":1940:1942   */\n      0x1f\n        /* \"#utility.yul\":1933:1938   */\n      dup4\n        /* \"#utility.yul\":1929:1943   */\n      add\n        /* \"#utility.yul\":1925:1953   */\n      and\n        /* \"#utility.yul\":1915:1953   */\n      swap1\n      pop\n        /* \"#utility.yul\":1857:1959   */\n      swap2\n      swap1\n      pop\n      jump\t// out\n        /* \"#utility.yul\":1965:2145   */\n    tag_150:\n        /* \"#utility.yul\":2013:2090   */\n      0x4e487b7100000000000000000000000000000000000000000000000000000000\n        /* \"#utility.yul\":2010:2011   */\n      0x00\n        /* \"#utility.yul\":2003:2091   */\n      mstore\n        /* \"#utility.yul\":2110:2114   */\n      0x41\n        /* \"#utility.yul\":2107:2108   */\n      0x04\n        /* \"#utility.yul\":2100:2115   */\n      mstore\n        /* \"#utility.yul\":2134:2138   */\n      0x24\n        /* \"#utility.yul\":2131:2132   */\n      0x00\n        /* \"#utility.yul\":2124:2139   */\n      revert\n        /* \"#utility.yul\":2151:2432   */\n    tag_151:\n        /* \"#utility.yul\":2234:2261   */\n      tag_202\n        /* \"#utility.yul\":2256:2260   */\n      dup3\n        /* \"#utility.yul\":2234:2261   */\n      tag_149\n      jump\t// in\n    tag_202:\n        /* \"#utility.yul\":2226:2232   */\n      dup2\n        /* \"#utility.yul\":2222:2262   */\n      add\n        /* \"#utility.yul\":2364:2370   */\n      dup2\n        /* \"#utility.yul\":2352:2362   */\n      dup2\n        /* \"#utility.yul\":2349:2371   */\n      lt\n        /* \"#utility.yul\":2328:2346   */\n      0xffffffffffffffff\n        /* \"#utility.yul\":2316:2326   */\n      dup3\n        /* \"#utility.yul\":2313:2347   */\n      gt\n        /* \"#utility.yul\":2310:2372   */\n      or\n        /* \"#utility.yul\":2307:2395   */\n      iszero\n      tag_203\n      jumpi\n        /* \"#utility.yul\":2375:2393   */\n      tag_204\n      tag_150\n      jump\t// in\n    tag_204:\n        /* \"#utility.yul\":2307:2395   */\n    tag_203:\n        /* \"#utility.yul\":2415:2425   */\n      dup1\n        /* \"#utility.yul\":2411:2413   */\n      0x40\n        /* \"#utility.yul\":2404:2426   */\n      mstore\n        /* \"#utility.yul\":2194:2432   */\n      pop\n        /* \"#utility.yul\":2151:2432   */\n      pop\n      pop\n      jump\t// out\n        /* \"#utility.yul\":2438:2567   */\n    tag_152:\n        /* \"#utility.yul\":2472:2478   */\n      0x00\n        /* \"#utility.yul\":2499:2519   */\n      tag_206\n      tag_141\n      jump\t// in\n    tag_206:\n        /* \"#utility.yul\":2489:2519   */\n      swap1\n      pop\n        /* \"#utility.yul\":2528:2561   */\n      tag_207\n        /* \"#utility.yul\":2556:2560   */\n      dup3\n        /* \"#utility.yul\":2548:2554   */\n      dup3\n        /* \"#utility.yul\":2528:2561   */\n      tag_151\n      jump\t// in\n    tag_207:\n        /* \"#utility.yul\":2438:2567   */\n      swap2\n      swap1\n      pop\n      jump\t// out\n        /* \"#utility.yul\":2573:2881   */\n    tag_153:\n        /* \"#utility.yul\":2635:2639   */\n      0x00\n        /* \"#utility.yul\":2725:2743   */\n      0xffffffffffffffff\n        /* \"#utility.yul\":2717:2723   */\n      dup3\n        /* \"#utility.yul\":2714:2744   */\n      gt\n        /* \"#utility.yul\":2711:2767   */\n      iszero\n      tag_209\n      jumpi\n        /* \"#utility.yul\":2747:2765   */\n      tag_210\n      tag_150\n      jump\t// in\n    tag_210:\n        /* \"#utility.yul\":2711:2767   */\n    tag_209:\n        /* \"#utility.yul\":2785:2814   */\n      tag_211\n        /* \"#utility.yul\":2807:2813   */\n      dup3\n        /* \"#utility.yul\":2785:2814   */\n      tag_149\n      jump\t// in\n    tag_211:\n        /* \"#utility.yul\":2777:2814   */\n      swap1\n      pop\n        /* \"#utility.yul\":2869:2873   */\n      0x20\n        /* \"#utility.yul\":2863:2867   */\n      dup2\n        /* \"#utility.yul\":2859:2874   */\n      add\n        /* \"#utility.yul\":2851:2874   */\n      swap1\n      pop\n        /* \"#utility.yul\":2573:2881   */\n      swap2\n      swap1\n      pop\n      jump\t// out\n        /* \"#utility.yul\":2887:3041   */\n    tag_154:\n        /* \"#utility.yul\":2971:2977   */\n      dup3\n        /* \"#utility.yul\":2966:2969   */\n      dup2\n        /* \"#utility.yul\":2961:2964   */\n      dup4\n        /* \"#utility.yul\":2948:2978   */\n      calldatacopy\n        /* \"#utility.yul\":3033:3034   */\n      0x00\n        /* \"#utility.yul\":3024:3030   */\n      dup4\n        /* \"#utility.yul\":3019:3022   */\n      dup4\n        /* \"#utility.yul\":3015:3031   */\n      add\n        /* \"#utility.yul\":3008:3035   */\n      mstore\n        /* \"#utility.yul\":2887:3041   */\n      pop\n      pop\n      pop\n      jump\t// out\n        /* \"#utility.yul\":3047:3459   */\n    tag_155:\n        /* \"#utility.yul\":3125:3130   */\n      0x00\n        /* \"#utility.yul\":3150:3216   */\n      tag_214\n        /* \"#utility.yul\":3166:3215   */\n      tag_215\n        /* \"#utility.yul\":3208:3214   */\n      dup5\n        /* \"#utility.yul\":3166:3215   */\n      tag_153\n      jump\t// in\n    tag_215:\n        /* \"#utility.yul\":3150:3216   */\n      tag_152\n      jump\t// in\n    tag_214:\n        /* \"#utility.yul\":3141:3216   */\n      swap1\n      pop\n        /* \"#utility.yul\":3239:3245   */\n      dup3\n        /* \"#utility.yul\":3232:3237   */\n      dup2\n        /* \"#utility.yul\":3225:3246   */\n      mstore\n        /* \"#utility.yul\":3277:3281   */\n      0x20\n        /* \"#utility.yul\":3270:3275   */\n      dup2\n        /* \"#utility.yul\":3266:3282   */\n      add\n        /* \"#utility.yul\":3315:3318   */\n      dup5\n        /* \"#utility.yul\":3306:3312   */\n      dup5\n        /* \"#utility.yul\":3301:3304   */\n      dup5\n        /* \"#utility.yul\":3297:3313   */\n      add\n        /* \"#utility.yul\":3294:3319   */\n      gt\n        /* \"#utility.yul\":3291:3403   */\n      iszero\n      tag_216\n      jumpi\n        /* \"#utility.yul\":3322:3401   */\n      tag_217\n      tag_148\n      jump\t// in\n    tag_217:\n        /* \"#utility.yul\":3291:3403   */\n    tag_216:\n        /* \"#utility.yul\":3412:3453   */\n      tag_218\n        /* \"#utility.yul\":3446:3452   */\n      dup5\n        /* \"#utility.yul\":3441:3444   */\n      dup3\n        /* \"#utility.yul\":3436:3439   */\n      dup6\n        /* \"#utility.yul\":3412:3453   */\n      tag_154\n      jump\t// in\n    tag_218:\n        /* \"#utility.yul\":3131:3459   */\n      pop\n        /* \"#utility.yul\":3047:3459   */\n      swap4\n      swap3\n      pop\n      pop\n      pop\n      jump\t// out\n        /* \"#utility.yul\":3479:3819   */\n    tag_156:\n        /* \"#utility.yul\":3535:3540   */\n      0x00\n        /* \"#utility.yul\":3584:3587   */\n      dup3\n        /* \"#utility.yul\":3577:3581   */\n      0x1f\n        /* \"#utility.yul\":3569:3575   */\n      dup4\n        /* \"#utility.yul\":3565:3582   */\n      add\n        /* \"#utility.yul\":3561:3588   */\n      slt\n        /* \"#utility.yul\":3551:3673   */\n      tag_220\n      jumpi\n        /* \"#utility.yul\":3592:3671   */\n      tag_221\n      tag_147\n      jump\t// in\n    tag_221:\n        /* \"#utility.yul\":3551:3673   */\n    tag_220:\n        /* \"#utility.yul\":3709:3715   */\n      dup2\n        /* \"#utility.yul\":3696:3716   */\n      calldataload\n        /* \"#utility.yul\":3734:3813   */\n      tag_222\n        /* \"#utility.yul\":3809:3812   */\n      dup5\n        /* \"#utility.yul\":3801:3807   */\n      dup3\n        /* \"#utility.yul\":3794:3798   */\n      0x20\n        /* \"#utility.yul\":3786:3792   */\n      dup7\n        /* \"#utility.yul\":3782:3799   */\n      add\n        /* \"#utility.yul\":3734:3813   */\n      tag_155\n      jump\t// in\n    tag_222:\n        /* \"#utility.yul\":3725:3813   */\n      swap2\n      pop\n        /* \"#utility.yul\":3541:3819   */\n      pop\n        /* \"#utility.yul\":3479:3819   */\n      swap3\n      swap2\n      pop\n      pop\n      jump\t// out\n        /* \"#utility.yul\":3825:3947   */\n    tag_157:\n        /* \"#utility.yul\":3898:3922   */\n      tag_224\n        /* \"#utility.yul\":3916:3921   */\n      dup2\n        /* \"#utility.yul\":3898:3922   */\n      tag_139\n      jump\t// in\n    tag_224:\n        /* \"#utility.yul\":3891:3896   */\n      dup2\n        /* \"#utility.yul\":3888:3923   */\n      eq\n        /* \"#utility.yul\":3878:3941   */\n      tag_225\n      jumpi\n        /* \"#utility.yul\":3937:3938   */\n      0x00\n        /* \"#utility.yul\":3934:3935   */\n      dup1\n        /* \"#utility.yul\":3927:3939   */\n      revert\n        /* \"#utility.yul\":3878:3941   */\n    tag_225:\n        /* \"#utility.yul\":3825:3947   */\n      pop\n      jump\t// out\n        /* \"#utility.yul\":3953:4092   */\n    tag_158:\n        /* \"#utility.yul\":3999:4004   */\n      0x00\n        /* \"#utility.yul\":4037:4043   */\n      dup2\n        /* \"#utility.yul\":4024:4044   */\n      calldataload\n        /* \"#utility.yul\":4015:4044   */\n      swap1\n      pop\n        /* \"#utility.yul\":4053:4086   */\n      tag_227\n        /* \"#utility.yul\":4080:4085   */\n      dup2\n        /* \"#utility.yul\":4053:4086   */\n      tag_157\n      jump\t// in\n    tag_227:\n        /* \"#utility.yul\":3953:4092   */\n      swap3\n      swap2\n      pop\n      pop\n      jump\t// out\n        /* \"#utility.yul\":4098:5403   */\n    tag_25:\n        /* \"#utility.yul\":4214:4220   */\n      0x00\n        /* \"#utility.yul\":4222:4228   */\n      dup1\n        /* \"#utility.yul\":4230:4236   */\n      0x00\n        /* \"#utility.yul\":4238:4244   */\n      dup1\n        /* \"#utility.yul\":4287:4290   */\n      0x80\n        /* \"#utility.yul\":4275:4284   */\n      dup6\n        /* \"#utility.yul\":4266:4273   */\n      dup8\n        /* \"#utility.yul\":4262:4285   */\n      sub\n        /* \"#utility.yul\":4258:4291   */\n      slt\n        /* \"#utility.yul\":4255:4375   */\n      iszero\n      tag_229\n      jumpi\n        /* \"#utility.yul\":4294:4373   */\n      tag_230\n      tag_142\n      jump\t// in\n    tag_230:\n        /* \"#utility.yul\":4255:4375   */\n    tag_229:\n        /* \"#utility.yul\":4442:4443   */\n      0x00\n        /* \"#utility.yul\":4431:4440   */\n      dup6\n        /* \"#utility.yul\":4427:4444   */\n      add\n        /* \"#utility.yul\":4414:4445   */\n      calldataload\n        /* \"#utility.yul\":4472:4490   */\n      0xffffffffffffffff\n        /* \"#utility.yul\":4464:4470   */\n      dup2\n        /* \"#utility.yul\":4461:4491   */\n      gt\n        /* \"#utility.yul\":4458:4575   */\n      iszero\n      tag_231\n      jumpi\n        /* \"#utility.yul\":4494:4573   */\n      tag_232\n      tag_143\n      jump\t// in\n    tag_232:\n        /* \"#utility.yul\":4458:4575   */\n    tag_231:\n        /* \"#utility.yul\":4599:4662   */\n      tag_233\n        /* \"#utility.yul\":4654:4661   */\n      dup8\n        /* \"#utility.yul\":4645:4651   */\n      dup3\n        /* \"#utility.yul\":4634:4643   */\n      dup9\n        /* \"#utility.yul\":4630:4652   */\n      add\n        /* \"#utility.yul\":4599:4662   */\n      tag_156\n      jump\t// in\n    tag_233:\n        /* \"#utility.yul\":4589:4662   */\n      swap5\n      pop\n        /* \"#utility.yul\":4385:4672   */\n      pop\n        /* \"#utility.yul\":4739:4741   */\n      0x20\n        /* \"#utility.yul\":4728:4737   */\n      dup6\n        /* \"#utility.yul\":4724:4742   */\n      add\n        /* \"#utility.yul\":4711:4743   */\n      calldataload\n        /* \"#utility.yul\":4770:4788   */\n      0xffffffffffffffff\n        /* \"#utility.yul\":4762:4768   */\n      dup2\n        /* \"#utility.yul\":4759:4789   */\n      gt\n        /* \"#utility.yul\":4756:4873   */\n      iszero\n      tag_234\n      jumpi\n        /* \"#utility.yul\":4792:4871   */\n      tag_235\n      tag_143\n      jump\t// in\n    tag_235:\n        /* \"#utility.yul\":4756:4873   */\n    tag_234:\n        /* \"#utility.yul\":4897:4960   */\n      tag_236\n        /* \"#utility.yul\":4952:4959   */\n      dup8\n        /* \"#utility.yul\":4943:4949   */\n      dup3\n        /* \"#utility.yul\":4932:4941   */\n      dup9\n        /* \"#utility.yul\":4928:4950   */\n      add\n        /* \"#utility.yul\":4897:4960   */\n      tag_156\n      jump\t// in\n    tag_236:\n        /* \"#utility.yul\":4887:4960   */\n      swap4\n      pop\n        /* \"#utility.yul\":4682:4970   */\n      pop\n        /* \"#utility.yul\":5037:5039   */\n      0x40\n        /* \"#utility.yul\":5026:5035   */\n      dup6\n        /* \"#utility.yul\":5022:5040   */\n      add\n        /* \"#utility.yul\":5009:5041   */\n      calldataload\n        /* \"#utility.yul\":5068:5086   */\n      0xffffffffffffffff\n        /* \"#utility.yul\":5060:5066   */\n      dup2\n        /* \"#utility.yul\":5057:5087   */\n      gt\n        /* \"#utility.yul\":5054:5171   */\n      iszero\n      tag_237\n      jumpi\n        /* \"#utility.yul\":5090:5169   */\n      tag_238\n      tag_143\n      jump\t// in\n    tag_238:\n        /* \"#utility.yul\":5054:5171   */\n    tag_237:\n        /* \"#utility.yul\":5195:5258   */\n      tag_239\n        /* \"#utility.yul\":5250:5257   */\n      dup8\n        /* \"#utility.yul\":5241:5247   */\n      dup3\n        /* \"#utility.yul\":5230:5239   */\n      dup9\n        /* \"#utility.yul\":5226:5248   */\n      add\n        /* \"#utility.yul\":5195:5258   */\n      tag_156\n      jump\t// in\n    tag_239:\n        /* \"#utility.yul\":5185:5258   */\n      swap3\n      pop\n        /* \"#utility.yul\":4980:5268   */\n      pop\n        /* \"#utility.yul\":5307:5309   */\n      0x60\n        /* \"#utility.yul\":5333:5386   */\n      tag_240\n        /* \"#utility.yul\":5378:5385   */\n      dup8\n        /* \"#utility.yul\":5369:5375   */\n      dup3\n        /* \"#utility.yul\":5358:5367   */\n      dup9\n        /* \"#utility.yul\":5354:5376   */\n      add\n        /* \"#utility.yul\":5333:5386   */\n      tag_158\n      jump\t// in\n    tag_240:\n        /* \"#utility.yul\":5323:5386   */\n      swap2\n      pop\n        /* \"#utility.yul\":5278:5396   */\n      pop\n        /* \"#utility.yul\":4098:5403   */\n      swap3\n      swap6\n      swap2\n      swap5\n      pop\n      swap3\n      pop\n      jump\t// out\n        /* \"#utility.yul\":5409:5738   */\n    tag_29:\n        /* \"#utility.yul\":5468:5474   */\n      0x00\n        /* \"#utility.yul\":5517:5519   */\n      0x20\n        /* \"#utility.yul\":5505:5514   */\n      dup3\n        /* \"#utility.yul\":5496:5503   */\n      dup5\n        /* \"#utility.yul\":5492:5515   */\n      sub\n        /* \"#utility.yul\":5488:5520   */\n      slt\n        /* \"#utility.yul\":5485:5604   */\n      iszero\n      tag_242\n      jumpi\n        /* \"#utility.yul\":5523:5602   */\n      tag_243\n      tag_142\n      jump\t// in\n    tag_243:\n        /* \"#utility.yul\":5485:5604   */\n    tag_242:\n        /* \"#utility.yul\":5643:5644   */\n      0x00\n        /* \"#utility.yul\":5668:5721   */\n      tag_244\n        /* \"#utility.yul\":5713:5720   */\n      dup5\n        /* \"#utility.yul\":5704:5710   */\n      dup3\n        /* \"#utility.yul\":5693:5702   */\n      dup6\n        /* \"#utility.yul\":5689:5711   */\n      add\n        /* \"#utility.yul\":5668:5721   */\n      tag_158\n      jump\t// in\n    tag_244:\n        /* \"#utility.yul\":5658:5721   */\n      swap2\n      pop\n        /* \"#utility.yul\":5614:5731   */\n      pop\n        /* \"#utility.yul\":5409:5738   */\n      swap3\n      swap2\n      pop\n      pop\n      jump\t// out\n        /* \"#utility.yul\":5744:5843   */\n    tag_159:\n        /* \"#utility.yul\":5796:5802   */\n      0x00\n        /* \"#utility.yul\":5830:5835   */\n      dup2\n        /* \"#utility.yul\":5824:5836   */\n      mload\n        /* \"#utility.yul\":5814:5836   */\n      swap1\n      pop\n        /* \"#utility.yul\":5744:5843   */\n      swap2\n      swap1\n      pop\n      jump\t// out\n        /* \"#utility.yul\":5849:6018   */\n    tag_160:\n        /* \"#utility.yul\":5933:5944   */\n      0x00\n        /* \"#utility.yul\":5967:5973   */\n      dup3\n        /* \"#utility.yul\":5962:5965   */\n      dup3\n        /* \"#utility.yul\":5955:5974   */\n      mstore\n        /* \"#utility.yul\":6007:6011   */\n      0x20\n        /* \"#utility.yul\":6002:6005   */\n      dup3\n        /* \"#utility.yul\":5998:6012   */\n      add\n        /* \"#utility.yul\":5983:6012   */\n      swap1\n      pop\n        /* \"#utility.yul\":5849:6018   */\n      swap3\n      swap2\n      pop\n      pop\n      jump\t// out\n        /* \"#utility.yul\":6024:6331   */\n    tag_161:\n        /* \"#utility.yul\":6092:6093   */\n      0x00\n        /* \"#utility.yul\":6102:6215   */\n    tag_248:\n        /* \"#utility.yul\":6116:6122   */\n      dup4\n        /* \"#utility.yul\":6113:6114   */\n      dup2\n        /* \"#utility.yul\":6110:6123   */\n      lt\n        /* \"#utility.yul\":6102:6215   */\n      iszero\n      tag_250\n      jumpi\n        /* \"#utility.yul\":6201:6202   */\n      dup1\n        /* \"#utility.yul\":6196:6199   */\n      dup3\n        /* \"#utility.yul\":6192:6203   */\n      add\n        /* \"#utility.yul\":6186:6204   */\n      mload\n        /* \"#utility.yul\":6182:6183   */\n      dup2\n        /* \"#utility.yul\":6177:6180   */\n      dup5\n        /* \"#utility.yul\":6173:6184   */\n      add\n        /* \"#utility.yul\":6166:6205   */\n      mstore\n        /* \"#utility.yul\":6138:6140   */\n      0x20\n        /* \"#utility.yul\":6135:6136   */\n      dup2\n        /* \"#utility.yul\":6131:6141   */\n      add\n        /* \"#utility.yul\":6126:6141   */\n      swap1\n      pop\n        /* \"#utility.yul\":6102:6215   */\n      jump(tag_248)\n    tag_250:\n        /* \"#utility.yul\":6233:6239   */\n      dup4\n        /* \"#utility.yul\":6230:6231   */\n      dup2\n        /* \"#utility.yul\":6227:6240   */\n      gt\n        /* \"#utility.yul\":6224:6325   */\n      iszero\n      tag_251\n      jumpi\n        /* \"#utility.yul\":6313:6314   */\n      0x00\n        /* \"#utility.yul\":6304:6310   */\n      dup5\n        /* \"#utility.yul\":6299:6302   */\n      dup5\n        /* \"#utility.yul\":6295:6311   */\n      add\n        /* \"#utility.yul\":6288:6315   */\n      mstore\n        /* \"#utility.yul\":6224:6325   */\n    tag_251:\n        /* \"#utility.yul\":6073:6331   */\n      pop\n        /* \"#utility.yul\":6024:6331   */\n      pop\n      pop\n      pop\n      jump\t// out\n        /* \"#utility.yul\":6337:6701   */\n    tag_162:\n        /* \"#utility.yul\":6425:6428   */\n      0x00\n        /* \"#utility.yul\":6453:6492   */\n      tag_253\n        /* \"#utility.yul\":6486:6491   */\n      dup3\n        /* \"#utility.yul\":6453:6492   */\n      tag_159\n      jump\t// in\n    tag_253:\n        /* \"#utility.yul\":6508:6579   */\n      tag_254\n        /* \"#utility.yul\":6572:6578   */\n      dup2\n        /* \"#utility.yul\":6567:6570   */\n      dup6\n        /* \"#utility.yul\":6508:6579   */\n      tag_160\n      jump\t// in\n    tag_254:\n        /* \"#utility.yul\":6501:6579   */\n      swap4\n      pop\n        /* \"#utility.yul\":6588:6640   */\n      tag_255\n        /* \"#utility.yul\":6633:6639   */\n      dup2\n        /* \"#utility.yul\":6628:6631   */\n      dup6\n        /* \"#utility.yul\":6621:6625   */\n      0x20\n        /* \"#utility.yul\":6614:6619   */\n      dup7\n        /* \"#utility.yul\":6610:6626   */\n      add\n        /* \"#utility.yul\":6588:6640   */\n      tag_161\n      jump\t// in\n    tag_255:\n        /* \"#utility.yul\":6665:6694   */\n      tag_256\n        /* \"#utility.yul\":6687:6693   */\n      dup2\n        /* \"#utility.yul\":6665:6694   */\n      tag_149\n      jump\t// in\n    tag_256:\n        /* \"#utility.yul\":6660:6663   */\n      dup5\n        /* \"#utility.yul\":6656:6695   */\n      add\n        /* \"#utility.yul\":6649:6695   */\n      swap2\n      pop\n        /* \"#utility.yul\":6429:6701   */\n      pop\n        /* \"#utility.yul\":6337:6701   */\n      swap3\n      swap2\n      pop\n      pop\n      jump\t// out\n        /* \"#utility.yul\":6707:7020   */\n    tag_35:\n        /* \"#utility.yul\":6820:6824   */\n      0x00\n        /* \"#utility.yul\":6858:6860   */\n      0x20\n        /* \"#utility.yul\":6847:6856   */\n      dup3\n        /* \"#utility.yul\":6843:6861   */\n      add\n        /* \"#utility.yul\":6835:6861   */\n      swap1\n      pop\n        /* \"#utility.yul\":6907:6916   */\n      dup2\n        /* \"#utility.yul\":6901:6905   */\n      dup2\n        /* \"#utility.yul\":6897:6917   */\n      sub\n        /* \"#utility.yul\":6893:6894   */\n      0x00\n        /* \"#utility.yul\":6882:6891   */\n      dup4\n        /* \"#utility.yul\":6878:6895   */\n      add\n        /* \"#utility.yul\":6871:6918   */\n      mstore\n        /* \"#utility.yul\":6935:7013   */\n      tag_258\n        /* \"#utility.yul\":7008:7012   */\n      dup2\n        /* \"#utility.yul\":6999:7005   */\n      dup5\n        /* \"#utility.yul\":6935:7013   */\n      tag_162\n      jump\t// in\n    tag_258:\n        /* \"#utility.yul\":6927:7013   */\n      swap1\n      pop\n        /* \"#utility.yul\":6707:7020   */\n      swap3\n      swap2\n      pop\n      pop\n      jump\t// out\n        /* \"#utility.yul\":7026:7140   */\n    tag_163:\n        /* \"#utility.yul\":7093:7099   */\n      0x00\n        /* \"#utility.yul\":7127:7132   */\n      dup2\n        /* \"#utility.yul\":7121:7133   */\n      mload\n        /* \"#utility.yul\":7111:7133   */\n      swap1\n      pop\n        /* \"#utility.yul\":7026:7140   */\n      swap2\n      swap1\n      pop\n      jump\t// out\n        /* \"#utility.yul\":7146:7330   */\n    tag_164:\n        /* \"#utility.yul\":7245:7256   */\n      0x00\n        /* \"#utility.yul\":7279:7285   */\n      dup3\n        /* \"#utility.yul\":7274:7277   */\n      dup3\n        /* \"#utility.yul\":7267:7286   */\n      mstore\n        /* \"#utility.yul\":7319:7323   */\n      0x20\n        /* \"#utility.yul\":7314:7317   */\n      dup3\n        /* \"#utility.yul\":7310:7324   */\n      add\n        /* \"#utility.yul\":7295:7324   */\n      swap1\n      pop\n        /* \"#utility.yul\":7146:7330   */\n      swap3\n      swap2\n      pop\n      pop\n      jump\t// out\n        /* \"#utility.yul\":7336:7468   */\n    tag_165:\n        /* \"#utility.yul\":7403:7407   */\n      0x00\n        /* \"#utility.yul\":7426:7429   */\n      dup2\n        /* \"#utility.yul\":7418:7429   */\n      swap1\n      pop\n        /* \"#utility.yul\":7456:7460   */\n      0x20\n        /* \"#utility.yul\":7451:7454   */\n      dup3\n        /* \"#utility.yul\":7447:7461   */\n      add\n        /* \"#utility.yul\":7439:7461   */\n      swap1\n      pop\n        /* \"#utility.yul\":7336:7468   */\n      swap2\n      swap1\n      pop\n      jump\t// out\n        /* \"#utility.yul\":7474:7582   */\n    tag_166:\n        /* \"#utility.yul\":7551:7575   */\n      tag_263\n        /* \"#utility.yul\":7569:7574   */\n      dup2\n        /* \"#utility.yul\":7551:7575   */\n      tag_139\n      jump\t// in\n    tag_263:\n        /* \"#utility.yul\":7546:7549   */\n      dup3\n        /* \"#utility.yul\":7539:7576   */\n      mstore\n        /* \"#utility.yul\":7474:7582   */\n      pop\n      pop\n      jump\t// out\n        /* \"#utility.yul\":7588:7767   */\n    tag_167:\n        /* \"#utility.yul\":7657:7667   */\n      0x00\n        /* \"#utility.yul\":7678:7724   */\n      tag_265\n        /* \"#utility.yul\":7720:7723   */\n      dup4\n        /* \"#utility.yul\":7712:7718   */\n      dup4\n        /* \"#utility.yul\":7678:7724   */\n      tag_166\n      jump\t// in\n    tag_265:\n        /* \"#utility.yul\":7756:7760   */\n      0x20\n        /* \"#utility.yul\":7751:7754   */\n      dup4\n        /* \"#utility.yul\":7747:7761   */\n      add\n        /* \"#utility.yul\":7733:7761   */\n      swap1\n      pop\n        /* \"#utility.yul\":7588:7767   */\n      swap3\n      swap2\n      pop\n      pop\n      jump\t// out\n        /* \"#utility.yul\":7773:7886   */\n    tag_168:\n        /* \"#utility.yul\":7843:7847   */\n      0x00\n        /* \"#utility.yul\":7875:7879   */\n      0x20\n        /* \"#utility.yul\":7870:7873   */\n      dup3\n        /* \"#utility.yul\":7866:7880   */\n      add\n        /* \"#utility.yul\":7858:7880   */\n      swap1\n      pop\n        /* \"#utility.yul\":7773:7886   */\n      swap2\n      swap1\n      pop\n      jump\t// out\n        /* \"#utility.yul\":7922:8654   */\n    tag_169:\n        /* \"#utility.yul\":8041:8044   */\n      0x00\n        /* \"#utility.yul\":8070:8124   */\n      tag_268\n        /* \"#utility.yul\":8118:8123   */\n      dup3\n        /* \"#utility.yul\":8070:8124   */\n      tag_163\n      jump\t// in\n    tag_268:\n        /* \"#utility.yul\":8140:8226   */\n      tag_269\n        /* \"#utility.yul\":8219:8225   */\n      dup2\n        /* \"#utility.yul\":8214:8217   */\n      dup6\n        /* \"#utility.yul\":8140:8226   */\n      tag_164\n      jump\t// in\n    tag_269:\n        /* \"#utility.yul\":8133:8226   */\n      swap4\n      pop\n        /* \"#utility.yul\":8250:8306   */\n      tag_270\n        /* \"#utility.yul\":8300:8305   */\n      dup4\n        /* \"#utility.yul\":8250:8306   */\n      tag_165\n      jump\t// in\n    tag_270:\n        /* \"#utility.yul\":8329:8336   */\n      dup1\n        /* \"#utility.yul\":8360:8361   */\n      0x00\n        /* \"#utility.yul\":8345:8629   */\n    tag_271:\n        /* \"#utility.yul\":8370:8376   */\n      dup4\n        /* \"#utility.yul\":8367:8368   */\n      dup2\n        /* \"#utility.yul\":8364:8377   */\n      lt\n        /* \"#utility.yul\":8345:8629   */\n      iszero\n      tag_273\n      jumpi\n        /* \"#utility.yul\":8446:8452   */\n      dup2\n        /* \"#utility.yul\":8440:8453   */\n      mload\n        /* \"#utility.yul\":8473:8536   */\n      tag_274\n        /* \"#utility.yul\":8532:8535   */\n      dup9\n        /* \"#utility.yul\":8517:8530   */\n      dup3\n        /* \"#utility.yul\":8473:8536   */\n      tag_167\n      jump\t// in\n    tag_274:\n        /* \"#utility.yul\":8466:8536   */\n      swap8\n      pop\n        /* \"#utility.yul\":8559:8619   */\n      tag_275\n        /* \"#utility.yul\":8612:8618   */\n      dup4\n        /* \"#utility.yul\":8559:8619   */\n      tag_168\n      jump\t// in\n    tag_275:\n        /* \"#utility.yul\":8549:8619   */\n      swap3\n      pop\n        /* \"#utility.yul\":8405:8629   */\n      pop\n        /* \"#utility.yul\":8392:8393   */\n      0x01\n        /* \"#utility.yul\":8389:8390   */\n      dup2\n        /* \"#utility.yul\":8385:8394   */\n      add\n        /* \"#utility.yul\":8380:8394   */\n      swap1\n      pop\n        /* \"#utility.yul\":8345:8629   */\n      jump(tag_271)\n    tag_273:\n        /* \"#utility.yul\":8349:8363   */\n      pop\n        /* \"#utility.yul\":8645:8648   */\n      dup6\n        /* \"#utility.yul\":8638:8648   */\n      swap4\n      pop\n        /* \"#utility.yul\":8046:8654   */\n      pop\n      pop\n      pop\n        /* \"#utility.yul\":7922:8654   */\n      swap3\n      swap2\n      pop\n      pop\n      jump\t// out\n        /* \"#utility.yul\":8660:9033   */\n    tag_42:\n        /* \"#utility.yul\":8803:8807   */\n      0x00\n        /* \"#utility.yul\":8841:8843   */\n      0x20\n        /* \"#utility.yul\":8830:8839   */\n      dup3\n        /* \"#utility.yul\":8826:8844   */\n      add\n        /* \"#utility.yul\":8818:8844   */\n      swap1\n      pop\n        /* \"#utility.yul\":8890:8899   */\n      dup2\n        /* \"#utility.yul\":8884:8888   */\n      dup2\n        /* \"#utility.yul\":8880:8900   */\n      sub\n        /* \"#utility.yul\":8876:8877   */\n      0x00\n        /* \"#utility.yul\":8865:8874   */\n      dup4\n        /* \"#utility.yul\":8861:8878   */\n      add\n        /* \"#utility.yul\":8854:8901   */\n      mstore\n        /* \"#utility.yul\":8918:9026   */\n      tag_277\n        /* \"#utility.yul\":9021:9025   */\n      dup2\n        /* \"#utility.yul\":9012:9018   */\n      dup5\n        /* \"#utility.yul\":8918:9026   */\n      tag_169\n      jump\t// in\n    tag_277:\n        /* \"#utility.yul\":8910:9026   */\n      swap1\n      pop\n        /* \"#utility.yul\":8660:9033   */\n      swap3\n      swap2\n      pop\n      pop\n      jump\t// out\n        /* \"#utility.yul\":9039:9198   */\n    tag_170:\n        /* \"#utility.yul\":9113:9124   */\n      0x00\n        /* \"#utility.yul\":9147:9153   */\n      dup3\n        /* \"#utility.yul\":9142:9145   */\n      dup3\n        /* \"#utility.yul\":9135:9154   */\n      mstore\n        /* \"#utility.yul\":9187:9191   */\n      0x20\n        /* \"#utility.yul\":9182:9185   */\n      dup3\n        /* \"#utility.yul\":9178:9192   */\n      add\n        /* \"#utility.yul\":9163:9192   */\n      swap1\n      pop\n        /* \"#utility.yul\":9039:9198   */\n      swap3\n      swap2\n      pop\n      pop\n      jump\t// out\n        /* \"#utility.yul\":9204:9548   */\n    tag_171:\n        /* \"#utility.yul\":9282:9285   */\n      0x00\n        /* \"#utility.yul\":9310:9349   */\n      tag_280\n        /* \"#utility.yul\":9343:9348   */\n      dup3\n        /* \"#utility.yul\":9310:9349   */\n      tag_159\n      jump\t// in\n    tag_280:\n        /* \"#utility.yul\":9365:9426   */\n      tag_281\n        /* \"#utility.yul\":9419:9425   */\n      dup2\n        /* \"#utility.yul\":9414:9417   */\n      dup6\n        /* \"#utility.yul\":9365:9426   */\n      tag_170\n      jump\t// in\n    tag_281:\n        /* \"#utility.yul\":9358:9426   */\n      swap4\n      pop\n        /* \"#utility.yul\":9435:9487   */\n      tag_282\n        /* \"#utility.yul\":9480:9486   */\n      dup2\n        /* \"#utility.yul\":9475:9478   */\n      dup6\n        /* \"#utility.yul\":9468:9472   */\n      0x20\n        /* \"#utility.yul\":9461:9466   */\n      dup7\n        /* \"#utility.yul\":9457:9473   */\n      add\n        /* \"#utility.yul\":9435:9487   */\n      tag_161\n      jump\t// in\n    tag_282:\n        /* \"#utility.yul\":9512:9541   */\n      tag_283\n        /* \"#utility.yul\":9534:9540   */\n      dup2\n        /* \"#utility.yul\":9512:9541   */\n      tag_149\n      jump\t// in\n    tag_283:\n        /* \"#utility.yul\":9507:9510   */\n      dup5\n        /* \"#utility.yul\":9503:9542   */\n      add\n        /* \"#utility.yul\":9496:9542   */\n      swap2\n      pop\n        /* \"#utility.yul\":9286:9548   */\n      pop\n        /* \"#utility.yul\":9204:9548   */\n      swap3\n      swap2\n      pop\n      pop\n      jump\t// out\n        /* \"#utility.yul\":9554:9644   */\n    tag_172:\n        /* \"#utility.yul\":9588:9595   */\n      0x00\n        /* \"#utility.yul\":9631:9636   */\n      dup2\n        /* \"#utility.yul\":9624:9637   */\n      iszero\n        /* \"#utility.yul\":9617:9638   */\n      iszero\n        /* \"#utility.yul\":9606:9638   */\n      swap1\n      pop\n        /* \"#utility.yul\":9554:9644   */\n      swap2\n      swap1\n      pop\n      jump\t// out\n        /* \"#utility.yul\":9650:9749   */\n    tag_173:\n        /* \"#utility.yul\":9721:9742   */\n      tag_286\n        /* \"#utility.yul\":9736:9741   */\n      dup2\n        /* \"#utility.yul\":9721:9742   */\n      tag_172\n      jump\t// in\n    tag_286:\n        /* \"#utility.yul\":9716:9719   */\n      dup3\n        /* \"#utility.yul\":9709:9743   */\n      mstore\n        /* \"#utility.yul\":9650:9749   */\n      pop\n      pop\n      jump\t// out\n        /* \"#utility.yul\":9825:11102   */\n    tag_174:\n        /* \"#utility.yul\":9936:9939   */\n      0x00\n        /* \"#utility.yul\":9972:9976   */\n      0xa0\n        /* \"#utility.yul\":9967:9970   */\n      dup4\n        /* \"#utility.yul\":9963:9977   */\n      add\n        /* \"#utility.yul\":10064:10068   */\n      0x00\n        /* \"#utility.yul\":10057:10062   */\n      dup4\n        /* \"#utility.yul\":10053:10069   */\n      add\n        /* \"#utility.yul\":10047:10070   */\n      mload\n        /* \"#utility.yul\":10117:10120   */\n      dup5\n        /* \"#utility.yul\":10111:10115   */\n      dup3\n        /* \"#utility.yul\":10107:10121   */\n      sub\n        /* \"#utility.yul\":10100:10104   */\n      0x00\n        /* \"#utility.yul\":10095:10098   */\n      dup7\n        /* \"#utility.yul\":10091:10105   */\n      add\n        /* \"#utility.yul\":10084:10122   */\n      mstore\n        /* \"#utility.yul\":10143:10216   */\n      tag_288\n        /* \"#utility.yul\":10211:10215   */\n      dup3\n        /* \"#utility.yul\":10197:10209   */\n      dup3\n        /* \"#utility.yul\":10143:10216   */\n      tag_171\n      jump\t// in\n    tag_288:\n        /* \"#utility.yul\":10135:10216   */\n      swap2\n      pop\n        /* \"#utility.yul\":9987:10227   */\n      pop\n        /* \"#utility.yul\":10313:10317   */\n      0x20\n        /* \"#utility.yul\":10306:10311   */\n      dup4\n        /* \"#utility.yul\":10302:10318   */\n      add\n        /* \"#utility.yul\":10296:10319   */\n      mload\n        /* \"#utility.yul\":10366:10369   */\n      dup5\n        /* \"#utility.yul\":10360:10364   */\n      dup3\n        /* \"#utility.yul\":10356:10370   */\n      sub\n        /* \"#utility.yul\":10349:10353   */\n      0x20\n        /* \"#utility.yul\":10344:10347   */\n      dup7\n        /* \"#utility.yul\":10340:10354   */\n      add\n        /* \"#utility.yul\":10333:10371   */\n      mstore\n        /* \"#utility.yul\":10392:10465   */\n      tag_289\n        /* \"#utility.yul\":10460:10464   */\n      dup3\n        /* \"#utility.yul\":10446:10458   */\n      dup3\n        /* \"#utility.yul\":10392:10465   */\n      tag_171\n      jump\t// in\n    tag_289:\n        /* \"#utility.yul\":10384:10465   */\n      swap2\n      pop\n        /* \"#utility.yul\":10237:10476   */\n      pop\n        /* \"#utility.yul\":10566:10570   */\n      0x40\n        /* \"#utility.yul\":10559:10564   */\n      dup4\n        /* \"#utility.yul\":10555:10571   */\n      add\n        /* \"#utility.yul\":10549:10572   */\n      mload\n        /* \"#utility.yul\":10585:10648   */\n      tag_290\n        /* \"#utility.yul\":10642:10646   */\n      0x40\n        /* \"#utility.yul\":10637:10640   */\n      dup7\n        /* \"#utility.yul\":10633:10647   */\n      add\n        /* \"#utility.yul\":10619:10631   */\n      dup3\n        /* \"#utility.yul\":10585:10648   */\n      tag_166\n      jump\t// in\n    tag_290:\n        /* \"#utility.yul\":10486:10658   */\n      pop\n        /* \"#utility.yul\":10742:10746   */\n      0x60\n        /* \"#utility.yul\":10735:10740   */\n      dup4\n        /* \"#utility.yul\":10731:10747   */\n      add\n        /* \"#utility.yul\":10725:10748   */\n      mload\n        /* \"#utility.yul\":10795:10798   */\n      dup5\n        /* \"#utility.yul\":10789:10793   */\n      dup3\n        /* \"#utility.yul\":10785:10799   */\n      sub\n        /* \"#utility.yul\":10778:10782   */\n      0x60\n        /* \"#utility.yul\":10773:10776   */\n      dup7\n        /* \"#utility.yul\":10769:10783   */\n      add\n        /* \"#utility.yul\":10762:10800   */\n      mstore\n        /* \"#utility.yul\":10821:10894   */\n      tag_291\n        /* \"#utility.yul\":10889:10893   */\n      dup3\n        /* \"#utility.yul\":10875:10887   */\n      dup3\n        /* \"#utility.yul\":10821:10894   */\n      tag_171\n      jump\t// in\n    tag_291:\n        /* \"#utility.yul\":10813:10894   */\n      swap2\n      pop\n        /* \"#utility.yul\":10668:10905   */\n      pop\n        /* \"#utility.yul\":10989:10993   */\n      0x80\n        /* \"#utility.yul\":10982:10987   */\n      dup4\n        /* \"#utility.yul\":10978:10994   */\n      add\n        /* \"#utility.yul\":10972:10995   */\n      mload\n        /* \"#utility.yul\":11008:11065   */\n      tag_292\n        /* \"#utility.yul\":11059:11063   */\n      0x80\n        /* \"#utility.yul\":11054:11057   */\n      dup7\n        /* \"#utility.yul\":11050:11064   */\n      add\n        /* \"#utility.yul\":11036:11048   */\n      dup3\n        /* \"#utility.yul\":11008:11065   */\n      tag_173\n      jump\t// in\n    tag_292:\n        /* \"#utility.yul\":10915:11075   */\n      pop\n        /* \"#utility.yul\":11092:11096   */\n      dup1\n        /* \"#utility.yul\":11085:11096   */\n      swap2\n      pop\n        /* \"#utility.yul\":9941:11102   */\n      pop\n        /* \"#utility.yul\":9825:11102   */\n      swap3\n      swap2\n      pop\n      pop\n      jump\t// out\n        /* \"#utility.yul\":11108:11465   */\n    tag_47:\n        /* \"#utility.yul\":11243:11247   */\n      0x00\n        /* \"#utility.yul\":11281:11283   */\n      0x20\n        /* \"#utility.yul\":11270:11279   */\n      dup3\n        /* \"#utility.yul\":11266:11284   */\n      add\n        /* \"#utility.yul\":11258:11284   */\n      swap1\n      pop\n        /* \"#utility.yul\":11330:11339   */\n      dup2\n        /* \"#utility.yul\":11324:11328   */\n      dup2\n        /* \"#utility.yul\":11320:11340   */\n      sub\n        /* \"#utility.yul\":11316:11317   */\n      0x00\n        /* \"#utility.yul\":11305:11314   */\n      dup4\n        /* \"#utility.yul\":11301:11318   */\n      add\n        /* \"#utility.yul\":11294:11341   */\n      mstore\n        /* \"#utility.yul\":11358:11458   */\n      tag_294\n        /* \"#utility.yul\":11453:11457   */\n      dup2\n        /* \"#utility.yul\":11444:11450   */\n      dup5\n        /* \"#utility.yul\":11358:11458   */\n      tag_174\n      jump\t// in\n    tag_294:\n        /* \"#utility.yul\":11350:11458   */\n      swap1\n      pop\n        /* \"#utility.yul\":11108:11465   */\n      swap3\n      swap2\n      pop\n      pop\n      jump\t// out\n        /* \"#utility.yul\":11471:11651   */\n    tag_175:\n        /* \"#utility.yul\":11519:11596   */\n      0x4e487b7100000000000000000000000000000000000000000000000000000000\n        /* \"#utility.yul\":11516:11517   */\n      0x00\n        /* \"#utility.yul\":11509:11597   */\n      mstore\n        /* \"#utility.yul\":11616:11620   */\n      0x22\n        /* \"#utility.yul\":11613:11614   */\n      0x04\n        /* \"#utility.yul\":11606:11621   */\n      mstore\n        /* \"#utility.yul\":11640:11644   */\n      0x24\n        /* \"#utility.yul\":11637:11638   */\n      0x00\n        /* \"#utility.yul\":11630:11645   */\n      revert\n        /* \"#utility.yul\":11657:11977   */\n    tag_69:\n        /* \"#utility.yul\":11701:11707   */\n      0x00\n        /* \"#utility.yul\":11738:11739   */\n      0x02\n        /* \"#utility.yul\":11732:11736   */\n      dup3\n        /* \"#utility.yul\":11728:11740   */\n      div\n        /* \"#utility.yul\":11718:11740   */\n      swap1\n      pop\n        /* \"#utility.yul\":11785:11786   */\n      0x01\n        /* \"#utility.yul\":11779:11783   */\n      dup3\n        /* \"#utility.yul\":11775:11787   */\n      and\n        /* \"#utility.yul\":11806:11824   */\n      dup1\n        /* \"#utility.yul\":11796:11877   */\n      tag_297\n      jumpi\n        /* \"#utility.yul\":11862:11866   */\n      0x7f\n        /* \"#utility.yul\":11854:11860   */\n      dup3\n        /* \"#utility.yul\":11850:11867   */\n      and\n        /* \"#utility.yul\":11840:11867   */\n      swap2\n      pop\n        /* \"#utility.yul\":11796:11877   */\n    tag_297:\n        /* \"#utility.yul\":11924:11926   */\n      0x20\n        /* \"#utility.yul\":11916:11922   */\n      dup3\n        /* \"#utility.yul\":11913:11927   */\n      lt\n        /* \"#utility.yul\":11893:11911   */\n      dup2\n        /* \"#utility.yul\":11890:11928   */\n      eq\n        /* \"#utility.yul\":11887:11971   */\n      iszero\n      tag_298\n      jumpi\n        /* \"#utility.yul\":11943:11961   */\n      tag_299\n      tag_175\n      jump\t// in\n    tag_299:\n        /* \"#utility.yul\":11887:11971   */\n    tag_298:\n        /* \"#utility.yul\":11708:11977   */\n      pop\n        /* \"#utility.yul\":11657:11977   */\n      swap2\n      swap1\n      pop\n      jump\t// out\n\n    auxdata: 0xa26469706673582212202e4984ea0528cee806f7e00334a4426bb983f1200b10116f9cb982bc02612bdd64736f6c634300080a0033\n}\n","bytecode":{"linkReferences":{},"object":"60806040523480156200001157600080fd5b50604051620017ea380380620017ea8339818101604052810190620000379190620002e4565b80600190805190602001906200004f92919062000097565b50336000806101000a81548173ffffffffffffffffffffffffffffffffffffffff021916908373ffffffffffffffffffffffffffffffffffffffff160217905550506200039a565b828054620000a59062000364565b90600052602060002090601f016020900481019282620000c9576000855562000115565b82601f10620000e457805160ff191683800117855562000115565b8280016001018555821562000115579182015b8281111562000114578251825591602001919060010190620000f7565b5b50905062000124919062000128565b5090565b5b808211156200014357600081600090555060010162000129565b5090565b6000604051905090565b600080fd5b600080fd5b600080fd5b600080fd5b6000601f19601f8301169050919050565b7f4e487b7100000000000000000000000000000000000000000000000000000000600052604160045260246000fd5b620001b08262000165565b810181811067ffffffffffffffff82111715620001d257620001d162000176565b5b80604052505050565b6000620001e762000147565b9050620001f58282620001a5565b919050565b600067ffffffffffffffff82111562000218576200021762000176565b5b620002238262000165565b9050602081019050919050565b60005b838110156200025057808201518184015260208101905062000233565b8381111562000260576000848401525b50505050565b60006200027d6200027784620001fa565b620001db565b9050828152602081018484840111156200029c576200029b62000160565b5b620002a984828562000230565b509392505050565b600082601f830112620002c957620002c86200015b565b5b8151620002db84826020860162000266565b91505092915050565b600060208284031215620002fd57620002fc62000151565b5b600082015167ffffffffffffffff8111156200031e576200031d62000156565b5b6200032c84828501620002b1565b91505092915050565b7f4e487b7100000000000000000000000000000000000000000000000000000000600052602260045260246000fd5b600060028204905060018216806200037d57607f821691505b6020821081141562000394576200039362000335565b5b50919050565b61144080620003aa6000396000f3fe608060405234801561001057600080fd5b506004361061009e5760003560e01c80632de8f46d116100665780632de8f46d1461015957806364ddfa291461017757806364efb22b14610195578063cddb61b7146101c5578063df6fa20e146101e15761009e565b8063045b3034146100a357806313718c97146100c15780631510f0d5146100f15780631af1a7681461010d5780632a979f3114610129575b600080fd5b6100ab6101fd565b6040516100b89190610e28565b60405180910390f35b6100db60048036038101906100d69190610e8d565b610221565b6040516100e89190610e28565b60405180910390f35b61010b6004803603810190610106919061102c565b610260565b005b610127600480360381019061012291906110e7565b61034d565b005b610143600480360381019061013e9190610e8d565b610403565b604051610150919061119c565b60405180910390f35b6101616104af565b60405161016e919061119c565b60405180910390f35b61017f610599565b60405161018c919061127c565b60405180910390f35b6101af60048036038101906101aa91906110e7565b61067f565b6040516101bc9190611387565b60405180910390f35b6101df60048036038101906101da919061102c565b610957565b005b6101fb60048036038101906101f691906110e7565b610c2c565b005b60008054906101000a900473ffffffffffffffffffffffffffffffffffffffff1681565b6004818154811061023157600080fd5b906000526020600020016000915054906101000a900473ffffffffffffffffffffffffffffffffffffffff1681565b60008054906101000a900473ffffffffffffffffffffffffffffffffffffffff1673ffffffffffffffffffffffffffffffffffffffff163373ffffffffffffffffffffffffffffffffffffffff16146102b857600080fd5b6000600260008373ffffffffffffffffffffffffffffffffffffffff1673ffffffffffffffffffffffffffffffffffffffff168152602001908152602001600020905084816000019080519060200190610313929190610cfd565b508381600101908051906020019061032c929190610cfd565b5082816003019080519060200190610345929190610cfd565b505050505050565b60008054906101000a900473ffffffffffffffffffffffffffffffffffffffff1673ffffffffffffffffffffffffffffffffffffffff163373ffffffffffffffffffffffffffffffffffffffff16146103a557600080fd5b6001600260008373ffffffffffffffffffffffffffffffffffffffff1673ffffffffffffffffffffffffffffffffffffffff16815260200190815260200160002060040160006101000a81548160ff02191690831515021790555050565b6003818154811061041357600080fd5b90600052602060002001600091509050805461042e906113d8565b80601f016020809104026020016040519081016040528092919081815260200182805461045a906113d8565b80156104a75780601f1061047c576101008083540402835291602001916104a7565b820191906000526020600020905b81548152906001019060200180831161048a57829003601f168201915b505050505081565b606060008054906101000a900473ffffffffffffffffffffffffffffffffffffffff1673ffffffffffffffffffffffffffffffffffffffff163373ffffffffffffffffffffffffffffffffffffffff161461050957600080fd5b60018054610516906113d8565b80601f0160208091040260200160405190810160405280929190818152602001828054610542906113d8565b801561058f5780601f106105645761010080835404028352916020019161058f565b820191906000526020600020905b81548152906001019060200180831161057257829003601f168201915b5050505050905090565b606060008054906101000a900473ffffffffffffffffffffffffffffffffffffffff1673ffffffffffffffffffffffffffffffffffffffff163373ffffffffffffffffffffffffffffffffffffffff16146105f357600080fd5b600480548060200260200160405190810160405280929190818152602001828054801561067557602002820191906000526020600020905b8160009054906101000a900473ffffffffffffffffffffffffffffffffffffffff1673ffffffffffffffffffffffffffffffffffffffff168152602001906001019080831161062b575b5050505050905090565b610687610d83565b60008054906101000a900473ffffffffffffffffffffffffffffffffffffffff1673ffffffffffffffffffffffffffffffffffffffff163373ffffffffffffffffffffffffffffffffffffffff16146106df57600080fd5b600260008373ffffffffffffffffffffffffffffffffffffffff1673ffffffffffffffffffffffffffffffffffffffff1681526020019081526020016000206040518060a0016040529081600082018054610739906113d8565b80601f0160208091040260200160405190810160405280929190818152602001828054610765906113d8565b80156107b25780601f10610787576101008083540402835291602001916107b2565b820191906000526020600020905b81548152906001019060200180831161079557829003601f168201915b505050505081526020016001820180546107cb906113d8565b80601f01602080910402602001604051908101604052809291908181526020018280546107f7906113d8565b80156108445780601f1061081957610100808354040283529160200191610844565b820191906000526020600020905b81548152906001019060200180831161082757829003601f168201915b505050505081526020016002820160009054906101000a900473ffffffffffffffffffffffffffffffffffffffff1673ffffffffffffffffffffffffffffffffffffffff1673ffffffffffffffffffffffffffffffffffffffff1681526020016003820180546108b3906113d8565b80601f01602080910402602001604051908101604052809291908181526020018280546108df906113d8565b801561092c5780601f106109015761010080835404028352916020019161092c565b820191906000526020600020905b81548152906001019060200180831161090f57829003601f168201915b505050505081526020016004820160009054906101000a900460ff1615151515815250509050919050565b60008054906101000a900473ffffffffffffffffffffffffffffffffffffffff1673ffffffffffffffffffffffffffffffffffffffff163373ffffffffffffffffffffffffffffffffffffffff16146109af57600080fd5b610a92600260008373ffffffffffffffffffffffffffffffffffffffff1673ffffffffffffffffffffffffffffffffffffffff16815260200190815260200160002060030180546109ff906113d8565b80601f0160208091040260200160405190810160405280929190818152602001828054610a2b906113d8565b8015610a785780601f10610a4d57610100808354040283529160200191610a78565b820191906000526020600020905b815481529060010190602001808311610a5b57829003601f168201915b505050505060405180602001604052806000815250610ce2565b15610ad457600382908060018154018082558091505060019003906000526020600020016000909190919091509080519060200190610ad2929190610cfd565b505b6000600260008373ffffffffffffffffffffffffffffffffffffffff1673ffffffffffffffffffffffffffffffffffffffff168152602001908152602001600020905084816000019080519060200190610b2f929190610cfd565b5083816001019080519060200190610b48929190610cfd565b50818160020160006101000a81548173ffffffffffffffffffffffffffffffffffffffff021916908373ffffffffffffffffffffffffffffffffffffffff16021790555082816003019080519060200190610ba4929190610cfd565b5060018160040160006101000a81548160ff0219169083151502179055506004829080600181540180825580915050600190039060005260206000200160009091909190916101000a81548173ffffffffffffffffffffffffffffffffffffffff021916908373ffffffffffffffffffffffffffffffffffffffff1602179055505050505050565b60008054906101000a900473ffffffffffffffffffffffffffffffffffffffff1673ffffffffffffffffffffffffffffffffffffffff163373ffffffffffffffffffffffffffffffffffffffff1614610c8457600080fd5b6000600260008373ffffffffffffffffffffffffffffffffffffffff1673ffffffffffffffffffffffffffffffffffffffff16815260200190815260200160002060040160006101000a81548160ff02191690831515021790555050565b60008180519060200120838051906020012014905092915050565b828054610d09906113d8565b90600052602060002090601f016020900481019282610d2b5760008555610d72565b82601f10610d4457805160ff1916838001178555610d72565b82800160010185558215610d72579182015b82811115610d71578251825591602001919060010190610d56565b5b509050610d7f9190610dca565b5090565b6040518060a001604052806060815260200160608152602001600073ffffffffffffffffffffffffffffffffffffffff168152602001606081526020016000151581525090565b5b80821115610de3576000816000905550600101610dcb565b5090565b600073ffffffffffffffffffffffffffffffffffffffff82169050919050565b6000610e1282610de7565b9050919050565b610e2281610e07565b82525050565b6000602082019050610e3d6000830184610e19565b92915050565b6000604051905090565b600080fd5b600080fd5b6000819050919050565b610e6a81610e57565b8114610e7557600080fd5b50565b600081359050610e8781610e61565b92915050565b600060208284031215610ea357610ea2610e4d565b5b6000610eb184828501610e78565b91505092915050565b600080fd5b600080fd5b6000601f19601f8301169050919050565b7f4e487b7100000000000000000000000000000000000000000000000000000000600052604160045260246000fd5b610f0d82610ec4565b810181811067ffffffffffffffff82111715610f2c57610f2b610ed5565b5b80604052505050565b6000610f3f610e43565b9050610f4b8282610f04565b919050565b600067ffffffffffffffff821115610f6b57610f6a610ed5565b5b610f7482610ec4565b9050602081019050919050565b82818337600083830152505050565b6000610fa3610f9e84610f50565b610f35565b905082815260208101848484011115610fbf57610fbe610ebf565b5b610fca848285610f81565b509392505050565b600082601f830112610fe757610fe6610eba565b5b8135610ff7848260208601610f90565b91505092915050565b61100981610e07565b811461101457600080fd5b50565b60008135905061102681611000565b92915050565b6000806000806080858703121561104657611045610e4d565b5b600085013567ffffffffffffffff81111561106457611063610e52565b5b61107087828801610fd2565b945050602085013567ffffffffffffffff81111561109157611090610e52565b5b61109d87828801610fd2565b935050604085013567ffffffffffffffff8111156110be576110bd610e52565b5b6110ca87828801610fd2565b92505060606110db87828801611017565b91505092959194509250565b6000602082840312156110fd576110fc610e4d565b5b600061110b84828501611017565b91505092915050565b600081519050919050565b600082825260208201905092915050565b60005b8381101561114e578082015181840152602081019050611133565b8381111561115d576000848401525b50505050565b600061116e82611114565b611178818561111f565b9350611188818560208601611130565b61119181610ec4565b840191505092915050565b600060208201905081810360008301526111b68184611163565b905092915050565b600081519050919050565b600082825260208201905092915050565b6000819050602082019050919050565b6111f381610e07565b82525050565b600061120583836111ea565b60208301905092915050565b6000602082019050919050565b6000611229826111be565b61123381856111c9565b935061123e836111da565b8060005b8381101561126f57815161125688826111f9565b975061126183611211565b925050600181019050611242565b5085935050505092915050565b60006020820190508181036000830152611296818461121e565b905092915050565b600082825260208201905092915050565b60006112ba82611114565b6112c4818561129e565b93506112d4818560208601611130565b6112dd81610ec4565b840191505092915050565b60008115159050919050565b6112fd816112e8565b82525050565b600060a083016000830151848203600086015261132082826112af565b9150506020830151848203602086015261133a82826112af565b915050604083015161134f60408601826111ea565b506060830151848203606086015261136782826112af565b915050608083015161137c60808601826112f4565b508091505092915050565b600060208201905081810360008301526113a18184611303565b905092915050565b7f4e487b7100000000000000000000000000000000000000000000000000000000600052602260045260246000fd5b600060028204905060018216806113f057607f821691505b60208210811415611404576114036113a9565b5b5091905056fea26469706673582212202e4984ea0528cee806f7e00334a4426bb983f1200b10116f9cb982bc02612bdd64736f6c634300080a0033","opcodes":"PUSH1 0x80 PUSH1 0x40 MSTORE CALLVALUE DUP1 ISZERO PUSH3 0x11 JUMPI PUSH1 0x0 DUP1 REVERT JUMPDEST POP PUSH1 0x40 MLOAD PUSH3 0x17EA CODESIZE SUB DUP1 PUSH3 0x17EA DUP4 CODECOPY DUP2 DUP2 ADD PUSH1 0x40 MSTORE DUP2 ADD SWAP1 PUSH3 0x37 SWAP2 SWAP1 PUSH3 0x2E4 JUMP JUMPDEST DUP1 PUSH1 0x1 SWAP1 DUP1 MLOAD SWAP1 PUSH1 0x20 ADD SWAP1 PUSH3 0x4F SWAP3 SWAP2 SWAP1 PUSH3 0x97 JUMP JUMPDEST POP CALLER PUSH1 0x0 DUP1 PUSH2 0x100 EXP DUP2 SLOAD DUP2 PUSH20 0xFFFFFFFFFFFFFFFFFFFFFFFFFFFFFFFFFFFFFFFF MUL NOT AND SWAP1 DUP4 PUSH20 0xFFFFFFFFFFFFFFFFFFFFFFFFFFFFFFFFFFFFFFFF AND MUL OR SWAP1 SSTORE POP POP PUSH3 0x39A JUMP JUMPDEST DUP3 DUP1 SLOAD PUSH3 0xA5 SWAP1 PUSH3 0x364 JUMP JUMPDEST SWAP1 PUSH1 0x0 MSTORE PUSH1 0x20 PUSH1 0x0 KECCAK256 SWAP1 PUSH1 0x1F ADD PUSH1 0x20 SWAP1 DIV DUP2 ADD SWAP3 DUP3 PUSH3 0xC9 JUMPI PUSH1 0x0 DUP6 SSTORE PUSH3 0x115 JUMP JUMPDEST DUP3 PUSH1 0x1F LT PUSH3 0xE4 JUMPI DUP1 MLOAD PUSH1 0xFF NOT AND DUP4 DUP1 ADD OR DUP6 SSTORE PUSH3 0x115 JUMP JUMPDEST DUP3 DUP1 ADD PUSH1 0x1 ADD DUP6 SSTORE DUP3 ISZERO PUSH3 0x115 JUMPI SWAP2 DUP3 ADD JUMPDEST DUP3 DUP2 GT ISZERO PUSH3 0x114 JUMPI DUP3 MLOAD DUP3 SSTORE SWAP2 PUSH1 0x20 ADD SWAP2 SWAP1 PUSH1 0x1 ADD SWAP1 PUSH3 0xF7 JUMP JUMPDEST JUMPDEST POP SWAP1 POP PUSH3 0x124 SWAP2 SWAP1 PUSH3 0x128 JUMP JUMPDEST POP SWAP1 JUMP JUMPDEST JUMPDEST DUP1 DUP3 GT ISZERO PUSH3 0x143 JUMPI PUSH1 0x0 DUP2 PUSH1 0x0 SWAP1 SSTORE POP PUSH1 0x1 ADD PUSH3 0x129 JUMP JUMPDEST POP SWAP1 JUMP JUMPDEST PUSH1 0x0 PUSH1 0x40 MLOAD SWAP1 POP SWAP1 JUMP JUMPDEST PUSH1 0x0 DUP1 REVERT JUMPDEST PUSH1 0x0 DUP1 REVERT JUMPDEST PUSH1 0x0 DUP1 REVERT JUMPDEST PUSH1 0x0 DUP1 REVERT JUMPDEST PUSH1 0x0 PUSH1 0x1F NOT PUSH1 0x1F DUP4 ADD AND SWAP1 POP SWAP2 SWAP1 POP JUMP JUMPDEST PUSH32 0x4E487B7100000000000000000000000000000000000000000000000000000000 PUSH1 0x0 MSTORE PUSH1 0x41 PUSH1 0x4 MSTORE PUSH1 0x24 PUSH1 0x0 REVERT JUMPDEST PUSH3 0x1B0 DUP3 PUSH3 0x165 JUMP JUMPDEST DUP2 ADD DUP2 DUP2 LT PUSH8 0xFFFFFFFFFFFFFFFF DUP3 GT OR ISZERO PUSH3 0x1D2 JUMPI PUSH3 0x1D1 PUSH3 0x176 JUMP JUMPDEST JUMPDEST DUP1 PUSH1 0x40 MSTORE POP POP POP JUMP JUMPDEST PUSH1 0x0 PUSH3 0x1E7 PUSH3 0x147 JUMP JUMPDEST SWAP1 POP PUSH3 0x1F5 DUP3 DUP3 PUSH3 0x1A5 JUMP JUMPDEST SWAP2 SWAP1 POP JUMP JUMPDEST PUSH1 0x0 PUSH8 0xFFFFFFFFFFFFFFFF DUP3 GT ISZERO PUSH3 0x218 JUMPI PUSH3 0x217 PUSH3 0x176 JUMP JUMPDEST JUMPDEST PUSH3 0x223 DUP3 PUSH3 0x165 JUMP JUMPDEST SWAP1 POP PUSH1 0x20 DUP2 ADD SWAP1 POP SWAP2 SWAP1 POP JUMP JUMPDEST PUSH1 0x0 JUMPDEST DUP4 DUP2 LT ISZERO PUSH3 0x250 JUMPI DUP1 DUP3 ADD MLOAD DUP2 DUP5 ADD MSTORE PUSH1 0x20 DUP2 ADD SWAP1 POP PUSH3 0x233 JUMP JUMPDEST DUP4 DUP2 GT ISZERO PUSH3 0x260 JUMPI PUSH1 0x0 DUP5 DUP5 ADD MSTORE JUMPDEST POP POP POP POP JUMP JUMPDEST PUSH1 0x0 PUSH3 0x27D PUSH3 0x277 DUP5 PUSH3 0x1FA JUMP JUMPDEST PUSH3 0x1DB JUMP JUMPDEST SWAP1 POP DUP3 DUP2 MSTORE PUSH1 0x20 DUP2 ADD DUP5 DUP5 DUP5 ADD GT ISZERO PUSH3 0x29C JUMPI PUSH3 0x29B PUSH3 0x160 JUMP JUMPDEST JUMPDEST PUSH3 0x2A9 DUP5 DUP3 DUP6 PUSH3 0x230 JUMP JUMPDEST POP SWAP4 SWAP3 POP POP POP JUMP JUMPDEST PUSH1 0x0 DUP3 PUSH1 0x1F DUP4 ADD SLT PUSH3 0x2C9 JUMPI PUSH3 0x2C8 PUSH3 0x15B JUMP JUMPDEST JUMPDEST DUP2 MLOAD PUSH3 0x2DB DUP5 DUP3 PUSH1 0x20 DUP7 ADD PUSH3 0x266 JUMP JUMPDEST SWAP2 POP POP SWAP3 SWAP2 POP POP JUMP JUMPDEST PUSH1 0x0 PUSH1 0x20 DUP3 DUP5 SUB SLT ISZERO PUSH3 0x2FD JUMPI PUSH3 0x2FC PUSH3 0x151 JUMP JUMPDEST JUMPDEST PUSH1 0x0 DUP3 ADD MLOAD PUSH8 0xFFFFFFFFFFFFFFFF DUP2 GT ISZERO PUSH3 0x31E JUMPI PUSH3 0x31D PUSH3 0x156 JUMP JUMPDEST JUMPDEST PUSH3 0x32C DUP5 DUP3 DUP6 ADD PUSH3 0x2B1 JUMP JUMPDEST SWAP2 POP POP SWAP3 SWAP2 POP POP JUMP JUMPDEST PUSH32 0x4E487B7100000000000000000000000000000000000000000000000000000000 PUSH1 0x0 MSTORE PUSH1 0x22 PUSH1 0x4 MSTORE PUSH1 0x24 PUSH1 0x0 REVERT JUMPDEST PUSH1 0x0 PUSH1 0x2 DUP3 DIV SWAP1 POP PUSH1 0x1 DUP3 AND DUP1 PUSH3 0x37D JUMPI PUSH1 0x7F DUP3 AND SWAP2 POP JUMPDEST PUSH1 0x20 DUP3 LT DUP2 EQ ISZERO PUSH3 0x394 JUMPI PUSH3 0x393 PUSH3 0x335 JUMP JUMPDEST JUMPDEST POP SWAP2 SWAP1 POP JUMP JUMPDEST PUSH2 0x1440 DUP1 PUSH3 0x3AA PUSH1 0x0 CODECOPY PUSH1 0x0 RETURN INVALID PUSH1 0x80 PUSH1 0x40 MSTORE CALLVALUE DUP1 ISZERO PUSH2 0x10 JUMPI PUSH1 0x0 DUP1 REVERT JUMPDEST POP PUSH1 0x4 CALLDATASIZE LT PUSH2 0x9E JUMPI PUSH1 0x0 CALLDATALOAD PUSH1 0xE0 SHR DUP1 PUSH4 0x2DE8F46D GT PUSH2 0x66 JUMPI DUP1 PUSH4 0x2DE8F46D EQ PUSH2 0x159 JUMPI DUP1 PUSH4 0x64DDFA29 EQ PUSH2 0x177 JUMPI DUP1 PUSH4 0x64EFB22B EQ PUSH2 0x195 JUMPI DUP1 PUSH4 0xCDDB61B7 EQ PUSH2 0x1C5 JUMPI DUP1 PUSH4 0xDF6FA20E EQ PUSH2 0x1E1 JUMPI PUSH2 0x9E JUMP JUMPDEST DUP1 PUSH4 0x45B3034 EQ PUSH2 0xA3 JUMPI DUP1 PUSH4 0x13718C97 EQ PUSH2 0xC1 JUMPI DUP1 PUSH4 0x1510F0D5 EQ PUSH2 0xF1 JUMPI DUP1 PUSH4 0x1AF1A768 EQ PUSH2 0x10D JUMPI DUP1 PUSH4 0x2A979F31 EQ PUSH2 0x129 JUMPI JUMPDEST PUSH1 0x0 DUP1 REVERT JUMPDEST PUSH2 0xAB PUSH2 0x1FD JUMP JUMPDEST PUSH1 0x40 MLOAD PUSH2 0xB8 SWAP2 SWAP1 PUSH2 0xE28 JUMP JUMPDEST PUSH1 0x40 MLOAD DUP1 SWAP2 SUB SWAP1 RETURN JUMPDEST PUSH2 0xDB PUSH1 0x4 DUP1 CALLDATASIZE SUB DUP2 ADD SWAP1 PUSH2 0xD6 SWAP2 SWAP1 PUSH2 0xE8D JUMP JUMPDEST PUSH2 0x221 JUMP JUMPDEST PUSH1 0x40 MLOAD PUSH2 0xE8 SWAP2 SWAP1 PUSH2 0xE28 JUMP JUMPDEST PUSH1 0x40 MLOAD DUP1 SWAP2 SUB SWAP1 RETURN JUMPDEST PUSH2 0x10B PUSH1 0x4 DUP1 CALLDATASIZE SUB DUP2 ADD SWAP1 PUSH2 0x106 SWAP2 SWAP1 PUSH2 0x102C JUMP JUMPDEST PUSH2 0x260 JUMP JUMPDEST STOP JUMPDEST PUSH2 0x127 PUSH1 0x4 DUP1 CALLDATASIZE SUB DUP2 ADD SWAP1 PUSH2 0x122 SWAP2 SWAP1 PUSH2 0x10E7 JUMP JUMPDEST PUSH2 0x34D JUMP JUMPDEST STOP JUMPDEST PUSH2 0x143 PUSH1 0x4 DUP1 CALLDATASIZE SUB DUP2 ADD SWAP1 PUSH2 0x13E SWAP2 SWAP1 PUSH2 0xE8D JUMP JUMPDEST PUSH2 0x403 JUMP JUMPDEST PUSH1 0x40 MLOAD PUSH2 0x150 SWAP2 SWAP1 PUSH2 0x119C JUMP JUMPDEST PUSH1 0x40 MLOAD DUP1 SWAP2 SUB SWAP1 RETURN JUMPDEST PUSH2 0x161 PUSH2 0x4AF JUMP JUMPDEST PUSH1 0x40 MLOAD PUSH2 0x16E SWAP2 SWAP1 PUSH2 0x119C JUMP JUMPDEST PUSH1 0x40 MLOAD DUP1 SWAP2 SUB SWAP1 RETURN JUMPDEST PUSH2 0x17F PUSH2 0x599 JUMP JUMPDEST PUSH1 0x40 MLOAD PUSH2 0x18C SWAP2 SWAP1 PUSH2 0x127C JUMP JUMPDEST PUSH1 0x40 MLOAD DUP1 SWAP2 SUB SWAP1 RETURN JUMPDEST PUSH2 0x1AF PUSH1 0x4 DUP1 CALLDATASIZE SUB DUP2 ADD SWAP1 PUSH2 0x1AA SWAP2 SWAP1 PUSH2 0x10E7 JUMP JUMPDEST PUSH2 0x67F JUMP JUMPDEST PUSH1 0x40 MLOAD PUSH2 0x1BC SWAP2 SWAP1 PUSH2 0x1387 JUMP JUMPDEST PUSH1 0x40 MLOAD DUP1 SWAP2 SUB SWAP1 RETURN JUMPDEST PUSH2 0x1DF PUSH1 0x4 DUP1 CALLDATASIZE SUB DUP2 ADD SWAP1 PUSH2 0x1DA SWAP2 SWAP1 PUSH2 0x102C JUMP JUMPDEST PUSH2 0x957 JUMP JUMPDEST STOP JUMPDEST PUSH2 0x1FB PUSH1 0x4 DUP1 CALLDATASIZE SUB DUP2 ADD SWAP1 PUSH2 0x1F6 SWAP2 SWAP1 PUSH2 0x10E7 JUMP JUMPDEST PUSH2 0xC2C JUMP JUMPDEST STOP JUMPDEST PUSH1 0x0 DUP1 SLOAD SWAP1 PUSH2 0x100 EXP SWAP1 DIV PUSH20 0xFFFFFFFFFFFFFFFFFFFFFFFFFFFFFFFFFFFFFFFF AND DUP2 JUMP JUMPDEST PUSH1 0x4 DUP2 DUP2 SLOAD DUP2 LT PUSH2 0x231 JUMPI PUSH1 0x0 DUP1 REVERT JUMPDEST SWAP1 PUSH1 0x0 MSTORE PUSH1 0x20 PUSH1 0x0 KECCAK256 ADD PUSH1 0x0 SWAP2 POP SLOAD SWAP1 PUSH2 0x100 EXP SWAP1 DIV PUSH20 0xFFFFFFFFFFFFFFFFFFFFFFFFFFFFFFFFFFFFFFFF AND DUP2 JUMP JUMPDEST PUSH1 0x0 DUP1 SLOAD SWAP1 PUSH2 0x100 EXP SWAP1 DIV PUSH20 0xFFFFFFFFFFFFFFFFFFFFFFFFFFFFFFFFFFFFFFFF AND PUSH20 0xFFFFFFFFFFFFFFFFFFFFFFFFFFFFFFFFFFFFFFFF AND CALLER PUSH20 0xFFFFFFFFFFFFFFFFFFFFFFFFFFFFFFFFFFFFFFFF AND EQ PUSH2 0x2B8 JUMPI PUSH1 0x0 DUP1 REVERT JUMPDEST PUSH1 0x0 PUSH1 0x2 PUSH1 0x0 DUP4 PUSH20 0xFFFFFFFFFFFFFFFFFFFFFFFFFFFFFFFFFFFFFFFF AND PUSH20 0xFFFFFFFFFFFFFFFFFFFFFFFFFFFFFFFFFFFFFFFF AND DUP2 MSTORE PUSH1 0x20 ADD SWAP1 DUP2 MSTORE PUSH1 0x20 ADD PUSH1 0x0 KECCAK256 SWAP1 POP DUP5 DUP2 PUSH1 0x0 ADD SWAP1 DUP1 MLOAD SWAP1 PUSH1 0x20 ADD SWAP1 PUSH2 0x313 SWAP3 SWAP2 SWAP1 PUSH2 0xCFD JUMP JUMPDEST POP DUP4 DUP2 PUSH1 0x1 ADD SWAP1 DUP1 MLOAD SWAP1 PUSH1 0x20 ADD SWAP1 PUSH2 0x32C SWAP3 SWAP2 SWAP1 PUSH2 0xCFD JUMP JUMPDEST POP DUP3 DUP2 PUSH1 0x3 ADD SWAP1 DUP1 MLOAD SWAP1 PUSH1 0x20 ADD SWAP1 PUSH2 0x345 SWAP3 SWAP2 SWAP1 PUSH2 0xCFD JUMP JUMPDEST POP POP POP POP POP POP JUMP JUMPDEST PUSH1 0x0 DUP1 SLOAD SWAP1 PUSH2 0x100 EXP SWAP1 DIV PUSH20 0xFFFFFFFFFFFFFFFFFFFFFFFFFFFFFFFFFFFFFFFF AND PUSH20 0xFFFFFFFFFFFFFFFFFFFFFFFFFFFFFFFFFFFFFFFF AND CALLER PUSH20 0xFFFFFFFFFFFFFFFFFFFFFFFFFFFFFFFFFFFFFFFF AND EQ PUSH2 0x3A5 JUMPI PUSH1 0x0 DUP1 REVERT JUMPDEST PUSH1 0x1 PUSH1 0x2 PUSH1 0x0 DUP4 PUSH20 0xFFFFFFFFFFFFFFFFFFFFFFFFFFFFFFFFFFFFFFFF AND PUSH20 0xFFFFFFFFFFFFFFFFFFFFFFFFFFFFFFFFFFFFFFFF AND DUP2 MSTORE PUSH1 0x20 ADD SWAP1 DUP2 MSTORE PUSH1 0x20 ADD PUSH1 0x0 KECCAK256 PUSH1 0x4 ADD PUSH1 0x0 PUSH2 0x100 EXP DUP2 SLOAD DUP2 PUSH1 0xFF MUL NOT AND SWAP1 DUP4 ISZERO ISZERO MUL OR SWAP1 SSTORE POP POP JUMP JUMPDEST PUSH1 0x3 DUP2 DUP2 SLOAD DUP2 LT PUSH2 0x413 JUMPI PUSH1 0x0 DUP1 REVERT JUMPDEST SWAP1 PUSH1 0x0 MSTORE PUSH1 0x20 PUSH1 0x0 KECCAK256 ADD PUSH1 0x0 SWAP2 POP SWAP1 POP DUP1 SLOAD PUSH2 0x42E SWAP1 PUSH2 0x13D8 JUMP JUMPDEST DUP1 PUSH1 0x1F ADD PUSH1 0x20 DUP1 SWAP2 DIV MUL PUSH1 0x20 ADD PUSH1 0x40 MLOAD SWAP1 DUP2 ADD PUSH1 0x40 MSTORE DUP1 SWAP3 SWAP2 SWAP1 DUP2 DUP2 MSTORE PUSH1 0x20 ADD DUP3 DUP1 SLOAD PUSH2 0x45A SWAP1 PUSH2 0x13D8 JUMP JUMPDEST DUP1 ISZERO PUSH2 0x4A7 JUMPI DUP1 PUSH1 0x1F LT PUSH2 0x47C JUMPI PUSH2 0x100 DUP1 DUP4 SLOAD DIV MUL DUP4 MSTORE SWAP2 PUSH1 0x20 ADD SWAP2 PUSH2 0x4A7 JUMP JUMPDEST DUP3 ADD SWAP2 SWAP1 PUSH1 0x0 MSTORE PUSH1 0x20 PUSH1 0x0 KECCAK256 SWAP1 JUMPDEST DUP2 SLOAD DUP2 MSTORE SWAP1 PUSH1 0x1 ADD SWAP1 PUSH1 0x20 ADD DUP1 DUP4 GT PUSH2 0x48A JUMPI DUP3 SWAP1 SUB PUSH1 0x1F AND DUP3 ADD SWAP2 JUMPDEST POP POP POP POP POP DUP2 JUMP JUMPDEST PUSH1 0x60 PUSH1 0x0 DUP1 SLOAD SWAP1 PUSH2 0x100 EXP SWAP1 DIV PUSH20 0xFFFFFFFFFFFFFFFFFFFFFFFFFFFFFFFFFFFFFFFF AND PUSH20 0xFFFFFFFFFFFFFFFFFFFFFFFFFFFFFFFFFFFFFFFF AND CALLER PUSH20 0xFFFFFFFFFFFFFFFFFFFFFFFFFFFFFFFFFFFFFFFF AND EQ PUSH2 0x509 JUMPI PUSH1 0x0 DUP1 REVERT JUMPDEST PUSH1 0x1 DUP1 SLOAD PUSH2 0x516 SWAP1 PUSH2 0x13D8 JUMP JUMPDEST DUP1 PUSH1 0x1F ADD PUSH1 0x20 DUP1 SWAP2 DIV MUL PUSH1 0x20 ADD PUSH1 0x40 MLOAD SWAP1 DUP2 ADD PUSH1 0x40 MSTORE DUP1 SWAP3 SWAP2 SWAP1 DUP2 DUP2 MSTORE PUSH1 0x20 ADD DUP3 DUP1 SLOAD PUSH2 0x542 SWAP1 PUSH2 0x13D8 JUMP JUMPDEST DUP1 ISZERO PUSH2 0x58F JUMPI DUP1 PUSH1 0x1F LT PUSH2 0x564 JUMPI PUSH2 0x100 DUP1 DUP4 SLOAD DIV MUL DUP4 MSTORE SWAP2 PUSH1 0x20 ADD SWAP2 PUSH2 0x58F JUMP JUMPDEST DUP3 ADD SWAP2 SWAP1 PUSH1 0x0 MSTORE PUSH1 0x20 PUSH1 0x0 KECCAK256 SWAP1 JUMPDEST DUP2 SLOAD DUP2 MSTORE SWAP1 PUSH1 0x1 ADD SWAP1 PUSH1 0x20 ADD DUP1 DUP4 GT PUSH2 0x572 JUMPI DUP3 SWAP1 SUB PUSH1 0x1F AND DUP3 ADD SWAP2 JUMPDEST POP POP POP POP POP SWAP1 POP SWAP1 JUMP JUMPDEST PUSH1 0x60 PUSH1 0x0 DUP1 SLOAD SWAP1 PUSH2 0x100 EXP SWAP1 DIV PUSH20 0xFFFFFFFFFFFFFFFFFFFFFFFFFFFFFFFFFFFFFFFF AND PUSH20 0xFFFFFFFFFFFFFFFFFFFFFFFFFFFFFFFFFFFFFFFF AND CALLER PUSH20 0xFFFFFFFFFFFFFFFFFFFFFFFFFFFFFFFFFFFFFFFF AND EQ PUSH2 0x5F3 JUMPI PUSH1 0x0 DUP1 REVERT JUMPDEST PUSH1 0x4 DUP1 SLOAD DUP1 PUSH1 0x20 MUL PUSH1 0x20 ADD PUSH1 0x40 MLOAD SWAP1 DUP2 ADD PUSH1 0x40 MSTORE DUP1 SWAP3 SWAP2 SWAP1 DUP2 DUP2 MSTORE PUSH1 0x20 ADD DUP3 DUP1 SLOAD DUP1 ISZERO PUSH2 0x675 JUMPI PUSH1 0x20 MUL DUP3 ADD SWAP2 SWAP1 PUSH1 0x0 MSTORE PUSH1 0x20 PUSH1 0x0 KECCAK256 SWAP1 JUMPDEST DUP2 PUSH1 0x0 SWAP1 SLOAD SWAP1 PUSH2 0x100 EXP SWAP1 DIV PUSH20 0xFFFFFFFFFFFFFFFFFFFFFFFFFFFFFFFFFFFFFFFF AND PUSH20 0xFFFFFFFFFFFFFFFFFFFFFFFFFFFFFFFFFFFFFFFF AND DUP2 MSTORE PUSH1 0x20 ADD SWAP1 PUSH1 0x1 ADD SWAP1 DUP1 DUP4 GT PUSH2 0x62B JUMPI JUMPDEST POP POP POP POP POP SWAP1 POP SWAP1 JUMP JUMPDEST PUSH2 0x687 PUSH2 0xD83 JUMP JUMPDEST PUSH1 0x0 DUP1 SLOAD SWAP1 PUSH2 0x100 EXP SWAP1 DIV PUSH20 0xFFFFFFFFFFFFFFFFFFFFFFFFFFFFFFFFFFFFFFFF AND PUSH20 0xFFFFFFFFFFFFFFFFFFFFFFFFFFFFFFFFFFFFFFFF AND CALLER PUSH20 0xFFFFFFFFFFFFFFFFFFFFFFFFFFFFFFFFFFFFFFFF AND EQ PUSH2 0x6DF JUMPI PUSH1 0x0 DUP1 REVERT JUMPDEST PUSH1 0x2 PUSH1 0x0 DUP4 PUSH20 0xFFFFFFFFFFFFFFFFFFFFFFFFFFFFFFFFFFFFFFFF AND PUSH20 0xFFFFFFFFFFFFFFFFFFFFFFFFFFFFFFFFFFFFFFFF AND DUP2 MSTORE PUSH1 0x20 ADD SWAP1 DUP2 MSTORE PUSH1 0x20 ADD PUSH1 0x0 KECCAK256 PUSH1 0x40 MLOAD DUP1 PUSH1 0xA0 ADD PUSH1 0x40 MSTORE SWAP1 DUP2 PUSH1 0x0 DUP3 ADD DUP1 SLOAD PUSH2 0x739 SWAP1 PUSH2 0x13D8 JUMP JUMPDEST DUP1 PUSH1 0x1F ADD PUSH1 0x20 DUP1 SWAP2 DIV MUL PUSH1 0x20 ADD PUSH1 0x40 MLOAD SWAP1 DUP2 ADD PUSH1 0x40 MSTORE DUP1 SWAP3 SWAP2 SWAP1 DUP2 DUP2 MSTORE PUSH1 0x20 ADD DUP3 DUP1 SLOAD PUSH2 0x765 SWAP1 PUSH2 0x13D8 JUMP JUMPDEST DUP1 ISZERO PUSH2 0x7B2 JUMPI DUP1 PUSH1 0x1F LT PUSH2 0x787 JUMPI PUSH2 0x100 DUP1 DUP4 SLOAD DIV MUL DUP4 MSTORE SWAP2 PUSH1 0x20 ADD SWAP2 PUSH2 0x7B2 JUMP JUMPDEST DUP3 ADD SWAP2 SWAP1 PUSH1 0x0 MSTORE PUSH1 0x20 PUSH1 0x0 KECCAK256 SWAP1 JUMPDEST DUP2 SLOAD DUP2 MSTORE SWAP1 PUSH1 0x1 ADD SWAP1 PUSH1 0x20 ADD DUP1 DUP4 GT PUSH2 0x795 JUMPI DUP3 SWAP1 SUB PUSH1 0x1F AND DUP3 ADD SWAP2 JUMPDEST POP POP POP POP POP DUP2 MSTORE PUSH1 0x20 ADD PUSH1 0x1 DUP3 ADD DUP1 SLOAD PUSH2 0x7CB SWAP1 PUSH2 0x13D8 JUMP JUMPDEST DUP1 PUSH1 0x1F ADD PUSH1 0x20 DUP1 SWAP2 DIV MUL PUSH1 0x20 ADD PUSH1 0x40 MLOAD SWAP1 DUP2 ADD PUSH1 0x40 MSTORE DUP1 SWAP3 SWAP2 SWAP1 DUP2 DUP2 MSTORE PUSH1 0x20 ADD DUP3 DUP1 SLOAD PUSH2 0x7F7 SWAP1 PUSH2 0x13D8 JUMP JUMPDEST DUP1 ISZERO PUSH2 0x844 JUMPI DUP1 PUSH1 0x1F LT PUSH2 0x819 JUMPI PUSH2 0x100 DUP1 DUP4 SLOAD DIV MUL DUP4 MSTORE SWAP2 PUSH1 0x20 ADD SWAP2 PUSH2 0x844 JUMP JUMPDEST DUP3 ADD SWAP2 SWAP1 PUSH1 0x0 MSTORE PUSH1 0x20 PUSH1 0x0 KECCAK256 SWAP1 JUMPDEST DUP2 SLOAD DUP2 MSTORE SWAP1 PUSH1 0x1 ADD SWAP1 PUSH1 0x20 ADD DUP1 DUP4 GT PUSH2 0x827 JUMPI DUP3 SWAP1 SUB PUSH1 0x1F AND DUP3 ADD SWAP2 JUMPDEST POP POP POP POP POP DUP2 MSTORE PUSH1 0x20 ADD PUSH1 0x2 DUP3 ADD PUSH1 0x0 SWAP1 SLOAD SWAP1 PUSH2 0x100 EXP SWAP1 DIV PUSH20 0xFFFFFFFFFFFFFFFFFFFFFFFFFFFFFFFFFFFFFFFF AND PUSH20 0xFFFFFFFFFFFFFFFFFFFFFFFFFFFFFFFFFFFFFFFF AND PUSH20 0xFFFFFFFFFFFFFFFFFFFFFFFFFFFFFFFFFFFFFFFF AND DUP2 MSTORE PUSH1 0x20 ADD PUSH1 0x3 DUP3 ADD DUP1 SLOAD PUSH2 0x8B3 SWAP1 PUSH2 0x13D8 JUMP JUMPDEST DUP1 PUSH1 0x1F ADD PUSH1 0x20 DUP1 SWAP2 DIV MUL PUSH1 0x20 ADD PUSH1 0x40 MLOAD SWAP1 DUP2 ADD PUSH1 0x40 MSTORE DUP1 SWAP3 SWAP2 SWAP1 DUP2 DUP2 MSTORE PUSH1 0x20 ADD DUP3 DUP1 SLOAD PUSH2 0x8DF SWAP1 PUSH2 0x13D8 JUMP JUMPDEST DUP1 ISZERO PUSH2 0x92C JUMPI DUP1 PUSH1 0x1F LT PUSH2 0x901 JUMPI PUSH2 0x100 DUP1 DUP4 SLOAD DIV MUL DUP4 MSTORE SWAP2 PUSH1 0x20 ADD SWAP2 PUSH2 0x92C JUMP JUMPDEST DUP3 ADD SWAP2 SWAP1 PUSH1 0x0 MSTORE PUSH1 0x20 PUSH1 0x0 KECCAK256 SWAP1 JUMPDEST DUP2 SLOAD DUP2 MSTORE SWAP1 PUSH1 0x1 ADD SWAP1 PUSH1 0x20 ADD DUP1 DUP4 GT PUSH2 0x90F JUMPI DUP3 SWAP1 SUB PUSH1 0x1F AND DUP3 ADD SWAP2 JUMPDEST POP POP POP POP POP DUP2 MSTORE PUSH1 0x20 ADD PUSH1 0x4 DUP3 ADD PUSH1 0x0 SWAP1 SLOAD SWAP1 PUSH2 0x100 EXP SWAP1 DIV PUSH1 0xFF AND ISZERO ISZERO ISZERO ISZERO DUP2 MSTORE POP POP SWAP1 POP SWAP2 SWAP1 POP JUMP JUMPDEST PUSH1 0x0 DUP1 SLOAD SWAP1 PUSH2 0x100 EXP SWAP1 DIV PUSH20 0xFFFFFFFFFFFFFFFFFFFFFFFFFFFFFFFFFFFFFFFF AND PUSH20 0xFFFFFFFFFFFFFFFFFFFFFFFFFFFFFFFFFFFFFFFF AND CALLER PUSH20 0xFFFFFFFFFFFFFFFFFFFFFFFFFFFFFFFFFFFFFFFF AND EQ PUSH2 0x9AF JUMPI PUSH1 0x0 DUP1 REVERT JUMPDEST PUSH2 0xA92 PUSH1 0x2 PUSH1 0x0 DUP4 PUSH20 0xFFFFFFFFFFFFFFFFFFFFFFFFFFFFFFFFFFFFFFFF AND PUSH20 0xFFFFFFFFFFFFFFFFFFFFFFFFFFFFFFFFFFFFFFFF AND DUP2 MSTORE PUSH1 0x20 ADD SWAP1 DUP2 MSTORE PUSH1 0x20 ADD PUSH1 0x0 KECCAK256 PUSH1 0x3 ADD DUP1 SLOAD PUSH2 0x9FF SWAP1 PUSH2 0x13D8 JUMP JUMPDEST DUP1 PUSH1 0x1F ADD PUSH1 0x20 DUP1 SWAP2 DIV MUL PUSH1 0x20 ADD PUSH1 0x40 MLOAD SWAP1 DUP2 ADD PUSH1 0x40 MSTORE DUP1 SWAP3 SWAP2 SWAP1 DUP2 DUP2 MSTORE PUSH1 0x20 ADD DUP3 DUP1 SLOAD PUSH2 0xA2B SWAP1 PUSH2 0x13D8 JUMP JUMPDEST DUP1 ISZERO PUSH2 0xA78 JUMPI DUP1 PUSH1 0x1F LT PUSH2 0xA4D JUMPI PUSH2 0x100 DUP1 DUP4 SLOAD DIV MUL DUP4 MSTORE SWAP2 PUSH1 0x20 ADD SWAP2 PUSH2 0xA78 JUMP JUMPDEST DUP3 ADD SWAP2 SWAP1 PUSH1 0x0 MSTORE PUSH1 0x20 PUSH1 0x0 KECCAK256 SWAP1 JUMPDEST DUP2 SLOAD DUP2 MSTORE SWAP1 PUSH1 0x1 ADD SWAP1 PUSH1 0x20 ADD DUP1 DUP4 GT PUSH2 0xA5B JUMPI DUP3 SWAP1 SUB PUSH1 0x1F AND DUP3 ADD SWAP2 JUMPDEST POP POP POP POP POP PUSH1 0x40 MLOAD DUP1 PUSH1 0x20 ADD PUSH1 0x40 MSTORE DUP1 PUSH1 0x0 DUP2 MSTORE POP PUSH2 0xCE2 JUMP JUMPDEST ISZERO PUSH2 0xAD4 JUMPI PUSH1 0x3 DUP3 SWAP1 DUP1 PUSH1 0x1 DUP2 SLOAD ADD DUP1 DUP3 SSTORE DUP1 SWAP2 POP POP PUSH1 0x1 SWAP1 SUB SWAP1 PUSH1 0x0 MSTORE PUSH1 0x20 PUSH1 0x0 KECCAK256 ADD PUSH1 0x0 SWAP1 SWAP2 SWAP1 SWAP2 SWAP1 SWAP2 POP SWAP1 DUP1 MLOAD SWAP1 PUSH1 0x20 ADD SWAP1 PUSH2 0xAD2 SWAP3 SWAP2 SWAP1 PUSH2 0xCFD JUMP JUMPDEST POP JUMPDEST PUSH1 0x0 PUSH1 0x2 PUSH1 0x0 DUP4 PUSH20 0xFFFFFFFFFFFFFFFFFFFFFFFFFFFFFFFFFFFFFFFF AND PUSH20 0xFFFFFFFFFFFFFFFFFFFFFFFFFFFFFFFFFFFFFFFF AND DUP2 MSTORE PUSH1 0x20 ADD SWAP1 DUP2 MSTORE PUSH1 0x20 ADD PUSH1 0x0 KECCAK256 SWAP1 POP DUP5 DUP2 PUSH1 0x0 ADD SWAP1 DUP1 MLOAD SWAP1 PUSH1 0x20 ADD SWAP1 PUSH2 0xB2F SWAP3 SWAP2 SWAP1 PUSH2 0xCFD JUMP JUMPDEST POP DUP4 DUP2 PUSH1 0x1 ADD SWAP1 DUP1 MLOAD SWAP1 PUSH1 0x20 ADD SWAP1 PUSH2 0xB48 SWAP3 SWAP2 SWAP1 PUSH2 0xCFD JUMP JUMPDEST POP DUP2 DUP2 PUSH1 0x2 ADD PUSH1 0x0 PUSH2 0x100 EXP DUP2 SLOAD DUP2 PUSH20 0xFFFFFFFFFFFFFFFFFFFFFFFFFFFFFFFFFFFFFFFF MUL NOT AND SWAP1 DUP4 PUSH20 0xFFFFFFFFFFFFFFFFFFFFFFFFFFFFFFFFFFFFFFFF AND MUL OR SWAP1 SSTORE POP DUP3 DUP2 PUSH1 0x3 ADD SWAP1 DUP1 MLOAD SWAP1 PUSH1 0x20 ADD SWAP1 PUSH2 0xBA4 SWAP3 SWAP2 SWAP1 PUSH2 0xCFD JUMP JUMPDEST POP PUSH1 0x1 DUP2 PUSH1 0x4 ADD PUSH1 0x0 PUSH2 0x100 EXP DUP2 SLOAD DUP2 PUSH1 0xFF MUL NOT AND SWAP1 DUP4 ISZERO ISZERO MUL OR SWAP1 SSTORE POP PUSH1 0x4 DUP3 SWAP1 DUP1 PUSH1 0x1 DUP2 SLOAD ADD DUP1 DUP3 SSTORE DUP1 SWAP2 POP POP PUSH1 0x1 SWAP1 SUB SWAP1 PUSH1 0x0 MSTORE PUSH1 0x20 PUSH1 0x0 KECCAK256 ADD PUSH1 0x0 SWAP1 SWAP2 SWAP1 SWAP2 SWAP1 SWAP2 PUSH2 0x100 EXP DUP2 SLOAD DUP2 PUSH20 0xFFFFFFFFFFFFFFFFFFFFFFFFFFFFFFFFFFFFFFFF MUL NOT AND SWAP1 DUP4 PUSH20 0xFFFFFFFFFFFFFFFFFFFFFFFFFFFFFFFFFFFFFFFF AND MUL OR SWAP1 SSTORE POP POP POP POP POP POP JUMP JUMPDEST PUSH1 0x0 DUP1 SLOAD SWAP1 PUSH2 0x100 EXP SWAP1 DIV PUSH20 0xFFFFFFFFFFFFFFFFFFFFFFFFFFFFFFFFFFFFFFFF AND PUSH20 0xFFFFFFFFFFFFFFFFFFFFFFFFFFFFFFFFFFFFFFFF AND CALLER PUSH20 0xFFFFFFFFFFFFFFFFFFFFFFFFFFFFFFFFFFFFFFFF AND EQ PUSH2 0xC84 JUMPI PUSH1 0x0 DUP1 REVERT JUMPDEST PUSH1 0x0 PUSH1 0x2 PUSH1 0x0 DUP4 PUSH20 0xFFFFFFFFFFFFFFFFFFFFFFFFFFFFFFFFFFFFFFFF AND PUSH20 0xFFFFFFFFFFFFFFFFFFFFFFFFFFFFFFFFFFFFFFFF AND DUP2 MSTORE PUSH1 0x20 ADD SWAP1 DUP2 MSTORE PUSH1 0x20 ADD PUSH1 0x0 KECCAK256 PUSH1 0x4 ADD PUSH1 0x0 PUSH2 0x100 EXP DUP2 SLOAD DUP2 PUSH1 0xFF MUL NOT AND SWAP1 DUP4 ISZERO ISZERO MUL OR SWAP1 SSTORE POP POP JUMP JUMPDEST PUSH1 0x0 DUP2 DUP1 MLOAD SWAP1 PUSH1 0x20 ADD KECCAK256 DUP4 DUP1 MLOAD SWAP1 PUSH1 0x20 ADD KECCAK256 EQ SWAP1 POP SWAP3 SWAP2 POP POP JUMP JUMPDEST DUP3 DUP1 SLOAD PUSH2 0xD09 SWAP1 PUSH2 0x13D8 JUMP JUMPDEST SWAP1 PUSH1 0x0 MSTORE PUSH1 0x20 PUSH1 0x0 KECCAK256 SWAP1 PUSH1 0x1F ADD PUSH1 0x20 SWAP1 DIV DUP2 ADD SWAP3 DUP3 PUSH2 0xD2B JUMPI PUSH1 0x0 DUP6 SSTORE PUSH2 0xD72 JUMP JUMPDEST DUP3 PUSH1 0x1F LT PUSH2 0xD44 JUMPI DUP1 MLOAD PUSH1 0xFF NOT AND DUP4 DUP1 ADD OR DUP6 SSTORE PUSH2 0xD72 JUMP JUMPDEST DUP3 DUP1 ADD PUSH1 0x1 ADD DUP6 SSTORE DUP3 ISZERO PUSH2 0xD72 JUMPI SWAP2 DUP3 ADD JUMPDEST DUP3 DUP2 GT ISZERO PUSH2 0xD71 JUMPI DUP3 MLOAD DUP3 SSTORE SWAP2 PUSH1 0x20 ADD SWAP2 SWAP1 PUSH1 0x1 ADD SWAP1 PUSH2 0xD56 JUMP JUMPDEST JUMPDEST POP SWAP1 POP PUSH2 0xD7F SWAP2 SWAP1 PUSH2 0xDCA JUMP JUMPDEST POP SWAP1 JUMP JUMPDEST PUSH1 0x40 MLOAD DUP1 PUSH1 0xA0 ADD PUSH1 0x40 MSTORE DUP1 PUSH1 0x60 DUP2 MSTORE PUSH1 0x20 ADD PUSH1 0x60 DUP2 MSTORE PUSH1 0x20 ADD PUSH1 0x0 PUSH20 0xFFFFFFFFFFFFFFFFFFFFFFFFFFFFFFFFFFFFFFFF AND DUP2 MSTORE PUSH1 0x20 ADD PUSH1 0x60 DUP2 MSTORE PUSH1 0x20 ADD PUSH1 0x0 ISZERO ISZERO DUP2 MSTORE POP SWAP1 JUMP JUMPDEST JUMPDEST DUP1 DUP3 GT ISZERO PUSH2 0xDE3 JUMPI PUSH1 0x0 DUP2 PUSH1 0x0 SWAP1 SSTORE POP PUSH1 0x1 ADD PUSH2 0xDCB JUMP JUMPDEST POP SWAP1 JUMP JUMPDEST PUSH1 0x0 PUSH20 0xFFFFFFFFFFFFFFFFFFFFFFFFFFFFFFFFFFFFFFFF DUP3 AND SWAP1 POP SWAP2 SWAP1 POP JUMP JUMPDEST PUSH1 0x0 PUSH2 0xE12 DUP3 PUSH2 0xDE7 JUMP JUMPDEST SWAP1 POP SWAP2 SWAP1 POP JUMP JUMPDEST PUSH2 0xE22 DUP2 PUSH2 0xE07 JUMP JUMPDEST DUP3 MSTORE POP POP JUMP JUMPDEST PUSH1 0x0 PUSH1 0x20 DUP3 ADD SWAP1 POP PUSH2 0xE3D PUSH1 0x0 DUP4 ADD DUP5 PUSH2 0xE19 JUMP JUMPDEST SWAP3 SWAP2 POP POP JUMP JUMPDEST PUSH1 0x0 PUSH1 0x40 MLOAD SWAP1 POP SWAP1 JUMP JUMPDEST PUSH1 0x0 DUP1 REVERT JUMPDEST PUSH1 0x0 DUP1 REVERT JUMPDEST PUSH1 0x0 DUP2 SWAP1 POP SWAP2 SWAP1 POP JUMP JUMPDEST PUSH2 0xE6A DUP2 PUSH2 0xE57 JUMP JUMPDEST DUP2 EQ PUSH2 0xE75 JUMPI PUSH1 0x0 DUP1 REVERT JUMPDEST POP JUMP JUMPDEST PUSH1 0x0 DUP2 CALLDATALOAD SWAP1 POP PUSH2 0xE87 DUP2 PUSH2 0xE61 JUMP JUMPDEST SWAP3 SWAP2 POP POP JUMP JUMPDEST PUSH1 0x0 PUSH1 0x20 DUP3 DUP5 SUB SLT ISZERO PUSH2 0xEA3 JUMPI PUSH2 0xEA2 PUSH2 0xE4D JUMP JUMPDEST JUMPDEST PUSH1 0x0 PUSH2 0xEB1 DUP5 DUP3 DUP6 ADD PUSH2 0xE78 JUMP JUMPDEST SWAP2 POP POP SWAP3 SWAP2 POP POP JUMP JUMPDEST PUSH1 0x0 DUP1 REVERT JUMPDEST PUSH1 0x0 DUP1 REVERT JUMPDEST PUSH1 0x0 PUSH1 0x1F NOT PUSH1 0x1F DUP4 ADD AND SWAP1 POP SWAP2 SWAP1 POP JUMP JUMPDEST PUSH32 0x4E487B7100000000000000000000000000000000000000000000000000000000 PUSH1 0x0 MSTORE PUSH1 0x41 PUSH1 0x4 MSTORE PUSH1 0x24 PUSH1 0x0 REVERT JUMPDEST PUSH2 0xF0D DUP3 PUSH2 0xEC4 JUMP JUMPDEST DUP2 ADD DUP2 DUP2 LT PUSH8 0xFFFFFFFFFFFFFFFF DUP3 GT OR ISZERO PUSH2 0xF2C JUMPI PUSH2 0xF2B PUSH2 0xED5 JUMP JUMPDEST JUMPDEST DUP1 PUSH1 0x40 MSTORE POP POP POP JUMP JUMPDEST PUSH1 0x0 PUSH2 0xF3F PUSH2 0xE43 JUMP JUMPDEST SWAP1 POP PUSH2 0xF4B DUP3 DUP3 PUSH2 0xF04 JUMP JUMPDEST SWAP2 SWAP1 POP JUMP JUMPDEST PUSH1 0x0 PUSH8 0xFFFFFFFFFFFFFFFF DUP3 GT ISZERO PUSH2 0xF6B JUMPI PUSH2 0xF6A PUSH2 0xED5 JUMP JUMPDEST JUMPDEST PUSH2 0xF74 DUP3 PUSH2 0xEC4 JUMP JUMPDEST SWAP1 POP PUSH1 0x20 DUP2 ADD SWAP1 POP SWAP2 SWAP1 POP JUMP JUMPDEST DUP3 DUP2 DUP4 CALLDATACOPY PUSH1 0x0 DUP4 DUP4 ADD MSTORE POP POP POP JUMP JUMPDEST PUSH1 0x0 PUSH2 0xFA3 PUSH2 0xF9E DUP5 PUSH2 0xF50 JUMP JUMPDEST PUSH2 0xF35 JUMP JUMPDEST SWAP1 POP DUP3 DUP2 MSTORE PUSH1 0x20 DUP2 ADD DUP5 DUP5 DUP5 ADD GT ISZERO PUSH2 0xFBF JUMPI PUSH2 0xFBE PUSH2 0xEBF JUMP JUMPDEST JUMPDEST PUSH2 0xFCA DUP5 DUP3 DUP6 PUSH2 0xF81 JUMP JUMPDEST POP SWAP4 SWAP3 POP POP POP JUMP JUMPDEST PUSH1 0x0 DUP3 PUSH1 0x1F DUP4 ADD SLT PUSH2 0xFE7 JUMPI PUSH2 0xFE6 PUSH2 0xEBA JUMP JUMPDEST JUMPDEST DUP2 CALLDATALOAD PUSH2 0xFF7 DUP5 DUP3 PUSH1 0x20 DUP7 ADD PUSH2 0xF90 JUMP JUMPDEST SWAP2 POP POP SWAP3 SWAP2 POP POP JUMP JUMPDEST PUSH2 0x1009 DUP2 PUSH2 0xE07 JUMP JUMPDEST DUP2 EQ PUSH2 0x1014 JUMPI PUSH1 0x0 DUP1 REVERT JUMPDEST POP JUMP JUMPDEST PUSH1 0x0 DUP2 CALLDATALOAD SWAP1 POP PUSH2 0x1026 DUP2 PUSH2 0x1000 JUMP JUMPDEST SWAP3 SWAP2 POP POP JUMP JUMPDEST PUSH1 0x0 DUP1 PUSH1 0x0 DUP1 PUSH1 0x80 DUP6 DUP8 SUB SLT ISZERO PUSH2 0x1046 JUMPI PUSH2 0x1045 PUSH2 0xE4D JUMP JUMPDEST JUMPDEST PUSH1 0x0 DUP6 ADD CALLDATALOAD PUSH8 0xFFFFFFFFFFFFFFFF DUP2 GT ISZERO PUSH2 0x1064 JUMPI PUSH2 0x1063 PUSH2 0xE52 JUMP JUMPDEST JUMPDEST PUSH2 0x1070 DUP8 DUP3 DUP9 ADD PUSH2 0xFD2 JUMP JUMPDEST SWAP5 POP POP PUSH1 0x20 DUP6 ADD CALLDATALOAD PUSH8 0xFFFFFFFFFFFFFFFF DUP2 GT ISZERO PUSH2 0x1091 JUMPI PUSH2 0x1090 PUSH2 0xE52 JUMP JUMPDEST JUMPDEST PUSH2 0x109D DUP8 DUP3 DUP9 ADD PUSH2 0xFD2 JUMP JUMPDEST SWAP4 POP POP PUSH1 0x40 DUP6 ADD CALLDATALOAD PUSH8 0xFFFFFFFFFFFFFFFF DUP2 GT ISZERO PUSH2 0x10BE JUMPI PUSH2 0x10BD PUSH2 0xE52 JUMP JUMPDEST JUMPDEST PUSH2 0x10CA DUP8 DUP3 DUP9 ADD PUSH2 0xFD2 JUMP JUMPDEST SWAP3 POP POP PUSH1 0x60 PUSH2 0x10DB DUP8 DUP3 DUP9 ADD PUSH2 0x1017 JUMP JUMPDEST SWAP2 POP POP SWAP3 SWAP6 SWAP2 SWAP5 POP SWAP3 POP JUMP JUMPDEST PUSH1 0x0 PUSH1 0x20 DUP3 DUP5 SUB SLT ISZERO PUSH2 0x10FD JUMPI PUSH2 0x10FC PUSH2 0xE4D JUMP JUMPDEST JUMPDEST PUSH1 0x0 PUSH2 0x110B DUP5 DUP3 DUP6 ADD PUSH2 0x1017 JUMP JUMPDEST SWAP2 POP POP SWAP3 SWAP2 POP POP JUMP JUMPDEST PUSH1 0x0 DUP2 MLOAD SWAP1 POP SWAP2 SWAP1 POP JUMP JUMPDEST PUSH1 0x0 DUP3 DUP3 MSTORE PUSH1 0x20 DUP3 ADD SWAP1 POP SWAP3 SWAP2 POP POP JUMP JUMPDEST PUSH1 0x0 JUMPDEST DUP4 DUP2 LT ISZERO PUSH2 0x114E JUMPI DUP1 DUP3 ADD MLOAD DUP2 DUP5 ADD MSTORE PUSH1 0x20 DUP2 ADD SWAP1 POP PUSH2 0x1133 JUMP JUMPDEST DUP4 DUP2 GT ISZERO PUSH2 0x115D JUMPI PUSH1 0x0 DUP5 DUP5 ADD MSTORE JUMPDEST POP POP POP POP JUMP JUMPDEST PUSH1 0x0 PUSH2 0x116E DUP3 PUSH2 0x1114 JUMP JUMPDEST PUSH2 0x1178 DUP2 DUP6 PUSH2 0x111F JUMP JUMPDEST SWAP4 POP PUSH2 0x1188 DUP2 DUP6 PUSH1 0x20 DUP7 ADD PUSH2 0x1130 JUMP JUMPDEST PUSH2 0x1191 DUP2 PUSH2 0xEC4 JUMP JUMPDEST DUP5 ADD SWAP2 POP POP SWAP3 SWAP2 POP POP JUMP JUMPDEST PUSH1 0x0 PUSH1 0x20 DUP3 ADD SWAP1 POP DUP2 DUP2 SUB PUSH1 0x0 DUP4 ADD MSTORE PUSH2 0x11B6 DUP2 DUP5 PUSH2 0x1163 JUMP JUMPDEST SWAP1 POP SWAP3 SWAP2 POP POP JUMP JUMPDEST PUSH1 0x0 DUP2 MLOAD SWAP1 POP SWAP2 SWAP1 POP JUMP JUMPDEST PUSH1 0x0 DUP3 DUP3 MSTORE PUSH1 0x20 DUP3 ADD SWAP1 POP SWAP3 SWAP2 POP POP JUMP JUMPDEST PUSH1 0x0 DUP2 SWAP1 POP PUSH1 0x20 DUP3 ADD SWAP1 POP SWAP2 SWAP1 POP JUMP JUMPDEST PUSH2 0x11F3 DUP2 PUSH2 0xE07 JUMP JUMPDEST DUP3 MSTORE POP POP JUMP JUMPDEST PUSH1 0x0 PUSH2 0x1205 DUP4 DUP4 PUSH2 0x11EA JUMP JUMPDEST PUSH1 0x20 DUP4 ADD SWAP1 POP SWAP3 SWAP2 POP POP JUMP JUMPDEST PUSH1 0x0 PUSH1 0x20 DUP3 ADD SWAP1 POP SWAP2 SWAP1 POP JUMP JUMPDEST PUSH1 0x0 PUSH2 0x1229 DUP3 PUSH2 0x11BE JUMP JUMPDEST PUSH2 0x1233 DUP2 DUP6 PUSH2 0x11C9 JUMP JUMPDEST SWAP4 POP PUSH2 0x123E DUP4 PUSH2 0x11DA JUMP JUMPDEST DUP1 PUSH1 0x0 JUMPDEST DUP4 DUP2 LT ISZERO PUSH2 0x126F JUMPI DUP2 MLOAD PUSH2 0x1256 DUP9 DUP3 PUSH2 0x11F9 JUMP JUMPDEST SWAP8 POP PUSH2 0x1261 DUP4 PUSH2 0x1211 JUMP JUMPDEST SWAP3 POP POP PUSH1 0x1 DUP2 ADD SWAP1 POP PUSH2 0x1242 JUMP JUMPDEST POP DUP6 SWAP4 POP POP POP POP SWAP3 SWAP2 POP POP JUMP JUMPDEST PUSH1 0x0 PUSH1 0x20 DUP3 ADD SWAP1 POP DUP2 DUP2 SUB PUSH1 0x0 DUP4 ADD MSTORE PUSH2 0x1296 DUP2 DUP5 PUSH2 0x121E JUMP JUMPDEST SWAP1 POP SWAP3 SWAP2 POP POP JUMP JUMPDEST PUSH1 0x0 DUP3 DUP3 MSTORE PUSH1 0x20 DUP3 ADD SWAP1 POP SWAP3 SWAP2 POP POP JUMP JUMPDEST PUSH1 0x0 PUSH2 0x12BA DUP3 PUSH2 0x1114 JUMP JUMPDEST PUSH2 0x12C4 DUP2 DUP6 PUSH2 0x129E JUMP JUMPDEST SWAP4 POP PUSH2 0x12D4 DUP2 DUP6 PUSH1 0x20 DUP7 ADD PUSH2 0x1130 JUMP JUMPDEST PUSH2 0x12DD DUP2 PUSH2 0xEC4 JUMP JUMPDEST DUP5 ADD SWAP2 POP POP SWAP3 SWAP2 POP POP JUMP JUMPDEST PUSH1 0x0 DUP2 ISZERO ISZERO SWAP1 POP SWAP2 SWAP1 POP JUMP JUMPDEST PUSH2 0x12FD DUP2 PUSH2 0x12E8 JUMP JUMPDEST DUP3 MSTORE POP POP JUMP JUMPDEST PUSH1 0x0 PUSH1 0xA0 DUP4 ADD PUSH1 0x0 DUP4 ADD MLOAD DUP5 DUP3 SUB PUSH1 0x0 DUP7 ADD MSTORE PUSH2 0x1320 DUP3 DUP3 PUSH2 0x12AF JUMP JUMPDEST SWAP2 POP POP PUSH1 0x20 DUP4 ADD MLOAD DUP5 DUP3 SUB PUSH1 0x20 DUP7 ADD MSTORE PUSH2 0x133A DUP3 DUP3 PUSH2 0x12AF JUMP JUMPDEST SWAP2 POP POP PUSH1 0x40 DUP4 ADD MLOAD PUSH2 0x134F PUSH1 0x40 DUP7 ADD DUP3 PUSH2 0x11EA JUMP JUMPDEST POP PUSH1 0x60 DUP4 ADD MLOAD DUP5 DUP3 SUB PUSH1 0x60 DUP7 ADD MSTORE PUSH2 0x1367 DUP3 DUP3 PUSH2 0x12AF JUMP JUMPDEST SWAP2 POP POP PUSH1 0x80 DUP4 ADD MLOAD PUSH2 0x137C PUSH1 0x80 DUP7 ADD DUP3 PUSH2 0x12F4 JUMP JUMPDEST POP DUP1 SWAP2 POP POP SWAP3 SWAP2 POP POP JUMP JUMPDEST PUSH1 0x0 PUSH1 0x20 DUP3 ADD SWAP1 POP DUP2 DUP2 SUB PUSH1 0x0 DUP4 ADD MSTORE PUSH2 0x13A1 DUP2 DUP5 PUSH2 0x1303 JUMP JUMPDEST SWAP1 POP SWAP3 SWAP2 POP POP JUMP JUMPDEST PUSH32 0x4E487B7100000000000000000000000000000000000000000000000000000000 PUSH1 0x0 MSTORE PUSH1 0x22 PUSH1 0x4 MSTORE PUSH1 0x24 PUSH1 0x0 REVERT JUMPDEST PUSH1 0x0 PUSH1 0x2 DUP3 DIV SWAP1 POP PUSH1 0x1 DUP3 AND DUP1 PUSH2 0x13F0 JUMPI PUSH1 0x7F DUP3 AND SWAP2 POP JUMPDEST PUSH1 0x20 DUP3 LT DUP2 EQ ISZERO PUSH2 0x1404 JUMPI PUSH2 0x1403 PUSH2 0x13A9 JUMP JUMPDEST JUMPDEST POP SWAP2 SWAP1 POP JUMP INVALID LOG2 PUSH5 0x6970667358 0x22 SLT KECCAK256 0x2E 0x49 DUP5 0xEA SDIV 0x28 0xCE 0xE8 MOD 0xF7 0xE0 SUB CALLVALUE LOG4 TIMESTAMP PUSH12 0xB983F1200B10116F9CB982BC MUL PUSH2 0x2BDD PUSH5 0x736F6C6343 STOP ADDMOD EXP STOP CALLER "},"gasEstimates":{"creation":{"codeDepositCost":"1036800","executionCost":"infinite","totalCost":"infinite"},"external":{"activateAdmin(address)":"27052","addAdmin(string,string,string,address)":"infinite","adminsAdresses(uint256)":"4979","counties(uint256)":"infinite","deactivateAdmin(address)":"27073","editAdmin(string,string,string,address)":"infinite","getAdmin(address)":"infinite","getAdminAddresses()":"infinite","getSuperAdminPassword()":"infinite","superAdminAddress()":"2512"},"internal":{"equal(string memory,string memory)":"infinite"}},"methodIdentifiers":{"activateAdmin(address)":"1af1a768","addAdmin(string,string,string,address)":"cddb61b7","adminsAdresses(uint256)":"13718c97","counties(uint256)":"2a979f31","deactivateAdmin(address)":"df6fa20e","editAdmin(string,string,string,address)":"1510f0d5","getAdmin(address)":"64efb22b","getAdminAddresses()":"64ddfa29","getSuperAdminPassword()":"2de8f46d","superAdminAddress()":"045b3034"}},"storageLayout":{"storage":[{"astId":14,"contract":"LandRegistration.sol:LandRegistration","label":"superAdminAddress","offset":0,"slot":"0","type":"t_address"},{"astId":16,"contract":"LandRegistration.sol:LandRegistration","label":"superAdminPassword","offset":0,"slot":"1","type":"t_string_storage"},{"astId":21,"contract":"LandRegistration.sol:LandRegistration","label":"admins","offset":0,"slot":"2","type":"t_mapping(t_address,t_struct(Admin)12_storage)"},{"astId":24,"contract":"LandRegistration.sol:LandRegistration","label":"counties","offset":0,"slot":"3","type":"t_array(t_string_storage)dyn_storage"},{"astId":27,"contract":"LandRegistration.sol:LandRegistration","label":"adminsAdresses","offset":0,"slot":"4","type":"t_array(t_address)dyn_storage"}],"types":{"t_address":{"encoding":"inplace","label":"address","numberOfBytes":"20"},"t_array(t_address)dyn_storage":{"base":"t_address","encoding":"dynamic_array","label":"address[]","numberOfBytes":"32"},"t_array(t_string_storage)dyn_storage":{"base":"t_string_storage","encoding":"dynamic_array","label":"string[]","numberOfBytes":"32"},"t_bool":{"encoding":"inplace","label":"bool","numberOfBytes":"1"},"t_mapping(t_address,t_struct(Admin)12_storage)":{"encoding":"mapping","key":"t_address","label":"mapping(address => struct LandRegistration.Admin)","numberOfBytes":"32","value":"t_struct(Admin)12_storage"},"t_string_storage":{"encoding":"bytes","label":"string","numberOfBytes":"32"},"t_struct(Admin)12_storage":{"encoding":"inplace","label":"struct LandRegistration.Admin","members":[{"astId":3,"contract":"LandRegistration.sol:LandRegistration","label":"firstName","offset":0,"slot":"0","type":"t_string_storage"},{"astId":5,"contract":"LandRegistration.sol:LandRegistration","label":"lastName","offset":0,"slot":"1","type":"t_string_storage"},{"astId":7,"contract":"LandRegistration.sol:LandRegistration","label":"adminAddress","offset":0,"slot":"2","type":"t_address"},{"astId":9,"contract":"LandRegistration.sol:LandRegistration","label":"county","offset":0,"slot":"3","type":"t_string_storage"},{"astId":11,"contract":"LandRegistration.sol:LandRegistration","label":"active","offset":0,"slot":"4","type":"t_bool"}],"numberOfBytes":"160"}}},"userdoc":{"kind":"user","methods":{},"version":1}}