{"abi":[{"inputs":[{"internalType":"string","name":"password","type":"string"}],"stateMutability":"nonpayable","type":"constructor"},{"inputs":[{"internalType":"address","name":"adminAddress","type":"address"}],"name":"activateAdmin","outputs":[],"stateMutability":"nonpayable","type":"function"},{"inputs":[{"internalType":"string","name":"firstName","type":"string"},{"internalType":"string","name":"lastName","type":"string"},{"internalType":"string","name":"county","type":"string"},{"internalType":"address","name":"adminAddress","type":"address"}],"name":"addAdmin","outputs":[],"stateMutability":"nonpayable","type":"function"},{"inputs":[{"internalType":"uint256","name":"","type":"uint256"}],"name":"adminsAdresses","outputs":[{"internalType":"address","name":"","type":"address"}],"stateMutability":"view","type":"function"},{"inputs":[{"internalType":"uint256","name":"","type":"uint256"}],"name":"counties","outputs":[{"internalType":"string","name":"","type":"string"}],"stateMutability":"view","type":"function"},{"inputs":[{"internalType":"address","name":"adminAddress","type":"address"}],"name":"deactivateAdmin","outputs":[],"stateMutability":"nonpayable","type":"function"},{"inputs":[{"internalType":"address","name":"adminAddress","type":"address"}],"name":"getAdmin","outputs":[{"components":[{"internalType":"string","name":"firstName","type":"string"},{"internalType":"string","name":"lastName","type":"string"},{"internalType":"address","name":"adminAddress","type":"address"},{"internalType":"string","name":"county","type":"string"},{"internalType":"bool","name":"active","type":"bool"}],"internalType":"struct LandRegistration.Admin","name":"","type":"tuple"}],"stateMutability":"view","type":"function"},{"inputs":[],"name":"getAdminAddresses","outputs":[{"internalType":"address[]","name":"","type":"address[]"}],"stateMutability":"view","type":"function"},{"inputs":[],"name":"getSuperAdminPassword","outputs":[{"internalType":"string","name":"","type":"string"}],"stateMutability":"view","type":"function"},{"inputs":[],"name":"superAdminAddress","outputs":[{"internalType":"address","name":"","type":"address"}],"stateMutability":"view","type":"function"}],"devdoc":{"kind":"dev","methods":{},"version":1},"evm":{"assembly":"    /* \"LandRegistration.sol\":37:2087  contract LandRegistration {... */\n  mstore(0x40, 0x80)\n    /* \"LandRegistration.sol\":421:546  constructor(string memory password) {... */\n  callvalue\n  dup1\n  iszero\n  tag_1\n  jumpi\n  0x00\n  dup1\n  revert\ntag_1:\n  pop\n  mload(0x40)\n  sub(codesize, bytecodeSize)\n  dup1\n  bytecodeSize\n  dup4\n  codecopy\n  dup2\n  dup2\n  add\n  0x40\n  mstore\n  dup2\n  add\n  swap1\n  tag_2\n  swap2\n  swap1\n  tag_3\n  jump\t// in\ntag_2:\n    /* \"LandRegistration.sol\":489:497  password */\n  dup1\n    /* \"LandRegistration.sol\":468:486  superAdminPassword */\n  0x01\n    /* \"LandRegistration.sol\":468:497  superAdminPassword = password */\n  swap1\n  dup1\n  mload\n  swap1\n  0x20\n  add\n  swap1\n  tag_6\n  swap3\n  swap2\n  swap1\n  tag_7\n  jump\t// in\ntag_6:\n  pop\n    /* \"LandRegistration.sol\":528:538  msg.sender */\n  caller\n    /* \"LandRegistration.sol\":508:525  superAdminAddress */\n  0x00\n  dup1\n    /* \"LandRegistration.sol\":508:538  superAdminAddress = msg.sender */\n  0x0100\n  exp\n  dup2\n  sload\n  dup2\n  0xffffffffffffffffffffffffffffffffffffffff\n  mul\n  not\n  and\n  swap1\n  dup4\n  0xffffffffffffffffffffffffffffffffffffffff\n  and\n  mul\n  or\n  swap1\n  sstore\n  pop\n    /* \"LandRegistration.sol\":421:546  constructor(string memory password) {... */\n  pop\n    /* \"LandRegistration.sol\":37:2087  contract LandRegistration {... */\n  jump(tag_8)\ntag_7:\n  dup3\n  dup1\n  sload\n  tag_9\n  swap1\n  tag_10\n  jump\t// in\ntag_9:\n  swap1\n  0x00\n  mstore\n  keccak256(0x00, 0x20)\n  swap1\n  0x1f\n  add\n  0x20\n  swap1\n  div\n  dup2\n  add\n  swap3\n  dup3\n  tag_12\n  jumpi\n  0x00\n  dup6\n  sstore\n  jump(tag_11)\ntag_12:\n  dup3\n  0x1f\n  lt\n  tag_13\n  jumpi\n  dup1\n  mload\n  not(0xff)\n  and\n  dup4\n  dup1\n  add\n  or\n  dup6\n  sstore\n  jump(tag_11)\ntag_13:\n  dup3\n  dup1\n  add\n  0x01\n  add\n  dup6\n  sstore\n  dup3\n  iszero\n  tag_11\n  jumpi\n  swap2\n  dup3\n  add\ntag_14:\n  dup3\n  dup2\n  gt\n  iszero\n  tag_15\n  jumpi\n  dup3\n  mload\n  dup3\n  sstore\n  swap2\n  0x20\n  add\n  swap2\n  swap1\n  0x01\n  add\n  swap1\n  jump(tag_14)\ntag_15:\ntag_11:\n  pop\n  swap1\n  pop\n  tag_16\n  swap2\n  swap1\n  tag_17\n  jump\t// in\ntag_16:\n  pop\n  swap1\n  jump\t// out\ntag_17:\ntag_18:\n  dup1\n  dup3\n  gt\n  iszero\n  tag_19\n  jumpi\n  0x00\n  dup2\n  0x00\n  swap1\n  sstore\n  pop\n  0x01\n  add\n  jump(tag_18)\ntag_19:\n  pop\n  swap1\n  jump\t// out\n    /* \"#utility.yul\":7:82   */\ntag_20:\n    /* \"#utility.yul\":40:46   */\n  0x00\n    /* \"#utility.yul\":73:75   */\n  0x40\n    /* \"#utility.yul\":67:76   */\n  mload\n    /* \"#utility.yul\":57:76   */\n  swap1\n  pop\n    /* \"#utility.yul\":7:82   */\n  swap1\n  jump\t// out\n    /* \"#utility.yul\":88:205   */\ntag_21:\n    /* \"#utility.yul\":197:198   */\n  0x00\n    /* \"#utility.yul\":194:195   */\n  dup1\n    /* \"#utility.yul\":187:199   */\n  revert\n    /* \"#utility.yul\":211:328   */\ntag_22:\n    /* \"#utility.yul\":320:321   */\n  0x00\n    /* \"#utility.yul\":317:318   */\n  dup1\n    /* \"#utility.yul\":310:322   */\n  revert\n    /* \"#utility.yul\":334:451   */\ntag_23:\n    /* \"#utility.yul\":443:444   */\n  0x00\n    /* \"#utility.yul\":440:441   */\n  dup1\n    /* \"#utility.yul\":433:445   */\n  revert\n    /* \"#utility.yul\":457:574   */\ntag_24:\n    /* \"#utility.yul\":566:567   */\n  0x00\n    /* \"#utility.yul\":563:564   */\n  dup1\n    /* \"#utility.yul\":556:568   */\n  revert\n    /* \"#utility.yul\":580:682   */\ntag_25:\n    /* \"#utility.yul\":621:627   */\n  0x00\n    /* \"#utility.yul\":672:674   */\n  0x1f\n    /* \"#utility.yul\":668:675   */\n  not\n    /* \"#utility.yul\":663:665   */\n  0x1f\n    /* \"#utility.yul\":656:661   */\n  dup4\n    /* \"#utility.yul\":652:666   */\n  add\n    /* \"#utility.yul\":648:676   */\n  and\n    /* \"#utility.yul\":638:676   */\n  swap1\n  pop\n    /* \"#utility.yul\":580:682   */\n  swap2\n  swap1\n  pop\n  jump\t// out\n    /* \"#utility.yul\":688:868   */\ntag_26:\n    /* \"#utility.yul\":736:813   */\n  0x4e487b7100000000000000000000000000000000000000000000000000000000\n    /* \"#utility.yul\":733:734   */\n  0x00\n    /* \"#utility.yul\":726:814   */\n  mstore\n    /* \"#utility.yul\":833:837   */\n  0x41\n    /* \"#utility.yul\":830:831   */\n  0x04\n    /* \"#utility.yul\":823:838   */\n  mstore\n    /* \"#utility.yul\":857:861   */\n  0x24\n    /* \"#utility.yul\":854:855   */\n  0x00\n    /* \"#utility.yul\":847:862   */\n  revert\n    /* \"#utility.yul\":874:1155   */\ntag_27:\n    /* \"#utility.yul\":957:984   */\n  tag_43\n    /* \"#utility.yul\":979:983   */\n  dup3\n    /* \"#utility.yul\":957:984   */\n  tag_25\n  jump\t// in\ntag_43:\n    /* \"#utility.yul\":949:955   */\n  dup2\n    /* \"#utility.yul\":945:985   */\n  add\n    /* \"#utility.yul\":1087:1093   */\n  dup2\n    /* \"#utility.yul\":1075:1085   */\n  dup2\n    /* \"#utility.yul\":1072:1094   */\n  lt\n    /* \"#utility.yul\":1051:1069   */\n  0xffffffffffffffff\n    /* \"#utility.yul\":1039:1049   */\n  dup3\n    /* \"#utility.yul\":1036:1070   */\n  gt\n    /* \"#utility.yul\":1033:1095   */\n  or\n    /* \"#utility.yul\":1030:1118   */\n  iszero\n  tag_44\n  jumpi\n    /* \"#utility.yul\":1098:1116   */\n  tag_45\n  tag_26\n  jump\t// in\ntag_45:\n    /* \"#utility.yul\":1030:1118   */\ntag_44:\n    /* \"#utility.yul\":1138:1148   */\n  dup1\n    /* \"#utility.yul\":1134:1136   */\n  0x40\n    /* \"#utility.yul\":1127:1149   */\n  mstore\n    /* \"#utility.yul\":917:1155   */\n  pop\n    /* \"#utility.yul\":874:1155   */\n  pop\n  pop\n  jump\t// out\n    /* \"#utility.yul\":1161:1290   */\ntag_28:\n    /* \"#utility.yul\":1195:1201   */\n  0x00\n    /* \"#utility.yul\":1222:1242   */\n  tag_47\n  tag_20\n  jump\t// in\ntag_47:\n    /* \"#utility.yul\":1212:1242   */\n  swap1\n  pop\n    /* \"#utility.yul\":1251:1284   */\n  tag_48\n    /* \"#utility.yul\":1279:1283   */\n  dup3\n    /* \"#utility.yul\":1271:1277   */\n  dup3\n    /* \"#utility.yul\":1251:1284   */\n  tag_27\n  jump\t// in\ntag_48:\n    /* \"#utility.yul\":1161:1290   */\n  swap2\n  swap1\n  pop\n  jump\t// out\n    /* \"#utility.yul\":1296:1604   */\ntag_29:\n    /* \"#utility.yul\":1358:1362   */\n  0x00\n    /* \"#utility.yul\":1448:1466   */\n  0xffffffffffffffff\n    /* \"#utility.yul\":1440:1446   */\n  dup3\n    /* \"#utility.yul\":1437:1467   */\n  gt\n    /* \"#utility.yul\":1434:1490   */\n  iszero\n  tag_50\n  jumpi\n    /* \"#utility.yul\":1470:1488   */\n  tag_51\n  tag_26\n  jump\t// in\ntag_51:\n    /* \"#utility.yul\":1434:1490   */\ntag_50:\n    /* \"#utility.yul\":1508:1537   */\n  tag_52\n    /* \"#utility.yul\":1530:1536   */\n  dup3\n    /* \"#utility.yul\":1508:1537   */\n  tag_25\n  jump\t// in\ntag_52:\n    /* \"#utility.yul\":1500:1537   */\n  swap1\n  pop\n    /* \"#utility.yul\":1592:1596   */\n  0x20\n    /* \"#utility.yul\":1586:1590   */\n  dup2\n    /* \"#utility.yul\":1582:1597   */\n  add\n    /* \"#utility.yul\":1574:1597   */\n  swap1\n  pop\n    /* \"#utility.yul\":1296:1604   */\n  swap2\n  swap1\n  pop\n  jump\t// out\n    /* \"#utility.yul\":1610:1917   */\ntag_30:\n    /* \"#utility.yul\":1678:1679   */\n  0x00\n    /* \"#utility.yul\":1688:1801   */\ntag_54:\n    /* \"#utility.yul\":1702:1708   */\n  dup4\n    /* \"#utility.yul\":1699:1700   */\n  dup2\n    /* \"#utility.yul\":1696:1709   */\n  lt\n    /* \"#utility.yul\":1688:1801   */\n  iszero\n  tag_56\n  jumpi\n    /* \"#utility.yul\":1787:1788   */\n  dup1\n    /* \"#utility.yul\":1782:1785   */\n  dup3\n    /* \"#utility.yul\":1778:1789   */\n  add\n    /* \"#utility.yul\":1772:1790   */\n  mload\n    /* \"#utility.yul\":1768:1769   */\n  dup2\n    /* \"#utility.yul\":1763:1766   */\n  dup5\n    /* \"#utility.yul\":1759:1770   */\n  add\n    /* \"#utility.yul\":1752:1791   */\n  mstore\n    /* \"#utility.yul\":1724:1726   */\n  0x20\n    /* \"#utility.yul\":1721:1722   */\n  dup2\n    /* \"#utility.yul\":1717:1727   */\n  add\n    /* \"#utility.yul\":1712:1727   */\n  swap1\n  pop\n    /* \"#utility.yul\":1688:1801   */\n  jump(tag_54)\ntag_56:\n    /* \"#utility.yul\":1819:1825   */\n  dup4\n    /* \"#utility.yul\":1816:1817   */\n  dup2\n    /* \"#utility.yul\":1813:1826   */\n  gt\n    /* \"#utility.yul\":1810:1911   */\n  iszero\n  tag_57\n  jumpi\n    /* \"#utility.yul\":1899:1900   */\n  0x00\n    /* \"#utility.yul\":1890:1896   */\n  dup5\n    /* \"#utility.yul\":1885:1888   */\n  dup5\n    /* \"#utility.yul\":1881:1897   */\n  add\n    /* \"#utility.yul\":1874:1901   */\n  mstore\n    /* \"#utility.yul\":1810:1911   */\ntag_57:\n    /* \"#utility.yul\":1659:1917   */\n  pop\n    /* \"#utility.yul\":1610:1917   */\n  pop\n  pop\n  pop\n  jump\t// out\n    /* \"#utility.yul\":1923:2344   */\ntag_31:\n    /* \"#utility.yul\":2012:2017   */\n  0x00\n    /* \"#utility.yul\":2037:2103   */\n  tag_59\n    /* \"#utility.yul\":2053:2102   */\n  tag_60\n    /* \"#utility.yul\":2095:2101   */\n  dup5\n    /* \"#utility.yul\":2053:2102   */\n  tag_29\n  jump\t// in\ntag_60:\n    /* \"#utility.yul\":2037:2103   */\n  tag_28\n  jump\t// in\ntag_59:\n    /* \"#utility.yul\":2028:2103   */\n  swap1\n  pop\n    /* \"#utility.yul\":2126:2132   */\n  dup3\n    /* \"#utility.yul\":2119:2124   */\n  dup2\n    /* \"#utility.yul\":2112:2133   */\n  mstore\n    /* \"#utility.yul\":2164:2168   */\n  0x20\n    /* \"#utility.yul\":2157:2162   */\n  dup2\n    /* \"#utility.yul\":2153:2169   */\n  add\n    /* \"#utility.yul\":2202:2205   */\n  dup5\n    /* \"#utility.yul\":2193:2199   */\n  dup5\n    /* \"#utility.yul\":2188:2191   */\n  dup5\n    /* \"#utility.yul\":2184:2200   */\n  add\n    /* \"#utility.yul\":2181:2206   */\n  gt\n    /* \"#utility.yul\":2178:2290   */\n  iszero\n  tag_61\n  jumpi\n    /* \"#utility.yul\":2209:2288   */\n  tag_62\n  tag_24\n  jump\t// in\ntag_62:\n    /* \"#utility.yul\":2178:2290   */\ntag_61:\n    /* \"#utility.yul\":2299:2338   */\n  tag_63\n    /* \"#utility.yul\":2331:2337   */\n  dup5\n    /* \"#utility.yul\":2326:2329   */\n  dup3\n    /* \"#utility.yul\":2321:2324   */\n  dup6\n    /* \"#utility.yul\":2299:2338   */\n  tag_30\n  jump\t// in\ntag_63:\n    /* \"#utility.yul\":2018:2344   */\n  pop\n    /* \"#utility.yul\":1923:2344   */\n  swap4\n  swap3\n  pop\n  pop\n  pop\n  jump\t// out\n    /* \"#utility.yul\":2364:2719   */\ntag_32:\n    /* \"#utility.yul\":2431:2436   */\n  0x00\n    /* \"#utility.yul\":2480:2483   */\n  dup3\n    /* \"#utility.yul\":2473:2477   */\n  0x1f\n    /* \"#utility.yul\":2465:2471   */\n  dup4\n    /* \"#utility.yul\":2461:2478   */\n  add\n    /* \"#utility.yul\":2457:2484   */\n  slt\n    /* \"#utility.yul\":2447:2569   */\n  tag_65\n  jumpi\n    /* \"#utility.yul\":2488:2567   */\n  tag_66\n  tag_23\n  jump\t// in\ntag_66:\n    /* \"#utility.yul\":2447:2569   */\ntag_65:\n    /* \"#utility.yul\":2598:2604   */\n  dup2\n    /* \"#utility.yul\":2592:2605   */\n  mload\n    /* \"#utility.yul\":2623:2713   */\n  tag_67\n    /* \"#utility.yul\":2709:2712   */\n  dup5\n    /* \"#utility.yul\":2701:2707   */\n  dup3\n    /* \"#utility.yul\":2694:2698   */\n  0x20\n    /* \"#utility.yul\":2686:2692   */\n  dup7\n    /* \"#utility.yul\":2682:2699   */\n  add\n    /* \"#utility.yul\":2623:2713   */\n  tag_31\n  jump\t// in\ntag_67:\n    /* \"#utility.yul\":2614:2713   */\n  swap2\n  pop\n    /* \"#utility.yul\":2437:2719   */\n  pop\n    /* \"#utility.yul\":2364:2719   */\n  swap3\n  swap2\n  pop\n  pop\n  jump\t// out\n    /* \"#utility.yul\":2725:3249   */\ntag_3:\n    /* \"#utility.yul\":2805:2811   */\n  0x00\n    /* \"#utility.yul\":2854:2856   */\n  0x20\n    /* \"#utility.yul\":2842:2851   */\n  dup3\n    /* \"#utility.yul\":2833:2840   */\n  dup5\n    /* \"#utility.yul\":2829:2852   */\n  sub\n    /* \"#utility.yul\":2825:2857   */\n  slt\n    /* \"#utility.yul\":2822:2941   */\n  iszero\n  tag_69\n  jumpi\n    /* \"#utility.yul\":2860:2939   */\n  tag_70\n  tag_21\n  jump\t// in\ntag_70:\n    /* \"#utility.yul\":2822:2941   */\ntag_69:\n    /* \"#utility.yul\":3001:3002   */\n  0x00\n    /* \"#utility.yul\":2990:2999   */\n  dup3\n    /* \"#utility.yul\":2986:3003   */\n  add\n    /* \"#utility.yul\":2980:3004   */\n  mload\n    /* \"#utility.yul\":3031:3049   */\n  0xffffffffffffffff\n    /* \"#utility.yul\":3023:3029   */\n  dup2\n    /* \"#utility.yul\":3020:3050   */\n  gt\n    /* \"#utility.yul\":3017:3134   */\n  iszero\n  tag_71\n  jumpi\n    /* \"#utility.yul\":3053:3132   */\n  tag_72\n  tag_22\n  jump\t// in\ntag_72:\n    /* \"#utility.yul\":3017:3134   */\ntag_71:\n    /* \"#utility.yul\":3158:3232   */\n  tag_73\n    /* \"#utility.yul\":3224:3231   */\n  dup5\n    /* \"#utility.yul\":3215:3221   */\n  dup3\n    /* \"#utility.yul\":3204:3213   */\n  dup6\n    /* \"#utility.yul\":3200:3222   */\n  add\n    /* \"#utility.yul\":3158:3232   */\n  tag_32\n  jump\t// in\ntag_73:\n    /* \"#utility.yul\":3148:3232   */\n  swap2\n  pop\n    /* \"#utility.yul\":2951:3242   */\n  pop\n    /* \"#utility.yul\":2725:3249   */\n  swap3\n  swap2\n  pop\n  pop\n  jump\t// out\n    /* \"#utility.yul\":3255:3435   */\ntag_33:\n    /* \"#utility.yul\":3303:3380   */\n  0x4e487b7100000000000000000000000000000000000000000000000000000000\n    /* \"#utility.yul\":3300:3301   */\n  0x00\n    /* \"#utility.yul\":3293:3381   */\n  mstore\n    /* \"#utility.yul\":3400:3404   */\n  0x22\n    /* \"#utility.yul\":3397:3398   */\n  0x04\n    /* \"#utility.yul\":3390:3405   */\n  mstore\n    /* \"#utility.yul\":3424:3428   */\n  0x24\n    /* \"#utility.yul\":3421:3422   */\n  0x00\n    /* \"#utility.yul\":3414:3429   */\n  revert\n    /* \"#utility.yul\":3441:3761   */\ntag_10:\n    /* \"#utility.yul\":3485:3491   */\n  0x00\n    /* \"#utility.yul\":3522:3523   */\n  0x02\n    /* \"#utility.yul\":3516:3520   */\n  dup3\n    /* \"#utility.yul\":3512:3524   */\n  div\n    /* \"#utility.yul\":3502:3524   */\n  swap1\n  pop\n    /* \"#utility.yul\":3569:3570   */\n  0x01\n    /* \"#utility.yul\":3563:3567   */\n  dup3\n    /* \"#utility.yul\":3559:3571   */\n  and\n    /* \"#utility.yul\":3590:3608   */\n  dup1\n    /* \"#utility.yul\":3580:3661   */\n  tag_76\n  jumpi\n    /* \"#utility.yul\":3646:3650   */\n  0x7f\n    /* \"#utility.yul\":3638:3644   */\n  dup3\n    /* \"#utility.yul\":3634:3651   */\n  and\n    /* \"#utility.yul\":3624:3651   */\n  swap2\n  pop\n    /* \"#utility.yul\":3580:3661   */\ntag_76:\n    /* \"#utility.yul\":3708:3710   */\n  0x20\n    /* \"#utility.yul\":3700:3706   */\n  dup3\n    /* \"#utility.yul\":3697:3711   */\n  lt\n    /* \"#utility.yul\":3677:3695   */\n  dup2\n    /* \"#utility.yul\":3674:3712   */\n  eq\n    /* \"#utility.yul\":3671:3755   */\n  iszero\n  tag_77\n  jumpi\n    /* \"#utility.yul\":3727:3745   */\n  tag_78\n  tag_33\n  jump\t// in\ntag_78:\n    /* \"#utility.yul\":3671:3755   */\ntag_77:\n    /* \"#utility.yul\":3492:3761   */\n  pop\n    /* \"#utility.yul\":3441:3761   */\n  swap2\n  swap1\n  pop\n  jump\t// out\n    /* \"LandRegistration.sol\":37:2087  contract LandRegistration {... */\ntag_8:\n  dataSize(sub_0)\n  dup1\n  dataOffset(sub_0)\n  0x00\n  codecopy\n  0x00\n  return\nstop\n\nsub_0: assembly {\n        /* \"LandRegistration.sol\":37:2087  contract LandRegistration {... */\n      mstore(0x40, 0x80)\n      callvalue\n      dup1\n      iszero\n      tag_1\n      jumpi\n      0x00\n      dup1\n      revert\n    tag_1:\n      pop\n      jumpi(tag_2, lt(calldatasize, 0x04))\n      shr(0xe0, calldataload(0x00))\n      dup1\n      0x2de8f46d\n      gt\n      tag_12\n      jumpi\n      dup1\n      0x2de8f46d\n      eq\n      tag_7\n      jumpi\n      dup1\n      0x64ddfa29\n      eq\n      tag_8\n      jumpi\n      dup1\n      0x64efb22b\n      eq\n      tag_9\n      jumpi\n      dup1\n      0xcddb61b7\n      eq\n      tag_10\n      jumpi\n      dup1\n      0xdf6fa20e\n      eq\n      tag_11\n      jumpi\n      jump(tag_2)\n    tag_12:\n      dup1\n      0x045b3034\n      eq\n      tag_3\n      jumpi\n      dup1\n      0x13718c97\n      eq\n      tag_4\n      jumpi\n      dup1\n      0x1af1a768\n      eq\n      tag_5\n      jumpi\n      dup1\n      0x2a979f31\n      eq\n      tag_6\n      jumpi\n    tag_2:\n      0x00\n      dup1\n      revert\n        /* \"LandRegistration.sol\":233:265  address public superAdminAddress */\n    tag_3:\n      tag_13\n      tag_14\n      jump\t// in\n    tag_13:\n      mload(0x40)\n      tag_15\n      swap2\n      swap1\n      tag_16\n      jump\t// in\n    tag_15:\n      mload(0x40)\n      dup1\n      swap2\n      sub\n      swap1\n      return\n        /* \"LandRegistration.sol\":376:408  address [] public adminsAdresses */\n    tag_4:\n      tag_17\n      0x04\n      dup1\n      calldatasize\n      sub\n      dup2\n      add\n      swap1\n      tag_18\n      swap2\n      swap1\n      tag_19\n      jump\t// in\n    tag_18:\n      tag_20\n      jump\t// in\n    tag_17:\n      mload(0x40)\n      tag_21\n      swap2\n      swap1\n      tag_16\n      jump\t// in\n    tag_21:\n      mload(0x40)\n      dup1\n      swap2\n      sub\n      swap1\n      return\n        /* \"LandRegistration.sol\":1821:1947  function activateAdmin(address adminAddress) public restrictToSuperAdmin {... */\n    tag_5:\n      tag_22\n      0x04\n      dup1\n      calldatasize\n      sub\n      dup2\n      add\n      swap1\n      tag_23\n      swap2\n      swap1\n      tag_24\n      jump\t// in\n    tag_23:\n      tag_25\n      jump\t// in\n    tag_22:\n      stop\n        /* \"LandRegistration.sol\":344:369  string [] public counties */\n    tag_6:\n      tag_26\n      0x04\n      dup1\n      calldatasize\n      sub\n      dup2\n      add\n      swap1\n      tag_27\n      swap2\n      swap1\n      tag_19\n      jump\t// in\n    tag_27:\n      tag_28\n      jump\t// in\n    tag_26:\n      mload(0x40)\n      tag_29\n      swap2\n      swap1\n      tag_30\n      jump\t// in\n    tag_29:\n      mload(0x40)\n      dup1\n      swap2\n      sub\n      swap1\n      return\n        /* \"LandRegistration.sol\":819:952  function getSuperAdminPassword() public view restrictToSuperAdmin returns(string memory) {... */\n    tag_7:\n      tag_31\n      tag_32\n      jump\t// in\n    tag_31:\n      mload(0x40)\n      tag_33\n      swap2\n      swap1\n      tag_30\n      jump\t// in\n    tag_33:\n      mload(0x40)\n      dup1\n      swap2\n      sub\n      swap1\n      return\n        /* \"LandRegistration.sol\":1955:2084  function getAdminAddresses() public view restrictToSuperAdmin returns(address [] memory) {... */\n    tag_8:\n      tag_34\n      tag_35\n      jump\t// in\n    tag_34:\n      mload(0x40)\n      tag_36\n      swap2\n      swap1\n      tag_37\n      jump\t// in\n    tag_36:\n      mload(0x40)\n      dup1\n      swap2\n      sub\n      swap1\n      return\n        /* \"LandRegistration.sol\":1527:1668  function getAdmin(address adminAddress) public view restrictToSuperAdmin returns(Admin memory) {... */\n    tag_9:\n      tag_38\n      0x04\n      dup1\n      calldatasize\n      sub\n      dup2\n      add\n      swap1\n      tag_39\n      swap2\n      swap1\n      tag_24\n      jump\t// in\n    tag_39:\n      tag_40\n      jump\t// in\n    tag_38:\n      mload(0x40)\n      tag_41\n      swap2\n      swap1\n      tag_42\n      jump\t// in\n    tag_41:\n      mload(0x40)\n      dup1\n      swap2\n      sub\n      swap1\n      return\n        /* \"LandRegistration.sol\":964:1519  function addAdmin(string memory firstName, string memory lastName, string memory county, address adminAddress) public restrictToSuperAdmin {... */\n    tag_10:\n      tag_43\n      0x04\n      dup1\n      calldatasize\n      sub\n      dup2\n      add\n      swap1\n      tag_44\n      swap2\n      swap1\n      tag_45\n      jump\t// in\n    tag_44:\n      tag_46\n      jump\t// in\n    tag_43:\n      stop\n        /* \"LandRegistration.sol\":1680:1809  function deactivateAdmin(address adminAddress) public restrictToSuperAdmin {... */\n    tag_11:\n      tag_47\n      0x04\n      dup1\n      calldatasize\n      sub\n      dup2\n      add\n      swap1\n      tag_48\n      swap2\n      swap1\n      tag_24\n      jump\t// in\n    tag_48:\n      tag_49\n      jump\t// in\n    tag_47:\n      stop\n        /* \"LandRegistration.sol\":233:265  address public superAdminAddress */\n    tag_14:\n      0x00\n      dup1\n      sload\n      swap1\n      0x0100\n      exp\n      swap1\n      div\n      0xffffffffffffffffffffffffffffffffffffffff\n      and\n      dup2\n      jump\t// out\n        /* \"LandRegistration.sol\":376:408  address [] public adminsAdresses */\n    tag_20:\n      0x04\n      dup2\n      dup2\n      sload\n      dup2\n      lt\n      tag_50\n      jumpi\n      0x00\n      dup1\n      revert\n    tag_50:\n      swap1\n      0x00\n      mstore\n      keccak256(0x00, 0x20)\n      add\n      0x00\n      swap2\n      pop\n      sload\n      swap1\n      0x0100\n      exp\n      swap1\n      div\n      0xffffffffffffffffffffffffffffffffffffffff\n      and\n      dup2\n      jump\t// out\n        /* \"LandRegistration.sol\":1821:1947  function activateAdmin(address adminAddress) public restrictToSuperAdmin {... */\n    tag_25:\n        /* \"LandRegistration.sol\":773:790  superAdminAddress */\n      0x00\n      dup1\n      sload\n      swap1\n      0x0100\n      exp\n      swap1\n      div\n      0xffffffffffffffffffffffffffffffffffffffff\n      and\n        /* \"LandRegistration.sol\":759:790  msg.sender == superAdminAddress */\n      0xffffffffffffffffffffffffffffffffffffffff\n      and\n        /* \"LandRegistration.sol\":759:769  msg.sender */\n      caller\n        /* \"LandRegistration.sol\":759:790  msg.sender == superAdminAddress */\n      0xffffffffffffffffffffffffffffffffffffffff\n      and\n      eq\n        /* \"LandRegistration.sol\":751:791  require(msg.sender == superAdminAddress) */\n      tag_53\n      jumpi\n      0x00\n      dup1\n      revert\n    tag_53:\n        /* \"LandRegistration.sol\":1935:1939  true */\n      0x01\n        /* \"LandRegistration.sol\":1905:1911  admins */\n      0x02\n        /* \"LandRegistration.sol\":1905:1925  admins[adminAddress] */\n      0x00\n        /* \"LandRegistration.sol\":1912:1924  adminAddress */\n      dup4\n        /* \"LandRegistration.sol\":1905:1925  admins[adminAddress] */\n      0xffffffffffffffffffffffffffffffffffffffff\n      and\n      0xffffffffffffffffffffffffffffffffffffffff\n      and\n      dup2\n      mstore\n      0x20\n      add\n      swap1\n      dup2\n      mstore\n      0x20\n      add\n      0x00\n      keccak256\n        /* \"LandRegistration.sol\":1905:1932  admins[adminAddress].active */\n      0x04\n      add\n      0x00\n        /* \"LandRegistration.sol\":1905:1939  admins[adminAddress].active = true */\n      0x0100\n      exp\n      dup2\n      sload\n      dup2\n      0xff\n      mul\n      not\n      and\n      swap1\n      dup4\n      iszero\n      iszero\n      mul\n      or\n      swap1\n      sstore\n      pop\n        /* \"LandRegistration.sol\":1821:1947  function activateAdmin(address adminAddress) public restrictToSuperAdmin {... */\n      pop\n      jump\t// out\n        /* \"LandRegistration.sol\":344:369  string [] public counties */\n    tag_28:\n      0x03\n      dup2\n      dup2\n      sload\n      dup2\n      lt\n      tag_55\n      jumpi\n      0x00\n      dup1\n      revert\n    tag_55:\n      swap1\n      0x00\n      mstore\n      keccak256(0x00, 0x20)\n      add\n      0x00\n      swap2\n      pop\n      swap1\n      pop\n      dup1\n      sload\n      tag_57\n      swap1\n      tag_58\n      jump\t// in\n    tag_57:\n      dup1\n      0x1f\n      add\n      0x20\n      dup1\n      swap2\n      div\n      mul\n      0x20\n      add\n      mload(0x40)\n      swap1\n      dup2\n      add\n      0x40\n      mstore\n      dup1\n      swap3\n      swap2\n      swap1\n      dup2\n      dup2\n      mstore\n      0x20\n      add\n      dup3\n      dup1\n      sload\n      tag_59\n      swap1\n      tag_58\n      jump\t// in\n    tag_59:\n      dup1\n      iszero\n      tag_60\n      jumpi\n      dup1\n      0x1f\n      lt\n      tag_61\n      jumpi\n      0x0100\n      dup1\n      dup4\n      sload\n      div\n      mul\n      dup4\n      mstore\n      swap2\n      0x20\n      add\n      swap2\n      jump(tag_60)\n    tag_61:\n      dup3\n      add\n      swap2\n      swap1\n      0x00\n      mstore\n      keccak256(0x00, 0x20)\n      swap1\n    tag_62:\n      dup2\n      sload\n      dup2\n      mstore\n      swap1\n      0x01\n      add\n      swap1\n      0x20\n      add\n      dup1\n      dup4\n      gt\n      tag_62\n      jumpi\n      dup3\n      swap1\n      sub\n      0x1f\n      and\n      dup3\n      add\n      swap2\n    tag_60:\n      pop\n      pop\n      pop\n      pop\n      pop\n      dup2\n      jump\t// out\n        /* \"LandRegistration.sol\":819:952  function getSuperAdminPassword() public view restrictToSuperAdmin returns(string memory) {... */\n    tag_32:\n        /* \"LandRegistration.sol\":893:906  string memory */\n      0x60\n        /* \"LandRegistration.sol\":773:790  superAdminAddress */\n      0x00\n      dup1\n      sload\n      swap1\n      0x0100\n      exp\n      swap1\n      div\n      0xffffffffffffffffffffffffffffffffffffffff\n      and\n        /* \"LandRegistration.sol\":759:790  msg.sender == superAdminAddress */\n      0xffffffffffffffffffffffffffffffffffffffff\n      and\n        /* \"LandRegistration.sol\":759:769  msg.sender */\n      caller\n        /* \"LandRegistration.sol\":759:790  msg.sender == superAdminAddress */\n      0xffffffffffffffffffffffffffffffffffffffff\n      and\n      eq\n        /* \"LandRegistration.sol\":751:791  require(msg.sender == superAdminAddress) */\n      tag_64\n      jumpi\n      0x00\n      dup1\n      revert\n    tag_64:\n        /* \"LandRegistration.sol\":926:944  superAdminPassword */\n      0x01\n        /* \"LandRegistration.sol\":919:944  return superAdminPassword */\n      dup1\n      sload\n      tag_66\n      swap1\n      tag_58\n      jump\t// in\n    tag_66:\n      dup1\n      0x1f\n      add\n      0x20\n      dup1\n      swap2\n      div\n      mul\n      0x20\n      add\n      mload(0x40)\n      swap1\n      dup2\n      add\n      0x40\n      mstore\n      dup1\n      swap3\n      swap2\n      swap1\n      dup2\n      dup2\n      mstore\n      0x20\n      add\n      dup3\n      dup1\n      sload\n      tag_67\n      swap1\n      tag_58\n      jump\t// in\n    tag_67:\n      dup1\n      iszero\n      tag_68\n      jumpi\n      dup1\n      0x1f\n      lt\n      tag_69\n      jumpi\n      0x0100\n      dup1\n      dup4\n      sload\n      div\n      mul\n      dup4\n      mstore\n      swap2\n      0x20\n      add\n      swap2\n      jump(tag_68)\n    tag_69:\n      dup3\n      add\n      swap2\n      swap1\n      0x00\n      mstore\n      keccak256(0x00, 0x20)\n      swap1\n    tag_70:\n      dup2\n      sload\n      dup2\n      mstore\n      swap1\n      0x01\n      add\n      swap1\n      0x20\n      add\n      dup1\n      dup4\n      gt\n      tag_70\n      jumpi\n      dup3\n      swap1\n      sub\n      0x1f\n      and\n      dup3\n      add\n      swap2\n    tag_68:\n      pop\n      pop\n      pop\n      pop\n      pop\n      swap1\n      pop\n        /* \"LandRegistration.sol\":819:952  function getSuperAdminPassword() public view restrictToSuperAdmin returns(string memory) {... */\n      swap1\n      jump\t// out\n        /* \"LandRegistration.sol\":1955:2084  function getAdminAddresses() public view restrictToSuperAdmin returns(address [] memory) {... */\n    tag_35:\n        /* \"LandRegistration.sol\":2025:2042  address [] memory */\n      0x60\n        /* \"LandRegistration.sol\":773:790  superAdminAddress */\n      0x00\n      dup1\n      sload\n      swap1\n      0x0100\n      exp\n      swap1\n      div\n      0xffffffffffffffffffffffffffffffffffffffff\n      and\n        /* \"LandRegistration.sol\":759:790  msg.sender == superAdminAddress */\n      0xffffffffffffffffffffffffffffffffffffffff\n      and\n        /* \"LandRegistration.sol\":759:769  msg.sender */\n      caller\n        /* \"LandRegistration.sol\":759:790  msg.sender == superAdminAddress */\n      0xffffffffffffffffffffffffffffffffffffffff\n      and\n      eq\n        /* \"LandRegistration.sol\":751:791  require(msg.sender == superAdminAddress) */\n      tag_72\n      jumpi\n      0x00\n      dup1\n      revert\n    tag_72:\n        /* \"LandRegistration.sol\":2062:2076  adminsAdresses */\n      0x04\n        /* \"LandRegistration.sol\":2055:2076  return adminsAdresses */\n      dup1\n      sload\n      dup1\n      0x20\n      mul\n      0x20\n      add\n      mload(0x40)\n      swap1\n      dup2\n      add\n      0x40\n      mstore\n      dup1\n      swap3\n      swap2\n      swap1\n      dup2\n      dup2\n      mstore\n      0x20\n      add\n      dup3\n      dup1\n      sload\n      dup1\n      iszero\n      tag_74\n      jumpi\n      0x20\n      mul\n      dup3\n      add\n      swap2\n      swap1\n      0x00\n      mstore\n      keccak256(0x00, 0x20)\n      swap1\n    tag_75:\n      dup2\n      0x00\n      swap1\n      sload\n      swap1\n      0x0100\n      exp\n      swap1\n      div\n      0xffffffffffffffffffffffffffffffffffffffff\n      and\n      0xffffffffffffffffffffffffffffffffffffffff\n      and\n      dup2\n      mstore\n      0x20\n      add\n      swap1\n      0x01\n      add\n      swap1\n      dup1\n      dup4\n      gt\n      tag_75\n      jumpi\n    tag_74:\n      pop\n      pop\n      pop\n      pop\n      pop\n      swap1\n      pop\n        /* \"LandRegistration.sol\":1955:2084  function getAdminAddresses() public view restrictToSuperAdmin returns(address [] memory) {... */\n      swap1\n      jump\t// out\n        /* \"LandRegistration.sol\":1527:1668  function getAdmin(address adminAddress) public view restrictToSuperAdmin returns(Admin memory) {... */\n    tag_40:\n        /* \"LandRegistration.sol\":1608:1620  Admin memory */\n      tag_76\n      tag_77\n      jump\t// in\n    tag_76:\n        /* \"LandRegistration.sol\":773:790  superAdminAddress */\n      0x00\n      dup1\n      sload\n      swap1\n      0x0100\n      exp\n      swap1\n      div\n      0xffffffffffffffffffffffffffffffffffffffff\n      and\n        /* \"LandRegistration.sol\":759:790  msg.sender == superAdminAddress */\n      0xffffffffffffffffffffffffffffffffffffffff\n      and\n        /* \"LandRegistration.sol\":759:769  msg.sender */\n      caller\n        /* \"LandRegistration.sol\":759:790  msg.sender == superAdminAddress */\n      0xffffffffffffffffffffffffffffffffffffffff\n      and\n      eq\n        /* \"LandRegistration.sol\":751:791  require(msg.sender == superAdminAddress) */\n      tag_79\n      jumpi\n      0x00\n      dup1\n      revert\n    tag_79:\n        /* \"LandRegistration.sol\":1640:1646  admins */\n      0x02\n        /* \"LandRegistration.sol\":1640:1660  admins[adminAddress] */\n      0x00\n        /* \"LandRegistration.sol\":1647:1659  adminAddress */\n      dup4\n        /* \"LandRegistration.sol\":1640:1660  admins[adminAddress] */\n      0xffffffffffffffffffffffffffffffffffffffff\n      and\n      0xffffffffffffffffffffffffffffffffffffffff\n      and\n      dup2\n      mstore\n      0x20\n      add\n      swap1\n      dup2\n      mstore\n      0x20\n      add\n      0x00\n      keccak256\n        /* \"LandRegistration.sol\":1633:1660  return admins[adminAddress] */\n      mload(0x40)\n      dup1\n      0xa0\n      add\n      0x40\n      mstore\n      swap1\n      dup2\n      0x00\n      dup3\n      add\n      dup1\n      sload\n      tag_81\n      swap1\n      tag_58\n      jump\t// in\n    tag_81:\n      dup1\n      0x1f\n      add\n      0x20\n      dup1\n      swap2\n      div\n      mul\n      0x20\n      add\n      mload(0x40)\n      swap1\n      dup2\n      add\n      0x40\n      mstore\n      dup1\n      swap3\n      swap2\n      swap1\n      dup2\n      dup2\n      mstore\n      0x20\n      add\n      dup3\n      dup1\n      sload\n      tag_82\n      swap1\n      tag_58\n      jump\t// in\n    tag_82:\n      dup1\n      iszero\n      tag_83\n      jumpi\n      dup1\n      0x1f\n      lt\n      tag_84\n      jumpi\n      0x0100\n      dup1\n      dup4\n      sload\n      div\n      mul\n      dup4\n      mstore\n      swap2\n      0x20\n      add\n      swap2\n      jump(tag_83)\n    tag_84:\n      dup3\n      add\n      swap2\n      swap1\n      0x00\n      mstore\n      keccak256(0x00, 0x20)\n      swap1\n    tag_85:\n      dup2\n      sload\n      dup2\n      mstore\n      swap1\n      0x01\n      add\n      swap1\n      0x20\n      add\n      dup1\n      dup4\n      gt\n      tag_85\n      jumpi\n      dup3\n      swap1\n      sub\n      0x1f\n      and\n      dup3\n      add\n      swap2\n    tag_83:\n      pop\n      pop\n      pop\n      pop\n      pop\n      dup2\n      mstore\n      0x20\n      add\n      0x01\n      dup3\n      add\n      dup1\n      sload\n      tag_86\n      swap1\n      tag_58\n      jump\t// in\n    tag_86:\n      dup1\n      0x1f\n      add\n      0x20\n      dup1\n      swap2\n      div\n      mul\n      0x20\n      add\n      mload(0x40)\n      swap1\n      dup2\n      add\n      0x40\n      mstore\n      dup1\n      swap3\n      swap2\n      swap1\n      dup2\n      dup2\n      mstore\n      0x20\n      add\n      dup3\n      dup1\n      sload\n      tag_87\n      swap1\n      tag_58\n      jump\t// in\n    tag_87:\n      dup1\n      iszero\n      tag_88\n      jumpi\n      dup1\n      0x1f\n      lt\n      tag_89\n      jumpi\n      0x0100\n      dup1\n      dup4\n      sload\n      div\n      mul\n      dup4\n      mstore\n      swap2\n      0x20\n      add\n      swap2\n      jump(tag_88)\n    tag_89:\n      dup3\n      add\n      swap2\n      swap1\n      0x00\n      mstore\n      keccak256(0x00, 0x20)\n      swap1\n    tag_90:\n      dup2\n      sload\n      dup2\n      mstore\n      swap1\n      0x01\n      add\n      swap1\n      0x20\n      add\n      dup1\n      dup4\n      gt\n      tag_90\n      jumpi\n      dup3\n      swap1\n      sub\n      0x1f\n      and\n      dup3\n      add\n      swap2\n    tag_88:\n      pop\n      pop\n      pop\n      pop\n      pop\n      dup2\n      mstore\n      0x20\n      add\n      0x02\n      dup3\n      add\n      0x00\n      swap1\n      sload\n      swap1\n      0x0100\n      exp\n      swap1\n      div\n      0xffffffffffffffffffffffffffffffffffffffff\n      and\n      0xffffffffffffffffffffffffffffffffffffffff\n      and\n      0xffffffffffffffffffffffffffffffffffffffff\n      and\n      dup2\n      mstore\n      0x20\n      add\n      0x03\n      dup3\n      add\n      dup1\n      sload\n      tag_91\n      swap1\n      tag_58\n      jump\t// in\n    tag_91:\n      dup1\n      0x1f\n      add\n      0x20\n      dup1\n      swap2\n      div\n      mul\n      0x20\n      add\n      mload(0x40)\n      swap1\n      dup2\n      add\n      0x40\n      mstore\n      dup1\n      swap3\n      swap2\n      swap1\n      dup2\n      dup2\n      mstore\n      0x20\n      add\n      dup3\n      dup1\n      sload\n      tag_92\n      swap1\n      tag_58\n      jump\t// in\n    tag_92:\n      dup1\n      iszero\n      tag_93\n      jumpi\n      dup1\n      0x1f\n      lt\n      tag_94\n      jumpi\n      0x0100\n      dup1\n      dup4\n      sload\n      div\n      mul\n      dup4\n      mstore\n      swap2\n      0x20\n      add\n      swap2\n      jump(tag_93)\n    tag_94:\n      dup3\n      add\n      swap2\n      swap1\n      0x00\n      mstore\n      keccak256(0x00, 0x20)\n      swap1\n    tag_95:\n      dup2\n      sload\n      dup2\n      mstore\n      swap1\n      0x01\n      add\n      swap1\n      0x20\n      add\n      dup1\n      dup4\n      gt\n      tag_95\n      jumpi\n      dup3\n      swap1\n      sub\n      0x1f\n      and\n      dup3\n      add\n      swap2\n    tag_93:\n      pop\n      pop\n      pop\n      pop\n      pop\n      dup2\n      mstore\n      0x20\n      add\n      0x04\n      dup3\n      add\n      0x00\n      swap1\n      sload\n      swap1\n      0x0100\n      exp\n      swap1\n      div\n      0xff\n      and\n      iszero\n      iszero\n      iszero\n      iszero\n      dup2\n      mstore\n      pop\n      pop\n      swap1\n      pop\n        /* \"LandRegistration.sol\":1527:1668  function getAdmin(address adminAddress) public view restrictToSuperAdmin returns(Admin memory) {... */\n      swap2\n      swap1\n      pop\n      jump\t// out\n        /* \"LandRegistration.sol\":964:1519  function addAdmin(string memory firstName, string memory lastName, string memory county, address adminAddress) public restrictToSuperAdmin {... */\n    tag_46:\n        /* \"LandRegistration.sol\":773:790  superAdminAddress */\n      0x00\n      dup1\n      sload\n      swap1\n      0x0100\n      exp\n      swap1\n      div\n      0xffffffffffffffffffffffffffffffffffffffff\n      and\n        /* \"LandRegistration.sol\":759:790  msg.sender == superAdminAddress */\n      0xffffffffffffffffffffffffffffffffffffffff\n      and\n        /* \"LandRegistration.sol\":759:769  msg.sender */\n      caller\n        /* \"LandRegistration.sol\":759:790  msg.sender == superAdminAddress */\n      0xffffffffffffffffffffffffffffffffffffffff\n      and\n      eq\n        /* \"LandRegistration.sol\":751:791  require(msg.sender == superAdminAddress) */\n      tag_97\n      jumpi\n      0x00\n      dup1\n      revert\n    tag_97:\n        /* \"LandRegistration.sol\":1118:1156  equal(admins[adminAddress].county, \"\") */\n      tag_99\n        /* \"LandRegistration.sol\":1124:1130  admins */\n      0x02\n        /* \"LandRegistration.sol\":1124:1144  admins[adminAddress] */\n      0x00\n        /* \"LandRegistration.sol\":1131:1143  adminAddress */\n      dup4\n        /* \"LandRegistration.sol\":1124:1144  admins[adminAddress] */\n      0xffffffffffffffffffffffffffffffffffffffff\n      and\n      0xffffffffffffffffffffffffffffffffffffffff\n      and\n      dup2\n      mstore\n      0x20\n      add\n      swap1\n      dup2\n      mstore\n      0x20\n      add\n      0x00\n      keccak256\n        /* \"LandRegistration.sol\":1124:1151  admins[adminAddress].county */\n      0x03\n      add\n        /* \"LandRegistration.sol\":1118:1156  equal(admins[adminAddress].county, \"\") */\n      dup1\n      sload\n      tag_100\n      swap1\n      tag_58\n      jump\t// in\n    tag_100:\n      dup1\n      0x1f\n      add\n      0x20\n      dup1\n      swap2\n      div\n      mul\n      0x20\n      add\n      mload(0x40)\n      swap1\n      dup2\n      add\n      0x40\n      mstore\n      dup1\n      swap3\n      swap2\n      swap1\n      dup2\n      dup2\n      mstore\n      0x20\n      add\n      dup3\n      dup1\n      sload\n      tag_101\n      swap1\n      tag_58\n      jump\t// in\n    tag_101:\n      dup1\n      iszero\n      tag_102\n      jumpi\n      dup1\n      0x1f\n      lt\n      tag_103\n      jumpi\n      0x0100\n      dup1\n      dup4\n      sload\n      div\n      mul\n      dup4\n      mstore\n      swap2\n      0x20\n      add\n      swap2\n      jump(tag_102)\n    tag_103:\n      dup3\n      add\n      swap2\n      swap1\n      0x00\n      mstore\n      keccak256(0x00, 0x20)\n      swap1\n    tag_104:\n      dup2\n      sload\n      dup2\n      mstore\n      swap1\n      0x01\n      add\n      swap1\n      0x20\n      add\n      dup1\n      dup4\n      gt\n      tag_104\n      jumpi\n      dup3\n      swap1\n      sub\n      0x1f\n      and\n      dup3\n      add\n      swap2\n    tag_102:\n      pop\n      pop\n      pop\n      pop\n      pop\n      mload(0x40)\n      dup1\n      0x20\n      add\n      0x40\n      mstore\n      dup1\n      0x00\n      dup2\n      mstore\n      pop\n        /* \"LandRegistration.sol\":1118:1123  equal */\n      tag_105\n        /* \"LandRegistration.sol\":1118:1156  equal(admins[adminAddress].county, \"\") */\n      jump\t// in\n    tag_99:\n        /* \"LandRegistration.sol\":1114:1206  if (equal(admins[adminAddress].county, \"\")) {... */\n      iszero\n      tag_106\n      jumpi\n        /* \"LandRegistration.sol\":1173:1181  counties */\n      0x03\n        /* \"LandRegistration.sol\":1187:1193  county */\n      dup3\n        /* \"LandRegistration.sol\":1173:1194  counties.push(county) */\n      swap1\n      dup1\n      0x01\n      dup2\n      sload\n      add\n      dup1\n      dup3\n      sstore\n      dup1\n      swap2\n      pop\n      pop\n      0x01\n      swap1\n      sub\n      swap1\n      0x00\n      mstore\n      keccak256(0x00, 0x20)\n      add\n      0x00\n      swap1\n      swap2\n      swap1\n      swap2\n      swap1\n      swap2\n      pop\n      swap1\n      dup1\n      mload\n      swap1\n      0x20\n      add\n      swap1\n      tag_108\n      swap3\n      swap2\n      swap1\n      tag_109\n      jump\t// in\n    tag_108:\n      pop\n        /* \"LandRegistration.sol\":1114:1206  if (equal(admins[adminAddress].county, \"\")) {... */\n    tag_106:\n        /* \"LandRegistration.sol\":1216:1238  Admin storage newAdmin */\n      0x00\n        /* \"LandRegistration.sol\":1241:1247  admins */\n      0x02\n        /* \"LandRegistration.sol\":1241:1261  admins[adminAddress] */\n      0x00\n        /* \"LandRegistration.sol\":1248:1260  adminAddress */\n      dup4\n        /* \"LandRegistration.sol\":1241:1261  admins[adminAddress] */\n      0xffffffffffffffffffffffffffffffffffffffff\n      and\n      0xffffffffffffffffffffffffffffffffffffffff\n      and\n      dup2\n      mstore\n      0x20\n      add\n      swap1\n      dup2\n      mstore\n      0x20\n      add\n      0x00\n      keccak256\n        /* \"LandRegistration.sol\":1216:1261  Admin storage newAdmin = admins[adminAddress] */\n      swap1\n      pop\n        /* \"LandRegistration.sol\":1293:1302  firstName */\n      dup5\n        /* \"LandRegistration.sol\":1272:1280  newAdmin */\n      dup2\n        /* \"LandRegistration.sol\":1272:1290  newAdmin.firstName */\n      0x00\n      add\n        /* \"LandRegistration.sol\":1272:1302  newAdmin.firstName = firstName */\n      swap1\n      dup1\n      mload\n      swap1\n      0x20\n      add\n      swap1\n      tag_110\n      swap3\n      swap2\n      swap1\n      tag_109\n      jump\t// in\n    tag_110:\n      pop\n        /* \"LandRegistration.sol\":1333:1341  lastName */\n      dup4\n        /* \"LandRegistration.sol\":1313:1321  newAdmin */\n      dup2\n        /* \"LandRegistration.sol\":1313:1330  newAdmin.lastName */\n      0x01\n      add\n        /* \"LandRegistration.sol\":1313:1341  newAdmin.lastName = lastName */\n      swap1\n      dup1\n      mload\n      swap1\n      0x20\n      add\n      swap1\n      tag_111\n      swap3\n      swap2\n      swap1\n      tag_109\n      jump\t// in\n    tag_111:\n      pop\n        /* \"LandRegistration.sol\":1376:1388  adminAddress */\n      dup2\n        /* \"LandRegistration.sol\":1352:1360  newAdmin */\n      dup2\n        /* \"LandRegistration.sol\":1352:1373  newAdmin.adminAddress */\n      0x02\n      add\n      0x00\n        /* \"LandRegistration.sol\":1352:1388  newAdmin.adminAddress = adminAddress */\n      0x0100\n      exp\n      dup2\n      sload\n      dup2\n      0xffffffffffffffffffffffffffffffffffffffff\n      mul\n      not\n      and\n      swap1\n      dup4\n      0xffffffffffffffffffffffffffffffffffffffff\n      and\n      mul\n      or\n      swap1\n      sstore\n      pop\n        /* \"LandRegistration.sol\":1417:1423  county */\n      dup3\n        /* \"LandRegistration.sol\":1399:1407  newAdmin */\n      dup2\n        /* \"LandRegistration.sol\":1399:1414  newAdmin.county */\n      0x03\n      add\n        /* \"LandRegistration.sol\":1399:1423  newAdmin.county = county */\n      swap1\n      dup1\n      mload\n      swap1\n      0x20\n      add\n      swap1\n      tag_112\n      swap3\n      swap2\n      swap1\n      tag_109\n      jump\t// in\n    tag_112:\n      pop\n        /* \"LandRegistration.sol\":1452:1456  true */\n      0x01\n        /* \"LandRegistration.sol\":1434:1442  newAdmin */\n      dup2\n        /* \"LandRegistration.sol\":1434:1449  newAdmin.active */\n      0x04\n      add\n      0x00\n        /* \"LandRegistration.sol\":1434:1456  newAdmin.active = true */\n      0x0100\n      exp\n      dup2\n      sload\n      dup2\n      0xff\n      mul\n      not\n      and\n      swap1\n      dup4\n      iszero\n      iszero\n      mul\n      or\n      swap1\n      sstore\n      pop\n        /* \"LandRegistration.sol\":1469:1483  adminsAdresses */\n      0x04\n        /* \"LandRegistration.sol\":1497:1509  adminAddress */\n      dup3\n        /* \"LandRegistration.sol\":1469:1511  adminsAdresses.push(address(adminAddress)) */\n      swap1\n      dup1\n      0x01\n      dup2\n      sload\n      add\n      dup1\n      dup3\n      sstore\n      dup1\n      swap2\n      pop\n      pop\n      0x01\n      swap1\n      sub\n      swap1\n      0x00\n      mstore\n      keccak256(0x00, 0x20)\n      add\n      0x00\n      swap1\n      swap2\n      swap1\n      swap2\n      swap1\n      swap2\n      0x0100\n      exp\n      dup2\n      sload\n      dup2\n      0xffffffffffffffffffffffffffffffffffffffff\n      mul\n      not\n      and\n      swap1\n      dup4\n      0xffffffffffffffffffffffffffffffffffffffff\n      and\n      mul\n      or\n      swap1\n      sstore\n      pop\n        /* \"LandRegistration.sol\":1103:1519  {... */\n      pop\n        /* \"LandRegistration.sol\":964:1519  function addAdmin(string memory firstName, string memory lastName, string memory county, address adminAddress) public restrictToSuperAdmin {... */\n      pop\n      pop\n      pop\n      pop\n      jump\t// out\n        /* \"LandRegistration.sol\":1680:1809  function deactivateAdmin(address adminAddress) public restrictToSuperAdmin {... */\n    tag_49:\n        /* \"LandRegistration.sol\":773:790  superAdminAddress */\n      0x00\n      dup1\n      sload\n      swap1\n      0x0100\n      exp\n      swap1\n      div\n      0xffffffffffffffffffffffffffffffffffffffff\n      and\n        /* \"LandRegistration.sol\":759:790  msg.sender == superAdminAddress */\n      0xffffffffffffffffffffffffffffffffffffffff\n      and\n        /* \"LandRegistration.sol\":759:769  msg.sender */\n      caller\n        /* \"LandRegistration.sol\":759:790  msg.sender == superAdminAddress */\n      0xffffffffffffffffffffffffffffffffffffffff\n      and\n      eq\n        /* \"LandRegistration.sol\":751:791  require(msg.sender == superAdminAddress) */\n      tag_115\n      jumpi\n      0x00\n      dup1\n      revert\n    tag_115:\n        /* \"LandRegistration.sol\":1796:1801  false */\n      0x00\n        /* \"LandRegistration.sol\":1766:1772  admins */\n      0x02\n        /* \"LandRegistration.sol\":1766:1786  admins[adminAddress] */\n      0x00\n        /* \"LandRegistration.sol\":1773:1785  adminAddress */\n      dup4\n        /* \"LandRegistration.sol\":1766:1786  admins[adminAddress] */\n      0xffffffffffffffffffffffffffffffffffffffff\n      and\n      0xffffffffffffffffffffffffffffffffffffffff\n      and\n      dup2\n      mstore\n      0x20\n      add\n      swap1\n      dup2\n      mstore\n      0x20\n      add\n      0x00\n      keccak256\n        /* \"LandRegistration.sol\":1766:1793  admins[adminAddress].active */\n      0x04\n      add\n      0x00\n        /* \"LandRegistration.sol\":1766:1801  admins[adminAddress].active = false */\n      0x0100\n      exp\n      dup2\n      sload\n      dup2\n      0xff\n      mul\n      not\n      and\n      swap1\n      dup4\n      iszero\n      iszero\n      mul\n      or\n      swap1\n      sstore\n      pop\n        /* \"LandRegistration.sol\":1680:1809  function deactivateAdmin(address adminAddress) public restrictToSuperAdmin {... */\n      pop\n      jump\t// out\n        /* \"LandRegistration.sol\":554:698  function equal(string memory a, string memory b) private pure returns(bool) {... */\n    tag_105:\n        /* \"LandRegistration.sol\":624:628  bool */\n      0x00\n        /* \"LandRegistration.sol\":687:688  b */\n      dup2\n        /* \"LandRegistration.sol\":671:690  keccak256(bytes(b)) */\n      dup1\n      mload\n      swap1\n      0x20\n      add\n      keccak256\n        /* \"LandRegistration.sol\":664:665  a */\n      dup4\n        /* \"LandRegistration.sol\":648:667  keccak256(bytes(a)) */\n      dup1\n      mload\n      swap1\n      0x20\n      add\n      keccak256\n        /* \"LandRegistration.sol\":648:690  keccak256(bytes(a)) == keccak256(bytes(b)) */\n      eq\n        /* \"LandRegistration.sol\":641:690  return keccak256(bytes(a)) == keccak256(bytes(b)) */\n      swap1\n      pop\n        /* \"LandRegistration.sol\":554:698  function equal(string memory a, string memory b) private pure returns(bool) {... */\n      swap3\n      swap2\n      pop\n      pop\n      jump\t// out\n    tag_77:\n      mload(0x40)\n      dup1\n      0xa0\n      add\n      0x40\n      mstore\n      dup1\n      0x60\n      dup2\n      mstore\n      0x20\n      add\n      0x60\n      dup2\n      mstore\n      0x20\n      add\n      and(0xffffffffffffffffffffffffffffffffffffffff, 0x00)\n      dup2\n      mstore\n      0x20\n      add\n      0x60\n      dup2\n      mstore\n      0x20\n      add\n      iszero(iszero(0x00))\n      dup2\n      mstore\n      pop\n      swap1\n      jump\t// out\n    tag_109:\n      dup3\n      dup1\n      sload\n      tag_118\n      swap1\n      tag_58\n      jump\t// in\n    tag_118:\n      swap1\n      0x00\n      mstore\n      keccak256(0x00, 0x20)\n      swap1\n      0x1f\n      add\n      0x20\n      swap1\n      div\n      dup2\n      add\n      swap3\n      dup3\n      tag_120\n      jumpi\n      0x00\n      dup6\n      sstore\n      jump(tag_119)\n    tag_120:\n      dup3\n      0x1f\n      lt\n      tag_121\n      jumpi\n      dup1\n      mload\n      not(0xff)\n      and\n      dup4\n      dup1\n      add\n      or\n      dup6\n      sstore\n      jump(tag_119)\n    tag_121:\n      dup3\n      dup1\n      add\n      0x01\n      add\n      dup6\n      sstore\n      dup3\n      iszero\n      tag_119\n      jumpi\n      swap2\n      dup3\n      add\n    tag_122:\n      dup3\n      dup2\n      gt\n      iszero\n      tag_123\n      jumpi\n      dup3\n      mload\n      dup3\n      sstore\n      swap2\n      0x20\n      add\n      swap2\n      swap1\n      0x01\n      add\n      swap1\n      jump(tag_122)\n    tag_123:\n    tag_119:\n      pop\n      swap1\n      pop\n      tag_124\n      swap2\n      swap1\n      tag_125\n      jump\t// in\n    tag_124:\n      pop\n      swap1\n      jump\t// out\n    tag_125:\n    tag_126:\n      dup1\n      dup3\n      gt\n      iszero\n      tag_127\n      jumpi\n      0x00\n      dup2\n      0x00\n      swap1\n      sstore\n      pop\n      0x01\n      add\n      jump(tag_126)\n    tag_127:\n      pop\n      swap1\n      jump\t// out\n        /* \"#utility.yul\":7:133   */\n    tag_128:\n        /* \"#utility.yul\":44:51   */\n      0x00\n        /* \"#utility.yul\":84:126   */\n      0xffffffffffffffffffffffffffffffffffffffff\n        /* \"#utility.yul\":77:82   */\n      dup3\n        /* \"#utility.yul\":73:127   */\n      and\n        /* \"#utility.yul\":62:127   */\n      swap1\n      pop\n        /* \"#utility.yul\":7:133   */\n      swap2\n      swap1\n      pop\n      jump\t// out\n        /* \"#utility.yul\":139:235   */\n    tag_129:\n        /* \"#utility.yul\":176:183   */\n      0x00\n        /* \"#utility.yul\":205:229   */\n      tag_169\n        /* \"#utility.yul\":223:228   */\n      dup3\n        /* \"#utility.yul\":205:229   */\n      tag_128\n      jump\t// in\n    tag_169:\n        /* \"#utility.yul\":194:229   */\n      swap1\n      pop\n        /* \"#utility.yul\":139:235   */\n      swap2\n      swap1\n      pop\n      jump\t// out\n        /* \"#utility.yul\":241:359   */\n    tag_130:\n        /* \"#utility.yul\":328:352   */\n      tag_171\n        /* \"#utility.yul\":346:351   */\n      dup2\n        /* \"#utility.yul\":328:352   */\n      tag_129\n      jump\t// in\n    tag_171:\n        /* \"#utility.yul\":323:326   */\n      dup3\n        /* \"#utility.yul\":316:353   */\n      mstore\n        /* \"#utility.yul\":241:359   */\n      pop\n      pop\n      jump\t// out\n        /* \"#utility.yul\":365:587   */\n    tag_16:\n        /* \"#utility.yul\":458:462   */\n      0x00\n        /* \"#utility.yul\":496:498   */\n      0x20\n        /* \"#utility.yul\":485:494   */\n      dup3\n        /* \"#utility.yul\":481:499   */\n      add\n        /* \"#utility.yul\":473:499   */\n      swap1\n      pop\n        /* \"#utility.yul\":509:580   */\n      tag_173\n        /* \"#utility.yul\":577:578   */\n      0x00\n        /* \"#utility.yul\":566:575   */\n      dup4\n        /* \"#utility.yul\":562:579   */\n      add\n        /* \"#utility.yul\":553:559   */\n      dup5\n        /* \"#utility.yul\":509:580   */\n      tag_130\n      jump\t// in\n    tag_173:\n        /* \"#utility.yul\":365:587   */\n      swap3\n      swap2\n      pop\n      pop\n      jump\t// out\n        /* \"#utility.yul\":593:668   */\n    tag_131:\n        /* \"#utility.yul\":626:632   */\n      0x00\n        /* \"#utility.yul\":659:661   */\n      0x40\n        /* \"#utility.yul\":653:662   */\n      mload\n        /* \"#utility.yul\":643:662   */\n      swap1\n      pop\n        /* \"#utility.yul\":593:668   */\n      swap1\n      jump\t// out\n        /* \"#utility.yul\":674:791   */\n    tag_132:\n        /* \"#utility.yul\":783:784   */\n      0x00\n        /* \"#utility.yul\":780:781   */\n      dup1\n        /* \"#utility.yul\":773:785   */\n      revert\n        /* \"#utility.yul\":797:914   */\n    tag_133:\n        /* \"#utility.yul\":906:907   */\n      0x00\n        /* \"#utility.yul\":903:904   */\n      dup1\n        /* \"#utility.yul\":896:908   */\n      revert\n        /* \"#utility.yul\":920:997   */\n    tag_134:\n        /* \"#utility.yul\":957:964   */\n      0x00\n        /* \"#utility.yul\":986:991   */\n      dup2\n        /* \"#utility.yul\":975:991   */\n      swap1\n      pop\n        /* \"#utility.yul\":920:997   */\n      swap2\n      swap1\n      pop\n      jump\t// out\n        /* \"#utility.yul\":1003:1125   */\n    tag_135:\n        /* \"#utility.yul\":1076:1100   */\n      tag_179\n        /* \"#utility.yul\":1094:1099   */\n      dup2\n        /* \"#utility.yul\":1076:1100   */\n      tag_134\n      jump\t// in\n    tag_179:\n        /* \"#utility.yul\":1069:1074   */\n      dup2\n        /* \"#utility.yul\":1066:1101   */\n      eq\n        /* \"#utility.yul\":1056:1119   */\n      tag_180\n      jumpi\n        /* \"#utility.yul\":1115:1116   */\n      0x00\n        /* \"#utility.yul\":1112:1113   */\n      dup1\n        /* \"#utility.yul\":1105:1117   */\n      revert\n        /* \"#utility.yul\":1056:1119   */\n    tag_180:\n        /* \"#utility.yul\":1003:1125   */\n      pop\n      jump\t// out\n        /* \"#utility.yul\":1131:1270   */\n    tag_136:\n        /* \"#utility.yul\":1177:1182   */\n      0x00\n        /* \"#utility.yul\":1215:1221   */\n      dup2\n        /* \"#utility.yul\":1202:1222   */\n      calldataload\n        /* \"#utility.yul\":1193:1222   */\n      swap1\n      pop\n        /* \"#utility.yul\":1231:1264   */\n      tag_182\n        /* \"#utility.yul\":1258:1263   */\n      dup2\n        /* \"#utility.yul\":1231:1264   */\n      tag_135\n      jump\t// in\n    tag_182:\n        /* \"#utility.yul\":1131:1270   */\n      swap3\n      swap2\n      pop\n      pop\n      jump\t// out\n        /* \"#utility.yul\":1276:1605   */\n    tag_19:\n        /* \"#utility.yul\":1335:1341   */\n      0x00\n        /* \"#utility.yul\":1384:1386   */\n      0x20\n        /* \"#utility.yul\":1372:1381   */\n      dup3\n        /* \"#utility.yul\":1363:1370   */\n      dup5\n        /* \"#utility.yul\":1359:1382   */\n      sub\n        /* \"#utility.yul\":1355:1387   */\n      slt\n        /* \"#utility.yul\":1352:1471   */\n      iszero\n      tag_184\n      jumpi\n        /* \"#utility.yul\":1390:1469   */\n      tag_185\n      tag_132\n      jump\t// in\n    tag_185:\n        /* \"#utility.yul\":1352:1471   */\n    tag_184:\n        /* \"#utility.yul\":1510:1511   */\n      0x00\n        /* \"#utility.yul\":1535:1588   */\n      tag_186\n        /* \"#utility.yul\":1580:1587   */\n      dup5\n        /* \"#utility.yul\":1571:1577   */\n      dup3\n        /* \"#utility.yul\":1560:1569   */\n      dup6\n        /* \"#utility.yul\":1556:1578   */\n      add\n        /* \"#utility.yul\":1535:1588   */\n      tag_136\n      jump\t// in\n    tag_186:\n        /* \"#utility.yul\":1525:1588   */\n      swap2\n      pop\n        /* \"#utility.yul\":1481:1598   */\n      pop\n        /* \"#utility.yul\":1276:1605   */\n      swap3\n      swap2\n      pop\n      pop\n      jump\t// out\n        /* \"#utility.yul\":1611:1733   */\n    tag_137:\n        /* \"#utility.yul\":1684:1708   */\n      tag_188\n        /* \"#utility.yul\":1702:1707   */\n      dup2\n        /* \"#utility.yul\":1684:1708   */\n      tag_129\n      jump\t// in\n    tag_188:\n        /* \"#utility.yul\":1677:1682   */\n      dup2\n        /* \"#utility.yul\":1674:1709   */\n      eq\n        /* \"#utility.yul\":1664:1727   */\n      tag_189\n      jumpi\n        /* \"#utility.yul\":1723:1724   */\n      0x00\n        /* \"#utility.yul\":1720:1721   */\n      dup1\n        /* \"#utility.yul\":1713:1725   */\n      revert\n        /* \"#utility.yul\":1664:1727   */\n    tag_189:\n        /* \"#utility.yul\":1611:1733   */\n      pop\n      jump\t// out\n        /* \"#utility.yul\":1739:1878   */\n    tag_138:\n        /* \"#utility.yul\":1785:1790   */\n      0x00\n        /* \"#utility.yul\":1823:1829   */\n      dup2\n        /* \"#utility.yul\":1810:1830   */\n      calldataload\n        /* \"#utility.yul\":1801:1830   */\n      swap1\n      pop\n        /* \"#utility.yul\":1839:1872   */\n      tag_191\n        /* \"#utility.yul\":1866:1871   */\n      dup2\n        /* \"#utility.yul\":1839:1872   */\n      tag_137\n      jump\t// in\n    tag_191:\n        /* \"#utility.yul\":1739:1878   */\n      swap3\n      swap2\n      pop\n      pop\n      jump\t// out\n        /* \"#utility.yul\":1884:2213   */\n    tag_24:\n        /* \"#utility.yul\":1943:1949   */\n      0x00\n        /* \"#utility.yul\":1992:1994   */\n      0x20\n        /* \"#utility.yul\":1980:1989   */\n      dup3\n        /* \"#utility.yul\":1971:1978   */\n      dup5\n        /* \"#utility.yul\":1967:1990   */\n      sub\n        /* \"#utility.yul\":1963:1995   */\n      slt\n        /* \"#utility.yul\":1960:2079   */\n      iszero\n      tag_193\n      jumpi\n        /* \"#utility.yul\":1998:2077   */\n      tag_194\n      tag_132\n      jump\t// in\n    tag_194:\n        /* \"#utility.yul\":1960:2079   */\n    tag_193:\n        /* \"#utility.yul\":2118:2119   */\n      0x00\n        /* \"#utility.yul\":2143:2196   */\n      tag_195\n        /* \"#utility.yul\":2188:2195   */\n      dup5\n        /* \"#utility.yul\":2179:2185   */\n      dup3\n        /* \"#utility.yul\":2168:2177   */\n      dup6\n        /* \"#utility.yul\":2164:2186   */\n      add\n        /* \"#utility.yul\":2143:2196   */\n      tag_138\n      jump\t// in\n    tag_195:\n        /* \"#utility.yul\":2133:2196   */\n      swap2\n      pop\n        /* \"#utility.yul\":2089:2206   */\n      pop\n        /* \"#utility.yul\":1884:2213   */\n      swap3\n      swap2\n      pop\n      pop\n      jump\t// out\n        /* \"#utility.yul\":2219:2318   */\n    tag_139:\n        /* \"#utility.yul\":2271:2277   */\n      0x00\n        /* \"#utility.yul\":2305:2310   */\n      dup2\n        /* \"#utility.yul\":2299:2311   */\n      mload\n        /* \"#utility.yul\":2289:2311   */\n      swap1\n      pop\n        /* \"#utility.yul\":2219:2318   */\n      swap2\n      swap1\n      pop\n      jump\t// out\n        /* \"#utility.yul\":2324:2493   */\n    tag_140:\n        /* \"#utility.yul\":2408:2419   */\n      0x00\n        /* \"#utility.yul\":2442:2448   */\n      dup3\n        /* \"#utility.yul\":2437:2440   */\n      dup3\n        /* \"#utility.yul\":2430:2449   */\n      mstore\n        /* \"#utility.yul\":2482:2486   */\n      0x20\n        /* \"#utility.yul\":2477:2480   */\n      dup3\n        /* \"#utility.yul\":2473:2487   */\n      add\n        /* \"#utility.yul\":2458:2487   */\n      swap1\n      pop\n        /* \"#utility.yul\":2324:2493   */\n      swap3\n      swap2\n      pop\n      pop\n      jump\t// out\n        /* \"#utility.yul\":2499:2806   */\n    tag_141:\n        /* \"#utility.yul\":2567:2568   */\n      0x00\n        /* \"#utility.yul\":2577:2690   */\n    tag_199:\n        /* \"#utility.yul\":2591:2597   */\n      dup4\n        /* \"#utility.yul\":2588:2589   */\n      dup2\n        /* \"#utility.yul\":2585:2598   */\n      lt\n        /* \"#utility.yul\":2577:2690   */\n      iszero\n      tag_201\n      jumpi\n        /* \"#utility.yul\":2676:2677   */\n      dup1\n        /* \"#utility.yul\":2671:2674   */\n      dup3\n        /* \"#utility.yul\":2667:2678   */\n      add\n        /* \"#utility.yul\":2661:2679   */\n      mload\n        /* \"#utility.yul\":2657:2658   */\n      dup2\n        /* \"#utility.yul\":2652:2655   */\n      dup5\n        /* \"#utility.yul\":2648:2659   */\n      add\n        /* \"#utility.yul\":2641:2680   */\n      mstore\n        /* \"#utility.yul\":2613:2615   */\n      0x20\n        /* \"#utility.yul\":2610:2611   */\n      dup2\n        /* \"#utility.yul\":2606:2616   */\n      add\n        /* \"#utility.yul\":2601:2616   */\n      swap1\n      pop\n        /* \"#utility.yul\":2577:2690   */\n      jump(tag_199)\n    tag_201:\n        /* \"#utility.yul\":2708:2714   */\n      dup4\n        /* \"#utility.yul\":2705:2706   */\n      dup2\n        /* \"#utility.yul\":2702:2715   */\n      gt\n        /* \"#utility.yul\":2699:2800   */\n      iszero\n      tag_202\n      jumpi\n        /* \"#utility.yul\":2788:2789   */\n      0x00\n        /* \"#utility.yul\":2779:2785   */\n      dup5\n        /* \"#utility.yul\":2774:2777   */\n      dup5\n        /* \"#utility.yul\":2770:2786   */\n      add\n        /* \"#utility.yul\":2763:2790   */\n      mstore\n        /* \"#utility.yul\":2699:2800   */\n    tag_202:\n        /* \"#utility.yul\":2548:2806   */\n      pop\n        /* \"#utility.yul\":2499:2806   */\n      pop\n      pop\n      pop\n      jump\t// out\n        /* \"#utility.yul\":2812:2914   */\n    tag_142:\n        /* \"#utility.yul\":2853:2859   */\n      0x00\n        /* \"#utility.yul\":2904:2906   */\n      0x1f\n        /* \"#utility.yul\":2900:2907   */\n      not\n        /* \"#utility.yul\":2895:2897   */\n      0x1f\n        /* \"#utility.yul\":2888:2893   */\n      dup4\n        /* \"#utility.yul\":2884:2898   */\n      add\n        /* \"#utility.yul\":2880:2908   */\n      and\n        /* \"#utility.yul\":2870:2908   */\n      swap1\n      pop\n        /* \"#utility.yul\":2812:2914   */\n      swap2\n      swap1\n      pop\n      jump\t// out\n        /* \"#utility.yul\":2920:3284   */\n    tag_143:\n        /* \"#utility.yul\":3008:3011   */\n      0x00\n        /* \"#utility.yul\":3036:3075   */\n      tag_205\n        /* \"#utility.yul\":3069:3074   */\n      dup3\n        /* \"#utility.yul\":3036:3075   */\n      tag_139\n      jump\t// in\n    tag_205:\n        /* \"#utility.yul\":3091:3162   */\n      tag_206\n        /* \"#utility.yul\":3155:3161   */\n      dup2\n        /* \"#utility.yul\":3150:3153   */\n      dup6\n        /* \"#utility.yul\":3091:3162   */\n      tag_140\n      jump\t// in\n    tag_206:\n        /* \"#utility.yul\":3084:3162   */\n      swap4\n      pop\n        /* \"#utility.yul\":3171:3223   */\n      tag_207\n        /* \"#utility.yul\":3216:3222   */\n      dup2\n        /* \"#utility.yul\":3211:3214   */\n      dup6\n        /* \"#utility.yul\":3204:3208   */\n      0x20\n        /* \"#utility.yul\":3197:3202   */\n      dup7\n        /* \"#utility.yul\":3193:3209   */\n      add\n        /* \"#utility.yul\":3171:3223   */\n      tag_141\n      jump\t// in\n    tag_207:\n        /* \"#utility.yul\":3248:3277   */\n      tag_208\n        /* \"#utility.yul\":3270:3276   */\n      dup2\n        /* \"#utility.yul\":3248:3277   */\n      tag_142\n      jump\t// in\n    tag_208:\n        /* \"#utility.yul\":3243:3246   */\n      dup5\n        /* \"#utility.yul\":3239:3278   */\n      add\n        /* \"#utility.yul\":3232:3278   */\n      swap2\n      pop\n        /* \"#utility.yul\":3012:3284   */\n      pop\n        /* \"#utility.yul\":2920:3284   */\n      swap3\n      swap2\n      pop\n      pop\n      jump\t// out\n        /* \"#utility.yul\":3290:3603   */\n    tag_30:\n        /* \"#utility.yul\":3403:3407   */\n      0x00\n        /* \"#utility.yul\":3441:3443   */\n      0x20\n        /* \"#utility.yul\":3430:3439   */\n      dup3\n        /* \"#utility.yul\":3426:3444   */\n      add\n        /* \"#utility.yul\":3418:3444   */\n      swap1\n      pop\n        /* \"#utility.yul\":3490:3499   */\n      dup2\n        /* \"#utility.yul\":3484:3488   */\n      dup2\n        /* \"#utility.yul\":3480:3500   */\n      sub\n        /* \"#utility.yul\":3476:3477   */\n      0x00\n        /* \"#utility.yul\":3465:3474   */\n      dup4\n        /* \"#utility.yul\":3461:3478   */\n      add\n        /* \"#utility.yul\":3454:3501   */\n      mstore\n        /* \"#utility.yul\":3518:3596   */\n      tag_210\n        /* \"#utility.yul\":3591:3595   */\n      dup2\n        /* \"#utility.yul\":3582:3588   */\n      dup5\n        /* \"#utility.yul\":3518:3596   */\n      tag_143\n      jump\t// in\n    tag_210:\n        /* \"#utility.yul\":3510:3596   */\n      swap1\n      pop\n        /* \"#utility.yul\":3290:3603   */\n      swap3\n      swap2\n      pop\n      pop\n      jump\t// out\n        /* \"#utility.yul\":3609:3723   */\n    tag_144:\n        /* \"#utility.yul\":3676:3682   */\n      0x00\n        /* \"#utility.yul\":3710:3715   */\n      dup2\n        /* \"#utility.yul\":3704:3716   */\n      mload\n        /* \"#utility.yul\":3694:3716   */\n      swap1\n      pop\n        /* \"#utility.yul\":3609:3723   */\n      swap2\n      swap1\n      pop\n      jump\t// out\n        /* \"#utility.yul\":3729:3913   */\n    tag_145:\n        /* \"#utility.yul\":3828:3839   */\n      0x00\n        /* \"#utility.yul\":3862:3868   */\n      dup3\n        /* \"#utility.yul\":3857:3860   */\n      dup3\n        /* \"#utility.yul\":3850:3869   */\n      mstore\n        /* \"#utility.yul\":3902:3906   */\n      0x20\n        /* \"#utility.yul\":3897:3900   */\n      dup3\n        /* \"#utility.yul\":3893:3907   */\n      add\n        /* \"#utility.yul\":3878:3907   */\n      swap1\n      pop\n        /* \"#utility.yul\":3729:3913   */\n      swap3\n      swap2\n      pop\n      pop\n      jump\t// out\n        /* \"#utility.yul\":3919:4051   */\n    tag_146:\n        /* \"#utility.yul\":3986:3990   */\n      0x00\n        /* \"#utility.yul\":4009:4012   */\n      dup2\n        /* \"#utility.yul\":4001:4012   */\n      swap1\n      pop\n        /* \"#utility.yul\":4039:4043   */\n      0x20\n        /* \"#utility.yul\":4034:4037   */\n      dup3\n        /* \"#utility.yul\":4030:4044   */\n      add\n        /* \"#utility.yul\":4022:4044   */\n      swap1\n      pop\n        /* \"#utility.yul\":3919:4051   */\n      swap2\n      swap1\n      pop\n      jump\t// out\n        /* \"#utility.yul\":4057:4165   */\n    tag_147:\n        /* \"#utility.yul\":4134:4158   */\n      tag_215\n        /* \"#utility.yul\":4152:4157   */\n      dup2\n        /* \"#utility.yul\":4134:4158   */\n      tag_129\n      jump\t// in\n    tag_215:\n        /* \"#utility.yul\":4129:4132   */\n      dup3\n        /* \"#utility.yul\":4122:4159   */\n      mstore\n        /* \"#utility.yul\":4057:4165   */\n      pop\n      pop\n      jump\t// out\n        /* \"#utility.yul\":4171:4350   */\n    tag_148:\n        /* \"#utility.yul\":4240:4250   */\n      0x00\n        /* \"#utility.yul\":4261:4307   */\n      tag_217\n        /* \"#utility.yul\":4303:4306   */\n      dup4\n        /* \"#utility.yul\":4295:4301   */\n      dup4\n        /* \"#utility.yul\":4261:4307   */\n      tag_147\n      jump\t// in\n    tag_217:\n        /* \"#utility.yul\":4339:4343   */\n      0x20\n        /* \"#utility.yul\":4334:4337   */\n      dup4\n        /* \"#utility.yul\":4330:4344   */\n      add\n        /* \"#utility.yul\":4316:4344   */\n      swap1\n      pop\n        /* \"#utility.yul\":4171:4350   */\n      swap3\n      swap2\n      pop\n      pop\n      jump\t// out\n        /* \"#utility.yul\":4356:4469   */\n    tag_149:\n        /* \"#utility.yul\":4426:4430   */\n      0x00\n        /* \"#utility.yul\":4458:4462   */\n      0x20\n        /* \"#utility.yul\":4453:4456   */\n      dup3\n        /* \"#utility.yul\":4449:4463   */\n      add\n        /* \"#utility.yul\":4441:4463   */\n      swap1\n      pop\n        /* \"#utility.yul\":4356:4469   */\n      swap2\n      swap1\n      pop\n      jump\t// out\n        /* \"#utility.yul\":4505:5237   */\n    tag_150:\n        /* \"#utility.yul\":4624:4627   */\n      0x00\n        /* \"#utility.yul\":4653:4707   */\n      tag_220\n        /* \"#utility.yul\":4701:4706   */\n      dup3\n        /* \"#utility.yul\":4653:4707   */\n      tag_144\n      jump\t// in\n    tag_220:\n        /* \"#utility.yul\":4723:4809   */\n      tag_221\n        /* \"#utility.yul\":4802:4808   */\n      dup2\n        /* \"#utility.yul\":4797:4800   */\n      dup6\n        /* \"#utility.yul\":4723:4809   */\n      tag_145\n      jump\t// in\n    tag_221:\n        /* \"#utility.yul\":4716:4809   */\n      swap4\n      pop\n        /* \"#utility.yul\":4833:4889   */\n      tag_222\n        /* \"#utility.yul\":4883:4888   */\n      dup4\n        /* \"#utility.yul\":4833:4889   */\n      tag_146\n      jump\t// in\n    tag_222:\n        /* \"#utility.yul\":4912:4919   */\n      dup1\n        /* \"#utility.yul\":4943:4944   */\n      0x00\n        /* \"#utility.yul\":4928:5212   */\n    tag_223:\n        /* \"#utility.yul\":4953:4959   */\n      dup4\n        /* \"#utility.yul\":4950:4951   */\n      dup2\n        /* \"#utility.yul\":4947:4960   */\n      lt\n        /* \"#utility.yul\":4928:5212   */\n      iszero\n      tag_225\n      jumpi\n        /* \"#utility.yul\":5029:5035   */\n      dup2\n        /* \"#utility.yul\":5023:5036   */\n      mload\n        /* \"#utility.yul\":5056:5119   */\n      tag_226\n        /* \"#utility.yul\":5115:5118   */\n      dup9\n        /* \"#utility.yul\":5100:5113   */\n      dup3\n        /* \"#utility.yul\":5056:5119   */\n      tag_148\n      jump\t// in\n    tag_226:\n        /* \"#utility.yul\":5049:5119   */\n      swap8\n      pop\n        /* \"#utility.yul\":5142:5202   */\n      tag_227\n        /* \"#utility.yul\":5195:5201   */\n      dup4\n        /* \"#utility.yul\":5142:5202   */\n      tag_149\n      jump\t// in\n    tag_227:\n        /* \"#utility.yul\":5132:5202   */\n      swap3\n      pop\n        /* \"#utility.yul\":4988:5212   */\n      pop\n        /* \"#utility.yul\":4975:4976   */\n      0x01\n        /* \"#utility.yul\":4972:4973   */\n      dup2\n        /* \"#utility.yul\":4968:4977   */\n      add\n        /* \"#utility.yul\":4963:4977   */\n      swap1\n      pop\n        /* \"#utility.yul\":4928:5212   */\n      jump(tag_223)\n    tag_225:\n        /* \"#utility.yul\":4932:4946   */\n      pop\n        /* \"#utility.yul\":5228:5231   */\n      dup6\n        /* \"#utility.yul\":5221:5231   */\n      swap4\n      pop\n        /* \"#utility.yul\":4629:5237   */\n      pop\n      pop\n      pop\n        /* \"#utility.yul\":4505:5237   */\n      swap3\n      swap2\n      pop\n      pop\n      jump\t// out\n        /* \"#utility.yul\":5243:5616   */\n    tag_37:\n        /* \"#utility.yul\":5386:5390   */\n      0x00\n        /* \"#utility.yul\":5424:5426   */\n      0x20\n        /* \"#utility.yul\":5413:5422   */\n      dup3\n        /* \"#utility.yul\":5409:5427   */\n      add\n        /* \"#utility.yul\":5401:5427   */\n      swap1\n      pop\n        /* \"#utility.yul\":5473:5482   */\n      dup2\n        /* \"#utility.yul\":5467:5471   */\n      dup2\n        /* \"#utility.yul\":5463:5483   */\n      sub\n        /* \"#utility.yul\":5459:5460   */\n      0x00\n        /* \"#utility.yul\":5448:5457   */\n      dup4\n        /* \"#utility.yul\":5444:5461   */\n      add\n        /* \"#utility.yul\":5437:5484   */\n      mstore\n        /* \"#utility.yul\":5501:5609   */\n      tag_229\n        /* \"#utility.yul\":5604:5608   */\n      dup2\n        /* \"#utility.yul\":5595:5601   */\n      dup5\n        /* \"#utility.yul\":5501:5609   */\n      tag_150\n      jump\t// in\n    tag_229:\n        /* \"#utility.yul\":5493:5609   */\n      swap1\n      pop\n        /* \"#utility.yul\":5243:5616   */\n      swap3\n      swap2\n      pop\n      pop\n      jump\t// out\n        /* \"#utility.yul\":5622:5781   */\n    tag_151:\n        /* \"#utility.yul\":5696:5707   */\n      0x00\n        /* \"#utility.yul\":5730:5736   */\n      dup3\n        /* \"#utility.yul\":5725:5728   */\n      dup3\n        /* \"#utility.yul\":5718:5737   */\n      mstore\n        /* \"#utility.yul\":5770:5774   */\n      0x20\n        /* \"#utility.yul\":5765:5768   */\n      dup3\n        /* \"#utility.yul\":5761:5775   */\n      add\n        /* \"#utility.yul\":5746:5775   */\n      swap1\n      pop\n        /* \"#utility.yul\":5622:5781   */\n      swap3\n      swap2\n      pop\n      pop\n      jump\t// out\n        /* \"#utility.yul\":5787:6131   */\n    tag_152:\n        /* \"#utility.yul\":5865:5868   */\n      0x00\n        /* \"#utility.yul\":5893:5932   */\n      tag_232\n        /* \"#utility.yul\":5926:5931   */\n      dup3\n        /* \"#utility.yul\":5893:5932   */\n      tag_139\n      jump\t// in\n    tag_232:\n        /* \"#utility.yul\":5948:6009   */\n      tag_233\n        /* \"#utility.yul\":6002:6008   */\n      dup2\n        /* \"#utility.yul\":5997:6000   */\n      dup6\n        /* \"#utility.yul\":5948:6009   */\n      tag_151\n      jump\t// in\n    tag_233:\n        /* \"#utility.yul\":5941:6009   */\n      swap4\n      pop\n        /* \"#utility.yul\":6018:6070   */\n      tag_234\n        /* \"#utility.yul\":6063:6069   */\n      dup2\n        /* \"#utility.yul\":6058:6061   */\n      dup6\n        /* \"#utility.yul\":6051:6055   */\n      0x20\n        /* \"#utility.yul\":6044:6049   */\n      dup7\n        /* \"#utility.yul\":6040:6056   */\n      add\n        /* \"#utility.yul\":6018:6070   */\n      tag_141\n      jump\t// in\n    tag_234:\n        /* \"#utility.yul\":6095:6124   */\n      tag_235\n        /* \"#utility.yul\":6117:6123   */\n      dup2\n        /* \"#utility.yul\":6095:6124   */\n      tag_142\n      jump\t// in\n    tag_235:\n        /* \"#utility.yul\":6090:6093   */\n      dup5\n        /* \"#utility.yul\":6086:6125   */\n      add\n        /* \"#utility.yul\":6079:6125   */\n      swap2\n      pop\n        /* \"#utility.yul\":5869:6131   */\n      pop\n        /* \"#utility.yul\":5787:6131   */\n      swap3\n      swap2\n      pop\n      pop\n      jump\t// out\n        /* \"#utility.yul\":6137:6227   */\n    tag_153:\n        /* \"#utility.yul\":6171:6178   */\n      0x00\n        /* \"#utility.yul\":6214:6219   */\n      dup2\n        /* \"#utility.yul\":6207:6220   */\n      iszero\n        /* \"#utility.yul\":6200:6221   */\n      iszero\n        /* \"#utility.yul\":6189:6221   */\n      swap1\n      pop\n        /* \"#utility.yul\":6137:6227   */\n      swap2\n      swap1\n      pop\n      jump\t// out\n        /* \"#utility.yul\":6233:6332   */\n    tag_154:\n        /* \"#utility.yul\":6304:6325   */\n      tag_238\n        /* \"#utility.yul\":6319:6324   */\n      dup2\n        /* \"#utility.yul\":6304:6325   */\n      tag_153\n      jump\t// in\n    tag_238:\n        /* \"#utility.yul\":6299:6302   */\n      dup3\n        /* \"#utility.yul\":6292:6326   */\n      mstore\n        /* \"#utility.yul\":6233:6332   */\n      pop\n      pop\n      jump\t// out\n        /* \"#utility.yul\":6408:7685   */\n    tag_155:\n        /* \"#utility.yul\":6519:6522   */\n      0x00\n        /* \"#utility.yul\":6555:6559   */\n      0xa0\n        /* \"#utility.yul\":6550:6553   */\n      dup4\n        /* \"#utility.yul\":6546:6560   */\n      add\n        /* \"#utility.yul\":6647:6651   */\n      0x00\n        /* \"#utility.yul\":6640:6645   */\n      dup4\n        /* \"#utility.yul\":6636:6652   */\n      add\n        /* \"#utility.yul\":6630:6653   */\n      mload\n        /* \"#utility.yul\":6700:6703   */\n      dup5\n        /* \"#utility.yul\":6694:6698   */\n      dup3\n        /* \"#utility.yul\":6690:6704   */\n      sub\n        /* \"#utility.yul\":6683:6687   */\n      0x00\n        /* \"#utility.yul\":6678:6681   */\n      dup7\n        /* \"#utility.yul\":6674:6688   */\n      add\n        /* \"#utility.yul\":6667:6705   */\n      mstore\n        /* \"#utility.yul\":6726:6799   */\n      tag_240\n        /* \"#utility.yul\":6794:6798   */\n      dup3\n        /* \"#utility.yul\":6780:6792   */\n      dup3\n        /* \"#utility.yul\":6726:6799   */\n      tag_152\n      jump\t// in\n    tag_240:\n        /* \"#utility.yul\":6718:6799   */\n      swap2\n      pop\n        /* \"#utility.yul\":6570:6810   */\n      pop\n        /* \"#utility.yul\":6896:6900   */\n      0x20\n        /* \"#utility.yul\":6889:6894   */\n      dup4\n        /* \"#utility.yul\":6885:6901   */\n      add\n        /* \"#utility.yul\":6879:6902   */\n      mload\n        /* \"#utility.yul\":6949:6952   */\n      dup5\n        /* \"#utility.yul\":6943:6947   */\n      dup3\n        /* \"#utility.yul\":6939:6953   */\n      sub\n        /* \"#utility.yul\":6932:6936   */\n      0x20\n        /* \"#utility.yul\":6927:6930   */\n      dup7\n        /* \"#utility.yul\":6923:6937   */\n      add\n        /* \"#utility.yul\":6916:6954   */\n      mstore\n        /* \"#utility.yul\":6975:7048   */\n      tag_241\n        /* \"#utility.yul\":7043:7047   */\n      dup3\n        /* \"#utility.yul\":7029:7041   */\n      dup3\n        /* \"#utility.yul\":6975:7048   */\n      tag_152\n      jump\t// in\n    tag_241:\n        /* \"#utility.yul\":6967:7048   */\n      swap2\n      pop\n        /* \"#utility.yul\":6820:7059   */\n      pop\n        /* \"#utility.yul\":7149:7153   */\n      0x40\n        /* \"#utility.yul\":7142:7147   */\n      dup4\n        /* \"#utility.yul\":7138:7154   */\n      add\n        /* \"#utility.yul\":7132:7155   */\n      mload\n        /* \"#utility.yul\":7168:7231   */\n      tag_242\n        /* \"#utility.yul\":7225:7229   */\n      0x40\n        /* \"#utility.yul\":7220:7223   */\n      dup7\n        /* \"#utility.yul\":7216:7230   */\n      add\n        /* \"#utility.yul\":7202:7214   */\n      dup3\n        /* \"#utility.yul\":7168:7231   */\n      tag_147\n      jump\t// in\n    tag_242:\n        /* \"#utility.yul\":7069:7241   */\n      pop\n        /* \"#utility.yul\":7325:7329   */\n      0x60\n        /* \"#utility.yul\":7318:7323   */\n      dup4\n        /* \"#utility.yul\":7314:7330   */\n      add\n        /* \"#utility.yul\":7308:7331   */\n      mload\n        /* \"#utility.yul\":7378:7381   */\n      dup5\n        /* \"#utility.yul\":7372:7376   */\n      dup3\n        /* \"#utility.yul\":7368:7382   */\n      sub\n        /* \"#utility.yul\":7361:7365   */\n      0x60\n        /* \"#utility.yul\":7356:7359   */\n      dup7\n        /* \"#utility.yul\":7352:7366   */\n      add\n        /* \"#utility.yul\":7345:7383   */\n      mstore\n        /* \"#utility.yul\":7404:7477   */\n      tag_243\n        /* \"#utility.yul\":7472:7476   */\n      dup3\n        /* \"#utility.yul\":7458:7470   */\n      dup3\n        /* \"#utility.yul\":7404:7477   */\n      tag_152\n      jump\t// in\n    tag_243:\n        /* \"#utility.yul\":7396:7477   */\n      swap2\n      pop\n        /* \"#utility.yul\":7251:7488   */\n      pop\n        /* \"#utility.yul\":7572:7576   */\n      0x80\n        /* \"#utility.yul\":7565:7570   */\n      dup4\n        /* \"#utility.yul\":7561:7577   */\n      add\n        /* \"#utility.yul\":7555:7578   */\n      mload\n        /* \"#utility.yul\":7591:7648   */\n      tag_244\n        /* \"#utility.yul\":7642:7646   */\n      0x80\n        /* \"#utility.yul\":7637:7640   */\n      dup7\n        /* \"#utility.yul\":7633:7647   */\n      add\n        /* \"#utility.yul\":7619:7631   */\n      dup3\n        /* \"#utility.yul\":7591:7648   */\n      tag_154\n      jump\t// in\n    tag_244:\n        /* \"#utility.yul\":7498:7658   */\n      pop\n        /* \"#utility.yul\":7675:7679   */\n      dup1\n        /* \"#utility.yul\":7668:7679   */\n      swap2\n      pop\n        /* \"#utility.yul\":6524:7685   */\n      pop\n        /* \"#utility.yul\":6408:7685   */\n      swap3\n      swap2\n      pop\n      pop\n      jump\t// out\n        /* \"#utility.yul\":7691:8048   */\n    tag_42:\n        /* \"#utility.yul\":7826:7830   */\n      0x00\n        /* \"#utility.yul\":7864:7866   */\n      0x20\n        /* \"#utility.yul\":7853:7862   */\n      dup3\n        /* \"#utility.yul\":7849:7867   */\n      add\n        /* \"#utility.yul\":7841:7867   */\n      swap1\n      pop\n        /* \"#utility.yul\":7913:7922   */\n      dup2\n        /* \"#utility.yul\":7907:7911   */\n      dup2\n        /* \"#utility.yul\":7903:7923   */\n      sub\n        /* \"#utility.yul\":7899:7900   */\n      0x00\n        /* \"#utility.yul\":7888:7897   */\n      dup4\n        /* \"#utility.yul\":7884:7901   */\n      add\n        /* \"#utility.yul\":7877:7924   */\n      mstore\n        /* \"#utility.yul\":7941:8041   */\n      tag_246\n        /* \"#utility.yul\":8036:8040   */\n      dup2\n        /* \"#utility.yul\":8027:8033   */\n      dup5\n        /* \"#utility.yul\":7941:8041   */\n      tag_155\n      jump\t// in\n    tag_246:\n        /* \"#utility.yul\":7933:8041   */\n      swap1\n      pop\n        /* \"#utility.yul\":7691:8048   */\n      swap3\n      swap2\n      pop\n      pop\n      jump\t// out\n        /* \"#utility.yul\":8054:8171   */\n    tag_156:\n        /* \"#utility.yul\":8163:8164   */\n      0x00\n        /* \"#utility.yul\":8160:8161   */\n      dup1\n        /* \"#utility.yul\":8153:8165   */\n      revert\n        /* \"#utility.yul\":8177:8294   */\n    tag_157:\n        /* \"#utility.yul\":8286:8287   */\n      0x00\n        /* \"#utility.yul\":8283:8284   */\n      dup1\n        /* \"#utility.yul\":8276:8288   */\n      revert\n        /* \"#utility.yul\":8300:8480   */\n    tag_158:\n        /* \"#utility.yul\":8348:8425   */\n      0x4e487b7100000000000000000000000000000000000000000000000000000000\n        /* \"#utility.yul\":8345:8346   */\n      0x00\n        /* \"#utility.yul\":8338:8426   */\n      mstore\n        /* \"#utility.yul\":8445:8449   */\n      0x41\n        /* \"#utility.yul\":8442:8443   */\n      0x04\n        /* \"#utility.yul\":8435:8450   */\n      mstore\n        /* \"#utility.yul\":8469:8473   */\n      0x24\n        /* \"#utility.yul\":8466:8467   */\n      0x00\n        /* \"#utility.yul\":8459:8474   */\n      revert\n        /* \"#utility.yul\":8486:8767   */\n    tag_159:\n        /* \"#utility.yul\":8569:8596   */\n      tag_251\n        /* \"#utility.yul\":8591:8595   */\n      dup3\n        /* \"#utility.yul\":8569:8596   */\n      tag_142\n      jump\t// in\n    tag_251:\n        /* \"#utility.yul\":8561:8567   */\n      dup2\n        /* \"#utility.yul\":8557:8597   */\n      add\n        /* \"#utility.yul\":8699:8705   */\n      dup2\n        /* \"#utility.yul\":8687:8697   */\n      dup2\n        /* \"#utility.yul\":8684:8706   */\n      lt\n        /* \"#utility.yul\":8663:8681   */\n      0xffffffffffffffff\n        /* \"#utility.yul\":8651:8661   */\n      dup3\n        /* \"#utility.yul\":8648:8682   */\n      gt\n        /* \"#utility.yul\":8645:8707   */\n      or\n        /* \"#utility.yul\":8642:8730   */\n      iszero\n      tag_252\n      jumpi\n        /* \"#utility.yul\":8710:8728   */\n      tag_253\n      tag_158\n      jump\t// in\n    tag_253:\n        /* \"#utility.yul\":8642:8730   */\n    tag_252:\n        /* \"#utility.yul\":8750:8760   */\n      dup1\n        /* \"#utility.yul\":8746:8748   */\n      0x40\n        /* \"#utility.yul\":8739:8761   */\n      mstore\n        /* \"#utility.yul\":8529:8767   */\n      pop\n        /* \"#utility.yul\":8486:8767   */\n      pop\n      pop\n      jump\t// out\n        /* \"#utility.yul\":8773:8902   */\n    tag_160:\n        /* \"#utility.yul\":8807:8813   */\n      0x00\n        /* \"#utility.yul\":8834:8854   */\n      tag_255\n      tag_131\n      jump\t// in\n    tag_255:\n        /* \"#utility.yul\":8824:8854   */\n      swap1\n      pop\n        /* \"#utility.yul\":8863:8896   */\n      tag_256\n        /* \"#utility.yul\":8891:8895   */\n      dup3\n        /* \"#utility.yul\":8883:8889   */\n      dup3\n        /* \"#utility.yul\":8863:8896   */\n      tag_159\n      jump\t// in\n    tag_256:\n        /* \"#utility.yul\":8773:8902   */\n      swap2\n      swap1\n      pop\n      jump\t// out\n        /* \"#utility.yul\":8908:9216   */\n    tag_161:\n        /* \"#utility.yul\":8970:8974   */\n      0x00\n        /* \"#utility.yul\":9060:9078   */\n      0xffffffffffffffff\n        /* \"#utility.yul\":9052:9058   */\n      dup3\n        /* \"#utility.yul\":9049:9079   */\n      gt\n        /* \"#utility.yul\":9046:9102   */\n      iszero\n      tag_258\n      jumpi\n        /* \"#utility.yul\":9082:9100   */\n      tag_259\n      tag_158\n      jump\t// in\n    tag_259:\n        /* \"#utility.yul\":9046:9102   */\n    tag_258:\n        /* \"#utility.yul\":9120:9149   */\n      tag_260\n        /* \"#utility.yul\":9142:9148   */\n      dup3\n        /* \"#utility.yul\":9120:9149   */\n      tag_142\n      jump\t// in\n    tag_260:\n        /* \"#utility.yul\":9112:9149   */\n      swap1\n      pop\n        /* \"#utility.yul\":9204:9208   */\n      0x20\n        /* \"#utility.yul\":9198:9202   */\n      dup2\n        /* \"#utility.yul\":9194:9209   */\n      add\n        /* \"#utility.yul\":9186:9209   */\n      swap1\n      pop\n        /* \"#utility.yul\":8908:9216   */\n      swap2\n      swap1\n      pop\n      jump\t// out\n        /* \"#utility.yul\":9222:9376   */\n    tag_162:\n        /* \"#utility.yul\":9306:9312   */\n      dup3\n        /* \"#utility.yul\":9301:9304   */\n      dup2\n        /* \"#utility.yul\":9296:9299   */\n      dup4\n        /* \"#utility.yul\":9283:9313   */\n      calldatacopy\n        /* \"#utility.yul\":9368:9369   */\n      0x00\n        /* \"#utility.yul\":9359:9365   */\n      dup4\n        /* \"#utility.yul\":9354:9357   */\n      dup4\n        /* \"#utility.yul\":9350:9366   */\n      add\n        /* \"#utility.yul\":9343:9370   */\n      mstore\n        /* \"#utility.yul\":9222:9376   */\n      pop\n      pop\n      pop\n      jump\t// out\n        /* \"#utility.yul\":9382:9794   */\n    tag_163:\n        /* \"#utility.yul\":9460:9465   */\n      0x00\n        /* \"#utility.yul\":9485:9551   */\n      tag_263\n        /* \"#utility.yul\":9501:9550   */\n      tag_264\n        /* \"#utility.yul\":9543:9549   */\n      dup5\n        /* \"#utility.yul\":9501:9550   */\n      tag_161\n      jump\t// in\n    tag_264:\n        /* \"#utility.yul\":9485:9551   */\n      tag_160\n      jump\t// in\n    tag_263:\n        /* \"#utility.yul\":9476:9551   */\n      swap1\n      pop\n        /* \"#utility.yul\":9574:9580   */\n      dup3\n        /* \"#utility.yul\":9567:9572   */\n      dup2\n        /* \"#utility.yul\":9560:9581   */\n      mstore\n        /* \"#utility.yul\":9612:9616   */\n      0x20\n        /* \"#utility.yul\":9605:9610   */\n      dup2\n        /* \"#utility.yul\":9601:9617   */\n      add\n        /* \"#utility.yul\":9650:9653   */\n      dup5\n        /* \"#utility.yul\":9641:9647   */\n      dup5\n        /* \"#utility.yul\":9636:9639   */\n      dup5\n        /* \"#utility.yul\":9632:9648   */\n      add\n        /* \"#utility.yul\":9629:9654   */\n      gt\n        /* \"#utility.yul\":9626:9738   */\n      iszero\n      tag_265\n      jumpi\n        /* \"#utility.yul\":9657:9736   */\n      tag_266\n      tag_157\n      jump\t// in\n    tag_266:\n        /* \"#utility.yul\":9626:9738   */\n    tag_265:\n        /* \"#utility.yul\":9747:9788   */\n      tag_267\n        /* \"#utility.yul\":9781:9787   */\n      dup5\n        /* \"#utility.yul\":9776:9779   */\n      dup3\n        /* \"#utility.yul\":9771:9774   */\n      dup6\n        /* \"#utility.yul\":9747:9788   */\n      tag_162\n      jump\t// in\n    tag_267:\n        /* \"#utility.yul\":9466:9794   */\n      pop\n        /* \"#utility.yul\":9382:9794   */\n      swap4\n      swap3\n      pop\n      pop\n      pop\n      jump\t// out\n        /* \"#utility.yul\":9814:10154   */\n    tag_164:\n        /* \"#utility.yul\":9870:9875   */\n      0x00\n        /* \"#utility.yul\":9919:9922   */\n      dup3\n        /* \"#utility.yul\":9912:9916   */\n      0x1f\n        /* \"#utility.yul\":9904:9910   */\n      dup4\n        /* \"#utility.yul\":9900:9917   */\n      add\n        /* \"#utility.yul\":9896:9923   */\n      slt\n        /* \"#utility.yul\":9886:10008   */\n      tag_269\n      jumpi\n        /* \"#utility.yul\":9927:10006   */\n      tag_270\n      tag_156\n      jump\t// in\n    tag_270:\n        /* \"#utility.yul\":9886:10008   */\n    tag_269:\n        /* \"#utility.yul\":10044:10050   */\n      dup2\n        /* \"#utility.yul\":10031:10051   */\n      calldataload\n        /* \"#utility.yul\":10069:10148   */\n      tag_271\n        /* \"#utility.yul\":10144:10147   */\n      dup5\n        /* \"#utility.yul\":10136:10142   */\n      dup3\n        /* \"#utility.yul\":10129:10133   */\n      0x20\n        /* \"#utility.yul\":10121:10127   */\n      dup7\n        /* \"#utility.yul\":10117:10134   */\n      add\n        /* \"#utility.yul\":10069:10148   */\n      tag_163\n      jump\t// in\n    tag_271:\n        /* \"#utility.yul\":10060:10148   */\n      swap2\n      pop\n        /* \"#utility.yul\":9876:10154   */\n      pop\n        /* \"#utility.yul\":9814:10154   */\n      swap3\n      swap2\n      pop\n      pop\n      jump\t// out\n        /* \"#utility.yul\":10160:11465   */\n    tag_45:\n        /* \"#utility.yul\":10276:10282   */\n      0x00\n        /* \"#utility.yul\":10284:10290   */\n      dup1\n        /* \"#utility.yul\":10292:10298   */\n      0x00\n        /* \"#utility.yul\":10300:10306   */\n      dup1\n        /* \"#utility.yul\":10349:10352   */\n      0x80\n        /* \"#utility.yul\":10337:10346   */\n      dup6\n        /* \"#utility.yul\":10328:10335   */\n      dup8\n        /* \"#utility.yul\":10324:10347   */\n      sub\n        /* \"#utility.yul\":10320:10353   */\n      slt\n        /* \"#utility.yul\":10317:10437   */\n      iszero\n      tag_273\n      jumpi\n        /* \"#utility.yul\":10356:10435   */\n      tag_274\n      tag_132\n      jump\t// in\n    tag_274:\n        /* \"#utility.yul\":10317:10437   */\n    tag_273:\n        /* \"#utility.yul\":10504:10505   */\n      0x00\n        /* \"#utility.yul\":10493:10502   */\n      dup6\n        /* \"#utility.yul\":10489:10506   */\n      add\n        /* \"#utility.yul\":10476:10507   */\n      calldataload\n        /* \"#utility.yul\":10534:10552   */\n      0xffffffffffffffff\n        /* \"#utility.yul\":10526:10532   */\n      dup2\n        /* \"#utility.yul\":10523:10553   */\n      gt\n        /* \"#utility.yul\":10520:10637   */\n      iszero\n      tag_275\n      jumpi\n        /* \"#utility.yul\":10556:10635   */\n      tag_276\n      tag_133\n      jump\t// in\n    tag_276:\n        /* \"#utility.yul\":10520:10637   */\n    tag_275:\n        /* \"#utility.yul\":10661:10724   */\n      tag_277\n        /* \"#utility.yul\":10716:10723   */\n      dup8\n        /* \"#utility.yul\":10707:10713   */\n      dup3\n        /* \"#utility.yul\":10696:10705   */\n      dup9\n        /* \"#utility.yul\":10692:10714   */\n      add\n        /* \"#utility.yul\":10661:10724   */\n      tag_164\n      jump\t// in\n    tag_277:\n        /* \"#utility.yul\":10651:10724   */\n      swap5\n      pop\n        /* \"#utility.yul\":10447:10734   */\n      pop\n        /* \"#utility.yul\":10801:10803   */\n      0x20\n        /* \"#utility.yul\":10790:10799   */\n      dup6\n        /* \"#utility.yul\":10786:10804   */\n      add\n        /* \"#utility.yul\":10773:10805   */\n      calldataload\n        /* \"#utility.yul\":10832:10850   */\n      0xffffffffffffffff\n        /* \"#utility.yul\":10824:10830   */\n      dup2\n        /* \"#utility.yul\":10821:10851   */\n      gt\n        /* \"#utility.yul\":10818:10935   */\n      iszero\n      tag_278\n      jumpi\n        /* \"#utility.yul\":10854:10933   */\n      tag_279\n      tag_133\n      jump\t// in\n    tag_279:\n        /* \"#utility.yul\":10818:10935   */\n    tag_278:\n        /* \"#utility.yul\":10959:11022   */\n      tag_280\n        /* \"#utility.yul\":11014:11021   */\n      dup8\n        /* \"#utility.yul\":11005:11011   */\n      dup3\n        /* \"#utility.yul\":10994:11003   */\n      dup9\n        /* \"#utility.yul\":10990:11012   */\n      add\n        /* \"#utility.yul\":10959:11022   */\n      tag_164\n      jump\t// in\n    tag_280:\n        /* \"#utility.yul\":10949:11022   */\n      swap4\n      pop\n        /* \"#utility.yul\":10744:11032   */\n      pop\n        /* \"#utility.yul\":11099:11101   */\n      0x40\n        /* \"#utility.yul\":11088:11097   */\n      dup6\n        /* \"#utility.yul\":11084:11102   */\n      add\n        /* \"#utility.yul\":11071:11103   */\n      calldataload\n        /* \"#utility.yul\":11130:11148   */\n      0xffffffffffffffff\n        /* \"#utility.yul\":11122:11128   */\n      dup2\n        /* \"#utility.yul\":11119:11149   */\n      gt\n        /* \"#utility.yul\":11116:11233   */\n      iszero\n      tag_281\n      jumpi\n        /* \"#utility.yul\":11152:11231   */\n      tag_282\n      tag_133\n      jump\t// in\n    tag_282:\n        /* \"#utility.yul\":11116:11233   */\n    tag_281:\n        /* \"#utility.yul\":11257:11320   */\n      tag_283\n        /* \"#utility.yul\":11312:11319   */\n      dup8\n        /* \"#utility.yul\":11303:11309   */\n      dup3\n        /* \"#utility.yul\":11292:11301   */\n      dup9\n        /* \"#utility.yul\":11288:11310   */\n      add\n        /* \"#utility.yul\":11257:11320   */\n      tag_164\n      jump\t// in\n    tag_283:\n        /* \"#utility.yul\":11247:11320   */\n      swap3\n      pop\n        /* \"#utility.yul\":11042:11330   */\n      pop\n        /* \"#utility.yul\":11369:11371   */\n      0x60\n        /* \"#utility.yul\":11395:11448   */\n      tag_284\n        /* \"#utility.yul\":11440:11447   */\n      dup8\n        /* \"#utility.yul\":11431:11437   */\n      dup3\n        /* \"#utility.yul\":11420:11429   */\n      dup9\n        /* \"#utility.yul\":11416:11438   */\n      add\n        /* \"#utility.yul\":11395:11448   */\n      tag_138\n      jump\t// in\n    tag_284:\n        /* \"#utility.yul\":11385:11448   */\n      swap2\n      pop\n        /* \"#utility.yul\":11340:11458   */\n      pop\n        /* \"#utility.yul\":10160:11465   */\n      swap3\n      swap6\n      swap2\n      swap5\n      pop\n      swap3\n      pop\n      jump\t// out\n        /* \"#utility.yul\":11471:11651   */\n    tag_165:\n        /* \"#utility.yul\":11519:11596   */\n      0x4e487b7100000000000000000000000000000000000000000000000000000000\n        /* \"#utility.yul\":11516:11517   */\n      0x00\n        /* \"#utility.yul\":11509:11597   */\n      mstore\n        /* \"#utility.yul\":11616:11620   */\n      0x22\n        /* \"#utility.yul\":11613:11614   */\n      0x04\n        /* \"#utility.yul\":11606:11621   */\n      mstore\n        /* \"#utility.yul\":11640:11644   */\n      0x24\n        /* \"#utility.yul\":11637:11638   */\n      0x00\n        /* \"#utility.yul\":11630:11645   */\n      revert\n        /* \"#utility.yul\":11657:11977   */\n    tag_58:\n        /* \"#utility.yul\":11701:11707   */\n      0x00\n        /* \"#utility.yul\":11738:11739   */\n      0x02\n        /* \"#utility.yul\":11732:11736   */\n      dup3\n        /* \"#utility.yul\":11728:11740   */\n      div\n        /* \"#utility.yul\":11718:11740   */\n      swap1\n      pop\n        /* \"#utility.yul\":11785:11786   */\n      0x01\n        /* \"#utility.yul\":11779:11783   */\n      dup3\n        /* \"#utility.yul\":11775:11787   */\n      and\n        /* \"#utility.yul\":11806:11824   */\n      dup1\n        /* \"#utility.yul\":11796:11877   */\n      tag_287\n      jumpi\n        /* \"#utility.yul\":11862:11866   */\n      0x7f\n        /* \"#utility.yul\":11854:11860   */\n      dup3\n        /* \"#utility.yul\":11850:11867   */\n      and\n        /* \"#utility.yul\":11840:11867   */\n      swap2\n      pop\n        /* \"#utility.yul\":11796:11877   */\n    tag_287:\n        /* \"#utility.yul\":11924:11926   */\n      0x20\n        /* \"#utility.yul\":11916:11922   */\n      dup3\n        /* \"#utility.yul\":11913:11927   */\n      lt\n        /* \"#utility.yul\":11893:11911   */\n      dup2\n        /* \"#utility.yul\":11890:11928   */\n      eq\n        /* \"#utility.yul\":11887:11971   */\n      iszero\n      tag_288\n      jumpi\n        /* \"#utility.yul\":11943:11961   */\n      tag_289\n      tag_165\n      jump\t// in\n    tag_289:\n        /* \"#utility.yul\":11887:11971   */\n    tag_288:\n        /* \"#utility.yul\":11708:11977   */\n      pop\n        /* \"#utility.yul\":11657:11977   */\n      swap2\n      swap1\n      pop\n      jump\t// out\n\n    auxdata: 0xa26469706673582212203d007503d7fffcdf0455ab0bd4cd6300ce34fd6b597906148949868f3a1cbca864736f6c634300080a0033\n}\n","bytecode":{"linkReferences":{},"object":"60806040523480156200001157600080fd5b50604051620016d6380380620016d68339818101604052810190620000379190620002e4565b80600190805190602001906200004f92919062000097565b50336000806101000a81548173ffffffffffffffffffffffffffffffffffffffff021916908373ffffffffffffffffffffffffffffffffffffffff160217905550506200039a565b828054620000a59062000364565b90600052602060002090601f016020900481019282620000c9576000855562000115565b82601f10620000e457805160ff191683800117855562000115565b8280016001018555821562000115579182015b8281111562000114578251825591602001919060010190620000f7565b5b50905062000124919062000128565b5090565b5b808211156200014357600081600090555060010162000129565b5090565b6000604051905090565b600080fd5b600080fd5b600080fd5b600080fd5b6000601f19601f8301169050919050565b7f4e487b7100000000000000000000000000000000000000000000000000000000600052604160045260246000fd5b620001b08262000165565b810181811067ffffffffffffffff82111715620001d257620001d162000176565b5b80604052505050565b6000620001e762000147565b9050620001f58282620001a5565b919050565b600067ffffffffffffffff82111562000218576200021762000176565b5b620002238262000165565b9050602081019050919050565b60005b838110156200025057808201518184015260208101905062000233565b8381111562000260576000848401525b50505050565b60006200027d6200027784620001fa565b620001db565b9050828152602081018484840111156200029c576200029b62000160565b5b620002a984828562000230565b509392505050565b600082601f830112620002c957620002c86200015b565b5b8151620002db84826020860162000266565b91505092915050565b600060208284031215620002fd57620002fc62000151565b5b600082015167ffffffffffffffff8111156200031e576200031d62000156565b5b6200032c84828501620002b1565b91505092915050565b7f4e487b7100000000000000000000000000000000000000000000000000000000600052602260045260246000fd5b600060028204905060018216806200037d57607f821691505b6020821081141562000394576200039362000335565b5b50919050565b61132c80620003aa6000396000f3fe608060405234801561001057600080fd5b50600436106100935760003560e01c80632de8f46d116100665780632de8f46d1461013257806364ddfa291461015057806364efb22b1461016e578063cddb61b71461019e578063df6fa20e146101ba57610093565b8063045b30341461009857806313718c97146100b65780631af1a768146100e65780632a979f3114610102575b600080fd5b6100a06101d6565b6040516100ad9190610d14565b60405180910390f35b6100d060048036038101906100cb9190610d79565b6101fa565b6040516100dd9190610d14565b60405180910390f35b61010060048036038101906100fb9190610dd2565b610239565b005b61011c60048036038101906101179190610d79565b6102ef565b6040516101299190610e98565b60405180910390f35b61013a61039b565b6040516101479190610e98565b60405180910390f35b610158610485565b6040516101659190610f78565b60405180910390f35b61018860048036038101906101839190610dd2565b61056b565b6040516101959190611083565b60405180910390f35b6101b860048036038101906101b391906111da565b610843565b005b6101d460048036038101906101cf9190610dd2565b610b18565b005b60008054906101000a900473ffffffffffffffffffffffffffffffffffffffff1681565b6004818154811061020a57600080fd5b906000526020600020016000915054906101000a900473ffffffffffffffffffffffffffffffffffffffff1681565b60008054906101000a900473ffffffffffffffffffffffffffffffffffffffff1673ffffffffffffffffffffffffffffffffffffffff163373ffffffffffffffffffffffffffffffffffffffff161461029157600080fd5b6001600260008373ffffffffffffffffffffffffffffffffffffffff1673ffffffffffffffffffffffffffffffffffffffff16815260200190815260200160002060040160006101000a81548160ff02191690831515021790555050565b600381815481106102ff57600080fd5b90600052602060002001600091509050805461031a906112c4565b80601f0160208091040260200160405190810160405280929190818152602001828054610346906112c4565b80156103935780601f1061036857610100808354040283529160200191610393565b820191906000526020600020905b81548152906001019060200180831161037657829003601f168201915b505050505081565b606060008054906101000a900473ffffffffffffffffffffffffffffffffffffffff1673ffffffffffffffffffffffffffffffffffffffff163373ffffffffffffffffffffffffffffffffffffffff16146103f557600080fd5b60018054610402906112c4565b80601f016020809104026020016040519081016040528092919081815260200182805461042e906112c4565b801561047b5780601f106104505761010080835404028352916020019161047b565b820191906000526020600020905b81548152906001019060200180831161045e57829003601f168201915b5050505050905090565b606060008054906101000a900473ffffffffffffffffffffffffffffffffffffffff1673ffffffffffffffffffffffffffffffffffffffff163373ffffffffffffffffffffffffffffffffffffffff16146104df57600080fd5b600480548060200260200160405190810160405280929190818152602001828054801561056157602002820191906000526020600020905b8160009054906101000a900473ffffffffffffffffffffffffffffffffffffffff1673ffffffffffffffffffffffffffffffffffffffff1681526020019060010190808311610517575b5050505050905090565b610573610be9565b60008054906101000a900473ffffffffffffffffffffffffffffffffffffffff1673ffffffffffffffffffffffffffffffffffffffff163373ffffffffffffffffffffffffffffffffffffffff16146105cb57600080fd5b600260008373ffffffffffffffffffffffffffffffffffffffff1673ffffffffffffffffffffffffffffffffffffffff1681526020019081526020016000206040518060a0016040529081600082018054610625906112c4565b80601f0160208091040260200160405190810160405280929190818152602001828054610651906112c4565b801561069e5780601f106106735761010080835404028352916020019161069e565b820191906000526020600020905b81548152906001019060200180831161068157829003601f168201915b505050505081526020016001820180546106b7906112c4565b80601f01602080910402602001604051908101604052809291908181526020018280546106e3906112c4565b80156107305780601f1061070557610100808354040283529160200191610730565b820191906000526020600020905b81548152906001019060200180831161071357829003601f168201915b505050505081526020016002820160009054906101000a900473ffffffffffffffffffffffffffffffffffffffff1673ffffffffffffffffffffffffffffffffffffffff1673ffffffffffffffffffffffffffffffffffffffff16815260200160038201805461079f906112c4565b80601f01602080910402602001604051908101604052809291908181526020018280546107cb906112c4565b80156108185780601f106107ed57610100808354040283529160200191610818565b820191906000526020600020905b8154815290600101906020018083116107fb57829003601f168201915b505050505081526020016004820160009054906101000a900460ff1615151515815250509050919050565b60008054906101000a900473ffffffffffffffffffffffffffffffffffffffff1673ffffffffffffffffffffffffffffffffffffffff163373ffffffffffffffffffffffffffffffffffffffff161461089b57600080fd5b61097e600260008373ffffffffffffffffffffffffffffffffffffffff1673ffffffffffffffffffffffffffffffffffffffff16815260200190815260200160002060030180546108eb906112c4565b80601f0160208091040260200160405190810160405280929190818152602001828054610917906112c4565b80156109645780601f1061093957610100808354040283529160200191610964565b820191906000526020600020905b81548152906001019060200180831161094757829003601f168201915b505050505060405180602001604052806000815250610bce565b156109c0576003829080600181540180825580915050600190039060005260206000200160009091909190915090805190602001906109be929190610c30565b505b6000600260008373ffffffffffffffffffffffffffffffffffffffff1673ffffffffffffffffffffffffffffffffffffffff168152602001908152602001600020905084816000019080519060200190610a1b929190610c30565b5083816001019080519060200190610a34929190610c30565b50818160020160006101000a81548173ffffffffffffffffffffffffffffffffffffffff021916908373ffffffffffffffffffffffffffffffffffffffff16021790555082816003019080519060200190610a90929190610c30565b5060018160040160006101000a81548160ff0219169083151502179055506004829080600181540180825580915050600190039060005260206000200160009091909190916101000a81548173ffffffffffffffffffffffffffffffffffffffff021916908373ffffffffffffffffffffffffffffffffffffffff1602179055505050505050565b60008054906101000a900473ffffffffffffffffffffffffffffffffffffffff1673ffffffffffffffffffffffffffffffffffffffff163373ffffffffffffffffffffffffffffffffffffffff1614610b7057600080fd5b6000600260008373ffffffffffffffffffffffffffffffffffffffff1673ffffffffffffffffffffffffffffffffffffffff16815260200190815260200160002060040160006101000a81548160ff02191690831515021790555050565b60008180519060200120838051906020012014905092915050565b6040518060a001604052806060815260200160608152602001600073ffffffffffffffffffffffffffffffffffffffff168152602001606081526020016000151581525090565b828054610c3c906112c4565b90600052602060002090601f016020900481019282610c5e5760008555610ca5565b82601f10610c7757805160ff1916838001178555610ca5565b82800160010185558215610ca5579182015b82811115610ca4578251825591602001919060010190610c89565b5b509050610cb29190610cb6565b5090565b5b80821115610ccf576000816000905550600101610cb7565b5090565b600073ffffffffffffffffffffffffffffffffffffffff82169050919050565b6000610cfe82610cd3565b9050919050565b610d0e81610cf3565b82525050565b6000602082019050610d296000830184610d05565b92915050565b6000604051905090565b600080fd5b600080fd5b6000819050919050565b610d5681610d43565b8114610d6157600080fd5b50565b600081359050610d7381610d4d565b92915050565b600060208284031215610d8f57610d8e610d39565b5b6000610d9d84828501610d64565b91505092915050565b610daf81610cf3565b8114610dba57600080fd5b50565b600081359050610dcc81610da6565b92915050565b600060208284031215610de857610de7610d39565b5b6000610df684828501610dbd565b91505092915050565b600081519050919050565b600082825260208201905092915050565b60005b83811015610e39578082015181840152602081019050610e1e565b83811115610e48576000848401525b50505050565b6000601f19601f8301169050919050565b6000610e6a82610dff565b610e748185610e0a565b9350610e84818560208601610e1b565b610e8d81610e4e565b840191505092915050565b60006020820190508181036000830152610eb28184610e5f565b905092915050565b600081519050919050565b600082825260208201905092915050565b6000819050602082019050919050565b610eef81610cf3565b82525050565b6000610f018383610ee6565b60208301905092915050565b6000602082019050919050565b6000610f2582610eba565b610f2f8185610ec5565b9350610f3a83610ed6565b8060005b83811015610f6b578151610f528882610ef5565b9750610f5d83610f0d565b925050600181019050610f3e565b5085935050505092915050565b60006020820190508181036000830152610f928184610f1a565b905092915050565b600082825260208201905092915050565b6000610fb682610dff565b610fc08185610f9a565b9350610fd0818560208601610e1b565b610fd981610e4e565b840191505092915050565b60008115159050919050565b610ff981610fe4565b82525050565b600060a083016000830151848203600086015261101c8282610fab565b915050602083015184820360208601526110368282610fab565b915050604083015161104b6040860182610ee6565b50606083015184820360608601526110638282610fab565b91505060808301516110786080860182610ff0565b508091505092915050565b6000602082019050818103600083015261109d8184610fff565b905092915050565b600080fd5b600080fd5b7f4e487b7100000000000000000000000000000000000000000000000000000000600052604160045260246000fd5b6110e782610e4e565b810181811067ffffffffffffffff82111715611106576111056110af565b5b80604052505050565b6000611119610d2f565b905061112582826110de565b919050565b600067ffffffffffffffff821115611145576111446110af565b5b61114e82610e4e565b9050602081019050919050565b82818337600083830152505050565b600061117d6111788461112a565b61110f565b905082815260208101848484011115611199576111986110aa565b5b6111a484828561115b565b509392505050565b600082601f8301126111c1576111c06110a5565b5b81356111d184826020860161116a565b91505092915050565b600080600080608085870312156111f4576111f3610d39565b5b600085013567ffffffffffffffff81111561121257611211610d3e565b5b61121e878288016111ac565b945050602085013567ffffffffffffffff81111561123f5761123e610d3e565b5b61124b878288016111ac565b935050604085013567ffffffffffffffff81111561126c5761126b610d3e565b5b611278878288016111ac565b925050606061128987828801610dbd565b91505092959194509250565b7f4e487b7100000000000000000000000000000000000000000000000000000000600052602260045260246000fd5b600060028204905060018216806112dc57607f821691505b602082108114156112f0576112ef611295565b5b5091905056fea26469706673582212203d007503d7fffcdf0455ab0bd4cd6300ce34fd6b597906148949868f3a1cbca864736f6c634300080a0033","opcodes":"PUSH1 0x80 PUSH1 0x40 MSTORE CALLVALUE DUP1 ISZERO PUSH3 0x11 JUMPI PUSH1 0x0 DUP1 REVERT JUMPDEST POP PUSH1 0x40 MLOAD PUSH3 0x16D6 CODESIZE SUB DUP1 PUSH3 0x16D6 DUP4 CODECOPY DUP2 DUP2 ADD PUSH1 0x40 MSTORE DUP2 ADD SWAP1 PUSH3 0x37 SWAP2 SWAP1 PUSH3 0x2E4 JUMP JUMPDEST DUP1 PUSH1 0x1 SWAP1 DUP1 MLOAD SWAP1 PUSH1 0x20 ADD SWAP1 PUSH3 0x4F SWAP3 SWAP2 SWAP1 PUSH3 0x97 JUMP JUMPDEST POP CALLER PUSH1 0x0 DUP1 PUSH2 0x100 EXP DUP2 SLOAD DUP2 PUSH20 0xFFFFFFFFFFFFFFFFFFFFFFFFFFFFFFFFFFFFFFFF MUL NOT AND SWAP1 DUP4 PUSH20 0xFFFFFFFFFFFFFFFFFFFFFFFFFFFFFFFFFFFFFFFF AND MUL OR SWAP1 SSTORE POP POP PUSH3 0x39A JUMP JUMPDEST DUP3 DUP1 SLOAD PUSH3 0xA5 SWAP1 PUSH3 0x364 JUMP JUMPDEST SWAP1 PUSH1 0x0 MSTORE PUSH1 0x20 PUSH1 0x0 KECCAK256 SWAP1 PUSH1 0x1F ADD PUSH1 0x20 SWAP1 DIV DUP2 ADD SWAP3 DUP3 PUSH3 0xC9 JUMPI PUSH1 0x0 DUP6 SSTORE PUSH3 0x115 JUMP JUMPDEST DUP3 PUSH1 0x1F LT PUSH3 0xE4 JUMPI DUP1 MLOAD PUSH1 0xFF NOT AND DUP4 DUP1 ADD OR DUP6 SSTORE PUSH3 0x115 JUMP JUMPDEST DUP3 DUP1 ADD PUSH1 0x1 ADD DUP6 SSTORE DUP3 ISZERO PUSH3 0x115 JUMPI SWAP2 DUP3 ADD JUMPDEST DUP3 DUP2 GT ISZERO PUSH3 0x114 JUMPI DUP3 MLOAD DUP3 SSTORE SWAP2 PUSH1 0x20 ADD SWAP2 SWAP1 PUSH1 0x1 ADD SWAP1 PUSH3 0xF7 JUMP JUMPDEST JUMPDEST POP SWAP1 POP PUSH3 0x124 SWAP2 SWAP1 PUSH3 0x128 JUMP JUMPDEST POP SWAP1 JUMP JUMPDEST JUMPDEST DUP1 DUP3 GT ISZERO PUSH3 0x143 JUMPI PUSH1 0x0 DUP2 PUSH1 0x0 SWAP1 SSTORE POP PUSH1 0x1 ADD PUSH3 0x129 JUMP JUMPDEST POP SWAP1 JUMP JUMPDEST PUSH1 0x0 PUSH1 0x40 MLOAD SWAP1 POP SWAP1 JUMP JUMPDEST PUSH1 0x0 DUP1 REVERT JUMPDEST PUSH1 0x0 DUP1 REVERT JUMPDEST PUSH1 0x0 DUP1 REVERT JUMPDEST PUSH1 0x0 DUP1 REVERT JUMPDEST PUSH1 0x0 PUSH1 0x1F NOT PUSH1 0x1F DUP4 ADD AND SWAP1 POP SWAP2 SWAP1 POP JUMP JUMPDEST PUSH32 0x4E487B7100000000000000000000000000000000000000000000000000000000 PUSH1 0x0 MSTORE PUSH1 0x41 PUSH1 0x4 MSTORE PUSH1 0x24 PUSH1 0x0 REVERT JUMPDEST PUSH3 0x1B0 DUP3 PUSH3 0x165 JUMP JUMPDEST DUP2 ADD DUP2 DUP2 LT PUSH8 0xFFFFFFFFFFFFFFFF DUP3 GT OR ISZERO PUSH3 0x1D2 JUMPI PUSH3 0x1D1 PUSH3 0x176 JUMP JUMPDEST JUMPDEST DUP1 PUSH1 0x40 MSTORE POP POP POP JUMP JUMPDEST PUSH1 0x0 PUSH3 0x1E7 PUSH3 0x147 JUMP JUMPDEST SWAP1 POP PUSH3 0x1F5 DUP3 DUP3 PUSH3 0x1A5 JUMP JUMPDEST SWAP2 SWAP1 POP JUMP JUMPDEST PUSH1 0x0 PUSH8 0xFFFFFFFFFFFFFFFF DUP3 GT ISZERO PUSH3 0x218 JUMPI PUSH3 0x217 PUSH3 0x176 JUMP JUMPDEST JUMPDEST PUSH3 0x223 DUP3 PUSH3 0x165 JUMP JUMPDEST SWAP1 POP PUSH1 0x20 DUP2 ADD SWAP1 POP SWAP2 SWAP1 POP JUMP JUMPDEST PUSH1 0x0 JUMPDEST DUP4 DUP2 LT ISZERO PUSH3 0x250 JUMPI DUP1 DUP3 ADD MLOAD DUP2 DUP5 ADD MSTORE PUSH1 0x20 DUP2 ADD SWAP1 POP PUSH3 0x233 JUMP JUMPDEST DUP4 DUP2 GT ISZERO PUSH3 0x260 JUMPI PUSH1 0x0 DUP5 DUP5 ADD MSTORE JUMPDEST POP POP POP POP JUMP JUMPDEST PUSH1 0x0 PUSH3 0x27D PUSH3 0x277 DUP5 PUSH3 0x1FA JUMP JUMPDEST PUSH3 0x1DB JUMP JUMPDEST SWAP1 POP DUP3 DUP2 MSTORE PUSH1 0x20 DUP2 ADD DUP5 DUP5 DUP5 ADD GT ISZERO PUSH3 0x29C JUMPI PUSH3 0x29B PUSH3 0x160 JUMP JUMPDEST JUMPDEST PUSH3 0x2A9 DUP5 DUP3 DUP6 PUSH3 0x230 JUMP JUMPDEST POP SWAP4 SWAP3 POP POP POP JUMP JUMPDEST PUSH1 0x0 DUP3 PUSH1 0x1F DUP4 ADD SLT PUSH3 0x2C9 JUMPI PUSH3 0x2C8 PUSH3 0x15B JUMP JUMPDEST JUMPDEST DUP2 MLOAD PUSH3 0x2DB DUP5 DUP3 PUSH1 0x20 DUP7 ADD PUSH3 0x266 JUMP JUMPDEST SWAP2 POP POP SWAP3 SWAP2 POP POP JUMP JUMPDEST PUSH1 0x0 PUSH1 0x20 DUP3 DUP5 SUB SLT ISZERO PUSH3 0x2FD JUMPI PUSH3 0x2FC PUSH3 0x151 JUMP JUMPDEST JUMPDEST PUSH1 0x0 DUP3 ADD MLOAD PUSH8 0xFFFFFFFFFFFFFFFF DUP2 GT ISZERO PUSH3 0x31E JUMPI PUSH3 0x31D PUSH3 0x156 JUMP JUMPDEST JUMPDEST PUSH3 0x32C DUP5 DUP3 DUP6 ADD PUSH3 0x2B1 JUMP JUMPDEST SWAP2 POP POP SWAP3 SWAP2 POP POP JUMP JUMPDEST PUSH32 0x4E487B7100000000000000000000000000000000000000000000000000000000 PUSH1 0x0 MSTORE PUSH1 0x22 PUSH1 0x4 MSTORE PUSH1 0x24 PUSH1 0x0 REVERT JUMPDEST PUSH1 0x0 PUSH1 0x2 DUP3 DIV SWAP1 POP PUSH1 0x1 DUP3 AND DUP1 PUSH3 0x37D JUMPI PUSH1 0x7F DUP3 AND SWAP2 POP JUMPDEST PUSH1 0x20 DUP3 LT DUP2 EQ ISZERO PUSH3 0x394 JUMPI PUSH3 0x393 PUSH3 0x335 JUMP JUMPDEST JUMPDEST POP SWAP2 SWAP1 POP JUMP JUMPDEST PUSH2 0x132C DUP1 PUSH3 0x3AA PUSH1 0x0 CODECOPY PUSH1 0x0 RETURN INVALID PUSH1 0x80 PUSH1 0x40 MSTORE CALLVALUE DUP1 ISZERO PUSH2 0x10 JUMPI PUSH1 0x0 DUP1 REVERT JUMPDEST POP PUSH1 0x4 CALLDATASIZE LT PUSH2 0x93 JUMPI PUSH1 0x0 CALLDATALOAD PUSH1 0xE0 SHR DUP1 PUSH4 0x2DE8F46D GT PUSH2 0x66 JUMPI DUP1 PUSH4 0x2DE8F46D EQ PUSH2 0x132 JUMPI DUP1 PUSH4 0x64DDFA29 EQ PUSH2 0x150 JUMPI DUP1 PUSH4 0x64EFB22B EQ PUSH2 0x16E JUMPI DUP1 PUSH4 0xCDDB61B7 EQ PUSH2 0x19E JUMPI DUP1 PUSH4 0xDF6FA20E EQ PUSH2 0x1BA JUMPI PUSH2 0x93 JUMP JUMPDEST DUP1 PUSH4 0x45B3034 EQ PUSH2 0x98 JUMPI DUP1 PUSH4 0x13718C97 EQ PUSH2 0xB6 JUMPI DUP1 PUSH4 0x1AF1A768 EQ PUSH2 0xE6 JUMPI DUP1 PUSH4 0x2A979F31 EQ PUSH2 0x102 JUMPI JUMPDEST PUSH1 0x0 DUP1 REVERT JUMPDEST PUSH2 0xA0 PUSH2 0x1D6 JUMP JUMPDEST PUSH1 0x40 MLOAD PUSH2 0xAD SWAP2 SWAP1 PUSH2 0xD14 JUMP JUMPDEST PUSH1 0x40 MLOAD DUP1 SWAP2 SUB SWAP1 RETURN JUMPDEST PUSH2 0xD0 PUSH1 0x4 DUP1 CALLDATASIZE SUB DUP2 ADD SWAP1 PUSH2 0xCB SWAP2 SWAP1 PUSH2 0xD79 JUMP JUMPDEST PUSH2 0x1FA JUMP JUMPDEST PUSH1 0x40 MLOAD PUSH2 0xDD SWAP2 SWAP1 PUSH2 0xD14 JUMP JUMPDEST PUSH1 0x40 MLOAD DUP1 SWAP2 SUB SWAP1 RETURN JUMPDEST PUSH2 0x100 PUSH1 0x4 DUP1 CALLDATASIZE SUB DUP2 ADD SWAP1 PUSH2 0xFB SWAP2 SWAP1 PUSH2 0xDD2 JUMP JUMPDEST PUSH2 0x239 JUMP JUMPDEST STOP JUMPDEST PUSH2 0x11C PUSH1 0x4 DUP1 CALLDATASIZE SUB DUP2 ADD SWAP1 PUSH2 0x117 SWAP2 SWAP1 PUSH2 0xD79 JUMP JUMPDEST PUSH2 0x2EF JUMP JUMPDEST PUSH1 0x40 MLOAD PUSH2 0x129 SWAP2 SWAP1 PUSH2 0xE98 JUMP JUMPDEST PUSH1 0x40 MLOAD DUP1 SWAP2 SUB SWAP1 RETURN JUMPDEST PUSH2 0x13A PUSH2 0x39B JUMP JUMPDEST PUSH1 0x40 MLOAD PUSH2 0x147 SWAP2 SWAP1 PUSH2 0xE98 JUMP JUMPDEST PUSH1 0x40 MLOAD DUP1 SWAP2 SUB SWAP1 RETURN JUMPDEST PUSH2 0x158 PUSH2 0x485 JUMP JUMPDEST PUSH1 0x40 MLOAD PUSH2 0x165 SWAP2 SWAP1 PUSH2 0xF78 JUMP JUMPDEST PUSH1 0x40 MLOAD DUP1 SWAP2 SUB SWAP1 RETURN JUMPDEST PUSH2 0x188 PUSH1 0x4 DUP1 CALLDATASIZE SUB DUP2 ADD SWAP1 PUSH2 0x183 SWAP2 SWAP1 PUSH2 0xDD2 JUMP JUMPDEST PUSH2 0x56B JUMP JUMPDEST PUSH1 0x40 MLOAD PUSH2 0x195 SWAP2 SWAP1 PUSH2 0x1083 JUMP JUMPDEST PUSH1 0x40 MLOAD DUP1 SWAP2 SUB SWAP1 RETURN JUMPDEST PUSH2 0x1B8 PUSH1 0x4 DUP1 CALLDATASIZE SUB DUP2 ADD SWAP1 PUSH2 0x1B3 SWAP2 SWAP1 PUSH2 0x11DA JUMP JUMPDEST PUSH2 0x843 JUMP JUMPDEST STOP JUMPDEST PUSH2 0x1D4 PUSH1 0x4 DUP1 CALLDATASIZE SUB DUP2 ADD SWAP1 PUSH2 0x1CF SWAP2 SWAP1 PUSH2 0xDD2 JUMP JUMPDEST PUSH2 0xB18 JUMP JUMPDEST STOP JUMPDEST PUSH1 0x0 DUP1 SLOAD SWAP1 PUSH2 0x100 EXP SWAP1 DIV PUSH20 0xFFFFFFFFFFFFFFFFFFFFFFFFFFFFFFFFFFFFFFFF AND DUP2 JUMP JUMPDEST PUSH1 0x4 DUP2 DUP2 SLOAD DUP2 LT PUSH2 0x20A JUMPI PUSH1 0x0 DUP1 REVERT JUMPDEST SWAP1 PUSH1 0x0 MSTORE PUSH1 0x20 PUSH1 0x0 KECCAK256 ADD PUSH1 0x0 SWAP2 POP SLOAD SWAP1 PUSH2 0x100 EXP SWAP1 DIV PUSH20 0xFFFFFFFFFFFFFFFFFFFFFFFFFFFFFFFFFFFFFFFF AND DUP2 JUMP JUMPDEST PUSH1 0x0 DUP1 SLOAD SWAP1 PUSH2 0x100 EXP SWAP1 DIV PUSH20 0xFFFFFFFFFFFFFFFFFFFFFFFFFFFFFFFFFFFFFFFF AND PUSH20 0xFFFFFFFFFFFFFFFFFFFFFFFFFFFFFFFFFFFFFFFF AND CALLER PUSH20 0xFFFFFFFFFFFFFFFFFFFFFFFFFFFFFFFFFFFFFFFF AND EQ PUSH2 0x291 JUMPI PUSH1 0x0 DUP1 REVERT JUMPDEST PUSH1 0x1 PUSH1 0x2 PUSH1 0x0 DUP4 PUSH20 0xFFFFFFFFFFFFFFFFFFFFFFFFFFFFFFFFFFFFFFFF AND PUSH20 0xFFFFFFFFFFFFFFFFFFFFFFFFFFFFFFFFFFFFFFFF AND DUP2 MSTORE PUSH1 0x20 ADD SWAP1 DUP2 MSTORE PUSH1 0x20 ADD PUSH1 0x0 KECCAK256 PUSH1 0x4 ADD PUSH1 0x0 PUSH2 0x100 EXP DUP2 SLOAD DUP2 PUSH1 0xFF MUL NOT AND SWAP1 DUP4 ISZERO ISZERO MUL OR SWAP1 SSTORE POP POP JUMP JUMPDEST PUSH1 0x3 DUP2 DUP2 SLOAD DUP2 LT PUSH2 0x2FF JUMPI PUSH1 0x0 DUP1 REVERT JUMPDEST SWAP1 PUSH1 0x0 MSTORE PUSH1 0x20 PUSH1 0x0 KECCAK256 ADD PUSH1 0x0 SWAP2 POP SWAP1 POP DUP1 SLOAD PUSH2 0x31A SWAP1 PUSH2 0x12C4 JUMP JUMPDEST DUP1 PUSH1 0x1F ADD PUSH1 0x20 DUP1 SWAP2 DIV MUL PUSH1 0x20 ADD PUSH1 0x40 MLOAD SWAP1 DUP2 ADD PUSH1 0x40 MSTORE DUP1 SWAP3 SWAP2 SWAP1 DUP2 DUP2 MSTORE PUSH1 0x20 ADD DUP3 DUP1 SLOAD PUSH2 0x346 SWAP1 PUSH2 0x12C4 JUMP JUMPDEST DUP1 ISZERO PUSH2 0x393 JUMPI DUP1 PUSH1 0x1F LT PUSH2 0x368 JUMPI PUSH2 0x100 DUP1 DUP4 SLOAD DIV MUL DUP4 MSTORE SWAP2 PUSH1 0x20 ADD SWAP2 PUSH2 0x393 JUMP JUMPDEST DUP3 ADD SWAP2 SWAP1 PUSH1 0x0 MSTORE PUSH1 0x20 PUSH1 0x0 KECCAK256 SWAP1 JUMPDEST DUP2 SLOAD DUP2 MSTORE SWAP1 PUSH1 0x1 ADD SWAP1 PUSH1 0x20 ADD DUP1 DUP4 GT PUSH2 0x376 JUMPI DUP3 SWAP1 SUB PUSH1 0x1F AND DUP3 ADD SWAP2 JUMPDEST POP POP POP POP POP DUP2 JUMP JUMPDEST PUSH1 0x60 PUSH1 0x0 DUP1 SLOAD SWAP1 PUSH2 0x100 EXP SWAP1 DIV PUSH20 0xFFFFFFFFFFFFFFFFFFFFFFFFFFFFFFFFFFFFFFFF AND PUSH20 0xFFFFFFFFFFFFFFFFFFFFFFFFFFFFFFFFFFFFFFFF AND CALLER PUSH20 0xFFFFFFFFFFFFFFFFFFFFFFFFFFFFFFFFFFFFFFFF AND EQ PUSH2 0x3F5 JUMPI PUSH1 0x0 DUP1 REVERT JUMPDEST PUSH1 0x1 DUP1 SLOAD PUSH2 0x402 SWAP1 PUSH2 0x12C4 JUMP JUMPDEST DUP1 PUSH1 0x1F ADD PUSH1 0x20 DUP1 SWAP2 DIV MUL PUSH1 0x20 ADD PUSH1 0x40 MLOAD SWAP1 DUP2 ADD PUSH1 0x40 MSTORE DUP1 SWAP3 SWAP2 SWAP1 DUP2 DUP2 MSTORE PUSH1 0x20 ADD DUP3 DUP1 SLOAD PUSH2 0x42E SWAP1 PUSH2 0x12C4 JUMP JUMPDEST DUP1 ISZERO PUSH2 0x47B JUMPI DUP1 PUSH1 0x1F LT PUSH2 0x450 JUMPI PUSH2 0x100 DUP1 DUP4 SLOAD DIV MUL DUP4 MSTORE SWAP2 PUSH1 0x20 ADD SWAP2 PUSH2 0x47B JUMP JUMPDEST DUP3 ADD SWAP2 SWAP1 PUSH1 0x0 MSTORE PUSH1 0x20 PUSH1 0x0 KECCAK256 SWAP1 JUMPDEST DUP2 SLOAD DUP2 MSTORE SWAP1 PUSH1 0x1 ADD SWAP1 PUSH1 0x20 ADD DUP1 DUP4 GT PUSH2 0x45E JUMPI DUP3 SWAP1 SUB PUSH1 0x1F AND DUP3 ADD SWAP2 JUMPDEST POP POP POP POP POP SWAP1 POP SWAP1 JUMP JUMPDEST PUSH1 0x60 PUSH1 0x0 DUP1 SLOAD SWAP1 PUSH2 0x100 EXP SWAP1 DIV PUSH20 0xFFFFFFFFFFFFFFFFFFFFFFFFFFFFFFFFFFFFFFFF AND PUSH20 0xFFFFFFFFFFFFFFFFFFFFFFFFFFFFFFFFFFFFFFFF AND CALLER PUSH20 0xFFFFFFFFFFFFFFFFFFFFFFFFFFFFFFFFFFFFFFFF AND EQ PUSH2 0x4DF JUMPI PUSH1 0x0 DUP1 REVERT JUMPDEST PUSH1 0x4 DUP1 SLOAD DUP1 PUSH1 0x20 MUL PUSH1 0x20 ADD PUSH1 0x40 MLOAD SWAP1 DUP2 ADD PUSH1 0x40 MSTORE DUP1 SWAP3 SWAP2 SWAP1 DUP2 DUP2 MSTORE PUSH1 0x20 ADD DUP3 DUP1 SLOAD DUP1 ISZERO PUSH2 0x561 JUMPI PUSH1 0x20 MUL DUP3 ADD SWAP2 SWAP1 PUSH1 0x0 MSTORE PUSH1 0x20 PUSH1 0x0 KECCAK256 SWAP1 JUMPDEST DUP2 PUSH1 0x0 SWAP1 SLOAD SWAP1 PUSH2 0x100 EXP SWAP1 DIV PUSH20 0xFFFFFFFFFFFFFFFFFFFFFFFFFFFFFFFFFFFFFFFF AND PUSH20 0xFFFFFFFFFFFFFFFFFFFFFFFFFFFFFFFFFFFFFFFF AND DUP2 MSTORE PUSH1 0x20 ADD SWAP1 PUSH1 0x1 ADD SWAP1 DUP1 DUP4 GT PUSH2 0x517 JUMPI JUMPDEST POP POP POP POP POP SWAP1 POP SWAP1 JUMP JUMPDEST PUSH2 0x573 PUSH2 0xBE9 JUMP JUMPDEST PUSH1 0x0 DUP1 SLOAD SWAP1 PUSH2 0x100 EXP SWAP1 DIV PUSH20 0xFFFFFFFFFFFFFFFFFFFFFFFFFFFFFFFFFFFFFFFF AND PUSH20 0xFFFFFFFFFFFFFFFFFFFFFFFFFFFFFFFFFFFFFFFF AND CALLER PUSH20 0xFFFFFFFFFFFFFFFFFFFFFFFFFFFFFFFFFFFFFFFF AND EQ PUSH2 0x5CB JUMPI PUSH1 0x0 DUP1 REVERT JUMPDEST PUSH1 0x2 PUSH1 0x0 DUP4 PUSH20 0xFFFFFFFFFFFFFFFFFFFFFFFFFFFFFFFFFFFFFFFF AND PUSH20 0xFFFFFFFFFFFFFFFFFFFFFFFFFFFFFFFFFFFFFFFF AND DUP2 MSTORE PUSH1 0x20 ADD SWAP1 DUP2 MSTORE PUSH1 0x20 ADD PUSH1 0x0 KECCAK256 PUSH1 0x40 MLOAD DUP1 PUSH1 0xA0 ADD PUSH1 0x40 MSTORE SWAP1 DUP2 PUSH1 0x0 DUP3 ADD DUP1 SLOAD PUSH2 0x625 SWAP1 PUSH2 0x12C4 JUMP JUMPDEST DUP1 PUSH1 0x1F ADD PUSH1 0x20 DUP1 SWAP2 DIV MUL PUSH1 0x20 ADD PUSH1 0x40 MLOAD SWAP1 DUP2 ADD PUSH1 0x40 MSTORE DUP1 SWAP3 SWAP2 SWAP1 DUP2 DUP2 MSTORE PUSH1 0x20 ADD DUP3 DUP1 SLOAD PUSH2 0x651 SWAP1 PUSH2 0x12C4 JUMP JUMPDEST DUP1 ISZERO PUSH2 0x69E JUMPI DUP1 PUSH1 0x1F LT PUSH2 0x673 JUMPI PUSH2 0x100 DUP1 DUP4 SLOAD DIV MUL DUP4 MSTORE SWAP2 PUSH1 0x20 ADD SWAP2 PUSH2 0x69E JUMP JUMPDEST DUP3 ADD SWAP2 SWAP1 PUSH1 0x0 MSTORE PUSH1 0x20 PUSH1 0x0 KECCAK256 SWAP1 JUMPDEST DUP2 SLOAD DUP2 MSTORE SWAP1 PUSH1 0x1 ADD SWAP1 PUSH1 0x20 ADD DUP1 DUP4 GT PUSH2 0x681 JUMPI DUP3 SWAP1 SUB PUSH1 0x1F AND DUP3 ADD SWAP2 JUMPDEST POP POP POP POP POP DUP2 MSTORE PUSH1 0x20 ADD PUSH1 0x1 DUP3 ADD DUP1 SLOAD PUSH2 0x6B7 SWAP1 PUSH2 0x12C4 JUMP JUMPDEST DUP1 PUSH1 0x1F ADD PUSH1 0x20 DUP1 SWAP2 DIV MUL PUSH1 0x20 ADD PUSH1 0x40 MLOAD SWAP1 DUP2 ADD PUSH1 0x40 MSTORE DUP1 SWAP3 SWAP2 SWAP1 DUP2 DUP2 MSTORE PUSH1 0x20 ADD DUP3 DUP1 SLOAD PUSH2 0x6E3 SWAP1 PUSH2 0x12C4 JUMP JUMPDEST DUP1 ISZERO PUSH2 0x730 JUMPI DUP1 PUSH1 0x1F LT PUSH2 0x705 JUMPI PUSH2 0x100 DUP1 DUP4 SLOAD DIV MUL DUP4 MSTORE SWAP2 PUSH1 0x20 ADD SWAP2 PUSH2 0x730 JUMP JUMPDEST DUP3 ADD SWAP2 SWAP1 PUSH1 0x0 MSTORE PUSH1 0x20 PUSH1 0x0 KECCAK256 SWAP1 JUMPDEST DUP2 SLOAD DUP2 MSTORE SWAP1 PUSH1 0x1 ADD SWAP1 PUSH1 0x20 ADD DUP1 DUP4 GT PUSH2 0x713 JUMPI DUP3 SWAP1 SUB PUSH1 0x1F AND DUP3 ADD SWAP2 JUMPDEST POP POP POP POP POP DUP2 MSTORE PUSH1 0x20 ADD PUSH1 0x2 DUP3 ADD PUSH1 0x0 SWAP1 SLOAD SWAP1 PUSH2 0x100 EXP SWAP1 DIV PUSH20 0xFFFFFFFFFFFFFFFFFFFFFFFFFFFFFFFFFFFFFFFF AND PUSH20 0xFFFFFFFFFFFFFFFFFFFFFFFFFFFFFFFFFFFFFFFF AND PUSH20 0xFFFFFFFFFFFFFFFFFFFFFFFFFFFFFFFFFFFFFFFF AND DUP2 MSTORE PUSH1 0x20 ADD PUSH1 0x3 DUP3 ADD DUP1 SLOAD PUSH2 0x79F SWAP1 PUSH2 0x12C4 JUMP JUMPDEST DUP1 PUSH1 0x1F ADD PUSH1 0x20 DUP1 SWAP2 DIV MUL PUSH1 0x20 ADD PUSH1 0x40 MLOAD SWAP1 DUP2 ADD PUSH1 0x40 MSTORE DUP1 SWAP3 SWAP2 SWAP1 DUP2 DUP2 MSTORE PUSH1 0x20 ADD DUP3 DUP1 SLOAD PUSH2 0x7CB SWAP1 PUSH2 0x12C4 JUMP JUMPDEST DUP1 ISZERO PUSH2 0x818 JUMPI DUP1 PUSH1 0x1F LT PUSH2 0x7ED JUMPI PUSH2 0x100 DUP1 DUP4 SLOAD DIV MUL DUP4 MSTORE SWAP2 PUSH1 0x20 ADD SWAP2 PUSH2 0x818 JUMP JUMPDEST DUP3 ADD SWAP2 SWAP1 PUSH1 0x0 MSTORE PUSH1 0x20 PUSH1 0x0 KECCAK256 SWAP1 JUMPDEST DUP2 SLOAD DUP2 MSTORE SWAP1 PUSH1 0x1 ADD SWAP1 PUSH1 0x20 ADD DUP1 DUP4 GT PUSH2 0x7FB JUMPI DUP3 SWAP1 SUB PUSH1 0x1F AND DUP3 ADD SWAP2 JUMPDEST POP POP POP POP POP DUP2 MSTORE PUSH1 0x20 ADD PUSH1 0x4 DUP3 ADD PUSH1 0x0 SWAP1 SLOAD SWAP1 PUSH2 0x100 EXP SWAP1 DIV PUSH1 0xFF AND ISZERO ISZERO ISZERO ISZERO DUP2 MSTORE POP POP SWAP1 POP SWAP2 SWAP1 POP JUMP JUMPDEST PUSH1 0x0 DUP1 SLOAD SWAP1 PUSH2 0x100 EXP SWAP1 DIV PUSH20 0xFFFFFFFFFFFFFFFFFFFFFFFFFFFFFFFFFFFFFFFF AND PUSH20 0xFFFFFFFFFFFFFFFFFFFFFFFFFFFFFFFFFFFFFFFF AND CALLER PUSH20 0xFFFFFFFFFFFFFFFFFFFFFFFFFFFFFFFFFFFFFFFF AND EQ PUSH2 0x89B JUMPI PUSH1 0x0 DUP1 REVERT JUMPDEST PUSH2 0x97E PUSH1 0x2 PUSH1 0x0 DUP4 PUSH20 0xFFFFFFFFFFFFFFFFFFFFFFFFFFFFFFFFFFFFFFFF AND PUSH20 0xFFFFFFFFFFFFFFFFFFFFFFFFFFFFFFFFFFFFFFFF AND DUP2 MSTORE PUSH1 0x20 ADD SWAP1 DUP2 MSTORE PUSH1 0x20 ADD PUSH1 0x0 KECCAK256 PUSH1 0x3 ADD DUP1 SLOAD PUSH2 0x8EB SWAP1 PUSH2 0x12C4 JUMP JUMPDEST DUP1 PUSH1 0x1F ADD PUSH1 0x20 DUP1 SWAP2 DIV MUL PUSH1 0x20 ADD PUSH1 0x40 MLOAD SWAP1 DUP2 ADD PUSH1 0x40 MSTORE DUP1 SWAP3 SWAP2 SWAP1 DUP2 DUP2 MSTORE PUSH1 0x20 ADD DUP3 DUP1 SLOAD PUSH2 0x917 SWAP1 PUSH2 0x12C4 JUMP JUMPDEST DUP1 ISZERO PUSH2 0x964 JUMPI DUP1 PUSH1 0x1F LT PUSH2 0x939 JUMPI PUSH2 0x100 DUP1 DUP4 SLOAD DIV MUL DUP4 MSTORE SWAP2 PUSH1 0x20 ADD SWAP2 PUSH2 0x964 JUMP JUMPDEST DUP3 ADD SWAP2 SWAP1 PUSH1 0x0 MSTORE PUSH1 0x20 PUSH1 0x0 KECCAK256 SWAP1 JUMPDEST DUP2 SLOAD DUP2 MSTORE SWAP1 PUSH1 0x1 ADD SWAP1 PUSH1 0x20 ADD DUP1 DUP4 GT PUSH2 0x947 JUMPI DUP3 SWAP1 SUB PUSH1 0x1F AND DUP3 ADD SWAP2 JUMPDEST POP POP POP POP POP PUSH1 0x40 MLOAD DUP1 PUSH1 0x20 ADD PUSH1 0x40 MSTORE DUP1 PUSH1 0x0 DUP2 MSTORE POP PUSH2 0xBCE JUMP JUMPDEST ISZERO PUSH2 0x9C0 JUMPI PUSH1 0x3 DUP3 SWAP1 DUP1 PUSH1 0x1 DUP2 SLOAD ADD DUP1 DUP3 SSTORE DUP1 SWAP2 POP POP PUSH1 0x1 SWAP1 SUB SWAP1 PUSH1 0x0 MSTORE PUSH1 0x20 PUSH1 0x0 KECCAK256 ADD PUSH1 0x0 SWAP1 SWAP2 SWAP1 SWAP2 SWAP1 SWAP2 POP SWAP1 DUP1 MLOAD SWAP1 PUSH1 0x20 ADD SWAP1 PUSH2 0x9BE SWAP3 SWAP2 SWAP1 PUSH2 0xC30 JUMP JUMPDEST POP JUMPDEST PUSH1 0x0 PUSH1 0x2 PUSH1 0x0 DUP4 PUSH20 0xFFFFFFFFFFFFFFFFFFFFFFFFFFFFFFFFFFFFFFFF AND PUSH20 0xFFFFFFFFFFFFFFFFFFFFFFFFFFFFFFFFFFFFFFFF AND DUP2 MSTORE PUSH1 0x20 ADD SWAP1 DUP2 MSTORE PUSH1 0x20 ADD PUSH1 0x0 KECCAK256 SWAP1 POP DUP5 DUP2 PUSH1 0x0 ADD SWAP1 DUP1 MLOAD SWAP1 PUSH1 0x20 ADD SWAP1 PUSH2 0xA1B SWAP3 SWAP2 SWAP1 PUSH2 0xC30 JUMP JUMPDEST POP DUP4 DUP2 PUSH1 0x1 ADD SWAP1 DUP1 MLOAD SWAP1 PUSH1 0x20 ADD SWAP1 PUSH2 0xA34 SWAP3 SWAP2 SWAP1 PUSH2 0xC30 JUMP JUMPDEST POP DUP2 DUP2 PUSH1 0x2 ADD PUSH1 0x0 PUSH2 0x100 EXP DUP2 SLOAD DUP2 PUSH20 0xFFFFFFFFFFFFFFFFFFFFFFFFFFFFFFFFFFFFFFFF MUL NOT AND SWAP1 DUP4 PUSH20 0xFFFFFFFFFFFFFFFFFFFFFFFFFFFFFFFFFFFFFFFF AND MUL OR SWAP1 SSTORE POP DUP3 DUP2 PUSH1 0x3 ADD SWAP1 DUP1 MLOAD SWAP1 PUSH1 0x20 ADD SWAP1 PUSH2 0xA90 SWAP3 SWAP2 SWAP1 PUSH2 0xC30 JUMP JUMPDEST POP PUSH1 0x1 DUP2 PUSH1 0x4 ADD PUSH1 0x0 PUSH2 0x100 EXP DUP2 SLOAD DUP2 PUSH1 0xFF MUL NOT AND SWAP1 DUP4 ISZERO ISZERO MUL OR SWAP1 SSTORE POP PUSH1 0x4 DUP3 SWAP1 DUP1 PUSH1 0x1 DUP2 SLOAD ADD DUP1 DUP3 SSTORE DUP1 SWAP2 POP POP PUSH1 0x1 SWAP1 SUB SWAP1 PUSH1 0x0 MSTORE PUSH1 0x20 PUSH1 0x0 KECCAK256 ADD PUSH1 0x0 SWAP1 SWAP2 SWAP1 SWAP2 SWAP1 SWAP2 PUSH2 0x100 EXP DUP2 SLOAD DUP2 PUSH20 0xFFFFFFFFFFFFFFFFFFFFFFFFFFFFFFFFFFFFFFFF MUL NOT AND SWAP1 DUP4 PUSH20 0xFFFFFFFFFFFFFFFFFFFFFFFFFFFFFFFFFFFFFFFF AND MUL OR SWAP1 SSTORE POP POP POP POP POP POP JUMP JUMPDEST PUSH1 0x0 DUP1 SLOAD SWAP1 PUSH2 0x100 EXP SWAP1 DIV PUSH20 0xFFFFFFFFFFFFFFFFFFFFFFFFFFFFFFFFFFFFFFFF AND PUSH20 0xFFFFFFFFFFFFFFFFFFFFFFFFFFFFFFFFFFFFFFFF AND CALLER PUSH20 0xFFFFFFFFFFFFFFFFFFFFFFFFFFFFFFFFFFFFFFFF AND EQ PUSH2 0xB70 JUMPI PUSH1 0x0 DUP1 REVERT JUMPDEST PUSH1 0x0 PUSH1 0x2 PUSH1 0x0 DUP4 PUSH20 0xFFFFFFFFFFFFFFFFFFFFFFFFFFFFFFFFFFFFFFFF AND PUSH20 0xFFFFFFFFFFFFFFFFFFFFFFFFFFFFFFFFFFFFFFFF AND DUP2 MSTORE PUSH1 0x20 ADD SWAP1 DUP2 MSTORE PUSH1 0x20 ADD PUSH1 0x0 KECCAK256 PUSH1 0x4 ADD PUSH1 0x0 PUSH2 0x100 EXP DUP2 SLOAD DUP2 PUSH1 0xFF MUL NOT AND SWAP1 DUP4 ISZERO ISZERO MUL OR SWAP1 SSTORE POP POP JUMP JUMPDEST PUSH1 0x0 DUP2 DUP1 MLOAD SWAP1 PUSH1 0x20 ADD KECCAK256 DUP4 DUP1 MLOAD SWAP1 PUSH1 0x20 ADD KECCAK256 EQ SWAP1 POP SWAP3 SWAP2 POP POP JUMP JUMPDEST PUSH1 0x40 MLOAD DUP1 PUSH1 0xA0 ADD PUSH1 0x40 MSTORE DUP1 PUSH1 0x60 DUP2 MSTORE PUSH1 0x20 ADD PUSH1 0x60 DUP2 MSTORE PUSH1 0x20 ADD PUSH1 0x0 PUSH20 0xFFFFFFFFFFFFFFFFFFFFFFFFFFFFFFFFFFFFFFFF AND DUP2 MSTORE PUSH1 0x20 ADD PUSH1 0x60 DUP2 MSTORE PUSH1 0x20 ADD PUSH1 0x0 ISZERO ISZERO DUP2 MSTORE POP SWAP1 JUMP JUMPDEST DUP3 DUP1 SLOAD PUSH2 0xC3C SWAP1 PUSH2 0x12C4 JUMP JUMPDEST SWAP1 PUSH1 0x0 MSTORE PUSH1 0x20 PUSH1 0x0 KECCAK256 SWAP1 PUSH1 0x1F ADD PUSH1 0x20 SWAP1 DIV DUP2 ADD SWAP3 DUP3 PUSH2 0xC5E JUMPI PUSH1 0x0 DUP6 SSTORE PUSH2 0xCA5 JUMP JUMPDEST DUP3 PUSH1 0x1F LT PUSH2 0xC77 JUMPI DUP1 MLOAD PUSH1 0xFF NOT AND DUP4 DUP1 ADD OR DUP6 SSTORE PUSH2 0xCA5 JUMP JUMPDEST DUP3 DUP1 ADD PUSH1 0x1 ADD DUP6 SSTORE DUP3 ISZERO PUSH2 0xCA5 JUMPI SWAP2 DUP3 ADD JUMPDEST DUP3 DUP2 GT ISZERO PUSH2 0xCA4 JUMPI DUP3 MLOAD DUP3 SSTORE SWAP2 PUSH1 0x20 ADD SWAP2 SWAP1 PUSH1 0x1 ADD SWAP1 PUSH2 0xC89 JUMP JUMPDEST JUMPDEST POP SWAP1 POP PUSH2 0xCB2 SWAP2 SWAP1 PUSH2 0xCB6 JUMP JUMPDEST POP SWAP1 JUMP JUMPDEST JUMPDEST DUP1 DUP3 GT ISZERO PUSH2 0xCCF JUMPI PUSH1 0x0 DUP2 PUSH1 0x0 SWAP1 SSTORE POP PUSH1 0x1 ADD PUSH2 0xCB7 JUMP JUMPDEST POP SWAP1 JUMP JUMPDEST PUSH1 0x0 PUSH20 0xFFFFFFFFFFFFFFFFFFFFFFFFFFFFFFFFFFFFFFFF DUP3 AND SWAP1 POP SWAP2 SWAP1 POP JUMP JUMPDEST PUSH1 0x0 PUSH2 0xCFE DUP3 PUSH2 0xCD3 JUMP JUMPDEST SWAP1 POP SWAP2 SWAP1 POP JUMP JUMPDEST PUSH2 0xD0E DUP2 PUSH2 0xCF3 JUMP JUMPDEST DUP3 MSTORE POP POP JUMP JUMPDEST PUSH1 0x0 PUSH1 0x20 DUP3 ADD SWAP1 POP PUSH2 0xD29 PUSH1 0x0 DUP4 ADD DUP5 PUSH2 0xD05 JUMP JUMPDEST SWAP3 SWAP2 POP POP JUMP JUMPDEST PUSH1 0x0 PUSH1 0x40 MLOAD SWAP1 POP SWAP1 JUMP JUMPDEST PUSH1 0x0 DUP1 REVERT JUMPDEST PUSH1 0x0 DUP1 REVERT JUMPDEST PUSH1 0x0 DUP2 SWAP1 POP SWAP2 SWAP1 POP JUMP JUMPDEST PUSH2 0xD56 DUP2 PUSH2 0xD43 JUMP JUMPDEST DUP2 EQ PUSH2 0xD61 JUMPI PUSH1 0x0 DUP1 REVERT JUMPDEST POP JUMP JUMPDEST PUSH1 0x0 DUP2 CALLDATALOAD SWAP1 POP PUSH2 0xD73 DUP2 PUSH2 0xD4D JUMP JUMPDEST SWAP3 SWAP2 POP POP JUMP JUMPDEST PUSH1 0x0 PUSH1 0x20 DUP3 DUP5 SUB SLT ISZERO PUSH2 0xD8F JUMPI PUSH2 0xD8E PUSH2 0xD39 JUMP JUMPDEST JUMPDEST PUSH1 0x0 PUSH2 0xD9D DUP5 DUP3 DUP6 ADD PUSH2 0xD64 JUMP JUMPDEST SWAP2 POP POP SWAP3 SWAP2 POP POP JUMP JUMPDEST PUSH2 0xDAF DUP2 PUSH2 0xCF3 JUMP JUMPDEST DUP2 EQ PUSH2 0xDBA JUMPI PUSH1 0x0 DUP1 REVERT JUMPDEST POP JUMP JUMPDEST PUSH1 0x0 DUP2 CALLDATALOAD SWAP1 POP PUSH2 0xDCC DUP2 PUSH2 0xDA6 JUMP JUMPDEST SWAP3 SWAP2 POP POP JUMP JUMPDEST PUSH1 0x0 PUSH1 0x20 DUP3 DUP5 SUB SLT ISZERO PUSH2 0xDE8 JUMPI PUSH2 0xDE7 PUSH2 0xD39 JUMP JUMPDEST JUMPDEST PUSH1 0x0 PUSH2 0xDF6 DUP5 DUP3 DUP6 ADD PUSH2 0xDBD JUMP JUMPDEST SWAP2 POP POP SWAP3 SWAP2 POP POP JUMP JUMPDEST PUSH1 0x0 DUP2 MLOAD SWAP1 POP SWAP2 SWAP1 POP JUMP JUMPDEST PUSH1 0x0 DUP3 DUP3 MSTORE PUSH1 0x20 DUP3 ADD SWAP1 POP SWAP3 SWAP2 POP POP JUMP JUMPDEST PUSH1 0x0 JUMPDEST DUP4 DUP2 LT ISZERO PUSH2 0xE39 JUMPI DUP1 DUP3 ADD MLOAD DUP2 DUP5 ADD MSTORE PUSH1 0x20 DUP2 ADD SWAP1 POP PUSH2 0xE1E JUMP JUMPDEST DUP4 DUP2 GT ISZERO PUSH2 0xE48 JUMPI PUSH1 0x0 DUP5 DUP5 ADD MSTORE JUMPDEST POP POP POP POP JUMP JUMPDEST PUSH1 0x0 PUSH1 0x1F NOT PUSH1 0x1F DUP4 ADD AND SWAP1 POP SWAP2 SWAP1 POP JUMP JUMPDEST PUSH1 0x0 PUSH2 0xE6A DUP3 PUSH2 0xDFF JUMP JUMPDEST PUSH2 0xE74 DUP2 DUP6 PUSH2 0xE0A JUMP JUMPDEST SWAP4 POP PUSH2 0xE84 DUP2 DUP6 PUSH1 0x20 DUP7 ADD PUSH2 0xE1B JUMP JUMPDEST PUSH2 0xE8D DUP2 PUSH2 0xE4E JUMP JUMPDEST DUP5 ADD SWAP2 POP POP SWAP3 SWAP2 POP POP JUMP JUMPDEST PUSH1 0x0 PUSH1 0x20 DUP3 ADD SWAP1 POP DUP2 DUP2 SUB PUSH1 0x0 DUP4 ADD MSTORE PUSH2 0xEB2 DUP2 DUP5 PUSH2 0xE5F JUMP JUMPDEST SWAP1 POP SWAP3 SWAP2 POP POP JUMP JUMPDEST PUSH1 0x0 DUP2 MLOAD SWAP1 POP SWAP2 SWAP1 POP JUMP JUMPDEST PUSH1 0x0 DUP3 DUP3 MSTORE PUSH1 0x20 DUP3 ADD SWAP1 POP SWAP3 SWAP2 POP POP JUMP JUMPDEST PUSH1 0x0 DUP2 SWAP1 POP PUSH1 0x20 DUP3 ADD SWAP1 POP SWAP2 SWAP1 POP JUMP JUMPDEST PUSH2 0xEEF DUP2 PUSH2 0xCF3 JUMP JUMPDEST DUP3 MSTORE POP POP JUMP JUMPDEST PUSH1 0x0 PUSH2 0xF01 DUP4 DUP4 PUSH2 0xEE6 JUMP JUMPDEST PUSH1 0x20 DUP4 ADD SWAP1 POP SWAP3 SWAP2 POP POP JUMP JUMPDEST PUSH1 0x0 PUSH1 0x20 DUP3 ADD SWAP1 POP SWAP2 SWAP1 POP JUMP JUMPDEST PUSH1 0x0 PUSH2 0xF25 DUP3 PUSH2 0xEBA JUMP JUMPDEST PUSH2 0xF2F DUP2 DUP6 PUSH2 0xEC5 JUMP JUMPDEST SWAP4 POP PUSH2 0xF3A DUP4 PUSH2 0xED6 JUMP JUMPDEST DUP1 PUSH1 0x0 JUMPDEST DUP4 DUP2 LT ISZERO PUSH2 0xF6B JUMPI DUP2 MLOAD PUSH2 0xF52 DUP9 DUP3 PUSH2 0xEF5 JUMP JUMPDEST SWAP8 POP PUSH2 0xF5D DUP4 PUSH2 0xF0D JUMP JUMPDEST SWAP3 POP POP PUSH1 0x1 DUP2 ADD SWAP1 POP PUSH2 0xF3E JUMP JUMPDEST POP DUP6 SWAP4 POP POP POP POP SWAP3 SWAP2 POP POP JUMP JUMPDEST PUSH1 0x0 PUSH1 0x20 DUP3 ADD SWAP1 POP DUP2 DUP2 SUB PUSH1 0x0 DUP4 ADD MSTORE PUSH2 0xF92 DUP2 DUP5 PUSH2 0xF1A JUMP JUMPDEST SWAP1 POP SWAP3 SWAP2 POP POP JUMP JUMPDEST PUSH1 0x0 DUP3 DUP3 MSTORE PUSH1 0x20 DUP3 ADD SWAP1 POP SWAP3 SWAP2 POP POP JUMP JUMPDEST PUSH1 0x0 PUSH2 0xFB6 DUP3 PUSH2 0xDFF JUMP JUMPDEST PUSH2 0xFC0 DUP2 DUP6 PUSH2 0xF9A JUMP JUMPDEST SWAP4 POP PUSH2 0xFD0 DUP2 DUP6 PUSH1 0x20 DUP7 ADD PUSH2 0xE1B JUMP JUMPDEST PUSH2 0xFD9 DUP2 PUSH2 0xE4E JUMP JUMPDEST DUP5 ADD SWAP2 POP POP SWAP3 SWAP2 POP POP JUMP JUMPDEST PUSH1 0x0 DUP2 ISZERO ISZERO SWAP1 POP SWAP2 SWAP1 POP JUMP JUMPDEST PUSH2 0xFF9 DUP2 PUSH2 0xFE4 JUMP JUMPDEST DUP3 MSTORE POP POP JUMP JUMPDEST PUSH1 0x0 PUSH1 0xA0 DUP4 ADD PUSH1 0x0 DUP4 ADD MLOAD DUP5 DUP3 SUB PUSH1 0x0 DUP7 ADD MSTORE PUSH2 0x101C DUP3 DUP3 PUSH2 0xFAB JUMP JUMPDEST SWAP2 POP POP PUSH1 0x20 DUP4 ADD MLOAD DUP5 DUP3 SUB PUSH1 0x20 DUP7 ADD MSTORE PUSH2 0x1036 DUP3 DUP3 PUSH2 0xFAB JUMP JUMPDEST SWAP2 POP POP PUSH1 0x40 DUP4 ADD MLOAD PUSH2 0x104B PUSH1 0x40 DUP7 ADD DUP3 PUSH2 0xEE6 JUMP JUMPDEST POP PUSH1 0x60 DUP4 ADD MLOAD DUP5 DUP3 SUB PUSH1 0x60 DUP7 ADD MSTORE PUSH2 0x1063 DUP3 DUP3 PUSH2 0xFAB JUMP JUMPDEST SWAP2 POP POP PUSH1 0x80 DUP4 ADD MLOAD PUSH2 0x1078 PUSH1 0x80 DUP7 ADD DUP3 PUSH2 0xFF0 JUMP JUMPDEST POP DUP1 SWAP2 POP POP SWAP3 SWAP2 POP POP JUMP JUMPDEST PUSH1 0x0 PUSH1 0x20 DUP3 ADD SWAP1 POP DUP2 DUP2 SUB PUSH1 0x0 DUP4 ADD MSTORE PUSH2 0x109D DUP2 DUP5 PUSH2 0xFFF JUMP JUMPDEST SWAP1 POP SWAP3 SWAP2 POP POP JUMP JUMPDEST PUSH1 0x0 DUP1 REVERT JUMPDEST PUSH1 0x0 DUP1 REVERT JUMPDEST PUSH32 0x4E487B7100000000000000000000000000000000000000000000000000000000 PUSH1 0x0 MSTORE PUSH1 0x41 PUSH1 0x4 MSTORE PUSH1 0x24 PUSH1 0x0 REVERT JUMPDEST PUSH2 0x10E7 DUP3 PUSH2 0xE4E JUMP JUMPDEST DUP2 ADD DUP2 DUP2 LT PUSH8 0xFFFFFFFFFFFFFFFF DUP3 GT OR ISZERO PUSH2 0x1106 JUMPI PUSH2 0x1105 PUSH2 0x10AF JUMP JUMPDEST JUMPDEST DUP1 PUSH1 0x40 MSTORE POP POP POP JUMP JUMPDEST PUSH1 0x0 PUSH2 0x1119 PUSH2 0xD2F JUMP JUMPDEST SWAP1 POP PUSH2 0x1125 DUP3 DUP3 PUSH2 0x10DE JUMP JUMPDEST SWAP2 SWAP1 POP JUMP JUMPDEST PUSH1 0x0 PUSH8 0xFFFFFFFFFFFFFFFF DUP3 GT ISZERO PUSH2 0x1145 JUMPI PUSH2 0x1144 PUSH2 0x10AF JUMP JUMPDEST JUMPDEST PUSH2 0x114E DUP3 PUSH2 0xE4E JUMP JUMPDEST SWAP1 POP PUSH1 0x20 DUP2 ADD SWAP1 POP SWAP2 SWAP1 POP JUMP JUMPDEST DUP3 DUP2 DUP4 CALLDATACOPY PUSH1 0x0 DUP4 DUP4 ADD MSTORE POP POP POP JUMP JUMPDEST PUSH1 0x0 PUSH2 0x117D PUSH2 0x1178 DUP5 PUSH2 0x112A JUMP JUMPDEST PUSH2 0x110F JUMP JUMPDEST SWAP1 POP DUP3 DUP2 MSTORE PUSH1 0x20 DUP2 ADD DUP5 DUP5 DUP5 ADD GT ISZERO PUSH2 0x1199 JUMPI PUSH2 0x1198 PUSH2 0x10AA JUMP JUMPDEST JUMPDEST PUSH2 0x11A4 DUP5 DUP3 DUP6 PUSH2 0x115B JUMP JUMPDEST POP SWAP4 SWAP3 POP POP POP JUMP JUMPDEST PUSH1 0x0 DUP3 PUSH1 0x1F DUP4 ADD SLT PUSH2 0x11C1 JUMPI PUSH2 0x11C0 PUSH2 0x10A5 JUMP JUMPDEST JUMPDEST DUP2 CALLDATALOAD PUSH2 0x11D1 DUP5 DUP3 PUSH1 0x20 DUP7 ADD PUSH2 0x116A JUMP JUMPDEST SWAP2 POP POP SWAP3 SWAP2 POP POP JUMP JUMPDEST PUSH1 0x0 DUP1 PUSH1 0x0 DUP1 PUSH1 0x80 DUP6 DUP8 SUB SLT ISZERO PUSH2 0x11F4 JUMPI PUSH2 0x11F3 PUSH2 0xD39 JUMP JUMPDEST JUMPDEST PUSH1 0x0 DUP6 ADD CALLDATALOAD PUSH8 0xFFFFFFFFFFFFFFFF DUP2 GT ISZERO PUSH2 0x1212 JUMPI PUSH2 0x1211 PUSH2 0xD3E JUMP JUMPDEST JUMPDEST PUSH2 0x121E DUP8 DUP3 DUP9 ADD PUSH2 0x11AC JUMP JUMPDEST SWAP5 POP POP PUSH1 0x20 DUP6 ADD CALLDATALOAD PUSH8 0xFFFFFFFFFFFFFFFF DUP2 GT ISZERO PUSH2 0x123F JUMPI PUSH2 0x123E PUSH2 0xD3E JUMP JUMPDEST JUMPDEST PUSH2 0x124B DUP8 DUP3 DUP9 ADD PUSH2 0x11AC JUMP JUMPDEST SWAP4 POP POP PUSH1 0x40 DUP6 ADD CALLDATALOAD PUSH8 0xFFFFFFFFFFFFFFFF DUP2 GT ISZERO PUSH2 0x126C JUMPI PUSH2 0x126B PUSH2 0xD3E JUMP JUMPDEST JUMPDEST PUSH2 0x1278 DUP8 DUP3 DUP9 ADD PUSH2 0x11AC JUMP JUMPDEST SWAP3 POP POP PUSH1 0x60 PUSH2 0x1289 DUP8 DUP3 DUP9 ADD PUSH2 0xDBD JUMP JUMPDEST SWAP2 POP POP SWAP3 SWAP6 SWAP2 SWAP5 POP SWAP3 POP JUMP JUMPDEST PUSH32 0x4E487B7100000000000000000000000000000000000000000000000000000000 PUSH1 0x0 MSTORE PUSH1 0x22 PUSH1 0x4 MSTORE PUSH1 0x24 PUSH1 0x0 REVERT JUMPDEST PUSH1 0x0 PUSH1 0x2 DUP3 DIV SWAP1 POP PUSH1 0x1 DUP3 AND DUP1 PUSH2 0x12DC JUMPI PUSH1 0x7F DUP3 AND SWAP2 POP JUMPDEST PUSH1 0x20 DUP3 LT DUP2 EQ ISZERO PUSH2 0x12F0 JUMPI PUSH2 0x12EF PUSH2 0x1295 JUMP JUMPDEST JUMPDEST POP SWAP2 SWAP1 POP JUMP INVALID LOG2 PUSH5 0x6970667358 0x22 SLT KECCAK256 RETURNDATASIZE STOP PUSH22 0x3D7FFFCDF0455AB0BD4CD6300CE34FD6B5979061489 0x49 DUP7 DUP16 GASPRICE SHR 0xBC 0xA8 PUSH5 0x736F6C6343 STOP ADDMOD EXP STOP CALLER "},"gasEstimates":{"creation":{"codeDepositCost":"981600","executionCost":"infinite","totalCost":"infinite"},"external":{"activateAdmin(address)":"27030","addAdmin(string,string,string,address)":"infinite","adminsAdresses(uint256)":"4979","counties(uint256)":"infinite","deactivateAdmin(address)":"27073","getAdmin(address)":"infinite","getAdminAddresses()":"infinite","getSuperAdminPassword()":"infinite","superAdminAddress()":"2512"},"internal":{"equal(string memory,string memory)":"infinite"}},"methodIdentifiers":{"activateAdmin(address)":"1af1a768","addAdmin(string,string,string,address)":"cddb61b7","adminsAdresses(uint256)":"13718c97","counties(uint256)":"2a979f31","deactivateAdmin(address)":"df6fa20e","getAdmin(address)":"64efb22b","getAdminAddresses()":"64ddfa29","getSuperAdminPassword()":"2de8f46d","superAdminAddress()":"045b3034"}},"storageLayout":{"storage":[{"astId":13,"contract":"LandRegistration.sol:LandRegistration","label":"superAdminAddress","offset":0,"slot":"0","type":"t_address"},{"astId":15,"contract":"LandRegistration.sol:LandRegistration","label":"superAdminPassword","offset":0,"slot":"1","type":"t_string_storage"},{"astId":20,"contract":"LandRegistration.sol:LandRegistration","label":"admins","offset":0,"slot":"2","type":"t_mapping(t_address,t_struct(Admin)11_storage)"},{"astId":23,"contract":"LandRegistration.sol:LandRegistration","label":"counties","offset":0,"slot":"3","type":"t_array(t_string_storage)dyn_storage"},{"astId":26,"contract":"LandRegistration.sol:LandRegistration","label":"adminsAdresses","offset":0,"slot":"4","type":"t_array(t_address)dyn_storage"}],"types":{"t_address":{"encoding":"inplace","label":"address","numberOfBytes":"20"},"t_array(t_address)dyn_storage":{"base":"t_address","encoding":"dynamic_array","label":"address[]","numberOfBytes":"32"},"t_array(t_string_storage)dyn_storage":{"base":"t_string_storage","encoding":"dynamic_array","label":"string[]","numberOfBytes":"32"},"t_bool":{"encoding":"inplace","label":"bool","numberOfBytes":"1"},"t_mapping(t_address,t_struct(Admin)11_storage)":{"encoding":"mapping","key":"t_address","label":"mapping(address => struct LandRegistration.Admin)","numberOfBytes":"32","value":"t_struct(Admin)11_storage"},"t_string_storage":{"encoding":"bytes","label":"string","numberOfBytes":"32"},"t_struct(Admin)11_storage":{"encoding":"inplace","label":"struct LandRegistration.Admin","members":[{"astId":2,"contract":"LandRegistration.sol:LandRegistration","label":"firstName","offset":0,"slot":"0","type":"t_string_storage"},{"astId":4,"contract":"LandRegistration.sol:LandRegistration","label":"lastName","offset":0,"slot":"1","type":"t_string_storage"},{"astId":6,"contract":"LandRegistration.sol:LandRegistration","label":"adminAddress","offset":0,"slot":"2","type":"t_address"},{"astId":8,"contract":"LandRegistration.sol:LandRegistration","label":"county","offset":0,"slot":"3","type":"t_string_storage"},{"astId":10,"contract":"LandRegistration.sol:LandRegistration","label":"active","offset":0,"slot":"4","type":"t_bool"}],"numberOfBytes":"160"}}},"userdoc":{"kind":"user","methods":{},"version":1}}