{"abi":[{"inputs":[],"stateMutability":"nonpayable","type":"constructor"},{"inputs":[{"internalType":"string","name":"county","type":"string"}],"name":"activateAdmin","outputs":[],"stateMutability":"nonpayable","type":"function"},{"inputs":[{"internalType":"string","name":"firstName","type":"string"},{"internalType":"string","name":"lastName","type":"string"},{"internalType":"string","name":"county","type":"string"},{"internalType":"address","name":"adminAddress","type":"address"}],"name":"addAdmin","outputs":[],"stateMutability":"nonpayable","type":"function"},{"inputs":[{"internalType":"string","name":"","type":"string"}],"name":"admins","outputs":[{"internalType":"string","name":"firstName","type":"string"},{"internalType":"string","name":"lastName","type":"string"},{"internalType":"address","name":"adminAddress","type":"address"},{"internalType":"bool","name":"isValue","type":"bool"},{"internalType":"bool","name":"active","type":"bool"}],"stateMutability":"view","type":"function"},{"inputs":[{"internalType":"uint256","name":"","type":"uint256"}],"name":"counties","outputs":[{"internalType":"string","name":"","type":"string"}],"stateMutability":"view","type":"function"},{"inputs":[{"internalType":"string","name":"county","type":"string"}],"name":"deactivateAdmin","outputs":[],"stateMutability":"nonpayable","type":"function"},{"inputs":[],"name":"superAdmin","outputs":[{"internalType":"address","name":"","type":"address"}],"stateMutability":"view","type":"function"}],"devdoc":{"kind":"dev","methods":{},"version":1},"evm":{"assembly":"    /* \"LandRegistration.sol\":73:1307  contract LandRegistration {... */\n  mstore(0x40, 0x80)\n    /* \"LandRegistration.sol\":384:440  constructor() {... */\n  callvalue\n  dup1\n  iszero\n  tag_1\n  jumpi\n  0x00\n  dup1\n  revert\ntag_1:\n  pop\n    /* \"LandRegistration.sol\":422:432  msg.sender */\n  caller\n    /* \"LandRegistration.sol\":409:419  superAdmin */\n  0x00\n  dup1\n    /* \"LandRegistration.sol\":409:432  superAdmin = msg.sender */\n  0x0100\n  exp\n  dup2\n  sload\n  dup2\n  0xffffffffffffffffffffffffffffffffffffffff\n  mul\n  not\n  and\n  swap1\n  dup4\n  0xffffffffffffffffffffffffffffffffffffffff\n  and\n  mul\n  or\n  swap1\n  sstore\n  pop\n    /* \"LandRegistration.sol\":73:1307  contract LandRegistration {... */\n  dataSize(sub_0)\n  dup1\n  dataOffset(sub_0)\n  0x00\n  codecopy\n  0x00\n  return\nstop\n\nsub_0: assembly {\n        /* \"LandRegistration.sol\":73:1307  contract LandRegistration {... */\n      mstore(0x40, 0x80)\n      callvalue\n      dup1\n      iszero\n      tag_1\n      jumpi\n      0x00\n      dup1\n      revert\n    tag_1:\n      pop\n      jumpi(tag_2, lt(calldatasize, 0x04))\n      shr(0xe0, calldataload(0x00))\n      dup1\n      0x29575f6a\n      eq\n      tag_3\n      jumpi\n      dup1\n      0x2a979f31\n      eq\n      tag_4\n      jumpi\n      dup1\n      0x926d7eb0\n      eq\n      tag_5\n      jumpi\n      dup1\n      0x9b378699\n      eq\n      tag_6\n      jumpi\n      dup1\n      0xcddb61b7\n      eq\n      tag_7\n      jumpi\n      dup1\n      0xd2dbd08b\n      eq\n      tag_8\n      jumpi\n    tag_2:\n      0x00\n      dup1\n      revert\n        /* \"LandRegistration.sol\":268:293  address public superAdmin */\n    tag_3:\n      tag_9\n      tag_10\n      jump\t// in\n    tag_9:\n      mload(0x40)\n      tag_11\n      swap2\n      swap1\n      tag_12\n      jump\t// in\n    tag_11:\n      mload(0x40)\n      dup1\n      swap2\n      sub\n      swap1\n      return\n        /* \"LandRegistration.sol\":346:371  string [] public counties */\n    tag_4:\n      tag_13\n      0x04\n      dup1\n      calldatasize\n      sub\n      dup2\n      add\n      swap1\n      tag_14\n      swap2\n      swap1\n      tag_15\n      jump\t// in\n    tag_14:\n      tag_16\n      jump\t// in\n    tag_13:\n      mload(0x40)\n      tag_17\n      swap2\n      swap1\n      tag_18\n      jump\t// in\n    tag_17:\n      mload(0x40)\n      dup1\n      swap2\n      sub\n      swap1\n      return\n        /* \"LandRegistration.sol\":300:339  mapping (string => Admin) public admins */\n    tag_5:\n      tag_19\n      0x04\n      dup1\n      calldatasize\n      sub\n      dup2\n      add\n      swap1\n      tag_20\n      swap2\n      swap1\n      tag_21\n      jump\t// in\n    tag_20:\n      tag_22\n      jump\t// in\n    tag_19:\n      mload(0x40)\n      tag_23\n      swap6\n      swap5\n      swap4\n      swap3\n      swap2\n      swap1\n      tag_24\n      jump\t// in\n    tag_23:\n      mload(0x40)\n      dup1\n      swap2\n      sub\n      swap1\n      return\n        /* \"LandRegistration.sol\":1049:1172  function deactivateAdmin(string memory county) public restrictToSuperAdmin {... */\n    tag_6:\n      tag_25\n      0x04\n      dup1\n      calldatasize\n      sub\n      dup2\n      add\n      swap1\n      tag_26\n      swap2\n      swap1\n      tag_21\n      jump\t// in\n    tag_26:\n      tag_27\n      jump\t// in\n    tag_25:\n      stop\n        /* \"LandRegistration.sol\":558:1037  function addAdmin(string memory firstName, string memory lastName, string memory county, address adminAddress) public  restrictToSuperAdmin {... */\n    tag_7:\n      tag_28\n      0x04\n      dup1\n      calldatasize\n      sub\n      dup2\n      add\n      swap1\n      tag_29\n      swap2\n      swap1\n      tag_30\n      jump\t// in\n    tag_29:\n      tag_31\n      jump\t// in\n    tag_28:\n      stop\n        /* \"LandRegistration.sol\":1184:1304  function activateAdmin(string memory county) public restrictToSuperAdmin {... */\n    tag_8:\n      tag_32\n      0x04\n      dup1\n      calldatasize\n      sub\n      dup2\n      add\n      swap1\n      tag_33\n      swap2\n      swap1\n      tag_21\n      jump\t// in\n    tag_33:\n      tag_34\n      jump\t// in\n    tag_32:\n      stop\n        /* \"LandRegistration.sol\":268:293  address public superAdmin */\n    tag_10:\n      0x00\n      dup1\n      sload\n      swap1\n      0x0100\n      exp\n      swap1\n      div\n      0xffffffffffffffffffffffffffffffffffffffff\n      and\n      dup2\n      jump\t// out\n        /* \"LandRegistration.sol\":346:371  string [] public counties */\n    tag_16:\n      0x02\n      dup2\n      dup2\n      sload\n      dup2\n      lt\n      tag_35\n      jumpi\n      0x00\n      dup1\n      revert\n    tag_35:\n      swap1\n      0x00\n      mstore\n      keccak256(0x00, 0x20)\n      add\n      0x00\n      swap2\n      pop\n      swap1\n      pop\n      dup1\n      sload\n      tag_37\n      swap1\n      tag_38\n      jump\t// in\n    tag_37:\n      dup1\n      0x1f\n      add\n      0x20\n      dup1\n      swap2\n      div\n      mul\n      0x20\n      add\n      mload(0x40)\n      swap1\n      dup2\n      add\n      0x40\n      mstore\n      dup1\n      swap3\n      swap2\n      swap1\n      dup2\n      dup2\n      mstore\n      0x20\n      add\n      dup3\n      dup1\n      sload\n      tag_39\n      swap1\n      tag_38\n      jump\t// in\n    tag_39:\n      dup1\n      iszero\n      tag_40\n      jumpi\n      dup1\n      0x1f\n      lt\n      tag_41\n      jumpi\n      0x0100\n      dup1\n      dup4\n      sload\n      div\n      mul\n      dup4\n      mstore\n      swap2\n      0x20\n      add\n      swap2\n      jump(tag_40)\n    tag_41:\n      dup3\n      add\n      swap2\n      swap1\n      0x00\n      mstore\n      keccak256(0x00, 0x20)\n      swap1\n    tag_42:\n      dup2\n      sload\n      dup2\n      mstore\n      swap1\n      0x01\n      add\n      swap1\n      0x20\n      add\n      dup1\n      dup4\n      gt\n      tag_42\n      jumpi\n      dup3\n      swap1\n      sub\n      0x1f\n      and\n      dup3\n      add\n      swap2\n    tag_40:\n      pop\n      pop\n      pop\n      pop\n      pop\n      dup2\n      jump\t// out\n        /* \"LandRegistration.sol\":300:339  mapping (string => Admin) public admins */\n    tag_22:\n      0x01\n      dup2\n      dup1\n      mload\n      0x20\n      dup2\n      add\n      dup3\n      add\n      dup1\n      mload\n      dup5\n      dup3\n      mstore\n      0x20\n      dup4\n      add\n      0x20\n      dup6\n      add\n      keccak256\n      dup2\n      dup4\n      mstore\n      dup1\n      swap6\n      pop\n      pop\n      pop\n      pop\n      pop\n      pop\n      0x00\n      swap2\n      pop\n      swap1\n      pop\n      dup1\n      0x00\n      add\n      dup1\n      sload\n      tag_43\n      swap1\n      tag_38\n      jump\t// in\n    tag_43:\n      dup1\n      0x1f\n      add\n      0x20\n      dup1\n      swap2\n      div\n      mul\n      0x20\n      add\n      mload(0x40)\n      swap1\n      dup2\n      add\n      0x40\n      mstore\n      dup1\n      swap3\n      swap2\n      swap1\n      dup2\n      dup2\n      mstore\n      0x20\n      add\n      dup3\n      dup1\n      sload\n      tag_44\n      swap1\n      tag_38\n      jump\t// in\n    tag_44:\n      dup1\n      iszero\n      tag_45\n      jumpi\n      dup1\n      0x1f\n      lt\n      tag_46\n      jumpi\n      0x0100\n      dup1\n      dup4\n      sload\n      div\n      mul\n      dup4\n      mstore\n      swap2\n      0x20\n      add\n      swap2\n      jump(tag_45)\n    tag_46:\n      dup3\n      add\n      swap2\n      swap1\n      0x00\n      mstore\n      keccak256(0x00, 0x20)\n      swap1\n    tag_47:\n      dup2\n      sload\n      dup2\n      mstore\n      swap1\n      0x01\n      add\n      swap1\n      0x20\n      add\n      dup1\n      dup4\n      gt\n      tag_47\n      jumpi\n      dup3\n      swap1\n      sub\n      0x1f\n      and\n      dup3\n      add\n      swap2\n    tag_45:\n      pop\n      pop\n      pop\n      pop\n      pop\n      swap1\n      dup1\n      0x01\n      add\n      dup1\n      sload\n      tag_48\n      swap1\n      tag_38\n      jump\t// in\n    tag_48:\n      dup1\n      0x1f\n      add\n      0x20\n      dup1\n      swap2\n      div\n      mul\n      0x20\n      add\n      mload(0x40)\n      swap1\n      dup2\n      add\n      0x40\n      mstore\n      dup1\n      swap3\n      swap2\n      swap1\n      dup2\n      dup2\n      mstore\n      0x20\n      add\n      dup3\n      dup1\n      sload\n      tag_49\n      swap1\n      tag_38\n      jump\t// in\n    tag_49:\n      dup1\n      iszero\n      tag_50\n      jumpi\n      dup1\n      0x1f\n      lt\n      tag_51\n      jumpi\n      0x0100\n      dup1\n      dup4\n      sload\n      div\n      mul\n      dup4\n      mstore\n      swap2\n      0x20\n      add\n      swap2\n      jump(tag_50)\n    tag_51:\n      dup3\n      add\n      swap2\n      swap1\n      0x00\n      mstore\n      keccak256(0x00, 0x20)\n      swap1\n    tag_52:\n      dup2\n      sload\n      dup2\n      mstore\n      swap1\n      0x01\n      add\n      swap1\n      0x20\n      add\n      dup1\n      dup4\n      gt\n      tag_52\n      jumpi\n      dup3\n      swap1\n      sub\n      0x1f\n      and\n      dup3\n      add\n      swap2\n    tag_50:\n      pop\n      pop\n      pop\n      pop\n      pop\n      swap1\n      dup1\n      0x02\n      add\n      0x00\n      swap1\n      sload\n      swap1\n      0x0100\n      exp\n      swap1\n      div\n      0xffffffffffffffffffffffffffffffffffffffff\n      and\n      swap1\n      dup1\n      0x02\n      add\n      0x14\n      swap1\n      sload\n      swap1\n      0x0100\n      exp\n      swap1\n      div\n      0xff\n      and\n      swap1\n      dup1\n      0x02\n      add\n      0x15\n      swap1\n      sload\n      swap1\n      0x0100\n      exp\n      swap1\n      div\n      0xff\n      and\n      swap1\n      pop\n      dup6\n      jump\t// out\n        /* \"LandRegistration.sol\":1049:1172  function deactivateAdmin(string memory county) public restrictToSuperAdmin {... */\n    tag_27:\n        /* \"LandRegistration.sol\":515:525  superAdmin */\n      0x00\n      dup1\n      sload\n      swap1\n      0x0100\n      exp\n      swap1\n      div\n      0xffffffffffffffffffffffffffffffffffffffff\n      and\n        /* \"LandRegistration.sol\":501:525  msg.sender == superAdmin */\n      0xffffffffffffffffffffffffffffffffffffffff\n      and\n        /* \"LandRegistration.sol\":501:511  msg.sender */\n      caller\n        /* \"LandRegistration.sol\":501:525  msg.sender == superAdmin */\n      0xffffffffffffffffffffffffffffffffffffffff\n      and\n      eq\n        /* \"LandRegistration.sol\":493:526  require(msg.sender == superAdmin) */\n      tag_54\n      jumpi\n      0x00\n      dup1\n      revert\n    tag_54:\n        /* \"LandRegistration.sol\":1159:1164  false */\n      0x00\n        /* \"LandRegistration.sol\":1135:1141  admins */\n      0x01\n        /* \"LandRegistration.sol\":1142:1148  county */\n      dup3\n        /* \"LandRegistration.sol\":1135:1149  admins[county] */\n      mload(0x40)\n      tag_56\n      swap2\n      swap1\n      tag_57\n      jump\t// in\n    tag_56:\n      swap1\n      dup2\n      mstore\n      0x20\n      add\n      mload(0x40)\n      dup1\n      swap2\n      sub\n      swap1\n      keccak256\n        /* \"LandRegistration.sol\":1135:1156  admins[county].active */\n      0x02\n      add\n      0x15\n        /* \"LandRegistration.sol\":1135:1164  admins[county].active = false */\n      0x0100\n      exp\n      dup2\n      sload\n      dup2\n      0xff\n      mul\n      not\n      and\n      swap1\n      dup4\n      iszero\n      iszero\n      mul\n      or\n      swap1\n      sstore\n      pop\n        /* \"LandRegistration.sol\":1049:1172  function deactivateAdmin(string memory county) public restrictToSuperAdmin {... */\n      pop\n      jump\t// out\n        /* \"LandRegistration.sol\":558:1037  function addAdmin(string memory firstName, string memory lastName, string memory county, address adminAddress) public  restrictToSuperAdmin {... */\n    tag_31:\n        /* \"LandRegistration.sol\":515:525  superAdmin */\n      0x00\n      dup1\n      sload\n      swap1\n      0x0100\n      exp\n      swap1\n      div\n      0xffffffffffffffffffffffffffffffffffffffff\n      and\n        /* \"LandRegistration.sol\":501:525  msg.sender == superAdmin */\n      0xffffffffffffffffffffffffffffffffffffffff\n      and\n        /* \"LandRegistration.sol\":501:511  msg.sender */\n      caller\n        /* \"LandRegistration.sol\":501:525  msg.sender == superAdmin */\n      0xffffffffffffffffffffffffffffffffffffffff\n      and\n      eq\n        /* \"LandRegistration.sol\":493:526  require(msg.sender == superAdmin) */\n      tag_59\n      jumpi\n      0x00\n      dup1\n      revert\n    tag_59:\n        /* \"LandRegistration.sol\":714:720  admins */\n      0x01\n        /* \"LandRegistration.sol\":721:727  county */\n      dup3\n        /* \"LandRegistration.sol\":714:728  admins[county] */\n      mload(0x40)\n      tag_61\n      swap2\n      swap1\n      tag_57\n      jump\t// in\n    tag_61:\n      swap1\n      dup2\n      mstore\n      0x20\n      add\n      mload(0x40)\n      dup1\n      swap2\n      sub\n      swap1\n      keccak256\n        /* \"LandRegistration.sol\":714:736  admins[county].isValue */\n      0x02\n      add\n      0x14\n      swap1\n      sload\n      swap1\n      0x0100\n      exp\n      swap1\n      div\n      0xff\n      and\n        /* \"LandRegistration.sol\":709:786  if (!admins[county].isValue) {... */\n      tag_62\n      jumpi\n        /* \"LandRegistration.sol\":753:761  counties */\n      0x02\n        /* \"LandRegistration.sol\":767:773  county */\n      dup3\n        /* \"LandRegistration.sol\":753:774  counties.push(county) */\n      swap1\n      dup1\n      0x01\n      dup2\n      sload\n      add\n      dup1\n      dup3\n      sstore\n      dup1\n      swap2\n      pop\n      pop\n      0x01\n      swap1\n      sub\n      swap1\n      0x00\n      mstore\n      keccak256(0x00, 0x20)\n      add\n      0x00\n      swap1\n      swap2\n      swap1\n      swap2\n      swap1\n      swap2\n      pop\n      swap1\n      dup1\n      mload\n      swap1\n      0x20\n      add\n      swap1\n      tag_64\n      swap3\n      swap2\n      swap1\n      tag_65\n      jump\t// in\n    tag_64:\n      pop\n        /* \"LandRegistration.sol\":709:786  if (!admins[county].isValue) {... */\n    tag_62:\n        /* \"LandRegistration.sol\":796:818  Admin storage newAdmin */\n      0x00\n        /* \"LandRegistration.sol\":821:827  admins */\n      0x01\n        /* \"LandRegistration.sol\":828:834  county */\n      dup4\n        /* \"LandRegistration.sol\":821:835  admins[county] */\n      mload(0x40)\n      tag_66\n      swap2\n      swap1\n      tag_57\n      jump\t// in\n    tag_66:\n      swap1\n      dup2\n      mstore\n      0x20\n      add\n      mload(0x40)\n      dup1\n      swap2\n      sub\n      swap1\n      keccak256\n        /* \"LandRegistration.sol\":796:835  Admin storage newAdmin = admins[county] */\n      swap1\n      pop\n        /* \"LandRegistration.sol\":867:876  firstName */\n      dup5\n        /* \"LandRegistration.sol\":846:854  newAdmin */\n      dup2\n        /* \"LandRegistration.sol\":846:864  newAdmin.firstName */\n      0x00\n      add\n        /* \"LandRegistration.sol\":846:876  newAdmin.firstName = firstName */\n      swap1\n      dup1\n      mload\n      swap1\n      0x20\n      add\n      swap1\n      tag_67\n      swap3\n      swap2\n      swap1\n      tag_65\n      jump\t// in\n    tag_67:\n      pop\n        /* \"LandRegistration.sol\":907:915  lastName */\n      dup4\n        /* \"LandRegistration.sol\":887:895  newAdmin */\n      dup2\n        /* \"LandRegistration.sol\":887:904  newAdmin.lastName */\n      0x01\n      add\n        /* \"LandRegistration.sol\":887:915  newAdmin.lastName = lastName */\n      swap1\n      dup1\n      mload\n      swap1\n      0x20\n      add\n      swap1\n      tag_68\n      swap3\n      swap2\n      swap1\n      tag_65\n      jump\t// in\n    tag_68:\n      pop\n        /* \"LandRegistration.sol\":950:962  adminAddress */\n      dup2\n        /* \"LandRegistration.sol\":926:934  newAdmin */\n      dup2\n        /* \"LandRegistration.sol\":926:947  newAdmin.adminAddress */\n      0x02\n      add\n      0x00\n        /* \"LandRegistration.sol\":926:962  newAdmin.adminAddress = adminAddress */\n      0x0100\n      exp\n      dup2\n      sload\n      dup2\n      0xffffffffffffffffffffffffffffffffffffffff\n      mul\n      not\n      and\n      swap1\n      dup4\n      0xffffffffffffffffffffffffffffffffffffffff\n      and\n      mul\n      or\n      swap1\n      sstore\n      pop\n        /* \"LandRegistration.sol\":992:996  true */\n      0x01\n        /* \"LandRegistration.sol\":973:981  newAdmin */\n      dup2\n        /* \"LandRegistration.sol\":973:989  newAdmin.isValue */\n      0x02\n      add\n      0x14\n        /* \"LandRegistration.sol\":973:996  newAdmin.isValue = true */\n      0x0100\n      exp\n      dup2\n      sload\n      dup2\n      0xff\n      mul\n      not\n      and\n      swap1\n      dup4\n      iszero\n      iszero\n      mul\n      or\n      swap1\n      sstore\n      pop\n        /* \"LandRegistration.sol\":1025:1029  true */\n      0x01\n        /* \"LandRegistration.sol\":1007:1015  newAdmin */\n      dup2\n        /* \"LandRegistration.sol\":1007:1022  newAdmin.active */\n      0x02\n      add\n      0x15\n        /* \"LandRegistration.sol\":1007:1029  newAdmin.active = true */\n      0x0100\n      exp\n      dup2\n      sload\n      dup2\n      0xff\n      mul\n      not\n      and\n      swap1\n      dup4\n      iszero\n      iszero\n      mul\n      or\n      swap1\n      sstore\n      pop\n        /* \"LandRegistration.sol\":698:1037  {... */\n      pop\n        /* \"LandRegistration.sol\":558:1037  function addAdmin(string memory firstName, string memory lastName, string memory county, address adminAddress) public  restrictToSuperAdmin {... */\n      pop\n      pop\n      pop\n      pop\n      jump\t// out\n        /* \"LandRegistration.sol\":1184:1304  function activateAdmin(string memory county) public restrictToSuperAdmin {... */\n    tag_34:\n        /* \"LandRegistration.sol\":515:525  superAdmin */\n      0x00\n      dup1\n      sload\n      swap1\n      0x0100\n      exp\n      swap1\n      div\n      0xffffffffffffffffffffffffffffffffffffffff\n      and\n        /* \"LandRegistration.sol\":501:525  msg.sender == superAdmin */\n      0xffffffffffffffffffffffffffffffffffffffff\n      and\n        /* \"LandRegistration.sol\":501:511  msg.sender */\n      caller\n        /* \"LandRegistration.sol\":501:525  msg.sender == superAdmin */\n      0xffffffffffffffffffffffffffffffffffffffff\n      and\n      eq\n        /* \"LandRegistration.sol\":493:526  require(msg.sender == superAdmin) */\n      tag_70\n      jumpi\n      0x00\n      dup1\n      revert\n    tag_70:\n        /* \"LandRegistration.sol\":1292:1296  true */\n      0x01\n        /* \"LandRegistration.sol\":1268:1274  admins */\n      dup1\n        /* \"LandRegistration.sol\":1275:1281  county */\n      dup3\n        /* \"LandRegistration.sol\":1268:1282  admins[county] */\n      mload(0x40)\n      tag_72\n      swap2\n      swap1\n      tag_57\n      jump\t// in\n    tag_72:\n      swap1\n      dup2\n      mstore\n      0x20\n      add\n      mload(0x40)\n      dup1\n      swap2\n      sub\n      swap1\n      keccak256\n        /* \"LandRegistration.sol\":1268:1289  admins[county].active */\n      0x02\n      add\n      0x15\n        /* \"LandRegistration.sol\":1268:1296  admins[county].active = true */\n      0x0100\n      exp\n      dup2\n      sload\n      dup2\n      0xff\n      mul\n      not\n      and\n      swap1\n      dup4\n      iszero\n      iszero\n      mul\n      or\n      swap1\n      sstore\n      pop\n        /* \"LandRegistration.sol\":1184:1304  function activateAdmin(string memory county) public restrictToSuperAdmin {... */\n      pop\n      jump\t// out\n    tag_65:\n      dup3\n      dup1\n      sload\n      tag_73\n      swap1\n      tag_38\n      jump\t// in\n    tag_73:\n      swap1\n      0x00\n      mstore\n      keccak256(0x00, 0x20)\n      swap1\n      0x1f\n      add\n      0x20\n      swap1\n      div\n      dup2\n      add\n      swap3\n      dup3\n      tag_75\n      jumpi\n      0x00\n      dup6\n      sstore\n      jump(tag_74)\n    tag_75:\n      dup3\n      0x1f\n      lt\n      tag_76\n      jumpi\n      dup1\n      mload\n      not(0xff)\n      and\n      dup4\n      dup1\n      add\n      or\n      dup6\n      sstore\n      jump(tag_74)\n    tag_76:\n      dup3\n      dup1\n      add\n      0x01\n      add\n      dup6\n      sstore\n      dup3\n      iszero\n      tag_74\n      jumpi\n      swap2\n      dup3\n      add\n    tag_77:\n      dup3\n      dup2\n      gt\n      iszero\n      tag_78\n      jumpi\n      dup3\n      mload\n      dup3\n      sstore\n      swap2\n      0x20\n      add\n      swap2\n      swap1\n      0x01\n      add\n      swap1\n      jump(tag_77)\n    tag_78:\n    tag_74:\n      pop\n      swap1\n      pop\n      tag_79\n      swap2\n      swap1\n      tag_80\n      jump\t// in\n    tag_79:\n      pop\n      swap1\n      jump\t// out\n    tag_80:\n    tag_81:\n      dup1\n      dup3\n      gt\n      iszero\n      tag_82\n      jumpi\n      0x00\n      dup2\n      0x00\n      swap1\n      sstore\n      pop\n      0x01\n      add\n      jump(tag_81)\n    tag_82:\n      pop\n      swap1\n      jump\t// out\n        /* \"#utility.yul\":7:133   */\n    tag_83:\n        /* \"#utility.yul\":44:51   */\n      0x00\n        /* \"#utility.yul\":84:126   */\n      0xffffffffffffffffffffffffffffffffffffffff\n        /* \"#utility.yul\":77:82   */\n      dup3\n        /* \"#utility.yul\":73:127   */\n      and\n        /* \"#utility.yul\":62:127   */\n      swap1\n      pop\n        /* \"#utility.yul\":7:133   */\n      swap2\n      swap1\n      pop\n      jump\t// out\n        /* \"#utility.yul\":139:235   */\n    tag_84:\n        /* \"#utility.yul\":176:183   */\n      0x00\n        /* \"#utility.yul\":205:229   */\n      tag_116\n        /* \"#utility.yul\":223:228   */\n      dup3\n        /* \"#utility.yul\":205:229   */\n      tag_83\n      jump\t// in\n    tag_116:\n        /* \"#utility.yul\":194:229   */\n      swap1\n      pop\n        /* \"#utility.yul\":139:235   */\n      swap2\n      swap1\n      pop\n      jump\t// out\n        /* \"#utility.yul\":241:359   */\n    tag_85:\n        /* \"#utility.yul\":328:352   */\n      tag_118\n        /* \"#utility.yul\":346:351   */\n      dup2\n        /* \"#utility.yul\":328:352   */\n      tag_84\n      jump\t// in\n    tag_118:\n        /* \"#utility.yul\":323:326   */\n      dup3\n        /* \"#utility.yul\":316:353   */\n      mstore\n        /* \"#utility.yul\":241:359   */\n      pop\n      pop\n      jump\t// out\n        /* \"#utility.yul\":365:587   */\n    tag_12:\n        /* \"#utility.yul\":458:462   */\n      0x00\n        /* \"#utility.yul\":496:498   */\n      0x20\n        /* \"#utility.yul\":485:494   */\n      dup3\n        /* \"#utility.yul\":481:499   */\n      add\n        /* \"#utility.yul\":473:499   */\n      swap1\n      pop\n        /* \"#utility.yul\":509:580   */\n      tag_120\n        /* \"#utility.yul\":577:578   */\n      0x00\n        /* \"#utility.yul\":566:575   */\n      dup4\n        /* \"#utility.yul\":562:579   */\n      add\n        /* \"#utility.yul\":553:559   */\n      dup5\n        /* \"#utility.yul\":509:580   */\n      tag_85\n      jump\t// in\n    tag_120:\n        /* \"#utility.yul\":365:587   */\n      swap3\n      swap2\n      pop\n      pop\n      jump\t// out\n        /* \"#utility.yul\":593:668   */\n    tag_86:\n        /* \"#utility.yul\":626:632   */\n      0x00\n        /* \"#utility.yul\":659:661   */\n      0x40\n        /* \"#utility.yul\":653:662   */\n      mload\n        /* \"#utility.yul\":643:662   */\n      swap1\n      pop\n        /* \"#utility.yul\":593:668   */\n      swap1\n      jump\t// out\n        /* \"#utility.yul\":674:791   */\n    tag_87:\n        /* \"#utility.yul\":783:784   */\n      0x00\n        /* \"#utility.yul\":780:781   */\n      dup1\n        /* \"#utility.yul\":773:785   */\n      revert\n        /* \"#utility.yul\":797:914   */\n    tag_88:\n        /* \"#utility.yul\":906:907   */\n      0x00\n        /* \"#utility.yul\":903:904   */\n      dup1\n        /* \"#utility.yul\":896:908   */\n      revert\n        /* \"#utility.yul\":920:997   */\n    tag_89:\n        /* \"#utility.yul\":957:964   */\n      0x00\n        /* \"#utility.yul\":986:991   */\n      dup2\n        /* \"#utility.yul\":975:991   */\n      swap1\n      pop\n        /* \"#utility.yul\":920:997   */\n      swap2\n      swap1\n      pop\n      jump\t// out\n        /* \"#utility.yul\":1003:1125   */\n    tag_90:\n        /* \"#utility.yul\":1076:1100   */\n      tag_126\n        /* \"#utility.yul\":1094:1099   */\n      dup2\n        /* \"#utility.yul\":1076:1100   */\n      tag_89\n      jump\t// in\n    tag_126:\n        /* \"#utility.yul\":1069:1074   */\n      dup2\n        /* \"#utility.yul\":1066:1101   */\n      eq\n        /* \"#utility.yul\":1056:1119   */\n      tag_127\n      jumpi\n        /* \"#utility.yul\":1115:1116   */\n      0x00\n        /* \"#utility.yul\":1112:1113   */\n      dup1\n        /* \"#utility.yul\":1105:1117   */\n      revert\n        /* \"#utility.yul\":1056:1119   */\n    tag_127:\n        /* \"#utility.yul\":1003:1125   */\n      pop\n      jump\t// out\n        /* \"#utility.yul\":1131:1270   */\n    tag_91:\n        /* \"#utility.yul\":1177:1182   */\n      0x00\n        /* \"#utility.yul\":1215:1221   */\n      dup2\n        /* \"#utility.yul\":1202:1222   */\n      calldataload\n        /* \"#utility.yul\":1193:1222   */\n      swap1\n      pop\n        /* \"#utility.yul\":1231:1264   */\n      tag_129\n        /* \"#utility.yul\":1258:1263   */\n      dup2\n        /* \"#utility.yul\":1231:1264   */\n      tag_90\n      jump\t// in\n    tag_129:\n        /* \"#utility.yul\":1131:1270   */\n      swap3\n      swap2\n      pop\n      pop\n      jump\t// out\n        /* \"#utility.yul\":1276:1605   */\n    tag_15:\n        /* \"#utility.yul\":1335:1341   */\n      0x00\n        /* \"#utility.yul\":1384:1386   */\n      0x20\n        /* \"#utility.yul\":1372:1381   */\n      dup3\n        /* \"#utility.yul\":1363:1370   */\n      dup5\n        /* \"#utility.yul\":1359:1382   */\n      sub\n        /* \"#utility.yul\":1355:1387   */\n      slt\n        /* \"#utility.yul\":1352:1471   */\n      iszero\n      tag_131\n      jumpi\n        /* \"#utility.yul\":1390:1469   */\n      tag_132\n      tag_87\n      jump\t// in\n    tag_132:\n        /* \"#utility.yul\":1352:1471   */\n    tag_131:\n        /* \"#utility.yul\":1510:1511   */\n      0x00\n        /* \"#utility.yul\":1535:1588   */\n      tag_133\n        /* \"#utility.yul\":1580:1587   */\n      dup5\n        /* \"#utility.yul\":1571:1577   */\n      dup3\n        /* \"#utility.yul\":1560:1569   */\n      dup6\n        /* \"#utility.yul\":1556:1578   */\n      add\n        /* \"#utility.yul\":1535:1588   */\n      tag_91\n      jump\t// in\n    tag_133:\n        /* \"#utility.yul\":1525:1588   */\n      swap2\n      pop\n        /* \"#utility.yul\":1481:1598   */\n      pop\n        /* \"#utility.yul\":1276:1605   */\n      swap3\n      swap2\n      pop\n      pop\n      jump\t// out\n        /* \"#utility.yul\":1611:1710   */\n    tag_92:\n        /* \"#utility.yul\":1663:1669   */\n      0x00\n        /* \"#utility.yul\":1697:1702   */\n      dup2\n        /* \"#utility.yul\":1691:1703   */\n      mload\n        /* \"#utility.yul\":1681:1703   */\n      swap1\n      pop\n        /* \"#utility.yul\":1611:1710   */\n      swap2\n      swap1\n      pop\n      jump\t// out\n        /* \"#utility.yul\":1716:1885   */\n    tag_93:\n        /* \"#utility.yul\":1800:1811   */\n      0x00\n        /* \"#utility.yul\":1834:1840   */\n      dup3\n        /* \"#utility.yul\":1829:1832   */\n      dup3\n        /* \"#utility.yul\":1822:1841   */\n      mstore\n        /* \"#utility.yul\":1874:1878   */\n      0x20\n        /* \"#utility.yul\":1869:1872   */\n      dup3\n        /* \"#utility.yul\":1865:1879   */\n      add\n        /* \"#utility.yul\":1850:1879   */\n      swap1\n      pop\n        /* \"#utility.yul\":1716:1885   */\n      swap3\n      swap2\n      pop\n      pop\n      jump\t// out\n        /* \"#utility.yul\":1891:2198   */\n    tag_94:\n        /* \"#utility.yul\":1959:1960   */\n      0x00\n        /* \"#utility.yul\":1969:2082   */\n    tag_137:\n        /* \"#utility.yul\":1983:1989   */\n      dup4\n        /* \"#utility.yul\":1980:1981   */\n      dup2\n        /* \"#utility.yul\":1977:1990   */\n      lt\n        /* \"#utility.yul\":1969:2082   */\n      iszero\n      tag_139\n      jumpi\n        /* \"#utility.yul\":2068:2069   */\n      dup1\n        /* \"#utility.yul\":2063:2066   */\n      dup3\n        /* \"#utility.yul\":2059:2070   */\n      add\n        /* \"#utility.yul\":2053:2071   */\n      mload\n        /* \"#utility.yul\":2049:2050   */\n      dup2\n        /* \"#utility.yul\":2044:2047   */\n      dup5\n        /* \"#utility.yul\":2040:2051   */\n      add\n        /* \"#utility.yul\":2033:2072   */\n      mstore\n        /* \"#utility.yul\":2005:2007   */\n      0x20\n        /* \"#utility.yul\":2002:2003   */\n      dup2\n        /* \"#utility.yul\":1998:2008   */\n      add\n        /* \"#utility.yul\":1993:2008   */\n      swap1\n      pop\n        /* \"#utility.yul\":1969:2082   */\n      jump(tag_137)\n    tag_139:\n        /* \"#utility.yul\":2100:2106   */\n      dup4\n        /* \"#utility.yul\":2097:2098   */\n      dup2\n        /* \"#utility.yul\":2094:2107   */\n      gt\n        /* \"#utility.yul\":2091:2192   */\n      iszero\n      tag_140\n      jumpi\n        /* \"#utility.yul\":2180:2181   */\n      0x00\n        /* \"#utility.yul\":2171:2177   */\n      dup5\n        /* \"#utility.yul\":2166:2169   */\n      dup5\n        /* \"#utility.yul\":2162:2178   */\n      add\n        /* \"#utility.yul\":2155:2182   */\n      mstore\n        /* \"#utility.yul\":2091:2192   */\n    tag_140:\n        /* \"#utility.yul\":1940:2198   */\n      pop\n        /* \"#utility.yul\":1891:2198   */\n      pop\n      pop\n      pop\n      jump\t// out\n        /* \"#utility.yul\":2204:2306   */\n    tag_95:\n        /* \"#utility.yul\":2245:2251   */\n      0x00\n        /* \"#utility.yul\":2296:2298   */\n      0x1f\n        /* \"#utility.yul\":2292:2299   */\n      not\n        /* \"#utility.yul\":2287:2289   */\n      0x1f\n        /* \"#utility.yul\":2280:2285   */\n      dup4\n        /* \"#utility.yul\":2276:2290   */\n      add\n        /* \"#utility.yul\":2272:2300   */\n      and\n        /* \"#utility.yul\":2262:2300   */\n      swap1\n      pop\n        /* \"#utility.yul\":2204:2306   */\n      swap2\n      swap1\n      pop\n      jump\t// out\n        /* \"#utility.yul\":2312:2676   */\n    tag_96:\n        /* \"#utility.yul\":2400:2403   */\n      0x00\n        /* \"#utility.yul\":2428:2467   */\n      tag_143\n        /* \"#utility.yul\":2461:2466   */\n      dup3\n        /* \"#utility.yul\":2428:2467   */\n      tag_92\n      jump\t// in\n    tag_143:\n        /* \"#utility.yul\":2483:2554   */\n      tag_144\n        /* \"#utility.yul\":2547:2553   */\n      dup2\n        /* \"#utility.yul\":2542:2545   */\n      dup6\n        /* \"#utility.yul\":2483:2554   */\n      tag_93\n      jump\t// in\n    tag_144:\n        /* \"#utility.yul\":2476:2554   */\n      swap4\n      pop\n        /* \"#utility.yul\":2563:2615   */\n      tag_145\n        /* \"#utility.yul\":2608:2614   */\n      dup2\n        /* \"#utility.yul\":2603:2606   */\n      dup6\n        /* \"#utility.yul\":2596:2600   */\n      0x20\n        /* \"#utility.yul\":2589:2594   */\n      dup7\n        /* \"#utility.yul\":2585:2601   */\n      add\n        /* \"#utility.yul\":2563:2615   */\n      tag_94\n      jump\t// in\n    tag_145:\n        /* \"#utility.yul\":2640:2669   */\n      tag_146\n        /* \"#utility.yul\":2662:2668   */\n      dup2\n        /* \"#utility.yul\":2640:2669   */\n      tag_95\n      jump\t// in\n    tag_146:\n        /* \"#utility.yul\":2635:2638   */\n      dup5\n        /* \"#utility.yul\":2631:2670   */\n      add\n        /* \"#utility.yul\":2624:2670   */\n      swap2\n      pop\n        /* \"#utility.yul\":2404:2676   */\n      pop\n        /* \"#utility.yul\":2312:2676   */\n      swap3\n      swap2\n      pop\n      pop\n      jump\t// out\n        /* \"#utility.yul\":2682:2995   */\n    tag_18:\n        /* \"#utility.yul\":2795:2799   */\n      0x00\n        /* \"#utility.yul\":2833:2835   */\n      0x20\n        /* \"#utility.yul\":2822:2831   */\n      dup3\n        /* \"#utility.yul\":2818:2836   */\n      add\n        /* \"#utility.yul\":2810:2836   */\n      swap1\n      pop\n        /* \"#utility.yul\":2882:2891   */\n      dup2\n        /* \"#utility.yul\":2876:2880   */\n      dup2\n        /* \"#utility.yul\":2872:2892   */\n      sub\n        /* \"#utility.yul\":2868:2869   */\n      0x00\n        /* \"#utility.yul\":2857:2866   */\n      dup4\n        /* \"#utility.yul\":2853:2870   */\n      add\n        /* \"#utility.yul\":2846:2893   */\n      mstore\n        /* \"#utility.yul\":2910:2988   */\n      tag_148\n        /* \"#utility.yul\":2983:2987   */\n      dup2\n        /* \"#utility.yul\":2974:2980   */\n      dup5\n        /* \"#utility.yul\":2910:2988   */\n      tag_96\n      jump\t// in\n    tag_148:\n        /* \"#utility.yul\":2902:2988   */\n      swap1\n      pop\n        /* \"#utility.yul\":2682:2995   */\n      swap3\n      swap2\n      pop\n      pop\n      jump\t// out\n        /* \"#utility.yul\":3001:3118   */\n    tag_97:\n        /* \"#utility.yul\":3110:3111   */\n      0x00\n        /* \"#utility.yul\":3107:3108   */\n      dup1\n        /* \"#utility.yul\":3100:3112   */\n      revert\n        /* \"#utility.yul\":3124:3241   */\n    tag_98:\n        /* \"#utility.yul\":3233:3234   */\n      0x00\n        /* \"#utility.yul\":3230:3231   */\n      dup1\n        /* \"#utility.yul\":3223:3235   */\n      revert\n        /* \"#utility.yul\":3247:3427   */\n    tag_99:\n        /* \"#utility.yul\":3295:3372   */\n      0x4e487b7100000000000000000000000000000000000000000000000000000000\n        /* \"#utility.yul\":3292:3293   */\n      0x00\n        /* \"#utility.yul\":3285:3373   */\n      mstore\n        /* \"#utility.yul\":3392:3396   */\n      0x41\n        /* \"#utility.yul\":3389:3390   */\n      0x04\n        /* \"#utility.yul\":3382:3397   */\n      mstore\n        /* \"#utility.yul\":3416:3420   */\n      0x24\n        /* \"#utility.yul\":3413:3414   */\n      0x00\n        /* \"#utility.yul\":3406:3421   */\n      revert\n        /* \"#utility.yul\":3433:3714   */\n    tag_100:\n        /* \"#utility.yul\":3516:3543   */\n      tag_153\n        /* \"#utility.yul\":3538:3542   */\n      dup3\n        /* \"#utility.yul\":3516:3543   */\n      tag_95\n      jump\t// in\n    tag_153:\n        /* \"#utility.yul\":3508:3514   */\n      dup2\n        /* \"#utility.yul\":3504:3544   */\n      add\n        /* \"#utility.yul\":3646:3652   */\n      dup2\n        /* \"#utility.yul\":3634:3644   */\n      dup2\n        /* \"#utility.yul\":3631:3653   */\n      lt\n        /* \"#utility.yul\":3610:3628   */\n      0xffffffffffffffff\n        /* \"#utility.yul\":3598:3608   */\n      dup3\n        /* \"#utility.yul\":3595:3629   */\n      gt\n        /* \"#utility.yul\":3592:3654   */\n      or\n        /* \"#utility.yul\":3589:3677   */\n      iszero\n      tag_154\n      jumpi\n        /* \"#utility.yul\":3657:3675   */\n      tag_155\n      tag_99\n      jump\t// in\n    tag_155:\n        /* \"#utility.yul\":3589:3677   */\n    tag_154:\n        /* \"#utility.yul\":3697:3707   */\n      dup1\n        /* \"#utility.yul\":3693:3695   */\n      0x40\n        /* \"#utility.yul\":3686:3708   */\n      mstore\n        /* \"#utility.yul\":3476:3714   */\n      pop\n        /* \"#utility.yul\":3433:3714   */\n      pop\n      pop\n      jump\t// out\n        /* \"#utility.yul\":3720:3849   */\n    tag_101:\n        /* \"#utility.yul\":3754:3760   */\n      0x00\n        /* \"#utility.yul\":3781:3801   */\n      tag_157\n      tag_86\n      jump\t// in\n    tag_157:\n        /* \"#utility.yul\":3771:3801   */\n      swap1\n      pop\n        /* \"#utility.yul\":3810:3843   */\n      tag_158\n        /* \"#utility.yul\":3838:3842   */\n      dup3\n        /* \"#utility.yul\":3830:3836   */\n      dup3\n        /* \"#utility.yul\":3810:3843   */\n      tag_100\n      jump\t// in\n    tag_158:\n        /* \"#utility.yul\":3720:3849   */\n      swap2\n      swap1\n      pop\n      jump\t// out\n        /* \"#utility.yul\":3855:4163   */\n    tag_102:\n        /* \"#utility.yul\":3917:3921   */\n      0x00\n        /* \"#utility.yul\":4007:4025   */\n      0xffffffffffffffff\n        /* \"#utility.yul\":3999:4005   */\n      dup3\n        /* \"#utility.yul\":3996:4026   */\n      gt\n        /* \"#utility.yul\":3993:4049   */\n      iszero\n      tag_160\n      jumpi\n        /* \"#utility.yul\":4029:4047   */\n      tag_161\n      tag_99\n      jump\t// in\n    tag_161:\n        /* \"#utility.yul\":3993:4049   */\n    tag_160:\n        /* \"#utility.yul\":4067:4096   */\n      tag_162\n        /* \"#utility.yul\":4089:4095   */\n      dup3\n        /* \"#utility.yul\":4067:4096   */\n      tag_95\n      jump\t// in\n    tag_162:\n        /* \"#utility.yul\":4059:4096   */\n      swap1\n      pop\n        /* \"#utility.yul\":4151:4155   */\n      0x20\n        /* \"#utility.yul\":4145:4149   */\n      dup2\n        /* \"#utility.yul\":4141:4156   */\n      add\n        /* \"#utility.yul\":4133:4156   */\n      swap1\n      pop\n        /* \"#utility.yul\":3855:4163   */\n      swap2\n      swap1\n      pop\n      jump\t// out\n        /* \"#utility.yul\":4169:4323   */\n    tag_103:\n        /* \"#utility.yul\":4253:4259   */\n      dup3\n        /* \"#utility.yul\":4248:4251   */\n      dup2\n        /* \"#utility.yul\":4243:4246   */\n      dup4\n        /* \"#utility.yul\":4230:4260   */\n      calldatacopy\n        /* \"#utility.yul\":4315:4316   */\n      0x00\n        /* \"#utility.yul\":4306:4312   */\n      dup4\n        /* \"#utility.yul\":4301:4304   */\n      dup4\n        /* \"#utility.yul\":4297:4313   */\n      add\n        /* \"#utility.yul\":4290:4317   */\n      mstore\n        /* \"#utility.yul\":4169:4323   */\n      pop\n      pop\n      pop\n      jump\t// out\n        /* \"#utility.yul\":4329:4741   */\n    tag_104:\n        /* \"#utility.yul\":4407:4412   */\n      0x00\n        /* \"#utility.yul\":4432:4498   */\n      tag_165\n        /* \"#utility.yul\":4448:4497   */\n      tag_166\n        /* \"#utility.yul\":4490:4496   */\n      dup5\n        /* \"#utility.yul\":4448:4497   */\n      tag_102\n      jump\t// in\n    tag_166:\n        /* \"#utility.yul\":4432:4498   */\n      tag_101\n      jump\t// in\n    tag_165:\n        /* \"#utility.yul\":4423:4498   */\n      swap1\n      pop\n        /* \"#utility.yul\":4521:4527   */\n      dup3\n        /* \"#utility.yul\":4514:4519   */\n      dup2\n        /* \"#utility.yul\":4507:4528   */\n      mstore\n        /* \"#utility.yul\":4559:4563   */\n      0x20\n        /* \"#utility.yul\":4552:4557   */\n      dup2\n        /* \"#utility.yul\":4548:4564   */\n      add\n        /* \"#utility.yul\":4597:4600   */\n      dup5\n        /* \"#utility.yul\":4588:4594   */\n      dup5\n        /* \"#utility.yul\":4583:4586   */\n      dup5\n        /* \"#utility.yul\":4579:4595   */\n      add\n        /* \"#utility.yul\":4576:4601   */\n      gt\n        /* \"#utility.yul\":4573:4685   */\n      iszero\n      tag_167\n      jumpi\n        /* \"#utility.yul\":4604:4683   */\n      tag_168\n      tag_98\n      jump\t// in\n    tag_168:\n        /* \"#utility.yul\":4573:4685   */\n    tag_167:\n        /* \"#utility.yul\":4694:4735   */\n      tag_169\n        /* \"#utility.yul\":4728:4734   */\n      dup5\n        /* \"#utility.yul\":4723:4726   */\n      dup3\n        /* \"#utility.yul\":4718:4721   */\n      dup6\n        /* \"#utility.yul\":4694:4735   */\n      tag_103\n      jump\t// in\n    tag_169:\n        /* \"#utility.yul\":4413:4741   */\n      pop\n        /* \"#utility.yul\":4329:4741   */\n      swap4\n      swap3\n      pop\n      pop\n      pop\n      jump\t// out\n        /* \"#utility.yul\":4761:5101   */\n    tag_105:\n        /* \"#utility.yul\":4817:4822   */\n      0x00\n        /* \"#utility.yul\":4866:4869   */\n      dup3\n        /* \"#utility.yul\":4859:4863   */\n      0x1f\n        /* \"#utility.yul\":4851:4857   */\n      dup4\n        /* \"#utility.yul\":4847:4864   */\n      add\n        /* \"#utility.yul\":4843:4870   */\n      slt\n        /* \"#utility.yul\":4833:4955   */\n      tag_171\n      jumpi\n        /* \"#utility.yul\":4874:4953   */\n      tag_172\n      tag_97\n      jump\t// in\n    tag_172:\n        /* \"#utility.yul\":4833:4955   */\n    tag_171:\n        /* \"#utility.yul\":4991:4997   */\n      dup2\n        /* \"#utility.yul\":4978:4998   */\n      calldataload\n        /* \"#utility.yul\":5016:5095   */\n      tag_173\n        /* \"#utility.yul\":5091:5094   */\n      dup5\n        /* \"#utility.yul\":5083:5089   */\n      dup3\n        /* \"#utility.yul\":5076:5080   */\n      0x20\n        /* \"#utility.yul\":5068:5074   */\n      dup7\n        /* \"#utility.yul\":5064:5081   */\n      add\n        /* \"#utility.yul\":5016:5095   */\n      tag_104\n      jump\t// in\n    tag_173:\n        /* \"#utility.yul\":5007:5095   */\n      swap2\n      pop\n        /* \"#utility.yul\":4823:5101   */\n      pop\n        /* \"#utility.yul\":4761:5101   */\n      swap3\n      swap2\n      pop\n      pop\n      jump\t// out\n        /* \"#utility.yul\":5107:5616   */\n    tag_21:\n        /* \"#utility.yul\":5176:5182   */\n      0x00\n        /* \"#utility.yul\":5225:5227   */\n      0x20\n        /* \"#utility.yul\":5213:5222   */\n      dup3\n        /* \"#utility.yul\":5204:5211   */\n      dup5\n        /* \"#utility.yul\":5200:5223   */\n      sub\n        /* \"#utility.yul\":5196:5228   */\n      slt\n        /* \"#utility.yul\":5193:5312   */\n      iszero\n      tag_175\n      jumpi\n        /* \"#utility.yul\":5231:5310   */\n      tag_176\n      tag_87\n      jump\t// in\n    tag_176:\n        /* \"#utility.yul\":5193:5312   */\n    tag_175:\n        /* \"#utility.yul\":5379:5380   */\n      0x00\n        /* \"#utility.yul\":5368:5377   */\n      dup3\n        /* \"#utility.yul\":5364:5381   */\n      add\n        /* \"#utility.yul\":5351:5382   */\n      calldataload\n        /* \"#utility.yul\":5409:5427   */\n      0xffffffffffffffff\n        /* \"#utility.yul\":5401:5407   */\n      dup2\n        /* \"#utility.yul\":5398:5428   */\n      gt\n        /* \"#utility.yul\":5395:5512   */\n      iszero\n      tag_177\n      jumpi\n        /* \"#utility.yul\":5431:5510   */\n      tag_178\n      tag_88\n      jump\t// in\n    tag_178:\n        /* \"#utility.yul\":5395:5512   */\n    tag_177:\n        /* \"#utility.yul\":5536:5599   */\n      tag_179\n        /* \"#utility.yul\":5591:5598   */\n      dup5\n        /* \"#utility.yul\":5582:5588   */\n      dup3\n        /* \"#utility.yul\":5571:5580   */\n      dup6\n        /* \"#utility.yul\":5567:5589   */\n      add\n        /* \"#utility.yul\":5536:5599   */\n      tag_105\n      jump\t// in\n    tag_179:\n        /* \"#utility.yul\":5526:5599   */\n      swap2\n      pop\n        /* \"#utility.yul\":5322:5609   */\n      pop\n        /* \"#utility.yul\":5107:5616   */\n      swap3\n      swap2\n      pop\n      pop\n      jump\t// out\n        /* \"#utility.yul\":5622:5712   */\n    tag_106:\n        /* \"#utility.yul\":5656:5663   */\n      0x00\n        /* \"#utility.yul\":5699:5704   */\n      dup2\n        /* \"#utility.yul\":5692:5705   */\n      iszero\n        /* \"#utility.yul\":5685:5706   */\n      iszero\n        /* \"#utility.yul\":5674:5706   */\n      swap1\n      pop\n        /* \"#utility.yul\":5622:5712   */\n      swap2\n      swap1\n      pop\n      jump\t// out\n        /* \"#utility.yul\":5718:5827   */\n    tag_107:\n        /* \"#utility.yul\":5799:5820   */\n      tag_182\n        /* \"#utility.yul\":5814:5819   */\n      dup2\n        /* \"#utility.yul\":5799:5820   */\n      tag_106\n      jump\t// in\n    tag_182:\n        /* \"#utility.yul\":5794:5797   */\n      dup3\n        /* \"#utility.yul\":5787:5821   */\n      mstore\n        /* \"#utility.yul\":5718:5827   */\n      pop\n      pop\n      jump\t// out\n        /* \"#utility.yul\":5833:6655   */\n    tag_24:\n        /* \"#utility.yul\":6066:6070   */\n      0x00\n        /* \"#utility.yul\":6104:6107   */\n      0xa0\n        /* \"#utility.yul\":6093:6102   */\n      dup3\n        /* \"#utility.yul\":6089:6108   */\n      add\n        /* \"#utility.yul\":6081:6108   */\n      swap1\n      pop\n        /* \"#utility.yul\":6154:6163   */\n      dup2\n        /* \"#utility.yul\":6148:6152   */\n      dup2\n        /* \"#utility.yul\":6144:6164   */\n      sub\n        /* \"#utility.yul\":6140:6141   */\n      0x00\n        /* \"#utility.yul\":6129:6138   */\n      dup4\n        /* \"#utility.yul\":6125:6142   */\n      add\n        /* \"#utility.yul\":6118:6165   */\n      mstore\n        /* \"#utility.yul\":6182:6260   */\n      tag_184\n        /* \"#utility.yul\":6255:6259   */\n      dup2\n        /* \"#utility.yul\":6246:6252   */\n      dup9\n        /* \"#utility.yul\":6182:6260   */\n      tag_96\n      jump\t// in\n    tag_184:\n        /* \"#utility.yul\":6174:6260   */\n      swap1\n      pop\n        /* \"#utility.yul\":6307:6316   */\n      dup2\n        /* \"#utility.yul\":6301:6305   */\n      dup2\n        /* \"#utility.yul\":6297:6317   */\n      sub\n        /* \"#utility.yul\":6292:6294   */\n      0x20\n        /* \"#utility.yul\":6281:6290   */\n      dup4\n        /* \"#utility.yul\":6277:6295   */\n      add\n        /* \"#utility.yul\":6270:6318   */\n      mstore\n        /* \"#utility.yul\":6335:6413   */\n      tag_185\n        /* \"#utility.yul\":6408:6412   */\n      dup2\n        /* \"#utility.yul\":6399:6405   */\n      dup8\n        /* \"#utility.yul\":6335:6413   */\n      tag_96\n      jump\t// in\n    tag_185:\n        /* \"#utility.yul\":6327:6413   */\n      swap1\n      pop\n        /* \"#utility.yul\":6423:6495   */\n      tag_186\n        /* \"#utility.yul\":6491:6493   */\n      0x40\n        /* \"#utility.yul\":6480:6489   */\n      dup4\n        /* \"#utility.yul\":6476:6494   */\n      add\n        /* \"#utility.yul\":6467:6473   */\n      dup7\n        /* \"#utility.yul\":6423:6495   */\n      tag_85\n      jump\t// in\n    tag_186:\n        /* \"#utility.yul\":6505:6571   */\n      tag_187\n        /* \"#utility.yul\":6567:6569   */\n      0x60\n        /* \"#utility.yul\":6556:6565   */\n      dup4\n        /* \"#utility.yul\":6552:6570   */\n      add\n        /* \"#utility.yul\":6543:6549   */\n      dup6\n        /* \"#utility.yul\":6505:6571   */\n      tag_107\n      jump\t// in\n    tag_187:\n        /* \"#utility.yul\":6581:6648   */\n      tag_188\n        /* \"#utility.yul\":6643:6646   */\n      0x80\n        /* \"#utility.yul\":6632:6641   */\n      dup4\n        /* \"#utility.yul\":6628:6647   */\n      add\n        /* \"#utility.yul\":6619:6625   */\n      dup5\n        /* \"#utility.yul\":6581:6648   */\n      tag_107\n      jump\t// in\n    tag_188:\n        /* \"#utility.yul\":5833:6655   */\n      swap7\n      swap6\n      pop\n      pop\n      pop\n      pop\n      pop\n      pop\n      jump\t// out\n        /* \"#utility.yul\":6661:6783   */\n    tag_108:\n        /* \"#utility.yul\":6734:6758   */\n      tag_190\n        /* \"#utility.yul\":6752:6757   */\n      dup2\n        /* \"#utility.yul\":6734:6758   */\n      tag_84\n      jump\t// in\n    tag_190:\n        /* \"#utility.yul\":6727:6732   */\n      dup2\n        /* \"#utility.yul\":6724:6759   */\n      eq\n        /* \"#utility.yul\":6714:6777   */\n      tag_191\n      jumpi\n        /* \"#utility.yul\":6773:6774   */\n      0x00\n        /* \"#utility.yul\":6770:6771   */\n      dup1\n        /* \"#utility.yul\":6763:6775   */\n      revert\n        /* \"#utility.yul\":6714:6777   */\n    tag_191:\n        /* \"#utility.yul\":6661:6783   */\n      pop\n      jump\t// out\n        /* \"#utility.yul\":6789:6928   */\n    tag_109:\n        /* \"#utility.yul\":6835:6840   */\n      0x00\n        /* \"#utility.yul\":6873:6879   */\n      dup2\n        /* \"#utility.yul\":6860:6880   */\n      calldataload\n        /* \"#utility.yul\":6851:6880   */\n      swap1\n      pop\n        /* \"#utility.yul\":6889:6922   */\n      tag_193\n        /* \"#utility.yul\":6916:6921   */\n      dup2\n        /* \"#utility.yul\":6889:6922   */\n      tag_108\n      jump\t// in\n    tag_193:\n        /* \"#utility.yul\":6789:6928   */\n      swap3\n      swap2\n      pop\n      pop\n      jump\t// out\n        /* \"#utility.yul\":6934:8239   */\n    tag_30:\n        /* \"#utility.yul\":7050:7056   */\n      0x00\n        /* \"#utility.yul\":7058:7064   */\n      dup1\n        /* \"#utility.yul\":7066:7072   */\n      0x00\n        /* \"#utility.yul\":7074:7080   */\n      dup1\n        /* \"#utility.yul\":7123:7126   */\n      0x80\n        /* \"#utility.yul\":7111:7120   */\n      dup6\n        /* \"#utility.yul\":7102:7109   */\n      dup8\n        /* \"#utility.yul\":7098:7121   */\n      sub\n        /* \"#utility.yul\":7094:7127   */\n      slt\n        /* \"#utility.yul\":7091:7211   */\n      iszero\n      tag_195\n      jumpi\n        /* \"#utility.yul\":7130:7209   */\n      tag_196\n      tag_87\n      jump\t// in\n    tag_196:\n        /* \"#utility.yul\":7091:7211   */\n    tag_195:\n        /* \"#utility.yul\":7278:7279   */\n      0x00\n        /* \"#utility.yul\":7267:7276   */\n      dup6\n        /* \"#utility.yul\":7263:7280   */\n      add\n        /* \"#utility.yul\":7250:7281   */\n      calldataload\n        /* \"#utility.yul\":7308:7326   */\n      0xffffffffffffffff\n        /* \"#utility.yul\":7300:7306   */\n      dup2\n        /* \"#utility.yul\":7297:7327   */\n      gt\n        /* \"#utility.yul\":7294:7411   */\n      iszero\n      tag_197\n      jumpi\n        /* \"#utility.yul\":7330:7409   */\n      tag_198\n      tag_88\n      jump\t// in\n    tag_198:\n        /* \"#utility.yul\":7294:7411   */\n    tag_197:\n        /* \"#utility.yul\":7435:7498   */\n      tag_199\n        /* \"#utility.yul\":7490:7497   */\n      dup8\n        /* \"#utility.yul\":7481:7487   */\n      dup3\n        /* \"#utility.yul\":7470:7479   */\n      dup9\n        /* \"#utility.yul\":7466:7488   */\n      add\n        /* \"#utility.yul\":7435:7498   */\n      tag_105\n      jump\t// in\n    tag_199:\n        /* \"#utility.yul\":7425:7498   */\n      swap5\n      pop\n        /* \"#utility.yul\":7221:7508   */\n      pop\n        /* \"#utility.yul\":7575:7577   */\n      0x20\n        /* \"#utility.yul\":7564:7573   */\n      dup6\n        /* \"#utility.yul\":7560:7578   */\n      add\n        /* \"#utility.yul\":7547:7579   */\n      calldataload\n        /* \"#utility.yul\":7606:7624   */\n      0xffffffffffffffff\n        /* \"#utility.yul\":7598:7604   */\n      dup2\n        /* \"#utility.yul\":7595:7625   */\n      gt\n        /* \"#utility.yul\":7592:7709   */\n      iszero\n      tag_200\n      jumpi\n        /* \"#utility.yul\":7628:7707   */\n      tag_201\n      tag_88\n      jump\t// in\n    tag_201:\n        /* \"#utility.yul\":7592:7709   */\n    tag_200:\n        /* \"#utility.yul\":7733:7796   */\n      tag_202\n        /* \"#utility.yul\":7788:7795   */\n      dup8\n        /* \"#utility.yul\":7779:7785   */\n      dup3\n        /* \"#utility.yul\":7768:7777   */\n      dup9\n        /* \"#utility.yul\":7764:7786   */\n      add\n        /* \"#utility.yul\":7733:7796   */\n      tag_105\n      jump\t// in\n    tag_202:\n        /* \"#utility.yul\":7723:7796   */\n      swap4\n      pop\n        /* \"#utility.yul\":7518:7806   */\n      pop\n        /* \"#utility.yul\":7873:7875   */\n      0x40\n        /* \"#utility.yul\":7862:7871   */\n      dup6\n        /* \"#utility.yul\":7858:7876   */\n      add\n        /* \"#utility.yul\":7845:7877   */\n      calldataload\n        /* \"#utility.yul\":7904:7922   */\n      0xffffffffffffffff\n        /* \"#utility.yul\":7896:7902   */\n      dup2\n        /* \"#utility.yul\":7893:7923   */\n      gt\n        /* \"#utility.yul\":7890:8007   */\n      iszero\n      tag_203\n      jumpi\n        /* \"#utility.yul\":7926:8005   */\n      tag_204\n      tag_88\n      jump\t// in\n    tag_204:\n        /* \"#utility.yul\":7890:8007   */\n    tag_203:\n        /* \"#utility.yul\":8031:8094   */\n      tag_205\n        /* \"#utility.yul\":8086:8093   */\n      dup8\n        /* \"#utility.yul\":8077:8083   */\n      dup3\n        /* \"#utility.yul\":8066:8075   */\n      dup9\n        /* \"#utility.yul\":8062:8084   */\n      add\n        /* \"#utility.yul\":8031:8094   */\n      tag_105\n      jump\t// in\n    tag_205:\n        /* \"#utility.yul\":8021:8094   */\n      swap3\n      pop\n        /* \"#utility.yul\":7816:8104   */\n      pop\n        /* \"#utility.yul\":8143:8145   */\n      0x60\n        /* \"#utility.yul\":8169:8222   */\n      tag_206\n        /* \"#utility.yul\":8214:8221   */\n      dup8\n        /* \"#utility.yul\":8205:8211   */\n      dup3\n        /* \"#utility.yul\":8194:8203   */\n      dup9\n        /* \"#utility.yul\":8190:8212   */\n      add\n        /* \"#utility.yul\":8169:8222   */\n      tag_109\n      jump\t// in\n    tag_206:\n        /* \"#utility.yul\":8159:8222   */\n      swap2\n      pop\n        /* \"#utility.yul\":8114:8232   */\n      pop\n        /* \"#utility.yul\":6934:8239   */\n      swap3\n      swap6\n      swap2\n      swap5\n      pop\n      swap3\n      pop\n      jump\t// out\n        /* \"#utility.yul\":8245:8425   */\n    tag_110:\n        /* \"#utility.yul\":8293:8370   */\n      0x4e487b7100000000000000000000000000000000000000000000000000000000\n        /* \"#utility.yul\":8290:8291   */\n      0x00\n        /* \"#utility.yul\":8283:8371   */\n      mstore\n        /* \"#utility.yul\":8390:8394   */\n      0x22\n        /* \"#utility.yul\":8387:8388   */\n      0x04\n        /* \"#utility.yul\":8380:8395   */\n      mstore\n        /* \"#utility.yul\":8414:8418   */\n      0x24\n        /* \"#utility.yul\":8411:8412   */\n      0x00\n        /* \"#utility.yul\":8404:8419   */\n      revert\n        /* \"#utility.yul\":8431:8751   */\n    tag_38:\n        /* \"#utility.yul\":8475:8481   */\n      0x00\n        /* \"#utility.yul\":8512:8513   */\n      0x02\n        /* \"#utility.yul\":8506:8510   */\n      dup3\n        /* \"#utility.yul\":8502:8514   */\n      div\n        /* \"#utility.yul\":8492:8514   */\n      swap1\n      pop\n        /* \"#utility.yul\":8559:8560   */\n      0x01\n        /* \"#utility.yul\":8553:8557   */\n      dup3\n        /* \"#utility.yul\":8549:8561   */\n      and\n        /* \"#utility.yul\":8580:8598   */\n      dup1\n        /* \"#utility.yul\":8570:8651   */\n      tag_209\n      jumpi\n        /* \"#utility.yul\":8636:8640   */\n      0x7f\n        /* \"#utility.yul\":8628:8634   */\n      dup3\n        /* \"#utility.yul\":8624:8641   */\n      and\n        /* \"#utility.yul\":8614:8641   */\n      swap2\n      pop\n        /* \"#utility.yul\":8570:8651   */\n    tag_209:\n        /* \"#utility.yul\":8698:8700   */\n      0x20\n        /* \"#utility.yul\":8690:8696   */\n      dup3\n        /* \"#utility.yul\":8687:8701   */\n      lt\n        /* \"#utility.yul\":8667:8685   */\n      dup2\n        /* \"#utility.yul\":8664:8702   */\n      eq\n        /* \"#utility.yul\":8661:8745   */\n      iszero\n      tag_210\n      jumpi\n        /* \"#utility.yul\":8717:8735   */\n      tag_211\n      tag_110\n      jump\t// in\n    tag_211:\n        /* \"#utility.yul\":8661:8745   */\n    tag_210:\n        /* \"#utility.yul\":8482:8751   */\n      pop\n        /* \"#utility.yul\":8431:8751   */\n      swap2\n      swap1\n      pop\n      jump\t// out\n        /* \"#utility.yul\":8757:8905   */\n    tag_111:\n        /* \"#utility.yul\":8859:8870   */\n      0x00\n        /* \"#utility.yul\":8896:8899   */\n      dup2\n        /* \"#utility.yul\":8881:8899   */\n      swap1\n      pop\n        /* \"#utility.yul\":8757:8905   */\n      swap3\n      swap2\n      pop\n      pop\n      jump\t// out\n        /* \"#utility.yul\":8911:9288   */\n    tag_112:\n        /* \"#utility.yul\":9017:9020   */\n      0x00\n        /* \"#utility.yul\":9045:9084   */\n      tag_214\n        /* \"#utility.yul\":9078:9083   */\n      dup3\n        /* \"#utility.yul\":9045:9084   */\n      tag_92\n      jump\t// in\n    tag_214:\n        /* \"#utility.yul\":9100:9189   */\n      tag_215\n        /* \"#utility.yul\":9182:9188   */\n      dup2\n        /* \"#utility.yul\":9177:9180   */\n      dup6\n        /* \"#utility.yul\":9100:9189   */\n      tag_111\n      jump\t// in\n    tag_215:\n        /* \"#utility.yul\":9093:9189   */\n      swap4\n      pop\n        /* \"#utility.yul\":9198:9250   */\n      tag_216\n        /* \"#utility.yul\":9243:9249   */\n      dup2\n        /* \"#utility.yul\":9238:9241   */\n      dup6\n        /* \"#utility.yul\":9231:9235   */\n      0x20\n        /* \"#utility.yul\":9224:9229   */\n      dup7\n        /* \"#utility.yul\":9220:9236   */\n      add\n        /* \"#utility.yul\":9198:9250   */\n      tag_94\n      jump\t// in\n    tag_216:\n        /* \"#utility.yul\":9275:9281   */\n      dup1\n        /* \"#utility.yul\":9270:9273   */\n      dup5\n        /* \"#utility.yul\":9266:9282   */\n      add\n        /* \"#utility.yul\":9259:9282   */\n      swap2\n      pop\n        /* \"#utility.yul\":9021:9288   */\n      pop\n        /* \"#utility.yul\":8911:9288   */\n      swap3\n      swap2\n      pop\n      pop\n      jump\t// out\n        /* \"#utility.yul\":9294:9569   */\n    tag_57:\n        /* \"#utility.yul\":9426:9429   */\n      0x00\n        /* \"#utility.yul\":9448:9543   */\n      tag_218\n        /* \"#utility.yul\":9539:9542   */\n      dup3\n        /* \"#utility.yul\":9530:9536   */\n      dup5\n        /* \"#utility.yul\":9448:9543   */\n      tag_112\n      jump\t// in\n    tag_218:\n        /* \"#utility.yul\":9441:9543   */\n      swap2\n      pop\n        /* \"#utility.yul\":9560:9563   */\n      dup2\n        /* \"#utility.yul\":9553:9563   */\n      swap1\n      pop\n        /* \"#utility.yul\":9294:9569   */\n      swap3\n      swap2\n      pop\n      pop\n      jump\t// out\n\n    auxdata: 0xa264697066735822122042cbec0d4793d7414862060faa6e01be9f73e688c8bd3fac5c0866f3ceed209664736f6c634300080a0033\n}\n","bytecode":{"linkReferences":{},"object":"608060405234801561001057600080fd5b50336000806101000a81548173ffffffffffffffffffffffffffffffffffffffff021916908373ffffffffffffffffffffffffffffffffffffffff160217905550610c68806100606000396000f3fe608060405234801561001057600080fd5b50600436106100625760003560e01c806329575f6a146100675780632a979f3114610085578063926d7eb0146100b55780639b378699146100e9578063cddb61b714610105578063d2dbd08b14610121575b600080fd5b61006f61013d565b60405161007c9190610750565b60405180910390f35b61009f600480360381019061009a91906107b5565b610161565b6040516100ac919061087b565b60405180910390f35b6100cf60048036038101906100ca91906109d2565b61020d565b6040516100e0959493929190610a36565b60405180910390f35b61010360048036038101906100fe91906109d2565b6103a3565b005b61011f600480360381019061011a9190610ac3565b610438565b005b61013b600480360381019061013691906109d2565b6105d8565b005b60008054906101000a900473ffffffffffffffffffffffffffffffffffffffff1681565b6002818154811061017157600080fd5b90600052602060002001600091509050805461018c90610bad565b80601f01602080910402602001604051908101604052809291908181526020018280546101b890610bad565b80156102055780601f106101da57610100808354040283529160200191610205565b820191906000526020600020905b8154815290600101906020018083116101e857829003601f168201915b505050505081565b60018180516020810182018051848252602083016020850120818352809550505050505060009150905080600001805461024690610bad565b80601f016020809104026020016040519081016040528092919081815260200182805461027290610bad565b80156102bf5780601f10610294576101008083540402835291602001916102bf565b820191906000526020600020905b8154815290600101906020018083116102a257829003601f168201915b5050505050908060010180546102d490610bad565b80601f016020809104026020016040519081016040528092919081815260200182805461030090610bad565b801561034d5780601f106103225761010080835404028352916020019161034d565b820191906000526020600020905b81548152906001019060200180831161033057829003601f168201915b5050505050908060020160009054906101000a900473ffffffffffffffffffffffffffffffffffffffff16908060020160149054906101000a900460ff16908060020160159054906101000a900460ff16905085565b60008054906101000a900473ffffffffffffffffffffffffffffffffffffffff1673ffffffffffffffffffffffffffffffffffffffff163373ffffffffffffffffffffffffffffffffffffffff16146103fb57600080fd5b600060018260405161040d9190610c1b565b908152602001604051809103902060020160156101000a81548160ff02191690831515021790555050565b60008054906101000a900473ffffffffffffffffffffffffffffffffffffffff1673ffffffffffffffffffffffffffffffffffffffff163373ffffffffffffffffffffffffffffffffffffffff161461049057600080fd5b6001826040516104a09190610c1b565b908152602001604051809103902060020160149054906101000a900460ff16610500576002829080600181540180825580915050600190039060005260206000200160009091909190915090805190602001906104fe92919061066c565b505b60006001836040516105129190610c1b565b908152602001604051809103902090508481600001908051906020019061053a92919061066c565b508381600101908051906020019061055392919061066c565b50818160020160006101000a81548173ffffffffffffffffffffffffffffffffffffffff021916908373ffffffffffffffffffffffffffffffffffffffff16021790555060018160020160146101000a81548160ff02191690831515021790555060018160020160156101000a81548160ff0219169083151502179055505050505050565b60008054906101000a900473ffffffffffffffffffffffffffffffffffffffff1673ffffffffffffffffffffffffffffffffffffffff163373ffffffffffffffffffffffffffffffffffffffff161461063057600080fd5b600180826040516106419190610c1b565b908152602001604051809103902060020160156101000a81548160ff02191690831515021790555050565b82805461067890610bad565b90600052602060002090601f01602090048101928261069a57600085556106e1565b82601f106106b357805160ff19168380011785556106e1565b828001600101855582156106e1579182015b828111156106e05782518255916020019190600101906106c5565b5b5090506106ee91906106f2565b5090565b5b8082111561070b5760008160009055506001016106f3565b5090565b600073ffffffffffffffffffffffffffffffffffffffff82169050919050565b600061073a8261070f565b9050919050565b61074a8161072f565b82525050565b60006020820190506107656000830184610741565b92915050565b6000604051905090565b600080fd5b600080fd5b6000819050919050565b6107928161077f565b811461079d57600080fd5b50565b6000813590506107af81610789565b92915050565b6000602082840312156107cb576107ca610775565b5b60006107d9848285016107a0565b91505092915050565b600081519050919050565b600082825260208201905092915050565b60005b8381101561081c578082015181840152602081019050610801565b8381111561082b576000848401525b50505050565b6000601f19601f8301169050919050565b600061084d826107e2565b61085781856107ed565b93506108678185602086016107fe565b61087081610831565b840191505092915050565b600060208201905081810360008301526108958184610842565b905092915050565b600080fd5b600080fd5b7f4e487b7100000000000000000000000000000000000000000000000000000000600052604160045260246000fd5b6108df82610831565b810181811067ffffffffffffffff821117156108fe576108fd6108a7565b5b80604052505050565b600061091161076b565b905061091d82826108d6565b919050565b600067ffffffffffffffff82111561093d5761093c6108a7565b5b61094682610831565b9050602081019050919050565b82818337600083830152505050565b600061097561097084610922565b610907565b905082815260208101848484011115610991576109906108a2565b5b61099c848285610953565b509392505050565b600082601f8301126109b9576109b861089d565b5b81356109c9848260208601610962565b91505092915050565b6000602082840312156109e8576109e7610775565b5b600082013567ffffffffffffffff811115610a0657610a0561077a565b5b610a12848285016109a4565b91505092915050565b60008115159050919050565b610a3081610a1b565b82525050565b600060a0820190508181036000830152610a508188610842565b90508181036020830152610a648187610842565b9050610a736040830186610741565b610a806060830185610a27565b610a8d6080830184610a27565b9695505050505050565b610aa08161072f565b8114610aab57600080fd5b50565b600081359050610abd81610a97565b92915050565b60008060008060808587031215610add57610adc610775565b5b600085013567ffffffffffffffff811115610afb57610afa61077a565b5b610b07878288016109a4565b945050602085013567ffffffffffffffff811115610b2857610b2761077a565b5b610b34878288016109a4565b935050604085013567ffffffffffffffff811115610b5557610b5461077a565b5b610b61878288016109a4565b9250506060610b7287828801610aae565b91505092959194509250565b7f4e487b7100000000000000000000000000000000000000000000000000000000600052602260045260246000fd5b60006002820490506001821680610bc557607f821691505b60208210811415610bd957610bd8610b7e565b5b50919050565b600081905092915050565b6000610bf5826107e2565b610bff8185610bdf565b9350610c0f8185602086016107fe565b80840191505092915050565b6000610c278284610bea565b91508190509291505056fea264697066735822122042cbec0d4793d7414862060faa6e01be9f73e688c8bd3fac5c0866f3ceed209664736f6c634300080a0033","opcodes":"PUSH1 0x80 PUSH1 0x40 MSTORE CALLVALUE DUP1 ISZERO PUSH2 0x10 JUMPI PUSH1 0x0 DUP1 REVERT JUMPDEST POP CALLER PUSH1 0x0 DUP1 PUSH2 0x100 EXP DUP2 SLOAD DUP2 PUSH20 0xFFFFFFFFFFFFFFFFFFFFFFFFFFFFFFFFFFFFFFFF MUL NOT AND SWAP1 DUP4 PUSH20 0xFFFFFFFFFFFFFFFFFFFFFFFFFFFFFFFFFFFFFFFF AND MUL OR SWAP1 SSTORE POP PUSH2 0xC68 DUP1 PUSH2 0x60 PUSH1 0x0 CODECOPY PUSH1 0x0 RETURN INVALID PUSH1 0x80 PUSH1 0x40 MSTORE CALLVALUE DUP1 ISZERO PUSH2 0x10 JUMPI PUSH1 0x0 DUP1 REVERT JUMPDEST POP PUSH1 0x4 CALLDATASIZE LT PUSH2 0x62 JUMPI PUSH1 0x0 CALLDATALOAD PUSH1 0xE0 SHR DUP1 PUSH4 0x29575F6A EQ PUSH2 0x67 JUMPI DUP1 PUSH4 0x2A979F31 EQ PUSH2 0x85 JUMPI DUP1 PUSH4 0x926D7EB0 EQ PUSH2 0xB5 JUMPI DUP1 PUSH4 0x9B378699 EQ PUSH2 0xE9 JUMPI DUP1 PUSH4 0xCDDB61B7 EQ PUSH2 0x105 JUMPI DUP1 PUSH4 0xD2DBD08B EQ PUSH2 0x121 JUMPI JUMPDEST PUSH1 0x0 DUP1 REVERT JUMPDEST PUSH2 0x6F PUSH2 0x13D JUMP JUMPDEST PUSH1 0x40 MLOAD PUSH2 0x7C SWAP2 SWAP1 PUSH2 0x750 JUMP JUMPDEST PUSH1 0x40 MLOAD DUP1 SWAP2 SUB SWAP1 RETURN JUMPDEST PUSH2 0x9F PUSH1 0x4 DUP1 CALLDATASIZE SUB DUP2 ADD SWAP1 PUSH2 0x9A SWAP2 SWAP1 PUSH2 0x7B5 JUMP JUMPDEST PUSH2 0x161 JUMP JUMPDEST PUSH1 0x40 MLOAD PUSH2 0xAC SWAP2 SWAP1 PUSH2 0x87B JUMP JUMPDEST PUSH1 0x40 MLOAD DUP1 SWAP2 SUB SWAP1 RETURN JUMPDEST PUSH2 0xCF PUSH1 0x4 DUP1 CALLDATASIZE SUB DUP2 ADD SWAP1 PUSH2 0xCA SWAP2 SWAP1 PUSH2 0x9D2 JUMP JUMPDEST PUSH2 0x20D JUMP JUMPDEST PUSH1 0x40 MLOAD PUSH2 0xE0 SWAP6 SWAP5 SWAP4 SWAP3 SWAP2 SWAP1 PUSH2 0xA36 JUMP JUMPDEST PUSH1 0x40 MLOAD DUP1 SWAP2 SUB SWAP1 RETURN JUMPDEST PUSH2 0x103 PUSH1 0x4 DUP1 CALLDATASIZE SUB DUP2 ADD SWAP1 PUSH2 0xFE SWAP2 SWAP1 PUSH2 0x9D2 JUMP JUMPDEST PUSH2 0x3A3 JUMP JUMPDEST STOP JUMPDEST PUSH2 0x11F PUSH1 0x4 DUP1 CALLDATASIZE SUB DUP2 ADD SWAP1 PUSH2 0x11A SWAP2 SWAP1 PUSH2 0xAC3 JUMP JUMPDEST PUSH2 0x438 JUMP JUMPDEST STOP JUMPDEST PUSH2 0x13B PUSH1 0x4 DUP1 CALLDATASIZE SUB DUP2 ADD SWAP1 PUSH2 0x136 SWAP2 SWAP1 PUSH2 0x9D2 JUMP JUMPDEST PUSH2 0x5D8 JUMP JUMPDEST STOP JUMPDEST PUSH1 0x0 DUP1 SLOAD SWAP1 PUSH2 0x100 EXP SWAP1 DIV PUSH20 0xFFFFFFFFFFFFFFFFFFFFFFFFFFFFFFFFFFFFFFFF AND DUP2 JUMP JUMPDEST PUSH1 0x2 DUP2 DUP2 SLOAD DUP2 LT PUSH2 0x171 JUMPI PUSH1 0x0 DUP1 REVERT JUMPDEST SWAP1 PUSH1 0x0 MSTORE PUSH1 0x20 PUSH1 0x0 KECCAK256 ADD PUSH1 0x0 SWAP2 POP SWAP1 POP DUP1 SLOAD PUSH2 0x18C SWAP1 PUSH2 0xBAD JUMP JUMPDEST DUP1 PUSH1 0x1F ADD PUSH1 0x20 DUP1 SWAP2 DIV MUL PUSH1 0x20 ADD PUSH1 0x40 MLOAD SWAP1 DUP2 ADD PUSH1 0x40 MSTORE DUP1 SWAP3 SWAP2 SWAP1 DUP2 DUP2 MSTORE PUSH1 0x20 ADD DUP3 DUP1 SLOAD PUSH2 0x1B8 SWAP1 PUSH2 0xBAD JUMP JUMPDEST DUP1 ISZERO PUSH2 0x205 JUMPI DUP1 PUSH1 0x1F LT PUSH2 0x1DA JUMPI PUSH2 0x100 DUP1 DUP4 SLOAD DIV MUL DUP4 MSTORE SWAP2 PUSH1 0x20 ADD SWAP2 PUSH2 0x205 JUMP JUMPDEST DUP3 ADD SWAP2 SWAP1 PUSH1 0x0 MSTORE PUSH1 0x20 PUSH1 0x0 KECCAK256 SWAP1 JUMPDEST DUP2 SLOAD DUP2 MSTORE SWAP1 PUSH1 0x1 ADD SWAP1 PUSH1 0x20 ADD DUP1 DUP4 GT PUSH2 0x1E8 JUMPI DUP3 SWAP1 SUB PUSH1 0x1F AND DUP3 ADD SWAP2 JUMPDEST POP POP POP POP POP DUP2 JUMP JUMPDEST PUSH1 0x1 DUP2 DUP1 MLOAD PUSH1 0x20 DUP2 ADD DUP3 ADD DUP1 MLOAD DUP5 DUP3 MSTORE PUSH1 0x20 DUP4 ADD PUSH1 0x20 DUP6 ADD KECCAK256 DUP2 DUP4 MSTORE DUP1 SWAP6 POP POP POP POP POP POP PUSH1 0x0 SWAP2 POP SWAP1 POP DUP1 PUSH1 0x0 ADD DUP1 SLOAD PUSH2 0x246 SWAP1 PUSH2 0xBAD JUMP JUMPDEST DUP1 PUSH1 0x1F ADD PUSH1 0x20 DUP1 SWAP2 DIV MUL PUSH1 0x20 ADD PUSH1 0x40 MLOAD SWAP1 DUP2 ADD PUSH1 0x40 MSTORE DUP1 SWAP3 SWAP2 SWAP1 DUP2 DUP2 MSTORE PUSH1 0x20 ADD DUP3 DUP1 SLOAD PUSH2 0x272 SWAP1 PUSH2 0xBAD JUMP JUMPDEST DUP1 ISZERO PUSH2 0x2BF JUMPI DUP1 PUSH1 0x1F LT PUSH2 0x294 JUMPI PUSH2 0x100 DUP1 DUP4 SLOAD DIV MUL DUP4 MSTORE SWAP2 PUSH1 0x20 ADD SWAP2 PUSH2 0x2BF JUMP JUMPDEST DUP3 ADD SWAP2 SWAP1 PUSH1 0x0 MSTORE PUSH1 0x20 PUSH1 0x0 KECCAK256 SWAP1 JUMPDEST DUP2 SLOAD DUP2 MSTORE SWAP1 PUSH1 0x1 ADD SWAP1 PUSH1 0x20 ADD DUP1 DUP4 GT PUSH2 0x2A2 JUMPI DUP3 SWAP1 SUB PUSH1 0x1F AND DUP3 ADD SWAP2 JUMPDEST POP POP POP POP POP SWAP1 DUP1 PUSH1 0x1 ADD DUP1 SLOAD PUSH2 0x2D4 SWAP1 PUSH2 0xBAD JUMP JUMPDEST DUP1 PUSH1 0x1F ADD PUSH1 0x20 DUP1 SWAP2 DIV MUL PUSH1 0x20 ADD PUSH1 0x40 MLOAD SWAP1 DUP2 ADD PUSH1 0x40 MSTORE DUP1 SWAP3 SWAP2 SWAP1 DUP2 DUP2 MSTORE PUSH1 0x20 ADD DUP3 DUP1 SLOAD PUSH2 0x300 SWAP1 PUSH2 0xBAD JUMP JUMPDEST DUP1 ISZERO PUSH2 0x34D JUMPI DUP1 PUSH1 0x1F LT PUSH2 0x322 JUMPI PUSH2 0x100 DUP1 DUP4 SLOAD DIV MUL DUP4 MSTORE SWAP2 PUSH1 0x20 ADD SWAP2 PUSH2 0x34D JUMP JUMPDEST DUP3 ADD SWAP2 SWAP1 PUSH1 0x0 MSTORE PUSH1 0x20 PUSH1 0x0 KECCAK256 SWAP1 JUMPDEST DUP2 SLOAD DUP2 MSTORE SWAP1 PUSH1 0x1 ADD SWAP1 PUSH1 0x20 ADD DUP1 DUP4 GT PUSH2 0x330 JUMPI DUP3 SWAP1 SUB PUSH1 0x1F AND DUP3 ADD SWAP2 JUMPDEST POP POP POP POP POP SWAP1 DUP1 PUSH1 0x2 ADD PUSH1 0x0 SWAP1 SLOAD SWAP1 PUSH2 0x100 EXP SWAP1 DIV PUSH20 0xFFFFFFFFFFFFFFFFFFFFFFFFFFFFFFFFFFFFFFFF AND SWAP1 DUP1 PUSH1 0x2 ADD PUSH1 0x14 SWAP1 SLOAD SWAP1 PUSH2 0x100 EXP SWAP1 DIV PUSH1 0xFF AND SWAP1 DUP1 PUSH1 0x2 ADD PUSH1 0x15 SWAP1 SLOAD SWAP1 PUSH2 0x100 EXP SWAP1 DIV PUSH1 0xFF AND SWAP1 POP DUP6 JUMP JUMPDEST PUSH1 0x0 DUP1 SLOAD SWAP1 PUSH2 0x100 EXP SWAP1 DIV PUSH20 0xFFFFFFFFFFFFFFFFFFFFFFFFFFFFFFFFFFFFFFFF AND PUSH20 0xFFFFFFFFFFFFFFFFFFFFFFFFFFFFFFFFFFFFFFFF AND CALLER PUSH20 0xFFFFFFFFFFFFFFFFFFFFFFFFFFFFFFFFFFFFFFFF AND EQ PUSH2 0x3FB JUMPI PUSH1 0x0 DUP1 REVERT JUMPDEST PUSH1 0x0 PUSH1 0x1 DUP3 PUSH1 0x40 MLOAD PUSH2 0x40D SWAP2 SWAP1 PUSH2 0xC1B JUMP JUMPDEST SWAP1 DUP2 MSTORE PUSH1 0x20 ADD PUSH1 0x40 MLOAD DUP1 SWAP2 SUB SWAP1 KECCAK256 PUSH1 0x2 ADD PUSH1 0x15 PUSH2 0x100 EXP DUP2 SLOAD DUP2 PUSH1 0xFF MUL NOT AND SWAP1 DUP4 ISZERO ISZERO MUL OR SWAP1 SSTORE POP POP JUMP JUMPDEST PUSH1 0x0 DUP1 SLOAD SWAP1 PUSH2 0x100 EXP SWAP1 DIV PUSH20 0xFFFFFFFFFFFFFFFFFFFFFFFFFFFFFFFFFFFFFFFF AND PUSH20 0xFFFFFFFFFFFFFFFFFFFFFFFFFFFFFFFFFFFFFFFF AND CALLER PUSH20 0xFFFFFFFFFFFFFFFFFFFFFFFFFFFFFFFFFFFFFFFF AND EQ PUSH2 0x490 JUMPI PUSH1 0x0 DUP1 REVERT JUMPDEST PUSH1 0x1 DUP3 PUSH1 0x40 MLOAD PUSH2 0x4A0 SWAP2 SWAP1 PUSH2 0xC1B JUMP JUMPDEST SWAP1 DUP2 MSTORE PUSH1 0x20 ADD PUSH1 0x40 MLOAD DUP1 SWAP2 SUB SWAP1 KECCAK256 PUSH1 0x2 ADD PUSH1 0x14 SWAP1 SLOAD SWAP1 PUSH2 0x100 EXP SWAP1 DIV PUSH1 0xFF AND PUSH2 0x500 JUMPI PUSH1 0x2 DUP3 SWAP1 DUP1 PUSH1 0x1 DUP2 SLOAD ADD DUP1 DUP3 SSTORE DUP1 SWAP2 POP POP PUSH1 0x1 SWAP1 SUB SWAP1 PUSH1 0x0 MSTORE PUSH1 0x20 PUSH1 0x0 KECCAK256 ADD PUSH1 0x0 SWAP1 SWAP2 SWAP1 SWAP2 SWAP1 SWAP2 POP SWAP1 DUP1 MLOAD SWAP1 PUSH1 0x20 ADD SWAP1 PUSH2 0x4FE SWAP3 SWAP2 SWAP1 PUSH2 0x66C JUMP JUMPDEST POP JUMPDEST PUSH1 0x0 PUSH1 0x1 DUP4 PUSH1 0x40 MLOAD PUSH2 0x512 SWAP2 SWAP1 PUSH2 0xC1B JUMP JUMPDEST SWAP1 DUP2 MSTORE PUSH1 0x20 ADD PUSH1 0x40 MLOAD DUP1 SWAP2 SUB SWAP1 KECCAK256 SWAP1 POP DUP5 DUP2 PUSH1 0x0 ADD SWAP1 DUP1 MLOAD SWAP1 PUSH1 0x20 ADD SWAP1 PUSH2 0x53A SWAP3 SWAP2 SWAP1 PUSH2 0x66C JUMP JUMPDEST POP DUP4 DUP2 PUSH1 0x1 ADD SWAP1 DUP1 MLOAD SWAP1 PUSH1 0x20 ADD SWAP1 PUSH2 0x553 SWAP3 SWAP2 SWAP1 PUSH2 0x66C JUMP JUMPDEST POP DUP2 DUP2 PUSH1 0x2 ADD PUSH1 0x0 PUSH2 0x100 EXP DUP2 SLOAD DUP2 PUSH20 0xFFFFFFFFFFFFFFFFFFFFFFFFFFFFFFFFFFFFFFFF MUL NOT AND SWAP1 DUP4 PUSH20 0xFFFFFFFFFFFFFFFFFFFFFFFFFFFFFFFFFFFFFFFF AND MUL OR SWAP1 SSTORE POP PUSH1 0x1 DUP2 PUSH1 0x2 ADD PUSH1 0x14 PUSH2 0x100 EXP DUP2 SLOAD DUP2 PUSH1 0xFF MUL NOT AND SWAP1 DUP4 ISZERO ISZERO MUL OR SWAP1 SSTORE POP PUSH1 0x1 DUP2 PUSH1 0x2 ADD PUSH1 0x15 PUSH2 0x100 EXP DUP2 SLOAD DUP2 PUSH1 0xFF MUL NOT AND SWAP1 DUP4 ISZERO ISZERO MUL OR SWAP1 SSTORE POP POP POP POP POP POP JUMP JUMPDEST PUSH1 0x0 DUP1 SLOAD SWAP1 PUSH2 0x100 EXP SWAP1 DIV PUSH20 0xFFFFFFFFFFFFFFFFFFFFFFFFFFFFFFFFFFFFFFFF AND PUSH20 0xFFFFFFFFFFFFFFFFFFFFFFFFFFFFFFFFFFFFFFFF AND CALLER PUSH20 0xFFFFFFFFFFFFFFFFFFFFFFFFFFFFFFFFFFFFFFFF AND EQ PUSH2 0x630 JUMPI PUSH1 0x0 DUP1 REVERT JUMPDEST PUSH1 0x1 DUP1 DUP3 PUSH1 0x40 MLOAD PUSH2 0x641 SWAP2 SWAP1 PUSH2 0xC1B JUMP JUMPDEST SWAP1 DUP2 MSTORE PUSH1 0x20 ADD PUSH1 0x40 MLOAD DUP1 SWAP2 SUB SWAP1 KECCAK256 PUSH1 0x2 ADD PUSH1 0x15 PUSH2 0x100 EXP DUP2 SLOAD DUP2 PUSH1 0xFF MUL NOT AND SWAP1 DUP4 ISZERO ISZERO MUL OR SWAP1 SSTORE POP POP JUMP JUMPDEST DUP3 DUP1 SLOAD PUSH2 0x678 SWAP1 PUSH2 0xBAD JUMP JUMPDEST SWAP1 PUSH1 0x0 MSTORE PUSH1 0x20 PUSH1 0x0 KECCAK256 SWAP1 PUSH1 0x1F ADD PUSH1 0x20 SWAP1 DIV DUP2 ADD SWAP3 DUP3 PUSH2 0x69A JUMPI PUSH1 0x0 DUP6 SSTORE PUSH2 0x6E1 JUMP JUMPDEST DUP3 PUSH1 0x1F LT PUSH2 0x6B3 JUMPI DUP1 MLOAD PUSH1 0xFF NOT AND DUP4 DUP1 ADD OR DUP6 SSTORE PUSH2 0x6E1 JUMP JUMPDEST DUP3 DUP1 ADD PUSH1 0x1 ADD DUP6 SSTORE DUP3 ISZERO PUSH2 0x6E1 JUMPI SWAP2 DUP3 ADD JUMPDEST DUP3 DUP2 GT ISZERO PUSH2 0x6E0 JUMPI DUP3 MLOAD DUP3 SSTORE SWAP2 PUSH1 0x20 ADD SWAP2 SWAP1 PUSH1 0x1 ADD SWAP1 PUSH2 0x6C5 JUMP JUMPDEST JUMPDEST POP SWAP1 POP PUSH2 0x6EE SWAP2 SWAP1 PUSH2 0x6F2 JUMP JUMPDEST POP SWAP1 JUMP JUMPDEST JUMPDEST DUP1 DUP3 GT ISZERO PUSH2 0x70B JUMPI PUSH1 0x0 DUP2 PUSH1 0x0 SWAP1 SSTORE POP PUSH1 0x1 ADD PUSH2 0x6F3 JUMP JUMPDEST POP SWAP1 JUMP JUMPDEST PUSH1 0x0 PUSH20 0xFFFFFFFFFFFFFFFFFFFFFFFFFFFFFFFFFFFFFFFF DUP3 AND SWAP1 POP SWAP2 SWAP1 POP JUMP JUMPDEST PUSH1 0x0 PUSH2 0x73A DUP3 PUSH2 0x70F JUMP JUMPDEST SWAP1 POP SWAP2 SWAP1 POP JUMP JUMPDEST PUSH2 0x74A DUP2 PUSH2 0x72F JUMP JUMPDEST DUP3 MSTORE POP POP JUMP JUMPDEST PUSH1 0x0 PUSH1 0x20 DUP3 ADD SWAP1 POP PUSH2 0x765 PUSH1 0x0 DUP4 ADD DUP5 PUSH2 0x741 JUMP JUMPDEST SWAP3 SWAP2 POP POP JUMP JUMPDEST PUSH1 0x0 PUSH1 0x40 MLOAD SWAP1 POP SWAP1 JUMP JUMPDEST PUSH1 0x0 DUP1 REVERT JUMPDEST PUSH1 0x0 DUP1 REVERT JUMPDEST PUSH1 0x0 DUP2 SWAP1 POP SWAP2 SWAP1 POP JUMP JUMPDEST PUSH2 0x792 DUP2 PUSH2 0x77F JUMP JUMPDEST DUP2 EQ PUSH2 0x79D JUMPI PUSH1 0x0 DUP1 REVERT JUMPDEST POP JUMP JUMPDEST PUSH1 0x0 DUP2 CALLDATALOAD SWAP1 POP PUSH2 0x7AF DUP2 PUSH2 0x789 JUMP JUMPDEST SWAP3 SWAP2 POP POP JUMP JUMPDEST PUSH1 0x0 PUSH1 0x20 DUP3 DUP5 SUB SLT ISZERO PUSH2 0x7CB JUMPI PUSH2 0x7CA PUSH2 0x775 JUMP JUMPDEST JUMPDEST PUSH1 0x0 PUSH2 0x7D9 DUP5 DUP3 DUP6 ADD PUSH2 0x7A0 JUMP JUMPDEST SWAP2 POP POP SWAP3 SWAP2 POP POP JUMP JUMPDEST PUSH1 0x0 DUP2 MLOAD SWAP1 POP SWAP2 SWAP1 POP JUMP JUMPDEST PUSH1 0x0 DUP3 DUP3 MSTORE PUSH1 0x20 DUP3 ADD SWAP1 POP SWAP3 SWAP2 POP POP JUMP JUMPDEST PUSH1 0x0 JUMPDEST DUP4 DUP2 LT ISZERO PUSH2 0x81C JUMPI DUP1 DUP3 ADD MLOAD DUP2 DUP5 ADD MSTORE PUSH1 0x20 DUP2 ADD SWAP1 POP PUSH2 0x801 JUMP JUMPDEST DUP4 DUP2 GT ISZERO PUSH2 0x82B JUMPI PUSH1 0x0 DUP5 DUP5 ADD MSTORE JUMPDEST POP POP POP POP JUMP JUMPDEST PUSH1 0x0 PUSH1 0x1F NOT PUSH1 0x1F DUP4 ADD AND SWAP1 POP SWAP2 SWAP1 POP JUMP JUMPDEST PUSH1 0x0 PUSH2 0x84D DUP3 PUSH2 0x7E2 JUMP JUMPDEST PUSH2 0x857 DUP2 DUP6 PUSH2 0x7ED JUMP JUMPDEST SWAP4 POP PUSH2 0x867 DUP2 DUP6 PUSH1 0x20 DUP7 ADD PUSH2 0x7FE JUMP JUMPDEST PUSH2 0x870 DUP2 PUSH2 0x831 JUMP JUMPDEST DUP5 ADD SWAP2 POP POP SWAP3 SWAP2 POP POP JUMP JUMPDEST PUSH1 0x0 PUSH1 0x20 DUP3 ADD SWAP1 POP DUP2 DUP2 SUB PUSH1 0x0 DUP4 ADD MSTORE PUSH2 0x895 DUP2 DUP5 PUSH2 0x842 JUMP JUMPDEST SWAP1 POP SWAP3 SWAP2 POP POP JUMP JUMPDEST PUSH1 0x0 DUP1 REVERT JUMPDEST PUSH1 0x0 DUP1 REVERT JUMPDEST PUSH32 0x4E487B7100000000000000000000000000000000000000000000000000000000 PUSH1 0x0 MSTORE PUSH1 0x41 PUSH1 0x4 MSTORE PUSH1 0x24 PUSH1 0x0 REVERT JUMPDEST PUSH2 0x8DF DUP3 PUSH2 0x831 JUMP JUMPDEST DUP2 ADD DUP2 DUP2 LT PUSH8 0xFFFFFFFFFFFFFFFF DUP3 GT OR ISZERO PUSH2 0x8FE JUMPI PUSH2 0x8FD PUSH2 0x8A7 JUMP JUMPDEST JUMPDEST DUP1 PUSH1 0x40 MSTORE POP POP POP JUMP JUMPDEST PUSH1 0x0 PUSH2 0x911 PUSH2 0x76B JUMP JUMPDEST SWAP1 POP PUSH2 0x91D DUP3 DUP3 PUSH2 0x8D6 JUMP JUMPDEST SWAP2 SWAP1 POP JUMP JUMPDEST PUSH1 0x0 PUSH8 0xFFFFFFFFFFFFFFFF DUP3 GT ISZERO PUSH2 0x93D JUMPI PUSH2 0x93C PUSH2 0x8A7 JUMP JUMPDEST JUMPDEST PUSH2 0x946 DUP3 PUSH2 0x831 JUMP JUMPDEST SWAP1 POP PUSH1 0x20 DUP2 ADD SWAP1 POP SWAP2 SWAP1 POP JUMP JUMPDEST DUP3 DUP2 DUP4 CALLDATACOPY PUSH1 0x0 DUP4 DUP4 ADD MSTORE POP POP POP JUMP JUMPDEST PUSH1 0x0 PUSH2 0x975 PUSH2 0x970 DUP5 PUSH2 0x922 JUMP JUMPDEST PUSH2 0x907 JUMP JUMPDEST SWAP1 POP DUP3 DUP2 MSTORE PUSH1 0x20 DUP2 ADD DUP5 DUP5 DUP5 ADD GT ISZERO PUSH2 0x991 JUMPI PUSH2 0x990 PUSH2 0x8A2 JUMP JUMPDEST JUMPDEST PUSH2 0x99C DUP5 DUP3 DUP6 PUSH2 0x953 JUMP JUMPDEST POP SWAP4 SWAP3 POP POP POP JUMP JUMPDEST PUSH1 0x0 DUP3 PUSH1 0x1F DUP4 ADD SLT PUSH2 0x9B9 JUMPI PUSH2 0x9B8 PUSH2 0x89D JUMP JUMPDEST JUMPDEST DUP2 CALLDATALOAD PUSH2 0x9C9 DUP5 DUP3 PUSH1 0x20 DUP7 ADD PUSH2 0x962 JUMP JUMPDEST SWAP2 POP POP SWAP3 SWAP2 POP POP JUMP JUMPDEST PUSH1 0x0 PUSH1 0x20 DUP3 DUP5 SUB SLT ISZERO PUSH2 0x9E8 JUMPI PUSH2 0x9E7 PUSH2 0x775 JUMP JUMPDEST JUMPDEST PUSH1 0x0 DUP3 ADD CALLDATALOAD PUSH8 0xFFFFFFFFFFFFFFFF DUP2 GT ISZERO PUSH2 0xA06 JUMPI PUSH2 0xA05 PUSH2 0x77A JUMP JUMPDEST JUMPDEST PUSH2 0xA12 DUP5 DUP3 DUP6 ADD PUSH2 0x9A4 JUMP JUMPDEST SWAP2 POP POP SWAP3 SWAP2 POP POP JUMP JUMPDEST PUSH1 0x0 DUP2 ISZERO ISZERO SWAP1 POP SWAP2 SWAP1 POP JUMP JUMPDEST PUSH2 0xA30 DUP2 PUSH2 0xA1B JUMP JUMPDEST DUP3 MSTORE POP POP JUMP JUMPDEST PUSH1 0x0 PUSH1 0xA0 DUP3 ADD SWAP1 POP DUP2 DUP2 SUB PUSH1 0x0 DUP4 ADD MSTORE PUSH2 0xA50 DUP2 DUP9 PUSH2 0x842 JUMP JUMPDEST SWAP1 POP DUP2 DUP2 SUB PUSH1 0x20 DUP4 ADD MSTORE PUSH2 0xA64 DUP2 DUP8 PUSH2 0x842 JUMP JUMPDEST SWAP1 POP PUSH2 0xA73 PUSH1 0x40 DUP4 ADD DUP7 PUSH2 0x741 JUMP JUMPDEST PUSH2 0xA80 PUSH1 0x60 DUP4 ADD DUP6 PUSH2 0xA27 JUMP JUMPDEST PUSH2 0xA8D PUSH1 0x80 DUP4 ADD DUP5 PUSH2 0xA27 JUMP JUMPDEST SWAP7 SWAP6 POP POP POP POP POP POP JUMP JUMPDEST PUSH2 0xAA0 DUP2 PUSH2 0x72F JUMP JUMPDEST DUP2 EQ PUSH2 0xAAB JUMPI PUSH1 0x0 DUP1 REVERT JUMPDEST POP JUMP JUMPDEST PUSH1 0x0 DUP2 CALLDATALOAD SWAP1 POP PUSH2 0xABD DUP2 PUSH2 0xA97 JUMP JUMPDEST SWAP3 SWAP2 POP POP JUMP JUMPDEST PUSH1 0x0 DUP1 PUSH1 0x0 DUP1 PUSH1 0x80 DUP6 DUP8 SUB SLT ISZERO PUSH2 0xADD JUMPI PUSH2 0xADC PUSH2 0x775 JUMP JUMPDEST JUMPDEST PUSH1 0x0 DUP6 ADD CALLDATALOAD PUSH8 0xFFFFFFFFFFFFFFFF DUP2 GT ISZERO PUSH2 0xAFB JUMPI PUSH2 0xAFA PUSH2 0x77A JUMP JUMPDEST JUMPDEST PUSH2 0xB07 DUP8 DUP3 DUP9 ADD PUSH2 0x9A4 JUMP JUMPDEST SWAP5 POP POP PUSH1 0x20 DUP6 ADD CALLDATALOAD PUSH8 0xFFFFFFFFFFFFFFFF DUP2 GT ISZERO PUSH2 0xB28 JUMPI PUSH2 0xB27 PUSH2 0x77A JUMP JUMPDEST JUMPDEST PUSH2 0xB34 DUP8 DUP3 DUP9 ADD PUSH2 0x9A4 JUMP JUMPDEST SWAP4 POP POP PUSH1 0x40 DUP6 ADD CALLDATALOAD PUSH8 0xFFFFFFFFFFFFFFFF DUP2 GT ISZERO PUSH2 0xB55 JUMPI PUSH2 0xB54 PUSH2 0x77A JUMP JUMPDEST JUMPDEST PUSH2 0xB61 DUP8 DUP3 DUP9 ADD PUSH2 0x9A4 JUMP JUMPDEST SWAP3 POP POP PUSH1 0x60 PUSH2 0xB72 DUP8 DUP3 DUP9 ADD PUSH2 0xAAE JUMP JUMPDEST SWAP2 POP POP SWAP3 SWAP6 SWAP2 SWAP5 POP SWAP3 POP JUMP JUMPDEST PUSH32 0x4E487B7100000000000000000000000000000000000000000000000000000000 PUSH1 0x0 MSTORE PUSH1 0x22 PUSH1 0x4 MSTORE PUSH1 0x24 PUSH1 0x0 REVERT JUMPDEST PUSH1 0x0 PUSH1 0x2 DUP3 DIV SWAP1 POP PUSH1 0x1 DUP3 AND DUP1 PUSH2 0xBC5 JUMPI PUSH1 0x7F DUP3 AND SWAP2 POP JUMPDEST PUSH1 0x20 DUP3 LT DUP2 EQ ISZERO PUSH2 0xBD9 JUMPI PUSH2 0xBD8 PUSH2 0xB7E JUMP JUMPDEST JUMPDEST POP SWAP2 SWAP1 POP JUMP JUMPDEST PUSH1 0x0 DUP2 SWAP1 POP SWAP3 SWAP2 POP POP JUMP JUMPDEST PUSH1 0x0 PUSH2 0xBF5 DUP3 PUSH2 0x7E2 JUMP JUMPDEST PUSH2 0xBFF DUP2 DUP6 PUSH2 0xBDF JUMP JUMPDEST SWAP4 POP PUSH2 0xC0F DUP2 DUP6 PUSH1 0x20 DUP7 ADD PUSH2 0x7FE JUMP JUMPDEST DUP1 DUP5 ADD SWAP2 POP POP SWAP3 SWAP2 POP POP JUMP JUMPDEST PUSH1 0x0 PUSH2 0xC27 DUP3 DUP5 PUSH2 0xBEA JUMP JUMPDEST SWAP2 POP DUP2 SWAP1 POP SWAP3 SWAP2 POP POP JUMP INVALID LOG2 PUSH5 0x6970667358 0x22 SLT KECCAK256 TIMESTAMP 0xCB 0xEC 0xD SELFBALANCE SWAP4 0xD7 COINBASE BASEFEE PUSH3 0x60FAA PUSH15 0x1BE9F73E688C8BD3FAC5C0866F3CE 0xED KECCAK256 SWAP7 PUSH5 0x736F6C6343 STOP ADDMOD EXP STOP CALLER "},"gasEstimates":{"creation":{"codeDepositCost":"635200","executionCost":"24936","totalCost":"660136"},"external":{"activateAdmin(string)":"infinite","addAdmin(string,string,string,address)":"infinite","admins(string)":"infinite","counties(uint256)":"infinite","deactivateAdmin(string)":"infinite","superAdmin()":"2489"}},"methodIdentifiers":{"activateAdmin(string)":"d2dbd08b","addAdmin(string,string,string,address)":"cddb61b7","admins(string)":"926d7eb0","counties(uint256)":"2a979f31","deactivateAdmin(string)":"9b378699","superAdmin()":"29575f6a"}},"storageLayout":{"storage":[{"astId":14,"contract":"LandRegistration.sol:LandRegistration","label":"superAdmin","offset":0,"slot":"0","type":"t_address"},{"astId":19,"contract":"LandRegistration.sol:LandRegistration","label":"admins","offset":0,"slot":"1","type":"t_mapping(t_string_memory_ptr,t_struct(Admin)12_storage)"},{"astId":22,"contract":"LandRegistration.sol:LandRegistration","label":"counties","offset":0,"slot":"2","type":"t_array(t_string_storage)dyn_storage"}],"types":{"t_address":{"encoding":"inplace","label":"address","numberOfBytes":"20"},"t_array(t_string_storage)dyn_storage":{"base":"t_string_storage","encoding":"dynamic_array","label":"string[]","numberOfBytes":"32"},"t_bool":{"encoding":"inplace","label":"bool","numberOfBytes":"1"},"t_mapping(t_string_memory_ptr,t_struct(Admin)12_storage)":{"encoding":"mapping","key":"t_string_memory_ptr","label":"mapping(string => struct LandRegistration.Admin)","numberOfBytes":"32","value":"t_struct(Admin)12_storage"},"t_string_memory_ptr":{"encoding":"bytes","label":"string","numberOfBytes":"32"},"t_string_storage":{"encoding":"bytes","label":"string","numberOfBytes":"32"},"t_struct(Admin)12_storage":{"encoding":"inplace","label":"struct LandRegistration.Admin","members":[{"astId":3,"contract":"LandRegistration.sol:LandRegistration","label":"firstName","offset":0,"slot":"0","type":"t_string_storage"},{"astId":5,"contract":"LandRegistration.sol:LandRegistration","label":"lastName","offset":0,"slot":"1","type":"t_string_storage"},{"astId":7,"contract":"LandRegistration.sol:LandRegistration","label":"adminAddress","offset":0,"slot":"2","type":"t_address"},{"astId":9,"contract":"LandRegistration.sol:LandRegistration","label":"isValue","offset":20,"slot":"2","type":"t_bool"},{"astId":11,"contract":"LandRegistration.sol:LandRegistration","label":"active","offset":21,"slot":"2","type":"t_bool"}],"numberOfBytes":"96"}}},"userdoc":{"kind":"user","methods":{},"version":1}}